BL51 BANKED LINKER/LOCATER V3.70c               20/07/12  15:15:12  PAGE 1


MS-DOS BL51 BANKED LINKER/LOCATER V3.70c, INVOKED BY:
E:\C51_V5.5\BIN\BL51.EXE ..\MODULY\KS0108B\KS0108B.OBJ, ..\MODULY\EL12864\EL12
>> 864.OBJ, ..\MODULY\DISPLAY\DISPLAY.OBJ, ..\MODULY\FONT\FONT.OBJ, ..\MODULY\
>> ADS123X\ADS123X.OBJ, ..\MODULY\DS17287\DS17287.OBJ, ..\MODULY\RD2\IEP.OBJ, 
>> ..\MODULY\RD2\SPIHW.OBJ, ..\MODULY\ATFLASH\AT45DBXX.OBJ, ..\MODULY\ATFLASH\
>> NVFLASH.OBJ, ..\MODULY\STAT\STAT.OBJ, ..\MODULY\STAT\HISTOGR.OBJ, ..\MODULY
>> \FIFO\FLFIFO.OBJ, ..\MODULY\STAT\AVERAGE.OBJ, MBCB.OBJ, MBREG.OBJ, ..\MODUL
>> Y\MODBUS\MBCOM.OBJ, ..\MODULY\MODBUS\MBRTU.OBJ, ..\MODULY\MODBUS\MBASCII.OB
>> J, ..\MODULY\MODBUS\MBPACKET.OBJ, ..\MODULY\MODBUS\MB.OBJ, ..\MODULY\MODBUS
>> \MBRREGS.OBJ, LANGFR.OBJ, LANGFI.OBJ, LANGTR.OBJ, LANGDK.OBJ, LANGSP.OBJ, L
>> ANGGE.OBJ, LANGGEFR.OBJ, LANGRU.OBJ, LANGGR.OBJ, SPIBAT.OBJ, CFG.OBJ, CAL.O
>> BJ, DATE.OBJ, CURVE.OBJ, FLOCK.OBJ, KBD.OBJ, MENU.OBJ, SCALE.OBJ, ARCHIVE.O
>> BJ, ONLINE.OBJ, MODULE.OBJ, ACCU.OBJ, KBDCTL.OBJ, BLIGHT.OBJ, STR.OBJ, TEST
>> FIFO.OBJ, GSMDIAG.OBJ, CORR.OBJ, SLIDEAVG.OBJ, MAIN.OBJ, ..\MODULY\LIB\MYLI
>> B.LIB TO BAT2.EXE RS (256) PL (68) PW (78) CODE (?C_C51STARTUP, ?PR?MAIN?MA
>> IN)


MEMORY MODEL: SMALL WITH FLOATING POINT ARITHMETIC


INPUT MODULES INCLUDED:
  ..\MODULY\KS0108B\KS0108B.OBJ (KS0108B)
  ..\MODULY\EL12864\EL12864.OBJ (EL12864)
  ..\MODULY\DISPLAY\DISPLAY.OBJ (DISPLAY)
  ..\MODULY\FONT\FONT.OBJ (FONT)
  ..\MODULY\ADS123X\ADS123X.OBJ (ADS123X)
  ..\MODULY\DS17287\DS17287.OBJ (DS17287)
  ..\MODULY\RD2\IEP.OBJ (IEP)
  ..\MODULY\RD2\SPIHW.OBJ (SPIHW)
  ..\MODULY\ATFLASH\AT45DBXX.OBJ (AT45DBXX)
  ..\MODULY\ATFLASH\NVFLASH.OBJ (NVFLASH)
  ..\MODULY\STAT\STAT.OBJ (STAT)
  ..\MODULY\STAT\HISTOGR.OBJ (HISTOGR)
  ..\MODULY\FIFO\FLFIFO.OBJ (FLFIFO)
  ..\MODULY\STAT\AVERAGE.OBJ (AVERAGE)
  MBCB.OBJ (MBCB)
  MBREG.OBJ (MBREG)
  ..\MODULY\MODBUS\MBCOM.OBJ (MBCOM)
  ..\MODULY\MODBUS\MBRTU.OBJ (MBRTU)
  ..\MODULY\MODBUS\MBASCII.OBJ (MBASCII)
  ..\MODULY\MODBUS\MBPACKET.OBJ (MBPACKET)
  ..\MODULY\MODBUS\MB.OBJ (MB)
  ..\MODULY\MODBUS\MBRREGS.OBJ (MBRREGS)
  LANGFR.OBJ (LANGFR)
  LANGFI.OBJ (LANGFI)
  LANGTR.OBJ (LANGTR)
  LANGDK.OBJ (LANGDK)
  LANGSP.OBJ (LANGSP)
  LANGGE.OBJ (LANGGE)
  LANGGEFR.OBJ (LANGGEFR)
  LANGRU.OBJ (LANGRU)
  LANGGR.OBJ (LANGGR)
  SPIBAT.OBJ (SPIBAT)
  CFG.OBJ (CFG)
  CAL.OBJ (CAL)
  DATE.OBJ (DATE)
  CURVE.OBJ (CURVE)
  FLOCK.OBJ (FLOCK)
  KBD.OBJ (KBD)
  MENU.OBJ (MENU)
  SCALE.OBJ (SCALE)
  ARCHIVE.OBJ (ARCHIVE)
  ONLINE.OBJ (ONLINE)
  MODULE.OBJ (MODULE)
  ACCU.OBJ (ACCU)
BL51 BANKED LINKER/LOCATER V3.70c             20/07/12  15:15:12  PAGE 2


  KBDCTL.OBJ (KBDCTL)
  BLIGHT.OBJ (BLIGHT)
  STR.OBJ (STR)
  TESTFIFO.OBJ (TESTFIFO)
  GSMDIAG.OBJ (GSMDIAG)
  CORR.OBJ (CORR)
  SLIDEAVG.OBJ (SLIDEAVG)
  MAIN.OBJ (MAIN)
  ..\MODULY\LIB\MYLIB.LIB (BBIN2BCD)
  ..\MODULY\LIB\MYLIB.LIB (WBIN2BCD)
  ..\MODULY\LIB\MYLIB.LIB (DBIN2BCD)
  ..\MODULY\LIB\MYLIB.LIB (BBCD2BIN)
  ..\MODULY\LIB\MYLIB.LIB (WBCD2BIN)
  ..\MODULY\LIB\MYLIB.LIB (DBCD2BIN)
  ..\MODULY\LIB\MYLIB.LIB (NIBBLE2HEX)
  E:\C51_V5.5\LIB\C51FPS.LIB (?C?FPADD)
  E:\C51_V5.5\LIB\C51FPS.LIB (?C?FPMUL)
  E:\C51_V5.5\LIB\C51FPS.LIB (?C?FPDIV)
  E:\C51_V5.5\LIB\C51FPS.LIB (?C?FPCMP)
  E:\C51_V5.5\LIB\C51FPS.LIB (?C?FPNEG)
  E:\C51_V5.5\LIB\C51FPS.LIB (?C?FCAST)
  E:\C51_V5.5\LIB\C51FPS.LIB (?C?CASTF)
  E:\C51_V5.5\LIB\C51FPS.LIB (EXP)
  E:\C51_V5.5\LIB\C51FPS.LIB (SQRT)
  E:\C51_V5.5\LIB\C51FPS.LIB (?C?FPGETOPN)
  E:\C51_V5.5\LIB\C51FPS.LIB (?C?FPSERIES)
  E:\C51_V5.5\LIB\C51S.LIB (?C_STARTUP)
  E:\C51_V5.5\LIB\C51S.LIB (?C?COPY)
  E:\C51_V5.5\LIB\C51S.LIB (?C?CLDPTR)
  E:\C51_V5.5\LIB\C51S.LIB (?C?CLDOPTR)
  E:\C51_V5.5\LIB\C51S.LIB (?C?CILDPTR)
  E:\C51_V5.5\LIB\C51S.LIB (?C?CILDOPTR)
  E:\C51_V5.5\LIB\C51S.LIB (?C?CSTPTR)
  E:\C51_V5.5\LIB\C51S.LIB (?C?CSTOPTR)
  E:\C51_V5.5\LIB\C51S.LIB (?C?IMUL)
  E:\C51_V5.5\LIB\C51S.LIB (?C?UIDIV)
  E:\C51_V5.5\LIB\C51S.LIB (?C?SIDIV)
  E:\C51_V5.5\LIB\C51S.LIB (?C?IILDX)
  E:\C51_V5.5\LIB\C51S.LIB (?C?ILDPTR)
  E:\C51_V5.5\LIB\C51S.LIB (?C?ILDOPTR)
  E:\C51_V5.5\LIB\C51S.LIB (?C?ISTPTR)
  E:\C51_V5.5\LIB\C51S.LIB (?C?LADD)
  E:\C51_V5.5\LIB\C51S.LIB (?C?LMUL)
  E:\C51_V5.5\LIB\C51S.LIB (?C?ULDIV)
  E:\C51_V5.5\LIB\C51S.LIB (?C?SLDIV)
  E:\C51_V5.5\LIB\C51S.LIB (?C?LNOT)
  E:\C51_V5.5\LIB\C51S.LIB (?C?LNEG)
  E:\C51_V5.5\LIB\C51S.LIB (?C?SLCMP)
  E:\C51_V5.5\LIB\C51S.LIB (?C?ULCMP)
  E:\C51_V5.5\LIB\C51S.LIB (?C?ULSHR)
  E:\C51_V5.5\LIB\C51S.LIB (?C?SLSHR)
  E:\C51_V5.5\LIB\C51S.LIB (?C?LSHL)
  E:\C51_V5.5\LIB\C51S.LIB (?C?LLDIDATA)
  E:\C51_V5.5\LIB\C51S.LIB (?C?LLDCODE)
  E:\C51_V5.5\LIB\C51S.LIB (?C?LLDCODE0)
  E:\C51_V5.5\LIB\C51S.LIB (?C?LSTIDATA)
  E:\C51_V5.5\LIB\C51S.LIB (?C?LSTXDATA)
  E:\C51_V5.5\LIB\C51S.LIB (?C?LSTKIDATA)
  E:\C51_V5.5\LIB\C51S.LIB (?C?LSTKXDATA)
  E:\C51_V5.5\LIB\C51S.LIB (?C?OFFXADD)
  E:\C51_V5.5\LIB\C51S.LIB (?C?PLDPTR)
  E:\C51_V5.5\LIB\C51S.LIB (?C?PSTPTR)
  E:\C51_V5.5\LIB\C51S.LIB (?C?PLDOPTR)
  E:\C51_V5.5\LIB\C51S.LIB (?C?CCASE)
  E:\C51_V5.5\LIB\C51S.LIB (?C?ICASE)
BL51 BANKED LINKER/LOCATER V3.70c             20/07/12  15:15:12  PAGE 3


  E:\C51_V5.5\LIB\C51S.LIB (LABS)
  E:\C51_V5.5\LIB\C51S.LIB (?C?MEMSET)
  E:\C51_V5.5\LIB\C51S.LIB (BINDEC)
  E:\C51_V5.5\LIB\C51S.LIB (NIBBLE)
  E:\C51_V5.5\LIB\C51S.LIB (?C_INIT)
  E:\C51_V5.5\LIB\C51S.LIB (?C?PLDIDATA)
  E:\C51_V5.5\LIB\C51S.LIB (?C?PSTIDATA)
  E:\C51_V5.5\LIB\C51S.LIB (?C?PLDXDATA)
  E:\C51_V5.5\LIB\C51S.LIB (?C?PSTXDATA)
  E:\C51_V5.5\LIB\C51S.LIB (?C?PLDPDATA)
  E:\C51_V5.5\LIB\C51S.LIB (?C?PSTPDATA)
  E:\C51_V5.5\LIB\C51S.LIB (?C?PLDCODE)


LINK MAP OF MODULE:  BAT2.EXE (KS0108B)


            TYPE    BASE      LENGTH    RELOCATION   SEGMENT NAME
            -----------------------------------------------------

            * * * * * * *   D A T A   M E M O R Y   * * * * * * *
            REG     0000H     0008H     ABSOLUTE     "REG BANK 0"
            DATA    0008H     000BH     UNIT         ?DT?MBCOM
            DATA    0013H     0006H     UNIT         ?DT?MAIN
            DATA    0019H     0004H     UNIT         ?DT?_DBCD2BIN?BCD
            DATA    001DH     0001H     UNIT         ?DT?ADS123X
                    001EH     0002H                  *** GAP ***
            BIT     0020H.0   0001H.2   UNIT         _BIT_GROUP_
            BIT     0021H.2   0000H.4   UNIT         ?BI?MAIN
            BIT     0021H.6   0000H.1   UNIT         ?BI?KS0108B
                    0021H.7   0000H.1                *** GAP ***
            DATA    0022H     005EH     UNIT         _DATA_GROUP_
            IDATA   0080H     0016H     UNIT         _IDATA_GROUP_
            IDATA   0096H     0001H     UNIT         ?STACK

            * * * * * * *  X D A T A   M E M O R Y  * * * * * * *
            XDATA   0000H     012CH     UNIT         ?XD?CFG
            XDATA   012CH     0126H     UNIT         ?XD?MENU
            XDATA   0252H     010AH     UNIT         ?XD?ARCHIVE
            XDATA   035CH     0107H     UNIT         ?XD?MBREG
            XDATA   0463H     0102H     UNIT         ?XD?MBCOM
            XDATA   0565H     00BDH     UNIT         ?XD?FLOCK
            XDATA   0622H     003EH     UNIT         ?XD?SCALE
            XDATA   0660H     0015H     UNIT         ?XD?MB
            XDATA   0675H     0014H     UNIT         ?XD?ONLINE
            XDATA   0689H     0010H     UNIT         ?XD?STAT
            XDATA   0699H     0010H     UNIT         ?XD?MODULE
            XDATA   06A9H     000EH     UNIT         ?XD?FONT
            XDATA   06B7H     000DH     UNIT         ?XD?CAL
            XDATA   06C4H     000AH     UNIT         ?XD?DISPLAY
            XDATA   06CEH     000AH     UNIT         ?XD?MAIN
            XDATA   06D8H     0008H     UNIT         ?XD?NVFLASH
            XDATA   06E0H     0006H     UNIT         ?XD?DATE
            XDATA   06E6H     0004H     UNIT         ?XD?ADS123X
            XDATA   06EAH     0001H     UNIT         ?XD?MBASCII
            XDATA   06EBH     0001H     UNIT         ?XD?MBPACKET
            XDATA   06ECH     0001H     UNIT         ?XD?SPIBAT
            XDATA   06EDH     0001H     UNIT         ?XD?KBD
            XDATA   06EEH     0001H     UNIT         ?XD?KBDCTL
            XDATA   06EFH     0001H     UNIT         ?XD?BLIGHT

            * * * * * * *   C O D E   M E M O R Y   * * * * * * *
            CODE    0000H     0003H     ABSOLUTE     
            CODE    0003H     0003H     ABSOLUTE     
            CODE    0006H     0005H     UNIT         ?PR?_MAKEWORD?MBREG
BL51 BANKED LINKER/LOCATER V3.70c             20/07/12  15:15:12  PAGE 4


            CODE    000BH     0003H     ABSOLUTE     
            CODE    000EH     000DH     UNIT         ?PR?KSON?KS0108B
            CODE    001BH     0003H     ABSOLUTE     
            CODE    001EH     0005H     UNIT         ?PR?SPIRELEASE?SPIBAT
            CODE    0023H     0003H     ABSOLUTE     
            CODE    0026H     008CH     UNIT         ?C_C51STARTUP
            CODE    00B2H     0192H     UNIT         ?PR?MAIN?MAIN
            CODE    0244H     14A0H     UNIT         ?CO?FONT
            CODE    16E4H     1454H     UNIT         ?CO?LANGRU
            CODE    2B38H     0CB5H     UNIT         ?PR?MBREGWRITE?MBREG
            CODE    37EDH     0AC2H     UNIT         ?C?LIB_CODE
            CODE    42AFH     0757H     UNIT         ?PR?MBREGREAD?MBREG
            CODE    4A06H     059BH     UNIT         ?PR?_CURVETABLE?CURVE
            CODE    4FA1H     0530H     UNIT         ?PR?_DRAWSTATISTICS?MENU
            CODE    54D1H     0471H     UNIT         ?PR?_DISPLAYEDIT?DISPLAY
            CODE    5942H     03FFH     UNIT         ?CO?MENU
            CODE    5D41H     03C0H     UNIT         ?PR?MENUEXECUTE?MENU
            CODE    6101H     03ABH     UNIT         ?PR?_DISPLAYCHAR?EL12864
            CODE    64ACH     039BH     UNIT         ?PR?DISPLAYARCHIVE?MENU
            CODE    6847H     037CH     UNIT         ?PR?_DISPLAYEDITTEXT?DISP
>> LAY
            CODE    6BC3H     0367H     UNIT         ?PR?_DISPLAYMENU?DISPLAY
            CODE    6F2AH     02CAH     UNIT         ?PR?DRAWWEIGHING?MENU
            CODE    71F4H     029FH     UNIT         ?PR?_DISPLAYDIALOG?DISPLA
>> Y
            CODE    7493H     026DH     UNIT         ?PR?_DRAWHISTOGRAM?MENU
            CODE    7700H     0246H     UNIT         ?PR?RXPACKET?MB
            CODE    7946H     0239H     UNIT         ?PR?_CFGSAVE?CFG
            CODE    7B7FH     0239H     UNIT         ?PR?_ARCHIVEGETLASTAVERAG
>> EANDGAIN?ARCHIV
            CODE    7DB8H     0235H     UNIT         ?PR?STARTWEIGHING?MENU
            CODE    7FEDH     0226H     UNIT         ?PR?CHECKSCALE?SCALE
            CODE    8213H     0218H     UNIT         ?PR?LOGGERDRAWSAMPLES?MEN
>> U
            CODE    842BH     0200H     UNIT         ?CO?MBRTU
            CODE    862BH     01F9H     UNIT         ?PR?_DRAWLEFTSIDE?CURVE
            CODE    8824H     01EEH     UNIT         ?PR?EDITSAVINGPARAMETERS?
>> MENU
            CODE    8A12H     01D6H     UNIT         ?PR?CALCULATEWEIGHT?SCALE
>> 
            CODE    8BE8H     01D5H     UNIT         ?PR?CALIBRATESCALE?MENU
            CODE    8DBDH     01BDH     UNIT         ?PR?_DRAWHEADER?MENU
            CODE    8F7AH     01B3H     UNIT         ?PR?COMISR?MBCOM
            CODE    912DH     01B0H     UNIT         ?PR?_HISTOGRAMADD?HISTOGR
>> 
            CODE    92DDH     01ACH     UNIT         ?PR?_GAUSSINTEGRAL?STAT
            CODE    9489H     01A9H     UNIT         ?PR?_EDITFLOCK?FLOCK
            CODE    9632H     017EH     UNIT         ?PR?_DATEDAYSBETWEENTWODA
>> TES?DATE
            CODE    97B0H     017CH     UNIT         ?PR?_DISPLAYSYMBOL?EL1286
>> 4
            CODE    992CH     0177H     UNIT         ?PR?_MBARECEIVE?MBASCII
            CODE    9AA3H     0162H     UNIT         ?PR?FLOCKCHOOSEFLOCK?FLOC
>> K
            CODE    9C05H     0153H     UNIT         ?PR?DRAWBUTTONS?MENU
            CODE    9D58H     0140H     UNIT         ?PR?_FIFOINIT?FLFIFO
            CODE    9E98H     0134H     UNIT         ?PR?_CURVECALCULATEAPPROX
>> IMATION?CURVE
            CODE    9FCCH     0132H     UNIT         ?PR?_PROCESSNUMBER?DISPLA
>> Y
            CODE    A0FEH     0119H     UNIT         ?PR?EDITDATETIME?MENU
            CODE    A217H     0119H     UNIT         ?PR?_LOGGERGETUNIFORMITY?
>> ARCHIVE
            CODE    A330H     0110H     UNIT         ?PR?EDITCORRECTIONCURVE?M
>> ENU
BL51 BANKED LINKER/LOCATER V3.70c             20/07/12  15:15:12  PAGE 5


            CODE    A440H     0106H     UNIT         ?PR?MODULECOPYFLOCKSFROMM
>> ODULE?MODULE
            CODE    A546H     0101H     UNIT         ?PR?_HISTOGRAMGETDENOMINA
>> TOR?HISTOGR
            CODE    A647H     00FFH     UNIT         ?PR?_STATSIGMA?STAT
            CODE    A746H     00FCH     UNIT         ?PR?SETDEFAULTS?CFG
            CODE    A842H     00FBH     UNIT         ?PR?MODULEVERIFY?MODULE
            CODE    A93DH     00FAH     UNIT         ?PR?SCALEEXECUTE?SCALE
            CODE    AA37H     00F6H     UNIT         ?PR?_HISTOGRAMSETSTEP?HIS
>> TOGR
            CODE    AB2DH     00F1H     UNIT         ?PR?_FIFONEWFRAGMENT?FLFI
>> FO
            CODE    AC1EH     00F0H     UNIT         ?PR?EDITSTATISTICPARAMETE
>> RS?MENU
            CODE    AD0EH     00ECH     UNIT         ?PR?MODULECOPY?MODULE
            CODE    ADFAH     00DFH     UNIT         ?PR?EDITRS485DELAYS?MENU
            CODE    AED9H     00DEH     UNIT         ?PR?_DISPLAYBARGRAF?DISPL
>> AY
            CODE    AFB7H     00DDH     UNIT         ?PR?_STATUNIFORMITY?STAT
            CODE    B094H     00D8H     UNIT         ?PR?_DISPLAYSETAREA?EL128
>> 64
            CODE    B16CH     00D7H     UNIT         ?PR?_FIFONEXT?FLFIFO
            CODE    B243H     00D5H     UNIT         ?PR?CFGSAVECONFIGFROMMODU
>> LE?CFG
            CODE    B318H     00D3H     UNIT         ?PR?_LOGGERSAMPLENUMBER?M
>> ENU
            CODE    B3EBH     00D3H     UNIT         ?PR?ARCHIVEINIT?ARCHIVE
            CODE    B4BEH     00D0H     UNIT         ?PR?_DISPLAYCHOOSEITEM?DI
>> SPLAY
            CODE    B58EH     00CDH     UNIT         ?PR?SYSYIELD?MAIN
            CODE    B65BH     00CCH     UNIT         ?PR?DRAWWEIGHINGWAITING?M
>> ENU
            CODE    B727H     00C9H     UNIT         ?PR?_FIFOPREVIOUS?FLFIFO
            CODE    B7F0H     00C7H     UNIT         ?PR?DISPLAYWELCOMESCREEN?
>> MENU
            CODE    B8B7H     00C4H     UNIT         ?PR?_EDITINITIALWEIGHT?FL
>> OCK
            CODE    B97BH     00C3H     UNIT         ?PR?_FIFOFIRST?FLFIFO
            CODE    BA3EH     00BCH     UNIT         ?PR?_LOGGERBUILDHISTOGRAM
>> ?ARCHIVE
            CODE    BAFAH     00B3H     UNIT         ?PR?_DISPLAYNUMBER?DISPLA
>> Y
            CODE    BBADH     00ADH     UNIT         ?PR?CHECKSTARTWEIGHING?MA
>> IN
            CODE    BC5AH     00ACH     UNIT         ?PR?_CORRECTIONCALCWEIGHT
>> ?CORR
            CODE    BD06H     00AAH     UNIT         ?PR?_SORTCURVE?CURVE
            CODE    BDB0H     00AAH     UNIT         ?PR?SQRT?SQRT
            CODE    BE5AH     00A9H     UNIT         ?PR?_STRMAKEDATE?STR
            CODE    BF03H     00A1H     UNIT         ?PR?FLOCKSTARTWEIGHING?FL
>> OCK
            CODE    BFA4H     009EH     UNIT         ?PR?LOGGERSETLASTPAGE?MEN
>> U
            CODE    C042H     009CH     UNIT         ?PR?_ONLINENEWWEIGHT?ONLI
>> NE
            CODE    C0DEH     009BH     UNIT         ?PR?_FIFOLAST?FLFIFO
            CODE    C179H     009BH     UNIT         ?PR?COPYRECORDSTOMODULE?M
>> ENU
            CODE    C214H     009AH     UNIT         ?PR?_DISPLAYHORLINE?EL128
>> 64
            CODE    C2AEH     009AH     UNIT         ?PR?EXP?EXP
            CODE    C348H     0096H     UNIT         ?PR?READSETUPFROMMODULE?M
>> ENU
            CODE    C3DEH     0093H     UNIT         ?PR?_ENTERTARGETWEIGHT?ME
>> NU
BL51 BANKED LINKER/LOCATER V3.70c             20/07/12  15:15:12  PAGE 6


            CODE    C471H     0092H     UNIT         ?PR?_COMINIT?MBCOM
            CODE    C503H     008FH     UNIT         ?PR?DRAWFRAME?CURVE
            CODE    C592H     008EH     UNIT         ?PR?FLOCKREADWEIGHINGPARA
>> METERS?FLOCK
            CODE    C620H     008EH     UNIT         ?PR?ARCHIVEUPDATE?ARCHIVE
>> 
            CODE    C6AEH     008DH     UNIT         ?PR?_SAVEPAGE?NVFLASH
            CODE    C73BH     008DH     UNIT         ?PR?CFGLOAD?CFG
            CODE    C7C8H     008AH     UNIT         ?PR?_AVERAGEGETAVERAGE?AV
>> ERAGE
            CODE    C852H     008AH     UNIT         ?PR?_CALCULATETARGETFROMY
>> ESTERDAY?FLOCK
            CODE    C8DCH     0087H     UNIT         ?PR?_AVERAGEADD?AVERAGE
            CODE    C963H     0087H     UNIT         ?PR?_MBRRECEIVE?MBRTU
            CODE    C9EAH     0086H     UNIT         ?PR?_REBUILDHISTOGRAM?ARC
>> HIVE
            CODE    CA70H     0085H     UNIT         ?PR?FLASHREADDATA?NVFLASH
>> 
            CODE    CAF5H     0083H     UNIT         ?PR?_STATADD?STAT
            CODE    CB78H     0082H     UNIT         ?PR?_EDITTIMELIMIT?FLOCK
            CODE    CBFAH     0081H     UNIT         ?PR?EDITRS485SPEED?MENU
            CODE    CC7BH     007FH     UNIT         ?PR?KBDGET?KBD
            CODE    CCFAH     007FH     UNIT         ?PR?_DRAWLOGGER?MENU
            CODE    CD79H     007AH     UNIT         ?PR?_CALCULATETARGETFROMA
>> UTOMAT?FLOCK
            CODE    CDF3H     0079H     UNIT         ?PR?EDITIDENTIFICATIONNUM
>> BER?MENU
            CODE    CE6CH     0078H     UNIT         ?PR?CHECKSCALE?MAIN
            CODE    CEE4H     0074H     UNIT         ?PR?_DISPLAYSTRING?DISPLA
>> Y
            CODE    CF58H     0074H     UNIT         ?PR?FLOCKUPDATEDAY?FLOCK
            CODE    CFCCH     0071H     UNIT         ?PR?_SETDEFAULTS?FLOCK
            CODE    D03DH     0070H     UNIT         ?PR?_DISPLAYSETFONT?FONT
            CODE    D0ADH     006FH     UNIT         ?PR?MENULOGGERNEXTPAGE?ME
>> NU
            CODE    D11CH     006DH     UNIT         ?PR?ARCHIVESAVEDAY?ARCHIV
>> E
            CODE    D189H     006CH     UNIT         ?PR?DRAWWEIGHINGSTOPPED?M
>> ENU
            CODE    D1F5H     006CH     UNIT         ?PR?_ARCHIVENEWWEIGHT?ARC
>> HIVE
            CODE    D261H     006CH     UNIT         ?PR?ARCHIVEFINISHDAY?ARCH
>> IVE
            CODE    D2CDH     0068H     UNIT         ?PR?SAVELIMITEDWEIGHTTOUN
>> ?MENU
            CODE    D335H     0067H     UNIT         ?PR?_DISPLAYSETAREAFAST?E
>> L12864
            CODE    D39CH     0066H     UNIT         ?PR?_AVERAGESTEADY?AVERAG
>> E
            CODE    D402H     0065H     UNIT         ?PR?MENULOGGERPREVIOUSPAG
>> E?MENU
            CODE    D467H     0065H     UNIT         ?PR?_LOGGERRECORDSAMPLE?A
>> RCHIVE
            CODE    D4CCH     0062H     UNIT         ?PR?ADCREADVALUE?ADS123X
            CODE    D52EH     0060H     UNIT         ?PR?STATREALUNIFORMITYGET
>> ?STAT
            CODE    D58EH     0060H     UNIT         ?PR?_CALCULATEMARGIN?FLOC
>> K
            CODE    D5EEH     005FH     UNIT         ?PR?_DAYSFROMBEGINNINGOFY
>> EAR?DATE
            CODE    D64DH     005FH     UNIT         ?PR?_SAVECONTEXT?ARCHIVE
            CODE    D6ACH     005EH     UNIT         ?PR?_STATREALUNIFORMITYAD
>> D?STAT
            CODE    D70AH     005DH     UNIT         ?PR?_MENUDISPLAYWEIGHING?
>> MENU
BL51 BANKED LINKER/LOCATER V3.70c             20/07/12  15:15:12  PAGE 7


            CODE    D767H     005CH     UNIT         ?PR?_FLOCKSAVEITEM?FLOCK
            CODE    D7C3H     005BH     UNIT         ?PR?_DATEEQUAL?DATE
            CODE    D81EH     005BH     UNIT         ?PR?MENUINIT?MENU
            CODE    D879H     005BH     UNIT         ?PR?MENULANGUAGE?MENU
            CODE    D8D4H     0059H     UNIT         ?PR?_DISPLAYTEXTWIDTH?FON
>> T
            CODE    D92DH     0058H     UNIT         ?PR?CALSAVE?CAL
            CODE    D985H     0057H     UNIT         ?PR?_MBCWRITEREGISTERS?MB
>> CB
            CODE    D9DCH     0057H     UNIT         ?PR?_FLOCKGETCOMPARISONWE
>> IGHT?FLOCK
            CODE    DA33H     0056H     UNIT         ?PR?_FLOCKREADITEM?FLOCK
            CODE    DA89H     0054H     UNIT         ?PR?EDITRS485ADDRESS?MENU
>> 
            CODE    DADDH     0054H     UNIT         ?PR?_SCALEREADCONVERSIONA
>> VERAGE?SCALE
            CODE    DB31H     0053H     UNIT         ?PR?_FLASHWRITEDATA?NVFLA
>> SH
            CODE    DB84H     0053H     UNIT         ?PR?_FIFOITEMADDRESS?FLFI
>> FO
            CODE    DBD7H     0052H     UNIT         ?PR?_MBCREADREGISTERS?MBC
>> B
            CODE    DC29H     0052H     UNIT         ?PR?_MBEXCEPTION?MB
            CODE    DC7BH     0052H     UNIT         ?PR?_READINITIALWEIGHT?FL
>> OCK
            CODE    DCCDH     0051H     UNIT         ?PR?_FIFORESET?FLFIFO
            CODE    DD1EH     0051H     UNIT         ?PR?_CURVEFINDLASTDAY?CUR
>> VE
            CODE    DD6FH     0050H     UNIT         ?PR?_CALCULATEMARGINS?FLO
>> CK
            CODE    DDBFH     0050H     UNIT         ?PR?DELETEALLFLOCKS?MENU
            CODE    DE0FH     004FH     UNIT         ?PR?EDITORDELETEFLOCK?MEN
>> U
            CODE    DE5EH     004EH     UNIT         ?PR?_FLASHBLOCKREADSTART?
>> AT45DBXX
            CODE    DEACH     004EH     UNIT         ?PR?TIMER1HANDLER?MAIN
            CODE    DEFAH     004DH     UNIT         ?PR?KSINIT?KS0108B
            CODE    DF47H     004DH     UNIT         ?PR?EDITUNITS?MENU
            CODE    DF94H     004DH     UNIT         ?PR?SCALEINIT?SCALE
            CODE    DFE1H     004CH     UNIT         ?PR?_DISPLAYEXPANDNUMBER?
>> DISPLAY
            CODE    E02DH     004CH     UNIT         ?PR?_FLASHWRITESTART?NVFL
>> ASH
            CODE    E079H     004CH     UNIT         ?PR?_HISTOGRAMGETVALUE?HI
>> STOGR
            CODE    E0C5H     004CH     UNIT         ?PR?_FIFOUPDATEFRAGMENT?F
>> LFIFO
            CODE    E111H     004BH     UNIT         ?PR?EDITBACKLIGHT?MENU
            CODE    E15CH     004BH     UNIT         ?PR?CHOOSECOMPARISONFLOCK
>> ?MENU
            CODE    E1A7H     004AH     UNIT         ?PR?FLASHINIT?NVFLASH
            CODE    E1F1H     004AH     UNIT         ?PR?_FLASHREADSTART?NVFLA
>> SH
            CODE    E23BH     004AH     UNIT         ?PR?_WRITEITEM?CFG
            CODE    E285H     0049H     UNIT         ?PR?DISPLAYCLEAR?EL12864
            CODE    E2CEH     0049H     UNIT         ?PR?_LOADPAGE?NVFLASH
            CODE    E317H     0049H     UNIT         ?PR?_FIFOREADFRAGMENT?FLF
>> IFO
            CODE    E360H     0047H     UNIT         ?PR?_MBAWRITEBYTE?MBASCII
>> 
            CODE    E3A7H     0046H     UNIT         ?PR?_DISPLAYFASTVERTLINE?
>> EL12864
            CODE    E3EDH     0045H     UNIT         ?PR?_STATAVERAGE?STAT
            CODE    E432H     0045H     UNIT         ?PR?_STATVARIATION?STAT
            CODE    E477H     0045H     UNIT         ?PR?_MBCMASKWRITEREGISTER
BL51 BANKED LINKER/LOCATER V3.70c             20/07/12  15:15:12  PAGE 8


>> ?MBCB
            CODE    E4BCH     0045H     UNIT         ?PR?MBEXECUTE?MB
            CODE    E501H     0045H     UNIT         ?PR?LOADCONTEXT?ARCHIVE
            CODE    E546H     0044H     UNIT         ?PR?ARCHIVENEWDAY?ARCHIVE
>> 
            CODE    E58AH     0044H     UNIT         ?C?LDIV
            CODE    E5CEH     0043H     UNIT         ?PR?REBUILDHISTOGRAMS?ARC
>> HIVE
            CODE    E611H     0043H     UNIT         ?PR?NEWDAY?ARCHIVE
            CODE    E654H     0042H     UNIT         ?PR?MODULEREADCONFIG?MODU
>> LE
            CODE    E696H     0041H     UNIT         ?PR?WRITEMARGIN?MBREG
            CODE    E6D7H     0040H     UNIT         ?PR?_MBRREADWRITEREGISTER
>> S?MBRREGS
            CODE    E717H     0040H     UNIT         ?PR?DATESET?DATE
            CODE    E757H     0040H     UNIT         ?PR?NEWFLOCK?MENU
            CODE    E797H     003EH     UNIT         ?PR?INTHANDLER?ADS123X
            CODE    E7D5H     003EH     UNIT         ?PR?_MBSETMODE?MBPACKET
            CODE    E813H     003EH     UNIT         ?PR?_CALCULATETARGETFROMC
>> URVE?FLOCK
            CODE    E851H     003EH     UNIT         ?PR?EDITRS485PARITY?MENU
            CODE    E88FH     003EH     UNIT         ?PR?EDITRS485PROTOCOL?MEN
>> U
            CODE    E8CDH     003EH     UNIT         ?PR?_LOGGERGETWEIGHT?ARCH
>> IVE
            CODE    E90BH     003EH     UNIT         BINDEC
            CODE    E949H     003CH     UNIT         ?PR?ARCHIVENEWHOUR?ARCHIV
>> E
            CODE    E985H     003BH     UNIT         ?PR?TIMER0HANDLER?MAIN
            CODE    E9C0H     003BH     UNIT         ?PR?READDATETIME?MAIN
            CODE    E9FBH     003BH     UNIT         ?PR?_DBIN2BCD?DBIN2BCD
            CODE    EA36H     003AH     UNIT         ?PR?MBAWRITECRC?MBASCII
            CODE    EA70H     0039H     UNIT         ?PR?_CALCCRC?MBRTU
            CODE    EAA9H     0039H     UNIT         ?PR?_STRADDCOLON?STR
            CODE    EAE2H     0039H     UNIT         ?PR?_DBCD2BIN?DBCD2BIN
            CODE    EB1BH     0038H     UNIT         ?PR?CLEARDATA?ARCHIVE
            CODE    EB53H     0038H     UNIT         ?PR?_STRMAKETIME?STR
            CODE    EB8BH     0037H     UNIT         ?PR?_FLASHSAVEBUFFER?AT45
>> DBXX
            CODE    EBC2H     0036H     UNIT         ?PR?_MBRMASKWRITEREGISTER
>> ?MBRREGS
            CODE    EBF8H     0036H     UNIT         ?PR?CALLOAD?CAL
            CODE    EC2EH     0035H     UNIT         ?PR?READKEY?KBD
            CODE    EC63H     0035H     UNIT         ?PR?MENUNEXTDISPLAY?MENU
            CODE    EC98H     0034H     UNIT         ?PR?CALSAVETOFLASH?CAL
            CODE    ECCCH     0034H     UNIT         ?PR?_EDITMARGIN?MENU
            CODE    ED00H     0034H     UNIT         ?PR?_LABS?LABS
            CODE    ED34H     0033H     UNIT         ?PR?DRAWLINES?CURVE
            CODE    ED67H     0033H     UNIT         ?PR?FLOCKDELETEALLFLOCKS?
>> FLOCK
            CODE    ED9AH     0032H     UNIT         ?PR?_DAYSTILLENDOFYEAR?DA
>> TE
            CODE    EDCCH     0031H     UNIT         ?PR?_STATCLEAR?STAT
            CODE    EDFDH     0031H     UNIT         ?PR?MBINITIALIZE?MB
            CODE    EE2EH     0030H     UNIT         ?PR?WAITFORREADY?KS0108B
            CODE    EE5EH     0030H     UNIT         ?PR?KSREADDATA?KS0108B
            CODE    EE8EH     0030H     UNIT         ?PR?_GAUSS?STAT
            CODE    EEBEH     0030H     UNIT         ?PR?_STATREALUNIFORMITYIN
>> IT?STAT
            CODE    EEEEH     0030H     UNIT         ?PR?_LOGGERINITARCHIVE?ME
>> NU
            CODE    EF1EH     002FH     UNIT         ?PR?_FINDMAXWEIGHT?CURVE
            CODE    EF4DH     002FH     UNIT         ?PR?_MAKECORRECTION?CORR
            CODE    EF7CH     002FH     UNIT         ?PR?_SYSDELAY?MAIN
            CODE    EFABH     002EH     UNIT         ?PR?RTCINIT?DS17287
BL51 BANKED LINKER/LOCATER V3.70c             20/07/12  15:15:12  PAGE 9


            CODE    EFD9H     002DH     UNIT         ?PR?_MBRREADREGISTERS?MBR
>> REGS
            CODE    F006H     002DH     UNIT         ?PR?_FLOCKDELETEFLOCK?FLO
>> CK
            CODE    F033H     002CH     UNIT         ?PR?_AVERAGECLEAR?AVERAGE
>> 
            CODE    F05FH     002CH     UNIT         ?PR?_MBRECEIVE?MBPACKET
            CODE    F08BH     002CH     UNIT         ?PR?KBDWAITFORKEY?KBDCTL
            CODE    F0B7H     002BH     UNIT         ?PR?_KSWRITECOMMAND?KS010
>> 8B
            CODE    F0E2H     002BH     UNIT         ?PR?_KSWRITEDATA?KS0108B
            CODE    F10DH     002BH     UNIT         ?PR?COMTXSTART?MBCOM
            CODE    F138H     002BH     UNIT         ?PR?_MBRWRITESINGLEREGIST
>> ER?MBRREGS
            CODE    F163H     002BH     UNIT         ?PR?_MBRWRITEREGISTERS?MB
>> RREGS
            CODE    F18EH     002AH     UNIT         ?PR?MODULEISPRESENT?MODUL
>> E
            CODE    F1B8H     0029H     UNIT         ?PR?_MBCWRITESINGLEREGIST
>> ER?MBCB
            CODE    F1E1H     0029H     UNIT         ?PR?_ADDBCDNUMBER?STR
            CODE    F20AH     0028H     UNIT         ?PR?MBCGETBAUD?MBCB
            CODE    F232H     0028H     UNIT         ?PR?LOGGERINITWEIGHING?ME
>> NU
            CODE    F25AH     0027H     UNIT         ?PR?MENUDISPLAYLOWBAT?MEN
>> U
            CODE    F281H     0026H     UNIT         ?PR?_HISTOGRAMEMPTY?HISTO
>> GR
            CODE    F2A7H     0026H     UNIT         ?PR?_SAVEFLOCKNUMBER?FLOC
>> K
            CODE    F2CDH     0025H     UNIT         ?PR?STARTONLINE?MENU
            CODE    F2F2H     0025H     UNIT         ?PR?DRAWACTUALWEIGHT?MENU
>> 
            CODE    F317H     0025H     UNIT         ?PR?_WBCD2BIN?WBCD2BIN
            CODE    F33CH     0024H     UNIT         ?PR?_MBAWRITEADDRESS?MBAS
>> CII
            CODE    F360H     0024H     UNIT         ?PR?BACKLIGHTEXECUTE?BLIG
>> HT
            CODE    F384H     0023H     UNIT         ?PR?_CHECKLETTER?MBREG
            CODE    F3A7H     0023H     UNIT         ?PR?_WBIN2BCD?WBIN2BCD
            CODE    F3CAH     0022H     UNIT         ?PR?_DISPLAYSTRINGCENTER?
>> DISPLAY
            CODE    F3ECH     0022H     UNIT         ?PR?_SWAPBUFFER?NVFLASH
            CODE    F40EH     0022H     UNIT         ?PR?_READCURVE?FLOCK
            CODE    F430H     0022H     UNIT         ?PR?_SAVECURVE?FLOCK
            CODE    F452H     0022H     UNIT         ?CO?ARCHIVE
            CODE    F474H     0021H     UNIT         ?PR?_RTCSETMONTH?DS17287
            CODE    F495H     0021H     UNIT         ?PR?_FLASHWRITEBUFFERSTAR
>> T?AT45DBXX
            CODE    F4B6H     0021H     UNIT         ?PR?_CURVESAVEFIRSTWEIGHT
>> ?CURVE
            CODE    F4D7H     001FH     UNIT         ?PR?_DISPLAYSTRINGRIGHT?D
>> ISPLAY
            CODE    F4F6H     001EH     UNIT         ?PR?FLASHWAITFORREADY?AT4
>> 5DBXX
            CODE    F514H     001EH     UNIT         ?PR?_AVERAGESETLENGTH?AVE
>> RAGE
            CODE    F532H     001EH     UNIT         ?PR?_AVERAGEFULL?AVERAGE
            CODE    F550H     001EH     UNIT         ?PR?STOPWEIGHING?MENU
            CODE    F56EH     001EH     UNIT         ?PR?_LOGGERNEWHOUR?ARCHIV
>> E
            CODE    F58CH     001EH     UNIT         ?PR?_ONLINENEWHOUR?ONLINE
>> 
            CODE    F5AAH     001CH     UNIT         ?PR?_DECODESTRING?DISPLAY
>> 
BL51 BANKED LINKER/LOCATER V3.70c             20/07/12  15:15:12  PAGE 10


            CODE    F5C6H     001CH     UNIT         ?PR?_FLOCKREADFLOCKNUMBER
>> ?FLOCK
            CODE    F5E2H     001BH     UNIT         ?PR?_RTCWRITE?DS17287
            CODE    F5FDH     001BH     UNIT         ?PR?_RTCRAMWRITE?DS17287
            CODE    F618H     001BH     UNIT         ?PR?_HISTOGRAMCLEAR?HISTO
>> GR
            CODE    F633H     001BH     UNIT         ?PR?_EDITGROWTHCURVE?FLOC
>> K
            CODE    F64EH     001BH     UNIT         ?PR?ARCHIVERESET?ARCHIVE
            CODE    F669H     001BH     UNIT         ?PR?ONLINEINIT?ONLINE
            CODE    F684H     001AH     UNIT         ?PR?_RTCREAD?DS17287
            CODE    F69EH     001AH     UNIT         ?PR?RETRY?MENU
            CODE    F6B8H     001AH     UNIT         ?PR?KBDWAITFORENTERESC?KB
>> DCTL
            CODE    F6D2H     0019H     UNIT         ?PR?_CALCULATETARGETWEIGH
>> T?FLOCK
            CODE    F6EBH     0019H     UNIT         ?PR?CHANGEMANUALPAUSE?MEN
>> U
            CODE    F704H     0018H     UNIT         ?PR?_RTCSETDAY?DS17287
            CODE    F71CH     0018H     UNIT         ?PR?_COMSETTXSPACE?MBCOM
            CODE    F734H     0018H     UNIT         ?PR?SCALEENABLE?SCALE
            CODE    F74CH     0017H     UNIT         ?PR?_RTCRAMREAD?DS17287
            CODE    F763H     0017H     UNIT         ?PR?COMRXSTART?MBCOM
            CODE    F77AH     0017H     UNIT         ?PR?_MBRWRITEBYTE?MBRTU
            CODE    F791H     0017H     UNIT         ?PR?EDITCOMPARISON?MENU
            CODE    F7A8H     0016H     UNIT         ?PR?ADCSETUP?ADS123X
            CODE    F7BEH     0016H     UNIT         ?PR?ADCREAD?ADS123X
            CODE    F7D4H     0016H     UNIT         ?C_INITSEG
            CODE    F7EAH     0016H     UNIT         ?PR?_IEPREAD?IEP
            CODE    F800H     0016H     UNIT         ?PR?_IEPRAWWRITEBYTE?IEP
            CODE    F816H     0016H     UNIT         ?PR?_COMSETTIMEOUT?MBCOM
            CODE    F82CH     0016H     UNIT         ?PR?_MBWRITEWORD?MBPACKET
>> 
            CODE    F842H     0016H     UNIT         ?PR?ACCUWAITFORVOLTAGE?AC
>> CU
            CODE    F858H     0015H     UNIT         ?PR?_RTCSETYEAR?DS17287
            CODE    F86DH     0015H     UNIT         ?PR?_GETDWORDMSB?MBREG
            CODE    F882H     0015H     UNIT         ?PR?MBRWRITECRC?MBRTU
            CODE    F897H     0015H     UNIT         ?PR?_CFGCALCCHECKSUM?CFG
            CODE    F8ACH     0015H     UNIT         ?PR?FLOCKSTOPWEIGHING?FLO
>> CK
            CODE    F8C1H     0015H     UNIT         ?PR?CHECKVOLTAGE?MAIN
            CODE    F8D6H     0014H     UNIT         ?PR?_DISPLAYVERTLINE?EL12
>> 864
            CODE    F8EAH     0014H     UNIT         ?PR?_FLASHWRITEBYTE?NVFLA
>> SH
            CODE    F8FEH     0014H     UNIT         ?PR?MENUHISTOGRAMMOVELEFT
>> ?MENU
            CODE    F912H     0014H     UNIT         ?PR?SCALEINITAVERAGE?SCAL
>> E
            CODE    F926H     0014H     UNIT         ?PR?KBDWAITFORENTER?KBDCT
>> L
            CODE    F93AH     0013H     UNIT         ?PR?ADCINIT?ADS123X
            CODE    F94DH     0013H     UNIT         ?PR?FLASHSTATUS?AT45DBXX
            CODE    F960H     0013H     UNIT         ?PR?MBREGINIT?MBREG
            CODE    F973H     0013H     UNIT         ?PR?FLOCKEXECUTESTARTWEIG
>> HING?FLOCK
            CODE    F986H     0013H     UNIT         ?PR?MENUHISTOGRAMMOVERIGH
>> T?MENU
            CODE    F999H     0012H     UNIT         ?PR?_GETDWORDLSB?MBREG
            CODE    F9ABH     0012H     UNIT         ?PR?COMSTOPALL?MBCOM
            CODE    F9BDH     0012H     UNIT         ?PR?_MBAWRITEWORD?MBASCII
>> 
            CODE    F9CFH     0012H     UNIT         ?PR?_MBWRITEADDRESS?MBPAC
>> KET
BL51 BANKED LINKER/LOCATER V3.70c             20/07/12  15:15:12  PAGE 11


            CODE    F9E1H     0012H     UNIT         ?PR?_MBWRITEBYTE?MBPACKET
>> 
            CODE    F9F3H     0011H     UNIT         ?PR?KBDPOWERUPRELEASE?KBD
>> 
            CODE    FA04H     0011H     UNIT         ?PR?SCALESETPAUSE?SCALE
            CODE    FA15H     0011H     UNIT         ?CO?ONLINE
            CODE    FA26H     0010H     UNIT         ?PR?_RTCSETSEC?DS17287
            CODE    FA36H     0010H     UNIT         ?PR?_RTCSETMIN?DS17287
            CODE    FA46H     0010H     UNIT         ?PR?_RTCSETHOUR?DS17287
            CODE    FA56H     0010H     UNIT         ?PR?_MBRWRITEWORD?MBRTU
            CODE    FA66H     0010H     UNIT         ?PR?CLEARSTATUS?MB
            CODE    FA76H     0010H     UNIT         ?PR?SPIATTACH?SPIBAT
            CODE    FA86H     0010H     UNIT         ?PR?CLEARCURSOR?CURVE
            CODE    FA96H     0010H     UNIT         ?PR?_READHEADER?FLOCK
            CODE    FAA6H     0010H     UNIT         ?PR?_SAVEHEADER?FLOCK
            CODE    FAB6H     0010H     UNIT         ?PR?KBDPOWERUPKEY?KBD
            CODE    FAC6H     0010H     UNIT         ?PR?_ARCHIVENEWACTUALWEIG
>> HT?ARCHIVE
            CODE    FAD6H     0010H     UNIT         ?PR?BACKLIGHTAUTOON?BLIGH
>> T
            CODE    FAE6H     0010H     UNIT         ?PR?_BBIN2BCD?BBIN2BCD
            CODE    FAF6H     000FH     UNIT         ?PR?ADCSTART?ADS123X
            CODE    FB05H     000FH     UNIT         ?PR?MENUCHANGEGENDER?MENU
>> 
            CODE    FB14H     000FH     UNIT         ?PR?_BBCD2BIN?BBCD2BIN
            CODE    FB23H     000EH     UNIT         ?PR?_FLASHREADBYTE?NVFLAS
>> H
            CODE    FB31H     000EH     UNIT         ?PR?MBGETADDRESS?MBPACKET
>> 
            CODE    FB3FH     000EH     UNIT         ?PR?MBWRITECRC?MBPACKET
            CODE    FB4DH     000DH     UNIT         ?CO?DATE
            CODE    FB5AH     000CH     UNIT         ?PR?MBCGETMODE?MBCB
            CODE    FB66H     000CH     UNIT         ?PR?_CURVELOADFIRSTWEIGHT
>> ?CURVE
            CODE    FB72H     000BH     UNIT         ?PR?SPIREADBYTE?SPIHW
            CODE    FB7DH     000BH     UNIT         ?PR?SYSENABLETIMEOUT?MAIN
>> 
            CODE    FB88H     000BH     UNIT         ?PR?_NIBBLE2HEX?NIBBLE2HE
>> X
            CODE    FB93H     000BH     UNIT         NIBBLE
            CODE    FB9EH     000AH     UNIT         ?PR?SPIINIT?SPIHW
            CODE    FBA8H     000AH     UNIT         ?PR?_FLOCKCONTAINSCURVE?F
>> LOCK
            CODE    FBB2H     000AH     UNIT         ?PR?SYSDISABLETIMEOUT?MAI
>> N
            CODE    FBBCH     0009H     UNIT         ?PR?_LANGSIMPLEDECODE?DIS
>> PLAY
            CODE    FBC5H     0009H     UNIT         ?PR?RTCYEAR?DS17287
            CODE    FBCEH     0009H     UNIT         ?PR?MBCGETTXSPACE?MBCB
            CODE    FBD7H     0009H     UNIT         ?PR?_MBRWRITEADDRESS?MBRT
>> U
            CODE    FBE0H     0009H     UNIT         ?PR?CLEARTIMELIMIT?FLOCK
            CODE    FBE9H     0009H     UNIT         ?CO?FLOCK
            CODE    FBF2H     0008H     UNIT         ?PR?_SPIWRITEBYTE?SPIHW
            CODE    FBFAH     0008H     UNIT         ?PR?MBCGETTIMEOUT?MBCB
            CODE    FC02H     0008H     UNIT         ?PR?ONLINERESET?ONLINE
            CODE    FC0AH     0008H     UNIT         ?PR?SYSWAITEVENT?MAIN
            CODE    FC12H     0007H     UNIT         ?PR?IEPPAGEWRITESTART?IEP
>> 
            CODE    FC19H     0007H     UNIT         ?PR?BACKLIGHTINIT?BLIGHT
            CODE    FC20H     0007H     UNIT         ?PR?SYSSETTIMEOUT?MAIN
            CODE    FC27H     0006H     UNIT         ?PR?ADCSTOP?ADS123X
            CODE    FC2DH     0006H     UNIT         ?PR?RTCSEC?DS17287
            CODE    FC33H     0006H     UNIT         ?PR?RTCMIN?DS17287
            CODE    FC39H     0006H     UNIT         ?PR?RTCHOUR?DS17287
BL51 BANKED LINKER/LOCATER V3.70c             20/07/12  15:15:12  PAGE 12


            CODE    FC3FH     0006H     UNIT         ?PR?RTCDAY?DS17287
            CODE    FC45H     0006H     UNIT         ?PR?RTCMONTH?DS17287
            CODE    FC4BH     0006H     UNIT         ?PR?MBCGETPARITY?MBCB
            CODE    FC51H     0006H     UNIT         ?PR?MBCGETOWNADDRESS?MBCB
>> 
            CODE    FC57H     0006H     UNIT         ?PR?MBRGETADDRESS?MBRTU
            CODE    FC5DH     0006H     UNIT         ?PR?MBAGETADDRESS?MBASCII
>> 
            CODE    FC63H     0006H     UNIT         ?PR?MBGETFUNCTIONCODE?MB
            CODE    FC69H     0006H     UNIT         ?PR?_FLOCKNEWFLOCK?FLOCK
            CODE    FC6FH     0006H     UNIT         ?PR?_FLOCKEDITFLOCK?FLOCK
>> 
            CODE    FC75H     0006H     UNIT         ?PR?KBDINIT?KBD
            CODE    FC7BH     0006H     UNIT         ?PR?SCALEDISABLE?SCALE
            CODE    FC81H     0006H     UNIT         ?PR?KBDDISCARDKEY?KBDCTL
            CODE    FC87H     0004H     UNIT         ?PR?DISPLAYINIT?EL12864
            CODE    FC8BH     0004H     UNIT         ?PR?DISPLAYON?EL12864
            CODE    FC8FH     0003H     UNIT         ?PR?GETHWVERSION?CFG
            CODE    FC92H     0001H     UNIT         ?PR?KBDBEEPKEY?KBDCTL



OVERLAY MAP OF MODULE:   BAT2.EXE (KS0108B)


SEGMENT                                             BIT_GROUP          DATA_GR
>> OUP          IDATA_GROUP
  +--> CALLED SEGMENT                            START    LENGTH     START    
>> LENGTH     START    LENGTH
------------------------------------------------------------------------------
>> --------------------------
?C_C51STARTUP                                    -----    -----      -----    
>> -----      -----    -----
  +--> ?PR?MAIN?MAIN
  +--> ?C_INITSEG

?PR?MAIN?MAIN                                    -----    -----      -----    
>> -----      -----    -----
  +--> ?PR?_SYSDELAY?MAIN
  +--> ?PR?ACCUWAITFORVOLTAGE?ACCU
  +--> ?PR?KBDINIT?KBD
  +--> ?PR?RTCINIT?DS17287
  +--> ?PR?READDATETIME?MAIN
  +--> ?PR?RTCSEC?DS17287
  +--> ?PR?FLASHINIT?NVFLASH
  +--> ?PR?CFGLOAD?CFG
  +--> ?PR?CALLOAD?CAL
  +--> ?PR?MENUINIT?MENU
  +--> ?PR?BACKLIGHTINIT?BLIGHT
  +--> ?PR?ARCHIVEINIT?ARCHIVE
  +--> ?PR?_DATEEQUAL?DATE
  +--> ?PR?FLOCKREADWEIGHINGPARAMETERS?FLOCK
  +--> ?PR?SCALEINIT?SCALE
  +--> ?PR?MBINITIALIZE?MB
  +--> ?PR?MBREGINIT?MBREG
  +--> ?PR?KBDPOWERUPKEY?KBD
  +--> ?PR?KBDBEEPKEY?KBDCTL
  +--> ?PR?KBDPOWERUPRELEASE?KBD
  +--> ?PR?MENULANGUAGE?MENU
  +--> ?PR?SYSWAITEVENT?MAIN
  +--> ?PR?MENUEXECUTE?MENU
  +--> ?PR?KBDDISCARDKEY?KBDCTL
  +--> ?PR?_MENUDISPLAYWEIGHING?MENU
  +--> ?PR?MENUNEXTDISPLAY?MENU
  +--> ?PR?MENUCHANGEGENDER?MENU
BL51 BANKED LINKER/LOCATER V3.70c             20/07/12  15:15:12  PAGE 13


  +--> ?PR?MENUHISTOGRAMMOVERIGHT?MENU
  +--> ?PR?MENULOGGERNEXTPAGE?MENU
  +--> ?PR?MENUHISTOGRAMMOVELEFT?MENU
  +--> ?PR?MENULOGGERPREVIOUSPAGE?MENU

?PR?ACCUWAITFORVOLTAGE?ACCU                      -----    -----      -----    
>> -----      -----    -----
  +--> ?PR?_SYSDELAY?MAIN

?PR?RTCINIT?DS17287                              -----    -----      0022H    
>> 0001H      -----    -----
  +--> ?PR?_RTCWRITE?DS17287
  +--> ?PR?_RTCREAD?DS17287

?PR?READDATETIME?MAIN                            -----    -----      -----    
>> -----      -----    -----
  +--> ?PR?RTCDAY?DS17287
  +--> ?PR?_BBCD2BIN?BBCD2BIN
  +--> ?PR?RTCMONTH?DS17287
  +--> ?PR?RTCYEAR?DS17287
  +--> ?PR?_WBCD2BIN?WBCD2BIN
  +--> ?PR?RTCHOUR?DS17287
  +--> ?PR?RTCMIN?DS17287

?PR?RTCDAY?DS17287                               -----    -----      -----    
>> -----      -----    -----
  +--> ?PR?_RTCREAD?DS17287

?PR?RTCMONTH?DS17287                             -----    -----      -----    
>> -----      -----    -----
  +--> ?PR?_RTCREAD?DS17287

?PR?RTCYEAR?DS17287                              -----    -----      -----    
>> -----      -----    -----
  +--> ?PR?_RTCREAD?DS17287

?PR?_WBCD2BIN?WBCD2BIN                           -----    -----      -----    
>> -----      -----    -----
  +--> ?PR?_BBCD2BIN?BBCD2BIN

?PR?RTCHOUR?DS17287                              -----    -----      -----    
>> -----      -----    -----
  +--> ?PR?_RTCREAD?DS17287

?PR?RTCMIN?DS17287                               -----    -----      -----    
>> -----      -----    -----
  +--> ?PR?_RTCREAD?DS17287

?PR?RTCSEC?DS17287                               -----    -----      -----    
>> -----      -----    -----
  +--> ?PR?_RTCREAD?DS17287

?PR?FLASHINIT?NVFLASH                            -----    -----      -----    
>> -----      -----    -----
  +--> ?PR?SPIINIT?SPIHW
  +--> ?PR?_RTCRAMREAD?DS17287
  +--> ?PR?_SAVEPAGE?NVFLASH

?PR?_RTCRAMREAD?DS17287                          -----    -----      -----    
>> -----      -----    -----
  +--> ?PR?_RTCWRITE?DS17287
  +--> ?PR?_RTCREAD?DS17287

?PR?_SAVEPAGE?NVFLASH                            -----    -----      0074H    
>> 0004H      -----    -----
BL51 BANKED LINKER/LOCATER V3.70c             20/07/12  15:15:12  PAGE 14


  +--> ?PR?_FLASHWRITEBUFFERSTART?AT45DBXX
  +--> ?PR?_RTCRAMREAD?DS17287
  +--> ?PR?_SPIWRITEBYTE?SPIHW
  +--> ?PR?SPIRELEASE?SPIBAT
  +--> ?PR?_FLASHSAVEBUFFER?AT45DBXX
  +--> ?PR?FLASHWAITFORREADY?AT45DBXX
  +--> ?PR?_FLASHBLOCKREADSTART?AT45DBXX
  +--> ?PR?SPIREADBYTE?SPIHW
  +--> ?PR?_RTCRAMWRITE?DS17287

?PR?_FLASHWRITEBUFFERSTART?AT45DBXX              -----    -----      0078H    
>> 0002H      -----    -----
  +--> ?PR?SPIATTACH?SPIBAT
  +--> ?PR?_SPIWRITEBYTE?SPIHW

?PR?_FLASHSAVEBUFFER?AT45DBXX                    -----    -----      0078H    
>> 0002H      -----    -----
  +--> ?PR?SPIATTACH?SPIBAT
  +--> ?PR?_SPIWRITEBYTE?SPIHW
  +--> ?PR?SPIRELEASE?SPIBAT

?PR?FLASHWAITFORREADY?AT45DBXX                   -----    -----      0078H    
>> 0002H      -----    -----
  +--> ?PR?FLASHSTATUS?AT45DBXX

?PR?FLASHSTATUS?AT45DBXX                         -----    -----      007AH    
>> 0001H      -----    -----
  +--> ?PR?SPIATTACH?SPIBAT
  +--> ?PR?_SPIWRITEBYTE?SPIHW
  +--> ?PR?SPIREADBYTE?SPIHW
  +--> ?PR?SPIRELEASE?SPIBAT

?PR?_FLASHBLOCKREADSTART?AT45DBXX                -----    -----      0078H    
>> 0004H      -----    -----
  +--> ?PR?SPIATTACH?SPIBAT
  +--> ?PR?_SPIWRITEBYTE?SPIHW

?PR?_RTCRAMWRITE?DS17287                         -----    -----      -----    
>> -----      -----    -----
  +--> ?PR?_RTCWRITE?DS17287

?PR?CFGLOAD?CFG                                  -----    -----      0022H    
>> 0003H      -----    -----
  +--> ?PR?_FLASHREADSTART?NVFLASH
  +--> ?PR?FLASHREADDATA?NVFLASH
  +--> ?PR?SPIRELEASE?SPIBAT
  +--> ?PR?SETDEFAULTS?CFG
  +--> ?PR?_CFGSAVE?CFG
  +--> ?PR?_CFGCALCCHECKSUM?CFG
  +--> ?PR?GETHWVERSION?CFG

?PR?_FLASHREADSTART?NVFLASH                      -----    -----      006CH    
>> 0004H      -----    -----
  +--> ?PR?_FLASHBLOCKREADSTART?AT45DBXX

?PR?FLASHREADDATA?NVFLASH                        -----    -----      006CH    
>> 0001H      -----    -----
  +--> ?PR?_RTCRAMREAD?DS17287
  +--> ?PR?SPIREADBYTE?SPIHW
  +--> ?PR?SPIRELEASE?SPIBAT
  +--> ?PR?_FLASHBLOCKREADSTART?AT45DBXX

?PR?SETDEFAULTS?CFG                              -----    -----      -----    
>> -----      -----    -----
  +--> ?PR?GETHWVERSION?CFG
BL51 BANKED LINKER/LOCATER V3.70c             20/07/12  15:15:12  PAGE 15


  +--> ?PR?_CFGCALCCHECKSUM?CFG

?PR?_CFGSAVE?CFG                                 -----    -----      004BH    
>> 0004H      -----    -----
  +--> ?PR?GETHWVERSION?CFG
  +--> ?PR?_CFGCALCCHECKSUM?CFG
  +--> ?PR?_WRITEITEM?CFG
  +--> ?PR?_FLASHWRITESTART?NVFLASH

?PR?_WRITEITEM?CFG                               -----    -----      004FH    
>> 0007H      -----    -----
  +--> ?PR?_FLASHWRITESTART?NVFLASH
  +--> ?PR?_FLASHWRITEDATA?NVFLASH

?PR?_FLASHWRITESTART?NVFLASH                     -----    -----      006CH    
>> 0006H      -----    -----
  +--> ?PR?_SWAPBUFFER?NVFLASH

?PR?_SWAPBUFFER?NVFLASH                          -----    -----      0072H    
>> 0002H      -----    -----
  +--> ?PR?_SAVEPAGE?NVFLASH
  +--> ?PR?_LOADPAGE?NVFLASH

?PR?_LOADPAGE?NVFLASH                            -----    -----      0074H    
>> 0004H      -----    -----
  +--> ?PR?_FLASHBLOCKREADSTART?AT45DBXX
  +--> ?PR?SPIREADBYTE?SPIHW
  +--> ?PR?_RTCRAMWRITE?DS17287
  +--> ?PR?SPIRELEASE?SPIBAT

?PR?_FLASHWRITEDATA?NVFLASH                      -----    -----      -----    
>> -----      -----    -----
  +--> ?PR?_RTCRAMWRITE?DS17287
  +--> ?PR?_SWAPBUFFER?NVFLASH

?PR?CALLOAD?CAL                                  -----    -----      0023H    
>> 0005H      -----    -----
  +--> ?PR?_IEPREAD?IEP

?PR?MENUINIT?MENU                                -----    -----      -----    
>> -----      -----    -----
  +--> ?PR?DISPLAYINIT?EL12864
  +--> ?PR?DISPLAYCLEAR?EL12864
  +--> ?PR?DISPLAYWELCOMESCREEN?MENU
  +--> ?PR?_DISPLAYSETFONT?FONT
  +--> ?CO?ARCHIVE

?PR?DISPLAYINIT?EL12864                          -----    -----      -----    
>> -----      -----    -----
  +--> ?PR?KSINIT?KS0108B

?PR?KSINIT?KS0108B                               -----    -----      -----    
>> -----      -----    -----
  +--> ?PR?_SYSDELAY?MAIN
  +--> ?PR?_KSWRITECOMMAND?KS0108B

?PR?_KSWRITECOMMAND?KS0108B                      -----    -----      -----    
>> -----      -----    -----
  +--> ?PR?WAITFORREADY?KS0108B

?PR?DISPLAYCLEAR?EL12864                         -----    -----      0033H    
>> 0002H      -----    -----
  +--> ?PR?_KSWRITECOMMAND?KS0108B
  +--> ?PR?_KSWRITEDATA?KS0108B

BL51 BANKED LINKER/LOCATER V3.70c             20/07/12  15:15:12  PAGE 16


?PR?_KSWRITEDATA?KS0108B                         -----    -----      -----    
>> -----      -----    -----
  +--> ?PR?WAITFORREADY?KS0108B

?PR?DISPLAYWELCOMESCREEN?MENU                    -----    -----      -----    
>> -----      -----    -----
  +--> ?PR?_DISPLAYSETFONT?FONT
  +--> ?CO?MENU
  +--> ?PR?_DISPLAYSYMBOL?EL12864
  +--> ?PR?_WBCD2BIN?WBCD2BIN
  +--> ?PR?_DISPLAYNUMBER?DISPLAY
  +--> ?PR?_DISPLAYCHAR?EL12864
  +--> ?CO?LANGRU
  +--> ?PR?_DECODESTRING?DISPLAY
  +--> ?PR?_DISPLAYSTRINGRIGHT?DISPLAY
  +--> ?PR?_DISPLAYSTRING?DISPLAY

?PR?_DISPLAYSETFONT?FONT                         -----    -----      -----    
>> -----      -----    -----
  +--> ?CO?FONT

?PR?_DISPLAYSYMBOL?EL12864                       0021H.0  0000H.2    0033H    
>> 000EH      -----    -----
  +--> ?PR?_KSWRITECOMMAND?KS0108B
  +--> ?PR?KSREADDATA?KS0108B
  +--> ?PR?_KSWRITEDATA?KS0108B

?PR?KSREADDATA?KS0108B                           -----    -----      -----    
>> -----      -----    -----
  +--> ?PR?WAITFORREADY?KS0108B

?PR?_DISPLAYNUMBER?DISPLAY                       -----    -----      0030H    
>> 000DH      -----    -----
  +--> ?PR?_PROCESSNUMBER?DISPLAY
  +--> ?PR?_DISPLAYCHAR?EL12864

?PR?_PROCESSNUMBER?DISPLAY                       0020H.3  0000H.1    003DH    
>> 0008H      -----    -----
  +--> ?PR?_DISPLAYEXPANDNUMBER?DISPLAY

?PR?_DISPLAYEXPANDNUMBER?DISPLAY                 -----    -----      0045H    
>> 0004H      -----    -----

?PR?_DISPLAYCHAR?EL12864                         0021H.0  0000H.2    003DH    
>> 000DH      -----    -----
  +--> ?PR?_KSWRITECOMMAND?KS0108B
  +--> ?PR?_KSWRITEDATA?KS0108B
  +--> ?PR?KSREADDATA?KS0108B

?PR?_DISPLAYSTRINGRIGHT?DISPLAY                  -----    -----      0030H    
>> 0005H      -----    -----
  +--> ?PR?_DISPLAYTEXTWIDTH?FONT
  +--> ?PR?_DISPLAYSTRING?DISPLAY

?PR?_DISPLAYTEXTWIDTH?FONT                       -----    -----      0037H    
>> 0004H      -----    -----

?PR?_DISPLAYSTRING?DISPLAY                       -----    -----      0037H    
>> 0006H      -----    -----
  +--> ?PR?_DISPLAYCHAR?EL12864

?PR?ARCHIVEINIT?ARCHIVE                          -----    -----      004AH    
>> 0004H      -----    -----
  +--> ?PR?LOADCONTEXT?ARCHIVE
  +--> ?PR?CLEARDATA?ARCHIVE
BL51 BANKED LINKER/LOCATER V3.70c             20/07/12  15:15:12  PAGE 17


  +--> ?PR?_SAVECONTEXT?ARCHIVE
  +--> ?PR?ONLINEINIT?ONLINE
  +--> ?CO?ARCHIVE
  +--> ?PR?_FIFOINIT?FLFIFO
  +--> ?PR?_FIFOLAST?FLFIFO
  +--> ?PR?NEWDAY?ARCHIVE
  +--> ?PR?_FIFOREADFRAGMENT?FLFIFO
  +--> ?PR?_DATEEQUAL?DATE
  +--> ?PR?_FIFOITEMADDRESS?FLFIFO

?PR?LOADCONTEXT?ARCHIVE                          -----    -----      004EH    
>> 0005H      -----    -----
  +--> ?PR?_RTCRAMREAD?DS17287

?PR?CLEARDATA?ARCHIVE                            -----    -----      -----    
>> -----      -----    -----
  +--> ?PR?_STATCLEAR?STAT
  +--> ?PR?_HISTOGRAMCLEAR?HISTOGR

?PR?_SAVECONTEXT?ARCHIVE                         -----    -----      004EH    
>> 0005H      -----    -----
  +--> ?PR?_RTCRAMWRITE?DS17287

?PR?ONLINEINIT?ONLINE                            -----    -----      -----    
>> -----      -----    -----
  +--> ?CO?ONLINE
  +--> ?PR?_FIFOINIT?FLFIFO

?PR?_FIFOINIT?FLFIFO                             -----    -----      004EH    
>> 0017H      -----    -----
  +--> ?PR?_FLASHREADBYTE?NVFLASH
  +--> ?PR?_FIFORESET?FLFIFO

?PR?_FLASHREADBYTE?NVFLASH                       -----    -----      0065H    
>> 0001H      -----    -----
  +--> ?PR?_FLASHREADSTART?NVFLASH
  +--> ?PR?FLASHREADDATA?NVFLASH
  +--> ?PR?SPIRELEASE?SPIBAT

?PR?_FIFORESET?FLFIFO                            -----    -----      0065H    
>> 0002H      -----    -----
  +--> ?PR?_FLASHWRITEBYTE?NVFLASH

?PR?_FLASHWRITEBYTE?NVFLASH                      -----    -----      0067H    
>> 0005H      -----    -----
  +--> ?PR?_FLASHWRITESTART?NVFLASH
  +--> ?PR?_FLASHWRITEDATA?NVFLASH

?PR?_FIFOLAST?FLFIFO                             -----    -----      005EH    
>> 0002H      -----    -----

?PR?NEWDAY?ARCHIVE                               -----    -----      004EH    
>> 0004H      -----    -----
  +--> ?PR?_FIFONEWFRAGMENT?FLFIFO
  +--> ?PR?_FIFOLAST?FLFIFO
  +--> ?PR?_FIFOITEMADDRESS?FLFIFO
  +--> ?PR?_FIFORESET?FLFIFO

?PR?_FIFONEWFRAGMENT?FLFIFO                      -----    -----      0052H    
>> 0008H      -----    -----
  +--> ?PR?_FIFOUPDATEFRAGMENT?FLFIFO
  +--> ?PR?_FIFOITEMADDRESS?FLFIFO
  +--> ?PR?_FLASHWRITESTART?NVFLASH
  +--> ?PR?_FLASHWRITEDATA?NVFLASH

BL51 BANKED LINKER/LOCATER V3.70c             20/07/12  15:15:12  PAGE 18


?PR?_FIFOUPDATEFRAGMENT?FLFIFO                   -----    -----      005AH    
>> 000EH      -----    -----
  +--> ?PR?_FIFOITEMADDRESS?FLFIFO
  +--> ?PR?_FLASHWRITESTART?NVFLASH
  +--> ?PR?_FLASHWRITEDATA?NVFLASH

?PR?_FIFOITEMADDRESS?FLFIFO                      -----    -----      006CH    
>> 0008H      -----    -----

?PR?_FIFOREADFRAGMENT?FLFIFO                     -----    -----      005EH    
>> 000EH      -----    -----
  +--> ?PR?_FIFOITEMADDRESS?FLFIFO
  +--> ?PR?_FLASHREADSTART?NVFLASH
  +--> ?PR?FLASHREADDATA?NVFLASH
  +--> ?PR?SPIRELEASE?SPIBAT

?PR?_DATEEQUAL?DATE                              -----    -----      004EH    
>> 0002H      -----    -----

?PR?FLOCKREADWEIGHINGPARAMETERS?FLOCK            -----    -----      -----    
>> -----      -----    -----
  +--> ?PR?_FLOCKREADFLOCKNUMBER?FLOCK
  +--> ?PR?_CFGSAVE?CFG
  +--> ?PR?_FLOCKREADITEM?FLOCK
  +--> ?CO?FLOCK
  +--> ?PR?FLOCKUPDATEDAY?FLOCK

?PR?_FLOCKREADFLOCKNUMBER?FLOCK                  -----    -----      -----    
>> -----      -----    -----
  +--> ?PR?_FLASHREADBYTE?NVFLASH

?PR?_FLOCKREADITEM?FLOCK                         -----    -----      0055H    
>> 0007H      -----    -----
  +--> ?PR?_FLASHREADSTART?NVFLASH
  +--> ?PR?FLASHREADDATA?NVFLASH
  +--> ?PR?SPIRELEASE?SPIBAT

?PR?FLOCKUPDATEDAY?FLOCK                         -----    -----      -----    
>> -----      -----    -----
  +--> ?PR?_DATEDAYSBETWEENTWODATES?DATE
  +--> ?PR?_CALCULATETARGETWEIGHT?FLOCK
  +--> ?PR?_CALCULATEMARGINS?FLOCK
  +--> ?PR?_FLOCKGETCOMPARISONWEIGHT?FLOCK

?PR?_DATEDAYSBETWEENTWODATES?DATE                -----    -----      004AH    
>> 0006H      -----    -----
  +--> ?PR?_DAYSTILLENDOFYEAR?DATE
  +--> ?PR?_DAYSFROMBEGINNINGOFYEAR?DATE

?PR?_DAYSTILLENDOFYEAR?DATE                      -----    -----      -----    
>> -----      -----    -----
  +--> ?PR?_DAYSFROMBEGINNINGOFYEAR?DATE

?PR?_DAYSFROMBEGINNINGOFYEAR?DATE                -----    -----      0050H    
>> 0002H      -----    -----
  +--> ?CO?DATE

?PR?_CALCULATETARGETWEIGHT?FLOCK                 -----    -----      004AH    
>> 0001H      -----    -----
  +--> ?PR?_CALCULATETARGETFROMCURVE?FLOCK
  +--> ?PR?_CALCULATETARGETFROMAUTOMAT?FLOCK

?PR?_CALCULATETARGETFROMCURVE?FLOCK              -----    -----      004BH    
>> 0001H      -----    -----
  +--> ?PR?_READCURVE?FLOCK
BL51 BANKED LINKER/LOCATER V3.70c             20/07/12  15:15:12  PAGE 19


  +--> ?PR?_CURVEFINDLASTDAY?CURVE
  +--> ?PR?_CURVECALCULATEAPPROXIMATION?CURVE

?PR?_READCURVE?FLOCK                             -----    -----      -----    
>> -----      -----    -----
  +--> ?PR?_FLOCKREADITEM?FLOCK

?PR?_CURVECALCULATEAPPROXIMATION?CURVE           -----    -----      0055H    
>> 0007H      -----    -----

?PR?_CALCULATETARGETFROMAUTOMAT?FLOCK            -----    -----      004BH    
>> 0009H      -----    -----
  +--> ?PR?_READINITIALWEIGHT?FLOCK
  +--> ?PR?_ARCHIVEGETLASTAVERAGEANDGAIN?ARCHIV
  +--> ?PR?_CALCULATETARGETFROMYESTERDAY?FLOCK

?PR?_READINITIALWEIGHT?FLOCK                     -----    -----      0054H    
>> 0001H      -----    -----
  +--> ?PR?_READCURVE?FLOCK
  +--> ?PR?_CURVECALCULATEAPPROXIMATION?CURVE

?PR?_ARCHIVEGETLASTAVERAGEANDGAIN?ARCHIV         -----    -----      0054H    
>> 000AH      -----    -----
  +--> ?PR?_FIFOLAST?FLFIFO
  +--> ?PR?_FIFOREADFRAGMENT?FLFIFO
  +--> ?PR?_STATAVERAGE?STAT
  +--> ?PR?_FIFOPREVIOUS?FLFIFO

?PR?_STATAVERAGE?STAT                            -----    -----      005EH    
>> 0002H      -----    -----

?PR?_FIFOPREVIOUS?FLFIFO                         -----    -----      005EH    
>> 0006H      -----    -----

?PR?_CALCULATETARGETFROMYESTERDAY?FLOCK          -----    -----      0054H    
>> 0008H      -----    -----

?PR?_CALCULATEMARGINS?FLOCK                      -----    -----      004AH    
>> 0001H      -----    -----
  +--> ?PR?_CALCULATEMARGIN?FLOCK

?PR?_CALCULATEMARGIN?FLOCK                       -----    -----      004BH    
>> 0005H      -----    -----

?PR?_FLOCKGETCOMPARISONWEIGHT?FLOCK              -----    -----      004AH    
>> 0003H      -----    -----
  +--> ?PR?_FLOCKREADFLOCKNUMBER?FLOCK
  +--> ?PR?_READHEADER?FLOCK
  +--> ?PR?_READCURVE?FLOCK
  +--> ?PR?_CURVECALCULATEAPPROXIMATION?CURVE

?PR?_READHEADER?FLOCK                            -----    -----      -----    
>> -----      -----    -----
  +--> ?PR?_FLOCKREADITEM?FLOCK

?PR?SCALEINIT?SCALE                              -----    -----      -----    
>> -----      -----    -----
  +--> ?PR?SCALEINITAVERAGE?SCALE
  +--> ?PR?ADCINIT?ADS123X
  +--> ?PR?ADCSTART?ADS123X

?PR?SCALEINITAVERAGE?SCALE                       -----    -----      -----    
>> -----      -----    -----
  +--> ?PR?_AVERAGESETLENGTH?AVERAGE
  +--> ?PR?_AVERAGECLEAR?AVERAGE
BL51 BANKED LINKER/LOCATER V3.70c             20/07/12  15:15:12  PAGE 20



?PR?_AVERAGECLEAR?AVERAGE                        -----    -----      004AH    
>> 0002H      -----    -----

?PR?ADCINIT?ADS123X                              -----    -----      -----    
>> -----      -----    -----
  +--> ?PR?_SYSDELAY?MAIN
  +--> ?PR?ADCSETUP?ADS123X

?PR?ADCSTART?ADS123X                             -----    -----      -----    
>> -----      -----    -----
  +--> ?PR?ADCSETUP?ADS123X

?PR?MBINITIALIZE?MB                              -----    -----      0024H    
>> 0005H      -----    -----
  +--> ?PR?MBCGETBAUD?MBCB
  +--> ?PR?MBCGETPARITY?MBCB
  +--> ?PR?MBCGETTIMEOUT?MBCB
  +--> ?PR?MBCGETMODE?MBCB
  +--> ?PR?_MBSETMODE?MBPACKET
  +--> ?PR?MBCGETTXSPACE?MBCB
  +--> ?PR?_COMSETTXSPACE?MBCOM
  +--> ?PR?CLEARSTATUS?MB

?PR?_MBSETMODE?MBPACKET                          -----    -----      0029H    
>> 0006H      -----    -----
  +--> ?PR?COMSTOPALL?MBCOM
  +--> ?PR?_COMINIT?MBCOM
  +--> ?PR?_COMSETTIMEOUT?MBCOM

?PR?_COMINIT?MBCOM                               -----    -----      002FH    
>> 0004H      -----    -----

?PR?KBDPOWERUPKEY?KBD                            -----    -----      0022H    
>> 0001H      -----    -----
  +--> ?PR?READKEY?KBD
  +--> ?PR?_SYSDELAY?MAIN

?PR?KBDPOWERUPRELEASE?KBD                        -----    -----      -----    
>> -----      -----    -----
  +--> ?PR?READKEY?KBD

?PR?MENULANGUAGE?MENU                            -----    -----      -----    
>> -----      -----    -----
  +--> ?CO?LANGRU
  +--> ?PR?KBDDISCARDKEY?KBDCTL
  +--> ?PR?_DISPLAYMENU?DISPLAY
  +--> ?PR?_CFGSAVE?CFG

?PR?_DISPLAYMENU?DISPLAY                         0020H.0  0000H.2    0022H    
>> 0006H      -----    -----
  +--> ?PR?DISPLAYCLEAR?EL12864
  +--> ?PR?_DISPLAYSTRING?DISPLAY
  +--> ?PR?KBDWAITFORKEY?KBDCTL
  +--> ?PR?KBDBEEPKEY?KBDCTL
  +--> ?CO?MENU
  +--> ?PR?_DISPLAYSETAREAFAST?EL12864
  +--> ?PR?DISPLAYON?EL12864
  +--> ?PR?_DECODESTRING?DISPLAY
  +--> ?PR?_DISPLAYSYMBOL?EL12864

?PR?KBDWAITFORKEY?KBDCTL                         -----    -----      -----    
>> -----      -----    -----
  +--> ?PR?SYSYIELD?MAIN
  +--> ?PR?SYSWAITEVENT?MAIN
BL51 BANKED LINKER/LOCATER V3.70c             20/07/12  15:15:12  PAGE 21



?PR?SYSYIELD?MAIN                                -----    -----      0032H    
>> 0001H      -----    -----
  +--> ?PR?CHECKVOLTAGE?MAIN
  +--> ?PR?MBEXECUTE?MB
  +--> ?PR?DISPLAYON?EL12864
  +--> ?PR?READDATETIME?MAIN
  +--> ?PR?_DATEEQUAL?DATE
  +--> ?PR?ARCHIVEFINISHDAY?ARCHIVE
  +--> ?PR?ARCHIVENEWDAY?ARCHIVE
  +--> ?PR?FLOCKUPDATEDAY?FLOCK
  +--> ?PR?ARCHIVEUPDATE?ARCHIVE
  +--> ?PR?ARCHIVENEWHOUR?ARCHIVE
  +--> ?PR?CHECKSTARTWEIGHING?MAIN
  +--> ?PR?BACKLIGHTEXECUTE?BLIGHT
  +--> ?PR?CHECKSCALE?MAIN
  +--> ?PR?KBDGET?KBD
  +--> ?PR?BACKLIGHTAUTOON?BLIGHT

?PR?CHECKVOLTAGE?MAIN                            -----    -----      -----    
>> -----      -----    -----
  +--> ?PR?MENUDISPLAYLOWBAT?MENU
  +--> ?PR?ACCUWAITFORVOLTAGE?ACCU
  +--> ?PR?SYSSETTIMEOUT?MAIN

?PR?MENUDISPLAYLOWBAT?MENU                       -----    -----      -----    
>> -----      -----    -----
  +--> ?PR?DISPLAYCLEAR?EL12864
  +--> ?CO?MENU
  +--> ?PR?_DISPLAYSYMBOL?EL12864

?PR?MBEXECUTE?MB                                 -----    -----      -----    
>> -----      -----    -----
  +--> ?PR?COMRXSTART?MBCOM
  +--> ?PR?RXPACKET?MB

?PR?RXPACKET?MB                                  -----    -----      0033H    
>> 0007H      -----    -----
  +--> ?PR?_MBRECEIVE?MBPACKET
  +--> ?PR?MBGETADDRESS?MBPACKET
  +--> ?PR?MBCGETOWNADDRESS?MBCB
  +--> ?PR?_MBEXCEPTION?MB
  +--> ?PR?_MBRREADREGISTERS?MBRREGS
  +--> ?PR?_MBRWRITEREGISTERS?MBRREGS
  +--> ?PR?_MBRWRITESINGLEREGISTER?MBRREGS
  +--> ?PR?_MBRMASKWRITEREGISTER?MBRREGS
  +--> ?PR?_MBRREADWRITEREGISTERS?MBRREGS
  +--> ?PR?COMTXSTART?MBCOM

?PR?_MBRECEIVE?MBPACKET                          -----    -----      003AH    
>> 0006H      -----    -----
  +--> ?PR?_MBARECEIVE?MBASCII
  +--> ?PR?_MBRRECEIVE?MBRTU

?PR?_MBARECEIVE?MBASCII                          -----    -----      0040H    
>> 0009H      -----    -----

?PR?_MBRRECEIVE?MBRTU                            -----    -----      0040H    
>> 0006H      -----    -----
  +--> ?PR?_CALCCRC?MBRTU

?PR?_CALCCRC?MBRTU                               -----    -----      004BH    
>> 0002H      -----    -----
  +--> ?CO?MBRTU

BL51 BANKED LINKER/LOCATER V3.70c             20/07/12  15:15:12  PAGE 22


?PR?MBGETADDRESS?MBPACKET                        -----    -----      -----    
>> -----      -----    -----
  +--> ?PR?MBAGETADDRESS?MBASCII
  +--> ?PR?MBRGETADDRESS?MBRTU

?PR?_MBEXCEPTION?MB                              -----    -----      004AH    
>> 0001H      -----    -----
  +--> ?PR?MBCGETOWNADDRESS?MBCB
  +--> ?PR?_MBWRITEADDRESS?MBPACKET
  +--> ?PR?_MBWRITEBYTE?MBPACKET
  +--> ?PR?MBWRITECRC?MBPACKET

?PR?_MBWRITEADDRESS?MBPACKET                     -----    -----      004BH    
>> 0001H      -----    -----
  +--> ?PR?_MBAWRITEADDRESS?MBASCII
  +--> ?PR?_MBRWRITEADDRESS?MBRTU

?PR?_MBAWRITEADDRESS?MBASCII                     -----    -----      -----    
>> -----      -----    -----
  +--> ?PR?_MBAWRITEBYTE?MBASCII

?PR?_MBAWRITEBYTE?MBASCII                        -----    -----      004EH    
>> 0001H      -----    -----
  +--> ?PR?_NIBBLE2HEX?NIBBLE2HEX

?PR?_MBRWRITEADDRESS?MBRTU                       -----    -----      -----    
>> -----      -----    -----
  +--> ?PR?_MBRWRITEBYTE?MBRTU

?PR?_MBWRITEBYTE?MBPACKET                        -----    -----      004BH    
>> 0001H      -----    -----
  +--> ?PR?_MBAWRITEBYTE?MBASCII
  +--> ?PR?_MBRWRITEBYTE?MBRTU

?PR?MBWRITECRC?MBPACKET                          -----    -----      -----    
>> -----      -----    -----
  +--> ?PR?MBAWRITECRC?MBASCII
  +--> ?PR?MBRWRITECRC?MBRTU

?PR?MBAWRITECRC?MBASCII                          -----    -----      -----    
>> -----      -----    -----
  +--> ?PR?_MBAWRITEBYTE?MBASCII

?PR?MBRWRITECRC?MBRTU                            -----    -----      -----    
>> -----      -----    -----
  +--> ?PR?_CALCCRC?MBRTU
  +--> ?PR?_MBRWRITEBYTE?MBRTU

?PR?_MBRREADREGISTERS?MBRREGS                    -----    -----      003AH    
>> 0004H      -----    -----
  +--> ?PR?MBCGETOWNADDRESS?MBCB
  +--> ?PR?_MBWRITEADDRESS?MBPACKET
  +--> ?PR?MBGETFUNCTIONCODE?MB
  +--> ?PR?_MBWRITEBYTE?MBPACKET
  +--> ?PR?_MBCREADREGISTERS?MBCB
  +--> ?PR?MBWRITECRC?MBPACKET

?PR?_MBCREADREGISTERS?MBCB                       -----    -----      0045H    
>> 0005H      -----    -----
  +--> ?PR?_MBEXCEPTION?MB
  +--> ?PR?MBREGREAD?MBREG
  +--> ?PR?_MBWRITEWORD?MBPACKET

?PR?MBREGREAD?MBREG                              -----    -----      -----    
>> -----      -----    -----
BL51 BANKED LINKER/LOCATER V3.70c             20/07/12  15:15:12  PAGE 23


  +--> ?PR?_GETDWORDMSB?MBREG
  +--> ?PR?_GETDWORDLSB?MBREG
  +--> ?PR?_MAKEWORD?MBREG

?PR?_MBWRITEWORD?MBPACKET                        -----    -----      004AH    
>> 0002H      -----    -----
  +--> ?PR?_MBAWRITEWORD?MBASCII
  +--> ?PR?_MBRWRITEWORD?MBRTU

?PR?_MBAWRITEWORD?MBASCII                        -----    -----      004CH    
>> 0002H      -----    -----
  +--> ?PR?_MBAWRITEBYTE?MBASCII

?PR?_MBRWRITEWORD?MBRTU                          -----    -----      -----    
>> -----      -----    -----
  +--> ?PR?_MBRWRITEBYTE?MBRTU

?PR?_MBRWRITEREGISTERS?MBRREGS                   -----    -----      003AH    
>> 0004H      -----    -----
  +--> ?PR?_MBCWRITEREGISTERS?MBCB
  +--> ?PR?MBCGETOWNADDRESS?MBCB
  +--> ?PR?_MBWRITEADDRESS?MBPACKET
  +--> ?PR?MBGETFUNCTIONCODE?MB
  +--> ?PR?_MBWRITEBYTE?MBPACKET
  +--> ?PR?_MBWRITEWORD?MBPACKET
  +--> ?PR?MBWRITECRC?MBPACKET

?PR?_MBCWRITEREGISTERS?MBCB                      -----    -----      0045H    
>> 0005H      -----    -----
  +--> ?PR?MBREGWRITE?MBREG

?PR?MBREGWRITE?MBREG                             -----    -----      -----    
>> -----      -----    -----
  +--> ?PR?WRITEMARGIN?MBREG
  +--> ?PR?FLOCKREADWEIGHINGPARAMETERS?FLOCK
  +--> ?PR?SCALEINITAVERAGE?SCALE
  +--> ?PR?_FLOCKREADFLOCKNUMBER?FLOCK
  +--> ?PR?_FLOCKCONTAINSCURVE?FLOCK
  +--> ?PR?_CFGSAVE?CFG
  +--> ?PR?_CHECKLETTER?MBREG
  +--> ?PR?_FLOCKREADITEM?FLOCK
  +--> ?PR?_FLOCKSAVEITEM?FLOCK
  +--> ?PR?_FLOCKDELETEFLOCK?FLOCK
  +--> ?PR?DATESET?DATE
  +--> ?PR?FLOCKSTARTWEIGHING?FLOCK
  +--> ?PR?SCALESETPAUSE?SCALE
  +--> ?PR?FLOCKSTOPWEIGHING?FLOCK
  +--> ?PR?_FIFOFIRST?FLFIFO
  +--> ?PR?ARCHIVESAVEDAY?ARCHIVE
  +--> ?PR?_FIFOREADFRAGMENT?FLFIFO
  +--> ?PR?_FIFONEXT?FLFIFO

?PR?WRITEMARGIN?MBREG                            -----    -----      -----    
>> -----      -----    -----
  +--> ?PR?FLOCKREADWEIGHINGPARAMETERS?FLOCK

?PR?_FLOCKCONTAINSCURVE?FLOCK                    -----    -----      -----    
>> -----      -----    -----
  +--> ?PR?_READHEADER?FLOCK

?PR?_FLOCKSAVEITEM?FLOCK                         -----    -----      004AH    
>> 0007H      -----    -----
  +--> ?PR?_FLASHWRITESTART?NVFLASH
  +--> ?PR?_FLASHWRITEDATA?NVFLASH

BL51 BANKED LINKER/LOCATER V3.70c             20/07/12  15:15:12  PAGE 24


?PR?_FLOCKDELETEFLOCK?FLOCK                      -----    -----      004AH    
>> 0001H      -----    -----
  +--> ?PR?_SAVEFLOCKNUMBER?FLOCK
  +--> ?PR?_FLASHWRITESTART?NVFLASH
  +--> ?PR?_CFGSAVE?CFG

?PR?_SAVEFLOCKNUMBER?FLOCK                       -----    -----      004BH    
>> 0001H      -----    -----
  +--> ?PR?_FLASHWRITESTART?NVFLASH
  +--> ?PR?_FLASHWRITEDATA?NVFLASH

?PR?DATESET?DATE                                 -----    -----      -----    
>> -----      -----    -----
  +--> ?PR?_BBIN2BCD?BBIN2BCD
  +--> ?PR?_RTCSETDAY?DS17287
  +--> ?PR?_RTCSETMONTH?DS17287
  +--> ?PR?_WBIN2BCD?WBIN2BCD
  +--> ?PR?_RTCSETYEAR?DS17287
  +--> ?PR?_RTCSETHOUR?DS17287
  +--> ?PR?_RTCSETMIN?DS17287
  +--> ?PR?_RTCSETSEC?DS17287

?PR?_RTCSETDAY?DS17287                           -----    -----      -----    
>> -----      -----    -----
  +--> ?PR?_RTCWRITE?DS17287

?PR?_RTCSETMONTH?DS17287                         -----    -----      -----    
>> -----      -----    -----
  +--> ?PR?_RTCWRITE?DS17287

?PR?_RTCSETYEAR?DS17287                          -----    -----      -----    
>> -----      -----    -----
  +--> ?PR?_RTCWRITE?DS17287

?PR?_RTCSETHOUR?DS17287                          -----    -----      -----    
>> -----      -----    -----
  +--> ?PR?_RTCWRITE?DS17287

?PR?_RTCSETMIN?DS17287                           -----    -----      -----    
>> -----      -----    -----
  +--> ?PR?_RTCWRITE?DS17287

?PR?_RTCSETSEC?DS17287                           -----    -----      -----    
>> -----      -----    -----
  +--> ?PR?_RTCWRITE?DS17287

?PR?FLOCKSTARTWEIGHING?FLOCK                     -----    -----      -----    
>> -----      -----    -----
  +--> ?PR?_CFGSAVE?CFG
  +--> ?PR?FLOCKEXECUTESTARTWEIGHING?FLOCK
  +--> ?PR?ARCHIVEINIT?ARCHIVE
  +--> ?PR?ARCHIVERESET?ARCHIVE

?PR?FLOCKEXECUTESTARTWEIGHING?FLOCK              -----    -----      -----    
>> -----      -----    -----
  +--> ?PR?ARCHIVEINIT?ARCHIVE
  +--> ?PR?ARCHIVERESET?ARCHIVE
  +--> ?PR?FLOCKREADWEIGHINGPARAMETERS?FLOCK
  +--> ?PR?ARCHIVEUPDATE?ARCHIVE
  +--> ?PR?ARCHIVENEWHOUR?ARCHIVE
  +--> ?PR?SCALEINIT?SCALE

?PR?ARCHIVERESET?ARCHIVE                         -----    -----      -----    
>> -----      -----    -----
  +--> ?PR?ONLINERESET?ONLINE
BL51 BANKED LINKER/LOCATER V3.70c             20/07/12  15:15:12  PAGE 25


  +--> ?PR?_FIFORESET?FLFIFO
  +--> ?PR?CLEARDATA?ARCHIVE
  +--> ?PR?_SAVECONTEXT?ARCHIVE

?PR?ONLINERESET?ONLINE                           -----    -----      -----    
>> -----      -----    -----
  +--> ?PR?_FIFORESET?FLFIFO

?PR?ARCHIVEUPDATE?ARCHIVE                        -----    -----      -----    
>> -----      -----    -----
  +--> ?PR?_HISTOGRAMEMPTY?HISTOGR
  +--> ?PR?_HISTOGRAMSETSTEP?HISTOGR
  +--> ?PR?_SAVECONTEXT?ARCHIVE
  +--> ?PR?NEWDAY?ARCHIVE

?PR?_HISTOGRAMSETSTEP?HISTOGR                    -----    -----      0053H    
>> 0002H      -----    -----

?PR?ARCHIVENEWHOUR?ARCHIVE                       -----    -----      -----    
>> -----      -----    -----
  +--> ?PR?REBUILDHISTOGRAMS?ARCHIVE
  +--> ?PR?_SAVECONTEXT?ARCHIVE
  +--> ?PR?_ONLINENEWHOUR?ONLINE
  +--> ?PR?_LOGGERNEWHOUR?ARCHIVE

?PR?REBUILDHISTOGRAMS?ARCHIVE                    -----    -----      -----    
>> -----      -----    -----
  +--> ?PR?_REBUILDHISTOGRAM?ARCHIVE

?PR?_REBUILDHISTOGRAM?ARCHIVE                    -----    -----      004AH    
>> 0009H      -----    -----
  +--> ?PR?_STATAVERAGE?STAT
  +--> ?PR?_HISTOGRAMSETSTEP?HISTOGR
  +--> ?PR?_LOGGERBUILDHISTOGRAM?ARCHIVE

?PR?_LOGGERBUILDHISTOGRAM?ARCHIVE                -----    -----      0053H    
>> 0009H      -----    -----
  +--> ?PR?_HISTOGRAMCLEAR?HISTOGR
  +--> ?PR?_FIFOFIRST?FLFIFO
  +--> ?PR?_FIFOREADFRAGMENT?FLFIFO
  +--> ?PR?_LOGGERGETWEIGHT?ARCHIVE
  +--> ?PR?_HISTOGRAMADD?HISTOGR
  +--> ?PR?_FIFONEXT?FLFIFO

?PR?_FIFOFIRST?FLFIFO                            -----    -----      005CH    
>> 0002H      -----    -----

?PR?_LOGGERGETWEIGHT?ARCHIVE                     -----    -----      005CH    
>> 0004H      -----    -----

?PR?_HISTOGRAMADD?HISTOGR                        -----    -----      005CH    
>> 0007H      -----    -----

?PR?_FIFONEXT?FLFIFO                             -----    -----      005CH    
>> 0006H      -----    -----

?PR?_ONLINENEWHOUR?ONLINE                        -----    -----      -----    
>> -----      -----    -----
  +--> ?PR?_FIFONEWFRAGMENT?FLFIFO

?PR?_LOGGERNEWHOUR?ARCHIVE                       -----    -----      -----    
>> -----      -----    -----
  +--> ?PR?_FIFONEWFRAGMENT?FLFIFO

?PR?SCALESETPAUSE?SCALE                          0021H.0  0000H.1    -----    
BL51 BANKED LINKER/LOCATER V3.70c             20/07/12  15:15:12  PAGE 26


>> -----      -----    -----

?PR?FLOCKSTOPWEIGHING?FLOCK                      -----    -----      -----    
>> -----      -----    -----
  +--> ?PR?ARCHIVEFINISHDAY?ARCHIVE
  +--> ?PR?_CFGSAVE?CFG

?PR?ARCHIVEFINISHDAY?ARCHIVE                     -----    -----      -----    
>> -----      -----    -----
  +--> ?PR?_STATAVERAGE?STAT
  +--> ?PR?_LOGGERGETUNIFORMITY?ARCHIVE
  +--> ?PR?REBUILDHISTOGRAMS?ARCHIVE
  +--> ?PR?ARCHIVESAVEDAY?ARCHIVE

?PR?_LOGGERGETUNIFORMITY?ARCHIVE                 -----    -----      004AH    
>> 000CH      -----    -----
  +--> ?PR?_STATREALUNIFORMITYINIT?STAT
  +--> ?PR?_FIFOFIRST?FLFIFO
  +--> ?PR?_FIFOREADFRAGMENT?FLFIFO
  +--> ?PR?_LOGGERGETWEIGHT?ARCHIVE
  +--> ?PR?_STATREALUNIFORMITYADD?STAT
  +--> ?PR?_FIFONEXT?FLFIFO
  +--> ?PR?STATREALUNIFORMITYGET?STAT

?PR?_STATREALUNIFORMITYINIT?STAT                 -----    -----      0056H    
>> 000CH      -----    -----

?PR?_STATREALUNIFORMITYADD?STAT                  -----    -----      0056H    
>> 0004H      -----    -----

?PR?ARCHIVESAVEDAY?ARCHIVE                       -----    -----      004AH    
>> 0004H      -----    -----
  +--> ?PR?_FIFOLAST?FLFIFO
  +--> ?PR?_FIFOREADFRAGMENT?FLFIFO
  +--> ?PR?_DATEEQUAL?DATE
  +--> ?PR?_FIFOUPDATEFRAGMENT?FLFIFO
  +--> ?PR?NEWDAY?ARCHIVE

?PR?_MBRWRITESINGLEREGISTER?MBRREGS              -----    -----      003AH    
>> 0004H      -----    -----
  +--> ?PR?_MBCWRITESINGLEREGISTER?MBCB
  +--> ?PR?MBCGETOWNADDRESS?MBCB
  +--> ?PR?_MBWRITEADDRESS?MBPACKET
  +--> ?PR?MBGETFUNCTIONCODE?MB
  +--> ?PR?_MBWRITEBYTE?MBPACKET
  +--> ?PR?_MBWRITEWORD?MBPACKET
  +--> ?PR?MBWRITECRC?MBPACKET

?PR?_MBCWRITESINGLEREGISTER?MBCB                 -----    -----      -----    
>> -----      -----    -----
  +--> ?PR?MBREGWRITE?MBREG
  +--> ?PR?_MBEXCEPTION?MB

?PR?_MBRMASKWRITEREGISTER?MBRREGS                -----    -----      003AH    
>> 0006H      -----    -----
  +--> ?PR?_MBCMASKWRITEREGISTER?MBCB
  +--> ?PR?MBCGETOWNADDRESS?MBCB
  +--> ?PR?_MBWRITEADDRESS?MBPACKET
  +--> ?PR?MBGETFUNCTIONCODE?MB
  +--> ?PR?_MBWRITEBYTE?MBPACKET
  +--> ?PR?_MBWRITEWORD?MBPACKET
  +--> ?PR?MBWRITECRC?MBPACKET

?PR?_MBCMASKWRITEREGISTER?MBCB                   -----    -----      0040H    
>> 0004H      -----    -----
BL51 BANKED LINKER/LOCATER V3.70c             20/07/12  15:15:12  PAGE 27


  +--> ?PR?MBREGREAD?MBREG
  +--> ?PR?MBREGWRITE?MBREG

?PR?_MBRREADWRITEREGISTERS?MBRREGS               -----    -----      003AH    
>> 000BH      -----    -----
  +--> ?PR?_MBCWRITEREGISTERS?MBCB
  +--> ?PR?MBCGETOWNADDRESS?MBCB
  +--> ?PR?_MBWRITEADDRESS?MBPACKET
  +--> ?PR?MBGETFUNCTIONCODE?MB
  +--> ?PR?_MBWRITEBYTE?MBPACKET
  +--> ?PR?_MBCREADREGISTERS?MBCB
  +--> ?PR?MBWRITECRC?MBPACKET

?PR?DISPLAYON?EL12864                            -----    -----      -----    
>> -----      -----    -----
  +--> ?PR?KSON?KS0108B

?PR?KSON?KS0108B                                 -----    -----      -----    
>> -----      -----    -----
  +--> ?PR?_KSWRITECOMMAND?KS0108B

?PR?ARCHIVENEWDAY?ARCHIVE                        -----    -----      0033H    
>> 0004H      -----    -----
  +--> ?PR?_STATAVERAGE?STAT
  +--> ?PR?CLEARDATA?ARCHIVE
  +--> ?PR?_SAVECONTEXT?ARCHIVE

?PR?CHECKSTARTWEIGHING?MAIN                      -----    -----      0033H    
>> 0004H      -----    -----
  +--> ?PR?_CFGSAVE?CFG
  +--> ?PR?FLOCKEXECUTESTARTWEIGHING?FLOCK

?PR?CHECKSCALE?MAIN                              -----    -----      -----    
>> -----      -----    -----
  +--> ?PR?SCALEEXECUTE?SCALE
  +--> ?PR?_ARCHIVENEWWEIGHT?ARCHIVE
  +--> ?PR?_ARCHIVENEWACTUALWEIGHT?ARCHIVE

?PR?SCALEEXECUTE?SCALE                           -----    -----      -----    
>> -----      -----    -----
  +--> ?PR?ADCREAD?ADS123X
  +--> ?PR?CALCULATEWEIGHT?SCALE
  +--> ?PR?SCALESETPAUSE?SCALE
  +--> ?PR?CHECKSCALE?SCALE

?PR?CALCULATEWEIGHT?SCALE                        -----    -----      0033H    
>> 0004H      -----    -----

?PR?CHECKSCALE?SCALE                             0021H.0  0000H.2    0033H    
>> 0008H      -----    -----
  +--> ?PR?_AVERAGEADD?AVERAGE
  +--> ?PR?_AVERAGEFULL?AVERAGE
  +--> ?PR?_AVERAGESTEADY?AVERAGE
  +--> ?PR?_AVERAGECLEAR?AVERAGE
  +--> ?PR?_AVERAGEGETAVERAGE?AVERAGE
  +--> ?PR?_LABS?LABS
  +--> ?PR?_CORRECTIONCALCWEIGHT?CORR

?PR?_AVERAGEADD?AVERAGE                          -----    -----      003BH    
>> 0006H      -----    -----

?PR?_AVERAGESTEADY?AVERAGE                       -----    -----      003BH    
>> 000BH      -----    -----
  +--> ?PR?_AVERAGEGETAVERAGE?AVERAGE
  +--> ?PR?_LABS?LABS
BL51 BANKED LINKER/LOCATER V3.70c             20/07/12  15:15:12  PAGE 28



?PR?_AVERAGEGETAVERAGE?AVERAGE                   -----    -----      0046H    
>> 0006H      -----    -----

?PR?_LABS?LABS                                   -----    -----      0046H    
>> 0004H      -----    -----

?PR?_CORRECTIONCALCWEIGHT?CORR                   -----    -----      003BH    
>> 0006H      -----    -----
  +--> ?PR?_MAKECORRECTION?CORR

?PR?_MAKECORRECTION?CORR                         -----    -----      0041H    
>> 0005H      -----    -----

?PR?_ARCHIVENEWWEIGHT?ARCHIVE                    -----    -----      0033H    
>> 0005H      -----    -----
  +--> ?PR?_STATADD?STAT
  +--> ?PR?_HISTOGRAMADD?HISTOGR
  +--> ?PR?_SAVECONTEXT?ARCHIVE
  +--> ?PR?_LOGGERRECORDSAMPLE?ARCHIVE

?PR?_STATADD?STAT                                -----    -----      0038H    
>> 0006H      -----    -----

?PR?_LOGGERRECORDSAMPLE?ARCHIVE                  -----    -----      0038H    
>> 0005H      -----    -----
  +--> ?PR?_FIFONEWFRAGMENT?FLFIFO

?PR?_ARCHIVENEWACTUALWEIGHT?ARCHIVE              -----    -----      0033H    
>> 0006H      -----    -----
  +--> ?PR?_ONLINENEWWEIGHT?ONLINE

?PR?_ONLINENEWWEIGHT?ONLINE                      0021H.0  0000H.2    0039H    
>> 0004H      -----    -----
  +--> ?PR?_FIFONEWFRAGMENT?FLFIFO

?PR?KBDGET?KBD                                   -----    -----      0033H    
>> 0001H      -----    -----
  +--> ?PR?READKEY?KBD

?PR?SYSWAITEVENT?MAIN                            -----    -----      -----    
>> -----      -----    -----
  +--> ?PR?SYSYIELD?MAIN

?PR?_DISPLAYSETAREAFAST?EL12864                  0020H.3  0000H.1    0031H    
>> 0006H      -----    -----
  +--> ?PR?_KSWRITECOMMAND?KS0108B
  +--> ?PR?_KSWRITEDATA?KS0108B

?PR?MENUEXECUTE?MENU                             -----    -----      -----    
>> -----      -----    -----
  +--> ?PR?_DISPLAYSETFONT?FONT
  +--> ?CO?LANGRU
  +--> ?PR?_DECODESTRING?DISPLAY
  +--> ?PR?_DISPLAYMENU?DISPLAY
  +--> ?PR?CHANGEMANUALPAUSE?MENU
  +--> ?PR?STOPWEIGHING?MENU
  +--> ?PR?STARTWEIGHING?MENU
  +--> ?PR?DISPLAYARCHIVE?MENU
  +--> ?PR?EDITCOMPARISON?MENU
  +--> ?PR?COPYRECORDSTOMODULE?MENU
  +--> ?PR?_LANGSIMPLEDECODE?DISPLAY
  +--> ?PR?EDITDATETIME?MENU
  +--> ?PR?EDITIDENTIFICATIONNUMBER?MENU
  +--> ?PR?EDITSTATISTICPARAMETERS?MENU
BL51 BANKED LINKER/LOCATER V3.70c             20/07/12  15:15:12  PAGE 29


  +--> ?PR?NEWFLOCK?MENU
  +--> ?PR?EDITORDELETEFLOCK?MENU
  +--> ?PR?DELETEALLFLOCKS?MENU
  +--> ?PR?EDITRS485ADDRESS?MENU
  +--> ?PR?EDITRS485SPEED?MENU
  +--> ?PR?EDITRS485PARITY?MENU
  +--> ?PR?EDITRS485PROTOCOL?MENU
  +--> ?PR?EDITRS485DELAYS?MENU
  +--> ?PR?EDITSAVINGPARAMETERS?MENU
  +--> ?PR?EDITCORRECTIONCURVE?MENU
  +--> ?PR?EDITUNITS?MENU
  +--> ?PR?CALIBRATESCALE?MENU
  +--> ?PR?EDITBACKLIGHT?MENU
  +--> ?PR?READSETUPFROMMODULE?MENU
  +--> ?PR?STARTONLINE?MENU
  +--> ?PR?SCALEENABLE?SCALE
  +--> ?PR?SYSENABLETIMEOUT?MAIN

?PR?CHANGEMANUALPAUSE?MENU                       -----    -----      -----    
>> -----      -----    -----
  +--> ?PR?SCALESETPAUSE?SCALE

?PR?STOPWEIGHING?MENU                            -----    -----      -----    
>> -----      -----    -----
  +--> ?CO?LANGRU
  +--> ?PR?_LANGSIMPLEDECODE?DISPLAY
  +--> ?PR?_DISPLAYDIALOG?DISPLAY
  +--> ?PR?FLOCKSTOPWEIGHING?FLOCK

?PR?_LANGSIMPLEDECODE?DISPLAY                    -----    -----      -----    
>> -----      -----    -----
  +--> ?PR?_DECODESTRING?DISPLAY

?PR?_DISPLAYDIALOG?DISPLAY                       0020H.3  0000H.1    002CH    
>> 0006H      -----    -----
  +--> ?PR?DISPLAYCLEAR?EL12864
  +--> ?PR?_DISPLAYSTRINGCENTER?DISPLAY
  +--> ?CO?LANGRU
  +--> ?PR?_DECODESTRING?DISPLAY
  +--> ?PR?_DISPLAYTEXTWIDTH?FONT
  +--> ?CO?MENU
  +--> ?PR?_DISPLAYSYMBOL?EL12864
  +--> ?PR?_DISPLAYSTRING?DISPLAY
  +--> ?PR?KBDWAITFORENTER?KBDCTL
  +--> ?PR?KBDWAITFORENTERESC?KBDCTL

?PR?_DISPLAYSTRINGCENTER?DISPLAY                 -----    -----      0032H    
>> 0005H      -----    -----
  +--> ?PR?_DISPLAYTEXTWIDTH?FONT
  +--> ?PR?_DISPLAYSTRING?DISPLAY

?PR?KBDWAITFORENTER?KBDCTL                       -----    -----      -----    
>> -----      -----    -----
  +--> ?PR?KBDWAITFORKEY?KBDCTL
  +--> ?PR?KBDBEEPKEY?KBDCTL

?PR?KBDWAITFORENTERESC?KBDCTL                    -----    -----      -----    
>> -----      -----    -----
  +--> ?PR?KBDWAITFORKEY?KBDCTL
  +--> ?PR?KBDBEEPKEY?KBDCTL

?PR?STARTWEIGHING?MENU                           0020H.0  0000H.1    -----    
>> -----      -----    -----
  +--> ?CO?LANGRU
  +--> ?PR?_LANGSIMPLEDECODE?DISPLAY
BL51 BANKED LINKER/LOCATER V3.70c             20/07/12  15:15:12  PAGE 30


  +--> ?PR?_DISPLAYDIALOG?DISPLAY
  +--> ?PR?FLOCKCHOOSEFLOCK?FLOCK
  +--> ?PR?_DISPLAYEDIT?DISPLAY
  +--> ?PR?_ENTERTARGETWEIGHT?MENU
  +--> ?PR?CHOOSECOMPARISONFLOCK?MENU
  +--> ?PR?_WBIN2BCD?WBIN2BCD
  +--> ?PR?_BBIN2BCD?BBIN2BCD
  +--> ?PR?_DBCD2BIN?DBCD2BIN
  +--> ?PR?_DBIN2BCD?DBIN2BCD
  +--> ?PR?_BBCD2BIN?BBCD2BIN
  +--> ?PR?_WBCD2BIN?WBCD2BIN
  +--> ?PR?FLOCKSTARTWEIGHING?FLOCK

?PR?FLOCKCHOOSEFLOCK?FLOCK                       0020H.1  0000H.1    0023H    
>> 0004H      -----    -----
  +--> ?PR?_FLOCKREADFLOCKNUMBER?FLOCK
  +--> ?CO?LANGRU
  +--> ?PR?_LANGSIMPLEDECODE?DISPLAY
  +--> ?PR?_DISPLAYDIALOG?DISPLAY
  +--> ?CO?MENU
  +--> ?PR?_DISPLAYSYMBOL?EL12864
  +--> ?PR?_DISPLAYSETAREAFAST?EL12864
  +--> ?PR?_DISPLAYCHAR?EL12864
  +--> ?PR?_FLOCKREADITEM?FLOCK
  +--> ?PR?_DISPLAYSTRING?DISPLAY
  +--> ?PR?KBDWAITFORKEY?KBDCTL
  +--> ?PR?KBDBEEPKEY?KBDCTL

?PR?_DISPLAYEDIT?DISPLAY                         0020H.3  0000H.5    002CH    
>> 0005H      0087H    000FH
  +--> ?PR?_DISPLAYEXPANDNUMBER?DISPLAY
  +--> ?PR?_DISPLAYSETAREA?EL12864
  +--> ?PR?KBDWAITFORKEY?KBDCTL
  +--> ?PR?KBDBEEPKEY?KBDCTL
  +--> ?PR?DISPLAYON?EL12864
  +--> ?PR?_DISPLAYCHAR?EL12864

?PR?_DISPLAYSETAREA?EL12864                      0021H.0  0000H.1    0032H    
>> 0007H      -----    -----
  +--> ?PR?_KSWRITECOMMAND?KS0108B
  +--> ?PR?KSREADDATA?KS0108B
  +--> ?PR?_KSWRITEDATA?KS0108B

?PR?_ENTERTARGETWEIGHT?MENU                      -----    -----      0022H    
>> 0003H      -----    -----
  +--> ?PR?_LANGSIMPLEDECODE?DISPLAY
  +--> ?PR?_DISPLAYDIALOG?DISPLAY
  +--> ?CO?LANGRU
  +--> ?PR?_DISPLAYSTRING?DISPLAY
  +--> ?PR?_DISPLAYEDIT?DISPLAY
  +--> ?PR?RETRY?MENU

?PR?RETRY?MENU                                   -----    -----      -----    
>> -----      -----    -----
  +--> ?CO?LANGRU
  +--> ?PR?_LANGSIMPLEDECODE?DISPLAY
  +--> ?PR?_DISPLAYDIALOG?DISPLAY

?PR?CHOOSECOMPARISONFLOCK?MENU                   -----    -----      0022H    
>> 0001H      -----    -----
  +--> ?CO?LANGRU
  +--> ?PR?_LANGSIMPLEDECODE?DISPLAY
  +--> ?PR?_DISPLAYDIALOG?DISPLAY
  +--> ?PR?FLOCKCHOOSEFLOCK?FLOCK
  +--> ?PR?_FLOCKCONTAINSCURVE?FLOCK
BL51 BANKED LINKER/LOCATER V3.70c             20/07/12  15:15:12  PAGE 31



?PR?_DBCD2BIN?DBCD2BIN                           -----    -----      -----    
>> -----      -----    -----
  +--> ?PR?_WBCD2BIN?WBCD2BIN

?PR?DISPLAYARCHIVE?MENU                          0020H.0  0000H.1    -----    
>> -----      -----    -----
  +--> ?CO?LANGRU
  +--> ?PR?_LANGSIMPLEDECODE?DISPLAY
  +--> ?PR?_DISPLAYDIALOG?DISPLAY
  +--> ?PR?SCALEDISABLE?SCALE
  +--> ?PR?ARCHIVESAVEDAY?ARCHIVE
  +--> ?PR?_DISPLAYSETFONT?FONT
  +--> ?PR?DISPLAYCLEAR?EL12864
  +--> ?PR?_FIFOLAST?FLFIFO
  +--> ?PR?SCALEENABLE?SCALE
  +--> ?PR?_FIFOREADFRAGMENT?FLFIFO
  +--> ?PR?_DRAWSTATISTICS?MENU
  +--> ?PR?_DRAWHISTOGRAM?MENU
  +--> ?PR?_DRAWLOGGER?MENU
  +--> ?PR?KBDWAITFORKEY?KBDCTL
  +--> ?PR?KBDBEEPKEY?KBDCTL
  +--> ?PR?_LOGGERINITARCHIVE?MENU
  +--> ?PR?_FIFOPREVIOUS?FLFIFO
  +--> ?PR?_FIFOFIRST?FLFIFO
  +--> ?PR?_FIFONEXT?FLFIFO
  +--> ?PR?MENULOGGERNEXTPAGE?MENU
  +--> ?PR?MENULOGGERPREVIOUSPAGE?MENU

?PR?SCALEENABLE?SCALE                            -----    -----      -----    
>> -----      -----    -----
  +--> ?PR?_AVERAGECLEAR?AVERAGE
  +--> ?PR?ADCSTOP?ADS123X
  +--> ?PR?ADCSTART?ADS123X

?PR?_DRAWSTATISTICS?MENU                         -----    -----      0022H    
>> 0006H      -----    -----
  +--> ?PR?DISPLAYCLEAR?EL12864
  +--> ?PR?_DRAWHEADER?MENU
  +--> ?CO?LANGRU
  +--> ?PR?_LANGSIMPLEDECODE?DISPLAY
  +--> ?PR?_STRADDCOLON?STR
  +--> ?PR?_DISPLAYSTRING?DISPLAY
  +--> ?CO?MENU
  +--> ?PR?_DISPLAYSYMBOL?EL12864
  +--> ?PR?_DISPLAYCHAR?EL12864
  +--> ?PR?DRAWBUTTONS?MENU
  +--> ?PR?_DISPLAYSETAREA?EL12864
  +--> ?PR?_STRMAKETIME?STR
  +--> ?PR?_DISPLAYSTRINGRIGHT?DISPLAY
  +--> ?PR?_DISPLAYNUMBER?DISPLAY
  +--> ?PR?_STATAVERAGE?STAT
  +--> ?PR?_STATSIGMA?STAT
  +--> ?PR?_STATVARIATION?STAT
  +--> ?PR?_STATUNIFORMITY?STAT
  +--> ?PR?_FLOCKGETCOMPARISONWEIGHT?FLOCK

?PR?_DRAWHEADER?MENU                             -----    -----      002BH    
>> 0005H      -----    -----
  +--> ?CO?LANGRU
  +--> ?PR?_LANGSIMPLEDECODE?DISPLAY
  +--> ?PR?_DISPLAYSTRING?DISPLAY
  +--> ?PR?_STRMAKEDATE?STR
  +--> ?PR?_DISPLAYSTRINGRIGHT?DISPLAY
  +--> ?PR?_STRADDCOLON?STR
BL51 BANKED LINKER/LOCATER V3.70c             20/07/12  15:15:12  PAGE 32


  +--> ?PR?_DISPLAYNUMBER?DISPLAY

?PR?_STRMAKEDATE?STR                             -----    -----      0030H    
>> 0006H      -----    -----
  +--> ?PR?_ADDBCDNUMBER?STR
  +--> ?PR?_WBIN2BCD?WBIN2BCD

?PR?_ADDBCDNUMBER?STR                            -----    -----      0036H    
>> 0003H      -----    -----
  +--> ?PR?_BBIN2BCD?BBIN2BCD

?PR?_STRADDCOLON?STR                             -----    -----      0030H    
>> 0002H      -----    -----

?PR?DRAWBUTTONS?MENU                             0020H.1  0000H.1    -----    
>> -----      -----    -----
  +--> ?CO?MENU
  +--> ?PR?_DISPLAYSYMBOL?EL12864
  +--> ?CO?LANGRU
  +--> ?PR?_LANGSIMPLEDECODE?DISPLAY
  +--> ?PR?_DISPLAYSTRING?DISPLAY

?PR?_STRMAKETIME?STR                             -----    -----      002BH    
>> 0003H      -----    -----
  +--> ?PR?_ADDBCDNUMBER?STR

?PR?_STATSIGMA?STAT                              -----    -----      0028H    
>> 0006H      -----    -----
  +--> ?PR?SQRT?SQRT

?PR?SQRT?SQRT                                    -----    -----      002EH    
>> 0004H      -----    -----

?PR?_STATVARIATION?STAT                          -----    -----      0028H    
>> 0008H      -----    -----

?PR?_STATUNIFORMITY?STAT                         -----    -----      0028H    
>> 0011H      -----    -----
  +--> ?PR?_GAUSS?STAT
  +--> ?PR?_GAUSSINTEGRAL?STAT

?PR?_GAUSS?STAT                                  -----    -----      0039H    
>> 0004H      -----    -----
  +--> ?PR?EXP?EXP

?PR?_GAUSSINTEGRAL?STAT                          -----    -----      0039H    
>> 0014H      -----    -----

?PR?_DRAWHISTOGRAM?MENU                          -----    -----      0022H    
>> 0009H      -----    -----
  +--> ?PR?DISPLAYCLEAR?EL12864
  +--> ?PR?_DRAWHEADER?MENU
  +--> ?PR?_DISPLAYHORLINE?EL12864
  +--> ?PR?_DISPLAYVERTLINE?EL12864
  +--> ?CO?LANGRU
  +--> ?PR?_DISPLAYSTRING?DISPLAY
  +--> ?PR?_LANGSIMPLEDECODE?DISPLAY
  +--> ?PR?DRAWBUTTONS?MENU
  +--> ?PR?_DISPLAYSETAREA?EL12864
  +--> ?PR?_STRMAKETIME?STR
  +--> ?PR?_DISPLAYSTRINGRIGHT?DISPLAY
  +--> ?PR?_HISTOGRAMGETDENOMINATOR?HISTOGR
  +--> ?CO?MENU
  +--> ?PR?_DISPLAYSYMBOL?EL12864
  +--> ?PR?_HISTOGRAMGETVALUE?HISTOGR
BL51 BANKED LINKER/LOCATER V3.70c             20/07/12  15:15:12  PAGE 33


  +--> ?PR?_DISPLAYNUMBER?DISPLAY

?PR?_DISPLAYHORLINE?EL12864                      -----    -----      0032H    
>> 0007H      -----    -----
  +--> ?PR?_KSWRITECOMMAND?KS0108B
  +--> ?PR?KSREADDATA?KS0108B
  +--> ?PR?_KSWRITEDATA?KS0108B

?PR?_DISPLAYVERTLINE?EL12864                     -----    -----      -----    
>> -----      -----    -----
  +--> ?PR?_DISPLAYSETAREA?EL12864

?PR?_HISTOGRAMGETDENOMINATOR?HISTOGR             -----    -----      002BH    
>> 000BH      -----    -----

?PR?_HISTOGRAMGETVALUE?HISTOGR                   -----    -----      002BH    
>> 0002H      -----    -----

?PR?_DRAWLOGGER?MENU                             -----    -----      0022H    
>> 0002H      -----    -----
  +--> ?PR?DISPLAYCLEAR?EL12864
  +--> ?PR?_DRAWHEADER?MENU
  +--> ?PR?DRAWBUTTONS?MENU
  +--> ?PR?_DISPLAYSETAREA?EL12864
  +--> ?PR?_STRMAKETIME?STR
  +--> ?PR?_DISPLAYSTRINGRIGHT?DISPLAY
  +--> ?PR?LOGGERINITWEIGHING?MENU
  +--> ?PR?LOGGERDRAWSAMPLES?MENU

?PR?LOGGERINITWEIGHING?MENU                      -----    -----      -----    
>> -----      -----    -----
  +--> ?PR?LOGGERSETLASTPAGE?MENU

?PR?LOGGERSETLASTPAGE?MENU                       -----    -----      0027H    
>> 0005H      -----    -----
  +--> ?PR?_FIFOFIRST?FLFIFO
  +--> ?PR?_FIFONEXT?FLFIFO

?PR?LOGGERDRAWSAMPLES?MENU                       -----    -----      0024H    
>> 0007H      -----    -----
  +--> ?PR?_DISPLAYSETAREAFAST?EL12864
  +--> ?CO?LANGRU
  +--> ?PR?_LANGSIMPLEDECODE?DISPLAY
  +--> ?PR?_DISPLAYSTRINGCENTER?DISPLAY
  +--> ?PR?_FIFOREADFRAGMENT?FLFIFO
  +--> ?PR?_LOGGERSAMPLENUMBER?MENU
  +--> ?PR?_DISPLAYNUMBER?DISPLAY
  +--> ?PR?_DISPLAYCHAR?EL12864
  +--> ?PR?_LOGGERGETWEIGHT?ARCHIVE
  +--> ?CO?MENU
  +--> ?PR?_DISPLAYSYMBOL?EL12864
  +--> ?PR?_DISPLAYSTRING?DISPLAY
  +--> ?PR?_STRMAKETIME?STR
  +--> ?PR?_DISPLAYSTRINGRIGHT?DISPLAY
  +--> ?PR?_FIFONEXT?FLFIFO

?PR?_LOGGERSAMPLENUMBER?MENU                     -----    -----      002BH    
>> 0004H      -----    -----

?PR?_LOGGERINITARCHIVE?MENU                      -----    -----      0022H    
>> 0004H      -----    -----
  +--> ?PR?_FIFOITEMADDRESS?FLFIFO
  +--> ?PR?_FIFOINIT?FLFIFO
  +--> ?PR?LOGGERSETLASTPAGE?MENU

BL51 BANKED LINKER/LOCATER V3.70c             20/07/12  15:15:12  PAGE 34


?PR?MENULOGGERNEXTPAGE?MENU                      -----    -----      0022H    
>> 0005H      -----    -----
  +--> ?PR?_FIFONEXT?FLFIFO
  +--> ?PR?_FIFOFIRST?FLFIFO

?PR?MENULOGGERPREVIOUSPAGE?MENU                  -----    -----      0022H    
>> 0005H      -----    -----
  +--> ?PR?_FIFOPREVIOUS?FLFIFO
  +--> ?PR?LOGGERSETLASTPAGE?MENU

?PR?EDITCOMPARISON?MENU                          -----    -----      -----    
>> -----      -----    -----
  +--> ?PR?CHOOSECOMPARISONFLOCK?MENU
  +--> ?PR?_CFGSAVE?CFG
  +--> ?PR?FLOCKREADWEIGHINGPARAMETERS?FLOCK

?PR?COPYRECORDSTOMODULE?MENU                     -----    -----      -----    
>> -----      -----    -----
  +--> ?CO?LANGRU
  +--> ?PR?_LANGSIMPLEDECODE?DISPLAY
  +--> ?PR?_DISPLAYDIALOG?DISPLAY
  +--> ?PR?ARCHIVESAVEDAY?ARCHIVE
  +--> ?PR?_FLASHWRITESTART?NVFLASH
  +--> ?PR?MODULEISPRESENT?MODULE
  +--> ?PR?SCALEDISABLE?SCALE
  +--> ?PR?CALSAVETOFLASH?CAL
  +--> ?PR?MODULECOPY?MODULE
  +--> ?PR?MODULEVERIFY?MODULE
  +--> ?PR?SCALEENABLE?SCALE

?PR?MODULEISPRESENT?MODULE                       -----    -----      0022H    
>> 0001H      -----    -----
  +--> ?PR?FLASHSTATUS?AT45DBXX

?PR?CALSAVETOFLASH?CAL                           -----    -----      0022H    
>> 0003H      -----    -----
  +--> ?PR?_FLASHWRITESTART?NVFLASH
  +--> ?PR?_FLASHWRITEDATA?NVFLASH

?PR?MODULECOPY?MODULE                            -----    -----      0022H    
>> 0005H      -----    -----
  +--> ?PR?_FLASHBLOCKREADSTART?AT45DBXX
  +--> ?PR?SPIREADBYTE?SPIHW
  +--> ?PR?SPIRELEASE?SPIBAT
  +--> ?PR?_FLASHWRITEBUFFERSTART?AT45DBXX
  +--> ?PR?_SPIWRITEBYTE?SPIHW
  +--> ?PR?_DISPLAYBARGRAF?DISPLAY
  +--> ?PR?FLASHWAITFORREADY?AT45DBXX
  +--> ?PR?_FLASHSAVEBUFFER?AT45DBXX

?PR?_DISPLAYBARGRAF?DISPLAY                      -----    -----      0027H    
>> 000BH      -----    -----
  +--> ?PR?_DISPLAYHORLINE?EL12864
  +--> ?PR?_DISPLAYVERTLINE?EL12864
  +--> ?PR?_DISPLAYSETAREA?EL12864

?PR?MODULEVERIFY?MODULE                          -----    -----      0022H    
>> 0005H      -----    -----
  +--> ?PR?_FLASHBLOCKREADSTART?AT45DBXX
  +--> ?PR?SPIREADBYTE?SPIHW
  +--> ?PR?SPIRELEASE?SPIBAT
  +--> ?PR?_DISPLAYBARGRAF?DISPLAY

?PR?EDITDATETIME?MENU                            -----    -----      -----    
>> -----      -----    -----
BL51 BANKED LINKER/LOCATER V3.70c             20/07/12  15:15:12  PAGE 35


  +--> ?CO?LANGRU
  +--> ?PR?_LANGSIMPLEDECODE?DISPLAY
  +--> ?PR?_DISPLAYDIALOG?DISPLAY
  +--> ?PR?_WBIN2BCD?WBIN2BCD
  +--> ?PR?_BBIN2BCD?BBIN2BCD
  +--> ?PR?_DBCD2BIN?DBCD2BIN
  +--> ?PR?_DISPLAYEDIT?DISPLAY
  +--> ?PR?_DBIN2BCD?DBIN2BCD
  +--> ?PR?_BBCD2BIN?BBCD2BIN
  +--> ?PR?_WBCD2BIN?WBCD2BIN
  +--> ?PR?DATESET?DATE

?PR?EDITIDENTIFICATIONNUMBER?MENU                -----    -----      -----    
>> -----      -----    -----
  +--> ?CO?LANGRU
  +--> ?PR?_LANGSIMPLEDECODE?DISPLAY
  +--> ?PR?_DISPLAYDIALOG?DISPLAY
  +--> ?PR?_DISPLAYEDIT?DISPLAY
  +--> ?PR?RETRY?MENU
  +--> ?PR?_CFGSAVE?CFG

?PR?EDITSTATISTICPARAMETERS?MENU                 -----    -----      0022H    
>> 0001H      -----    -----
  +--> ?CO?LANGRU
  +--> ?PR?_LANGSIMPLEDECODE?DISPLAY
  +--> ?PR?_DISPLAYDIALOG?DISPLAY
  +--> ?PR?_DISPLAYCHAR?EL12864
  +--> ?PR?_DISPLAYEDIT?DISPLAY
  +--> ?PR?RETRY?MENU
  +--> ?PR?_CFGSAVE?CFG

?PR?NEWFLOCK?MENU                                -----    -----      -----    
>> -----      -----    -----
  +--> ?CO?LANGRU
  +--> ?PR?_LANGSIMPLEDECODE?DISPLAY
  +--> ?PR?_DISPLAYDIALOG?DISPLAY
  +--> ?PR?_DISPLAYEDIT?DISPLAY
  +--> ?PR?RETRY?MENU
  +--> ?PR?_FLOCKNEWFLOCK?FLOCK

?PR?_FLOCKNEWFLOCK?FLOCK                         -----    -----      -----    
>> -----      -----    -----
  +--> ?PR?_EDITFLOCK?FLOCK

?PR?_EDITFLOCK?FLOCK                             0020H.1  0000H.1    0023H    
>> 0001H      -----    -----
  +--> ?PR?_READHEADER?FLOCK
  +--> ?CO?LANGRU
  +--> ?PR?_LANGSIMPLEDECODE?DISPLAY
  +--> ?PR?_DISPLAYDIALOG?DISPLAY
  +--> ?PR?_SETDEFAULTS?FLOCK
  +--> ?PR?_DISPLAYEDITTEXT?DISPLAY
  +--> ?PR?_EDITGROWTHCURVE?FLOCK
  +--> ?PR?_EDITINITIALWEIGHT?FLOCK
  +--> ?PR?_EDITTIMELIMIT?FLOCK
  +--> ?PR?CLEARTIMELIMIT?FLOCK
  +--> ?PR?_SAVEHEADER?FLOCK
  +--> ?PR?_FLASHWRITESTART?NVFLASH

?PR?_SETDEFAULTS?FLOCK                           -----    -----      0024H    
>> 0002H      -----    -----
  +--> ?PR?_READHEADER?FLOCK
  +--> ?PR?CLEARTIMELIMIT?FLOCK
  +--> ?PR?_SAVEHEADER?FLOCK
  +--> ?PR?_SAVECURVE?FLOCK
BL51 BANKED LINKER/LOCATER V3.70c             20/07/12  15:15:12  PAGE 36



?PR?_SAVEHEADER?FLOCK                            -----    -----      -----    
>> -----      -----    -----
  +--> ?PR?_FLOCKSAVEITEM?FLOCK

?PR?_SAVECURVE?FLOCK                             -----    -----      -----    
>> -----      -----    -----
  +--> ?PR?_FLOCKSAVEITEM?FLOCK

?PR?_DISPLAYEDITTEXT?DISPLAY                     0020H.2  0000H.2    0024H    
>> 0007H      0080H    0003H
  +--> ?PR?_DISPLAYSETAREA?EL12864
  +--> ?PR?KBDWAITFORKEY?KBDCTL
  +--> ?PR?KBDBEEPKEY?KBDCTL
  +--> ?PR?DISPLAYON?EL12864
  +--> ?PR?_DISPLAYCHAR?EL12864

?PR?_EDITGROWTHCURVE?FLOCK                       -----    -----      0024H    
>> 0002H      -----    -----
  +--> ?PR?_READCURVE?FLOCK
  +--> ?PR?_CURVETABLE?CURVE
  +--> ?PR?_SAVECURVE?FLOCK

?PR?_CURVETABLE?CURVE                            0020H.2  0000H.1    0026H    
>> 0003H      0080H    0007H
  +--> ?PR?DISPLAYCLEAR?EL12864
  +--> ?PR?_DRAWLEFTSIDE?CURVE
  +--> ?PR?DRAWFRAME?CURVE
  +--> ?PR?_DISPLAYSETAREAFAST?EL12864
  +--> ?PR?CLEARCURSOR?CURVE
  +--> ?PR?DRAWLINES?CURVE
  +--> ?PR?_DISPLAYNUMBER?DISPLAY
  +--> ?CO?MENU
  +--> ?PR?_DISPLAYSYMBOL?EL12864
  +--> ?PR?KBDWAITFORKEY?KBDCTL
  +--> ?PR?KBDBEEPKEY?KBDCTL
  +--> ?CO?LANGRU
  +--> ?PR?_LANGSIMPLEDECODE?DISPLAY
  +--> ?PR?_DISPLAYDIALOG?DISPLAY
  +--> ?PR?_CURVEFINDLASTDAY?CURVE
  +--> ?PR?_DISPLAYSETFONT?FONT
  +--> ?PR?_DISPLAYEDIT?DISPLAY
  +--> ?PR?_FINDMAXWEIGHT?CURVE
  +--> ?PR?_SORTCURVE?CURVE

?PR?_DRAWLEFTSIDE?CURVE                          -----    -----      0029H    
>> 0001H      -----    -----
  +--> ?PR?_DISPLAYSETFONT?FONT
  +--> ?CO?MENU
  +--> ?PR?_DISPLAYSYMBOL?EL12864
  +--> ?CO?LANGRU
  +--> ?PR?_LANGSIMPLEDECODE?DISPLAY
  +--> ?PR?_DISPLAYSTRING?DISPLAY

?PR?DRAWFRAME?CURVE                              -----    -----      -----    
>> -----      -----    -----
  +--> ?PR?_DISPLAYHORLINE?EL12864
  +--> ?PR?_DISPLAYFASTVERTLINE?EL12864
  +--> ?PR?_DISPLAYSETAREAFAST?EL12864
  +--> ?PR?_DISPLAYSETFONT?FONT
  +--> ?CO?LANGRU
  +--> ?PR?_LANGSIMPLEDECODE?DISPLAY
  +--> ?PR?_DISPLAYSTRINGCENTER?DISPLAY

?PR?_DISPLAYFASTVERTLINE?EL12864                 -----    -----      0029H    
BL51 BANKED LINKER/LOCATER V3.70c             20/07/12  15:15:12  PAGE 37


>> 0005H      -----    -----
  +--> ?PR?_KSWRITECOMMAND?KS0108B
  +--> ?PR?_KSWRITEDATA?KS0108B

?PR?CLEARCURSOR?CURVE                            -----    -----      -----    
>> -----      -----    -----
  +--> ?PR?_DISPLAYSETAREAFAST?EL12864

?PR?DRAWLINES?CURVE                              -----    -----      0029H    
>> 0001H      -----    -----
  +--> ?PR?_DISPLAYHORLINE?EL12864

?PR?_FINDMAXWEIGHT?CURVE                         -----    -----      0029H    
>> 0002H      -----    -----

?PR?_SORTCURVE?CURVE                             -----    -----      0029H    
>> 000BH      -----    -----

?PR?_EDITINITIALWEIGHT?FLOCK                     -----    -----      0024H    
>> 0005H      -----    -----
  +--> ?PR?_READCURVE?FLOCK
  +--> ?PR?_LANGSIMPLEDECODE?DISPLAY
  +--> ?PR?_DISPLAYDIALOG?DISPLAY
  +--> ?CO?LANGRU
  +--> ?PR?_DISPLAYSTRING?DISPLAY
  +--> ?PR?_CURVELOADFIRSTWEIGHT?CURVE
  +--> ?PR?_DISPLAYEDIT?DISPLAY
  +--> ?PR?_CURVESAVEFIRSTWEIGHT?CURVE
  +--> ?PR?_SAVECURVE?FLOCK

?PR?_EDITTIMELIMIT?FLOCK                         -----    -----      0024H    
>> 0005H      -----    -----
  +--> ?PR?_LANGSIMPLEDECODE?DISPLAY
  +--> ?PR?_DISPLAYDIALOG?DISPLAY
  +--> ?CO?LANGRU
  +--> ?PR?_DISPLAYSTRING?DISPLAY
  +--> ?PR?_DISPLAYEDIT?DISPLAY

?PR?EDITORDELETEFLOCK?MENU                       0020H.0  0000H.1    0022H    
>> 0001H      -----    -----
  +--> ?PR?FLOCKCHOOSEFLOCK?FLOCK
  +--> ?CO?LANGRU
  +--> ?PR?_LANGSIMPLEDECODE?DISPLAY
  +--> ?PR?_DISPLAYDIALOG?DISPLAY
  +--> ?PR?_FLOCKDELETEFLOCK?FLOCK
  +--> ?PR?_FLOCKEDITFLOCK?FLOCK
  +--> ?PR?FLOCKREADWEIGHINGPARAMETERS?FLOCK

?PR?_FLOCKEDITFLOCK?FLOCK                        -----    -----      -----    
>> -----      -----    -----
  +--> ?PR?_EDITFLOCK?FLOCK

?PR?DELETEALLFLOCKS?MENU                         -----    -----      -----    
>> -----      -----    -----
  +--> ?CO?LANGRU
  +--> ?PR?_LANGSIMPLEDECODE?DISPLAY
  +--> ?PR?_DISPLAYDIALOG?DISPLAY
  +--> ?PR?FLOCKDELETEALLFLOCKS?FLOCK

?PR?FLOCKDELETEALLFLOCKS?FLOCK                   -----    -----      0022H    
>> 0001H      -----    -----
  +--> ?PR?_SAVEFLOCKNUMBER?FLOCK
  +--> ?PR?_FLASHWRITESTART?NVFLASH
  +--> ?PR?_CFGSAVE?CFG

BL51 BANKED LINKER/LOCATER V3.70c             20/07/12  15:15:12  PAGE 38


?PR?EDITRS485ADDRESS?MENU                        -----    -----      -----    
>> -----      -----    -----
  +--> ?CO?LANGRU
  +--> ?PR?_LANGSIMPLEDECODE?DISPLAY
  +--> ?PR?_DISPLAYDIALOG?DISPLAY
  +--> ?PR?_DISPLAYEDIT?DISPLAY
  +--> ?PR?RETRY?MENU
  +--> ?PR?_CFGSAVE?CFG

?PR?EDITRS485SPEED?MENU                          -----    -----      0022H    
>> 0001H      -----    -----
  +--> ?CO?LANGRU
  +--> ?PR?_LANGSIMPLEDECODE?DISPLAY
  +--> ?PR?_DISPLAYDIALOG?DISPLAY
  +--> ?CO?MENU
  +--> ?PR?_DISPLAYCHOOSEITEM?DISPLAY
  +--> ?PR?_CFGSAVE?CFG
  +--> ?PR?MBINITIALIZE?MB

?PR?_DISPLAYCHOOSEITEM?DISPLAY                   0020H.0  0000H.1    002BH    
>> 0006H      -----    -----
  +--> ?CO?MENU
  +--> ?PR?_DISPLAYSYMBOL?EL12864
  +--> ?PR?KBDWAITFORKEY?KBDCTL
  +--> ?PR?KBDBEEPKEY?KBDCTL
  +--> ?PR?DISPLAYON?EL12864
  +--> ?PR?_DISPLAYSETAREAFAST?EL12864
  +--> ?PR?_DECODESTRING?DISPLAY
  +--> ?PR?_DISPLAYSTRING?DISPLAY

?PR?EDITRS485PARITY?MENU                         -----    -----      -----    
>> -----      -----    -----
  +--> ?CO?LANGRU
  +--> ?PR?_LANGSIMPLEDECODE?DISPLAY
  +--> ?PR?_DISPLAYDIALOG?DISPLAY
  +--> ?PR?_DISPLAYCHOOSEITEM?DISPLAY
  +--> ?PR?_CFGSAVE?CFG
  +--> ?PR?MBINITIALIZE?MB

?PR?EDITRS485PROTOCOL?MENU                       -----    -----      -----    
>> -----      -----    -----
  +--> ?CO?LANGRU
  +--> ?PR?_LANGSIMPLEDECODE?DISPLAY
  +--> ?PR?_DISPLAYDIALOG?DISPLAY
  +--> ?PR?_DISPLAYCHOOSEITEM?DISPLAY
  +--> ?PR?_CFGSAVE?CFG
  +--> ?PR?MBINITIALIZE?MB

?PR?EDITRS485DELAYS?MENU                         -----    -----      0022H    
>> 0002H      -----    -----
  +--> ?CO?LANGRU
  +--> ?PR?_LANGSIMPLEDECODE?DISPLAY
  +--> ?PR?_DISPLAYDIALOG?DISPLAY
  +--> ?PR?_DISPLAYSTRING?DISPLAY
  +--> ?PR?_DISPLAYEDIT?DISPLAY
  +--> ?PR?RETRY?MENU
  +--> ?PR?_CFGSAVE?CFG
  +--> ?PR?MBINITIALIZE?MB

?PR?EDITSAVINGPARAMETERS?MENU                    -----    -----      0022H    
>> 0009H      -----    -----
  +--> ?CO?LANGRU
  +--> ?PR?_EDITMARGIN?MENU
  +--> ?PR?_LANGSIMPLEDECODE?DISPLAY
  +--> ?PR?_DISPLAYDIALOG?DISPLAY
BL51 BANKED LINKER/LOCATER V3.70c             20/07/12  15:15:12  PAGE 39


  +--> ?PR?_DISPLAYEDIT?DISPLAY
  +--> ?PR?RETRY?MENU
  +--> ?PR?_DISPLAYCHAR?EL12864
  +--> ?PR?_DECODESTRING?DISPLAY
  +--> ?PR?_DISPLAYCHOOSEITEM?DISPLAY
  +--> ?PR?_CFGSAVE?CFG
  +--> ?PR?FLOCKREADWEIGHINGPARAMETERS?FLOCK
  +--> ?PR?SCALEINITAVERAGE?SCALE

?PR?_EDITMARGIN?MENU                             -----    -----      002BH    
>> 0001H      -----    -----
  +--> ?PR?_LANGSIMPLEDECODE?DISPLAY
  +--> ?PR?_DISPLAYDIALOG?DISPLAY
  +--> ?PR?_DISPLAYCHAR?EL12864
  +--> ?PR?_DISPLAYEDIT?DISPLAY

?PR?EDITCORRECTIONCURVE?MENU                     -----    -----      0022H    
>> 0004H      -----    -----
  +--> ?CO?LANGRU
  +--> ?PR?_LANGSIMPLEDECODE?DISPLAY
  +--> ?PR?_DISPLAYDIALOG?DISPLAY
  +--> ?PR?_CFGSAVE?CFG
  +--> ?PR?_DISPLAYEDIT?DISPLAY
  +--> ?PR?RETRY?MENU
  +--> ?PR?_DISPLAYCHAR?EL12864

?PR?EDITUNITS?MENU                               -----    -----      -----    
>> -----      -----    -----
  +--> ?CO?LANGRU
  +--> ?PR?_LANGSIMPLEDECODE?DISPLAY
  +--> ?PR?_DISPLAYDIALOG?DISPLAY
  +--> ?PR?_DECODESTRING?DISPLAY
  +--> ?PR?_DISPLAYCHOOSEITEM?DISPLAY
  +--> ?PR?_CFGSAVE?CFG

?PR?CALIBRATESCALE?MENU                          -----    -----      0022H    
>> 0001H      -----    -----
  +--> ?CO?LANGRU
  +--> ?PR?_LANGSIMPLEDECODE?DISPLAY
  +--> ?PR?_DISPLAYDIALOG?DISPLAY
  +--> ?PR?_DISPLAYCHOOSEITEM?DISPLAY
  +--> ?PR?CALSAVE?CAL
  +--> ?PR?SYSDISABLETIMEOUT?MAIN
  +--> ?PR?SCALEDISABLE?SCALE
  +--> ?PR?ADCSTOP?ADS123X
  +--> ?PR?ADCSTART?ADS123X
  +--> ?PR?_SCALEREADCONVERSIONAVERAGE?SCALE
  +--> ?PR?_DISPLAYSTRING?DISPLAY
  +--> ?PR?_DISPLAYEDIT?DISPLAY
  +--> ?PR?RETRY?MENU
  +--> ?PR?CALLOAD?CAL
  +--> ?PR?SCALEENABLE?SCALE
  +--> ?PR?SYSENABLETIMEOUT?MAIN

?PR?CALSAVE?CAL                                  0020H.0  0000H.1    0023H    
>> 0005H      -----    -----
  +--> ?PR?IEPPAGEWRITESTART?IEP
  +--> ?PR?_IEPRAWWRITEBYTE?IEP

?PR?_SCALEREADCONVERSIONAVERAGE?SCALE            -----    -----      0023H    
>> 0006H      -----    -----
  +--> ?PR?SYSYIELD?MAIN
  +--> ?PR?ADCREAD?ADS123X

?PR?EDITBACKLIGHT?MENU                           -----    -----      -----    
BL51 BANKED LINKER/LOCATER V3.70c             20/07/12  15:15:12  PAGE 40


>> -----      -----    -----
  +--> ?CO?LANGRU
  +--> ?PR?_LANGSIMPLEDECODE?DISPLAY
  +--> ?PR?_DISPLAYDIALOG?DISPLAY
  +--> ?PR?_DECODESTRING?DISPLAY
  +--> ?PR?_DISPLAYCHOOSEITEM?DISPLAY
  +--> ?PR?_CFGSAVE?CFG

?PR?READSETUPFROMMODULE?MENU                     -----    -----      -----    
>> -----      -----    -----
  +--> ?CO?LANGRU
  +--> ?PR?_LANGSIMPLEDECODE?DISPLAY
  +--> ?PR?_DISPLAYDIALOG?DISPLAY
  +--> ?PR?_FLASHWRITESTART?NVFLASH
  +--> ?PR?MODULEISPRESENT?MODULE
  +--> ?PR?MODULEREADCONFIG?MODULE
  +--> ?PR?_CFGCALCCHECKSUM?CFG
  +--> ?PR?CFGSAVECONFIGFROMMODULE?CFG
  +--> ?PR?MODULECOPYFLOCKSFROMMODULE?MODULE

?PR?MODULEREADCONFIG?MODULE                      -----    -----      0022H    
>> 0003H      -----    -----
  +--> ?PR?_FLASHREADSTART?NVFLASH
  +--> ?PR?FLASHREADDATA?NVFLASH
  +--> ?PR?SPIRELEASE?SPIBAT

?PR?CFGSAVECONFIGFROMMODULE?CFG                  -----    -----      -----    
>> -----      -----    -----
  +--> ?PR?_CFGSAVE?CFG

?PR?MODULECOPYFLOCKSFROMMODULE?MODULE            -----    -----      0022H    
>> 0007H      -----    -----
  +--> ?PR?_FLASHBLOCKREADSTART?AT45DBXX
  +--> ?PR?SPIREADBYTE?SPIHW
  +--> ?PR?SPIRELEASE?SPIBAT
  +--> ?PR?_FLASHWRITEBUFFERSTART?AT45DBXX
  +--> ?PR?_SPIWRITEBYTE?SPIHW
  +--> ?PR?FLASHWAITFORREADY?AT45DBXX
  +--> ?PR?_FLASHSAVEBUFFER?AT45DBXX

?PR?STARTONLINE?MENU                             -----    -----      -----    
>> -----      -----    -----
  +--> ?CO?LANGRU
  +--> ?PR?_LANGSIMPLEDECODE?DISPLAY
  +--> ?PR?_DISPLAYDIALOG?DISPLAY
  +--> ?PR?STARTWEIGHING?MENU

?PR?_MENUDISPLAYWEIGHING?MENU                    -----    -----      -----    
>> -----      -----    -----
  +--> ?PR?_DISPLAYSETFONT?FONT
  +--> ?PR?DRAWWEIGHINGSTOPPED?MENU
  +--> ?PR?DRAWWEIGHINGWAITING?MENU
  +--> ?PR?DRAWWEIGHING?MENU
  +--> ?PR?_DRAWSTATISTICS?MENU
  +--> ?PR?_DRAWHISTOGRAM?MENU
  +--> ?PR?_DRAWLOGGER?MENU

?PR?DRAWWEIGHINGSTOPPED?MENU                     -----    -----      -----    
>> -----      -----    -----
  +--> ?PR?DISPLAYCLEAR?EL12864
  +--> ?PR?_DRAWHEADER?MENU
  +--> ?CO?LANGRU
  +--> ?PR?_LANGSIMPLEDECODE?DISPLAY
  +--> ?PR?_STRADDCOLON?STR
  +--> ?PR?_DISPLAYSTRING?DISPLAY
BL51 BANKED LINKER/LOCATER V3.70c             20/07/12  15:15:12  PAGE 41


  +--> ?PR?DRAWBUTTONS?MENU
  +--> ?PR?_DISPLAYSETAREA?EL12864
  +--> ?PR?_STRMAKETIME?STR
  +--> ?PR?_DISPLAYSTRINGRIGHT?DISPLAY
  +--> ?PR?DRAWACTUALWEIGHT?MENU

?PR?DRAWACTUALWEIGHT?MENU                        -----    -----      -----    
>> -----      -----    -----
  +--> ?PR?SAVELIMITEDWEIGHTTOUN?MENU
  +--> ?PR?_DISPLAYSETAREA?EL12864
  +--> ?PR?_DISPLAYNUMBER?DISPLAY

?PR?DRAWWEIGHINGWAITING?MENU                     -----    -----      -----    
>> -----      -----    -----
  +--> ?PR?DISPLAYCLEAR?EL12864
  +--> ?PR?_DRAWHEADER?MENU
  +--> ?CO?LANGRU
  +--> ?PR?_LANGSIMPLEDECODE?DISPLAY
  +--> ?PR?_STRADDCOLON?STR
  +--> ?PR?_DISPLAYSTRING?DISPLAY
  +--> ?PR?_STRMAKEDATE?STR
  +--> ?PR?_DISPLAYSTRINGRIGHT?DISPLAY
  +--> ?PR?_STRMAKETIME?STR
  +--> ?PR?DRAWBUTTONS?MENU
  +--> ?PR?_DISPLAYSETAREA?EL12864
  +--> ?PR?DRAWACTUALWEIGHT?MENU

?PR?DRAWWEIGHING?MENU                            -----    -----      -----    
>> -----      -----    -----
  +--> ?PR?DISPLAYCLEAR?EL12864
  +--> ?PR?_DRAWHEADER?MENU
  +--> ?CO?LANGRU
  +--> ?PR?_LANGSIMPLEDECODE?DISPLAY
  +--> ?PR?_STRADDCOLON?STR
  +--> ?PR?_DISPLAYSTRING?DISPLAY
  +--> ?PR?_DISPLAYSTRINGRIGHT?DISPLAY
  +--> ?PR?_DISPLAYNUMBER?DISPLAY
  +--> ?CO?MENU
  +--> ?PR?_DISPLAYSYMBOL?EL12864
  +--> ?PR?DRAWBUTTONS?MENU
  +--> ?PR?_DISPLAYSETAREA?EL12864
  +--> ?PR?_STRMAKETIME?STR
  +--> ?PR?SAVELIMITEDWEIGHTTOUN?MENU

?PR?MENUNEXTDISPLAY?MENU                         -----    -----      -----    
>> -----      -----    -----
  +--> ?PR?LOGGERINITWEIGHING?MENU

*** NEW ROOT ***************************************************

?PR?INTHANDLER?ADS123X                           -----    -----      -----    
>> -----      -----    -----
  +--> ?PR?ADCREADVALUE?ADS123X

?PR?ADCREADVALUE?ADS123X                         -----    -----      007CH    
>> 0004H      -----    -----



SYMBOL TABLE OF MODULE:  BAT2.EXE (KS0108B)

  VALUE           TYPE          NAME
  ----------------------------------

  -------         MODULE        KS0108B
BL51 BANKED LINKER/LOCATER V3.70c             20/07/12  15:15:12  PAGE 42


  C:0000H         SYMBOL        _ICE_DUMMY_
  B:00D8H.2       PUBLIC        CCF2
  B:00D8H.3       PUBLIC        CCF3
  D:0080H         PUBLIC        P0
  B:00D8H.4       PUBLIC        CCF4
  D:0090H         PUBLIC        P1
  D:00A0H         PUBLIC        P2
  D:00B0H         PUBLIC        P3
  B:00A0H.1       PUBLIC        BATRES
  B:00D0H.6       PUBLIC        AC
  B:00B0H.4       PUBLIC        T0
  B:00B0H.5       PUBLIC        T1
  B:0090H.6       PUBLIC        BATSCKEE
  B:00A8H.7       PUBLIC        EA
  B:0090H.0       PUBLIC        T2
  B:00B0H.0       PUBLIC        BATRXD
  B:00A8H.6       PUBLIC        EC
  B:00D8H.7       PUBLIC        CF
  B:00B0H.1       PUBLIC        BATTXD
  B:0098H.7       PUBLIC        FE
  B:0080H.0       PUBLIC        BATD0
  B:0080H.1       PUBLIC        BATD1
  B:0080H.2       PUBLIC        BATD2
  B:0080H.3       PUBLIC        BATD3
  B:0080H.0       PUBLIC        P0_0
  B:0090H.3       PUBLIC        BATCSMOD
  B:0080H.4       PUBLIC        BATD4
  B:0090H.3       PUBLIC        CEX0
  B:0090H.0       PUBLIC        P1_0
  B:0080H.1       PUBLIC        P0_1
  B:0080H.5       PUBLIC        BATD5
  B:00A0H.0       PUBLIC        P2_0
  B:0090H.4       PUBLIC        CEX1
  B:0090H.1       PUBLIC        P1_1
  B:0080H.2       PUBLIC        P0_2
  B:0080H.6       PUBLIC        BATD6
  B:00B0H.0       PUBLIC        P3_0
  B:00A0H.1       PUBLIC        P2_1
  B:0090H.5       PUBLIC        CEX2
  B:0090H.2       PUBLIC        P1_2
  B:0080H.3       PUBLIC        P0_3
  B:00B0H.6       PUBLIC        BATK0
  B:0080H.7       PUBLIC        BATD7
  B:00C0H.0       PUBLIC        P4_0
  B:00B0H.1       PUBLIC        P3_1
  B:00A0H.2       PUBLIC        P2_2
  B:0090H.6       PUBLIC        CEX3
  B:0090H.3       PUBLIC        P1_3
  B:0080H.4       PUBLIC        P0_4
  B:00B0H.7       PUBLIC        BATK1
  B:00D8H.6       PUBLIC        CR
  B:00E8H.0       PUBLIC        P5_0
  B:00C0H.1       PUBLIC        P4_1
  B:00B0H.2       PUBLIC        P3_2
  B:00A0H.3       PUBLIC        P2_3
  B:0090H.7       PUBLIC        CEX4
  B:0090H.4       PUBLIC        P1_4
  B:0080H.5       PUBLIC        P0_5
  B:00A0H.0       PUBLIC        BATK2
  B:00C8H.6       PUBLIC        EXF2
  B:00E8H.1       PUBLIC        P5_1
  B:00C0H.2       PUBLIC        P4_2
  B:00B0H.7       PUBLIC        RD
  B:00B0H.3       PUBLIC        P3_3
  B:00A0H.4       PUBLIC        P2_4
BL51 BANKED LINKER/LOCATER V3.70c             20/07/12  15:15:12  PAGE 43


  B:0090H.5       PUBLIC        P1_5
  B:0080H.6       PUBLIC        P0_6
  B:00E8H.2       PUBLIC        P5_2
  B:00C0H.3       PUBLIC        P4_3
  B:00B0H.4       PUBLIC        P3_4
  B:00A0H.5       PUBLIC        P2_5
  B:0090H.6       PUBLIC        P1_6
  B:0080H.7       PUBLIC        P0_7
  B:00A8H.4       PUBLIC        ES
  B:00E8H.3       PUBLIC        P5_3
  B:00C0H.4       PUBLIC        P4_4
  B:00B0H.5       PUBLIC        P3_5
  B:00A0H.6       PUBLIC        P2_6
  B:0090H.7       PUBLIC        P1_7
  B:00D0H.1       PUBLIC        UD
  B:00E8H.4       PUBLIC        P5_4
  B:00C0H.5       PUBLIC        P4_5
  B:00B0H.6       PUBLIC        P3_6
  B:00A0H.7       PUBLIC        P2_7
  B:00A0H.6       PUBLIC        BATCSRTC
  B:00A0H.4       PUBLIC        BATRDRTC
  B:00E8H.5       PUBLIC        P5_5
  B:00C0H.6       PUBLIC        P4_6
  B:00B0H.7       PUBLIC        P3_7
  B:0098H.0       PUBLIC        RI
  B:00E8H.6       PUBLIC        P5_6
  B:00C0H.7       PUBLIC        P4_7
  B:00D0H.7       PUBLIC        CY
  B:00E8H.7       PUBLIC        P5_7
  B:00B0H.2       PUBLIC        INT0
  B:0098H.1       PUBLIC        TI
  B:00B0H.3       PUBLIC        INT1
  B:00B8H.1       PUBLIC        PT0L
  B:00B8H.3       PUBLIC        PT1L
  B:00B8H.5       PUBLIC        PT2L
  B:0090H.1       PUBLIC        T2EX
  B:00B8H.0       PUBLIC        PX0L
  B:00D0H.2       PUBLIC        OV
  B:00B8H.2       PUBLIC        PX1L
  B:00C8H.1       PUBLIC        C_T2
  B:00B0H.6       PUBLIC        WR
  C:F0E2H         PUBLIC        _KSWRITEDATA
  B:00A0H.5       PUBLIC        BATWRRTC
  B:00C8H.5       PUBLIC        RCLK
  B:00C8H.4       PUBLIC        TCLK
  B:00B8H.6       PUBLIC        PPCL
  C:EE2EH         SYMBOL        WAITFORREADY
  C:EE5EH         PUBLIC        KSREADDATA
  B:00B0H.2       PUBLIC        BATDATAAD
  B:0090H.4       PUBLIC        BATCSEE
  B:0088H.1       PUBLIC        IE0
  B:0088H.3       PUBLIC        IE1
  B:0090H.7       PUBLIC        BATSIEE
  B:00C8H.0       PUBLIC        CP_RL2
  B:0090H.5       PUBLIC        BATSOEE
  B:00A8H.1       PUBLIC        ET0
  B:00A8H.3       PUBLIC        ET1
  B:0088H.5       PUBLIC        TF0
  B:00A8H.5       PUBLIC        ET2
  B:0088H.7       PUBLIC        TF1
  B:0098H.2       PUBLIC        RB8
  B:00C8H.7       PUBLIC        TF2
  B:00A8H.0       PUBLIC        EX0
  B:0088H.0       PUBLIC        IT0
  B:00A8H.2       PUBLIC        EX1
BL51 BANKED LINKER/LOCATER V3.70c             20/07/12  15:15:12  PAGE 44


  B:0098H.3       PUBLIC        TB8
  B:0088H.2       PUBLIC        IT1
  B:00D0H.0       PUBLIC        P
  B:0098H.7       PUBLIC        SM0
  B:0098H.6       PUBLIC        SM1
  B:0090H.2       PUBLIC        ECI
  B:0098H.5       PUBLIC        SM2
  C:DEFAH         PUBLIC        KSINIT
  B:00D0H.3       PUBLIC        RS0
  B:00A0H.7       PUBLIC        BATALERTC
  B:0088H.4       PUBLIC        TR0
  B:00D0H.4       PUBLIC        RS1
  B:0088H.6       PUBLIC        TR1
  B:00C8H.2       PUBLIC        TR2
  B:0090H.1       PUBLIC        BATPDWNAD
  B:00F8H.0       PUBLIC        PI2_0
  B:00F8H.1       PUBLIC        PI2_1
  B:00B0H.3       PUBLIC        BATSVIT
  B:00A0H.3       PUBLIC        BATCS1
  B:00A0H.2       PUBLIC        BATCS2
  B:00C8H.3       PUBLIC        EXEN2
  B:0090H.2       PUBLIC        BATLOWBAT
  B:0098H.4       PUBLIC        REN
  B:00B0H.4       PUBLIC        BATIGTGSM
  B:00B0H.5       PUBLIC        BATZAPGSM
  B:00B0H.0       PUBLIC        RXD
  B:0021H.6       PUBLIC        DRIVER
  B:00B8H.4       PUBLIC        PLS
  B:00B0H.1       PUBLIC        TXD
  C:F0B7H         PUBLIC        _KSWRITECOMMAND
  B:00D0H.5       PUBLIC        F0
  B:0090H.0       PUBLIC        BATCLKAD
  C:000EH         PUBLIC        KSON
  B:00D8H.0       PUBLIC        CCF0
  B:00D8H.1       PUBLIC        CCF1
  -------         PROC          WAITFORREADY
  -------         ENDPROC       WAITFORREADY
  C:EE2EH         LINE#         83
  C:EE2EH         LINE#         85
  C:EE33H         LINE#         86
  C:EE35H         LINE#         87
  C:EE37H         LINE#         88
  C:EE40H         LINE#         89
  C:EE40H         LINE#         90
  C:EE42H         LINE#         91
  C:EE43H         LINE#         92
  C:EE45H         LINE#         93
  C:EE46H         LINE#         94
  C:EE47H         LINE#         95
  C:EE48H         LINE#         96
  C:EE49H         LINE#         97
  C:EE4AH         LINE#         98
  C:EE4BH         LINE#         99
  C:EE4CH         LINE#         100
  C:EE4DH         LINE#         102
  C:EE50H         LINE#         103
  C:EE54H         LINE#         104
  C:EE5DH         LINE#         105
  -------         PROC          _KSWRITECOMMAND
  D:0007H         SYMBOL        COMMAND
  -------         ENDPROC       _KSWRITECOMMAND
  C:F0B7H         LINE#         117
  C:F0B7H         LINE#         119
  C:F0BAH         LINE#         120
  C:F0BFH         LINE#         121
BL51 BANKED LINKER/LOCATER V3.70c             20/07/12  15:15:12  PAGE 45


  C:F0C1H         LINE#         122
  C:F0C3H         LINE#         123
  C:F0E1H         LINE#         124
  -------         PROC          _KSWRITEDATA
  D:0007H         SYMBOL        DATA
  -------         ENDPROC       _KSWRITEDATA
  C:F0E2H         LINE#         126
  C:F0E2H         LINE#         128
  C:F0E5H         LINE#         129
  C:F0EAH         LINE#         130
  C:F0ECH         LINE#         131
  C:F0EEH         LINE#         132
  C:F10CH         LINE#         133
  -------         PROC          KSREADDATA
  D:0007H         SYMBOL        DATA
  D:0006H         SYMBOL        B
  -------         ENDPROC       KSREADDATA
  C:EE5EH         LINE#         135
  C:EE5EH         LINE#         141
  C:EE60H         LINE#         142
  C:EE63H         LINE#         143
  C:EE68H         LINE#         144
  C:EE6AH         LINE#         145
  C:EE6CH         LINE#         146
  C:EE75H         LINE#         147
  C:EE77H         LINE#         148
  C:EE78H         LINE#         149
  C:EE7AH         LINE#         150
  C:EE7CH         LINE#         151
  C:EE80H         LINE#         152
  C:EE89H         LINE#         153
  C:EE8DH         LINE#         154
  C:EE8DH         LINE#         155
  -------         PROC          KSINIT
  -------         ENDPROC       KSINIT
  C:DEFAH         LINE#         157
  C:DEFAH         LINE#         159
  C:DEFEH         LINE#         160
  C:DF00H         LINE#         161
  C:DF04H         LINE#         162
  C:DF0BH         LINE#         163
  C:DF0DH         LINE#         164
  C:DF14H         LINE#         165
  C:DF18H         LINE#         166
  C:DF1AH         LINE#         167
  C:DF1FH         LINE#         168
  C:DF24H         LINE#         169
  C:DF29H         LINE#         170
  C:DF2EH         LINE#         171
  C:DF30H         LINE#         172
  C:DF35H         LINE#         173
  C:DF3AH         LINE#         174
  C:DF3FH         LINE#         175
  C:DF44H         LINE#         176
  C:DF46H         LINE#         177
  -------         PROC          KSON
  -------         ENDPROC       KSON
  C:000EH         LINE#         180
  C:000EH         LINE#         184
  C:0010H         LINE#         185
  C:0015H         LINE#         186
  C:0017H         LINE#         187
  C:001AH         LINE#         188
  -------         ENDMOD        KS0108B

BL51 BANKED LINKER/LOCATER V3.70c             20/07/12  15:15:12  PAGE 46


  -------         MODULE        EL12864
  C:0000H         SYMBOL        _ICE_DUMMY_
  B:00D8H.2       PUBLIC        CCF2
  B:00D8H.3       PUBLIC        CCF3
  D:0080H         PUBLIC        P0
  B:00D8H.4       PUBLIC        CCF4
  D:0090H         PUBLIC        P1
  D:00A0H         PUBLIC        P2
  D:00B0H         PUBLIC        P3
  B:00A0H.1       PUBLIC        BATRES
  B:00D0H.6       PUBLIC        AC
  B:00B0H.4       PUBLIC        T0
  B:00B0H.5       PUBLIC        T1
  B:0090H.6       PUBLIC        BATSCKEE
  B:00A8H.7       PUBLIC        EA
  B:0090H.0       PUBLIC        T2
  B:00B0H.0       PUBLIC        BATRXD
  B:00A8H.6       PUBLIC        EC
  B:00D8H.7       PUBLIC        CF
  B:00B0H.1       PUBLIC        BATTXD
  B:0098H.7       PUBLIC        FE
  B:0080H.0       PUBLIC        BATD0
  B:0080H.1       PUBLIC        BATD1
  B:0080H.2       PUBLIC        BATD2
  B:0080H.3       PUBLIC        BATD3
  B:0080H.0       PUBLIC        P0_0
  B:0090H.3       PUBLIC        BATCSMOD
  B:0080H.4       PUBLIC        BATD4
  B:0090H.3       PUBLIC        CEX0
  B:0090H.0       PUBLIC        P1_0
  B:0080H.1       PUBLIC        P0_1
  B:0080H.5       PUBLIC        BATD5
  B:00A0H.0       PUBLIC        P2_0
  B:0090H.4       PUBLIC        CEX1
  B:0090H.1       PUBLIC        P1_1
  B:0080H.2       PUBLIC        P0_2
  B:0080H.6       PUBLIC        BATD6
  B:00B0H.0       PUBLIC        P3_0
  B:00A0H.1       PUBLIC        P2_1
  B:0090H.5       PUBLIC        CEX2
  B:0090H.2       PUBLIC        P1_2
  B:0080H.3       PUBLIC        P0_3
  B:00B0H.6       PUBLIC        BATK0
  B:0080H.7       PUBLIC        BATD7
  B:00C0H.0       PUBLIC        P4_0
  B:00B0H.1       PUBLIC        P3_1
  B:00A0H.2       PUBLIC        P2_2
  B:0090H.6       PUBLIC        CEX3
  B:0090H.3       PUBLIC        P1_3
  B:0080H.4       PUBLIC        P0_4
  B:00B0H.7       PUBLIC        BATK1
  B:00D8H.6       PUBLIC        CR
  B:00E8H.0       PUBLIC        P5_0
  B:00C0H.1       PUBLIC        P4_1
  B:00B0H.2       PUBLIC        P3_2
  B:00A0H.3       PUBLIC        P2_3
  B:0090H.7       PUBLIC        CEX4
  B:0090H.4       PUBLIC        P1_4
  B:0080H.5       PUBLIC        P0_5
  B:00A0H.0       PUBLIC        BATK2
  B:00C8H.6       PUBLIC        EXF2
  B:00E8H.1       PUBLIC        P5_1
  B:00C0H.2       PUBLIC        P4_2
  B:00B0H.7       PUBLIC        RD
  B:00B0H.3       PUBLIC        P3_3
BL51 BANKED LINKER/LOCATER V3.70c             20/07/12  15:15:12  PAGE 47


  B:00A0H.4       PUBLIC        P2_4
  B:0090H.5       PUBLIC        P1_5
  B:0080H.6       PUBLIC        P0_6
  B:00E8H.2       PUBLIC        P5_2
  B:00C0H.3       PUBLIC        P4_3
  B:00B0H.4       PUBLIC        P3_4
  B:00A0H.5       PUBLIC        P2_5
  B:0090H.6       PUBLIC        P1_6
  B:0080H.7       PUBLIC        P0_7
  B:00A8H.4       PUBLIC        ES
  B:00E8H.3       PUBLIC        P5_3
  B:00C0H.4       PUBLIC        P4_4
  B:00B0H.5       PUBLIC        P3_5
  B:00A0H.6       PUBLIC        P2_6
  B:0090H.7       PUBLIC        P1_7
  C:FC8BH         PUBLIC        DISPLAYON
  B:00D0H.1       PUBLIC        UD
  B:00E8H.4       PUBLIC        P5_4
  B:00C0H.5       PUBLIC        P4_5
  B:00B0H.6       PUBLIC        P3_6
  B:00A0H.7       PUBLIC        P2_7
  B:00A0H.6       PUBLIC        BATCSRTC
  B:00A0H.4       PUBLIC        BATRDRTC
  B:00E8H.5       PUBLIC        P5_5
  B:00C0H.6       PUBLIC        P4_6
  B:00B0H.7       PUBLIC        P3_7
  B:0098H.0       PUBLIC        RI
  B:00E8H.6       PUBLIC        P5_6
  B:00C0H.7       PUBLIC        P4_7
  B:00D0H.7       PUBLIC        CY
  B:00E8H.7       PUBLIC        P5_7
  B:00B0H.2       PUBLIC        INT0
  B:0098H.1       PUBLIC        TI
  B:00B0H.3       PUBLIC        INT1
  B:00B8H.1       PUBLIC        PT0L
  B:00B8H.3       PUBLIC        PT1L
  B:00B8H.5       PUBLIC        PT2L
  B:0090H.1       PUBLIC        T2EX
  B:00B8H.0       PUBLIC        PX0L
  B:00D0H.2       PUBLIC        OV
  B:00B8H.2       PUBLIC        PX1L
  B:00C8H.1       PUBLIC        C_T2
  B:00B0H.6       PUBLIC        WR
  B:00A0H.5       PUBLIC        BATWRRTC
  B:00C8H.5       PUBLIC        RCLK
  B:00C8H.4       PUBLIC        TCLK
  B:00B8H.6       PUBLIC        PPCL
  C:97B0H         PUBLIC        _DISPLAYSYMBOL
  B:00B0H.2       PUBLIC        BATDATAAD
  B:0090H.4       PUBLIC        BATCSEE
  C:6101H         PUBLIC        _DISPLAYCHAR
  B:0088H.1       PUBLIC        IE0
  B:0088H.3       PUBLIC        IE1
  B:0090H.7       PUBLIC        BATSIEE
  B:00C8H.0       PUBLIC        CP_RL2
  C:E285H         PUBLIC        DISPLAYCLEAR
  B:0090H.5       PUBLIC        BATSOEE
  B:00A8H.1       PUBLIC        ET0
  B:00A8H.3       PUBLIC        ET1
  B:0088H.5       PUBLIC        TF0
  B:00A8H.5       PUBLIC        ET2
  B:0088H.7       PUBLIC        TF1
  B:0098H.2       PUBLIC        RB8
  B:00C8H.7       PUBLIC        TF2
  B:00A8H.0       PUBLIC        EX0
BL51 BANKED LINKER/LOCATER V3.70c             20/07/12  15:15:12  PAGE 48


  B:0088H.0       PUBLIC        IT0
  B:00A8H.2       PUBLIC        EX1
  B:0098H.3       PUBLIC        TB8
  B:0088H.2       PUBLIC        IT1
  B:00D0H.0       PUBLIC        P
  B:0098H.7       PUBLIC        SM0
  B:0098H.6       PUBLIC        SM1
  B:0090H.2       PUBLIC        ECI
  B:0098H.5       PUBLIC        SM2
  B:00D0H.3       PUBLIC        RS0
  B:00A0H.7       PUBLIC        BATALERTC
  B:0088H.4       PUBLIC        TR0
  B:00D0H.4       PUBLIC        RS1
  B:0088H.6       PUBLIC        TR1
  B:00C8H.2       PUBLIC        TR2
  B:0090H.1       PUBLIC        BATPDWNAD
  B:00F8H.0       PUBLIC        PI2_0
  B:00F8H.1       PUBLIC        PI2_1
  B:00B0H.3       PUBLIC        BATSVIT
  B:00A0H.3       PUBLIC        BATCS1
  B:00A0H.2       PUBLIC        BATCS2
  B:00C8H.3       PUBLIC        EXEN2
  C:B094H         PUBLIC        _DISPLAYSETAREA
  B:0090H.2       PUBLIC        BATLOWBAT
  B:0098H.4       PUBLIC        REN
  B:00B0H.4       PUBLIC        BATIGTGSM
  C:F8D6H         PUBLIC        _DISPLAYVERTLINE
  B:00B0H.5       PUBLIC        BATZAPGSM
  B:00B0H.0       PUBLIC        RXD
  B:00B8H.4       PUBLIC        PLS
  C:C214H         PUBLIC        _DISPLAYHORLINE
  B:00B0H.1       PUBLIC        TXD
  C:FC87H         PUBLIC        DISPLAYINIT
  C:D335H         PUBLIC        _DISPLAYSETAREAFAST
  B:00D0H.5       PUBLIC        F0
  B:0090H.0       PUBLIC        BATCLKAD
  C:E3A7H         PUBLIC        _DISPLAYFASTVERTLINE
  B:00D8H.0       PUBLIC        CCF0
  B:00D8H.1       PUBLIC        CCF1
  -------         PROC          DISPLAYINIT
  -------         ENDPROC       DISPLAYINIT
  C:FC87H         LINE#         16
  C:FC87H         LINE#         18
  C:FC8AH         LINE#         19
  -------         PROC          DISPLAYCLEAR
  D:0033H         SYMBOL        I
  D:0034H         SYMBOL        PAGE
  -------         ENDPROC       DISPLAYCLEAR
  C:E285H         LINE#         33
  C:E285H         LINE#         38
  C:E287H         LINE#         39
  C:E2A9H         LINE#         40
  C:E2ABH         LINE#         41
  C:E2CDH         LINE#         42
  -------         PROC          DISPLAYON
  -------         ENDPROC       DISPLAYON
  C:FC8BH         LINE#         48
  C:FC8BH         LINE#         50
  C:FC8EH         LINE#         51
  -------         PROC          _DISPLAYSETAREAFAST
  D:0031H         SYMBOL        X1
  D:0032H         SYMBOL        Y1
  D:0033H         SYMBOL        X2
  D:0034H         SYMBOL        Y2
  D:0035H         SYMBOL        VALUE
BL51 BANKED LINKER/LOCATER V3.70c             20/07/12  15:15:12  PAGE 49


  D:0036H         SYMBOL        X
  B:0020H.3       SYMBOL        CHANGE
  -------         ENDPROC       _DISPLAYSETAREAFAST
  C:D335H         LINE#         58
  C:D33BH         LINE#         63
  C:D342H         LINE#         64
  C:D345H         LINE#         65
  C:D345H         LINE#         67
  C:D34BH         LINE#         68
  C:D351H         LINE#         69
  C:D358H         LINE#         70
  C:D35AH         LINE#         71
  C:D364H         LINE#         72
  C:D373H         LINE#         74
  C:D375H         LINE#         75
  C:D375H         LINE#         76
  C:D378H         LINE#         77
  C:D37AH         LINE#         79
  C:D37FH         LINE#         80
  C:D384H         LINE#         81
  C:D38EH         LINE#         82
  C:D38EH         LINE#         83
  C:D393H         LINE#         84
  C:D397H         LINE#         85
  C:D39BH         LINE#         86
  -------         PROC          _DISPLAYSETAREA
  D:0032H         SYMBOL        X1
  D:0033H         SYMBOL        Y1
  D:0034H         SYMBOL        X2
  D:0035H         SYMBOL        Y2
  B:0021H.0       SYMBOL        VALUE
  D:0036H         SYMBOL        BAJT
  D:0037H         SYMBOL        MASKA
  D:0038H         SYMBOL        X
  -------         ENDPROC       _DISPLAYSETAREA
  C:B094H         LINE#         94
  C:B09AH         LINE#         97
  C:B09DH         LINE#         100
  C:B0A4H         LINE#         101
  C:B0A7H         LINE#         102
  C:B0A7H         LINE#         104
  C:B0B1H         LINE#         105
  C:B0C3H         LINE#         106
  C:B0D1H         LINE#         107
  C:B0D1H         LINE#         108
  C:B0D1H         LINE#         109
  C:B0DCH         LINE#         110
  C:B0E6H         LINE#         111
  C:B0F3H         LINE#         112
  C:B0F8H         LINE#         115
  C:B0FBH         LINE#         116
  C:B0FEH         LINE#         117
  C:B100H         LINE#         118
  C:B103H         LINE#         119
  C:B103H         LINE#         120
  C:B103H         LINE#         121
  C:B10DH         LINE#         122
  C:B11CH         LINE#         124
  C:B121H         LINE#         125
  C:B12BH         LINE#         126
  C:B138H         LINE#         127
  C:B138H         LINE#         128
  C:B13DH         LINE#         130
  C:B142H         LINE#         131
  C:B14CH         LINE#         132
BL51 BANKED LINKER/LOCATER V3.70c             20/07/12  15:15:12  PAGE 50


  C:B14FH         LINE#         133
  C:B153H         LINE#         134
  C:B155H         LINE#         135
  C:B15AH         LINE#         136
  C:B15AH         LINE#         137
  C:B15AH         LINE#         138
  C:B15FH         LINE#         139
  C:B163H         LINE#         140
  C:B166H         LINE#         141
  C:B16BH         LINE#         142
  -------         PROC          _DISPLAYHORLINE
  D:0032H         SYMBOL        X
  D:0033H         SYMBOL        Y
  D:0034H         SYMBOL        DELKA
  D:0035H         SYMBOL        INCREMENT
  D:0036H         SYMBOL        X
  D:0037H         SYMBOL        BAJT
  D:0038H         SYMBOL        MASKA
  -------         ENDPROC       _DISPLAYHORLINE
  C:C214H         LINE#         221
  C:C21AH         LINE#         224
  C:C21DH         LINE#         225
  C:C220H         LINE#         228
  C:C22BH         LINE#         229
  C:C238H         LINE#         230
  C:C24AH         LINE#         232
  C:C262H         LINE#         233
  C:C271H         LINE#         235
  C:C276H         LINE#         236
  C:C283H         LINE#         237
  C:C283H         LINE#         238
  C:C28DH         LINE#         239
  C:C292H         LINE#         241
  C:C29CH         LINE#         242
  C:C2A0H         LINE#         243
  C:C2A5H         LINE#         244
  C:C2ADH         LINE#         245
  -------         PROC          _DISPLAYFASTVERTLINE
  D:0029H         SYMBOL        X
  D:002AH         SYMBOL        Y
  D:002BH         SYMBOL        VYSKA
  D:002CH         SYMBOL        VALUE
  D:002DH         SYMBOL        Y
  -------         ENDPROC       _DISPLAYFASTVERTLINE
  C:E3A7H         LINE#         253
  C:E3ADH         LINE#         258
  C:E3B9H         LINE#         260
  C:E3D1H         LINE#         261
  C:E3D9H         LINE#         262
  C:E3E3H         LINE#         263
  C:E3E8H         LINE#         264
  C:E3ECH         LINE#         265
  -------         PROC          _DISPLAYVERTLINE
  D:0004H         SYMBOL        X
  D:0006H         SYMBOL        Y
  D:0002H         SYMBOL        VYSKA
  -------         ENDPROC       _DISPLAYVERTLINE
  C:F8D6H         LINE#         269
  C:F8DAH         LINE#         271
  C:F8E9H         LINE#         272
  -------         PROC          _DISPLAYCHAR
  D:003DH         SYMBOL        X
  D:003EH         SYMBOL        Y
  D:0003H         SYMBOL        ZNAK
  D:003FH         SYMBOL        X
BL51 BANKED LINKER/LOCATER V3.70c             20/07/12  15:15:12  PAGE 51


  D:0040H         SYMBOL        Y
  D:0041H         SYMBOL        STRANKA
  B:0021H.0       SYMBOL        ZMENA
  D:0042H         SYMBOL        BAJT
  D:0043H         SYMBOL        MASKA
  D:0044H         SYMBOL        POCETBAJTU
  D:0045H         SYMBOL        MASKADEFINICE
  D:0046H         SYMBOL        BAJTDEFINICE
  B:0021H.1       SYMBOL        ZAPSAT
  D:0047H         SYMBOL        P
  D:0049H         SYMBOL        SIRKAZNAKU
  -------         ENDPROC       _DISPLAYCHAR
  C:6101H         LINE#         302
  C:6105H         LINE#         306
  C:6107H         LINE#         307
  C:610AH         LINE#         308
  C:610DH         LINE#         309
  C:6110H         LINE#         310
  C:6113H         LINE#         312
  C:6115H         LINE#         316
  C:6129H         LINE#         318
  C:6129H         LINE#         320
  C:6143H         LINE#         321
  C:614CH         LINE#         323
  C:6157H         LINE#         324
  C:6160H         LINE#         326
  C:6166H         LINE#         327
  C:6170H         LINE#         329
  C:6181H         LINE#         330
  C:6192H         LINE#         333
  C:61AFH         LINE#         334
  C:61B1H         LINE#         335
  C:61C9H         LINE#         336
  C:61D8H         LINE#         338
  C:61DAH         LINE#         339
  C:61DAH         LINE#         340
  C:61DDH         LINE#         341
  C:61DFH         LINE#         343
  C:61E4H         LINE#         344
  C:61EDH         LINE#         346
  C:61F7H         LINE#         347
  C:61FFH         LINE#         348
  C:61FFH         LINE#         349
  C:6206H         LINE#         350
  C:6218H         LINE#         351
  C:621AH         LINE#         352
  C:622BH         LINE#         353
  C:622BH         LINE#         354
  C:622DH         LINE#         355
  C:6231H         LINE#         356
  C:623AH         LINE#         357
  C:623AH         LINE#         360
  C:623DH         LINE#         361
  C:6247H         LINE#         362
  C:6262H         LINE#         363
  C:6271H         LINE#         365
  C:6273H         LINE#         366
  C:6273H         LINE#         367
  C:6276H         LINE#         368
  C:6288H         LINE#         369
  C:62A5H         LINE#         372
  C:62AEH         LINE#         373
  C:62B9H         LINE#         375
  C:62BBH         LINE#         376
  C:62BBH         LINE#         377
BL51 BANKED LINKER/LOCATER V3.70c             20/07/12  15:15:12  PAGE 52


  C:62BEH         LINE#         379
  C:62C1H         LINE#         380
  C:62C8H         LINE#         381
  C:62CFH         LINE#         382
  C:62D1H         LINE#         383
  C:62D6H         LINE#         384
  C:62D6H         LINE#         385
  C:62D6H         LINE#         386
  C:62D8H         LINE#         387
  C:62DAH         LINE#         389
  C:62E5H         LINE#         390
  C:62EEH         LINE#         392
  C:62F8H         LINE#         393
  C:6300H         LINE#         396
  C:630AH         LINE#         397
  C:630DH         LINE#         398
  C:630DH         LINE#         400
  C:6313H         LINE#         401
  C:6317H         LINE#         402
  C:6317H         LINE#         403
  C:631DH         LINE#         405
  C:6322H         LINE#         407
  C:6324H         LINE#         408
  C:6327H         LINE#         409
  C:6336H         LINE#         410
  C:6338H         LINE#         412
  C:633EH         LINE#         413
  C:633EH         LINE#         414
  C:6343H         LINE#         416
  C:634EH         LINE#         417
  C:6353H         LINE#         420
  C:635AH         LINE#         421
  C:6361H         LINE#         422
  C:6362H         LINE#         423
  C:6367H         LINE#         424
  C:6367H         LINE#         425
  C:6367H         LINE#         426
  C:6368H         LINE#         428
  C:637AH         LINE#         430
  C:637FH         LINE#         432
  C:6389H         LINE#         434
  C:63A4H         LINE#         435
  C:63B3H         LINE#         437
  C:63B5H         LINE#         438
  C:63B5H         LINE#         439
  C:63D2H         LINE#         442
  C:63DBH         LINE#         443
  C:63E6H         LINE#         445
  C:63E8H         LINE#         446
  C:63E8H         LINE#         447
  C:63EBH         LINE#         448
  C:63EDH         LINE#         450
  C:63F2H         LINE#         451
  C:63F4H         LINE#         453
  C:63FFH         LINE#         454
  C:6408H         LINE#         456
  C:6412H         LINE#         457
  C:641AH         LINE#         459
  C:641DH         LINE#         460
  C:642FH         LINE#         462
  C:6434H         LINE#         464
  C:643EH         LINE#         465
  C:643EH         LINE#         467
  C:644FH         LINE#         468
  C:6457H         LINE#         470
BL51 BANKED LINKER/LOCATER V3.70c             20/07/12  15:15:12  PAGE 53


  C:645CH         LINE#         471
  C:6462H         LINE#         473
  C:6468H         LINE#         475
  C:646DH         LINE#         476
  C:646FH         LINE#         478
  C:6473H         LINE#         479
  C:6473H         LINE#         480
  C:6475H         LINE#         482
  C:6479H         LINE#         483
  C:6479H         LINE#         484
  C:6479H         LINE#         485
  C:647FH         LINE#         487
  C:6484H         LINE#         489
  C:6486H         LINE#         490
  C:6489H         LINE#         491
  C:648BH         LINE#         493
  C:6491H         LINE#         494
  C:6491H         LINE#         495
  C:6496H         LINE#         498
  C:64A1H         LINE#         499
  C:64A6H         LINE#         502
  C:64ABH         LINE#         503
  C:64ABH         LINE#         504
  -------         PROC          _DISPLAYSYMBOL
  D:0033H         SYMBOL        X
  D:0034H         SYMBOL        Y
  D:0035H         SYMBOL        SYMBOL
  D:0038H         SYMBOL        VYSKA
  D:0039H         SYMBOL        X
  D:003AH         SYMBOL        Y
  D:003BH         SYMBOL        STRANKA
  B:0021H.0       SYMBOL        ZMENA
  D:003CH         SYMBOL        BAJT
  D:003DH         SYMBOL        MASKA
  D:003EH         SYMBOL        POCETBAJTU
  D:0040H         SYMBOL        MASKADEFINICE
  B:0021H.1       SYMBOL        ZAPSAT
  -------         ENDPROC       _DISPLAYSYMBOL
  C:97B0H         LINE#         513
  C:97BAH         LINE#         518
  C:97BCH         LINE#         519
  C:97BFH         LINE#         520
  C:97C2H         LINE#         521
  C:97C7H         LINE#         522
  C:97CAH         LINE#         523
  C:97CCH         LINE#         525
  C:97D4H         LINE#         527
  C:97DFH         LINE#         528
  C:97E8H         LINE#         531
  C:97EEH         LINE#         532
  C:97F8H         LINE#         533
  C:980AH         LINE#         535
  C:980FH         LINE#         537
  C:9819H         LINE#         539
  C:983EH         LINE#         540
  C:984DH         LINE#         542
  C:984FH         LINE#         543
  C:984FH         LINE#         544
  C:986AH         LINE#         547
  C:9873H         LINE#         548
  C:987EH         LINE#         550
  C:9880H         LINE#         551
  C:9880H         LINE#         552
  C:9883H         LINE#         553
  C:9885H         LINE#         555
BL51 BANKED LINKER/LOCATER V3.70c             20/07/12  15:15:12  PAGE 54


  C:988DH         LINE#         556
  C:988FH         LINE#         558
  C:989AH         LINE#         559
  C:98A3H         LINE#         561
  C:98A9H         LINE#         562
  C:98B3H         LINE#         564
  C:98B6H         LINE#         565
  C:98C8H         LINE#         567
  C:98CDH         LINE#         569
  C:98D7H         LINE#         570
  C:98D7H         LINE#         572
  C:98F0H         LINE#         573
  C:98F5H         LINE#         574
  C:98FBH         LINE#         576
  C:9900H         LINE#         578
  C:9908H         LINE#         579
  C:990BH         LINE#         580
  C:990DH         LINE#         582
  C:9913H         LINE#         583
  C:9913H         LINE#         584
  C:9918H         LINE#         586
  C:9921H         LINE#         587
  C:9926H         LINE#         590
  C:992BH         LINE#         591
  -------         ENDMOD        EL12864

  -------         MODULE        DISPLAY
  C:0000H         SYMBOL        _ICE_DUMMY_
  B:00D8H.2       PUBLIC        CCF2
  B:00D8H.3       PUBLIC        CCF3
  D:0080H         PUBLIC        P0
  B:00D8H.4       PUBLIC        CCF4
  D:0090H         PUBLIC        P1
  D:00A0H         PUBLIC        P2
  D:00B0H         PUBLIC        P3
  B:00A0H.1       PUBLIC        BATRES
  B:00D0H.6       PUBLIC        AC
  B:00B0H.4       PUBLIC        T0
  B:00B0H.5       PUBLIC        T1
  B:0090H.6       PUBLIC        BATSCKEE
  B:00A8H.7       PUBLIC        EA
  B:0090H.0       PUBLIC        T2
  B:00B0H.0       PUBLIC        BATRXD
  B:00A8H.6       PUBLIC        EC
  B:00D8H.7       PUBLIC        CF
  B:00B0H.1       PUBLIC        BATTXD
  B:0098H.7       PUBLIC        FE
  C:DFE1H         PUBLIC        _DISPLAYEXPANDNUMBER
  B:0080H.0       PUBLIC        BATD0
  B:0080H.1       PUBLIC        BATD1
  C:71F4H         PUBLIC        _DISPLAYDIALOG
  B:0080H.2       PUBLIC        BATD2
  B:0080H.3       PUBLIC        BATD3
  B:0080H.0       PUBLIC        P0_0
  B:0090H.3       PUBLIC        BATCSMOD
  B:0080H.4       PUBLIC        BATD4
  B:0090H.3       PUBLIC        CEX0
  B:0090H.0       PUBLIC        P1_0
  B:0080H.1       PUBLIC        P0_1
  B:0080H.5       PUBLIC        BATD5
  B:00A0H.0       PUBLIC        P2_0
  B:0090H.4       PUBLIC        CEX1
  B:0090H.1       PUBLIC        P1_1
  B:0080H.2       PUBLIC        P0_2
  B:0080H.6       PUBLIC        BATD6
BL51 BANKED LINKER/LOCATER V3.70c             20/07/12  15:15:12  PAGE 55


  B:00B0H.0       PUBLIC        P3_0
  B:00A0H.1       PUBLIC        P2_1
  B:0090H.5       PUBLIC        CEX2
  B:0090H.2       PUBLIC        P1_2
  B:0080H.3       PUBLIC        P0_3
  B:00B0H.6       PUBLIC        BATK0
  B:0080H.7       PUBLIC        BATD7
  B:00C0H.0       PUBLIC        P4_0
  B:00B0H.1       PUBLIC        P3_1
  B:00A0H.2       PUBLIC        P2_2
  B:0090H.6       PUBLIC        CEX3
  B:0090H.3       PUBLIC        P1_3
  B:0080H.4       PUBLIC        P0_4
  B:00B0H.7       PUBLIC        BATK1
  B:00D8H.6       PUBLIC        CR
  B:00E8H.0       PUBLIC        P5_0
  B:00C0H.1       PUBLIC        P4_1
  B:00B0H.2       PUBLIC        P3_2
  B:00A0H.3       PUBLIC        P2_3
  B:0090H.7       PUBLIC        CEX4
  B:0090H.4       PUBLIC        P1_4
  B:0080H.5       PUBLIC        P0_5
  B:00A0H.0       PUBLIC        BATK2
  B:00C8H.6       PUBLIC        EXF2
  B:00E8H.1       PUBLIC        P5_1
  B:00C0H.2       PUBLIC        P4_2
  B:00B0H.7       PUBLIC        RD
  B:00B0H.3       PUBLIC        P3_3
  B:00A0H.4       PUBLIC        P2_4
  B:0090H.5       PUBLIC        P1_5
  B:0080H.6       PUBLIC        P0_6
  B:00E8H.2       PUBLIC        P5_2
  B:00C0H.3       PUBLIC        P4_3
  B:00B0H.4       PUBLIC        P3_4
  B:00A0H.5       PUBLIC        P2_5
  B:0090H.6       PUBLIC        P1_6
  B:0080H.7       PUBLIC        P0_7
  B:00A8H.4       PUBLIC        ES
  B:00E8H.3       PUBLIC        P5_3
  B:00C0H.4       PUBLIC        P4_4
  B:00B0H.5       PUBLIC        P3_5
  B:00A0H.6       PUBLIC        P2_6
  B:0090H.7       PUBLIC        P1_7
  B:00D0H.1       PUBLIC        UD
  B:00E8H.4       PUBLIC        P5_4
  B:00C0H.5       PUBLIC        P4_5
  B:00B0H.6       PUBLIC        P3_6
  B:00A0H.7       PUBLIC        P2_7
  B:00A0H.6       PUBLIC        BATCSRTC
  B:00A0H.4       PUBLIC        BATRDRTC
  B:00E8H.5       PUBLIC        P5_5
  B:00C0H.6       PUBLIC        P4_6
  B:00B0H.7       PUBLIC        P3_7
  C:FBBCH         PUBLIC        _LANGSIMPLEDECODE
  B:0098H.0       PUBLIC        RI
  B:00E8H.6       PUBLIC        P5_6
  B:00C0H.7       PUBLIC        P4_7
  C:F3CAH         PUBLIC        _DISPLAYSTRINGCENTER
  B:00D0H.7       PUBLIC        CY
  B:00E8H.7       PUBLIC        P5_7
  B:00B0H.2       PUBLIC        INT0
  B:0098H.1       PUBLIC        TI
  B:00B0H.3       PUBLIC        INT1
  B:00B8H.1       PUBLIC        PT0L
  B:00B8H.3       PUBLIC        PT1L
BL51 BANKED LINKER/LOCATER V3.70c             20/07/12  15:15:12  PAGE 56


  C:F5AAH         PUBLIC        _DECODESTRING
  B:00B8H.5       PUBLIC        PT2L
  B:0090H.1       PUBLIC        T2EX
  B:00B8H.0       PUBLIC        PX0L
  B:00D0H.2       PUBLIC        OV
  B:00B8H.2       PUBLIC        PX1L
  C:BAFAH         PUBLIC        _DISPLAYNUMBER
  X:06CDH         PUBLIC        LANGUAGE
  B:00C8H.1       PUBLIC        C_T2
  B:00B0H.6       PUBLIC        WR
  B:00A0H.5       PUBLIC        BATWRRTC
  B:00C8H.5       PUBLIC        RCLK
  B:00C8H.4       PUBLIC        TCLK
  B:00B8H.6       PUBLIC        PPCL
  C:9FCCH         SYMBOL        _PROCESSNUMBER
  C:B4BEH         PUBLIC        _DISPLAYCHOOSEITEM
  C:CEE4H         PUBLIC        _DISPLAYSTRING
  C:F4D7H         PUBLIC        _DISPLAYSTRINGRIGHT
  B:00B0H.2       PUBLIC        BATDATAAD
  B:0090H.4       PUBLIC        BATCSEE
  B:0088H.1       PUBLIC        IE0
  B:0088H.3       PUBLIC        IE1
  B:0090H.7       PUBLIC        BATSIEE
  C:54D1H         PUBLIC        _DISPLAYEDIT
  B:00C8H.0       PUBLIC        CP_RL2
  B:0090H.5       PUBLIC        BATSOEE
  B:00A8H.1       PUBLIC        ET0
  B:00A8H.3       PUBLIC        ET1
  B:0088H.5       PUBLIC        TF0
  B:00A8H.5       PUBLIC        ET2
  B:0088H.7       PUBLIC        TF1
  B:0098H.2       PUBLIC        RB8
  B:00C8H.7       PUBLIC        TF2
  B:00A8H.0       PUBLIC        EX0
  B:0088H.0       PUBLIC        IT0
  B:00A8H.2       PUBLIC        EX1
  B:0098H.3       PUBLIC        TB8
  B:0088H.2       PUBLIC        IT1
  B:00D0H.0       PUBLIC        P
  B:0098H.7       PUBLIC        SM0
  B:0098H.6       PUBLIC        SM1
  B:0090H.2       PUBLIC        ECI
  C:6BC3H         PUBLIC        _DISPLAYMENU
  B:0098H.5       PUBLIC        SM2
  C:AED9H         PUBLIC        _DISPLAYBARGRAF
  B:00D0H.3       PUBLIC        RS0
  B:00A0H.7       PUBLIC        BATALERTC
  B:0088H.4       PUBLIC        TR0
  B:00D0H.4       PUBLIC        RS1
  B:0088H.6       PUBLIC        TR1
  B:00C8H.2       PUBLIC        TR2
  B:0090H.1       PUBLIC        BATPDWNAD
  B:00F8H.0       PUBLIC        PI2_0
  B:00F8H.1       PUBLIC        PI2_1
  B:00B0H.3       PUBLIC        BATSVIT
  B:00A0H.3       PUBLIC        BATCS1
  B:00A0H.2       PUBLIC        BATCS2
  B:00C8H.3       PUBLIC        EXEN2
  B:0090H.2       PUBLIC        BATLOWBAT
  B:0098H.4       PUBLIC        REN
  B:00B0H.4       PUBLIC        BATIGTGSM
  D:00A6H         PUBLIC        WDTRST
  C:6847H         PUBLIC        _DISPLAYEDITTEXT
  B:00B0H.5       PUBLIC        BATZAPGSM
  B:00B0H.0       PUBLIC        RXD
BL51 BANKED LINKER/LOCATER V3.70c             20/07/12  15:15:12  PAGE 57


  B:00B8H.4       PUBLIC        PLS
  B:00B0H.1       PUBLIC        TXD
  B:00D0H.5       PUBLIC        F0
  B:0090H.0       PUBLIC        BATCLKAD
  B:00D8H.0       PUBLIC        CCF0
  B:00D8H.1       PUBLIC        CCF1
  -------         PROC          _PROCESSNUMBER
  D:003DH         SYMBOL        CHARS
  D:0040H         SYMBOL        LENGTH
  D:0043H         SYMBOL        DECIMALS
  B:0020H.3       SYMBOL        ZAPORNE
  D:0044H         SYMBOL        I
  -------         ENDPROC       _PROCESSNUMBER
  C:9FCCH         LINE#         87
  C:9FD2H         LINE#         89
  C:9FD4H         LINE#         93
  C:9FD9H         LINE#         94
  C:9FDBH         LINE#         95
  C:9FF7H         LINE#         96
  C:9FF7H         LINE#         97
  C:A000H         LINE#         98
  C:A003H         LINE#         99
  C:A016H         LINE#         100
  C:A01DH         LINE#         102
  C:A028H         LINE#         104
  C:A02DH         LINE#         105
  C:A061H         LINE#         106
  C:A06CH         LINE#         107
  C:A06EH         LINE#         110
  C:A074H         LINE#         111
  C:A086H         LINE#         112
  C:A091H         LINE#         113
  C:A091H         LINE#         114
  C:A092H         LINE#         117
  C:A095H         LINE#         118
  C:A0BDH         LINE#         119
  C:A0C8H         LINE#         120
  C:A0C8H         LINE#         122
  C:A0C8H         LINE#         123
  C:A0C8H         LINE#         124
  C:A0CBH         LINE#         125
  C:A0CEH         LINE#         127
  C:A0D1H         LINE#         129
  C:A0E8H         LINE#         130
  C:A0F5H         LINE#         131
  C:A0F6H         LINE#         132
  C:A0F6H         LINE#         133
  C:A0FDH         LINE#         134
  C:A0FDH         LINE#         135
  C:A0FDH         LINE#         136
  -------         PROC          _DISPLAYSTRING
  D:0037H         SYMBOL        X
  D:0038H         SYMBOL        Y
  D:0039H         SYMBOL        S
  D:003CH         SYMBOL        I
  -------         ENDPROC       _DISPLAYSTRING
  C:CEE4H         LINE#         190
  C:CEEEH         LINE#         193
  C:CEF1H         LINE#         195
  C:CEF1H         LINE#         196
  C:CF08H         LINE#         197
  C:CF3FH         LINE#         198
  C:CF41H         LINE#         199
  C:CF50H         LINE#         201
  C:CF50H         LINE#         202
BL51 BANKED LINKER/LOCATER V3.70c             20/07/12  15:15:12  PAGE 58


  C:CF57H         LINE#         204
  C:CF57H         LINE#         205
  C:CF57H         LINE#         206
  -------         PROC          _DISPLAYSTRINGRIGHT
  D:0030H         SYMBOL        X
  D:0031H         SYMBOL        Y
  D:0032H         SYMBOL        S
  -------         ENDPROC       _DISPLAYSTRINGRIGHT
  C:F4D7H         LINE#         214
  C:F4E1H         LINE#         218
  C:F4F5H         LINE#         219
  -------         PROC          _DISPLAYSTRINGCENTER
  D:0032H         SYMBOL        X
  D:0033H         SYMBOL        Y
  D:0034H         SYMBOL        S
  -------         ENDPROC       _DISPLAYSTRINGCENTER
  C:F3CAH         LINE#         227
  C:F3D4H         LINE#         230
  C:F3EBH         LINE#         231
  -------         PROC          _DISPLAYEXPANDNUMBER
  D:0045H         SYMBOL        CHARS
  D:0048H         SYMBOL        J
  -------         ENDPROC       _DISPLAYEXPANDNUMBER
  C:DFE1H         LINE#         239
  C:DFE7H         LINE#         244
  C:DFFAH         LINE#         247
  C:DFFDH         LINE#         248
  C:E010H         LINE#         249
  C:E025H         LINE#         250
  C:E02CH         LINE#         251
  -------         PROC          _DISPLAYNUMBER
  D:0030H         SYMBOL        X
  D:0031H         SYMBOL        Y
  D:0032H         SYMBOL        LENGTH
  D:0033H         SYMBOL        DECIMALS
  D:0034H         SYMBOL        CHARS
  D:003CH         SYMBOL        I
  -------         ENDPROC       _DISPLAYNUMBER
  C:BAFAH         LINE#         259
  C:BB00H         LINE#         268
  C:BB15H         LINE#         271
  C:BB17H         LINE#         272
  C:BB24H         LINE#         273
  C:BB4DH         LINE#         274
  C:BB53H         LINE#         275
  C:BB6AH         LINE#         277
  C:BB96H         LINE#         278
  C:BB9CH         LINE#         279
  C:BB9CH         LINE#         280
  C:BBA7H         LINE#         281
  C:BBACH         LINE#         282
  -------         PROC          _DISPLAYEDIT
  D:002CH         SYMBOL        X
  D:002DH         SYMBOL        Y
  D:002EH         SYMBOL        LENGTH
  D:002FH         SYMBOL        DECIMALS
  I:0087H         SYMBOL        CHARS
  I:008FH         SYMBOL        INDEX
  D:0030H         SYMBOL        LASTINDEX
  I:0090H         SYMBOL        CURRENTX
  I:0091H         SYMBOL        I
  I:0092H         SYMBOL        BACKUPUN
  B:0020H.3       SYMBOL        SHOW
  B:0020H.4       SYMBOL        EDITTIME
  B:0020H.5       SYMBOL        EDITDATE
BL51 BANKED LINKER/LOCATER V3.70c             20/07/12  15:15:12  PAGE 59


  D:0007H         SYMBOL        KEY
  B:0020H.6       SYMBOL        USESIGN
  B:0020H.7       SYMBOL        POSITIVESIGN
  -------         ENDPROC       _DISPLAYEDIT
  C:54D1H         LINE#         366
  C:54D7H         LINE#         373
  C:54DAH         LINE#         376
  C:54E7H         LINE#         377
  C:54E9H         LINE#         378
  C:54EDH         LINE#         384
  C:54F2H         LINE#         386
  C:54F4H         LINE#         387
  C:54F7H         LINE#         389
  C:550DH         LINE#         390
  C:550FH         LINE#         391
  C:5522H         LINE#         392
  C:5524H         LINE#         393
  C:5526H         LINE#         394
  C:5526H         LINE#         395
  C:5528H         LINE#         397
  C:552AH         LINE#         398
  C:552AH         LINE#         401
  C:552FH         LINE#         402
  C:5531H         LINE#         403
  C:5534H         LINE#         404
  C:553BH         LINE#         405
  C:553DH         LINE#         406
  C:5540H         LINE#         407
  C:5542H         LINE#         409
  C:5549H         LINE#         410
  C:554CH         LINE#         411
  C:554CH         LINE#         412
  C:5553H         LINE#         413
  C:5556H         LINE#         414
  C:5556H         LINE#         415
  C:5556H         LINE#         417
  C:555FH         LINE#         421
  C:556CH         LINE#         422
  C:5572H         LINE#         423
  C:5577H         LINE#         426
  C:557DH         LINE#         428
  C:55B5H         LINE#         430
  C:55B8H         LINE#         431
  C:55D4H         LINE#         432
  C:55D6H         LINE#         433
  C:55EFH         LINE#         434
  C:55EFH         LINE#         435
  C:55F2H         LINE#         436
  C:55F6H         LINE#         437
  C:55F8H         LINE#         438
  C:55FEH         LINE#         439
  C:55FEH         LINE#         441
  C:55FEH         LINE#         442
  C:5604H         LINE#         443
  C:5607H         LINE#         444
  C:5636H         LINE#         473
  C:5636H         LINE#         474
  C:5636H         LINE#         475
  C:563FH         LINE#         476
  C:5641H         LINE#         477
  C:5643H         LINE#         478
  C:564FH         LINE#         479
  C:5650H         LINE#         480
  C:5652H         LINE#         481
  C:5654H         LINE#         482
BL51 BANKED LINKER/LOCATER V3.70c             20/07/12  15:15:12  PAGE 60


  C:5654H         LINE#         483
  C:5654H         LINE#         484
  C:5656H         LINE#         486
  C:5659H         LINE#         487
  C:565BH         LINE#         488
  C:565DH         LINE#         489
  C:5660H         LINE#         490
  C:5663H         LINE#         492
  C:5663H         LINE#         493
  C:5663H         LINE#         494
  C:566CH         LINE#         495
  C:566EH         LINE#         496
  C:5670H         LINE#         497
  C:567CH         LINE#         498
  C:567DH         LINE#         499
  C:567FH         LINE#         500
  C:5681H         LINE#         501
  C:5681H         LINE#         502
  C:5681H         LINE#         503
  C:5683H         LINE#         505
  C:5686H         LINE#         506
  C:5688H         LINE#         507
  C:568AH         LINE#         508
  C:568DH         LINE#         509
  C:5690H         LINE#         511
  C:5690H         LINE#         512
  C:5690H         LINE#         513
  C:5697H         LINE#         514
  C:569BH         LINE#         515
  C:56A3H         LINE#         516
  C:56A6H         LINE#         517
  C:56A8H         LINE#         519
  C:56ABH         LINE#         520
  C:56AFH         LINE#         521
  C:56B1H         LINE#         522
  C:56B7H         LINE#         523
  C:56B7H         LINE#         524
  C:56B7H         LINE#         525
  C:56B9H         LINE#         527
  C:56BCH         LINE#         528
  C:56BEH         LINE#         529
  C:56C0H         LINE#         530
  C:56C3H         LINE#         531
  C:56C6H         LINE#         533
  C:56C6H         LINE#         534
  C:56C6H         LINE#         535
  C:56CDH         LINE#         536
  C:56CFH         LINE#         537
  C:56DAH         LINE#         538
  C:56DDH         LINE#         539
  C:56DFH         LINE#         541
  C:56E2H         LINE#         542
  C:56E6H         LINE#         543
  C:56E8H         LINE#         544
  C:56ECH         LINE#         545
  C:56ECH         LINE#         546
  C:56ECH         LINE#         547
  C:56EEH         LINE#         549
  C:56F1H         LINE#         550
  C:56F3H         LINE#         551
  C:56F5H         LINE#         552
  C:56F8H         LINE#         553
  C:56FBH         LINE#         557
  C:56FBH         LINE#         558
  C:56FBH         LINE#         559
BL51 BANKED LINKER/LOCATER V3.70c             20/07/12  15:15:12  PAGE 61


  C:5708H         LINE#         560
  C:570BH         LINE#         561
  C:5710H         LINE#         562
  C:5712H         LINE#         564
  C:5712H         LINE#         565
  C:5715H         LINE#         567
  C:5721H         LINE#         568
  C:5724H         LINE#         569
  C:5724H         LINE#         570
  C:5726H         LINE#         571
  C:575EH         LINE#         572
  C:5765H         LINE#         574
  C:576BH         LINE#         575
  C:577EH         LINE#         576
  C:577EH         LINE#         577
  C:5783H         LINE#         578
  C:5785H         LINE#         580
  C:5785H         LINE#         581
  C:5785H         LINE#         583
  C:5787H         LINE#         584
  C:5787H         LINE#         586
  C:5787H         LINE#         587
  C:578DH         LINE#         588
  C:578FH         LINE#         589
  C:5792H         LINE#         591
  C:57A6H         LINE#         593
  C:57C0H         LINE#         594
  C:57C9H         LINE#         596
  C:57CCH         LINE#         597
  C:57D8H         LINE#         598
  C:57DAH         LINE#         599
  C:57E6H         LINE#         600
  C:57E6H         LINE#         601
  C:57E6H         LINE#         602
  C:57E6H         LINE#         605
  C:581EH         LINE#         606
  C:5827H         LINE#         607
  C:5836H         LINE#         609
  C:5847H         LINE#         611
  C:585EH         LINE#         612
  C:5869H         LINE#         614
  C:5874H         LINE#         616
  C:5884H         LINE#         617
  C:5886H         LINE#         618
  C:589AH         LINE#         619
  C:589AH         LINE#         620
  C:589AH         LINE#         621
  C:589AH         LINE#         623
  C:58B2H         LINE#         625
  C:58B7H         LINE#         626
  C:58BCH         LINE#         627
  C:58C5H         LINE#         628
  C:58C5H         LINE#         629
  C:58C9H         LINE#         630
  C:58DDH         LINE#         632
  C:58E1H         LINE#         633
  C:58E6H         LINE#         634
  C:58EFH         LINE#         635
  C:58EFH         LINE#         636
  C:58F3H         LINE#         637
  C:590FH         LINE#         639
  C:5913H         LINE#         640
  C:5918H         LINE#         641
  C:5924H         LINE#         642
  C:5924H         LINE#         643
BL51 BANKED LINKER/LOCATER V3.70c             20/07/12  15:15:12  PAGE 62


  C:5928H         LINE#         644
  C:592AH         LINE#         645
  C:592EH         LINE#         646
  C:592EH         LINE#         647
  C:5934H         LINE#         648
  C:5939H         LINE#         649
  C:593EH         LINE#         650
  C:593EH         LINE#         651
  C:5941H         LINE#         652
  -------         PROC          _DISPLAYEDITTEXT
  D:0024H         SYMBOL        X
  D:0025H         SYMBOL        Y
  D:0026H         SYMBOL        TEXT
  D:0028H         SYMBOL        LENGTH
  B:0020H.2       SYMBOL        EDITTEXT
  I:0080H         SYMBOL        INDEX
  D:0029H         SYMBOL        LASTINDEX
  I:0081H         SYMBOL        CURRENTX
  I:0082H         SYMBOL        I
  B:0020H.3       SYMBOL        SHOW
  D:0007H         SYMBOL        KEY
  D:002AH         SYMBOL        CHARWIDTH
  -------         ENDPROC       _DISPLAYEDITTEXT
  C:6847H         LINE#         666
  C:684FH         LINE#         674
  C:6852H         LINE#         677
  C:6854H         LINE#         682
  C:685AH         LINE#         685
  C:6867H         LINE#         686
  C:6867H         LINE#         687
  C:686AH         LINE#         688
  C:686CH         LINE#         690
  C:686CH         LINE#         691
  C:686FH         LINE#         692
  C:6871H         LINE#         694
  C:6871H         LINE#         695
  C:6874H         LINE#         696
  C:6876H         LINE#         698
  C:6876H         LINE#         699
  C:6879H         LINE#         700
  C:6879H         LINE#         703
  C:6891H         LINE#         705
  C:6897H         LINE#         706
  C:68B6H         LINE#         707
  C:68B7H         LINE#         708
  C:68B9H         LINE#         709
  C:68B9H         LINE#         711
  C:68BFH         LINE#         712
  C:68BFH         LINE#         715
  C:68CCH         LINE#         716
  C:68DAH         LINE#         717
  C:68DDH         LINE#         718
  C:68DDH         LINE#         719
  C:68E2H         LINE#         723
  C:68F4H         LINE#         725
  C:6909H         LINE#         727
  C:6909H         LINE#         728
  C:690FH         LINE#         729
  C:6912H         LINE#         730
  C:6941H         LINE#         773
  C:6941H         LINE#         774
  C:6941H         LINE#         775
  C:6944H         LINE#         776
  C:6955H         LINE#         778
  C:6958H         LINE#         779
BL51 BANKED LINKER/LOCATER V3.70c             20/07/12  15:15:12  PAGE 63


  C:6960H         LINE#         781
  C:6963H         LINE#         782
  C:6969H         LINE#         784
  C:696CH         LINE#         785
  C:696FH         LINE#         786
  C:6971H         LINE#         787
  C:6974H         LINE#         788
  C:6974H         LINE#         789
  C:697CH         LINE#         791
  C:697FH         LINE#         792
  C:6981H         LINE#         794
  C:6984H         LINE#         795
  C:6984H         LINE#         796
  C:6986H         LINE#         798
  C:6989H         LINE#         799
  C:698BH         LINE#         800
  C:698DH         LINE#         801
  C:6990H         LINE#         803
  C:6990H         LINE#         804
  C:6990H         LINE#         805
  C:6993H         LINE#         806
  C:69A4H         LINE#         808
  C:69A7H         LINE#         809
  C:69AAH         LINE#         810
  C:69ACH         LINE#         811
  C:69AFH         LINE#         812
  C:69AFH         LINE#         813
  C:69B7H         LINE#         815
  C:69BAH         LINE#         816
  C:69C0H         LINE#         818
  C:69C3H         LINE#         819
  C:69CBH         LINE#         821
  C:69CEH         LINE#         822
  C:69D4H         LINE#         824
  C:69D7H         LINE#         825
  C:69D7H         LINE#         826
  C:69D9H         LINE#         828
  C:69DCH         LINE#         829
  C:69DEH         LINE#         830
  C:69E0H         LINE#         831
  C:69E2H         LINE#         833
  C:69E2H         LINE#         834
  C:69E2H         LINE#         835
  C:69E5H         LINE#         836
  C:69F0H         LINE#         837
  C:69F1H         LINE#         838
  C:69F3H         LINE#         839
  C:69F7H         LINE#         840
  C:69F7H         LINE#         841
  C:69F9H         LINE#         843
  C:69FCH         LINE#         844
  C:69FEH         LINE#         845
  C:6A00H         LINE#         846
  C:6A02H         LINE#         848
  C:6A02H         LINE#         849
  C:6A02H         LINE#         850
  C:6A05H         LINE#         851
  C:6A0DH         LINE#         852
  C:6A0EH         LINE#         853
  C:6A10H         LINE#         854
  C:6A16H         LINE#         855
  C:6A16H         LINE#         856
  C:6A18H         LINE#         858
  C:6A1BH         LINE#         859
  C:6A1DH         LINE#         860
BL51 BANKED LINKER/LOCATER V3.70c             20/07/12  15:15:12  PAGE 64


  C:6A1FH         LINE#         861
  C:6A21H         LINE#         864
  C:6A21H         LINE#         865
  C:6A21H         LINE#         866
  C:6A24H         LINE#         867
  C:6A29H         LINE#         868
  C:6A2BH         LINE#         870
  C:6A2BH         LINE#         871
  C:6A2EH         LINE#         873
  C:6A3BH         LINE#         874
  C:6A49H         LINE#         875
  C:6A4CH         LINE#         876
  C:6A4CH         LINE#         877
  C:6A51H         LINE#         878
  C:6A56H         LINE#         879
  C:6A58H         LINE#         881
  C:6A58H         LINE#         882
  C:6A58H         LINE#         884
  C:6A5AH         LINE#         885
  C:6A5AH         LINE#         887
  C:6A5AH         LINE#         888
  C:6A60H         LINE#         889
  C:6A62H         LINE#         890
  C:6A65H         LINE#         891
  C:6A6CH         LINE#         892
  C:6A7BH         LINE#         894
  C:6A8FH         LINE#         895
  C:6AA7H         LINE#         896
  C:6AB5H         LINE#         899
  C:6AC3H         LINE#         900
  C:6AC3H         LINE#         901
  C:6AD5H         LINE#         902
  C:6AD5H         LINE#         903
  C:6AE0H         LINE#         904
  C:6AE3H         LINE#         906
  C:6AE3H         LINE#         907
  C:6AF9H         LINE#         908
  C:6AF9H         LINE#         909
  C:6AFCH         LINE#         911
  C:6AFCH         LINE#         912
  C:6B22H         LINE#         913
  C:6B22H         LINE#         914
  C:6B2BH         LINE#         915
  C:6B2EH         LINE#         917
  C:6B2EH         LINE#         918
  C:6B2EH         LINE#         919
  C:6B45H         LINE#         920
  C:6B47H         LINE#         922
  C:6B47H         LINE#         923
  C:6B47H         LINE#         924
  C:6B5FH         LINE#         925
  C:6B61H         LINE#         927
  C:6B61H         LINE#         928
  C:6B7BH         LINE#         929
  C:6B7DH         LINE#         931
  C:6B7DH         LINE#         932
  C:6B95H         LINE#         933
  C:6B95H         LINE#         934
  C:6B97H         LINE#         936
  C:6B97H         LINE#         937
  C:6BADH         LINE#         938
  C:6BADH         LINE#         939
  C:6BADH         LINE#         940
  C:6BADH         LINE#         942
  C:6BB5H         LINE#         943
BL51 BANKED LINKER/LOCATER V3.70c             20/07/12  15:15:12  PAGE 65


  C:6BBAH         LINE#         944
  C:6BBFH         LINE#         945
  C:6BBFH         LINE#         946
  C:6BC2H         LINE#         947
  -------         PROC          _DISPLAYBARGRAF
  D:0027H         SYMBOL        X
  D:0028H         SYMBOL        Y
  D:0029H         SYMBOL        DELKA
  D:002AH         SYMBOL        VYSKA
  D:002BH         SYMBOL        HODNOTA
  D:002DH         SYMBOL        MIN
  D:002FH         SYMBOL        MAX
  D:0031H         SYMBOL        SOURADNICEX
  -------         ENDPROC       _DISPLAYBARGRAF
  C:AED9H         LINE#         955
  C:AEDFH         LINE#         961
  C:AEF6H         LINE#         962
  C:AF0DH         LINE#         964
  C:AF19H         LINE#         965
  C:AF29H         LINE#         966
  C:AF34H         LINE#         967
  C:AF42H         LINE#         969
  C:AF70H         LINE#         970
  C:AF88H         LINE#         971
  C:AFB6H         LINE#         972
  -------         PROC          _DECODESTRING
  D:0006H         SYMBOL        S
  D:0005H         SYMBOL        INDEX
  -------         ENDPROC       _DECODESTRING
  C:F5AAH         LINE#         981
  C:F5AAH         LINE#         983
  C:F5B0H         LINE#         984
  C:F5B5H         LINE#         985
  C:F5BDH         LINE#         986
  C:F5BEH         LINE#         987
  C:F5C3H         LINE#         988
  C:F5C3H         LINE#         989
  C:F5C5H         LINE#         990
  C:F5C5H         LINE#         991
  -------         PROC          _LANGSIMPLEDECODE
  D:0006H         SYMBOL        S
  -------         ENDPROC       _LANGSIMPLEDECODE
  C:FBBCH         LINE#         996
  C:FBBCH         LINE#         997
  C:FBC4H         LINE#         998
  -------         PROC          _DISPLAYDIALOG
  D:002CH         SYMBOL        TEXT
  D:002FH         SYMBOL        KEYS
  D:0030H         SYMBOL        LINESCOUNT
  B:0020H.3       SYMBOL        WAITFORKEY
  D:0031H         SYMBOL        J
  -------         ENDPROC       _DISPLAYDIALOG
  C:71F4H         LINE#         1014
  C:71FCH         LINE#         1021
  C:71FFH         LINE#         1022
  C:7201H         LINE#         1025
  C:7206H         LINE#         1026
  C:7208H         LINE#         1027
  C:720BH         LINE#         1028
  C:720BH         LINE#         1030
  C:7220H         LINE#         1031
  C:7223H         LINE#         1032
  C:7225H         LINE#         1033
  C:7225H         LINE#         1034
  C:7229H         LINE#         1036
BL51 BANKED LINKER/LOCATER V3.70c             20/07/12  15:15:12  PAGE 66


  C:722EH         LINE#         1038
  C:7231H         LINE#         1039
  C:723BH         LINE#         1041
  C:7242H         LINE#         1042
  C:724DH         LINE#         1043
  C:724FH         LINE#         1044
  C:7252H         LINE#         1045
  C:7252H         LINE#         1046
  C:7270H         LINE#         1048
  C:727DH         LINE#         1051
  C:728CH         LINE#         1052
  C:7297H         LINE#         1053
  C:7299H         LINE#         1056
  C:72A4H         LINE#         1057
  C:72A8H         LINE#         1060
  C:72B2H         LINE#         1061
  C:72BCH         LINE#         1063
  C:72CCH         LINE#         1064
  C:72E5H         LINE#         1065
  C:72FEH         LINE#         1066
  C:7317H         LINE#         1067
  C:732EH         LINE#         1068
  C:732EH         LINE#         1070
  C:733DH         LINE#         1071
  C:735CH         LINE#         1072
  C:7371H         LINE#         1074
  C:7374H         LINE#         1075
  C:7377H         LINE#         1076
  C:7377H         LINE#         1077
  C:737AH         LINE#         1078
  C:737AH         LINE#         1083
  C:7390H         LINE#         1084
  C:739DH         LINE#         1085
  C:739DH         LINE#         1086
  C:739DH         LINE#         1087
  C:73C4H         LINE#         1088
  C:73C6H         LINE#         1090
  C:73C6H         LINE#         1091
  C:73EDH         LINE#         1092
  C:73EDH         LINE#         1093
  C:73EDH         LINE#         1095
  C:73FAH         LINE#         1096
  C:7413H         LINE#         1097
  C:742CH         LINE#         1098
  C:7443H         LINE#         1099
  C:7443H         LINE#         1101
  C:7452H         LINE#         1102
  C:7471H         LINE#         1103
  C:7486H         LINE#         1138
  C:7489H         LINE#         1139
  C:748DH         LINE#         1140
  C:748DH         LINE#         1141
  C:7490H         LINE#         1142
  C:7490H         LINE#         1143
  C:7490H         LINE#         1144
  C:7490H         LINE#         1146
  C:7492H         LINE#         1147
  -------         PROC          _DISPLAYMENU
  D:0022H         SYMBOL        MENUITEMS
  X:06C4H         SYMBOL        CISLAPOLOZEK
  D:0025H         SYMBOL        ITEMSCOUNT
  B:0020H.0       SYMBOL        ZOBRAZIT
  B:0020H.1       SYMBOL        PREKRESLITCELE
  D:0004H         SYMBOL        MASKA
  D:0026H         SYMBOL        I
BL51 BANKED LINKER/LOCATER V3.70c             20/07/12  15:15:12  PAGE 67


  D:0027H         SYMBOL        J
  -------         ENDPROC       _DISPLAYMENU
  C:6BC3H         LINE#         1159
  C:6BC9H         LINE#         1162
  C:6BCCH         LINE#         1163
  C:6BCEH         LINE#         1164
  C:6BD0H         LINE#         1169
  C:6BDBH         LINE#         1170
  C:6BDEH         LINE#         1171
  C:6BDEH         LINE#         1173
  C:6BE2H         LINE#         1174
  C:6BF8H         LINE#         1175
  C:6C0CH         LINE#         1177
  C:6C1AH         LINE#         1178
  C:6C1CH         LINE#         1179
  C:6C1CH         LINE#         1180
  C:6C23H         LINE#         1181
  C:6C27H         LINE#         1183
  C:6C2BH         LINE#         1184
  C:6C2EH         LINE#         1185
  C:6C2EH         LINE#         1187
  C:6C31H         LINE#         1188
  C:6C41H         LINE#         1189
  C:6C53H         LINE#         1190
  C:6C53H         LINE#         1192
  C:6C53H         LINE#         1193
  C:6C7FH         LINE#         1194
  C:6C7FH         LINE#         1195
  C:6C7FH         LINE#         1196
  C:6C7FH         LINE#         1197
  C:6C7FH         LINE#         1198
  C:6C82H         LINE#         1199
  C:6C9BH         LINE#         1201
  C:6CA5H         LINE#         1202
  C:6CA8H         LINE#         1203
  C:6CAAH         LINE#         1204
  C:6CADH         LINE#         1205
  C:6CADH         LINE#         1206
  C:6CC8H         LINE#         1207
  C:6CD6H         LINE#         1208
  C:6D25H         LINE#         1209
  C:6D25H         LINE#         1210
  C:6D33H         LINE#         1211
  C:6D35H         LINE#         1212
  C:6D35H         LINE#         1213
  C:6D37H         LINE#         1215
  C:6D3AH         LINE#         1216
  C:6D3CH         LINE#         1217
  C:6D3EH         LINE#         1218
  C:6D3EH         LINE#         1219
  C:6D41H         LINE#         1220
  C:6D41H         LINE#         1221
  C:6D41H         LINE#         1222
  C:6D41H         LINE#         1223
  C:6D44H         LINE#         1224
  C:6D58H         LINE#         1226
  C:6D62H         LINE#         1227
  C:6D65H         LINE#         1228
  C:6D67H         LINE#         1229
  C:6D6AH         LINE#         1230
  C:6D6AH         LINE#         1231
  C:6D85H         LINE#         1232
  C:6D93H         LINE#         1233
  C:6DA5H         LINE#         1234
  C:6DB2H         LINE#         1235
BL51 BANKED LINKER/LOCATER V3.70c             20/07/12  15:15:12  PAGE 68


  C:6DB4H         LINE#         1236
  C:6DB4H         LINE#         1237
  C:6DB6H         LINE#         1239
  C:6DB9H         LINE#         1240
  C:6DBBH         LINE#         1241
  C:6DBDH         LINE#         1242
  C:6DBDH         LINE#         1243
  C:6DBFH         LINE#         1244
  C:6DBFH         LINE#         1245
  C:6DBFH         LINE#         1246
  C:6DC2H         LINE#         1247
  C:6DC2H         LINE#         1248
  C:6DC5H         LINE#         1249
  C:6DC8H         LINE#         1250
  C:6DC8H         LINE#         1251
  C:6DC8H         LINE#         1252
  C:6DCBH         LINE#         1254
  C:6DE3H         LINE#         1255
  C:6DE3H         LINE#         1256
  C:6DE3H         LINE#         1257
  C:6DE3H         LINE#         1259
  C:6DE5H         LINE#         1260
  C:6DE5H         LINE#         1261
  C:6DE5H         LINE#         1262
  C:6DE5H         LINE#         1263
  C:6DEBH         LINE#         1264
  C:6DEDH         LINE#         1265
  C:6DF0H         LINE#         1266
  C:6DF6H         LINE#         1268
  C:6DF8H         LINE#         1270
  C:6E08H         LINE#         1271
  C:6E16H         LINE#         1272
  C:6E18H         LINE#         1273
  C:6E1BH         LINE#         1274
  C:6E1BH         LINE#         1275
  C:6E21H         LINE#         1276
  C:6E24H         LINE#         1277
  C:6E34H         LINE#         1278
  C:6E3AH         LINE#         1279
  C:6E3AH         LINE#         1281
  C:6E6EH         LINE#         1282
  C:6E8AH         LINE#         1283
  C:6E8AH         LINE#         1284
  C:6E8AH         LINE#         1285
  C:6EB4H         LINE#         1286
  C:6EBAH         LINE#         1287
  C:6EBEH         LINE#         1288
  C:6EC3H         LINE#         1289
  C:6EC3H         LINE#         1291
  C:6ED3H         LINE#         1292
  C:6ED6H         LINE#         1293
  C:6ED8H         LINE#         1294
  C:6EDBH         LINE#         1295
  C:6EDBH         LINE#         1296
  C:6EDEH         LINE#         1297
  C:6F08H         LINE#         1298
  C:6F0BH         LINE#         1299
  C:6F26H         LINE#         1300
  C:6F26H         LINE#         1301
  C:6F26H         LINE#         1302
  C:6F29H         LINE#         1303
  -------         PROC          _DISPLAYCHOOSEITEM
  D:002BH         SYMBOL        X
  D:002CH         SYMBOL        Y
  D:002DH         SYMBOL        POLOZKA
BL51 BANKED LINKER/LOCATER V3.70c             20/07/12  15:15:12  PAGE 69


  D:002FH         SYMBOL        POCET
  D:0030H         SYMBOL        VYBRANE
  B:0020H.0       SYMBOL        ZOBRAZIT
  -------         ENDPROC       _DISPLAYCHOOSEITEM
  C:B4BEH         LINE#         1309
  C:B4C6H         LINE#         1313
  C:B4C8H         LINE#         1315
  C:B4CFH         LINE#         1316
  C:B4D2H         LINE#         1317
  C:B4D2H         LINE#         1318
  C:B4E5H         LINE#         1320
  C:B4EBH         LINE#         1321
  C:B4EBH         LINE#         1322
  C:B511H         LINE#         1323
  C:B511H         LINE#         1324
  C:B511H         LINE#         1325
  C:B514H         LINE#         1326
  C:B51EH         LINE#         1327
  C:B520H         LINE#         1328
  C:B522H         LINE#         1330
  C:B525H         LINE#         1331
  C:B525H         LINE#         1332
  C:B527H         LINE#         1333
  C:B529H         LINE#         1335
  C:B529H         LINE#         1336
  C:B529H         LINE#         1337
  C:B529H         LINE#         1338
  C:B529H         LINE#         1339
  C:B52CH         LINE#         1340
  C:B533H         LINE#         1341
  C:B535H         LINE#         1342
  C:B537H         LINE#         1344
  C:B53CH         LINE#         1345
  C:B53CH         LINE#         1346
  C:B53EH         LINE#         1347
  C:B540H         LINE#         1349
  C:B540H         LINE#         1350
  C:B540H         LINE#         1351
  C:B543H         LINE#         1352
  C:B548H         LINE#         1353
  C:B54BH         LINE#         1355
  C:B54BH         LINE#         1356
  C:B54EH         LINE#         1357
  C:B553H         LINE#         1359
  C:B556H         LINE#         1360
  C:B556H         LINE#         1361
  C:B559H         LINE#         1362
  C:B55BH         LINE#         1363
  C:B55EH         LINE#         1364
  C:B574H         LINE#         1365
  C:B58AH         LINE#         1366
  C:B58AH         LINE#         1367
  C:B58DH         LINE#         1368
  -------         ENDMOD        DISPLAY

  -------         MODULE        FONT
  C:0000H         SYMBOL        _ICE_DUMMY_
  B:00D8H.2       PUBLIC        CCF2
  B:00D8H.3       PUBLIC        CCF3
  D:0080H         PUBLIC        P0
  B:00D8H.4       PUBLIC        CCF4
  D:0090H         PUBLIC        P1
  D:00A0H         PUBLIC        P2
  C:D03DH         PUBLIC        _DISPLAYSETFONT
  D:00B0H         PUBLIC        P3
BL51 BANKED LINKER/LOCATER V3.70c             20/07/12  15:15:12  PAGE 70


  B:00A0H.1       PUBLIC        BATRES
  B:00D0H.6       PUBLIC        AC
  B:00B0H.4       PUBLIC        T0
  B:00B0H.5       PUBLIC        T1
  B:0090H.6       PUBLIC        BATSCKEE
  B:00A8H.7       PUBLIC        EA
  B:0090H.0       PUBLIC        T2
  B:00B0H.0       PUBLIC        BATRXD
  B:00A8H.6       PUBLIC        EC
  B:00D8H.7       PUBLIC        CF
  B:00B0H.1       PUBLIC        BATTXD
  B:0098H.7       PUBLIC        FE
  B:0080H.0       PUBLIC        BATD0
  B:0080H.1       PUBLIC        BATD1
  B:0080H.2       PUBLIC        BATD2
  B:0080H.3       PUBLIC        BATD3
  B:0080H.0       PUBLIC        P0_0
  B:0090H.3       PUBLIC        BATCSMOD
  B:0080H.4       PUBLIC        BATD4
  B:0090H.3       PUBLIC        CEX0
  B:0090H.0       PUBLIC        P1_0
  B:0080H.1       PUBLIC        P0_1
  B:0080H.5       PUBLIC        BATD5
  B:00A0H.0       PUBLIC        P2_0
  B:0090H.4       PUBLIC        CEX1
  B:0090H.1       PUBLIC        P1_1
  B:0080H.2       PUBLIC        P0_2
  B:0080H.6       PUBLIC        BATD6
  B:00B0H.0       PUBLIC        P3_0
  B:00A0H.1       PUBLIC        P2_1
  B:0090H.5       PUBLIC        CEX2
  B:0090H.2       PUBLIC        P1_2
  B:0080H.3       PUBLIC        P0_3
  B:00B0H.6       PUBLIC        BATK0
  B:0080H.7       PUBLIC        BATD7
  B:00C0H.0       PUBLIC        P4_0
  B:00B0H.1       PUBLIC        P3_1
  B:00A0H.2       PUBLIC        P2_2
  B:0090H.6       PUBLIC        CEX3
  B:0090H.3       PUBLIC        P1_3
  B:0080H.4       PUBLIC        P0_4
  B:00B0H.7       PUBLIC        BATK1
  B:00D8H.6       PUBLIC        CR
  B:00E8H.0       PUBLIC        P5_0
  B:00C0H.1       PUBLIC        P4_1
  B:00B0H.2       PUBLIC        P3_2
  B:00A0H.3       PUBLIC        P2_3
  B:0090H.7       PUBLIC        CEX4
  B:0090H.4       PUBLIC        P1_4
  B:0080H.5       PUBLIC        P0_5
  C:0244H         PUBLIC        TAHOMA8
  B:00A0H.0       PUBLIC        BATK2
  B:00C8H.6       PUBLIC        EXF2
  B:00E8H.1       PUBLIC        P5_1
  B:00C0H.2       PUBLIC        P4_2
  B:00B0H.7       PUBLIC        RD
  B:00B0H.3       PUBLIC        P3_3
  B:00A0H.4       PUBLIC        P2_4
  B:0090H.5       PUBLIC        P1_5
  B:0080H.6       PUBLIC        P0_6
  B:00E8H.2       PUBLIC        P5_2
  B:00C0H.3       PUBLIC        P4_3
  B:00B0H.4       PUBLIC        P3_4
  B:00A0H.5       PUBLIC        P2_5
  B:0090H.6       PUBLIC        P1_6
BL51 BANKED LINKER/LOCATER V3.70c             20/07/12  15:15:12  PAGE 71


  B:0080H.7       PUBLIC        P0_7
  B:00A8H.4       PUBLIC        ES
  B:00E8H.3       PUBLIC        P5_3
  B:00C0H.4       PUBLIC        P4_4
  B:00B0H.5       PUBLIC        P3_5
  B:00A0H.6       PUBLIC        P2_6
  B:0090H.7       PUBLIC        P1_7
  X:06A9H         PUBLIC        FONT
  B:00D0H.1       PUBLIC        UD
  B:00E8H.4       PUBLIC        P5_4
  B:00C0H.5       PUBLIC        P4_5
  B:00B0H.6       PUBLIC        P3_6
  B:00A0H.7       PUBLIC        P2_7
  B:00A0H.6       PUBLIC        BATCSRTC
  B:00A0H.4       PUBLIC        BATRDRTC
  B:00E8H.5       PUBLIC        P5_5
  B:00C0H.6       PUBLIC        P4_6
  B:00B0H.7       PUBLIC        P3_7
  B:0098H.0       PUBLIC        RI
  B:00E8H.6       PUBLIC        P5_6
  B:00C0H.7       PUBLIC        P4_7
  B:00D0H.7       PUBLIC        CY
  B:00E8H.7       PUBLIC        P5_7
  B:00B0H.2       PUBLIC        INT0
  B:0098H.1       PUBLIC        TI
  B:00B0H.3       PUBLIC        INT1
  B:00B8H.1       PUBLIC        PT0L
  B:00B8H.3       PUBLIC        PT1L
  B:00B8H.5       PUBLIC        PT2L
  B:0090H.1       PUBLIC        T2EX
  B:00B8H.0       PUBLIC        PX0L
  B:00D0H.2       PUBLIC        OV
  B:00B8H.2       PUBLIC        PX1L
  B:00C8H.1       PUBLIC        C_T2
  B:00B0H.6       PUBLIC        WR
  B:00A0H.5       PUBLIC        BATWRRTC
  B:00C8H.5       PUBLIC        RCLK
  B:00C8H.4       PUBLIC        TCLK
  B:00B8H.6       PUBLIC        PPCL
  B:00B0H.2       PUBLIC        BATDATAAD
  B:0090H.4       PUBLIC        BATCSEE
  B:0088H.1       PUBLIC        IE0
  B:0088H.3       PUBLIC        IE1
  B:0090H.7       PUBLIC        BATSIEE
  B:00C8H.0       PUBLIC        CP_RL2
  B:0090H.5       PUBLIC        BATSOEE
  B:00A8H.1       PUBLIC        ET0
  B:00A8H.3       PUBLIC        ET1
  B:0088H.5       PUBLIC        TF0
  B:00A8H.5       PUBLIC        ET2
  B:0088H.7       PUBLIC        TF1
  B:0098H.2       PUBLIC        RB8
  B:00C8H.7       PUBLIC        TF2
  B:00A8H.0       PUBLIC        EX0
  B:0088H.0       PUBLIC        IT0
  B:00A8H.2       PUBLIC        EX1
  B:0098H.3       PUBLIC        TB8
  B:0088H.2       PUBLIC        IT1
  B:00D0H.0       PUBLIC        P
  B:0098H.7       PUBLIC        SM0
  B:0098H.6       PUBLIC        SM1
  B:0090H.2       PUBLIC        ECI
  B:0098H.5       PUBLIC        SM2
  B:00D0H.3       PUBLIC        RS0
  B:00A0H.7       PUBLIC        BATALERTC
BL51 BANKED LINKER/LOCATER V3.70c             20/07/12  15:15:12  PAGE 72


  B:0088H.4       PUBLIC        TR0
  B:00D0H.4       PUBLIC        RS1
  B:0088H.6       PUBLIC        TR1
  B:00C8H.2       PUBLIC        TR2
  B:0090H.1       PUBLIC        BATPDWNAD
  B:00F8H.0       PUBLIC        PI2_0
  B:00F8H.1       PUBLIC        PI2_1
  B:00B0H.3       PUBLIC        BATSVIT
  B:00A0H.3       PUBLIC        BATCS1
  B:00A0H.2       PUBLIC        BATCS2
  B:00C8H.3       PUBLIC        EXEN2
  C:1144H         PUBLIC        LUCIDACONSOLE6
  B:0090H.2       PUBLIC        BATLOWBAT
  B:0098H.4       PUBLIC        REN
  C:D8D4H         PUBLIC        _DISPLAYTEXTWIDTH
  B:00B0H.4       PUBLIC        BATIGTGSM
  B:00B0H.5       PUBLIC        BATZAPGSM
  B:00B0H.0       PUBLIC        RXD
  B:00B8H.4       PUBLIC        PLS
  B:00B0H.1       PUBLIC        TXD
  B:00D0H.5       PUBLIC        F0
  B:0090H.0       PUBLIC        BATCLKAD
  B:00D8H.0       PUBLIC        CCF0
  B:00D8H.1       PUBLIC        CCF1
  -------         PROC          _DISPLAYSETFONT
  D:0007H         SYMBOL        ID
  -------         ENDPROC       _DISPLAYSETFONT
  C:D03DH         LINE#         1658
  C:D03DH         LINE#         1660
  C:D042H         LINE#         1661
  C:D049H         LINE#         1698
  C:D049H         LINE#         1699
  C:D053H         LINE#         1700
  C:D057H         LINE#         1701
  C:D05BH         LINE#         1702
  C:D05EH         LINE#         1703
  C:D061H         LINE#         1704
  C:D063H         LINE#         1705
  C:D067H         LINE#         1706
  C:D06BH         LINE#         1707
  C:D06FH         LINE#         1708
  C:D072H         LINE#         1709
  C:D076H         LINE#         1710
  C:D07AH         LINE#         1711
  C:D07BH         LINE#         1715
  C:D07BH         LINE#         1716
  C:D085H         LINE#         1717
  C:D089H         LINE#         1718
  C:D08DH         LINE#         1719
  C:D090H         LINE#         1720
  C:D093H         LINE#         1721
  C:D095H         LINE#         1722
  C:D099H         LINE#         1723
  C:D09DH         LINE#         1724
  C:D0A1H         LINE#         1725
  C:D0A4H         LINE#         1726
  C:D0A8H         LINE#         1727
  C:D0ACH         LINE#         1728
  C:D0ACH         LINE#         1867
  C:D0ACH         LINE#         1868
  -------         PROC          _DISPLAYTEXTWIDTH
  D:0037H         SYMBOL        TEXT
  D:003AH         SYMBOL        WIDTH
  -------         ENDPROC       _DISPLAYTEXTWIDTH
  C:D8D4H         LINE#         1886
BL51 BANKED LINKER/LOCATER V3.70c             20/07/12  15:15:12  PAGE 73


  C:D8DAH         LINE#         1888
  C:D8DDH         LINE#         1890
  C:D8ECH         LINE#         1891
  C:D913H         LINE#         1892
  C:D91EH         LINE#         1893
  C:D920H         LINE#         1894
  C:D92BH         LINE#         1895
  C:D92CH         LINE#         1896
  -------         ENDMOD        FONT

  -------         MODULE        ADS123X
  C:0000H         SYMBOL        _ICE_DUMMY_
  B:00D8H.2       PUBLIC        CCF2
  B:00D8H.3       PUBLIC        CCF3
  D:0080H         PUBLIC        P0
  B:00D8H.4       PUBLIC        CCF4
  D:0090H         PUBLIC        P1
  D:00A0H         PUBLIC        P2
  D:00B0H         PUBLIC        P3
  B:00A0H.1       PUBLIC        BATRES
  B:00D0H.6       PUBLIC        AC
  B:00B0H.4       PUBLIC        T0
  B:00B0H.5       PUBLIC        T1
  B:0090H.6       PUBLIC        BATSCKEE
  B:00A8H.7       PUBLIC        EA
  B:0090H.0       PUBLIC        T2
  C:F7BEH         PUBLIC        ADCREAD
  B:00B0H.0       PUBLIC        BATRXD
  B:00A8H.6       PUBLIC        EC
  C:D4CCH         PUBLIC        ADCREADVALUE
  B:00D8H.7       PUBLIC        CF
  B:00B0H.1       PUBLIC        BATTXD
  B:0098H.7       PUBLIC        FE
  B:0080H.0       PUBLIC        BATD0
  B:0080H.1       PUBLIC        BATD1
  B:0080H.2       PUBLIC        BATD2
  B:0080H.3       PUBLIC        BATD3
  B:0080H.0       PUBLIC        P0_0
  B:0090H.3       PUBLIC        BATCSMOD
  B:0080H.4       PUBLIC        BATD4
  B:0090H.3       PUBLIC        CEX0
  B:0090H.0       PUBLIC        P1_0
  B:0080H.1       PUBLIC        P0_1
  B:0080H.5       PUBLIC        BATD5
  B:00A0H.0       PUBLIC        P2_0
  B:0090H.4       PUBLIC        CEX1
  B:0090H.1       PUBLIC        P1_1
  B:0080H.2       PUBLIC        P0_2
  B:0080H.6       PUBLIC        BATD6
  B:00B0H.0       PUBLIC        P3_0
  B:00A0H.1       PUBLIC        P2_1
  B:0090H.5       PUBLIC        CEX2
  B:0090H.2       PUBLIC        P1_2
  B:0080H.3       PUBLIC        P0_3
  B:00B0H.6       PUBLIC        BATK0
  B:0080H.7       PUBLIC        BATD7
  B:00C0H.0       PUBLIC        P4_0
  B:00B0H.1       PUBLIC        P3_1
  B:00A0H.2       PUBLIC        P2_2
  B:0090H.6       PUBLIC        CEX3
  B:0090H.3       PUBLIC        P1_3
  B:0080H.4       PUBLIC        P0_4
  B:00B0H.7       PUBLIC        BATK1
  B:00D8H.6       PUBLIC        CR
  B:00E8H.0       PUBLIC        P5_0
BL51 BANKED LINKER/LOCATER V3.70c             20/07/12  15:15:12  PAGE 74


  B:00C0H.1       PUBLIC        P4_1
  B:00B0H.2       PUBLIC        P3_2
  B:00A0H.3       PUBLIC        P2_3
  B:0090H.7       PUBLIC        CEX4
  B:0090H.4       PUBLIC        P1_4
  B:0080H.5       PUBLIC        P0_5
  B:00A0H.0       PUBLIC        BATK2
  B:00C8H.6       PUBLIC        EXF2
  B:00E8H.1       PUBLIC        P5_1
  B:00C0H.2       PUBLIC        P4_2
  B:00B0H.7       PUBLIC        RD
  B:00B0H.3       PUBLIC        P3_3
  B:00A0H.4       PUBLIC        P2_4
  B:0090H.5       PUBLIC        P1_5
  B:0080H.6       PUBLIC        P0_6
  B:00E8H.2       PUBLIC        P5_2
  B:00C0H.3       PUBLIC        P4_3
  B:00B0H.4       PUBLIC        P3_4
  B:00A0H.5       PUBLIC        P2_5
  B:0090H.6       PUBLIC        P1_6
  B:0080H.7       PUBLIC        P0_7
  B:00A8H.4       PUBLIC        ES
  B:00E8H.3       PUBLIC        P5_3
  B:00C0H.4       PUBLIC        P4_4
  B:00B0H.5       PUBLIC        P3_5
  B:00A0H.6       PUBLIC        P2_6
  B:0090H.7       PUBLIC        P1_7
  B:00D0H.1       PUBLIC        UD
  B:00E8H.4       PUBLIC        P5_4
  B:00C0H.5       PUBLIC        P4_5
  B:00B0H.6       PUBLIC        P3_6
  B:00A0H.7       PUBLIC        P2_7
  B:00A0H.6       PUBLIC        BATCSRTC
  B:00A0H.4       PUBLIC        BATRDRTC
  B:00E8H.5       PUBLIC        P5_5
  B:00C0H.6       PUBLIC        P4_6
  B:00B0H.7       PUBLIC        P3_7
  C:FAF6H         PUBLIC        ADCSTART
  B:0098H.0       PUBLIC        RI
  B:00E8H.6       PUBLIC        P5_6
  B:00C0H.7       PUBLIC        P4_7
  B:00D0H.7       PUBLIC        CY
  B:00E8H.7       PUBLIC        P5_7
  B:00B0H.2       PUBLIC        INT0
  B:0098H.1       PUBLIC        TI
  B:00B0H.3       PUBLIC        INT1
  C:F7A8H         PUBLIC        ADCSETUP
  C:F93AH         PUBLIC        ADCINIT
  B:00B8H.1       PUBLIC        PT0L
  B:00B8H.3       PUBLIC        PT1L
  B:00B8H.5       PUBLIC        PT2L
  B:0090H.1       PUBLIC        T2EX
  B:00B8H.0       PUBLIC        PX0L
  B:00D0H.2       PUBLIC        OV
  B:00B8H.2       PUBLIC        PX1L
  B:00C8H.1       PUBLIC        C_T2
  B:00B0H.6       PUBLIC        WR
  B:00A0H.5       PUBLIC        BATWRRTC
  B:00C8H.5       PUBLIC        RCLK
  B:00C8H.4       PUBLIC        TCLK
  B:00B8H.6       PUBLIC        PPCL
  C:FC27H         PUBLIC        ADCSTOP
  B:00B0H.2       PUBLIC        BATDATAAD
  B:0090H.4       PUBLIC        BATCSEE
  B:0088H.1       PUBLIC        IE0
BL51 BANKED LINKER/LOCATER V3.70c             20/07/12  15:15:12  PAGE 75


  B:0088H.3       PUBLIC        IE1
  B:0090H.7       PUBLIC        BATSIEE
  B:00C8H.0       PUBLIC        CP_RL2
  B:0090H.5       PUBLIC        BATSOEE
  B:00A8H.1       PUBLIC        ET0
  B:00A8H.3       PUBLIC        ET1
  B:0088H.5       PUBLIC        TF0
  B:00A8H.5       PUBLIC        ET2
  B:0088H.7       PUBLIC        TF1
  B:0098H.2       PUBLIC        RB8
  B:00C8H.7       PUBLIC        TF2
  B:00A8H.0       PUBLIC        EX0
  B:0088H.0       PUBLIC        IT0
  B:00A8H.2       PUBLIC        EX1
  B:0098H.3       PUBLIC        TB8
  B:0088H.2       PUBLIC        IT1
  B:00D0H.0       PUBLIC        P
  B:0098H.7       PUBLIC        SM0
  B:0098H.6       PUBLIC        SM1
  B:0090H.2       PUBLIC        ECI
  B:0098H.5       PUBLIC        SM2
  B:00D0H.3       PUBLIC        RS0
  B:00A0H.7       PUBLIC        BATALERTC
  B:0088H.4       PUBLIC        TR0
  B:00D0H.4       PUBLIC        RS1
  B:0088H.6       PUBLIC        TR1
  B:00C8H.2       PUBLIC        TR2
  B:0090H.1       PUBLIC        BATPDWNAD
  B:00F8H.0       PUBLIC        PI2_0
  B:00F8H.1       PUBLIC        PI2_1
  B:00B0H.3       PUBLIC        BATSVIT
  B:00A0H.3       PUBLIC        BATCS1
  B:00A0H.2       PUBLIC        BATCS2
  B:00C8H.3       PUBLIC        EXEN2
  B:0090H.2       PUBLIC        BATLOWBAT
  B:0098H.4       PUBLIC        REN
  B:00B0H.4       PUBLIC        BATIGTGSM
  X:06E6H         SYMBOL        _ADCVALUE
  D:00A6H         PUBLIC        WDTRST
  B:00B0H.5       PUBLIC        BATZAPGSM
  B:00B0H.0       PUBLIC        RXD
  C:E797H         SYMBOL        INTHANDLER
  B:00B8H.4       PUBLIC        PLS
  B:00B0H.1       PUBLIC        TXD
  D:001DH         PUBLIC        _ADCSTATUS
  B:00D0H.5       PUBLIC        F0
  B:0090H.0       PUBLIC        BATCLKAD
  B:00D8H.0       PUBLIC        CCF0
  B:00D8H.1       PUBLIC        CCF1
  -------         PROC          ADCINIT
  -------         ENDPROC       ADCINIT
  C:F93AH         LINE#         81
  C:F93AH         LINE#         83
  C:F93AH         LINE#         84
  C:F93CH         LINE#         85
  C:F93EH         LINE#         86
  C:F940H         LINE#         87
  C:F947H         LINE#         88
  C:F949H         LINE#         89
  C:F94CH         LINE#         90
  -------         PROC          ADCSETUP
  D:0007H         SYMBOL        I
  -------         ENDPROC       ADCSETUP
  C:F7A8H         LINE#         96
  C:F7A8H         LINE#         98
BL51 BANKED LINKER/LOCATER V3.70c             20/07/12  15:15:12  PAGE 76


  C:F7A8H         LINE#         99
  C:F7A8H         LINE#         101
  C:F7AEH         LINE#         102
  C:F7B1H         LINE#         103
  C:F7B4H         LINE#         104
  C:F7B6H         LINE#         105
  C:F7B6H         LINE#         106
  C:F7B8H         LINE#         107
  C:F7B9H         LINE#         108
  C:F7BBH         LINE#         109
  C:F7BDH         LINE#         110
  -------         PROC          ADCREADVALUE
  D:007CH         SYMBOL        VALUE
  D:0003H         SYMBOL        I
  -------         ENDPROC       ADCREADVALUE
  C:D4CCH         LINE#         116
  C:D4CCH         LINE#         118
  C:D4CCH         LINE#         123
  C:D4CEH         LINE#         124
  C:D4CFH         LINE#         125
  C:D4D2H         LINE#         126
  C:D4DEH         LINE#         127
  C:D4E0H         LINE#         128
  C:D4ECH         LINE#         129
  C:D4ECH         LINE#         130
  C:D4EEH         LINE#         132
  C:D4F0H         LINE#         133
  C:D4F0H         LINE#         134
  C:D4F2H         LINE#         135
  C:D507H         LINE#         136
  C:D50AH         LINE#         137
  C:D51CH         LINE#         138
  C:D51CH         LINE#         139
  C:D51EH         LINE#         140
  C:D520H         LINE#         142
  C:D522H         LINE#         143
  C:D523H         LINE#         144
  C:D525H         LINE#         145
  C:D52DH         LINE#         146
  -------         PROC          ADCSTART
  -------         ENDPROC       ADCSTART
  C:FAF6H         LINE#         154
  C:FAF6H         LINE#         156
  C:FAF6H         LINE#         157
  C:FAF8H         LINE#         158
  C:FAFBH         LINE#         162
  C:FAFEH         LINE#         163
  C:FB00H         LINE#         164
  C:FB02H         LINE#         165
  C:FB04H         LINE#         166
  -------         PROC          ADCSTOP
  -------         ENDPROC       ADCSTOP
  C:FC27H         LINE#         172
  C:FC27H         LINE#         174
  C:FC27H         LINE#         175
  C:FC29H         LINE#         176
  C:FC2CH         LINE#         177
  -------         PROC          ADCREAD
  D:0004H         SYMBOL        VALUE
  -------         ENDPROC       ADCREAD
  C:F7BEH         LINE#         183
  C:F7BEH         LINE#         185
  C:F7BEH         LINE#         188
  C:F7C0H         LINE#         189
  C:F7C3H         LINE#         191
BL51 BANKED LINKER/LOCATER V3.70c             20/07/12  15:15:12  PAGE 77


  C:F7D1H         LINE#         195
  C:F7D3H         LINE#         196
  C:F7D3H         LINE#         197
  -------         PROC          INTHANDLER
  -------         ENDPROC       INTHANDLER
  C:E797H         LINE#         204
  C:E7B0H         LINE#         208
  C:E7B9H         LINE#         210
  C:E7BCH         LINE#         211
  C:E7BEH         LINE#         212
  -------         ENDMOD        ADS123X

  -------         MODULE        DS17287
  C:0000H         SYMBOL        _ICE_DUMMY_
  B:00D8H.2       PUBLIC        CCF2
  B:00D8H.3       PUBLIC        CCF3
  D:0080H         PUBLIC        P0
  B:00D8H.4       PUBLIC        CCF4
  D:0090H         PUBLIC        P1
  D:00A0H         PUBLIC        P2
  D:00B0H         PUBLIC        P3
  B:00A0H.1       PUBLIC        BATRES
  B:00D0H.6       PUBLIC        AC
  B:00B0H.4       PUBLIC        T0
  B:00B0H.5       PUBLIC        T1
  B:0090H.6       PUBLIC        BATSCKEE
  B:00A8H.7       PUBLIC        EA
  B:0090H.0       PUBLIC        T2
  B:00B0H.0       PUBLIC        BATRXD
  B:00A8H.6       PUBLIC        EC
  C:F684H         PUBLIC        _RTCREAD
  B:00D8H.7       PUBLIC        CF
  B:00B0H.1       PUBLIC        BATTXD
  B:0098H.7       PUBLIC        FE
  B:0080H.0       PUBLIC        BATD0
  B:0080H.1       PUBLIC        BATD1
  B:0080H.2       PUBLIC        BATD2
  B:0080H.3       PUBLIC        BATD3
  B:0080H.0       PUBLIC        P0_0
  B:0090H.3       PUBLIC        BATCSMOD
  B:0080H.4       PUBLIC        BATD4
  B:0090H.3       PUBLIC        CEX0
  B:0090H.0       PUBLIC        P1_0
  B:0080H.1       PUBLIC        P0_1
  B:0080H.5       PUBLIC        BATD5
  B:00A0H.0       PUBLIC        P2_0
  B:0090H.4       PUBLIC        CEX1
  B:0090H.1       PUBLIC        P1_1
  B:0080H.2       PUBLIC        P0_2
  B:0080H.6       PUBLIC        BATD6
  B:00B0H.0       PUBLIC        P3_0
  B:00A0H.1       PUBLIC        P2_1
  B:0090H.5       PUBLIC        CEX2
  B:0090H.2       PUBLIC        P1_2
  B:0080H.3       PUBLIC        P0_3
  B:00B0H.6       PUBLIC        BATK0
  B:0080H.7       PUBLIC        BATD7
  B:00C0H.0       PUBLIC        P4_0
  B:00B0H.1       PUBLIC        P3_1
  B:00A0H.2       PUBLIC        P2_2
  B:0090H.6       PUBLIC        CEX3
  B:0090H.3       PUBLIC        P1_3
  B:0080H.4       PUBLIC        P0_4
  B:00B0H.7       PUBLIC        BATK1
  B:00D8H.6       PUBLIC        CR
BL51 BANKED LINKER/LOCATER V3.70c             20/07/12  15:15:12  PAGE 78


  B:00E8H.0       PUBLIC        P5_0
  B:00C0H.1       PUBLIC        P4_1
  B:00B0H.2       PUBLIC        P3_2
  B:00A0H.3       PUBLIC        P2_3
  B:0090H.7       PUBLIC        CEX4
  B:0090H.4       PUBLIC        P1_4
  B:0080H.5       PUBLIC        P0_5
  B:00A0H.0       PUBLIC        BATK2
  B:00C8H.6       PUBLIC        EXF2
  B:00E8H.1       PUBLIC        P5_1
  B:00C0H.2       PUBLIC        P4_2
  B:00B0H.7       PUBLIC        RD
  B:00B0H.3       PUBLIC        P3_3
  B:00A0H.4       PUBLIC        P2_4
  B:0090H.5       PUBLIC        P1_5
  B:0080H.6       PUBLIC        P0_6
  B:00E8H.2       PUBLIC        P5_2
  B:00C0H.3       PUBLIC        P4_3
  B:00B0H.4       PUBLIC        P3_4
  B:00A0H.5       PUBLIC        P2_5
  B:0090H.6       PUBLIC        P1_6
  B:0080H.7       PUBLIC        P0_7
  B:00A8H.4       PUBLIC        ES
  B:00E8H.3       PUBLIC        P5_3
  B:00C0H.4       PUBLIC        P4_4
  B:00B0H.5       PUBLIC        P3_5
  B:00A0H.6       PUBLIC        P2_6
  B:0090H.7       PUBLIC        P1_7
  C:F5E2H         PUBLIC        _RTCWRITE
  B:00D0H.1       PUBLIC        UD
  B:00E8H.4       PUBLIC        P5_4
  B:00C0H.5       PUBLIC        P4_5
  B:00B0H.6       PUBLIC        P3_6
  B:00A0H.7       PUBLIC        P2_7
  B:00A0H.6       PUBLIC        BATCSRTC
  B:00A0H.4       PUBLIC        BATRDRTC
  B:00E8H.5       PUBLIC        P5_5
  B:00C0H.6       PUBLIC        P4_6
  B:00B0H.7       PUBLIC        P3_7
  B:0098H.0       PUBLIC        RI
  B:00E8H.6       PUBLIC        P5_6
  B:00C0H.7       PUBLIC        P4_7
  B:00D0H.7       PUBLIC        CY
  B:00E8H.7       PUBLIC        P5_7
  B:00B0H.2       PUBLIC        INT0
  B:0098H.1       PUBLIC        TI
  B:00B0H.3       PUBLIC        INT1
  B:00B8H.1       PUBLIC        PT0L
  B:00B8H.3       PUBLIC        PT1L
  B:00B8H.5       PUBLIC        PT2L
  B:0090H.1       PUBLIC        T2EX
  B:00B8H.0       PUBLIC        PX0L
  B:00D0H.2       PUBLIC        OV
  B:00B8H.2       PUBLIC        PX1L
  B:00C8H.1       PUBLIC        C_T2
  B:00B0H.6       PUBLIC        WR
  C:F74CH         PUBLIC        _RTCRAMREAD
  B:00A0H.5       PUBLIC        BATWRRTC
  B:00C8H.5       PUBLIC        RCLK
  B:00C8H.4       PUBLIC        TCLK
  B:00B8H.6       PUBLIC        PPCL
  C:FC45H         PUBLIC        RTCMONTH
  B:00B0H.2       PUBLIC        BATDATAAD
  B:0090H.4       PUBLIC        BATCSEE
  C:F5FDH         PUBLIC        _RTCRAMWRITE
BL51 BANKED LINKER/LOCATER V3.70c             20/07/12  15:15:12  PAGE 79


  C:FBC5H         PUBLIC        RTCYEAR
  B:0088H.1       PUBLIC        IE0
  B:0088H.3       PUBLIC        IE1
  B:0090H.7       PUBLIC        BATSIEE
  C:EFABH         PUBLIC        RTCINIT
  C:F474H         PUBLIC        _RTCSETMONTH
  B:00C8H.0       PUBLIC        CP_RL2
  B:0090H.5       PUBLIC        BATSOEE
  C:FC2DH         PUBLIC        RTCSEC
  B:00A8H.1       PUBLIC        ET0
  C:FC3FH         PUBLIC        RTCDAY
  B:00A8H.3       PUBLIC        ET1
  B:0088H.5       PUBLIC        TF0
  C:FC39H         PUBLIC        RTCHOUR
  B:00A8H.5       PUBLIC        ET2
  B:0088H.7       PUBLIC        TF1
  C:F858H         PUBLIC        _RTCSETYEAR
  B:0098H.2       PUBLIC        RB8
  B:00C8H.7       PUBLIC        TF2
  B:00A8H.0       PUBLIC        EX0
  B:0088H.0       PUBLIC        IT0
  B:00A8H.2       PUBLIC        EX1
  B:0098H.3       PUBLIC        TB8
  B:0088H.2       PUBLIC        IT1
  B:00D0H.0       PUBLIC        P
  C:FC33H         PUBLIC        RTCMIN
  B:0098H.7       PUBLIC        SM0
  B:0098H.6       PUBLIC        SM1
  B:0090H.2       PUBLIC        ECI
  B:0098H.5       PUBLIC        SM2
  C:FA26H         PUBLIC        _RTCSETSEC
  B:00D0H.3       PUBLIC        RS0
  B:00A0H.7       PUBLIC        BATALERTC
  B:0088H.4       PUBLIC        TR0
  B:00D0H.4       PUBLIC        RS1
  B:0088H.6       PUBLIC        TR1
  C:F704H         PUBLIC        _RTCSETDAY
  B:00C8H.2       PUBLIC        TR2
  C:FA46H         PUBLIC        _RTCSETHOUR
  B:0090H.1       PUBLIC        BATPDWNAD
  B:00F8H.0       PUBLIC        PI2_0
