C51 COMPILER V5.50,  CAL                                                                   20/07/12  15:15:11  PAGE 1   


DOS C51 COMPILER V5.50, COMPILATION OF MODULE CAL
OBJECT MODULE PLACED IN CAL.OBJ
COMPILER INVOKED BY: E:\C51_V5.5\BIN\C51.EXE CAL.C51 CD DB

stmt level    source

   1          //*****************************************************************************
   2          //
   3          //    Cal.c - Calibration load/save
   4          //    Version 1.0, (c) P.Veit & VymOs
   5          //
   6          //*****************************************************************************
   7          
   8          #include "Cal.h"
   9          #include "Bat2.h"
  10          #include "..\inc\iep.h"       // Primarni kalibrace je v IEP
  11          #include "..\inc\AtFlash.h"   // Kopirovani kalibrace do flash
  12          
  13          // Globalni promenne :
  14          
  15          TCalibration   __xdata__ Calibration;       // Buffer kalibrace v externi RAM
  16          
  17          #define CAL_IEP_START   offsetof(TIntEEPROM, Calibration)                               // Adresa zacatku 
             -kalibrace v EEPROM
  18          #define CAL_FL_START    (FL_CONFIG_BASE + offsetof(TConfigSection, Calibration))        // Adresa zacatku 
             -kopie kalibrace ve flash
  19          
  20          //-----------------------------------------------------------------------------
  21          // Nacteni kalibrace
  22          //-----------------------------------------------------------------------------
  23          
  24          void CalLoad(void) {
  25   1        // Nacte kalibraci z EEPROM
  26   1        // V kalibraci neprovadim zadne kontroly, checksumy atd.
  27   1        word Address;
  28   1        byte __xdata__ *p;
  29   1        byte i;
  30   1      
  31   1        Address = CAL_IEP_START;      // startovni adresa v EEPROM
  32   1        p = (byte *)&Calibration;     // pretypovani na byte array
  33   1        // Pozor, prenos XDATA->XDATA nelze pouzit blokove cteni :
  34   1        for (i = 0; i < sizeof(TCalibration); i++) {
  35   2          *p = IepRead(Address++);
  36   2          p++;
  37   2        }//for
  38   1      } // CalLoad
  39          
  40          //-----------------------------------------------------------------------------
  41          // Ulozeni kalibrace
  42          //-----------------------------------------------------------------------------
  43          
  44          TYesNo CalSave(void) {
  45   1        // Ulozi celou kalibraci
  46   1        // Vraci NO, nepovedl-li se zapis
  47   1        // Muze se rozprostirat pres vic stranek, je to osetreno
  48   1        word Address;
  49   1        byte __xdata__ *p;
  50   1        byte i;
  51   1        TYesNo NewPage;
  52   1      
  53   1        if (PowerFail()) {
  54   2          return( NO);
  55   2        }
  56   1        // Zapis celou konfiguraci :
  57   1        p = (byte *)&Calibration;     // pretypovani na byte array
C51 COMPILER V5.50,  CAL                                                                   20/07/12  15:15:11  PAGE 2   

  58   1        Address = CAL_IEP_START;      // startovni adresa v EEPROM
  59   1        // Pouzivam blokovy zapis, flag NewPage vyuziju jako flag, ze mam zalozit novou stranku
  60   1        NewPage = YES;
  61   1        for (i = 0; i <sizeof(TCalibration); i++) {
  62   2          WatchDog();
  63   2          if (NewPage) {
  64   3            NewPage = NO;
  65   3            if (!IepPageWriteStart()) {
  66   4              return NO;
  67   4            }
  68   3          }//if
  69   2          IepPageWriteData(Address, *p);
  70   2          Address++;
  71   2          p++;
  72   2          if (Address % IEP_PAGE_SIZE == 0) {
  73   3            IepPageWritePerform();
  74   3            NewPage = YES;
  75   3          }//if
  76   2        }//for
  77   1        if (!NewPage) {
  78   2          IepPageWritePerform();
  79   2        }
  80   1        return YES;
  81   1      } // CalSave
  82          
  83          //-----------------------------------------------------------------------------
  84          // Ulozeni kalibrace do flash
  85          //-----------------------------------------------------------------------------
  86          
  87          void CalSaveToFlash(void) {
  88   1        // Ulozi celou kalibraci do Flash
  89   1        // Vraci NO, nepovedl-li se zapis
  90   1        // Muze se rozprostirat pres vic stranek, je to osetreno
  91   1        byte __xdata__ *p;
  92   1        byte i;
  93   1      
  94   1        if (PowerFail()) {
  95   2          return;
  96   2        }
  97   1      
  98   1        FlashWriteStart( CAL_FL_START);
  99   1        p = (byte *)&Calibration;
 100   1        for( i = 0; i < sizeof (TCalibration); i++){
 101   2          FlashWriteData( *p);
 102   2          p++;
 103   2        }
 104   1        FlashWriteDone();
 105   1      } // CalSaveToFlash
C51 COMPILER V5.50,  CAL                                                                   20/07/12  15:15:11  PAGE 3   

ASSEMBLY LISTING OF GENERATED OBJECT CODE


             ; FUNCTION CalLoad (BEGIN)
                                           ; SOURCE LINE # 24
                                           ; SOURCE LINE # 31
0000 E4            CLR     A
0001 F500    R     MOV     Address,A
0003 F500    R     MOV     Address+01H,A
                                           ; SOURCE LINE # 32
0005 750000  R     MOV     p,#HIGH Calibration
0008 750000  R     MOV     p+01H,#LOW Calibration
                                           ; SOURCE LINE # 34
000B F500    R     MOV     i,A
000D         ?C0001:
                                           ; SOURCE LINE # 35
000D 0500    R     INC     Address+01H
000F E500    R     MOV     A,Address+01H
0011 AE00    R     MOV     R6,Address
0013 7002          JNZ     ?C0019
0015 0500    R     INC     Address
0017         ?C0019:
0017 14            DEC     A
0018 FF            MOV     R7,A
0019 120000  E     LCALL   _IepRead
001C 850082  R     MOV     DPL,p+01H
001F 850083  R     MOV     DPH,p
0022 EF            MOV     A,R7
0023 F0            MOVX    @DPTR,A
                                           ; SOURCE LINE # 36
0024 0500    R     INC     p+01H
0026 E500    R     MOV     A,p+01H
0028 7002          JNZ     ?C0020
002A 0500    R     INC     p
002C         ?C0020:
                                           ; SOURCE LINE # 37
002C 0500    R     INC     i
002E E500    R     MOV     A,i
0030 C3            CLR     C
0031 940D          SUBB    A,#0DH
0033 40D8          JC      ?C0001
                                           ; SOURCE LINE # 38
0035         ?C0004:
0035 22            RET     
             ; FUNCTION CalLoad (END)

             ; FUNCTION CalSave (BEGIN)
                                           ; SOURCE LINE # 44
                                           ; SOURCE LINE # 53
0000 209202        JB      BatLOWBAT,?C0005
                                           ; SOURCE LINE # 54
0003 C3            CLR     C
0004 22            RET     
                                           ; SOURCE LINE # 55
0005         ?C0005:
                                           ; SOURCE LINE # 57
0005 750000  R     MOV     p,#HIGH Calibration
0008 750000  R     MOV     p+01H,#LOW Calibration
                                           ; SOURCE LINE # 58
000B E4            CLR     A
000C F500    R     MOV     Address,A
000E F500    R     MOV     Address+01H,A
                                           ; SOURCE LINE # 60
0010 D200    R     SETB    NewPage
                                           ; SOURCE LINE # 61
0012 F500    R     MOV     i,A
C51 COMPILER V5.50,  CAL                                                                   20/07/12  15:15:11  PAGE 4   

0014         ?C0007:
                                           ; SOURCE LINE # 62
0014 75A61E        MOV     WDTRST,#01EH
0017 75A6E1        MOV     WDTRST,#0E1H
                                           ; SOURCE LINE # 63
001A 300009  R     JNB     NewPage,?C0010
                                           ; SOURCE LINE # 64
001D C200    R     CLR     NewPage
                                           ; SOURCE LINE # 65
001F 120000  E     LCALL   IepPageWriteStart
0022 4002          JC      ?C0010
                                           ; SOURCE LINE # 66
0024 C3            CLR     C
0025 22            RET     
                                           ; SOURCE LINE # 67
                                           ; SOURCE LINE # 68
0026         ?C0010:
                                           ; SOURCE LINE # 69
0026 AF00    R     MOV     R7,Address+01H
0028 AE00    R     MOV     R6,Address
002A 850082  R     MOV     DPL,p+01H
002D 850083  R     MOV     DPH,p
0030 E0            MOVX    A,@DPTR
0031 FD            MOV     R5,A
0032 120000  E     LCALL   _IepRawWriteByte
                                           ; SOURCE LINE # 70
0035 0500    R     INC     Address+01H
0037 E500    R     MOV     A,Address+01H
0039 7002          JNZ     ?C0021
003B 0500    R     INC     Address
003D         ?C0021:
                                           ; SOURCE LINE # 71
003D 0500    R     INC     p+01H
003F E500    R     MOV     A,p+01H
0041 7002          JNZ     ?C0022
0043 0500    R     INC     p
0045         ?C0022:
                                           ; SOURCE LINE # 72
0045 E500    R     MOV     A,Address+01H
0047 543F          ANL     A,#03FH
0049 7002          JNZ     ?C0009
                                           ; SOURCE LINE # 74
004B D200    R     SETB    NewPage
                                           ; SOURCE LINE # 75
                                           ; SOURCE LINE # 76
004D         ?C0009:
004D 0500    R     INC     i
004F E500    R     MOV     A,i
0051 C3            CLR     C
0052 940D          SUBB    A,#0DH
0054 40BE          JC      ?C0007
0056         ?C0008:
                                           ; SOURCE LINE # 77
                                           ; SOURCE LINE # 79
0056         ?C0013:
                                           ; SOURCE LINE # 80
0056 D3            SETB    C
                                           ; SOURCE LINE # 81
0057         ?C0006:
0057 22            RET     
             ; FUNCTION CalSave (END)

             ; FUNCTION CalSaveToFlash (BEGIN)
                                           ; SOURCE LINE # 87
                                           ; SOURCE LINE # 94
0000 309230        JNB     BatLOWBAT,?C0015
C51 COMPILER V5.50,  CAL                                                                   20/07/12  15:15:11  PAGE 5   

                                           ; SOURCE LINE # 96
0003         ?C0014:
                                           ; SOURCE LINE # 98
0003 7F78          MOV     R7,#078H
0005 7E0A          MOV     R6,#0AH
0007 7D00          MOV     R5,#00H
0009 7C00          MOV     R4,#00H
000B 120000  E     LCALL   _FlashWriteStart
                                           ; SOURCE LINE # 99
000E 750000  R     MOV     p,#HIGH Calibration
0011 750000  R     MOV     p+01H,#LOW Calibration
                                           ; SOURCE LINE # 100
0014 E4            CLR     A
0015 F500    R     MOV     i,A
0017         ?C0016:
                                           ; SOURCE LINE # 101
0017 850082  R     MOV     DPL,p+01H
001A 850083  R     MOV     DPH,p
001D E0            MOVX    A,@DPTR
001E FF            MOV     R7,A
001F 120000  E     LCALL   _FlashWriteData
                                           ; SOURCE LINE # 102
0022 0500    R     INC     p+01H
0024 E500    R     MOV     A,p+01H
0026 7002          JNZ     ?C0023
0028 0500    R     INC     p
002A         ?C0023:
                                           ; SOURCE LINE # 103
002A 0500    R     INC     i
002C E500    R     MOV     A,i
002E C3            CLR     C
002F 940D          SUBB    A,#0DH
0031 40E4          JC      ?C0016
                                           ; SOURCE LINE # 105
0033         ?C0015:
0033 22            RET     
             ; FUNCTION CalSaveToFlash (END)



MODULE INFORMATION:   STATIC OVERLAYABLE
   CODE SIZE        =    194    ----
   CONSTANT SIZE    =   ----    ----
   XDATA SIZE       =     13    ----
   PDATA SIZE       =   ----    ----
   DATA SIZE        =   ----      13
   IDATA SIZE       =   ----    ----
   BIT SIZE         =   ----       1
END OF MODULE INFORMATION.


C51 COMPILATION COMPLETE.  0 WARNING(S),  0 ERROR(S)
