C51 COMPILER V5.50,  DATE                                                                  20/07/12  15:15:11  PAGE 1   


DOS C51 COMPILER V5.50, COMPILATION OF MODULE DATE
OBJECT MODULE PLACED IN DATE.OBJ
COMPILER INVOKED BY: E:\C51_V5.5\BIN\C51.EXE DATE.C51 CD DB

stmt level    source

   1          //*****************************************************************************
   2          //
   3          //    Date.c - Prace s datem
   4          //    Version 1.0, (c) P.Veit & VymOs
   5          //
   6          //*****************************************************************************
   7          
   8          #include "Date.h"
   9          
  10          #include "..\inc\bcd.h"        // BCD aritmetika
  11          #include "..\inc\Ds17287.h"    // RTC
  12          
  13          TLongDateTime __xdata__ CmdDateTime;            // Pro nastaveni casu
  14          
  15          // Pocet dnu v mesici. Prechodny rok resim zvlast
  16          byte code DAYS_IN_MONTH[13] = {0, 31, 28, 31, 30, 31, 30, 31, 31, 30, 31, 30, 31};   // Schvalne 13 prvku,
             - abych to mohl volat rovnou s cislem mesice
  17          
  18          // ---------------------------------------------------------------------------------------------
  19          // Staticke funkce:
  20          // ---------------------------------------------------------------------------------------------
  21          
  22          static word DaysFromBeginningOfYear(TLongDateTime __xdata__ *Date);
  23          // Vypocte pocet celych dnu od pocatku roku do zadaneho data. Nezapocitavam aktualni den, pouze cele, jiz 
             -ubehnute dny.
  24          
  25          static word DaysTillEndOfYear(TLongDateTime __xdata__ *Date);
  26          // Vypocte pocet celych dnu od zadaneho data do konce roku. Pokud je v puli dne, zapocitava se i aktualni 
             -den, na rozdil od fce DateDaysFromBeginningOfYear().
  27          
  28          // ---------------------------------------------------------------------------------------------
  29          // Test na prechodny rok
  30          // ---------------------------------------------------------------------------------------------
  31          
  32          #define LeapYear(Year)   (Year % 4 == 0)
  33          // Prechodny rok nastava (viz. www.timeanddate.com/date/leapyear.html):
  34          //   1. Every year divisible by 4 is a leap year.
  35          //   2. But every year divisible by 100 is NOT a leap year
  36          //   3. Unless the year is also divisible by 400, then it is still a leap year.
  37          // This means that year 1800, 1900, 2100, 2200, 2300 and 2500 are NOT leap years, while year 2000 and 2400
             - are leap years.
  38          
  39          // Jednoduche testovani bodu 1 je dostatecne, k prvni chybe dojde az v roce 2100.
  40          
  41          // ---------------------------------------------------------------------------------------------
  42          // Porovnani 2 datumu
  43          // ---------------------------------------------------------------------------------------------
  44          
  45          TYesNo DateEqual( TLongDateTime __xdata__ *Date1, TLongDateTime __xdata__ *Date2) {
  46   1        // vraci YES, jsou-li data shodna
  47   1        return( Date1->Day    == Date2->Day    &&
  48   1                Date1->Month  == Date2->Month  &&
  49   1                Date1->Year   == Date2->Year);
  50   1      } // DateEqual
  51          
  52          // ---------------------------------------------------------------------------------------------
  53          // Pocet dnu mezi datumy
  54          // ---------------------------------------------------------------------------------------------
  55          
C51 COMPILER V5.50,  DATE                                                                  20/07/12  15:15:11  PAGE 2   

  56          word DateDaysBetweenTwoDates(TLongDateTime __xdata__ *StartDate, TLongDateTime __xdata__ *EndDate) {
  57   1        // Vypocte pocet celych dnu mezi dvema datumy. Bere se pocet celych dnu, tj. nebere se v uvahu cas.
  58   1        word Difference;
  59   1        word Year;
  60   1      
  61   1        // Nejprve zkontroluju, zda je pocatecni datum pred koncovym datem - aby mne to nejak neslo do minusu a 
             -nedavalo blbosti
  62   1        // Jdu postupne od roku az ke dni
  63   1        if (EndDate->Year < StartDate->Year) {
  64   2          return 0;
  65   2        }
  66   1        if (EndDate->Year == StartDate->Year) {
  67   2          // Pokud jsou oba datumy ve stejnem roce, musim testovat mesic
  68   2          if (EndDate->Month < StartDate->Month) {
  69   3            return 0;
  70   3          }
  71   2          if (EndDate->Month == StartDate->Month) {
  72   3            // Pokud jsou oba datumy ve stejnem roce i mesici, musim testovat jeste den
  73   3            if (EndDate->Day <= StartDate->Day) {
  74   4              // Sem dam i rovno (tj. datumy jsou stejne), i kdyz bych mohl jit dal a korektne by mne to vypocit
             -alo nulu, ale je to zbytecne, stejne by vysla nula.
  75   4              return 0;
  76   4            }//if
  77   3          }//if
  78   2        } else {
  79   2          // Datumy jsou z formalniho hlediska v poradku, ale do word se mne nevleze rozdil vetsi jak 65535 dnu,
             - tj. 179 let. Pokud je rozdil
  80   2          // roku vetsi jak 179, nemuzu pocitat dal, vratilo by mne to blbost
  81   2          if (EndDate->Year - StartDate->Year > 179) {
  82   3            return 0;
  83   3          }
  84   2        }//else
  85   1        // Pokud dosel az sem, datumy se daji odecitat, koncovy datum je az za pocatecnim datem
  86   1        if (EndDate->Year == StartDate->Year) {
  87   2          // Pokud se roky rovnaji, je rozdil mene nez 1 rok a pocitam to jinak
  88   2          Difference = LeapYear(StartDate->Year) ? 366 : 365;         // Prechodny nebo normalni rok
  89   2          Difference -= DaysFromBeginningOfYear(StartDate) + DaysTillEndOfYear(EndDate);
  90   2        } else {
  91   2          // Roky se nerovnaji
  92   2          // Prictu zbytek dnu do konce pocatecniho roku
  93   2          Difference = DaysTillEndOfYear(StartDate);
  94   2          // Prictu cele roky mezi pocatecnim a koncovym rokem
  95   2          for (Year = StartDate->Year + 1; Year < EndDate->Year; Year++) {
  96   3            Difference += LeapYear(Year) ? 366 : 365;                 // Prechodny nebo normalni rok
  97   3          }//for
  98   2          // Prictu pocet dnu od zacatku koncoveho roku do koncoveho data
  99   2          Difference += DaysFromBeginningOfYear(EndDate);
 100   2        }//else
 101   1        return Difference;
 102   1      }
 103          
 104          // ---------------------------------------------------------------------------------------------
 105          // Nastaveni datumu a casu
 106          // ---------------------------------------------------------------------------------------------
 107          
 108          void DateSet(void) {
 109   1        // Nastavi datum a cas ulozeny ve strukture CmdDateTime
 110   1        RtcSetDay(  bbin2bcd(CmdDateTime.Day));
 111   1        RtcSetMonth(bbin2bcd(CmdDateTime.Month));
 112   1        RtcSetYear( wbin2bcd(CmdDateTime.Year));
 113   1        RtcSetHour( bbin2bcd(CmdDateTime.Hour));
 114   1        RtcSetMin(  bbin2bcd(CmdDateTime.Min));
 115   1        RtcSetSec(  0);         // Sekundy jen nuluju
 116   1      }
 117          
 118          // ---------------------------------------------------------------------------------------------
C51 COMPILER V5.50,  DATE                                                                  20/07/12  15:15:11  PAGE 3   

 119          // Pocet dnu od pocatku roku
 120          // ---------------------------------------------------------------------------------------------
 121          
 122          static word DaysFromBeginningOfYear(TLongDateTime __xdata__ *Date) {
 123   1        // Vypocte pocet celych dnu od pocatku roku do zadaneho data. Nezapocitavam aktualni den, pouze cele, ji
             -z ubehnute dny.
 124   1        byte Month;
 125   1        word Days;                    // Muze byt az 365
 126   1      
 127   1        // Prictu pocet ubehnutych dnu z aktualniho mesice
 128   1        Days = Date->Day - 1;         // Pouze cele dny, bez aktualniho dne, proto minus 1
 129   1        // Pokud ubehl vic jak 1 mesic, prictu pocty dnu za ubehnute cele mesice
 130   1        if (Date->Month > 1) {
 131   2          for (Month = 1; Month <= Date->Month - 1; Month++) {
 132   3            Days += DAYS_IN_MONTH[Month];
 133   3            if (Month == 2 && LeapYear(Date->Year)) {
 134   4              Days++;                 // V prechodnem roce ma unor 29 dni misto 28 ulozenych v poli DAYS_IN_MONT
             -H[]
 135   4            }
 136   3          }//for
 137   2        }//if
 138   1        return Days;
 139   1      }
 140          
 141          // ---------------------------------------------------------------------------------------------
 142          // Pocet dnu do konce roku
 143          // ---------------------------------------------------------------------------------------------
 144          
 145          static word DaysTillEndOfYear(TLongDateTime __xdata__ *Date) {
 146   1        // Vypocte pocet celych dnu od zadaneho data do konce roku. Pokud je v puli dne, zapocitava se i aktualn
             -i den, na rozdil od fce DateDaysFromBeginningOfYear().
 147   1        if (LeapYear(Date->Year)) {
 148   2          return 366 - DaysFromBeginningOfYear(Date);         // Prechodny rok
 149   2        } else {
 150   2          return 365 - DaysFromBeginningOfYear(Date);         // Normalni rok
 151   2        }//else
 152   1      }
C51 COMPILER V5.50,  DATE                                                                  20/07/12  15:15:11  PAGE 4   

ASSEMBLY LISTING OF GENERATED OBJECT CODE


             ; FUNCTION _DateEqual (BEGIN)
0000 8E00    R     MOV     Date1,R6
0002 8F00    R     MOV     Date1+01H,R7
;---- Variable 'Date2' assigned to Register 'R4/R5' ----
                                           ; SOURCE LINE # 45
                                           ; SOURCE LINE # 47
0004 8D82          MOV     DPL,R5
0006 8C83          MOV     DPH,R4
0008 A3            INC     DPTR
0009 A3            INC     DPTR
000A E0            MOVX    A,@DPTR
000B FF            MOV     R7,A
000C 850082  R     MOV     DPL,Date1+01H
000F 850083  R     MOV     DPH,Date1
0012 A3            INC     DPTR
0013 A3            INC     DPTR
0014 E0            MOVX    A,@DPTR
0015 6F            XRL     A,R7
0016 7041          JNZ     ?C0001
0018 8D82          MOV     DPL,R5
001A 8C83          MOV     DPH,R4
001C A3            INC     DPTR
001D A3            INC     DPTR
001E A3            INC     DPTR
001F E0            MOVX    A,@DPTR
0020 FF            MOV     R7,A
0021 850082  R     MOV     DPL,Date1+01H
0024 850083  R     MOV     DPH,Date1
0027 A3            INC     DPTR
0028 A3            INC     DPTR
0029 A3            INC     DPTR
002A E0            MOVX    A,@DPTR
002B B5072B        CJNE    A,AR7,?C0001
002E AE04          MOV     R6,AR4
0030 AF05          MOV     R7,AR5
0032 EF            MOV     A,R7
0033 2404          ADD     A,#04H
0035 F582          MOV     DPL,A
0037 E4            CLR     A
0038 3E            ADDC    A,R6
0039 F583          MOV     DPH,A
003B E0            MOVX    A,@DPTR
003C FE            MOV     R6,A
003D A3            INC     DPTR
003E E0            MOVX    A,@DPTR
003F FF            MOV     R7,A
0040 E500    R     MOV     A,Date1+01H
0042 2404          ADD     A,#04H
0044 F582          MOV     DPL,A
0046 E4            CLR     A
0047 3500    R     ADDC    A,Date1
0049 F583          MOV     DPH,A
004B E0            MOVX    A,@DPTR
004C FC            MOV     R4,A
004D A3            INC     DPTR
004E E0            MOVX    A,@DPTR
004F B50707        CJNE    A,AR7,?C0001
0052 EC            MOV     A,R4
0053 B50603        CJNE    A,AR6,?C0001
0056 D3            SETB    C
0057 8001          SJMP    ?C0002
0059         ?C0001:
0059 C3            CLR     C
C51 COMPILER V5.50,  DATE                                                                  20/07/12  15:15:11  PAGE 5   

005A         ?C0002:
                                           ; SOURCE LINE # 50
005A         ?C0003:
005A 22            RET     
             ; FUNCTION _DateEqual (END)

             ; FUNCTION _DateDaysBetweenTwoDates (BEGIN)
0000 8E00    R     MOV     StartDate,R6
0002 8F00    R     MOV     StartDate+01H,R7
0004 8C00    R     MOV     EndDate,R4
0006 8D00    R     MOV     EndDate+01H,R5
                                           ; SOURCE LINE # 56
                                           ; SOURCE LINE # 63
0008 8F82          MOV     DPL,R7
000A 8E83          MOV     DPH,R6
000C E582          MOV     A,DPL
000E 2404          ADD     A,#04H
0010 F582          MOV     DPL,A
0012 E4            CLR     A
0013 3583          ADDC    A,DPH
0015 F583          MOV     DPH,A
0017 E0            MOVX    A,@DPTR
0018 FC            MOV     R4,A
0019 A3            INC     DPTR
001A E0            MOVX    A,@DPTR
001B FD            MOV     R5,A
001C E500    R     MOV     A,EndDate+01H
001E 2404          ADD     A,#04H
0020 F582          MOV     DPL,A
0022 E4            CLR     A
0023 3500    R     ADDC    A,EndDate
0025 F583          MOV     DPH,A
0027 E0            MOVX    A,@DPTR
0028 FA            MOV     R2,A
0029 A3            INC     DPTR
002A E0            MOVX    A,@DPTR
002B FB            MOV     R3,A
002C C3            CLR     C
002D 9D            SUBB    A,R5
002E EA            MOV     A,R2
002F 9C            SUBB    A,R4
0030 5005          JNC     ?C0004
                                           ; SOURCE LINE # 64
0032 7E00          MOV     R6,#00H
0034 7F00          MOV     R7,#00H
0036 22            RET     
                                           ; SOURCE LINE # 65
0037         ?C0004:
                                           ; SOURCE LINE # 66
0037 EB            MOV     A,R3
0038 6D            XRL     A,R5
0039 7002          JNZ     ?C0032
003B EA            MOV     A,R2
003C 6C            XRL     A,R4
003D         ?C0032:
003D 703F          JNZ     ?C0006
                                           ; SOURCE LINE # 68
003F 850082  R     MOV     DPL,StartDate+01H
0042 850083  R     MOV     DPH,StartDate
0045 A3            INC     DPTR
0046 A3            INC     DPTR
0047 A3            INC     DPTR
0048 E0            MOVX    A,@DPTR
0049 FD            MOV     R5,A
004A 850082  R     MOV     DPL,EndDate+01H
004D 850083  R     MOV     DPH,EndDate
C51 COMPILER V5.50,  DATE                                                                  20/07/12  15:15:11  PAGE 6   

0050 A3            INC     DPTR
0051 A3            INC     DPTR
0052 A3            INC     DPTR
0053 E0            MOVX    A,@DPTR
0054 FC            MOV     R4,A
0055 C3            CLR     C
0056 9D            SUBB    A,R5
0057 5005          JNC     ?C0007
                                           ; SOURCE LINE # 69
0059 7E00          MOV     R6,#00H
005B 7F00          MOV     R7,#00H
005D 22            RET     
                                           ; SOURCE LINE # 70
005E         ?C0007:
                                           ; SOURCE LINE # 71
005E EC            MOV     A,R4
005F 6D            XRL     A,R5
0060 704F          JNZ     ?C0010
                                           ; SOURCE LINE # 73
0062 850082  R     MOV     DPL,StartDate+01H
0065 850083  R     MOV     DPH,StartDate
0068 A3            INC     DPTR
0069 A3            INC     DPTR
006A E0            MOVX    A,@DPTR
006B FF            MOV     R7,A
006C 850082  R     MOV     DPL,EndDate+01H
006F 850083  R     MOV     DPH,EndDate
0072 A3            INC     DPTR
0073 A3            INC     DPTR
0074 E0            MOVX    A,@DPTR
0075 D3            SETB    C
0076 9F            SUBB    A,R7
0077 5038          JNC     ?C0010
                                           ; SOURCE LINE # 75
0079 7E00          MOV     R6,#00H
007B 7F00          MOV     R7,#00H
007D 22            RET     
                                           ; SOURCE LINE # 76
                                           ; SOURCE LINE # 77
                                           ; SOURCE LINE # 78
007E         ?C0006:
                                           ; SOURCE LINE # 81
007E E500    R     MOV     A,StartDate+01H
0080 2404          ADD     A,#04H
0082 F582          MOV     DPL,A
0084 E4            CLR     A
0085 3500    R     ADDC    A,StartDate
0087 F583          MOV     DPH,A
0089 E0            MOVX    A,@DPTR
008A FE            MOV     R6,A
008B A3            INC     DPTR
008C E0            MOVX    A,@DPTR
008D FF            MOV     R7,A
008E E500    R     MOV     A,EndDate+01H
0090 2404          ADD     A,#04H
0092 F582          MOV     DPL,A
0094 E4            CLR     A
0095 3500    R     ADDC    A,EndDate
0097 F583          MOV     DPH,A
0099 E0            MOVX    A,@DPTR
009A FC            MOV     R4,A
009B A3            INC     DPTR
009C E0            MOVX    A,@DPTR
009D C3            CLR     C
009E 9F            SUBB    A,R7
009F FF            MOV     R7,A
C51 COMPILER V5.50,  DATE                                                                  20/07/12  15:15:11  PAGE 7   

00A0 EC            MOV     A,R4
00A1 9E            SUBB    A,R6
00A2 FE            MOV     R6,A
00A3 D3            SETB    C
00A4 EF            MOV     A,R7
00A5 94B3          SUBB    A,#0B3H
00A7 EE            MOV     A,R6
00A8 9400          SUBB    A,#00H
00AA 4005          JC      ?C0010
                                           ; SOURCE LINE # 82
00AC 7E00          MOV     R6,#00H
00AE 7F00          MOV     R7,#00H
00B0 22            RET     
                                           ; SOURCE LINE # 83
                                           ; SOURCE LINE # 84
00B1         ?C0010:
                                           ; SOURCE LINE # 86
00B1 E500    R     MOV     A,StartDate+01H
00B3 2404          ADD     A,#04H
00B5 F582          MOV     DPL,A
00B7 E4            CLR     A
00B8 3500    R     ADDC    A,StartDate
00BA F583          MOV     DPH,A
00BC E0            MOVX    A,@DPTR
00BD FE            MOV     R6,A
00BE A3            INC     DPTR
00BF E0            MOVX    A,@DPTR
00C0 FF            MOV     R7,A
00C1 E500    R     MOV     A,EndDate+01H
00C3 2404          ADD     A,#04H
00C5 F582          MOV     DPL,A
00C7 E4            CLR     A
00C8 3500    R     ADDC    A,EndDate
00CA F583          MOV     DPH,A
00CC E0            MOVX    A,@DPTR
00CD FC            MOV     R4,A
00CE A3            INC     DPTR
00CF E0            MOVX    A,@DPTR
00D0 6F            XRL     A,R7
00D1 7002          JNZ     ?C0033
00D3 EC            MOV     A,R4
00D4 6E            XRL     A,R6
00D5         ?C0033:
00D5 703A          JNZ     ?C0012
                                           ; SOURCE LINE # 88
00D7 EF            MOV     A,R7
00D8 5403          ANL     A,#03H
00DA 7006          JNZ     ?C0013
00DC 7E01          MOV     R6,#01H
00DE 7F6E          MOV     R7,#06EH
00E0 8004          SJMP    ?C0014
00E2         ?C0013:
00E2 7E01          MOV     R6,#01H
00E4 7F6D          MOV     R7,#06DH
00E6         ?C0014:
00E6 8E00    R     MOV     Difference,R6
00E8 8F00    R     MOV     Difference+01H,R7
                                           ; SOURCE LINE # 89
00EA AF00    R     MOV     R7,EndDate+01H
00EC AE00    R     MOV     R6,EndDate
00EE 120000  R     LCALL   _DaysTillEndOfYear
00F1 C006          PUSH    AR6
00F3 C007          PUSH    AR7
00F5 AF00    R     MOV     R7,StartDate+01H
00F7 AE00    R     MOV     R6,StartDate
00F9 120000  R     LCALL   _DaysFromBeginningOfYear
C51 COMPILER V5.50,  DATE                                                                  20/07/12  15:15:11  PAGE 8   

00FC D0E0          POP     ACC
00FE 2F            ADD     A,R7
00FF FF            MOV     R7,A
0100 D0E0          POP     ACC
0102 3E            ADDC    A,R6
0103 FE            MOV     R6,A
0104 C3            CLR     C
0105 E500    R     MOV     A,Difference+01H
0107 9F            SUBB    A,R7
0108 F500    R     MOV     Difference+01H,A
010A E500    R     MOV     A,Difference
010C 9E            SUBB    A,R6
010D F500    R     MOV     Difference,A
                                           ; SOURCE LINE # 90
010F 8068          SJMP    ?C0015
0111         ?C0012:
                                           ; SOURCE LINE # 93
0111 AF00    R     MOV     R7,StartDate+01H
0113 AE00    R     MOV     R6,StartDate
0115 120000  R     LCALL   _DaysTillEndOfYear
0118 8E00    R     MOV     Difference,R6
011A 8F00    R     MOV     Difference+01H,R7
                                           ; SOURCE LINE # 95
011C E500    R     MOV     A,StartDate+01H
011E 2404          ADD     A,#04H
0120 F582          MOV     DPL,A
0122 E4            CLR     A
0123 3500    R     ADDC    A,StartDate
0125 F583          MOV     DPH,A
0127 E0            MOVX    A,@DPTR
0128 FE            MOV     R6,A
0129 A3            INC     DPTR
012A E0            MOVX    A,@DPTR
012B 2401          ADD     A,#01H
012D FF            MOV     R7,A
012E E4            CLR     A
012F 3E            ADDC    A,R6
0130 FE            MOV     R6,A
;---- Variable 'Year' assigned to Register 'R6/R7' ----
0131         ?C0016:
0131 E500    R     MOV     A,EndDate+01H
0133 2404          ADD     A,#04H
0135 F582          MOV     DPL,A
0137 E4            CLR     A
0138 3500    R     ADDC    A,EndDate
013A F583          MOV     DPH,A
013C E0            MOVX    A,@DPTR
013D FC            MOV     R4,A
013E A3            INC     DPTR
013F E0            MOVX    A,@DPTR
0140 FD            MOV     R5,A
0141 C3            CLR     C
0142 EF            MOV     A,R7
0143 9D            SUBB    A,R5
0144 EE            MOV     A,R6
0145 9C            SUBB    A,R4
0146 5020          JNC     ?C0017
                                           ; SOURCE LINE # 96
0148 EF            MOV     A,R7
0149 5403          ANL     A,#03H
014B 7006          JNZ     ?C0019
014D 7C01          MOV     R4,#01H
014F 7D6E          MOV     R5,#06EH
0151 8004          SJMP    ?C0020
0153         ?C0019:
0153 7C01          MOV     R4,#01H
C51 COMPILER V5.50,  DATE                                                                  20/07/12  15:15:11  PAGE 9   

0155 7D6D          MOV     R5,#06DH
0157         ?C0020:
0157 ED            MOV     A,R5
0158 2500    R     ADD     A,Difference+01H
015A F500    R     MOV     Difference+01H,A
015C EC            MOV     A,R4
015D 3500    R     ADDC    A,Difference
015F F500    R     MOV     Difference,A
                                           ; SOURCE LINE # 97
0161 0F            INC     R7
0162 BF0001        CJNE    R7,#00H,?C0034
0165 0E            INC     R6
0166         ?C0034:
0166 80C9          SJMP    ?C0016
0168         ?C0017:
                                           ; SOURCE LINE # 99
0168 AF00    R     MOV     R7,EndDate+01H
016A AE00    R     MOV     R6,EndDate
016C 120000  R     LCALL   _DaysFromBeginningOfYear
016F EF            MOV     A,R7
0170 2500    R     ADD     A,Difference+01H
0172 F500    R     MOV     Difference+01H,A
0174 EE            MOV     A,R6
0175 3500    R     ADDC    A,Difference
0177 F500    R     MOV     Difference,A
                                           ; SOURCE LINE # 100
0179         ?C0015:
                                           ; SOURCE LINE # 101
0179 AE00    R     MOV     R6,Difference
017B AF00    R     MOV     R7,Difference+01H
                                           ; SOURCE LINE # 102
017D         ?C0005:
017D 22            RET     
             ; FUNCTION _DateDaysBetweenTwoDates (END)

             ; FUNCTION DateSet (BEGIN)
                                           ; SOURCE LINE # 108
                                           ; SOURCE LINE # 110
0000 900000  R     MOV     DPTR,#CmdDateTime+02H
0003 E0            MOVX    A,@DPTR
0004 FF            MOV     R7,A
0005 120000  E     LCALL   _bbin2bcd
0008 120000  E     LCALL   _RtcSetDay
                                           ; SOURCE LINE # 111
000B 900000  R     MOV     DPTR,#CmdDateTime+03H
000E E0            MOVX    A,@DPTR
000F FF            MOV     R7,A
0010 120000  E     LCALL   _bbin2bcd
0013 120000  E     LCALL   _RtcSetMonth
                                           ; SOURCE LINE # 112
0016 900000  R     MOV     DPTR,#CmdDateTime+04H
0019 E0            MOVX    A,@DPTR
001A FE            MOV     R6,A
001B A3            INC     DPTR
001C E0            MOVX    A,@DPTR
001D FF            MOV     R7,A
001E 120000  E     LCALL   _wbin2bcd
0021 120000  E     LCALL   _RtcSetYear
                                           ; SOURCE LINE # 113
0024 900000  R     MOV     DPTR,#CmdDateTime+01H
0027 E0            MOVX    A,@DPTR
0028 FF            MOV     R7,A
0029 120000  E     LCALL   _bbin2bcd
002C 120000  E     LCALL   _RtcSetHour
                                           ; SOURCE LINE # 114
002F 900000  R     MOV     DPTR,#CmdDateTime
C51 COMPILER V5.50,  DATE                                                                  20/07/12  15:15:11  PAGE 10  

0032 E0            MOVX    A,@DPTR
0033 FF            MOV     R7,A
0034 120000  E     LCALL   _bbin2bcd
0037 120000  E     LCALL   _RtcSetMin
                                           ; SOURCE LINE # 115
003A E4            CLR     A
003B FF            MOV     R7,A
003C 120000  E     LCALL   _RtcSetSec
                                           ; SOURCE LINE # 116
003F 22            RET     
             ; FUNCTION DateSet (END)

             ; FUNCTION _DaysFromBeginningOfYear (BEGIN)
;---- Variable 'Date' assigned to Register 'R6/R7' ----
                                           ; SOURCE LINE # 122
                                           ; SOURCE LINE # 128
0000 8F82          MOV     DPL,R7
0002 8E83          MOV     DPH,R6
0004 A3            INC     DPTR
0005 A3            INC     DPTR
0006 E0            MOVX    A,@DPTR
0007 24FF          ADD     A,#0FFH
0009 F500    R     MOV     Days+01H,A
000B E4            CLR     A
000C 34FF          ADDC    A,#0FFH
000E F500    R     MOV     Days,A
                                           ; SOURCE LINE # 130
0010 8F82          MOV     DPL,R7
0012 8E83          MOV     DPH,R6
0014 A3            INC     DPTR
0015 A3            INC     DPTR
0016 A3            INC     DPTR
0017 E0            MOVX    A,@DPTR
0018 D3            SETB    C
0019 9401          SUBB    A,#01H
001B 403D          JC      ?C0022
                                           ; SOURCE LINE # 131
;---- Variable 'Month' assigned to Register 'R5' ----
001D 7D01          MOV     R5,#01H
001F         ?C0023:
001F 8F82          MOV     DPL,R7
0021 8E83          MOV     DPH,R6
0023 A3            INC     DPTR
0024 A3            INC     DPTR
0025 A3            INC     DPTR
0026 E0            MOVX    A,@DPTR
0027 14            DEC     A
0028 FC            MOV     R4,A
0029 ED            MOV     A,R5
002A D3            SETB    C
002B 9C            SUBB    A,R4
002C 502C          JNC     ?C0022
                                           ; SOURCE LINE # 132
002E ED            MOV     A,R5
002F 900000  R     MOV     DPTR,#DAYS_IN_MONTH
0032 93            MOVC    A,@A+DPTR
0033 2500    R     ADD     A,Days+01H
0035 F500    R     MOV     Days+01H,A
0037 E4            CLR     A
0038 3500    R     ADDC    A,Days
003A F500    R     MOV     Days,A
                                           ; SOURCE LINE # 133
003C BD0218        CJNE    R5,#02H,?C0025
003F EF            MOV     A,R7
0040 2404          ADD     A,#04H
0042 F582          MOV     DPL,A
C51 COMPILER V5.50,  DATE                                                                  20/07/12  15:15:11  PAGE 11  

0044 E4            CLR     A
0045 3E            ADDC    A,R6
0046 F583          MOV     DPH,A
0048 E4            CLR     A
0049 A3            INC     DPTR
004A E0            MOVX    A,@DPTR
004B 5403          ANL     A,#03H
004D 7008          JNZ     ?C0025
                                           ; SOURCE LINE # 134
004F 0500    R     INC     Days+01H
0051 E500    R     MOV     A,Days+01H
0053 7002          JNZ     ?C0035
0055 0500    R     INC     Days
0057         ?C0035:
                                           ; SOURCE LINE # 135
                                           ; SOURCE LINE # 136
0057         ?C0025:
0057 0D            INC     R5
0058 80C5          SJMP    ?C0023
                                           ; SOURCE LINE # 137
005A         ?C0022:
                                           ; SOURCE LINE # 138
005A AE00    R     MOV     R6,Days
005C AF00    R     MOV     R7,Days+01H
                                           ; SOURCE LINE # 139
005E         ?C0027:
005E 22            RET     
             ; FUNCTION _DaysFromBeginningOfYear (END)

             ; FUNCTION _DaysTillEndOfYear (BEGIN)
;---- Variable 'Date' assigned to Register 'R2/R3' ----
0000 AB07          MOV     R3,AR7
0002 AA06          MOV     R2,AR6
                                           ; SOURCE LINE # 145
                                           ; SOURCE LINE # 147
0004 EB            MOV     A,R3
0005 2404          ADD     A,#04H
0007 F582          MOV     DPL,A
0009 E4            CLR     A
000A 3A            ADDC    A,R2
000B F583          MOV     DPH,A
000D E4            CLR     A
000E A3            INC     DPTR
000F E0            MOVX    A,@DPTR
0010 5403          ANL     A,#03H
0012 700D          JNZ     ?C0028
                                           ; SOURCE LINE # 148
0014 120000  R     LCALL   _DaysFromBeginningOfYear
0017 C3            CLR     C
0018 746E          MOV     A,#06EH
001A 9F            SUBB    A,R7
001B FF            MOV     R7,A
001C 7401          MOV     A,#01H
001E 9E            SUBB    A,R6
001F FE            MOV     R6,A
0020 22            RET     
                                           ; SOURCE LINE # 149
0021         ?C0028:
                                           ; SOURCE LINE # 150
0021 AF03          MOV     R7,AR3
0023 AE02          MOV     R6,AR2
0025 120000  R     LCALL   _DaysFromBeginningOfYear
0028 C3            CLR     C
0029 746D          MOV     A,#06DH
002B 9F            SUBB    A,R7
002C FF            MOV     R7,A
C51 COMPILER V5.50,  DATE                                                                  20/07/12  15:15:11  PAGE 12  

002D 7401          MOV     A,#01H
002F 9E            SUBB    A,R6
0030 FE            MOV     R6,A
                                           ; SOURCE LINE # 151
                                           ; SOURCE LINE # 152
0031         ?C0029:
0031 22            RET     
             ; FUNCTION _DaysTillEndOfYear (END)



MODULE INFORMATION:   STATIC OVERLAYABLE
   CODE SIZE        =    682    ----
   CONSTANT SIZE    =     13    ----
   XDATA SIZE       =      6    ----
   PDATA SIZE       =   ----    ----
   DATA SIZE        =   ----      10
   IDATA SIZE       =   ----    ----
   BIT SIZE         =   ----    ----
END OF MODULE INFORMATION.


C51 COMPILATION COMPLETE.  0 WARNING(S),  0 ERROR(S)
