:1000E4000400000000000000000000000000000008
:1000F4000680130F8CC008F10038000000000000D7
:100104000680130F8CD008F10038000000000000B6
:1001140006F08010044AA0044620000000000000FD
:1001240005FC4322245222040200000000000000C7
:1001340005FC5322244222050200000000000000B6
:1001440005FC532224522204020000000000000097
:100154000304D23F0402000000000000000000007D
:100164000405C23F0412000000000000000000006B
:100174000305C23F0502000000000000000000006B
:1001840006FCD30030100C01C33F00000000000047
:1001940007F08010045220048210F00000000000D8
:1001A40007F08010054220049210F00000000000C7
:1001B40007F08010054220059210F00000000000B6
:1001C40006FC012000122000C21F000000000000F5
:1001D40006FC112000022001C21F000000000000E4
:1001E40005800125524225E00300000000000000C4
:1001F40005804125522225E4030000000000000090
:1002040005806125524225E603000000000000003D
:1002140004E009A110062100000000000000000015
:1002240005E02125540225600100000000000000C3
:1002340005E0412552222564010000000000000071
:1002440005E0412550422560010000000000000047
:100254000202403F00000000000000000000000017
:100264000304203F04000000000000000000000020
:100274000304003F04000000000000000000000030
:1002840005F06301124001E60300000000000000D5
:1002940005E02121140221E001000000000000001B
:1002A40005E04121122221E40100000000000000C9
:1002B40005E06121124221E6010000000000000077
:1002C40005F02120040220F00300000000000000DB
:1002D40005F04120022220F4030000000000000089
:1002E4000400000000000000000000000000000006
:1002F40001FC0200000000000000000000000000FB
:100304000408600008600000000000000000000015
:1003140007800039F0C039F0C00910000000000067
:1003240005308224FE8F24880100000000000000B4
:100334000A184002248031C000038C0124400218B2
:1003440007D8412224822580011600020000000003
:10035400020860000000000000000000000000002F
:1003640003F0C1600208000000000000000000006B
:100374000302C860F001000000000000000000005B
:10038400051480003E8000140000000000000000FE
:100394000740000440803F4000044000000000008B
:1003A4000200043000000000000000000000000013
:1003B40003400004400000000000000000000000B2
:1003C4000100020000000000000000000000000026
:1003D40003000E1F0E0000000000000000000000DB
:1003E40005F84120044220F801000000000000004C
:1003F4000308C23F000200000000000000000000EB
:1004040005084328444222180200000000000000AE
:1004140005084120244222D8010000000000000009
:100424000560000548C03F400000000000000000D7
:10043400053C4122244222C40100000000000000C7
:1004440005F08122244222C00100000000000000C7
:1004540005044030C440030C00000000000000000C
:1004640005D84122244222D80100000000000000E7
:1004740005384024444214F8000000000000000045
:100484000130030000000000000000000000000034
:1004940002000873000000000000000000000000DB
:1004A4000640000AA0001110812000000000000096
:1004B40007A0000AA0000AA0000AA0000000000093
:0604C40006080211100100
:1004CA000AA000040000000000000404402C24805C
:1004DA000100000000000000000009F08120E4444F
:1004EA005114455F048110F000000680030F8CC090
:1004FA0008F0003800000000000005FC43222442F6
:10050A0022D8010000000000000006F0801004421A
:10051A002004422000000000000006FC43200442A0
:10052A002008010F00000000000005FC43222442BD
:10053A002204020000000000000005FC43022440DF
:10054A000224000000000000000006F080100442AF
:10055A002444423C00000000000006FC0302200084
:10056A000220C03F0000000000000304C23F040252
:10057A00000000000000000000000400422004C245
:10058A001F00000000000000000005FC0306908028
:10059A001004020000000000000004FC0320000216
:1005AA002000000000000000000007FCC30030002B
:1005BA000C30C000FC030000000006FCC300300041
:1005CA000C00C33F00000000000007F08010044246
:1005DA0020048210F0000000000005FC430444409F
:1005EA000438000000000000000007F080100442F8
:1005FA0020048690F0080000000006FC43044440F2
:10060A000C38012000000000000005184222244294
:10061A0022C4010000000000000005044000FC4361
:10062A000004000000000000000006FC0120000297
:10063A002000C21F000000000000051C000E00037D
:10064A000E1C0000000000000000091C000E000340
:10065A000E1C000E00030E1C0000050C03096000AE
:10066A00090C0300000000000000050C0003C00391
:10067A00030C000000000000000005044328644247
:10068A00210C020000000000000003FE2F80020877
:10069A0000000000000000000000030E001F000E12
:1006AA000000000000000000000003022880FE0F86
:1006BA0000000000000000000000072000010840C0
:1006CA000008000120000000000006000880000861
:1006DA0080000880000000000000020240000000C4
:1006EA000000000000000000000005800125500203
:1006FA0025E0030000000000000005FE03211002AF
:10070A0021E0010000000000000004E001211002C5
:10071A002100000000000000000005E00121100295
:10072A0021FE030000000000000005E00125500240
:10073A002560010000000000000003FC23011200F4
:10074A000000000000000000000005E001A1100AFE
:10075A00A1F0070000000000000005FE03011000E0
:10076A0001E0030000000000000001F403000000A3
:10077A00000000000000000000000210487F000096
:10078A000000000000000000000005FE0304A000B5
:10079A001100020000000000000001FE030000003A
:1007AA000000000000000000000007F00301100034
:1007BA003E100001E0030000000005F003011000F4
:1007CA0001E0030000000000000005E00121100222
:1007DA0021E0010000000000000005F00F211002D6
:1007EA0021E0010000000000000005E001211002E4
:1007FA0021F00F0000000000000003F003021000C7
:10080A0000000000000000000000046002259002C1
:10081A001900000000000000000003FC0121100282
:10082A000000000000000000000005F001200002A6
:10083A0020F003000000000000000530000C000357
:10084A000C30000000000000000007F00030C0007B
:10085A0003C00030F0000000000005100212C000C2
:10086A0012100200000000000000053000CC000356
:10087A000C300000000000000000041003295002A0
:10088A002300000000000000000004400004BC2710
:10089A008000000000000000000001FE0F000000C0
:0608AA0000000000000048
:1008B000000000000402C87B4000040000000000AB
:1008C0000000000007C00002200004800008600053
:1008D0000000000005800125542225E003000000EF
:1008E0000000000004E0212114222100000000008B
:1008F0000000000008E00121100221FE0300086052
:100900000000000005E001255422256001000000E0
:100910000000000005E0212554422562010000008E
:100920000000000002F423000000000000000000AE
:100930000000000005F24301142001E00300000064
:100940000000000005E00121142221E00100000068
:100950000000000003F2430212000000000000004B
:1009600000000000046242259422190000000000EB
:100970000000000003FC012116020000000000003E
:100980000000000005F00120042220F00300000018
:100990000000000005F041200A4220F003000000A2
:1009A00000000000053000CC04230C3000000000E3
:1009B000000000000412432954222300000000001C
:1009C000000000000680030F8DC008F00038000012
:1009D0000000000006F080100452200542200000B4
:1009E0000000000006FC432005522008010F000013
:1009F0000000000005FC43222652220402000000F1
:100A00000000000005FC43222552220402000000E1
:100A1000000000000304E23F0502000000000000A7
:100A20000000000006FCC30031200C01C33F0000A1
:100A30000000000007F08010046220058210F00022
:100A40000000000006FC430445500C380120000063
:100A50000000000005184222255222C401000000B7
:100A60000000000005044000FD53000400000000E9
:100A70000000000006FC012000222001C21F00002F
:100A80000000000006FC012002522002C21F0000EC
:100A900000000000050C0003C213030C000000005E
:100AA00000000000050443286552210C02000000EC
:100AB0000000000006800125500225E00F800000A4
:100AC0000000000004E001211422210000000000C9
:100AD0000000000005E001255002E5600A0000006A
:100AE000000000000340E03F100000000000000094
:100AF0000000000005F00301142001E003000000E5
:100B0000000000000460022594221900000000008B
:100B100000000000041043295202230000000000DE
:100B2000000000000410032954022300000000000C
:100B3000000000000780030F8CC008F000F80008D8
:100B40000000000006F08010045220044220000043
:100B50000000000005FC4322244262040A00000059
:100B6000000000000540C03F10022000020000000D
:100B70000000000006FCC30030100C00C33F000062
:100B80000000000005184222254222C40100000096
:100B900000000000050443286542210C020000000B
:100BA00000000000050443286542210C02000000FB
:100BB0000000000005F84121122221E2010000009E
:100BC0000000000005F00325500225A001000000F0
:100BD0000000000004F0030110000100000000000C
:100BE0000000000006000638700221F003600000DB
:100BF000000000000710021680003F80001610025F
:100C0000000000000410022550021A00000000003D
:100C10000000000005F00308400002F0030000009F
:100C20000000000005F02308444002F20300000029
:100C30000000000005F00304A000111002000000F5
:100C4000000000000500021F100001F0030000007A
:100C50000000000005F00302C00002F003000000E5
:100C60000000000005F00304400004F00300000051
:100C70000000000005F00301100001F00300000077
:100C80000000000005100001F0030110000000004A
:060C900000000000053029
:100C960000CC00030C30000000000000000007E05C
:100CA600012110E2FF100221E0010000000005F022
:100CB600032000023F00060000000000000005704F
:100CC6000008800008F0030000000000000007F0A4
:100CD600032000023F000220F0030000000008F09D
:100CE600032000023F000220F0036000000006100F
:100CF6000001F0032440021800000000000007F085
:100D06000324400224800100F0030000000005F0E7
:100D160003244002248001000000000000000410AB
:100D2600022550021E00000000000000000008F02E
:100D3600030440001E10022110021E000000056080
:100D46000219900009F0030000000000000005FCF5
:100D56004322244222C4010000000000000005FCDA
:100D660043000440000400000000000000000700EB
:100D76000E3870C22004C23F000E000000000904B5
:100D8600C210B00004FC0304B0C010040200050445
:100D96004222244222D8010000000000000006FC86
:100DA6000310C0000308C03F00000000000006FC5E
:100DB6000310C1100308C03F00000000000006FC3D
:100DC60003026080090441200000000000000600C4
:100DD600C21F04400004C03F00000000000006FCE3
:100DE600430004400004C03F000000000000060C61
:100DF6000223C0010C30C00000000000000007F014
:100E0600801008C13F088110F0000000000007FCB8
:100E1600032000022000C23F000E00000000063C36
:100E2600000440000440C03F00000000000009FC30
:100E36000320000220FC0320000220FC03000AFC21
:100E46000320000220FC0320000220FC03E007042C
:100E56004000FC0322200222C0010000000007FC23
:100E66000322200222C00100FC030000000005FC52
:100E76000322200222C00100000000000000060438
:100E8600422224422228010F00000000000009FC33
:100E96000302F08010044220048210F000000600D5
:100EA6008213C4400444C03F0000000000000580D7
:100EB6004125504225E0030000000000000005E047
:100EC6004121104221E0010000000000000005F071
:100ED6004120004220F0030000000000000005FC55
:100EE6002300122221EC0100000000000000068011
:100EF600130F8CC008F1003800000000000007F056
:100F06008010054220058210F0000000000006FC5B
:100F1600112000022001C21F00000000000004187A
:100F2600400224800100000000000000000009F0DB
:100F36008120E44451144551048420F00100072027
:100F4600011220C11F2001122001000000000530FF
:100F560040CC00430C30000000000000000006807A
:100F6600030F8CD008F000380000000000000200DB
:100F7600000000000560342A32640564322A3462B7
:100F8600043844C4440004027C545400037E56567C
:100F9600000005027C5454020402447C44000346CB
:100FA6007E4600000502447C440205027E0A127E4B
:100FB600053A44444438053846464638053A4646D6
:100FC600463805023C40403C043E42423E00050293
:100FD6006C687040046C6A72440005046A6A744264
:100FE600033048C8000004023458500004345A52F2
:100FF600040003325852000003020C780000040C6F
:101006007A020400030278020000047A120A7200CF
:101016000502344848300504324A4C300504324A49
:101026004C32043A4420780005043A4224780200FF
:1010360000000000015E000000000306000600003C
:101046000568386C382C034CFE64000005641A3CB5
:10105600582605304C5A2450020806000000033872
:101066004482000003824438000003140A1400007E
:06107600032070200000C1
:10107C0001C000000000031010100000014000002F
:10108C00000004C0300C0200043C42423C0003440B
:10109C007E4000000362524C0000034A4A340000B8
:1010AC000418147E1000034E4A320000043C4A4AD5
:1010BC0030000402720A060004344A4A3400040C5C
:1010CC0052523C0001480000000001C80000000022
:1010DC000310284400000428282828000344281062
:1010EC00000003520A040000057884B2AABC057003
:1010FC001C121C70047E4A4A3400043C42424200DA
:10110C00047E42423C00037E4A4A0000037E0A0AE7
:10111C000000043C42523000047E10107E0003425A
:10112C007E4200000340423E0000047E1028440032
:10113C00047E40404000057E0418047E047E0810A6
:10114C007E00043C42423C00047E12120C00043C23
:10115C004242BC00047E12126C0003444A3200006E
:10116C0003027E020000043E40403E00041E60600C
:10117C001E00051E6018601E05422418244205023C
:10118C00047804020462524A460002FE8200000007
:10119C0004020C30C0000282FE00000005300C027C
:1011AC000C300580808080800202040000000368FF
:1011BC0068700000047E4848300003304848000046
:1011CC00043048487E00033058500000027C0A006E
:1011DC0000000430A8A87800047E10087000017A82
:1011EC000000000002807A000000047E10284000FD
:1011FC00017E000000000578107810780478100843
:10120C00700004304848300004F84848300004307E
:10121C004848F800037810080000035058280000D4
:10122C00023C48000000043840207800041860603C
:10123C0018000518603860180448303048000498CD
:10124C00E060180003685858000003106C8200001E
:10125C0001FE0000000003826C100000052010103D
:10126C00201003686C72000003324C4A00000432F8
:10127C004C4A7E0003305C52000003325C5200008A
:10128C000408780402000478120C72000430484CF4
:10129C003200037A140A000003525C2A000004088E
:1012AC003C480600043840247A000430442A740078
:1012BC00049860641A00036A5C5A000005603824C4
:1012CC003A60043846464600047E46463800047CA4
:1012DC0054540200037C5656000003447C46000024
:1012EC00047E0A127E0005384444443A047E162AD1
:1012FC004000034A562600000504067E0604043C02
:10130C0040423C00043C40423C00050408740A0482
:10131C00046456564C00036868F000000430484CD6
:10132C0002000330D850000003127E08000004783D
:10133C00100C72000450582C02000468585C020017
:10134C0003685A58000005603824B86004384444D7
:10135C004600037CD454000005207C504040047CA3
:10136C0008127C00044854240200046454544E00B7
:10137C00046454564C0003384C360000037858383B
:10138C0000000378080800000560382838600568FC
:10139C00107810680358583000000478201078003A
:1013AC000478221278000478102840000440380891
:1013BC007800047810107800037810780000050885
:1013CC007808780805080878080804986020180040
:1013DC00053048FE483004784040F80004182020BE
:1013EC0078000578407840780578407840F8050812
:1013FC0008785020047850207800037850200000A2
:10140C0003585830000005781030483003502878C5
:10141C000000037C54240000037C0404000005E05D
:10142C005C447CC00544287C2844035454280000A8
:10143C00047C10087C00047C12087C00047C1028BE
:10144C00440004403C047C0005047C047C04044CF3
:06145C0030100C00053009
:1014620048FC4830047C4040FC00040C10107C0016
:10147200057C407C407C057C407C40FC05047C5023
:101482005020047C50207C00047C505020000354E7
:1014920054380000057C103844380368147C00007E
:1014A200046A68724000043248483200043A40201C
:1014B2007A00047C025C200005603A243A60053A16
:1014C2004444443A05023C40423C040C12120C00D3
:1014D200057C82BAAA7C035078500000049AE0602E
:0814E2001A0005603A2438608D
:10C8F6007580FFD292C293D29100308704C2918094
:04C90600F6C29122C2
:10C9BA0012C8F6C2928F80D29100C291D29275802B
:02C9CA00FF224A
:10C9CC0012C8F6D293C2928F80D29100C291D292A9
:01C9DC002238
:10C71F0012C8F67580FFD293D29100C29112C8F65B
:0DC72F007580FFD293D29100AF80C291229D
:0ACAED00D291D293D2927580FF22FD
:10B54100C2A6C2A7C291C2A5D2A6D2A77F0F7E0072
:10B5510012C2D0D2A57F0F7E0012C2D0C2A6C2A74E
:10B56100D2A77FC012C9BA7F4012C9BA7FB812C927
:10B57100BA7F3F12C9BAC2A7D2A67FC012C9BA7F89
:10B581004012C9BA7FB812C9BA7F3F12C9BAC2A65E
:04B5910012CAED22CB
:10C96E00C291D2A6D2A77F3F12C9BAC2A6C2A7123F
:03C97E00CAED22DD
:10C48000C291D2A6D2A7E4FEEE24B8FF12C9BAE444
:10C49000FDE4FF12C9CC0DBD40F70EBE08EAC2A6EE
:06C4A000C2A712CAED2242
:10AD2700A907C203753D01D204C29174B82DFD7401
:10AD3700B8253CF53CAE05EEC3953C5041D203AD7A
:10AD470001EDC39B5035EDC413135403FFA2A6E4D2
:10AD5700336F6002D20330031AC203EF24FF92A6B7
:10AD6700A2A6B392A7AF0612C9BAED543F2440FF7B
:10AD770012C9BAE4FF12C9CC0D80C60E80B9C2A6AB
:06AD8700C2A712CAED2272
:10848D008B3DAE07A905C203E4FD7B01D204C29169
:10849D00EEC41313540324FF9202E9131313541F54
:1084AD00F53FA202B392A7A20292A624B8FF12C969
:1084BD00BAEE543F2440FF12C9BAE95407FFEBA8A6
:1084CD0007088002C333D8FCFB12C71FAD07EE545B
:1084DD003F2440FF12C9BAEEC3953D400302859774
:1084ED00EEC413135403FFA202E4336F6002D203F0
:1084FD00AA01EAC3953E4003028588EAD394404021
:10850D0002C204EA131313541F653F6002D20330F5
:10851D000355C203300405AF0512C9CCD204EEC415
:10852D001313540324FF9202EA131313541FF53F40
:10853D00A202B392A7A20292A624B8FF12C9BAEE64
:10854D00543F2440FF12C9BA7B01EA5407FFEBA840
:10855D0007088002C333D8FCFB12C71FAD07EE54CA
:10856D003F2440FF12C9BA300105EB42058004EBF0
:10857D00F45205EB25E0FB0A0284FFC3E53E99D3D7
:10858D0094085002D2030E0284E4AF0512C9CCC286
:07859D00A6C2A712CAED22DD
:10AD8D00A907C206754001D207C29174B82DFD7492
:10AD9D00B8253FF53FAE05EEC3953F5041D206AD08
:10ADAD0001EDC39B5035EDC413135403FFA2A6E46C
:10ADBD00336F6002D20630061AC206EF24FF92A648
:10ADCD00A2A6B392A7AF0612C9BAED543F2440FF15
:10ADDD0012C9BA7FFF12C9CC0D80C60E80B9C2A6AA
:06ADED00C2A712CAED220C
:10987C008D3B8B3CA907E4FB753D01C291E9C413F8
:10988C0013540324FF9203A203B392A7A20392A63C
:10989C00E53B131313541F24B8FF12C9BAE9543F04
:1098AC002440FF12C9BAE53B5407FFE53DA8070861
:1098BC008002C333D8FCF53DAA01E53CFDE92DFF40
:1098CC00E433FEEAD39FEE6480F8748098504CEA3F
:1098DC00C413135403FFA203E4336F6024EF24FF7B
:1098EC009203A203B392A7A20392A6E53B13131310
:1098FC00541F24B8FF12C9BAEA543F2440FF12C9BE
:10990C00BA12C71FAB07EA543F2440FF12C9BAE58D
:10991C003D4203AF0312C9CC0A809FC2A6C2A71254
:03992C00CAED225F
:109DCF008F318B32A905E4FA753301C291E531C4A5
:109DDF001313540324FF92A6A2A6B392A7E9131359
:109DEF0013541F24B8FF12C9BAE95407FFE533A86B
:109DFF0007088002C333D8FCF533AB31E532253188
:109E0F00FFE433FEEBD39FEE6480F87480985048E4
:109E1F00EBC413135403FFA2A6E4336F6016EF24B1
:109E2F00FF92A6A2A6B392A7E9131313541F24B847
:109E3F00FF12C9BAEB543F2440FF12C9BA12C71F11
:109E4F00AA07EB543F2440FF12C9BAE5334202AFD1
:109E5F000212C9CC0B0B80A4C2A6C2A712CAED2254
:10B72B008B30A907C291E9D3943F4003D38001C367
:10B73B0092A6A2A6B392A7AC05E530FBED2BFFE4D6
:10B74B0033FEECC39FEE6480F87480985018EC24A1
:10B75B00B8FF12C9BAE9543F2440FF12C9BA7FFFA0
:0EB76B0012C9CC0C80D3C2A6C2A712CAED220E
:1085A4008F3B8D3C8B3DC202E4F97D01D203C29125
:1085B400E53BC41313540324FF9201E53C13131346
:1085C400541FF53EA201B392A7A20192A624B8FFBC
:1085D40012C9BAE53B543F2440FF12C9BAE53C54E2
:1085E40007FFEDA807088002C333D8FCFD12C71F9C
:1085F400A907E53B543F2440FF12C9BAAC3CE53D12
:10860400253CFFE433FEECD39FEE6480F87480983D
:1086140040030286ACECD394404002C203EC131333
:1086240013541F653E6002D202300271C20230034D
:1086340005AF0112C9CCD203EC131313541FF53E3A
:10864400A201B392A7A20192A624B8FF12C9BAE567
:108654003B543F2440FF12C9BA7D01EC5407FFED9F
:10866400A807088002C333D8FCFD12C71FA907E579
:108674003B543F2440FF12C9BAE53C253DFFE43397
:10868400FEEC2408FBE433FAC3EB9FEE6480F8EAC3
:10869400648098500879FFD20274072CFCED4201E3
:1086A400ED25E0FD0C028602AF0112C9CCC2A6C2C0
:0586B400A712CAED222F
:1088DC008F2F8D308B31D3E5349538E5376480F8A4
:1088EC00E5336480984006853733853834C3E534E6
:1088FC009536E5356480F8E5336480985006853507
:10890C0033853634AF2FAD30AB3112987CAF2FE5B9
:10891C0030253214FDAB3112987CAF2FAD30E532DF
:10892C0014FB1285A4E52F2531FFAD30E53214FB85
:10893C001285A4E53124FFFDE434FFFCC3E5349536
:10894C0036FFE5339535FE12298DC3E5389536FD96
:10895C00E5379535FC1229F6AE07E52F04FF2EF509
:10896C003AD3952F4012E53004FDAB3AE530253271
:10897C0014F53ED20112848DE52F2531FFE433FE30
:10898C00C3E53A9FEE6480F87480985017AF3AE5CF
:10899C003004FDE52F2531FBE530253214F53EC2C0
:1089AC000112848DE539F4602890052E7404F0AE24
:1089BC0033EE3395E085340C8E0BF50AF509E52F73
:1089CC00253114FFAD30E4FBE5394480F5431271D9
:0289DC00612216
:10BD2000900529EFF014601E04703590052A740008
:10BD3000F0A374E4F0A3740CF0A37410F0E4A3F087
:10BD4000A304F0A3F02290052A740FF0A37474F0FA
:10BD5000A37408F0A37406F0E4A3F0A304F0A3F026
:01BD600022C0
:1045E0008F4F8D50AF03C207E4FB75520175530125
:1045F000755401D208E54FD3947F4003024993E5F7
:1046000050D3943F4003024993C29190052DE0FEA0
:10461000EF8EF0A4FFAEF090052AE0FCA3E02FF5AA
:1046200057EC3EF556855782F583E493F558E54FF0
:10463000C41313540324FF9206E550131313541F9D
:10464000F551A206B392A7A20692A624B8FF12C9FA
:10465000BAE54F543F2440FF12C9BA90052EE0FF3F
:1046600064016008EF6403600302484F900529E08D
:10467000FF64026008EF64036003024725A95090BD
:10468000052CE02550FFE433FEE9C39FEE6480F87B
:10469000748098400302498CD207AA4FE54F2558F1
:1046A000FFE433FEEAC39FEE6480F8748098506E96
:1046B000EAC413135403FFA206E4336F6002D20767
:1046C000300729C207EF24FF9206E9131313541F82
:1046D000F551A206B392A7A20692A6EA543F24403F
:1046E000FF12C9BAE55124B8FF12C9BA90052EE0ED
:1046F000B40314E5572553F582E43556F583E49366
:10470000F4FF12C9CC8011E5572553F582E43556E4
:10471000F583E493FF12C9CC05530A02469C740842
:1047200029F902467FE4FB855782855683A393F5DA
:1047300055AA4FE54F2558FFE433FEEAC39FEE64C8
:1047400080F87480984003024837EAC41313540376
:10475000FFA206E4336F6002D207755201E55054A0
:1047600007FFE552A807088002C333D8FCF552A919
:104770005090052CE02550FFE433FEE9C39FEE6422
:1047800080F87480984003024828E9D3944040029E
:10479000C208E9131313541F65516002D207300792
:1047A0005230081490052EE0B40308EBF4FF12C950
:1047B000CC8005AF0312C9CCD208C207EAC41313D8
:1047C000540324FF9206E9131313541FF551A20654
:1047D000B392A7A20692A6EA543F2440FF12C9BA98
:1047E000E55124B8FF12C9BAE9D395504003755278
:1047F00001E4FBE55555546004E5524203E55225BA
:10480000E0F552E554B480160553755401E557257B
:1048100053F582E43556F583E493F5558006E55467
:1048200025E0F5540902477190052CE0D394085017
:1048300002D2070A02473390052EE0B40309EBF4D5
:10484000FF12C9CC02498CAF0312C9CC02498CE5D6
:10485000505407FFE552A807088002C333D8FCF57F
:104860005212C71FAB07E54F543F2440FF12C9BA8D
:10487000AA4FE54F2558FFE433FEEAC39FEE64805C
:10488000F87480984003024987EAC413135403FF65
:10489000A206E4336F6002D207A95090052CE025F0
:1048A00050FFE433FEE9C39FEE6480F874809840C3
:1048B00003024978E9D394404002C208E913131374
:1048C000541F65516002D207300757C207AF031269
:0448D000C9CCD20875
:1048D400EAC41313540324FF9206E9131313541F59
:1048E400F551A206B392A7A20692A6EA543F244029
:1048F400FF12C9BAE55124B8FF12C9BA755201E9C9
:104904005407FFE552A807088002C333D8FCF552C8
:1049140012C71FAB07EA543F2440FF12C9BAE55738
:104924002553F582E43556F583E493555460299074
:10493400052EE0FFB40207E552F45203801AEFB4E7
:104944000412E5525B6007E552F45203800AE55213
:1049540042038004E5524203E55225E0F552E55452
:10496400B4800705537554018006E55425E0F554D9
:104974000902489B90052CE0D394085002D2070A00
:10498400024872AF0312C9CCC2A6C2A712CAED2252
:10A8E3008F408D418B428A438944E4F545AF40ADA7
:10A8F30041AB42AA43A9448545827583001228F9D6
:10A90300FB1245E0AB42AA43A94485458275830007
:10A913001228F9FF90052DE0FEEF8EF0A4FF9005BD
:10A923002AE0FCA3E02FF582E5F03CF583E493FFF6
:10A9330090052FE0FEEF2E2540F540054585458225
:10A943007583001228F9FF600AF46007E540D39489
:04A953007F409A2285
:10A591008F408D418B428A438944E4FFAB42AA43F9
:10A5A100A9448F827583001228F9FE6006F46003C6
:10A5B1000F80E98F45E545D394004050E54524FFE0
:10A5C100FFE434FFAB42AA43A9448F82F5831228EA
:10A5D100F9FB90052DE0FFEB8FF0A4FF90052AE039
:10A5E100FCA3E02FF582E5F03CF583E493FF9005B1
:10A5F1002FE0FEEF2EFFC3E5409FF540C3940040DE
:0DA601000BAD41AF401245E0154580A92288
:10944A008F3E8D3F8B408A418942E4F544F545AB16
:10945A0040AA41A9428544827583001228F9FF6017
:10946A0007F46004054480E7E4F543E543C3954403
:10947A00503BAB40AA41A94285438275830012281A
:10948A00F9FF90052DE0FEEF8EF0A4FF90052AE08B
:10949A00FCA3E02FF582E5F03CF583E493FF900509
:1094AA002FE0FEEF2E2545F545054380BE90052F9A
:1094BA00E0FFC3E5459FF545C313FFC3E53E9FF5AE
:1094CA003EE4F543E543C395445057AF3EAD3FAB49
:1094DA0040AA41A9428543827583001228F9FB12EA
:1094EA0045E0AB40AA41A942854382758300122810
:1094FA00F9FF90052DE0FEEF8EF0A4FF90052AE01B
:10950A00FCA3E02FF582E5F03CF583E493FF900598
:10951A002FE0FEEF2E253EF53ED3947F50040543FF
:03952A0080A222FA
:109BE4008B4F8A508951AF0CAE0BAD0AAC0912BE33
:109BF400DB8F0C8E0B8D0A8C09AF0912CAE7AB4FB1
:109C0400AA50A951900007EF12296BAF0912CAE2BA
:109C1400AB4FAA50A951900006EF12296BAF0A125C
:109C2400CAE7AB4FAA50A951900005EF12296BAFB8
:109C34000A12CAE2AB4FAA50A951900004EF1229AC
:109C44006BAF0B12CAE7AB4FAA50A951900003EFB8
:109C540012296BAF0B12CAE2AB4FAA50A951900064
:109C640002EF12296BAF0C12CAE7AB4FAA50A951ED
:109C7400900001EF12296BAF0C12CAE2AB4FAA504D
:079C8400A951EF122959223A
:107161008F408D418B42E4F54DE50930E720D20394
:10717100AF0CAE0BAD0AAC09122BA4EF2401F50C38
:10718100E43EF50BE43DF50AE43CF5098002C20357
:107191007B007A007944129BE4E54330E708754EA1
:1071A1002E53437F8003754E2CE542704075420893
:1071B100C3E5429543D39401400F74432542F8E659
:1071C10070071542E542B401E720030302725190B2
:1071D1000529E0FF6003B4010974442542F8762DC6
:1071E100800774442542F8760B05428063754C088C
:1071F1007443254CF8E67027E54C14FFE543C39F23
:10720100501D900529E0FF6003B401097443254C2A
:10721100F8762080077443254CF8760AD54CD13096
:10722100032EE4F54C900529E0FF6003B4010D74D1
:1072310043254CF8E6B42011762D80147443254C77
:10724100F8E6B40A04760B8007054CE54CB408D582
:10725100900529E0FF6003B40103754D30E4F54C5E
:10726100E54CC39542400302734D7444254CF8E646
:10727100FB254DFF90052DE0FEEF8EF0A4FF90055C
:107281002AE0FCA3E02FF582E5F03CF583E493FFCF
:10729100C3E5409FF540EBC394204009AF40AD41A9
:1072A1001245E08010AF40AD417444254CF8E6250D
:1072B1004DFB1245E0E543D39400500302733DE5D5
:1072C1004C2401FFE433FEEF65437001EE706D90D5
:1072D1000529E0FF60046401703390052DE0FFE5AE
:1072E1004E8FF0A4FF90052AE0FCA3E02FF582E584
:1072F100F03CF583E493FF900530E02FFFC3E540B8
:107301009FF540FFAD41AB4E1245E0802F90052D1A
:10731100E075F00EA4FF90052AE0FCA3E02FF582B2
:10732100E5F03CF583E493FF900530E02FFFC3E5E2
:10733100409FF540FFAD417B0E1245E090052FE0E7
:0D734100FFC3E5409FF540054C027261223C
:107870008F408D418B428A438944C207E4F54975A4
:107880004A01F54B754C03754D01D2089000021268
:1078900028F9F545C291E540C41313540324FF921F
:1078A00006E541131313541FF548A206B392A7A28D
:1078B0000692A624B8FF12C9BAE540543F2440FFFF
:1078C00012C9BAE5415407FFE54AA807088002C378
:1078D00033D8FCF54A12C71F8F49E540543F244076
:1078E000FF12C9BA854046AB42AA43A944900001A1
:1078F0001228F92540FFE433FEC3E5469FEE64807D
:10790000F874809840030279FAE546C413135403CF
:10791000FFA206E4336F6002D207854147E54125A7
:1079200045FFE433FEC3E5479FEE6480F87480981A
:1079300040030279ECE547D394404002C208E54792
:10794000131313541F65486002D20730075DC20746
:10795000300805AF4912C9CCD208E546C413135408
:107960000324FF9206E547131313541FF548A2069C
:10797000B392A7A20692A624B8FF12C9BAE546544C
:107980003F2440FF12C9BA754A01E5475407FFE595
:107990004AA807088002C333D8FCF54A12C71F8FD4
:1079A00049E546543F2440FF12C9BAAB42AA43A955
:1079B00044854C82854B831228F9554D6006E54A73
:1079C00042498005E54AF45249E54A25E0F54AE591
:1079D0004DB4800D054CE54C7002054B754D018092
:1079E00006E54D25E0F54D054702791DE545D394A3
:1079F000085002D20705460278E7AF4912C9CCC247
:077A0000A6C2A712CAED2285
:103DE4008F378D388B39AF0CAE0BAD0AAC097880A8
:103DF400122CBCD203C204C205E53A30E708753B75
:103E04002E533A7F8003753B2CE539B40907D2055C
:103E14007539088020E539B40A07D204753904805D
:103E240014E53AD394074003E4F53AE539D394080A
:103E340040037539087B007A007975129BE4787D1C
:103E4400A639787DE6FFC39408500B74752FF8E407
:103E5400F6787D0680EC90052E7403F0E53A702325
:103E6400E53925E0FFE53975F005A42F2406787FB0
:103E7400F63005052406F6801B300418787F060604
:103E8400068011E53925E0FFE53975F005A42F24F6
:103E940008787FF6AF37E538131313541FFEFDE59A
:103EA40037787F26FBEE2402F53F12AD8DE53914F9
:103EB400787DF675A61E75A6E112000EEF122D612F
:103EC4003F12013EF2023F52033F32043F92053F4C
:103ED40079063F73074089414089423F79433F1245
:103EE400813EF2823F52833F32840000408B12CAEB
:103EF4006E787DE62475F8E6C394095003068002C3
:103F0400E4F6D203750E19D20AD20D02408B12CAFE
:103F14006E787DE62475F8E6D3940040031680029B
:103F24007609D203750E19D20AD20D02408B12CA39
:103F34006E787DE6D394004003168006E539147844
:103F44007DF6D203750E0AC20AD20D02408B12CA44
:103F54006EE53914FF787DE6C39F5003068004E4C0
:103F6400787DF6D203750E0AC20AD20D02408B2068
:103F74000F0302408B7880122C608F0C8E0B8D0AFD
:103F84008C0912CA6EE490052EF0C20FC32212CA25
:103F94006E7876E675F00AA41826F6E4F509F50AB3
:103FA4007877E6FF7E007C007D6412298DAA06AB3B
:103FB400077878E6FF7E007C037DE812298DEF2BDD
:103FC400FFEE3AFE7875E67C002FF50CEC3EF50B1F
:103FD400787BE6FFE4FDFE7B407A42790FF8122AF3
:103FE40087C004C005C006C007787CE6FFE4FCFD7A
:103FF400FE7B807A967998F8122A87D003D002D073
:1040040001D000EF2BFFEE3AFEED39FDEC38FCC099
:1040140004C005C006C007787AE6FFE4FCFDFE7B19
:10402400A07A867901F8122A87D003D002D001D071
:1040340000EF2BFFEE3AFEED39FDEC38FCC004C076
:1040440005C006C0077879E6FFE4FCFDFE7B107A24
:1040540027F9F8122A87D003D002D001D000EF2B21
:10406400FFEE3AFEED39FDEC38FCE50C2FF50CE5DE
:104074000B3EF50BE50A3DF50AE5093CF509E4902C
:02408400052E07
:10408600F0D322D203200303023EB7C20312C96E45
:10409600E53A7023E53925E0FFE53975F005A42FEB
:1040A6002406787FF63005052406F6801B300418B2
:1040B600787F0606068011E53925E0FFE53975F0BB
:1040C60005A42F2408787FF6E537787F2624F7188D
:1040D600F6E408F6787FE6C395394003023EB71842
:1040E600E6FEFFE538131313541FFCFDEE2405FB13
:1040F600EC2402F53F12AD8D200A07797FE718669A
:104106006033787FE62475F8E6FEB40113787EE620
:1041160004FFE5382402FDEE2430FB1245E080154D
:10412600787EE6FFE5382402FD08E62475F8E624E5
:1041360030FB1245E030052C787FE62401FFE4339E
:10414600FEEF64044E6006EF64064E7017787E1626
:104156001616E6FFE5382402FD7B2E1245E0787E32
:1041660016168070300425787FE62401FFE433FEBE
:10417600EF64024E701618161616E6FFE53824028E
:10418600FD7B3A1245E0787E16168048E53AD394D0
:1041960000403D787FE62401FFE433FEEF653A7088
:1041A60001EE702C787E74FC26F6E53BB42E0FE605
:1041B60004FFE5382402FDAB3B1245E0800E787E15
:1041C600E6FFE5382402FDAB3B1245E0787E80042D
:1041D600787E1616787E74FB26F608060240DA22EA
:105366008F2D8D2E8A2F8B30D20390052E7403F04D
:10537600900529E0B401057532058003753209E50B
:105386003124FFFFE434FFFEE5302FF582EE352FA2
:10539600F583E064207028E53114786EF6786EE6C1
:1053A600FFD39400401FEF24FFFFE434FFFEE530F7
:1053B6002FF582EE352FF583E0B420091680DEE561
:1053C6003114786EF6E47870F67870E6FFC395319E
:1053D6005016E5302FF582E4352FF583E0B420032F
:1053E600745FF078700680E1E5318532F0A4FFE560
:1053F6003125E02F2406FF7870F6FEAF2DE52E133B
:105406001313541FFCFDE52D2EFBEC2402F53F1271
:10541600AD8D75A61E75A6E112000EEF122D615414
:105426009F0154500255110354F104553A05553065
:1054360006556741556742553043549F8154508203
:1054460055118354F1840000556912CA6E786EE6D0
:105456002530F582E4352FF583E0FFB45F0574301F
:10546600F0802AEFC394395005E004F0801FEFB4B2
:10547600390D3002057441F08013745FF0800EEF31
:10548600C3945A5005E004F08003745FF0D20375AC
:105496000E19D20AD20D02556912CA6E786EE62529
:1054A60030F582E4352FF583E0FFB45F0D30020559
:1054B600745AF0802B7439F08026EFD3944140055E
:1054C600E014F0801BEFB441057439F08012EFD37D
:1054D60094304005E014F08007EFB43003745FF0B9
:1054E600D203750E19D20AD20D807812CA6EE53132
:1054F60014FF786EE6C39F5003068004E4786EF6C8
:10550600D203750E0AC20AD20D805812CA6E786E80
:10551600E6D394004003168006E53114786EF6D281
:1055260003750E0AC20AD20D803912CA6EE49005BE
:105536002EF0C32212CA6EE47870F67870E6FFC3C6
:1055460095315016E5302FF582E4352FF583E0B41A
:105556005F037420F078700680E1E490052EF0D3A6
:1055660022D203200303025418C20312C96EE52D8A
:105576002404786FF6E408F67870E6C395314003A4
:1055860002541818E6FE24FEFFE52E131313541FCB
:10559600FCFDE5322EFBEC2402F53F12AD8D200A10
:1055A6000A7970E718667003025657900529E0B429
:1055B600011C786FE6FFE52E2404FD08E62530F58C
:1055C60082E4352FF583E0FB1245E00256577870EA
:1055D600E62530F582E4352FF583E0FB24CF603CE9
:1055E60024E8603824FC601824FC601424FA70480F
:1055F600786FE624FEFFE52E2402FD1245E0805179
:10560600786FE614FFE52E2402FD08E62530F582C4
:10561600E4352FF583E0FB1245E08035786FE6042C
:10562600FFE52E2402FD08E62530F582E4352FF548
:1056360083E0FB1245E08019786FE6FFE52E240231
:10564600FD08E62530F582E4352FF583E0FB1245AB
:0E565600E0E5322402786F26F6080602557E43
:015664002223
:06CB3A00AD1A12C73C22F7
:10B2DC008B3E8A3F8940E4F541AB3EAA3FA9401220
:10B2EC0028E0FF6037F4603490052DE0FEEF8EF01F
:10B2FC00A4FF90052AE0FCA3E02FF582E5F03CF5D5
:10B30C0083E493FF90052FE0FEEF2E2541F5417469
:10B31C00012540F540E4353FF53F80BD90052FE019
:09B32C00FFC3E5419FF541FF223A
:106729008B398A3A893B8D3C753D01D203E53C3072
:10673900E705C203533C7FE4F51BAB39AA3AA93BF1
:10674900851B827583001228F9FF6009B4FF0205D1
:106759003D051B80E5E490052EF012C480E4F5099F
:10676900E509C3953D40030267F1E53CD394004038
:1067790020E5090475F035A4FFE53D04FEEF8EF030
:1067890084FF90052CE0FEC313FEC3EF9EF50A803B
:106799001EE5090475F040A4FFE53D04FEEF8EF007
:1067A90084FF90052CE0FEC313FEC3EF9EF50A7F1C
:1067B90040AD0AAB39AA3AA93B12944AAB39AA3A75
:1067C900A93B1228E0FF6010F4600D7401253BF528
:1067D9003BE4353AF53A80E47401253BF53BE43571
:1067E9003AF53A0509026769E53CD394005003027A
:1067F9006969E53CC39430400302689FE53C24EF96
:106809006020146033146046240370567E177FBAE3
:10681900AD1A12C73CAA06A9077539FF8A3A893BFE
:1068290080407E177FC0AD1A12C73CAA06A907751A
:1068390039FF8A3A893B802A7E827F55AD1A12C771
:106849003CAA06A9077539FF8A3A893B80147E82DA
:106859007F62AD1A12C73CAA06A9077539FF8A3AA1
:10686900893BAB39AA3AA93B12B2DC8F1BC3746DC1
:10687900951BFF7D357BFF7A1479FD127870C374FF
:106889007D951BFFAB39AA3AA93B12A8E330030354
:1068990012C95A7F05227F037D357BFF7A1579104E
:1068A900127870E53C24CF601F1460042402702E16
:1068B9007E177FC0AD1A12C73CAA06A9077BFF7FC6
:1068C900137D3512A8E380167E177FE6AD1A12C72D
:1068D9003CAA06A9077BFF7F137D3512A8E3E53C97
:1068E90024CF603314601A240270407E177FBAAD3A
:1068F9001A12C73CAA06A9077539FF8A3A893B804B
:106909002A7E177FCFAD1A12C73CAA06A907753987
:10691900FF8A3A893B80147E177FDEAD1A12C73C85
:10692900AA06A9077539FF8A3A893BAB39AA3AA958
:106939003B12B2DC8F1BC3746D951BFF7D357BFF4A
:026949007A14BE
:10694B0079FD127870C3747D951BFFAB39AA3AA9F8
:10695B003B12A8E330030412C701227FFF227FFF03
:01696B002209
:10C73C00EDD3940040150FBF00010E8F828E83E461
:0CC74C009370ED1D0FBF00010E80E52270
:105C54008B2A8A2B892CE47875F6D200D201900025
:105C6400031228F9D3940740037FFF227D017C00AF
:105C7400E4F51BAB2AAA2BA92C9000031228F9FFE8
:105C8400E51BC39F502A900007122A42FFE5F05CEF
:105C9400FEEF5DB5050FEEB5040B7875E6246EF8DE
:105CA400A61B787506ED25E0FDEC33FC051B80C3CF
:105CB4007875E670037FFF2212000EEF122D615CEF
:105CC400E2015D9C025E14055E0E065E29415E29BA
:105CD400425E0E435CE2815D9C8200005E2B12CA30
:105CE4006EAB2AAA2BA92C9000091228F9FF78750B
:105CF400E614FEEFC39E4003025E2B900004122DB7
:105D040031EA496005751B108003E4F51BE4FFE5E7
:105D14001B131313541FFD7B05753C0812AD27ABF1
:105D24002AAA2BA92C900009740112292690000498
:105D3400122D31E94A4B701AAB2AAA2BA92C9000D8
:105D44000A1228F9FF9000091228F9C39FD394037B
:105D5400502AAB2AAA2BA92C900004122D31EA490F
:105D6400602AAB2AAA2BA92C90000A1228F9FF90CA
:105D740000091228F9C39FD394024010AB2AAA2B1E
:105D8400A92C90000A7401122926D201D200750EA2
:105D940019D20AC20D025E2B12CA6EAB2AAA2BA913
:105DA4002C9000091228F9D39400407B900004122F
:105DB4002D31EA496005751B108003E4F51BE4FFEF
:105DC400E51B131313541FFD7B05753C0812AD2707
:105DD400AB2AAA2BA92C90000974FF122926900043
:105DE4000A1228F9FF9000091228F9FEC39F500FE8
:105DF400AB2AAA2BA92C90000AEE12296BD201D24D
:105E040000750E19D20AC20D801D12CA6E7FFF22C0
:105E140012CA6EAB2AAA2BA92C9000091228F924C5
:105E24006EF8E6FF22D200200003025CBCC200121E
:105E3400C96E200103025ED4C20112C480752D0212
:105E4400AB2AAA2BA92C900004122D31EA49601820
:105E5400E4FFFDAB2AAA2BA92C900004122D3112C9
:105E6400A8E37410252DF52D90052E7401F0AB2AAE
:105E7400AA2BA92C90000A1228F9F51BE51BC3785C
:105E840075965047AB2AAA2BA92C90000A1228F920
:105E94002404FFE433FEC3E51B9FEE6480F87480A2
:0C5EA400985028122D11AE02AF01746E50
:105EB000251BF8E6FD12C73CAA06A9077BFF7F0851
:105EC000AD2D12A8E37410252DF52D051B80B1E42E
:105ED00090052EF0AB2AAA2BA92C900004122D318C
:105EE000EA496005751B108003E4F51B300A2DE4B8
:105EF000FFAB2AAA2BA92C90000A1228F9FE9000C9
:105F0000091228F9C39EC454F0FEE51B24042EFD9B
:105F10007BFF7A157982127870025CBCE4FFE51B86
:105F2000131313541FFD7B05753C0812AD27025C4B
:025F3000BC2291
:1097B8008F308D318A328B33D200E535C3953440F2
:1097C80003E4F535E53024F4FFE5312402FD7BFFA1
:1097D8007A15798212787090052E7401F012000EB5
:1097E800EF14602E24FC604C14603E24C3603A24BD
:1097F800C2601F1460042480704512CA6EE53414D8
:10980800FFE535C39F500405358003E4F535D200E4
:10981800802D12CA6EE535D39400400415358005B5
:10982800E53414F535D200801612CA6EE490052E80
:10983800F07FFF2212CA6EE490052EF0AF35223079
:10984800009BC20012C96EAF30E531131313541FC9
:10985800FD7B802402F53C12AD27AF33AE32AD3527
:1098680012C73CAA06A9077BFFAF30AD3112A8E3A7
:049878000297E5224C
:10C2FF007F0A7D3012C7587F0B7D0212C7587F4AC5
:10C30F007D2012C7587F4BE4FD12C7587F0C12C710
:0EC31F00C48F237F0D12C7C48F23E523332262
:10C75800D293D291D292C2908F80C293C2928D808E
:0BC76800D292D290D2937580FFD322B2
:10C7C400D293D291D292C2908F80C2937580FFC2CD
:0AC7D40091AF80D291D290D293224F
:06CB4000E4FF12C7C4224D
:06CB46007F0212C7C422A9
:06CB4C007F0412C7C422A1
:06CB52007F0712C7C42298
:06CB58007F0812C7C42291
:09CB01007F0912C7C47420FE2252
:10C9FF00AD07EDD3945940027D59E4FF12C7582279
:10CA0F00AD07EDD3945940027D597F0212C75822CA
:10CA1F00AD07EDD3942340027D237F0412C7582224
:10C82B00AD07EDC3940150027D01EDD3943140026D
:08C83B007D317F0712C758226E
:10C5E700AE07EEC3940150027E01EED394124002CF
:10C5F7007E127F067D0112C7587F08AD0612C75805
:01C607002210
:10C8CC00AD07AC06C3EC942050047C207D007F099E
:05C8DC00ED12C7582217
:10C77300AB07AA06AC057F50EBFD12C758EAFD0FC5
:0BC7830012C7587F53AD0412C75822A4
:10C87300AB07AA067F50EBFD12C758EAFD0F12C79C
:07C88300587F5312C7C422C5
:03C7DE000119003E
:10BAB300C2AEE4F5D875D90375DA09F5DBF5DCF523
:10BAC300DDF5DEC39FFFE49EFEEFF518EEF5178567
:10BAD30018E98517F9C3ED9401EC940050047C0038
:10BAE3007D01C3E49DFDE49CFCEDF5EAECF5FA432E
:08BAF300DA4075D840D2AE2202
:06CB5E00C2AEE4F5D8228E
:0300330002C843BD
:10C8430030D804C2D8B2A230DF0DB2A2C2DE85183E
:08C85300E98517F975D84032A0
:10C88A00E5D220E0FBC2AF43D2028F828E83E0FF63
:06C89A0053D2FDD2AF22D3
:07CB330030A002C322D3224F
:10C8A000E5D220E0FBC2AF75D2028F828E83EDF01D
:06C8B000E4F5D2D2AF2234
:0ACAF70053C3BF75C33C43C3402284
:0BCACC00E4F5C5E5C430E7FBAFC52270
:080003008FC5E5C430E7FB22C4
:10C9810012CA9A7FD712000312CACC8F6C12CB70D5
:03C99100AF6C2266
:10C68900756A13756B8812C981EF30E702D322E509
:0EC699006B156B7002156A14456A70EAC322B5
:10C608008E6A8F6B12CA9A7F84120003E4FF1200AD
:10C6180003E56A5401FF120003AF6BE56B120003D8
:01C6280022EF
:10C03B008E6A8F6B12CA9A7F83120003E56BAE6A0E
:10C04B007806CEC313CE13D8F9FF120003E56BAEFF
:10C05B006A7802C333CE33CED8F9FF120003E4FF64
:07C06B0012000312CB70224A
:10B779008E6A8F6B8C6C8D6D12CA9A7FE8120003EA
:10B78900E56BAE6A7806CEC313CE13D8F9FF120063
:10B7990003E56C5401FFAE6BEE25E025E04FFF1287
:10B7A9000003AF6DE56D120003E4FF120003E4FF2F
:0EB7B900120003E4FF120003E4FF120003225B
:10B9420012CAF77FFF7E0512C873EF7F00FEC007A1
:10B95200C0067FFE7E0512C873EFFDD0E0FED0E088
:10B962004DFF900531EEF0A3EFF0C3EE9410500BB3
:10B97200900531E0FEA3E0FF12A03E74FF90053176
:0AB98200F0A3F0900537F0A3F022C7
:10B815008F618E608D5F8C5E7809122BE68E628F4C
:10B8250063900531E0FEA3E0FF65637003E5626E9A
:10B835006007AD63AC6212C55F900531E562F0A3A8
:10B84500E563F0C3E56294105011E561FFE56054CE
:0CB8550001FEE4900535EEF0A3EFF022B8
:10B59500AD07900536E02400FF900535E03406FE42
:10B5A50012C773900536E004F07006900535E00487
:10B5B500F0C3900535E094024028900531E0FCA3E6
:10B5C500E0FFAE042401FDE43CFC12C55FE49005F8
:10B5D50035F0A3F0900532E004F07006900531E0F7
:03B5E50004F0224D
:0ECA8C0012B98C12A4898F4212CB70AF4222D5
:10C90A0012B815AF4812B5957FFE7EFF7DFF7CFFFA
:04C91A0012B8152218
:10B98C008F5F8E5E8D5D8C5C7809122BE69005378F
:10B99C00EEF0FAA3EFF0FBE55FFFE55E5401FEE489
:10B9AC00900533EEF0A3EFF0900531E0FEA3E06BD1
:10B9BC007002EA6E6013900537E0FEA3E0FF90057D
:0AB9CC0033E0FCA3E0FD12B779227E
:10A48900900531E0FEA3E0FF900537E0B5061AA379
:10A49900E0B50715900534E02400FF900533E0345A
:10A4A90006FE12C8738F5C800512CACC8F5C9005BA
:10A4B90034E004F07006900533E004F0C3900533EE
:10A4C900E094025003AF5C2212CB70E4900533F0A4
:10A4D900A3F0900538E004F07006900537E004F029
:10A4E900900531E0FCA3E0FD900537E0FEA3E0FF15
:10A4F9006D7002EE6C600B900533E0FCA3E0FD1279
:05A50900B779AF5C22F0
:10C55F008C648D6575A61E75A6E1C3EE941050030D
:10C56F0012A03EC3E56494105007AF65AE6412BAD3
:02C57F006A222E
:10A03E008E668F67E4FFFE12C608E4F568F569E4E4
:10A04E002569FFE5683406FE12C873120003056920
:10A05E00E56970020568C3E568940240E212CB70B0
:10A06E00AF67AE6612C03B12C689AF67AE66E4FD3F
:10A07E00FC12B779E4F568F569E42569FFE5683403
:10A08E0006FE12C873C00712CACCAE07D007EF6E19
:10A09E00600512CB70C3220569E56970020568C3BD
:10A0AE00E568940240D312CB707FFE7E057DFF12D1
:0DA0BE00C7737FFF7E057DFF12C773D3229D
:10BA6A008E668F67E4FDFC12B779E4F568F5691212
:10BA7A00CACCAD07E42569FFE5683406FE12C77330
:10BA8A000569E56970020568C3E568940240E01239
:10BA9A00CB707FFE7E05AD67E56712C773E566FD6D
:09BAAA007FFF7E0512C773D32251
:10C1DE00AB07AA068B828A83122CD400000000EBD8
:10C1EE002404F582E43AF583122CD400000000AE4C
:10C1FE0002AF03EF2408F582E43EF583E4F0A3F0EA
:01C20E00220D
:10A50E008E458F468F828E83C083C082E0FCA3E08F
:10A51E00FDA3E0FEA3E0FFAB4AAA49A948A8471253
:10A52E0023CCD082D083122CC8E5462404F582E4D5
:10A53E003545F583C083C082E0F8A3E0F9A3E0FAC5
:10A54E00A3E0FBC000C001C002C003AF4AAE49ADDC
:10A55E0048AC47AB4AAA49A948A8471224BDD00324
:10A56E00D002D001D0001223CCD082D083122CC8BE
:10A57E00E5462408F582E43545F583E475F00112CD
:03A58E002A2C2252
:10BB43008E4B8F4C8F828E83E5822408F582E435F9
:10BB530083F583E0FAA3E0FB4A7005FFFEFDFC22B8
:10BB6300AD03AC02E41226E6A804A905AA06AB07B6
:10BB7300854C82854B83E0FCA3E0FDA3E0FEA3E0BC
:05BB8300FF1225C6229F
:108BE0008E388F398F828E83E5822408F582E435B2
:108BF00083F583E0FEA3E0D39401EE940050097F57
:108C0000007E007D007C0022853982853883E0FC6F
:108C1000A3E0FDA3E0FEA3E0FFA804A905AA06FBCC
:108C20001224BDC004C005C006C007E5392408F5FC
:108C300082E43538F583E0FCA3E0FDE41226E6A8E3
:108C400004A905AA06AB07D007D006D005D00412A8
:108C500025C68F3D8E3C8D3B8C3AE5392404F58248
:108C6000E43538F583E0FCA3E0FDA3E0FEA3E0FFDC
:108C7000AB3DAA3CA93BA83A1223C88F3D8E3C8D40
:108C80003B8C3A7F6F7E127D837C3AAB3DAA3CA938
:108C90003BA83A122663600250097F007E007D00E7
:108CA0007C0022E5392408F582E43538F583E0FEBE
:108CB000A3E024FFFDEE34FFFCE41226E6A804A99D
:108CC00005AA06AB077F007E007D807C3F1225C68B
:0F8CD000AB3DAA3CA93BA83A1224BD129B3E2201
:10BB88008F3B8E3A8D398C387F6F7E127D837C3A5D
:10BB9800AB3BAA3AA939A83812266350097F007E20
:10BBA800007D007C0022AB3BAA3AA939A838AF3FF8
:10BBB800AE3EAD3DAC3C1225C67B007A0079C87814
:05BBC800421224BD2221
:10952D008F3B8E3A8D398C387F6F7E127D837C3ADE
:10953D00AB3FAA3EA93DA83C12266350097F007E91
:10954D00007DC87C4222AC40E41226EB7B007A0001
:10955D0079C878421225C6AB3BAA3AA939A8381268
:10956D0024BDAB3FAA3EA93DA83C1225C68F448E13
:10957D00438D428C417F007E007D407C40AB44AAF0
:10958D0043A942A841122663600B40097F007E006B
:10959D007DC87C4222AF44AE43AD42AC4112C240C5
:1095AD008F508E4F8D4E8C4DAF44AE43AD42AC417E
:1095BD001276C48F488E478D468C457B007A007994
:1095CD000078401224BD8F488E478D468C45AB48A0
:1095DD00AA47A946A8457F007E007D807C3F1223C7
:1095ED00C88F488E478D468C457F007E007DC87C98
:0D95FD0042AB48AA47A946A8451224BD224A
:10C240008F4C8E4B8D4A8C491226D0AB4CAA4BA9F1
:10C250004AA8491224BD7B007A0079007840122553
:10C26000C6129F477B2A7A4279CC783E1224BD229F
:1076C4008F4C8E4B8D4A8C497F897E337D6D7C3EF9
:1076D400AB4CAA4BA94AA8491224BD7B007A007975
:1076E40080783F1223CCA804A905AA06AB077F0023
:1076F4007E007D807C3F1225C68F548E538D528C24
:10770400517FFA7E857DA37C3EAB54AA53A952A82F
:10771400511224BD8F5C8E5B8D5A8C59AF54AE537D
:10772400AD52AC51AB54AA53A952A8511224BD8FE7
:10773400588E578D568C55AB5CAA5BA95AA859C074
:1077440000C001C002C0037F877E8F7DB67CBEABC4
:1077540058AA57A956A8551224BDD003D002D00167
:10776400D0001223CC8F5C8E5B8D5A8C59AF58AEEF
:1077740057AD56AC55AB54AA53A952A8511224BDC7
:107784008F588E578D568C55AB5CAA5BA95AA85955
:10779400C000C001C002C0037F787E077DE47C3F47
:1077A400AB58AA57A956A8551224BDD003D002D06D
:1077B40001D0001223CC8F5C8E5B8D5A8C59AF584C
:1077C400AE57AD56AC55AB54AA53A952A851122486
:1077D400BD8F588E578D568C55AB5CAA5BA95AA8A1
:1077E40059C000C001C002C0037FEA7E1E7DE97C4F
:1077F400BFAB58AA57A956A8551224BDD003D0022E
:10780400D001D0001223CC8F5C8E5B8D5A8C59AF83
:1078140058AE57AD56AC55AB54AA53A952A8511201
:1078240024BD8F588E578D568C55AB5CAA5BA95AD4
:10783400A859C000C001C002C0037F6F7E467DAA64
:107844007C3FAB58AA57A956A8551224BDD003D0E3
:1078540002D001D0001223CC8F5C8E5B8D5A8C59E0
:0C786400AB50AA4FA94EA84D1224BD2223
:10C27000900511122CC8AF51AE50AD4FAC4E900589
:10C2800015122CC8AF55AE54AD53AC5290050912DF
:10C290002CC8E490050FF0A3F090050DF0A3F02258
:10B10F008F4D8E4C8D4B8C4A900511E0FCA3E0FDCA
:10B11F00A3E0FEA3E0FFAB4DAA4CA94BA84A122611
:10B12F0063401D900515E0FCA3E0FDA3E0FEA3E046
:10B13F00FFAB4DAA4CA94BA84A1226636011400FD2
:10B14F00900510E004F0700690050FE004F02290D7
:0EB15F00050EE004F0700690050DE004F022ED
:10B0500090050DE07002A3E0700D90050FE0700206
:10B06000A3E070037F642290050FE0FEA3E0FFE4FD
:10B07000AA06AB0790050DE0FEA3E0FFE4EF2BFF6F
:10B08000EE3AFEE433FDE433FCC004C005C006C064
:10B090000790050DE0FEA3E0FFE4FCFD7B64FAF9F8
:10B0A000F8122A87D003D002D001D000122B12222E
:10C78E00E4FDEF2408F582E43EF58375F002ED1228
:0BC79E002D05E4F0A3F00DBD27E822FC
:107514008E508F518F828E83E0F8A3E0F9A3E0FAB6
:10752400A3E0FBC3E5559BF555E5549AF554E553A3
:1075340099F553E55298F5527F007E007D007C005A
:10754400AB55AA54A953F8C3122BBF50030275F6C6
:10755400E5512404F582E43550F583E0FCA3E0FD15
:10756400A3E0FEA3E0FF7B277A0079007800122ACB
:10757400877B027A007900780012BC9AAB55AA5432
:10758400A953A852C3122BBF4013E5512454F582CA
:10759400E43550F583E475F001122A2C22E55124D8
:1075A40004F582E43550F583E0FCA3E0FDA3E0FE9E
:1075B400A3E0FF7B027A007900780012BC9AEF25E1
:1075C40055FFEE3554FEED3553FDEC3552FCE551D7
:1075D4002404F582E43550F583E0F8A3E0F9A3E050
:1075E400FAA3E0FB12BC9A8F5674132556F5560283
:1075F40076A9AF55AE54AD53AC52122BB18F558E04
:10760400548D538C52E5512404F582E43550F583AE
:10761400E0FCA3E0FDA3E0FEA3E0FF7B277A007972
:10762400007800122A877B027A007900780012BC65
:107634009AAB55AA54A953A852C3122BBF4013E5C1
:10764400512408F582E43550F583E475F001122ADB
:107654002C22E5512404F582E43550F583E0FCA3A3
:10766400E0FDA3E0FEA3E0FF7B027A00790078004E
:1076740012BC9AEF2555FFEE3554FEED3553FDEC63
:107684003552FCE5512404F582E43550F583E0F8E5
:10769400A3E0F9A3E0FAA3E0FB12BC9A8F56C374EB
:1076A400139556F556E5512408F582E43550F583D3
:1076B40075F002E556122D05E475F001122A2C220C
:1089DE008E3B8F3C75440075430075420075410017
:1089EE00E4F545E53C2408F582E4353BF58375F066
:1089FE0002E545122D05E0FEA3E0FFE4FCFDAB44CD
:108A0E00AA43A942A841C3122BBF5021E53C24081A
:108A1E00F582E4353BF58375F002E545122D05E050
:108A2E00FEA3E0FFE48F448E43F542F5410545E594
:108A3E0045B427AFAB40AA3FA93EA83DAF44AE43D5
:108A4E00AD42AC4112BC9AAC00AD01AE02AF037B9D
:108A5E00007A0079007800C3122BBF5034AF44AEB9
:108A6E0043AD42AC41AB40AA3FA93EA83D12BC9AD1
:108A7E008F448E438D428C417A0079007800EF242A
:108A8E0001F544EA3EF543E93DF542E83CF5418007
:108A9E001BAF44AE43AD42AC41AB40AA3FA93EA88A
:108AAE003D12BC9A8F448E438D428C417F007E00D6
:108ABE007D007C00AB44AA43A942A841C3122BBF40
:108ACE0070067F01FEFDFC22AF44AE43AD42AC41C9
:018ADE002275
:108CDF008E498F4AED75F002A4FFAEF0E4FCFD85DE
:108CEF004A82854983E0F8A3E0F9A3E0FAA3E0FB09
:108CFF00122A877B647A007900780012BC9A7B274E
:108D0F007A007900780012BC9AE54A2404F582E4CF
:108D1F003549F583122CC8E54A2404F582E4354918
:108D2F00F583E0FCA3E0FDA3E0FEA3E0FF7B017A67
:108D3F000079007800D3122BBF4012E54A2404F5C6
:108D4F0082E43549F583122CD400000001E54A2452
:108D5F0004F582E43549F583E0FCA3E0FDA3E0FED2
:108D6F00A3E0FF7B277A0079007800122A877B0225
:108D7F007A007900780012BC9A854A82854983E08F
:108D8F00F8A3E0F9A3E0FAA3E0FBC3122BBF503521
:108D9F00E54A2404F582E43549F583E0FCA3E0FDC0
:108DAF00A3E0FEA3E0FF7B277A0079007800122A68
:108DBF00877B027A007900780012BC9A854A8285F7
:068DCF004983122CC822AA
:10C4A600E4FDEF2408F582E43EF58375F002ED1213
:10C4B6002D05E0FAA3E0D39400EA94004002C322DB
:06C4C6000DBD27DED322AC
:108FB8008E318F328F828E83E0FCA3E0FDA3E0FE2A
:108FC800A3E0F5368E358D348C338F82E582240408
:108FD800F582E43531F583E0FEA3E08E39F53A8F6A
:108FE80082E5822406F582E43531F583E0FEA3E0CC
:108FF8008E3DF53E8F82E5822408F582E43531F511
:1090080083E0F5408F82E5822409F582E43531F565
:1090180083E0F54174FFF53BF53CE4F537F538C3DB
:10902800E538953AE53795395043AF36AE35AD3426
:10903800AC3312CA8C8F3FE53F65406005E53FB50C
:10904800410885373B85383C8023E4FCFDE536251F
:109058003EF536E535353DF535ED3534F534EC3549
:1090680033F5330538E5387002053780B2E5322428
:109078000AF582E43531F583E53BF0A3E53CF0E5FC
:1090880032240CF582E43531F583E53FF0E53CB454
:0F909800FF0CE53BB4FF07AF32AE3112B7C72272
:10B7C7008E428F438F828E83E0FCA3E0FDA3E0FED1
:10B7D700A3E0FFE5432408F582E43542F583E0F56D
:10B7E7004812C90AE543240AF582E43542F583E4A1
:10B7F700F0A3F0E5432408F582E43542F583E0FF42
:0EB80700E543240CF582E43542F583EFF02290
:10992F008E4A8F4B8C4C8D4D8A4E8B4F8F828E83F0
:10993F00E582240AF582E43583F583E0FEA3E08E09
:10994F0050F551AE4AFDAC50AB4DAA4CE4F558F56D
:10995F0059854E5A854F5B12BCDE4002C32205511A
:10996F00E55170020550E54B2404F582E4354AF5C4
:10997F0083E0FEA3E0FFC3E5519FE5509E401FE447
:10998F00F550F551E54B2409F582E4354AF583E0AE
:10999F00FFE54B240CF582E4354AF583EFF0E54BF8
:1099AF00240AF582E4354AF583E550F0A3E551F03A
:1099BF00AF4BAE4AAD51AC50E4FBFA12B38E12B8B6
:1099CF0015E54B240CF582E4354AF583E0FF12B51B
:0399DF0095D322FB
:10BCDE008A568B5730A002C322AB59AA5812B38E84
:10BCEE0012B815E4F55CF55DC3E55D955BE55C9515
:10BCFE005A501D855782855683E0FF12B59505571C
:10BD0E00E55770020556055DE55D7002055C80D84D
:02BD1E00D3222E
:10BDA2008A548B55AB57AA5612B38E12B98CE4F54E
:10BDB2005AF55BC3E55B9559E55A9558501D12A497
:10BDC20089855582855483EFF00555E55570020546
:0FBDD20054055BE55B7002055A80D812CB7022D6
:10AAA900AD07AC06ED2408F582E43CF583E0FFED43
:10AAB900240CF582E43CF583E0B5071AED240AF588
:10AAC90082E43CF583E0FEA3E04E70057EFF7FFF44
:10AAD900227E007F0022ED2404F582E43CF583E028
:10AAE900FEA3E024FFFFEE34FFFEED240AF582E425
:10AAF9003CF583E0FAA3E0FBB50709EEB502057E54
:0CAB0900007F0022EB2401FFE43AFE2252
:10B68B00AD07AC06ED240AF582E43CF583E0FAA3A2
:10B69B00E0FB4A7032ED2408F582E43CF583E0FFD1
:10B6AB00ED240CF582E43CF583E0B507057EFF7FC6
:10B6BB00FF22ED2404F582E43CF583E0FEA3E024B5
:10B6CB00FFFFEE34FFFE22EB24FFFFEA34FFFE22E6
:10AB81008E4B8F4CBCFF08BDFF057EFF7FFF22ED82
:10AB91004C7033E54C2408F582E4354BF583E0FF36
:10ABA100E54C240CF582E4354BF583E0B507057ED1
:10ABB100FF7FFF22E54C2404F582E4354BF583E069
:10ABC100FEA3E0AC06FDED1D70011CE54C240AF569
:10ABD10082E4354BF583E0FEA3E0B50509ECB5064B
:0BABE100057EFF7FFF22AE04AF0522BF
:10A7F6008E508F51BCFF08BDFF057EFF7FFF22E50F
:10A80600512404F582E43550F583E0FEA3E024FFED
:10A81600FFEE34FFFEEF6D7002EE6C7025E55124FD
:10A8260008F582E43550F583E0FFE551240CF58206
:10A83600E43550F583E0B507057EFF7FFF2274FF00
:10A84600FCFD0DBD00010CE551240AF582E43550EE
:10A85600F583E0FEA3E0B50509ECB506057EFF7FAE
:07A86600FF22AE04AF052242
:10B38E008E5E8F5F8A608B61AE04AF05E4FCFDA814
:10B39E0004A905AA06AB07E55F2406F582E4355E2F
:10B3AE00F583E0FEA3E0FFE4122A87855F82855EC7
:10B3BE0083E0F8A3E0F9A3E0FAA3E02FFBEA3EFA5C
:10B3CE00E93DF9E83CF8E4FCFDEB2561FFEA356068
:08B3DE00FEED39FDEC38FC2204
:10C9940043878075CAC475CBFF75C8347598521225
:03C9A400CB1B2288
:03CB7D00A2992258
:08CB1300309904C2998F9922A8
:03CB8000A2982256
:0BCAD7002098037F0022C298AF992234
:08CB1B00C2ACC2983099FD2262
:10C6A700EDD3940050047D018008EDD39409400236
:0EC6B7007D09EF2424F582E43EF583EDF022A8
:10C35A008E4B8F4CE4FB854C82854B8375F004EB46
:10C36A00122D05122CD4000000000BBB09E8E54C85
:0CC37A002425F582E4354BF583E4F02225
:10A37C008E4B8F4C8F828E83E5822424F582E435BC
:10A38C0083F583E0FF606FEF14F9E9D39400403557
:10A39C00E975F004A424FCFFE5F034FFFEE54C2F36
:10A3AC00F582EE354BF583E0FCA3E0FDA3E0FEA3C4
:10A3BC00E0FF854C82854B8375F004E9122D051264
:10A3CC002CC81980C5E54C2424F582E4354BF58363
:10A3DC00E0FFE54C2425F582E4354BF583E0C39F83
:10A3EC005003E004F0AF50AE4FAD4EAC4D854C82F7
:07A3FC00854B83122CC822DF
:10A156008E568F578F828E83E5822425F582E435CD
:10A1660083F583E07005FFFEFDFC22755B00755AE2
:10A1760000755900755800E4FBE5572424F582E480
:10A186003556F583E0FFEBC39F502D8557828556E4
:10A196008375F004EB122D05E0FCA3E0FDA3E0FEC1
:10A1A600A3E0255BF55BEE355AF55AED3559F559C1
:10A1B600EC3558F5580B80C1E5572425F582E43572
:10A1C60056F583E0FFE4FCFDFEF8F9FAAB07AF5B5A
:0AA1D600AE5AAD59AC5812BC9A22E3
:10C6C500EF2424F582E43EF583E0FDEF2425F58291
:0EC6D500E43EF583E0C39D4003D38001C32201
:10ADF3008E4B8F4C12A1568F558E548D538C52E42B
:10AE0300F551E54C2424F582E4354BF583E0FFE569
:10AE130051C39F503F854C82854B8375F004E551A8
:10AE2300122D05E0FCA3E0FDA3E0FEA3E0C39555CE
:10AE3300FFEE9554FEED9553FDEC9552FC12C17750
:10AE4300AB50AA4FA94EA84DC3122BBF5002C32229
:06AE5300055180AED32280
:02C7E100C10E87
:0DCA9A00300E05D294C2B222C294D2B22254
:05CB7000D294D2B222B4
:10B9D6008E3B8F3C8C3D8D3EEE3395E0FDFC12B8E0
:10B9E600157410253CF97402353BAF01F53F8F40C5
:10B9F600E4F541C3E541953EE53D6480F8748098E1
:10BA06005017854082853F83E0FF12B5950540E5D6
:0ABA1600407002053F054180DA226E
:10AA3A007F007E007D007C0012B98C75230275248C
:10AA4A0010E4F52512A489852482852383EFF00575
:10AA5A0024E524700205230525E525C3947040E406
:10AA6A0012CB70900210E064017002A3E060101231
:10AA7A00A0CB7FFF7EFF7DFF7CFF127B8EC3227EF1
:10AA8A00027F1012C8E190027FE06F601012A0CB23
:0FAA9A007FFF7EFF7DFF7CFF127B8EC322D322C6
:107B8E008F3A8E398D388C3730A002C32290021076
:107B9E007401F0A3E4F07E027F1012C8E190027F20
:107BAE00EFF07FFF7EFF7DFF7CFFAB3AAA39A9384D
:107BBE00A837C3122BD57015FFFE7D70FC12B9D6F7
:107BCE007FFE7EFF7DFF7CFF12B815D322E53A546F
:107BDE0001FFE4FEFDFCEF6007E4FF7D0212B9D663
:107BEE00E53A5402FFE4FEFDFCEF60067F020D1243
:107BFE00B9D6E53A5404FFE4FEFDFCEF60067F04BF
:107C0E000D12B9D6E53A5408FFE4FEFDFCEF60060E
:107C1E007F050D12B9D6E53A5410FFE4FEFDFCEFD8
:107C2E0060067F060D12B9D6E53A5420FFE4FEFD3C
:107C3E00FCEF60067F070D12B9D6E53A5440FFE41B
:107C4E00FEFDFCEF60067F080D12B9D6E53A5480B2
:107C5E00FFE4FEFDFCEF60067F090D12B9D6E4FFCE
:107C6E00E5395401FEE4FDFCEE60097F0D7E007DDA
:107C7E001112B9D6E4FFE5395402FEE4FDFCEE60C4
:107C8E00087F0A7E000D12B9D6E4FFE5395404FED2
:107C9E00E4FDFCEE60087F0B7E000D12B9D6E4FF0A
:107CAE00E5395408FEE4FDFCEE60087F0C7E000D05
:107CBE0012B9D6E4FFE5395410FEE4FDFCEE60097E
:107CCE007F1E7E007D5112B9D6E4FFE5395420FEA9
:107CDE00E4FDFCEE60087F037E000D12B9D67F6FC7
:107CEE007E007D017C0012B9D67FFE7EFF7DFF7C7B
:067CFE00FF12B815D322AD
:10C8E100E4FDFCEF2CF582E43EF583E02DFD0CBC6C
:05C8F1006FF1AF05220C
:10ACC000900284E0900214F0900285E0900215F06A
:10ACD000900286E0900216F0900287E0900217F052
:10ACE000900288E0900218F0900289E0900219F03A
:10ACF00090028AE090021AF090028BE090021BF022
:10AD000090028CE090021CF0782E7C027D017B0189
:10AD10007A02799E7E007F511228B77FFF7EFF7DE9
:07AD2000FF7CFF127B8E2275
:10A0CB009002107401F0A3E4F0A304F09002147456
:10A0DB000FF0A3F0A3F0A3F0A37432F0A37404F079
:10A0EB00E4A3F0A37428F0A3740AF0E4A3F09002A5
:10A0FB001F74FFF0E4A3F0A3F0A3F0A3F0A3F0A36D
:10A10B00F0A3F0A3F090022EF0A3F0A3F0A3F0A322
:10A11B00F0A3F0FFE4FEEF75F00FA42434F582E416
:10A12B003402F583E5822EF582E43583F5837420C2
:10A13B00F00EBE0FE10FBF05DBE4900213F07E02C1
:0BA14B007F1012C8E190027FEFF022AD
:10BD6100E4F530F53175320475334AF5340531E5C2
:10BD710031AE307002053014FF12C88A85338285D6
:10BD81003283EFF00533E533700205320534E534D3
:10BD9100C3948340D890044AE0C3940A4002E4F07B
:01BDA100227F
:10B3E60030A002C32275320475334AE4F530F531D4
:10B3F600D200F53475A61E75A6E1300009C200120A
:10B40600CB334002C322AF31AE30853382853283DF
:10B41600E0FD12C8A00531E531700205300533E5BF
:10B426003370020532E531543F7002D2000534E52F
:08B4360034C3948340BED3220D
:10C0A70020A0307F527E0A7D007C0012B815752AC9
:10C0B70004752B4AE4F52C852B82852A83E0FF1231
:10C0C700B595052BE52B7002052A052CE52CC394A5
:04C0D7008340E4229C
:0DCAA700001F1C1F1E1F1E1F1F1E1F1E1F15
:10B226008E428F438D828C83A3A3E0FF8543828564
:10B236004283A3A3E06F70418D828C83A3A3A3E016
:10B24600FF854382854283A3A3A3E0B5072BAE0403
:10B25600AF05EF2404F582E43EF583E0FEA3E0FFAC
:10B26600E5432404F582E43542F583E0FCA3E0B52A
:0BB276000707ECB50603D38001C322DC
:10B28100C206900004122A4254037002D2069000B2
:10B29100021228F924FFF550E434FFF54F90000322
:10B2A1001228F9D39401402E7F019000031228F94E
:10B2B10014FEEFD39E501FEF90CAA7932550F5506F
:10B2C100E4354FF54F30060BBF02080550E55070CD
:0BB2D10002054F0F80D4AE4FAF50229B
:10C2A0008B4C8A4D894E900004122A425403700D23
:10C2B00012B281C3746E9FFF74019EFE22AB4CAA22
:10C2C0004DA94E12B281C3746D9FFF74019EFE2270
:107A07008B448A458946900004122A42FFAEF0ABA8
:107A170047AA48A949900004122A42FDACF0C39F27
:107A2700EC9E50057E007F0022AB44AA45A94690F4
:107A37000004122A426D7003EC65F0704390000356
:107A47001228F9FDAB47AA48A9499000031228F963
:107A5700FCC39D50057E007F0022EC6D7052AB4445
:107A6700AA45A9469000021228F9FFAB47AA48A9E0
:107A7700499000021228F9D39F50357E007F0022DB
:107A8700AB44AA45A946900004122A42FFAEF0ABC8
:107A970047AA48A949900004122A42C39FFFE5F06C
:107AA7009EFED3EF94B3EE940040057E007F002244
:107AB700AB44AA45A946900004122A42FFAEF0AB98
:107AC70047AA48A949900004122A426F7003E5F0BB
:107AD7006E7047AB44AA45A946900004122A425447
:107AE700037008754A01754B6E8006754A01754B20
:107AF7006DAB47AA48A94912C2A0AC06AD07AB4473
:107B0700AA45A94612B281EF2DFFEE3CFEC3E54B15
:107B17009FF54BE54A9EF54A8068AB44AA45A946BE
:107B270012C2A08E4A8F4BAB44AA45A946900004C7
:107B3700122A422401FFE435F0FEAB47AA48A949BF
:107B4700900004122A42FDC3EF9DEE95F05026EFF8
:107B57005403700E746E254BF54B7401354AF54A84
:107B6700800C746D254BF54B7401354AF54A0FBFF0
:107B770000010E80C512B281EF254BF54BEE354A59
:077B8700F54AAE4AAF4B22A4
:1082390053617665005361757665672E0044656CF8
:108249006574650045666661636572005175697498
:108259000051756974746572004E657874005375C0
:108269006976616E740041646400416A6F75746572
:1082790072004368616E6765004D6F646966696580
:1082890072004D6F7665004465706C61632E004421
:1082990061793A004A6F75723A005765696768747F
:1082A9003A00506F6964733A0054686520637572C7
:1082B90076652069732066756C6C004C6120636F6C
:1082C9007572626520657374207361747572826555
:1082D900005468652064617920616C726561647914
:1082E900206578697374732EFF4F766572777269AA
:1082F90074653F004365206A6F75722065786973FC
:1083090074652064656A612EFF4C652072656D7025
:108319006C616365723F0044656C657465207468BF
:10832900652063686F73656EFF6461792066726F9B
:108339006D20746865207461626C653F00537570C7
:108349007072696D6572206C65206A6F7572FF6362
:10835900686F697369206475207461626C65617501
:028369003F00D3
:10A68A007F33E4FD7B4C12987C7F337D3F7B4C12F9
:10A69A00987C7F337D087B4C12987C7F33E4FD7B6A
:10A6AA000812B72B7F7FE4FD7B0812B72B7F4DE49E
:10A6BA00FD7B0812B72B7F33E4FD7B7F753F0112C8
:10A6CA00AD8D7F0112BD2090052E7402F07E177F9A
:10A6DA007112CB3AAA06A9077BFF7F40E4FD1294C8
:10A6EA004A7E177F7A12CB3AAA06A9077BFF7F66B2
:0BA6FA00E4FD12944AE4FF12BD202290
:10C408007F337D3F7B4C12987C7F337D087B4C12B9
:10C41800987C7530137F35AD307B49129DCF740BF6
:0AC428002530F530C3943F40EC22AC
:106D76008F307F0112BD20E530147003026E461479
:106D86007003026EF5147003026E9E147003026E99
:106D9600F524046003026F69E4FF7D017BFF7A1529
:106DA600796F1278707E827F8B12CB3AAA06A9077A
:106DB6007BFF7F0F7D0212A8E3E4FF7D0E7BFF7A47
:106DC6001479FD1278707E827F6F12CB3AAA06A9DB
:106DD600077BFF7F0F7D0F12A8E3E4FF7D1B7BFF80
:106DE6007A1579361278707E827F7B12CB3AAA06A4
:106DF600A9077BFF7F0F7D1C12A8E3E4FF7D287B9C
:106E0600FF7A1579231278707E827F4612CB3AAAD2
:106E160006A9077BFF7F0F7D2912A8E3E4FF7D35D6
:106E26007BFF7A1579101278707E827F5512CB3AE5
:106E3600AA06A9077BFF7F0F7D3612A8E3026F69BA
:106E46007E827F9812CB3AAA06A9077BFFE4FFFD54
:106E560012A8E3E4FF7D287BFF7A1479FD1278708F
:106E66007E827F6212CB3AAA06A9077BFF7F0F7D3F
:106E76002912A8E3E4FF7D357BFF7A157910127895
:106E8600707E177FC012CB3AAA06A9077BFF7F0F39
:106E96007D3612A8E3026F697E827FA312CB3AAADF
:106EA60006A9077BFFE4FFFD12A8E3E4FF7D287B2C
:106EB600FF7A1479FD1278707E827F3912CB3AAA56
:106EC60006A9077BFF7F0F7D2912A8E3E4FF7D3526
:106ED6007BFF7A1579101278707E177FC012CB3A35
:106EE600AA06A9077BFF7F0F7D3612A8E38074E50B
:106EF6003024FC6019240270287E827F9812CB3AD7
:106F0600AA06A9077BFFE4FFFD12A8E380137E8291
:106F16007FA312CB3AAA06A9077BFFE4FFFD12A8BE
:106F2600E3E4FF7D287BFF7A1479FD1278707E8278
:106F36007F3912CB3AAA06A9077BFF7F0F7D29125C
:106F4600A8E3E4FF7D357BFF7A1579101278707E11
:106F5600177FC012CB3AAA06A9077BFF7F0F7D36A3
:096F660012A8E3E4FF12BD202291
:1080F4008E308F31E4FF85318285308375F004EF53
:10810400122D05A3A3E0FCA3E04C60188531828501
:10811400308375F004EF122D05E0FCA3E04C6004FD
:108124000FBF1ED2E4FEEEC39F400302823879E7FC
:10813400EE04F509E509C39F503885318285308303
:10814400AD0975F004ED122D05E0FCA3E0FDE9FB9B
:10815400C3ED9BEC94005016853182853083AD09C4
:1081640075F004ED122D05E0A3E0F985090B05096E
:1081740080C285318285308375F004EE122D05E0CE
:10818400FCA3E0FDE9C39DE49C40030282348531F5
:108194008285308375F004EE122D05E0A3E0F985A5
:1081A4003182853083AD0B75F004ED122D05E0FCB2
:1081B400A3E0FD85318285308375F004EE122D0530
:1081C400ECF0A3EDF0E9FD853182853083AB0B75CE
:1081D400F004EB122D05E4F0A3EDF0853182853037
:1081E4008375F004EE122D05A3A3E0A3E0F9853115
:1081F40082853083AD0B75F004ED122D05A3A3E049
:10820400FCA3E0FD85318285308375F004EE122DE8
:1082140005A3A3ECF0A3EDF0AD0185318285308395
:10822400AB0B75F004EB122D05A3A3E4F0A3EDF062
:058234000E02812A2268
:10A9C9008E308F31E4F9FF85318285308375F0044B
:10A9D900EF122D05A3A3E0FCA3E04C60188531829A
:10A9E90085308375F004EF122D05E0FCA3E04C607F
:10A9F900040FBF1ED2E4FEEEC39F5030853182851D
:10AA0900308375F004EE122D05E0FCA3E0FDE9FBAF
:10AA1900D3ED9BEC9400401185318285308375F02C
:10AA290004EE122D05E0A3E0F90E80CBAF017E0004
:01AA390022FA
:10B16D00E4F530F531FD8F828E8375F004ED122DEF
:10B17D0005A3A3E0FAA3E04A60168F828E8375F0D3
:10B18D0004ED122D05E0FAA3E04A60040DBD1ED6B4
:10B19D00E4FCECC39D50218F828E8375F004EC127C
:10B1AD002D05A3A3E0FAA3E0FBD39531EA9530403A
:0DB1BD00048A308B310C80DAAE30AF3122C5
:10696C008E448F458C468D47E4FD85458285448356
:10697C0075F004ED122D05A3A3E0FEA3E04E601804
:10698C0085458285448375F004ED122D05E0FEA348
:10699C00E04E60040DBD1ED2ED7003FEFF22854556
:1069AC0082854483E0FEA3E0FFC3E5479FE5469E56
:1069BC00500E854582854483A3A3E0FEA3E0FF220D
:1069CC0085458285448375F004ED122D05E58224FE
:1069DC00FCF582E58334FFF583E0FEA3E0FFD3E50D
:1069EC00479FE5469E401F85458285448375F0048C
:1069FC00ED122D05E58224FEF582E58334FFF58347
:106A0C00E0FEA3E0FF22E4FCECC39D503085458200
:106A1C0085448375F004EC122D05E0FEA3E0B54728
:106A2C0019EEB5461585458285448375F004EC1244
:106A3C002D05A3A3E0FEA3E0FF220C80CB7C01EC90
:106A4C00C39D502485458285448375F004EC122D3A
:106A5C0005E0FEA3E0D39547EE954640088C0AEC82
:106A6C0014F50980030C80D7854582854483AF09D2
:106A7C0075F004EF122D05A3A3E0FEA3E0FFE4FCE8
:106A8C00FDA804A905AA06AB07854582854483AFFA
:106A9C000A75F004EF122D05A3A3E0FEA3E0FFE4BA
:106AAC00C3EF9BFFEE9AFEED99FDEC98FCA804A9B0
:106ABC0005C006C007854582854483AF0975F0047F
:106ACC00EF122D05E0FEA3E0FFE4AA06AB07C3E539
:106ADC00479BFFE5469AFEE49400FDE49400FCD04D
:106AEC0003D002122A87C004C005C006C007854522
:106AFC0082854483AF0975F004EF122D05E0FEA3E7
:106B0C00E0FFE4FCFDA804A905AA06AB07854582B5
:106B1C00854483AF0A75F004EF122D05E0FEA3E067
:106B2C00FFE4C3EF9BFBEE9AFAED99F9EC98F8D0E1
:106B3C0007D006D005D00412BC9AA804A905AA0651
:106B4C00AB07854582854483AF0975F004EF122DA0
:106B5C0005A3A3E0FEA3E0FFE4FCFDEB2FFFEA3E60
:066B6C00FEED39EC3822B9
:10C581008F828E83E4F0A304F08F828E83A3A3ECC9
:10C59100F0A3EDF0EF2406F582E43EF583E4F0A389
:02C5A100F02286
:0CCAB4008F828E83A3A3E0FEA3E0FF228C
:102DF8008E2D8F2EE4786EF608F608F608F608761B
:102E08000118F67871E6FFC3941E502F852E82852F
:102E18002D8375F004EF122D05A3A3E0FCA3E04C6D
:102E28006019852E82852D8375F004EF122D05E03B
:102E3800FEA3E04E600578710680C87872E624FE2D
:102E48007003022F4314601A147003022F1C24030A
:102E58006003022F5512C480786EE6FF126D761259
:102E6800A68A7F347D017B4C753C0812AD277F4EC6
:102E78007D017B7D753C0812AD277F2E7D017B325D
:102E8800753C0812AD2712C408E4F52F7870E6FFE8
:102E9800FDE52F2DFDE433FC08E6FBC3ED9B7480B4
:102EA800F86C98506F852E82852D83E52F2F75F04D
:102EB80004122D05E0FEA3E0FFE48F0C8E0BF50A4B
:102EC800F5097F4BE52F75F00BA42408FDE4FBF50D
:102ED80043127161852E82852D83E52F78702675C2
:102EE800F004122D05A3A3E0FEA3E0FFE48F0C8EEF
:102EF8000BF50AF5097F7DE52F75F00BA42408FD75
:102F0800E4FB754383127161052FE52FC3940550C7
:102F180003022E947F2E7D017B32753C0812AD276B
:102F28007F2EC3796FE778709675F00BA4240AFD9D
:102F38007BFF7A1579821278708012E4FFFD7B2E70
:102F4800753C0812AD27786EE6FF126D76E478724C
:102F5800F6786EE614700302317324FE70030232B1
:102F6800791470030233E02404600302348D1200E4
:102F78000EEF122D612FC4012F9C02304E03303802
:102F880004300905313806316E432FC4812F9C82E5
:102F98000000348D786FE6D39400500302348D120C
:102FA800CA6E786F16E6FFC308965009A6077872AE
:102FB800760302348D7872760402348D7871E6FFD8
:102FC800D39400500302348DEF14FF786FE6C39F4B
:102FD800400302348D12CA6E786F0608E62405FF96
:102FE800E433FE18E6C39FEE6480F8748098400AC4
:102FF8007870067872760302348D7872760402341B
:103008008D12CA6E7871E6C3941E500B786E7601E5
:103018007872760202348D7E827FB212CB3AAA068B
:10302800A9077BFF7D101267297872760102348D1B
:103038007871E6700302348D12CA6E786E76047861
:1030480072760202348D7871E6700302348D12CAEA
:103058006E7E837F2012CB3AAA06A9077BFF7D31BB
:10306800126729EF640560077872760102348D785B
:103078006FE6F52F7871E614FFE52FC39F5068853A
:103088002E82852D8375F004E52F122D05E5822407
:1030980004F582E43583F583E0FEA3E0FF852E8204
:1030A800852D8375F004E52F122D05EEF0A3EFF0C2
:0530B800852E82852D2C
:1030BD008375F004E52F122D05E5822406F582E4D3
:1030CD003583F583E0FEA3E0FF852E82852D837584
:1030DD00F004E52F122D05A3A3EEF0A3EFF0052FBD
:1030ED00808D787116E6FFC3941E5013852E828550
:1030FD002D8375F004EF122D05A3A3E4F0A3F07852
:10310D006FE6FED394004018EEC39F401316E6FF02
:10311D00C394055005E408F68006EF24FC7870F69C
:10312D00E4786EF67872760102348D12CA6E78717B
:10313D00E6FFC3941E5013852E82852D8375F004F2
:10314D00EF122D05A3A3E4F0A3F07E187F6812CB38
:10315D003AAA06A9077BFF7D31126729BF0502D365
:10316D002212CA6EC322AF2EAE2D12A9C97873EEEC
:10317D00F608EFF6C394E7EE9403500806E67002E6
:10318D0018068006E47873F608F67873E6FE08E60E
:10319D00FFE48F0C8E0BF50AF509FF12BD20E4FF3D
:1031AD007D087B03F53A123DE4400BE4786EF6782A
:1031BD0072760202348D7F017E007D007C00AB0CA7
:1031CD00AA0BA90AA809C3122BD550277E187F3543
:1031DD0012CB3AAA06A9077BFF7D32126729BF05DC
:1031ED00077872760102348DE4786EF67872760186
:1031FD0002348DC202AE0BAF0C7873A60608A6077B
:10320D00E4F52F7871E6FFE52FC39F5020852E82C0
:10321D00852D8375F004E52F122D05E0FCA3E078D4
:10322D0074667003EC18666004052F80D6E52FC315
:10323D009F50247E827FDA12CB3AAA06A9077BFF24
:10324D007D31126729EF6405600BE4786EF67872B4
:10325D00760102348DD202786E76033002077872D1
:10326D00760102348D7872760202348DAF2EAE2D3A
:10327D0012B16DE48F0C8E0BF50AF509FF12BD200E
:10328D00E4FF7D087B05753A83123DE4400BE4783D
:10329D006EF67872760202348D7F1E7E007D007C84
:1032AD0000AB0CAA0BA90AA809C3122BD540167F97
:1032BD00FF7EFF7D007C00AB0CAA0BA90AA809D3E9
:1032CD00122BD540277E187F3512CB3AAA06A907B7
:1032DD007BFF7D32126729BF0507787276010234B4
:1032ED008DE4786EF67872760102348D300237E413
:1032FD00F52F7871E6FFE52FC39F5020852E82852F
:10330D002D8375F004E52F122D05E0FCA3E07874F4
:10331D00667003EC18666004052F80D6E52FB5079F
:10332D000BE4F52F80067871E6F52F067873E6FE2F
:10333D0008E6FF852E82852D8375F004E52F122D6D
:10334D0005EEF0A3EFF0AE0BAF0C852E82852D832D
:10335D0075F004E52F122D05A3A3EEF0A3EFF020D9
:04336D00021C787155
:10337100E6FFC3941E5013852E82852D8375F004BC
:10338100EF122D05A3A3E4F0A3F0AF2EAE2D128012
:10339100F4E4F52FE52FC37871965038852E828598
:1033A1002D8375F004E52F122D05E0FEA3E078745E
:1033B100667003EE18667018786FA62FE52FC39418
:1033C100055005E408F68008786FE624FC7970F76B
:1033D100052F80C0E4786EF67872760102348D850F
:1033E1002E82852D83786FE675F004122D05A3A337
:1033F100E0FEA3E0FFE48F0C8E0BF50AF509FF1246
:10340100BD20E4FF7D087B05753A83123DE4400A47
:10341100E4786EF67872760280727F1E7E007D00FF
:103421007C00AB0CAA0BA90AA809C3122BD5401624
:103431007FFF7EFF7D007C00AB0CAA0BA90AA809C7
:10344100D3122BD540257E187F3512CB3AAA06A977
:10345100077BFF7D32126729BF05067872760180EE
:103461002BE4786EF6787276018021AE0BAF0C8575
:103471002E82852D83786FE675F004122D05A3A3A6
:10348100EEF0A3EFF0E418F67872760175A61E75DA
:06349100A6E1022E432219
:1041E6002D202020202020200054686520666C6F3A
:1041F600636B20616C72656164792065786973749C
:10420600732EFF456E746572206469666665726515
:104216006E74206E756D6265722E004C65206C6F33
:1042260074206578697374652064656A613AFF6510
:104236006E7472657220756E206E6F6D627265FFA8
:10424600646966666572656E742E005468652073CF
:10425600656C656374656420666C6F636BFF646F81
:1042660065736E27742065786973742EFF53656CC9
:1042760065637420616E6F74686572206E756D6219
:1042860065722E004C65206C6F742063686F6973CD
:1042960069206E27657869737465FF7061733A20CB
:1042A60073656C656374696F6E6E6572FF756E20FB
:1042B6006175747265206E6F6D6272652E00466C54
:1042C6006F636B206E616D653AFFFFFF004E6F6D89
:1042D600206475206C6F743AFFFFFF0055736520EC
:1042E600626F74682067656E646572733F0053651C
:1042F6007061726572206C65732073657865733FB3
:10430600005573652067726F7774682063757276DF
:1043160065733F005574696C6973657220646573D3
:1043260020636F7572626573FF646520706F6964E0
:10433600732073706563696669717565733F004EB6
:104346006F7720796F752063616E20656E74657274
:10435600FF612067726F777468206375727665FFF8
:10436600666F722066656D616C65732E004D6169BE
:104376006E74656E616E742070726F6772616D6DBA
:104386006572FF756E6520636F7572626520646580
:104396002063726F697373616E6365FF66656D6531
:1043A6006C6C6573004E6F7720796F752063616E54
:1043B60020656E746572FF612067726F777468207E
:1043C6006375727665FF666F72206D616C65732E1C
:1043D600004D61696E74656E616E742070726F67F0
:1043E60072616D6D6572FF756E6520636F757262C1
:1043F600652064652063726F697373616E6365FF20
:104406006D116C6573004E6F7720796F752063614F
:104416006E20656E746572FF612067726F777468CF
:104426002063757276652E004D61696E74656E61E6
:104436006E742070726F6772616D6D6572FF756E56
:104446006520636F75726265FF64652063726F69CC
:104456007373616E63652E004C696D6974207468B0
:1044660065207765696768696E67FF627920746998
:104476006D653F004C696D69746572206C652074CA
:10448600656D7073FF64652070657365653F0057E1
:10449600656967682066726F6D3AFFFFFF005065B9
:1044A6007365652010207061727469722064653AC4
:1044B600FFFFFF0057656967682074696C6C3AFFF7
:1044C600FFFF005065736565206A75737175276116
:1044D6003AFFFFFF00486F75727300486575726595
:1044E6007300496E697469616C20776569676874E1
:1044F6003AFFFFFF00506F69647320696E69746943
:10450600616C3AFFFFFF00496E697469616C207740
:104516006569676874FF666F722066656D616C65B4
:10452600733AFFFF00506F69647320696E6974699E
:10453600616CFF706F75722066656D656C6C657376
:104546003AFFFF00496E697469616C207765696797
:104556006874FF666F72206D616C65733AFFFF00C9
:10456600506F69647320696E697469616CFF706F5E
:104576007572206D616C65733AFFFF004E6F2066A1
:104586006C6F636B20666F756E6400506173206498
:1045960065206C6F74FF656E206D656D6F69726561
:1045A6000043686F6F7365206120666C6F636B3ABA
:1045B600FFFFFF0043686F6973697220756E206C98
:0645C6006F743AFFFFFFD5
:1045CC00006E6F206E616D65005061732064652014
:0445DC006E6F6D0091
:10AFEE008C318D328A338B3420A0567B707A007E62
:10AFFE00007C007DFD12298DEF2BFBEA3EFAE53435
:10B00E002BFBE5333AFAFEAF03E4FD12B815E4F577
:10B01E0037F538C3E5389536E5379535502375A69F
:10B02E001E75A6E1853282853183E0FF12B5950546
:10B03E0032E532700205310538E538700205378089
:02B04E00D2220C
:10B1CA008C458D468A478B487B707A007E007C00CE
:10B1DA007DFD12298DEF2BFBEA3EFAE5482BFBE5B4
:10B1EA00473AFAFEAF03E4FD12B98CE4F54BF54C8D
:10B1FA00C3E54C954AE54B9549501D12A4898546ED
:10B20A0082854583EFF00546E54670020545054C03
:0CB21A00E54C7002054B80D812CB70226E
:10C5A3007B707A007E007C007DFD12298DEF2BFBD2
:10C5B300EA3EFAE42BFBE43AFAFEAF03E4FD12CAC7
:02C5C3008C22C8
:10C386008D2B20A0267B707A007E007C007DFD121E
:10C39600298DEF2BFBEA3EFAE42BFBE43AFAFEAFDB
:0CC3A60003E4FD12B815AF2B12B5952270
:10A1E00090021DE070079003BCF0A3F02290021EC5
:10A1F000E0603AA3E0FF12C5A390021FE06F601772
:10A20000E490021DF090021F74FFF07F007E017D3C
:10A21000007C00127B8E2290021FE0FF7C037DAF4A
:10A22000E4FBFAF549754A0D12B1CA80399003AFC3
:10A2300074FFF0E4FF74E62FF582E43441F583E423
:10A2400093FE74B02FF582E43403F583EEF00FBF74
:10A2500008E3E49003B8F0900228E09003B9F0E43A
:0AA26000A3F0A37417F0124D26229C
:10BE5F0090021EE06028A3E0FF7C037DD27B0D7A69
:10BE6F0000754900754A7812B1CA7E037FD27D01F1
:10BE7F007C0012696C9003BEEEF0A3EFF0229002EB
:0EBE8F0029E0FFA3E09003BECFF0A3EFF02266
:10BC12009003B9E0603D90021EE06028A3E0FF7C43
:10BC2200037DD27B857A00754900754A7812B1CAC4
:10BC32007E037FD27D017C0012696C9003C0EEF01E
:10BC4200A3EFF02290022BE0FFA3E09003C0CFF01D
:04BC5200A3EFF0224A
:104D260090021DE0700302505D75470175480575D8
:104D360049397B017A027922127A07EF2401FFE4CE
:104D46003EFE900221E02F9003BDF0900220E03E4F
:104D56009003BCF09003B8E0606690021FE0FF7C11
:104D6600037DD27B0D7A00754900754A7812B1CA67
:104D76007E037FD29003BCE0FCA3E0FD12696C9039
:104D860003BEEEF0A3EFF09003B9E07003024EB657
:104D960090021FE0FF7C037DD27B857A0075490077
:104DA600754A7812B1CA7E037FD29003BCE0FCA399
:104DB600E0FD12696C9003C0EEF0A3EFF0024EB670
:104DC600900220E0FEA3E0FFC39003BDE09FFF90AA
:104DD60003BCE09EFEEF64014E700912BE5F12BC7A
:104DE60012024EB6E4FF1299E28F438E428D418C39
:104DF600407FFF7EFF7D007C00AB43AA42A941A80D
:104E060040D3122BBF400C7543FF7542FF7541001E
:104E1600754000AE42AF439003BEEEF0A3EFF04EF6
:104E2600700312BE5F9003BEE0FEA3E0FFC3941EB4
:104E3600EE94004009D3EF94FFEE94FF40099003EF
:104E4600BEE4F0A3741EF09003B9E060637F011224
:104E560099E28F438E428D418C407FFF7EFF7D001D
:104E66007C00AB43AA42A941A840D3122BBF400CF9
:104E76007543FF7542FF754100754000AE42AF4372
:104E86009003C0EEF0A3EFF04E700312BC12900335
:104E9600C0E0FEA3E0FFC3941EEE94004009D3EFEA
:104EA60094FFEE94FF40099003C0E4F0A3741EF053
:104EB600900214E0FFE4EF2464FBE433FAE433F9F0
:104EC600E433F89003BEE0FEA3E0FFE4FCFD122A03
:104ED600879003C2122CC89003C2E0FCA3E0FDA396
:104EE600E0FEA3E02432FFE43EFEE43DFDE43CFCAC
:104EF6009003C2122CC89003C2E0FCA3E0FDA3E01D
:104F0600FEA3E0FF7B647A007900780012BC9A90D9
:104F160003C2122CC8900215E0FFE4FCFDFEC37428
:104F2600649FFBE49400FAE49400F9E49400F8909A
:104F360003BEE0FEA3E0FFE4122A879003C6122C0C
:104F4600C89003C6E0FCA3E0FDA3E0FEA3E0243284
:104F5600FFE43EFEE43DFDE43CFC9003C6122CC893
:104F66009003C6E0FCA3E0FDA3E0FEA3E0FF7B64A4
:104F76007A007900780012BC9A9003C6122CC89069
:104F860003B9E0700302505D900216E0FFE4EF24DF
:104F960064FBE433FAE433F9E433F89003C0E0FE4B
:104FA600A3E0FFE4FCFD122A879003CA122CC890E6
:104FB60003CAE0FCA3E0FDA3E0FEA3E02432FFE485
:104FC6003EFEE43DFDE43CFC9003CA122CC890036F
:104FD600CAE0FCA3E0FDA3E0FEA3E0FF7B647A0049
:104FE6007900780012BC9A9003CA122CC890021756
:104FF600E0FFE4FCFDFEC374649FFBE49400FAE466
:105006009400F9E49400F89003C0E0FEA3E0FFE406
:10501600122A879003CE122CC89003CEE0FCA3E0A0
:10502600FDA3E0FEA3E02432FFE43EFEE43DFDE402
:105036003CFC9003CE122CC89003CEE0FCA3E0FD0E
:10504600A3E0FEA3E0FF7B647A007900780012BC3F
:085056009A9003CE122CC8222F
:10C32D008F2F9003D274FFF07C037DD27B0B7A00AC
:10C33D0075350075360112AFEEAF2F7C037DD27BC4
:0DC34D000C7A0075350075360112AFEE2236
:08CB2300EF4480FF1234972259
:04CB750012349722BD
:10C91E0020A0107DFF12C3867FFE7EFF7DFF7CFF71
:04C92E0012B8152204
:10C5C50020A01EE4F52AAF2A7DFF12C386052AE5C1
:10C5D5002AC3940A40F07FFE7EFF7DFF7CFF12B8E0
:02C5E50015221D
:107D0400D2007538FFE4F537AF3712C5A3EFB537A6
:107D14000585373880090537E537C3940A40E9E516
:107D240038B4FF157E457F8212CB3AAA06A9077B99
:107D3400FF7D101267297FFF227E457FA712CB3A71
:107D4400AA06A9077BFF7DB01267297F177D1A7BDE
:107D5400FF7A15798212787090052E7401F0200054
:107D640003027DE8C2007F217D037B7F753C051201
:107D7400AD277F217D18E5382430FB1245E0AF386C
:107D84007C037DD27B017A00754900754A0812B1E3
:107D9400CAE49003DAF0F53774D22537F582E43477
:107DA40003F583E0B420070537E537B408EA7F27F5
:107DB4007D187B3A1245E0750930E537C3940850C5
:107DC4000FAF097D187B017A0379D212A8E38014DE
:107DD4007E457FCD12CB3AAA06A9077BFFAF097D6A
:107DE4001812A8E312000EEF14603824FC605E142D
:107DF400605024C3604C24C260291460072480604E
:107E040003027D6212CA6EE538C394095004053832
:107E14008003E4F538AF3812C5A3EFB538E9D200D2
:107E2400027D6212CA6EE538D3940040041538808E
:107E340003753809AF3812C5A3EFB538E9D200028B
:107E44007D6212CA6EE490052EF07FFF2212CA6E84
:087E5400E490052EF0AF382286
:109A8F008F2D9003D2E52DF07C037DD2E4FBFAF508
:109A9F003575360112AFEEE4F52E74D2252EF58210
:109AAF00E43403F5837420F0052EE52EB408EBAFF4
:109ABF002D7C037DD27B017A007535007536081237
:109ACF00AFEEE4F52E74D2252EF582E43403F58340
:109ADF00E4F0052EE52EB478ECAF2D7C037DD27B20
:109AEF000D7A0075350075367812AFEEAF2D7C0309
:109AFF007DD27B857A0075350075367812AFEEAF63
:109B0F002D7C037DD27B097A0075350075360112E5
:109B1F00AFEEAF2D7C037DD27B0A7A0075350075D1
:0B9B2F00360112AFEEAF2D12C32D2245
:103497008F2BC200E52B30E705D200532B7FAF2BD4
:1034A7007C037DD2E4FBFAF549754A0112B1CA9053
:1034B70003D2E0B52B173000307E417FEF12CB3AB5
:1034C700AA06A9077BFF7D10126729C322200014D3
:1034D7007E427F5112CB3AAA06A9077BFF7D1012C5
:1034E7006729C322AF2B129A8FAF2B7C037DD27B28
:1034F700017A00754900754A0812B1CA7E427FC435
:1035070012CB3AAA06A9077BFF7DB01267297F1263
:103517007D187A037BD2753108D2021253664002B6
:10352700C322AF2B7C037DD27B017A0075350075F2
:10353700360812AFEE7E427FE212CB3AAA06A907FF
:103547007BFF7D31126729BF0504D2018002C201CA
:10355700A201E4339003D2F0AF2B7C037DD27B0A28
:103567007A0075350075360112AFEE7E437F07127C
:10357700CB3AAA06A9077BFF7D31126729EF6405BD
:1035870060030236499003D204F0AF2B7C037DD24F
:103597007B097A00753500F53612AFEE3001147EDF
:1035A700437F4512CB3AAA06A9077BFF7D13126713
:1035B7002980127E447F0C12CB3AAA06A9077BFF0B
:1035C7007D13126729AF2B7C037DD27B0D7A0075A3
:1035D7004900754A7812B1CA7E037FD2122DF8408E
:1035E70002C322AF2B7C037DD27B0D7A0075350099
:1035F70075367812AFEE20010302383B7E437FAB6E
:1036070012CB3AAA06A9077BFF7D13126729AF2BB6
:103617007C037DD27B857A00754900754A7812B1A3
:10362700CA7E037FD2122DF84002C322AF2B7C0340
:103637007DD27B857A0075350075367812AFEE023C
:10364700383BE49003D2F0AF2B7C037DD27B09FAA1
:10365700F53575360112AFEEAF2B7C037DD27B0DAE
:103667007A00754900754A7812B1CA30014B7E4518
:103677007F0D12CB3AAA06A9077BFF7DB0126729F7
:103687007D2290021AE075F003A42426F9741835F8
:10369700F0FA7BFF7F5C12A8E37E037FD212CAB4E5
:1036A700E48F0C8E0BF50AF5097F2D7D207B0575C0
:1036B7003A83123DE4404DC3227E447FE812CB3A61
:1036C700AA06A9077BFF7DB01267297D1A90021A07
:1036D700E075F003A42426F9741835F0FA7BFF7F10
:1036E7005C12A8E37E037FD212CAB4E48F0C8E0B60
:1036F700F50AF5097F2D7D187B05753A83123DE4A0
:103707004002C3227F1E7E007D007C00AB0CAA0B0B
:10371700A90AA809C3122BD540167FFF7EFF7D009B
:103727007C00AB0CAA0BA90AA809D3122BD5401C05
:103737007E187F3512CB3AAA06A9077BFF7D321286
:103747006729EF6405700302365FC3227E037FD2C9
:10375700AC0BAD0C12C581AF2B7C037DD27B0D7AF0
:103767000075350075367812AFEE20010302383B3D
:103777007E457F4A12CB3AAA06A9077BFF7DB01286
:1037870067297D2290021AE075F003A42426F974B4
:103797001835F0FA7BFF7F5C12A8E3AF2B7C037D23
:1037A700D27B857A00754900754A7812B1CA7E03C3
:1037B7007FD212CAB4E48F0C8E0BF50AF5097F2D60
:1037C7007D207B05753A83123DE44002C3227F1EAC
:1037D7007E007D007C00AB0CAA0BA90AA809C312C6
:1037E7002BD540167FFF7EFF7D007C00AB0CAA0B1C
:1037F700A90AA809D3122BD5401C7E187F3512CBF6
:103807003AAA06A9077BFF7D32126729EF64057084
:1038170003023777C3227E037FD2AC0BAD0C12C5F0
:1038270081AF2B7C037DD27B857A00753500753699
:103837007812AFEE7E447F5E12CB3AAA06A9077BC9
:10384700FF7D31126729EF640560030239B17E44B9
:103857007F9512CB3AAA06A9077BFF7DB01267298D
:103867007E447FDB12CB3AAA06A9077BFF7F4F7DF9
:103877001A12A8E3AF2B7C037DD27B0B7A00754924
:1038870000754A0112B1CA9003D2E0FFE48F0CF52C
:103897000BF50AF509E50CD394174003E4F50C7F03
:1038A700367D187B02E4F53A123DE44008AF2B124F
:1038B700C32D0239B6E50CD3941740227E187F3505
:1038C70012CB3AAA06A9077BFF7D32126729EF645C
:1038D700057003023855AF2B12C32D0239B690037A
:0638E700D2E50CF0AF2B4E
:1038ED007C037DD27B0B7A0075350075360112AFE6
:1038FD00EE850C2C7E447FBA12CB3AAA06A9077B23
:10390D00FF7DB01267297E447FDB12CB3AAA06A950
:10391D00077BFF7F4F7D1A12A8E3AF2B7C037DD26F
:10392D007B0C7A00754900754A0112B1CA9003D219
:10393D00E0FFE48F0CF50BF50AF509E50CD39417B0
:10394D004003750C177F367D187B02E4F53A123D66
:10395D00E44007AF2B12C32D804FE50CC3952C40CF
:10396D0007E50CD3941740217E187F3512CB3AAA68
:10397D0006A9077BFF7D32126729EF6405700302EC
:10398D003901AF2B12C32D80209003D2E50CF0AF7F
:10399D002B7C037DD27B0C7A0075350075360112B8
:1039AD00AFEE8005AF2B12C32D20A00B7FFE7EFF47
:0939BD007DFF7CFF12B815D32236
:03C7E300011C0036
:10CA2F0012C0728F237F0A7E0012C2D012C07222F0
:10C9DD0012C072EF64FE600875A61E75A6E180F0A8
:01C9ED002227
:10AB1500E51C54C064407019E51C543F60037FFF79
:10AB25002212C0728F40E540B4FE0BE4F51C7FFF96
:10AB35002212C0728F40E540B4FE0FE51C54C07070
:10AB4500037FFF22E4F51C7FFE22E51C54C024C0D0
:10AB5500601224C0601424C0601024C0701D751CD0
:10AB6500417FFF22751C99AF4022E51C543F6003CD
:0CAB75007FFF22751CCAE5404480FF22CF
:10C07200D2B5D2A4D2A320A3037F032220A4037F9C
:10C08200042220B5037F0122C2A40020A3037F065D
:10C092002220B5037F0522D2A4C2B50020A3037FCC
:05C0A20002227FFE22D6
:1014EA00100B0BFE0B60002318C220863082010C01
:1014FA00A0FF00100B0BFE0B60008318C82086307B
:10150A0082010CA0FF00100B0BFE0B60001319C523
:10151A0010463191010CA0FF00100B0BFE0B60006E
:10152A000318C228263280010CA0FF00100B0BFE04
:10153A000B60000398C828863080010CA0FF0010B9
:10154A000B0BFE0B60008318C208863088010CA0C2
:10155A00FF00100B0BFE0B6008A398C80026328A06
:10156A00210CA0FF00100B0BFE0B6000A398C88291
:10157A0026328A010CA0FF00040408FF7E3C1804EE
:10158A00050618596E0704050642D55702040506D2
:10159A0084F00B0404050608F44308020503377DAA
:1015AA000304069CA809030406659695040506C368
:1015BA00CCCC300103022E050606208414C3010494
:1015CA0006058490EF080707074030F00F0403016F
:1015DA00070607807135190C02000809074020DC4C
:1015EA00FFF7C381400707078E4824E28383004F31
:1015FA004328FCF1FF7F00FCF1FF7F0044F0FF7FEE
:10160A00007CF0FF7F0038000C300000000E7000F4
:10161A0038000E70006C000E700044000E78007CDA
:10162A00001E7C003800FE7F000000FE3F003C00E8
:10163A00FC1F007C00F80F004000C001007C000085
:10164A0000007C000000000000001F007F009E3F99
:10165A00007F008E7F000000CE7F003E00CE7B0020
:10166A007E00CE71004400CE70000000CE70007C77
:10167A0000CE30007C00FE1F000800FE7F000C0038
:10168A00FE7F000400FC7F00BC00F87F00F0000031
:10169A00000038000000000C000E000000000E00E0
:1016AA000000E0FF0F0000E0FF3F0000E0FF3F0006
:1016BA004CE0FF7F005C000E700074000E70003476
:1016CA00000E700000000E780038000000006C0068
:1016DA00000000440000005044800A00A8004005B1
:1016EA00005460A00200AA744001005554A00200F0
:1016FA00AA7C5001005578A00080AA0050014055EC
:10170A007FA000A0AA7F5001505100A002A8A838CB
:10171A00500555517CA0AAAAA854405555505CA022
:10172A00AA2AA808405515500080AA0AA84C0055B4
:10173A0005505C00AA00A874001400503400000090
:10174A00A814100AFE0B38E18E130A28A080020A98
:10175A0028E084134E28A0FF05050701C15F100089
:10176A00040505EAABAF00446179004A6F7572005F
:10177A0057656967687400506F69647300466C6FD7
:10178A00636B004C6F74005461726765740043693F
:10179A00626C65004C6173740050726563656465C0
:1017AA006E7400436F756E74004E6F6D62726500E1
:1017BA004F4B004F4B0043616E63656C00416E6E88
:1017CA00756C65720052657472790052652D657385
:1017DA0073617900596573004F7569004E6F004E49
:1017EA006F6E004572726F72004572726575720093
:1017FA005761697400417474656E64726500686447
:10180A007300616E780076657273696F6E00766533
:10181A007273696F6E006B67006C62006B67006CB5
:10182A00620031003200350031300054686520769C
:10183A00616C7565FF6973206E6F742076616C69DF
:10184A0064004C612076616C657572206E27657341
:10185A0074FF7061732076616C61626C650053611C
:10186A007665206368616E6765733F00456E7265D1
:10187A0067697374726572FF6D6F64696669636123
:10188A0074696F6E733F005765696768696E672090
:10189A00697320737461727465642EFF53746F7078
:1018AA0020746865207765696768696E67FF66698D
:1018BA007273742E004C61207065736565206573C0
:0618CA007420636F6D6DD8
:1018D000656E6365652EFF41727265746572206C7A
:1018E0006120706573656520642761626F72642E84
:1018F0000053544F505045440041525245540057F4
:1019000045494748494E47005045534545005041D9
:1019100055534544005041555345004152434849B1
:1019200056450041524348495645004376004376A8
:1019300000554E4900486F6D2E005061676500509C
:10194000616765004E6F20646174610050617320AF
:10195000646520646F6E6E656573005265616C6CC2
:10196000792073746F70FF7765696768696E6720A7
:101970006F662074686520666C6F636B3F00417210
:10198000726574657220767261696D656E74FF6C44
:10199000612070657365653F005468652073656CF0
:1019A000656374656420666C6F636B206973FF6E9A
:1019B0006F7720776569676865642EFF53656C658E
:1019C000637420616E6F7468657220666C6F636B00
:1019D0002E004C65206C6F742063686F69736920FA
:1019E000657374FF656E2070657365652E204368AE
:1019F0006F69736972FF756E206175747265206C12
:101A00006F742E0055736520612070726564656681
:101A1000696E656420666C6F636B3F005574696C1A
:101A20006973657220756E206C6F74FF70726564E7
:101A30006566696E693F005374617274696E6720F0
:101A40006461793AFFFFFF00446562757420646544
:101A50002070657365653AFFFFFF00466C6F636B2E
:101A6000206E756D6265723AFFFFFF004E756D6501
:101A7000726F206465206C6F743AFFFFFF0052653F
:101A8000616C6C792064656C657465FF616C6C20B9
:101A900074686520666C6F636B733F00537570707C
:101AA00072696D657220767261696D656E74FF741E
:101AB0006F7573206C6573206C6F74733F00416C9D
:101AC0006C2074686520666C6F636B73FF7765725A
:101AD000652064656C657465642E00546F757320B1
:101AE0006C6573206C6F7473FF736F6E7420737505
:101AF000707072696D65732E00446174653AFFFF02
:101B0000FF00446174653AFFFFFF0054696D653A58
:101B1000FFFFFF0048657572653AFFFFFF004964EB
:101B2000656E74696669636174696F6E206E756D48
:101B30006265723AFFFFFF004E756D65726F20643B
:101B4000276964656E74696669636174696F6E3A6A
:101B5000FFFFFF00486973746F6772616D207261E7
:101B60006E67653AFFFFFF00456368656C6C652032
:101B70006465206C27686973746F6772616D6D6549
:101B80003AFFFFFF00556E69666F726D69747920C8
:101B900072616E67653AFFFFFF00456368656C6CB4
:101BA00065206427756E69666F726D6974653AFFAA
:101BB000FFFF004D617267696E2061626F7665207C
:101BC000746172676574FF666F722066656D616C23
:101BD00065733AFFFF0045636172742061752D647F
:101BE0006573737573206465206C61FF636F757234
:101BF000626520706F7572206C65732066656D6517
:101C00006C6C65733AFFFF004D617267696E2075F9
:101C10006E64657220746172676574FF666F72200E
:101C200066656D616C65733AFFFF004563617274B0
:101C300020656E2D646573736F7573206465206C09
:101C400061FF636F7572626520706F7572206C65DD
:101C5000732066656D656C6C6573FFFF004D617286
:101C600067696E2061626F76652074617267657462
:101C7000FF666F72206D616C65733AFFFF0045630C
:101C80006172742061752D6465737375732064656A
:101C9000206C61FF636F7572626520706F757220D2
:101CA0006C6573206D116C6573FFFF004D61726789
:061CB000696E20756E64F0
:101CB600657220746172676574FF666F72206D616C
:101CC6006C65733AFFFF00456361727420656E2D83
:101CD600646573736F7573206465206C61FF636F51
:101CE6007572626520706F7572206C6573206D1158
:101CF6006C6573FFFF0053746162696C697A617485
:101D0600696F6E3AFFFFFF0053746162696C697315
:101D16006174696F6E3AFFFFFF0053746162696C0C
:101D2600697A6174696F6EFF74696D653AFFFF00C9
:101D360054656D7073FF64652073746162696C69C4
:101D4600736174696F6E3AFFFF00556E6974733A7A
:101D5600FFFFFF00556E6974653AFFFFFF00506C88
:101D66006174666F726D3AFFFFFF00506C617465B7
:101D7600666F726D65206EE43AFFFFFF0044697678
:101D86006973696F6E3AFFFFFF00477261647561A0
:101D960074696F6E3AFFFFFF00456D7074792074A9
:101DA6006865207363616C6573004C696265726572
:101DB60072206C65732062616C616E63657300509E
:101DC6007574206F6E20746865207363616C65732B
:101DD6003AFFFFFF0043616C6962726572206C65B1
:101DE600732062616C616E6365733AFFFFFF0049A1
:101DF6006E736572742061206D656D6F7279FF6D0B
:101E06006F64756C6500496E736572657220756ED8
:101E1600206D6F64756C65FF6465206D656D6F6917
:101E26007265004D656D6F7279206D6F64756C65B6
:101E3600FF6973206E6F742070726573656E74002F
:101E46004C65206D6F64756C65206465206D656DED
:101E56006F697265FF6E27657374207061732070F9
:101E6600726573656E7400436F7079207375636372
:101E760065737366756C00436F706965207265756E
:101E8600737369650050726F67726573733AFFFF0B
:101E9600FF0050726F6772657373696F6E3AFFFF6A
:101EA600FF00546865206D6F64756C6520636F6E06
:101EB6007461696E73FF6120646966666572656E3A
:101EC600742076657273696F6E2EFF436F6E746948
:101ED6006E75653F004C65206D6F64756C6520639B
:101EE6006F6E7469656E74FF756E652076657273C4
:101EF600696F6E20646966666572656E74652EFF2D
:101F0600436F6E74696E7565723F0043616E6E6FE6
:101F1600742072656164FF636F6E666967757261CE
:101F260074696F6E004C6120636F6E6669677572C7
:101F36006174696F6E206E65FF70657574207061DF
:101F4600732065747265206C75650055736520474E
:101F5600534DFF636F6D6D756E69636174696F6E66
:101F66003F005574696C6973657220617070656CA9
:101F76002047534D3F0053656E6420737461746946
:101F86007374696373FF6174206D69646E69676851
:101F9600743F00456E766F796572206C65732064B8
:101FA6006F6E6E656573FF61206D696E7569743F4E
:101FB6000053656E642064617461FF6F6E20726504
:101FC60071756573743F00456E766F796572206C26
:101FD600657320646F6E6E656573FF61206C6120AA
:101FE60064656D616E64653F00436865636B206E72
:101FF600756D626572733F005665726966696572D2
:10200600206C65732076616C657572733F0050684D
:102016006F6E65206E756D6265723AFFFFFF004E4A
:10202600756D65726F2064652074656C6570686F88
:102036006E653AFFFFFF00416374697665206E7531
:102046006D626572733AFFFFFF004E756D65726FC4
:1020560073207574696C697361626C65733AFFFF0E
:10206600FF004C616E677561676500456E676C6958
:102076007368004672616E1361697300537461720E
:1020860074207765696768696E670041726368697D
:06209600766500436F7047
:10209C0079206461746100536574757000446562E5
:1020AC007574206465206C612070657365650041F2
:1020BC0072636869766500436F70696572206C6540
:1020CC007320646F6E6E656573004D697365206176
:1020DC007520706F696E740050617573652077653B
:1020EC00696768696E670053746F702077656967FC
:1020FC0068696E67004172636869766500436F704A
:10210C007920646174610053657475700050617559
:10211C0073650041727215746572206C6120706574
:10212C00736565004172636869766500436F706919
:10213C006572206C657320646F6E6E656573004DFF
:10214C0069736520617520706F696E7400436F6EE2
:10215C0074696E7565207765696768696E67005389
:10216C00746F70207765696768696E670041726388
:10217C006869766500436F707920646174610053FF
:10218C006574757000436F6E74696E75657220614D
:10219C002070657365720041727215746572206CE3
:1021AC0061207065736565004172636869766500CE
:1021BC00436F70696572206C657320646F6E6E6519
:1021CC006573004D69736520617520706F696E745D
:1021DC00005365747570004D6973652061752070CE
:1021EC006F696E74004461746520616E642074695B
:1021FC006D65004964656E74696669636174696FC5
:10220C006E206E756D62657200466C6F636B730049
:10221C00537461746973746963730047534D00534D
:10222C0063616C657300526561642066726F6D202A
:10223C006D6F64756C65004461746520657420680D
:10224C0065757265004E756D65726F2064276964E3
:10225C00656E74696669636174696F6E004C6F7446
:10226C007300537461746973746971756573004795
:10227C00534D0042616C616E636573004C65637411
:10228C00757265206475206D6F64756C6500466CA5
:10229C006F636B73004C6F7473004E657720666CC4
:1022AC006F636B004564697420666C6F636B0044EC
:1022BC00656C65746520666C6F636B0044656C655A
:1022CC00746520616C6C20666C6F636B73004E6F71
:1022DC007576656175206C6F740045646974657200
:1022EC00206C65206C6F74005375707072696D652D
:1022FC0072206C65206C6F74005375707072696D10
:10230C00657220746F7573206C6573206C6F7473B9
:10231C00005363616C65730042616C616E6365733D
:10232C0000536176696E6720706172616D657465CA
:10233C00727300556E697473004368616E67652033
:10234C00706C6174666F726D0043616C696272616E
:10235C0074696F6E005361757665676172646500B0
:10236C00556E69746573004368616E6765722064AD
:10237C006520706C617465666F726D650043616C8D
:10238C006962726174696F6E0047534D0047534D1B
:10239C000053657474696E6773004E756D62657277
:1023AC0073004D6973657320617520706F696E746D
:0923BC00004E756D65726F73002F
:10C8120090021DE06012900508E024FFB392061218
:09C82200C9EE90010A74FFF02236
:10C3B2007E197F5B12CB3AAA06A9077BFF7D311259
:10C3C2006729BF051512A957E490021DF0FF7E01EF
:0BC3D200FDFC127B8EE49000FCF022CA
:105665007E1A7F0412CB3AAA06A9077BFF7D311269
:105675006729EF64057035752B01127D048F2AE5C6
:105685002AC3940A400302595D90021DE0603DA3C0
:10569500E06039A3E0652A70337E197F9912CB3A11
:1056A500AA06A9077BFF7D1012672922E4F52B7E48
:1056B500427FE212CB3AAA06A9077BFF7D3112672A
:1056C50029BF0505752C018003E4F52C7E1A7F376B
:1056D50012CB3AAA06A9077BFF7DB0126729750C84
:1056E50001750B00750A007509007F327D187B0373
:1056F500E4F53A123DE4400302595DC3E50C94011B
:10570500E50B9400501C7E187F3512CB3AAA06A9EA
:10571500077BFF7D32126729EF6405600302595D3F
:1057250080AAE50C24FFF52EE50B34FFF52DE52BBE
:1057350060030258CDE52C60467E457F0D12CB3ABD
:10574500AA06A9077BFF7DB01267297D2290021A60
:10575500E075F003A42426F9741835F0FA7BFF7F71
:105765005C12A8E3750C00750B00750A007509003D
:105775007F2D7D207B05753A83123DE44049227ECD
:10578500447FE812CB3AAA06A9077BFF7DB01267D2
:10579500297D1A90021AE075F003A42426F97418DD
:1057A50035F0FA7BFF7F5C12A8E3750C00750B00E2
:1057B500750A007509007F2D7D187B05753A8312E2
:1057C5003DE4400302595D7F1E7E007D007C00ABF9
:1057D5000CAA0BA90AA809C3122BD540167FFF7E78
:1057E500FF7D007C00AB0CAA0BA90AA809D3122BDC
:1057F500D5401D7E187F3512CB3AAA06A9077BFF37
:105805007D32126729EF6405600302595D02573A3C
:10581500AF0CAE0BAD0AAC098F328E318D308C2FAB
:10582500E52C70030258CD7E457F4A12CB3AAA0675
:10583500A9077BFF7DB01267297D2290021AE075CA
:10584500F003A42426F9741835F0FA7BFF7F5C1267
:10585500A8E3750C00750B00750A007509007F2D0E
:105865007D207B05753A83123DE4400302595D7F37
:105875001E7E007D007C00AB0CAA0BA90AA809C3FB
:10588500122BD540167FFF7EFF7D007C00AB0CAA56
:105895000BA90AA809D3122BD5401D7E187F3512F6
:1058A500CB3AAA06A9077BFF7D32126729EF64056B
:1058B500600302595D02582CAF0CAE0BAD0AAC0962
:1058C5008F368E358D348C3390021D7401F0A3E52F
:0158D5002BA7
:1058D600F0900220E52DF0A3E52EF0E52B60089070
:1058E600021FE52AF0801C90021F74FFF090022828
:1058F600E52CF0A3E531F0A3E532F0A3E535F0A3FE
:10590600E536F0900539E0900222F090053AE090F5
:105916000223F090053BE0900224F090053CE090D5
:105926000225F090053DE0FFA3E0900226CFF0A30C
:10593600EFF090021CE090022DF07F007E017D00CA
:105946007C00127B8E12CA3F12A1E012A2F412BA98
:08595600209000FC7401F02216
:109E6F007E1D7FF512CB3AAA06A9077BFF7D301224
:109E7F006729EF64056003029F0E90021DE06003E7
:109E8F0012B63A7FFE7EFF7DFF7CFF12B81512C619
:109E9F004940137E1E7F2912CB3AAA06A9077BFFE2
:109EAF007D10126729227E1E7F8B12CB3AAA06A93C
:109EBF00077BFFE4FD12672912CB8312CB887FF457
:109ECF007E0112C2D012C0A7129281128EC75014F7
:109EDF007E1E7F6D12CB3AAA06A9077BFF7D10125B
:109EEF00672980127E177FED12CB3AAA06A9077B4E
:109EFF00FF7D1012672912C85B12CB8612CB872207
:1096E50090021DE060137E187F9112CB3AAA06A95D
:1096F500077BFF7D10126729227E1D7FF512CB3A6D
:10970500AA06A9077BFF7D30126729EF6405600370
:109715000297B77FFE7EFF7DFF7CFF12B81512C64C
:109725004940137E1E7F2912CB3AAA06A9077BFF63
:109735007D101267292212CB887FF47E0112C2D0D8
:1097450012BF197E027F8012C8E19002EFE06F60C0
:10975500197E1F7F1112CB3AAA06A9077BFF7D1040
:1097650012672912CB8612CB8722900280E0640112
:109775007002A3E0601E7E1E7FA812CB3AAA06A93E
:10978500077BFF7D31126729EF6405600712CB86E1
:1097950012CB872212ACC012936612CB8612CB87EE
:1097A5007E1E7F6D12CB3AAA06A9077BFF7D10129C
:0397B500672922FF
:10836B0090021DE060137E187F9112CB3AAA06A9EA
:10837B00077BFF7D10126729227E1A7FF912CB3AF9
:10838B00AA06A9077BFF7DB012672990053DE0FE89
:10839B00A3E0FF12C53C8F0C8E0B8D0A8C09900548
:1083AB003CE0FF12CA4F8F0A90053BE0FF12CA4F09
:1083BB008F09AF0CAE0BAD0AAC0912BFCA8F0C8E76
:1083CB000B8D0A8C097F1E7D187B09E4F53A123D53
:1083DB00E4400302848CAF0CAE0BAD0AAC0912BFA8
:1083EB008F8F2D8E2C8D2B8C2A7E1B7F0B12CB3AD5
:1083FB00AA06A9077BFF7DB0126729E4F50AF509E8
:10840B0090053AE0FF12CA4F8F0B900539E0FF122F
:10841B00CA4F8F0CAF0CAE0BAD0AAC0912BFCA8F93
:10842B000C8E0B8D0A8C097F2D7D187B0AE4F53A97
:10843B00123DE4504CAF0CAE0BAD0AAC0912BF8F22
:10844B008F0C8E0B8D0A8C09AF0B12CA1FAF0C123F
:10845B00CA0FE4FF12C9FFAE2CAD2BAC2A852D0C35
:10846B008E0B8D0A8C09AF0912C82BAF0A12C5E708
:10847B00AF0BEFFEAD0C7C00E42DFFEC3EFE12C803
:02848B00CC2201
:10AF8A007E1B7F1E12CB3AAA06A9077BFF7DB01251
:10AF9A006729900212E0FFE48F0CF50BF50AF50918
:10AFAA007F367D187B02F53A123DE45036E50CC334
:10AFBA0094014007E50CD3941F40177E187F351281
:10AFCA00CB3AAA06A9077BFF7D32126729BF051370
:10AFDA0080AE900212E50CF07F027E007D007C00BC
:04AFEA00127B8E2226
:1087CD0090021DE060137E187F9112CB3AAA06A984
:1087DD00077BFF7D10126729227E1B7F5412CB3A37
:1087ED00AA06A9077BFF7DB012672990021BE0FF47
:1087FD00E48F0CF50BF50AF5097F267D1A7BE61241
:10880D0045E07F527D1A7B251245E07F327D187B36
:10881D0003E4F53A123DE440030288DBC3E50C9412
:10882D000AE50B9400400BD3E50C9464E50B940022
:10883D00401C7E187F3512CB3AAA06A9077BFF7D17
:10884D0032126729EF640560030288DB808BAF0C61
:10885D008F2A7E1B7F8512CB3AAA06A9077BFF7D47
:10886D00B012672990021CE0FFE48F0CF50BF50A9E
:10887D00F5097F2A7D1A7BE61245E07F4F7D1A7B35
:10888D00251245E07F367D187B02E4F53A123DE472
:10889D00503CE50CC394014007E50CD394314017CF
:1088AD007E187F3512CB3AAA06A9077BFF7D3212BF
:1088BD006729BF0519809B90021CE50CF090021BE7
:0F88CD00E52AF07F007E0C7D007C00127B8E225E
:10B6DB007E1A7F5B12CB3AAA06A9077BFF7DB012BD
:10B6EB006729750C00750B00750A007509007F3A08
:10B6FB007D187B01E4F53A123DE45023E50CC3942D
:10B70B000A40177E187F3512CB3AAA06A9077BFF92
:10B71B007D32126729BF050780B6AF0C12CB2322EF
:10C0DB00127D048F2AE52AC3940A502790021DE093
:10C0EB00601CA3E06018A3E0B52A137E197F991298
:10C0FB00CB3AAA06A9077BFF7D1012672922AF2A2C
:04C10B0012CB7522BC
:10C10F00127D048F2AE52AC3940A502790021DE05E
:10C11F00601CA3E06018A3E0B52A137E197F991263
:10C12F00CB3AAA06A9077BFF7D1012672922AF2AF7
:04C13F0012C91E22E1
:10BAFB0090021DE06017A3E060137E187F9112CBBC
:10BB0B003AAA06A9077BFF7D10126729227E1A7FAE
:10BB1B007E12CB3AAA06A9077BFF7D31126729BF9C
:10BB2B00051512C5C57E1A7FBE12CB3AAA06A90708
:08BB3B007BFF7D101267292237
:106F6F007E1B7FB312CB3AAA06A9077BFF7DB01217
:106F7F0067297F507D227B251245E0900214E0FFA8
:106F8F00E48F0CF50BF50AF5097F367D207B02F5B2
:106F9F003A123DE44003027160850C2A7E1C7F0883
:106FAF0012CB3AAA06A9077BFF7DB01267297F5043
:106FBF007D227B251245E0900215E0FFE48F0CF552
:106FCF000BF50AF5097F367D207B02F53A123DE479
:106FDF004003027160850C2B7E1C7F5D12CB3AAA99
:106FEF0006A9077BFF7DB01267297F507D227B2585
:106FFF001245E0900216E0FFE48F0CF50BF50AF551
:10700F00097F367D207B02F53A123DE44003027181
:10701F0060850C2C7E1C7FAC12CB3AAA06A9077B8D
:10702F00FF7DB01267297F507D227B251245E090AE
:10703F000217E0FFE48F0CF50BF50AF5097F367D9B
:10704F00207B02F53A123DE44003027160850C2D5E
:10705F007E1C7FFC12CB3AAA06A9077BFF7DB012DC
:10706F006729900218E0FFE48F0CF50BF50AF5097C
:10707F007F247D1A7BE61245E07F537D1A7B251214
:10708F0045E07F317D187B03753A81123DE4400363
:10709F00027160D3E50C94FAE50B9400401C7E1846
:1070AF007F3512CB3AAA06A9077BFF7D32126729DB
:1070BF00EF640560030271608096850C2E7E1D7F44
:1070CF002012CB3AAA06A9077BFF7DB01267299041
:1070DF000219E0FFE48F0CF50BF50AF5097F3C7DF3
:1070EF00207B01F53A123DE45067E50CC394024052
:1070FF0007E50CD3940940197E187F3512CB3AAAB5
:10710F0006A9077BFF7D32126729EF640570428065
:10711F00AC850C2F7E187F6812CB3AAA06A9077B85
:10712F00FF7D31126729BF0528900214E52AF0A3CD
:10713F00E52BF0A3E52CF0A3E52DF0A3E52EF0A3AE
:10714F00E52FF07FFC7E007D007C00127B8E12C944
:02715F004622C6
:10BDE1007E1D7F5012CB3AAA06A9077BFF7DB012B8
:10BDF10067297F3C7D187A187B2075340290021ADE
:10BE0100E0F5351297B88F09E509F4601190021A2F
:0FBE1100E509F07F007E027D007C00127B8E220F
:10B861007E1D7F6412CB3AAA06A9077BFF7DB01229
:10B87100672990044AE0FFC3940A500BE48F0CF54A
:10B881000BF50AF509800C750C00750B00750A00A3
:10B891007509007F3A7D187B01E4F53A123DE450C9
:0BB8A1000990044AE50CF012B3E62207
:104994007E1D7F6412CB3AAA06A9077BFF7DB01265
:1049A400672990044AE0FFC3940A500BE48F0CF586
:1049B4000BF50AF509800C750C00750B00750A00DF
:1049C4007509007F3A7D187B01E4F53A123DE44015
:1049D40003024D25850C2F7E1D7F8312CB3AAA0638
:1049E400A9077BFF7DB0126729E52F75F00DA4247C
:1049F40057F582E43404F583E024FE600D24FD6061
:104A04000E2404700FE4F509800D75090180087502
:104A1400090280037509037F3C7D187A187B2C7585
:104A240034048509351297B88F09E509F470030237
:104A34004D25AF09EF14601B14602C2402703CE573
:104A44002F75F00DA42457F582E43404F583740122
:104A5400F0803AE52F75F00DA42457F582E4340470
:104A6400F5837402F08026E52F75F00DA42457F524
:104A740082E43404F5837405F08012E52F75F00D9B
:104A8400A42457F582E43404F583740AF012B3E6DF
:104A940012CB6412CB837E1D7F9F12CB3AAA06A948
:104AA400077BFF7D30126729EF64056003024D1F09
:104AB4007E177FFA12CB3AAA06A9077BFFE4FD1200
:104AC400672912CB8DE4FF12CB8CE4F52A12AEBF1A
:104AD400400512B49680F612CB0A052AE52AC3943F
:104AE4000A40EA752E00752D00752C00752B00E424
:104AF400F52A12AEBF400512B49680F612CB0AE531
:104B04002E2FF52EE52D3EF52DE52C3DF52CE52B30
:104B14003CF52B052AE52AC3943240D6E52E241908
:104B2400F52EE4352DF52DE4352CF52CE4352BF557
:104B34002BAF2EAE2DAD2CFC7B327A0079007800A1
:104B440012BC9A8F2E8E2D8D2C8C2BE52F75F00D8B
:104B5400A4244BF582E43404F583122CC87E1D7F13
:104B6400C512CB3AAA06A9077BFF7DB01267297D3F
:104B74001A90021AE075F003A42426F9741835F08B
:104B8400FA7BFF7F5C12A8E3E52F75F00DA4245394
:104B9400F582E43404F583E0FCA3E0FDA3E0FEA386
:104BA400E0FF7B9F7A8679017800C3122BBF500EF9
:104BB400750C00750B00750A007509008021E52F3E
:104BC40075F00DA42453F582E43404F583E0FCA3CA
:104BD400E0FDA3E0FEA3E0F50C8E0B8D0A8C097FAB
:104BE4002D7D187B05753A83123DE44003024D1F69
:104BF4007F007E007D007C00AB0CAA0BA90AA809EB
:104C0400C3122BD560167F407E0D7D037C00AB0C58
:044C1400AA0BA90A34
:104C1800A809D3122BD5401D7E187F3512CB3AAA8E
:104C280006A9077BFF7D32126729EF64056003023E
:104C38004D1F024B61AF0CAE0BAD0AAC09E52F75E9
:104C4800F00DA42453F582E43404F583122CC87EB5
:104C5800177FFA12CB3AAA06A9077BFFE4FD126771
:104C680029E4F52A12AEBF400512B49680F612CB9D
:104C78000A052AE52AC3940A40EA752E00752D0014
:104C8800752C00752B00E4F52A12AEBF400512B44E
:104C98009680F612CB0AE52E2FF52EE52D3EF52D42
:104CA800E52C3DF52CE52B3CF52B052AE52AC3948C
:104CB8003240D6E52E2419F52EE4352DF52DE435B0
:104CC8002CF52CE4352BF52BAF2EAE2DAD2CFC7B23
:104CD800327A007900780012BC9A8F2E8E2D8D2C96
:104CE8008C2BE52F75F00DA4244FF582E43404F5E0
:104CF80083122CC87E187F6812CB3AAA06A9077BB4
:104D0800FF7D31126729BF050B90044AE52FF01289
:0E4D1800B3E6800312BD6112C85B12CB6A22A3
:109C8B007E1F7F5112CB3AAA06A9077BFF7D3112AB
:109C9B006729BF05047F0180027F0090022EEFF041
:109CAB0060717E1F7F7C12CB3AAA06A9077BFF7DD2
:109CBB0031126729BF05047F0180027F0090022FBC
:109CCB00EFF07E1F7FB712CB3AAA06A9077BFF7D69
:109CDB0031126729BF05047F0180027F009002309B
:109CEB00EFF060227E1F7FEF12CB3AAA06A9077B0B
:109CFB00FF7D31126729BF05047F0180027F009031
:109D0B000232EFF08005E4900232F012CB8612CBD8
:109D1B0087800312CB887F007E107D007C00127B36
:029D2B008E2286
:1086B9007E207F1412CB3AAA06A9077BFF7DB01250
:1086C90067297F0112BD20E4F52AE4F52BE52A7517
:1086D900F00FA42434F582E43402F583E582252BD6
:1086E900F582E43583F583E0FF7413252BF582E4E5
:1086F9003400F583EFF0052BE52BB40FD07F087D0F
:10870900187A007B1375310FC202125366506BE45D
:10871900F52B7413252BF582E43400F583E0B4209E
:1087290007052BE52BB40FEAE52BB40F0E2412F540
:1087390082E43400F583E06420603FE4F52B741390
:10874900252BF582E43400F583E0FFE52A75F00F67
:10875900A42434F582E43402F583E582252BF582DD
:10876900E43583F583EFF0052BE52BB40FD0052A0B
:10877900E52AC3940550030286D3E4FF12BD20E520
:108789002A700690022FF0800690022F7401F09053
:108799000233E52AF07F007E107D007C00127B8E7B
:1087A9007E207F3D12CB3AAA06A9077BFF7D901256
:1087B90067297F3D7D1A900233E02430FB1245E0A2
:0487C90012C95A2255
:10B3350090000C74FFF0A37420F0A37468F074FF00
:10B34500A3F0A3F0E4A3F0A3F090000874FFF0A32A
:10B355007420F0A37471F0A37402F07B017A007974
:10B3650008125C54BFFF0280FE900213E0C39402F2
:10B375004004E4F08005900213EFF07F007E207D0D
:09B38500007C00127B8E80FE2288
:10505E00E4F523F524FF12BD20E490052EF0900216
:10506E001DE0604E900508E060247E217F59E51A10
:10507E0075F005A4FD12C73CAA06A9079000087496
:10508E00FFF0A3EAF0A3E9F0A37405F080467E20BA
:10509E007FE4E51A75F005A4FD12C73CAA06A90720
:1050AE0090000874FFF0A3EAF0A3E9F0A37405F0F2
:1050BE0080227E207F82E51A25E025E0FD12C73C86
:1050CE00AA06A90790000874FFF0A3EAF0A3E9F07E
:1050DE00A37404F090000CE4F0A3F0A3F074FFA30B
:1050EE00F0A3F0A3E523F0A3E524F07B017A007989
:1050FE0008125C548F29E529F4700302535F900265
:10510E001DE070020529900011E0F523A3E0F524BF
:10511E00E4F525F526E52914601414601F14602C9F
:10512E0014602F2404600302506C12C812229002E5
:10513E001DE0600412C3B22212566522125F32E4E1
:10514E00FF12BD20E490052EF002506C129E6F02ED
:10515E00506C7E217FF1E51A75F007A4FD12C73C55
:10516E00AA06A90790000874FFF0A3EAF0A3E9F0DD
:10517E00A37407F07E217FDD12CB3AAA06A9079011
:10518E00000C74FFF0A3EAF0A3E9F074FFA3F0A300
:10519E00F0A3E525F0A3E526F07B017A007908124D
:1051AE005C548F29E529F4700302506C900011E0D5
:1051BE00F525A3E0F526E4F527F528E529B4070043
:1051CE0050909051D7F82828730251EC0251F202F8
:1051DE0051FE0251F80252780252DF0253591283E5
:1051EE006B02516012AF8A0251601287CD0251607C
:1051FE007E227FA6E51A25E025E0FD12C73CAA0611
:10520E00A90790000874FFF0A3EAF0A3E9F0A374D5
:10521E0004F07E227F9A12CB3AAA06A90790000CC0
:10522E0074FFF0A3EAF0A3E9F074FFA3F0A3F0E497
:10523E00A3F0A3F07B017A007908125C548F29E564
:10524E0029F47003025160E52914600F14601114E3
:10525E006013240370DE12B6DB80D912C0DB80D45B
:10526E0012C10F80CF12BAFB80CA7E237F9DE51A32
:10527E0025E0FD12C73CAA06A90790000874FFF0AE
:10528E00A3EAF0A3E9F0A37402F07E237F9512CB7C
:10529E003AAA06A90790000C74FFF0A3EAF0A3E95E
:1052AE00F074FFA3F0A3F0E4A3F0A3F07B017A0067
:1052BE007908125C548F29E529F47003025160E5D8
:1052CE00291460080470E5129C8B80E01286B98068
:1052DE00DB7E237F2DE51A25E025E0FD12C73CAAD3
:1052EE0006A90790000874FFF0A3EAF0A3E9F0A363
:1052FE007404F07E237F1D12CB3AAA06A9079000F4
:10530E000C74FFF0A3EAF0A3E9F074FFA3F0A3F08E
:10531E00E4A3F0A3F07B017A007908125C548F2984
:10532E00E529F47003025160E52914600F14601131
:10533E00146013240370DE126F6F80D912BDE180EA
:04534E00D412B8615C
:1053520080CF12499480CA1296E502516012C85B4E
:0453620012CB6A22DE
:10B8AC0012B54112C480900213E0F51A12A705E4F8
:10B8BC00FF12BD2090021DE060089000FC7401F0A6
:10B8CC008005E49000FCF090010A74FFF0E4900015
:10B8DC00FBF09000FAF0C20F78FD7C007D017BFF3D
:0BB8EC007AC87905FE7F0D1228B722F4
:10B5E8008E408F418C428D43E4FFE5412FF582E484
:10B5F8003540F583E493FE7022E5432FF582E43568
:10B6080042F583743AF0EF2401FDE433FCE5432D61
:10B61800F582EC3542F583E4F08010E5432FF5829E
:10B62800E43542F583EEF00FBFFABFAA42A9437B87
:02B638000122ED
:1090A7008F408D41AF03AE0212C53C8F0C8E0B8DE6
:1090B7000A8C09AF4112CA4F8F0AAF4012CA4F8FAD
:1090C70009AF0912CAE7EF2430854582854483F04A
:1090D700AF0912CAE2EF2430854582854483A3F0A5
:1090E700854582854483A3A3742EF0AF0A12CAE78D
:1090F700EF2430854582854483A3A3A3F0AF0A12EA
:10910700CAE2EF2430FFE5452404F582E43544F54F
:1091170083EFF0E5452405F582E43544F583742EA5
:10912700F0AF0B12CAE7EF2430FFE5452406F582BE
:10913700E43544F583EFF0AF0B12CAE2EF2430FFBA
:10914700E5452407F582E43544F583EFF0AF0C12CB
:10915700CAE7EF2430FFE5452408F582E43544F5F6
:1091670083EFF0AF0C12CAE2EF2430FFE545240984
:10917700F582E43544F583EFF0E545240AF582E40A
:0D9187003544F583E4F0AA44A9457B01229C
:10A77E008D3B8A3C8B3D12CA4F8F09AF0912CAE737
:10A78E00EF2430853D82853C83F0AF0912CAE2EF9B
:10A79E002430853D82853C83A3F0853D82853C83B4
:10A7AE00A3A3743AF0AF3B12CA4F8F09AF0912CA76
:10A7BE00E7EF2430853D82853C83A3A3A3F0AF0948
:10A7CE0012CAE2EF2430FFE53D2404F582E4353C65
:10A7DE00F583EFF0E53D2405F582E4353CF583E4A1
:08A7EE00F0AA3CA93D7B012209
:10C1430090022EE060159003A1E0B4030E7F7A7D88
:10C15300377BFF7A177962127870227F7A7D379066
:10C163001763E493247AFBA3E4932437F53EC201D7
:04C1730012848D2283
:107E5C008E3B8F3C8C3D8D3E9000FCE0C3940550D6
:107E6C0003027F257E197F1B12CB3AAA06A9077B3A
:107E7C00FFE4FFFD12A8E3853C82853B83E0FEA373
:107E8C00E0FFC3940AEE94005005E4F53F8011C363
:107E9C00EF9464EE94005005753F048003753F0821
:107EAC00E53C2404F582E4353BF583E0FFE53C2416
:107EBC0005F582E4353BF583E0FDE53C2406F582CF
:107ECC00E4353BF583E0FAA3E0FB754400754513FC
:107EDC001290A7E53FC313FFC3745A9FFFE4FD1232
:107EEC00A5917E177F7112CB3AAD3EAC3D12B5E831
:107EFC00C37478953FFFE4FD12A591853C82853BC8
:107F0C0083E0FEA3E0FFE48F0C8E0BF50AF5097FEE
:107F1C007FFDFBF543127161229000FCE070327E14
:107F2C00187FF112CB3AAA06A9077BFFE4FFFD12DA
:107F3C00A8E390053BE0FFA3E0FD754400754513F5
:107F4C00A3E0FAA3E0FB1290A77F67E4FD12A591D2
:107F5C0022900508E060157E197F0E12CB3AAA0616
:107F6C00A9077BFFE4FFFD12A8E380137E187FFFB7
:107F7C0012CB3AAA06A9077BFFE4FFFD12A8E390F7
:107F8C00053BE0FFA3E0FD754400754513A3E0FA43
:0E7F9C00A3E0FB1290A77F67E4FD12A59122DF
:107FAA009000FCE0C3940540217F567D357BFF7A23
:107FBA0015796F1278707E177F7112CB3AAA06A9CB
:107FCA00077BFF7F647D3712A8E39000FCE0700313
:107FDA000280F3E4FF7D357BFF7A157936127870DB
:107FEA009000FCE014B4070040030280C2907FFEB8
:107FFA00F828287302801302802302803302807BD0
:10800A0002802302803302807B7F0E7D377BFF7ADA
:10801A001579D01278700280C27F0E7D377BFF7A85
:10802A001579DA1278700280C27F0E7D377BFF7A6B
:10803A001579E41278707E177F7A12CB3AAA06A9CC
:10804A00077BFF7F647D0F12A8E39000FCE0C394D6
:10805A0005400F7F567D0D7BFF7A1479FD127870EB
:10806A0080567F567D0D7BFF7A15796F1278708066
:10807A00477F0E7D377BFF7A1579EF127870900073
:10808A00FCE0C39405400F7F237D357BFF7A14798A
:10809A00FD127870800D7F237D357BFF7A15796F0D
:1080AA001278707E197F3A12CB3AAA06A9077BFF8B
:1080BA007F317D3712A8E32230012E7F237D357B65
:1080CA00FF7A1579231278709000FBE0700E7F31E9
:1080DA007D387BFF7A157990127870227F317D374F
:0A80EA007BFF7A1579891278702265
:1091940090010AE030E72812C4807E017F2D7C0014
:1091A4007D13127E5C7E177F7A12CB3A7C007D138E
:1091B40012B5E8E4FF7D1412A8E3C201127FAA905D
:1091C400010AE030E2297F69E4FD7B80753E08C234
:1091D4000112848D90053AE0FF900539E0FD7A0094
:1091E4007B1312A77E7F80E4FD12A59112C14390E8
:1091F400010AE020E0030292807F407E0D7D037C23
:10920400009004D3E0F8A3E0F9A3E0FAA3E0FBD3D1
:10921400122BBF400E750C40750B0D750A037509B2
:1092240000803F7F617E797DFE7CFF9004D3E0F86F
:10923400A3E0F9A3E0FAA3E0FBC3122BBF500E7521
:109244000C61750B79750AFE7509FF80159004D3BE
:10925400E0FCA3E0FDA3E0FEA3E0F50C8E0B8D0A79
:109264008C097F287D147B46753E1CC20112848DB7
:0D9274007F467D14E4FB7543831271612277
:10595E0090010AE020E703025AED12C4807E017F17
:10596E002D7C007D13127E5C7E177F8712CB3A7CD6
:10597E00007D1312B5E8E4FF7D0B12A8E3E4FF747B
:10598E00B02FF582E43403F583E0FE74132FF58215
:10599E00E43400F583EEF00FBF08E4E490001BF052
:1059AE00FF74132FF582E43400F583E0B420040F66
:1059BE00BF08EEEFC39408500F7F1E7D0B7B017A5C
:1059CE0000791312A8E380147E457FCD12CB3AAA3C
:1059DE0006A9077BFF7F1E7D0B12A8E37E177F7142
:1059EE0012CB3A7C007D1312B5E87F717D0B12A5A8
:1059FE00919003BCE0FEA3E0FFE48F0C8E0BF50A42
:105A0E00F5097F807D0BFBF5431271617E177F9147
:105A1E0012CB3A7C007D1312B5E8E4FF7D1412A878
:105A2E00E39003B9E060549003BEE0FEA3E0FFE410
:105A3E008F0C8E0BF50AF5097F467D14FB7543839B
:105A4E001271617F487D157BFF7A157990127870FF
:105A5E009003C0E0FEA3E0FFE48F0C8E0BF50AF579
:105A6E00097F6E7D14FB7543831271617F707D1506
:105A7E007BFF7A15798912787080359003BEE0FE2F
:105A8E00A3E0FFE48F0C8E0BF50AF5097F467D141B
:105A9E00FB7543831271617D1490021AE075F00359
:105AAE00A42426F9741835F0FA7BFF7F4812A8E378
:105ABE007E177F7A12CB3A7C007D1312B5E8E4FF95
:105ACE007D1D12A8E37E177F9E12CB3A7C007D13BC
:105ADE0012B5E8E4FF7D2612A8E3C201127FAA9058
:105AEE00010AE030E2297F69E4FD7B80753E08C241
:105AFE000112848D90053AE0FF900539E0FD7A00A1
:105B0E007B1312A77E7F80E4FD12A59112C14390F4
:105B1E00010AE020E003025BBD7F407E0D7D037C29
:105B2E00009004D3E0F8A3E0F9A3E0FAA3E0FBD3DE
:105B3E00122BBF400E750C40750B0D750A037509BF
:105B4E0000803F7F617E797DFE7CFF9004D3E0F87C
:105B5E00A3E0F9A3E0FAA3E0FBC3122BBF500E752E
:105B6E000C61750B79750AFE7509FF80159004D3CB
:105B7E00E0FCA3E0FDA3E0FEA3E0F50C8E0B8D0A86
:105B8E008C097F287D1D7B50753E25C20112848DA8
:105B9E007F467D1DE4FB754383127161900506E01F
:105BAE00600D7F487D217BFF7A1579A51278709064
:105BBE00010AE020E103025C539004D7E0FCA3E06D
:0C5BCE00FDA3E0FEA3E0F50C8E0B8D0A99
:105BDA008C097F287D267B46753E2EC20112848D54
:105BEA007F467D26E4FB7543831271619003B9E019
:105BFA00603E7F007E007D007C009004D7E0F8A321
:105C0A00E0F9A3E0FAA3E0FBD3122BBF403B9004D8
:105C1A00DBE0700E7F487D277BFF7A15799012783A
:105C2A0070227F487D277BFF7A1579891278702246
:105C3A007D2690021AE075F003A42426F97418351B
:0A5C4A00F0FA7BFF7F4812A8E32266
:1039C6008E318F3290010AE020E703023AE912C4F1
:1039D60080AF32AE317C007D13127E5C7E177FADE8
:1039E60012CB3A7C007D1312B5E8E4FF7D0B12A8DA
:1039F600E3E4FF7D157BFF7A1579AA1278707F05BF
:103A06007D147B3A1245E07E197F2B12CB3A7C005F
:103A16007D1312B5E8E4FF7D1D12A8E37F397D1EF4
:103A26007BFF7A1579B61278707E197F3112CB3A00
:103A36007C007D1312B5E8E4FF7D2612A8E37F39EA
:103A46007D277BFF7A1579B61278707F4B7D0D7BCB
:103A5600FF7A1579C91278707F527D0B7B3A124531
:103A6600E07D0B90021AE075F003A42426F9741881
:103A760035F0FA7BFF7F7512A8E37F4B7D157BFF40
:103A86007A1579B01278707F507D147B3A1245E032
:103A96007D1490021AE075F003A42426F9741835F3
:103AA600F0FA7BFF7F7512A8E37F4B7D1E7BFF7AC2
:103AB6001579C11278707F527D1D7B3A1245E07DE3
:103AC6001D90021AE075F003A42426F9741835F047
:103AD600FA7BFF7F7512A8E39003B9E024FF9201F9
:103AE600127FAA9000FCE0C39405503090010AE0D2
:103AF60030E2297F69E4FD7B80753E08C2011284AD
:103B06008D90053AE0FF900539E0FD7A007B1312AF
:103B1600A77E7F80E4FD12A59112C14390010AE0C1
:103B260020E103023DE39003B9E0604A9000FBE028
:103B360064017042E5322468F534E43531F533A387
:103B4600E0C394054015E53224CEF582E43531F51F
:103B560083E0FEA3E08E35F536800B9003C0E0FED1
:103B6600A3E08E35F536E53224D2F582E43531F51B
:103B760083E0F5378042E5322408F534E43531F543
:103B8600339000FCE0C394054015E53224CCF58261
:103B9600E43531F583E0FEA3E08E35F536800B90F3
:103BA60003BEE0FEA3E08E35F536E53224D1F5827C
:103BB600E43531F583E0F537E5342408F582E4355C
:103BC60033F583E0FEA3E0FFE48F0C8E0BF50AF5D8
:103BD600097F207D0B7B37753E13C20112848D7FD2
:103BE600377D0BE4FBF543127161AF34AE3312BB84
:103BF60043900000122CC8900000E0FCA3E0FDA357
:103C0600E0FEA3E0FF12271F8F0C8E0B8D0A8C0996
:103C16007F557D147B73753E1CC20112848D7F73A4
:103C26007D14E4FB754383127161AF34AE33128B9E
:013C3600E0AD
:103C3700900004122CC8900004E0FCA3E0FDA3E070
:103C4700FEA3E0FF12271F8F0C8E0B8D0A8C097FB6
:103C5700197D147B37753E1CC20112848D7F377D19
:103C670014E4FB754383127161900004E0FCA3E048
:103C7700FDA3E0FEA3E0F53F8E3E8D3D8C3C90001A
:103C870000E0FCA3E0FDA3E0FEA3E0FF12BB881267
:103C9700271F8F0C8E0B8D0A8C097F237D1D7B3789
:103CA700753E25C20112848D7F377D1DE4FBF543E8
:103CB700127161E53224D0F582E43531F583E06095
:103CC7000CE485370CF50BF50AF5098037900004ED
:103CD700E0FCA3E0FDA3E0FEA3E0F53F8E3E8D3DB3
:103CE7008C3C90022DE0F540900000E0FCA3E0FD45
:103CF700A3E0FEA3E0FF12952D12271F8F0C8E0B5A
:103D07008D0A8C097F237D267B37753E2EC20112D3
:103D1700848D7F377D26E4FBF543127161AE35E470
:103D270085360C8E0BF50AF5097F557D0B7B737570
:103D37003E13C20112848D7F737D0BE4FB754383B1
:103D47001271619003B9E060419000FBE0B4013A61
:103D5700E53224CAF582E43531F583E0FCA3E0FDC2
:103D6700E41226E6A804A905AA06AB07900000E01E
:103D7700FCA3E0FDA3E0FEA3E0FF1223C812271F68
:103D87008F0C8E0B8D0A8C098038E53224C8F5829A
:103D9700E43531F583E0FCA3E0FDE41226E6A80450
:103DA700A905AA06AB07900000E0FCA3E0FDA3E08D
:103DB700FEA3E0FF1223C812271F8F0C8E0B8D0A5C
:103DC7008C097F557D1D7B73753E25C20112848D3D
:0D3DD7007F737D1DE4FB7543831271612233
:1061E5008E318F3290010AE030E76A12C480AF32F7
:1061F500AE317C007D13127E5C7F027D297B4F12C0
:10620500987C7F037D297B011285A47F4F7D297BA7
:10621500011285A47F297D297B011285A47D1C900F
:10622500021AE075F003A42426F9741835F0FA7BF8
:10623500FF7F7312A8E37E187F0812CB3AAA06A93E
:10624500077BFF7F737D2612A8E39003B9E024FF47
:106255009201127FAA9000FCE0C394055030900192
:106265000AE030E2297F69E4FD7B80753E08C201C2
:1062750012848D90053AE0FF900539E0FD7A007BA8
:106285001312A77E7F80E4FD12A59112C1439001F0
:106295000AE0FF20E10620E30302648CEF20E1031E
:1062A5000263749003B9E060149000FBE0B4010D43
:1062B500E5322472F534E43531F533800BE53224CB
:1062C50012F534E43531F53375401E753F00753EE2
:1062D50000753D00AF34AE331289DE8F388E378DB1
:1062E500368C357F037D0B7B51753E29C2011284A7
:1062F5008DE4F539E5342408F582E43533F5837505
:10630500F002E539122D05E0FEA3E0FFE4FCFDAB4C
:1063150038AA37A936A83512BC9A8F3AE53424082D
:10632500F582E43533F58375F002E539122D05E084
:10633500FEA3E0D39400EE94004007E53A700375A0
:106345003A01E53925E02403FFC37429953AFDABED
:106355003A1285A4E53925E02404FFC37429953A4A
:10636500FDAB3A1285A40539E539C39427408590DC
:1063750015BEE493FEC313FFC374039FFF7D2BEE8D
:10638500244FFBA3E493242BF53EC20112848D9088
:1063950015BEE493FFC313FFC374039FFF9000FA78
:1063A500E025E02FFF7D2B7BFF7A1579BD127870F4
:1063B5009000FAE0FFE4EF24EDFFE434FFFEE4345F
:1063C500FFFDE434FFFCE5342404F582E43533F5C0
:1063D50083E0F8A3E0F9A3E0FAA3E0FB122A87859E
:1063E5003482853383E0F8A3E0F9A3E0FAA3E02F34
:1063F500F50CEA3EF50BE93DF50AE83CF5097F5356
:106405007D1C7B71753E24C20112848D9000FAE0DB
:10641500700F7F6B7D1D7BFF7A15799E12787080DA
:10642500229000FAE0B4260F7F6B7D1D7BFF7A1565
:106435007997127870800C7F717D1CE4FB7543831E
:10644500127161E5342408F582E43533F583C083A0
:10645500C0829000FAE0D082D08375F002122D053B
:10646500E0FEA3E0FFE48F0C8E0BF50AF5097F53E0
:106475007D267B71753E2EC20112848D7F717D262E
:08648500E4FBF54312716122F2
:10B43E007E007FFD12AAA990010BEEF0A3EFF0F4AF
:10B44E007002EEF4604190010BE0FEA3E08E34F545
:10B45E0035E4F5367E007FFD90010BE0FCA3E0FDA8
:10B46E0012A7F690010BEEF0A3EFF0BEFF0EBFFF9A
:10B47E000B90010BE534F0A3E535F0220536E536E9
:08B48E00C3940840CF80BF22E7
:10C4CC0090021DE0700974FF90010BF0A3F022782C
:10C4DC00FD7C007D017B017A0279007E007F0D12CC
:06C4EC0028B712B43E2245
:10C62900AD07AC067E017F207BD37A0012B38E90D2
:10C6390000FD122CC87E007FFD128FB812B43E2275
:10B8F70090010BE0FEA3E08E32F533E4F5317E00D4
:10B907007FFDAD33AC3212A7F68E328F33E533B4F9
:10B91700FF15E532B4FF107E007FFD12AAA9900142
:10B927000BEEF0A3EFF0220531E531C3940840CECA
:0BB9370090010BE532F0A3E533F02295
:10BE200090010BE0FEA3E08E32F533E4F5317E00A5
:10BE30007FFDAD33AC3212AB818E328F33E533B43C
:10BE4000FF09E532B4FF0412B43E220531E531C3E7
:0FBE5000940840DA90010BE532F0A3E533F022BD
:10AE5900AD07AC06900106E0FF900109E06F6008BC
:10AE6900ED2401FFE43CFE22900107E0FAA3E0FB98
:10AE7900D3ED9BEC9A4008C3ED9BFFEC9AFE229020
:10AE89000102E024FFFF900101E034FFFEEFB5036A
:10AE990009EEB50205AE04AF0522900102E02DFFCF
:10AEA900900101E03CFE900107E0FCA3E0FDC3EF47
:06AEB9009DFFEE9CFE224D
:10734E00E4F537F53690010BE0FEA3E08E33F5340D
:10735E00E4FF7D017B80753C0612AD27E534B4FF5A
:10736E001AE533B4FF157E197F4412CB3AAA06A94B
:10737E00077BFF7F407D1B12944A22E4F535E534EE
:10738E00F47003E533F470030275137E007FFDC0C5
:10739E0006AD34AC337A017B0DE4F556F55790010A
:1073AE0003E0FEA3E08E58F559D00612BDA2AF340D
:1073BE00AE3312AE59E48F0C8E0BF50AF509E53794
:1073CE0075F044A42413FFE53675F009A4240BFDD3
:1073DE00E4FBF543127161E53775F044A42414FF04
:1073EE00E53675F009A4240BFD7B3A1245E09001B9
:1073FE000DE020E5030274C57E017F0D12BE9D8F48
:10740E000C8E0B8D0A8C097F9F7E867D017C00ABD6
:10741E000CAA0BA90AA809D3122BD5400C750C9FE8
:10742E00750B86750A01750900E53775F044A424BD
:10743E0030FFE53675F009A4240BFDE4FB7543839C
:10744E001271619003B9E0604190010DE030E41DCE
:10745E00E53775F044A42432FFE53675F009A4240F
:10746E000CFD7BFF7A157989127870806FE5377580
:10747E00F044A42432FFE53675F009A4240CFD7BFC
:10748E00FF7A1579901278708052E53775F044A422
:10749E002432FFC007E53675F009A4240BFD9002D7
:1074AE001AE075F003A42426F9741835F0FA7BFF60
:1074BE00D00712A8E3802590010FE0541FFFE4FDD2
:1074CE007A007B1312A77EE53775F044A42431FFB2
:1074DE00E53675F009A4240BFD12A5917E007FFD03
:1074EE00AD34AC3312A7F68E338F340536E536C382
:1074FE00940440050537E4F5360535E535C39408A3
:06750E00500302738C2201
:10A60E008E318F3290010AE030E71912C480AF32DA
:10A61E00AE317C007D13127E5C9003B9E024FF9274
:10A62E0001127FAA9000FCE0C39405503090010AFD
:10A63E00E030E2297F69E4FD7B80753E08C201129D
:10A64E00848D90053AE0FF900539E0FD7A007B138A
:10A65E0012A77E7F80E4FD12A59112C14390010ADC
:10A66E00E0FF20E10330E413EF30E10C9000FCE05A
:0CA67E00C39405500312C4CC12734E228A
:105F320090021DE0600312B63A7F0112BD20E49088
:105F4200052EF012C480D2007E017F2012B68B8E05
:105F52002A8F2BE52BB4FF10E52AB4FF0BE4FF12C6
:105F6200BD20E490052EF0229000FCE0F52E90007A
:105F7200FBE0F52F9000FAE0F5309000FC7405F09C
:105F8200E49000FBF09000FAF090010A74FFF03008
:105F92000048C2007E017F20AD2BAC2A7A007B270D
:105FA200E4F556F557F5587559D312BDA29000FC89
:105FB200E024FA6010146016240270197E007F2714
:105FC2001239C680107E007F271261E580077E00AD
:105FD2007F2712A60EE490010AF012000EEF122D96
:105FE20061605B0160BC02603503600504611D05F0
:105FF20061C50661C54360998160FA82615F85006F
:10600200005F9112CA6E9000FCE0C394075005E055
:1060120004F080069000FC7405F09000FCE0B407E8
:1060220007AF2BAE2A12C62990010A74FFF0D200E4
:10603200025F919003B9E07003025F9112CA6E9001
:1060420000FBE0700404F08005E49000FBF0900196
:106052000A74FFF0D200025F917E017F20AD2BAC6B
:106062002A12AB818E2C8F2DE52DF47003E52CF4D2
:106072007003025F9112CA6E852C2A852D2B900027
:10608200FCE0B40707AF2BAE2A12C62990010A74AE
:10609200FFF0D200025F9112CA6E7E017F2012AA27
:1060A200A98E2A8F2B9000FCE0B4070312C6299018
:1060B200010A74FFF0D200025F917E017F20AD2BB6
:1060C200AC2A12A7F68E2C8F2DE52DF47003E52C49
:1060D200F47003025F9112CA6E852C2A852D2B90D3
:1060E20000FCE0B40707AF2BAE2A12C62990010AC2
:1060F20074FFF0D200025F9112CA6E7E017F2012FD
:10610200B68B8E2A8F2B9000FCE0B4070312C629AF
:1061120090010A74FFF0D200025F919000FCE0242B
:10612200F96028046003025F9112CA6E9000FAE0DF
:10613200C394265005E004F08005E49000FAF09044
:10614200010AE04408F0D200025F9112CA6E12B84E
:10615200F790010AE04410F0D200025F919000FC37
:10616200E024F96029046003025F9112CA6E900074
:10617200FAE0D394004005E014F080069000FA742F
:1061820026F090010AE04408F0D200025F9112CAA0
:106192006E12BE2090010AE04410F0D200025F911C
:1061A20012CA6E9000FAE0D394004005E014F08029
:1061B200069000FA7426F090010AE04408F0D2003A
:1061C200025F9112CA6EE4FF12BD20E490052EF028
:1061D2009000FCE52EF09000FBE52FF09000FAE530
:0361E20030F02278
:10C4320012C48090174CE493FFC313FFC374409F50
:10C44200FFA3E493FEC313FEC374209EFD7BFF7A19
:07C4520017794B12787022EC
:10B4EC0090010AEFF07F0112BD20E490052EF09040
:10B4FC0000FCE014601214601414601A1460202410
:10B50C00047023129194801E12595E80197E017F63
:10B51C002D1239C680107E017F2D1261E580077EC9
:10B52C00017F2D12A60EE4FF12BD20E490052EF033
:05B53C0090010AF0225D
:10A705007F0112BD207F057D057BFF7A1579F91242
:10A7150078707E187F1012CB3AAA06A9077BFF7FB7
:10A725007B7D0512A5917F007E0112C517E48F0C74
:10A735008E0BF50AF5097F7A7D0CFB754382127144
:10A74500617F6A7D1E7BFF7A17796A1278709002A5
:10A7550012E0FF75F00A842430900013F0EF75F0D5
:10A765000A84E5F02430A3F0E4A3F07F7B7D1C7B15
:09A77500017A00791312A591226A
:0FCA5F009000FBE0700304F022E49000FBF02253
:10C9A7009000FAE0C394265004E004F022E49000DB
:03C9B700FAF02271
:10C932009000FAE0D394004004E014F0229000FA50
:04C942007426F02245
:10C7A9009000FCE0C39404500BE004F0E0B4040AE8
:0BC7B90012C4CC229000FC7401F0229E
:10BA2000D2109004CD122CD400000000E49004D178
:10BA3000F0A304F0A3122CD4000000009004D7124D
:10BA40002CD400000000E49004DBF012C9469005FD
:10BA500002122CD40001869FE4900506F0A3F0A307
:0ABA6000F012CAC0E4FF12CB8C22E2
:10C946007E047FDC900219E0FD12C6A77E047FDC20
:04C9560012C35A228C
:10C9EE00A206E433900508F0300605E4900506F043
:01C9FE002216
:10648D008E408F418C428D438F828E83C083C0821C
:10649D00E0F8A3E0F9A3E0FAA3E0FB8F828E83E599
:1064AD00822404F582E43583F583E0FFC313FFE412
:1064BD00FCFDFEEB2FFFEE3AFEED39FDEC38FCD086
:1064CD0082D083122CC8854182854083C083C082CF
:1064DD00E0FCA3E0FDA3E0FEA3E0FFC004C005C007
:1064ED0006C007E5412404F582E43540F583E0FF5D
:1064FD00E4FCFDFEF8F9FAAB07D007D006D005D0C5
:10650D000412BC9AD082D083122CC8854382854256
:10651D0083E0F8A3E0F9A3E0FAA3E0FBE54324044C
:10652D00F582E43542F583E0FCA3E0FDA3E0FEA394
:10653D00E0C39BFFEE9AFEED99FDEC98FCE541243E
:10654D0006F582E43540F583122CC88541828540DD
:10655D0083C083C082E0FCA3E0FDA3E0FEA3E0FFC7
:10656D00854382854283E0F8A3E0F9A3E0FAA3E036
:10657D00FBC3EF9BFFEE9AFEED99FDEC98FCD082EC
:10658D00D083122CC8E5432408F582E43542F58307
:10659D00E0FCA3E0FDA3E0FEA3E0FFEC1226E1C0CA
:1065AD0004C005C006C007854182854083E0FCA379
:1065BD00E0FDA3E0FEA3E0FFEC1226E1D003D00244
:1065CD00D001D0001224BDC004C005C006C007E52F
:1065DD00412406F582E43540F583E0FCA3E0FDA3FC
:1065ED00E0FEA3E0FFEC1226E1A804A905AA06AB84
:1065FD0007D007D006D005D0041225C68F478E468A
:10660D008D458C447F007E007D007C00AB47AA4603
:10661D00A945A8441226634041AB47AA46A945A8FF
:10662D0044C000C001C002C003E543240CF582E460
:10663D003542F583E0FCE41226EB7B007A0079000D
:10664D0078401225C6D003D002D001D0001223CC41
:10665D008F478E468D458C448047AF47AE46AD453E
:10666D00AC44C004C005C006C007E543240CF58248
:10667D00E43542F583E0FCE41226EB7B007A0079E9
:10668D000078401225C6A804A905AA06AB07D007B5
:10669D00D006D005D0041223C88F478E468D458C69
:1066AD0044AF47AE46AD45AC4412271FE541240625
:1066BD00F582E43540F583122CC8E543240CF582B0
:1066CD00E43542F583E0FFD39401404FE4FCFDFE39
:1066DD00A804A905AA06AB07E5412406F582E43511
:1066ED0040F583E0FCA3E0FDA3E0FEA3E0FF12BCB8
:1066FD009AA804A905AA06AB07E543240CF582E484
:10670D003542F583E0FFE4FCFDFE122A87E54124C6
:0C671D0006F582E43540F583122CC822FA
:106B72008B408A418942C206C207E9240FF9E43AEE
:106B8200FEAF01C006C007A942900006122C0C8F6E
:106B9200508E4F8D4E8C4DD007D00612A37CE5420D
:106BA200240FF9E43541FEAF0112C6C54002C322EB
:106BB200E542240FF9E43541FEAF01C006C007905B
:106BC20003BEE0FEA3E0FFE4FCFDF8F9AA06AB0772
:106BD200900218E0FFE4FE122A877BE87A0379002C
:106BE200780012BC9A8F508E4F8D4E8C4DD007D0AC
:106BF2000612ADF34029AB40AA41A94290003912D6
:106C020028F9600CE9240FF9E43AFEAF0112C35AE5
:106C1200AB40AA41A942900039E412296BC322ABCE
:106C220040AA41A9429000391228F96002C3229079
:106C32000039740112296BE9240FF9E43AFEAF011D
:106C420012A1568F468E458D448C43AB40AA41A972
:106C520042900035122C8CC3E5469BF54AE5459AD5
:106C6200F549E54499F548E54398F547AB40AA4113
:106C7200A942900035122C3C9003C2E0FCA3E0FD37
:106C8200A3E0FEA3E0FFAB4AAA49A948A847D31252
:106C92002BBF501A9003C6E0FCA3E0FDA3E0FEA3C5
:106CA200E0FFA847C3122BBF4004D206803A9003EC
:106CB200B9E060349003CAE0FCA3E0FDA3E0FEA3C8
:106CC200E0FFAB4AAA49A948A847D3122BBF5018E4
:106CD2009003CEE0FCA3E0FDA3E0FEA3E0FFA84703
:106CE200C3122BBF4002D207200605200702C3228F
:106CF20030066130075E9003C0E0FEA3E0FFE4C30C
:106D0200EF954AFFEE9549FEE49548FDE49547FC70
:106D120012C177C004C005C006C0079003BEE0FEE2
:106D2200A3E0FFE4C3EF954AFFEE9549FEE49548E0
:106D3200FDE49547FC12C177A804A905AA06AB0792
:106D4200D007D006D005D004D3122BBF5004C207FF
:106D52008002C206AF4AAE49AD48AC47AB40AA4139
:106D6200A94290000A122C3CA207E43390000E12B2
:046D7200296BD32294
:108ADF00201002C32212AEBF4002C3229004CDE089
:108AEF00F8A3E0F9A3E0FAA3E0FBC000C001C002C5
:108AFF00C00312CB0AD003D002D001D000EB2FFF5E
:108B0F00EA3EFEE93DFDE83CFC9004CD122CC890F6
:108B1F0004D1E004F0E0C394045002C3229004D2C5
:108B2F00E06013E4F09004CD122CD400000000E4B8
:108B3F009004D1F0C3227E047FCD90044AE075F0FB
:108B4F000DA4244BF582E43404AD82FC12648D90A5
:108B5F0004CD122CD400000000E49004D1F0900159
:108B6F000AE04401F090021DE07002C3229003BEA0
:108B7F00E07002A3E060109003B9E0600C9003C0B6
:108B8F00E07002A3E07002C322E4FF9003BAE0FE9C
:108B9F00F46016A3E0FDF4601090053AE0FCC39E6C
:108BAF004005ECD39D40027F01900507E06F600FF9
:108BBF00EFF024FF920612C9EE90010A74FFF090B5
:108BCF000508E06002C3227B017A0479CD126B7233
:018BDF002273
:10C85B00D2109004D27401F07E047FDC12C35A1202
:08C86B00CB8DE4FF12CB8C22FF
:03CB8300C21022BB
:10C7F80000001000017315EEFEFF000000000000AD
:0AC8080000070900037FFF00000095
:109D2D0078207C017D017BFF7AC779F87E007F0D5D
:109D3D001228B778007C027D017BFF7AC879057EF9
:109D4D00007F0D1228B712BBCD400812C003E4FFEF
:109D5D0012B0B07E017F20128FB890021DE06061BD
:109D6D007E017F2012B68B8E238F24E524B4FF094C
:109D7D00E523B4FF0412C1AB227E017F20AD24ACDC
:109D8D00237A017B1A75560075570275580075595F
:109D9D000612BDA27E017F2F7C017D1A12B22640D4
:109DAD000412C1AB227E017F20AD24AC237BD37A7C
:109DBD000012B38E900200122CC87E027F00128F0B
:029DCD00B822BA
:10A26A008F438E428D418C40E54470347E017F35A8
:10A27A00C006C007AF43AE42EC1226E18F4A8E49B0
:10A28A008D488C47D007D00612A50E7E017F3F85E8
:10A29A004355854254854153854052127514803680
:10A2AA007E017F95C006C007AF43AE42AD41AC40C8
:10A2BA00EC1226E18F4A8E498D488C47D007D0068A
:10A2CA0012A50E7E017F9F854355854254854153D1
:10A2DA00854052127514E4FF12B0B0AF43AE42ADDE
:0AA2EA0041AC4085444912AF252223
:10C45900782F7C017D017B017A0579397E007F0681
:10C469001228B720A00312C20FE4FF12B0B0900146
:07C4790030E0FF12C6E322D0
:10B63A007E017F2012B68B8E408F417E017F20AD26
:10B64A0041AC407A017B1A7556007557027558004D
:10B65A0075590612BDA27E017F2F7C017D1A12B296
:10B66A0026501A7E017F20AD41AC407A017B2DE441
:10B67A00F558F559F55A755BD312BCDE2212C1ABE7
:01B68A00229D
:10A95700900209E0FF90020CE06F600330A007E46B
:10A967009001FDF080529001FD7401F07E017F356A
:10A9770012BB438F468E458D448C437E027F00E495
:10A98700FD90022DE0F547128DD59001FEEFF09076
:10A9970003B9E060237E017F9512BB438F468E4546
:10A9A7008D448C437E027F007D0190022DE0F547A8
:10A9B700128DD59001FFEFF020A00312C20F12B63F
:02A9C7003A2232
:10BC56007E017F3512BB4312271F8E408F41900312
:10BC6600B9E060107E017F9512BB4312271F8E42FA
:10BC76008F438005E4F542F54312C0039001F5E5D4
:10BC860040F0A3E541F0A3E542F0A3E543F07F01D0
:04BC960012B0B02216
:10A2F4007E017F3F12C4A6501D9003BEE0FEA3E082
:10A30400FFE4FCFD90013F122CC87E017F3F9002C8
:10A314001BE0FD128CDF9003B9E060267E017F9F75
:10A3240012C4A6501D9003C0E0FEA3E0FFE4FCFDB0
:10A3340090019F122CC87E017F9F90021BE0FD12AA
:10A344008CDF9003BCE0FFA3E090012DCFF0A3EFDE
:10A35400F09003BEE0FFA3E09001F9CFF0A3EFF08B
:10A364009003C0E0FFA3E09001FBCFF0A3EFF07FE8
:08A374000112B0B012C1AB22CE
:1099E2008F447E017F2012B68B8E458F46E546B4AA
:1099F200FF0EE545B4FF097F007E007D007C00225A
:109A0200E544701B7E017F20AD46AC457A017B1098
:109A1200F556755708F55875590A12BDA2801B7E76
:109A2200017F20AD46AC457A017B10755600755713
:109A32006875580075590A12BDA27E017F1012BBCB
:109A4200438F4A8E498D488C477F007E007D007C83
:109A520000AB4AAA49A948A847122663600E400CE7
:109A6200AF4AAE49AD48AC4712271F227E017F2084
:109A7200AD46AC4512AB818E458F46E546F4700388
:0D9A8200E545F46003029A02FFFEFDFC22A0
:10BE9D00AB07AA068B828A83A3E0FEA3E0FFE48FA3
:10BEAD00538E52F551F550AE02AF038F828E83E063
:10BEBD0030E012E553F553E552F552E5514401F5E5
:0EBECD0051E550F550AF53AE52AD51AC50227E
:10CA3F007E017F2012B7C712C003E4FF12B0B022ED
:10C003007E017F3512C1DE7E017F9512C1DE7E0186
:10C013007F3F12C78E7E017F9F12C78EE49001F58A
:10C02300F0A3F0A3F0A3F0A3F0A3F0A3F0A3F0A375
:08C03300F0A37464F0A3F022F5
:10BBCD00E4F525F52975260175272DF528AF2505F1
:10BBDD00257E0012C873852782852683EFF0E02528
:10BBED0029F5290527E527700205260528E528C32F
:10BBFD0094D340D9AF257E0012C873E529F46F6048
:05BC0D0002C322D32256
:10B0B00030A003EF6058782F7C017D017B017A0579
:10B0C00079397E007F061228B7E4F545F5497546C3
:10B0D0000175472DF548AF4505457E0085478285BA
:10B0E0004683E0FD12C773854782854683E0254984
:10B0F000F5490547E547700205460548E548C3940C
:0FB10000D340D3AF457E00E549F4FD12C773225B
:10A403008F40E540B4010E754101754295754301D6
:10A4130075449F800C754101754235754301754440
:10A423003FE5422408F582E43541F583E0FEA3E0ED
:10A433004E6052AF42AE4112BB4312271F8F488E6C
:10A44300478D468C457F007E007D007C00AB48AA8B
:10A4530047A946A845D3122BBF402AAF48AE47AD04
:10A4630046AC45854482854383122CC8AF44AE4332
:10A4730090021BE0FD128CDF7E027F00AD44AC43F3
:06A48300AB40129FA9226C
:10C20F00900209E0FF90020CE0FE6F60239002089D
:10C21F00E0FFEEB5070A90020AE07002A3E060109B
:10C22F00E4FF12A4039003B9E060057F0112A40399
:01C23F0022DC
:10AF25008F488E478D468C45E548F548E547F547FA
:10AF3500E5465401F546E4F54590020EE547F0A3D4
:10AF4500E548F07FFF7EFF7D007C00FBAA47A94610
:10AF5500A845D3122BBF400890020D7421F080063E
:10AF650090020D7420F0E549600790020DE0441051
:10AF7500F07E027F007C027D0D900206E0FAA3E0E0
:05AF8500FB12992F22D0
:10C6E300E490020DF0A3F0A3EFF07E027F007C0242
:0EC6F3007D0D900206E0FAA3E0FB12992F22C3
:10C1AB007E017F207C017D2D7BD37A0012992F7E1F
:10C1BB00017F2012B68BAD07AC067E017F207BD3AF
:10C1CB007A0012B38E900200122CC87E027F0012EE
:03C1DB00B7C722C1
:108DD5008E408F418D42E542B401057542108003F6
:108DE500E4F542C374649547FDE49400FCE412265F
:108DF500E6AB46AA45A944A8431224BD7B007A00E8
:108E050079C878421225C6C004C005C006C007E56A
:108E1500472464FDE433FCE41226E6AB46AA45A9E3
:108E250044A8431224BD7B007A0079C878421225F4
:108E3500C68F518E508D4F8C4E8546558545548530
:108E45004453854352D007D006D005D00412C270D2
:108E5500AF41AE4012AAA98E488F49E549F4700387
:108E6500E548F46059AD49AC487A027B0DE4F55606
:108E7500F557E5412406F582E43540F583E0FEA388
:108E8500E08E58F559AF41AE4012BDA290020DE0FB
:108E9500FF30E5135410B5420E7E027F0D12BE9DC4
:108EA500EC1226E112B10FAF41AE40AD49AC48120C
:108EB500A7F68E488F4975A61E75A6E1809D12B04E
:028EC500502239
:109FA9008E498F4A8C4B8D4C8B4DE54DB40105750F
:109FB9004D108003E4F54DAF4CAE4B12C78EAF4A3E
:109FC900AE4912AAA98E4E8F4FE54FF47003E54EA4
:109FD900F46061AD4FAC4E7A027B0DE4F556F5574E
:109FE900E54A2406F582E43549F583E0FEA3E08ECF
:109FF90058F559AF4AAE4912BDA290020DE0FF30A3
:10A00900E51B5410B54D167E027F0D12BE9D8F556E
:10A019008E548D538C52AF4CAE4B127514AF4AAE61
:10A0290049AD4FAC4E12A7F68E4E8F4F75A61E75D1
:05A03900A6E180952264
:10C64900D20EE4F52A12C981EF543CFFBF2C04C273
:10C659000ED322052AE52AC3940340E9C20EC32258
:10928100E4F52BF52CF52DF52E75A61E75A6E1300E
:10929100A003029363C20EAF2CAE2BAD2EAC2D12E8
:1092A100B779E4F52A12CACC7419252AF582E43477
:1092B10005F583EFF0052AE52AC3941040E712CBA8
:1092C10070D20EAF2EAE2D12C608E4F52A74192500
:1092D1002AF582E43405F583E0FF120003052AE54F
:1092E1002AC3941040E712CB707410252EF52EE49A
:1092F100352DF52DC39402405FAE2BAF2C7C007D44
:109301003E1229A1ED4C7036753208AE2BAF2CFC04
:10931100FD7B42FAF9F8122A877B007A10790078EE
:109321000012BC9A8E338F34E4F535F536F5377576
:1093310038647539FF7B6B7D287F0A1288DCE4F580
:109341002DF52E12C689AF2CAE2B12C03B12C68949
:10935100052CE52C7002052BC3E52B94105003025C
:05936100928AC20E22F9
:108EC700E4F52BF52CF52DF52E75A61E75A6E130CC
:108ED700A003028FB4C20EAF2CAE2BAD2EAC2D1259
:108EE700B779E4F52A12CACC7419252AF582E43435
:108EF70005F583EFF0052AE52AC3941040E712CB66
:108F070070D20EAF2CAE2BAD2EAC2D12B779E4F587
:108F17002A12CACC7419252AF582E43405F583E0B0
:108F27006F600712CB70C20EC322052AE52AC394CD
:108F37001040DE12CB707410252EF52EE4352DF57A
:108F47002DC39402405DAE2BAF2C7C007D78122997
:108F5700A1ED4C7041753208AE2BAF2CFCFD7B2286
:108F6700FAF9F8122A877B007A107900780012BC88
:108F77009AEF2442FFE43EFEE43DE43C8E338F3417
:108F8700E4F535F536F5377538647539FF7B6B7D54
:108F9700287F0A1288DCE4F52DF52E052CE52C70C8
:108FA70002052BC3E52B94105003028ED0C20ED3BB
:018FB7002297
:10BF190020A037D20E7F007E007D007C0012B98CF4
:10BF2900752A02752B80E4F52C12A489852B82854C
:10BF39002A83EFF0052BE52B7002052A052CE52C49
:0BBF4900C3947040E412CB70C20E22C3
:10936600E4F52BF52CF52D752E70E52C7F0025E008
:10937600FEEF252EF530E52D3EF52F30A0030294A5
:1093860049D20EAF2CAE2BAD2EAC2D12B779E4F52B
:109396002A12CACC7419252AF582E43405F583EF1E
:1093A600F0052AE52AC3941040E712CB70C20EAF2F
:1093B6002EAE2D12C608E4F52AAE2FAF30E4FCFD22
:1093C6007B70FAF9F8D3122BBF50107419252AF5C1
:1093D60082E43405F583E0FF1200030530E53070C2
:1093E60002052FAE2FAF30E4FCFD7B527A0AF9F866
:1093F600D3122BBF501112CB7012C689AF2CAE2BD5
:1094060012C03B12C68922052AE52AC3941040A938
:1094160012CB707410252EF52EE4352DF52DC39440
:10942600025003029381E4F52DF52E12C689AF2C66
:10943600AE2B12C03B12C689052CE52C7002052BFB
:0494460002938122EA
:10C8B60020A00A7FD07E0712C2D030A00875A61E1F
:06C8C60075A6E180EB22E3
:01CB8600228C
:01CB8700228B
:01CB8800228A
:01CB89002289
:01CB8A002288
:01CB8B002287
:0FCA6E007519027FE27E0C7D717C0612BAB3222D
:10000E00E53FB4430612B4967F432212CB2B8F3FAB
:10001E00EF24C060EB24FE60060470067F41227F51
:05002E004222AF3F2259
:10C7010012000E8F3EEF24FA600824C3600A243E13
:0EC7110070EE12CA6EAF3E2212CA6E7F062272
:10C95A0012000EEF24FA600824C36004243E70F02B
:04C96A0012CA6E225D
:10A86D007F2C7E0112C2D030A00312C8B690053FD6
:10A87D007405F0D2AF5389F0438901E4F58A758CE4
:10A88D0088D2A9D28C75190A7F997E087D4C7C04DB
:10A89D0012BAB312C2FF12BF5412CB4012B94212F8
:10A8AD00AA3A12BD6112B8AC12CB8612CB8775A62F
:10A8BD001E75A6E1129D2D7E017F2F7C057D39121F
:10A8CD00B22640047F0180027F00900540EFF01218
:06A8DD00A1E012BA2022E6
:10960A0012CA2FBF050B12CA6E12C9DDD20B12B3D2
:10961A0035C20B12CB2BEF1470030296AF14605EA7
:10962A0014603514601F24C470030296D924BF60E5
:10963A007414604A247D70DB12CA6E12505E7FFF7A
:10964A0012B4EC80CE90021DE060C812CA6E12C736
:10965A00A97FFF12B4EC80BB90021DE060B59003B5
:10966A00B9E060AF9000FCE0FF64026004EFB4036D
:10967A00A212CA6E12CA5F7FFF12B4EC80959000E4
:10968A00FCE024FC601104708A12CA6E12C9A77F1A
:10969A000812B4EC02961D12CA6E12B8F77F1012A5
:1096AA00B4EC02961D9000FCE024FC6014046003F4
:1096BA0002961D12CA6E12C9327F0812B4EC0296C3
:1096CA001D12CA6E12BE207F1012B4EC02961D90B3
:0B96DA00010AE0FF12B4EC02961D2212
:10C3DD0020A027900540E07021128ADF501C9004A8
:10C3ED00D7E0FCA3E0FDA3E0FEA3E0FFA3E0F5444E
:0BC3FD0012A26A90010AE04402F02244
:10AC570012C96E12BF547E017F2F7C057D3912B257
:10AC6700264025E4900540F090021DE0601212A9ED
:10AC77005712CB8A12BC5612CB8B124D2612A2F456
:10AC870090010A74FFF0801B90053AE0FF900130B5
:10AC9700E06F600F90021DE0600912C45990010A2D
:10ACA70074FFF090053FE014F070067405F012CBC6
:09ACB7008990010AE04404F02236
:10C6690030A01CC2B612CB8812CA6E12C43212C8CC
:10C67900B6D2B612CB8790010A74FFF012CB792299
:10BF540012CB5212CA7D90053BEFF012CB5812CA95
:10BF64007D90053CEFF012CB0112C51790053DEE14
:10BF7400F0A3EFF012CB4C12CA7D90053AEFF01209
:0BBF8400CB4612CA7D900539EFF02279
:0CCAC00012C994E4FF12CB1312CB7D22AC
:01CB8C002286
:01CB8D002285
:10AEBF007F4012C4F24002C3227512007511007553
:10AECF001000750F00E540640D6049AF12AE11AD73
:10AEDF0010AC0F7804122BF98F128E118D108C0F6E
:10AEEF00D3E540648094B95007E54024D0FF800536
:10AEFF00E54024C9FFEF540FFFE4E5124FF512E5CB
:10AF0F0011F511E510F510E50FF50F7F4012C4F2A2
:06AF1F0040B3C322D3225F
:09CB0A00AF12AE11AD10AC0F2208
:10C4F2008F4175420B7543B812CB80500912CAD7CF
:10C50200A841A607D322E5431543AE427002154265
:05C512004E70E5C3229C
:10C7E600010E19C18AC10D010800C10CC189010DD4
:01C7F6000042
:10C2D000D3EF9400EE9400402575A61E75A6E17D6F
:10C2E000FFDDFE7DFFDDFE7DFDDDFE7DFFDDFE7DF4
:0FC2F000FFDDFE7DFDDDFEEF1F70011E80D222FF
:10B4960075A61E75A6E112C669200B18300C12C2DD
:10B4A6000C750832300904050D8003E4F50D12AC65
:10B4B6005712C3DD300D0BC20D300A037F42227FC7
:10B4C6004122E50DD394F04006E4F50D7F432212A8
:10B4D600AB15EFF46004E4F50D2290010AE0600379
:06B4E6007F40227FFF22DF
:08CB2B0012B496EFF460F92248
:06CB6400E4F50DC20922F8
:06CB6A00E4F50DD20922E2
:04CB7900750DF12223
:03000B0002ABEC59
:10ABEC00C0E0C0F0C083C082C0D075D000C000C02F
:10ABFC0001C002C003C004C005C006C007758A00AE
:10AC0C00758C88D50E0FD20D300A05750E14800385
:10AC1C00750E19B20AE5086005D50802D20CE519C3
:10AC2C006006D5190312CB5EE51C543F6002151C5F
:10AC3C00D007D006D005D004D003D002D001D0006C
:0BAC4C00D0D0D082D083D0F0D0E03216
:1000C200C2A7C2A6D2B6E4F5A2758FFF758E3D75A2
:1000D200A70775A61E75A6E175083212A86D1296BD
:0200E2000A22F0
:10CA4F00EF75F06484FE740AC5F084C425F0FF22EC
:10C53C00AA07A906E4FFFEFDFC75F010C3EA33FA66
:10C54C00E933F9EF3FD4FFEE3ED4FEED3DD4FDD5FB
:03C55C00F0EA22E0
:10BF8F00AB07AA06A905A804E4FFFEFDFC12BFAF8C
:10BF9F00A80112BFAFA80212BFAFA80312BFAF22F2
:10BFAF0075F008E833F8EF3FD4FFEE3ED4FEED3DD9
:0BBFBF00D4FDEC3CD4FCD5F0EA2222BB
:0FCA7D00EFC4540F75F00AA4FEEF540F2EFF22E2
:10C51700AB07AA06EAFF12CA7D7E007C007D641283
:10C52700298DAC06AD07AF03EB12CA7D7E00ED2F58
:05C53700FFEE3CFE22B6
:10BFCA008F168E158D148C13AF05AE0412C517E4A7
:10BFDA00FCFD7B107A27F9F8122A87C004C005C035
:10BFEA0006C007AF16AE1512C517E4FCFDD003D084
:09BFFA0002D001D000122A7A22C3
:1023C50002278BE86480F8E933E83360110460F094
:1023D500ED33EC337009E8FCE9FDEAFEEBFF22047E
:1023E50060DED3EB9FEA9EE99DE8C2E78CF0C2F779
:1023F50095F0400CE8CCF8E9CDF9EACEFAEBCFFB45
:1024050012275685D0F05804700320D5B3E8047020
:10241500075002B2D502279592D5EC0460F7E4CCBB
:10242500C0E0C398F8603B94186008400DD0E0FB0D
:1024350002276DE4FBFAC9FC8028E830E406E4C90C
:10244500FBE4CAFCE830E305E4C9CACBFCE8540761
:102455006010F8C3E913F9EA13FAEB13FBEC13FC6C
:10246500D8F130F52FC3E49CFCEF9BFFEE9AFEED0F
:1024750099FDD0E0FBEF4E4D4C701222DB03022795
:1024850092EC2CFCEF33FFEE33FEED33FDED30E740
:10249500EB02276DEF2BFFEE3AFEED39FDD0E0FBA9
:1024A50050130BBB0003022795ED13FDEE13FEEF52
:0824B50013FFEC13FC02276D7C
:1024BD00EC4D6011E8497017ED33EC3304600DE419
:1024CD00FCFFFEFD22E933E8330470F802278B127E
:1024DD00275658046009E4CC24815006285009027F
:1024ED002795284003022792C0E0EB4A7044B9803B
:1024FD0006D0E0FB022781EF4E701CBD8008EBFF7C
:10250D00EAFEE9FD80EBE98DF0A4FEE5F00225A6DB
:10251D00E9CDF9EAFEEBFFEF89F0A4FCE5F0CE89F9
:10252D00F0A42EFFE435F0CD89F0A42DFEE435F0B6
:10253D008067EF4E7005BD80D780C3EF8BF0A4ACE4
:10254D00F0EE8BF0A42CFCE435F0F8EF8AF0A42C1F
:10255D00E5F038FCE433CB8DF0A42CFCE5F03BF832
:10256D00EE8AF0A42CFCE5F038F8E433CF89F0A422
:10257D002CFCE5F038CF3400CE89F0A42FFFE5F028
:10258D003EFEE433C98DF0A42EFEE5F039CD8AF080
:10259D00A42FFFE5F03EFEE43DFD33D0E0FB5007F8
:1025AD000BBB000F022795EC2CFCEF33FFEE33FE37
:0625BD00ED33FD02276D65
:1025C300022795EC5D046005E85904700302278B2C
:1025D300122756580460F6EC4860F2EC7004FDFED6
:1025E300FF22C860DB2481C85009C39860025006EB
:1025F3000227929850CAF582E9294B4A7005AB82AB
:1026030002278175F0007C1A7880C3EF9BEE9AED68
:1026130099400DC3EF9BFFEE9AFEED99FDE842F062
:10262300DC23ACF0D0E0FFD0E0FED0E0FDAB8220B5
:10263300E7101BEB60BAEC2CFCEF33FFEE33FEED3F
:1026430033FD02276DE803F830E705C0F075F000AD
:10265300EF2FFFEE33FEED33FD40B830E7C280AA23
:1026630074F8CC6480CCC86480C8F582046043C32A
:10267300EB9FF5F0EA9E42F0E99D42F0E89C45F0BD
:1026830060305018E5825FFFE582F42B5582FB50E2
:10269300210ABA001D09B90019088016E5825BFBFF
:1026A300E582F42F5582FF50090EBE00050DBD00D3
:1026B300010CC3EB9FF5F0EA9E42F0E99D42F0E87E
:0D26C3009C45F06007CC4820E701B3EC22F5
:1026D000ED33EC33600A047003BD8004ECB2E7FC18
:0126E00022D7
:1026E10075F020800E75F010800575F0087D007E74
:1026F100007F003392D530D503122BB1EC3340105B
:10270100EF33FFEE33FEED33FDEC33FCD5F0ED227C
:0E271100E5F0247EA2D513CC92E7CDCEFF22B8
:10271F00EDD2E7CD33EC3392D524814006E4FFFEB2
:10272F00FDFC22FCE4CFCECDCC24E0501174FF8011
:10273F00EDC3CC13CCCD13CDCE13CECF13CF0470AE
:07274F00F030D5DE022BB1D2
:109F0F0033DA929E35B16011377FE5FE39218489AE
:109F1F003AAEC3FF3C1D955B3D6358473E75FDF060
:109F2F003F3172183F800000C2D502279502278B60
:109F3F00BD80FA50F3022792ED33EC330460F17BCE
:109F4F003B7AAA79B8783F1224BDED33EC3392D522
:109F5F00247B5011A2D570DB500BED4480240450AC
:109F6F0004A2D580CEEFFBEEFAEDF9ECF812271F25
:109F7F00EFF582F404FC1226EB1223CCC082909FE3
:109F8F000F74091227AFED33CC33D0F092D525F0F3
:0A9F9F00A2D57001C313CC13FD22FC
:109B3A0002278B22EDA2E7D2E7F9EC3340F260F379
:109B4A00B4FF08ED547F70E8022795F82481C2E03B
:109B5A00C0E0F40428FAC313FCED92E7FD8C3E8DB5
:109B6A003F8E408F41EEA2E7E9BA7F02C313340069
:109B7A009400FA75F091A4E5F013F494FE8AF0A427
:109B8A0033E5F033248CD313FDE492E7FE7F007CA7
:109B9A003F758302ECC0E0F8EDC0E0F9EEC0E0FAF0
:109BAA00EFC0E0FBAC3EAD3FAE40AF411225C6D0A0
:109BBA00E0FBD0E0FAD0E0F9D0E0F81223CCED6473
:109BCA0080FD30E7011CD583CBED33CC33F8D0E0F0
:0A9BDA00A2E71328C313CC13FD22E9
:10275600E9D2E7C933E833F892D5EDD2E7CD33ECC9
:0727660033FC5002B2D52242
:10276D00EC30E7100FBF000C0EBE00080DBD0004CD
:10277D000BEB6014A2D5EB13FCED92E7FD2274FF79
:10278D00FCFDFEFF22E480F8A2D574FF13FC7D80D2
:03279D00E480EFE6
:1027A000C0E0EFFBEEFAEDF9ECF81224BDD0E0F555
:1027B000F0EFFBEEFAEDF9ECF8122C6CA3E8C0E0B8
:1027C000E9C0E0EAC0E0EBC0E0C0F01224BD122C8A
:1027D0007CA31223CCD0F0D0E0FBD0E0FAD0E0F91B
:0727E000D0E0F8D5F0D7228C
:03000000020036C5
:0C003600787FE4F6D8FD75818302007D20
:1027E700E709F608DFFA8046E709F208DFFA803ED4
:1027F70088828C83E709F0A3DFFA8032E309F608C1
:10280700DFFA8078E309F208DFFA807088828C8328
:10281700E309F0A3DFFA806489828A83E0A3F608DC
:10282700DFFA805889828A83E0A3F208DFFA804CB6
:1028370080D280FA80C680D4806980F2803380108D
:1028470080A680EA809A80A880DA80E280CA8033F6
:1028570089828A83ECFAE493A3C8C582C8CCC5836E
:10286700CCF0A3C8C582C8CCC583CCDFE9DEE7803E
:102877000D89828A83E493A3F608DFF9ECFAA9F0BD
:10288700EDFB2289828A83ECFAE0A3C8C582C8CC13
:10289700C583CCF0A3C8C582C8CCC583CCDFEADE2C
:1028A700E880DB89828A83E493A3F208DFF980CC8E
:1028B70088F0ED2402B4040050C2F582EB2402B480
:1028C700040050B823234582F582EF4E60AEEF60D7
:0928D700010EE5822390283773FD
:1028E000BB010689828A83E0225002E722BBFE02F6
:0928F000E32289828A83E4932229
:1028F900BB010CE58229F582E5833AF583E0225094
:1029090006E92582F8E622BBFE06E92582F8E222DD
:0D291900E58229F582E5833AF583E49322F7
:10292600BB010FF8E58229F582E5833AF583E028B5
:10293600F0225009C58229F8E58226F622BBFE0957
:10294600C58229F8E22582F222F8EA2583F583E991
:03295600932822A1
:10295900BB010689828A83F0225002F722BBFE015D
:02296900F32257
:10296B00F8BB010DE58229F582E5833AF583E8F0A2
:10297B00225006E92582C8F622BBFE05E92582C84E
:02298B00F22236
:10298D00EFF88DF0A4FFEDC5F0CEA42EFEEC88F08F
:04299D00A42EFE2244
:1029A100BC000BBE0029EF8DF084FFADF022E4CC1A
:1029B100F875F008EF2FFFEE33FEEC33FCEE9DECE3
:1029C100984005FCEE9DFE0FD5F0E9E4CEFD22ED29
:1029D100F8F5F0EE8420D21CFEADF075F008EF2F73
:1029E100FFED33FD4007985006D5F0F222C398FD64
:0529F1000FD5F0EA2201
:1029F600C2D5EC30E709B2D5E4C39DFDE49CFCEEFC
:102A060030E715B2D5E4C39FFFE49EFE1229A1C3A9
:102A1600E49DFDE49CFC80031229A130D507C3E4A4
:062A26009FFFE49EFE226A
:102A2C00C5F0F8A3E028F0C5F0F8E5821582700235
:062A3C001583E038F022D2
:102A4200BB0110E58229F582E5833AF583E0F5F0D2
:102A5200A3E0225009E92582F886F008E622BBFEAF
:102A62000AE92582F8E2F5F008E222E5832AF583F5
:082A7200E993F5F0A3E99322BA
:0D2A7A00EF2BFFEE3AFEED39FDEC38FC22AB
:102A8700E88FF0A4CC8BF0A42CFCE98EF0A42CFCEE
:102A97008AF0EDA42CFCEA8EF0A4CDA8F08BF0A46C
:102AA7002DCC3825F0FDE98FF0A42CCD35F0FCEBCB
:102AB7008EF0A4FEA9F0EB8FF0A4CFC5F02ECD3990
:0F2AC700FEE43CFCEAA42DCE35F0FDE43CFC22FD
:102AD60075F008758200EF2FFFEE33FECD33CDCCB7
:102AE60033CCC58233C5829BED9AEC99E58298403A
:102AF6000CF582EE9BFEED9AFDEC99FC0FD5F0D617
:102B0600E4CEFBE4CDFAE4CCF9A88222B800C1B940
:102B16000059BA002DEC8BF084CFCECDFCE5F0CB7E
:102B2600F97818EF2FFFEE33FEED33FDEC33FCEBB7
:102B360033FB10D703994004EB99FB0FD8E5E4F972
:102B4600FA227818EF2FFFEE33FEED33FDEC33FC5F
:102B5600C933C910D7059BE99A4007EC9BFCE99A53
:102B6600F90FD8E0E4C9FAE4CCFB2275F010EF2F98
:102B7600FFEE33FEED33FDCC33CCC833C810D70798
:102B86009BEC9AE899400AED9BFDEC9AFCE899F8D3
:0E2B96000FD5F0DAE4CDFBE4CCFAE4C8F92266
:10BC9A00C2D5E830E70FB2D5E4C39BFBE49AFAE4D5
:10BCAA0099F9E498F8EC30E717B2D512BCD0122B08
:10BCBA0012E4C39BFBE49AFAE499F9E498F8800346
:10BCCA00122B1230D50DE4C39FFFE49EFEE49DFDC6
:04BCDA00E49CFC22C8
:0D2BA400CFF4CFCEF4CECDF4CDCCF4CC22C6
:0E2BB100C3E49FFFE49EFEE49DFDE49CFC2235
:102BBF00EB9FF5F0EA9E42F0E99D42F0EC6480C88D
:062BCF0064809845F0222D
:102BD500EB9FF5F0EA9E42F0E99D42F0E89C45F056
:012BE50022CD
:102BE600E8600FECC313FCED13FDEE13FEEF13FFCD
:032BF600D8F122F1
:102BF900E8600FEFC333FFEE33FEED33FDEC33FC3A
:032C0900D8F122DD
:102C0C00BB010DE58229F582E5833AF583022D8718
:102C1C005007E92582F8022C60BBFE07E92582F8F3
:102C2C00022D93E58229F582E5833AF583022C6C1B
:102C3C00BB010DE58229F582E5833AF583022CC8A8
:102C4C005007E92582F8022CBCBBFE07E92582F867
:042C5C00022DC5225E
:0C2C6000E6FC08E6FD08E6FE08E6FF22A0
:102C6C00E493FCA3E493FDA3E493FEA3E493FF227B
:102C7C00E493F8A3E493F9A3E493FAA3E493FB227B
:102C8C00BB010DE58229F582E5833AF583022DAC73
:102C9C005007E92582F8022D9FBBFE07E92582F833
:102CAC00022DB8E58229F582E5833AF583022C7C66
:0C2CBC00ECF608EDF608EEF608EFF62244
:0C2CC800ECF0A3EDF0A3EEF0A3EFF0227F
:102CD400A8828583F0D083D082122CEB122CEB12C5
:102CE4002CEB122CEBE473E493A3C583C5F0C583EA
:102CF400C8C582C8F0A3C583C5F0C583C8C582C84A
:012D040022AC
:0C2D0500A42582F582E5F03583F58322D9
:102D1100BB010789828A83022DDA5005E9F8022D69
:102D2100D1BBFE05E9F8022DE389828A83022DECED
:102D3100BB010DE58229F582E5833AF583022DDA9F
:102D41005007E92582F8022DD1BBFE07E92582F85B
:102D5100022DE3E58229F582E5833AF583022DEC24
:102D6100D083D082F8E4937012740193700DA3A301
:102D710093F8740193F5828883E473740293686015
:062D8100EFA3A3A380DF15
:10C177008F598E588D578C567F007E007D007C002E
:10C18700AB59AA58A957A856C3122BBF400AAF5993
:10C19700AE58AD57AC56800BAF59AE58AD57AC56ED
:04C1A700122BB12284
:10BEDB00ECF5F0EDF8EEF9EFFAE4FFFEFDFCE5F022
:10BEEB007B2033F5F0EF3FD4FFEE3ED4FEED3DD497
:10BEFB00FDEC3CD4FCDB0122BB1803E880E4BB1057
:0EBF0B0003E980DEBB0803EA80D8E5F080D4AD
:0BCAE200EF540FFF22EFC4540FFF229F
:100042000200C2E493A3F8E493A34003F68001F212
:1000520008DFF48029E493A3F85407240CC8C333BF
:10006200C4540F4420C8834004F456800146F6DF8E
:10007200E4800B010204081020408090C7DEE47E79
:10008200019360BCA3FF543F30E509541FFEE49383
:10009200A360010ECF54C025E060A840B8E493A34A
:1000A200FAE493A3F8E493A3C8C582C8CAC583CA75
:1000B200F0A3C8C582C8CAC583CADFE9DEE780BE2D
:01C7F7000041
:0C2D8700E0FCA3E0FDA3E0FEA3E0FF22BF
:0C2D9300E2FC08E2FD08E2FE08E2FF227C
:0D2D9F00E6FB08E6F908E6FA08E6CBF822A4
:0C2DAC00E0F8A3E0F9A3E0FAA3E0FB22AA
:0D2DB800E2FB08E2F908E2FA08E2CBF8229B
:0C2DC500ECF208EDF208EEF208EFF2224A
:092DD100E6FB08E6FA08E6F92227
:092DDA00E0FBA3E0FAA3E0F922FA
:092DE300E2FB08E2FA08E2F92221
:0C2DEC00E493FB740193FA740293F92243
:00000001FF
