:100149000000000000000000080808080800080076
:100159000A0A00000000000000000A1B0A1B0A002E
:10016900040F100E011E04001819020408130300DD
:100179000C12140815120D000C04080000000000F0
:100189000204080808040200080402020204080024
:100199000004150E150400000004041F04040000E7
:1001A90000000000000C04080000001F000000000F
:1001B90000000000000C0C000000010204081000FF
:1001C9000E11111511110E00040C140404041F0062
:1001D9000E11010204081F001F02040201110E0082
:1001E90002060A121F0202001F101E0101110E0051
:1001F9000608101E11110E001F0102040404040058
:100209000E11110E11110E000E11110F01020C0029
:1002190000000C0C000C0C0000000C0C000C040875
:10022900020408100804020000001F001F0000005B
:1002390008040201020408000E1101020800080066
:1002490000000000000000000E1111111F11110023
:100259001E09090E09091E000E11101010110E00B9
:100269001E09090909091E001F08080F08081F00AF
:100279001F08080E08081C000E11101311110E009A
:100289001111111F111111000E04040404040E00B0
:100299000702020202120C001112141814121100A2
:1002A9001010101010101F00111B15111111110041
:1002B90011111915131111000E11111111110E003F
:1002C9001E11111E101010000E11111115120D0022
:1002D9001E11111E141211000E11100E01110E0023
:1002E9001F040404040404001111111111110E005A
:1002F90011111111110A040011111115151B110009
:1003090011110A040A1111001111110A040404003F
:100319001F01020408101F000E08080808080E0033
:1003290000100804020100000E02020202020E007F
:10033900040A1100000000000000000000001F0076
:10034900100804000000000000000E010F110F004A
:100359001010161911111E0000000E1110110E00B7
:1003690001010D1311110F0000000E111F100E00D5
:100379000609081C0808080000000D13130D011ECA
:1003890010101619111111000800180808081C008E
:1003990004001E020202120C0808090A0C0A0900CC
:1003A9001808080808081C0000001A15151515007A
:1003B900000016191111110000000E1111110E0083
:1003C900000016191916101000000D13130D010164
:1003D900000016191010100000000F100E011E0069
:1003E90008081C08080906000000121212120D0064
:1003F90000001111110A04000000111115150A005D
:100409000000110A040A110000001111130D011E48
:1004190000001F0204081F0004080810080804004F
:100429000404040004040400080404020404080089
:1004390008150200000000000808200D000E1A012E
:10044900490000000001030307070F0F0F1F1F1FBB
:100459001F1F1F1F1F1F1F1F1F0F0F0F0F0707032F
:100469000100000000073F7FFFFCF0E0C0C0808072
:100479008000000000000000000000000080808073
:10048900C0C0E0F0F8FF7F3F0FF0FCFFFF1F0F0730
:10049900030301010100000000000000000000004A
:1004A900000101010303070F1FFFFEFCF00000001C
:1004B90080C0C0E0E0F0F0F0F0F8F8F8F8F8F8F8EB
:1004C900F8F8F8F8F8F0F0F0E0E0E0C0800000009B
:1004D9000000000000000000000000000000000013
:1004E9000000000000000000000000000000000003
:1004F900000000000000071F7FFEF87040000000A8
:1005090000000000000000000000000000000000E2
:10051900000000000000000000F8F8F8F8F8F8F80A
:06052900F8F8F8F8F8F8FC
:10052F00F8F8F8F8F8F8F8F8F8F8F8F8F8F8F8F83C
:10053F00F8F8F8F8F8F8F8000000000000000000E4
:10054F00000000000000000000000000000000009C
:10055F00000000000000000000000000000307037F
:10056F000302000000000000000000000000000077
:10057F000000000000000000000103070F0F0F1F15
:10058F00FFFFFFE0800000000000000000000000FF
:10059F0000000000000001030F1F3F7FFEF8F0FF77
:1005AF00FFFFFFF0FCFEFF3F0F07070303030303EB
:1005BF000307070F0F1F3F3F7EFCF8F0E0C08000DE
:1005CF00000000FFFFFFFF0000000080C0C0E0E060
:1005DF00E0E0E0E0E0E0C0C080800000000000004C
:1005EF0000000000000000F0F0F0F000010707032A
:1005FF0002000000000000000000000000000000EA
:10060F000000000000000000000407070F07003F74
:10061F00FFFFFFE00000000000000000003F3F3F31
:10062F003F00000000000000000000000000C0FFBD
:10063F00FFFF7FF0FEFFFF3F0F0703030303070FCB
:10064F007FFEF8FCFF7F0F07030301010101010388
:10065F00070F3FFFFEFCE000000080C0E0E0E0E09D
:10066F00E0E0C0C0800000000080C0E0E0F0F0F0EB
:10067F00F0F0F0E0E0C0C0800000000000000000DB
:10068F0000000000000000000000010103070F0F31
:10069F001F1F1F1F1F0000000000000000000000B0
:1006AF0000000001010307070F1F3F3E7CF8F0F029
:1006BF00E0C0800000FFFFFFFF000000000000000F
:1006CF000000003F3F7FFFFFFFEFCFCF8F0F0F0FD8
:1006DF000F0F0F0F0F0F0F0F0FFFFFFFFF0F0F0F5B
:1006EF000F0F0F0F0F0F0F80808080808080808012
:1006FF0080808080808080808080808080F8F8F883
:10070F00F8808080808080808080800000000001E1
:10071F0001010101010101010303030300000000B6
:10072F0000000000000000000004070F0F0700FF8B
:10073F00FFFFFFF0F0F0F0F0F0F0F0F0FFFFFFFF41
:10074F00000000000000000000000000000080FF1B
:10075F00FFFFFFFFFFFFFF00000000000000000091
:10076F00E0FCFFFF7F1F07030301010101010303EA
:10077F00070F7FFFFEF8C0E0E0E0E00000000000A0
:10078F000000000000000080C0E0E0E0F0F0F0F0BA
:10079F00F0F0E0E0E0C0800000000000000000008A
:1007AF0000000101030707070F0F0F1F1F1F1F1F58
:1007BF001F1F1F1F1F0F0F0F070303010000000054
:1007CF0000070F3F7FFCF8F0E0C080879F3FFFF8E6
:1007DF00E0C0800000000000008080C0C0F0F8FF83
:1007EF00FF3F0F0FFFFFFFF000000000000000F8B9
:1007FF00FFFFFF1F070301010000000000000101C0
:10080F0003071FFFFFFEF0808080800000000000C4
:10081F00000000000080C0E0F0F0F0F8F8F8F8F801
:10082F00F8F8F0F0F0E0C0800000000F0F0F0F009D
:10083F0000000000000000000000000000000000A9
:10084F00000000000000000000000000010103FF95
:10085F00FFFFFF000000000000000000000000008C
:10086F000101030307070F0F1F1F3F3E7E7CFCF89C
:10087F00F8F0F0FFFFFFFF0307070F0F1F1F3F3EAB
:10088F007E7CFCF8F8F0F0E0E0C0C0808000000053
:10089F0000000000000000F0F0F0F0E0E0C0C080C9
:1008AF0080000000000000000000000000000000B9
:1008BF000000000000000000000000000000010325
:1008CF00070F0F0F0F0F0F0707030100000003079C
:1008DF000F0F1F1F1F1F1F1F0F0F07030100000FF9
:1008EF007FFFFFF8E0C080808080C0E0F0FEFF7FD8
:1008FF003FFFF8E0C08080000000008080E0F8FF3C
:06090F00FF7F1FF8FEFF50
:10091500FF1F07030101010103030F3FFFFCFEFF5A
:100925007F0F030101000000000101030FFFFFFE1F
:10093500F0000080C0E0E0F0F0F0F0F0E0E0C08012
:1009450000000080C0E0F0F0F8F8F8F8F8F8F0F0F2
:10095500E0C08000000000000103070F0F0F1F1FFC
:100965001F1F1F1F1F0F0F070301000000000000BE
:100975000000000000030303030F3FFFFFF8E0C082
:10098500808000000000000080C0E0F8FFFFFF1F2E
:1009950000000000000000010FFFFFFFF0F0FEFF68
:1009A500FF1F070303010100000000000001071FEE
:1009B500FFFCF9E1010303070F1F7FFEFCF8E000D0
:1009C5000000000080C0E0E0F0F0F0F8F8F8F8F87A
:1009D500F8F8F8F8F8F0F0F0F0E0E0C0C0800000BA
:1009E5000000000000000000000000000000000002
:1009F50000000000000000000000000000000000F2
:100A050000000000000000000000000000000000E1
:100A150000000000000000000000000000000000D1
:100A250000000000000000000000000000000000C1
:100A350000000000000000000000000000000000B1
:100A450000000000000000000000000000000000A1
:100A55000000000000000000000000000000000091
:100A65000000000000000000000000000000000081
:100A75000000000000000000000000000000000071
:100A85000000000000000000000000000000000061
:100A95000000000000000000000000000000000051
:100AA5000000000000000000000000000000000041
:100AB5000000000000000000000000000000000031
:100AC5000000000000000000000000FFFFFFFF0025
:100AD5000000000000000000000000000000000011
:100AE500000000000000000000000000000000F809
:100AF500F8F8F80000000000000000000000000009
:100B050000000000002024300B0A0000044A000108
:100B150003070F0F1E1E1E3C3C3C3C3C3C3C3C3C32
:100B25003C1E1E1E0F0F070301007EFFFFC30101C0
:100B350000000000000000000000000000000000B0
:100B45000101C7FFFFFC0080C0C0E0F0F0F078783D
:100B5500787878787878787878F0F0F0E0E0C08088
:100B6500000000000307070200000000000000006D
:100B750000000000000000000000000000003EFE34
:100B8500FEDE1E1E1E1E1E1E1E1E1E1E1E1E1E1EE0
:100B95001E1E1E1E1E1E1E1E1E1E00000000000024
:100BA5000000000000000000000000000000000040
:100BB50000000000000000070F070400000000000F
:100BC50000000000000000000000000103070F1FE7
:100BD5001F1FFEFFFF0701010000000000010103C8
:100BE50007070F1F3E7CF8F0E08000FFFFFF008045
:100BF500C0E0E0F0F0F0F0F0F0E0E0E0C0800000F0
:100C050000000000000000F8F8F800070F0F0400CE
:100C150000000000000001010100000000000000CC
:100C250000080E1F0F03FEFFFF070301010101036B
:100C3500030FFEFFFF0F030100000000010107FF86
:100C4500FFFC0080C0C0E0E0E0E0E0C0C080000044
:100C550080C0E0F0F0F0F0F0F0E0C0C0000000006F
:100C65000000000000000001010307070F0E1E1C15
:100C75003F3F3F000000000000000F0F1F1F3F7B9C
:100C85007BF3F3E3C3C3830303030303FFFFFF0303
:100C9500030303030303C0C0C0C0C0C0C0C0C0C0BD
:100CA500C0C0C0C0C0C0C0C0F8F8F8C0C0C0C0C097
:100CB500C0C0010101030303030303030707070082
:100CC500000000000000000000081E1F0F03FFFFCA
:100CD500FFE0C0C0C0C0C0C0FEFFFF0F03010000A1
:100CE5000000000001030FFFFFF8E0E0E000000056
:060CF50000000000008079
:100CFB00C0E0E0F0F0F0F0F0F0F0E0E0C0800000D9
:100D0B00000000010307070F0E1E1C1F3F3F3E3C58
:100D1B003C3C3C3C3C1E1E0F0F070100031F7FFC9D
:100D2B00E0C00000003FFFFF830100000000000057
:100D3B0000000001C3FFFF7EC0C0C0000000000028
:100D4B000000C0E0E0F0F0787878787878F0F0F098
:100D5B00E0C080001F1F1F0000000000000000000B
:100D6B000000000000000000000000010103030769
:100D7B00FFFFFF0000010103030707070F0F1E1EF4
:100D8B003E3C7C78F8F0F0E0E0C0C0C0F8F8F8F03A
:100D9B00F0F0E0E0C0C08080000000000000000028
:100DAB0000000000000000000003070F0F1E1E1EB6
:100DBB001E1F0F0F0301030F1F1E3C3C3C3C3E1E2E
:100DCB001F0F0700FEFFFF8301000000000181C71A
:100DDB00FFFFFF87010000000000000083FFFFFE04
:100DEB000080C0E0F0F0F0F0F0E0E0C08000C0E088
:100DFB00F0F07878787878F0F0E080000003070F57
:100E0B001F1E3E3C3C3C3C3C3E1F1F0F070100009D
:100E1B0000000000000F0F0FFEFFFF83010000001A
:100E2B0000000000000083FFFEF800000103071F15
:100E3B007FFCF8800080C0E0E0F0F078787878787C
:100E4B0078F8F8F870F0F0E0E0C0C0800000000027
:100E5B000000000000000000000000000000000087
:100E6B000000000000000000000000000000000077
:100E7B000000000000000000000000000000000067
:100E8B000000000000000000000000000000000057
:100E9B000000000000000000000000000000000047
:100EAB000000000000000000000000000000000037
:100EBB000000000000000000000000000000000027
:100ECB00000000000000000000000000003F3F3F5A
:100EDB000000000000000000000000000000000007
:100EEB00000000000000000000F8F8F8000000000F
:100EFB000000000000000000181C300B0A00000B63
:100F0B0013070F1C18303030303030303030301881
:100F1B001C0F07C0E070301818181818181818187C
:100F2B00183070E0C001010F0F0101010101010137
:100F3B0001010101010F0F80808080808080808003
:100F4B0080808080808080F0F00F3F382000000090
:100F5B000000000103070E1C383F3F80E06030307B
:100F6B0030307060C0C08000000000F8F80F3F38D0
:100F7B00200000000303000000000020383F0FC0DA
:100F8B00F03818181870E0C030181818183870E0BE
:100F9B00C00000000103060E0C18303F3F0000009C
:100FAB000000003070F0B0303030303030FCFC30AE
:100FBB0030303030301F1F18181818181F1F000042
:100FCB0000000000303F1FF0F0000000000080E048
:100FDB00603030303070E0C08001070E1C181830C4
:100FEB00373F3830303030181C0F07F0F00000005E
:100FFB000000C0F030181818181830E0C03F3F0040
:10100B000000000000000101030306060C0C18F899
:10101B00F81838306060C0C080800000000000000D
:10102B0000071F18303030381E0719183030303891
:10103B001C1F07C0F0381818183060C0E0301818A3
:10104B00181830E0C0070F183030303030181F0739
:10105B0000000000000F0FC0E0703018181818388F
:10106B00F8D818303070E0C080000000000000009D
:10107B000000000000000000000000000000000065
:10108B000000000000000000000000000000000055
:10109B000000000007070000000000000000000037
:1010AB00000000000000F0F0000000000000000055
:1010BB000000000000000000000000000000000025
:1010CB00030303000000000000000000000000000C
:0610DB000000808080008F
:1010E10000000003030300000000000000030303ED
:1010F10000000000008080800000000000000080EF
:101101008080001012300B0A0C0D0F0C080000003B
:1011110000000000000000000000000000000000CE
:1011210000000000000000000000000000000000BE
:1011310000000000000000000000000000000000AE
:10114100000000000000000000000000000000009E
:101151000000000000000002003FFFFFF03C000023
:10116100000000000000000000000000000000007E
:10117100000000000000000000000000000000006E
:10118100000000000000000000000000000000005E
:10119100000000000000000000000000000000004E
:1011A10000000A000000000039CC67398C63318CE3
:1011B10060000000000000000000000000000000CE
:1011C100000000000000000000000000000000001E
:1011D100000000000000000000000000000000000E
:1011E100000000000000000000000000000D0000F1
:1011F100000000000000031818C1CC0C60631FFE42
:10120100FFF18C0C60630318FFF7FF8C60630338F8
:1012110031818C000000000000000000000000008F
:1012210000000000000000000000000000000000BD
:1012310000000000000000000B00000000000000A2
:10124100080100201F8FFB91620C41C81F01FC07A0
:10125100C08C11823C4DFF9FC02004008010000013
:10126100000000000000000000000000000000007D
:10127100000000000000000000000000000000006D
:101281000000001500000000000000000000000048
:10129100001E0181F8181CE0C0C30C06186030C69E
:1012A1000186300E73003F18F0F18FC00CE700C6C5
:1012B100180630C06186030C3030738181F818073D
:1012C10080000000000000000000000000000F008E
:1012D100000000000000000003E00FE038E060C003
:1012E100C18183018C01F183C31DC631CCC1D98178
:1012F100E301C601C70FCFF9C7C18000000000009C
:1013010000000000000000000000000000000000DC
:101311000000000000000000000500000399CC66F9
:10132100300000000000000000000000000000008C
:1013310000000000000000000000000000000000AC
:10134100000000000000000000000000000000009C
:10135100000000000000000000000000000000008C
:10136100000000000700000000E3861830C1870C70
:10137100183060C183060E0C1818303070700000F0
:10138100000000000000000000000000000000005C
:10139100000000000000000000000000000000004C
:1013A1000000000000000000000000000000000735
:1013B1000000000E0E0C0C1818307060C183060C72
:1013C1001830E1830C1861C7000000000000000024
:1013D100000000000000000000000000000000000C
:1013E10000000000000000000000000000000000FC
:1013F100000000000000000000000A0000000000E2
:101401000C0308C7B73F0303F3B78C4300C00000C8
:1014110000000000000000000000000000000000CB
:1014210000000000000000000000000000000000BB
:1014310000000000000000000000000000000000AB
:1014410000000000000E000000000000000000008D
:101451000000000003000C003000C003000C0FFF6F
:10146100FFFF03000C003000C003000C000000006F
:10147100000000000000000000000000000000006B
:10148100000000000000000000000000000000005B
:10149100050000000000000000000000000399CEDC
:1014A1006331800000000000000000000000000027
:1014B100000000000000000000000000000000002B
:0614C10000000000000025
:1014C7000000000000000000000000000000000015
:1014D70000000000000700000000000000000000FE
:1014E70000003FFF000000000000000000000000B7
:1014F70000000000000000000000000000000000E5
:1015070000000000000000000000000000000000D4
:1015170000000000000000000000000000000000C4
:1015270003000000000000000FF8000000000000AA
:1015370000000000000000000000000000000000A4
:101547000000000000000000000000000000000094
:101557000000000000000000000000000000000084
:10156700000000000000000000000009000000006B
:1015770000180C0C0603030180C0C0603038180C3B
:10158700060603018180C060603000000000000093
:101597000000000000000000000000000000000044
:1015A7000000000000000000000000000000000034
:1015B7000000000000000B000000000000003E0FCC
:1015C700E38E60D80F01E03C0780F01E03C0780F60
:1015D70001B0671C7F07C00000000000000000008A
:1015E70000000000000000000000000000000000F4
:1015F70000000000000000000000000000000000E4
:10160700000800000000001818F8F8181818181833
:1016170018181818181818FFFF000000000000001D
:1016270000000000000000000000000000000000B3
:1016370000000000000000000000000000000000A3
:101647000000000000000000000000000B00000088
:10165700000000007C3FE70C80C0180300601C03FB
:1016670000C0380E0380E0380E01FFFFF8000000CD
:101677000000000000000000000000000000000063
:101687000000000000000000000000000000000053
:10169700000000000000000B000000000000007EBA
:1016A7003FF70780600C0180E0F81E003003006000
:1016B7000C01C07E1DFF0FC00000000000000000ED
:1016C7000000000000000000000000000000000013
:1016D7000000000000000000000000000000000003
:1016E70000000C00000000000000000C01C03C06D8
:1016F700C0CC18C38C30C60CC0CFFFFFF00C00C0A5
:101707000C00C00C00C0000000000000000000003A
:1017170000000000000000000000000000000000C2
:10172700000000000000000000000000000A0000A8
:10173700000000001FF7FD8060180601807E1FE093
:10174700180300C0300C07C3BFC7E000000000004B
:101757000000000000000000000000000000000082
:101767000000000000000000000000000000000072
:1017770000000000000000000B0000000000000057
:101787000F87F1C0700C0180600DF1FFB83603C000
:10179700780F01B0370C7F07C00000000000000081
:1017A7000000000000000000000000000000000032
:1017B7000000000000000000000000000000000022
:1017C7000000000B00000000000001FFFFF803000D
:1017D700E0180600C030060180300C0180600C0361
:1017E700006018000000000000000000000000007A
:1017F70000000000000000000000000000000000E2
:1018070000000000000000000000000000000B00C6
:101817000000000000003E1FF307C0780F01F067CB
:10182700983E19E306C0780F01F0370CFF07C00098
:1018370000000000000000000000000000000000A1
:101847000000000000000000000000000000000091
:101857000000000000000000000B00000000000076
:10186700003E0FE30EC0D80F01E03C06C1DFF8FBD6
:101877000060180300E0387E0F80000000000000C1
:101887000000000000000000000000000000000051
:101897000000000000000000000000000000000041
:0618A70000000000030038
:1018AD00000003FE00000FF8000000000000000023
:1018BD00000000000000000000000000000000001B
:1018CD00000000000000000000000000000000000B
:1018DD0000000000000000000000000000000000FB
:1018ED0000000000000000000005000000000000E6
:1018FD0039CE000000000399CE6331800000000056
:10190D0000000000000000000000000000000000CA
:10191D0000000000000000000000000000000000BA
:10192D0000000000000000000000000000000000AA
:10193D00000000000D00000000000000000000008D
:10194D000000000000400E03E07C0F01E01C007859
:10195D0000F001F003E0038004000000000000002F
:10196D00000000000000000000000000000000006A
:10197D000000000000000000000000000000000D4D
:10198D00000000000000000000000000000000004A
:10199D000000000FFFFFFC0000000007FFFFFE002E
:1019AD00000000000000000000000000000000002A
:1019BD00000000000000000000000000000000001A
:1019CD00000000000000000000000D0000000000FD
:1019DD0000000000000000000004003800F801F0D5
:1019ED0001E003C00700F01E07C0F80E0040000024
:1019FD0000000000000000000000000000000000DA
:101A0D0000000000000000000000000000000000C9
:101A1D00000000000009000000000003F3FD0701B5
:101A2D0080C0603030383838180C06000000C060B7
:101A3D000000000000000000000000000000000099
:101A4D000000000000000000000000000000000089
:101A5D000000000000000000000000000000000079
:101A6D001300000000000000000000000003F00162
:101A7D00FF80F038380386003983F331FE7C30C7A0
:101A8D008C18F1831E3063C60C78C18F1C7331FF27
:101A9D00E61EFC60000E0000F02007FC003F8000F9
:101AAD0000000000000000000000000E000000001B
:101ABD0000000000001E007801E004803300CC031C
:101ACD003018606181860C0C3FF0FFC601980660EE
:101ADD001B807C00C0000000000000000000000022
:101AED0000000000000000000000000000000000E9
:101AFD000000000000000B00000000000001FE3F90
:101B0D00E60EC0D81B0360CFF1FF303603C0780F4F
:101B1D0001E07C1DFF3FC000000000000000000040
:101B2D0000000000000000000000000000000000A8
:101B3D000000000000000000000000000000000098
:101B4D00000C0000000000000000FC1FF383701665
:101B5D0000E00C00C00C00C00C00C00E00600701BE
:101B6D003831FF0FC0000000000000000000000031
:101B7D000000000000000000000000000000000058
:101B8D000000000000000000000000000D0000003B
:101B9D0000000000007F83FF183CC07601B00F806D
:101BAD003C01E00F007803C01E01B00D80EC1E7FDC
:101BBD00E3FC000000000000000000000000000039
:101BCD000000000000000000000000000000000008
:101BDD00000000000000000A0000000000003FFFB0
:101BED00FF00C0300C0300FFBFEC0300C0300C033E
:101BFD0000C03FFFFC0000000000000000000000DE
:101C0D0000000000000000000000000000000000C7
:101C1D0000000000000000000000000000000000B7
:101C2D0000000B00000000000001FFFFFE00C018C7
:101C3D000300600FFFFFF00600C0180300600C01E9
:101C4D0080300000000000000000000000000000D7
:101C5D000000000000000000000000000000000077
:101C6D00000000000000000000000000000E000059
:101C7D00000000000000001FC1FFCE077005800EA0
:061C8D00003000C003005E
:101C93000C0FF03FC00F803600DC033C0C7FF07E5E
:101CA3000000000000000000000000000000000031
:101CB3000000000000000000000000000000000021
:101CC30000000C000000000000000C03C03C03C037
:101CD3003C03C03C03FFFFFFC03C03C03C03C03CCC
:101CE30003C03C03C03000000000000000000000FF
:101CF30000000000000000000000000000000000E1
:101D030000000000000000000000000000050000CB
:101D1300007FEC6318C6318C6318C67FE0000000B7
:101D230000000000000000000000000000000000B0
:101D330000000000000000000000000000000000A0
:101D43000000000000000000000000000000000090
:101D530000000000000000000800000000003F3FFA
:101D63000303030303030303030303030387FEFCC8
:101D73000000000000000000000000000000000060
:101D83000000000000000000000000000000000050
:101D93000000000000000000000000000000000040
:101DA3000000000C000000000000000C07C0EC1C49
:101DB300C38C70C60CC0D80F80FC0CE0C60C30C3BB
:101DC3008C18C0CC0EC070000000000000000000A2
:101DD3000000000000000000000000000000000000
:101DE30000000000000000000000000000000A00E6
:101DF3000000000000300C0300C0300C0300C030B2
:101E03000C0300C0300C0300C03FFFFC00000000C7
:101E130000000000000000000000000000000000BF
:101E230000000000000000000000000000000000AF
:101E33000000000000000000000E00000000000091
:101E4300000003807F03FC0FF87F61BDC6F333CC32
:101E5300CF1E3C78F0C3C30F003C00F003C00F005B
:101E63003C00C00000000000000000000000000073
:101E7300000000000000000000000000000000005F
:101E8300000000000C000000000000000E03F03F03
:101E930003F83D83DC3CC3CE3C63C73C33C3BC1B6C
:101EA300C1FC0FC0FC07C070000000000000000070
:101EB300000000000000000000000000000000001F
:101EC3000000000000000000000000000000000F00
:101ED30000000000000000000000F807FC1C1C705C
:101EE3001CC01B803E003C007800F001E003C007EB
:101EF300C01D803380E38383FE01F00000000000F7
:101F030000000000000000000000000000000000CE
:101F1300000000000000000000000B0000000000B3
:101F23000001FE3FE60EC0F80F01E03C0F83BFE760
:101F3300F0C0180300600C018030000000000000B6
:101F4300000000000000000000000000000000008E
:101F5300000000000000000000000000000000007E
:101F630000000000000F000000000000000000005F
:101F7300F807FC1C1C701CC01B803E003C00780052
:101F8300F001E003C007C01D803380E38383FE01BB
:101F9300F0006000C000C001F801F0000000000084
:101FA300000000000000000000000000000000002E
:101FB3000D00000000000000007F83FF1818C066BA
:101FC30003301980CC0C60E3FE1FC0C3061C3061D4
:101FD300818C06603B00E000000000000000000070
:101FE30000000000000000000000000000000000EE
:101FF30000000000000000000000000B00000000D3
:102003000000003F1FF306C0580300700780FE075F
:10201300F00F00600C01C03E0DFF0FC00000000078
:1020230000000000000000000000000000000000AD
:10203300000000000000000000000000000000009D
:102043000000000000000E0000000000000000037C
:10205300FFFFFFC0C003000C003000C003000C00F2
:102063003000C003000C003000C003000C0030003F
:0620730000000000000067
:102079000000000000000000000000000000000057
:1020890000000000000000000000000C000000003B
:102099000000000C03C03C03C03C03C03C03C03C2F
:1020A90003C03C03C03C03C03E0770E3FC1F800033
:1020B9000000000000000000000000000000000017
:1020C9000000000000000000000000000000000007
:1020D9000000000000000E000000000000000003E6
:1020E900003E01D80660198063030C0C3030618111
:1020F9008606180CC03300CC01E007801E003000B2
:1021090000000000000000000000000000000000C6
:1021190000000000000000000000000000000000B6
:102129000015000000000000000000000000006031
:10213900100F01C06C0E06607033038198360C6174
:10214900B0C30D86184C30C231833198198CC0C880
:10215900260241201E0F00F0780701C0180C00006C
:102169000000000000000000000000000E00000058
:102179000000000000030036018C0C30306180CC77
:10218900033007800C003001E00CC03301860C0CD1
:102199003031806C00C00000000000000000000029
:1021A9000000000000000000000000000000000026
:1021B900000000000000000E000000000000000008
:1021C900038076019C0E303061818E03300FC01E72
:1021D900003000C003000C003000C003000C0030C8
:1021E90000000000000000000000000000000000E6
:1021F90000000000000000000000000000000000D6
:1022090000000B00000000000001FFFFF80300C000
:1022190030060180600C0300E0180600C0300C0194
:10222900FFFFF800000000000000000000000000AF
:102239000000000000000000000000000000000095
:10224900000000000000000000000000000600007F
:1022590000FFFC30C30C30C30C30C30C30C30C304E
:10226900C30FFF0000000000000000000000000094
:102279000000000000000000000000000000000055
:102289000000000000000000000000000000000045
:10229900000000000000000009000000000C060119
:1022A90080C060180C060180C060380C060300C0AD
:1022B90060300C060300C060000000000000000050
:1022C9000000000000000000000000000000000005
:1022D90000000000000000000000000000000000F5
:1022E90000000006000000FFF0C30C30C30C30C32F
:1022F9000C30C30C30C30C3FFF000000000000008D
:1023090000000000000000000000000000000000C4
:1023190000000000000000000000000000000000B4
:1023290000000000000000000000000000000E0096
:1023390000000000000000000C007801E00CC06102
:1023490083030C0C601B003000000000000000003B
:102359000000000000000000000000000000000074
:102369000000000000000000000000000000000064
:102379000000000000000000000D00000000000047
:102389000000000000000000000000000000000044
:102399000000000000000000000000000000000034
:1023A900000007FFFFFE0000000000000000000021
:1023B9000000000000000000000000000000000014
:1023C900000000000500000E38C3000000000000F6
:1023D90000000000000000000000000000000000F4
:1023E90000000000000000000000000000000000E4
:1023F90000000000000000000000000000000000D4
:102409000000000000000000000000000000000AB9
:1024190000000000000000000000000003F1FE4180
:10242900C0300C7F7FFC3C0F03E3DFF3CC000000DE
:102439000000000000000000000000000000000093
:102449000000000000000000000000000000000083
:062459000000000000007D
:10245F00000000000A0000000000C0300C0300C0A4
:10246F00300CF3FEE1B03C0F03C0F03C0F06C3BFCE
:10247F00CDE00000000000000000000000000000A0
:10248F00000000000000000000000000000000003D
:10249F000000000000000000000000000000000924
:1024AF00000000000000000000000007C7F70F0346
:1024BF000180C060301C1719FC7C00000000000078
:1024CF0000000000000000000000000000000000FD
:1024DF0000000000000000000000000000000000ED
:1024EF00000000000000000000000A0000000000D3
:1024FF0000C0300C0300C031ECFF70D83C0F03C09C
:10250F00F03C0F0361DFF3CC00000000000000007F
:10251F0000000000000000000000000000000000AC
:10252F00000000000000000000000000000000009C
:10253F0000000000000B0000000000000000000081
:10254F00000000007C1FE70CC0F01FFFFFF8030026
:10255F007017067FC3E000000000000000000000BD
:10256F00000000000000000000000000000000005C
:10257F00000000000000000000000000000000004C
:10258F0008000000001F3F30606060FEFE6060606A
:10259F00606060606060606000000000000000002C
:1025AF00000000000000000000000000000000001C
:1025BF00000000000000000000000000000000000C
:1025CF0000000000000000000000000A00000000F2
:1025DF00000000000000000001ECFF70D83C0F036A
:1025EF00C0F03C0F0361DFF3EC03419FE3F0000009
:1025FF0000000000000000000000000000000000CC
:10260F0000000000000000000000000000000000BB
:10261F0000000000000009000000000C060301800C
:10262F00C060339FEE3E0F0783C1E0F0783C1E0F72
:10263F000600000000000000000000000000000085
:10264F00000000000000000000000000000000007B
:10265F00000000000000000000000000000000006B
:10266F000002003C0FFFFFFC000000000000000014
:10267F00000000000000000000000000000000004B
:10268F00000000000000000000000000000000003B
:10269F00000000000000000000000000000000002B
:1026AF000000000000000000000000000600000015
:1026BF000030C00007DF0C30C30C30C30C30C30C2C
:1026CF007FBC0000000000000000000000000000C0
:1026DF0000000000000000000000000000000000EB
:1026EF0000000000000000000000000000000000DB
:1026FF00000000000000000B00000000000C018033
:10270F00300600C018030761CC719C3306C0F8195E
:10271F008318638C3983B03800000000000000007C
:10272F00000000000000000000000000000000009A
:10273F00000000000000000000000000000000008A
:10274F0000000200FFFFFFFFFC0000000000000080
:10275F00000000000000000000000000000000006A
:10276F00000000000000000000000000000000005A
:10277F00000000000000000000000000000000004A
:10278F00000000000000000000000000001000002A
:10279F00000000000000000000000000000000002A
:1027AF000000CE1CFF7EE3C7C183C183C183C183F9
:1027BF00C183C183C183C183C183C1830000000072
:1027CF0000000000000000000000000000000000FA
:1027DF0000000000000000000900000000000000E1
:1027EF0000000000339FEE3E0F0783C1E0F0783CFE
:1027FF001E0F060000000000000000000000000097
:10280F0000000000000000000000000000000000B9
:10281F0000000000000000000000000000000000A9
:10282F000000000B0000000000000000000000008E
:06283F0000007C1FC71D14
:10284500C1F01E03C0780F01F0771C7F07C00000A0
:102855000000000000000000000000000000000073
:102865000000000000000000000000000000000063
:1028750000000000000000000A0000000000000049
:1028850000000000000CF3FEE1B03C0F03C0F03C7B
:102895000F06C3BFCDE300C0300C030000000000ED
:1028A5000000000000000000000000000000000023
:1028B5000000000000000000000000000000000013
:1028C5000000000A000000000000000000000000F9
:1028D50001ECFF70D83C0F03C0F03C0F8361DFF3C0
:1028E500EC0300C0300C03000000000000000000F5
:1028F50000000000000000000000000000000000D3
:1029050000000000000000000000000000000700BB
:1029150000000000000000033EFF183060C1830680
:102925000C1830000000000000000000000000004E
:102935000000000000000000000000000000000092
:102945000000000000000000000000000000000082
:102955000000000000000000000A00000000000068
:1029650000000000000003F1FEE0B00C01E03F8133
:10297500F00E03E1FFE3F00000000000000000009E
:102985000000000000000000000000000000000042
:102995000000000000000000000000000000000032
:1029A50000000000070000000000183060C3FFF6BB
:1029B5000C183060C1830607C780000000000000C6
:1029C5000000000000000000000000000000000002
:1029D50000000000000000000000000000000000F2
:1029E50000000000000000000000000000000009D9
:1029F500000000000000000000000030783C1E0FC1
:102A05000783C1E0F0783E3BFCE6000000000000D3
:102A150000000000000000000000000000000000B1
:102A250000000000000000000000000000000000A1
:102A3500000000000000000000000C000000000085
:102A450000000000000000000000C03606606606B9
:102A550030C30C3881981980F00F00F00600000093
:102A65000000000000000000000000000000000061
:102A75000000000000000000000000000000000051
:102A8500000000000012000000000000000000002F
:102A95000000000000000000000000000C0C0F0307
:102AA5008361E19878661319CCC633330C86C3610C
:102AB500B078681C0E070381C0E00000000000002C
:102AC5000000000000000000000000000000000001
:102AD5000C000000000000000000000000000000E5
:102AE500C0360630C1981980F00600F0198198307B
:102AF500C606C03000000000000000000000000015
:102B050000000000000000000000000000000000C0
:102B150000000000000000000000000C00000000A4
:102B25000000000000000000000000C036066066DE
:102B35000630C30C1981981980F00F00E00600607B
:102B45000C00C0180180000000000000000000001B
:102B55000000000000000000000000000000000070
:102B65000000000000000900000000000000000057
:102B750000003FFFF0301818181C0C0C0C0607FF5E
:102B8500FE00000000000000000000000000000042
:102B95000000000000000000000000000000000030
:102BA5000000000000000000000000000000000020
:102BB500000A000000000003C1F0E0300C0300C073
:102BC500300C070383C0F00E01C0300C0300C03089
:102BD5000C03807C0F0000000000000000000000D6
:102BE50000000000000000000000000000000000E0
:102BF5000000000000000000000000000200FFFFD0
:102C0500FFFFFFFF000000000000000000000000C3
:102C150000000000000000000000000000000000AF
:062C2500000000000000A9
:102C2B000000000000000000000000000000000099
:102C3B000000000000000000000000000000000089
:102C4B00000A0000000000F03E01C0300C0300C081
:102C5B00300C0380700F03C1C0E0300C0300C03098
:102C6B000C070F83C00000000000000000000000F4
:102C7B000000000000000000000000000000000049
:102C8B000000000000000000000000000D0000002C
:102C9B000000000000000000000000000000000029
:102CAB000381BE0D987866C1F60700000000000096
:102CBB000000000000000000000000000000000009
:102CCB0000000000000000000000000000000000F9
:102CDB000000000000000009000000000001F1FDF1
:102CEB00C7C1E0F07C77F1F00000000000000000AD
:102CFB0000000000000000000000000000000000C9
:102D0B0000000000000000000000000000000000B8
:102D1B0000000000000000000000000000000000A8
:102D2B000000140000000000000000000000000084
:102D3B001F8006060180183000C20F8443FC24302C
:102D4B004286001860018600186001860018304129
:102D5B0043FC240F82200043000C180180606001AB
:102D6B00F80000000000000000000000000E000052
:102D7B000000000000000000003000C003000C0049
:102D8B003000C0FFFFFFF03000C003000C00303FED
:102D9B00FFFFFC000000000000000000000000002E
:102DAB000000000000000000000000000000000018
:102DBB00000000000000000002003FFFFFF03C009D
:102DCB0000000000000000000000000000000000F8
:102DDB0000000000000000000000000000000000E8
:102DEB0000000000000000000000000000000000D8
:102DFB0000000000000000000000000000000000C8
:102E0B0000000002003FFFFFF03C0000000000004C
:102E1B0000000000000000000000000000000000A7
:102E2B000000000000000000000000000000000097
:102E3B000000000000000000000000000000000087
:102E4B000000000000000000000000000000020075
:102E5B003FFFFFF03C0000000000000000000000FE
:102E6B000000000000000000000000000000000057
:102E7B000000000000000000000000000000000047
:102E8B000000000000000000000000000000000037
:102E9B0000000000000000000002003FFFFFF03CBC
:102EAB000000000000000000000000000000000017
:102EBB000000000000000000000000000000000007
:102ECB0000000000000000000000000000000000F7
:102EDB0000000000000000000000000000000000E7
:102EEB000000000002003FFFFFF03C00000000006C
:102EFB0000000000000000000000000000000000C7
:102F0B0000000000000000000000000000000000B6
:102F1B0000000000000000000000000000000000A6
:102F2B000000000000000000000000000000000294
:102F3B00003FFFFFF03C000000000000000000001D
:102F4B000000000000000000000000000000000076
:102F5B000000000000000000000000000000000066
:102F6B000000000000000000000000000000000056
:102F7B000000000000000000000002003FFFFFF017
:102F8B003C000000000000000000000000000000FA
:102F9B000000000000000000000000000000000026
:102FAB000000000000000000000000000000000016
:102FBB000000000000000000000000000000000006
:102FCB0000000000000B0000000000007C3F8F039E
:102FDB00006008033C7FCE1D81F01E03C0780F817B
:102FEB00B0671C7F07C0000000000000000000005D
:102FFB0000000000000000000000000000000000C6
:06300B00000000000000BF
:10301100000000000000000000000A0000000000A5
:10302100000000000000000FF3FEC1B06C13F8FFB8
:10303100B07C0F03C1FFEFF00000000000000000B2
:10304100000000000000000000000000000000007F
:10305100000000000000000000000000000000006F
:103061000000000000080000000000000000000057
:10307100FFFFC0C0C0C0C0C0C0C0C0C0C000000011
:10308100000000000000000000000000000000003F
:10309100000000000000000000000000000000002F
:1030A100000000000000000000000000000000001F
:1030B1000C00000000000000000000000000000003
:1030C1001FE1FE1861861861863063063063066071
:1030D1006FFFFFFC03C03C03000000000000000084
:1030E10000000000000000000000000000000000DF
:1030F10000000000000000000000001200000000BD
:1031010000000000000000000000000000000000BE
:1031110000000E0C1FC30F18C6063180CCC03B70D7
:1031210007F801FF00CCC0631830C318306C0C0CD9
:10313100000000000000000000000000000000008E
:103141000000000000000A00000000000000000074
:1031510000000003F1FE41C0300C7E1F80700C03A3
:1031610081FFE7F000000000000000000000000007
:10317100000000000000000000000000000000004E
:10318100000000000000000000000000000000003E
:10319100000A0000000000000000000000000C0F09
:1031A10007C1F0FC6F1BCCF63D8FC3E0F83C0C006F
:1031B100000000000000000000000000000000000E
:1031C10000000000000000000000000000000000FE
:1031D1000000000000000000000000000A000000E4
:1031E1000000619863F07800000C0F07C1F0FC6FDC
:1031F1001BCCF63D8FC3E0F83C0C00000000000042
:1032010000000000000000000000000000000000BD
:1032110000000000000000000000000000000000AD
:10322100000000000000000A000000000000000093
:10323100000000000C3B1EC6318CC330F83F0CC3AC
:1032410018C3306C0C0000000000000000000000FA
:10325100000000000000000000000000000000006D
:10326100000000000000000000000000000000005D
:1032710000000B0000000000000000000000000042
:10328100007F8FF18630C618C318630CE1983307AD
:10329100E0F818000000000000000000000000003D
:1032A100000000000000000000000000000000001D
:1032B100000000000000000000000000000B000002
:1032C10000000000000000000000000383F07F1FE9
:1032D100E3F65EDBCA79CF11E03C0780F01800000D
:1032E10000000000000000000000000000000000DD
:1032F10000000000000000000000000000000000CD
:1033010000000000000000000A00000000000000B2
:1033110000000000000C0F03C0F03C0FFFFFF03C69
:103321000F03C0F03C0C0000000000000000000092
:10333100000000000000000000000000000000008C
:10334100000000000000000000000000000000007C
:103351000000000A00000000000000000000000062
:103361000FFFFFC0F03C0F03C0F03C0F03C0F03C67
:103371000C00000000000000000000000000000040
:10338100000000000000000000000000000000003C
:1033910000000000000000000000000000000A0022
:1033A10000000000000000000000000FFFFF0C0300
:1033B10000C0300C0300C0300C0300C0000000004E
:1033C10000000000000000000000000000000000FC
:1033D10000000000000000000000000000000000EC
:1033E1000000000000000000000C000000000000D0
:0633F100000000000000D6
:1033F700000000C0360660660630C30C19819819B4
:1034070080F00F00E00600600C00C018018000008B
:1034170000000000000000000000000000000000A5
:103427000000000000000000000000000000100085
:103437000000000000000001800180018001800180
:103447008001801FF83FFE61866187C183C183C108
:1034570083C183C183E186618E7FFC1FF8018001F0
:103467008001800180018000000000000000000052
:103477000000000000000000000B0000000000003A
:10348700000000000000000303606C0D81B03606E9
:10349700C0D81B03606C0DFFFFF80300600C000031
:1034A7000000000000000000000000000000000015
:1034B7000000000000000000000000000000000005
:1034C700000000000A0000000000000000000000EB
:1034D700000C0F03C0F03C0F03E0DFF3EC0300C068
:1034E700300C000000000000000000000000000099
:1034F70000000000000000000000000000000000C5
:1035070000000000000000000000000000000010A4
:1035170000000000000000000000000000000000A4
:1035270000000000C183C183C183C183C183C183FC
:10353700C183C183C183C183C183FFFFFFFF000034
:103547000000000000000000000000000000000074
:103557000000000000000000000011000000000053
:103567000000000000000000000000000000000054
:103577003060D8306C18360C1B060D8306C183608B
:10358700C1B060D8306C1837FFFFFFFE00030001A1
:103597008000C000000000000000000000000000E4
:1035A70000000000000D0000000000000000000007
:1035B7000000000000003E01F001800C006003FCE9
:1035C7001FF0C1C6063031838FF87F8000000000EE
:1035D70000000000000000000000000000000000E4
:1035E70000000000000000000000000000000000D4
:1035F7000D000000000000000000000000000000B7
:10360700003007803C01E00F007FE3FF9E0EF0379C
:1036170081BC1DFFCFFC600000000000000000001F
:103627000000000000000000000000000000000093
:10363700000000000000000000000009000000007A
:103647000000000000000030180C060301FCFF61B9
:10365700F0783C3FFBF8000000000000000000008D
:103667000000000000000000000000000000000053
:103677000000000000000000000000000000000043
:10368700000000000000090000000000000000002A
:1036970000001F1FC8300C067F3F80C0606877F1AD
:1036A700F000000000000000000000000000000023
:1036B7000000000000000000000000000000000003
:1036C70000000000000000000000000000000000F3
:1036D700000F0000000000000000000000000000D4
:1036E700000000000307C61FCC71D9C1F301FE0318
:1036F700FC07980F301E707C71D87F307C0000006B
:1037070000000000000000000000000000000000B2
:103717000000000000000000000000000B00000097
:1037270000000000000000000000007F9FF706C0B7
:10373700D81B833FE1FC318C3306C0F01800000032
:103747000000000000000000000000000000000072
:103757000000000000000000000000000000000062
:10376700000000000000000C000000000000000F37
:10377700FEFFEC00C00C00C00C00FF8FFEC0EC0386
:10378700C03C03C03C07C0EFFCFF00000000000086
:103797000000000000000000000000000000000022
:1037A7000000000000000000000000000000000012
:1037B70000000A0000000000003FFFFF00C0300CBF
:1037C7000300C0300C0300C0300C0300C0300C00F5
:0637D700000000000000EC
:1037DD0000000000000000000000000000000000DC
:1037ED0000000000000000000000000000000000CC
:1037FD00000000000000000F0000000000000000AD
:10380D000001FF83FF06060C0C181830306061C0F4
:10381D00C30186030C06180C6018C031806600DFEA
:10382D00FFFFFFE003C007800F001800000000003D
:10383D00000000000000000000000000000000007B
:10384D000000150000000000000000000000000056
:10385D00381839E0C3C306180C3180618C018CC057
:10386D000C66003B6000FE000FF80066600633003A
:10387D00618C060C30306183030630181B00C0606C
:10388D00000000000000000000000000000C00001F
:10389D00000000000003F87FE70740300300300E02
:1038AD001F81FC00E007003003003807E0EFFC3F0C
:1038BD0000000000000000000000000000000000FB
:1038CD0000000000000000000000000000000000EB
:1038DD0000000000000000000C00000000000000CF
:1038ED000C03C07C0FC0FC1FC1BC33C33C63C63C82
:1038FD00C3CC3D83F83F03E03E03C0300000000021
:10390D0000000000000000000000000000000000AA
:10391D00000000000000000000000000000000009A
:10392D000000000C30C30C1F80F0000C03C07C0F96
:10393D00C0FC1FC1BC33C33C63C63CC3CC3D83F844
:10394D003F03E03E03C03000000000000000000017
:10395D00000000000000000000000000000000005A
:10396D0000000000000000000000000000000C003E
:10397D000000000000000C0EC1EC38C30C30C60C6A
:10398D0060CC0F80FC0C60C60C30C18C0CC0CC061A
:10399D00C03000000000000000000000000000002A
:1039AD00000000000000000000000000000000000A
:1039BD000000000000000000000E000000000000EC
:1039CD000000003FF0FFC3030C0C3030C0C3030CEC
:1039DD000C3030C0C3031C0C603180C603300FC0E7
:1039ED003E00C000000000000000000000000000CC
:1039FD0000000000000000000000000000000000BA
:103A0D00000000000C000000000000000FFFFFFC94
:103A1D0003C03C03C03C03C03C03C03C03C03C039B
:103A2D00C03C03C03C03C03000000000000000009B
:103A3D000000000000000000000000000000000079
:103A4D000000000000000000000000000000000E5B
:103A5D000000000000000000030036019806303819
:103A6D00C0C18306181C603300CC01B007800E0066
:103A7D003000C00600F803C0000000000000000088
:103A8D000000000000000000000000000000000029
:103A9D000000000000000000000010000000000009
:103AAD000000000000018001800FF03FFC718E616D
:103ABD0086C183C183C183C183C183E18761867957
:103ACD009E3FFC0FF001800180000000000000000F
:103ADD0000000000000000000000000000000000D9
:103AED0000000000000D0000000000000000601B41
:103AFD0000D806C03601B00D806C03601B00D806DF
:103B0D00C03601B00D806C037FFFFFE0030018008D
:103B1D00C0060000000000000000000000000000D2
:103B2D000000000000000000000000000000000088
:103B3D000C000000000000000C03C03C03C03C035F
:103B4D00C03C03C03E077FF1FB0030030030030093
:103B5D0030030030000000000000000000000000F5
:103B6D000000000000000000000000000000000048
:103B7D000000000000000000000000120000000026
:103B8D000000000000000030303C0C0F0303C0C0EB
:103B9D00F0303C0C0F0303C0C0F0303C0C0F03039E
:103BAD00C0C0F0303C0C0F0303C0C0FFFFFFFFFC93
:063BBD0000000000000002
:103BC30000000000000000000000000000000000F2
:103BD300140000000000000000000000000C0C0CAA
:103BE300C0C0CC0C0CC0C0CC0C0CC0C0CC0C0CC0E6
:103BF300C0CC0C0CC0C0CC0C0CC0C0CC0C0CC0C0D6
:103C0300CC0C0CC0C0CFFFFFFFFFF000030000305F
:103C1300000300003000000000000011000000005D
:103C230000000000000007F003F8000C000600038A
:103C330000018000C0007FC03FF0181C0C03060188
:103C43008300C18060C07060703FF01FE00000001F
:103C53000000000000000000000000000000000061
:103C63000000000000000F00000000000000000042
:103C73001800F001E003C007800F001E003FF07F33
:103C8300F8F031E033C06780CF019E073C1C7FF022
:103C9300FFC18000000000000000000000000000E1
:103CA3000000000000000000000000000000000011
:103CB300000C000000000000000C00C00C00C00C51
:103CC30000C00C00FF8FFCC0EC03C03C03C03C07EA
:103CD300C0EFFCFF00000000000000000000000037
:103CE30000000000000000000000000000000000D1
:103CF3000000000000000000000000000C000000B5
:103D03000000000007F0FF8C1C80E0060030033F3A
:103D1300F3FF00300300300700680EC1CFF87E00C8
:103D23000000000000000000000000000000000090
:103D33000000000000000000000000000000000080
:103D4300000000000000001400000000000000005C
:103D5300000000000C03E0C0FF8C1C1CC380EC308F
:103D630006C7007C6003FE003FE003C6003C60031F
:103D7300C6003C7007C3006C380EC1C1CC0FF8C03D
:103D83003E000000000000000000000000000000F2
:103D930000000D000000000000000003FC3FE3836F
:103DA300301980CC066033818E0C3FE0FF0718701A
:103DB300C306303301B80F8060000000000000002C
:103DC30000000000000000000000000000000000F0
:0D3DD30000000000000000000000000000E3
:10693900C2EEC2C67F647E001294EFD2C67F057E86
:10694900001294EFC2C67F057E001294EF7F647E29
:10695900001294EFD2EE758040C2A7C2A1D2A1D293
:10696900A7C2EE758030C2A7C2A1D2A1D2A77F6407
:106979007E001294EFD2EE758040C2A7C2A1D2A1C7
:10698900D2A7C2EE758030C2A7C2A1D2A1D2A77583
:106999008087C2A7C2A1D2A1D2A7758007C2A7C208
:1069A900A1D2A1D2A7758027C2A7C2A1D2A1D2A77D
:1069B900758039C2A7C2A1D2A1D2A77580EFC2A79B
:1069C900C2A1D2A1D2A7758028C2A7C2A1D2A1D241
:1069D900A7E4F580C2A7C2A1D2A1D2A7D2EE758041
:1069E90044C2A7C2A1D2A1D2A7C2EEF580C2A7C252
:1069F900A1D2A1D2A7F580C2A7C2A1D2A1D2A7755F
:106A090080EFC2A7C2A1D2A1D2A7758080C2A7C2B6
:106A1900A1D2A1D2A7758025C2A7C2A1D2A1D2A70E
:106A29007580EFC2A7C2A1D2A1D2A7F580C2A7C221
:106A3900A1D2A1D2A7F580C2A7C2A1D2A1D2A7F59E
:106A490080C2A7C2A1D2A1D2A7F580C2A7C2A1D2F2
:106A5900A1D2A7D2EE75805AC2A7C2A1D2A1D2A74C
:106A6900C2EEF580C2A7C2A1D2A1D2A7D2EE75808B
:106A79005BC2A7C2A1D2A1D2A7C2EE75800DC2A7DF
:106A8900C2A1D2A1D2A7D2EE758060C2A7C2A1D2FB
:106A9900A1D2A7C2EEF580C2A7C2A1D2A1D2A7D224
:106AA900EE758058C2A7C2A1D2A1D2A7C2EED2EE7A
:106AB90075804FC2A7C2A1D2A1D2A7C2EE1299C3B3
:106AC900D2EE758059C2A7C2A1D2A1D2A7C2EE75D2
:106AD9008014C2A7C2A1D2A1D2A7E4FF12954BD2BA
:106AE9000512001ED201129162C20512001ED201C6
:086AF900129162D20BD20C22B3
:1097E3007E00300D067A257B8080047A007B00EBB7
:1097F3002FFBEA3EFAED75F028A42BFFE5F03AFEC5
:019803002242
:05001E00A205920D2275
:10954B00EF24FE60111460151460192404701B7550
:10955B004F0475504122754F0B75500A22754F0FF2
:0B956B0075500322754F11755004224B
:10957600AC07ED75F028A4FFAEF0300D067A257B1A
:109586008080047A007B00EF2BF552EE3AF551EC21
:0A9596002552F552E43551F551223B
:1099AA00E4FFFE7D807C25FB128DBF7F807E257DB6
:0999BA00807C25E4FB128DBF2224
:10916200200D06A201920B8004A201920CD2EE7590
:109172008059C2A7C2A1D2A1D2A7C2EE300C047FED
:109182001080027F00300B047E0480027E00EE4FCE
:0B919200F580C2A7C2A1D2A1D2A72283
:108F96008F2A8D2B8B2CE4F52DE52DC3952A503881
:108FA600AF52AE511296C0D2EE758042C2A7C2A190
:108FB600D2A1D2A7C2EEE4FFEFC3952B500E852CAB
:108FC60080C2A7C2A1D2A1D2A70F80EC0552E5525A
:098FD60070020551052D80C12235
:108C65008E358F368D378B38E4F539E539C3953731
:108C75005047AF52AE511296C0D2EE758042C2A790
:108C8500C2A1D2A1D2A7C2EEE4FFEFC39538501D11
:108C9500853682853583E493F580C2A7C2A1D2A12A
:108CA500D2A70536E536700205350F80DD0552E59C
:0A8CB5005270020551053980B22209
:1099F400AE07AF05855082854F83A3E493FDEE8DBA
:079A0400F0A4FD129576228B
:1073D3008F34E534640A7034AE51AF52FC7D281209
:1073E30064958E518F527C007D281264818E518F5B
:1073F30052855082854F83A3E49375F028A4AEF0A1
:107403002552F552EE3551F551AF34228550828520
:107413004F83E493FF131313541FFAE534640D7081
:1074230023EAFFC3E5529FF552E5519400F551A3BA
:10743300E49375F028A4AEF02552F552EE3551F5DC
:1074430051AF3422E534700DEA2552F552E435513B
:10745300F551AF3422E53424E0601B24F260282484
:10746300F46035240D7042855082854F83A3A3A316
:10747300E493F5348044E5502404F582E4354FF574
:1074830083E493F5348033E5502405F582E4354FE6
:10749300F583E493F5348022E5502406F582E43540
:1074A3004FF583E493F5348011855082854F83A390
:1074B300A3E493FFC3E5349FF534855082854F835E
:1074C300A3E493FBEA8BF0A4FFAEF0AD34ED339568
:1074D300E0FC126481E5502407F582E4354FF5831F
:1074E3007401932FFFE4933EFEAD02128C65AF341B
:0174F3002276
:1099C300E4FFFE7D807C25FB128DBF7F807E257D9D
:0999D300807C25E4FB128DBF220B
:1096C000D2EE758046C2A7C2A1D2A1D2A7C2EEEF48
:1096D000F580C2A7C2A1D2A1D2A7EEF580C2A7C2CF
:0696E000A1D2A1D2A722D5
:108DBF008C288D29D2EE75804CC2A7C2A1D2A1D228
:108DCF00A7C2EE1296C0D2EE758042C2A7C2A1D240
:108DDF00A1D2A7C2EEE4FFFEC3EF9529EE9528506E
:108DEF00118B80C2A7C2A1D2A1D2A70FBF00010EC3
:108DFF0080E6D2EE75804FC2A7C2A1D2A1D2A7C280
:028E0F00EE2251
:1066D00000000800C400800029000100B800C400C8
:1066E0008000290066D002030F0101010F0F010194
:1066F0000100000000000103808080F0F0818386AB
:106700000C183060C3830000003060C080000000BF
:10671000000000FCFC0005283F40808080808080D5
:106720008080808080808080808080808080808069
:106730008080808080808080808080808080403FDA
:10674000FF0000000000000000000000000000004A
:1067500000000000000010381C0E070301000000BC
:1067600000000000000000FFFF000000000000002B
:10677000000000000000000000000103070E1C38AC
:1067800070E0C0800000000000000000000000FF7A
:10679000FF0000000000000000000000040E1C3894
:1067A00070E0C08000000000000000000000000059
:1067B00000000000000000FFFC02010101010101D6
:1067C00001010101010101010101010101010101B9
:1067D000010101010101010101010101010102FCAD
:1067E00005283F40808080808080808080808080FD
:1067F0008080808080808080808080808080808099
:106800008080808080808080403FFF00000000000A
:106810000000000000081C0E07030100000000003B
:10682000000103070E1C080000000000000000002B
:1068300000FFFF000000000000000000000000005A
:106840000081C3E77E3C3C7EE7C38100000000007E
:10685000000000000000000000FFFF00000000003A
:106860000000000000103870E0C080000000000050
:106870000080C0E070381000000000000000000040
:1068800000FFFC02010101010101010101010101FF
:1068900001010101010101010101010101010101E8
:1068A000010101010101010102FC0700C0004B00D0
:1068B000280028000800E8004B00280028000901F3
:1068C00010004B00280028000400C00073002800BE
:1068D00028000500E80073002800280006011000C9
:1068E0007300280028000100C0009B002800280039
:1068F0000200E8009B0028002800030110009B0014
:10690000280028000A00C000C3002800280000005A
:10691000E800C300280028000B011000C300280075
:1069200028000C002000C400280028000D0078007A
:09693000C4002800280068AA0E2A
:1093FB008D318B321297E31296C0D2EE758042C23A
:10940B00A7C2A1D2A1D2A7C2EEE4F531E531C39533
:10941B0032500F853380C2A7C2A1D2A1D2A705318A
:03942B0080EA22B2
:109068008D238B241297E31296C0D2EE758042C2EC
:10907800A7C2A1D2A1D2A7C2EEE4F523E523C395E6
:1090880024501C852580C2A7C2A1D2A1D2A7E4F58D
:1090980080C2A7C2A1D2A1D2A70523052380DD22C1
:108D6C008F308B32D2EE75804CC2A7C2A1D2A1D269
:108D7C00A7C2EEAF301297E31296C0D2EE758042C6
:108D8C00C2A7C2A1D2A1D2A7C2EEE4F530E530C38E
:108D9C009532500F853380C2A7C2A1D2A1D2A705AC
:108DAC003080EAD2EE75804FC2A7C2A1D2A1D2A761
:038DBC00C2EE22E2
:109804008A2A8B2B129576E52B2402FFE4352AFE57
:10981400852B82852A83E493FDA3E493FB128C6554
:019824002221
:1061A0008E348F358D368B37C205753A017980D2A2
:1061B0000674E02537F537E5357803CEC313CE13E3
:1061C000D8F9F53C75F008A4FFC3E5359FFFE53429
:1061D00095F08F3DE4F539E53DD39400401C7441C2
:1061E0002539F582E43401F583E0FF74C02539F5E3
:1061F00082E43400F583EFF0800D74C02539F58218
:10620000E43400F583E4F0753801E53875F01CA43A
:1062100024C0F582E43400F583E5822539F582E473
:106220003583F583E4F00538E538B404DD0539E558
:1062300039B41CA375F04BE537A4240EF582E5F0C4
:106240003411F583E493F53B9000C0E0FFE4F53EA4
:10625000F53F754280F538E538C3953D500AE54273
:10626000C313F542053880EFE4F539AE42853D3879
:1062700075F04BE537A4240DF582E5F03411F58374
:10628000E493253DFDE433FCC3E5389DEC6480F8E0
:10629000748098400302634DE539D3953F4002D2A4
:1062A00005E539D394F04002C206300554C20530EA
:1062B0000621E53E131313541F75F01CA424C0F5EA
:1062C00082E43400F583E582253FF582E43583F5E9
:1062D00083EFF0D206E538B53D04AE4280027E8001
:1062E000E538131313541F75F01CA424C0F582E481
:1062F0003400F583E5822539F582E43583F583E0C2
:10630000FFE53B596003EE4207BE01067E80D205E1
:106310008004EEC313FEB90125053A798075F04B70
:10632000E537A4240DF582E5F03411F583E58225E7
:106330003AF582E43583F583E493F53B8004E9C3C1
:1063400013F985383E85393F05380262700539E515
:1063500039641C600302626BE53E131313541F750E
:10636000F01CA424C0F582E43400F583E582253FC7
:10637000F582E43583F583EFF0AF3CAD361297E359
:106380008E408F411296C0E4F53875F04BE537A486
:10639000240DF582E5F03411F583E493253DFF13D8
:1063A0001313541F2401FFE433FEC3E5389FEE644A
:1063B00080F87480985051AF41AE401296C0D2EE32
:1063C000758042C2A7C2A1D2A1D2A7C2EEE4F5391C
:1063D000E53875F01CA424C0F582E43400F583E5AB
:1063E000822539F582E43583F583E0F580C2A7C2C2
:1063F000A1D2A1D2A70539E539B41CD40541E541A4
:106400007002054005388082E4F53975F04BE537B8
:10641000A4240DF582E5F03411F583E493253DFFC6
:10642000131313541F75F01CA424C0F582E4340028
:10643000F583E5822539F582E43583F583E0FF7441
:10644000412539F582E43401F583EFF00539E5396A
:04645000B41CB8229E
:0D000E00E4FF7F1C900141E4F0A3DFFC2221
:108032008E238F248D258B268A278928E94A4B7027
:10804200030280E212000EE4F529AF24AE23AD252F
:10805200AB26AA27A928852982758300126454FBBE
:108062001261A0AF24AE23AB26AA27A928852982B4
:1080720075830012645475F04BA424ADF582E5F0CB
:108082003407F583E493FD7C002402FBEC33FAEB26
:108092002524F524EA3523F523ED2FFFEC3ECF24EA
:1080A200FFCF34FFFEEF7803CEC313CE13D8F9FD12
:1080B200AC06E524AE237803CEC313CE13D8F9FF62
:1080C200C3ED9FEC9E500312000E0529AB26AA2792
:1080D200A928852982758300126454600302804CAA
:0180E200227B
:1072B0008E2B8F2C8D2D8B2E8A2F8930E4FFAB2EB9
:1072C000AA2FA9308F82758300126454FE60056076
:1072D000030F80EAE4F532F533F531E531C39F5011
:1072E00033AB2EAA2FA930853182758300126454E6
:1072F00075F04BA424ADF582E5F03407F583E493F3
:107300002402FDE433FCED2533F533EC3532F53260
:10731000053180C774FE2533F53374FF3532F532FD
:10732000C313FEE53313FFC3E52C9FF52CE52B9E1D
:10733000F52B12000EE4F531AF2CAE2BAD2DAB2E9C
:10734000AA2FA930853182758300126454FB126123
:10735000A0852B32852C33AB2EAA2FA93085318204
:1073600075830012645475F04BA424ADF582E5F0EA
:107370003407F583E493FF7E002402FDEE33FCED39
:10738000252CF52CEC352BF52BE5332FCFEE3532B4
:10739000CF24FFCF34FFFEEF7803CEC313CE13D834
:1073A000F9FDAC06E52CAE2B7803CEC313CE13D873
:1073B000F9FFC3ED9FEC9E500312000E0531AB2E7A
:1073C000AA2FA930853182758300126454600302AC
:0373D000733822ED
:10718B008F2B8D2C8B2D20002E752F01AF2BE52CEB
:10719B00252FFDAB2DE4F533128D6CAF2BE52C2594
:1071AB002E14C3952FFDAB2DE4F533128D6C052FEB
:1071BB00E52FD3940240D5300013AF2BE52C04FD03
:1071CB00E52E24FEFB7533E01293FB8011AF2BE50C
:1071DB002C04FDE52E24FEFB7533801293FB30004F
:1071EB0017E52B252D14FFE52C04FDE52E24FEFBC6
:1071FB007533071293FB8015E52B252D14FFE52C1A
:10720B0004FDE52E24FEFB7533011293FBAF2BAD72
:10721B002C7B0175337F128D6CE52B04FFAD2CE5B8
:10722B002D24FEFB7533FF128D6CE52B252D14FFE2
:10723B00AD2C7B017533FE128D6CAF2BE52C252EFF
:10724B0014FD7B0175337F128D6CE52B04FFE52C50
:10725B00252E14FDE52D24FEFB7533FF128D6CE5F9
:10726B002B252D14FFE52C252E14FD7B017533FEEC
:10727B00128D6C30002E752F01AF2BE52C252FFDB9
:10728B00AB2D7533FF128D6CAF2BE52C252E14C354
:10729B00952FFDAB2D7533FF128D6C052FE52FD37D
:0572AB00940240D52211
:10935D008F268D278B28752E29C20012718BE5283B
:10936D0075F008A4FFC313FD7C00E52675F008A475
:10937D002DFFEC35F0FEE5272406FDAA29A92A7B51
:05938D00FF1272B02286
:109886007F017DC475293E752AE27B1012935D7FA8
:0F989600177DC475293E752AE87B1012935D2259
:1098A5007F017DC475293E752AEF7B1012935D7F7C
:0F98B500177DC475293E752AF37B1012935D222F
:10945F008F26129392EF24F860210470F57E667FB9
:10946F00E4127DE8EF14600E0470E7E526640160F6
:10947F00E1120026D322120026C322120026C32295
:106F20007F187D4B7BA07533801293FB30010E7F61
:106F30001D7D4B7BA07533801293FB800C7F1D7DE4
:106F40004B7B787533801293FB7F227D4B7BA07542
:106F500033801293FB7F277D4B7BA1753380129387
:106F6000FBE4F528F5297F18E52975F028A4244BC2
:106F7000FD7B0F7533FF128D6C0529E52970020525
:106F800028C3E5299405E528940040DAE4F528F5BE
:106F900029D3E5299400E5289400401CAE28AF29A8
:106FA0007C007D28126481EF24D0FFE43EFE7DA2A8
:106FB000E5292431FB1261A0AE28AF297C007D2891
:106FC000126481EF24D0FFE43EFE7D7AE52924346B
:106FD000FB1261A0AE28AF297C007D28126481EFEE
:106FE00024D0FFE43EFE7D52E5292437FB1261A048
:106FF0000529E52970020528C3E5299403E52894AD
:1070000000408E12000E7FD27E007DA27B31126185
:10701000A03001187FF87E007DCA7B301261A07F0E
:10702000197DD07A667BE7129804800E12000E7FDD
:10703000E37E007DCA7B301261A07F237DD27A423D
:107040007BF21298047F047DC47A677B1612980441
:0C7050007F0F7DC47A677BE01298042259
:109825007E697F36127DE8AE07EE24F66007240BCD
:10983500700C7FFF223005037F0A227F0022AF06CE
:019845002200
:1054EE008F268D278B28D201C202C203AF17AE16AC
:1054FE00AD15AC1490013D126693E4F5297F0412AC
:10550E00954BE528B40907D2037528088030E528A5
:10551E00B40A07D2027528048024E528D3940A40E1
:10552E001DE528540FF529D394074003E4F529E52A
:10553E0028C4540FF528D394084003752808E514A1
:10554E0030E720D204AF17AE16AD15AC1412664A72
:10555E00EF2401F517E43EF516E43DF515E43CF5B0
:10556E00148002C204E52825E0900130F0300306D5
:10557E00E02404F08011200207E529D394004007AF
:10558E00900130E02402F0AF17AE16AD15AC141238
:10559E0090E78F178E168D158C14AF14129B7F907B
:1055AE000138EFF0AF14129B7A900137EFF0AF1580
:1055BE00129B7F900136EFF0AF15129B7A9001355A
:1055CE00EFF0AF16129B7F900134EFF0AF16129BE7
:1055DE007A900133EFF0AF17129B7F900132EFF00C
:1055EE00AF17129B7A900131EFF0900139E528F058
:1055FE00900139E0FFC39408501474312FF582E402
:10560E003401F583E4F0900139E004F080E2D20534
:10561E0012001EE52614FFAD27129576900130E09C
:10562E002402FF7D1C7BFF128F96C20512001EE521
:10563E002814900139F0129392EF24F87003025857
:10564E006F046003025889E5106003025889A200B6
:10565E00920512982590013CEFF0C3940A503B122C
:10566E00002690013CE0FF900139E0FE2431F582E6
:10567E00E43401F583EFF0EED39400400890013945
:10568E00E014F08007E52814900139F0D201900162
:10569E005D7401F0E4A3F002588990013CE024F619
:1056AE00604024FE60601460432402600302588947
:1056BE00120026E4900139F0900139E0FFC39408FE
:1056CE00501474312FF582E43401F583E4F0900127
:1056DE0039E004F080E2E52814900139F0D201029D
:1056EE005889120026B204D20102588990013DE079
:1056FE00FCA3E0FDA3E0FEA3E0F5178E168D158C3E
:10570E0014120026C322120026900137E0FFE4FC9B
:10571E00FDFE7B407A42790FF812652DC004C0055C
:10572E00C006C007900138E0FFE4FCFDFE7B807AE6
:10573E00967998F812652DD003D002D001D000EFE3
:10574E002BFFEE3AFEED39FDEC38FCC004C005C06F
:06575E0006C007900136B1
:10576400E0FFE4FCFDFE7BA07A867901F812652D4A
:10577400D003D002D001D000EF2BFFEE3AFEED397A
:10578400FDEC38FCC004C005C006C007900135E03C
:10579400FFE4FCFDFE7B107A27F9F812652DD00397
:1057A400D002D001D000EF2BFFEE3AFEED39FDEC34
:1057B40038FCC004C005C006C007900134E0FFE413
:1057C400FCFDFE7BE87A03F9F812652DD003D002C4
:1057D400D001D000EF2BFFEE3AFEED39FDEC38FCA2
:1057E400C004C005C006C007900133E0FFE4FCFD1F
:1057F400FE7B64FAF9F812652DD003D002D001D0F3
:1058040000EF2BFFEE3AFEED39FDEC38FCC004C08E
:1058140005C006C007900132E0FFE4FCFDFE7B0AF0
:10582400FAF9F812652DD003D002D001D000EF2B85
:10583400FBEE3AFAED39F9EC38F8900131E0FFE487
:10584400FCFDFEEB2FF517EE3AF516ED39F515ECE8
:1058540038F514300413AF17AE16AD15AC14126638
:10586400578F178E168D158C14D32290013DE0FCB2
:10587400A3E0FDA3E0FEA3E0F5178E168D158C14AE
:10588400120026C32290015EE06004D201E4F020FD
:105894000103025644C201AF26E5272405FD1295F3
:1058A40076900130E0FF7D12E4FB128F9690013078
:1058B400E0FF2526FFE433CF24FE90013BF0EF34D4
:1058C400FF90013AF0E490013CF090013CE0FFC30A
:1058D400952840030259AD30032BEF64046004EFB4
:1058E400B4062290013BE0FFE5272405FD129576DE
:1058F4007F2E1273D390013BE024FEF090013AE036
:1059040034FFF0805A30022990013CE0B402229026
:10591400013BE0FFE5272405FD1295767F3A1273DB
:10592400D390013BE024FEF090013AE034FFF08094
:105934002EE529D39400402790013CE0B52920901E
:10594400013BE0FFE5272405FD1295767F2E1273B7
:10595400D390013BE024FEF090013AE034FFF09054
:10596400015DE0700C900139E0FF90013CE06F6054
:105974002190013BE0FFE5272405FD129576900177
:105984003CE02431F582E43401F583E02430FF1255
:1059940073D390013BE024FEF090013AE034FFF031
:1059A40090013CE004F00258CE200003025644E586
:1059B4002624FCFFAD271295767F037D14E4FB12A9
:1059C4008F9612000E300418E52675F008A424E71B
:1059D400FFE5F034FFFEAD277B2D1261A002564493
:1059E400E52675F008A424E3FFE5F034FFFEAD27B7
:0959F4007B2B1261A00256442233
:0397C100011D0087
:1098E300C2AE75B740E4F5D875D902F5E9F5F9F5D7
:0E98F300DAF5DBF5DCF5DDF5DED2DED2AE22F5
:1080E3008E2A8F2B7B507AC3EDC313FFEBAE02A80E
:1080F30007088005CEC313CE13D8F9FBAA06ED30CB
:10810300E00FAF037C007D07126495AA06AB0780DE
:108113000FAE02AF037C007D05126495AA06AB0780
:10812300AE02AF03E4FCFDF8F9AE2AAF2B12652DC6
:108133007B207A4E790078001265B88E198F1AC3A6
:10814300E51A9441E51994005006751900751A4112
:10815300C3E52B951AF51CE52A9519F51BC3E51CF8
:108163009401E51B94005006751B00751C01C2AFFA
:10817300C2A485E92D85F92CE51A252DF52DE519E0
:10818300352CF52C852DED852CFD75DD49D2AF22DF
:049B9400E4F5DD22F5
:0300330002921323
:10921300C0E0C0D030DB2DC2DB85ED4485FD43309B
:10922300A40EE51A2544F544E5193543F543800CAE
:10923300E51C2544F544E51B3543F5438544ED859D
:0992430043FDB2A4D0D0D0E0320A
:10984600D2C3C2B3C297D2C4D2B2C2C3E4FFD2B3A8
:10985600C2B30FBF12F87FD0128FDFE4F512D32206
:1079C200E512147003027A6A046003027AA130B2EB
:1079D20002C3227F0812894F7F0A1288047F0F7E1A
:1079E200001294EF20B20E7F2A12894F50077F2C8B
:1079F2001288044002C322D3E52B9509E52A950893
:107A0200400DC3E52B9509FFE52A9508FE800BC3BF
:107A1200E509952BFFE508952AFED3EF9405EE9430
:107A220000502CD3E52D950BE52C950A400DC3E5AE
:107A32002D950BFFE52C950AFE800BC3E50B952DCA
:107A4200FFE50A952CFED3EF9405EE94004002C3A5
:107A520022751201751123852A0C852B0D852C0E9A
:107A6200852D0FE4F510D32230B205E4F512C322BE
:107A7200E5116002C3227F2A12894F50077F2C1220
:107A820088044005E4F512C32275120175110F85B1
:107A92002A0C852B0D852C0E852D0F751001D322F6
:10894F008F2E7FD07D2F1289BBE433F531D3E530E5
:10895F00946FE52F9401500BA82EE4F608F6E5313D
:10896F0024FF22C3E5309446E52F940E400CA82E29
:10897F00760108763FE53124FF2274912530F530DA
:10898F0074FE352FF52FFEAF30E4FCFD7B3F7A01EF
:10899F00F9F812652D7BD77A0C790078001265B83B
:0C89AF00A82EA60608A607E53124FF222A
:108804008F2E7F907D2F1289BBE433F531D3E53071
:1088140094DEE52F9401500CA82E76000876EFE53F
:108824003124FF22C3E5309404E52F940E400BA8B5
:108834002EE4F608F6E53124FF2274222530F530C3
:1088440074FE352FF52FFEAF30E4FCFD7BEFFAF913
:10885400F812652D7B267A0C790078001265B8C36E
:1088640074EF9FFFE49EA82EF608A607E53124FFC7
:0188740022E1
:108FDF00C2B3C297D2C4C2C3E4FDEF339297D2B3E8
:108FEF00EF25E0FFC2B30DBD08F0C297D2B300C2A8
:108FFF00B3E4FBFAFDEB25E0FBEA33FAD2B330C45E
:10900F0003430301C2B30DBD0CEBD2C3D2B3D2974E
:05901F00AE02AF0322C8
:1089BB008D32AC07EC4403FF128FDF74FFF535F5F6
:1089CB0036E4F537F9EC4403FF128FDF8E338F3427
:1089DB00D3E5349536E5339535400DC3E5349536FF
:1089EB00FFE5339535FE800BC3E5369534FFE53552
:1089FB009533FEC3EF9405EE940050057537018057
:108A0B000A85333585343609B9FABAA832A6330844
:0C8A1B00A634AF04128FDFE53724FF22E1
:107DE8008E2A8F2BE4FD852B82852A83A3A3E49317
:107DF800FFEDC39F4003027EB0ED75F00AA4FFAE0D
:107E0800F0852B82852A837401932FF52DE4933E08
:107E1800F52CE5106012E52D2409F582E4352CF5E2
:107E280083E4937003027EAC852D82852C83A3E4C2
:107E380093FE740193FFC3E50D9FE50C9E4065E535
:107E48002D2405F582E4352CF583E493FA74019327
:107E5800FBEF2BFFEE3AFED3E50D9FE50C9E504459
:107E6800852D82852C83A3A3A3E493FE740193FF3D
:107E7800C3E50F9FE50E9E402BE52D2407F582E410
:107E8800352CF583E493FA740193FBEF2BFFEE3A5C
:107E9800FED3E50F9FE50E9E500A852D82852C8323
:0B7EA800E493FF220D027DEE7FFF221D
:109A3600D281D280C2ECD280C281D281D2ECD281D4
:039A4600D28022A9
:109A4900D281D280C2ECC280C281D281D2ECD281D1
:039A5900D2802296
:10991F0053877F75CAE275CBFF75C8347598D0E44D
:0D992F00F545F547F546F548F549D2AC225F
:10964800E54624806548601FC2ACE5497005754948
:1096580001D299AE480548EE547F2440F582E4349F
:0896680000F583EFF0D2AC2203
:10948F007D007C08AE47E5456E601AC2ACAE45055F
:10949F0045EE543F2400F582E43400F583E0A8073D
:1094AF00F6D2ACD322ED1D70011C144C70D6C32222
:10977A007D017C000F75A61E75A6E1AE47E5456E14
:10978A006002D322ED1D70011C144C70EE7C50FD5A
:04979A00DFE3C32224
:1096E6007F507E0675A61E75A6E1AD47E5456D6001
:1096F6000AC2AC0545D2AC7E067F50EF1F70011E34
:05970600144E70E0228A
:03002300028875DB
:10887500C0E0C083C082C0D075D000C006C007303C
:108885009828C298AF99EFA29A30D001B3401BE562
:10889500452440B547020545AE470547EE543F24FC
:1088A50000F582E43400F583EFF0309923C299E5B1
:1088B50046B548057549008017AE460546EE547F16
:1088C5002440F582E43400F583E0A2D0929BF5992B
:0D88D500D007D006D0D0D082D083D0E032C2
:108193008F348D357F0212977A4002C3227F3A12C1
:1081A300948FE53A649960051296E6C3227F3A12EA
:1081B300948F4002C322853A3BA834A63A7F3A12F1
:1081C300948F4002C322E53A253BF53B853A397F3C
:1081D3003A12948F4002C322E53A253BF53B853A98
:1081E300387F3A12948F4002C322E53A253BF53B90
:1081F300853A377F3A12948F4002C322E53A253BF2
:10820300F53B853A36AF39AE38AD37AC36A83512C3
:1082130066877F3A12948F4002C322E53BF4653AA6
:108223006002C3227F3A12948F4002C322E53A646C
:07823300886002C322D32280
:108E11008F34AE37AD36AC3585383C8E3B8D3A8CD0
:108E2100397F9912964885343DE539253DF53D2533
:108E31003AF53D253BF53D253CF53DAF34129648CD
:108E4100AF3C129648AF3B129648AF3A129648AFE4
:108E510039129648E53DF4FF1296487F88129648EC
:018E610022EE
:1077F6008E2C8F2D8D2E7F0212977A4002C3227F08
:107806002F12948FE52F647760051296E6C3227FC8
:107816002F12948F4002C3227F3012948F4002C3EE
:1078260022E530F531E52FF5327F2F12948F400295
:10783600C3227F3012948F4002C322E530FEE52F2B
:1078460065327003EE65316002C322D3E5329434AB
:10785600E53194004002C322A82EA63108A6327F45
:107866002F12948F4002C322E52F64776002C32251
:10787600E4F533852C36852D37F534F535C3E535F6
:107886009532E5349531502A7F2F12948F4002C3EA
:1078960022853782853683E52FF00537E537700276
:1078A6000536E52F2533F5330535E5357002053404
:1078B60080CB7F2F12948F4002C322E533F4652FCD
:1078C6006002C3227F2F12948F4002C322E52F64E9
:0778D600666002C322D32209
:109A5C00E4900258F0900257F0900256F0900254A5
:029A6C00F022E6
:1094BF00900257E06004A3E0600C9002567409F02C
:1094CF00E4900254F022900256E004F0E0C3940AB4
:1094DF00400DE4F0751D057F997E08FD1280E32293
:079B8D009002577401F02261
:103DE000202D2D005645495420456C656374726F33
:103DF0006E6963730074656C3A202B343230203561
:103E000034352032333520323532006661783A203D
:103E10002B343230203534352032333520323536AC
:103E200000652D6D61696C3A207665697440766530
:103E300069742E637A007777772E766569742E63BE
:103E40007A005A6164656A746520638E6C6F766F60
:103E500075207465706C6F74753A007F43007F4302
:103E60002A7300730068004E656E8E207A6164616B
:103E70006E8920706C61746E8920686F646E6F74D7
:103E800061004E896B6C6164005A6164656A746597
:103E900020616B7475896C6E8E20646174756D3AE7
:103EA000005A6164656A746520616B7475896C6E13
:103EB0008E208A61733A0043686365746520736D70
:103EC000617A61742076926563686E79007A897A86
:103ED0006E616D79207A2070616D8D74693F004F3D
:103EE0004B005A6E6F7675005A7275926974004174
:103EF0006E6F004E65004D656E75005469736B20E2
:103F000070726F746F6B6F6C75005A897A6E616D29
:103F100079004E6173746176656E8E004D657A200E
:103F20007465706C6F747900526567756C89746F15
:103F3000720044696573656C00509169686C899280
:103F4000656E8E005A6164656A7465206865736C7D
:103F50006F3A00487973746572657A653A004D610D
:103F600078696D896C6E8E207091656B6D69743A9D
:103F7000005A65738E6C656E8E3A00496E74656783
:103F800072618A6E8E208A61733A00446572697626
:103F9000618A6E8E208A61733A00496E666F726D17
:103FA0006163650056966D8D6E61206F6C656A6504
:103FB00000506572696F64612076966D8D6E792010
:103FC0006F6C656A65004E756C6F76896E8E206DBC
:103FD0006F746F686F64696E004D6F746F686F64A3
:103FE000696E793A0056966D8D6E61206F6C656AC8
:103FF000653A0050726F7665646C69206A73746507
:104000002076966D8D6E75006F6C656A653F005009
:104010006572696F64612076966D8D6E79206F6C24
:10402000656A653A004D6178696D896C6E8E206FA6
:10403000646368796C6B61206E616400638E6C6F81
:10404000766F75207465706C6F746F753A004D6192
:1040500078696D896C6E8E206F646368796C6B61B2
:1040600020706F6400638E6C6F766F75207465705E
:104070006C6F746F753A005A6B6F708E726F7661E9
:1040800074207A897A6E616D7900506572696F6407
:104090006120756B6C8964896E8E004964656E74ED
:1040A0006966696B618A6E8E208A8E736C6F0031CF
:1040B000206D696E7574610035206D696E757400D0
:1040C0003130206D696E7574003230206D696E7507
:1040D00074005A6173758F746520646F206B6F6E06
:1040E000656B746F72750070616D8D936F7696203D
:1040F0006D6F64756C0099656B656A74652E2E2E04
:10410000004B6F708E726F76896E8E207620706F86
:104110009189646B7500436879626100506F75978F
:104120008E76617420709169686C8992656E8E00DC
:10413000916964698A653F00509169686C899265EC
:104140006E8E20916964698A653A005A6164656A75
:104150007465207072956D8D726F76896E8E007A9F
:10416000897A6E616D953A005A6164656A7465205A
:10417000706F8A8974658A6E8E00646174756D3A99
:10418000005A6164656A746520706F8A8974658AF3
:104190006E8E008A61733A005A6164656A746520A4
:1041A0006B6F6E636F769600646174756D3A005A3A
:1041B0006164656A7465206B6F6E636F7696008AC2
:0641C00061733A0054692E
:1041C600736B6E6F7574206B6F7069690070726FB8
:1041D600746F6B6F6C753F005696706164656B20EB
:1041E60073706F6A656E8E00042000000000000088
:1041F60000000000000078848480780484847800BD
:1042060000000000000000000000000000000000A8
:10421600000000000000FE1010101010101010001A
:104226000000000000000000000000000000000088
:104236000000000000001C224141414141221C00B7
:104246000000000000000000000000000000000068
:104256000000000000003E2121213E2020202000F9
:104266000000000000000000000004200000000024
:10427600000000000000000010282828447C44822A
:1042860082000000000000000000000000000000A6
:104296000000000000000000828282828282824446
:1042A60038000000000000000000000000000000D0
:1042B6000000000000000000FE101010101010108A
:1042C60010000000000000000000000000000000D8
:1042D60000000000000000003C4281818181814293
:1042E6003C000000000000000000000003097C42C2
:1042F6004141414141427C3F2020203F2020203F38
:1043060020202020202020203F0210000000000056
:1043160025555575555200000000000000000000AC
:1043260072252525252200000000000308738880D9
:104336006010088870E6899090909089863C22A249
:10434600A2BCA02020021000000000000001FBFB20
:104356000100000000000000000000000080DFDF18
:1043660080000000000000021000000000000001B4
:104376001BFBE100000000000000000000000087B9
:10438600DFD88000000000000002100000000000DE
:104396000001037BF900000000000000000000009F
:1043A600009FDEC080000000000000021000000038
:1043B60000000001031BF9E00000000000000000FF
:1043C60000000F9FD8C0800000000000000210000F
:1043D600000000000001030B3978400000000000D7
:1043E600000000061F9CC0C0800000000000000204
:1043F60010000000000000010303193870000000DF
:1044060000000000020E3C90C0C0800000000000CA
:10441600000210000000000000010303091C7820C0
:104426000000000000000E1C3890C0C08000000094
:104436000000000210000000000000010303010C50
:10444600383000000000000C1C383080C0C08000EE
:10445600000000000002100000000000000103033D
:10446600010C0C1818100000000C18383080C0C061
:1044760080000000000000021000000000000001A3
:10448600030301040E0C1810000008183870208071
:10449600C0C0800000000000000210000000000004
:1044A600000103030100060E0C0000001830306006
:1044B6002080C0C080000000000000021000000044
:1044C6000000000103030100070606040020307007
:1044D60060E00080C0C08000000000000002100004
:1044E600000000000001030301000303060600604C
:1044F6006060E0C00080C0C08000000000000002D4
:104506001000000000000001030301000303030381
:104516000240C0C0C0C00080C0C0800000000000D3
:104526000002100000000101000103030100010167
:10453600030303C0C0C0C0800080C0C0800080806C
:104546000000000210010101010100010303010046
:10455600010101010180808080800080C0C0800050
:1045660080808080800210000000081C0E07030374
:10457600070E1C08000000000000103870E0C0C0E4
:10458600E0703810000000010206060102F6F6018E
:1045960002868604200000000000000000000000E3
:0645A6000000000001010D
:1045AC0000000000000000000000000000000000FF
:1045BC000000000000000000000000000000FFFFF1
:1045CC0000000000000000000000000000000000DF
:1045DC000000000000000000000000000000FFFFD1
:1045EC0000000000000000000000000000000000BF
:1045FC0000000000000000000000000000008080AF
:10460C00000000000000000000000000000000049A
:10461C00200000000000000000000000000000006E
:10462C00010100000000000000000000000000007C
:10463C000000000000000000010101010101010166
:10464C00FFFF010101010101010100000000000058
:10465C00000000000000000080808080808080804E
:10466C00FFFF808080808080808000000000000040
:10467C00000000000000000000000000000000002E
:10468C00808000000000000000000000000000001E
:10469C0000042000000000000000000000000000EA
:1046AC0000000001030100000000000000000000F9
:1046BC0000000000000000000000000000000000EE
:1046CC000000000080C0E0713B1F0E0400000000E1
:1046DC0000000000000000000000000000000001CD
:1046EC0003070E1C3870E0C08000000000000000C2
:1046FC000000000000000000000000183870E0C04E
:10470C00800000000000000000000000000000001D
:10471C000000000420000000000000000000000069
:10472C00000007080808080700000000000000004F
:10473C000000000000000000000304040404040254
:10474C000201C1330F0F33C101020204040404043B
:10475C00030000000000000000C0202020202040AA
:10476C00408083CCF0F0CC8380404020202020205F
:10477C00C00000000000000000000000000000006D
:10478C000000E010101010E000000000000000001D
:10479C0000000000000420000000000000000000E9
:1047AC0000000304000000000304000000000000EF
:1047BC0000000000000000000000000000000000ED
:1047CC0000F80601000000F80601000000000000DF
:1047DC0000000000000000000000000000000000CD
:1047EC000000000080601F00000080601F000000BF
:1047FC0000000000000000000000000000000000AD
:10480C00000000F030D0100000F030D0100000009C
:10481C000000000000000004200000000000000068
:10482C000000000001000001000003000001000076
:10483C00000000000000000000000000000000016B
:10484C000C683838F80C060381FFF1C38382063EEE
:10485C006F0D0900000000000000000000000010B7
:10486C0090F67E606141C38FFEE3C160301F0F1C68
:10487C001632B00000000000000000000000000034
:10488C0000000000808000C00000808000800000DC
:10489C0000000000000000000041EE4270471F477E
:1048AC00A1482304200000000000000000000000CC
:1048BC0000000000000000000000000000000000EC
:1048CC0000000000000000000000000000011A269B
:1048DC00261212689888402020100804040000005A
:1048EC000000000000000000000000000080704884
:1048FC004A4D49090102020204040808080000009C
:10490C00000000000000000000000000000000009B
:10491C00000000000000000000000000000000008B
:10492C000000000000042000000000000000000057
:10493C000000000001010101010101010000000063
:10494C0000000000000000000000000000007F7F5D
:10495C003E7EFCCC8880808080808080C0E0783F68
:10496C000F0000000000000000000000000000002C
:10497C00040E0703010101010101010103071EFCE3
:06498C00F0000000000035
:104992000000000000000000000000000000808015
:1049A2008080808080800000000000000000000005
:1049B20000042000000000000000000000030300CB
:1049C20000000000000000030300000000000000DF
:1049D20000000000000000000000000000FFFF00D7
:1049E20000000000000000FFFF00000000000000C7
:1049F20000000000000000000000080E0FFFFF0F83
:104A02000E080000080E0FFFFF0F0E080000000046
:104A120000000000000000000000000080C0C08014
:104A220000000000000080C0C08000000000000004
:104A32000000000420000000000000000000000050
:104A42000000000057A70000000000000000000066
:104A52000000000000000000000000000000000054
:104A620000000103FFFF030100000000000000003E
:104A72000000000000000000000000000000000034
:104A8200000080C0FFFFC0800000000000000000A6
:104A92000000000000000000000000000000000014
:104AA20000000000E5EA0000000000000000000035
:104AB20000000000000420000000000000000000D0
:104AC20000000000000050A00000000000000000F4
:104AD20000000000000000000000000001010101D0
:104AE20001010101010307070301010101010101A4
:104AF20001010000000000000000000080808080B2
:104B02008080808080C0E0E0C08080808080808063
:104B12008080000000000000000000000000000093
:104B2200000000000000050A000000000000000074
:104B320000000000000000020B041B2A2A6AA08069
:104B420040202010000080C0A0A0204040808002B1
:104B5200072354240404040380400000004080041E
:104B620012D5AAD5AAD5AAD5AAD5AAD5AAD5AAD5E3
:104B7200AAD5AA55AA55AA55AA55AA55AA55AA55BB
:104B8200AA55AA55AA55AA55AA55AA55AA55AA552B
:104B9200AA55AA55AA55AA55AB55AB55AB55AB5517
:104BA200AB55AB55AB55AB55AB04017FFFFFFE02D6
:104BB2000B0103070F1F3F070707070780C0E0F03D
:104BC200F8FCE0E0E0E0E00210FFD5AAD5AAD5AA01
:104BD200D5AAD5AAD5AAD5AAFFC040C040C040C018
:104BE20040C040C040C040C0C00210FFD5AAD5AAF4
:104BF200D5AAD5AAD5FF80808080FFC040C040C022
:104C020040C040C040C040404040C00210FF8080D1
:104C12008080FFAAD5AAD5AAD5AAD5AAFFC04040AE
:104C22004040C0C040C040C040C040C0C00210FFB1
:104C3200D5AAD5AAFF80808080FFD5AAD5AAFFC0B9
:104C420040C040C0C040404040C040C040C0C00220
:104C520010FFD5AAD5AAFF80808080FF8080808047
:104C6200FFC040C040C0C040404040C04040404003
:104C7200C00210FF80808080FFAAD5AAD5FF808065
:104C82008080FFC040404040C0C040C040C0404063
:104C92004040C00210FF80808080FF80808080FFC3
:104CA200D5AAD5AAFFC040404040C040404040C0C5
:104CB20040C040C0C00210011A262612126898880D
:104CC200402020100804048070484A4D490901021E
:104CD20002020404080808021005031151713D4F35
:104CE20007036F3D7911210305A0C0888A9EBCF29B
:104CF200E0C2F6BC9E8A88C0A002100000001C3EE2
:104D0200634100001C3E63410000000000003E06BB
:104D12000EFAF2003E060EFAF20000021000030440
:104D2200040201013B4749300101010000000080FB
:104D320080800C92E2DC8080402020C000020702CA
:104D4200010907090102800020C020008002070239
:104D52000203020001000080808080C080040B00FA
:104D6200000000000000000000DB00000000000066
:064D7200000000006D00CE
:104D7800000000000000000000B600000000000075
:104D880000000000DB040B00000000000000000031
:104D980018DB000000000000000000006D000000AB
:104DA80000000000000000B6000000000000000045
:104DB8000000DB040B0000000000000000031BDB08
:104DC800000000000000000000006D00000000006E
:104DD8000000000000B60000000000000000000015
:104DE800DB040B0000000000000000031BDB0000D8
:104DF80000000000006060606D000000000000001E
:104E0800000000B600000000000000000000DB0405
:104E18000B0000000000000000031BDB0000000086
:104E280000000C6C6C6C6D000000000000000000BD
:104E380000B600000000000000000000DB040B00CA
:104E480000000000000000031BDB00000000000160
:104E58000D6D6D6D6D00000000008080808080B653
:104E680000000000000000000000DB040B00000050
:104E78000000000000031BDB0000000000010D6DB6
:104E88006D6D6D0000000030B0B0B0B0B0B600007D
:104E98000000000000000000DB040B000000000020
:104EA800000000031BDB0000000000010D6D6D6DAC
:104EB8006D0000000636B6B6B6B6B6B600000000FD
:104EC800000000000000DB040B00000000000000F0
:104ED80000031BDB0000000000010D6D6D6D6D000F
:104EE80000000636B6B6B6B6B6B60000C0C0C0C03A
:104EF800C0C0C0C0DB040B000000000000000003BD
:104F08001BDB0000000000010D6D6D6D6D000000E1
:104F18000636B6B6B6B6B6B60018D8D8D8D8D8D8E1
:104F2800D8D8DB040B0000000000000000031BDBE6
:104F38000000000000010D6D6D6D6D00000006366B
:104F4800B6B6B6B6B6B6031BDBDBDBDBDBDBDBDB1F
:104F5800DB020C0102020202030303070707030036
:104F680080808080808080C0C0C0800608FF8080EC
:104F78008080A0A2FFFF000000000022FFFF0000C9
:104F880000000222FFFF000000000022FFFF0000D7
:104F980000000022FFF8080808082828F806028000
:104FA80080000000000000000008080602BEBE00E5
:104FB8000000000000000008080602BFBFE0E00093
:104FC800000000000008080602BFBFFEFE00000047
:104FD80000000008080602BFBFFFFFE0E000000075
:104FE8000008080602BFBFFFFFFEFE000000000821
:104FF800080602BFBFFFFFFFFFE0E0000008080649
:1050080002BFBFFFFFFFFFFEFE000008080602BF49
:10501800BFFFFFFFFFFFFFE0E008080602BFBFFF7A
:10502800FFFFFFFFFFFEFE08080602BFBFFFFFFFEE
:10503800FFFFFFFFFFE8E80210000000000702275B
:10504800584830101F000000000000000000003821
:10505800D024448E0E04000000021000000000005E
:105068003F40404040403F0000000000000000007A
:10507800F20A0E0A1220C000000000021000000010
:105088000101030307070F0D010101030240C0805E
:1050980080808080B0F0E0E0C08000000002100056
:1050A80000442A1103000E3F20242E24203F000034
:1050B80000008080800038FE02023A0202FE0002F0
:1050C800100018140C0303030C1418007344341450
:1050D80063003050608080806050300030B4889623
:1050E8000602100000017301040800000C12010000
:1050F8000C12012040009C00000000007030D0001D
:105108007030D002110000201106080810D01008D5
:10511800080611200000808002C430080804050435
:10512800080830C4028080020F071921414181819B
:105138008181814141211907C0B058AC54AA56AAAF
:1051480056AA54AC58B0C004203F4080808080806C
:0651580080808080808051
:10515E008080808080808080808080808080808041
:10516E0080403FFF0000000000000000010101012F
:10517E0001017F7F0101010101010000000000001B
:10518E000000FFFF00000000000000008080808013
:10519E008080FEFE80808080808000000000000005
:1051AE000000FFFC020101010101010101010101E9
:1051BE0001010101010101010101010101010101D1
:1051CE000102FC04203F40808080808080808080AF
:1051DE0080808080808080808080808080808080C1
:1051EE00808080403FFF00000000000000000000B3
:1051FE00000000007F7F00000000000000000000A3
:10520E0000000000FFFF0000000000000000000092
:10521E0000000000FEFE0000000000000000000084
:10522E0000000000FFFC020101010101010101016A
:10523E000101010101010101010101010101010150
:10524E0001010102FC04203F40808080808080802C
:10525E008080808080808080808080808080808040
:10526E008080808080403FFF000000000000000032
:10527E000001027C44444444447C020100000000CE
:10528E00000000000000FFFF000000000010305082
:10529E0090101010101010101010101090503010A0
:1052AE00000000000000FFFC0201010101010101EC
:1052BE0001010101010101010101010101010101D0
:1052CE00010101010102FC04203F408080808080AA
:1052DE0080808080808080808080808080808080C0
:1052EE0080808080808080403FFF000000000000B2
:1052FE00004020110A7C46454445467C0A11204058
:10530E000000000000000000FFFF00000000001081
:10531E003051921418103050905030101814925181
:10532E003010000000000000FFFC0201010101012D
:10533E00010101010101010101010101010101014F
:10534E000101010101010102FC010604067F7F0635
:10535E00040210000000492A1C0808080808080862
:10536E00000000000000000000000000000000002F
:10537E000000000210000000492A1C080808080A54
:10538E000808000000000000000000000020A0A09F
:10539E00A020000000010100006400300030010078
:1053AE0000100064003000300102010000BA00302D
:1053BE0000300053A303000008000A003000300044
:1053CE00010048000A0030003000020088000A0088
:1053DE00300030000300C8000A0030003000040125
:1053EE0008000A003000300053C405000008000A0F
:1053FE000030003000010048000A00300030005339
:10540E00F902000008000A003000300001004800D8
:10541E000A0030003000541002030000000000F0BB
:10542E0000240004011800020020002001050118CC
:10543E000043002000200106011800680020002013
:10544E000107011800A9002000200108011800CE54
:10545E00002000200009000000CB00F00025000015
:10546E0000000000000000000054270700000000AC
:10547E002700F000240004000000CB00F0002500FF
:10548E0000000000000000000000547A0200000836
:10549E0000910048002800010060003600680028D6
:1054AE0000020060009100680028000300E0000088
:1054BE000050002B000400E0002D0050002C0005D1
:1054CE0000D8005A0060002C000600D800CA006008
:1054DE0000260007000000000032003200549B0836
:0397C4000113048A
:107EB300126939C20512001EC20112916290025B5F
:107EC30074FFF0E4A3F090025AF07513047FA0FE50
:107ED3007D147BFF7A3D79E41272B07FA07E007D32
:107EE3003C7BFF7A3D79F51272B07FA07E007D5A0C
:107EF3007BFF7A3E790B1272B07FA07E007D827B7E
:107F0300FF7A3E79211272B07FA07E007DA07BFFB5
:107F13007A3E79361272B0751726751601751500FB
:107F23007514007F0412954B7F1E7DD9129576AF91
:107F330016129B7FEF2430FF1273D3AF16129B7A76
:107F4300EF2430FF1273D37F2E1273D3AF17129B1C
:107F53007FEF2430FF1273D3AF17129B7AEF2430D5
:107F6300FF1273D3D20112916290015D7401F0E4A8
:037F7300A3F02256
:10919D008E238F248C258D261299AAC201129162DD
:1091AD007FA07E007D05AA23A9247BFF1272B07FCC
:1091BD00A07E007D23AA25A9267BFF1272B0A200F6
:0B91CD009201126F20D2011291622269
:109670008E268F271299AAC2011291627FA07E00C6
:109680007D14AA26A9277BFF1272B0A200920112B4
:089690006F20D2011291622249
:109A6E00D20512001EA2009201129162C2051200CE
:029A7E001E22A6
:10939200E518B4080612871F7F0822129B858F18D2
:1093A200EF24F760EB24FE600E047016E490015D7A
:1093B200F0A304F07F092290015D7401F0A3F07F15
:0593C2000922AF182292
:108627008F23E523D39405400674052523F523E519
:108637002375F00A84F523D3940A400375230AE4CB
:10864700F524E524D394004022E524D39523501B39
:10865700E52425E02409FFE52425E025E0FBC37494
:10866700929BFD7533FF1293FB8019E52425E024C7
:1086770009FFE52425E025E0FBC374929BFDE4F5A3
:10868700331293FBE52425E02409FF7D937B0175D5
:0F86970033FF128D6C0524E524D3940A40A422EE
:109125008B26129576E526B49C087E3D7FE0129944
:10913500DC22C3E52664809480500D7F2D1273D305
:10914500E526F404F52680057F201273D3AF26EFBC
:0D9155003395E0FEFDFC752B82128C092283
:107701008F228D238A248B257F0212954BAE24AFC5
:10771100257C007D0A1264EAAB07AD23AF221291EA
:1077210025AE24AF257C007D0A1264EA7C007D0A27
:107731001264EAAE04AF05129A92EE702FEF24FCA8
:10774100601724027026E522240BFFE5232422FD85
:107751007A457B911298048024E522240BFFE523CE
:107761002422FD7A457B951298048011E522240B91
:10777100FFE5232422FD7A457B8D1298047F0412B4
:10778100954BE522240CFFE5232412FD129576E5A5
:1077910025B4180CE524B4FC077F2D1273D3802681
:1077A100C3E52464809480500BC3E49525F525E45A
:1077B1009524F524AE24AF257C007D0A1264EAED00
:1077C1002430FF1273D3D20512001EE5222404FFD8
:1077D100E52324FCFD12957630000B7F0A7D2C7B7E
:1077E100FF128F9680097F0A7D2CE4FB128F96C2CF
:0577F1000512001E223C
:108386007F0312954BE4FF7D0F9001DFE0FB129116
:1083960025E4FF7D679001DEE0FB129125E4FF7D79
:1083A600C49001E0E0FB1291257F0B7D0B9001F953
:1083B600E0FAA3E0FB90020CE024FF9200127701A2
:1083C6007F0B7D0C7B287525081290687F0B7D63DB
:1083D6009001FBE0FAA3E0FB900210E024FF92007C
:1083E6001277017F0B7D647B287525081290687FC4
:1083F6000B7DC09001FDE0FAA3E0FB900214E0249F
:10840600FF92001277017F0B7DC07B28752508122D
:0384160090682249
:107F76008F228D238B24E52214FFE5232407FD7B26
:107F8600017533A8128D6CE52214FFE5232408FD44
:107F96007B01753354128D6CE525B4040DAF22AD0B
:107FA600237A457B6B1298048018AF22AD2375F0B7
:107FB60022E524A4244BF582E5F03443AB82FA1281
:107FC6009804E5222402FFE5232407FD7B0175338F
:107FD6002A128D6CE5222402FFE5232408FD7B018D
:107FE600753315128D6CD20512001EE525640260EC
:107FF60005E525B4031AAF22AD2375F022E524A4C6
:10800600244BF582E5F03443AB82FA1298048016CD
:10801600AF22AD2312957690434BE493FFA3E493EE
:0C802600FDE4FB128F96C20512001E2222
:107AA2007F037D4090023EE0FB900239E0F5251213
:107AB2007F767F077D4090023EE0FB90023AE0F540
:107AC20025127F767F057D9B90023EE0FEC3740FF8
:107AD2009EFB90023BE0F525127F7690023CE0B4DB
:107AE200010B7F027D9D7A4B7B391298047F0E7DBC
:107AF20040900241E0FB900232E0F525127F767F52
:107B0200127D40900241E0FB900233E0F525127FA6
:107B1200767F167D40900241E0FB900234E0F5252D
:107B2200127F7690023FE0B4010B7F0C7D427A4BCC
:107B32007B391298047F0E7D9B900244E0FB9002F9
:107B420035E0F525127F767F127D9B900244E0FBA3
:107B5200900236E0F525127F767F167D9B900244D7
:107B6200E0FB900237E0F525127F7690023FE0B409
:0E7B7200010B7F0C7D9D7A4B7B39129804220B
:10852400E4FF12954B7F1C7D0412957690024FE078
:10853400FF129B36E4FCFD75300A1284A07F2E12D4
:1085440073D3900250E0FF129B36E4FCFD75300AB1
:108554001284A07F2E1273D3900251E0FEA3E0FF99
:1085640012979E75300C1284A07F201273D37F045F
:1085740012954B7F1C7D1212957690024EE0FF12ED
:108584009B36E4FCFD75300A1284A07F3A1273D343
:1085940090024DE0FF129B36E4FCFD75300A128414
:0285A400A02213
:10942E00AE07EED39405400474052EFEEE75F00AD9
:10943E0084FED3940A40027E0A7F237D3C75F02E73
:10944E00EEA4245FF582E5F0344DAB82FA12980457
:01945E0022EB
:109A210090025EE0600EC374239FFF7D3F7A4D7B01
:059A31003F1298042221
:109A8000900221E0600B7F217D3F7A4D7B4F129841
:029A90000422AE
:107D1C007F1C7D3C1295767F0C7D10E4FB128F96B8
:107D2C00900205E014601F14605514606914700310
:107D3C00027DC424046003027DE77F1C7D3E7A43F0
:107D4C007B31129804227F1C7D3A7A437B0F129868
:107D5C0004900207E070177F1F7D3A7A4C7BFB1270
:107D6C009804129A8090021CE0FF12942E227F1F1E
:107D7C007D3A7A4C7BD9129804E4FF129A21227F27
:107D8C001C7D3A7A4C7BB71298047F1F7D3A7A4D52
:107D9C007B1D129804227F1C7D3A7A4C7BB712987B
:107DAC00047F1F7D3A7A4C7BFB129804129A8090C8
:107DBC00021CE0FF12942E227F1C7D3A7A4C7BB77A
:107DCC001298047F1F7D3A7A4C7BD91298047F025B
:0C7DDC00129A2190025DE0FF12942E220A
:108A27007F0412954B7F1C7D88129576900264E037
:108A3700FF129B36E4FCFD75300A1284A0D20512A2
:108A4700001E7F1C7D87129576900265E0600B7F84
:108A5700047D147BFF128F9680097F047D14E4FB4D
:108A6700128F96C20512001EE4FF12954B7F227DDE
:108A770093129576900266E0FFE4FCFDFE752B836A
:048A8700128C092222
:10970B007F1E7DA37A4F7B731298047F1E7DA590DD
:10971B00024BE075F00EA424A5F582E4344FAB8226
:05972B00FA129804226F
:108B5000900245E060567F1C7DA17A4F7B591298A8
:108B60000490024BE0C3940B4003740AF012970B7D
:108B7000D20512001E90024CE0600512970B801681
:108B80007F1E7DA3129576904F73E493FFA3E49329
:108B9000FDE4FB128F9690024AE0600B7F257D9FDB
:0D8BA0007A507B3F129804C20512001E227D
:107B8000900245E06011A3E0600D7F1C7DB57A5046
:107B90007B611298048029900269E0600D7F1C7D52
:107BA000B57A507B8312980480167F1C7DB51295A0
:107BB00076905061E493FFA3E493FDE4FB128F966B
:107BC000900267E0600D7F207DB57A507BA512980A
:107BD0000480167F207DB51295769050A5E493FF22
:107BE000A3E493FDE4FB128F96900262E0600D7FA8
:107BF0001E7DB57A507BC712980480167F1E7DB516
:107C00001295769050C7E493FFA3E493FDE4FB1232
:107C10008F96900197E0B4060C7F267DB57A537B52
:107C20008112980422900199E0600C7F267DB57A3C
:107C3000537B5F129804227F267DB5129576905370
:0E7C40005FE493FFA3E493FDE4FB128F962212
:10760B00D20512001E900268E0600D7F207DB47AD7
:10761B00507BA512980480167F207DB4129576902E
:10762B0050A5E493FFA3E493FDE4FB128F96900225
:10763B0063E0600D7F1E7DB47A4D7B1D1298048034
:10764B00167F1E7DB4129576904D1DE493FFA3E437
:10765B0093FDE4FB128F96900260E0FF6027600DB4
:10766B007F227DB67A4C7BD9129804805A7F227D7B
:10767B00B6129576904CD9E493FFA3E493FDE4FB0B
:10768B00128F96804290021EE0FF6027600D7F22D2
:10769B007DB47A4C7BFB129804802C7F227DB41234
:1076AB009576904CFBE493FFA3E493FDE4FB128FE0
:1076BB009680147F227DB4129576904CD9E493FF7B
:1076CB007D12E4FB128F9690021FE0600D7F247DEC
:1076DB00B47A507BE912980480167F247DB41295FE
:1076EB00769050E9E493FFA3E493FDE4FB128F96AD
:0676FB00C20512001E2270
:109959008F227F1AAD227B01753305128D6C7F1B17
:0B996900AD227B0D753355128D6C2272
:109974008F227F1AAD227B0175330A128D6C7F1BF7
:0B998400AD227B0D7533AA128D6C2202
:109901007F1C7DCE7B0B752E22C20012718B7F0CCA
:0E9911007E017DD07BFF7A3E79F61272B02285
:1082E1001299AA7F0BE4FD7BEF7525081290687F38
:1082F1001AE4FD7BEF752508129068900208E06092
:10830100030283827F2B1299597F581299747F85BA
:108311001299597F9C1299747FB21299747FC81275
:1083210099747F0412954B7F1B7D669001A4E0FB3D
:108331001291257F217D717A4B7B51129804900116
:10834100A5E0FEC39400401CEED3940650167F2690
:108351007D67EE75F022A424C9F582E4344BAB822B
:10836100FA129804E4FF12954B7F207D93129576C3
:108371007F561273D37F267D931295767F411273B8
:05838100D31299012256
:107C4E0090019BE0605F90025BE0B4FF051299AA81
:107C5E008019D20512001EE4FFFD1295767F287D55
:107C6E00F0E4FB128F96C20512001EE4FFFD129582
:107C7E00767F1C7DF0E4FB128F967F1CE4FD12953F
:107C8E00767F287DC9E4FB128F967FA07E007D64EF
:107C9E007BFF7A4179DE1272B0129901129B8DE44C
:107CAE0090025BF022900196E0600690025B74FFFA
:107CBE00F090025BE020E00A900208E0FFA3E06F84
:107CCE0060031282E1900208E0601512838612852D
:107CDE002490025AE06003125EDFE490025BF02211
:107CEE0090025BE030E121128386128524127AA283
:107CFE00127D1C128A27128B50127B8012760B90EB
:0E7D0E00025AE06003125EDFE490025BF02296
:108BAD00E4F522E52275F008A404FF7D0A7B067525
:108BBD002E30C20012718BE52275F008A42402FF3D
:108BCD007D12E52225E024A5F582E43448F583E401
:108BDD0093FA740193FB1298040522E522C39405C0
:108BED0040C17F207DBA7B06752E30C20012718B7D
:0C8BFD007F217DC27A467B9D12980422E5
:10993C00900205E024FC600C04701190021CE0FF06
:0D994C001286272290025DE0FF128627227E
:109285007F207D647B06752E30C20012718B7F2195
:109295007D6C7A467B1B1298047F027D647B067584
:1092A5002E30C20012718B7F037D6C7A457B99123B
:0692B500980412993C220E
:108D18008F22120026900205E075F008A404FF7D5A
:108D28000A7B06752E30C20012718BAF221298C4CE
:108D3800E52275F008A404FF7D0A7B06752E30D263
:108D48000012718B900205E024FC60030470041289
:108D5800928522E4FF7D3A1295767F287DB6E4FB62
:048D6800128F9622AE
:1078DD001299AA128BAD900205E075F008A404FF71
:1078ED007D0A7B06752E30D20012718B900205E059
:1078FD00FF64036004EFB40403129285129392EFB8
:10790D0024F960071470F5120026227E537FF612BB
:10791D007DE8EF14601A14602414602E1460322474
:10792D00047033E4FF128D187F2C7E011294EF2228
:10793D007F01128D187F2C7E011294EF227F02128F
:10794D008D187F2C7E011294EF227F03128D1880EB
:10795D00057F04128D187E537FC1127DE8EF1460F0
:10796D002A14604D24027094900205E024FC600FEF
:10797D00047089120026129AD612993C02790912C6
:10798D000026129AF612993C027909900205E0241C
:10799D00FC6012046003027909120026129AC612C5
:1079AD00993C027909120026129AE612993C027945
:0579BD00091200262262
:108EFE007F017D0A7B06752E30C20012718B7F02B8
:108F0E007D127A427B701298047F097D0A7B06756A
:108F1E002E30C20012718B7F0A7D127A487BAF12FF
:108F2E0098047F207DBA7B06752E30C20012718B9D
:0C8F3E007F217DC27A467B9D12980422A0
:0E9B550090023CE0B40106A3E0FF1286272236
:1092BB007F207D647B06752E30C20012718B7F215F
:1092CB007D6C7A497BB31298047F027D647B0675B3
:1092DB002E30C20012718B7F037D6C7A497B311269
:0692EB009804129B5522BD
:108E62008F2212002690023CE075F008A404FF7DD8
:108E72000A7B06752E30C20012718BAF2212998FB7
:108E8200E52275F008A404FF7D0A7B06752E30D218
:108E92000012718BE522B401041292BB22E4FF7D21
:0E8EA2003A1295767F287DB6E4FB128F962259
:1085A6001299AA128EFE90023CE075F008A404FF10
:1085B6007D0A7B06752E30D20012718B90023CE04C
:1085C600B401031292BB129392EF24F96007147060
:1085D600F5120026227E547F0D127DE8EF146010FE
:1085E600047012E4FF128E627F2C7E011294EF2239
:1085F6007F01128E627E537FC1127DE8EF146012F6
:1086060014601A240270BF120026129B16129B5584
:1086160080B4120026129B06129B5580A9120026D2
:018626002231
:108F4A007F017D0A7B06752E30C20012718B7F026B
:108F5A007D127A427B701298047F097D0A7B06751E
:108F6A002E30C20012718B7F0A7D127A487BAF12B3
:108F7A0098047F207DBA7B06752E30C20012718B51
:0C8F8A007F217DC27A467B9D1298042254
:1095A000900259E0FF75F003A4243FF582E43402F1
:1095B000F583E0B40113EF75F003A42440F582E4D1
:0A95C0003402F583E0FF1286272233
:1092F1007F207D647B06752E30C20012718B7F2129
:109301007D6C7A4A7BB71298047F027D647B067577
:109311002E30C20012718B7F037D6C7A4A7B35122D
:0693210098041295A02241
:108AEF008F22120026900259E075F003A4243FF55F
:108AFF0082E43402F583E075F008A404FF7D0A7B5D
:108B0F0006752E30C20012718B900259E0FFAD2214
:108B1F00129327E52275F008A404FF7D0A7B0675E2
:108B2F002E30D20012718BE522B401041292F12281
:108B3F00E4FF7D3A1295767F287DB6E4FB128F967F
:018B4F002203
:10823A001299AA128F4A900259E075F003A4243FBA
:10824A00F582E43402F583E075F008A404FF7D0AA0
:10825A007B06752E30D20012718B900259E075F0B0
:10826A0003A4243FF582E43402F583E0B401031247
:10827A0092F1129392EF24F960071470F512002616
:10828A00227E547F24127DE8EF146010047012E4F9
:10829A00FF128AEF7F2C7E011294EF227F01128A4D
:1082AA00EF7E537FC1127DE8EF1460171460242417
:1082BA000270BF120026900259E0FF12961E129514
:1082CA00A080AF120026900259E0FF1295F4129591
:0782DA00A0809F1200262284
:109730001299AAC2011291627FA07E007D557BFF23
:109740007A3E79671272B0129886D2011291627FC6
:059750000212945F22EB
:109AA4009001A4EFF07F087E007D007C00128419F1
:019AB400228F
:1088E2007E3E7F42D2001296707F747E007D5A7B5C
:1088F200FF7A3E795B1280329001A4E0FF3395E06B
:108902008F17F516F515F5147F097D5A7B02D200F3
:108912001254EE50377F057E007D007C00AB17AA13
:1089220016A915A814C3126665401C7F237E007D1C
:10893200007C00AB17AA16A915A814D312666550BD
:0D89420006AF17129AA4221297304094221B
:108CBF008F23E52304FF7D4B7A4B7BB1129804AFD2
:108CCF00237D5B7B387533801293FBE5232403FFF1
:108CDF007D5B7B387533011293FBAF237D5A7A4B43
:108CEF007BAB129804AF237D937A4B7BAB12980426
:108CFF00AF237D6D7B047533FF128D6CAF237D80A9
:098D0F007B047533FF128D6C2208
:109AB5009001A5EFF07F107E007D007C00128419D7
:019AC500227E
:106B01001299AAC2011291627FA07E007D147BFFBF
:106B11007A3E79821272B0E4F522E52275F005A47D
:106B21002403FF128CBF0522E522C3940740EB7FAB
:106B3100037D5B7A4B7B611298047F037D6E7A4BF8
:106B41007B611298047F037D817A4B7B61129804EB
:106B51007F087D5B7A4B7B611298047F087D6E7A9A
:106B61004B7B611298047F0D7D6E7A4B7B6112988D
:106B7100047F0D7D817A4B7B611298047F127D5BCE
:106B81007A4B7B611298047F127D817A4B7B611273
:106B910098047F177D5B7A4B7B611298047F1C7D83
:106BA1006E7A4B7B611298047F217D817A4B7B61E8
:106BB1001298047F087E007DCB7BFF7A3E79E81234
:106BC1008032D201129162129392EF24F96007147C
:106BD10070F512002622E51070EDC3E50F944BE528
:106BE1000E9400405BD3E50F9494E50E9400505051
:106BF100E4F522E522C3940750CDE522FB7A007C1F
:106C0100007D28FFAE02126481EF2418FFE43EFEEE
:106C1100C3E50D9FE50C9E4023EB2401FFEA33FE03
:106C2100126481EF2418FFE43EFED3E50D9FE50CCD
:106C31009E5009120026AF22129AB522052280B376
:106C4100C3E50D9408E50C94005003026BC8D3E52D
:106C51000D94F8E50C94004003026BC8C3E50F9452
:106C6100CBE50E94005003026BC8D3E50F94F0E519
:0C6C71000E94004003026BC812002622A3
:1093C7001299AAC2011291627FA07E007D417BFFA4
:1093D7007A3E79B71272B07FA07E007D5F7BFF7AFD
:1093E7003E79CD1272B01298A5D2011291627F0216
:0493F70012945F224B
:049B98001200032292
:106C7D007E3E7F89C200129670900251E0FEA3E025
:106C8D00FF12979E8F178E168D158C14900250E063
:106C9D00FF129B368F1590024FE0FF129B368F141B
:106CAD00AF17AE16AD15AC1412924C8F178E168D04
:106CBD00158C147F027D5A7B09C2001254EE4003DD
:106CCD00026DD7AF17AE16AD15AC141291D88F1744
:106CDD008E168D158C14AF14129B46EF541FFFACFE
:106CED0024AD25ED54E0FDECF524ED4FF525AF1564
:106CFD00129B46EF540FC454F0FEAC22AD23EC545E
:106D0D000F4EF522EDF523AF16EFFEAD177C00E427
:106D1D002DFFEC3EFE129755EE540FFEAC22AD2327
:106D2D00EC54F04EF522EFF5237E3E7FA1C200120A
:106D3D009670E4F515F51490024EE0FF129B368F18
:106D4D001690024DE0FF129B368F17AF17AE16ADA2
:106D5D0015AC1412924C8F178E168D158C147F074F
:106D6D007D5A7B0AC2001254EE505FAF17AE16ADBE
:106D7D0015AC141291D88F178E168D158C14AF1665
:106D8D00129B467E00EF541F7805C333CE33CED809
:106D9D00F9FFAC24AD25EC54FCFCED541FFDEC4E7D
:106DAD00F524ED4FF525AF17129B46EF543F25E027
:106DBD0025E0FEAC24AD25EC54034EF524EDF52570
:0B6DCD001293C750057F22129B9822F2
:106DD8001299AAC2011291627F087E007D037BFF8F
:106DE8007A3F79121280327F087E007DCB7BFF7A52
:106DF8003E79E81280327F22E4FD7BF0752580120F
:106E080090687F237D027A517B4F1298047F247DFE
:106E1800247A517B0B1298047F237D377A517BD1DA
:106E28001298047F227D5F7B06753355128D6C7F27
:106E3800237D687A517B4F1298047F247D8B7A5189
:106E48007B2F1298047F237D9D7A517BD112980461
:106E58007F227DC57B06753355128D6C900258E0F4
:106E6800600D7F237DCE7A527BD5129804800B7FEC
:106E7800237DCE7A527B53129804D201129162126A
:106E88009392EF24F960071470F5120026227E54BD
:106E98007F77127DE8EF24FDB4070050E2906EACD6
:106EA800F8282873026EC1026EC8026ED6026EE41C
:106EB800026EEC026EF4026F1C129B63128A8B2224
:106EC800120026E513C3940450B5051380B11200CF
:106ED80026E513D3940140A7151380A312002612A8
:106EE8009A36809B120026129A4980931200261225
:106EF8009B26900258E0600E7F237DCE7A527BD588
:106F0800129804026E877F237DCE7A527B531298A3
:086F180004026E87120026221C
:109A0B009001B1EDF09001B0EFF07F007E0C7D0086
:069A1B007C0012841922F8
:1086A6007E407F257C407D3CC20012919D7F747E7A
:1086B600007D5A7BFF7A3E795B1280329001B0E0F2
:1086C600FFE48F17F516F515F5147F097D5A7B0221
:1086D600C2001254EE50418517227E407F4E7C40E8
:1086E6007D65C20012919D7F747E007D5A7BFF7A64
:1086F6003E795B1280329001B1E0FFE48F17F516E8
:10870600F515F5147F097D5A7B02C2001254EE500E
:0987160007AF22AD17129A0B22E5
:108A8B001299AAC2011291627F027E007D037BFFC5
:108A9B007A3F79121280327F087E007D277BFF7A26
:108AAB003F791C1280327F087E007DCB7BFF7A3EA4
:108ABB0079E8128032D201129162129392EF24F96B
:108ACB0060071470F5120026227E547F98127DE801
:108ADB00EF24FC600B240470E1129B631286A62228
:048AEB00120026222D
:0C9B6300120026D200129A6EE4F51822BF
:1074F4007E547FEB127DE8EFB40800400302760A65
:1075040090750BF828287302752302754502756C73
:107514000275930275A90275C50275E40275F490AB
:107524000208E0600302760A90019BE060030276A1
:107534000A129B631285A690025B74FFF0127C4EC4
:1075440022900208E0600302760A90019BE0600347
:1075540002760A129B63E4900259F012823A900276
:107564005B74FFF0127C4E22900208E06003027606
:107574000A90019BE0600302760A129B63E4900286
:1075840059F012823A90025B74FFF0127C4E229002
:10759400019BE07071129B63126C7D90025B74FF1F
:1075A400F0127C4E22900208E0705B90019BE07028
:1075B40055129B631278DD90025B74FFF0127C4ECF
:1075C40022900208E0703F90019BE07039129B63A7
:1075D4001288E2126B0190025B74FFF0127C4E225F
:1075E400129B63126DD890025B74FFF0127C4E22E2
:1075F40090025CE0C39401500D12002690025A746C
:0776040001F090025CF0228E
:0D002600751D027FE27E0CE4FD1280E322D6
:109866006176672000653D0020703D0020693D005F
:1098760020643D00206F3D0020202000202F200086
:105EDF00E4FF12954BE4FF7D071299F49001E9E07E
:105EEF00FEA3E0FFE4FCFD752B84128C097F0B7D74
:105EFF00071299F49001E7E0FEA3E0FFE4FCFD75C3
:105F0F002B84128C097F177D071299F49001EBE017
:105F1F00FEA3E0FFE4FCFD752B84128C09E4FF7DEA
:105F2F00161299F49001E1E0FEA3E0FFE4FCFD7589
:105F3F002B84128C097F0B7D161299F49001E3E0EC
:105F4F00FEA3E0FFE4FCFD752B84128C097F177D07
:105F5F00161299F49001E5E0FEA3E0FFE4FCFD7555
:105F6F002B84128C09E4FF7D0C1299F490020AE045
:105F7F00FEA3E08E22F5237E987F661299DCC3E59F
:105F8F00226480948050077F2D1273D380057F2069
:105F9F001273D3AE22AF237C017D001264EA129AF2
:105FAF0092EE3395E0FDFC752B82128C097F2E1239
:105FBF0073D3AF23AE22129A927E007C007D6412BF
:105FCF006481EEFF3395E0129B36E4FCFD75300AD9
:105FDF001284A0900201E0FEA3E0FFC3900200E054
:105FEF009FF5239001FFE09EF5227F0BE4FD1299B0
:105FFF00F4C3E5226480948050127F2D1273D3C3B3
:10600F00E49523F523E49522F52280057F20127372
:10601F00D3AE22AF237C007D0A1264EAEE3395E003
:10602F00FDFC752B82128C097F2E1273D3AE22AF1B
:10603F00237C007D0A1264EAAF05129B36E4FCFD57
:10604F007530091284A07F16E4FD1299F47E987FB3
:10605F006B1299DCC3900222E06480948050077F1A
:10606F002D1273D380057F201273D3900222E0FE8E
:10607F00A3E0FF7C017D001264EA129A92EE339541
:10608F00E0FDFC752B82128C097F2E1273D39002C8
:10609F0022E0FEA3E0FF129A927E007C007D641244
:1060AF006481EEFF3395E0129B36E4FCFD75300AF8
:1060BF001284A07E987F6E1299DC7B107A00790093
:1060CF007800900224E0FCA3E0FDA3E0FEA3E0FF34
:1060DF00129024752B03128C097E987F721299DC13
:1060EF007B407A0679007800900228E0FCA3E0FD5F
:1060FF00A3E0FEA3E0FF129024752B83128C097E80
:10610F00987F761299DC7B107A00790078009002E4
:10611F002EE0FCA3E0FDA3E0FEA3E0FF12902475A8
:10612F002B03128C097E987F7A1299DC90021CE067
:10613F00FFE4FCFDFE752B83128C097E987F7E1287
:10614F0099DC90021AE0FEA3E0FF7C017D0012644F
:10615F00EA129A92EE3395E0FDFC752B83128C09AF
:10616F007F1DE4FD1299F490015FE0FEA3E0FFE4D0
:10617F00FCFD752B85128C097E987F821299DC901D
:10618F00019DE0FEA3E0FFE4FCFD752B85128C0959
:01619F0022DD
:0497C70041026900F2
:10705C0012991FE490019BF0900196F090019A74A4
:10706C000EF0E490015FF0A3F090019DF0A3F0907E
:10707C000264F09001A5F0900266F0900205F09089
:10708C000207F0A3F0A3F090020CF0900210F09025
:10709C000214F090025DF0A3F0900260F0900245B3
:1070AC00F0A3F090024AF0A3F0A3F0900269F090E4
:1070BC00023CF0A3F0A3F0900241F090023FF0A349
:1070CC00F0900242F0A3F0A3F090021DF090021C8D
:1070DC00F0900261F0900232F0A3F090021EF0A347
:1070EC00F0900234F0A3F0900220F0A3F09002365E
:1070FC00F0A3F0900267F0A3F0900239F0A3F090A7
:10710C000262F0A3F0900222F0A3F0A312669F009B
:10711C0000000090022812669F0000000090019C65
:10712C007401F0E4900265F0FF74DB2FF582E43417
:10713C0001F583E4F0EF25E024F9F582E43401F560
:10714C0083E4F0A3F00FBF06E0E490024FF0A3F04D
:10715C00A3F0A3F090024EF090024DF09001A4F039
:10716C009001B0F0900257F09001B1F0900258F0FD
:0F717C0090023BF0900199F09001977404F0227B
:1059FD00900162E0541F900264F09001A5E0FF90C9
:105A0D000162E0FEC413540754076F600690025BF9
:105A1D0074FFF0900162E0FFC41354075407900126
:105A2D00A5F0900163E0900266F0900205E0FF9012
:105A3D000164E054076F6009129B9C90025B74FF38
:105A4D00F0900164E05407900205F0900164E0FFCE
:105A5D00131313541F5401900207F0900164E0C416
:105A6D00540F5401900208F0900164E0C4135407E0
:105A7D005401900209F0900164E0C41313540354CF
:105A8D000190020CF0900164E0C4131313540154FF
:105A9D0001900210F0900165E05401900214F09015
:105AAD000205E0B4041C900165E0FFC313540F75AB
:105ABD00F00AA4FF90025DE06F7002E5F060031242
:105ACD009B9C900165E0FFC313540F75F00AA490E1
:105ADD00025DF0900165E0FFC4135407540190027C
:105AED005EF0900165E0C4131354035401900260FD
:105AFD00F0900165E0C41313135401540190024555
:105B0D00F0900166E05401900246F0900166E0FFCE
:105B1D00C313540190024AF0900166E01313543FF1
:105B2D00540F90024BF0900166E0C41313540354CC
:105B3D000190024CF0900166E0C41313135401540C
:105B4D0001900269F090023CE0FF900167E0540182
:105B5D006F6009129B9C90025B74FFF0900167E0EF
:105B6D005401FF90023CF0BF0112A3E0FF900167CA
:105B7D00E0FEC313547F6F6003129B9C900167E09E
:105B8D00FFC313547F90023DF0900168E0540F90D5
:105B9D00023EF0900168E0FFC4540F540F90024193
:105BAD00F090023FE0FF900169E054016F6009122F
:105BBD009B9C90025B74FFF0900169E05401FF9093
:105BCD00023FF0BF0112A3E0FF900169E0FEC31395
:105BDD00547F6F6003129B9C900169E0FFC31354C7
:105BED007F900240F0900242E0FF90016AE0540184
:105BFD006F6009129B9C90025B74FFF090016AE04C
:105C0D005401FF900242F0BF0112A3E0FF90016A20
:105C1D00E0FEC313547F6F6003129B9C90016AE0FA
:105C2D00FFC313547F900243F090016BE0540F902B
:105C3D000244F090016BE0FFC4540F540F90021D0D
:105C4D00F0900205E0B4031190021CE0FF90016C8E
:105C5D00E0547F6F6003129B9C90016CE0547F9029
:105C6D00021CF090016CE0FFC41313135401540196
:105C7D00900261F090016DE05407900232F09001B6
:105C8D006DE0FF131313541F5407900233F090016E
:105C9D006DE0C413135403540190021EF090016D76
:105CAD00E0C41313135401540190021FF090016EC0
:105CBD00E05407900234F090016EE0FF131313547B
:105CCD001F5407900235F090016EE0C41313540376
:105CDD005401900220F090016EE0C413131354018F
:105CED005401900221F090016FE05407900236F0BC
:105CFD0090016FE0FF131313541F5407900237F0F8
:105D0D0090016FE0C4131354035401900267F09097
:105D1D00016FE0C413131354015401900268F09005
:105D2D000170E05407900239F0900170E0FF1313F9
:105D3D0013541F540790023AF0900170E0C41313EE
:105D4D0054035401900262F0900170E0C4131313D8
:105D5D0054015401900263F0900171E0FFA3E090B3
:105D6D000222CFF0A3EFF0900173E0FCA3E0FDA3BE
:105D7D00E0FEA3E0FF900224126693900177E0FC11
:105D8D00A3E0FDA3E0FEA3E0FF900228126693902E
:105D9D00017BE0547F90019CF090017BE0FFC413E8
:105DAD00131354015401900265F0E4FF747C2FF538
:105DBD0082E43401F583E0FE74DB2FF582E43401D7
:105DCD00F583EEF0EF25E02482F582E43401F583CE
:105DDD00E0FCA3E0FDEF25E024F9F582E43401F5C4
:105DED0083ECF0A3EDF00FBF06C2E4900191E054F7
:105DFD001F90024FF090018EE0C4540F540F90028B
:105E0D0050F090018EE0540F900251F090018FE010
:105E1D00900252F0900190E0FEA3E07805CEC313FE
:105E2D00CE13D8F9541F90024EF0900190E0131349
:105E3D00543F543F90024DF0900192E0FF9001A429
:105E4D00E06F600690025B74FFF0900192E09001AC
:105E5D00A4F0900193E0547F9001B0F0900193E095
:105E6D00FFC413131354015401900257F090019481
:105E7D00E0547F9001B1F0900258E0FF900194E062
:105E8D00FEC4131313540154016F6003129B9C90B5
:105E9D000194E0FFC413131354015401900258F000
:105EAD00900195E0540790023BF0900195E0FF13AF
:105EBD001313541F5401900199F0900195E0C454AF
:105ECD000F30E0079001977406F02290019774044B
:025EDD00F022B1
:1095CA00900160E004F0700690015FE004F0E4901E
:1095DA00019AF0A3E060089001967401F08005E416
:0A95EA00900196F0E490019BF0223E
:10951E0090019EE004F0700690019DE004F0E4904E
:10952E000196F090019AE0C3940F500AE4A3F090D4
:0D953E00019AE004F02290019B7401F022DC
:1090A8001296E67538007537007536007535007FFD
:1090B80015128E11752A00752B347E017F62AD2B37
:1090C8001277F6400512951EC322E52B6434452A13
:0F90D800600512951EC3221259FD1295CAD322AC
:108EB0008F2C8D2DE4900161F0F5331296E6A82DEC
:108EC00012667B8F388E378D368C35AF2C128E1113
:108ED0007F2E7D2F1281935014E52EB52C0FAF32CB
:108EE000AE31AD30AC2FA82D126687D3220533E505
:0E8EF00033C3940340C59001617401F0C322A6
:108419008F268E258D248C23E5265408FFE4FEFD46
:10842900FCEF6013752B069001A4E0FF3395E08FF4
:108439002AF529F528F527E5265410FFE4FEFDFC69
:10844900EF6011752B079001A5E0FFE48F2AF5294C
:10845900F528F527E4FFE5255404FEE4FDFCEE606C
:1084690029752B14751700751600751500751400FC
:108479009001B0E0F516A3E0F517AF17AE16AD15EC
:10848900AC148F2A8E298D288C27AF2B7D27128E2D
:07849900B04002C322D32210
:1098C4008F23E48F27F526F525F5247F017D2412C7
:0F98D4008EB0500A900205E523F0A37401F02234
:109AC6007F027D22128EB0500690021CE525F02200
:109AD6007F037D22128EB0500690021CE525F022EF
:109AE6007F047D22128EB0500690025DE525F0229D
:109AF6007F057D22128EB0500690025DE525F0228C
:10998F008F23E48F27F526F525F5247F087D2412F4
:0B999F008EB0500690023CE523F02241
:109B06007F097D22128EB0500690023DE525F02297
:109B16007F0A7D22128EB0500690023DE525F02286
:109327008F238D24E523700575290B800375290E7E
:10933700E4852428F527F526F525AF297D25128E06
:10934700B05012E52375F003A4243FF582E43402FC
:06935700F583E524F0227D
:1095F4008F22E522700575270C800375270FAF278E
:109604007D23128EB05012E52275F003A42440F598
:0A96140082E43402F583E526F0221B
:10961E008F22E522700575270D8003752710AF2761
:10962E007D23128EB05012E52275F003A42440F56E
:0A963E0082E43402F583E526F022F1
:109B26007F117D22128EB05006900258E525F02254
:08000300AD077F12128EB0223E
:1097CB00014B00014D00C108C10A014E19C107C16F
:0797DB0089014A00014C0066
:1000C200E4F5A2758F7F758E3D75A70775A61E751F
:1000D200A6E1D2EBD2AF5389F0438901F58A758C40
:1000E20088D2A9D28C53890F438910F58B758DFA6A
:1000F200D2ABD28E12705C127EB31298461298E383
:10010200129A5C751D0A7F997E08E4FD1280E37FD6
:10011200F47E011294EF754B32754D41129B85EFBF
:1001220024F7601D146013146009240470EE127425
:10013200F480E9D200129A6E80E2C200129A6E80B6
:07014200DB127C4E80D62287
:10871F0075A61E75A6E11279C25006E4F54C7F07C7
:10872F002230082BC208754B32054C90025CE0C317
:10873F0094015003E004F01294BF1279C25006E482
:10874F00F54C7F072290025BE04402F07F09223054
:10875F000A08C20A754D411290A830070BC20730A4
:10876F0009037F0B227F0A22E54CD394FA4006E4DB
:10877F00F54C7F08221279C25006E4F54C7F072290
:03878F007FFF2247
:089B850012871FEFF460F922C2
:049B9C00754CFB22E7
:03000B00028792D7
:10879200C0E0C0F0C083C082C0D075D000C000C0AD
:1087A20001C002C003C004C005C006C007758A002C
:1087B200758C88E54B6005D54B02D208E54D600506
:1087C200D54D02D20AE51D6006D51D03129B94E524
:1087D2001160021511D54E0FD207300905754E14DE
:1087E2008003754E19B209D007D006D005D004D047
:1087F20003D002D001D000D0D0D082D083D0F0D02C
:02880200E03262
:03001B00029698B2
:10969800C0E0C0D0758B00758DFA054AE54AD395B0
:1096A800135004D2EB8002C2EBE54AD39404400382
:0896B800754A00D0D0D0E03269
:1094EF00D3EF9400EE9400402575A61E75A6E17D7E
:1094FF00FFDDFE7DFFDDFE7DFDDDFE7DFFDDFE7D03
:0F950F00FFDDFE7DFDDDFEEF1F70011E80D2220D
:109B3600EF75F06484FE740AC5F084C425F0FF2234
:10979E00AA07A906E4FFFEFDFC75F010C3EA33FA32
:1097AE00E933F9EF3FD4FFEE3ED4FEED3DD4FDD5C7
:0397BE00F0EA22AC
:1091D800AB07AA06A905A804E4FFFEFDFC1291F856
:1091E800A8011291F8A8021291F8A8031291F82286
:1091F80075F008E833F8EF3FD4FFEE3ED4FEED3DBE
:0B920800D4FDEC3CD4FCD5F0EA22229F
:0F9B4600EFC4540F75F00AA4FEEF540F2EFF2248
:10975500AB07AA06EAFF129B467E007C007D6412D9
:109765006481AC06AD07AF03EB129B467E00ED2F7F
:05977500FFEE3CFE22A6
:10924C008F568E558D548C53AF05AE04129755E442
:10925C00FCFD7B107A27F9F812652DC004C005C0FF
:10926C0006C007AF56AE55129755E4FCFDD003D09F
:09927C0002D001D000126520228D
:1099DC008F828E83E493FF600EC082C0831273D398
:0899EC00D083D082A380ED229C
:108C09008F2A8E298D288C27E52B20E7357F007E3A
:108C1900007D007C00AB2AAA29A928A827C31266CF
:108C290065501A7F2D1273D3AF2AAE29AD28AC2710
:108C39001266578F2A8E298D288C2780057F20124E
:108C490073D3AF2AAE29AD28AC271291D88F2A8EBB
:0C8C5900298D288C27852B301284A02246
:1084A0008F2F8E2E8D2D8C2CE5305408F531E53034
:1084B0005470FFC4540FF533533007E53070037523
:1084C0003008853032E532D394004057C3740895A4
:1084D00032FFC313242CF8E6FFE53230E0055307E2
:1084E0000F8005EFC4540FFFEF7009E5317005E50B
:1084F00032B4010B753101129B6F1273D380057F6B
:10850000201273D3E5336017E53214B53311E5312A
:1085100070087531017F301273D37F2E1273D3151B
:048520003280A222E1
:0B9B6F00EF540F2490D43440D4FF22A8
:03000000020036C5
:0C003600787FE4F6D8FD75815602007D4D
:10645400BB010CE58229F582E5833AF583E02250FD
:1064640006E92582F8E622BBFE06E92582F8E22247
:0D647400E58229F582E5833AF583E4932261
:10648100EFF88DF0A4FFEDC5F0CEA42EFEEC88F060
:04649100A42EFE2215
:10649500BC000BBE0029EF8DF084FFADF022E4CCEB
:1064A500F875F008EF2FFFEE33FEEC33FCEE9DECB4
:1064B500984005FCEE9DFE0FD5F0E9E4CEFD22EDFA
:1064C500F8F5F0EE8420D21CFEADF075F008EF2F44
:1064D500FFED33FD4007985006D5F0F222C398FD35
:0564E5000FD5F0EA22D2
:1064EA00C2D5EC30E709B2D5E4C39DFDE49CFCEECD
:1064FA0030E715B2D5E4C39FFFE49EFE126495C34C
:10650A00E49DFDE49CFC800312649530D507C3E446
:06651A009FFFE49EFE223B
:0D652000EF2BFFEE3AFEED39FDEC38FC22CA
:10652D00E88FF0A4CC8BF0A42CFCE98EF0A42CFC0D
:10653D008AF0EDA42CFCEA8EF0A4CDA8F08BF0A48B
:10654D002DCC3825F0FDE98FF0A42CCD35F0FCEBEA
:10655D008EF0A4FEA9F0EB8FF0A4CFC5F02ECD39AF
:0F656D00FEE43CFCEAA42DCE35F0FDE43CFC221C
:10657C0075F008758200EF2FFFEE33FECD33CDCCD6
:10658C0033CCC58233C5829BED9AEC99E582984059
:10659C000CF582EE9BFEED9AFDEC99FC0FD5F0D636
:1065AC00E4CEFBE4CDFAE4CCF9A88222B800C1B960
:1065BC000059BA002DEC8BF084CFCECDFCE5F0CB9E
:1065CC00F97818EF2FFFEE33FEED33FDEC33FCEBD7
:1065DC0033FB10D703994004EB99FB0FD8E5E4F992
:1065EC00FA227818EF2FFFEE33FEED33FDEC33FC7F
:1065FC00C933C910D7059BE99A4007EC9BFCE99A73
:10660C00F90FD8E0E4C9FAE4CCFB2275F010EF2FB7
:10661C00FFEE33FEED33FDCC33CCC833C810D707B7
:10662C009BEC9AE899400AED9BFDEC9AFCE899F8F2
:0E663C000FD5F0DAE4CDFBE4CCFAE4C8F92285
:10902400C2D5E830E70FB2D5E4C39BFBE49AFAE477
:1090340099F9E498F8EC30E717B2D512905A126512
:10904400B8E4C39BFBE49AFAE499F9E498F8800342
:109054001265B830D50DE4C39FFFE49EFEE49DFD88
:04906400E49CFC226A
:0D664A00CFF4CFCEF4CECDF4CDCCF4CC22E5
:0E665700C3E49FFFE49EFEE49DFDE49CFC2254
:10666500EB9FF5F0EA9E42F0E99D42F0EC6480C8AC
:0666750064809845F0224C
:0C667B00E6FC08E6FD08E6FE08E6FF224B
:0C668700ECF608EDF608EEF608EFF6223F
:0C669300ECF0A3EDF0A3EEF0A3EFF0227A
:10669F00A8828583F0D083D0821266B61266B612B6
:1066AF0066B61266B6E473E493A3C583C5F0C583DB
:1066BF00C8C582C8F0A3C583C5F0C583C8C582C845
:0166CF0022A8
:109A9200C3EE6480948040028007C3E49FFFE49E8B
:029AA200FE22A2
:1090E700ECF5F0EDF8EEF9EFFAE4FFFEFDFCE5F044
:1090F7007B2033F5F0EF3FD4FFEE3ED4FEED3DD4B9
:10910700FDEC3CD4FCDB0122BB1803E880E4BB1078
:0E91170003E980DEBB0803EA80D8E5F080D4CF
:0B9B7A00EF540FFF22EFC4540FFF2236
:100042000200C2E493A3F8E493A34003F68001F212
:1000520008DFF48029E493A3F85407240CC8C333BF
:10006200C4540F4420C8834004F456800146F6DF8E
:10007200E4800B01020408102040809097C1E47EC6
:10008200019360BCA3FF543F30E509541FFEE49383
:10009200A360010ECF54C025E060A840B8E493A34A
:1000A200FAE493A3F8E493A3C8C582C8CAC583CA75
:1000B200F0A3C8C582C8CAC583CADFE9DEE780BE2D
:0197E2000086
:00000001FF
