BL51 BANKED LINKER/LOCATER V3.70c               08/05/05  11:14:28  PAGE 1


MS-DOS BL51 BANKED LINKER/LOCATER V3.70c, INVOKED BY:
C:\KEIL\C51_V5.5\BIN\BL51.EXE ..\MODULY\SED1335\SED1335.OBJ, ..\MODULY\SED1335
>> \FONT.OBJ, ..\MODULY\ADS7846\ADS7846.OBJ, ..\MODULY\RD2\PCATMC.OBJ, ..\MODU
>> LY\GSM\COM2UTIL.OBJ, ..\MODULY\GSM\GSMBASE.OBJ, ..\MODULY\GSM\GSMSMS.OBJ, .
>> .\MODULY\GSM\GSMDATA.OBJ, ..\MODULY\GSM\GSMCTL.OBJ, ..\MODULY\PACKET\COM2PK
>> T.OBJ, ..\MODULY\X25645\X25645.OBJ, GSMUSER.OBJ, KBD.OBJ, MAIN.OBJ, ..\MODU
>> LY\LIB\MYLIB.LIB TO TMC.EXE RS (256) PL (68) PW (78) CODE (?C_C51STARTUP, ?
>> PR?MAIN?MAIN)


MEMORY MODEL: SMALL


INPUT MODULES INCLUDED:
  ..\MODULY\SED1335\SED1335.OBJ (SED1335)
  ..\MODULY\SED1335\FONT.OBJ (FONT)
  ..\MODULY\ADS7846\ADS7846.OBJ (ADS7846)
  ..\MODULY\RD2\PCATMC.OBJ (PCATMC)
  ..\MODULY\GSM\COM2UTIL.OBJ (COM2UTIL)
  ..\MODULY\GSM\GSMBASE.OBJ (GSMBASE)
  ..\MODULY\GSM\GSMSMS.OBJ (GSMSMS)
  ..\MODULY\GSM\GSMDATA.OBJ (GSMDATA)
  ..\MODULY\GSM\GSMCTL.OBJ (GSMCTL)
  ..\MODULY\PACKET\COM2PKT.OBJ (COM2PKT)
  ..\MODULY\X25645\X25645.OBJ (X25645)
  GSMUSER.OBJ (GSMUSER)
  KBD.OBJ (KBD)
  MAIN.OBJ (MAIN)
  ..\MODULY\LIB\MYLIB.LIB (BBIN2BCD)
  ..\MODULY\LIB\MYLIB.LIB (NIBBLE2HEX)
  ..\MODULY\LIB\MYLIB.LIB (CPUTS)
  ..\MODULY\LIB\MYLIB.LIB (CPRINTDE)
  ..\MODULY\LIB\MYLIB.LIB (CPRINTHE)
  ..\MODULY\LIB\MYLIB.LIB (DBIN2BCD)
  C:\KEIL\C51_V5.5\LIB\C51S.LIB (?C_STARTUP)
  C:\KEIL\C51_V5.5\LIB\C51S.LIB (?C?CLDOPTR)
  C:\KEIL\C51_V5.5\LIB\C51S.LIB (?C?IMUL)
  C:\KEIL\C51_V5.5\LIB\C51S.LIB (?C?UIDIV)
  C:\KEIL\C51_V5.5\LIB\C51S.LIB (?C?LMUL)
  C:\KEIL\C51_V5.5\LIB\C51S.LIB (?C?ULDIV)
  C:\KEIL\C51_V5.5\LIB\C51S.LIB (?C?LNEG)
  C:\KEIL\C51_V5.5\LIB\C51S.LIB (?C?SLCMP)
  C:\KEIL\C51_V5.5\LIB\C51S.LIB (?C?LSTIDATA)
  C:\KEIL\C51_V5.5\LIB\C51S.LIB (ABS)
  C:\KEIL\C51_V5.5\LIB\C51S.LIB (STRLEN)
  C:\KEIL\C51_V5.5\LIB\C51S.LIB (?C_INIT)
  C:\KEIL\C51_V5.5\LIB\C51S.LIB (?C?CLDPTR)


LINK MAP OF MODULE:  TMC.EXE (SED1335)


            TYPE    BASE      LENGTH    RELOCATION   SEGMENT NAME
            -----------------------------------------------------

            * * * * * * *   D A T A   M E M O R Y   * * * * * * *
            REG     0000H     0008H     ABSOLUTE     "REG BANK 0"
            DATA    0008H     000DH     UNIT         ?DT?PCATMC
            DATA    0015H     0006H     UNIT         ?DT?SED1335
            DATA    001BH     0003H     UNIT         ?DT?MAIN
            DATA    001EH     0001H     UNIT         ?DT?ADS7846
            DATA    001FH     0001H     UNIT         ?DT?COM2PKT
            BIT     0020H.0   0000H.3   UNIT         ?BI?SED1335
            BIT     0020H.3   0000H.1   UNIT         ?BI?MAIN
            BIT     0020H.4   0000H.1   UNIT         _BIT_GROUP_
                    0020H.5   0000H.3                *** GAP ***
BL51 BANKED LINKER/LOCATER V3.70c             08/05/05  11:14:28  PAGE 2


            DATA    0021H     0021H     UNIT         _DATA_GROUP_
            IDATA   0042H     0001H     UNIT         ?STACK

            * * * * * * *  X D A T A   M E M O R Y  * * * * * * *
            XDATA   0000H     00C7H     UNIT         ?XD?MAIN
            XDATA   00C7H     0020H     UNIT         ?XD?PCATMC
            XDATA   00E7H     0002H     UNIT         ?XD?GSMCTL

            * * * * * * *   C O D E   M E M O R Y   * * * * * * *
            CODE    0000H     0003H     ABSOLUTE     
            CODE    0003H     0008H     UNIT         ?PR?_COMTXDIGIT?COM2UTIL
            CODE    000BH     0003H     ABSOLUTE     
            CODE    000EH     0024H     UNIT         ?PR?_SMSDELETE?GSMSMS
                    0032H     0001H                  *** GAP ***
            CODE    0033H     0003H     ABSOLUTE     
            CODE    0036H     008CH     UNIT         ?C_C51STARTUP
            CODE    00C2H     025FH     UNIT         ?PR?MAIN?MAIN
            CODE    0321H     01FCH     UNIT         ?C?LIB_CODE
            CODE    051DH     01E0H     UNIT         ?PR?GSMEXECUTE?GSMCTL
            CODE    06FDH     0194H     UNIT         ?PR?_SMSREAD?GSMSMS
            CODE    0891H     0156H     UNIT         ?PR?PCAHANDLER?PCATMC
            CODE    09E7H     013DH     UNIT         ?PR?_SMSSEND?GSMSMS
            CODE    0B24H     012DH     UNIT         ?PR?_GSMEXECUTECOMMAND?GS
>> MUSER
            CODE    0C51H     0122H     UNIT         ?PR?_PUTCHAR?SED1335
            CODE    0D73H     0118H     UNIT         ?CO?MAIN
            CODE    0E8BH     0105H     UNIT         ?PR?DISPLAYINIT?SED1335
            CODE    0F90H     00B0H     UNIT         ?PR?_PCASOUNDRUN?PCATMC
            CODE    1040H     00A7H     UNIT         ?PR?_COM2RXPACKET?COM2PKT
>> 
            CODE    10E7H     0094H     UNIT         ?CO?GSMCTL
            CODE    117BH     008BH     UNIT         ?PR?_TOUCHREADCOORDINATES
>> ?ADS7846
            CODE    1206H     0084H     UNIT         ?PR?_CPRINTHEX?CPRINTHE
            CODE    128AH     0075H     UNIT         ?CO?FONT
            CODE    12FFH     0072H     UNIT         ?PR?_READCONVERSION?ADS78
>> 46
            CODE    1371H     0062H     UNIT         ?CO?GSMBASE
            CODE    13D3H     005CH     UNIT         ?PR?_DISPLAYPATTERN?SED13
>> 35
            CODE    142FH     005CH     UNIT         ?PR?_CPRINTDEC?CPRINTDE
            CODE    148BH     0058H     UNIT         ?PR?_COMRXMATCH?COM2UTIL
            CODE    14E3H     0057H     UNIT         ?PR?_COMRXSTRING?COM2UTIL
>> 
            CODE    153AH     0056H     UNIT         ?PR?TOUCHISPRESSED?ADS784
>> 6
            CODE    1590H     0051H     UNIT         ?PR?_COM2TXPACKET?COM2PKT
>> 
            CODE    15E1H     0051H     UNIT         ?PR?TIMER0HANDLER?MAIN
            CODE    1632H     004FH     UNIT         ?PR?TOUCHY?ADS7846
            CODE    1681H     004BH     UNIT         ?PR?GSMRESET?GSMBASE
            CODE    16CCH     004AH     UNIT         ?PR?COMRXHEX?COM2UTIL
            CODE    1716H     004AH     UNIT         ?CO?GSMUSER
            CODE    1760H     0048H     UNIT         ?PR?TOUCHX?ADS7846
            CODE    17A8H     003FH     UNIT         ?PR?KBDGET?KBD
            CODE    17E7H     003CH     UNIT         ?PR?_GSMOPERATOR?GSMBASE
            CODE    1823H     003BH     UNIT         ?PR?_DBIN2BCD?DBIN2BCD
            CODE    185EH     0038H     UNIT         ?PR?_COMTXSTRING?COM2UTIL
>> 
            CODE    1896H     0035H     UNIT         ?PR?COMRXDEC?COM2UTIL
            CODE    18CBH     0034H     UNIT         ?CO?GSMSMS
            CODE    18FFH     0032H     UNIT         ?PR?_COM2RXCHAR?PCATMC
            CODE    1931H     002FH     UNIT         ?PR?GSMREGISTERED?GSMBASE
>> 
            CODE    1960H     002FH     UNIT         ?PR?_SYSDELAY?MAIN
BL51 BANKED LINKER/LOCATER V3.70c             08/05/05  11:14:28  PAGE 3


            CODE    198FH     002EH     UNIT         ?PR?PCAINIT?PCATMC
            CODE    19BDH     002EH     UNIT         ?PR?SYSYIELD?MAIN
            CODE    19EBH     002CH     UNIT         ?PR?_COM2TXBLOCKSTART?COM
>> 2PKT
            CODE    1A17H     002AH     UNIT         ?PR?DISPLAYCLEAR?SED1335
            CODE    1A41H     002AH     UNIT         ?PR?_COM2TXCHAR?PCATMC
            CODE    1A6BH     002AH     UNIT         ?PR?_COM3TXCHAR?PCATMC
            CODE    1A95H     002AH     UNIT         ?PR?GSMISRINGING?GSMDATA
            CODE    1ABFH     0029H     UNIT         ?PR?_EEPPAGEWRITESTART?X2
>> 5645
            CODE    1AE8H     0027H     UNIT         ?PR?COM2FLUSHCHARS?PCATMC
>> 
            CODE    1B0FH     0026H     UNIT         ?PR?_VIDEORAMSET?SED1335
            CODE    1B35H     0026H     UNIT         ?PR?DISPLAYCLREOL?SED1335
>> 
            CODE    1B5BH     0023H     UNIT         ?PR?GSMDISCONNECT?GSMDATA
>> 
            CODE    1B7EH     0021H     UNIT         ?CO?GSMDATA
            CODE    1B9FH     0020H     UNIT         ?PR?_COM2RXWAIT?PCATMC
            CODE    1BBFH     0020H     UNIT         ?PR?_COMTXDEC?COM2UTIL
            CODE    1BDFH     0020H     UNIT         ?PR?_EEPBLOCKREADSTART?X2
>> 5645
            CODE    1BFFH     001DH     UNIT         ?PR?TOUCHINIT?ADS7846
            CODE    1C1CH     001CH     UNIT         ?PR?GSMSIGNALSTRENGTH?GSM
>> BASE
            CODE    1C38H     001AH     UNIT         ?PR?CLEARRAM?SED1335
            CODE    1C52H     001AH     UNIT         ?PR?_COMTXHEX?COM2UTIL
            CODE    1C6CH     0018H     UNIT         ?PR?_SETCURSOR?SED1335
            CODE    1C84H     0018H     UNIT         ?PR?_COMWAITCHAR?COM2UTIL
>> 
            CODE    1C9CH     0018H     UNIT         ?PR?_WRSRCMD?X25645
            CODE    1CB4H     0018H     UNIT         ?PR?_CPUTS?CPUTS
            CODE    1CCCH     0016H     UNIT         ?PR?EEPRAWREADBYTE?X25645
>> 
            CODE    1CE2H     0015H     UNIT         ?PR?_STRLEN?STRLEN
            CODE    1CF7H     0014H     UNIT         ?PR?GSMCONNECT?GSMDATA
            CODE    1D0BH     0014H     UNIT         ?PR?EEPINIT?X25645
            CODE    1D1FH     0014H     UNIT         ?PR?RSDRCMD?X25645
            CODE    1D33H     0013H     UNIT         ?PR?_DISPLAYSETFONT?SED13
>> 35
            CODE    1D46H     0013H     UNIT         ?PR?_COMSKIPCHARS?COM2UTI
>> L
            CODE    1D59H     0013H     UNIT         ?PR?_EEPRAWWRITEBYTE?X256
>> 45
            CODE    1D6CH     0012H     UNIT         ?PR?_ABS?ABS
            CODE    1D7EH     0011H     UNIT         ?PR?WRENCMD?X25645
            CODE    1D8FH     0010H     UNIT         ?PR?_BBIN2BCD?BBIN2BCD
            CODE    1D9FH     000FH     UNIT         ?C_INITSEG
            CODE    1DAEH     000FH     UNIT         ?PR?SMSSENDOK?GSMSMS
            CODE    1DBDH     000DH     UNIT         ?PR?_DISPLAYGOTORC?SED133
>> 5
            CODE    1DCAH     000DH     UNIT         ?PR?TOUCHISAUTOREPEAT?ADS
>> 7846
            CODE    1DD7H     000DH     UNIT         ?PR?COM2TXBLOCKEND?COM2PK
>> T
            CODE    1DE4H     000DH     UNIT         ?PR?EEPSTOP?X25645
            CODE    1DF1H     000DH     UNIT         ?PR?GSMSMSSENDTIMEOUT?GSM
>> USER
            CODE    1DFEH     000DH     UNIT         ?PR?GSMSMSSENDOK?GSMUSER
            CODE    1E0BH     000CH     UNIT         ?PR?_COM2TXBLOCKBYTE?COM2
>> PKT
            CODE    1E17H     000BH     UNIT         ?PR?_WRITECOMMAND?SED1335
>> 
            CODE    1E22H     000BH     UNIT         ?PR?GSMOFFHOOK?GSMDATA
            CODE    1E2DH     000BH     UNIT         ?PR?_NIBBLE2HEX?NIBBLE2HE
BL51 BANKED LINKER/LOCATER V3.70c             08/05/05  11:14:28  PAGE 4


>> X
            CODE    1E38H     0008H     UNIT         ?PR?WIPPOLL?X25645
            CODE    1E40H     0008H     UNIT         ?PR?SYSWAITEVENT?MAIN
            CODE    1E48H     0007H     UNIT         ?PR?GSMSTART?GSMUSER
            CODE    1E4FH     0006H     UNIT         ?PR?GSMSTOP?GSMUSER
            CODE    1E55H     0005H     UNIT         ?PR?DISPLAYSETPLANE?SED13
>> 35
            CODE    1E5AH     0004H     UNIT         ?PR?PCANOSOUND?PCATMC



OVERLAY MAP OF MODULE:   TMC.EXE (SED1335)


SEGMENT                                      BIT_GROUP          DATA_GROUP 
  +--> CALLED SEGMENT                     START    LENGTH     START    LENGTH
-----------------------------------------------------------------------------
?C_C51STARTUP                             -----    -----      -----    -----
  +--> ?PR?MAIN?MAIN
  +--> ?C_INITSEG

?PR?MAIN?MAIN                             -----    -----      0021H    0002H
  +--> ?PR?DISPLAYINIT?SED1335
  +--> ?PR?TOUCHINIT?ADS7846
  +--> ?PR?PCAINIT?PCATMC
  +--> ?PR?EEPINIT?X25645
  +--> ?PR?_PCASOUNDRUN?PCATMC
  +--> ?PR?_SYSDELAY?MAIN
  +--> ?PR?_SMSDELETE?GSMSMS
  +--> ?PR?GSMRESET?GSMBASE
  +--> ?PR?_SMSREAD?GSMSMS
  +--> ?PR?_SMSSEND?GSMSMS
  +--> ?PR?SMSSENDOK?GSMSMS
  +--> ?PR?GSMSIGNALSTRENGTH?GSMBASE
  +--> ?PR?_GSMOPERATOR?GSMBASE
  +--> ?PR?_COM3TXCHAR?PCATMC
  +--> ?PR?_COM2TXCHAR?PCATMC
  +--> ?PR?_COM2RXCHAR?PCATMC
  +--> ?PR?_COM2RXWAIT?PCATMC
  +--> ?PR?COM2FLUSHCHARS?PCATMC
  +--> ?PR?_EEPPAGEWRITESTART?X25645
  +--> ?CO?MAIN
  +--> ?PR?_CPUTS?CPUTS
  +--> ?PR?DISPLAYCLEAR?SED1335
  +--> ?PR?_DISPLAYGOTORC?SED1335
  +--> ?PR?SYSWAITEVENT?MAIN
  +--> ?PR?PCANOSOUND?PCATMC
  +--> ?PR?DISPLAYCLREOL?SED1335
  +--> ?PR?_PUTCHAR?SED1335
  +--> ?PR?GSMSTART?GSMUSER
  +--> ?PR?DISPLAYSETPLANE?SED1335
  +--> ?PR?GSMDISCONNECT?GSMDATA
  +--> ?PR?GSMSTOP?GSMUSER
  +--> ?PR?GSMEXECUTE?GSMCTL

?PR?DISPLAYINIT?SED1335                   -----    -----      -----    -----
  +--> ?PR?_SYSDELAY?MAIN
  +--> ?PR?_WRITECOMMAND?SED1335
  +--> ?PR?CLEARRAM?SED1335
  +--> ?PR?_DISPLAYSETFONT?SED1335
  +--> ?PR?DISPLAYSETPLANE?SED1335

?PR?CLEARRAM?SED1335                      -----    -----      -----    -----
  +--> ?PR?_VIDEORAMSET?SED1335

BL51 BANKED LINKER/LOCATER V3.70c             08/05/05  11:14:28  PAGE 5


?PR?_VIDEORAMSET?SED1335                  -----    -----      0023H    0002H
  +--> ?PR?_SETCURSOR?SED1335
  +--> ?PR?_WRITECOMMAND?SED1335

?PR?_SETCURSOR?SED1335                    -----    -----      -----    -----
  +--> ?PR?_WRITECOMMAND?SED1335

?PR?_DISPLAYSETFONT?SED1335               -----    -----      -----    -----
  +--> ?CO?FONT

?PR?DISPLAYSETPLANE?SED1335               0020H.4  0000H.1    -----    -----

?PR?TOUCHINIT?ADS7846                     -----    -----      -----    -----
  +--> ?PR?TOUCHX?ADS7846

?PR?TOUCHX?ADS7846                        -----    -----      -----    -----
  +--> ?PR?_READCONVERSION?ADS7846

?PR?_READCONVERSION?ADS7846               -----    -----      0032H    0002H
  +--> ?PR?_SYSDELAY?MAIN

?PR?EEPINIT?X25645                        -----    -----      -----    -----
  +--> ?PR?WIPPOLL?X25645
  +--> ?PR?WRENCMD?X25645
  +--> ?PR?_WRSRCMD?X25645

?PR?WIPPOLL?X25645                        -----    -----      -----    -----
  +--> ?PR?RSDRCMD?X25645

?PR?RSDRCMD?X25645                        -----    -----      -----    -----
  +--> ?PR?_EEPRAWWRITEBYTE?X25645
  +--> ?PR?EEPRAWREADBYTE?X25645
  +--> ?PR?EEPSTOP?X25645

?PR?WRENCMD?X25645                        -----    -----      -----    -----
  +--> ?PR?_EEPRAWWRITEBYTE?X25645
  +--> ?PR?EEPSTOP?X25645

?PR?_WRSRCMD?X25645                       -----    -----      0023H    0001H
  +--> ?PR?_EEPRAWWRITEBYTE?X25645
  +--> ?PR?EEPSTOP?X25645

?PR?_PCASOUNDRUN?PCATMC                   -----    -----      0023H    0004H

?PR?_SMSDELETE?GSMSMS                     -----    -----      0023H    0001H
  +--> ?PR?COM2FLUSHCHARS?PCATMC
  +--> ?CO?GSMSMS
  +--> ?PR?_COMTXSTRING?COM2UTIL
  +--> ?PR?_COMTXDEC?COM2UTIL
  +--> ?PR?_COM2TXCHAR?PCATMC

?PR?_COMTXSTRING?COM2UTIL                 -----    -----      002CH    0004H
  +--> ?PR?_STRLEN?STRLEN
  +--> ?PR?_COM2TXCHAR?PCATMC

?PR?_COM2TXCHAR?PCATMC                    -----    -----      003CH    0002H

?PR?_COMTXDEC?COM2UTIL                    -----    -----      002CH    0002H
  +--> ?PR?_BBIN2BCD?BBIN2BCD
  +--> ?PR?_COMTXDIGIT?COM2UTIL

?PR?_COMTXDIGIT?COM2UTIL                  -----    -----      -----    -----
  +--> ?PR?_COM2TXCHAR?PCATMC

?PR?GSMRESET?GSMBASE                      -----    -----      -----    -----
BL51 BANKED LINKER/LOCATER V3.70c             08/05/05  11:14:28  PAGE 6


  +--> ?PR?COM2FLUSHCHARS?PCATMC
  +--> ?CO?GSMBASE
  +--> ?PR?_COMTXSTRING?COM2UTIL
  +--> ?PR?_COM2RXWAIT?PCATMC
  +--> ?PR?_COMWAITCHAR?COM2UTIL
  +--> ?PR?_COMRXMATCH?COM2UTIL

?PR?_COMWAITCHAR?COM2UTIL                 -----    -----      002CH    0002H
  +--> ?PR?_COM2RXCHAR?PCATMC

?PR?_COMRXMATCH?COM2UTIL                  -----    -----      002CH    0008H
  +--> ?PR?_STRLEN?STRLEN
  +--> ?PR?_COM2RXWAIT?PCATMC
  +--> ?PR?_COM2RXCHAR?PCATMC

?PR?_SMSREAD?GSMSMS                       -----    -----      0023H    0009H
  +--> ?PR?COM2FLUSHCHARS?PCATMC
  +--> ?CO?GSMSMS
  +--> ?PR?_COMTXSTRING?COM2UTIL
  +--> ?PR?_COMTXDEC?COM2UTIL
  +--> ?PR?_COM2TXCHAR?PCATMC
  +--> ?PR?_COMRXMATCH?COM2UTIL
  +--> ?PR?COMRXDEC?COM2UTIL
  +--> ?PR?_COMWAITCHAR?COM2UTIL
  +--> ?PR?COMRXHEX?COM2UTIL
  +--> ?PR?_COMSKIPCHARS?COM2UTIL

?PR?COMRXDEC?COM2UTIL                     -----    -----      002CH    0002H
  +--> ?PR?_COM2RXCHAR?PCATMC

?PR?COMRXHEX?COM2UTIL                     -----    -----      002CH    0002H
  +--> ?PR?_COM2RXCHAR?PCATMC

?PR?_COMSKIPCHARS?COM2UTIL                -----    -----      002CH    0002H
  +--> ?PR?_COM2RXCHAR?PCATMC

?PR?_SMSSEND?GSMSMS                       -----    -----      0023H    0007H
  +--> ?CO?MAIN
  +--> ?PR?COM2FLUSHCHARS?PCATMC
  +--> ?CO?GSMSMS
  +--> ?PR?_COMTXSTRING?COM2UTIL
  +--> ?PR?_COMTXDEC?COM2UTIL
  +--> ?PR?_COM2TXCHAR?PCATMC
  +--> ?PR?_COMRXMATCH?COM2UTIL
  +--> ?PR?_COMTXHEX?COM2UTIL
  +--> ?PR?_COMTXDIGIT?COM2UTIL

?PR?_COMTXHEX?COM2UTIL                    -----    -----      002AH    0001H
  +--> ?PR?_NIBBLE2HEX?NIBBLE2HEX
  +--> ?PR?_COM2TXCHAR?PCATMC

?PR?SMSSENDOK?GSMSMS                      -----    -----      -----    -----
  +--> ?CO?GSMSMS
  +--> ?PR?_COMRXMATCH?COM2UTIL

?PR?GSMSIGNALSTRENGTH?GSMBASE             -----    -----      -----    -----
  +--> ?PR?COM2FLUSHCHARS?PCATMC
  +--> ?CO?GSMBASE
  +--> ?PR?_COMTXSTRING?COM2UTIL
  +--> ?PR?_COMRXMATCH?COM2UTIL
  +--> ?PR?COMRXDEC?COM2UTIL

?PR?_GSMOPERATOR?GSMBASE                  -----    -----      0023H    0002H
  +--> ?PR?COM2FLUSHCHARS?PCATMC
  +--> ?CO?GSMBASE
BL51 BANKED LINKER/LOCATER V3.70c             08/05/05  11:14:28  PAGE 7


  +--> ?PR?_COMTXSTRING?COM2UTIL
  +--> ?PR?_COMRXMATCH?COM2UTIL
  +--> ?PR?_COMWAITCHAR?COM2UTIL
  +--> ?PR?_COMRXSTRING?COM2UTIL

?PR?_COMRXSTRING?COM2UTIL                 -----    -----      0025H    0005H
  +--> ?PR?_COMWAITCHAR?COM2UTIL
  +--> ?PR?_COM2RXCHAR?PCATMC

?PR?_COM3TXCHAR?PCATMC                    -----    -----      0023H    0002H

?PR?_EEPPAGEWRITESTART?X25645             -----    -----      0023H    0002H
  +--> ?PR?WIPPOLL?X25645
  +--> ?PR?WRENCMD?X25645
  +--> ?PR?_EEPRAWWRITEBYTE?X25645

?PR?_CPUTS?CPUTS                          -----    -----      -----    -----
  +--> ?PR?_PUTCHAR?SED1335

?PR?_PUTCHAR?SED1335                      -----    -----      003AH    0001H
  +--> ?PR?_SETCURSOR?SED1335
  +--> ?PR?_WRITECOMMAND?SED1335
  +--> ?PR?_DISPLAYPATTERN?SED1335

?PR?_DISPLAYPATTERN?SED1335               -----    -----      003BH    0005H
  +--> ?PR?_WRITECOMMAND?SED1335
  +--> ?PR?_SETCURSOR?SED1335

?PR?DISPLAYCLEAR?SED1335                  -----    -----      -----    -----
  +--> ?PR?_VIDEORAMSET?SED1335

?PR?SYSWAITEVENT?MAIN                     -----    -----      -----    -----
  +--> ?PR?SYSYIELD?MAIN

?PR?SYSYIELD?MAIN                         -----    -----      -----    -----
  +--> ?PR?KBDGET?KBD

?PR?KBDGET?KBD                            -----    -----      0023H    0004H
  +--> ?PR?TOUCHISPRESSED?ADS7846
  +--> ?PR?TOUCHISAUTOREPEAT?ADS7846
  +--> ?PR?_TOUCHREADCOORDINATES?ADS7846

?PR?TOUCHISPRESSED?ADS7846                -----    -----      -----    -----
  +--> ?PR?_SYSDELAY?MAIN

?PR?_TOUCHREADCOORDINATES?ADS7846         -----    -----      0027H    000BH
  +--> ?PR?TOUCHX?ADS7846
  +--> ?PR?TOUCHY?ADS7846
  +--> ?PR?_SYSDELAY?MAIN
  +--> ?PR?_ABS?ABS

?PR?TOUCHY?ADS7846                        -----    -----      -----    -----
  +--> ?PR?_READCONVERSION?ADS7846

?PR?DISPLAYCLREOL?SED1335                 -----    -----      -----    -----
  +--> ?PR?_VIDEORAMSET?SED1335

?PR?GSMDISCONNECT?GSMDATA                 -----    -----      -----    -----
  +--> ?PR?_SYSDELAY?MAIN
  +--> ?PR?COM2FLUSHCHARS?PCATMC
  +--> ?CO?GSMDATA
  +--> ?PR?_COMTXSTRING?COM2UTIL

?PR?GSMEXECUTE?GSMCTL                     -----    -----      0023H    0005H
  +--> ?CO?GSMCTL
BL51 BANKED LINKER/LOCATER V3.70c             08/05/05  11:14:28  PAGE 8


  +--> ?PR?_CPUTS?CPUTS
  +--> ?PR?_PUTCHAR?SED1335
  +--> ?PR?GSMRESET?GSMBASE
  +--> ?PR?GSMREGISTERED?GSMBASE
  +--> ?PR?_CPRINTDEC?CPRINTDE
  +--> ?PR?GSMISRINGING?GSMDATA
  +--> ?PR?GSMOFFHOOK?GSMDATA
  +--> ?PR?GSMDISCONNECT?GSMDATA
  +--> ?PR?GSMCONNECT?GSMDATA
  +--> ?PR?_COM2RXPACKET?COM2PKT
  +--> ?PR?_GSMEXECUTECOMMAND?GSMUSER
  +--> ?PR?GSMSMSSENDTIMEOUT?GSMUSER
  +--> ?PR?SMSSENDOK?GSMSMS
  +--> ?PR?GSMSMSSENDOK?GSMUSER

?PR?GSMREGISTERED?GSMBASE                 -----    -----      -----    -----
  +--> ?PR?COM2FLUSHCHARS?PCATMC
  +--> ?CO?GSMBASE
  +--> ?PR?_COMTXSTRING?COM2UTIL
  +--> ?PR?_COMRXMATCH?COM2UTIL
  +--> ?PR?_COMWAITCHAR?COM2UTIL
  +--> ?PR?COMRXDEC?COM2UTIL

?PR?_CPRINTDEC?CPRINTDE                   -----    -----      0028H    0005H
  +--> ?PR?_PUTCHAR?SED1335
  +--> ?PR?_DBIN2BCD?DBIN2BCD
  +--> ?PR?_CPRINTHEX?CPRINTHE

?PR?_CPRINTHEX?CPRINTHE                   -----    -----      0032H    0008H
  +--> ?PR?_NIBBLE2HEX?NIBBLE2HEX
  +--> ?PR?_PUTCHAR?SED1335

?PR?GSMISRINGING?GSMDATA                  -----    -----      0028H    0002H
  +--> ?PR?_COM2RXCHAR?PCATMC
  +--> ?CO?GSMDATA

?PR?GSMOFFHOOK?GSMDATA                    -----    -----      -----    -----
  +--> ?PR?COM2FLUSHCHARS?PCATMC
  +--> ?CO?GSMDATA
  +--> ?PR?_COMTXSTRING?COM2UTIL

?PR?GSMCONNECT?GSMDATA                    -----    -----      -----    -----
  +--> ?CO?GSMDATA
  +--> ?PR?_COMRXMATCH?COM2UTIL
  +--> ?PR?_COMWAITCHAR?COM2UTIL

?PR?_COM2RXPACKET?COM2PKT                 -----    -----      0028H    0008H
  +--> ?PR?_COM2RXWAIT?PCATMC
  +--> ?PR?_COM2RXCHAR?PCATMC
  +--> ?PR?COM2FLUSHCHARS?PCATMC

?PR?_GSMEXECUTECOMMAND?GSMUSER            -----    -----      0028H    000AH
  +--> ?CO?GSMUSER
  +--> ?PR?_CPUTS?CPUTS
  +--> ?PR?_CPRINTHEX?CPRINTHE
  +--> ?PR?_PUTCHAR?SED1335
  +--> ?PR?_COM2TXBLOCKSTART?COM2PKT
  +--> ?PR?_EEPBLOCKREADSTART?X25645
  +--> ?PR?EEPRAWREADBYTE?X25645
  +--> ?PR?_COM2TXBLOCKBYTE?COM2PKT
  +--> ?PR?EEPSTOP?X25645
  +--> ?PR?COM2TXBLOCKEND?COM2PKT
  +--> ?PR?_COM2TXPACKET?COM2PKT

?PR?_COM2TXBLOCKSTART?COM2PKT             -----    -----      0032H    0002H
BL51 BANKED LINKER/LOCATER V3.70c             08/05/05  11:14:28  PAGE 9


  +--> ?PR?_COM2TXCHAR?PCATMC

?PR?_EEPBLOCKREADSTART?X25645             -----    -----      0032H    0002H
  +--> ?PR?WIPPOLL?X25645
  +--> ?PR?_EEPRAWWRITEBYTE?X25645

?PR?_COM2TXBLOCKBYTE?COM2PKT              -----    -----      0032H    0001H
  +--> ?PR?_COM2TXCHAR?PCATMC

?PR?COM2TXBLOCKEND?COM2PKT                -----    -----      -----    -----
  +--> ?PR?_COM2TXCHAR?PCATMC

?PR?_COM2TXPACKET?COM2PKT                 -----    -----      0032H    000AH
  +--> ?PR?_COM2TXCHAR?PCATMC

?PR?GSMSMSSENDTIMEOUT?GSMUSER             -----    -----      -----    -----
  +--> ?CO?GSMUSER
  +--> ?PR?_CPUTS?CPUTS
  +--> ?PR?_PUTCHAR?SED1335

?PR?GSMSMSSENDOK?GSMUSER                  -----    -----      -----    -----
  +--> ?CO?GSMUSER
  +--> ?PR?_CPUTS?CPUTS
  +--> ?PR?_PUTCHAR?SED1335

*** NEW ROOT ***************************************************

?PR?PCAHANDLER?PCATMC                     -----    -----      0040H    0002H

*** NEW ROOT ***************************************************

?PR?TIMER0HANDLER?MAIN                    -----    -----      -----    -----
  +--> ?PR?PCANOSOUND?PCATMC



SYMBOL TABLE OF MODULE:  TMC.EXE (SED1335)

  VALUE           TYPE          NAME
  ----------------------------------

  -------         MODULE        SED1335
  C:0000H         SYMBOL        _ICE_DUMMY_
  B:00E8H.1       PUBLIC        TMCSDA
  B:0090H.2       PUBLIC        TMCTP4
  B:00D8H.2       PUBLIC        CCF2
  B:0090H.3       PUBLIC        TMCTP5
  B:00D8H.3       PUBLIC        CCF3
  D:0080H         PUBLIC        P0
  B:00C0H.1       PUBLIC        TMCTP6
  B:00A0H.7       PUBLIC        TMCCSD
  B:00D8H.4       PUBLIC        CCF4
  D:0090H         PUBLIC        P1
  B:00C0H.2       PUBLIC        TMCTP7
  D:00A0H         PUBLIC        P2
  B:0020H.0       SYMBOL        PLANE1_ON
  C:1D33H         PUBLIC        _DISPLAYSETFONT
  B:0090H.4       PUBLIC        TMCRX2
  D:00B0H         PUBLIC        P3
  B:0020H.1       SYMBOL        PLANE2_ON
  B:00D0H.6       PUBLIC        AC
  D:00C0H         PUBLIC        P4
  B:00B0H.4       PUBLIC        T0
  B:00B0H.3       PUBLIC        TMCTX2
  D:00E8H         PUBLIC        P5
BL51 BANKED LINKER/LOCATER V3.70c             08/05/05  11:14:28  PAGE 10


  B:00B0H.5       PUBLIC        T1
  B:00C0H.4       PUBLIC        TMCTX3
  B:00A8H.7       PUBLIC        EA
  B:0090H.0       PUBLIC        T2
  B:00A0H.1       PUBLIC        TMCCLKAD
  B:0090H.6       PUBLIC        TMCSCK
  B:00A8H.6       PUBLIC        EC
  B:00A0H.5       PUBLIC        TMCSCL
  B:00D8H.7       PUBLIC        CF
  B:00B0H.7       PUBLIC        TMCCSM
  B:0098H.7       PUBLIC        FE
  B:00A0H.0       PUBLIC        TMCMAJAK
  B:00E8H.0       PUBLIC        TMCCLKDI
  C:1C6CH         SYMBOL        _SETCURSOR
  B:0080H.0       PUBLIC        P0_0
  B:0090H.3       PUBLIC        CEX0
  B:0090H.0       PUBLIC        P1_0
  B:0080H.1       PUBLIC        P0_1
  B:00A0H.0       PUBLIC        P2_0
  B:0090H.4       PUBLIC        CEX1
  B:0090H.1       PUBLIC        P1_1
  B:0080H.2       PUBLIC        P0_2
  B:00B0H.0       PUBLIC        P3_0
  B:00A0H.1       PUBLIC        P2_1
  B:0090H.5       PUBLIC        CEX2
  B:0090H.2       PUBLIC        P1_2
  B:0080H.3       PUBLIC        P0_3
  B:00E8H.5       PUBLIC        TMCWRD
  B:00C0H.0       PUBLIC        P4_0
  B:00B0H.1       PUBLIC        P3_1
  B:00A0H.2       PUBLIC        P2_2
  B:0090H.6       PUBLIC        CEX3
  B:0090H.3       PUBLIC        P1_3
  B:0080H.4       PUBLIC        P0_4
  B:00B0H.0       PUBLIC        TMCRXD
  B:00D8H.6       PUBLIC        CR
  B:00E8H.0       PUBLIC        P5_0
  B:00C0H.1       PUBLIC        P4_1
  B:00B0H.2       PUBLIC        P3_2
  B:00A0H.3       PUBLIC        P2_3
  B:0090H.7       PUBLIC        CEX4
  B:0090H.4       PUBLIC        P1_4
  B:0080H.5       PUBLIC        P0_5
  B:00C0H.5       PUBLIC        TMCSOM
  B:00C8H.6       PUBLIC        EXF2
  B:00E8H.1       PUBLIC        P5_1
  B:00C0H.2       PUBLIC        P4_2
  B:00B0H.7       PUBLIC        RD
  B:00B0H.3       PUBLIC        P3_3
  B:00A0H.4       PUBLIC        P2_4
  B:0090H.5       PUBLIC        P1_5
  B:0080H.6       PUBLIC        P0_6
  B:00B0H.1       PUBLIC        TMCTXD
  B:00E8H.2       PUBLIC        P5_2
  B:00C0H.3       PUBLIC        P4_3
  B:00B0H.4       PUBLIC        P3_4
  B:00A0H.5       PUBLIC        P2_5
  B:0090H.6       PUBLIC        P1_6
  B:0080H.7       PUBLIC        P0_7
  B:00A8H.4       PUBLIC        ES
  B:00E8H.3       PUBLIC        P5_3
  B:00C0H.4       PUBLIC        P4_4
  B:00B0H.5       PUBLIC        P3_5
  B:00A0H.6       PUBLIC        P2_6
  B:0090H.7       PUBLIC        P1_7
BL51 BANKED LINKER/LOCATER V3.70c             08/05/05  11:14:28  PAGE 11


  D:0015H         SYMBOL        _FONT
  B:00D0H.1       PUBLIC        UD
  B:00E8H.4       PUBLIC        P5_4
  B:00C0H.5       PUBLIC        P4_5
  B:00B0H.6       PUBLIC        P3_6
  B:00A0H.7       PUBLIC        P2_7
  B:0080H.0       PUBLIC        TMCD0
  B:00E8H.5       PUBLIC        P5_5
  B:00C0H.6       PUBLIC        P4_6
  B:00B0H.7       PUBLIC        P3_7
  B:0080H.1       PUBLIC        TMCD1
  B:0098H.0       PUBLIC        RI
  B:00E8H.6       PUBLIC        P5_6
  B:00C0H.7       PUBLIC        P4_7
  B:0080H.2       PUBLIC        TMCD2
  B:00D0H.7       PUBLIC        CY
  B:00E8H.7       PUBLIC        P5_7
  B:00B0H.2       PUBLIC        INT0
  B:00C0H.3       PUBLIC        TMCCSPAN
  B:0080H.3       PUBLIC        TMCD3
  B:0098H.1       PUBLIC        TI
  B:00B0H.3       PUBLIC        INT1
  C:13D3H         PUBLIC        _DISPLAYPATTERN
  B:0080H.4       PUBLIC        TMCD4
  B:0080H.5       PUBLIC        TMCD5
  C:1B35H         PUBLIC        DISPLAYCLREOL
  B:0080H.6       PUBLIC        TMCD6
  B:0080H.7       PUBLIC        TMCD7
  B:00B8H.1       PUBLIC        PT0L
  B:00B0H.2       PUBLIC        TMCPENIN
  B:00B8H.3       PUBLIC        PT1L
  B:00B8H.5       PUBLIC        PT2L
  B:0090H.1       PUBLIC        T2EX
  B:00B8H.0       PUBLIC        PX0L
  B:00D0H.2       PUBLIC        OV
  B:00B8H.2       PUBLIC        PX1L
  B:00C8H.1       PUBLIC        C_T2
  B:00B0H.6       PUBLIC        WR
  B:00A0H.3       PUBLIC        TMCOUTDI
  B:00C8H.5       PUBLIC        RCLK
  B:00C8H.4       PUBLIC        TCLK
  B:00B8H.6       PUBLIC        PPCL
  C:1E17H         SYMBOL        _WRITECOMMAND
  B:00E8H.7       PUBLIC        TMCBUZTP
  B:0088H.1       PUBLIC        IE0
  D:0017H         PUBLIC        COL
  B:0088H.3       PUBLIC        IE1
  B:0090H.7       PUBLIC        TMCSI
  B:00C8H.0       PUBLIC        CP_RL2
  C:1A17H         PUBLIC        DISPLAYCLEAR
  B:00B0H.4       PUBLIC        TMCCSEE
  B:0090H.5       PUBLIC        TMCSO
  B:00A8H.1       PUBLIC        ET0
  B:00A8H.3       PUBLIC        ET1
  B:0088H.5       PUBLIC        TF0
  C:1C38H         SYMBOL        CLEARRAM
  B:00A8H.5       PUBLIC        ET2
  B:0088H.7       PUBLIC        TF1
  B:0098H.2       PUBLIC        RB8
  B:00C8H.7       PUBLIC        TF2
  B:00A8H.0       PUBLIC        EX0
  B:0088H.0       PUBLIC        IT0
  B:00A8H.2       PUBLIC        EX1
  B:0098H.3       PUBLIC        TB8
  B:0088H.2       PUBLIC        IT1
BL51 BANKED LINKER/LOCATER V3.70c             08/05/05  11:14:28  PAGE 12


  B:00D0H.0       PUBLIC        P
  B:00B0H.5       PUBLIC        TMCCSDO
  B:0098H.7       PUBLIC        SM0
  B:0098H.6       PUBLIC        SM1
  B:0090H.2       PUBLIC        ECI
  B:0098H.5       PUBLIC        SM2
  B:00C0H.6       PUBLIC        TMCRESD
  B:00A0H.6       PUBLIC        TMCSCKM
  B:00D0H.3       PUBLIC        RS0
  B:0088H.4       PUBLIC        TR0
  B:00D0H.4       PUBLIC        RS1
  B:0088H.6       PUBLIC        TR1
  B:00C8H.2       PUBLIC        TR2
  D:0018H         PUBLIC        ROW
  C:0C51H         PUBLIC        _PUTCHAR
  B:00E8H.6       PUBLIC        TMCA0D
  B:00F8H.0       PUBLIC        PI2_0
  B:00F8H.1       PUBLIC        PI2_1
  B:00A0H.4       PUBLIC        TMCPISK
  B:00C8H.3       PUBLIC        EXEN2
  B:0098H.4       PUBLIC        REN
  C:1B0FH         SYMBOL        _VIDEORAMSET
  D:0019H         SYMBOL        _OFFSET
  C:1DBDH         PUBLIC        _DISPLAYGOTORC
  B:00E8H.3       PUBLIC        TMCSVIT
  B:00B0H.0       PUBLIC        RXD
  B:00A0H.2       PUBLIC        TMCDAD
  B:00B8H.4       PUBLIC        PLS
  B:00B0H.1       PUBLIC        TXD
  C:0E8BH         PUBLIC        DISPLAYINIT
  B:00E8H.2       PUBLIC        TMCLOWBAT
  B:0020H.2       SYMBOL        _PLANE
  B:00B0H.6       PUBLIC        TMCCS1AD
  B:00C0H.7       PUBLIC        TMCCS2AD
  B:00D0H.5       PUBLIC        F0
  B:00E8H.4       PUBLIC        TMCCSEPOT
  B:0090H.0       PUBLIC        TMCTP1
  C:1E55H         PUBLIC        DISPLAYSETPLANE
  B:00C0H.0       PUBLIC        TMCTP2
  B:00D8H.0       PUBLIC        CCF0
  B:0090H.1       PUBLIC        TMCTP3
  B:00D8H.1       PUBLIC        CCF1
  -------         PROC          DISPLAYINIT
  -------         ENDPROC       DISPLAYINIT
  C:0E8BH         LINE#         298
  C:0E8BH         LINE#         300
  C:0E8BH         LINE#         301
  C:0E8DH         LINE#         302
  C:0E94H         LINE#         303
  C:0E96H         LINE#         304
  C:0E9DH         LINE#         305
  C:0EA1H         LINE#         307
  C:0EA6H         LINE#         311
  C:0EADH         LINE#         315
  C:0EB4H         LINE#         317
  C:0EBBH         LINE#         318
  C:0EC2H         LINE#         320
  C:0EC9H         LINE#         322
  C:0ED0H         LINE#         324
  C:0ED7H         LINE#         326
  C:0EDEH         LINE#         329
  C:0EE3H         LINE#         330
  C:0EEAH         LINE#         332
  C:0EF0H         LINE#         334
  C:0EF7H         LINE#         336
BL51 BANKED LINKER/LOCATER V3.70c             08/05/05  11:14:28  PAGE 13


  C:0EFEH         LINE#         338
  C:0F05H         LINE#         340
  C:0F0CH         LINE#         342
  C:0F12H         LINE#         344
  C:0F18H         LINE#         346
  C:0F1EH         LINE#         348
  C:0F24H         LINE#         351
  C:0F29H         LINE#         352
  C:0F30H         LINE#         356
  C:0F35H         LINE#         358
  C:0F3CH         LINE#         361
  C:0F41H         LINE#         362
  C:0F48H         LINE#         363
  C:0F4FH         LINE#         379
  C:0F54H         LINE#         381
  C:0F59H         LINE#         382
  C:0F5CH         LINE#         385
  C:0F61H         LINE#         386
  C:0F68H         LINE#         389
  C:0F6FH         LINE#         394
  C:0F74H         LINE#         399
  C:0F7BH         LINE#         423
  C:0F7EH         LINE#         424
  C:0F80H         LINE#         428
  C:0F84H         LINE#         429
  C:0F89H         LINE#         431
  C:0F8BH         LINE#         432
  C:0F8DH         LINE#         434
  C:0F8FH         LINE#         435
  -------         PROC          DISPLAYSETPLANE
  B:0020H.4       SYMBOL        PLANE
  -------         ENDPROC       DISPLAYSETPLANE
  C:1E55H         LINE#         441
  C:1E55H         LINE#         443
  C:1E55H         LINE#         444
  C:1E59H         LINE#         445
  -------         PROC          _DISPLAYSETFONT
  D:0007H         SYMBOL        FONT
  -------         ENDPROC       _DISPLAYSETFONT
  C:1D33H         LINE#         452
  C:1D33H         LINE#         454
  C:1D33H         LINE#         455
  C:1D45H         LINE#         456
  -------         PROC          DISPLAYCLEAR
  -------         ENDPROC       DISPLAYCLEAR
  C:1A17H         LINE#         484
  C:1A17H         LINE#         486
  C:1A17H         LINE#         487
  C:1A1BH         LINE#         489
  C:1A1EH         LINE#         491
  C:1A2AH         LINE#         492
  C:1A2CH         LINE#         494
  C:1A39H         LINE#         495
  C:1A39H         LINE#         497
  C:1A3CH         LINE#         498
  C:1A3EH         LINE#         509
  C:1A40H         LINE#         510
  -------         PROC          _DISPLAYPATTERN
  D:003BH         SYMBOL        PATTERN
  D:003DH         SYMBOL        W
  D:003EH         SYMBOL        H
  D:0007H         SYMBOL        I
  D:003FH         SYMBOL        J
  -------         ENDPROC       _DISPLAYPATTERN
  C:13D3H         LINE#         582
BL51 BANKED LINKER/LOCATER V3.70c             08/05/05  11:14:28  PAGE 14


  C:13DBH         LINE#         586
  C:13DBH         LINE#         589
  C:13DFH         LINE#         590
  C:13E4H         LINE#         591
  C:13EEH         LINE#         593
  C:13F5H         LINE#         594
  C:13FAH         LINE#         595
  C:1402H         LINE#         596
  C:1410H         LINE#         597
  C:1418H         LINE#         598
  C:141BH         LINE#         599
  C:1423H         LINE#         600
  C:1427H         LINE#         601
  C:142CH         LINE#         602
  C:142EH         LINE#         603
  -------         PROC          _DISPLAYGOTORC
  D:0007H         SYMBOL        R
  D:0005H         SYMBOL        C
  -------         ENDPROC       _DISPLAYGOTORC
  C:1DBDH         LINE#         612
  C:1DBDH         LINE#         615
  C:1DBDH         LINE#         617
  C:1DC1H         LINE#         618
  C:1DC3H         LINE#         619
  C:1DC3H         LINE#         620
  C:1DC7H         LINE#         621
  C:1DC9H         LINE#         622
  C:1DC9H         LINE#         626
  -------         PROC          _PUTCHAR
  D:003AH         SYMBOL        C
  D:0006H         SYMBOL        INDEX
  D:0002H         SYMBOL        BWIDTH
  D:0006H         SYMBOL        START
  -------         ENDPROC       _PUTCHAR
  C:0C51H         LINE#         635
  C:0C53H         LINE#         637
  C:0C53H         LINE#         643
  C:0C56H         LINE#         644
  C:0C5BH         LINE#         646
  C:0C5DH         LINE#         647
  C:0C60H         LINE#         648
  C:0C61H         LINE#         649
  C:0C61H         LINE#         650
  C:0C66H         LINE#         652
  C:0C68H         LINE#         653
  C:0C6AH         LINE#         654
  C:0C6CH         LINE#         655
  C:0C6CH         LINE#         656
  C:0C70H         LINE#         658
  C:0C72H         LINE#         659
  C:0C75H         LINE#         660
  C:0C75H         LINE#         661
  C:0C79H         LINE#         662
  C:0C82H         LINE#         663
  C:0C88H         LINE#         664
  C:0C8BH         LINE#         667
  C:0C90H         LINE#         668
  C:0C97H         LINE#         669
  C:0C99H         LINE#         670
  C:0CA0H         LINE#         671
  C:0CA3H         LINE#         672
  C:0CA5H         LINE#         673
  C:0CA5H         LINE#         674
  C:0CA7H         LINE#         675
  C:0CAAH         LINE#         676
BL51 BANKED LINKER/LOCATER V3.70c             08/05/05  11:14:28  PAGE 15


  C:0CAAH         LINE#         679
  C:0CB0H         LINE#         681
  C:0CBEH         LINE#         682
  C:0CC9H         LINE#         683
  C:0CE1H         LINE#         684
  C:0CE4H         LINE#         685
  C:0CE4H         LINE#         686
  C:0CF3H         LINE#         687
  C:0CF9H         LINE#         689
  C:0D07H         LINE#         690
  C:0D19H         LINE#         691
  C:0D1CH         LINE#         692
  C:0D1CH         LINE#         693
  C:0D20H         LINE#         695
  C:0D2AH         LINE#         696
  C:0D2DH         LINE#         697
  C:0D2DH         LINE#         698
  C:0D3EH         LINE#         699
  C:0D59H         LINE#         700
  C:0D70H         LINE#         701
  C:0D72H         LINE#         703
  C:0D72H         LINE#         705
  -------         PROC          _WRITECOMMAND
  D:0007H         SYMBOL        CMD
  -------         ENDPROC       _WRITECOMMAND
  C:1E17H         LINE#         713
  C:1E17H         LINE#         715
  C:1E17H         LINE#         716
  C:1E19H         LINE#         717
  C:1E1FH         LINE#         718
  C:1E21H         LINE#         719
  -------         PROC          CLEARRAM
  -------         ENDPROC       CLEARRAM
  C:1C38H         LINE#         725
  C:1C38H         LINE#         727
  C:1C38H         LINE#         730
  C:1C44H         LINE#         732
  C:1C51H         LINE#         746
  -------         PROC          _SETCURSOR
  D:0004H         SYMBOL        ADDRESS
  -------         ENDPROC       _SETCURSOR
  C:1C6CH         LINE#         752
  C:1C70H         LINE#         754
  C:1C70H         LINE#         755
  C:1C75H         LINE#         756
  C:1C7CH         LINE#         757
  C:1C83H         LINE#         758
  -------         PROC          _VIDEORAMSET
  D:0006H         SYMBOL        START
  D:0023H         SYMBOL        LENGTH
  D:0003H         SYMBOL        CH
  D:0006H         SYMBOL        I
  -------         ENDPROC       _VIDEORAMSET
  C:1B0FH         LINE#         764
  C:1B13H         LINE#         767
  C:1B13H         LINE#         770
  C:1B16H         LINE#         772
  C:1B1BH         LINE#         773
  C:1B27H         LINE#         774
  C:1B2DH         LINE#         775
  C:1B34H         LINE#         776
  -------         PROC          DISPLAYCLREOL
  D:0006H         SYMBOL        START
  -------         ENDPROC       DISPLAYCLREOL
  C:1B35H         LINE#         822
BL51 BANKED LINKER/LOCATER V3.70c             08/05/05  11:14:28  PAGE 16


  C:1B35H         LINE#         824
  C:1B35H         LINE#         827
  C:1B39H         LINE#         828
  C:1B42H         LINE#         829
  C:1B4BH         LINE#         830
  C:1B58H         LINE#         831
  C:1B5AH         LINE#         832
  -------         ENDMOD        SED1335

  -------         MODULE        FONT
  C:0000H         SYMBOL        _ICE_DUMMY_
  C:12FAH         PUBLIC        FONT
  C:128AH         SYMBOL        FRAME8
  -------         ENDMOD        FONT

  -------         MODULE        ADS7846
  C:0000H         SYMBOL        _ICE_DUMMY_
  B:00E8H.1       PUBLIC        TMCSDA
  B:0090H.2       PUBLIC        TMCTP4
  B:00D8H.2       PUBLIC        CCF2
  B:0090H.3       PUBLIC        TMCTP5
  B:00D8H.3       PUBLIC        CCF3
  D:0080H         PUBLIC        P0
  B:00C0H.1       PUBLIC        TMCTP6
  B:00A0H.7       PUBLIC        TMCCSD
  B:00D8H.4       PUBLIC        CCF4
  D:0090H         PUBLIC        P1
  B:00C0H.2       PUBLIC        TMCTP7
  D:00A0H         PUBLIC        P2
  B:0090H.4       PUBLIC        TMCRX2
  D:00B0H         PUBLIC        P3
  B:00D0H.6       PUBLIC        AC
  D:00C0H         PUBLIC        P4
  B:00B0H.4       PUBLIC        T0
  B:00B0H.3       PUBLIC        TMCTX2
  D:00E8H         PUBLIC        P5
  B:00B0H.5       PUBLIC        T1
  B:00C0H.4       PUBLIC        TMCTX3
  B:00A8H.7       PUBLIC        EA
  B:0090H.0       PUBLIC        T2
  B:00A0H.1       PUBLIC        TMCCLKAD
  B:0090H.6       PUBLIC        TMCSCK
  B:00A8H.6       PUBLIC        EC
  B:00A0H.5       PUBLIC        TMCSCL
  B:00D8H.7       PUBLIC        CF
  B:00B0H.7       PUBLIC        TMCCSM
  B:0098H.7       PUBLIC        FE
  C:12FFH         SYMBOL        _READCONVERSION
  B:00A0H.0       PUBLIC        TMCMAJAK
  B:00E8H.0       PUBLIC        TMCCLKDI
  B:0080H.0       PUBLIC        P0_0
  B:0090H.3       PUBLIC        CEX0
  B:0090H.0       PUBLIC        P1_0
  B:0080H.1       PUBLIC        P0_1
  B:00A0H.0       PUBLIC        P2_0
  B:0090H.4       PUBLIC        CEX1
  B:0090H.1       PUBLIC        P1_1
  B:0080H.2       PUBLIC        P0_2
  B:00B0H.0       PUBLIC        P3_0
  B:00A0H.1       PUBLIC        P2_1
  B:0090H.5       PUBLIC        CEX2
  B:0090H.2       PUBLIC        P1_2
  B:0080H.3       PUBLIC        P0_3
  B:00E8H.5       PUBLIC        TMCWRD
  B:00C0H.0       PUBLIC        P4_0
BL51 BANKED LINKER/LOCATER V3.70c             08/05/05  11:14:28  PAGE 17


  B:00B0H.1       PUBLIC        P3_1
  B:00A0H.2       PUBLIC        P2_2
  B:0090H.6       PUBLIC        CEX3
  B:0090H.3       PUBLIC        P1_3
  B:0080H.4       PUBLIC        P0_4
  B:00B0H.0       PUBLIC        TMCRXD
  B:00D8H.6       PUBLIC        CR
  B:00E8H.0       PUBLIC        P5_0
  B:00C0H.1       PUBLIC        P4_1
  B:00B0H.2       PUBLIC        P3_2
  B:00A0H.3       PUBLIC        P2_3
  B:0090H.7       PUBLIC        CEX4
  B:0090H.4       PUBLIC        P1_4
  B:0080H.5       PUBLIC        P0_5
  B:00C0H.5       PUBLIC        TMCSOM
  B:00C8H.6       PUBLIC        EXF2
  B:00E8H.1       PUBLIC        P5_1
  B:00C0H.2       PUBLIC        P4_2
  B:00B0H.7       PUBLIC        RD
  B:00B0H.3       PUBLIC        P3_3
  B:00A0H.4       PUBLIC        P2_4
  B:0090H.5       PUBLIC        P1_5
  B:0080H.6       PUBLIC        P0_6
  B:00B0H.1       PUBLIC        TMCTXD
  B:00E8H.2       PUBLIC        P5_2
  B:00C0H.3       PUBLIC        P4_3
  B:00B0H.4       PUBLIC        P3_4
  B:00A0H.5       PUBLIC        P2_5
  B:0090H.6       PUBLIC        P1_6
  B:0080H.7       PUBLIC        P0_7
  B:00A8H.4       PUBLIC        ES
  B:00E8H.3       PUBLIC        P5_3
  B:00C0H.4       PUBLIC        P4_4
  B:00B0H.5       PUBLIC        P3_5
  B:00A0H.6       PUBLIC        P2_6
  B:0090H.7       PUBLIC        P1_7
  B:00D0H.1       PUBLIC        UD
  B:00E8H.4       PUBLIC        P5_4
  B:00C0H.5       PUBLIC        P4_5
  B:00B0H.6       PUBLIC        P3_6
  B:00A0H.7       PUBLIC        P2_7
  B:0080H.0       PUBLIC        TMCD0
  B:00E8H.5       PUBLIC        P5_5
  B:00C0H.6       PUBLIC        P4_6
  B:00B0H.7       PUBLIC        P3_7
  B:0080H.1       PUBLIC        TMCD1
  B:0098H.0       PUBLIC        RI
  B:00E8H.6       PUBLIC        P5_6
  B:00C0H.7       PUBLIC        P4_7
  B:0080H.2       PUBLIC        TMCD2
  B:00D0H.7       PUBLIC        CY
  B:00E8H.7       PUBLIC        P5_7
  B:00B0H.2       PUBLIC        INT0
  C:1BFFH         PUBLIC        TOUCHINIT
  B:00C0H.3       PUBLIC        TMCCSPAN
  B:0080H.3       PUBLIC        TMCD3
  B:0098H.1       PUBLIC        TI
  B:00B0H.3       PUBLIC        INT1
  B:0080H.4       PUBLIC        TMCD4
  C:153AH         PUBLIC        TOUCHISPRESSED
  B:0080H.5       PUBLIC        TMCD5
  B:0080H.6       PUBLIC        TMCD6
  B:0080H.7       PUBLIC        TMCD7
  B:00B8H.1       PUBLIC        PT0L
  B:00B0H.2       PUBLIC        TMCPENIN
BL51 BANKED LINKER/LOCATER V3.70c             08/05/05  11:14:28  PAGE 18


  B:00B8H.3       PUBLIC        PT1L
  B:00B8H.5       PUBLIC        PT2L
  B:0090H.1       PUBLIC        T2EX
  B:00B8H.0       PUBLIC        PX0L
  B:00D0H.2       PUBLIC        OV
  B:00B8H.2       PUBLIC        PX1L
  B:00C8H.1       PUBLIC        C_T2
  B:00B0H.6       PUBLIC        WR
  B:00A0H.3       PUBLIC        TMCOUTDI
  B:00C8H.5       PUBLIC        RCLK
  B:00C8H.4       PUBLIC        TCLK
  B:00B8H.6       PUBLIC        PPCL
  B:00E8H.7       PUBLIC        TMCBUZTP
  B:0088H.1       PUBLIC        IE0
  B:0088H.3       PUBLIC        IE1
  B:0090H.7       PUBLIC        TMCSI
  B:00C8H.0       PUBLIC        CP_RL2
  C:1DCAH         PUBLIC        TOUCHISAUTOREPEAT
  B:00B0H.4       PUBLIC        TMCCSEE
  B:0090H.5       PUBLIC        TMCSO
  B:00A8H.1       PUBLIC        ET0
  B:00A8H.3       PUBLIC        ET1
  B:0088H.5       PUBLIC        TF0
  B:00A8H.5       PUBLIC        ET2
  B:0088H.7       PUBLIC        TF1
  B:0098H.2       PUBLIC        RB8
  B:00C8H.7       PUBLIC        TF2
  B:00A8H.0       PUBLIC        EX0
  B:0088H.0       PUBLIC        IT0
  B:00A8H.2       PUBLIC        EX1
  B:0098H.3       PUBLIC        TB8
  B:0088H.2       PUBLIC        IT1
  B:00D0H.0       PUBLIC        P
  B:00B0H.5       PUBLIC        TMCCSDO
  B:0098H.7       PUBLIC        SM0
  B:0098H.6       PUBLIC        SM1
  B:0090H.2       PUBLIC        ECI
  B:0098H.5       PUBLIC        SM2
  B:00C0H.6       PUBLIC        TMCRESD
  B:00A0H.6       PUBLIC        TMCSCKM
  B:00D0H.3       PUBLIC        RS0
  B:0088H.4       PUBLIC        TR0
  B:00D0H.4       PUBLIC        RS1
  B:0088H.6       PUBLIC        TR1
  B:00C8H.2       PUBLIC        TR2
  B:00E8H.6       PUBLIC        TMCA0D
  B:00F8H.0       PUBLIC        PI2_0
  B:00F8H.1       PUBLIC        PI2_1
  C:1760H         PUBLIC        TOUCHX
  B:00A0H.4       PUBLIC        TMCPISK
  C:1632H         PUBLIC        TOUCHY
  B:00C8H.3       PUBLIC        EXEN2
  B:0098H.4       PUBLIC        REN
  C:117BH         PUBLIC        _TOUCHREADCOORDINATES
  D:001EH         PUBLIC        _TOUCH_COUNTER
  B:00E8H.3       PUBLIC        TMCSVIT
  B:00B0H.0       PUBLIC        RXD
  B:00A0H.2       PUBLIC        TMCDAD
  B:00B8H.4       PUBLIC        PLS
  B:00B0H.1       PUBLIC        TXD
  B:00E8H.2       PUBLIC        TMCLOWBAT
  B:00B0H.6       PUBLIC        TMCCS1AD
  B:00C0H.7       PUBLIC        TMCCS2AD
  B:00D0H.5       PUBLIC        F0
  B:00E8H.4       PUBLIC        TMCCSEPOT
BL51 BANKED LINKER/LOCATER V3.70c             08/05/05  11:14:28  PAGE 19


  B:0090H.0       PUBLIC        TMCTP1
  B:00C0H.0       PUBLIC        TMCTP2
  B:00D8H.0       PUBLIC        CCF0
  B:0090H.1       PUBLIC        TMCTP3
  B:00D8H.1       PUBLIC        CCF1
  -------         PROC          TOUCHINIT
  D:0007H         SYMBOL        I
  -------         ENDPROC       TOUCHINIT
  C:1BFFH         LINE#         92
  C:1BFFH         LINE#         94
  C:1BFFH         LINE#         97
  C:1C02H         LINE#         99
  C:1C04H         LINE#         100
  C:1C06H         LINE#         101
  C:1C08H         LINE#         102
  C:1C0AH         LINE#         106
  C:1C0CH         LINE#         107
  C:1C0EH         LINE#         109
  C:1C0FH         LINE#         110
  C:1C11H         LINE#         111
  C:1C13H         LINE#         112
  C:1C17H         LINE#         113
  C:1C1AH         LINE#         115
  C:1C1BH         LINE#         116
  -------         PROC          TOUCHISPRESSED
  -------         ENDPROC       TOUCHISPRESSED
  C:153AH         LINE#         122
  C:153AH         LINE#         124
  C:153AH         LINE#         125
  C:153DH         LINE#         127
  C:1545H         LINE#         129
  C:154CH         LINE#         130
  C:154FH         LINE#         131
  C:1551H         LINE#         132
  C:1551H         LINE#         133
  C:1551H         LINE#         135
  C:1554H         LINE#         136
  C:1556H         LINE#         137
  C:1556H         LINE#         140
  C:155DH         LINE#         141
  C:1560H         LINE#         142
  C:1563H         LINE#         143
  C:1565H         LINE#         144
  C:1565H         LINE#         146
  C:1579H         LINE#         147
  C:1579H         LINE#         148
  C:157CH         LINE#         149
  C:157EH         LINE#         150
  C:157EH         LINE#         152
  C:1581H         LINE#         153
  C:1583H         LINE#         155
  C:1583H         LINE#         156
  C:1583H         LINE#         157
  C:158BH         LINE#         159
  C:158EH         LINE#         160
  C:158FH         LINE#         161
  C:158FH         LINE#         162
  -------         PROC          TOUCHISAUTOREPEAT
  -------         ENDPROC       TOUCHISAUTOREPEAT
  C:1DCAH         LINE#         164
  C:1DCAH         LINE#         166
  C:1DD6H         LINE#         167
  -------         PROC          _TOUCHREADCOORDINATES
  D:0027H         SYMBOL        X
  D:0028H         SYMBOL        Y
BL51 BANKED LINKER/LOCATER V3.70c             08/05/05  11:14:28  PAGE 20


  D:0029H         SYMBOL        OLDX
  D:002BH         SYMBOL        NEWX
  D:002DH         SYMBOL        OLDY
  D:002FH         SYMBOL        NEWY
  D:0031H         SYMBOL        J
  -------         ENDPROC       _TOUCHREADCOORDINATES
  C:117BH         LINE#         173
  C:117FH         LINE#         179
  C:118AH         LINE#         180
  C:1195H         LINE#         181
  C:1198H         LINE#         182
  C:119FH         LINE#         183
  C:11A6H         LINE#         184
  C:11ADH         LINE#         185
  C:11E1H         LINE#         186
  C:11E7H         LINE#         187
  C:11EDH         LINE#         188
  C:11F6H         LINE#         190
  C:11FDH         LINE#         191
  C:1204H         LINE#         192
  C:1205H         LINE#         193
  -------         PROC          TOUCHX
  D:0004H         SYMBOL        VALUE
  -------         ENDPROC       TOUCHX
  C:1760H         LINE#         199
  C:1760H         LINE#         201
  C:1760H         LINE#         207
  C:1769H         LINE#         210
  C:1772H         LINE#         211
  C:1777H         LINE#         212
  C:1777H         LINE#         213
  C:1780H         LINE#         214
  C:1785H         LINE#         215
  C:1785H         LINE#         216
  C:178DH         LINE#         217
  C:17A7H         LINE#         230
  -------         PROC          TOUCHY
  D:0004H         SYMBOL        VALUE
  -------         ENDPROC       TOUCHY
  C:1632H         LINE#         236
  C:1632H         LINE#         238
  C:1632H         LINE#         244
  C:163BH         LINE#         257
  C:1644H         LINE#         258
  C:1649H         LINE#         259
  C:1649H         LINE#         260
  C:1652H         LINE#         261
  C:1657H         LINE#         262
  C:1657H         LINE#         263
  C:165FH         LINE#         264
  C:1680H         LINE#         267
  -------         PROC          _READCONVERSION
  D:0032H         SYMBOL        CONTROL
  D:0033H         SYMBOL        I
  D:0004H         SYMBOL        VALUE
  -------         ENDPROC       _READCONVERSION
  C:12FFH         LINE#         309
  C:1301H         LINE#         312
  C:1301H         LINE#         316
  C:1303H         LINE#         317
  C:1305H         LINE#         318
  C:1307H         LINE#         319
  C:1309H         LINE#         321
  C:130CH         LINE#         322
  C:1311H         LINE#         323
BL51 BANKED LINKER/LOCATER V3.70c             08/05/05  11:14:28  PAGE 21


  C:1313H         LINE#         324
  C:1319H         LINE#         325
  C:131BH         LINE#         326
  C:1322H         LINE#         329
  C:1329H         LINE#         332
  C:132CH         LINE#         333
  C:1331H         LINE#         334
  C:1333H         LINE#         335
  C:1339H         LINE#         336
  C:133BH         LINE#         337
  C:1342H         LINE#         340
  C:1344H         LINE#         341
  C:1346H         LINE#         342
  C:1347H         LINE#         343
  C:1349H         LINE#         346
  C:134CH         LINE#         347
  C:134EH         LINE#         348
  C:1355H         LINE#         349
  C:1357H         LINE#         350
  C:135AH         LINE#         351
  C:135DH         LINE#         352
  C:135DH         LINE#         353
  C:135FH         LINE#         354
  C:1366H         LINE#         355
  C:1368H         LINE#         357
  C:136AH         LINE#         358
  C:136CH         LINE#         359
  C:1370H         LINE#         360
  -------         ENDMOD        ADS7846

  -------         MODULE        PCATMC
  C:0000H         SYMBOL        _ICE_DUMMY_
  C:18FFH         PUBLIC        _COM2RXCHAR
  B:00E8H.1       PUBLIC        TMCSDA
  B:0090H.2       PUBLIC        TMCTP4
  B:00D8H.2       PUBLIC        CCF2
  B:0090H.3       PUBLIC        TMCTP5
  B:00D8H.3       PUBLIC        CCF3
  D:0080H         PUBLIC        P0
  C:1A41H         PUBLIC        _COM2TXCHAR
  C:1E5AH         PUBLIC        PCANOSOUND
  B:00C0H.1       PUBLIC        TMCTP6
  B:00A0H.7       PUBLIC        TMCCSD
  B:00D8H.4       PUBLIC        CCF4
  D:0090H         PUBLIC        P1
  C:1A6BH         PUBLIC        _COM3TXCHAR
  B:00C0H.2       PUBLIC        TMCTP7
  D:00A0H         PUBLIC        P2
  B:0090H.4       PUBLIC        TMCRX2
  D:00B0H         PUBLIC        P3
  B:00D0H.6       PUBLIC        AC
  D:00C0H         PUBLIC        P4
  B:00B0H.4       PUBLIC        T0
  B:00B0H.3       PUBLIC        TMCTX2
  D:00E8H         PUBLIC        P5
  B:00B0H.5       PUBLIC        T1
  B:00C0H.4       PUBLIC        TMCTX3
  B:00A8H.7       PUBLIC        EA
  B:0090H.0       PUBLIC        T2
  B:00A0H.1       PUBLIC        TMCCLKAD
  D:0008H         SYMBOL        IREAD
  B:0090H.6       PUBLIC        TMCSCK
  B:00A8H.6       PUBLIC        EC
  B:00A0H.5       PUBLIC        TMCSCL
  B:00D8H.7       PUBLIC        CF
BL51 BANKED LINKER/LOCATER V3.70c             08/05/05  11:14:28  PAGE 22


  D:0009H         SYMBOL        COUNT2RX
  B:00B0H.7       PUBLIC        TMCCSM
  D:00F9H         PUBLIC        CH
  B:0098H.7       PUBLIC        FE
  D:000AH         SYMBOL        COUNT2TX
  B:00A0H.0       PUBLIC        TMCMAJAK
  X:00C7H         SYMBOL        IBUFF
  B:00E8H.0       PUBLIC        TMCCLKDI
  D:00E9H         PUBLIC        CL
  B:0080H.0       PUBLIC        P0_0
  D:00FAH         PUBLIC        CCAP0H
  B:0090H.3       PUBLIC        CEX0
  B:0090H.0       PUBLIC        P1_0
  B:0080H.1       PUBLIC        P0_1
  D:00FBH         PUBLIC        CCAP1H
  D:00B7H         PUBLIC        IPH0
  B:00A0H.0       PUBLIC        P2_0
  B:0090H.4       PUBLIC        CEX1
  B:0090H.1       PUBLIC        P1_1
  B:0080H.2       PUBLIC        P0_2
  D:00FCH         PUBLIC        CCAP2H
  B:00B0H.0       PUBLIC        P3_0
  B:00A0H.1       PUBLIC        P2_1
  B:0090H.5       PUBLIC        CEX2
  B:0090H.2       PUBLIC        P1_2
  B:0080H.3       PUBLIC        P0_3
  D:000BH         SYMBOL        SOUND_PWM1
  B:00E8H.5       PUBLIC        TMCWRD
  D:00FDH         PUBLIC        CCAP3H
  B:00C0H.0       PUBLIC        P4_0
  B:00B0H.1       PUBLIC        P3_1
  B:00A0H.2       PUBLIC        P2_2
  B:0090H.6       PUBLIC        CEX3
  B:0090H.3       PUBLIC        P1_3
  B:0080H.4       PUBLIC        P0_4
  D:000DH         SYMBOL        SOUND_PWM2
  B:00B0H.0       PUBLIC        TMCRXD
  D:00EAH         PUBLIC        CCAP0L
  B:00D8H.6       PUBLIC        CR
  B:00E8H.0       PUBLIC        P5_0
  B:00C0H.1       PUBLIC        P4_1
  B:00B0H.2       PUBLIC        P3_2
  B:00A0H.3       PUBLIC        P2_3
  B:0090H.7       PUBLIC        CEX4
  B:0090H.4       PUBLIC        P1_4
  B:0080H.5       PUBLIC        P0_5
  C:1B9FH         PUBLIC        _COM2RXWAIT
  B:00C0H.5       PUBLIC        TMCSOM
  D:00EBH         PUBLIC        CCAP1L
  D:00DAH         PUBLIC        CCAPM0
  B:00C8H.6       PUBLIC        EXF2
  B:00E8H.1       PUBLIC        P5_1
  B:00C0H.2       PUBLIC        P4_2
  B:00B0H.7       PUBLIC        RD
  B:00B0H.3       PUBLIC        P3_3
  B:00A0H.4       PUBLIC        P2_4
  B:0090H.5       PUBLIC        P1_5
  B:0080H.6       PUBLIC        P0_6
  B:00B0H.1       PUBLIC        TMCTXD
  D:00ECH         PUBLIC        CCAP2L
  D:00DBH         PUBLIC        CCAPM1
  B:00E8H.2       PUBLIC        P5_2
  B:00C0H.3       PUBLIC        P4_3
  B:00B0H.4       PUBLIC        P3_4
  B:00A0H.5       PUBLIC        P2_5
BL51 BANKED LINKER/LOCATER V3.70c             08/05/05  11:14:28  PAGE 23


  B:0090H.6       PUBLIC        P1_6
  B:0080H.7       PUBLIC        P0_7
  D:000FH         SYMBOL        IWRITE
  D:00EDH         PUBLIC        CCAP3L
  D:00DCH         PUBLIC        CCAPM2
  B:00A8H.4       PUBLIC        ES
  B:00E8H.3       PUBLIC        P5_3
  B:00C0H.4       PUBLIC        P4_4
  B:00B0H.5       PUBLIC        P3_5
  B:00A0H.6       PUBLIC        P2_6
  B:0090H.7       PUBLIC        P1_7
  D:00DDH         PUBLIC        CCAPM3
  B:00D0H.1       PUBLIC        UD
  B:00E8H.4       PUBLIC        P5_4
  B:00C0H.5       PUBLIC        P4_5
  B:00B0H.6       PUBLIC        P3_6
  B:00A0H.7       PUBLIC        P2_7
  B:0080H.0       PUBLIC        TMCD0
  D:00DEH         PUBLIC        CCAPM4
  B:00E8H.5       PUBLIC        P5_5
  B:00C0H.6       PUBLIC        P4_6
  B:00B0H.7       PUBLIC        P3_7
  B:0080H.1       PUBLIC        TMCD1
  B:0098H.0       PUBLIC        RI
  B:00E8H.6       PUBLIC        P5_6
  B:00C0H.7       PUBLIC        P4_7
  B:0080H.2       PUBLIC        TMCD2
  B:00D0H.7       PUBLIC        CY
  B:00E8H.7       PUBLIC        P5_7
  B:00B0H.2       PUBLIC        INT0
  B:00C0H.3       PUBLIC        TMCCSPAN
  B:0080H.3       PUBLIC        TMCD3
  B:0098H.1       PUBLIC        TI
  B:00B0H.3       PUBLIC        INT1
  B:0080H.4       PUBLIC        TMCD4
  B:0080H.5       PUBLIC        TMCD5
  B:0080H.6       PUBLIC        TMCD6
  B:0080H.7       PUBLIC        TMCD7
  B:00B8H.1       PUBLIC        PT0L
  B:00B0H.2       PUBLIC        TMCPENIN
  B:00B8H.3       PUBLIC        PT1L
  B:00B8H.5       PUBLIC        PT2L
  D:00D9H         PUBLIC        CMOD
  D:00D8H         PUBLIC        CCON
  B:0090H.1       PUBLIC        T2EX
  B:00B8H.0       PUBLIC        PX0L
  B:00D0H.2       PUBLIC        OV
  B:00B8H.2       PUBLIC        PX1L
  B:00C8H.1       PUBLIC        C_T2
  B:00B0H.6       PUBLIC        WR
  C:198FH         PUBLIC        PCAINIT
  B:00A0H.3       PUBLIC        TMCOUTDI
  B:00C8H.5       PUBLIC        RCLK
  D:0010H         SYMBOL        DATA3
  B:00C8H.4       PUBLIC        TCLK
  B:00B8H.6       PUBLIC        PPCL
  C:0F90H         PUBLIC        _PCASOUNDRUN
  B:00E8H.7       PUBLIC        TMCBUZTP
  B:0088H.1       PUBLIC        IE0
  D:0011H         SYMBOL        COUNT3
  B:0088H.3       PUBLIC        IE1
  B:0090H.7       PUBLIC        TMCSI
  B:00C8H.0       PUBLIC        CP_RL2
  B:00B0H.4       PUBLIC        TMCCSEE
  B:0090H.5       PUBLIC        TMCSO
BL51 BANKED LINKER/LOCATER V3.70c             08/05/05  11:14:28  PAGE 24


  B:00A8H.1       PUBLIC        ET0
  B:00A8H.3       PUBLIC        ET1
  B:0088H.5       PUBLIC        TF0
  B:00A8H.5       PUBLIC        ET2
  B:0088H.7       PUBLIC        TF1
  B:0098H.2       PUBLIC        RB8
  B:00C8H.7       PUBLIC        TF2
  C:1AE8H         PUBLIC        COM2FLUSHCHARS
  B:00A8H.0       PUBLIC        EX0
  B:0088H.0       PUBLIC        IT0
  B:00A8H.2       PUBLIC        EX1
  B:0098H.3       PUBLIC        TB8
  B:0088H.2       PUBLIC        IT1
  B:00D0H.0       PUBLIC        P
  B:00B0H.5       PUBLIC        TMCCSDO
  B:0098H.7       PUBLIC        SM0
  B:0098H.6       PUBLIC        SM1
  B:0090H.2       PUBLIC        ECI
  B:0098H.5       PUBLIC        SM2
  B:00C0H.6       PUBLIC        TMCRESD
  B:00A0H.6       PUBLIC        TMCSCKM
  B:00D0H.3       PUBLIC        RS0
  B:0088H.4       PUBLIC        TR0
  B:00D0H.4       PUBLIC        RS1
  B:0088H.6       PUBLIC        TR1
  C:0891H         SYMBOL        PCAHANDLER
  B:00C8H.2       PUBLIC        TR2
  B:00E8H.6       PUBLIC        TMCA0D
  B:00F8H.0       PUBLIC        PI2_0
  B:00F8H.1       PUBLIC        PI2_1
  B:00A0H.4       PUBLIC        TMCPISK
  D:0012H         PUBLIC        _PCA_DURATION
  B:00C8H.3       PUBLIC        EXEN2
  B:0098H.4       PUBLIC        REN
  D:00A6H         PUBLIC        WDTRST
  B:00E8H.3       PUBLIC        TMCSVIT
  B:00B0H.0       PUBLIC        RXD
  B:00A0H.2       PUBLIC        TMCDAD
  B:00B8H.4       PUBLIC        PLS
  B:00B0H.1       PUBLIC        TXD
  B:00E8H.2       PUBLIC        TMCLOWBAT
  B:00B0H.6       PUBLIC        TMCCS1AD
  B:00C0H.7       PUBLIC        TMCCS2AD
  B:00D0H.5       PUBLIC        F0
  B:00E8H.4       PUBLIC        TMCCSEPOT
  D:0013H         SYMBOL        DATA2RX
  D:0014H         SYMBOL        DATA2TX
  B:0090H.0       PUBLIC        TMCTP1
  B:00C0H.0       PUBLIC        TMCTP2
  B:00D8H.0       PUBLIC        CCF0
  B:0090H.1       PUBLIC        TMCTP3
  B:00D8H.1       PUBLIC        CCF1
  -------         PROC          PCAINIT
  -------         ENDPROC       PCAINIT
  C:198FH         LINE#         145
  C:198FH         LINE#         147
  C:198FH         LINE#         149
  C:1991H         LINE#         150
  C:1994H         LINE#         151
  C:1997H         LINE#         152
  C:199AH         LINE#         153
  C:199CH         LINE#         154
  C:199EH         LINE#         155
  C:19A0H         LINE#         156
  C:19A2H         LINE#         157
BL51 BANKED LINKER/LOCATER V3.70c             08/05/05  11:14:28  PAGE 25


  C:19A4H         LINE#         158
  C:19A6H         LINE#         159
  C:19A8H         LINE#         162
  C:19AAH         LINE#         163
  C:19ACH         LINE#         164
  C:19B0H         LINE#         165
  C:19B6H         LINE#         168
  C:19B8H         LINE#         171
  C:19BAH         LINE#         172
  C:19BCH         LINE#         173
  -------         PROC          _PCASOUNDRUN
  D:0023H         SYMBOL        COUNT
  D:0005H         SYMBOL        ATTENUATOR
  D:0025H         SYMBOL        COUNTER
  D:0002H         SYMBOL        PWM
  -------         ENDPROC       _PCASOUNDRUN
  C:0F90H         LINE#         180
  C:0F94H         LINE#         182
  C:0F94H         LINE#         186
  C:0F98H         LINE#         187
  C:0FAEH         LINE#         189
  C:0FB2H         LINE#         190
  C:0FBFH         LINE#         191
  C:0FC1H         LINE#         192
  C:0FD0H         LINE#         193
  C:0FD0H         LINE#         194
  C:0FEFH         LINE#         195
  C:0FFAH         LINE#         196
  C:1000H         LINE#         197
  C:1000H         LINE#         198
  C:100DH         LINE#         199
  C:1018H         LINE#         200
  C:101EH         LINE#         201
  C:101EH         LINE#         202
  C:1020H         LINE#         203
  C:1022H         LINE#         204
  C:1025H         LINE#         205
  C:1028H         LINE#         206
  C:1034H         LINE#         207
  C:1037H         LINE#         208
  C:103AH         LINE#         209
  C:103DH         LINE#         210
  C:103FH         LINE#         211
  -------         PROC          PCANOSOUND
  -------         ENDPROC       PCANOSOUND
  C:1E5AH         LINE#         217
  C:1E5AH         LINE#         219
  C:1E5AH         LINE#         220
  C:1E5DH         LINE#         221
  -------         PROC          _COM2TXCHAR
  D:0007H         SYMBOL        C
  D:003CH         SYMBOL        COUNTER
  -------         ENDPROC       _COM2TXCHAR
  C:1A41H         LINE#         230
  C:1A41H         LINE#         232
  C:1A41H         LINE#         238
  C:1A43H         LINE#         239
  C:1A46H         LINE#         240
  C:1A48H         LINE#         241
  C:1A4BH         LINE#         242
  C:1A4EH         LINE#         243
  C:1A5AH         LINE#         244
  C:1A5DH         LINE#         245
  C:1A60H         LINE#         246
  C:1A63H         LINE#         247
BL51 BANKED LINKER/LOCATER V3.70c             08/05/05  11:14:28  PAGE 26


  C:1A65H         LINE#         248
  C:1A6AH         LINE#         252
  -------         PROC          _COM2RXCHAR
  D:0007H         SYMBOL        C
  D:0004H         SYMBOL        TIMEOUT
  -------         ENDPROC       _COM2RXCHAR
  C:18FFH         LINE#         258
  C:18FFH         LINE#         260
  C:18FFH         LINE#         263
  C:1903H         LINE#         264
  C:1903H         LINE#         265
  C:190AH         LINE#         267
  C:190DH         LINE#         268
  C:1921H         LINE#         269
  C:1924H         LINE#         270
  C:1926H         LINE#         271
  C:1926H         LINE#         272
  C:192FH         LINE#         273
  C:1930H         LINE#         274
  -------         PROC          _COM2RXWAIT
  D:0007H         SYMBOL        TIMEOUT
  D:0004H         SYMBOL        I
  -------         ENDPROC       _COM2RXWAIT
  C:1B9FH         LINE#         281
  C:1B9FH         LINE#         283
  C:1B9FH         LINE#         286
  C:1B9FH         LINE#         287
  C:1BA5H         LINE#         288
  C:1BA9H         LINE#         289
  C:1BA9H         LINE#         290
  C:1BB0H         LINE#         291
  C:1BB2H         LINE#         292
  C:1BB2H         LINE#         293
  C:1BBBH         LINE#         294
  C:1BBDH         LINE#         295
  C:1BBEH         LINE#         296
  -------         PROC          COM2FLUSHCHARS
  D:0006H         SYMBOL        TIMEOUT
  -------         ENDPROC       COM2FLUSHCHARS
  C:1AE8H         LINE#         304
  C:1AE8H         LINE#         306
  C:1AE8H         LINE#         309
  C:1AECH         LINE#         310
  C:1AECH         LINE#         311
  C:1AF2H         LINE#         312
  C:1AF9H         LINE#         314
  C:1AFCH         LINE#         315
  C:1AFEH         LINE#         316
  C:1B01H         LINE#         317
  C:1B05H         LINE#         318
  C:1B05H         LINE#         319
  C:1B05H         LINE#         320
  C:1B0EH         LINE#         321
  -------         PROC          _COM3TXCHAR
  D:0007H         SYMBOL        C
  D:0023H         SYMBOL        COUNTER
  -------         ENDPROC       _COM3TXCHAR
  C:1A6BH         LINE#         331
  C:1A6BH         LINE#         333
  C:1A6BH         LINE#         336
  C:1A6DH         LINE#         337
  C:1A70H         LINE#         338
  C:1A72H         LINE#         339
  C:1A75H         LINE#         340
  C:1A78H         LINE#         341
BL51 BANKED LINKER/LOCATER V3.70c             08/05/05  11:14:28  PAGE 27


  C:1A84H         LINE#         342
  C:1A87H         LINE#         343
  C:1A8AH         LINE#         344
  C:1A8DH         LINE#         345
  C:1A8FH         LINE#         346
  C:1A94H         LINE#         347
  -------         PROC          PCAHANDLER
  D:0040H         SYMBOL        COUNTER
  C:0958H         SYMBOL        RX2_DONE
  C:099AH         SYMBOL        TX2_DONE
  C:09DCH         SYMBOL        TX3_DONE
  -------         ENDPROC       PCAHANDLER
  C:0891H         LINE#         354
  C:089EH         LINE#         360
  C:08A1H         LINE#         361
  C:08A3H         LINE#         362
  C:08A6H         LINE#         363
  C:08A9H         LINE#         364
  C:08ACH         LINE#         365
  C:08B8H         LINE#         366
  C:08BAH         LINE#         367
  C:08C6H         LINE#         368
  C:08C6H         LINE#         369
  C:08C9H         LINE#         370
  C:08CCH         LINE#         371
  C:08CEH         LINE#         372
  C:08CEH         LINE#         376
  C:08D4H         LINE#         377
  C:08D6H         LINE#         378
  C:08D9H         LINE#         379
  C:08DCH         LINE#         380
  C:08E2H         LINE#         382
  C:08EDH         LINE#         383
  C:08F0H         LINE#         384
  C:08F3H         LINE#         385
  C:08F6H         LINE#         386
  C:08F9H         LINE#         387
  C:08FBH         LINE#         388
  C:08FBH         LINE#         389
  C:0907H         LINE#         390
  C:090AH         LINE#         391
  C:090DH         LINE#         393
  C:0912H         LINE#         394
  C:0915H         LINE#         396
  C:0918H         LINE#         397
  C:091AH         LINE#         398
  C:091AH         LINE#         399
  C:091CH         LINE#         400
  C:091EH         LINE#         401
  C:091EH         LINE#         403
  C:0925H         LINE#         404
  C:092BH         LINE#         405
  C:092EH         LINE#         406
  C:092EH         LINE#         407
  C:092EH         LINE#         409
  C:0935H         LINE#         410
  C:0937H         LINE#         411
  C:0937H         LINE#         412
  C:094AH         LINE#         413
  C:094CH         LINE#         414
  C:094CH         LINE#         416
  C:0952H         LINE#         417
  C:0955H         LINE#         418
  C:0958H         LINE#         419
  C:0958H         LINE#         420
BL51 BANKED LINKER/LOCATER V3.70c             08/05/05  11:14:28  PAGE 28


  C:0958H         LINE#         421
  C:0958H         LINE#         423
  C:095BH         LINE#         424
  C:095DH         LINE#         425
  C:0960H         LINE#         426
  C:0963H         LINE#         427
  C:096FH         LINE#         428
  C:0972H         LINE#         429
  C:0975H         LINE#         431
  C:097AH         LINE#         432
  C:097CH         LINE#         433
  C:097EH         LINE#         434
  C:0980H         LINE#         435
  C:0980H         LINE#         436
  C:0984H         LINE#         437
  C:0986H         LINE#         438
  C:0988H         LINE#         439
  C:0988H         LINE#         440
  C:098BH         LINE#         441
  C:098DH         LINE#         442
  C:098FH         LINE#         443
  C:098FH         LINE#         444
  C:0994H         LINE#         445
  C:099AH         LINE#         446
  C:099AH         LINE#         447
  C:099AH         LINE#         451
  C:099DH         LINE#         452
  C:099FH         LINE#         453
  C:09A2H         LINE#         454
  C:09A5H         LINE#         455
  C:09B1H         LINE#         456
  C:09B4H         LINE#         457
  C:09B7H         LINE#         459
  C:09BCH         LINE#         460
  C:09BEH         LINE#         461
  C:09C0H         LINE#         462
  C:09C2H         LINE#         463
  C:09C2H         LINE#         464
  C:09C6H         LINE#         465
  C:09C8H         LINE#         466
  C:09CAH         LINE#         467
  C:09CAH         LINE#         468
  C:09CDH         LINE#         469
  C:09CFH         LINE#         470
  C:09D1H         LINE#         471
  C:09D1H         LINE#         472
  C:09D6H         LINE#         473
  C:09DCH         LINE#         474
  C:09DCH         LINE#         475
  C:09DCH         LINE#         477
  -------         ENDMOD        PCATMC

  -------         MODULE        COM2UTIL
  C:0000H         SYMBOL        _ICE_DUMMY_
  B:00E8H.1       PUBLIC        TMCSDA
  B:0090H.2       PUBLIC        TMCTP4
  B:00D8H.2       PUBLIC        CCF2
  B:0090H.3       PUBLIC        TMCTP5
  B:00D8H.3       PUBLIC        CCF3
  D:0080H         PUBLIC        P0
  B:00C0H.1       PUBLIC        TMCTP6
  B:00A0H.7       PUBLIC        TMCCSD
  B:00D8H.4       PUBLIC        CCF4
  D:0090H         PUBLIC        P1
  B:00C0H.2       PUBLIC        TMCTP7
BL51 BANKED LINKER/LOCATER V3.70c             08/05/05  11:14:28  PAGE 29


  D:00A0H         PUBLIC        P2
  B:0090H.4       PUBLIC        TMCRX2
  D:00B0H         PUBLIC        P3
  B:00D0H.6       PUBLIC        AC
  D:00C0H         PUBLIC        P4
  B:00B0H.4       PUBLIC        T0
  B:00B0H.3       PUBLIC        TMCTX2
  D:00E8H         PUBLIC        P5
  B:00B0H.5       PUBLIC        T1
  B:00C0H.4       PUBLIC        TMCTX3
  B:00A8H.7       PUBLIC        EA
  B:0090H.0       PUBLIC        T2
  B:00A0H.1       PUBLIC        TMCCLKAD
  B:0090H.6       PUBLIC        TMCSCK
  B:00A8H.6       PUBLIC        EC
  B:00A0H.5       PUBLIC        TMCSCL
  B:00D8H.7       PUBLIC        CF
  B:00B0H.7       PUBLIC        TMCCSM
  B:0098H.7       PUBLIC        FE
  B:00A0H.0       PUBLIC        TMCMAJAK
  C:1D46H         PUBLIC        _COMSKIPCHARS
  B:00E8H.0       PUBLIC        TMCCLKDI
  B:0080H.0       PUBLIC        P0_0
  B:0090H.3       PUBLIC        CEX0
  B:0090H.0       PUBLIC        P1_0
  B:0080H.1       PUBLIC        P0_1
  B:00A0H.0       PUBLIC        P2_0
  B:0090H.4       PUBLIC        CEX1
  B:0090H.1       PUBLIC        P1_1
  B:0080H.2       PUBLIC        P0_2
  C:16CCH         PUBLIC        COMRXHEX
  B:00B0H.0       PUBLIC        P3_0
  B:00A0H.1       PUBLIC        P2_1
  B:0090H.5       PUBLIC        CEX2
  B:0090H.2       PUBLIC        P1_2
  B:0080H.3       PUBLIC        P0_3
  B:00E8H.5       PUBLIC        TMCWRD
  B:00C0H.0       PUBLIC        P4_0
  B:00B0H.1       PUBLIC        P3_1
  B:00A0H.2       PUBLIC        P2_2
  B:0090H.6       PUBLIC        CEX3
  B:0090H.3       PUBLIC        P1_3
  B:0080H.4       PUBLIC        P0_4
  B:00B0H.0       PUBLIC        TMCRXD
  B:00D8H.6       PUBLIC        CR
  B:00E8H.0       PUBLIC        P5_0
  B:00C0H.1       PUBLIC        P4_1
  B:00B0H.2       PUBLIC        P3_2
  B:00A0H.3       PUBLIC        P2_3
  B:0090H.7       PUBLIC        CEX4
  B:0090H.4       PUBLIC        P1_4
  B:0080H.5       PUBLIC        P0_5
  B:00C0H.5       PUBLIC        TMCSOM
  B:00C8H.6       PUBLIC        EXF2
  B:00E8H.1       PUBLIC        P5_1
  B:00C0H.2       PUBLIC        P4_2
  B:00B0H.7       PUBLIC        RD
  B:00B0H.3       PUBLIC        P3_3
  B:00A0H.4       PUBLIC        P2_4
  B:0090H.5       PUBLIC        P1_5
  B:0080H.6       PUBLIC        P0_6
  B:00B0H.1       PUBLIC        TMCTXD
  B:00E8H.2       PUBLIC        P5_2
  B:00C0H.3       PUBLIC        P4_3
  B:00B0H.4       PUBLIC        P3_4
BL51 BANKED LINKER/LOCATER V3.70c             08/05/05  11:14:28  PAGE 30


  B:00A0H.5       PUBLIC        P2_5
  B:0090H.6       PUBLIC        P1_6
  B:0080H.7       PUBLIC        P0_7
  B:00A8H.4       PUBLIC        ES
  B:00E8H.3       PUBLIC        P5_3
  B:00C0H.4       PUBLIC        P4_4
  B:00B0H.5       PUBLIC        P3_5
  B:00A0H.6       PUBLIC        P2_6
  B:0090H.7       PUBLIC        P1_7
  C:1C84H         PUBLIC        _COMWAITCHAR
  B:00D0H.1       PUBLIC        UD
  B:00E8H.4       PUBLIC        P5_4
  B:00C0H.5       PUBLIC        P4_5
  B:00B0H.6       PUBLIC        P3_6
  B:00A0H.7       PUBLIC        P2_7
  B:0080H.0       PUBLIC        TMCD0
  B:00E8H.5       PUBLIC        P5_5
  B:00C0H.6       PUBLIC        P4_6
  B:00B0H.7       PUBLIC        P3_7
  B:0080H.1       PUBLIC        TMCD1
  B:0098H.0       PUBLIC        RI
  B:00E8H.6       PUBLIC        P5_6
  B:00C0H.7       PUBLIC        P4_7
  B:0080H.2       PUBLIC        TMCD2
  B:00D0H.7       PUBLIC        CY
  B:00E8H.7       PUBLIC        P5_7
  B:00B0H.2       PUBLIC        INT0
  B:00C0H.3       PUBLIC        TMCCSPAN
  B:0080H.3       PUBLIC        TMCD3
  B:0098H.1       PUBLIC        TI
  B:00B0H.3       PUBLIC        INT1
  B:0080H.4       PUBLIC        TMCD4
  B:0080H.5       PUBLIC        TMCD5
  B:0080H.6       PUBLIC        TMCD6
  B:0080H.7       PUBLIC        TMCD7
  B:00B8H.1       PUBLIC        PT0L
  B:00B0H.2       PUBLIC        TMCPENIN
  B:00B8H.3       PUBLIC        PT1L
  B:00B8H.5       PUBLIC        PT2L
  B:0090H.1       PUBLIC        T2EX
  B:00B8H.0       PUBLIC        PX0L
  B:00D0H.2       PUBLIC        OV
  B:00B8H.2       PUBLIC        PX1L
  B:00C8H.1       PUBLIC        C_T2
  B:00B0H.6       PUBLIC        WR
  B:00A0H.3       PUBLIC        TMCOUTDI
  B:00C8H.5       PUBLIC        RCLK
  B:00C8H.4       PUBLIC        TCLK
  B:00B8H.6       PUBLIC        PPCL
  C:148BH         PUBLIC        _COMRXMATCH
  B:00E8H.7       PUBLIC        TMCBUZTP
  B:0088H.1       PUBLIC        IE0
  B:0088H.3       PUBLIC        IE1
  C:0003H         PUBLIC        _COMTXDIGIT
  B:0090H.7       PUBLIC        TMCSI
  B:00C8H.0       PUBLIC        CP_RL2
  C:14E3H         PUBLIC        _COMRXSTRING
  B:00B0H.4       PUBLIC        TMCCSEE
  B:0090H.5       PUBLIC        TMCSO
  C:185EH         PUBLIC        _COMTXSTRING
  B:00A8H.1       PUBLIC        ET0
  B:00A8H.3       PUBLIC        ET1
  B:0088H.5       PUBLIC        TF0
  B:00A8H.5       PUBLIC        ET2
  B:0088H.7       PUBLIC        TF1
BL51 BANKED LINKER/LOCATER V3.70c             08/05/05  11:14:28  PAGE 31


  B:0098H.2       PUBLIC        RB8
  B:00C8H.7       PUBLIC        TF2
  B:00A8H.0       PUBLIC        EX0
  B:0088H.0       PUBLIC        IT0
  B:00A8H.2       PUBLIC        EX1
  B:0098H.3       PUBLIC        TB8
  B:0088H.2       PUBLIC        IT1
  B:00D0H.0       PUBLIC        P
  B:00B0H.5       PUBLIC        TMCCSDO
  B:0098H.7       PUBLIC        SM0
  B:0098H.6       PUBLIC        SM1
  B:0090H.2       PUBLIC        ECI
  B:0098H.5       PUBLIC        SM2
  B:00C0H.6       PUBLIC        TMCRESD
  B:00A0H.6       PUBLIC        TMCSCKM
  B:00D0H.3       PUBLIC        RS0
  B:0088H.4       PUBLIC        TR0
  B:00D0H.4       PUBLIC        RS1
  B:0088H.6       PUBLIC        TR1
  B:00C8H.2       PUBLIC        TR2
  C:1BBFH         PUBLIC        _COMTXDEC
  B:00E8H.6       PUBLIC        TMCA0D
  B:00F8H.0       PUBLIC        PI2_0
  B:00F8H.1       PUBLIC        PI2_1
  B:00A0H.4       PUBLIC        TMCPISK
  B:00C8H.3       PUBLIC        EXEN2
  B:0098H.4       PUBLIC        REN
  D:00A6H         PUBLIC        WDTRST
  B:00E8H.3       PUBLIC        TMCSVIT
  B:00B0H.0       PUBLIC        RXD
  B:00A0H.2       PUBLIC        TMCDAD
  B:00B8H.4       PUBLIC        PLS
  B:00B0H.1       PUBLIC        TXD
  B:00E8H.2       PUBLIC        TMCLOWBAT
  B:00B0H.6       PUBLIC        TMCCS1AD
  C:1C52H         PUBLIC        _COMTXHEX
  B:00C0H.7       PUBLIC        TMCCS2AD
  B:00D0H.5       PUBLIC        F0
  B:00E8H.4       PUBLIC        TMCCSEPOT
  C:1896H         PUBLIC        COMRXDEC
  B:0090H.0       PUBLIC        TMCTP1
  B:00C0H.0       PUBLIC        TMCTP2
  B:00D8H.0       PUBLIC        CCF0
  B:0090H.1       PUBLIC        TMCTP3
  B:00D8H.1       PUBLIC        CCF1
  -------         PROC          _COMTXDIGIT
  D:0007H         SYMBOL        N
  -------         ENDPROC       _COMTXDIGIT
  C:0003H         LINE#         19
  C:0003H         LINE#         21
  C:0003H         LINE#         22
  C:000AH         LINE#         23
  -------         PROC          _COMTXSTRING
  D:002CH         SYMBOL        TEXT
  D:002EH         SYMBOL        LENGTH
  D:002FH         SYMBOL        I
  -------         ENDPROC       _COMTXSTRING
  C:185EH         LINE#         29
  C:1862H         LINE#         31
  C:1862H         LINE#         35
  C:186DH         LINE#         36
  C:1877H         LINE#         37
  C:187DH         LINE#         38
  C:1889H         LINE#         39
  C:1891H         LINE#         40
BL51 BANKED LINKER/LOCATER V3.70c             08/05/05  11:14:28  PAGE 32


  C:1895H         LINE#         41
  -------         PROC          _COMTXHEX
  D:002AH         SYMBOL        NUMBER
  -------         ENDPROC       _COMTXHEX
  C:1C52H         LINE#         47
  C:1C54H         LINE#         49
  C:1C54H         LINE#         50
  C:1C60H         LINE#         51
  C:1C6BH         LINE#         52
  -------         PROC          _COMTXDEC
  D:0007H         SYMBOL        NUMBER
  D:002CH         SYMBOL        W
  -------         ENDPROC       _COMTXDEC
  C:1BBFH         LINE#         58
  C:1BBFH         LINE#         60
  C:1BBFH         LINE#         63
  C:1BC6H         LINE#         64
  C:1BCCH         LINE#         65
  C:1BD6H         LINE#         66
  C:1BDEH         LINE#         67
  -------         PROC          COMRXDEC
  D:002CH         SYMBOL        VALUE
  D:002DH         SYMBOL        CH
  -------         ENDPROC       COMRXDEC
  C:1896H         LINE#         73
  C:1896H         LINE#         75
  C:1896H         LINE#         79
  C:1899H         LINE#         80
  C:1899H         LINE#         81
  C:18A0H         LINE#         82
  C:18A3H         LINE#         83
  C:18A3H         LINE#         84
  C:18B5H         LINE#         85
  C:18B8H         LINE#         86
  C:18B8H         LINE#         87
  C:18C0H         LINE#         88
  C:18C8H         LINE#         89
  C:18CAH         LINE#         90
  -------         PROC          COMRXHEX
  D:002CH         SYMBOL        VALUE
  D:002DH         SYMBOL        CH
  -------         ENDPROC       COMRXHEX
  C:16CCH         LINE#         96
  C:16CCH         LINE#         98
  C:16CCH         LINE#         102
  C:16D3H         LINE#         103
  C:16D6H         LINE#         104
  C:16D6H         LINE#         105
  C:16F1H         LINE#         106
  C:16F8H         LINE#         107
  C:16FBH         LINE#         108
  C:16FBH         LINE#         109
  C:1713H         LINE#         110
  C:1715H         LINE#         111
  -------         PROC          _COMWAITCHAR
  D:002CH         SYMBOL        CH
  D:002DH         SYMBOL        X
  -------         ENDPROC       _COMWAITCHAR
  C:1C84H         LINE#         117
  C:1C86H         LINE#         119
  C:1C86H         LINE#         122
  C:1C86H         LINE#         123
  C:1C8CH         LINE#         124
  C:1C93H         LINE#         125
  C:1C95H         LINE#         126
BL51 BANKED LINKER/LOCATER V3.70c             08/05/05  11:14:28  PAGE 33


  C:1C95H         LINE#         127
  C:1C9AH         LINE#         128
  C:1C9BH         LINE#         129
  C:1C9BH         LINE#         130
  C:1C9BH         LINE#         131
  -------         PROC          _COMSKIPCHARS
  D:002CH         SYMBOL        COUNT
  D:002DH         SYMBOL        X
  -------         ENDPROC       _COMSKIPCHARS
  C:1D46H         LINE#         137
  C:1D48H         LINE#         139
  C:1D48H         LINE#         142
  C:1D48H         LINE#         143
  C:1D4EH         LINE#         144
  C:1D55H         LINE#         146
  C:1D55H         LINE#         147
  C:1D58H         LINE#         148
  -------         PROC          _COMRXMATCH
  D:002CH         SYMBOL        TEXT
  D:002EH         SYMBOL        TIMEOUT
  D:002FH         SYMBOL        LENGTH
  D:0030H         SYMBOL        I
  D:0031H         SYMBOL        P
  D:0033H         SYMBOL        CH
  -------         ENDPROC       _COMRXMATCH
  C:148BH         LINE#         154
  C:1491H         LINE#         156
  C:1491H         LINE#         162
  C:149CH         LINE#         163
  C:14A2H         LINE#         165
  C:14A6H         LINE#         166
  C:14ACH         LINE#         167
  C:14AEH         LINE#         168
  C:14AEH         LINE#         169
  C:14AEH         LINE#         171
  C:14B8H         LINE#         172
  C:14BEH         LINE#         173
  C:14C5H         LINE#         174
  C:14C7H         LINE#         175
  C:14C7H         LINE#         176
  C:14D3H         LINE#         177
  C:14D5H         LINE#         178
  C:14D5H         LINE#         179
  C:14DDH         LINE#         180
  C:14E1H         LINE#         181
  C:14E2H         LINE#         182
  -------         PROC          _COMRXSTRING
  D:0025H         SYMBOL        TEXT
  D:0027H         SYMBOL        LENGTH
  D:0028H         SYMBOL        I
  D:0029H         SYMBOL        CH
  -------         ENDPROC       _COMRXSTRING
  C:14E3H         LINE#         190
  C:14E9H         LINE#         192
  C:14E9H         LINE#         197
  C:14F0H         LINE#         198
  C:14F2H         LINE#         199
  C:14F2H         LINE#         200
  C:14FCH         LINE#         201
  C:1503H         LINE#         202
  C:1505H         LINE#         203
  C:1505H         LINE#         204
  C:150AH         LINE#         205
  C:1517H         LINE#         206
  C:1519H         LINE#         207
BL51 BANKED LINKER/LOCATER V3.70c             08/05/05  11:14:28  PAGE 34


  C:1519H         LINE#         208
  C:1527H         LINE#         209
  C:152BH         LINE#         210
  C:1538H         LINE#         211
  C:1539H         LINE#         212
  -------         ENDMOD        COM2UTIL

  -------         MODULE        GSMBASE
  C:0000H         SYMBOL        _ICE_DUMMY_
  B:00E8H.1       PUBLIC        TMCSDA
  B:0090H.2       PUBLIC        TMCTP4
  B:00D8H.2       PUBLIC        CCF2
  B:0090H.3       PUBLIC        TMCTP5
  B:00D8H.3       PUBLIC        CCF3
  D:0080H         PUBLIC        P0
  B:00C0H.1       PUBLIC        TMCTP6
  B:00A0H.7       PUBLIC        TMCCSD
  B:00D8H.4       PUBLIC        CCF4
  D:0090H         PUBLIC        P1
  B:00C0H.2       PUBLIC        TMCTP7
  D:00A0H         PUBLIC        P2
  B:0090H.4       PUBLIC        TMCRX2
  D:00B0H         PUBLIC        P3
  B:00D0H.6       PUBLIC        AC
  D:00C0H         PUBLIC        P4
  B:00B0H.4       PUBLIC        T0
  B:00B0H.3       PUBLIC        TMCTX2
  D:00E8H         PUBLIC        P5
  B:00B0H.5       PUBLIC        T1
  B:00C0H.4       PUBLIC        TMCTX3
  B:00A8H.7       PUBLIC        EA
  B:0090H.0       PUBLIC        T2
  B:00A0H.1       PUBLIC        TMCCLKAD
  B:0090H.6       PUBLIC        TMCSCK
  B:00A8H.6       PUBLIC        EC
  B:00A0H.5       PUBLIC        TMCSCL
  B:00D8H.7       PUBLIC        CF
  B:00B0H.7       PUBLIC        TMCCSM
  B:0098H.7       PUBLIC        FE
  B:00A0H.0       PUBLIC        TMCMAJAK
  B:00E8H.0       PUBLIC        TMCCLKDI
  B:0080H.0       PUBLIC        P0_0
  B:0090H.3       PUBLIC        CEX0
  B:0090H.0       PUBLIC        P1_0
  B:0080H.1       PUBLIC        P0_1
  B:00A0H.0       PUBLIC        P2_0
  B:0090H.4       PUBLIC        CEX1
  B:0090H.1       PUBLIC        P1_1
  B:0080H.2       PUBLIC        P0_2
  B:00B0H.0       PUBLIC        P3_0
  B:00A0H.1       PUBLIC        P2_1
  B:0090H.5       PUBLIC        CEX2
  B:0090H.2       PUBLIC        P1_2
  B:0080H.3       PUBLIC        P0_3
  B:00E8H.5       PUBLIC        TMCWRD
  B:00C0H.0       PUBLIC        P4_0
  B:00B0H.1       PUBLIC        P3_1
  B:00A0H.2       PUBLIC        P2_2
  B:0090H.6       PUBLIC        CEX3
  B:0090H.3       PUBLIC        P1_3
  B:0080H.4       PUBLIC        P0_4
  C:139AH         SYMBOL        REGISTERED
  C:1382H         SYMBOL        ERRORMODE
  B:00B0H.0       PUBLIC        TMCRXD
  B:00D8H.6       PUBLIC        CR
BL51 BANKED LINKER/LOCATER V3.70c             08/05/05  11:14:28  PAGE 35


  B:00E8H.0       PUBLIC        P5_0
  B:00C0H.1       PUBLIC        P4_1
  B:00B0H.2       PUBLIC        P3_2
  B:00A0H.3       PUBLIC        P2_3
  B:0090H.7       PUBLIC        CEX4
  B:0090H.4       PUBLIC        P1_4
  B:0080H.5       PUBLIC        P0_5
  B:00C0H.5       PUBLIC        TMCSOM
  B:00C8H.6       PUBLIC        EXF2
  B:00E8H.1       PUBLIC        P5_1
  B:00C0H.2       PUBLIC        P4_2
  B:00B0H.7       PUBLIC        RD
  B:00B0H.3       PUBLIC        P3_3
  B:00A0H.4       PUBLIC        P2_4
  B:0090H.5       PUBLIC        P1_5
  B:0080H.6       PUBLIC        P0_6
  B:00B0H.1       PUBLIC        TMCTXD
  B:00E8H.2       PUBLIC        P5_2
  B:00C0H.3       PUBLIC        P4_3
  B:00B0H.4       PUBLIC        P3_4
  B:00A0H.5       PUBLIC        P2_5
  B:0090H.6       PUBLIC        P1_6
  B:0080H.7       PUBLIC        P0_7
  B:00A8H.4       PUBLIC        ES
  B:00E8H.3       PUBLIC        P5_3
  B:00C0H.4       PUBLIC        P4_4
  B:00B0H.5       PUBLIC        P3_5
  B:00A0H.6       PUBLIC        P2_6
  B:0090H.7       PUBLIC        P1_7
  B:00D0H.1       PUBLIC        UD
  B:00E8H.4       PUBLIC        P5_4
  B:00C0H.5       PUBLIC        P4_5
  B:00B0H.6       PUBLIC        P3_6
  B:00A0H.7       PUBLIC        P2_7
  B:0080H.0       PUBLIC        TMCD0
  B:00E8H.5       PUBLIC        P5_5
  B:00C0H.6       PUBLIC        P4_6
  B:00B0H.7       PUBLIC        P3_7
  B:0080H.1       PUBLIC        TMCD1
  B:0098H.0       PUBLIC        RI
  B:00E8H.6       PUBLIC        P5_6
  B:00C0H.7       PUBLIC        P4_7
  B:0080H.2       PUBLIC        TMCD2
  B:00D0H.7       PUBLIC        CY
  B:00E8H.7       PUBLIC        P5_7
  B:00B0H.2       PUBLIC        INT0
  B:00C0H.3       PUBLIC        TMCCSPAN
  B:0080H.3       PUBLIC        TMCD3
  B:0098H.1       PUBLIC        TI
  B:00B0H.3       PUBLIC        INT1
  C:137CH         SYMBOL        ECHOOFF
  B:0080H.4       PUBLIC        TMCD4
  B:0080H.5       PUBLIC        TMCD5
  B:0080H.6       PUBLIC        TMCD6
  B:0080H.7       PUBLIC        TMCD7
  B:00B8H.1       PUBLIC        PT0L
  B:00B0H.2       PUBLIC        TMCPENIN
  B:00B8H.3       PUBLIC        PT1L
  C:13C2H         SYMBOL        RSSI
  B:00B8H.5       PUBLIC        PT2L
  B:0090H.1       PUBLIC        T2EX
  B:00B8H.0       PUBLIC        PX0L
  B:00D0H.2       PUBLIC        OV
  B:00B8H.2       PUBLIC        PX1L
  B:00C8H.1       PUBLIC        C_T2
BL51 BANKED LINKER/LOCATER V3.70c             08/05/05  11:14:28  PAGE 36


  B:00B0H.6       PUBLIC        WR
  B:00A0H.3       PUBLIC        TMCOUTDI
  B:00C8H.5       PUBLIC        RCLK
  C:1681H         PUBLIC        GSMRESET
  B:00C8H.4       PUBLIC        TCLK
  B:00B8H.6       PUBLIC        PPCL
  C:138FH         SYMBOL        PDUMODE
  C:1371H         SYMBOL        AT
  C:1375H         SYMBOL        OK
  B:00E8H.7       PUBLIC        TMCBUZTP
  C:1931H         PUBLIC        GSMREGISTERED
  B:0088H.1       PUBLIC        IE0
  B:0088H.3       PUBLIC        IE1
  B:0090H.7       PUBLIC        TMCSI
  B:00C8H.0       PUBLIC        CP_RL2
  B:00B0H.4       PUBLIC        TMCCSEE
  B:0090H.5       PUBLIC        TMCSO
  B:00A8H.1       PUBLIC        ET0
  B:00A8H.3       PUBLIC        ET1
  B:0088H.5       PUBLIC        TF0
  B:00A8H.5       PUBLIC        ET2
  B:0088H.7       PUBLIC        TF1
  B:0098H.2       PUBLIC        RB8
  B:00C8H.7       PUBLIC        TF2
  B:00A8H.0       PUBLIC        EX0
  B:0088H.0       PUBLIC        IT0
  B:00A8H.2       PUBLIC        EX1
  B:0098H.3       PUBLIC        TB8
  B:0088H.2       PUBLIC        IT1
  B:00D0H.0       PUBLIC        P
  B:00B0H.5       PUBLIC        TMCCSDO
  B:0098H.7       PUBLIC        SM0
  C:13AEH         SYMBOL        OPERATOR
  B:0098H.6       PUBLIC        SM1
  B:0090H.2       PUBLIC        ECI
  B:0098H.5       PUBLIC        SM2
  B:00C0H.6       PUBLIC        TMCRESD
  B:00A0H.6       PUBLIC        TMCSCKM
  B:00D0H.3       PUBLIC        RS0
  B:0088H.4       PUBLIC        TR0
  B:00D0H.4       PUBLIC        RS1
  B:0088H.6       PUBLIC        TR1
  B:00C8H.2       PUBLIC        TR2
  C:17E7H         PUBLIC        _GSMOPERATOR
  B:00E8H.6       PUBLIC        TMCA0D
  B:00F8H.0       PUBLIC        PI2_0
  B:00F8H.1       PUBLIC        PI2_1
  B:00A0H.4       PUBLIC        TMCPISK
  C:1C1CH         PUBLIC        GSMSIGNALSTRENGTH
  B:00C8H.3       PUBLIC        EXEN2
  C:13B8H         SYMBOL        OPERHEADER
  B:0098H.4       PUBLIC        REN
  C:13A4H         SYMBOL        REGHEADER
  B:00E8H.3       PUBLIC        TMCSVIT
  B:00B0H.0       PUBLIC        RXD
  B:00A0H.2       PUBLIC        TMCDAD
  B:00B8H.4       PUBLIC        PLS
  C:13CAH         SYMBOL        RSSIHEADER
  B:00B0H.1       PUBLIC        TXD
  B:00E8H.2       PUBLIC        TMCLOWBAT
  B:00B0H.6       PUBLIC        TMCCS1AD
  B:00C0H.7       PUBLIC        TMCCS2AD
  B:00D0H.5       PUBLIC        F0
  B:00E8H.4       PUBLIC        TMCCSEPOT
  B:0090H.0       PUBLIC        TMCTP1
BL51 BANKED LINKER/LOCATER V3.70c             08/05/05  11:14:28  PAGE 37


  B:00C0H.0       PUBLIC        TMCTP2
  B:00D8H.0       PUBLIC        CCF0
  B:0090H.1       PUBLIC        TMCTP3
  B:00D8H.1       PUBLIC        CCF1
  -------         PROC          GSMRESET
  -------         ENDPROC       GSMRESET
  C:1681H         LINE#         37
  C:1681H         LINE#         39
  C:1681H         LINE#         41
  C:168BH         LINE#         42
  C:1690H         LINE#         43
  C:1697H         LINE#         44
  C:1699H         LINE#         45
  C:1699H         LINE#         46
  C:16A0H         LINE#         47
  C:16A2H         LINE#         48
  C:16A2H         LINE#         50
  C:16A9H         LINE#         51
  C:16B4H         LINE#         52
  C:16B6H         LINE#         53
  C:16B6H         LINE#         54
  C:16BDH         LINE#         55
  C:16C8H         LINE#         56
  C:16CAH         LINE#         57
  C:16CAH         LINE#         58
  C:16CBH         LINE#         59
  -------         PROC          GSMREGISTERED
  D:0007H         SYMBOL        VALUE
  -------         ENDPROC       GSMREGISTERED
  C:1931H         LINE#         69
  C:1931H         LINE#         71
  C:1931H         LINE#         74
  C:193BH         LINE#         75
  C:1946H         LINE#         76
  C:1948H         LINE#         77
  C:1948H         LINE#         78
  C:194FH         LINE#         79
  C:1951H         LINE#         80
  C:1951H         LINE#         81
  C:1954H         LINE#         82
  C:195CH         LINE#         83
  C:195EH         LINE#         84
  C:195EH         LINE#         85
  C:195FH         LINE#         86
  -------         PROC          _GSMOPERATOR
  D:0023H         SYMBOL        NAME
  -------         ENDPROC       _GSMOPERATOR
  C:17E7H         LINE#         96
  C:17EBH         LINE#         99
  C:17EBH         LINE#         100
  C:17F5H         LINE#         101
  C:1800H         LINE#         102
  C:1802H         LINE#         103
  C:1802H         LINE#         104
  C:1809H         LINE#         105
  C:180BH         LINE#         106
  C:180BH         LINE#         107
  C:1812H         LINE#         108
  C:1814H         LINE#         109
  C:1814H         LINE#         110
  C:181FH         LINE#         111
  C:1821H         LINE#         112
  C:1821H         LINE#         113
  C:1822H         LINE#         114
  -------         PROC          GSMSIGNALSTRENGTH
BL51 BANKED LINKER/LOCATER V3.70c             08/05/05  11:14:28  PAGE 38


  D:0007H         SYMBOL        VALUE
  -------         ENDPROC       GSMSIGNALSTRENGTH
  C:1C1CH         LINE#         126
  C:1C1CH         LINE#         128
  C:1C1CH         LINE#         131
  C:1C26H         LINE#         132
  C:1C31H         LINE#         133
  C:1C34H         LINE#         134
  C:1C34H         LINE#         135
  C:1C37H         LINE#         136
  C:1C37H         LINE#         137
  -------         ENDMOD        GSMBASE

  -------         MODULE        GSMSMS
  C:0000H         SYMBOL        _ICE_DUMMY_
  B:00E8H.1       PUBLIC        TMCSDA
  B:0090H.2       PUBLIC        TMCTP4
  B:00D8H.2       PUBLIC        CCF2
  B:0090H.3       PUBLIC        TMCTP5
  B:00D8H.3       PUBLIC        CCF3
  D:0080H         PUBLIC        P0
  B:00C0H.1       PUBLIC        TMCTP6
  B:00A0H.7       PUBLIC        TMCCSD
  B:00D8H.4       PUBLIC        CCF4
  D:0090H         PUBLIC        P1
  B:00C0H.2       PUBLIC        TMCTP7
  D:00A0H         PUBLIC        P2
  B:0090H.4       PUBLIC        TMCRX2
  D:00B0H         PUBLIC        P3
  B:00D0H.6       PUBLIC        AC
  D:00C0H         PUBLIC        P4
  B:00B0H.4       PUBLIC        T0
  B:00B0H.3       PUBLIC        TMCTX2
  D:00E8H         PUBLIC        P5
  B:00B0H.5       PUBLIC        T1
  C:18D4H         SYMBOL        PROMPT
  B:00C0H.4       PUBLIC        TMCTX3
  B:00A8H.7       PUBLIC        EA
  B:0090H.0       PUBLIC        T2
  B:00A0H.1       PUBLIC        TMCCLKAD
  B:0090H.6       PUBLIC        TMCSCK
  B:00A8H.6       PUBLIC        EC
  B:00A0H.5       PUBLIC        TMCSCL
  B:00D8H.7       PUBLIC        CF
  B:00B0H.7       PUBLIC        TMCCSM
  B:0098H.7       PUBLIC        FE
  B:00A0H.0       PUBLIC        TMCMAJAK
  B:00E8H.0       PUBLIC        TMCCLKDI
  B:0080H.0       PUBLIC        P0_0
  B:0090H.3       PUBLIC        CEX0
  B:0090H.0       PUBLIC        P1_0
  B:0080H.1       PUBLIC        P0_1
  B:00A0H.0       PUBLIC        P2_0
  B:0090H.4       PUBLIC        CEX1
  B:0090H.1       PUBLIC        P1_1
  B:0080H.2       PUBLIC        P0_2
  C:06FDH         PUBLIC        _SMSREAD
  B:00B0H.0       PUBLIC        P3_0
  B:00A0H.1       PUBLIC        P2_1
  B:0090H.5       PUBLIC        CEX2
  B:0090H.2       PUBLIC        P1_2
  B:0080H.3       PUBLIC        P0_3
  B:00E8H.5       PUBLIC        TMCWRD
  B:00C0H.0       PUBLIC        P4_0
  B:00B0H.1       PUBLIC        P3_1
BL51 BANKED LINKER/LOCATER V3.70c             08/05/05  11:14:28  PAGE 39


  B:00A0H.2       PUBLIC        P2_2
  B:0090H.6       PUBLIC        CEX3
  B:0090H.3       PUBLIC        P1_3
  B:0080H.4       PUBLIC        P0_4
  B:00B0H.0       PUBLIC        TMCRXD
  B:00D8H.6       PUBLIC        CR
  B:00E8H.0       PUBLIC        P5_0
  B:00C0H.1       PUBLIC        P4_1
  B:00B0H.2       PUBLIC        P3_2
  B:00A0H.3       PUBLIC        P2_3
  B:0090H.7       PUBLIC        CEX4
  B:0090H.4       PUBLIC        P1_4
  B:0080H.5       PUBLIC        P0_5
  B:00C0H.5       PUBLIC        TMCSOM
  B:00C8H.6       PUBLIC        EXF2
  B:00E8H.1       PUBLIC        P5_1
  B:00C0H.2       PUBLIC        P4_2
  B:00B0H.7       PUBLIC        RD
  B:00B0H.3       PUBLIC        P3_3
  B:00A0H.4       PUBLIC        P2_4
  B:0090H.5       PUBLIC        P1_5
  B:0080H.6       PUBLIC        P0_6
  B:00B0H.1       PUBLIC        TMCTXD
  B:00E8H.2       PUBLIC        P5_2
  B:00C0H.3       PUBLIC        P4_3
  B:00B0H.4       PUBLIC        P3_4
  B:00A0H.5       PUBLIC        P2_5
  B:0090H.6       PUBLIC        P1_6
  B:0080H.7       PUBLIC        P0_7
  B:00A8H.4       PUBLIC        ES
  B:00E8H.3       PUBLIC        P5_3
  B:00C0H.4       PUBLIC        P4_4
  B:00B0H.5       PUBLIC        P3_5
  B:00A0H.6       PUBLIC        P2_6
  B:0090H.7       PUBLIC        P1_7
  B:00D0H.1       PUBLIC        UD
  B:00E8H.4       PUBLIC        P5_4
  B:00C0H.5       PUBLIC        P4_5
  B:00B0H.6       PUBLIC        P3_6
  B:00A0H.7       PUBLIC        P2_7
  B:0080H.0       PUBLIC        TMCD0
  B:00E8H.5       PUBLIC        P5_5
  B:00C0H.6       PUBLIC        P4_6
  B:00B0H.7       PUBLIC        P3_7
  B:0080H.1       PUBLIC        TMCD1
  B:0098H.0       PUBLIC        RI
  B:00E8H.6       PUBLIC        P5_6
  B:00C0H.7       PUBLIC        P4_7
  B:0080H.2       PUBLIC        TMCD2
  B:00D0H.7       PUBLIC        CY
  B:00E8H.7       PUBLIC        P5_7
  B:00B0H.2       PUBLIC        INT0
  B:00C0H.3       PUBLIC        TMCCSPAN
  B:0080H.3       PUBLIC        TMCD3
  B:0098H.1       PUBLIC        TI
  B:00B0H.3       PUBLIC        INT1
  B:0080H.4       PUBLIC        TMCD4
  B:0080H.5       PUBLIC        TMCD5
  B:0080H.6       PUBLIC        TMCD6
  C:09E7H         PUBLIC        _SMSSEND
  B:0080H.7       PUBLIC        TMCD7
  B:00B8H.1       PUBLIC        PT0L
  B:00B0H.2       PUBLIC        TMCPENIN
  B:00B8H.3       PUBLIC        PT1L
  B:00B8H.5       PUBLIC        PT2L
BL51 BANKED LINKER/LOCATER V3.70c             08/05/05  11:14:28  PAGE 40


  B:0090H.1       PUBLIC        T2EX
  B:00B8H.0       PUBLIC        PX0L
  B:00D0H.2       PUBLIC        OV
  B:00B8H.2       PUBLIC        PX1L
  C:18E3H         SYMBOL        PDUREAD
  B:00C8H.1       PUBLIC        C_T2
  B:00B0H.6       PUBLIC        WR
  B:00A0H.3       PUBLIC        TMCOUTDI
  B:00C8H.5       PUBLIC        RCLK
  B:00C8H.4       PUBLIC        TCLK
  B:00B8H.6       PUBLIC        PPCL
  C:18CBH         SYMBOL        PDUSEND
  B:00E8H.7       PUBLIC        TMCBUZTP
  B:0088H.1       PUBLIC        IE0
  B:0088H.3       PUBLIC        IE1
  B:0090H.7       PUBLIC        TMCSI
  B:00C8H.0       PUBLIC        CP_RL2
  C:18D9H         SYMBOL        SENDOK
  B:00B0H.4       PUBLIC        TMCCSEE
  B:0090H.5       PUBLIC        TMCSO
  B:00A8H.1       PUBLIC        ET0
  B:00A8H.3       PUBLIC        ET1
  B:0088H.5       PUBLIC        TF0
  C:18ECH         SYMBOL        READHEADER
  B:00A8H.5       PUBLIC        ET2
  B:0088H.7       PUBLIC        TF1
  B:0098H.2       PUBLIC        RB8
  B:00C8H.7       PUBLIC        TF2
  B:00A8H.0       PUBLIC        EX0
  B:0088H.0       PUBLIC        IT0
  B:00A8H.2       PUBLIC        EX1
  B:0098H.3       PUBLIC        TB8
  B:0088H.2       PUBLIC        IT1
  B:00D0H.0       PUBLIC        P
  B:00B0H.5       PUBLIC        TMCCSDO
  B:0098H.7       PUBLIC        SM0
  B:0098H.6       PUBLIC        SM1
  B:0090H.2       PUBLIC        ECI
  B:0098H.5       PUBLIC        SM2
  B:00C0H.6       PUBLIC        TMCRESD
  B:00A0H.6       PUBLIC        TMCSCKM
  B:00D0H.3       PUBLIC        RS0
  C:18F6H         SYMBOL        DELETE
  B:0088H.4       PUBLIC        TR0
  B:00D0H.4       PUBLIC        RS1
  B:0088H.6       PUBLIC        TR1
  B:00C8H.2       PUBLIC        TR2
  B:00E8H.6       PUBLIC        TMCA0D
  B:00F8H.0       PUBLIC        PI2_0
  B:00F8H.1       PUBLIC        PI2_1
  B:00A0H.4       PUBLIC        TMCPISK
  B:00C8H.3       PUBLIC        EXEN2
  B:0098H.4       PUBLIC        REN
  C:000EH         PUBLIC        _SMSDELETE
  B:00E8H.3       PUBLIC        TMCSVIT
  B:00B0H.0       PUBLIC        RXD
  B:00A0H.2       PUBLIC        TMCDAD
  B:00B8H.4       PUBLIC        PLS
  B:00B0H.1       PUBLIC        TXD
  B:00E8H.2       PUBLIC        TMCLOWBAT
  B:00B0H.6       PUBLIC        TMCCS1AD
  B:00C0H.7       PUBLIC        TMCCS2AD
  B:00D0H.5       PUBLIC        F0
  B:00E8H.4       PUBLIC        TMCCSEPOT
  B:0090H.0       PUBLIC        TMCTP1
BL51 BANKED LINKER/LOCATER V3.70c             08/05/05  11:14:28  PAGE 41


  C:1DAEH         PUBLIC        SMSSENDOK
  B:00C0H.0       PUBLIC        TMCTP2
  B:00D8H.0       PUBLIC        CCF0
  B:0090H.1       PUBLIC        TMCTP3
  B:00D8H.1       PUBLIC        CCF1
  -------         PROC          _SMSSEND
  D:0023H         SYMBOL        TEXT
  D:0026H         SYMBOL        MESSAGELENGTH
  D:0027H         SYMBOL        NUMBERLENGTH
  D:0028H         SYMBOL        I
  D:0007H         SYMBOL        CH
  D:0029H         SYMBOL        SHIFT
  -------         ENDPROC       _SMSSEND
  C:09E7H         LINE#         49
  C:09EFH         LINE#         51
  C:09EFH         LINE#         57
  C:09F7H         LINE#         58
  C:09F9H         LINE#         59
  C:09F9H         LINE#         61
  C:0A00H         LINE#         62
  C:0A29H         LINE#         65
  C:0A33H         LINE#         66
  C:0A38H         LINE#         67
  C:0A3DH         LINE#         69
  C:0A48H         LINE#         70
  C:0A4AH         LINE#         71
  C:0A4AH         LINE#         73
  C:0A4FH         LINE#         74
  C:0A54H         LINE#         75
  C:0A59H         LINE#         76
  C:0A5EH         LINE#         77
  C:0A63H         LINE#         79
  C:0A6DH         LINE#         80
  C:0A79H         LINE#         81
  C:0A85H         LINE#         82
  C:0A8BH         LINE#         83
  C:0A90H         LINE#         85
  C:0A95H         LINE#         86
  C:0AA1H         LINE#         87
  C:0AA1H         LINE#         89
  C:0AA6H         LINE#         90
  C:0AABH         LINE#         91
  C:0AB0H         LINE#         92
  C:0AB5H         LINE#         94
  C:0AB8H         LINE#         95
  C:0AC1H         LINE#         96
  C:0AC6H         LINE#         97
  C:0AC9H         LINE#         98
  C:0ACBH         LINE#         99
  C:0ACBH         LINE#         100
  C:0AE7H         LINE#         101
  C:0B08H         LINE#         102
  C:0B0BH         LINE#         103
  C:0B0DH         LINE#         104
  C:0B11H         LINE#         105
  C:0B16H         LINE#         106
  C:0B1CH         LINE#         107
  C:0B22H         LINE#         108
  C:0B23H         LINE#         109
  -------         PROC          SMSSENDOK
  -------         ENDPROC       SMSSENDOK
  C:1DAEH         LINE#         115
  C:1DAEH         LINE#         117
  C:1DAEH         LINE#         118
  C:1DB9H         LINE#         119
BL51 BANKED LINKER/LOCATER V3.70c             08/05/05  11:14:28  PAGE 42


  C:1DBBH         LINE#         120
  C:1DBBH         LINE#         121
  C:1DBCH         LINE#         122
  -------         PROC          _SMSREAD
  D:0023H         SYMBOL        INDEX
  D:0024H         SYMBOL        TEXT
  D:0026H         SYMBOL        VALUE
  D:0027H         SYMBOL        NUMBERLENGTH
  D:0028H         SYMBOL        MESSAGELENGTH
  D:0029H         SYMBOL        I
  D:002AH         SYMBOL        CH
  D:002BH         SYMBOL        SHIFT
  -------         ENDPROC       _SMSREAD
  C:06FDH         LINE#         128
  C:0703H         LINE#         130
  C:0703H         LINE#         138
  C:070BH         LINE#         139
  C:070EH         LINE#         140
  C:070EH         LINE#         141
  C:0710H         LINE#         143
  C:071AH         LINE#         144
  C:071FH         LINE#         145
  C:0724H         LINE#         146
  C:072FH         LINE#         147
  C:0732H         LINE#         148
  C:0732H         LINE#         149
  C:0737H         LINE#         150
  C:073FH         LINE#         151
  C:0742H         LINE#         152
  C:0742H         LINE#         154
  C:0749H         LINE#         155
  C:074CH         LINE#         156
  C:074CH         LINE#         157
  C:0751H         LINE#         158
  C:0758H         LINE#         159
  C:075BH         LINE#         160
  C:075BH         LINE#         161
  C:075FH         LINE#         162
  C:0761H         LINE#         163
  C:0761H         LINE#         165
  C:0766H         LINE#         166
  C:076EH         LINE#         168
  C:0773H         LINE#         169
  C:0778H         LINE#         170
  C:077EH         LINE#         171
  C:0780H         LINE#         172
  C:0785H         LINE#         173
  C:0797H         LINE#         175
  C:079AH         LINE#         176
  C:079AH         LINE#         178
  C:07A4H         LINE#         179
  C:07A9H         LINE#         180
  C:07BDH         LINE#         181
  C:07D2H         LINE#         182
  C:07D8H         LINE#         183
  C:07DDH         LINE#         185
  C:07E2H         LINE#         186
  C:07F6H         LINE#         187
  C:07F6H         LINE#         188
  C:07FBH         LINE#         189
  C:0800H         LINE#         190
  C:0804H         LINE#         192
  C:0807H         LINE#         193
  C:0807H         LINE#         194
  C:080CH         LINE#         195
BL51 BANKED LINKER/LOCATER V3.70c             08/05/05  11:14:28  PAGE 43


  C:0811H         LINE#         196
  C:0814H         LINE#         197
  C:081BH         LINE#         198
  C:081EH         LINE#         199
  C:081EH         LINE#         201
  C:0823H         LINE#         202
  C:0826H         LINE#         203
  C:0829H         LINE#         204
  C:0832H         LINE#         205
  C:0841H         LINE#         206
  C:0844H         LINE#         207
  C:0848H         LINE#         208
  C:084BH         LINE#         209
  C:084BH         LINE#         210
  C:0859H         LINE#         211
  C:086CH         LINE#         212
  C:086EH         LINE#         213
  C:0873H         LINE#         214
  C:0876H         LINE#         215
  C:0878H         LINE#         216
  C:087DH         LINE#         217
  C:087DH         LINE#         218
  C:0881H         LINE#         219
  C:088EH         LINE#         220
  C:0890H         LINE#         221
  -------         PROC          _SMSDELETE
  D:0023H         SYMBOL        INDEX
  -------         ENDPROC       _SMSDELETE
  C:000EH         LINE#         227
  C:0010H         LINE#         229
  C:0010H         LINE#         230
  C:0018H         LINE#         231
  C:001AH         LINE#         232
  C:001AH         LINE#         233
  C:001CH         LINE#         234
  C:0026H         LINE#         235
  C:002BH         LINE#         236
  C:0030H         LINE#         237
  C:0031H         LINE#         238
  -------         ENDMOD        GSMSMS

  -------         MODULE        GSMDATA
  C:0000H         SYMBOL        _ICE_DUMMY_
  B:00E8H.1       PUBLIC        TMCSDA
  B:0090H.2       PUBLIC        TMCTP4
  B:00D8H.2       PUBLIC        CCF2
  B:0090H.3       PUBLIC        TMCTP5
  B:00D8H.3       PUBLIC        CCF3
  D:0080H         PUBLIC        P0
  B:00C0H.1       PUBLIC        TMCTP6
  B:00A0H.7       PUBLIC        TMCCSD
  B:00D8H.4       PUBLIC        CCF4
  D:0090H         PUBLIC        P1
  B:00C0H.2       PUBLIC        TMCTP7
  D:00A0H         PUBLIC        P2
  B:0090H.4       PUBLIC        TMCRX2
  D:00B0H         PUBLIC        P3
  B:00D0H.6       PUBLIC        AC
  D:00C0H         PUBLIC        P4
  B:00B0H.4       PUBLIC        T0
  B:00B0H.3       PUBLIC        TMCTX2
  D:00E8H         PUBLIC        P5
  B:00B0H.5       PUBLIC        T1
  B:00C0H.4       PUBLIC        TMCTX3
  B:00A8H.7       PUBLIC        EA
BL51 BANKED LINKER/LOCATER V3.70c             08/05/05  11:14:28  PAGE 44


  B:0090H.0       PUBLIC        T2
  B:00A0H.1       PUBLIC        TMCCLKAD
  B:0090H.6       PUBLIC        TMCSCK
  B:00A8H.6       PUBLIC        EC
  B:00A0H.5       PUBLIC        TMCSCL
  B:00D8H.7       PUBLIC        CF
  B:00B0H.7       PUBLIC        TMCCSM
  B:0098H.7       PUBLIC        FE
  B:00A0H.0       PUBLIC        TMCMAJAK
  B:00E8H.0       PUBLIC        TMCCLKDI
  B:0080H.0       PUBLIC        P0_0
  B:0090H.3       PUBLIC        CEX0
  B:0090H.0       PUBLIC        P1_0
  B:0080H.1       PUBLIC        P0_1
  C:1B7EH         SYMBOL        RING
  B:00A0H.0       PUBLIC        P2_0
  B:0090H.4       PUBLIC        CEX1
  B:0090H.1       PUBLIC        P1_1
  B:0080H.2       PUBLIC        P0_2
  B:00B0H.0       PUBLIC        P3_0
  B:00A0H.1       PUBLIC        P2_1
  B:0090H.5       PUBLIC        CEX2
  B:0090H.2       PUBLIC        P1_2
  B:0080H.3       PUBLIC        P0_3
  B:00E8H.5       PUBLIC        TMCWRD
  B:00C0H.0       PUBLIC        P4_0
  B:00B0H.1       PUBLIC        P3_1
  B:00A0H.2       PUBLIC        P2_2
  B:0090H.6       PUBLIC        CEX3
  B:0090H.3       PUBLIC        P1_3
  B:0080H.4       PUBLIC        P0_4
  B:00B0H.0       PUBLIC        TMCRXD
  B:00D8H.6       PUBLIC        CR
  B:00E8H.0       PUBLIC        P5_0
  B:00C0H.1       PUBLIC        P4_1
  B:00B0H.2       PUBLIC        P3_2
  B:00A0H.3       PUBLIC        P2_3
  B:0090H.7       PUBLIC        CEX4
  B:0090H.4       PUBLIC        P1_4
  B:0080H.5       PUBLIC        P0_5
  B:00C0H.5       PUBLIC        TMCSOM
  B:00C8H.6       PUBLIC        EXF2
  B:00E8H.1       PUBLIC        P5_1
  B:00C0H.2       PUBLIC        P4_2
  B:00B0H.7       PUBLIC        RD
  B:00B0H.3       PUBLIC        P3_3
  B:00A0H.4       PUBLIC        P2_4
  B:0090H.5       PUBLIC        P1_5
  B:0080H.6       PUBLIC        P0_6
  B:00B0H.1       PUBLIC        TMCTXD
  B:00E8H.2       PUBLIC        P5_2
  B:00C0H.3       PUBLIC        P4_3
  B:00B0H.4       PUBLIC        P3_4
  B:00A0H.5       PUBLIC        P2_5
  B:0090H.6       PUBLIC        P1_6
  B:0080H.7       PUBLIC        P0_7
  B:00A8H.4       PUBLIC        ES
  B:00E8H.3       PUBLIC        P5_3
  B:00C0H.4       PUBLIC        P4_4
  B:00B0H.5       PUBLIC        P3_5
  B:00A0H.6       PUBLIC        P2_6
  B:0090H.7       PUBLIC        P1_7
  B:00D0H.1       PUBLIC        UD
  B:00E8H.4       PUBLIC        P5_4
  B:00C0H.5       PUBLIC        P4_5
BL51 BANKED LINKER/LOCATER V3.70c             08/05/05  11:14:28  PAGE 45


  B:00B0H.6       PUBLIC        P3_6
  B:00A0H.7       PUBLIC        P2_7
  B:0080H.0       PUBLIC        TMCD0
  B:00E8H.5       PUBLIC        P5_5
  B:00C0H.6       PUBLIC        P4_6
  B:00B0H.7       PUBLIC        P3_7
  B:0080H.1       PUBLIC        TMCD1
  B:0098H.0       PUBLIC        RI
  B:00E8H.6       PUBLIC        P5_6
  B:00C0H.7       PUBLIC        P4_7
  B:0080H.2       PUBLIC        TMCD2
  B:00D0H.7       PUBLIC        CY
  B:00E8H.7       PUBLIC        P5_7
  B:00B0H.2       PUBLIC        INT0
  B:00C0H.3       PUBLIC        TMCCSPAN
  B:0080H.3       PUBLIC        TMCD3
  B:0098H.1       PUBLIC        TI
  B:00B0H.3       PUBLIC        INT1
  B:0080H.4       PUBLIC        TMCD4
  B:0080H.5       PUBLIC        TMCD5
  B:0080H.6       PUBLIC        TMCD6
  B:0080H.7       PUBLIC        TMCD7
  B:00B8H.1       PUBLIC        PT0L
  B:00B0H.2       PUBLIC        TMCPENIN
  B:00B8H.3       PUBLIC        PT1L
  B:00B8H.5       PUBLIC        PT2L
  B:0090H.1       PUBLIC        T2EX
  B:00B8H.0       PUBLIC        PX0L
  B:00D0H.2       PUBLIC        OV
  B:00B8H.2       PUBLIC        PX1L
  B:00C8H.1       PUBLIC        C_T2
  B:00B0H.6       PUBLIC        WR
  B:00A0H.3       PUBLIC        TMCOUTDI
  B:00C8H.5       PUBLIC        RCLK
  B:00C8H.4       PUBLIC        TCLK
  C:1B87H         SYMBOL        OFFHOOK
  B:00B8H.6       PUBLIC        PPCL
  C:1A95H         PUBLIC        GSMISRINGING
  C:1B5BH         PUBLIC        GSMDISCONNECT
  B:00E8H.7       PUBLIC        TMCBUZTP
  B:0088H.1       PUBLIC        IE0
  B:0088H.3       PUBLIC        IE1
  B:0090H.7       PUBLIC        TMCSI
  B:00C8H.0       PUBLIC        CP_RL2
  C:1B8CH         SYMBOL        HANGUP
  B:00B0H.4       PUBLIC        TMCCSEE
  B:0090H.5       PUBLIC        TMCSO
  B:00A8H.1       PUBLIC        ET0
  B:00A8H.3       PUBLIC        ET1
  B:0088H.5       PUBLIC        TF0
  B:00A8H.5       PUBLIC        ET2
  B:0088H.7       PUBLIC        TF1
  B:0098H.2       PUBLIC        RB8
  B:00C8H.7       PUBLIC        TF2
  B:00A8H.0       PUBLIC        EX0
  B:0088H.0       PUBLIC        IT0
  C:1B95H         SYMBOL        CONNECT
  B:00A8H.2       PUBLIC        EX1
  B:0098H.3       PUBLIC        TB8
  B:0088H.2       PUBLIC        IT1
  B:00D0H.0       PUBLIC        P
  B:00B0H.5       PUBLIC        TMCCSDO
  B:0098H.7       PUBLIC        SM0
  B:0098H.6       PUBLIC        SM1
  B:0090H.2       PUBLIC        ECI
BL51 BANKED LINKER/LOCATER V3.70c             08/05/05  11:14:28  PAGE 46


  B:0098H.5       PUBLIC        SM2
  B:00C0H.6       PUBLIC        TMCRESD
  B:00A0H.6       PUBLIC        TMCSCKM
  B:00D0H.3       PUBLIC        RS0
  B:0088H.4       PUBLIC        TR0
  B:00D0H.4       PUBLIC        RS1
  B:0088H.6       PUBLIC        TR1
  B:00C8H.2       PUBLIC        TR2
  C:1E22H         PUBLIC        GSMOFFHOOK
  B:00E8H.6       PUBLIC        TMCA0D
  B:00F8H.0       PUBLIC        PI2_0
  B:00F8H.1       PUBLIC        PI2_1
  B:00A0H.4       PUBLIC        TMCPISK
  C:1B91H         SYMBOL        COMMANDESC
  B:00C8H.3       PUBLIC        EXEN2
  B:0098H.4       PUBLIC        REN
  B:00E8H.3       PUBLIC        TMCSVIT
  B:00B0H.0       PUBLIC        RXD
  B:00A0H.2       PUBLIC        TMCDAD
  B:00B8H.4       PUBLIC        PLS
  B:00B0H.1       PUBLIC        TXD
  B:00E8H.2       PUBLIC        TMCLOWBAT
  B:00B0H.6       PUBLIC        TMCCS1AD
  B:00C0H.7       PUBLIC        TMCCS2AD
  B:00D0H.5       PUBLIC        F0
  B:00E8H.4       PUBLIC        TMCCSEPOT
  C:1CF7H         PUBLIC        GSMCONNECT
  B:0090H.0       PUBLIC        TMCTP1
  B:00C0H.0       PUBLIC        TMCTP2
  B:00D8H.0       PUBLIC        CCF0
  B:0090H.1       PUBLIC        TMCTP3
  B:00D8H.1       PUBLIC        CCF1
  -------         PROC          GSMISRINGING
  D:0028H         SYMBOL        CH
  D:0029H         SYMBOL        INDEX
  -------         ENDPROC       GSMISRINGING
  C:1A95H         LINE#         39
  C:1A95H         LINE#         41
  C:1A95H         LINE#         45
  C:1A98H         LINE#         46
  C:1A9FH         LINE#         47
  C:1AA9H         LINE#         48
  C:1AACH         LINE#         50
  C:1AB2H         LINE#         51
  C:1AB2H         LINE#         52
  C:1AB2H         LINE#         53
  C:1AB2H         LINE#         54
  C:1AB4H         LINE#         55
  C:1ABBH         LINE#         56
  C:1ABBH         LINE#         57
  C:1ABBH         LINE#         58
  C:1ABDH         LINE#         59
  C:1ABDH         LINE#         60
  C:1ABEH         LINE#         61
  -------         PROC          GSMOFFHOOK
  -------         ENDPROC       GSMOFFHOOK
  C:1E22H         LINE#         67
  C:1E22H         LINE#         69
  C:1E22H         LINE#         70
  C:1E2CH         LINE#         71
  -------         PROC          GSMCONNECT
  -------         ENDPROC       GSMCONNECT
  C:1CF7H         LINE#         77
  C:1CF7H         LINE#         79
  C:1CF7H         LINE#         80
BL51 BANKED LINKER/LOCATER V3.70c             08/05/05  11:14:28  PAGE 47


  C:1D02H         LINE#         81
  C:1D04H         LINE#         82
  C:1D04H         LINE#         83
  C:1D09H         LINE#         84
  C:1D0AH         LINE#         85
  -------         PROC          GSMDISCONNECT
  -------         ENDPROC       GSMDISCONNECT
  C:1B5BH         LINE#         91
  C:1B5BH         LINE#         93
  C:1B5BH         LINE#         94
  C:1B62H         LINE#         95
  C:1B6CH         LINE#         96
  C:1B73H         LINE#         97
  C:1B7DH         LINE#         98
  -------         ENDMOD        GSMDATA

  -------         MODULE        GSMCTL
  C:0000H         SYMBOL        _ICE_DUMMY_
  B:00E8H.1       PUBLIC        TMCSDA
  B:0090H.2       PUBLIC        TMCTP4
  B:00D8H.2       PUBLIC        CCF2
  B:0090H.3       PUBLIC        TMCTP5
  B:00D8H.3       PUBLIC        CCF3
  D:0080H         PUBLIC        P0
  C:051DH         PUBLIC        GSMEXECUTE
  B:00C0H.1       PUBLIC        TMCTP6
  B:00A0H.7       PUBLIC        TMCCSD
  B:00D8H.4       PUBLIC        CCF4
  D:0090H         PUBLIC        P1
  B:00C0H.2       PUBLIC        TMCTP7
  D:00A0H         PUBLIC        P2
  B:0090H.4       PUBLIC        TMCRX2
  D:00B0H         PUBLIC        P3
  B:00D0H.6       PUBLIC        AC
  D:00C0H         PUBLIC        P4
  B:00B0H.4       PUBLIC        T0
  B:00B0H.3       PUBLIC        TMCTX2
  D:00E8H         PUBLIC        P5
  B:00B0H.5       PUBLIC        T1
  B:00C0H.4       PUBLIC        TMCTX3
  B:00A8H.7       PUBLIC        EA
  B:0090H.0       PUBLIC        T2
  B:00A0H.1       PUBLIC        TMCCLKAD
  B:0090H.6       PUBLIC        TMCSCK
  B:00A8H.6       PUBLIC        EC
  B:00A0H.5       PUBLIC        TMCSCL
  B:00D8H.7       PUBLIC        CF
  B:00B0H.7       PUBLIC        TMCCSM
  B:0098H.7       PUBLIC        FE
  B:00A0H.0       PUBLIC        TMCMAJAK
  X:00E7H         PUBLIC        GSMCOUNTER
  B:00E8H.0       PUBLIC        TMCCLKDI
  B:0080H.0       PUBLIC        P0_0
  B:0090H.3       PUBLIC        CEX0
  B:0090H.0       PUBLIC        P1_0
  B:0080H.1       PUBLIC        P0_1
  B:00A0H.0       PUBLIC        P2_0
  B:0090H.4       PUBLIC        CEX1
  B:0090H.1       PUBLIC        P1_1
  B:0080H.2       PUBLIC        P0_2
  B:00B0H.0       PUBLIC        P3_0
  B:00A0H.1       PUBLIC        P2_1
  B:0090H.5       PUBLIC        CEX2
  B:0090H.2       PUBLIC        P1_2
  B:0080H.3       PUBLIC        P0_3
BL51 BANKED LINKER/LOCATER V3.70c             08/05/05  11:14:28  PAGE 48


  B:00E8H.5       PUBLIC        TMCWRD
  B:00C0H.0       PUBLIC        P4_0
  B:00B0H.1       PUBLIC        P3_1
  B:00A0H.2       PUBLIC        P2_2
  B:0090H.6       PUBLIC        CEX3
  B:0090H.3       PUBLIC        P1_3
  B:0080H.4       PUBLIC        P0_4
  B:00B0H.0       PUBLIC        TMCRXD
  B:00D8H.6       PUBLIC        CR
  B:00E8H.0       PUBLIC        P5_0
  B:00C0H.1       PUBLIC        P4_1
  B:00B0H.2       PUBLIC        P3_2
  B:00A0H.3       PUBLIC        P2_3
  B:0090H.7       PUBLIC        CEX4
  B:0090H.4       PUBLIC        P1_4
  B:0080H.5       PUBLIC        P0_5
  B:00C0H.5       PUBLIC        TMCSOM
  B:00C8H.6       PUBLIC        EXF2
  B:00E8H.1       PUBLIC        P5_1
  B:00C0H.2       PUBLIC        P4_2
  B:00B0H.7       PUBLIC        RD
  B:00B0H.3       PUBLIC        P3_3
  B:00A0H.4       PUBLIC        P2_4
  B:0090H.5       PUBLIC        P1_5
  B:0080H.6       PUBLIC        P0_6
  B:00B0H.1       PUBLIC        TMCTXD
  B:00E8H.2       PUBLIC        P5_2
  B:00C0H.3       PUBLIC        P4_3
  B:00B0H.4       PUBLIC        P3_4
  B:00A0H.5       PUBLIC        P2_5
  B:0090H.6       PUBLIC        P1_6
  B:0080H.7       PUBLIC        P0_7
  B:00A8H.4       PUBLIC        ES
  B:00E8H.3       PUBLIC        P5_3
  B:00C0H.4       PUBLIC        P4_4
  B:00B0H.5       PUBLIC        P3_5
  B:00A0H.6       PUBLIC        P2_6
  B:0090H.7       PUBLIC        P1_7
  B:00D0H.1       PUBLIC        UD
  B:00E8H.4       PUBLIC        P5_4
  B:00C0H.5       PUBLIC        P4_5
  B:00B0H.6       PUBLIC        P3_6
  B:00A0H.7       PUBLIC        P2_7
  B:0080H.0       PUBLIC        TMCD0
  B:00E8H.5       PUBLIC        P5_5
  B:00C0H.6       PUBLIC        P4_6
  B:00B0H.7       PUBLIC        P3_7
  B:0080H.1       PUBLIC        TMCD1
  B:0098H.0       PUBLIC        RI
  B:00E8H.6       PUBLIC        P5_6
  B:00C0H.7       PUBLIC        P4_7
  B:0080H.2       PUBLIC        TMCD2
  B:00D0H.7       PUBLIC        CY
  B:00E8H.7       PUBLIC        P5_7
  B:00B0H.2       PUBLIC        INT0
  B:00C0H.3       PUBLIC        TMCCSPAN
  B:0080H.3       PUBLIC        TMCD3
  B:0098H.1       PUBLIC        TI
  B:00B0H.3       PUBLIC        INT1
  B:0080H.4       PUBLIC        TMCD4
  B:0080H.5       PUBLIC        TMCD5
  B:0080H.6       PUBLIC        TMCD6
  B:0080H.7       PUBLIC        TMCD7
  B:00B8H.1       PUBLIC        PT0L
  B:00B0H.2       PUBLIC        TMCPENIN
BL51 BANKED LINKER/LOCATER V3.70c             08/05/05  11:14:28  PAGE 49


  B:00B8H.3       PUBLIC        PT1L
  B:00B8H.5       PUBLIC        PT2L
  B:0090H.1       PUBLIC        T2EX
  B:00B8H.0       PUBLIC        PX0L
  B:00D0H.2       PUBLIC        OV
  B:00B8H.2       PUBLIC        PX1L
  B:00C8H.1       PUBLIC        C_T2
  B:00B0H.6       PUBLIC        WR
  B:00A0H.3       PUBLIC        TMCOUTDI
  B:00C8H.5       PUBLIC        RCLK
  B:00C8H.4       PUBLIC        TCLK
  B:00B8H.6       PUBLIC        PPCL
  X:00E8H         PUBLIC        GSMSTATUS
  B:00E8H.7       PUBLIC        TMCBUZTP
  B:0088H.1       PUBLIC        IE0
  B:0088H.3       PUBLIC        IE1
  B:0090H.7       PUBLIC        TMCSI
  B:00C8H.0       PUBLIC        CP_RL2
  B:00B0H.4       PUBLIC        TMCCSEE
  B:0090H.5       PUBLIC        TMCSO
  B:00A8H.1       PUBLIC        ET0
  B:00A8H.3       PUBLIC        ET1
  B:0088H.5       PUBLIC        TF0
  B:00A8H.5       PUBLIC        ET2
  B:0088H.7       PUBLIC        TF1
  B:0098H.2       PUBLIC        RB8
  B:00C8H.7       PUBLIC        TF2
  B:00A8H.0       PUBLIC        EX0
  B:0088H.0       PUBLIC        IT0
  B:00A8H.2       PUBLIC        EX1
  B:0098H.3       PUBLIC        TB8
  B:0088H.2       PUBLIC        IT1
  B:00D0H.0       PUBLIC        P
  B:00B0H.5       PUBLIC        TMCCSDO
  B:0098H.7       PUBLIC        SM0
  B:0098H.6       PUBLIC        SM1
  B:0090H.2       PUBLIC        ECI
  B:0098H.5       PUBLIC        SM2
  B:00C0H.6       PUBLIC        TMCRESD
  B:00A0H.6       PUBLIC        TMCSCKM
  B:00D0H.3       PUBLIC        RS0
  B:0088H.4       PUBLIC        TR0
  B:00D0H.4       PUBLIC        RS1
  B:0088H.6       PUBLIC        TR1
  B:00C8H.2       PUBLIC        TR2
  B:00E8H.6       PUBLIC        TMCA0D
  B:00F8H.0       PUBLIC        PI2_0
  B:00F8H.1       PUBLIC        PI2_1
  B:00A0H.4       PUBLIC        TMCPISK
  B:00C8H.3       PUBLIC        EXEN2
  B:0098H.4       PUBLIC        REN
  B:00E8H.3       PUBLIC        TMCSVIT
  B:00B0H.0       PUBLIC        RXD
  B:00A0H.2       PUBLIC        TMCDAD
  B:00B8H.4       PUBLIC        PLS
  B:00B0H.1       PUBLIC        TXD
  B:00E8H.2       PUBLIC        TMCLOWBAT
  B:00B0H.6       PUBLIC        TMCCS1AD
  B:00C0H.7       PUBLIC        TMCCS2AD
  B:00D0H.5       PUBLIC        F0
  B:00E8H.4       PUBLIC        TMCCSEPOT
  B:0090H.0       PUBLIC        TMCTP1
  B:00C0H.0       PUBLIC        TMCTP2
  B:00D8H.0       PUBLIC        CCF0
  B:0090H.1       PUBLIC        TMCTP3
BL51 BANKED LINKER/LOCATER V3.70c             08/05/05  11:14:28  PAGE 50


  B:00D8H.1       PUBLIC        CCF1
  -------         PROC          GSMEXECUTE
  D:0023H         SYMBOL        CMD
  D:0024H         SYMBOL        DATA
  -------         ENDPROC       GSMEXECUTE
  C:051DH         LINE#         48
  C:051DH         LINE#         50
  C:051DH         LINE#         54
  C:0541H         LINE#         55
  C:0541H         LINE#         56
  C:054DH         LINE#         57
  C:0555H         LINE#         59
  C:0555H         LINE#         60
  C:055BH         LINE#         61
  C:055CH         LINE#         63
  C:055CH         LINE#         64
  C:0568H         LINE#         65
  C:056DH         LINE#         66
  C:0574H         LINE#         68
  C:0574H         LINE#         69
  C:057AH         LINE#         70
  C:0580H         LINE#         71
  C:0581H         LINE#         73
  C:0581H         LINE#         74
  C:059CH         LINE#         75
  C:05A4H         LINE#         76
  C:05A9H         LINE#         78
  C:05A9H         LINE#         79
  C:05B1H         LINE#         81
  C:05B1H         LINE#         83
  C:05BDH         LINE#         84
  C:05C0H         LINE#         85
  C:05C6H         LINE#         86
  C:05CCH         LINE#         87
  C:05CDH         LINE#         89
  C:05CDH         LINE#         90
  C:05E8H         LINE#         91
  C:05F0H         LINE#         92
  C:05FCH         LINE#         93
  C:05FFH         LINE#         94
  C:0606H         LINE#         96
  C:0606H         LINE#         97
  C:060EH         LINE#         99
  C:060EH         LINE#         100
  C:061AH         LINE#         101
  C:0620H         LINE#         102
  C:0626H         LINE#         103
  C:0627H         LINE#         105
  C:0627H         LINE#         106
  C:0642H         LINE#         107
  C:064AH         LINE#         108
  C:0656H         LINE#         109
  C:0659H         LINE#         110
  C:0660H         LINE#         112
  C:0660H         LINE#         113
  C:066CH         LINE#         115
  C:066CH         LINE#         116
  C:0684H         LINE#         117
  C:068AH         LINE#         118
  C:069BH         LINE#         119
  C:069CH         LINE#         122
  C:069CH         LINE#         123
  C:06B7H         LINE#         124
  C:06BFH         LINE#         125
  C:06CBH         LINE#         126
BL51 BANKED LINKER/LOCATER V3.70c             08/05/05  11:14:28  PAGE 51


  C:06CEH         LINE#         127
  C:06D5H         LINE#         129
  C:06D5H         LINE#         130
  C:06DAH         LINE#         132
  C:06DAH         LINE#         133
  C:06E6H         LINE#         134
  C:06E9H         LINE#         135
  C:06EFH         LINE#         136
  C:06F0H         LINE#         139
  C:06F0H         LINE#         140
  C:06F0H         LINE#         141
  C:06FCH         LINE#         143
  C:06FCH         LINE#         144
  -------         ENDMOD        GSMCTL

  -------         MODULE        COM2PKT
  C:0000H         SYMBOL        _ICE_DUMMY_
  B:00E8H.1       PUBLIC        TMCSDA
  B:0090H.2       PUBLIC        TMCTP4
  B:00D8H.2       PUBLIC        CCF2
  B:0090H.3       PUBLIC        TMCTP5
  B:00D8H.3       PUBLIC        CCF3
  D:0080H         PUBLIC        P0
  C:19EBH         PUBLIC        _COM2TXBLOCKSTART
  B:00C0H.1       PUBLIC        TMCTP6
  B:00A0H.7       PUBLIC        TMCCSD
  B:00D8H.4       PUBLIC        CCF4
  D:0090H         PUBLIC        P1
  B:00C0H.2       PUBLIC        TMCTP7
  D:00A0H         PUBLIC        P2
  B:0090H.4       PUBLIC        TMCRX2
  D:00B0H         PUBLIC        P3
  B:00D0H.6       PUBLIC        AC
  D:00C0H         PUBLIC        P4
  B:00B0H.4       PUBLIC        T0
  B:00B0H.3       PUBLIC        TMCTX2
  D:00E8H         PUBLIC        P5
  B:00B0H.5       PUBLIC        T1
  C:1E0BH         PUBLIC        _COM2TXBLOCKBYTE
  B:00C0H.4       PUBLIC        TMCTX3
  B:00A8H.7       PUBLIC        EA
  B:0090H.0       PUBLIC        T2
  B:00A0H.1       PUBLIC        TMCCLKAD
  B:0090H.6       PUBLIC        TMCSCK
  B:00A8H.6       PUBLIC        EC
  B:00A0H.5       PUBLIC        TMCSCL
  B:00D8H.7       PUBLIC        CF
  B:00B0H.7       PUBLIC        TMCCSM
  B:0098H.7       PUBLIC        FE
  B:00A0H.0       PUBLIC        TMCMAJAK
  B:00E8H.0       PUBLIC        TMCCLKDI
  B:0080H.0       PUBLIC        P0_0
  B:0090H.3       PUBLIC        CEX0
  B:0090H.0       PUBLIC        P1_0
  B:0080H.1       PUBLIC        P0_1
  B:00A0H.0       PUBLIC        P2_0
  B:0090H.4       PUBLIC        CEX1
  B:0090H.1       PUBLIC        P1_1
  B:0080H.2       PUBLIC        P0_2
  B:00B0H.0       PUBLIC        P3_0
  B:00A0H.1       PUBLIC        P2_1
  B:0090H.5       PUBLIC        CEX2
  B:0090H.2       PUBLIC        P1_2
  B:0080H.3       PUBLIC        P0_3
  B:00E8H.5       PUBLIC        TMCWRD
BL51 BANKED LINKER/LOCATER V3.70c             08/05/05  11:14:28  PAGE 52


  B:00C0H.0       PUBLIC        P4_0
  B:00B0H.1       PUBLIC        P3_1
  B:00A0H.2       PUBLIC        P2_2
  B:0090H.6       PUBLIC        CEX3
  B:0090H.3       PUBLIC        P1_3
  B:0080H.4       PUBLIC        P0_4
  B:00B0H.0       PUBLIC        TMCRXD
  B:00D8H.6       PUBLIC        CR
  B:00E8H.0       PUBLIC        P5_0
  B:00C0H.1       PUBLIC        P4_1
  B:00B0H.2       PUBLIC        P3_2
  B:00A0H.3       PUBLIC        P2_3
  B:0090H.7       PUBLIC        CEX4
  B:0090H.4       PUBLIC        P1_4
  B:0080H.5       PUBLIC        P0_5
  B:00C0H.5       PUBLIC        TMCSOM
  B:00C8H.6       PUBLIC        EXF2
  B:00E8H.1       PUBLIC        P5_1
  B:00C0H.2       PUBLIC        P4_2
  B:00B0H.7       PUBLIC        RD
  B:00B0H.3       PUBLIC        P3_3
  B:00A0H.4       PUBLIC        P2_4
  B:0090H.5       PUBLIC        P1_5
  B:0080H.6       PUBLIC        P0_6
  B:00B0H.1       PUBLIC        TMCTXD
  B:00E8H.2       PUBLIC        P5_2
  B:00C0H.3       PUBLIC        P4_3
  B:00B0H.4       PUBLIC        P3_4
  B:00A0H.5       PUBLIC        P2_5
  B:0090H.6       PUBLIC        P1_6
  B:0080H.7       PUBLIC        P0_7
  B:00A8H.4       PUBLIC        ES
  B:00E8H.3       PUBLIC        P5_3
  B:00C0H.4       PUBLIC        P4_4
  B:00B0H.5       PUBLIC        P3_5
  B:00A0H.6       PUBLIC        P2_6
  B:0090H.7       PUBLIC        P1_7
  B:00D0H.1       PUBLIC        UD
  B:00E8H.4       PUBLIC        P5_4
  B:00C0H.5       PUBLIC        P4_5
  B:00B0H.6       PUBLIC        P3_6
  B:00A0H.7       PUBLIC        P2_7
  B:0080H.0       PUBLIC        TMCD0
  B:00E8H.5       PUBLIC        P5_5
  B:00C0H.6       PUBLIC        P4_6
  B:00B0H.7       PUBLIC        P3_7
  B:0080H.1       PUBLIC        TMCD1
  B:0098H.0       PUBLIC        RI
  B:00E8H.6       PUBLIC        P5_6
  B:00C0H.7       PUBLIC        P4_7
  B:0080H.2       PUBLIC        TMCD2
  B:00D0H.7       PUBLIC        CY
  B:00E8H.7       PUBLIC        P5_7
  B:00B0H.2       PUBLIC        INT0
  B:00C0H.3       PUBLIC        TMCCSPAN
  B:0080H.3       PUBLIC        TMCD3
  B:0098H.1       PUBLIC        TI
  B:00B0H.3       PUBLIC        INT1
  B:0080H.4       PUBLIC        TMCD4
  B:0080H.5       PUBLIC        TMCD5
  B:0080H.6       PUBLIC        TMCD6
  B:0080H.7       PUBLIC        TMCD7
  B:00B8H.1       PUBLIC        PT0L
  B:00B0H.2       PUBLIC        TMCPENIN
  B:00B8H.3       PUBLIC        PT1L
BL51 BANKED LINKER/LOCATER V3.70c             08/05/05  11:14:28  PAGE 53


  B:00B8H.5       PUBLIC        PT2L
  B:0090H.1       PUBLIC        T2EX
  B:00B8H.0       PUBLIC        PX0L
  B:00D0H.2       PUBLIC        OV
  B:00B8H.2       PUBLIC        PX1L
  C:1DD7H         PUBLIC        COM2TXBLOCKEND
  B:00C8H.1       PUBLIC        C_T2
  B:00B0H.6       PUBLIC        WR
  B:00A0H.3       PUBLIC        TMCOUTDI
  B:00C8H.5       PUBLIC        RCLK
  B:00C8H.4       PUBLIC        TCLK
  B:00B8H.6       PUBLIC        PPCL
  D:001FH         PUBLIC        _COM_DATA_CRC
  B:00E8H.7       PUBLIC        TMCBUZTP
  B:0088H.1       PUBLIC        IE0
  B:0088H.3       PUBLIC        IE1
  B:0090H.7       PUBLIC        TMCSI
  B:00C8H.0       PUBLIC        CP_RL2
  B:00B0H.4       PUBLIC        TMCCSEE
  B:0090H.5       PUBLIC        TMCSO
  B:00A8H.1       PUBLIC        ET0
  B:00A8H.3       PUBLIC        ET1
  B:0088H.5       PUBLIC        TF0
  B:00A8H.5       PUBLIC        ET2
  B:0088H.7       PUBLIC        TF1
  B:0098H.2       PUBLIC        RB8
  B:00C8H.7       PUBLIC        TF2
  B:00A8H.0       PUBLIC        EX0
  B:0088H.0       PUBLIC        IT0
  B:00A8H.2       PUBLIC        EX1
  B:0098H.3       PUBLIC        TB8
  B:0088H.2       PUBLIC        IT1
  B:00D0H.0       PUBLIC        P
  B:00B0H.5       PUBLIC        TMCCSDO
  B:0098H.7       PUBLIC        SM0
  B:0098H.6       PUBLIC        SM1
  B:0090H.2       PUBLIC        ECI
  B:0098H.5       PUBLIC        SM2
  B:00C0H.6       PUBLIC        TMCRESD
  B:00A0H.6       PUBLIC        TMCSCKM
  B:00D0H.3       PUBLIC        RS0
  B:0088H.4       PUBLIC        TR0
  B:00D0H.4       PUBLIC        RS1
  B:0088H.6       PUBLIC        TR1
  B:00C8H.2       PUBLIC        TR2
  C:1040H         PUBLIC        _COM2RXPACKET
  B:00E8H.6       PUBLIC        TMCA0D
  B:00F8H.0       PUBLIC        PI2_0
  C:1590H         PUBLIC        _COM2TXPACKET
  B:00F8H.1       PUBLIC        PI2_1
  B:00A0H.4       PUBLIC        TMCPISK
  B:00C8H.3       PUBLIC        EXEN2
  B:0098H.4       PUBLIC        REN
  B:00E8H.3       PUBLIC        TMCSVIT
  B:00B0H.0       PUBLIC        RXD
  B:00A0H.2       PUBLIC        TMCDAD
  B:00B8H.4       PUBLIC        PLS
  B:00B0H.1       PUBLIC        TXD
  B:00E8H.2       PUBLIC        TMCLOWBAT
  B:00B0H.6       PUBLIC        TMCCS1AD
  B:00C0H.7       PUBLIC        TMCCS2AD
  B:00D0H.5       PUBLIC        F0
  B:00E8H.4       PUBLIC        TMCCSEPOT
  B:0090H.0       PUBLIC        TMCTP1
  B:00C0H.0       PUBLIC        TMCTP2
BL51 BANKED LINKER/LOCATER V3.70c             08/05/05  11:14:28  PAGE 54


  B:00D8H.0       PUBLIC        CCF0
  B:0090H.1       PUBLIC        TMCTP3
  B:00D8H.1       PUBLIC        CCF1
  -------         PROC          _COM2RXPACKET
  D:0028H         SYMBOL        CMD
  D:0029H         SYMBOL        ARG
  D:002AH         SYMBOL        DC
  D:002EH         SYMBOL        B
  D:002FH         SYMBOL        CRC
  -------         ENDPROC       _COM2RXPACKET
  C:1040H         LINE#         47
  C:1044H         LINE#         50
  C:1044H         LINE#         55
  C:104BH         LINE#         56
  C:104DH         LINE#         57
  C:104DH         LINE#         58
  C:1052H         LINE#         59
  C:1058H         LINE#         60
  C:105BH         LINE#         61
  C:105DH         LINE#         62
  C:105DH         LINE#         63
  C:1064H         LINE#         64
  C:1066H         LINE#         65
  C:1066H         LINE#         66
  C:1069H         LINE#         67
  C:106DH         LINE#         68
  C:1074H         LINE#         69
  C:1076H         LINE#         70
  C:1076H         LINE#         71
  C:107CH         LINE#         72
  C:107FH         LINE#         73
  C:1086H         LINE#         74
  C:1088H         LINE#         75
  C:1088H         LINE#         76
  C:108EH         LINE#         77
  C:1091H         LINE#         78
  C:1098H         LINE#         79
  C:109AH         LINE#         80
  C:109AH         LINE#         81
  C:10A0H         LINE#         82
  C:10A3H         LINE#         83
  C:10AAH         LINE#         84
  C:10ACH         LINE#         85
  C:10ACH         LINE#         86
  C:10B2H         LINE#         87
  C:10B5H         LINE#         88
  C:10C2H         LINE#         89
  C:10C9H         LINE#         90
  C:10CBH         LINE#         91
  C:10CBH         LINE#         92
  C:10D2H         LINE#         93
  C:10D4H         LINE#         94
  C:10D4H         LINE#         95
  C:10DBH         LINE#         96
  C:10DDH         LINE#         97
  C:10DDH         LINE#         98
  C:10E3H         LINE#         99
  C:10E5H         LINE#         100
  C:10E5H         LINE#         101
  C:10E6H         LINE#         102
  -------         PROC          _COM2TXPACKET
  D:0032H         SYMBOL        CMD
  D:0033H         SYMBOL        ARG
  D:0037H         SYMBOL        DC
  D:003BH         SYMBOL        CRC
BL51 BANKED LINKER/LOCATER V3.70c             08/05/05  11:14:28  PAGE 55


  -------         ENDPROC       _COM2TXPACKET
  C:1590H         LINE#         108
  C:1592H         LINE#         110
  C:1592H         LINE#         114
  C:15A1H         LINE#         115
  C:15A6H         LINE#         116
  C:15A9H         LINE#         117
  C:15AFH         LINE#         118
  C:15B3H         LINE#         119
  C:15B7H         LINE#         120
  C:15BBH         LINE#         121
  C:15C0H         LINE#         122
  C:15C5H         LINE#         123
  C:15CAH         LINE#         124
  C:15CFH         LINE#         125
  C:15D4H         LINE#         126
  C:15DBH         LINE#         127
  C:15E0H         LINE#         128
  -------         PROC          _COM2TXBLOCKSTART
  D:0032H         SYMBOL        SIZE
  -------         ENDPROC       _COM2TXBLOCKSTART
  C:19EBH         LINE#         138
  C:19EFH         LINE#         140
  C:19EFH         LINE#         141
  C:19F4H         LINE#         142
  C:19FBH         LINE#         143
  C:1A01H         LINE#         144
  C:1A08H         LINE#         145
  C:1A0EH         LINE#         146
  C:1A13H         LINE#         147
  C:1A16H         LINE#         148
  -------         PROC          _COM2TXBLOCKBYTE
  D:0032H         SYMBOL        B
  -------         ENDPROC       _COM2TXBLOCKBYTE
  C:1E0BH         LINE#         150
  C:1E0DH         LINE#         152
  C:1E0DH         LINE#         153
  C:1E10H         LINE#         154
  C:1E16H         LINE#         155
  -------         PROC          COM2TXBLOCKEND
  -------         ENDPROC       COM2TXBLOCKEND
  C:1DD7H         LINE#         162
  C:1DD7H         LINE#         164
  C:1DD7H         LINE#         165
  C:1DDEH         LINE#         166
  C:1DE3H         LINE#         167
  -------         ENDMOD        COM2PKT

  -------         MODULE        X25645
  C:0000H         SYMBOL        _ICE_DUMMY_
  B:00E8H.1       PUBLIC        TMCSDA
  B:0090H.2       PUBLIC        TMCTP4
  B:00D8H.2       PUBLIC        CCF2
  B:0090H.3       PUBLIC        TMCTP5
  B:00D8H.3       PUBLIC        CCF3
  D:0080H         PUBLIC        P0
  B:00C0H.1       PUBLIC        TMCTP6
  B:00A0H.7       PUBLIC        TMCCSD
  B:00D8H.4       PUBLIC        CCF4
  D:0090H         PUBLIC        P1
  B:00C0H.2       PUBLIC        TMCTP7
  D:00A0H         PUBLIC        P2
  B:0090H.4       PUBLIC        TMCRX2
  D:00B0H         PUBLIC        P3
  B:00D0H.6       PUBLIC        AC
BL51 BANKED LINKER/LOCATER V3.70c             08/05/05  11:14:28  PAGE 56


  D:00C0H         PUBLIC        P4
  B:00B0H.4       PUBLIC        T0
  B:00B0H.3       PUBLIC        TMCTX2
  D:00E8H         PUBLIC        P5
  B:00B0H.5       PUBLIC        T1
  B:00C0H.4       PUBLIC        TMCTX3
  B:00A8H.7       PUBLIC        EA
  B:0090H.0       PUBLIC        T2
  B:00A0H.1       PUBLIC        TMCCLKAD
  B:0090H.6       PUBLIC        TMCSCK
  B:00A8H.6       PUBLIC        EC
  B:00A0H.5       PUBLIC        TMCSCL
  B:00D8H.7       PUBLIC        CF
  B:00B0H.7       PUBLIC        TMCCSM
  B:0098H.7       PUBLIC        FE
  B:00A0H.0       PUBLIC        TMCMAJAK
  B:00E8H.0       PUBLIC        TMCCLKDI
  B:0080H.0       PUBLIC        P0_0
  B:0090H.3       PUBLIC        CEX0
  B:0090H.0       PUBLIC        P1_0
  B:0080H.1       PUBLIC        P0_1
  B:00A0H.0       PUBLIC        P2_0
  B:0090H.4       PUBLIC        CEX1
  B:0090H.1       PUBLIC        P1_1
  B:0080H.2       PUBLIC        P0_2
  B:00B0H.0       PUBLIC        P3_0
  B:00A0H.1       PUBLIC        P2_1
  B:0090H.5       PUBLIC        CEX2
  B:0090H.2       PUBLIC        P1_2
  B:0080H.3       PUBLIC        P0_3
  B:00E8H.5       PUBLIC        TMCWRD
  B:00C0H.0       PUBLIC        P4_0
  B:00B0H.1       PUBLIC        P3_1
  B:00A0H.2       PUBLIC        P2_2
  B:0090H.6       PUBLIC        CEX3
  B:0090H.3       PUBLIC        P1_3
  B:0080H.4       PUBLIC        P0_4
  B:00B0H.0       PUBLIC        TMCRXD
  B:00D8H.6       PUBLIC        CR
  B:00E8H.0       PUBLIC        P5_0
  B:00C0H.1       PUBLIC        P4_1
  B:00B0H.2       PUBLIC        P3_2
  B:00A0H.3       PUBLIC        P2_3
  B:0090H.7       PUBLIC        CEX4
  B:0090H.4       PUBLIC        P1_4
  B:0080H.5       PUBLIC        P0_5
  B:00C0H.5       PUBLIC        TMCSOM
  B:00C8H.6       PUBLIC        EXF2
  B:00E8H.1       PUBLIC        P5_1
  B:00C0H.2       PUBLIC        P4_2
  B:00B0H.7       PUBLIC        RD
  B:00B0H.3       PUBLIC        P3_3
  B:00A0H.4       PUBLIC        P2_4
  B:0090H.5       PUBLIC        P1_5
  B:0080H.6       PUBLIC        P0_6
  B:00B0H.1       PUBLIC        TMCTXD
  B:00E8H.2       PUBLIC        P5_2
  B:00C0H.3       PUBLIC        P4_3
  B:00B0H.4       PUBLIC        P3_4
  B:00A0H.5       PUBLIC        P2_5
  B:0090H.6       PUBLIC        P1_6
  B:0080H.7       PUBLIC        P0_7
  B:00A8H.4       PUBLIC        ES
  B:00E8H.3       PUBLIC        P5_3
  B:00C0H.4       PUBLIC        P4_4
BL51 BANKED LINKER/LOCATER V3.70c             08/05/05  11:14:28  PAGE 57


  B:00B0H.5       PUBLIC        P3_5
  B:00A0H.6       PUBLIC        P2_6
  B:0090H.7       PUBLIC        P1_7
  B:00D0H.1       PUBLIC        UD
  B:00E8H.4       PUBLIC        P5_4
  B:00C0H.5       PUBLIC        P4_5
  B:00B0H.6       PUBLIC        P3_6
  B:00A0H.7       PUBLIC        P2_7
  B:0080H.0       PUBLIC        TMCD0
  B:00E8H.5       PUBLIC        P5_5
  B:00C0H.6       PUBLIC        P4_6
  B:00B0H.7       PUBLIC        P3_7
  B:0080H.1       PUBLIC        TMCD1
  B:0098H.0       PUBLIC        RI
  B:00E8H.6       PUBLIC        P5_6
  B:00C0H.7       PUBLIC        P4_7
  C:1ABFH         PUBLIC        _EEPPAGEWRITESTART
  B:0080H.2       PUBLIC        TMCD2
  B:00D0H.7       PUBLIC        CY
  B:00E8H.7       PUBLIC        P5_7
  B:00B0H.2       PUBLIC        INT0
  B:00C0H.3       PUBLIC        TMCCSPAN
  B:0080H.3       PUBLIC        TMCD3
  B:0098H.1       PUBLIC        TI
  B:00B0H.3       PUBLIC        INT1
  B:0080H.4       PUBLIC        TMCD4
  B:0080H.5       PUBLIC        TMCD5
  B:0080H.6       PUBLIC        TMCD6
  B:0080H.7       PUBLIC        TMCD7
  B:00B8H.1       PUBLIC        PT0L
  B:00B0H.2       PUBLIC        TMCPENIN
  B:00B8H.3       PUBLIC        PT1L
  B:00B8H.5       PUBLIC        PT2L
  B:0090H.1       PUBLIC        T2EX
  B:00B8H.0       PUBLIC        PX0L
  B:00D0H.2       PUBLIC        OV
  C:1C9CH         SYMBOL        _WRSRCMD
  B:00B8H.2       PUBLIC        PX1L
  B:00C8H.1       PUBLIC        C_T2
  B:00B0H.6       PUBLIC        WR
  B:00A0H.3       PUBLIC        TMCOUTDI
  B:00C8H.5       PUBLIC        RCLK
  B:00C8H.4       PUBLIC        TCLK
  B:00B8H.6       PUBLIC        PPCL
  C:1D0BH         PUBLIC        EEPINIT
  C:1D1FH         SYMBOL        RSDRCMD
  C:1D7EH         SYMBOL        WRENCMD
  B:00E8H.7       PUBLIC        TMCBUZTP
  B:0088H.1       PUBLIC        IE0
  B:0088H.3       PUBLIC        IE1
  B:0090H.7       PUBLIC        TMCSI
  C:1DE4H         PUBLIC        EEPSTOP
  B:00C8H.0       PUBLIC        CP_RL2
  B:00B0H.4       PUBLIC        TMCCSEE
  B:0090H.5       PUBLIC        TMCSO
  B:00A8H.1       PUBLIC        ET0
  B:00A8H.3       PUBLIC        ET1
  B:0088H.5       PUBLIC        TF0
  C:1E38H         SYMBOL        WIPPOLL
  B:00A8H.5       PUBLIC        ET2
  B:0088H.7       PUBLIC        TF1
  B:0098H.2       PUBLIC        RB8
  B:00C8H.7       PUBLIC        TF2
  C:1D59H         PUBLIC        _EEPRAWWRITEBYTE
  B:00A8H.0       PUBLIC        EX0
BL51 BANKED LINKER/LOCATER V3.70c             08/05/05  11:14:28  PAGE 58


  B:0088H.0       PUBLIC        IT0
  B:00A8H.2       PUBLIC        EX1
  B:0098H.3       PUBLIC        TB8
  B:0088H.2       PUBLIC        IT1
  B:00D0H.0       PUBLIC        P
  B:00B0H.5       PUBLIC        TMCCSDO
  B:0098H.7       PUBLIC        SM0
  B:0098H.6       PUBLIC        SM1
  B:0090H.2       PUBLIC        ECI
  B:0098H.5       PUBLIC        SM2
  B:00C0H.6       PUBLIC        TMCRESD
  B:00A0H.6       PUBLIC        TMCSCKM
  B:00D0H.3       PUBLIC        RS0
  B:0088H.4       PUBLIC        TR0
  B:00D0H.4       PUBLIC        RS1
  B:0088H.6       PUBLIC        TR1
  B:00C8H.2       PUBLIC        TR2
  B:00E8H.6       PUBLIC        TMCA0D
  B:00F8H.0       PUBLIC        PI2_0
  B:00F8H.1       PUBLIC        PI2_1
  C:1CCCH         PUBLIC        EEPRAWREADBYTE
  B:00A0H.4       PUBLIC        TMCPISK
  B:00C8H.3       PUBLIC        EXEN2
  B:0098H.4       PUBLIC        REN
  B:00E8H.3       PUBLIC        TMCSVIT
  B:00B0H.0       PUBLIC        RXD
  B:00A0H.2       PUBLIC        TMCDAD
  B:00B8H.4       PUBLIC        PLS
  B:00B0H.1       PUBLIC        TXD
  B:00E8H.2       PUBLIC        TMCLOWBAT
  B:00B0H.6       PUBLIC        TMCCS1AD
  B:00C0H.7       PUBLIC        TMCCS2AD
  B:00D0H.5       PUBLIC        F0
  B:00E8H.4       PUBLIC        TMCCSEPOT
  C:1BDFH         PUBLIC        _EEPBLOCKREADSTART
  B:0090H.0       PUBLIC        TMCTP1
  B:00C0H.0       PUBLIC        TMCTP2
  B:00D8H.0       PUBLIC        CCF0
  B:0090H.1       PUBLIC        TMCTP3
  B:00D8H.1       PUBLIC        CCF1
  -------         PROC          EEPINIT
  -------         ENDPROC       EEPINIT
  C:1D0BH         LINE#         67
  C:1D0BH         LINE#         69
  C:1D0DH         LINE#         70
  C:1D0FH         LINE#         71
  C:1D11H         LINE#         72
  C:1D13H         LINE#         74
  C:1D16H         LINE#         75
  C:1D19H         LINE#         76
  C:1D1EH         LINE#         77
  -------         PROC          _EEPBLOCKREADSTART
  D:0032H         SYMBOL        ADDRESS
  -------         ENDPROC       _EEPBLOCKREADSTART
  C:1BDFH         LINE#         101
  C:1BE3H         LINE#         103
  C:1BE3H         LINE#         104
  C:1BE6H         LINE#         105
  C:1BECH         LINE#         106
  C:1BEEH         LINE#         107
  C:1BF3H         LINE#         108
  C:1BF9H         LINE#         109
  C:1BFEH         LINE#         110
  -------         PROC          EEPSTOP
  -------         ENDPROC       EEPSTOP
BL51 BANKED LINKER/LOCATER V3.70c             08/05/05  11:14:28  PAGE 59


  C:1DE4H         LINE#         116
  C:1DE4H         LINE#         118
  C:1DE4H         LINE#         119
  C:1DE6H         LINE#         120
  C:1DE7H         LINE#         121
  C:1DE9H         LINE#         122
  C:1DEAH         LINE#         124
  C:1DF0H         LINE#         125
  -------         PROC          _EEPPAGEWRITESTART
  D:0023H         SYMBOL        ADDRESS
  -------         ENDPROC       _EEPPAGEWRITESTART
  C:1ABFH         LINE#         150
  C:1AC3H         LINE#         152
  C:1AC3H         LINE#         153
  C:1AC6H         LINE#         154
  C:1AC8H         LINE#         155
  C:1AC8H         LINE#         156
  C:1ACBH         LINE#         157
  C:1ACEH         LINE#         158
  C:1AD4H         LINE#         159
  C:1AD6H         LINE#         160
  C:1ADBH         LINE#         161
  C:1AE1H         LINE#         162
  C:1AE6H         LINE#         163
  C:1AE7H         LINE#         164
  -------         PROC          WRENCMD
  -------         ENDPROC       WRENCMD
  C:1D7EH         LINE#         170
  C:1D7EH         LINE#         172
  C:1D84H         LINE#         173
  C:1D86H         LINE#         174
  C:1D8BH         LINE#         175
  C:1D8EH         LINE#         176
  -------         PROC          RSDRCMD
  D:0007H         SYMBOL        VALUE
  -------         ENDPROC       RSDRCMD
  C:1D1FH         LINE#         183
  C:1D1FH         LINE#         185
  C:1D1FH         LINE#         186
  C:1D25H         LINE#         187
  C:1D27H         LINE#         188
  C:1D2CH         LINE#         189
  C:1D2FH         LINE#         190
  C:1D32H         LINE#         191
  C:1D32H         LINE#         192
  -------         PROC          _WRSRCMD
  D:0023H         SYMBOL        VALUE
  -------         ENDPROC       _WRSRCMD
  C:1C9CH         LINE#         198
  C:1C9EH         LINE#         200
  C:1CA4H         LINE#         201
  C:1CA6H         LINE#         202
  C:1CABH         LINE#         203
  C:1CB0H         LINE#         204
  C:1CB3H         LINE#         205
  -------         PROC          WIPPOLL
  -------         ENDPROC       WIPPOLL
  C:1E38H         LINE#         211
  C:1E38H         LINE#         213
  C:1E3FH         LINE#         214
  -------         PROC          _EEPRAWWRITEBYTE
  D:0007H         SYMBOL        VALUE
  D:0006H         SYMBOL        I
  -------         ENDPROC       _EEPRAWWRITEBYTE
  C:1D59H         LINE#         220
BL51 BANKED LINKER/LOCATER V3.70c             08/05/05  11:14:28  PAGE 60


  C:1D59H         LINE#         223
  C:1D5BH         LINE#         224
  C:1D5DH         LINE#         226
  C:1D61H         LINE#         230
  C:1D65H         LINE#         231
  C:1D67H         LINE#         232
  C:1D6BH         LINE#         233
  -------         PROC          EEPRAWREADBYTE
  D:0007H         SYMBOL        VALUE
  D:0006H         SYMBOL        I
  -------         ENDPROC       EEPRAWREADBYTE
  C:1CCCH         LINE#         239
  C:1CCCH         LINE#         241
  C:1CCEH         LINE#         243
  C:1CD0H         LINE#         244
  C:1CD1H         LINE#         245
  C:1CD3H         LINE#         246
  C:1CD7H         LINE#         247
  C:1CDBH         LINE#         248
  C:1CDDH         LINE#         249
  C:1CE1H         LINE#         250
  C:1CE1H         LINE#         251
  -------         ENDMOD        X25645

  -------         MODULE        GSMUSER
  C:0000H         SYMBOL        _ICE_DUMMY_
  B:00E8H.1       PUBLIC        TMCSDA
  B:0090H.2       PUBLIC        TMCTP4
  B:00D8H.2       PUBLIC        CCF2
  B:0090H.3       PUBLIC        TMCTP5
  B:00D8H.3       PUBLIC        CCF3
  D:0080H         PUBLIC        P0
  B:00C0H.1       PUBLIC        TMCTP6
  B:00A0H.7       PUBLIC        TMCCSD
  B:00D8H.4       PUBLIC        CCF4
  D:0090H         PUBLIC        P1
  B:00C0H.2       PUBLIC        TMCTP7
  D:00A0H         PUBLIC        P2
  B:0090H.4       PUBLIC        TMCRX2
  D:00B0H         PUBLIC        P3
  B:00D0H.6       PUBLIC        AC
  D:00C0H         PUBLIC        P4
  B:00B0H.4       PUBLIC        T0
  B:00B0H.3       PUBLIC        TMCTX2
  D:00E8H         PUBLIC        P5
  B:00B0H.5       PUBLIC        T1
  B:00C0H.4       PUBLIC        TMCTX3
  B:00A8H.7       PUBLIC        EA
  B:0090H.0       PUBLIC        T2
  B:00A0H.1       PUBLIC        TMCCLKAD
  B:0090H.6       PUBLIC        TMCSCK
  B:00A8H.6       PUBLIC        EC
  B:00A0H.5       PUBLIC        TMCSCL
  B:00D8H.7       PUBLIC        CF
  B:00B0H.7       PUBLIC        TMCCSM
  B:0098H.7       PUBLIC        FE
  B:00A0H.0       PUBLIC        TMCMAJAK
  B:00E8H.0       PUBLIC        TMCCLKDI
  B:0080H.0       PUBLIC        P0_0
  B:0090H.3       PUBLIC        CEX0
  B:0090H.0       PUBLIC        P1_0
  B:0080H.1       PUBLIC        P0_1
  B:00A0H.0       PUBLIC        P2_0
  B:0090H.4       PUBLIC        CEX1
  B:0090H.1       PUBLIC        P1_1
BL51 BANKED LINKER/LOCATER V3.70c             08/05/05  11:14:28  PAGE 61


  B:0080H.2       PUBLIC        P0_2
  B:00B0H.0       PUBLIC        P3_0
  B:00A0H.1       PUBLIC        P2_1
  B:0090H.5       PUBLIC        CEX2
  B:0090H.2       PUBLIC        P1_2
  B:0080H.3       PUBLIC        P0_3
  B:00E8H.5       PUBLIC        TMCWRD
  B:00C0H.0       PUBLIC        P4_0
  B:00B0H.1       PUBLIC        P3_1
  B:00A0H.2       PUBLIC        P2_2
  B:0090H.6       PUBLIC        CEX3
  B:0090H.3       PUBLIC        P1_3
  B:0080H.4       PUBLIC        P0_4
  B:00B0H.0       PUBLIC        TMCRXD
  B:00D8H.6       PUBLIC        CR
  B:00E8H.0       PUBLIC        P5_0
  B:00C0H.1       PUBLIC        P4_1
  B:00B0H.2       PUBLIC        P3_2
  B:00A0H.3       PUBLIC        P2_3
  B:0090H.7       PUBLIC        CEX4
  B:0090H.4       PUBLIC        P1_4
  B:0080H.5       PUBLIC        P0_5
  B:00C0H.5       PUBLIC        TMCSOM
  B:00C8H.6       PUBLIC        EXF2
  B:00E8H.1       PUBLIC        P5_1
  B:00C0H.2       PUBLIC        P4_2
  B:00B0H.7       PUBLIC        RD
  B:00B0H.3       PUBLIC        P3_3
  B:00A0H.4       PUBLIC        P2_4
  B:0090H.5       PUBLIC        P1_5
  B:0080H.6       PUBLIC        P0_6
  B:00B0H.1       PUBLIC        TMCTXD
  B:00E8H.2       PUBLIC        P5_2
  B:00C0H.3       PUBLIC        P4_3
  B:00B0H.4       PUBLIC        P3_4
  B:00A0H.5       PUBLIC        P2_5
  B:0090H.6       PUBLIC        P1_6
  B:0080H.7       PUBLIC        P0_7
  B:00A8H.4       PUBLIC        ES
  B:00E8H.3       PUBLIC        P5_3
  B:00C0H.4       PUBLIC        P4_4
  B:00B0H.5       PUBLIC        P3_5
  B:00A0H.6       PUBLIC        P2_6
  B:0090H.7       PUBLIC        P1_7
  B:00D0H.1       PUBLIC        UD
  B:00E8H.4       PUBLIC        P5_4
  B:00C0H.5       PUBLIC        P4_5
  B:00B0H.6       PUBLIC        P3_6
  B:00A0H.7       PUBLIC        P2_7
  B:0080H.0       PUBLIC        TMCD0
  B:00E8H.5       PUBLIC        P5_5
  B:00C0H.6       PUBLIC        P4_6
  B:00B0H.7       PUBLIC        P3_7
  B:0080H.1       PUBLIC        TMCD1
  B:0098H.0       PUBLIC        RI
  B:00E8H.6       PUBLIC        P5_6
  B:00C0H.7       PUBLIC        P4_7
  B:0080H.2       PUBLIC        TMCD2
  B:00D0H.7       PUBLIC        CY
  B:00E8H.7       PUBLIC        P5_7
  B:00B0H.2       PUBLIC        INT0
  B:00C0H.3       PUBLIC        TMCCSPAN
  B:0080H.3       PUBLIC        TMCD3
  B:0098H.1       PUBLIC        TI
  B:00B0H.3       PUBLIC        INT1
BL51 BANKED LINKER/LOCATER V3.70c             08/05/05  11:14:28  PAGE 62


  B:0080H.4       PUBLIC        TMCD4
  B:0080H.5       PUBLIC        TMCD5
  B:0080H.6       PUBLIC        TMCD6
  B:0080H.7       PUBLIC        TMCD7
  B:00B8H.1       PUBLIC        PT0L
  B:00B0H.2       PUBLIC        TMCPENIN
  B:00B8H.3       PUBLIC        PT1L
  B:00B8H.5       PUBLIC        PT2L
  B:0090H.1       PUBLIC        T2EX
  C:0B24H         PUBLIC        _GSMEXECUTECOMMAND
  B:00B8H.0       PUBLIC        PX0L
  B:00D0H.2       PUBLIC        OV
  C:1DFEH         PUBLIC        GSMSMSSENDOK
  B:00B8H.2       PUBLIC        PX1L
  B:00C8H.1       PUBLIC        C_T2
  B:00B0H.6       PUBLIC        WR
  B:00A0H.3       PUBLIC        TMCOUTDI
  B:00C8H.5       PUBLIC        RCLK
  B:00C8H.4       PUBLIC        TCLK
  B:00B8H.6       PUBLIC        PPCL
  C:1E48H         PUBLIC        GSMSTART
  B:00E8H.7       PUBLIC        TMCBUZTP
  B:0088H.1       PUBLIC        IE0
  B:0088H.3       PUBLIC        IE1
  B:0090H.7       PUBLIC        TMCSI
  B:00C8H.0       PUBLIC        CP_RL2
  B:00B0H.4       PUBLIC        TMCCSEE
  B:0090H.5       PUBLIC        TMCSO
  B:00A8H.1       PUBLIC        ET0
  B:00A8H.3       PUBLIC        ET1
  B:0088H.5       PUBLIC        TF0
  B:00A8H.5       PUBLIC        ET2
  B:0088H.7       PUBLIC        TF1
  B:0098H.2       PUBLIC        RB8
  B:00C8H.7       PUBLIC        TF2
  B:00A8H.0       PUBLIC        EX0
  B:0088H.0       PUBLIC        IT0
  B:00A8H.2       PUBLIC        EX1
  B:0098H.3       PUBLIC        TB8
  B:0088H.2       PUBLIC        IT1
  B:00D0H.0       PUBLIC        P
  B:00B0H.5       PUBLIC        TMCCSDO
  B:0098H.7       PUBLIC        SM0
  C:1E4FH         PUBLIC        GSMSTOP
  B:0098H.6       PUBLIC        SM1
  B:0090H.2       PUBLIC        ECI
  B:0098H.5       PUBLIC        SM2
  B:00C0H.6       PUBLIC        TMCRESD
  B:00A0H.6       PUBLIC        TMCSCKM
  B:00D0H.3       PUBLIC        RS0
  B:0088H.4       PUBLIC        TR0
  B:00D0H.4       PUBLIC        RS1
  C:1DF1H         PUBLIC        GSMSMSSENDTIMEOUT
  B:0088H.6       PUBLIC        TR1
  B:00C8H.2       PUBLIC        TR2
  B:00E8H.6       PUBLIC        TMCA0D
  B:00F8H.0       PUBLIC        PI2_0
  B:00F8H.1       PUBLIC        PI2_1
  B:00A0H.4       PUBLIC        TMCPISK
  B:00C8H.3       PUBLIC        EXEN2
  B:0098H.4       PUBLIC        REN
  D:00A6H         PUBLIC        WDTRST
  B:00E8H.3       PUBLIC        TMCSVIT
  B:00B0H.0       PUBLIC        RXD
  B:00A0H.2       PUBLIC        TMCDAD
BL51 BANKED LINKER/LOCATER V3.70c             08/05/05  11:14:28  PAGE 63


  B:00B8H.4       PUBLIC        PLS
  B:00B0H.1       PUBLIC        TXD
  B:00E8H.2       PUBLIC        TMCLOWBAT
  B:00B0H.6       PUBLIC        TMCCS1AD
  B:00C0H.7       PUBLIC        TMCCS2AD
  B:00D0H.5       PUBLIC        F0
  B:00E8H.4       PUBLIC        TMCCSEPOT
  B:0090H.0       PUBLIC        TMCTP1
  B:00C0H.0       PUBLIC        TMCTP2
  B:00D8H.0       PUBLIC        CCF0
  B:0090H.1       PUBLIC        TMCTP3
  B:00D8H.1       PUBLIC        CCF1
  -------         PROC          GSMSTART
  -------         ENDPROC       GSMSTART
  C:1E48H         LINE#         45
  C:1E48H         LINE#         47
  C:1E48H         LINE#         48
  C:1E4EH         LINE#         49
  -------         PROC          GSMSTOP
  -------         ENDPROC       GSMSTOP
  C:1E4FH         LINE#         55
  C:1E4FH         LINE#         57
  C:1E4FH         LINE#         58
  C:1E54H         LINE#         59
  -------         PROC          _GSMEXECUTECOMMAND
  D:0028H         SYMBOL        CMD
  D:0029H         SYMBOL        DATA
  D:002DH         SYMBOL        I
  D:002FH         SYMBOL        J
  D:0031H         SYMBOL        CH
  -------         ENDPROC       _GSMEXECUTECOMMAND
  C:0B24H         LINE#         65
  C:0B26H         LINE#         67
  C:0B26H         LINE#         71
  C:0B51H         LINE#         72
  C:0B61H         LINE#         73
  C:0B61H         LINE#         74
  C:0B6DH         LINE#         75
  C:0B70H         LINE#         77
  C:0B70H         LINE#         78
  C:0B76H         LINE#         79
  C:0B7DH         LINE#         80
  C:0B84H         LINE#         81
  C:0B89H         LINE#         82
  C:0B8EH         LINE#         83
  C:0B91H         LINE#         84
  C:0BA4H         LINE#         85
  C:0BA7H         LINE#         86
  C:0BAAH         LINE#         87
  C:0BB7H         LINE#         90
  C:0BB7H         LINE#         91
  C:0BBCH         LINE#         92
  C:0BBCH         LINE#         93
  C:0BC2H         LINE#         94
  C:0BC9H         LINE#         95
  C:0BD0H         LINE#         96
  C:0BD5H         LINE#         97
  C:0BDAH         LINE#         98
  C:0BDDH         LINE#         99
  C:0BF0H         LINE#         100
  C:0BF3H         LINE#         101
  C:0BF6H         LINE#         102
  C:0C01H         LINE#         103
  C:0C12H         LINE#         104
  C:0C1FH         LINE#         106
BL51 BANKED LINKER/LOCATER V3.70c             08/05/05  11:14:28  PAGE 64


  C:0C1FH         LINE#         107
  C:0C2BH         LINE#         108
  C:0C2DH         LINE#         111
  C:0C2DH         LINE#         112
  C:0C30H         LINE#         113
  C:0C30H         LINE#         114
  C:0C30H         LINE#         115
  C:0C44H         LINE#         116
  C:0C50H         LINE#         117
  -------         PROC          GSMSMSSENDTIMEOUT
  -------         ENDPROC       GSMSMSSENDTIMEOUT
  C:1DF1H         LINE#         123
  C:1DF1H         LINE#         125
  C:1DF1H         LINE#         126
  C:1DFDH         LINE#         127
  -------         PROC          GSMSMSSENDOK
  -------         ENDPROC       GSMSMSSENDOK
  C:1DFEH         LINE#         133
  C:1DFEH         LINE#         135
  C:1DFEH         LINE#         136
  C:1E0AH         LINE#         137
  -------         ENDMOD        GSMUSER

  -------         MODULE        KBD
  C:0000H         SYMBOL        _ICE_DUMMY_
  B:00E8H.1       PUBLIC        TMCSDA
  B:0090H.2       PUBLIC        TMCTP4
  B:00D8H.2       PUBLIC        CCF2
  B:0090H.3       PUBLIC        TMCTP5
  B:00D8H.3       PUBLIC        CCF3
  D:0080H         PUBLIC        P0
  B:00C0H.1       PUBLIC        TMCTP6
  B:00A0H.7       PUBLIC        TMCCSD
  B:00D8H.4       PUBLIC        CCF4
  D:0090H         PUBLIC        P1
  B:00C0H.2       PUBLIC        TMCTP7
  D:00A0H         PUBLIC        P2
  B:0090H.4       PUBLIC        TMCRX2
  D:00B0H         PUBLIC        P3
  B:00D0H.6       PUBLIC        AC
  D:00C0H         PUBLIC        P4
  B:00B0H.4       PUBLIC        T0
  B:00B0H.3       PUBLIC        TMCTX2
  D:00E8H         PUBLIC        P5
  B:00B0H.5       PUBLIC        T1
  B:00C0H.4       PUBLIC        TMCTX3
  B:00A8H.7       PUBLIC        EA
  B:0090H.0       PUBLIC        T2
  B:00A0H.1       PUBLIC        TMCCLKAD
  B:0090H.6       PUBLIC        TMCSCK
  B:00A8H.6       PUBLIC        EC
  B:00A0H.5       PUBLIC        TMCSCL
  B:00D8H.7       PUBLIC        CF
  B:00B0H.7       PUBLIC        TMCCSM
  B:0098H.7       PUBLIC        FE
  B:00A0H.0       PUBLIC        TMCMAJAK
  B:00E8H.0       PUBLIC        TMCCLKDI
  B:0080H.0       PUBLIC        P0_0
  B:0090H.3       PUBLIC        CEX0
  B:0090H.0       PUBLIC        P1_0
  B:0080H.1       PUBLIC        P0_1
  B:00A0H.0       PUBLIC        P2_0
  B:0090H.4       PUBLIC        CEX1
  B:0090H.1       PUBLIC        P1_1
  B:0080H.2       PUBLIC        P0_2
BL51 BANKED LINKER/LOCATER V3.70c             08/05/05  11:14:28  PAGE 65


  B:00B0H.0       PUBLIC        P3_0
  B:00A0H.1       PUBLIC        P2_1
  B:0090H.5       PUBLIC        CEX2
  B:0090H.2       PUBLIC        P1_2
  B:0080H.3       PUBLIC        P0_3
  B:00E8H.5       PUBLIC        TMCWRD
  B:00C0H.0       PUBLIC        P4_0
  B:00B0H.1       PUBLIC        P3_1
  B:00A0H.2       PUBLIC        P2_2
  B:0090H.6       PUBLIC        CEX3
  B:0090H.3       PUBLIC        P1_3
  B:0080H.4       PUBLIC        P0_4
  B:00B0H.0       PUBLIC        TMCRXD
  B:00D8H.6       PUBLIC        CR
  B:00E8H.0       PUBLIC        P5_0
  B:00C0H.1       PUBLIC        P4_1
  B:00B0H.2       PUBLIC        P3_2
  B:00A0H.3       PUBLIC        P2_3
  B:0090H.7       PUBLIC        CEX4
  B:0090H.4       PUBLIC        P1_4
  B:0080H.5       PUBLIC        P0_5
  B:00C0H.5       PUBLIC        TMCSOM
  B:00C8H.6       PUBLIC        EXF2
  B:00E8H.1       PUBLIC        P5_1
  B:00C0H.2       PUBLIC        P4_2
  B:00B0H.7       PUBLIC        RD
  B:00B0H.3       PUBLIC        P3_3
  B:00A0H.4       PUBLIC        P2_4
  B:0090H.5       PUBLIC        P1_5
  B:0080H.6       PUBLIC        P0_6
  B:00B0H.1       PUBLIC        TMCTXD
  B:00E8H.2       PUBLIC        P5_2
  B:00C0H.3       PUBLIC        P4_3
  B:00B0H.4       PUBLIC        P3_4
  B:00A0H.5       PUBLIC        P2_5
  B:0090H.6       PUBLIC        P1_6
  B:0080H.7       PUBLIC        P0_7
  B:00A8H.4       PUBLIC        ES
  B:00E8H.3       PUBLIC        P5_3
  B:00C0H.4       PUBLIC        P4_4
  B:00B0H.5       PUBLIC        P3_5
  B:00A0H.6       PUBLIC        P2_6
  B:0090H.7       PUBLIC        P1_7
  B:00D0H.1       PUBLIC        UD
  B:00E8H.4       PUBLIC        P5_4
  B:00C0H.5       PUBLIC        P4_5
  B:00B0H.6       PUBLIC        P3_6
  B:00A0H.7       PUBLIC        P2_7
  B:0080H.0       PUBLIC        TMCD0
  B:00E8H.5       PUBLIC        P5_5
  B:00C0H.6       PUBLIC        P4_6
  B:00B0H.7       PUBLIC        P3_7
  B:0080H.1       PUBLIC        TMCD1
  B:0098H.0       PUBLIC        RI
  B:00E8H.6       PUBLIC        P5_6
  B:00C0H.7       PUBLIC        P4_7
  B:0080H.2       PUBLIC        TMCD2
  B:00D0H.7       PUBLIC        CY
  B:00E8H.7       PUBLIC        P5_7
  B:00B0H.2       PUBLIC        INT0
  B:00C0H.3       PUBLIC        TMCCSPAN
  B:0080H.3       PUBLIC        TMCD3
  B:0098H.1       PUBLIC        TI
  B:00B0H.3       PUBLIC        INT1
  B:0080H.4       PUBLIC        TMCD4
BL51 BANKED LINKER/LOCATER V3.70c             08/05/05  11:14:28  PAGE 66


  B:0080H.5       PUBLIC        TMCD5
  B:0080H.6       PUBLIC        TMCD6
  B:0080H.7       PUBLIC        TMCD7
  B:00B8H.1       PUBLIC        PT0L
  B:00B0H.2       PUBLIC        TMCPENIN
  B:00B8H.3       PUBLIC        PT1L
  B:00B8H.5       PUBLIC        PT2L
  B:0090H.1       PUBLIC        T2EX
  B:00B8H.0       PUBLIC        PX0L
  B:00D0H.2       PUBLIC        OV
  B:00B8H.2       PUBLIC        PX1L
  B:00C8H.1       PUBLIC        C_T2
  B:00B0H.6       PUBLIC        WR
  B:00A0H.3       PUBLIC        TMCOUTDI
  B:00C8H.5       PUBLIC        RCLK
  B:00C8H.4       PUBLIC        TCLK
  B:00B8H.6       PUBLIC        PPCL
  C:17A8H         PUBLIC        KBDGET
  B:00E8H.7       PUBLIC        TMCBUZTP
  B:0088H.1       PUBLIC        IE0
  B:0088H.3       PUBLIC        IE1
  B:0090H.7       PUBLIC        TMCSI
  B:00C8H.0       PUBLIC        CP_RL2
  B:00B0H.4       PUBLIC        TMCCSEE
  B:0090H.5       PUBLIC        TMCSO
  B:00A8H.1       PUBLIC        ET0
  B:00A8H.3       PUBLIC        ET1
  B:0088H.5       PUBLIC        TF0
  B:00A8H.5       PUBLIC        ET2
  B:0088H.7       PUBLIC        TF1
  B:0098H.2       PUBLIC        RB8
  B:00C8H.7       PUBLIC        TF2
  B:00A8H.0       PUBLIC        EX0
  B:0088H.0       PUBLIC        IT0
  B:00A8H.2       PUBLIC        EX1
  B:0098H.3       PUBLIC        TB8
  B:0088H.2       PUBLIC        IT1
  B:00D0H.0       PUBLIC        P
  B:00B0H.5       PUBLIC        TMCCSDO
  B:0098H.7       PUBLIC        SM0
  B:0098H.6       PUBLIC        SM1
  B:0090H.2       PUBLIC        ECI
  B:0098H.5       PUBLIC        SM2
  B:00C0H.6       PUBLIC        TMCRESD
  B:00A0H.6       PUBLIC        TMCSCKM
  B:00D0H.3       PUBLIC        RS0
  B:0088H.4       PUBLIC        TR0
  B:00D0H.4       PUBLIC        RS1
  B:0088H.6       PUBLIC        TR1
  B:00C8H.2       PUBLIC        TR2
  B:00E8H.6       PUBLIC        TMCA0D
  B:00F8H.0       PUBLIC        PI2_0
  B:00F8H.1       PUBLIC        PI2_1
  B:00A0H.4       PUBLIC        TMCPISK
  B:00C8H.3       PUBLIC        EXEN2
  B:0098H.4       PUBLIC        REN
  B:00E8H.3       PUBLIC        TMCSVIT
  B:00B0H.0       PUBLIC        RXD
  B:00A0H.2       PUBLIC        TMCDAD
  B:00B8H.4       PUBLIC        PLS
  B:00B0H.1       PUBLIC        TXD
  B:00E8H.2       PUBLIC        TMCLOWBAT
  B:00B0H.6       PUBLIC        TMCCS1AD
  B:00C0H.7       PUBLIC        TMCCS2AD
  B:00D0H.5       PUBLIC        F0
BL51 BANKED LINKER/LOCATER V3.70c             08/05/05  11:14:28  PAGE 67


  B:00E8H.4       PUBLIC        TMCCSEPOT
  B:0090H.0       PUBLIC        TMCTP1
  B:00C0H.0       PUBLIC        TMCTP2
  B:00D8H.0       PUBLIC        CCF0
  B:0090H.1       PUBLIC        TMCTP3
  B:00D8H.1       PUBLIC        CCF1
  -------         PROC          KBDGET
  D:0023H         SYMBOL        X
  D:0025H         SYMBOL        Y
  -------         ENDPROC       KBDGET
  C:17A8H         LINE#         15
  C:17A8H         LINE#         18
  C:17A8H         LINE#         21
  C:17ADH         LINE#         22
  C:17B0H         LINE#         23
  C:17B3H         LINE#         24
  C:17B3H         LINE#         25
  C:17BAH         LINE#         26
  C:17C5H         LINE#         28
  C:17D0H         LINE#         29
  C:17D3H         LINE#         30
  C:17D3H         LINE#         31
  C:17D6H         LINE#         32
  C:17D6H         LINE#         33
  C:17D6H         LINE#         35
  C:17E1H         LINE#         36
  C:17E4H         LINE#         37
  C:17E4H         LINE#         38
  C:17E6H         LINE#         39
  C:17E6H         LINE#         40
  -------         ENDMOD        KBD

  -------         MODULE        MAIN
  C:0000H         SYMBOL        _ICE_DUMMY_
  B:00E8H.1       PUBLIC        TMCSDA
  B:0090H.2       PUBLIC        TMCTP4
  B:00D8H.2       PUBLIC        CCF2
  B:0090H.3       PUBLIC        TMCTP5
  B:00D8H.3       PUBLIC        CCF3
  D:0080H         PUBLIC        P0
  B:00C0H.1       PUBLIC        TMCTP6
  B:00A0H.7       PUBLIC        TMCCSD
  B:00D8H.4       PUBLIC        CCF4
  D:0090H         PUBLIC        P1
  B:00C0H.2       PUBLIC        TMCTP7
  D:00A0H         PUBLIC        P2
  B:0090H.4       PUBLIC        TMCRX2
  D:00B0H         PUBLIC        P3
  B:00D0H.6       PUBLIC        AC
  D:00C0H         PUBLIC        P4
  B:00B0H.4       PUBLIC        T0
  B:00B0H.3       PUBLIC        TMCTX2
  D:00E8H         PUBLIC        P5
  B:00B0H.5       PUBLIC        T1
  B:00C0H.4       PUBLIC        TMCTX3
  B:00A8H.7       PUBLIC        EA
  B:0090H.0       PUBLIC        T2
  B:00A0H.1       PUBLIC        TMCCLKAD
  B:0090H.6       PUBLIC        TMCSCK
  B:00A8H.6       PUBLIC        EC
  B:00A0H.5       PUBLIC        TMCSCL
  B:00D8H.7       PUBLIC        CF
  B:00B0H.7       PUBLIC        TMCCSM
  B:0098H.7       PUBLIC        FE
  B:00A0H.0       PUBLIC        TMCMAJAK
BL51 BANKED LINKER/LOCATER V3.70c             08/05/05  11:14:28  PAGE 68


  B:00E8H.0       PUBLIC        TMCCLKDI
  X:0000H         PUBLIC        SRCLENGTH
  B:0080H.0       PUBLIC        P0_0
  B:0090H.3       PUBLIC        CEX0
  B:0090H.0       PUBLIC        P1_0
  B:0080H.1       PUBLIC        P0_1
  B:00A0H.0       PUBLIC        P2_0
  B:0090H.4       PUBLIC        CEX1
  B:0090H.1       PUBLIC        P1_1
  B:0080H.2       PUBLIC        P0_2
  C:1960H         PUBLIC        _SYSDELAY
  C:0E8AH         PUBLIC        DSTLENGTH
  B:00B0H.0       PUBLIC        P3_0
  B:00A0H.1       PUBLIC        P2_1
  B:0090H.5       PUBLIC        CEX2
  B:0090H.2       PUBLIC        P1_2
  B:0080H.3       PUBLIC        P0_3
  B:00E8H.5       PUBLIC        TMCWRD
  B:00C0H.0       PUBLIC        P4_0
  B:00B0H.1       PUBLIC        P3_1
  B:00A0H.2       PUBLIC        P2_2
  B:0090H.6       PUBLIC        CEX3
  B:0090H.3       PUBLIC        P1_3
  B:0080H.4       PUBLIC        P0_4
  B:00B0H.0       PUBLIC        TMCRXD
  B:00D8H.6       PUBLIC        CR
  B:00E8H.0       PUBLIC        P5_0
  B:00C0H.1       PUBLIC        P4_1
  B:00B0H.2       PUBLIC        P3_2
  B:00A0H.3       PUBLIC        P2_3
  B:0090H.7       PUBLIC        CEX4
  B:0090H.4       PUBLIC        P1_4
  B:0080H.5       PUBLIC        P0_5
  B:00C0H.5       PUBLIC        TMCSOM
  B:00C8H.6       PUBLIC        EXF2
  B:00E8H.1       PUBLIC        P5_1
  B:00C0H.2       PUBLIC        P4_2
  B:00B0H.7       PUBLIC        RD
  B:00B0H.3       PUBLIC        P3_3
  B:00A0H.4       PUBLIC        P2_4
  B:0090H.5       PUBLIC        P1_5
  B:0080H.6       PUBLIC        P0_6
  X:0001H         PUBLIC        SRCNUMBER
  B:00B0H.1       PUBLIC        TMCTXD
  B:00E8H.2       PUBLIC        P5_2
  B:00C0H.3       PUBLIC        P4_3
  B:00B0H.4       PUBLIC        P3_4
  B:00A0H.5       PUBLIC        P2_5
  B:0090H.6       PUBLIC        P1_6
  B:0080H.7       PUBLIC        P0_7
  B:00A8H.4       PUBLIC        ES
  B:00E8H.3       PUBLIC        P5_3
  B:00C0H.4       PUBLIC        P4_4
  B:00B0H.5       PUBLIC        P3_5
  B:00A0H.6       PUBLIC        P2_6
  B:0090H.7       PUBLIC        P1_7
  B:00D0H.1       PUBLIC        UD
  B:00E8H.4       PUBLIC        P5_4
  B:00C0H.5       PUBLIC        P4_5
  B:00B0H.6       PUBLIC        P3_6
  B:00A0H.7       PUBLIC        P2_7
  C:0E7DH         PUBLIC        DSTNUMBER
  B:0080H.0       PUBLIC        TMCD0
  B:00E8H.5       PUBLIC        P5_5
  B:00C0H.6       PUBLIC        P4_6
BL51 BANKED LINKER/LOCATER V3.70c             08/05/05  11:14:28  PAGE 69


  B:00B0H.7       PUBLIC        P3_7
  B:0080H.1       PUBLIC        TMCD1
  B:0098H.0       PUBLIC        RI
  B:00E8H.6       PUBLIC        P5_6
  B:00C0H.7       PUBLIC        P4_7
  B:0080H.2       PUBLIC        TMCD2
  B:00D0H.7       PUBLIC        CY
  B:00E8H.7       PUBLIC        P5_7
  B:00B0H.2       PUBLIC        INT0
  B:00C0H.3       PUBLIC        TMCCSPAN
  B:0080H.3       PUBLIC        TMCD3
  B:0098H.1       PUBLIC        TI
  B:00B0H.3       PUBLIC        INT1
  B:0080H.4       PUBLIC        TMCD4
  B:0080H.5       PUBLIC        TMCD5
  B:0080H.6       PUBLIC        TMCD6
  D:008FH         PUBLIC        CKCON0
  B:0080H.7       PUBLIC        TMCD7
  B:00B8H.1       PUBLIC        PT0L
  B:00B0H.2       PUBLIC        TMCPENIN
  B:00B8H.3       PUBLIC        PT1L
  B:00B8H.5       PUBLIC        PT2L
  B:0090H.1       PUBLIC        T2EX
  B:00B8H.0       PUBLIC        PX0L
  B:00D0H.2       PUBLIC        OV
  B:00B8H.2       PUBLIC        PX1L
  C:00C2H         PUBLIC        MAIN
  B:00C8H.1       PUBLIC        C_T2
  B:00B0H.6       PUBLIC        WR
  D:001CH         PUBLIC        COUNTER1S
  B:00A0H.3       PUBLIC        TMCOUTDI
  B:00C8H.5       PUBLIC        RCLK
  B:00C8H.4       PUBLIC        TCLK
  B:00B8H.6       PUBLIC        PPCL
  D:0089H         PUBLIC        TMOD
  C:19BDH         PUBLIC        SYSYIELD
  B:00E8H.7       PUBLIC        TMCBUZTP
  B:0088H.1       PUBLIC        IE0
  B:0088H.3       PUBLIC        IE1
  D:008EH         PUBLIC        AUXR
  B:0090H.7       PUBLIC        TMCSI
  B:00C8H.0       PUBLIC        CP_RL2
  D:001DH         PUBLIC        GSMLOOP
  B:00B0H.4       PUBLIC        TMCCSEE
  B:0090H.5       PUBLIC        TMCSO
  B:0020H.3       PUBLIC        TIMER1S
  B:00A8H.1       PUBLIC        ET0
  B:00A8H.3       PUBLIC        ET1
  B:0088H.5       PUBLIC        TF0
  B:00A8H.5       PUBLIC        ET2
  B:0088H.7       PUBLIC        TF1
  B:0098H.2       PUBLIC        RB8
  D:008CH         PUBLIC        TH0
  B:00C8H.7       PUBLIC        TF2
  B:00A8H.0       PUBLIC        EX0
  B:0088H.0       PUBLIC        IT0
  B:00A8H.2       PUBLIC        EX1
  B:0098H.3       PUBLIC        TB8
  B:0088H.2       PUBLIC        IT1
  B:00D0H.0       PUBLIC        P
  B:00B0H.5       PUBLIC        TMCCSDO
  B:0098H.7       PUBLIC        SM0
  D:008AH         PUBLIC        TL0
  X:0015H         PUBLIC        OPERATOR
  B:0098H.6       PUBLIC        SM1
BL51 BANKED LINKER/LOCATER V3.70c             08/05/05  11:14:28  PAGE 70


  B:0090H.2       PUBLIC        ECI
  B:0098H.5       PUBLIC        SM2
  B:00C0H.6       PUBLIC        TMCRESD
  B:00A0H.6       PUBLIC        TMCSCKM
  B:00D0H.3       PUBLIC        RS0
  B:0088H.4       PUBLIC        TR0
  B:00D0H.4       PUBLIC        RS1
  B:0088H.6       PUBLIC        TR1
  B:00C8H.2       PUBLIC        TR2
  D:00A7H         PUBLIC        WDTPRG
  B:00E8H.6       PUBLIC        TMCA0D
  B:00F8H.0       PUBLIC        PI2_0
  B:00F8H.1       PUBLIC        PI2_1
  X:0026H         PUBLIC        BUFFER
  C:1E40H         PUBLIC        SYSWAITEVENT
  B:00A0H.4       PUBLIC        TMCPISK
  B:00C8H.3       PUBLIC        EXEN2
  B:0098H.4       PUBLIC        REN
  D:00A6H         PUBLIC        WDTRST
  B:00E8H.3       PUBLIC        TMCSVIT
  B:00B0H.0       PUBLIC        RXD
  B:00A0H.2       PUBLIC        TMCDAD
  B:00B8H.4       PUBLIC        PLS
  B:00B0H.1       PUBLIC        TXD
  B:00E8H.2       PUBLIC        TMCLOWBAT
  D:00A2H         PUBLIC        AUXR1
  B:00B0H.6       PUBLIC        TMCCS1AD
  B:00C0H.7       PUBLIC        TMCCS2AD
  B:00D0H.5       PUBLIC        F0
  B:00E8H.4       PUBLIC        TMCCSEPOT
  C:15E1H         SYMBOL        TIMER0HANDLER
  B:0090H.0       PUBLIC        TMCTP1
  B:00C0H.0       PUBLIC        TMCTP2
  B:00D8H.0       PUBLIC        CCF0
  B:0090H.1       PUBLIC        TMCTP3
  B:00D8H.1       PUBLIC        CCF1
  -------         PROC          MAIN
  D:0021H         SYMBOL        C
  D:0022H         SYMBOL        ENABLE
  -------         ENDPROC       MAIN
  C:00C2H         LINE#         70
  C:00C2H         LINE#         71
  C:00C2H         LINE#         73
  C:00C5H         LINE#         76
  C:00CAH         LINE#         77
  C:00CDH         LINE#         78
  C:00D0H         LINE#         79
  C:00D6H         LINE#         81
  C:00D8H         LINE#         83
  C:00DAH         LINE#         84
  C:00E9H         LINE#         88
  C:00ECH         LINE#         89
  C:00EFH         LINE#         91
  C:00F2H         LINE#         92
  C:00F5H         LINE#         97
  C:0101H         LINE#         98
  C:0108H         LINE#         101
  C:010CH         LINE#         102
  C:0111H         LINE#         103
  C:0114H         LINE#         104
  C:011BH         LINE#         105
  C:0126H         LINE#         106
  C:0129H         LINE#         107
  C:012CH         LINE#         108
  C:0132H         LINE#         109
BL51 BANKED LINKER/LOCATER V3.70c             08/05/05  11:14:28  PAGE 71


  C:0137H         LINE#         110
  C:013CH         LINE#         111
  C:0141H         LINE#         112
  C:0146H         LINE#         113
  C:0149H         LINE#         114
  C:014FH         LINE#         115
  C:014FH         LINE#         116
  C:0156H         LINE#         117
  C:015DH         LINE#         118
  C:0160H         LINE#         119
  C:0167H         LINE#         121
  C:016AH         LINE#         123
  C:016AH         LINE#         124
  C:0171H         LINE#         125
  C:0194H         LINE#         126
  C:0194H         LINE#         127
  C:01AEH         LINE#         128
  C:01B1H         LINE#         130
  C:01B4H         LINE#         132
  C:01BBH         LINE#         134
  C:01C0H         LINE#         135
  C:01C5H         LINE#         136
  C:01CAH         LINE#         138
  C:01D1H         LINE#         139
  C:01D8H         LINE#         140
  C:01DAH         LINE#         141
  C:01DAH         LINE#         142
  C:01E1H         LINE#         143
  C:01E6H         LINE#         144
  C:01F0H         LINE#         145
  C:01F7H         LINE#         146
  C:0201H         LINE#         147
  C:0203H         LINE#         148
  C:0208H         LINE#         149
  C:0208H         LINE#         150
  C:020AH         LINE#         151
  C:0211H         LINE#         153
  C:0218H         LINE#         154
  C:021DH         LINE#         155
  C:0224H         LINE#         156
  C:0226H         LINE#         157
  C:022DH         LINE#         158
  C:022DH         LINE#         159
  C:0232H         LINE#         160
  C:0235H         LINE#         162
  C:0235H         LINE#         163
  C:024FH         LINE#         164
  C:0252H         LINE#         165
  C:0259H         LINE#         166
  C:0266H         LINE#         167
  C:026DH         LINE#         168
  C:0270H         LINE#         169
  C:0277H         LINE#         170
  C:0277H         LINE#         171
  C:027AH         LINE#         173
  C:027AH         LINE#         174
  C:0294H         LINE#         175
  C:0297H         LINE#         176
  C:029EH         LINE#         177
  C:02A1H         LINE#         178
  C:02A4H         LINE#         179
  C:02A7H         LINE#         181
  C:02A7H         LINE#         182
  C:02C1H         LINE#         183
  C:02C4H         LINE#         184
BL51 BANKED LINKER/LOCATER V3.70c             08/05/05  11:14:28  PAGE 72


  C:02C9H         LINE#         185
  C:02CCH         LINE#         186
  C:02D1H         LINE#         187
  C:02D8H         LINE#         188
  C:02DBH         LINE#         189
  C:02E2H         LINE#         190
  C:02E5H         LINE#         191
  C:02E8H         LINE#         192
  C:02EBH         LINE#         194
  C:02EBH         LINE#         195
  C:02F2H         LINE#         196
  C:02F9H         LINE#         197
  C:02FCH         LINE#         198
  C:0303H         LINE#         199
  C:0306H         LINE#         200
  C:030DH         LINE#         201
  C:0310H         LINE#         202
  C:0317H         LINE#         203
  C:031AH         LINE#         204
  C:031DH         LINE#         205
  C:031DH         LINE#         206
  C:0320H         LINE#         208
  C:0320H         LINE#         209
  C:0320H         LINE#         211
  C:0320H         LINE#         212
  C:0320H         LINE#         213
  C:0320H         LINE#         214
  C:0320H         LINE#         215
  -------         PROC          SYSYIELD
  D:001BH         SYMBOL        TIMEOUT
  D:0007H         SYMBOL        KEY
  -------         ENDPROC       SYSYIELD
  C:19BDH         LINE#         221
  C:19BDH         LINE#         223
  C:19BDH         LINE#         224
  C:19BDH         LINE#         227
  C:19C3H         LINE#         229
  C:19C6H         LINE#         231
  C:19C8H         LINE#         232
  C:19CBH         LINE#         233
  C:19CDH         LINE#         234
  C:19D0H         LINE#         235
  C:19D0H         LINE#         237
  C:19D7H         LINE#         238
  C:19DAH         LINE#         239
  C:19DDH         LINE#         240
  C:19DDH         LINE#         241
  C:19E0H         LINE#         242
  C:19E4H         LINE#         243
  C:19E7H         LINE#         244
  C:19E8H         LINE#         245
  C:19E8H         LINE#         246
  C:19EAH         LINE#         247
  -------         PROC          SYSWAITEVENT
  D:0007H         SYMBOL        KEY
  -------         ENDPROC       SYSWAITEVENT
  C:1E40H         LINE#         253
  C:1E40H         LINE#         255
  C:1E40H         LINE#         258
  C:1E40H         LINE#         259
  C:1E43H         LINE#         260
  C:1E47H         LINE#         261
  C:1E47H         LINE#         262
  C:1E47H         LINE#         263
  C:1E47H         LINE#         264
BL51 BANKED LINKER/LOCATER V3.70c             08/05/05  11:14:28  PAGE 73


  -------         PROC          TIMER0HANDLER
  -------         ENDPROC       TIMER0HANDLER
  C:15E1H         LINE#         270
  C:15FEH         LINE#         273
  C:1604H         LINE#         275
  C:160DH         LINE#         276
  C:1617H         LINE#         277
  -------         PROC          _SYSDELAY
  D:0006H         SYMBOL        N
  D:0005H         SYMBOL        M
  -------         ENDPROC       _SYSDELAY
  C:1960H         LINE#         283
  C:1960H         LINE#         284
  C:1960H         LINE#         288
  C:1969H         LINE#         289
  C:196CH         LINE#         290
  C:196FH         LINE#         291
  C:1973H         LINE#         292
  C:1977H         LINE#         293
  C:197BH         LINE#         295
  C:197FH         LINE#         296
  C:1983H         LINE#         297
  C:1987H         LINE#         298
  C:198CH         LINE#         299
  C:198EH         LINE#         300
  -------         ENDMOD        MAIN

  -------         MODULE        BBIN2BCD
  C:1D8FH         SEGMENT       ?PR?_BBIN2BCD?BBIN2BCD
  C:1D8FH         PUBLIC        _BBIN2BCD
  D:00F0H         SYMBOL        B
  N:0000H         SYMBOL        BBIN2BCD
  C:1D8FH         LINE#         28
  C:1D90H         LINE#         29
  C:1D93H         LINE#         30
  C:1D94H         LINE#         31
  C:1D95H         LINE#         32
  C:1D97H         LINE#         33
  C:1D99H         LINE#         34
  C:1D9AH         LINE#         35
  C:1D9BH         LINE#         36
  C:1D9DH         LINE#         37
  C:1D9EH         LINE#         40
  -------         ENDMOD        BBIN2BCD

  -------         MODULE        NIBBLE2HEX
  C:1E2DH         SEGMENT       ?PR?_NIBBLE2HEX?NIBBLE2HEX
  C:1E2DH         PUBLIC        _NIBBLE2HEX
  N:0000H         SYMBOL        NIBBLE2HEX
  C:1E2DH         LINE#         27
  C:1E2EH         LINE#         28
  C:1E30H         LINE#         29
  C:1E32H         LINE#         30
  C:1E33H         LINE#         31
  C:1E35H         LINE#         32
  C:1E36H         LINE#         33
  C:1E37H         LINE#         36
  -------         ENDMOD        NIBBLE2HEX

  -------         MODULE        CPUTS
  C:1CB4H         SEGMENT       ?PR?_CPUTS?CPUTS
  C:1CB4H         PUBLIC        _CPUTS
  C:1CB8H         SYMBOL        ?C0020
  C:1CCBH         SYMBOL        ?C0022
  N:0000H         SYMBOL        CPUTS
BL51 BANKED LINKER/LOCATER V3.70c             08/05/05  11:14:28  PAGE 74


  D:0083H         SYMBOL        DPH
  D:0082H         SYMBOL        DPL
  C:1CB4H         LINE#         26
  C:1CB6H         LINE#         27
  C:1CB8H         LINE#         29
  C:1CB9H         LINE#         30
  C:1CBAH         LINE#         31
  C:1CBBH         LINE#         32
  C:1CBDH         LINE#         33
  C:1CBFH         LINE#         34
  C:1CC1H         LINE#         35
  C:1CC4H         LINE#         36
  C:1CC6H         LINE#         37
  C:1CC8H         LINE#         38
  C:1CC9H         LINE#         39
  C:1CCBH         LINE#         43
  -------         ENDMOD        CPUTS

  -------         MODULE        CPRINTDE
  C:0000H         SYMBOL        _ICE_DUMMY_
  C:142FH         PUBLIC        _CPRINTDEC
  -------         PROC          _CPRINTDEC
  D:0028H         SYMBOL        X
  D:002CH         SYMBOL        WIDTH
  -------         ENDPROC       _CPRINTDEC
  C:142FH         LINE#         18
  C:1437H         LINE#         20
  C:1437H         LINE#         21
  C:143CH         LINE#         23
  C:1452H         LINE#         24
  C:1457H         LINE#         25
  C:146AH         LINE#         26
  C:146CH         LINE#         27
  C:1471H         LINE#         28
  C:1471H         LINE#         29
  C:1471H         LINE#         30
  C:1484H         LINE#         31
  C:148AH         LINE#         32
  -------         ENDMOD        CPRINTDE

  -------         MODULE        CPRINTHE
  C:0000H         SYMBOL        _ICE_DUMMY_
  C:1206H         PUBLIC        _CPRINTHEX
  -------         PROC          _CPRINTHEX
  D:0032H         SYMBOL        X
  D:0036H         SYMBOL        WIDTH
  D:0037H         SYMBOL        ISNONZERO
  D:0007H         SYMBOL        NIBBLE
  D:0038H         SYMBOL        I
  D:0039H         SYMBOL        DECIMALS
  -------         ENDPROC       _CPRINTHEX
  C:1206H         LINE#         18
  C:120EH         LINE#         20
  C:120EH         LINE#         26
  C:1214H         LINE#         27
  C:121EH         LINE#         28
  C:1221H         LINE#         29
  C:1225H         LINE#         30
  C:1228H         LINE#         31
  C:1228H         LINE#         51
  C:1232H         LINE#         52
  C:123FH         LINE#         53
  C:1244H         LINE#         54
  C:1247H         LINE#         55
  C:1249H         LINE#         56
BL51 BANKED LINKER/LOCATER V3.70c             08/05/05  11:14:28  PAGE 75


  C:124EH         LINE#         57
  C:124EH         LINE#         59
  C:125AH         LINE#         60
  C:125DH         LINE#         61
  C:1263H         LINE#         62
  C:1265H         LINE#         63
  C:126AH         LINE#         64
  C:126AH         LINE#         65
  C:1274H         LINE#         66
  C:1278H         LINE#         67
  C:127BH         LINE#         68
  C:1280H         LINE#         69
  C:1280H         LINE#         70
  C:1285H         LINE#         71
  C:1285H         LINE#         72
  C:1289H         LINE#         73
  -------         ENDMOD        CPRINTHE

  -------         MODULE        DBIN2BCD
  C:1823H         SEGMENT       ?PR?_DBIN2BCD?DBIN2BCD
  C:1823H         PUBLIC        _DBIN2BCD
  D:00F0H         SYMBOL        B
  C:1846H         SYMBOL        BCD00E
  C:1843H         SYMBOL        BCDBYTE
  N:0000H         SYMBOL        DBIN2BCD
  C:1823H         LINE#         26
  C:1825H         LINE#         27
  C:1827H         LINE#         28
  C:1829H         LINE#         29
  C:182BH         LINE#         31
  C:182CH         LINE#         32
  C:182DH         LINE#         33
  C:182EH         LINE#         34
  C:182FH         LINE#         35
  C:1830H         LINE#         37
  C:1833H         LINE#         38
  C:1835H         LINE#         39
  C:1838H         LINE#         40
  C:183AH         LINE#         41
  C:183DH         LINE#         42
  C:183FH         LINE#         43
  C:1842H         LINE#         44
  C:1843H         LINE#         46
  C:1846H         LINE#         48
  C:1847H         LINE#         49
  C:1848H         LINE#         50
  C:1849H         LINE#         52
  C:184AH         LINE#         53
  C:184BH         LINE#         54
  C:184CH         LINE#         55
  C:184DH         LINE#         57
  C:184EH         LINE#         58
  C:184FH         LINE#         59
  C:1850H         LINE#         60
  C:1851H         LINE#         62
  C:1852H         LINE#         63
  C:1853H         LINE#         64
  C:1854H         LINE#         65
  C:1855H         LINE#         67
  C:1856H         LINE#         68
  C:1857H         LINE#         69
  C:1858H         LINE#         70
  C:1859H         LINE#         72
  C:185CH         LINE#         73
  C:185DH         LINE#         76
BL51 BANKED LINKER/LOCATER V3.70c             08/05/05  11:14:28  PAGE 76


  -------         ENDMOD        DBIN2BCD

  -------         MODULE        ?C?CLDOPTR
  C:0321H         PUBLIC        ?C?CLDOPTR
  -------         ENDMOD        ?C?CLDOPTR

  -------         MODULE        ?C?IMUL
  C:034EH         PUBLIC        ?C?IMUL
  -------         ENDMOD        ?C?IMUL

  -------         MODULE        ?C?UIDIV
  C:0362H         PUBLIC        ?C?UIDIV
  -------         ENDMOD        ?C?UIDIV

  -------         MODULE        ?C?LMUL
  C:03B7H         PUBLIC        ?C?LMUL
  -------         ENDMOD        ?C?LMUL

  -------         MODULE        ?C?ULDIV
  C:0442H         PUBLIC        ?C?ULDIV
  -------         ENDMOD        ?C?ULDIV

  -------         MODULE        ?C?LNEG
  C:04D4H         PUBLIC        ?C?LNEG
  -------         ENDMOD        ?C?LNEG

  -------         MODULE        ?C?SLCMP
  C:04E2H         PUBLIC        ?C?SLCMP
  -------         ENDMOD        ?C?SLCMP

  -------         MODULE        ?C?LSTIDATA
  C:04F8H         PUBLIC        ?C?LSTIDATA
  -------         ENDMOD        ?C?LSTIDATA

  -------         MODULE        ABS
  C:1D6CH         PUBLIC        _ABS
  -------         ENDMOD        ABS

  -------         MODULE        STRLEN
  C:1CE2H         PUBLIC        _STRLEN
  -------         ENDMOD        STRLEN

  -------         MODULE        ?C?CLDPTR
  C:0504H         PUBLIC        ?C?CLDPTR
  -------         ENDMOD        ?C?CLDPTR

LINK/LOCATE RUN COMPLETE.  0 WARNING(S),  0 ERROR(S)
