C51 COMPILER V5.50,  GSMSMS                                                                13/09/08  10:06:15  PAGE 1   


DOS C51 COMPILER V5.50, COMPILATION OF MODULE GSMSMS
OBJECT MODULE PLACED IN ..\MODULY\GSM_TM2\GSMSMS.OBJ
COMPILER INVOKED BY: C:\KEIL\C51_V5.5\BIN\C51.EXE ..\MODULY\GSM_TM2\GSMSMS.C51 CD DB

stmt level    source

   1          //******************************************************************************
   2          //
   3          //   GsmSms.c     GSM SMS messaging (Teltonika TM2)
   4          //   Version 1.0  (c) VymOs
   5          //
   6          //******************************************************************************
   7          
   8          #include "..\inc\Gsm.h"
   9          #include "..\inc\System.h"   // SysDelay
  10          #include <string.h>
  11          
  12          #ifdef GSM_SMS_USE_GSMCTL
                 #include "..\inc\GsmCtl.h"   // GSM kontext
              #endif
  15          
  16          #ifndef GSM_COM2
  17             #include "..\inc\Com.h"
  18          #else
                 #include "..\inc\Com2sw.h"
              
                 #define ComFlushChars Com2FlushChars
                 #define ComRxChar     Com2RxChar
                 #define ComRxWait     Com2RxWait
                 #define ComTxChar     Com2TxChar
              #endif
  26          
  27          #include "..\inc\COM_util.h"
  28          
  29          #ifdef GSM_DEBUG
  30            extern byte __xdata__ GsmErrno;
  31            #define TRACE( Value) GsmErrno = Value
  32          #else
                #define TRACE( Value)
              #endif
  35          
  36          #define TO_REPLY          8                             // timeout odpovedi [100ms]
  37          #define TO_SMS_READ       15                            // timeout zahlavi SMS read [100ms]
  38          #define SMS_INDEX_BASE    301                           // SIM memory index
  39          
  40          // Preddefinovane retezce :
  41          
  42          static char code PduSend[]    = "AT+CMGS=\"+";          // Send SMS + "+<number."<CR>
  43          static char code Prompt[]     = "\r\n> ";               // input prompt
  44          static char code SendOk[]     = "\r\n+CMGS: ";          // Send ok (+message reference, pduack)
  45          
  46          static char code PduRead[]    = "AT+CMGR=";             // Read SMS <index><CR>
  47          static char code ReadHeader1[]= "\r\n+CM";              // Read message reply header
  48          static char code ReadHeader2[]= "R: ";                  // Read message header continuation
  49          static char code EmptyRead[]  = " ERROR: 321";          // Read empty message CMS ERROR 321
  50          static char code ReceivedMsg[]= "\"REC";                // REC READ/REC UNREAD status
  51          
  52          static char code Delete[]     = "AT+CMGD=";             // Delete SMS <index><CR>
  53          
  54          #define CTRL_Z  '\x1A'
  55          
  56          #define PDU_FIXED_LENGTH      8        // konstatni delka telegramu bez SMSC
  57          #define TIMESTAMP_LENGTH     14        // delka sekce cas+zona
  58          
  59          #define SMS_PROMPT_TIMEOUT   10        // Send prompt timeout      * 0.1s
C51 COMPILER V5.50,  GSMSMS                                                                13/09/08  10:06:15  PAGE 2   

  60          
  61          
  62          #define TxString( s) ComFlushChars();ComTxString( s)    // pred vyslanim zrus Rx
  63          
  64          //-----------------------------------------------------------------------------
  65          // Send
  66          //-----------------------------------------------------------------------------
  67          
  68          
  69          TYesNo SmsSend( char xdata *DstNumber, char *Text, byte MessageLength)
  70          // Odeslani zpravy
  71          {
  72   1      byte   i;
  73   1      byte   ch;
  74   1      
  75   1      #ifdef GSM_SMS_USE_GSMCTL
                 if( !GsmReady()){
                    TRACE(1);
                    return( NO);                     // out of context
                 }
              #endif
  81   1         // AT command SMS send :
  82   1         TxString( PduSend);
  83   1         ComTxXString( DstNumber);           // destination number
  84   1         ComTxChar( '"');                    // close string with "
  85   1         ComTxChar( '\r');
  86   1         // wait for prompt :
  87   1         if( !ComRxMatch( Prompt, SMS_PROMPT_TIMEOUT)){
  88   2            TRACE(2);
  89   2            return( NO);
  90   2         }
  91   1         // send text :
  92   1         for( i = 0; i < MessageLength; i++){
  93   2            ch = Text[ i];
  94   2            // ASCII to GSM alphabet :
  95   2            if( ch == '@'){
  96   3               ch = '\0';
  97   3            }
  98   2            ComTxChar( ch);
  99   2         }
 100   1         ComTxChar( CTRL_Z);                 // message terminator
 101   1      #ifdef GSM_SMS_USE_GSMCTL
                 // Nacteni odpovedi necham na automat
                 GsmCtl.Status  = GSM_SMS_SENDING;       // kontext radice
                 GsmCtl.Counter = GSM_SMS_SEND_TIMEOUT;  // timeout potvrzeni
              #else
 106   1         // Automat se nepouziva, pockam na odpoved
 107   1      /*!!!
 108   1         if( !ComRxMatch( SendOk, 10 * GSM_SMS_SEND_TIMEOUT)){        // Timeout se do ComRxMatch() zadava v 0.1
             -sec
 109   1            TRACE(3);
 110   1            return( NO);
 111   1         }
 112   1      */
 113   1       #endif
 114   1         TRACE(0);
 115   1         return( YES);
 116   1      } // SmsSend
 117          
 118          
 119          //-----------------------------------------------------------------------------
 120          // Send OK
 121          //-----------------------------------------------------------------------------
 122          
 123          #ifdef GSM_SMS_USE_GSMCTL
              
C51 COMPILER V5.50,  GSMSMS                                                                13/09/08  10:06:15  PAGE 3   

              TYesNo SmsSendOk( void)
              // Testuje potvrzeni odeslani
              {
                 if( !ComRxMatch( SendOk, 0)){
                    return( NO);
                 }
                 return( YES);
              } // SmsSendOk
              
              #endif
 135          
 136          //-----------------------------------------------------------------------------
 137          // Receive
 138          //-----------------------------------------------------------------------------
 139          
 140          byte SmsRead( byte Index, char xdata *SrcNumber, char xdata *Text)
 141          // Precte prijatou zpravu z pozice <Index>, vrati jeji delku
 142          {
 143   1      byte MessageLength;
 144   1      byte i;
 145   1      byte ch;
 146   1      word idx;
 147   1      
 148   1      #ifdef GSM_SMS_USE_GSMCTL
                 if( !GsmReady()){
                    TRACE(1);
                    return( NO);                     // out of context
                 }
              #endif
 154   1         idx = (word)Index + SMS_INDEX_BASE;
 155   1         // AT prikaz Read :
 156   1         TxString( PduRead);
 157   1         ComTxWord( idx);                    // pozice
 158   1         ComTxChar( '\r');
 159   1         // read header prefix :
 160   1         if( !ComRxMatch( ReadHeader1, TO_SMS_READ)){
 161   2            TRACE(2);
 162   2            return( SMS_READ_ERROR);         // neplatna hlavicka odpovedi
 163   2         }
 164   1         // read next character :
 165   1         if( !ComRxChar( &ch)){
 166   2            TRACE(3);
 167   2            return( SMS_READ_ERROR);
 168   2         }
 169   1         if( ch == 'G'){
 170   2            // CMGR:
 171   2            if( !ComRxMatch( ReadHeader2, TO_REPLY)){
 172   3               TRACE(4);
 173   3               return( SMS_READ_ERROR);      // neplatna hlavicka odpovedi
 174   3            }
 175   2         } else if( ch == 'S'){
 176   2            // CMS ERROR
 177   2            if( ComRxMatch( EmptyRead, TO_REPLY)){
 178   3               TRACE(5);
 179   3               return( SMS_EMPTY_MESSAGE);
 180   3            }
 181   2            TRACE(6);
 182   2            return( SMS_READ_ERROR);
 183   2         } else {
 184   2            // unknown string
 185   2            TRACE(7);
 186   2            return( SMS_READ_ERROR);         // neplatna hlavicka odpovedi
 187   2         }
 188   1         // test for message type :
 189   1         if( !ComRxMatch( ReceivedMsg, TO_REPLY)){
 190   2            TRACE(9);
C51 COMPILER V5.50,  GSMSMS                                                                13/09/08  10:06:15  PAGE 4   

 191   2            return( SMS_READ_ERROR);
 192   2         }
 193   1         if( !ComWaitChar( ',')){
 194   2            TRACE(10);
 195   2            return( SMS_READ_ERROR);         // invalid sequence
 196   2         }
 197   1         // phone number :
 198   1         if( !ComRxString( SrcNumber, GSM_MAX_NUMBER)){
 199   2            TRACE(11);
 200   2            return( SMS_READ_ERROR);         // invalid sequence
 201   2         }
 202   1         if( SrcNumber[ 0] == '+'){          // remove leading + sign
 203   2            ch = strlen( SrcNumber);         // sorry
 204   2            for( i = 0; i < ch; i++){
 205   3                SrcNumber[ i] = SrcNumber[ i + 1];
 206   3            }
 207   2         }
 208   1         // skip up to end of line :
 209   1         if( !ComWaitChar( '\n')){
 210   2            TRACE(12);
 211   2            return( SMS_READ_ERROR);         // invalid sequence
 212   2         }
 213   1         // text of the message :
 214   1         MessageLength = ComRxDelimiter( Text, SMS_MAX_LENGTH, '\r');
 215   1         if( !MessageLength){
 216   2            TRACE(13);
 217   2            return( SMS_READ_ERROR);         // invalid sequence
 218   2         }
 219   1         // transform from GSM alphabet :
 220   1         for( i = 0; i < MessageLength; i++){
 221   2            ch = Text[ i];
 222   2            if( ch == '\0'){
 223   3               Text[ i] = '@';
 224   3            }
 225   2         }
 226   1         TRACE(0);
 227   1         return( MessageLength);
 228   1      } // SmsRead
 229          
 230          
 231          
 232          //-----------------------------------------------------------------------------
 233          // Delete
 234          //-----------------------------------------------------------------------------
 235          
 236          
 237          void SmsDelete( byte Index)
 238          // Smaze prijatou zpravu z pozice <Index>
 239          {
 240   1      word idx;
 241   1      
 242   1         idx = (word)Index + SMS_INDEX_BASE;
 243   1         TxString( Delete);
 244   1         ComTxWord( idx);                    // pozice
 245   1         ComTxChar( '\r');
 246   1      } // SmsDelete
C51 COMPILER V5.50,  GSMSMS                                                                13/09/08  10:06:15  PAGE 5   

ASSEMBLY LISTING OF GENERATED OBJECT CODE


             ; FUNCTION _SmsSend (BEGIN)
0000 8E00    R     MOV     DstNumber,R6
0002 8F00    R     MOV     DstNumber+01H,R7
0004 8B00    R     MOV     Text,R3
0006 8A00    R     MOV     Text+01H,R2
0008 8900    R     MOV     Text+02H,R1
                                           ; SOURCE LINE # 69
                                           ; SOURCE LINE # 71
                                           ; SOURCE LINE # 82
000A 120000  E     LCALL   ComFlushChars
000D 7E00    R     MOV     R6,#HIGH PduSend
000F 7F00    R     MOV     R7,#LOW PduSend
0011 120000  E     LCALL   _ComTxString
                                           ; SOURCE LINE # 83
0014 AF00    R     MOV     R7,DstNumber+01H
0016 AE00    R     MOV     R6,DstNumber
0018 120000  E     LCALL   _ComTxXString
                                           ; SOURCE LINE # 84
001B 7F22          MOV     R7,#022H
001D 120000  E     LCALL   _ComTxChar
                                           ; SOURCE LINE # 85
0020 7F0D          MOV     R7,#0DH
0022 120000  E     LCALL   _ComTxChar
                                           ; SOURCE LINE # 87
0025 7E00    R     MOV     R6,#HIGH Prompt
0027 7F00    R     MOV     R7,#LOW Prompt
0029 7D0A          MOV     R5,#0AH
002B 120000  E     LCALL   _ComRxMatch
002E 4008          JC      ?C0001
                                           ; SOURCE LINE # 88
0030 900000  E     MOV     DPTR,#GsmErrno
0033 7402          MOV     A,#02H
0035 F0            MOVX    @DPTR,A
                                           ; SOURCE LINE # 89
0036 C3            CLR     C
0037 22            RET     
                                           ; SOURCE LINE # 90
0038         ?C0001:
                                           ; SOURCE LINE # 92
0038 E4            CLR     A
0039 F500    R     MOV     i,A
003B         ?C0003:
003B E500    R     MOV     A,i
003D C3            CLR     C
003E 9500    R     SUBB    A,MessageLength
0040 5020          JNC     ?C0004
                                           ; SOURCE LINE # 93
0042 AB00    R     MOV     R3,Text
0044 AA00    R     MOV     R2,Text+01H
0046 A900    R     MOV     R1,Text+02H
0048 850082  R     MOV     DPL,i
004B 758300        MOV     DPH,#00H
004E 120000  E     LCALL   ?C?CLDOPTR
0051 F500    R     MOV     ch,A
                                           ; SOURCE LINE # 95
0053 B44003        CJNE    A,#040H,?C0006
                                           ; SOURCE LINE # 96
0056 E4            CLR     A
0057 F500    R     MOV     ch,A
                                           ; SOURCE LINE # 97
0059         ?C0006:
                                           ; SOURCE LINE # 98
0059 AF00    R     MOV     R7,ch
C51 COMPILER V5.50,  GSMSMS                                                                13/09/08  10:06:15  PAGE 6   

005B 120000  E     LCALL   _ComTxChar
                                           ; SOURCE LINE # 99
005E 0500    R     INC     i
0060 80D9          SJMP    ?C0003
0062         ?C0004:
                                           ; SOURCE LINE # 100
0062 7F1A          MOV     R7,#01AH
0064 120000  E     LCALL   _ComTxChar
                                           ; SOURCE LINE # 114
0067 E4            CLR     A
0068 900000  E     MOV     DPTR,#GsmErrno
006B F0            MOVX    @DPTR,A
                                           ; SOURCE LINE # 115
006C D3            SETB    C
                                           ; SOURCE LINE # 116
006D         ?C0002:
006D 22            RET     
             ; FUNCTION _SmsSend (END)

             ; FUNCTION _SmsRead (BEGIN)
0000 8C00    R     MOV     SrcNumber,R4
0002 8D00    R     MOV     SrcNumber+01H,R5
0004 8A00    R     MOV     Text,R2
0006 8B00    R     MOV     Text+01H,R3
;---- Variable 'Index' assigned to Register 'R7' ----
                                           ; SOURCE LINE # 140
                                           ; SOURCE LINE # 142
                                           ; SOURCE LINE # 154
0008 EF            MOV     A,R7
0009 242D          ADD     A,#02DH
000B F500    R     MOV     idx+01H,A
000D E4            CLR     A
000E 3401          ADDC    A,#01H
0010 F500    R     MOV     idx,A
                                           ; SOURCE LINE # 156
0012 120000  E     LCALL   ComFlushChars
0015 7E00    R     MOV     R6,#HIGH PduRead
0017 7F00    R     MOV     R7,#LOW PduRead
0019 120000  E     LCALL   _ComTxString
                                           ; SOURCE LINE # 157
001C AF00    R     MOV     R7,idx+01H
001E AE00    R     MOV     R6,idx
0020 120000  E     LCALL   _ComTxWord
                                           ; SOURCE LINE # 158
0023 7F0D          MOV     R7,#0DH
0025 120000  E     LCALL   _ComTxChar
                                           ; SOURCE LINE # 160
0028 7E00    R     MOV     R6,#HIGH ReadHeader1
002A 7F00    R     MOV     R7,#LOW ReadHeader1
002C 7D0F          MOV     R5,#0FH
002E 120000  E     LCALL   _ComRxMatch
0031 4009          JC      ?C0007
                                           ; SOURCE LINE # 161
0033 900000  E     MOV     DPTR,#GsmErrno
0036 7402          MOV     A,#02H
0038 F0            MOVX    @DPTR,A
                                           ; SOURCE LINE # 162
0039 7FFF          MOV     R7,#0FFH
003B 22            RET     
                                           ; SOURCE LINE # 163
003C         ?C0007:
                                           ; SOURCE LINE # 165
003C 7F00    R     MOV     R7,#LOW ch
003E 120000  E     LCALL   _ComRxChar
0041 4009          JC      ?C0009
                                           ; SOURCE LINE # 166
C51 COMPILER V5.50,  GSMSMS                                                                13/09/08  10:06:15  PAGE 7   

0043 900000  E     MOV     DPTR,#GsmErrno
0046 7403          MOV     A,#03H
0048 F0            MOVX    @DPTR,A
                                           ; SOURCE LINE # 167
0049 7FFF          MOV     R7,#0FFH
004B 22            RET     
                                           ; SOURCE LINE # 168
004C         ?C0009:
                                           ; SOURCE LINE # 169
004C E500    R     MOV     A,ch
004E B44714        CJNE    A,#047H,?C0010
                                           ; SOURCE LINE # 171
0051 7E00    R     MOV     R6,#HIGH ReadHeader2
0053 7F00    R     MOV     R7,#LOW ReadHeader2
0055 7D08          MOV     R5,#08H
0057 120000  E     LCALL   _ComRxMatch
005A 4035          JC      ?C0012
                                           ; SOURCE LINE # 172
005C 900000  E     MOV     DPTR,#GsmErrno
005F 7404          MOV     A,#04H
0061 F0            MOVX    @DPTR,A
                                           ; SOURCE LINE # 173
0062 7FFF          MOV     R7,#0FFH
0064 22            RET     
                                           ; SOURCE LINE # 174
                                           ; SOURCE LINE # 175
0065         ?C0010:
0065 E500    R     MOV     A,ch
0067 6453          XRL     A,#053H
0069 701D          JNZ     ?C0013
                                           ; SOURCE LINE # 177
006B 7E00    R     MOV     R6,#HIGH EmptyRead
006D 7F00    R     MOV     R7,#LOW EmptyRead
006F 7D08          MOV     R5,#08H
0071 120000  E     LCALL   _ComRxMatch
0074 5009          JNC     ?C0014
                                           ; SOURCE LINE # 178
0076 900000  E     MOV     DPTR,#GsmErrno
0079 7405          MOV     A,#05H
007B F0            MOVX    @DPTR,A
                                           ; SOURCE LINE # 179
007C 7F00          MOV     R7,#00H
007E 22            RET     
                                           ; SOURCE LINE # 180
007F         ?C0014:
                                           ; SOURCE LINE # 181
007F 900000  E     MOV     DPTR,#GsmErrno
0082 7406          MOV     A,#06H
0084 F0            MOVX    @DPTR,A
                                           ; SOURCE LINE # 182
0085 7FFF          MOV     R7,#0FFH
0087 22            RET     
                                           ; SOURCE LINE # 183
0088         ?C0013:
                                           ; SOURCE LINE # 185
0088 900000  E     MOV     DPTR,#GsmErrno
008B 7407          MOV     A,#07H
008D F0            MOVX    @DPTR,A
                                           ; SOURCE LINE # 186
008E 7FFF          MOV     R7,#0FFH
0090 22            RET     
                                           ; SOURCE LINE # 187
0091         ?C0012:
                                           ; SOURCE LINE # 189
0091 7E00    R     MOV     R6,#HIGH ReceivedMsg
0093 7F00    R     MOV     R7,#LOW ReceivedMsg
C51 COMPILER V5.50,  GSMSMS                                                                13/09/08  10:06:15  PAGE 8   

0095 7D08          MOV     R5,#08H
0097 120000  E     LCALL   _ComRxMatch
009A 4009          JC      ?C0016
                                           ; SOURCE LINE # 190
009C 900000  E     MOV     DPTR,#GsmErrno
009F 7409          MOV     A,#09H
00A1 F0            MOVX    @DPTR,A
                                           ; SOURCE LINE # 191
00A2 7FFF          MOV     R7,#0FFH
00A4 22            RET     
                                           ; SOURCE LINE # 192
00A5         ?C0016:
                                           ; SOURCE LINE # 193
00A5 7F2C          MOV     R7,#02CH
00A7 120000  E     LCALL   _ComWaitChar
00AA 4009          JC      ?C0017
                                           ; SOURCE LINE # 194
00AC 900000  E     MOV     DPTR,#GsmErrno
00AF 740A          MOV     A,#0AH
00B1 F0            MOVX    @DPTR,A
                                           ; SOURCE LINE # 195
00B2 7FFF          MOV     R7,#0FFH
00B4 22            RET     
                                           ; SOURCE LINE # 196
00B5         ?C0017:
                                           ; SOURCE LINE # 198
00B5 AF00    R     MOV     R7,SrcNumber+01H
00B7 AE00    R     MOV     R6,SrcNumber
00B9 7D10          MOV     R5,#010H
00BB 120000  E     LCALL   _ComRxString
00BE 4009          JC      ?C0018
                                           ; SOURCE LINE # 199
00C0 900000  E     MOV     DPTR,#GsmErrno
00C3 740B          MOV     A,#0BH
00C5 F0            MOVX    @DPTR,A
                                           ; SOURCE LINE # 200
00C6 7FFF          MOV     R7,#0FFH
00C8 22            RET     
                                           ; SOURCE LINE # 201
00C9         ?C0018:
                                           ; SOURCE LINE # 202
00C9 850082  R     MOV     DPL,SrcNumber+01H
00CC 850083  R     MOV     DPH,SrcNumber
00CF E0            MOVX    A,@DPTR
00D0 642B          XRL     A,#02BH
00D2 703A          JNZ     ?C0019
                                           ; SOURCE LINE # 203
00D4 AA00    R     MOV     R2,SrcNumber
00D6 A900    R     MOV     R1,SrcNumber+01H
00D8 7B01          MOV     R3,#01H
00DA 120000  E     LCALL   _strlen
00DD 8F00    R     MOV     ch,R7
                                           ; SOURCE LINE # 204
00DF E4            CLR     A
00E0 F500    R     MOV     i,A
00E2         ?C0020:
00E2 E500    R     MOV     A,i
00E4 C3            CLR     C
00E5 9500    R     SUBB    A,ch
00E7 5025          JNC     ?C0019
                                           ; SOURCE LINE # 205
00E9 E500    R     MOV     A,i
00EB 2401          ADD     A,#01H
00ED FF            MOV     R7,A
00EE E4            CLR     A
00EF 33            RLC     A
C51 COMPILER V5.50,  GSMSMS                                                                13/09/08  10:06:15  PAGE 9   

00F0 FE            MOV     R6,A
00F1 E500    R     MOV     A,SrcNumber+01H
00F3 2F            ADD     A,R7
00F4 F582          MOV     DPL,A
00F6 EE            MOV     A,R6
00F7 3500    R     ADDC    A,SrcNumber
00F9 F583          MOV     DPH,A
00FB E0            MOVX    A,@DPTR
00FC FF            MOV     R7,A
00FD E500    R     MOV     A,SrcNumber+01H
00FF 2500    R     ADD     A,i
0101 F582          MOV     DPL,A
0103 E4            CLR     A
0104 3500    R     ADDC    A,SrcNumber
0106 F583          MOV     DPH,A
0108 EF            MOV     A,R7
0109 F0            MOVX    @DPTR,A
                                           ; SOURCE LINE # 206
010A 0500    R     INC     i
010C 80D4          SJMP    ?C0020
                                           ; SOURCE LINE # 207
010E         ?C0019:
                                           ; SOURCE LINE # 209
010E 7F0A          MOV     R7,#0AH
0110 120000  E     LCALL   _ComWaitChar
0113 4009          JC      ?C0023
                                           ; SOURCE LINE # 210
0115 900000  E     MOV     DPTR,#GsmErrno
0118 740C          MOV     A,#0CH
011A F0            MOVX    @DPTR,A
                                           ; SOURCE LINE # 211
011B 7FFF          MOV     R7,#0FFH
011D 22            RET     
                                           ; SOURCE LINE # 212
011E         ?C0023:
                                           ; SOURCE LINE # 214
011E AF00    R     MOV     R7,Text+01H
0120 AE00    R     MOV     R6,Text
0122 7DA1          MOV     R5,#0A1H
0124 7B0D          MOV     R3,#0DH
0126 120000  E     LCALL   _ComRxDelimiter
;---- Variable 'MessageLength' assigned to Register 'R6' ----
0129 AE07          MOV     R6,AR7
                                           ; SOURCE LINE # 215
012B EE            MOV     A,R6
012C 7009          JNZ     ?C0024
                                           ; SOURCE LINE # 216
012E 900000  E     MOV     DPTR,#GsmErrno
0131 740D          MOV     A,#0DH
0133 F0            MOVX    @DPTR,A
                                           ; SOURCE LINE # 217
0134 7FFF          MOV     R7,#0FFH
0136 22            RET     
                                           ; SOURCE LINE # 218
0137         ?C0024:
                                           ; SOURCE LINE # 220
0137 E4            CLR     A
0138 F500    R     MOV     i,A
013A         ?C0025:
013A E500    R     MOV     A,i
013C C3            CLR     C
013D 9E            SUBB    A,R6
013E 5017          JNC     ?C0026
                                           ; SOURCE LINE # 221
0140 E500    R     MOV     A,Text+01H
0142 2500    R     ADD     A,i
C51 COMPILER V5.50,  GSMSMS                                                                13/09/08  10:06:15  PAGE 10  

0144 F582          MOV     DPL,A
0146 E4            CLR     A
0147 3500    R     ADDC    A,Text
0149 F583          MOV     DPH,A
014B E0            MOVX    A,@DPTR
014C F500    R     MOV     ch,A
                                           ; SOURCE LINE # 222
014E 7003          JNZ     ?C0027
                                           ; SOURCE LINE # 223
0150 7440          MOV     A,#040H
0152 F0            MOVX    @DPTR,A
                                           ; SOURCE LINE # 224
                                           ; SOURCE LINE # 225
0153         ?C0027:
0153 0500    R     INC     i
0155 80E3          SJMP    ?C0025
0157         ?C0026:
                                           ; SOURCE LINE # 226
0157 E4            CLR     A
0158 900000  E     MOV     DPTR,#GsmErrno
015B F0            MOVX    @DPTR,A
                                           ; SOURCE LINE # 227
015C AF06          MOV     R7,AR6
                                           ; SOURCE LINE # 228
015E         ?C0008:
015E 22            RET     
             ; FUNCTION _SmsRead (END)

             ; FUNCTION _SmsDelete (BEGIN)
;---- Variable 'Index' assigned to Register 'R7' ----
                                           ; SOURCE LINE # 237
                                           ; SOURCE LINE # 239
                                           ; SOURCE LINE # 242
0000 EF            MOV     A,R7
0001 242D          ADD     A,#02DH
0003 F500    R     MOV     idx+01H,A
0005 E4            CLR     A
0006 3401          ADDC    A,#01H
0008 F500    R     MOV     idx,A
                                           ; SOURCE LINE # 243
000A 120000  E     LCALL   ComFlushChars
000D 7E00    R     MOV     R6,#HIGH Delete
000F 7F00    R     MOV     R7,#LOW Delete
0011 120000  E     LCALL   _ComTxString
                                           ; SOURCE LINE # 244
0014 AF00    R     MOV     R7,idx+01H
0016 AE00    R     MOV     R6,idx
0018 120000  E     LCALL   _ComTxWord
                                           ; SOURCE LINE # 245
001B 7F0D          MOV     R7,#0DH
001D 120000  E     LCALL   _ComTxChar
                                           ; SOURCE LINE # 246
0020 22            RET     
             ; FUNCTION _SmsDelete (END)



MODULE INFORMATION:   STATIC OVERLAYABLE
   CODE SIZE        =    494    ----
   CONSTANT SIZE    =     71    ----
   XDATA SIZE       =   ----    ----
   PDATA SIZE       =   ----    ----
   DATA SIZE        =   ----      18
   IDATA SIZE       =   ----    ----
   BIT SIZE         =   ----    ----
END OF MODULE INFORMATION.
C51 COMPILER V5.50,  GSMSMS                                                                13/09/08  10:06:15  PAGE 11  



C51 COMPILATION COMPLETE.  0 WARNING(S),  0 ERROR(S)
