:100000000C949C000C94C6000C94C6000C94C60082
:100010000C94C6000C94C6000C94C6000C94C60048
:100020000C94C6000C94C6000C948C060C94C6006C
:100030000C94C6000C94C6000C94C6000C94C60028
:100040000C94C6000C94C6000C94C6000C94C60018
:100050000C94C6000C94C6000C94C6000C94C60008
:100060000C94C6000C94C6000C94C6000C94C600F8
:100070000C94C6000C94C6000C94C6000C94C600E8
:100080000C94C6000C94C6000C94C6000C94C600D8
:100090000C94C6000C94C60012010002000000403F
:1000A000EB031320001001020301090229000101E2
:1000B0000080320904000002030000000921110140
:1000C0000001222600070581034000010705020305
:1000D0004000010C03410054004D0045004C00223B
:1000E00003410056005200200055005300420020FA
:1000F000004800490044002000440045004D004FE6
:10010000000C0330003000300030003000040309E0
:100110000406FFFF0901A10109020903150026FFDA
:100120000075089540810209040905150026FF00A5
:10013000750895409102C00011241FBECFEFD0E298
:10014000DEBFCDBF80E090E020E80FB6F8942093AA
:100150006100809361000FBE81E011E0A0E0B1E09A
:10016000EEEAF0E100E00BBF02C007900D92A23072
:10017000B107D9F711E0A2E0B1E001C01D92A535A9
:10018000B107E1F70E94E2010C9455080C940000BD
:100190008091550190915601A0915701B09158015D
:1001A00085559A4AAA4AB54569F4109255011092AC
:1001B00056011092570110925801E0910001F09100
:1001C000010109950895E0910001F091010109955F
:1001D000089585E59AEAAAEAB5E5809355019093DA
:1001E0005601A0935701B093580185E00E9408087A
:1001F000FFCF7894E8EDF0E080818F768083808176
:100200008069808380818F7B8083789408958EE0DD
:1002100089BD09B400FEFDCFF8948091D8008F7D90
:100220008093D8000E94CA018091E0008E7F809365
:10023000E00078948091E20081608093E2008091F8
:10024000E20088608093E20008958091D90080FFE9
:1002500014C080910201882381F481E0809302011F
:10026000109206018091070190910801826090939D
:100270000801809307010E9407018091D90080FD49
:1002800018C036C0109202011092510180910701EE
:1002900090910801846090930801809307018091F8
:1002A000E00081608093E0008091D80080628093BC
:1002B000D800809107019091080190FF10C08091B3
:1002C0000701909108019E7F909308018093070198
:1002D00081E08093EA001092EA001092510110929E
:1002E000E9008091E80083FF08C00E94320408956D
:1002F000809102018130E9F6C5CF08959091EB001D
:1003000091609093EB008093EC008091ED008270FF
:10031000862B8093ED008091ED0082608093ED004C
:100320008091EE00881F8827881F08959091F4001F
:1003300080E090FD06C08F5F873011F09695F9CF71
:1003400080E00895FB018093E90004C081918093CF
:10035000F10041508091E80085FF02C04423B1F7CD
:10036000842F0895FB018093E90004C08091F1007F
:10037000819341508091E80085FF02C04423B1F78A
:10038000842F08958093E900EBEEF0E08081806295
:10039000808308958091D8008F7B8093D8008091CE
:1003A000D90081FF0DC01092E9008091EB0080FD23
:1003B00007C01092E90082E060E30E947E01089588
:1003C00080E008950E94C8000E94F80780E090E055
:1003D00020E80FB6F89420936100809361000FBE6F
:1003E0000E94E20780E090E0089580E00895892B64
:1003F00019F581E08093E9008091EB0080618093A2
:10040000EB0092E09093EA001092EA008091EB00FA
:1004100088608093EB009093E9008091EB0080610D
:100420008093EB0084E08093EA001092EA008091D0
:10043000EB0088608093EB000895833031F56130E4
:1004400069F0613028F0623079F06330F1F412C065
:1004500084E0809352018DE091E011C08CE08093A4
:10046000520183ED90E00BC082E2809352018FED48
:1004700090E005C08CE08093520181E091E0909380
:1004800054018093530181E0089580E00895DF9343
:10049000CF9300D000D0CDB7DEB78091F1008B8331
:1004A0008091F1008C8386E28093520181E191E09A
:1004B00090935401809353018091F100898380913E
:1004C000F1008A838091E800877F8093E80089812A
:1004D0009A818732910528F04091520121E131E063
:1004E0001CC080935201F8CF8091E80080FFFCCFC0
:1004F000F90190E00AC0542F5150903449F09F5FA9
:1005000084918093F1003196452F9F01442399F700
:100510008091E8008E7F8093E800442359F0809119
:10052000E80082FFE1CF30935401209353014093C0
:10053000520106C03093540120935301109252018E
:100540008091E80082FFFCCF8091E8008B7F809350
:10055000E8008091E8008F778093E8000F900F907B
:100560000F900F90CF91DF9108958091E800877FE1
:100570008093E8008091E8008E7F8093E80080916E
:10058000E80082FFFCCF8091E8008B7F8093E80039
:100590008091E8008F778093E8008091E8008E7F5B
:1005A0008093E8000895DF93CF9300D0CDB7DEB7F6
:1005B0008091F10089838091F1008A838091E80025
:1005C000877F8093E800609305018091E8008E7F2B
:1005D0008093E8008091E80080FFFCCF0F900F909F
:1005E000CF91DF910895DF93CF9300D000D0CDB7A6
:1005F000DEB78091F1008B838091F1008C83809134
:10060000F10089838091F1008A838091E800877FDF
:100610008093E80089819A81892B49F080910501B6
:100620008093F1008091E8008E7F8093E8008091B4
:10063000E80082FFFCCF8091E8008B7F8093E80088
:100640008091E8008F778093E8000F900F900F90D3
:100650000F90CF91DF9108958091E800877F80937C
:10066000E8008091E8008E7F8093E8008091E800A8
:1006700082FFFCCF8091F100853579F48091F10003
:100680008A3A59F48091F100853539F48091F1006E
:100690008A3A19F481E0809304018091E8008B7F0D
:1006A0008093E8008091E8008F778093E800809144
:1006B000E8008E7F8093E8008091E80080FFFCCF07
:1006C0000895DF93CF9300D000D0CDB7DEB78091EF
:1006D000F1008B838091F1008C8389E0809352013B
:1006E0008CEB90E090935401809353018091F10042
:1006F00089838091F1008A838091E800877F8093CD
:10070000E80089819A818A30910528F04091520150
:100710002CEB30E01CC080935201F8CF8091E800B0
:1007200080FFFCCFF90190E00AC0542F5150903463
:1007300049F09F5F84918093F1003196452F9F018E
:10074000442399F78091E8008E7F8093E80044234A
:1007500059F08091E80082FFE1CF3093540120935B
:1007600053014093520106C030935401209353012A
:10077000109252018091E80082FFFCCF8091E80046
:100780008B7F8093E8008091E8008F778093E8006A
:100790000F900F900F900F90CF91DF9108952091BF
:1007A000F1009091F100813869F4663059F5913289
:1007B00019F0923239F503C00E94610321C00E94F2
:1007C00047021EC08132A9F4693019F06A30D1F4B1
:1007D0000BC0923019F09330A9F403C00E94B50207
:1007E0000FC00E942C030CC0822F692F0E94D302DD
:1007F00007C0813A39F4623029F4822F0E94F30253
:1008000081E0089580E008950F931F9309EE10E0B2
:1008100081E0F801808381EC60E30E947E0182E048
:10082000F801808380EC60E30E947E011F910F91AC
:10083000089509B400FC05C08EE089BD09B400FE2E
:10084000FDCF8091D8008F7D8093D80080910601E4
:10085000813039F48091E00082608093E000109252
:10086000060108950F931F93DF93CF9300D0CDB768
:10087000DEB78091E8008B7F8093E8001091F10053
:100880000091F1000630F9F0073068F4013009F406
:1008900034C1013008F4A1C1033009F462C105304C
:1008A00009F020C2EDC0093009F40FC10A3020F46C
:1008B000083009F017C2BAC00A3009F4C1C10B30C0
:1008C00009F010C2E7C1103809F00CC26091F100C4
:1008D0008091F100813019F0823089F406C082E104
:1008E0008093520188E990E005C089E2809352012B
:1008F0008AEA90E0909354018093530105C00E94CE
:100900001D02882309F4EEC18091F1008091F1006D
:100910008091F10089838091F1008A838091E800C1
:10092000877F8093E80029813A818091520190E08D
:100930008217930730F48F739070892B21F461E054
:1009400003C02093520160E08091E8008F7E809385
:10095000E8003091530140915401209152012DC083
:100960008091E80084FF05C0832F942FFC0190E064
:1009700013C08091D90080FFF7CF8091E80080FFFD
:10098000EFCFF2CF522F5150903451F09F5F8491AE
:100990008093F1003196252F3E2F4F2F222391F780
:1009A0008091E80084FD16C08091D90080FF12C0BC
:1009B0008091E8008E7F8093E800222339F4309301
:1009C000530140935401109252010AC08091E800F3
:1009D00084FFD3CF309353014093540120935201AD
:1009E0006130B9F48091E80084FF05C012C08091A5
:1009F000D90080FF04C08091E80080FFF8CF80918B
:100A0000E8008E7F8093E80004C08091D90080FFC9
:100A100004C08091E80084FFF8CF8091E8008F7EC9
:100A20008093E8008091E8008B7F27C0103809F0A0
:100A300059C18091E800877F8093E800809151013F
:100A40008093F1008091E8008E7F8093E800809190
:100A5000E8008F778093E80004C08091D90080FF80
:100A600004C08091E80082FFF8CF8091E8008B7F7E
:100A70008093E8008091E8008F778093E80045C17B
:100A8000112309F02FC19091F1008091E3009F772D
:100A90008078982B9093E3008091E800877F809383
:100AA000E8008091E8008E7F8093E80004C0809188
:100AB000D90080FF04C08091E80080FFF8CF8091CA
:100AC000E30080688093E30020C1112309F00AC18C
:100AD0009091F100923008F005C18091E800877F85
:100AE0008093E800909351018091E8008E7F80937D
:100AF000E800892F0E94040408C11123C1F11230BB
:100B000009F0F0C08091F1009091F100882309F084
:100B1000E9C0E091F100EF77E093E9008091EB000C
:100B200080FF43C0EE23B1F08091EB0080618093A1
:100B3000EB0081E090E00E2E02C0880F991F0A940E
:100B4000E2F78093EA001092EA008091EB0088605F
:100B50008093EB001092E900F0E0E65BFE4F10821C
:100B600033C0112321F0123009F0BCC003C08091C2
:100B7000F100B8C08091F1009091F100882309F054
:100B8000B1C0E091F100EF7751F48091EB00806209
:100B90008093EB008091E800877F8093E800E093EA
:100BA000E9008091EB0080FD03C01092E9009AC03B
:100BB0008091EB0080628093EB001092E900F0E0FE
:100BC000E65BFE4F81E080838091E800877F809321
:100BD000E8008091E8008E7F50CF8091F1008091F5
:100BE000F100E091F100113829F0123859F0103875
:100BF00009F078C08091E800877F8093E800109228
:100C0000F1000DC08091E800877F8093E800F0E05C
:100C1000EF77F070E65BFE4F80818093F1001092D9
:100C2000F1008091E8008E7F8093E80004C08091FD
:100C3000D90080FF1ACF8091E80082FFF8CF15CF4E
:100C4000113809F04FC08091F1008091F10090912E
:100C5000F10099839091F1009A83882309F042C0B2
:100C60008091E800877F8093E80089819A810E94C3
:100C7000F5018093F1008091E8008E7F8093E80079
:100C800004C08091D90080FFF0CE8091E80082FFFF
:100C9000F8CFEBCE113031F56091F1008091F10089
:100CA0009091F10099839091F1009A838823D1F477
:100CB0008091E800877F8093E80089819A810E9473
:100CC000F7011092E9008091E8008E7F8093E800A0
:100CD00004C08091D90080FF18C08091E80080FF97
:100CE000F8CF13C0812F602F0E94CF03882369F4AF
:100CF0008091EB0080628093EB008091E800877F19
:100D00008093E80081E080934A010F900F90CF918B
:100D1000DF911F910F9108951F920F920FB60F92BE
:100D20000BB60F9211242F933F934F935F936F93C2
:100D30007F938F939F93AF93BF93EF93FF93809194
:100D4000E10082FF09C08091E20082FF05C08BEFC5
:100D50008093E1000E9483078091E10080FF40C002
:100D60008091E20080FF3CC0809106018130D9F47F
:100D7000809151018823B9F08091E2008E7F8093A9
:100D8000E2008FEE8093E1008091E2008061809329
:100D9000E20089B58D7F89BD19BC8091D800806241
:100DA0008093D8001DC08FEE8093E10080910701F1
:100DB00090910801806290930801809307018EEF63
:100DC0008093E1008091E20080618093E200809155
:100DD000D80080628093D80089B58D7F89BD19BC09
:100DE0008091E10084FF27C08091E20084FF23C04E
:100DF00009B400FC05C08EE089BD09B400FEFDCF3A
:100E00008091D8008F7D8093D8008FEE8093E10091
:100E10008091E2008F7E8093E200809107019091A3
:100E20000801806490930801809307018091E2009B
:100E300081608093E2008091E10085FF1AC080917B
:100E4000E20085FF16C08091E2008F7E8093E20071
:100E50008FED8093E1008091E2008F7D8093E2002E
:100E60008091070190910801806890930801809318
:100E700007018091E10083FF12C08091E20083FFAF
:100E80000EC087EF8093E1000E94CA0180910701A4
:100E90009091080191609093080180930701FF9160
:100EA000EF91BF91AF919F918F917F916F915F91E2
:100EB0004F913F912F910F900BBE0F900FBE0F904F
:100EC0001F9018950E9425010895E7EDF0E08081BC
:100ED0008160808380818F7B808380818068808334
:100EE0000E94F90008958AB1806F8AB984B18F7128
:100EF00084B985B1806E85B98DB18F7C8DB98EB185
:100F000080638EB908950895089582E08093E90082
:100F10008091E80082FF1CC05C9A809109018823BF
:100F2000B9F4EAE0F1E08091F100819381E0EA34E4
:100F3000F807C9F78091E8008B7F8093E8008091E3
:100F4000E8008F778093E80081E0809309015C9846
:100F50000895809109018823F1F081E08093E900F0
:100F60008091E80085FF17C05E9AEAE0F1E0819188
:100F70008093F10081E0EA34F807C9F78091E80036
:100F80008E7F8093E8008091E8008F778093E8005F
:100F9000109209015E98089580915101882321F0F3
:100FA0000E9485070E94A907089508950E9462077C
:100FB0000E94CC070E948407F9CF0E9465070E9417
:100FC000730708950E94DD070E94D60708952FEC4D
:100FD00037E0E22FF32F3197F1F70197D1F708951A
:100FE000000000000000000000008A95C9F7089585
:100FF0008FB7F89497EF94BF98E10FB6F894909359
:101000006000109260000FBE87FF01C078940895C1
:10101000982F3FB7F89487EF84BF93FD02C028E074
:1010200001C028E29770292B88E190E00FB6F89470
:10103000A895809360000FBE2093600037FF01C029
:1010400078940895982F3FB787EF84BF93FD02C02F
:1010500020E401C020E69770292B88E190E00FB6CC
:10106000F894A895809360000FBE2093600037FF2E
:1010700001C078940895982F3FB7F89487EF84BF04
:1010800093FD02C028E401C028E69770292B88E16F
:1010900090E00FB6F894A895809360000FBE20935F
:0E10A000600037FF01C078940895F894FFCFE8
:0210AE0000F050
:00000001FF
