BL51 BANKED LINKER/LOCATER V3.70c               31/05/05  17:55:35  PAGE 1


MS-DOS BL51 BANKED LINKER/LOCATER V3.70c, INVOKED BY:
C:\KEIL\C51_V5.5\BIN\BL51.EXE ..\MODULY\SED1335\SED1335.OBJ, ..\MODULY\SED1335
>> \FONT.OBJ, ..\MODULY\RD2\PCA.OBJ, ..\MODULY\X9313\X9313.OBJ, ..\MODULY\ADS7
>> 846\ADS7846.OBJ, ..\MODULY\LIB\CPRINTF.OBJ, MAIN.OBJ, ..\MODULY\LIB\MYLIB.L
>> IB TO TMC_TEST.EXE RS (256) PL (68) PW (78) CODE (?C_C51STARTUP, ?PR?MAIN?M
>> AIN)


MEMORY MODEL: SMALL


INPUT MODULES INCLUDED:
  ..\MODULY\SED1335\SED1335.OBJ (SED1335)
  ..\MODULY\SED1335\FONT.OBJ (FONT)
  ..\MODULY\RD2\PCA.OBJ (PCA)
  ..\MODULY\X9313\X9313.OBJ (X9313)
  ..\MODULY\ADS7846\ADS7846.OBJ (ADS7846)
  ..\MODULY\LIB\CPRINTF.OBJ (CPRINTF)
  MAIN.OBJ (MAIN)
  ..\MODULY\LIB\MYLIB.LIB (CPUTS)
  ..\MODULY\LIB\MYLIB.LIB (CPRINTDE)
  ..\MODULY\LIB\MYLIB.LIB (CPRINTHE)
  ..\MODULY\LIB\MYLIB.LIB (DBIN2BCD)
  ..\MODULY\LIB\MYLIB.LIB (NIBBLE2HEX)
  C:\KEIL\C51_V5.5\LIB\C51S.LIB (?C_STARTUP)
  C:\KEIL\C51_V5.5\LIB\C51S.LIB (?C?CLDPTR)
  C:\KEIL\C51_V5.5\LIB\C51S.LIB (?C?IMUL)
  C:\KEIL\C51_V5.5\LIB\C51S.LIB (?C?UIDIV)
  C:\KEIL\C51_V5.5\LIB\C51S.LIB (?C?ILDPTR)
  C:\KEIL\C51_V5.5\LIB\C51S.LIB (?C?LMUL)
  C:\KEIL\C51_V5.5\LIB\C51S.LIB (?C?ULDIV)
  C:\KEIL\C51_V5.5\LIB\C51S.LIB (?C?LNEG)
  C:\KEIL\C51_V5.5\LIB\C51S.LIB (?C?SLCMP)
  C:\KEIL\C51_V5.5\LIB\C51S.LIB (?C?LLDPTR)
  C:\KEIL\C51_V5.5\LIB\C51S.LIB (?C?CCASE)
  C:\KEIL\C51_V5.5\LIB\C51S.LIB (?C_INIT)
  C:\KEIL\C51_V5.5\LIB\C51S.LIB (?C?LLDIDATA)
  C:\KEIL\C51_V5.5\LIB\C51S.LIB (?C?LLDXDATA)
  C:\KEIL\C51_V5.5\LIB\C51S.LIB (?C?LLDPDATA)
  C:\KEIL\C51_V5.5\LIB\C51S.LIB (?C?LLDCODE)


LINK MAP OF MODULE:  TMC_TEST.EXE (SED1335)


            TYPE    BASE      LENGTH    RELOCATION   SEGMENT NAME
            -----------------------------------------------------

            * * * * * * *   D A T A   M E M O R Y   * * * * * * *
            REG     0000H     0008H     ABSOLUTE     "REG BANK 0"
            DATA    0008H     0006H     UNIT         ?DT?SED1335
            DATA    000EH     0003H     UNIT         ?DT?PCA
            DATA    0011H     0002H     UNIT         ?DT?MAIN
            DATA    0013H     0001H     UNIT         ?DT?ADS7846
                    0014H     000CH                  *** GAP ***
            BIT     0020H.0   0000H.3   UNIT         ?BI?SED1335
            BIT     0020H.3   0000H.1   UNIT         ?BI?MAIN
            BIT     0020H.4   0000H.1   UNIT         _BIT_GROUP_
                    0020H.5   0000H.3                *** GAP ***
            DATA    0021H     0031H     UNIT         _DATA_GROUP_
            IDATA   0052H     0001H     UNIT         ?STACK

            * * * * * * *   C O D E   M E M O R Y   * * * * * * *
            CODE    0000H     0003H     ABSOLUTE     
            CODE    0003H     0008H     UNIT         ?PR?SYSWAITEVENT?MAIN
            CODE    000BH     0003H     ABSOLUTE     
BL51 BANKED LINKER/LOCATER V3.70c             31/05/05  17:55:35  PAGE 2


            CODE    000EH     001FH     UNIT         ?PR?TOUCHINIT?ADS7846
            CODE    002DH     0006H     UNIT         ?PR?PCASTOP?PCA
            CODE    0033H     0003H     ABSOLUTE     
            CODE    0036H     008CH     UNIT         ?C_C51STARTUP
            CODE    00C2H     01F5H     UNIT         ?PR?MAIN?MAIN
            CODE    02B7H     0268H     UNIT         ?C?LIB_CODE
            CODE    051FH     0231H     UNIT         ?PR?_CPRINTF?CPRINTF
            CODE    0750H     0178H     UNIT         ?PR?_PUTCHAR?SED1335
            CODE    08C8H     0114H     UNIT         ?PR?DISPLAYINIT?SED1335
            CODE    09DCH     0084H     UNIT         ?PR?_CPRINTHEX?CPRINTHE
            CODE    0A60H     0079H     UNIT         ?CO?FONT
            CODE    0AD9H     0071H     UNIT         ?CO?MAIN
            CODE    0B4AH     006DH     UNIT         ?PR?_TOUCHY?ADS7846
            CODE    0BB7H     006CH     UNIT         ?PR?_TOUCHX?ADS7846
            CODE    0C23H     006CH     UNIT         ?PR?_READCOORDINATE?ADS78
>> 46
            CODE    0C8FH     005CH     UNIT         ?PR?_CPRINTDEC?CPRINTDE
            CODE    0CEBH     0059H     UNIT         ?PR?TIMER0HANDLER?MAIN
            CODE    0D44H     0056H     UNIT         ?PR?TOUCHISPRESSED?ADS784
>> 6
            CODE    0D9AH     0052H     UNIT         ?PR?_DISPLAYPATTERN?SED13
>> 35
            CODE    0DECH     0048H     UNIT         ?PR?_PCARUN?PCA
            CODE    0E34H     0045H     UNIT         ?PR?_READCONVERSION?ADS78
>> 46
            CODE    0E79H     003BH     UNIT         ?PR?_DBIN2BCD?DBIN2BCD
            CODE    0EB4H     0038H     UNIT         ?PR?_VIDEORAMSET?SED1335
            CODE    0EECH     0037H     UNIT         ?PR?DISPLAYPLANE?SED1335
            CODE    0F23H     002FH     UNIT         ?PR?_SYSDELAY?MAIN
            CODE    0F52H     002EH     UNIT         ?PR?SYSYIELD?MAIN
            CODE    0F80H     002AH     UNIT         ?PR?DISPLAYCLEAR?SED1335
            CODE    0FAAH     001CH     UNIT         ?PR?_TOUCHREADCOORDINATES
>> ?ADS7846
            CODE    0FC6H     001AH     UNIT         ?PR?CLEARRAM?SED1335
            CODE    0FE0H     0018H     UNIT         ?PR?_SETCURSOR?SED1335
            CODE    0FF8H     0018H     UNIT         ?PR?PCAHANDLER?PCA
            CODE    1010H     0018H     UNIT         ?PR?_CPUTS?CPUTS
            CODE    1028H     0013H     UNIT         ?PR?E2POTDOWN?X9313
            CODE    103BH     0013H     UNIT         ?PR?E2POTUP?X9313
            CODE    104EH     000DH     UNIT         ?PR?_DISPLAYGOTORC?SED133
>> 5
            CODE    105BH     000DH     UNIT         ?PR?TOUCHISAUTOREPEAT?ADS
>> 7846
            CODE    1068H     000CH     UNIT         ?C_INITSEG
            CODE    1074H     000BH     UNIT         ?PR?_DISPLAYSETFONT?SED13
>> 35
            CODE    107FH     000BH     UNIT         ?PR?_DISPLAYWRITECOMMAND?
>> SED1335
            CODE    108AH     000BH     UNIT         ?PR?_NIBBLE2HEX?NIBBLE2HE
>> X
            CODE    1095H     0005H     UNIT         ?PR?DISPLAYSETPLANE?SED13
>> 35



OVERLAY MAP OF MODULE:   TMC_TEST.EXE (SED1335)


SEGMENT                                      BIT_GROUP          DATA_GROUP 
  +--> CALLED SEGMENT                     START    LENGTH     START    LENGTH
-----------------------------------------------------------------------------
?C_C51STARTUP                             -----    -----      -----    -----
  +--> ?PR?MAIN?MAIN
  +--> ?C_INITSEG

BL51 BANKED LINKER/LOCATER V3.70c             31/05/05  17:55:35  PAGE 3


?PR?MAIN?MAIN                             -----    -----      0021H    0008H
  +--> ?PR?_PCARUN?PCA
  +--> ?PR?_SYSDELAY?MAIN
  +--> ?PR?DISPLAYINIT?SED1335
  +--> ?PR?TOUCHINIT?ADS7846
  +--> ?PR?TOUCHISAUTOREPEAT?ADS7846
  +--> ?CO?MAIN
  +--> ?PR?_CPUTS?CPUTS
  +--> ?PR?DISPLAYCLEAR?SED1335
  +--> ?PR?_DISPLAYGOTORC?SED1335
  +--> ?PR?SYSWAITEVENT?MAIN
  +--> ?PR?_PUTCHAR?SED1335
  +--> ?PR?E2POTUP?X9313
  +--> ?PR?E2POTDOWN?X9313
  +--> ?PR?_TOUCHREADCOORDINATES?ADS7846
  +--> ?PR?_CPRINTF?CPRINTF
  +--> ?PR?_TOUCHX?ADS7846
  +--> ?PR?_TOUCHY?ADS7846

?PR?DISPLAYINIT?SED1335                   -----    -----      -----    -----
  +--> ?PR?_SYSDELAY?MAIN
  +--> ?PR?_DISPLAYWRITECOMMAND?SED1335
  +--> ?PR?CLEARRAM?SED1335
  +--> ?PR?_DISPLAYSETFONT?SED1335
  +--> ?PR?DISPLAYSETPLANE?SED1335
  +--> ?PR?DISPLAYPLANE?SED1335

?PR?CLEARRAM?SED1335                      -----    -----      -----    -----
  +--> ?PR?_VIDEORAMSET?SED1335

?PR?_VIDEORAMSET?SED1335                  -----    -----      0029H    0004H
  +--> ?PR?_DISPLAYWRITECOMMAND?SED1335
  +--> ?PR?_SETCURSOR?SED1335

?PR?_SETCURSOR?SED1335                    -----    -----      -----    -----
  +--> ?PR?_DISPLAYWRITECOMMAND?SED1335

?PR?_DISPLAYSETFONT?SED1335               -----    -----      -----    -----
  +--> ?CO?FONT

?PR?DISPLAYSETPLANE?SED1335               0020H.4  0000H.1    -----    -----

?PR?DISPLAYPLANE?SED1335                  0020H.4  0000H.1    -----    -----
  +--> ?PR?_DISPLAYWRITECOMMAND?SED1335

?PR?TOUCHINIT?ADS7846                     -----    -----      -----    -----
  +--> ?PR?_READCONVERSION?ADS7846

?PR?_CPUTS?CPUTS                          -----    -----      -----    -----
  +--> ?PR?_PUTCHAR?SED1335

?PR?_PUTCHAR?SED1335                      -----    -----      004CH    0001H
  +--> ?PR?_SETCURSOR?SED1335
  +--> ?PR?_DISPLAYWRITECOMMAND?SED1335
  +--> ?PR?_DISPLAYPATTERN?SED1335

?PR?_DISPLAYPATTERN?SED1335               -----    -----      004DH    0005H
  +--> ?PR?_SETCURSOR?SED1335
  +--> ?PR?_DISPLAYWRITECOMMAND?SED1335

?PR?DISPLAYCLEAR?SED1335                  -----    -----      -----    -----
  +--> ?PR?_VIDEORAMSET?SED1335

?PR?SYSWAITEVENT?MAIN                     -----    -----      -----    -----
  +--> ?PR?SYSYIELD?MAIN
BL51 BANKED LINKER/LOCATER V3.70c             31/05/05  17:55:35  PAGE 4



?PR?SYSYIELD?MAIN                         -----    -----      -----    -----
  +--> ?PR?TOUCHISPRESSED?ADS7846

?PR?TOUCHISPRESSED?ADS7846                -----    -----      -----    -----
  +--> ?PR?_SYSDELAY?MAIN

?PR?_TOUCHREADCOORDINATES?ADS7846         -----    -----      0029H    0002H
  +--> ?PR?_TOUCHX?ADS7846
  +--> ?PR?_TOUCHY?ADS7846

?PR?_TOUCHX?ADS7846                       -----    -----      002BH    0004H
  +--> ?PR?_READCOORDINATE?ADS7846

?PR?_READCOORDINATE?ADS7846               -----    -----      002FH    0006H
  +--> ?PR?_READCONVERSION?ADS7846

?PR?_TOUCHY?ADS7846                       -----    -----      002BH    0004H
  +--> ?PR?_READCOORDINATE?ADS7846

?PR?_CPRINTF?CPRINTF                      -----    -----      0029H    0016H
  +--> ?PR?_PUTCHAR?SED1335
  +--> ?PR?_CPRINTHEX?CPRINTHE
  +--> ?PR?_CPRINTDEC?CPRINTDE
  +--> ?PR?_CPUTS?CPUTS

?PR?_CPRINTHEX?CPRINTHE                   -----    -----      0044H    0008H
  +--> ?PR?_NIBBLE2HEX?NIBBLE2HEX
  +--> ?PR?_PUTCHAR?SED1335

?PR?_CPRINTDEC?CPRINTDE                   -----    -----      003FH    0005H
  +--> ?PR?_PUTCHAR?SED1335
  +--> ?PR?_DBIN2BCD?DBIN2BCD
  +--> ?PR?_CPRINTHEX?CPRINTHE

*** NEW ROOT ***************************************************

?PR?TIMER0HANDLER?MAIN                    -----    -----      -----    -----
  +--> ?PR?PCASTOP?PCA



SYMBOL TABLE OF MODULE:  TMC_TEST.EXE (SED1335)

  VALUE           TYPE          NAME
  ----------------------------------

  -------         MODULE        SED1335
  C:0000H         SYMBOL        _ICE_DUMMY_
  B:00E8H.1       PUBLIC        TMCSDA
  B:0090H.2       PUBLIC        TMCTP4
  B:00D8H.2       PUBLIC        CCF2
  B:0090H.3       PUBLIC        TMCTP5
  B:00D8H.3       PUBLIC        CCF3
  D:0080H         PUBLIC        P0
  B:00C0H.1       PUBLIC        TMCTP6
  B:00A0H.7       PUBLIC        TMCCSD
  B:00D8H.4       PUBLIC        CCF4
  D:0090H         PUBLIC        P1
  B:00C0H.2       PUBLIC        TMCTP7
  D:00A0H         PUBLIC        P2
  B:0020H.0       SYMBOL        PLANE1_ON
  C:1074H         PUBLIC        _DISPLAYSETFONT
  B:0090H.4       PUBLIC        TMCRX2
  D:00B0H         PUBLIC        P3
BL51 BANKED LINKER/LOCATER V3.70c             31/05/05  17:55:35  PAGE 5


  B:0020H.1       SYMBOL        PLANE2_ON
  B:00D0H.6       PUBLIC        AC
  D:00C0H         PUBLIC        P4
  B:00B0H.4       PUBLIC        T0
  B:00B0H.3       PUBLIC        TMCTX2
  D:00E8H         PUBLIC        P5
  B:00B0H.5       PUBLIC        T1
  B:00C0H.4       PUBLIC        TMCTX3
  B:00A8H.7       PUBLIC        EA
  B:0090H.0       PUBLIC        T2
  B:00A0H.1       PUBLIC        TMCCLKAD
  B:0090H.6       PUBLIC        TMCSCK
  B:00A8H.6       PUBLIC        EC
  B:00A0H.5       PUBLIC        TMCSCL
  B:00D8H.7       PUBLIC        CF
  B:00B0H.7       PUBLIC        TMCCSM
  B:0098H.7       PUBLIC        FE
  B:00A0H.0       PUBLIC        TMCMAJAK
  C:107FH         PUBLIC        _DISPLAYWRITECOMMAND
  B:00E8H.0       PUBLIC        TMCCLKDI
  C:0FE0H         PUBLIC        _SETCURSOR
  B:0080H.0       PUBLIC        P0_0
  B:0090H.3       PUBLIC        CEX0
  B:0090H.0       PUBLIC        P1_0
  B:0080H.1       PUBLIC        P0_1
  B:00A0H.0       PUBLIC        P2_0
  B:0090H.4       PUBLIC        CEX1
  B:0090H.1       PUBLIC        P1_1
  B:0080H.2       PUBLIC        P0_2
  B:00B0H.0       PUBLIC        P3_0
  B:00A0H.1       PUBLIC        P2_1
  B:0090H.5       PUBLIC        CEX2
  B:0090H.2       PUBLIC        P1_2
  B:0080H.3       PUBLIC        P0_3
  B:00E8H.5       PUBLIC        TMCWRD
  B:00C0H.0       PUBLIC        P4_0
  B:00B0H.1       PUBLIC        P3_1
  B:00A0H.2       PUBLIC        P2_2
  B:0090H.6       PUBLIC        CEX3
  B:0090H.3       PUBLIC        P1_3
  B:0080H.4       PUBLIC        P0_4
  B:00B0H.0       PUBLIC        TMCRXD
  B:00D8H.6       PUBLIC        CR
  B:00E8H.0       PUBLIC        P5_0
  B:00C0H.1       PUBLIC        P4_1
  B:00B0H.2       PUBLIC        P3_2
  B:00A0H.3       PUBLIC        P2_3
  B:0090H.7       PUBLIC        CEX4
  B:0090H.4       PUBLIC        P1_4
  B:0080H.5       PUBLIC        P0_5
  B:00C0H.5       PUBLIC        TMCSOM
  B:00C8H.6       PUBLIC        EXF2
  B:00E8H.1       PUBLIC        P5_1
  B:00C0H.2       PUBLIC        P4_2
  B:00B0H.7       PUBLIC        RD
  B:00B0H.3       PUBLIC        P3_3
  B:00A0H.4       PUBLIC        P2_4
  B:0090H.5       PUBLIC        P1_5
  B:0080H.6       PUBLIC        P0_6
  B:00B0H.1       PUBLIC        TMCTXD
  B:00E8H.2       PUBLIC        P5_2
  B:00C0H.3       PUBLIC        P4_3
  B:00B0H.4       PUBLIC        P3_4
  B:00A0H.5       PUBLIC        P2_5
  B:0090H.6       PUBLIC        P1_6
BL51 BANKED LINKER/LOCATER V3.70c             31/05/05  17:55:35  PAGE 6


  B:0080H.7       PUBLIC        P0_7
  B:00A8H.4       PUBLIC        ES
  B:00E8H.3       PUBLIC        P5_3
  B:00C0H.4       PUBLIC        P4_4
  B:00B0H.5       PUBLIC        P3_5
  B:00A0H.6       PUBLIC        P2_6
  B:0090H.7       PUBLIC        P1_7
  D:0008H         SYMBOL        _FONT
  B:00D0H.1       PUBLIC        UD
  B:00E8H.4       PUBLIC        P5_4
  B:00C0H.5       PUBLIC        P4_5
  B:00B0H.6       PUBLIC        P3_6
  B:00A0H.7       PUBLIC        P2_7
  B:0080H.0       PUBLIC        TMCD0
  B:00E8H.5       PUBLIC        P5_5
  B:00C0H.6       PUBLIC        P4_6
  B:00B0H.7       PUBLIC        P3_7
  B:0080H.1       PUBLIC        TMCD1
  B:0098H.0       PUBLIC        RI
  B:00E8H.6       PUBLIC        P5_6
  B:00C0H.7       PUBLIC        P4_7
  B:0080H.2       PUBLIC        TMCD2
  B:00D0H.7       PUBLIC        CY
  B:00E8H.7       PUBLIC        P5_7
  B:00B0H.2       PUBLIC        INT0
  B:00C0H.3       PUBLIC        TMCCSPAN
  B:0080H.3       PUBLIC        TMCD3
  B:0098H.1       PUBLIC        TI
  B:00B0H.3       PUBLIC        INT1
  C:0D9AH         PUBLIC        _DISPLAYPATTERN
  B:0080H.4       PUBLIC        TMCD4
  B:0080H.5       PUBLIC        TMCD5
  B:0080H.6       PUBLIC        TMCD6
  B:0080H.7       PUBLIC        TMCD7
  B:00B8H.1       PUBLIC        PT0L
  B:00B0H.2       PUBLIC        TMCPENIN
  B:00B8H.3       PUBLIC        PT1L
  B:00B8H.5       PUBLIC        PT2L
  B:0090H.1       PUBLIC        T2EX
  B:00B8H.0       PUBLIC        PX0L
  B:00D0H.2       PUBLIC        OV
  B:00B8H.2       PUBLIC        PX1L
  B:00C8H.1       PUBLIC        C_T2
  B:00B0H.6       PUBLIC        WR
  B:00A0H.3       PUBLIC        TMCOUTDI
  B:00C8H.5       PUBLIC        RCLK
  B:00C8H.4       PUBLIC        TCLK
  B:00B8H.6       PUBLIC        PPCL
  B:00E8H.7       PUBLIC        TMCBUZTP
  B:0088H.1       PUBLIC        IE0
  D:000AH         PUBLIC        COL
  B:0088H.3       PUBLIC        IE1
  B:0090H.7       PUBLIC        TMCSI
  B:00C8H.0       PUBLIC        CP_RL2
  C:0F80H         PUBLIC        DISPLAYCLEAR
  B:00B0H.4       PUBLIC        TMCCSEE
  B:0090H.5       PUBLIC        TMCSO
  B:00A8H.1       PUBLIC        ET0
  B:00A8H.3       PUBLIC        ET1
  B:0088H.5       PUBLIC        TF0
  C:0FC6H         SYMBOL        CLEARRAM
  B:00A8H.5       PUBLIC        ET2
  B:0088H.7       PUBLIC        TF1
  B:0098H.2       PUBLIC        RB8
  B:00C8H.7       PUBLIC        TF2
BL51 BANKED LINKER/LOCATER V3.70c             31/05/05  17:55:35  PAGE 7


  B:00A8H.0       PUBLIC        EX0
  B:0088H.0       PUBLIC        IT0
  C:0EECH         PUBLIC        DISPLAYPLANE
  B:00A8H.2       PUBLIC        EX1
  B:0098H.3       PUBLIC        TB8
  B:0088H.2       PUBLIC        IT1
  B:00D0H.0       PUBLIC        P
  B:00B0H.5       PUBLIC        TMCCSDO
  B:0098H.7       PUBLIC        SM0
  B:0098H.6       PUBLIC        SM1
  B:0090H.2       PUBLIC        ECI
  B:0098H.5       PUBLIC        SM2
  B:00C0H.6       PUBLIC        TMCRESD
  B:00A0H.6       PUBLIC        TMCSCKM
  B:00D0H.3       PUBLIC        RS0
  B:0088H.4       PUBLIC        TR0
  B:00D0H.4       PUBLIC        RS1
  B:0088H.6       PUBLIC        TR1
  B:00C8H.2       PUBLIC        TR2
  D:000BH         PUBLIC        ROW
  C:0750H         PUBLIC        _PUTCHAR
  B:00E8H.6       PUBLIC        TMCA0D
  B:00F8H.0       PUBLIC        PI2_0
  B:00F8H.1       PUBLIC        PI2_1
  B:00A0H.4       PUBLIC        TMCPISK
  B:00C8H.3       PUBLIC        EXEN2
  B:0098H.4       PUBLIC        REN
  C:0EB4H         SYMBOL        _VIDEORAMSET
  D:000CH         SYMBOL        _OFFSET
  C:104EH         PUBLIC        _DISPLAYGOTORC
  B:00E8H.3       PUBLIC        TMCSVIT
  B:00B0H.0       PUBLIC        RXD
  B:00B8H.4       PUBLIC        PLS
  B:00B0H.1       PUBLIC        TXD
  C:08C8H         PUBLIC        DISPLAYINIT
  B:00E8H.2       PUBLIC        TMCLOWBAT
  B:0020H.2       PUBLIC        _PLANE
  B:00B0H.6       PUBLIC        TMCCS1AD
  B:00C0H.7       PUBLIC        TMCCS2AD
  B:00D0H.5       PUBLIC        F0
  B:00E8H.4       PUBLIC        TMCCSEPOT
  B:00A0H.2       PUBLIC        TMCDAO
  B:0090H.0       PUBLIC        TMCTP1
  C:1095H         PUBLIC        DISPLAYSETPLANE
  B:00C0H.0       PUBLIC        TMCTP2
  B:00D8H.0       PUBLIC        CCF0
  B:0090H.1       PUBLIC        TMCTP3
  B:00D8H.1       PUBLIC        CCF1
  -------         PROC          DISPLAYINIT
  -------         ENDPROC       DISPLAYINIT
  C:08C8H         LINE#         275
  C:08C8H         LINE#         277
  C:08C8H         LINE#         278
  C:08CAH         LINE#         279
  C:08D1H         LINE#         280
  C:08D3H         LINE#         281
  C:08DAH         LINE#         282
  C:08DEH         LINE#         284
  C:08E3H         LINE#         288
  C:08EAH         LINE#         292
  C:08F1H         LINE#         294
  C:08F8H         LINE#         295
  C:08FFH         LINE#         297
  C:0906H         LINE#         299
  C:090DH         LINE#         301
BL51 BANKED LINKER/LOCATER V3.70c             31/05/05  17:55:35  PAGE 8


  C:0914H         LINE#         303
  C:091BH         LINE#         306
  C:0920H         LINE#         307
  C:0927H         LINE#         309
  C:092DH         LINE#         311
  C:0934H         LINE#         313
  C:093BH         LINE#         315
  C:0942H         LINE#         317
  C:0949H         LINE#         319
  C:094FH         LINE#         321
  C:0955H         LINE#         323
  C:095BH         LINE#         325
  C:0961H         LINE#         328
  C:0966H         LINE#         329
  C:096DH         LINE#         333
  C:0972H         LINE#         335
  C:0979H         LINE#         338
  C:097EH         LINE#         339
  C:0985H         LINE#         340
  C:098CH         LINE#         356
  C:0991H         LINE#         358
  C:0996H         LINE#         360
  C:0999H         LINE#         363
  C:099EH         LINE#         364
  C:09A5H         LINE#         367
  C:09ACH         LINE#         372
  C:09B1H         LINE#         377
  C:09B8H         LINE#         401
  C:09BBH         LINE#         402
  C:09BDH         LINE#         406
  C:09C1H         LINE#         407
  C:09C6H         LINE#         408
  C:09CBH         LINE#         409
  C:09D0H         LINE#         410
  C:09D5H         LINE#         412
  C:09D7H         LINE#         413
  C:09D9H         LINE#         415
  C:09DBH         LINE#         416
  -------         PROC          DISPLAYSETPLANE
  B:0020H.4       SYMBOL        PLANE
  -------         ENDPROC       DISPLAYSETPLANE
  C:1095H         LINE#         435
  C:1095H         LINE#         437
  C:1095H         LINE#         438
  C:1099H         LINE#         439
  -------         PROC          _DISPLAYSETFONT
  D:0007H         SYMBOL        FONT
  -------         ENDPROC       _DISPLAYSETFONT
  C:1074H         LINE#         446
  C:1074H         LINE#         448
  C:1074H         LINE#         450
  C:1078H         LINE#         458
  C:1078H         LINE#         459
  C:107EH         LINE#         460
  C:107EH         LINE#         461
  C:107EH         LINE#         481
  C:107EH         LINE#         482
  -------         PROC          DISPLAYCLEAR
  -------         ENDPROC       DISPLAYCLEAR
  C:0F80H         LINE#         510
  C:0F80H         LINE#         512
  C:0F80H         LINE#         513
  C:0F84H         LINE#         515
  C:0F87H         LINE#         517
  C:0F93H         LINE#         518
BL51 BANKED LINKER/LOCATER V3.70c             31/05/05  17:55:35  PAGE 9


  C:0F95H         LINE#         520
  C:0FA2H         LINE#         521
  C:0FA2H         LINE#         523
  C:0FA5H         LINE#         524
  C:0FA7H         LINE#         533
  C:0FA9H         LINE#         534
  -------         PROC          DISPLAYPLANE
  B:0020H.4       SYMBOL        ON
  -------         ENDPROC       DISPLAYPLANE
  C:0EECH         LINE#         542
  C:0EECH         LINE#         544
  C:0EECH         LINE#         546
  C:0EF0H         LINE#         547
  C:0EF3H         LINE#         548
  C:0EF7H         LINE#         549
  C:0EF9H         LINE#         550
  C:0EFDH         LINE#         551
  C:0EFDH         LINE#         553
  C:0F02H         LINE#         559
  C:0F20H         LINE#         567
  C:0F22H         LINE#         568
  -------         PROC          _DISPLAYPATTERN
  D:004DH         SYMBOL        PATTERN
  D:004FH         SYMBOL        W
  D:0050H         SYMBOL        H
  D:0007H         SYMBOL        I
  D:0051H         SYMBOL        J
  -------         ENDPROC       _DISPLAYPATTERN
  C:0D9AH         LINE#         606
  C:0DA2H         LINE#         610
  C:0DA2H         LINE#         613
  C:0DA6H         LINE#         615
  C:0DB0H         LINE#         617
  C:0DB7H         LINE#         618
  C:0DBCH         LINE#         619
  C:0DC4H         LINE#         620
  C:0DD2H         LINE#         621
  C:0DDAH         LINE#         622
  C:0DDDH         LINE#         623
  C:0DE5H         LINE#         624
  C:0DE9H         LINE#         626
  C:0DEBH         LINE#         627
  -------         PROC          _DISPLAYGOTORC
  D:0007H         SYMBOL        R
  D:0005H         SYMBOL        C
  -------         ENDPROC       _DISPLAYGOTORC
  C:104EH         LINE#         636
  C:104EH         LINE#         639
  C:104EH         LINE#         641
  C:1052H         LINE#         642
  C:1054H         LINE#         643
  C:1054H         LINE#         644
  C:1058H         LINE#         645
  C:105AH         LINE#         646
  C:105AH         LINE#         650
  -------         PROC          _PUTCHAR
  D:004CH         SYMBOL        C
  D:0006H         SYMBOL        INDEX
  D:0002H         SYMBOL        BWIDTH
  D:0006H         SYMBOL        START
  -------         ENDPROC       _PUTCHAR
  C:0750H         LINE#         659
  C:0752H         LINE#         661
  C:0752H         LINE#         667
  C:0755H         LINE#         668
BL51 BANKED LINKER/LOCATER V3.70c             31/05/05  17:55:35  PAGE 10


  C:075AH         LINE#         670
  C:075CH         LINE#         671
  C:075FH         LINE#         672
  C:0760H         LINE#         673
  C:0760H         LINE#         674
  C:0765H         LINE#         676
  C:0767H         LINE#         677
  C:0769H         LINE#         678
  C:076BH         LINE#         679
  C:076BH         LINE#         680
  C:076FH         LINE#         682
  C:0771H         LINE#         683
  C:0774H         LINE#         684
  C:0774H         LINE#         685
  C:0778H         LINE#         686
  C:0781H         LINE#         687
  C:0787H         LINE#         688
  C:078AH         LINE#         691
  C:078FH         LINE#         692
  C:0796H         LINE#         693
  C:0798H         LINE#         694
  C:079FH         LINE#         695
  C:07A2H         LINE#         696
  C:07A4H         LINE#         697
  C:07A4H         LINE#         698
  C:07A6H         LINE#         699
  C:07A9H         LINE#         700
  C:07A9H         LINE#         703
  C:07AFH         LINE#         705
  C:07BDH         LINE#         706
  C:07C8H         LINE#         707
  C:07E0H         LINE#         708
  C:07E3H         LINE#         709
  C:07E3H         LINE#         710
  C:07F2H         LINE#         711
  C:07F8H         LINE#         713
  C:0806H         LINE#         714
  C:0818H         LINE#         715
  C:081BH         LINE#         716
  C:081BH         LINE#         717
  C:081FH         LINE#         719
  C:0829H         LINE#         720
  C:082CH         LINE#         721
  C:082CH         LINE#         723
  C:083EH         LINE#         724
  C:084DH         LINE#         725
  C:085EH         LINE#         726
  C:086FH         LINE#         727
  C:0880H         LINE#         728
  C:0891H         LINE#         729
  C:0891H         LINE#         730
  C:08ACH         LINE#         731
  C:08C5H         LINE#         732
  C:08C7H         LINE#         734
  C:08C7H         LINE#         736
  -------         PROC          _DISPLAYWRITECOMMAND
  D:0007H         SYMBOL        CMD
  -------         ENDPROC       _DISPLAYWRITECOMMAND
  C:107FH         LINE#         744
  C:107FH         LINE#         746
  C:107FH         LINE#         747
  C:1081H         LINE#         748
  C:1087H         LINE#         749
  C:1089H         LINE#         750
  -------         PROC          CLEARRAM
BL51 BANKED LINKER/LOCATER V3.70c             31/05/05  17:55:35  PAGE 11


  -------         ENDPROC       CLEARRAM
  C:0FC6H         LINE#         756
  C:0FC6H         LINE#         758
  C:0FC6H         LINE#         761
  C:0FD2H         LINE#         763
  C:0FDFH         LINE#         777
  -------         PROC          _SETCURSOR
  D:0004H         SYMBOL        ADDRESS
  -------         ENDPROC       _SETCURSOR
  C:0FE0H         LINE#         783
  C:0FE4H         LINE#         785
  C:0FE4H         LINE#         786
  C:0FE9H         LINE#         787
  C:0FF0H         LINE#         788
  C:0FF7H         LINE#         789
  -------         PROC          _VIDEORAMSET
  D:0029H         SYMBOL        START
  D:002BH         SYMBOL        LENGTH
  D:0003H         SYMBOL        CH
  D:0006H         SYMBOL        I
  -------         ENDPROC       _VIDEORAMSET
  C:0EB4H         LINE#         795
  C:0EBCH         LINE#         798
  C:0EBCH         LINE#         801
  C:0EC1H         LINE#         802
  C:0EC8H         LINE#         804
  C:0ECDH         LINE#         805
  C:0ED9H         LINE#         806
  C:0EDFH         LINE#         807
  C:0EE6H         LINE#         808
  C:0EEBH         LINE#         809
  -------         ENDMOD        SED1335

  -------         MODULE        FONT
  C:0000H         SYMBOL        _ICE_DUMMY_
  B:00E8H.1       PUBLIC        TMCSDA
  B:0090H.2       PUBLIC        TMCTP4
  B:00D8H.2       PUBLIC        CCF2
  B:0090H.3       PUBLIC        TMCTP5
  B:00D8H.3       PUBLIC        CCF3
  D:0080H         PUBLIC        P0
  B:00C0H.1       PUBLIC        TMCTP6
  B:00A0H.7       PUBLIC        TMCCSD
  B:00D8H.4       PUBLIC        CCF4
  D:0090H         PUBLIC        P1
  B:00C0H.2       PUBLIC        TMCTP7
  D:00A0H         PUBLIC        P2
  B:0090H.4       PUBLIC        TMCRX2
  D:00B0H         PUBLIC        P3
  B:00D0H.6       PUBLIC        AC
  D:00C0H         PUBLIC        P4
  B:00B0H.4       PUBLIC        T0
  B:00B0H.3       PUBLIC        TMCTX2
  D:00E8H         PUBLIC        P5
  B:00B0H.5       PUBLIC        T1
  B:00C0H.4       PUBLIC        TMCTX3
  B:00A8H.7       PUBLIC        EA
  B:0090H.0       PUBLIC        T2
  B:00A0H.1       PUBLIC        TMCCLKAD
  B:0090H.6       PUBLIC        TMCSCK
  B:00A8H.6       PUBLIC        EC
  C:0AD0H         PUBLIC        FONTFRAME
  B:00A0H.5       PUBLIC        TMCSCL
  B:00D8H.7       PUBLIC        CF
  B:00B0H.7       PUBLIC        TMCCSM
BL51 BANKED LINKER/LOCATER V3.70c             31/05/05  17:55:35  PAGE 12


  B:0098H.7       PUBLIC        FE
  B:00A0H.0       PUBLIC        TMCMAJAK
  B:00E8H.0       PUBLIC        TMCCLKDI
  B:0080H.0       PUBLIC        P0_0
  B:0090H.3       PUBLIC        CEX0
  B:0090H.0       PUBLIC        P1_0
  B:0080H.1       PUBLIC        P0_1
  B:00A0H.0       PUBLIC        P2_0
  B:0090H.4       PUBLIC        CEX1
  B:0090H.1       PUBLIC        P1_1
  B:0080H.2       PUBLIC        P0_2
  B:00B0H.0       PUBLIC        P3_0
  B:00A0H.1       PUBLIC        P2_1
  B:0090H.5       PUBLIC        CEX2
  B:0090H.2       PUBLIC        P1_2
  B:0080H.3       PUBLIC        P0_3
  B:00E8H.5       PUBLIC        TMCWRD
  B:00C0H.0       PUBLIC        P4_0
  B:00B0H.1       PUBLIC        P3_1
  B:00A0H.2       PUBLIC        P2_2
  B:0090H.6       PUBLIC        CEX3
  B:0090H.3       PUBLIC        P1_3
  B:0080H.4       PUBLIC        P0_4
  B:00B0H.0       PUBLIC        TMCRXD
  B:00D8H.6       PUBLIC        CR
  B:00E8H.0       PUBLIC        P5_0
  B:00C0H.1       PUBLIC        P4_1
  B:00B0H.2       PUBLIC        P3_2
  B:00A0H.3       PUBLIC        P2_3
  B:0090H.7       PUBLIC        CEX4
  B:0090H.4       PUBLIC        P1_4
  B:0080H.5       PUBLIC        P0_5
  B:00C0H.5       PUBLIC        TMCSOM
  B:00C8H.6       PUBLIC        EXF2
  B:00E8H.1       PUBLIC        P5_1
  B:00C0H.2       PUBLIC        P4_2
  B:00B0H.7       PUBLIC        RD
  B:00B0H.3       PUBLIC        P3_3
  B:00A0H.4       PUBLIC        P2_4
  B:0090H.5       PUBLIC        P1_5
  B:0080H.6       PUBLIC        P0_6
  B:00B0H.1       PUBLIC        TMCTXD
  B:00E8H.2       PUBLIC        P5_2
  B:00C0H.3       PUBLIC        P4_3
  B:00B0H.4       PUBLIC        P3_4
  B:00A0H.5       PUBLIC        P2_5
  B:0090H.6       PUBLIC        P1_6
  B:0080H.7       PUBLIC        P0_7
  B:00A8H.4       PUBLIC        ES
  B:00E8H.3       PUBLIC        P5_3
  B:00C0H.4       PUBLIC        P4_4
  B:00B0H.5       PUBLIC        P3_5
  B:00A0H.6       PUBLIC        P2_6
  B:0090H.7       PUBLIC        P1_7
  B:00D0H.1       PUBLIC        UD
  B:00E8H.4       PUBLIC        P5_4
  B:00C0H.5       PUBLIC        P4_5
  B:00B0H.6       PUBLIC        P3_6
  B:00A0H.7       PUBLIC        P2_7
  B:0080H.0       PUBLIC        TMCD0
  B:00E8H.5       PUBLIC        P5_5
  B:00C0H.6       PUBLIC        P4_6
  B:00B0H.7       PUBLIC        P3_7
  B:0080H.1       PUBLIC        TMCD1
  B:0098H.0       PUBLIC        RI
BL51 BANKED LINKER/LOCATER V3.70c             31/05/05  17:55:35  PAGE 13


  B:00E8H.6       PUBLIC        P5_6
  B:00C0H.7       PUBLIC        P4_7
  B:0080H.2       PUBLIC        TMCD2
  B:00D0H.7       PUBLIC        CY
  B:00E8H.7       PUBLIC        P5_7
  B:00B0H.2       PUBLIC        INT0
  B:00C0H.3       PUBLIC        TMCCSPAN
  B:0080H.3       PUBLIC        TMCD3
  B:0098H.1       PUBLIC        TI
  B:00B0H.3       PUBLIC        INT1
  B:0080H.4       PUBLIC        TMCD4
  B:0080H.5       PUBLIC        TMCD5
  B:0080H.6       PUBLIC        TMCD6
  B:0080H.7       PUBLIC        TMCD7
  B:00B8H.1       PUBLIC        PT0L
  B:00B0H.2       PUBLIC        TMCPENIN
  B:00B8H.3       PUBLIC        PT1L
  B:00B8H.5       PUBLIC        PT2L
  B:0090H.1       PUBLIC        T2EX
  B:00B8H.0       PUBLIC        PX0L
  B:00D0H.2       PUBLIC        OV
  C:0A60H         PUBLIC        FRAME8
  B:00B8H.2       PUBLIC        PX1L
  B:00C8H.1       PUBLIC        C_T2
  B:00B0H.6       PUBLIC        WR
  B:00A0H.3       PUBLIC        TMCOUTDI
  B:00C8H.5       PUBLIC        RCLK
  B:00C8H.4       PUBLIC        TCLK
  B:00B8H.6       PUBLIC        PPCL
  B:00E8H.7       PUBLIC        TMCBUZTP
  B:0088H.1       PUBLIC        IE0
  B:0088H.3       PUBLIC        IE1
  B:0090H.7       PUBLIC        TMCSI
  B:00C8H.0       PUBLIC        CP_RL2
  B:00B0H.4       PUBLIC        TMCCSEE
  B:0090H.5       PUBLIC        TMCSO
  B:00A8H.1       PUBLIC        ET0
  B:00A8H.3       PUBLIC        ET1
  B:0088H.5       PUBLIC        TF0
  B:00A8H.5       PUBLIC        ET2
  B:0088H.7       PUBLIC        TF1
  B:0098H.2       PUBLIC        RB8
  B:00C8H.7       PUBLIC        TF2
  B:00A8H.0       PUBLIC        EX0
  B:0088H.0       PUBLIC        IT0
  B:00A8H.2       PUBLIC        EX1
  B:0098H.3       PUBLIC        TB8
  B:0088H.2       PUBLIC        IT1
  B:00D0H.0       PUBLIC        P
  B:00B0H.5       PUBLIC        TMCCSDO
  B:0098H.7       PUBLIC        SM0
  B:0098H.6       PUBLIC        SM1
  B:0090H.2       PUBLIC        ECI
  B:0098H.5       PUBLIC        SM2
  B:00C0H.6       PUBLIC        TMCRESD
  B:00A0H.6       PUBLIC        TMCSCKM
  B:00D0H.3       PUBLIC        RS0
  B:0088H.4       PUBLIC        TR0
  B:00D0H.4       PUBLIC        RS1
  B:0088H.6       PUBLIC        TR1
  B:00C8H.2       PUBLIC        TR2
  B:00E8H.6       PUBLIC        TMCA0D
  B:00F8H.0       PUBLIC        PI2_0
  B:00F8H.1       PUBLIC        PI2_1
  B:00A0H.4       PUBLIC        TMCPISK
BL51 BANKED LINKER/LOCATER V3.70c             31/05/05  17:55:35  PAGE 14


  B:00C8H.3       PUBLIC        EXEN2
  B:0098H.4       PUBLIC        REN
  B:00E8H.3       PUBLIC        TMCSVIT
  B:00B0H.0       PUBLIC        RXD
  B:00B8H.4       PUBLIC        PLS
  B:00B0H.1       PUBLIC        TXD
  B:00E8H.2       PUBLIC        TMCLOWBAT
  B:00B0H.6       PUBLIC        TMCCS1AD
  B:00C0H.7       PUBLIC        TMCCS2AD
  B:00D0H.5       PUBLIC        F0
  B:00E8H.4       PUBLIC        TMCCSEPOT
  B:00A0H.2       PUBLIC        TMCDAO
  B:0090H.0       PUBLIC        TMCTP1
  B:00C0H.0       PUBLIC        TMCTP2
  B:00D8H.0       PUBLIC        CCF0
  B:0090H.1       PUBLIC        TMCTP3
  B:00D8H.1       PUBLIC        CCF1
  -------         ENDMOD        FONT

  -------         MODULE        PCA
  C:0000H         SYMBOL        _ICE_DUMMY_
  B:00E8H.1       PUBLIC        TMCSDA
  B:0090H.2       PUBLIC        TMCTP4
  B:00D8H.2       PUBLIC        CCF2
  B:0090H.3       PUBLIC        TMCTP5
  B:00D8H.3       PUBLIC        CCF3
  D:0080H         PUBLIC        P0
  B:00C0H.1       PUBLIC        TMCTP6
  B:00A0H.7       PUBLIC        TMCCSD
  B:00D8H.4       PUBLIC        CCF4
  D:0090H         PUBLIC        P1
  B:00C0H.2       PUBLIC        TMCTP7
  D:00A0H         PUBLIC        P2
  B:0090H.4       PUBLIC        TMCRX2
  D:00B0H         PUBLIC        P3
  B:00D0H.6       PUBLIC        AC
  D:00C0H         PUBLIC        P4
  B:00B0H.4       PUBLIC        T0
  B:00B0H.3       PUBLIC        TMCTX2
  D:00E8H         PUBLIC        P5
  B:00B0H.5       PUBLIC        T1
  B:00C0H.4       PUBLIC        TMCTX3
  B:00A8H.7       PUBLIC        EA
  B:0090H.0       PUBLIC        T2
  B:00A0H.1       PUBLIC        TMCCLKAD
  B:0090H.6       PUBLIC        TMCSCK
  B:00A8H.6       PUBLIC        EC
  B:00A0H.5       PUBLIC        TMCSCL
  B:00D8H.7       PUBLIC        CF
  B:00B0H.7       PUBLIC        TMCCSM
  D:00F9H         PUBLIC        CH
  B:0098H.7       PUBLIC        FE
  B:00A0H.0       PUBLIC        TMCMAJAK
  B:00E8H.0       PUBLIC        TMCCLKDI
  D:00E9H         PUBLIC        CL
  B:0080H.0       PUBLIC        P0_0
  D:00FAH         PUBLIC        CCAP0H
  B:0090H.3       PUBLIC        CEX0
  B:0090H.0       PUBLIC        P1_0
  B:0080H.1       PUBLIC        P0_1
  B:00A0H.0       PUBLIC        P2_0
  B:0090H.4       PUBLIC        CEX1
  B:0090H.1       PUBLIC        P1_1
  B:0080H.2       PUBLIC        P0_2
  B:00B0H.0       PUBLIC        P3_0
BL51 BANKED LINKER/LOCATER V3.70c             31/05/05  17:55:35  PAGE 15


  B:00A0H.1       PUBLIC        P2_1
  B:0090H.5       PUBLIC        CEX2
  B:0090H.2       PUBLIC        P1_2
  B:0080H.3       PUBLIC        P0_3
  B:00E8H.5       PUBLIC        TMCWRD
  B:00C0H.0       PUBLIC        P4_0
  B:00B0H.1       PUBLIC        P3_1
  B:00A0H.2       PUBLIC        P2_2
  B:0090H.6       PUBLIC        CEX3
  B:0090H.3       PUBLIC        P1_3
  B:0080H.4       PUBLIC        P0_4
  B:00B0H.0       PUBLIC        TMCRXD
  D:00EAH         PUBLIC        CCAP0L
  B:00D8H.6       PUBLIC        CR
  B:00E8H.0       PUBLIC        P5_0
  B:00C0H.1       PUBLIC        P4_1
  B:00B0H.2       PUBLIC        P3_2
  B:00A0H.3       PUBLIC        P2_3
  B:0090H.7       PUBLIC        CEX4
  B:0090H.4       PUBLIC        P1_4
  B:0080H.5       PUBLIC        P0_5
  B:00C0H.5       PUBLIC        TMCSOM
  D:00DAH         PUBLIC        CCAPM0
  B:00C8H.6       PUBLIC        EXF2
  B:00E8H.1       PUBLIC        P5_1
  B:00C0H.2       PUBLIC        P4_2
  B:00B0H.7       PUBLIC        RD
  B:00B0H.3       PUBLIC        P3_3
  B:00A0H.4       PUBLIC        P2_4
  B:0090H.5       PUBLIC        P1_5
  B:0080H.6       PUBLIC        P0_6
  B:00B0H.1       PUBLIC        TMCTXD
  D:00DBH         PUBLIC        CCAPM1
  B:00E8H.2       PUBLIC        P5_2
  B:00C0H.3       PUBLIC        P4_3
  B:00B0H.4       PUBLIC        P3_4
  B:00A0H.5       PUBLIC        P2_5
  B:0090H.6       PUBLIC        P1_6
  B:0080H.7       PUBLIC        P0_7
  D:00DCH         PUBLIC        CCAPM2
  B:00A8H.4       PUBLIC        ES
  B:00E8H.3       PUBLIC        P5_3
  B:00C0H.4       PUBLIC        P4_4
  B:00B0H.5       PUBLIC        P3_5
  B:00A0H.6       PUBLIC        P2_6
  B:0090H.7       PUBLIC        P1_7
  D:00DDH         PUBLIC        CCAPM3
  B:00D0H.1       PUBLIC        UD
  B:00E8H.4       PUBLIC        P5_4
  B:00C0H.5       PUBLIC        P4_5
  B:00B0H.6       PUBLIC        P3_6
  B:00A0H.7       PUBLIC        P2_7
  B:0080H.0       PUBLIC        TMCD0
  D:00DEH         PUBLIC        CCAPM4
  B:00E8H.5       PUBLIC        P5_5
  B:00C0H.6       PUBLIC        P4_6
  B:00B0H.7       PUBLIC        P3_7
  B:0080H.1       PUBLIC        TMCD1
  B:0098H.0       PUBLIC        RI
  B:00E8H.6       PUBLIC        P5_6
  B:00C0H.7       PUBLIC        P4_7
  B:0080H.2       PUBLIC        TMCD2
  B:00D0H.7       PUBLIC        CY
  B:00E8H.7       PUBLIC        P5_7
  B:00B0H.2       PUBLIC        INT0
BL51 BANKED LINKER/LOCATER V3.70c             31/05/05  17:55:35  PAGE 16


  B:00C0H.3       PUBLIC        TMCCSPAN
  B:0080H.3       PUBLIC        TMCD3
  B:0098H.1       PUBLIC        TI
  B:00B0H.3       PUBLIC        INT1
  B:0080H.4       PUBLIC        TMCD4
  B:0080H.5       PUBLIC        TMCD5
  B:0080H.6       PUBLIC        TMCD6
  B:0080H.7       PUBLIC        TMCD7
  B:00B8H.1       PUBLIC        PT0L
  B:00B0H.2       PUBLIC        TMCPENIN
  B:00B8H.3       PUBLIC        PT1L
  B:00B8H.5       PUBLIC        PT2L
  D:00D9H         PUBLIC        CMOD
  D:00D8H         PUBLIC        CCON
  B:0090H.1       PUBLIC        T2EX
  B:00B8H.0       PUBLIC        PX0L
  B:00D0H.2       PUBLIC        OV
  B:00B8H.2       PUBLIC        PX1L
  B:00C8H.1       PUBLIC        C_T2
  B:00B0H.6       PUBLIC        WR
  C:0DECH         PUBLIC        _PCARUN
  B:00A0H.3       PUBLIC        TMCOUTDI
  B:00C8H.5       PUBLIC        RCLK
  B:00C8H.4       PUBLIC        TCLK
  B:00B8H.6       PUBLIC        PPCL
  B:00E8H.7       PUBLIC        TMCBUZTP
  C:002DH         PUBLIC        PCASTOP
  B:0088H.1       PUBLIC        IE0
  B:0088H.3       PUBLIC        IE1
  B:0090H.7       PUBLIC        TMCSI
  B:00C8H.0       PUBLIC        CP_RL2
  B:00B0H.4       PUBLIC        TMCCSEE
  B:0090H.5       PUBLIC        TMCSO
  B:00A8H.1       PUBLIC        ET0
  B:00A8H.3       PUBLIC        ET1
  B:0088H.5       PUBLIC        TF0
  B:00A8H.5       PUBLIC        ET2
  B:0088H.7       PUBLIC        TF1
  B:0098H.2       PUBLIC        RB8
  B:00C8H.7       PUBLIC        TF2
  B:00A8H.0       PUBLIC        EX0
  B:0088H.0       PUBLIC        IT0
  B:00A8H.2       PUBLIC        EX1
  B:0098H.3       PUBLIC        TB8
  B:0088H.2       PUBLIC        IT1
  B:00D0H.0       PUBLIC        P
  B:00B0H.5       PUBLIC        TMCCSDO
  B:0098H.7       PUBLIC        SM0
  B:0098H.6       PUBLIC        SM1
  B:0090H.2       PUBLIC        ECI
  B:0098H.5       PUBLIC        SM2
  B:00C0H.6       PUBLIC        TMCRESD
  B:00A0H.6       PUBLIC        TMCSCKM
  B:00D0H.3       PUBLIC        RS0
  B:0088H.4       PUBLIC        TR0
  B:00D0H.4       PUBLIC        RS1
  B:0088H.6       PUBLIC        TR1
  C:0FF8H         SYMBOL        PCAHANDLER
  B:00C8H.2       PUBLIC        TR2
  B:00E8H.6       PUBLIC        TMCA0D
  B:00F8H.0       PUBLIC        PI2_0
  B:00F8H.1       PUBLIC        PI2_1
  D:000EH         SYMBOL        COUNT_HI
  B:00A0H.4       PUBLIC        TMCPISK
  B:00C8H.3       PUBLIC        EXEN2
BL51 BANKED LINKER/LOCATER V3.70c             31/05/05  17:55:35  PAGE 17


  B:0098H.4       PUBLIC        REN
  D:000FH         SYMBOL        COUNT_LO
  B:00E8H.3       PUBLIC        TMCSVIT
  B:00B0H.0       PUBLIC        RXD
  B:00B8H.4       PUBLIC        PLS
  B:00B0H.1       PUBLIC        TXD
  B:00E8H.2       PUBLIC        TMCLOWBAT
  B:00B0H.6       PUBLIC        TMCCS1AD
  B:00C0H.7       PUBLIC        TMCCS2AD
  B:00D0H.5       PUBLIC        F0
  B:00E8H.4       PUBLIC        TMCCSEPOT
  D:0010H         PUBLIC        _PCA_COUNTER
  B:00A0H.2       PUBLIC        TMCDAO
  B:0090H.0       PUBLIC        TMCTP1
  B:00C0H.0       PUBLIC        TMCTP2
  B:00D8H.0       PUBLIC        CCF0
  B:0090H.1       PUBLIC        TMCTP3
  B:00D8H.1       PUBLIC        CCF1
  -------         PROC          _PCARUN
  D:0006H         SYMBOL        COUNT
  D:0004H         SYMBOL        PWM
  -------         ENDPROC       _PCARUN
  C:0DECH         LINE#         21
  C:0DECH         LINE#         24
  C:0DECH         LINE#         26
  C:0DEEH         LINE#         27
  C:0DF1H         LINE#         28
  C:0DF4H         LINE#         29
  C:0DF7H         LINE#         30
  C:0DF9H         LINE#         31
  C:0DFBH         LINE#         32
  C:0DFDH         LINE#         33
  C:0DFFH         LINE#         35
  C:0E05H         LINE#         36
  C:0E08H         LINE#         37
  C:0E0BH         LINE#         38
  C:0E0EH         LINE#         39
  C:0E11H         LINE#         41
  C:0E1AH         LINE#         42
  C:0E1EH         LINE#         43
  C:0E1EH         LINE#         44
  C:0E25H         LINE#         45
  C:0E28H         LINE#         46
  C:0E2BH         LINE#         47
  C:0E2EH         LINE#         49
  C:0E31H         LINE#         50
  C:0E33H         LINE#         51
  -------         PROC          PCASTOP
  -------         ENDPROC       PCASTOP
  C:002DH         LINE#         57
  C:002DH         LINE#         59
  C:002DH         LINE#         60
  C:002FH         LINE#         61
  C:0032H         LINE#         62
  -------         PROC          PCAHANDLER
  -------         ENDPROC       PCAHANDLER
  C:0FF8H         LINE#         68
  C:0FF8H         LINE#         71
  C:0FFBH         LINE#         73
  C:0FFDH         LINE#         74
  C:0FFFH         LINE#         75
  C:0FFFH         LINE#         76
  C:1002H         LINE#         78
  C:1002H         LINE#         80
  C:1004H         LINE#         81
BL51 BANKED LINKER/LOCATER V3.70c             31/05/05  17:55:35  PAGE 18


  C:1006H         LINE#         82
  C:1009H         LINE#         83
  C:100CH         LINE#         84
  C:100FH         LINE#         85
  -------         ENDMOD        PCA

  -------         MODULE        X9313
  C:0000H         SYMBOL        _ICE_DUMMY_
  B:00E8H.1       PUBLIC        TMCSDA
  B:0090H.2       PUBLIC        TMCTP4
  B:00D8H.2       PUBLIC        CCF2
  B:0090H.3       PUBLIC        TMCTP5
  B:00D8H.3       PUBLIC        CCF3
  D:0080H         PUBLIC        P0
  B:00C0H.1       PUBLIC        TMCTP6
  B:00A0H.7       PUBLIC        TMCCSD
  B:00D8H.4       PUBLIC        CCF4
  D:0090H         PUBLIC        P1
  B:00C0H.2       PUBLIC        TMCTP7
  D:00A0H         PUBLIC        P2
  B:0090H.4       PUBLIC        TMCRX2
  D:00B0H         PUBLIC        P3
  B:00D0H.6       PUBLIC        AC
  D:00C0H         PUBLIC        P4
  B:00B0H.4       PUBLIC        T0
  B:00B0H.3       PUBLIC        TMCTX2
  D:00E8H         PUBLIC        P5
  B:00B0H.5       PUBLIC        T1
  B:00C0H.4       PUBLIC        TMCTX3
  B:00A8H.7       PUBLIC        EA
  B:0090H.0       PUBLIC        T2
  B:00A0H.1       PUBLIC        TMCCLKAD
  B:0090H.6       PUBLIC        TMCSCK
  B:00A8H.6       PUBLIC        EC
  B:00A0H.5       PUBLIC        TMCSCL
  B:00D8H.7       PUBLIC        CF
  B:00B0H.7       PUBLIC        TMCCSM
  B:0098H.7       PUBLIC        FE
  B:00A0H.0       PUBLIC        TMCMAJAK
  B:00E8H.0       PUBLIC        TMCCLKDI
  B:0080H.0       PUBLIC        P0_0
  B:0090H.3       PUBLIC        CEX0
  B:0090H.0       PUBLIC        P1_0
  B:0080H.1       PUBLIC        P0_1
  B:00A0H.0       PUBLIC        P2_0
  B:0090H.4       PUBLIC        CEX1
  B:0090H.1       PUBLIC        P1_1
  B:0080H.2       PUBLIC        P0_2
  B:00B0H.0       PUBLIC        P3_0
  B:00A0H.1       PUBLIC        P2_1
  B:0090H.5       PUBLIC        CEX2
  B:0090H.2       PUBLIC        P1_2
  B:0080H.3       PUBLIC        P0_3
  B:00E8H.5       PUBLIC        TMCWRD
  B:00C0H.0       PUBLIC        P4_0
  B:00B0H.1       PUBLIC        P3_1
  B:00A0H.2       PUBLIC        P2_2
  B:0090H.6       PUBLIC        CEX3
  B:0090H.3       PUBLIC        P1_3
  B:0080H.4       PUBLIC        P0_4
  B:00B0H.0       PUBLIC        TMCRXD
  B:00D8H.6       PUBLIC        CR
  B:00E8H.0       PUBLIC        P5_0
  B:00C0H.1       PUBLIC        P4_1
  B:00B0H.2       PUBLIC        P3_2
BL51 BANKED LINKER/LOCATER V3.70c             31/05/05  17:55:35  PAGE 19


  B:00A0H.3       PUBLIC        P2_3
  B:0090H.7       PUBLIC        CEX4
  B:0090H.4       PUBLIC        P1_4
  B:0080H.5       PUBLIC        P0_5
  B:00C0H.5       PUBLIC        TMCSOM
  B:00C8H.6       PUBLIC        EXF2
  B:00E8H.1       PUBLIC        P5_1
  B:00C0H.2       PUBLIC        P4_2
  B:00B0H.7       PUBLIC        RD
  B:00B0H.3       PUBLIC        P3_3
  B:00A0H.4       PUBLIC        P2_4
  B:0090H.5       PUBLIC        P1_5
  B:0080H.6       PUBLIC        P0_6
  B:00B0H.1       PUBLIC        TMCTXD
  B:00E8H.2       PUBLIC        P5_2
  B:00C0H.3       PUBLIC        P4_3
  B:00B0H.4       PUBLIC        P3_4
  B:00A0H.5       PUBLIC        P2_5
  B:0090H.6       PUBLIC        P1_6
  B:0080H.7       PUBLIC        P0_7
  B:00A8H.4       PUBLIC        ES
  B:00E8H.3       PUBLIC        P5_3
  B:00C0H.4       PUBLIC        P4_4
  B:00B0H.5       PUBLIC        P3_5
  B:00A0H.6       PUBLIC        P2_6
  B:0090H.7       PUBLIC        P1_7
  B:00D0H.1       PUBLIC        UD
  B:00E8H.4       PUBLIC        P5_4
  B:00C0H.5       PUBLIC        P4_5
  B:00B0H.6       PUBLIC        P3_6
  B:00A0H.7       PUBLIC        P2_7
  B:0080H.0       PUBLIC        TMCD0
  B:00E8H.5       PUBLIC        P5_5
  B:00C0H.6       PUBLIC        P4_6
  B:00B0H.7       PUBLIC        P3_7
  B:0080H.1       PUBLIC        TMCD1
  B:0098H.0       PUBLIC        RI
  B:00E8H.6       PUBLIC        P5_6
  B:00C0H.7       PUBLIC        P4_7
  B:0080H.2       PUBLIC        TMCD2
  B:00D0H.7       PUBLIC        CY
  B:00E8H.7       PUBLIC        P5_7
  B:00B0H.2       PUBLIC        INT0
  B:00C0H.3       PUBLIC        TMCCSPAN
  B:0080H.3       PUBLIC        TMCD3
  B:0098H.1       PUBLIC        TI
  B:00B0H.3       PUBLIC        INT1
  B:0080H.4       PUBLIC        TMCD4
  B:0080H.5       PUBLIC        TMCD5
  B:0080H.6       PUBLIC        TMCD6
  B:0080H.7       PUBLIC        TMCD7
  B:00B8H.1       PUBLIC        PT0L
  B:00B0H.2       PUBLIC        TMCPENIN
  B:00B8H.3       PUBLIC        PT1L
  B:00B8H.5       PUBLIC        PT2L
  B:0090H.1       PUBLIC        T2EX
  B:00B8H.0       PUBLIC        PX0L
  B:00D0H.2       PUBLIC        OV
  B:00B8H.2       PUBLIC        PX1L
  B:00C8H.1       PUBLIC        C_T2
  B:00B0H.6       PUBLIC        WR
  B:00A0H.3       PUBLIC        TMCOUTDI
  B:00C8H.5       PUBLIC        RCLK
  B:00C8H.4       PUBLIC        TCLK
  B:00B8H.6       PUBLIC        PPCL
BL51 BANKED LINKER/LOCATER V3.70c             31/05/05  17:55:35  PAGE 20


  B:00E8H.7       PUBLIC        TMCBUZTP
  B:0088H.1       PUBLIC        IE0
  B:0088H.3       PUBLIC        IE1
  B:0090H.7       PUBLIC        TMCSI
  B:00C8H.0       PUBLIC        CP_RL2
  C:1028H         PUBLIC        E2POTDOWN
  B:00B0H.4       PUBLIC        TMCCSEE
  B:0090H.5       PUBLIC        TMCSO
  B:00A8H.1       PUBLIC        ET0
  B:00A8H.3       PUBLIC        ET1
  B:0088H.5       PUBLIC        TF0
  B:00A8H.5       PUBLIC        ET2
  B:0088H.7       PUBLIC        TF1
  B:0098H.2       PUBLIC        RB8
  B:00C8H.7       PUBLIC        TF2
  B:00A8H.0       PUBLIC        EX0
  B:0088H.0       PUBLIC        IT0
  B:00A8H.2       PUBLIC        EX1
  B:0098H.3       PUBLIC        TB8
  B:0088H.2       PUBLIC        IT1
  B:00D0H.0       PUBLIC        P
  B:00B0H.5       PUBLIC        TMCCSDO
  B:0098H.7       PUBLIC        SM0
  B:0098H.6       PUBLIC        SM1
  B:0090H.2       PUBLIC        ECI
  B:0098H.5       PUBLIC        SM2
  B:00C0H.6       PUBLIC        TMCRESD
  B:00A0H.6       PUBLIC        TMCSCKM
  B:00D0H.3       PUBLIC        RS0
  B:0088H.4       PUBLIC        TR0
  B:00D0H.4       PUBLIC        RS1
  B:0088H.6       PUBLIC        TR1
  B:00C8H.2       PUBLIC        TR2
  B:00E8H.6       PUBLIC        TMCA0D
  B:00F8H.0       PUBLIC        PI2_0
  B:00F8H.1       PUBLIC        PI2_1
  B:00A0H.4       PUBLIC        TMCPISK
  B:00C8H.3       PUBLIC        EXEN2
  B:0098H.4       PUBLIC        REN
  B:00E8H.3       PUBLIC        TMCSVIT
  B:00B0H.0       PUBLIC        RXD
  B:00B8H.4       PUBLIC        PLS
  B:00B0H.1       PUBLIC        TXD
  B:00E8H.2       PUBLIC        TMCLOWBAT
  C:103BH         PUBLIC        E2POTUP
  B:00B0H.6       PUBLIC        TMCCS1AD
  B:00C0H.7       PUBLIC        TMCCS2AD
  B:00D0H.5       PUBLIC        F0
  B:00E8H.4       PUBLIC        TMCCSEPOT
  B:00A0H.2       PUBLIC        TMCDAO
  B:0090H.0       PUBLIC        TMCTP1
  B:00C0H.0       PUBLIC        TMCTP2
  B:00D8H.0       PUBLIC        CCF0
  B:0090H.1       PUBLIC        TMCTP3
  B:00D8H.1       PUBLIC        CCF1
  -------         PROC          E2POTDOWN
  -------         ENDPROC       E2POTDOWN
  C:1028H         LINE#         12
  C:1028H         LINE#         14
  C:102CH         LINE#         15
  C:102EH         LINE#         16
  C:1030H         LINE#         17
  C:1032H         LINE#         18
  C:1034H         LINE#         19
  C:1036H         LINE#         20
BL51 BANKED LINKER/LOCATER V3.70c             31/05/05  17:55:35  PAGE 21


  C:103AH         LINE#         21
  -------         PROC          E2POTUP
  -------         ENDPROC       E2POTUP
  C:103BH         LINE#         23
  C:103BH         LINE#         25
  C:103FH         LINE#         26
  C:1041H         LINE#         27
  C:1043H         LINE#         28
  C:1045H         LINE#         29
  C:1047H         LINE#         30
  C:1049H         LINE#         31
  C:104DH         LINE#         32
  -------         ENDMOD        X9313

  -------         MODULE        ADS7846
  C:0000H         SYMBOL        _ICE_DUMMY_
  B:00E8H.1       PUBLIC        TMCSDA
  B:0090H.2       PUBLIC        TMCTP4
  B:00D8H.2       PUBLIC        CCF2
  B:0090H.3       PUBLIC        TMCTP5
  B:00D8H.3       PUBLIC        CCF3
  D:0080H         PUBLIC        P0
  B:00C0H.1       PUBLIC        TMCTP6
  B:00A0H.7       PUBLIC        TMCCSD
  B:00D8H.4       PUBLIC        CCF4
  D:0090H         PUBLIC        P1
  B:00C0H.2       PUBLIC        TMCTP7
  D:00A0H         PUBLIC        P2
  B:0090H.4       PUBLIC        TMCRX2
  D:00B0H         PUBLIC        P3
  B:00D0H.6       PUBLIC        AC
  D:00C0H         PUBLIC        P4
  B:00B0H.4       PUBLIC        T0
  B:00B0H.3       PUBLIC        TMCTX2
  D:00E8H         PUBLIC        P5
  B:00B0H.5       PUBLIC        T1
  B:00C0H.4       PUBLIC        TMCTX3
  B:00A8H.7       PUBLIC        EA
  B:0090H.0       PUBLIC        T2
  B:00A0H.1       PUBLIC        TMCCLKAD
  B:0090H.6       PUBLIC        TMCSCK
  B:00A8H.6       PUBLIC        EC
  B:00A0H.5       PUBLIC        TMCSCL
  B:00D8H.7       PUBLIC        CF
  B:00B0H.7       PUBLIC        TMCCSM
  B:0098H.7       PUBLIC        FE
  C:0E34H         SYMBOL        _READCONVERSION
  B:00A0H.0       PUBLIC        TMCMAJAK
  B:00E8H.0       PUBLIC        TMCCLKDI
  B:0080H.0       PUBLIC        P0_0
  B:0090H.3       PUBLIC        CEX0
  B:0090H.0       PUBLIC        P1_0
  B:0080H.1       PUBLIC        P0_1
  B:00A0H.0       PUBLIC        P2_0
  B:0090H.4       PUBLIC        CEX1
  B:0090H.1       PUBLIC        P1_1
  B:0080H.2       PUBLIC        P0_2
  B:00B0H.0       PUBLIC        P3_0
  B:00A0H.1       PUBLIC        P2_1
  B:0090H.5       PUBLIC        CEX2
  B:0090H.2       PUBLIC        P1_2
  B:0080H.3       PUBLIC        P0_3
  B:00E8H.5       PUBLIC        TMCWRD
  B:00C0H.0       PUBLIC        P4_0
  B:00B0H.1       PUBLIC        P3_1
BL51 BANKED LINKER/LOCATER V3.70c             31/05/05  17:55:35  PAGE 22


  B:00A0H.2       PUBLIC        P2_2
  B:0090H.6       PUBLIC        CEX3
  B:0090H.3       PUBLIC        P1_3
  B:0080H.4       PUBLIC        P0_4
  B:00B0H.0       PUBLIC        TMCRXD
  B:00D8H.6       PUBLIC        CR
  B:00E8H.0       PUBLIC        P5_0
  B:00C0H.1       PUBLIC        P4_1
  B:00B0H.2       PUBLIC        P3_2
  B:00A0H.3       PUBLIC        P2_3
  B:0090H.7       PUBLIC        CEX4
  B:0090H.4       PUBLIC        P1_4
  B:0080H.5       PUBLIC        P0_5
  B:00C0H.5       PUBLIC        TMCSOM
  B:00C8H.6       PUBLIC        EXF2
  B:00E8H.1       PUBLIC        P5_1
  B:00C0H.2       PUBLIC        P4_2
  B:00B0H.7       PUBLIC        RD
  B:00B0H.3       PUBLIC        P3_3
  B:00A0H.4       PUBLIC        P2_4
  B:0090H.5       PUBLIC        P1_5
  B:0080H.6       PUBLIC        P0_6
  B:00B0H.1       PUBLIC        TMCTXD
  B:00E8H.2       PUBLIC        P5_2
  B:00C0H.3       PUBLIC        P4_3
  B:00B0H.4       PUBLIC        P3_4
  B:00A0H.5       PUBLIC        P2_5
  B:0090H.6       PUBLIC        P1_6
  B:0080H.7       PUBLIC        P0_7
  B:00A8H.4       PUBLIC        ES
  B:00E8H.3       PUBLIC        P5_3
  B:00C0H.4       PUBLIC        P4_4
  B:00B0H.5       PUBLIC        P3_5
  B:00A0H.6       PUBLIC        P2_6
  B:0090H.7       PUBLIC        P1_7
  B:00D0H.1       PUBLIC        UD
  B:00E8H.4       PUBLIC        P5_4
  B:00C0H.5       PUBLIC        P4_5
  B:00B0H.6       PUBLIC        P3_6
  B:00A0H.7       PUBLIC        P2_7
  B:0080H.0       PUBLIC        TMCD0
  B:00E8H.5       PUBLIC        P5_5
  B:00C0H.6       PUBLIC        P4_6
  B:00B0H.7       PUBLIC        P3_7
  B:0080H.1       PUBLIC        TMCD1
  B:0098H.0       PUBLIC        RI
  B:00E8H.6       PUBLIC        P5_6
  B:00C0H.7       PUBLIC        P4_7
  B:0080H.2       PUBLIC        TMCD2
  B:00D0H.7       PUBLIC        CY
  B:00E8H.7       PUBLIC        P5_7
  B:00B0H.2       PUBLIC        INT0
  C:000EH         PUBLIC        TOUCHINIT
  B:00C0H.3       PUBLIC        TMCCSPAN
  B:0080H.3       PUBLIC        TMCD3
  B:0098H.1       PUBLIC        TI
  B:00B0H.3       PUBLIC        INT1
  B:0080H.4       PUBLIC        TMCD4
  C:0D44H         PUBLIC        TOUCHISPRESSED
  B:0080H.5       PUBLIC        TMCD5
  B:0080H.6       PUBLIC        TMCD6
  B:0080H.7       PUBLIC        TMCD7
  B:00B8H.1       PUBLIC        PT0L
  B:00B0H.2       PUBLIC        TMCPENIN
  B:00B8H.3       PUBLIC        PT1L
BL51 BANKED LINKER/LOCATER V3.70c             31/05/05  17:55:35  PAGE 23


  B:00B8H.5       PUBLIC        PT2L
  B:0090H.1       PUBLIC        T2EX
  B:00B8H.0       PUBLIC        PX0L
  B:00D0H.2       PUBLIC        OV
  B:00B8H.2       PUBLIC        PX1L
  B:00C8H.1       PUBLIC        C_T2
  B:00B0H.6       PUBLIC        WR
  B:00A0H.3       PUBLIC        TMCOUTDI
  B:00C8H.5       PUBLIC        RCLK
  B:00C8H.4       PUBLIC        TCLK
  B:00B8H.6       PUBLIC        PPCL
  B:00E8H.7       PUBLIC        TMCBUZTP
  C:0BB7H         PUBLIC        _TOUCHX
  B:0088H.1       PUBLIC        IE0
  C:0B4AH         PUBLIC        _TOUCHY
  B:0088H.3       PUBLIC        IE1
  B:0090H.7       PUBLIC        TMCSI
  B:00C8H.0       PUBLIC        CP_RL2
  C:105BH         PUBLIC        TOUCHISAUTOREPEAT
  B:00B0H.4       PUBLIC        TMCCSEE
  B:0090H.5       PUBLIC        TMCSO
  B:00A8H.1       PUBLIC        ET0
  B:00A8H.3       PUBLIC        ET1
  B:0088H.5       PUBLIC        TF0
  B:00A8H.5       PUBLIC        ET2
  B:0088H.7       PUBLIC        TF1
  B:0098H.2       PUBLIC        RB8
  B:00C8H.7       PUBLIC        TF2
  B:00A8H.0       PUBLIC        EX0
  B:0088H.0       PUBLIC        IT0
  B:00A8H.2       PUBLIC        EX1
  B:0098H.3       PUBLIC        TB8
  B:0088H.2       PUBLIC        IT1
  B:00D0H.0       PUBLIC        P
  B:00B0H.5       PUBLIC        TMCCSDO
  B:0098H.7       PUBLIC        SM0
  B:0098H.6       PUBLIC        SM1
  B:0090H.2       PUBLIC        ECI
  B:0098H.5       PUBLIC        SM2
  B:00C0H.6       PUBLIC        TMCRESD
  B:00A0H.6       PUBLIC        TMCSCKM
  B:00D0H.3       PUBLIC        RS0
  B:0088H.4       PUBLIC        TR0
  B:00D0H.4       PUBLIC        RS1
  B:0088H.6       PUBLIC        TR1
  B:00C8H.2       PUBLIC        TR2
  B:00E8H.6       PUBLIC        TMCA0D
  B:00F8H.0       PUBLIC        PI2_0
  B:00F8H.1       PUBLIC        PI2_1
  B:00A0H.4       PUBLIC        TMCPISK
  B:00C8H.3       PUBLIC        EXEN2
  B:0098H.4       PUBLIC        REN
  C:0FAAH         PUBLIC        _TOUCHREADCOORDINATES
  D:0013H         PUBLIC        _TOUCH_COUNTER
  C:0C23H         SYMBOL        _READCOORDINATE
  B:00E8H.3       PUBLIC        TMCSVIT
  B:00B0H.0       PUBLIC        RXD
  B:00B8H.4       PUBLIC        PLS
  B:00B0H.1       PUBLIC        TXD
  B:00E8H.2       PUBLIC        TMCLOWBAT
  B:00B0H.6       PUBLIC        TMCCS1AD
  B:00C0H.7       PUBLIC        TMCCS2AD
  B:00D0H.5       PUBLIC        F0
  B:00E8H.4       PUBLIC        TMCCSEPOT
  B:00A0H.2       PUBLIC        TMCDAO
BL51 BANKED LINKER/LOCATER V3.70c             31/05/05  17:55:35  PAGE 24


  B:0090H.0       PUBLIC        TMCTP1
  B:00C0H.0       PUBLIC        TMCTP2
  B:00D8H.0       PUBLIC        CCF0
  B:0090H.1       PUBLIC        TMCTP3
  B:00D8H.1       PUBLIC        CCF1
  -------         PROC          TOUCHINIT
  D:0007H         SYMBOL        I
  -------         ENDPROC       TOUCHINIT
  C:000EH         LINE#         84
  C:000EH         LINE#         86
  C:000EH         LINE#         89
  C:0011H         LINE#         91
  C:0013H         LINE#         92
  C:0015H         LINE#         93
  C:0017H         LINE#         94
  C:0019H         LINE#         98
  C:001BH         LINE#         99
  C:001DH         LINE#         101
  C:001EH         LINE#         102
  C:0020H         LINE#         103
  C:0022H         LINE#         104
  C:0026H         LINE#         106
  C:002BH         LINE#         107
  C:002CH         LINE#         108
  -------         PROC          TOUCHISPRESSED
  -------         ENDPROC       TOUCHISPRESSED
  C:0D44H         LINE#         114
  C:0D44H         LINE#         116
  C:0D44H         LINE#         117
  C:0D47H         LINE#         119
  C:0D4FH         LINE#         121
  C:0D56H         LINE#         122
  C:0D59H         LINE#         123
  C:0D5BH         LINE#         124
  C:0D5BH         LINE#         125
  C:0D5BH         LINE#         127
  C:0D5EH         LINE#         128
  C:0D60H         LINE#         129
  C:0D60H         LINE#         132
  C:0D67H         LINE#         133
  C:0D6AH         LINE#         134
  C:0D6DH         LINE#         135
  C:0D6FH         LINE#         136
  C:0D6FH         LINE#         138
  C:0D83H         LINE#         139
  C:0D83H         LINE#         140
  C:0D86H         LINE#         141
  C:0D88H         LINE#         142
  C:0D88H         LINE#         144
  C:0D8BH         LINE#         145
  C:0D8DH         LINE#         147
  C:0D8DH         LINE#         148
  C:0D8DH         LINE#         149
  C:0D95H         LINE#         151
  C:0D98H         LINE#         152
  C:0D99H         LINE#         153
  C:0D99H         LINE#         154
  -------         PROC          TOUCHISAUTOREPEAT
  -------         ENDPROC       TOUCHISAUTOREPEAT
  C:105BH         LINE#         160
  C:105BH         LINE#         162
  C:1067H         LINE#         163
  -------         PROC          _TOUCHREADCOORDINATES
  D:0007H         SYMBOL        X
  D:0029H         SYMBOL        Y
BL51 BANKED LINKER/LOCATER V3.70c             31/05/05  17:55:35  PAGE 25


  D:002AH         SYMBOL        OK
  -------         ENDPROC       _TOUCHREADCOORDINATES
  C:0FAAH         LINE#         169
  C:0FACH         LINE#         172
  C:0FACH         LINE#         175
  C:0FAFH         LINE#         176
  C:0FB4H         LINE#         177
  C:0FB7H         LINE#         178
  C:0FB7H         LINE#         179
  C:0FBEH         LINE#         180
  C:0FC1H         LINE#         181
  C:0FC1H         LINE#         182
  C:0FC5H         LINE#         183
  -------         PROC          _TOUCHX
  D:002BH         SYMBOL        X
  D:002CH         SYMBOL        VALUE
  D:002EH         SYMBOL        OK
  -------         ENDPROC       _TOUCHX
  C:0BB7H         LINE#         189
  C:0BB9H         LINE#         191
  C:0BB9H         LINE#         198
  C:0BC4H         LINE#         201
  C:0BCFH         LINE#         202
  C:0BD5H         LINE#         203
  C:0BDAH         LINE#         204
  C:0BDAH         LINE#         205
  C:0BE5H         LINE#         206
  C:0BECH         LINE#         207
  C:0BF1H         LINE#         208
  C:0BF1H         LINE#         209
  C:0BFDH         LINE#         210
  C:0C1EH         LINE#         224
  C:0C22H         LINE#         226
  -------         PROC          _TOUCHY
  D:002BH         SYMBOL        Y
  D:002CH         SYMBOL        VALUE
  D:002EH         SYMBOL        OK
  -------         ENDPROC       _TOUCHY
  C:0B4AH         LINE#         232
  C:0B4CH         LINE#         234
  C:0B4CH         LINE#         241
  C:0B57H         LINE#         256
  C:0B62H         LINE#         257
  C:0B69H         LINE#         258
  C:0B6EH         LINE#         259
  C:0B6EH         LINE#         260
  C:0B75H         LINE#         261
  C:0B7BH         LINE#         262
  C:0B80H         LINE#         263
  C:0B80H         LINE#         264
  C:0B8CH         LINE#         265
  C:0BB2H         LINE#         267
  C:0BB6H         LINE#         269
  -------         PROC          _READCONVERSION
  D:0007H         SYMBOL        CONTROL
  D:0005H         SYMBOL        I
  D:0002H         SYMBOL        VALUE
  -------         ENDPROC       _READCONVERSION
  C:0E34H         LINE#         311
  C:0E34H         LINE#         314
  C:0E34H         LINE#         318
  C:0E36H         LINE#         319
  C:0E38H         LINE#         320
  C:0E3AH         LINE#         321
  C:0E3CH         LINE#         323
BL51 BANKED LINKER/LOCATER V3.70c             31/05/05  17:55:35  PAGE 26


  C:0E3EH         LINE#         324
  C:0E42H         LINE#         325
  C:0E44H         LINE#         326
  C:0E48H         LINE#         327
  C:0E4AH         LINE#         328
  C:0E4EH         LINE#         330
  C:0E50H         LINE#         331
  C:0E52H         LINE#         332
  C:0E53H         LINE#         333
  C:0E55H         LINE#         336
  C:0E58H         LINE#         337
  C:0E59H         LINE#         338
  C:0E60H         LINE#         339
  C:0E62H         LINE#         340
  C:0E65H         LINE#         341
  C:0E68H         LINE#         342
  C:0E68H         LINE#         343
  C:0E6AH         LINE#         344
  C:0E6EH         LINE#         345
  C:0E70H         LINE#         347
  C:0E72H         LINE#         348
  C:0E74H         LINE#         349
  C:0E78H         LINE#         350
  -------         PROC          _READCOORDINATE
  D:0004H         SYMBOL        CONTROL
  D:002FH         SYMBOL        COORD
  D:0001H         SYMBOL        I
  D:0030H         SYMBOL        C
  D:0032H         SYMBOL        OLD_C
  D:0034H         SYMBOL        DONE_OK
  -------         ENDPROC       _READCOORDINATE
  C:0C23H         LINE#         358
  C:0C27H         LINE#         360
  C:0C27H         LINE#         365
  C:0C2EH         LINE#         366
  C:0C34H         LINE#         367
  C:0C37H         LINE#         368
  C:0C38H         LINE#         369
  C:0C43H         LINE#         370
  C:0C6FH         LINE#         371
  C:0C72H         LINE#         372
  C:0C74H         LINE#         373
  C:0C74H         LINE#         374
  C:0C7AH         LINE#         375
  C:0C7EH         LINE#         376
  C:0C85H         LINE#         377
  C:0C8AH         LINE#         378
  C:0C8EH         LINE#         379
  -------         ENDMOD        ADS7846

  -------         MODULE        CPRINTF
  C:0000H         SYMBOL        _ICE_DUMMY_
  C:051FH         PUBLIC        _CPRINTF
  -------         PROC          _CPRINTF
  D:0029H         SYMBOL        FORMAT
  D:002BH         SYMBOL        ELLIPSIS_15
  D:003AH         SYMBOL        ARG
  D:003DH         SYMBOL        WIDTH
  D:003EH         SYMBOL        SIZE
  D:0007H         SYMBOL        CH
  C:053EH         SYMBOL        NEXT
  -------         ENDPROC       _CPRINTF
  C:051FH         LINE#         24
  C:0523H         LINE#         26
  C:0523H         LINE#         32
BL51 BANKED LINKER/LOCATER V3.70c             31/05/05  17:55:35  PAGE 27


  C:052CH         LINE#         33
  C:053AH         LINE#         34
  C:053EH         LINE#         35
  C:0541H         LINE#         36
  C:0544H         LINE#         37
  C:0544H         LINE#         38
  C:0547H         LINE#         39
  C:054AH         LINE#         40
  C:054AH         LINE#         41
  C:0552H         LINE#         42
  C:055BH         LINE#         43
  C:056AH         LINE#         44
  C:0571H         LINE#         45
  C:0577H         LINE#         46
  C:0582H         LINE#         47
  C:0593H         LINE#         48
  C:0593H         LINE#         49
  C:0595H         LINE#         50
  C:0595H         LINE#         51
  C:05C4H         LINE#         52
  C:05C4H         LINE#         53
  C:05C9H         LINE#         54
  C:05CCH         LINE#         55
  C:05CCH         LINE#         57
  C:05CFH         LINE#         58
  C:05D2H         LINE#         59
  C:05D2H         LINE#         61
  C:05D5H         LINE#         62
  C:05F1H         LINE#         63
  C:05F4H         LINE#         64
  C:05F4H         LINE#         66
  C:05F7H         LINE#         67
  C:0616H         LINE#         68
  C:0619H         LINE#         69
  C:0619H         LINE#         71
  C:0632H         LINE#         72
  C:0635H         LINE#         74
  C:0635H         LINE#         76
  C:0638H         LINE#         77
  C:063BH         LINE#         78
  C:063BH         LINE#         80
  C:063EH         LINE#         81
  C:0641H         LINE#         83
  C:0641H         LINE#         84
  C:0641H         LINE#         85
  C:0646H         LINE#         86
  C:0662H         LINE#         87
  C:066AH         LINE#         88
  C:0683H         LINE#         89
  C:0686H         LINE#         90
  C:06A5H         LINE#         91
  C:06A5H         LINE#         92
  C:06A8H         LINE#         93
  C:06A8H         LINE#         94
  C:06ABH         LINE#         96
  C:06ABH         LINE#         97
  C:06B0H         LINE#         98
  C:06CEH         LINE#         99
  C:06D5H         LINE#         100
  C:06EEH         LINE#         101
  C:06F0H         LINE#         102
  C:0712H         LINE#         103
  C:0712H         LINE#         104
  C:0714H         LINE#         105
  C:0714H         LINE#         106
BL51 BANKED LINKER/LOCATER V3.70c             31/05/05  17:55:35  PAGE 28


  C:0729H         LINE#         107
  C:072BH         LINE#         108
  C:072BH         LINE#         109
  C:0744H         LINE#         110
  C:0744H         LINE#         111
  C:0744H         LINE#         112
  C:0744H         LINE#         113
  C:0744H         LINE#         114
  C:0744H         LINE#         115
  C:074FH         LINE#         117
  -------         ENDMOD        CPRINTF

  -------         MODULE        MAIN
  C:0000H         SYMBOL        _ICE_DUMMY_
  B:00E8H.1       PUBLIC        TMCSDA
  B:0090H.2       PUBLIC        TMCTP4
  B:00D8H.2       PUBLIC        CCF2
  B:0090H.3       PUBLIC        TMCTP5
  B:00D8H.3       PUBLIC        CCF3
  D:0080H         PUBLIC        P0
  B:00C0H.1       PUBLIC        TMCTP6
  B:00A0H.7       PUBLIC        TMCCSD
  B:00D8H.4       PUBLIC        CCF4
  D:0090H         PUBLIC        P1
  B:00C0H.2       PUBLIC        TMCTP7
  D:00A0H         PUBLIC        P2
  B:0090H.4       PUBLIC        TMCRX2
  D:00B0H         PUBLIC        P3
  B:00D0H.6       PUBLIC        AC
  D:00C0H         PUBLIC        P4
  B:00B0H.4       PUBLIC        T0
  B:00B0H.3       PUBLIC        TMCTX2
  D:00E8H         PUBLIC        P5
  B:00B0H.5       PUBLIC        T1
  B:00C0H.4       PUBLIC        TMCTX3
  B:00A8H.7       PUBLIC        EA
  B:0090H.0       PUBLIC        T2
  B:00A0H.1       PUBLIC        TMCCLKAD
  B:0090H.6       PUBLIC        TMCSCK
  B:00A8H.6       PUBLIC        EC
  B:00A0H.5       PUBLIC        TMCSCL
  B:00D8H.7       PUBLIC        CF
  B:00B0H.7       PUBLIC        TMCCSM
  B:0098H.7       PUBLIC        FE
  B:00A0H.0       PUBLIC        TMCMAJAK
  B:00E8H.0       PUBLIC        TMCCLKDI
  B:0080H.0       PUBLIC        P0_0
  B:0090H.3       PUBLIC        CEX0
  B:0090H.0       PUBLIC        P1_0
  B:0080H.1       PUBLIC        P0_1
  B:00A0H.0       PUBLIC        P2_0
  B:0090H.4       PUBLIC        CEX1
  B:0090H.1       PUBLIC        P1_1
  B:0080H.2       PUBLIC        P0_2
  C:0F23H         PUBLIC        _SYSDELAY
  B:00B0H.0       PUBLIC        P3_0
  B:00A0H.1       PUBLIC        P2_1
  B:0090H.5       PUBLIC        CEX2
  B:0090H.2       PUBLIC        P1_2
  B:0080H.3       PUBLIC        P0_3
  B:00E8H.5       PUBLIC        TMCWRD
  B:00C0H.0       PUBLIC        P4_0
  B:00B0H.1       PUBLIC        P3_1
  B:00A0H.2       PUBLIC        P2_2
  B:0090H.6       PUBLIC        CEX3
BL51 BANKED LINKER/LOCATER V3.70c             31/05/05  17:55:35  PAGE 29


  B:0090H.3       PUBLIC        P1_3
  B:0080H.4       PUBLIC        P0_4
  B:00B0H.0       PUBLIC        TMCRXD
  B:00D8H.6       PUBLIC        CR
  B:00E8H.0       PUBLIC        P5_0
  B:00C0H.1       PUBLIC        P4_1
  B:00B0H.2       PUBLIC        P3_2
  B:00A0H.3       PUBLIC        P2_3
  B:0090H.7       PUBLIC        CEX4
  B:0090H.4       PUBLIC        P1_4
  B:0080H.5       PUBLIC        P0_5
  B:00C0H.5       PUBLIC        TMCSOM
  B:00C8H.6       PUBLIC        EXF2
  B:00E8H.1       PUBLIC        P5_1
  B:00C0H.2       PUBLIC        P4_2
  B:00B0H.7       PUBLIC        RD
  B:00B0H.3       PUBLIC        P3_3
  B:00A0H.4       PUBLIC        P2_4
  B:0090H.5       PUBLIC        P1_5
  B:0080H.6       PUBLIC        P0_6
  B:00B0H.1       PUBLIC        TMCTXD
  B:00E8H.2       PUBLIC        P5_2
  B:00C0H.3       PUBLIC        P4_3
  B:00B0H.4       PUBLIC        P3_4
  B:00A0H.5       PUBLIC        P2_5
  B:0090H.6       PUBLIC        P1_6
  B:0080H.7       PUBLIC        P0_7
  B:00A8H.4       PUBLIC        ES
  B:00E8H.3       PUBLIC        P5_3
  B:00C0H.4       PUBLIC        P4_4
  B:00B0H.5       PUBLIC        P3_5
  B:00A0H.6       PUBLIC        P2_6
  B:0090H.7       PUBLIC        P1_7
  B:00D0H.1       PUBLIC        UD
  B:00E8H.4       PUBLIC        P5_4
  B:00C0H.5       PUBLIC        P4_5
  B:00B0H.6       PUBLIC        P3_6
  B:00A0H.7       PUBLIC        P2_7
  B:0080H.0       PUBLIC        TMCD0
  B:00E8H.5       PUBLIC        P5_5
  B:00C0H.6       PUBLIC        P4_6
  B:00B0H.7       PUBLIC        P3_7
  B:0080H.1       PUBLIC        TMCD1
  B:0098H.0       PUBLIC        RI
  B:00E8H.6       PUBLIC        P5_6
  B:00C0H.7       PUBLIC        P4_7
  B:0080H.2       PUBLIC        TMCD2
  B:00D0H.7       PUBLIC        CY
  B:00E8H.7       PUBLIC        P5_7
  B:00B0H.2       PUBLIC        INT0
  B:00C0H.3       PUBLIC        TMCCSPAN
  B:0080H.3       PUBLIC        TMCD3
  B:0098H.1       PUBLIC        TI
  B:00B0H.3       PUBLIC        INT1
  B:0080H.4       PUBLIC        TMCD4
  B:0080H.5       PUBLIC        TMCD5
  B:0080H.6       PUBLIC        TMCD6
  D:008FH         PUBLIC        CKCON0
  B:0080H.7       PUBLIC        TMCD7
  B:00B8H.1       PUBLIC        PT0L
  B:00B0H.2       PUBLIC        TMCPENIN
  B:00B8H.3       PUBLIC        PT1L
  B:00B8H.5       PUBLIC        PT2L
  B:0090H.1       PUBLIC        T2EX
  B:00B8H.0       PUBLIC        PX0L
BL51 BANKED LINKER/LOCATER V3.70c             31/05/05  17:55:35  PAGE 30


  B:00D0H.2       PUBLIC        OV
  B:00B8H.2       PUBLIC        PX1L
  C:00C2H         PUBLIC        MAIN
  B:00C8H.1       PUBLIC        C_T2
  B:00B0H.6       PUBLIC        WR
  D:0012H         PUBLIC        COUNTER1S
  B:00A0H.3       PUBLIC        TMCOUTDI
  B:00C8H.5       PUBLIC        RCLK
  B:00C8H.4       PUBLIC        TCLK
  B:00B8H.6       PUBLIC        PPCL
  D:0089H         PUBLIC        TMOD
  C:0F52H         PUBLIC        SYSYIELD
  B:00E8H.7       PUBLIC        TMCBUZTP
  B:0088H.1       PUBLIC        IE0
  B:0088H.3       PUBLIC        IE1
  D:008EH         PUBLIC        AUXR
  B:0090H.7       PUBLIC        TMCSI
  B:00C8H.0       PUBLIC        CP_RL2
  B:00B0H.4       PUBLIC        TMCCSEE
  B:0090H.5       PUBLIC        TMCSO
  B:0020H.3       PUBLIC        TIMER1S
  B:00A8H.1       PUBLIC        ET0
  B:00A8H.3       PUBLIC        ET1
  B:0088H.5       PUBLIC        TF0
  B:00A8H.5       PUBLIC        ET2
  B:0088H.7       PUBLIC        TF1
  B:0098H.2       PUBLIC        RB8
  D:008CH         PUBLIC        TH0
  B:00C8H.7       PUBLIC        TF2
  B:00A8H.0       PUBLIC        EX0
  B:0088H.0       PUBLIC        IT0
  B:00A8H.2       PUBLIC        EX1
  B:0098H.3       PUBLIC        TB8
  B:0088H.2       PUBLIC        IT1
  B:00D0H.0       PUBLIC        P
  B:00B0H.5       PUBLIC        TMCCSDO
  B:0098H.7       PUBLIC        SM0
  D:008AH         PUBLIC        TL0
  B:0098H.6       PUBLIC        SM1
  B:0090H.2       PUBLIC        ECI
  B:0098H.5       PUBLIC        SM2
  B:00C0H.6       PUBLIC        TMCRESD
  B:00A0H.6       PUBLIC        TMCSCKM
  B:00D0H.3       PUBLIC        RS0
  B:0088H.4       PUBLIC        TR0
  B:00D0H.4       PUBLIC        RS1
  B:0088H.6       PUBLIC        TR1
  B:00C8H.2       PUBLIC        TR2
  D:00A7H         PUBLIC        WDTPRG
  B:00E8H.6       PUBLIC        TMCA0D
  B:00F8H.0       PUBLIC        PI2_0
  B:00F8H.1       PUBLIC        PI2_1
  C:0003H         PUBLIC        SYSWAITEVENT
  B:00A0H.4       PUBLIC        TMCPISK
  B:00C8H.3       PUBLIC        EXEN2
  B:0098H.4       PUBLIC        REN
  D:00A6H         PUBLIC        WDTRST
  B:00E8H.3       PUBLIC        TMCSVIT
  B:00B0H.0       PUBLIC        RXD
  B:00B8H.4       PUBLIC        PLS
  B:00B0H.1       PUBLIC        TXD
  B:00E8H.2       PUBLIC        TMCLOWBAT
  D:00A2H         PUBLIC        AUXR1
  B:00B0H.6       PUBLIC        TMCCS1AD
  B:00C0H.7       PUBLIC        TMCCS2AD
BL51 BANKED LINKER/LOCATER V3.70c             31/05/05  17:55:35  PAGE 31


  B:00D0H.5       PUBLIC        F0
  B:00E8H.4       PUBLIC        TMCCSEPOT
  C:0CEBH         SYMBOL        TIMER0HANDLER
  B:00A0H.2       PUBLIC        TMCDAO
  B:0090H.0       PUBLIC        TMCTP1
  B:00C0H.0       PUBLIC        TMCTP2
  B:00D8H.0       PUBLIC        CCF0
  B:0090H.1       PUBLIC        TMCTP3
  B:00D8H.1       PUBLIC        CCF1
  -------         PROC          MAIN
  D:0021H         SYMBOL        X
  D:0023H         SYMBOL        Y
  D:0025H         SYMBOL        X_OK
  D:0026H         SYMBOL        Y_OK
  D:0027H         SYMBOL        PODSVIT
  D:0028H         SYMBOL        MAJAK
  -------         ENDPROC       MAIN
  C:00C2H         LINE#         34
  C:00C2H         LINE#         35
  C:00C2H         LINE#         42
  C:00C8H         LINE#         43
  C:00CBH         LINE#         44
  C:00CEH         LINE#         45
  C:00D4H         LINE#         47
  C:00D7H         LINE#         48
  C:00D9H         LINE#         49
  C:00DFH         LINE#         50
  C:00E6H         LINE#         52
  C:00E8H         LINE#         53
  C:00F8H         LINE#         57
  C:0106H         LINE#         58
  C:010DH         LINE#         60
  C:0110H         LINE#         61
  C:0113H         LINE#         63
  C:0116H         LINE#         68
  C:011DH         LINE#         69
  C:0124H         LINE#         70
  C:0127H         LINE#         71
  C:012EH         LINE#         73
  C:0131H         LINE#         75
  C:0131H         LINE#         76
  C:0138H         LINE#         77
  C:015BH         LINE#         78
  C:015BH         LINE#         79
  C:0160H         LINE#         80
  C:016EH         LINE#         81
  C:017AH         LINE#         82
  C:0180H         LINE#         83
  C:0182H         LINE#         85
  C:0182H         LINE#         86
  C:0187H         LINE#         87
  C:0195H         LINE#         88
  C:01A1H         LINE#         89
  C:01A8H         LINE#         90
  C:01AAH         LINE#         92
  C:01AAH         LINE#         93
  C:01AFH         LINE#         94
  C:01BDH         LINE#         95
  C:01C0H         LINE#         96
  C:01C3H         LINE#         98
  C:01C3H         LINE#         99
  C:01C8H         LINE#         100
  C:01D6H         LINE#         101
  C:01D9H         LINE#         102
  C:01DCH         LINE#         104
BL51 BANKED LINKER/LOCATER V3.70c             31/05/05  17:55:35  PAGE 32


  C:01DCH         LINE#         105
  C:01EAH         LINE#         106
  C:01F5H         LINE#         107
  C:01FCH         LINE#         108
  C:021BH         LINE#         109
  C:021EH         LINE#         111
  C:021EH         LINE#         112
  C:0227H         LINE#         113
  C:0230H         LINE#         114
  C:0237H         LINE#         115
  C:0262H         LINE#         116
  C:0269H         LINE#         117
  C:026CH         LINE#         118
  C:0273H         LINE#         119
  C:0275H         LINE#         120
  C:027CH         LINE#         121
  C:027CH         LINE#         122
  C:0283H         LINE#         123
  C:0287H         LINE#         124
  C:028EH         LINE#         125
  C:0290H         LINE#         126
  C:0297H         LINE#         127
  C:0297H         LINE#         128
  C:029EH         LINE#         129
  C:02A2H         LINE#         130
  C:02A9H         LINE#         131
  C:02ACH         LINE#         132
  C:02B3H         LINE#         133
  C:02B3H         LINE#         134
  C:02B6H         LINE#         136
  C:02B6H         LINE#         137
  C:02B6H         LINE#         139
  C:02B6H         LINE#         140
  C:02B6H         LINE#         141
  C:02B6H         LINE#         142
  C:02B6H         LINE#         143
  -------         PROC          SYSYIELD
  D:0011H         SYMBOL        TIMEOUT
  -------         ENDPROC       SYSYIELD
  C:0F52H         LINE#         149
  C:0F52H         LINE#         151
  C:0F52H         LINE#         152
  C:0F52H         LINE#         155
  C:0F58H         LINE#         157
  C:0F5BH         LINE#         159
  C:0F5DH         LINE#         160
  C:0F60H         LINE#         161
  C:0F62H         LINE#         162
  C:0F65H         LINE#         163
  C:0F65H         LINE#         165
  C:0F6CH         LINE#         166
  C:0F6FH         LINE#         167
  C:0F72H         LINE#         168
  C:0F72H         LINE#         169
  C:0F77H         LINE#         170
  C:0F7AH         LINE#         171
  C:0F7DH         LINE#         172
  C:0F7DH         LINE#         180
  C:0F7FH         LINE#         181
  -------         PROC          SYSWAITEVENT
  D:0007H         SYMBOL        KEY
  -------         ENDPROC       SYSWAITEVENT
  C:0003H         LINE#         187
  C:0003H         LINE#         189
  C:0003H         LINE#         192
BL51 BANKED LINKER/LOCATER V3.70c             31/05/05  17:55:35  PAGE 33


  C:0003H         LINE#         193
  C:0006H         LINE#         194
  C:000AH         LINE#         195
  C:000AH         LINE#         196
  C:000AH         LINE#         197
  C:000AH         LINE#         198
  -------         PROC          TIMER0HANDLER
  -------         ENDPROC       TIMER0HANDLER
  C:0CEBH         LINE#         204
  C:0D08H         LINE#         207
  C:0D0EH         LINE#         209
  C:0D17H         LINE#         210
  C:0D1FH         LINE#         211
  C:0D29H         LINE#         212
  -------         PROC          _SYSDELAY
  D:0006H         SYMBOL        N
  D:0005H         SYMBOL        M
  -------         ENDPROC       _SYSDELAY
  C:0F23H         LINE#         218
  C:0F23H         LINE#         219
  C:0F23H         LINE#         223
  C:0F2CH         LINE#         224
  C:0F2FH         LINE#         225
  C:0F32H         LINE#         226
  C:0F36H         LINE#         227
  C:0F3AH         LINE#         228
  C:0F3EH         LINE#         230
  C:0F42H         LINE#         231
  C:0F46H         LINE#         232
  C:0F4AH         LINE#         233
  C:0F4FH         LINE#         234
  C:0F51H         LINE#         235
  -------         ENDMOD        MAIN

  -------         MODULE        CPUTS
  C:1010H         SEGMENT       ?PR?_CPUTS?CPUTS
  C:1010H         PUBLIC        _CPUTS
  C:1014H         SYMBOL        ?C0020
  C:1027H         SYMBOL        ?C0022
  N:0000H         SYMBOL        CPUTS
  D:0083H         SYMBOL        DPH
  D:0082H         SYMBOL        DPL
  C:1010H         LINE#         26
  C:1012H         LINE#         27
  C:1014H         LINE#         29
  C:1015H         LINE#         30
  C:1016H         LINE#         31
  C:1017H         LINE#         32
  C:1019H         LINE#         33
  C:101BH         LINE#         34
  C:101DH         LINE#         35
  C:1020H         LINE#         36
  C:1022H         LINE#         37
  C:1024H         LINE#         38
  C:1025H         LINE#         39
  C:1027H         LINE#         43
  -------         ENDMOD        CPUTS

  -------         MODULE        CPRINTDE
  C:0000H         SYMBOL        _ICE_DUMMY_
  C:0C8FH         PUBLIC        _CPRINTDEC
  -------         PROC          _CPRINTDEC
  D:003FH         SYMBOL        X
  D:0043H         SYMBOL        WIDTH
  -------         ENDPROC       _CPRINTDEC
BL51 BANKED LINKER/LOCATER V3.70c             31/05/05  17:55:35  PAGE 34


  C:0C8FH         LINE#         21
  C:0C97H         LINE#         23
  C:0C97H         LINE#         24
  C:0C9CH         LINE#         26
  C:0CB2H         LINE#         27
  C:0CB7H         LINE#         28
  C:0CCAH         LINE#         29
  C:0CCCH         LINE#         30
  C:0CD1H         LINE#         31
  C:0CD1H         LINE#         32
  C:0CD1H         LINE#         33
  C:0CE4H         LINE#         34
  C:0CEAH         LINE#         35
  -------         ENDMOD        CPRINTDE

  -------         MODULE        CPRINTHE
  C:0000H         SYMBOL        _ICE_DUMMY_
  C:09DCH         PUBLIC        _CPRINTHEX
  -------         PROC          _CPRINTHEX
  D:0044H         SYMBOL        X
  D:0048H         SYMBOL        WIDTH
  D:0049H         SYMBOL        ISNONZERO
  D:0007H         SYMBOL        NIBBLE
  D:004AH         SYMBOL        I
  D:004BH         SYMBOL        DECIMALS
  -------         ENDPROC       _CPRINTHEX
  C:09DCH         LINE#         20
  C:09E4H         LINE#         22
  C:09E4H         LINE#         28
  C:09EAH         LINE#         29
  C:09F4H         LINE#         30
  C:09F7H         LINE#         31
  C:09FBH         LINE#         32
  C:09FEH         LINE#         33
  C:09FEH         LINE#         53
  C:0A08H         LINE#         54
  C:0A15H         LINE#         55
  C:0A1AH         LINE#         56
  C:0A1DH         LINE#         57
  C:0A1FH         LINE#         58
  C:0A24H         LINE#         59
  C:0A24H         LINE#         61
  C:0A30H         LINE#         62
  C:0A33H         LINE#         63
  C:0A39H         LINE#         64
  C:0A3BH         LINE#         65
  C:0A40H         LINE#         66
  C:0A40H         LINE#         67
  C:0A4AH         LINE#         68
  C:0A4EH         LINE#         69
  C:0A51H         LINE#         70
  C:0A56H         LINE#         71
  C:0A56H         LINE#         72
  C:0A5BH         LINE#         73
  C:0A5BH         LINE#         74
  C:0A5FH         LINE#         75
  -------         ENDMOD        CPRINTHE

  -------         MODULE        DBIN2BCD
  C:0E79H         SEGMENT       ?PR?_DBIN2BCD?DBIN2BCD
  C:0E79H         PUBLIC        _DBIN2BCD
  D:00F0H         SYMBOL        B
  C:0E9CH         SYMBOL        BCD00E
  C:0E99H         SYMBOL        BCDBYTE
  N:0000H         SYMBOL        DBIN2BCD
BL51 BANKED LINKER/LOCATER V3.70c             31/05/05  17:55:35  PAGE 35


  C:0E79H         LINE#         26
  C:0E7BH         LINE#         27
  C:0E7DH         LINE#         28
  C:0E7FH         LINE#         29
  C:0E81H         LINE#         31
  C:0E82H         LINE#         32
  C:0E83H         LINE#         33
  C:0E84H         LINE#         34
  C:0E85H         LINE#         35
  C:0E86H         LINE#         37
  C:0E89H         LINE#         38
  C:0E8BH         LINE#         39
  C:0E8EH         LINE#         40
  C:0E90H         LINE#         41
  C:0E93H         LINE#         42
  C:0E95H         LINE#         43
  C:0E98H         LINE#         44
  C:0E99H         LINE#         46
  C:0E9CH         LINE#         48
  C:0E9DH         LINE#         49
  C:0E9EH         LINE#         50
  C:0E9FH         LINE#         52
  C:0EA0H         LINE#         53
  C:0EA1H         LINE#         54
  C:0EA2H         LINE#         55
  C:0EA3H         LINE#         57
  C:0EA4H         LINE#         58
  C:0EA5H         LINE#         59
  C:0EA6H         LINE#         60
  C:0EA7H         LINE#         62
  C:0EA8H         LINE#         63
  C:0EA9H         LINE#         64
  C:0EAAH         LINE#         65
  C:0EABH         LINE#         67
  C:0EACH         LINE#         68
  C:0EADH         LINE#         69
  C:0EAEH         LINE#         70
  C:0EAFH         LINE#         72
  C:0EB2H         LINE#         73
  C:0EB3H         LINE#         76
  -------         ENDMOD        DBIN2BCD

  -------         MODULE        NIBBLE2HEX
  C:108AH         SEGMENT       ?PR?_NIBBLE2HEX?NIBBLE2HEX
  C:108AH         PUBLIC        _NIBBLE2HEX
  N:0000H         SYMBOL        NIBBLE2HEX
  C:108AH         LINE#         27
  C:108BH         LINE#         28
  C:108DH         LINE#         29
  C:108FH         LINE#         30
  C:1090H         LINE#         31
  C:1092H         LINE#         32
  C:1093H         LINE#         33
  C:1094H         LINE#         36
  -------         ENDMOD        NIBBLE2HEX

  -------         MODULE        ?C?CLDPTR
  C:02B7H         PUBLIC        ?C?CLDPTR
  -------         ENDMOD        ?C?CLDPTR

  -------         MODULE        ?C?IMUL
  C:02D0H         PUBLIC        ?C?IMUL
  -------         ENDMOD        ?C?IMUL

  -------         MODULE        ?C?UIDIV
BL51 BANKED LINKER/LOCATER V3.70c             31/05/05  17:55:35  PAGE 36


  C:02E4H         PUBLIC        ?C?UIDIV
  -------         ENDMOD        ?C?UIDIV

  -------         MODULE        ?C?ILDPTR
  C:0339H         PUBLIC        ?C?ILDPTR
  -------         ENDMOD        ?C?ILDPTR

  -------         MODULE        ?C?LMUL
  C:0364H         PUBLIC        ?C?LMUL
  -------         ENDMOD        ?C?LMUL

  -------         MODULE        ?C?ULDIV
  C:03EFH         PUBLIC        ?C?ULDIV
  -------         ENDMOD        ?C?ULDIV

  -------         MODULE        ?C?LNEG
  C:0481H         PUBLIC        ?C?LNEG
  -------         ENDMOD        ?C?LNEG

  -------         MODULE        ?C?SLCMP
  C:048FH         PUBLIC        ?C?SLCMP
  -------         ENDMOD        ?C?SLCMP

  -------         MODULE        ?C?LLDPTR
  C:04A5H         PUBLIC        ?C?LLDPTR
  -------         ENDMOD        ?C?LLDPTR

  -------         MODULE        ?C?CCASE
  C:04C5H         PUBLIC        ?C?CCASE
  -------         ENDMOD        ?C?CCASE

  -------         MODULE        ?C?LLDIDATA
  C:04EBH         PUBLIC        ?C?LLDIDATA
  -------         ENDMOD        ?C?LLDIDATA

  -------         MODULE        ?C?LLDXDATA
  C:04F7H         PUBLIC        ?C?LLDXDATA
  -------         ENDMOD        ?C?LLDXDATA

  -------         MODULE        ?C?LLDPDATA
  C:0503H         PUBLIC        ?C?LLDPDATA
  -------         ENDMOD        ?C?LLDPDATA

  -------         MODULE        ?C?LLDCODE
  C:050FH         PUBLIC        ?C?LLDCODE
  -------         ENDMOD        ?C?LLDCODE

LINK/LOCATE RUN COMPLETE.  0 WARNING(S),  0 ERROR(S)
