C51 COMPILER V5.50,  MAIN                                                                  26/03/05  13:57:33  PAGE 1   


DOS C51 COMPILER V5.50, COMPILATION OF MODULE MAIN
OBJECT MODULE PLACED IN MAIN.OBJ
COMPILER INVOKED BY: C:\KEIL\C51_V5.5\BIN\C51.EXE MAIN.C51 CD DB

stmt level    source

   1          //*****************************************************************************
   2          //
   3          //    Main.c51       - TMC testovani
   4          //    Version 1.00   (c) VymOs
   5          //
   6          //*****************************************************************************
   7          
   8          #include "Hardware.h"
   9          #include "..\inc\System.h"     // "operacni system"
  10          #include "..\inc\PcaTmc.h"     // PCA projektu TMC
  11          #include "..\inc\Sed1335.h"    // display
  12          #include "..\inc\Ads7846.h"    // touch screen
  13          #include "..\inc\Kbd.h"        // KbdGet
  14          #include "..\inc\conio.h"      // jednoduchy display
  15          #include "..\inc\bcd.h"
  16          
  17          // odpocet necinnosti :
  18          #define USER_EVENT_TIMEOUT 20    // uzivatel neobsluhuje dele nez ... s
  19          
  20          // start odpocitavani 1 s :
  21          #define SetTimer1s()  counter1s = 1000 / TIMER0_PERIOD
  22          
  23          // Lokalni promenne :
  24          
  25          volatile byte counter1s   = 0;         // odpocitavani 1 s
  26          volatile bit  timer1s     = 0;         // priznak odpocitani 1 s
  27          
  28          // ---------------------------------------------------------------------------------------------
  29          // Main
  30          // ---------------------------------------------------------------------------------------------
  31          
  32          void main()
  33          {
  34   1      byte Enable;
  35   1      byte volume;
  36   1      
  37   1      // Systemova inicializace : ---------------------------------------------------
  38   1         TimingSetup();              // Nastaveni X2 modu
  39   1         EnableXRAM();               // Povoleni pristupu k vnitrni XRAM
  40   1         WDTPRG = WDTPRG_2090;       // start Watch Dogu
  41   1         WatchDog();
  42   1      
  43   1         DisplayPodsvit( 1);
  44   1      
  45   1         EnableInts();               // Povoleni preruseni
  46   1         Timer0Run( TIMER0_PERIOD);  // spust casovac 0
  47   1      
  48   1      // Inicializace modulu : ------------------------------------------------------
  49   1      
  50   1         DisplayInit();
  51   1         TouchInit();
  52   1      
  53   1         PcaInit();
  54   1      
  55   1         PcaBeep( NOTE_C4, VOL_10, 200);  // uvodni pipnuti
  56   1         SysDelay( 200);
  57   1      
  58   1      //-- Linker :
  59   1         Enable = 0;
C51 COMPILER V5.50,  MAIN                                                                  26/03/05  13:57:33  PAGE 2   

  60   1         if( Enable){
  61   2            PcaCom2Tx(0);
  62   2            PcaCom2RxEnable();
  63   2            PcaCom2Rx(0);
  64   2            PcaCom3Tx(0);
  65   2         }
  66   1      
  67   1         cputs( "No nazdar");
  68   1         SysDelay( 500);
  69   1         DisplayClear();
  70   1         cputs( "Zaciname...");
  71   1      
  72   1         SetTimer1s();               // zahajeni odpoctu 1 s
  73   1         volume = VOL_10;
  74   1         while (1) {
  75   2            DisplayGotoRC( 1, 0);
  76   2            switch(SysWaitEvent()){
  77   3               case K_ENTER :
  78   3                  putchar('E');
  79   3                  PcaSBeep( NOTE_C1, volume, 100);   // pipnuti
  80   3                  break;
  81   3      
  82   3               case K_ESC :
  83   3                  putchar('S');
  84   3                  PcaSBeep( NOTE_C4, volume, 100);   // pipnuti
  85   3                  break;
  86   3      
  87   3                case K_UP :
  88   3                  putchar('U');
  89   3                  volume--;
  90   3                  DisplayGotoRC( 2, 0);
  91   3                  cprintf( "Vol : %0bd", volume);
  92   3                  PcaSBeep( NOTE_E3, volume, 100);   // pipnuti
  93   3                  break;
  94   3      
  95   3               case K_DOWN :
  96   3                  putchar('D');
  97   3                  volume++;
  98   3                  DisplayGotoRC( 2, 0);
  99   3                  cprintf( "Vol : %0bd", volume);
 100   3                  PcaSBeep( NOTE_E3, volume, 100);   // pipnuti
 101   3                  break;
 102   3      
 103   3               case K_REDRAW :
 104   3                  DisplayGotoRC( 1, 0);
 105   3                  break;
 106   3      
 107   3               case K_TIMEOUT :
 108   3                  break;
 109   3      
 110   3               default :
 111   3                  break;
 112   3            }//switch
 113   2         }//while
 114   1      } // main
 115          
 116          //-----------------------------------------------------------------------------
 117          // Prepnuti kontextu na "operacni system" viz System.h
 118          //-----------------------------------------------------------------------------
 119          
 120          byte SysYield()
 121          // Prepnuti kontextu na operacni system. Vraci udalost
 122          {
 123   1      static byte timeout = 0;
 124   1      byte Key;
 125   1      
C51 COMPILER V5.50,  MAIN                                                                  26/03/05  13:57:33  PAGE 3   

 126   1         WatchDog();
 127   1         // nejprve casovac periodicke cinnosti :
 128   1         if( timer1s){
 129   2            // uplynula 1s
 130   2            timer1s = 0;              // zrus priznak
 131   2            SetTimer1s();             // novy cyklus
 132   2            timeout++;                // pocitame necinnost
 133   2            return( K_REDRAW);
 134   2         }
 135   1         // testuj necinnost :
 136   1         if( timeout > USER_EVENT_TIMEOUT){
 137   2            timeout = 0;             // zahajime dalsi cekani
 138   2            return( K_TIMEOUT);
 139   2         }
 140   1         Key = KbdGet();
 141   1         if( Key != K_IDLE){
 142   2            timeout=0;     // Konec necinnosti
 143   2            return( Key);
 144   2         }//if
 145   1         return( K_IDLE);             // zadna udalost
 146   1      } // SysYield
 147          
 148          //-----------------------------------------------------------------------------
 149          // Cekani na udalost viz System.h
 150          //-----------------------------------------------------------------------------
 151          
 152          byte SysWaitEvent( void)
 153          // Cekani na udalost
 154          {
 155   1      byte key;
 156   1      
 157   1         while( 1){
 158   2            key = SysYield();
 159   2            if( key != K_IDLE){
 160   3               return( key);      // neprazdna udalost
 161   3            }
 162   2         }
 163   1      } // SysWaitEvent
 164          
 165          //-----------------------------------------------------------------------------
 166          // Prerusovaci rutina casovace 0
 167          //-----------------------------------------------------------------------------
 168          
 169          static void Timer0Handler( void) interrupt INT_TIMER0
 170          // Prerusovaci rutina casovace 0
 171          {
 172   1         SetTimer0( TIMER0_PERIOD);                // s touto periodou
 173   1         // vykonne funkce :
 174   1         CheckTrigger( counter1s, timer1s = 1);    // casovac 1 s
 175   1         PcaTrigger();                             // handler asynchronniho pipani
 176   1      } // Timer0Handler
 177          
 178          //-----------------------------------------------------------------------------
 179          // Zpozdeni
 180          //-----------------------------------------------------------------------------
 181          
 182          void SysDelay(unsigned int n)
 183          {
 184   1      // Uprava pro krystal 18.432MHz
 185   1        unsigned char m;                                                                     // m = R5, n = R6+R
             -7
 186   1                                                                                  // T = 1.085 mikrosec.
 187   1        while(n > 0) {              // DELAY: SETB C/MOV A,R7/SUBB A,#0/MOV A,R6/SUBB A,#0/JC KONEC *7T*
 188   2          WDTRST=0x1E;
 189   2          WDTRST=0xE1;
 190   2          m = 255; do --m; while(m != 0);                                // MOV R5,#255/DJNZ R5,$ *511T*
C51 COMPILER V5.50,  MAIN                                                                  26/03/05  13:57:33  PAGE 4   

 191   2          m = 255; do --m; while(m != 0);                                // MOV R5,#255/DJNZ R5,$ *511T*
 192   2          m = 253; do --m; while(m != 0);                                // MOV R5,#193/DJNZ R5,$ *387T*
 193   2          // Pro X2 mod musim 2x tolik!!
 194   2          m = 255; do --m; while(m != 0);                                // MOV R5,#255/DJNZ R5,$ *511T*
 195   2          m = 255; do --m; while(m != 0);                                // MOV R5,#255/DJNZ R5,$ *511T*
 196   2          m = 253; do --m; while(m != 0);                                // MOV R5,#193/DJNZ R5,$ *387T*
 197   2          --n;                          // MOV A,R7/DEC R7/JNZ ODSKOK/DEC R6/ODSKOK: SJMP DELAY *5T(4T)*
 198   2        }                                                                             // SJMP DELAY *2T*
 199   1      } // SysDelay
 200          
C51 COMPILER V5.50,  MAIN                                                                  26/03/05  13:57:33  PAGE 5   

ASSEMBLY LISTING OF GENERATED OBJECT CODE


             ; FUNCTION main (BEGIN)
                                           ; SOURCE LINE # 32
                                           ; SOURCE LINE # 33
                                           ; SOURCE LINE # 38
0000 E4            CLR     A
0001 F5A2          MOV     AUXR1,A
0003 758FFF        MOV     CKCON0,#0FFH
                                           ; SOURCE LINE # 39
0006 758E3D        MOV     AUXR,#03DH
                                           ; SOURCE LINE # 40
0009 75A707        MOV     WDTPRG,#07H
                                           ; SOURCE LINE # 41
000C 75A61E        MOV     WDTRST,#01EH
000F 75A6E1        MOV     WDTRST,#0E1H
                                           ; SOURCE LINE # 43
0012 D2EB          SETB    TmcSVIT
                                           ; SOURCE LINE # 45
0014 D2AF          SETB    EA
                                           ; SOURCE LINE # 46
0016 5389F0        ANL     TMOD,#0F0H
0019 438901        ORL     TMOD,#01H
001C F58A          MOV     TL0,A
001E 758C88        MOV     TH0,#088H
0021 D2A9          SETB    ET0
0023 D28C          SETB    TR0
                                           ; SOURCE LINE # 50
0025 120000  E     LCALL   DisplayInit
                                           ; SOURCE LINE # 51
0028 120000  E     LCALL   TouchInit
                                           ; SOURCE LINE # 53
002B 120000  E     LCALL   PcaInit
                                           ; SOURCE LINE # 55
002E 75000A  E     MOV     _pca_duration,#0AH
0031 7F99          MOV     R7,#099H
0033 7E08          MOV     R6,#08H
0035 E4            CLR     A
0036 FD            MOV     R5,A
0037 120000  E     LCALL   _PcaSoundRun
                                           ; SOURCE LINE # 56
003A 7FC8          MOV     R7,#0C8H
003C 7E00          MOV     R6,#00H
003E 120000  R     LCALL   _SysDelay
                                           ; SOURCE LINE # 59
;---- Variable 'Enable' assigned to Register 'R7' ----
0041 E4            CLR     A
                                           ; SOURCE LINE # 60
0042 6011          JZ      ?C0001
                                           ; SOURCE LINE # 61
0044 FF            MOV     R7,A
0045 120000  E     LCALL   _PcaCom2Tx
                                           ; SOURCE LINE # 62
0048 120000  E     LCALL   PcaCom2RxEnable
                                           ; SOURCE LINE # 63
004B E4            CLR     A
004C FF            MOV     R7,A
004D 120000  E     LCALL   _PcaCom2Rx
                                           ; SOURCE LINE # 64
0050 E4            CLR     A
0051 FF            MOV     R7,A
0052 120000  E     LCALL   _PcaCom3Tx
                                           ; SOURCE LINE # 65
0055         ?C0001:
                                           ; SOURCE LINE # 67
C51 COMPILER V5.50,  MAIN                                                                  26/03/05  13:57:33  PAGE 6   

0055 7E00    R     MOV     R6,#HIGH ?SC_0
0057 7F00    R     MOV     R7,#LOW ?SC_0
0059 120000  E     LCALL   _cputs
                                           ; SOURCE LINE # 68
005C 7FF4          MOV     R7,#0F4H
005E 7E01          MOV     R6,#01H
0060 120000  R     LCALL   _SysDelay
                                           ; SOURCE LINE # 69
0063 120000  E     LCALL   DisplayClear
                                           ; SOURCE LINE # 70
0066 7E00    R     MOV     R6,#HIGH ?SC_10
0068 7F00    R     MOV     R7,#LOW ?SC_10
006A 120000  E     LCALL   _cputs
                                           ; SOURCE LINE # 72
006D 750032  R     MOV     counter1s,#032H
                                           ; SOURCE LINE # 73
0070 E4            CLR     A
0071 F500    R     MOV     volume,A
0073         ?C0002:
                                           ; SOURCE LINE # 74
                                           ; SOURCE LINE # 75
0073 7F01          MOV     R7,#01H
0075 E4            CLR     A
0076 FD            MOV     R5,A
0077 120000  E     LCALL   _DisplayGotoRC
                                           ; SOURCE LINE # 76
007A 120000  R     LCALL   SysWaitEvent
007D EF            MOV     A,R7
007E 24FD          ADD     A,#0FDH
0080 6057          JZ      ?C0007
0082 14            DEC     A
0083 7003          JNZ     $ + 5H
0085 020000  R     LJMP    ?C0008
0088 24FE          ADD     A,#0FEH
008A 602C          JZ      ?C0006
008C 24FD          ADD     A,#0FDH
008E 7003          JNZ     $ + 5H
0090 020000  R     LJMP    ?C0009
0093 2404          ADD     A,#04H
0095 70DC          JNZ     ?C0002
                                           ; SOURCE LINE # 77
0097         ?C0005:
                                           ; SOURCE LINE # 78
0097 7F45          MOV     R7,#045H
0099 120000  E     LCALL   _putchar
                                           ; SOURCE LINE # 79
009C 7FCE          MOV     R7,#0CEH
009E 7E44          MOV     R6,#044H
00A0 AD00    R     MOV     R5,volume
00A2 120000  E     LCALL   _PcaSoundRun
00A5 7F64          MOV     R7,#064H
00A7 7E00          MOV     R6,#00H
00A9 120000  R     LCALL   _SysDelay
00AC 120000  E     LCALL   PcaNosound
00AF 7F0A          MOV     R7,#0AH
00B1 7E00          MOV     R6,#00H
00B3 120000  R     LCALL   _SysDelay
                                           ; SOURCE LINE # 80
00B6 80BB          SJMP    ?C0002
                                           ; SOURCE LINE # 82
00B8         ?C0006:
                                           ; SOURCE LINE # 83
00B8 7F53          MOV     R7,#053H
00BA 120000  E     LCALL   _putchar
                                           ; SOURCE LINE # 84
00BD 7F99          MOV     R7,#099H
C51 COMPILER V5.50,  MAIN                                                                  26/03/05  13:57:33  PAGE 7   

00BF 7E08          MOV     R6,#08H
00C1 AD00    R     MOV     R5,volume
00C3 120000  E     LCALL   _PcaSoundRun
00C6 7F64          MOV     R7,#064H
00C8 7E00          MOV     R6,#00H
00CA 120000  R     LCALL   _SysDelay
00CD 120000  E     LCALL   PcaNosound
00D0 7F0A          MOV     R7,#0AH
00D2 7E00          MOV     R6,#00H
00D4 120000  R     LCALL   _SysDelay
                                           ; SOURCE LINE # 85
00D7 809A          SJMP    ?C0002
                                           ; SOURCE LINE # 87
00D9         ?C0007:
                                           ; SOURCE LINE # 88
00D9 7F55          MOV     R7,#055H
00DB 120000  E     LCALL   _putchar
                                           ; SOURCE LINE # 89
00DE 1500    R     DEC     volume
                                           ; SOURCE LINE # 90
00E0 7F02          MOV     R7,#02H
00E2 E4            CLR     A
00E3 FD            MOV     R5,A
00E4 120000  E     LCALL   _DisplayGotoRC
                                           ; SOURCE LINE # 91
00E7 7E00    R     MOV     R6,#HIGH ?SC_22
00E9 7F00    R     MOV     R7,#LOW ?SC_22
00EB 850000  E     MOV     ?_cprintf?BYTE+02H,volume
00EE 120000  E     LCALL   _cprintf
                                           ; SOURCE LINE # 92
00F1 7FA6          MOV     R7,#0A6H
00F3 7E0D          MOV     R6,#0DH
00F5 AD00    R     MOV     R5,volume
00F7 120000  E     LCALL   _PcaSoundRun
00FA 7F64          MOV     R7,#064H
00FC 7E00          MOV     R6,#00H
00FE 120000  R     LCALL   _SysDelay
0101 120000  E     LCALL   PcaNosound
0104 7F0A          MOV     R7,#0AH
0106 7E00          MOV     R6,#00H
0108 120000  R     LCALL   _SysDelay
                                           ; SOURCE LINE # 93
010B 020000  R     LJMP    ?C0002
                                           ; SOURCE LINE # 95
010E         ?C0008:
                                           ; SOURCE LINE # 96
010E 7F44          MOV     R7,#044H
0110 120000  E     LCALL   _putchar
                                           ; SOURCE LINE # 97
0113 0500    R     INC     volume
                                           ; SOURCE LINE # 98
0115 7F02          MOV     R7,#02H
0117 E4            CLR     A
0118 FD            MOV     R5,A
0119 120000  E     LCALL   _DisplayGotoRC
                                           ; SOURCE LINE # 99
011C 7E00    R     MOV     R6,#HIGH ?SC_22
011E 7F00    R     MOV     R7,#LOW ?SC_22
0120 850000  E     MOV     ?_cprintf?BYTE+02H,volume
0123 120000  E     LCALL   _cprintf
                                           ; SOURCE LINE # 100
0126 7FA6          MOV     R7,#0A6H
0128 7E0D          MOV     R6,#0DH
012A AD00    R     MOV     R5,volume
012C 120000  E     LCALL   _PcaSoundRun
012F 7F64          MOV     R7,#064H
C51 COMPILER V5.50,  MAIN                                                                  26/03/05  13:57:33  PAGE 8   

0131 7E00          MOV     R6,#00H
0133 120000  R     LCALL   _SysDelay
0136 120000  E     LCALL   PcaNosound
0139 7F0A          MOV     R7,#0AH
013B 7E00          MOV     R6,#00H
013D 120000  R     LCALL   _SysDelay
                                           ; SOURCE LINE # 101
0140 020000  R     LJMP    ?C0002
                                           ; SOURCE LINE # 103
0143         ?C0009:
                                           ; SOURCE LINE # 104
0143 7F01          MOV     R7,#01H
0145 E4            CLR     A
0146 FD            MOV     R5,A
0147 120000  E     LCALL   _DisplayGotoRC
                                           ; SOURCE LINE # 105
014A 020000  R     LJMP    ?C0002
                                           ; SOURCE LINE # 107
                                           ; SOURCE LINE # 108
                                           ; SOURCE LINE # 110
                                           ; SOURCE LINE # 111
                                           ; SOURCE LINE # 112
                                           ; SOURCE LINE # 113
                                           ; SOURCE LINE # 114
014D 22            RET     
             ; FUNCTION main (END)

             ; FUNCTION SysYield (BEGIN)
                                           ; SOURCE LINE # 120
                                           ; SOURCE LINE # 122
                                           ; SOURCE LINE # 123
                                           ; SOURCE LINE # 126
0000 75A61E        MOV     WDTRST,#01EH
0003 75A6E1        MOV     WDTRST,#0E1H
                                           ; SOURCE LINE # 128
0006 30000A  R     JNB     timer1s,?C0013
                                           ; SOURCE LINE # 130
0009 C200    R     CLR     timer1s
                                           ; SOURCE LINE # 131
000B 750032  R     MOV     counter1s,#032H
                                           ; SOURCE LINE # 132
000E 0500    R     INC     timeout
                                           ; SOURCE LINE # 133
0010 7F09          MOV     R7,#09H
0012 22            RET     
                                           ; SOURCE LINE # 134
0013         ?C0013:
                                           ; SOURCE LINE # 136
0013 E500    R     MOV     A,timeout
0015 D3            SETB    C
0016 9414          SUBB    A,#014H
0018 4006          JC      ?C0015
                                           ; SOURCE LINE # 137
001A E4            CLR     A
001B F500    R     MOV     timeout,A
                                           ; SOURCE LINE # 138
001D 7F08          MOV     R7,#08H
001F 22            RET     
                                           ; SOURCE LINE # 139
0020         ?C0015:
                                           ; SOURCE LINE # 140
0020 120000  E     LCALL   KbdGet
;---- Variable 'Key' assigned to Register 'R7' ----
                                           ; SOURCE LINE # 141
0023 EF            MOV     A,R7
0024 F4            CPL     A
C51 COMPILER V5.50,  MAIN                                                                  26/03/05  13:57:33  PAGE 9   

0025 6004          JZ      ?C0016
                                           ; SOURCE LINE # 142
0027 E4            CLR     A
0028 F500    R     MOV     timeout,A
                                           ; SOURCE LINE # 143
002A 22            RET     
                                           ; SOURCE LINE # 144
002B         ?C0016:
                                           ; SOURCE LINE # 145
002B 7FFF          MOV     R7,#0FFH
                                           ; SOURCE LINE # 146
002D         ?C0014:
002D 22            RET     
             ; FUNCTION SysYield (END)

             ; FUNCTION SysWaitEvent (BEGIN)
                                           ; SOURCE LINE # 152
                                           ; SOURCE LINE # 154
0000         ?C0017:
                                           ; SOURCE LINE # 157
                                           ; SOURCE LINE # 158
0000 120000  R     LCALL   SysYield
;---- Variable 'key' assigned to Register 'R7' ----
                                           ; SOURCE LINE # 159
0003 EF            MOV     A,R7
0004 F4            CPL     A
0005 60F9          JZ      ?C0017
                                           ; SOURCE LINE # 160
                                           ; SOURCE LINE # 161
                                           ; SOURCE LINE # 162
                                           ; SOURCE LINE # 163
0007         ?C0020:
0007 22            RET     
             ; FUNCTION SysWaitEvent (END)

             ; FUNCTION Timer0Handler (BEGIN)
0000 C0E0          PUSH    ACC
0002 C0F0          PUSH    B
0004 C083          PUSH    DPH
0006 C082          PUSH    DPL
0008 C0D0          PUSH    PSW
000A 75D000        MOV     PSW,#00H
000D C000          PUSH    AR0
000F C001          PUSH    AR1
0011 C002          PUSH    AR2
0013 C003          PUSH    AR3
0015 C004          PUSH    AR4
0017 C005          PUSH    AR5
0019 C006          PUSH    AR6
001B C007          PUSH    AR7
                                           ; SOURCE LINE # 169
                                           ; SOURCE LINE # 172
001D 758A00        MOV     TL0,#00H
0020 758C88        MOV     TH0,#088H
                                           ; SOURCE LINE # 174
0023 E500    R     MOV     A,counter1s
0025 6005          JZ      ?C0021
0027 D50002  R     DJNZ    counter1s,?C0021
002A D200    R     SETB    timer1s
002C         ?C0021:
                                           ; SOURCE LINE # 175
002C E500    E     MOV     A,_pca_duration
002E 6006          JZ      ?C0025
0030 D50003  E     DJNZ    _pca_duration,?C0025
0033 120000  E     LCALL   PcaNosound
                                           ; SOURCE LINE # 176
C51 COMPILER V5.50,  MAIN                                                                  26/03/05  13:57:33  PAGE 10  

0036         ?C0025:
0036 D007          POP     AR7
0038 D006          POP     AR6
003A D005          POP     AR5
003C D004          POP     AR4
003E D003          POP     AR3
0040 D002          POP     AR2
0042 D001          POP     AR1
0044 D000          POP     AR0
0046 D0D0          POP     PSW
0048 D082          POP     DPL
004A D083          POP     DPH
004C D0F0          POP     B
004E D0E0          POP     ACC
0050 32            RETI    
             ; FUNCTION Timer0Handler (END)

             ; FUNCTION _SysDelay (BEGIN)
;---- Variable 'n' assigned to Register 'R6/R7' ----
                                           ; SOURCE LINE # 182
                                           ; SOURCE LINE # 183
0000         ?C0026:
                                           ; SOURCE LINE # 187
0000 D3            SETB    C
0001 EF            MOV     A,R7
0002 9400          SUBB    A,#00H
0004 EE            MOV     A,R6
0005 9400          SUBB    A,#00H
0007 4025          JC      ?C0046
                                           ; SOURCE LINE # 188
0009 75A61E        MOV     WDTRST,#01EH
                                           ; SOURCE LINE # 189
000C 75A6E1        MOV     WDTRST,#0E1H
                                           ; SOURCE LINE # 190
;---- Variable 'm' assigned to Register 'R5' ----
000F 7DFF          MOV     R5,#0FFH
0011         ?C0030:
0011 DDFE          DJNZ    R5,?C0030
                                           ; SOURCE LINE # 191
0013 7DFF          MOV     R5,#0FFH
0015         ?C0033:
0015 DDFE          DJNZ    R5,?C0033
                                           ; SOURCE LINE # 192
0017 7DFD          MOV     R5,#0FDH
0019         ?C0036:
0019 DDFE          DJNZ    R5,?C0036
                                           ; SOURCE LINE # 194
001B 7DFF          MOV     R5,#0FFH
001D         ?C0039:
001D DDFE          DJNZ    R5,?C0039
                                           ; SOURCE LINE # 195
001F 7DFF          MOV     R5,#0FFH
0021         ?C0042:
0021 DDFE          DJNZ    R5,?C0042
                                           ; SOURCE LINE # 196
0023 7DFD          MOV     R5,#0FDH
0025         ?C0045:
0025 DDFE          DJNZ    R5,?C0045
                                           ; SOURCE LINE # 197
0027 EF            MOV     A,R7
0028 1F            DEC     R7
0029 7001          JNZ     ?C0047
002B 1E            DEC     R6
002C         ?C0047:
                                           ; SOURCE LINE # 198
002C 80D2          SJMP    ?C0026
C51 COMPILER V5.50,  MAIN                                                                  26/03/05  13:57:33  PAGE 11  

                                           ; SOURCE LINE # 199
002E         ?C0046:
002E 22            RET     
             ; FUNCTION _SysDelay (END)



MODULE INFORMATION:   STATIC OVERLAYABLE
   CODE SIZE        =    519    ----
   CONSTANT SIZE    =     33    ----
   XDATA SIZE       =   ----    ----
   PDATA SIZE       =   ----    ----
   DATA SIZE        =      2       1
   IDATA SIZE       =   ----    ----
   BIT SIZE         =      1    ----
END OF MODULE INFORMATION.


C51 COMPILATION COMPLETE.  0 WARNING(S),  0 ERROR(S)
