C51 COMPILER V5.50,  KBD                                                                   28/06/12  15:55:49  PAGE 1   


DOS C51 COMPILER V5.50, COMPILATION OF MODULE KBD
OBJECT MODULE PLACED IN KBD.OBJ
COMPILER INVOKED BY: E:\C51_V5.5\BIN\C51.EXE KBD.C51 CD DB

stmt level    source

   1          //*****************************************************************************
   2          //
   3          //    Kbd.c51   -  Keyboard services
   4          //    Version 1.0  (c) VymOs
   5          //
   6          //*****************************************************************************
   7          
   8          #include "..\inc\Kbd.h"
   9          #include "..\Moduly\Kbd\Kbd.tpl"    // zdrojovy text nezavisly na zapojeni
  10          
  11          //-----------------------------------------------------------------------------
  12          // Cteni
  13          //-----------------------------------------------------------------------------
  14          
  15          static byte ReadKey() {
  16   1        // Vrati kod prave stisknute klavesy
  17   1        // Upravit podle konkretniho zapojeni
  18   1        K0 = K1 = K2 = 1;  // Vse na 1
  19   1      
  20   1      #ifdef BOARD_VERSION_1
              
                // 1. radek nevybuzuju, je uz na GND, ctu rovnou sloupce
                if (!K0) {
                  return K_LEFT;
                }
                if (!K1) {
                  return K_RIGHT;
                }
                if (!K2) {
                  return K_DOWN;
                }
              
                // Vybudim 1. radek
                K1 = 0;
                _nop_();
                // A ctu vsechny sloupce
                if (!K0) {
                  return K_ESC;
                }
                if (!K2) {
                  return K_ENTER;
                }
                K1 = 1;  // Zase dam do H
              
                // Vybudim 2. radek
                K2 = 0;
                _nop_();
                // A ctu vsechny sloupce
                if (!K0) {
                  return K_UP;
                }
              
              #elif BOARD_VERSION_2
  54   1      
  55   1        // 1. radek nevybuzuju, je uz na GND, ctu rovnou sloupce
  56   1        if (!K0) {
  57   2          return K_DOWN;
  58   2        }
  59   1        if (!K1) {
C51 COMPILER V5.50,  KBD                                                                   28/06/12  15:55:49  PAGE 2   

  60   2          return K_ENTER;
  61   2        }
  62   1        if (!K2) {
  63   2          return K_RIGHT;
  64   2        }
  65   1      
  66   1        // Vybudim 2. radek
  67   1        K2 = 0;
  68   1        _nop_();
  69   1        // A ctu vsechny sloupce
  70   1        if (!K0) {
  71   2          return K_LEFT;
  72   2        }
  73   1        if (!K1) {
  74   2          return K_UP;
  75   2        }
  76   1        K2 = 1;  // Zase dam do H
  77   1      
  78   1        // Vybudim 1. radek
  79   1        K1 = 0;
  80   1        _nop_();
  81   1        // A ctu vsechny sloupce
  82   1        if (!K0) {
  83   2          return K_ESC;
  84   2        }
  85   1      
  86   1      #endif // BOARD_VERSION_2
  87   1      
  88   1      
  89   1      
  90   1        // Pokud dosel az sem, nestisknul nic
  91   1        return K_RELEASED;         // nic neni stisknuto
  92   1      } // ReadKey
C51 COMPILER V5.50,  KBD                                                                   28/06/12  15:55:49  PAGE 3   

ASSEMBLY LISTING OF GENERATED OBJECT CODE


             ; FUNCTION KbdInit (BEGIN)
                                           ; SOURCE LINE # 31
                                           ; SOURCE LINE # 33
0000 E4            CLR     A
0001 900000  R     MOV     DPTR,#_kbd_counter
0004 F0            MOVX    @DPTR,A
                                           ; SOURCE LINE # 34
0005 22            RET     
             ; FUNCTION KbdInit (END)

             ; FUNCTION KbdPowerUpKey (BEGIN)
                                           ; SOURCE LINE # 42
                                           ; SOURCE LINE # 44
                                           ; SOURCE LINE # 47
0000 120000  R     LCALL   ReadKey
0003 8F00    R     MOV     key,R7
                                           ; SOURCE LINE # 48
0005 7F0A          MOV     R7,#0AH
0007 7E00          MOV     R6,#00H
0009 120000  E     LCALL   _SysDelay
                                           ; SOURCE LINE # 49
000C 120000  R     LCALL   ReadKey
                                           ; SOURCE LINE # 50
000F         ?C0002:
000F 22            RET     
             ; FUNCTION KbdPowerUpKey (END)

             ; FUNCTION KbdPowerUpRelease (BEGIN)
                                           ; SOURCE LINE # 56
                                           ; SOURCE LINE # 58
0000         ?C0003:
                                           ; SOURCE LINE # 59
0000 120000  R     LCALL   ReadKey
0003 EF            MOV     A,R7
0004 64FE          XRL     A,#0FEH
0006 6008          JZ      ?C0005
                                           ; SOURCE LINE # 60
0008 75A61E        MOV     WDTRST,#01EH
000B 75A6E1        MOV     WDTRST,#0E1H
                                           ; SOURCE LINE # 61
000E 80F0          SJMP    ?C0003
                                           ; SOURCE LINE # 62
0010         ?C0005:
0010 22            RET     
             ; FUNCTION KbdPowerUpRelease (END)

             ; FUNCTION KbdGet (BEGIN)
                                           ; SOURCE LINE # 89
                                           ; SOURCE LINE # 92
                                           ; SOURCE LINE # 95
0000 900000  R     MOV     DPTR,#_kbd_counter
0003 E0            MOVX    A,@DPTR
0004 FF            MOV     R7,A
0005 54C0          ANL     A,#0C0H
0007 6440          XRL     A,#040H
0009 701A          JNZ     ?C0006
                                           ; SOURCE LINE # 97
000B EF            MOV     A,R7
000C 543F          ANL     A,#03FH
000E 6003          JZ      ?C0007
                                           ; SOURCE LINE # 98
0010 7FFF          MOV     R7,#0FFH
0012 22            RET     
C51 COMPILER V5.50,  KBD                                                                   28/06/12  15:55:49  PAGE 4   

                                           ; SOURCE LINE # 99
0013         ?C0007:
                                           ; SOURCE LINE # 101
0013 120000  R     LCALL   ReadKey
0016 8F00    R     MOV     key,R7
                                           ; SOURCE LINE # 102
0018 E500    R     MOV     A,key
001A B4FE0D        CJNE    A,#0FEH,?C0010
                                           ; SOURCE LINE # 104
001D E4            CLR     A
001E 900000  R     MOV     DPTR,#_kbd_counter
0021 F0            MOVX    @DPTR,A
                                           ; SOURCE LINE # 105
0022 7FFF          MOV     R7,#0FFH
0024 22            RET     
                                           ; SOURCE LINE # 106
                                           ; SOURCE LINE # 107
0025         ?C0006:
                                           ; SOURCE LINE # 109
0025 120000  R     LCALL   ReadKey
0028 8F00    R     MOV     key,R7
                                           ; SOURCE LINE # 110
002A         ?C0010:
                                           ; SOURCE LINE # 111
002A E500    R     MOV     A,key
002C B4FE13        CJNE    A,#0FEH,?C0011
                                           ; SOURCE LINE # 113
002F 900000  R     MOV     DPTR,#_kbd_counter
0032 E0            MOVX    A,@DPTR
0033 54C0          ANL     A,#0C0H
0035 7003          JNZ     ?C0012
                                           ; SOURCE LINE # 114
0037 7FFF          MOV     R7,#0FFH
0039 22            RET     
                                           ; SOURCE LINE # 115
003A         ?C0012:
                                           ; SOURCE LINE # 117
003A E4            CLR     A
003B 900000  R     MOV     DPTR,#_kbd_counter
003E F0            MOVX    @DPTR,A
                                           ; SOURCE LINE # 118
003F 7FFE          MOV     R7,#0FEH
0041 22            RET     
                                           ; SOURCE LINE # 119
0042         ?C0011:
                                           ; SOURCE LINE # 120
0042 900000  R     MOV     DPTR,#_kbd_counter
0045 E0            MOVX    A,@DPTR
0046 FE            MOV     R6,A
0047 54C0          ANL     A,#0C0H
0049 24C0          ADD     A,#0C0H
004B 6015          JZ      ?C0015
004D 24C0          ADD     A,#0C0H
004F 601A          JZ      ?C0017
0051 24C0          ADD     A,#0C0H
0053 6016          JZ      ?C0017
0055 24C0          ADD     A,#0C0H
0057 7025          JNZ     ?C0008
                                           ; SOURCE LINE # 121
0059         ?C0014:
                                           ; SOURCE LINE # 122
0059 900000  R     MOV     DPTR,#_kbd_counter
005C 7441          MOV     A,#041H
005E F0            MOVX    @DPTR,A
                                           ; SOURCE LINE # 123
005F 7FFF          MOV     R7,#0FFH
C51 COMPILER V5.50,  KBD                                                                   28/06/12  15:55:49  PAGE 5   

0061 22            RET     
                                           ; SOURCE LINE # 125
0062         ?C0015:
                                           ; SOURCE LINE # 127
0062 900000  R     MOV     DPTR,#_kbd_counter
0065 7499          MOV     A,#099H
0067 F0            MOVX    @DPTR,A
                                           ; SOURCE LINE # 128
0068 AF00    R     MOV     R7,key
006A 22            RET     
                                           ; SOURCE LINE # 130
                                           ; SOURCE LINE # 131
006B         ?C0017:
                                           ; SOURCE LINE # 132
006B EE            MOV     A,R6
006C 543F          ANL     A,#03FH
006E 6003          JZ      ?C0018
                                           ; SOURCE LINE # 133
0070 7FFF          MOV     R7,#0FFH
0072 22            RET     
                                           ; SOURCE LINE # 134
0073         ?C0018:
                                           ; SOURCE LINE # 136
0073 900000  R     MOV     DPTR,#_kbd_counter
0076 74CA          MOV     A,#0CAH
0078 F0            MOVX    @DPTR,A
                                           ; SOURCE LINE # 137
0079 E500    R     MOV     A,key
007B 4480          ORL     A,#080H
007D FF            MOV     R7,A
                                           ; SOURCE LINE # 138
                                           ; SOURCE LINE # 139
007E         ?C0008:
007E 22            RET     
             ; FUNCTION KbdGet (END)

             ; FUNCTION ReadKey (BEGIN)
                                           ; SOURCE LINE # 15
                                           ; SOURCE LINE # 18
0000 D2A0          SETB    BatK2
0002 D2B7          SETB    BatK1
0004 D2B6          SETB    BatK0
                                           ; SOURCE LINE # 56
0006 20B603        JB      BatK0,?C0019
                                           ; SOURCE LINE # 57
0009 7F01          MOV     R7,#01H
000B 22            RET     
                                           ; SOURCE LINE # 58
000C         ?C0019:
                                           ; SOURCE LINE # 59
000C 20B703        JB      BatK1,?C0021
                                           ; SOURCE LINE # 60
000F 7F05          MOV     R7,#05H
0011 22            RET     
                                           ; SOURCE LINE # 61
0012         ?C0021:
                                           ; SOURCE LINE # 62
0012 20A003        JB      BatK2,?C0022
                                           ; SOURCE LINE # 63
0015 7F04          MOV     R7,#04H
0017 22            RET     
                                           ; SOURCE LINE # 64
0018         ?C0022:
                                           ; SOURCE LINE # 67
0018 C2A0          CLR     BatK2
                                           ; SOURCE LINE # 68
C51 COMPILER V5.50,  KBD                                                                   28/06/12  15:55:49  PAGE 6   

001A 00            NOP     
                                           ; SOURCE LINE # 70
001B 20B603        JB      BatK0,?C0023
                                           ; SOURCE LINE # 71
001E 7F03          MOV     R7,#03H
0020 22            RET     
                                           ; SOURCE LINE # 72
0021         ?C0023:
                                           ; SOURCE LINE # 73
0021 20B703        JB      BatK1,?C0024
                                           ; SOURCE LINE # 74
0024 7F02          MOV     R7,#02H
0026 22            RET     
                                           ; SOURCE LINE # 75
0027         ?C0024:
                                           ; SOURCE LINE # 76
0027 D2A0          SETB    BatK2
                                           ; SOURCE LINE # 79
0029 C2B7          CLR     BatK1
                                           ; SOURCE LINE # 80
002B 00            NOP     
                                           ; SOURCE LINE # 82
002C 20B603        JB      BatK0,?C0025
                                           ; SOURCE LINE # 83
002F 7F06          MOV     R7,#06H
0031 22            RET     
                                           ; SOURCE LINE # 84
0032         ?C0025:
                                           ; SOURCE LINE # 91
0032 7FFE          MOV     R7,#0FEH
                                           ; SOURCE LINE # 92
0034         ?C0020:
0034 22            RET     
             ; FUNCTION ReadKey (END)



MODULE INFORMATION:   STATIC OVERLAYABLE
   CODE SIZE        =    219    ----
   CONSTANT SIZE    =   ----    ----
   XDATA SIZE       =      1    ----
   PDATA SIZE       =   ----    ----
   DATA SIZE        =   ----       2
   IDATA SIZE       =   ----    ----
   BIT SIZE         =   ----    ----
END OF MODULE INFORMATION.


C51 COMPILATION COMPLETE.  0 WARNING(S),  0 ERROR(S)
