C51 COMPILER V5.50,  MEGEXE                                                                28/06/12  15:55:51  PAGE 1   


DOS C51 COMPILER V5.50, COMPILATION OF MODULE MEGEXE
OBJECT MODULE PLACED IN MEGEXE.OBJ
COMPILER INVOKED BY: E:\C51_V5.5\BIN\C51.EXE MEGEXE.C51 CD DB

stmt level    source

   1          //*****************************************************************************
   2          //
   3          //    MegExe.c - Megavi execution
   4          //    Version 1.0
   5          //
   6          //*****************************************************************************
   7          
   8          #include "MegExe.h"
   9          #include "Bat2.h"
  10          #include "Flock.h"             // Editovani hejna
  11          #include "Archive.h"           // Archiv udaju
  12          #include "StatCalc.h"          // Vypocet statistiky
  13          #include "GsmCtl.h"            // Buffery GSM
  14          #include "../inc/Gsm.h"        // SMS utility
  15          #include "../Inc/Megavi/Bat2Dat.h"
  16          #include "../Inc/Megavi/MBridge.h"
  17          #include <string.h>
  18          
  19          // Zpozdeni aktualizace dat po startu / restartu :
  20          #define DATA_UPDATE_DELAY (2 * MEGAVI_TIMER)     // aktualizace dat po spusteni [s]
  21          
  22          // Pouzivam restart
  23          #define MEGAVI_RESTART  1
  24          
  25          // GSM v provozu :
  26          #define GsmOk()           (GsmStatus == GSM_READY)
  27          
  28          // set counter value :
  29          #define MegaviCounterSet( s)       ((s) / MEGAVI_TIMER)
  30          
  31          //-----------------------------------------------------------------------------
  32          // Lokalni promenne
  33          //-----------------------------------------------------------------------------
  34          
  35          static TBat2Data xdata Bat2Data;
  36          static byte CounterDataUpdate;
  37          static byte MBridgeOk;
  38          
  39          // ----------------------------------------------------------------------------
  40          // Lokalni funkce
  41          // ----------------------------------------------------------------------------
  42          
  43          static void ConfigurationExecute( void);
  44          // Zasle aktualni konfiguraci
  45          
  46          static void SmsExecute( void);
  47          // Kontroluje pozadavek na vyslani SMS
  48          
  49          static void DataUpdateExecute( void);
  50          // Aktualizuje data v MBridge
  51          
  52          static void CreateStatistics( TGender Gender);
  53          // Sestavi statistiku a vzorky pro dane pohlavi
  54          
  55          static void ConvertStatistics( void);
  56          // Konvertovani statistiky do formatu MBridge
  57          
  58          static void ClearBuffer( void);
  59          // Smazani bufferu
C51 COMPILER V5.50,  MEGEXE                                                                28/06/12  15:55:51  PAGE 2   

  60          
  61          //-----------------------------------------------------------------------------
  62          // Init
  63          //-----------------------------------------------------------------------------
  64          
  65          void MegaviExecuteInit( void)
  66          // Inicializace modulu
  67          {
  68   1         MBridgeInit();
  69   1         MBridgeOk = NO;
  70   1      } // MegaviExecuteInit
  71          
  72          #ifdef MEGAVI_RESTART
  73          //-----------------------------------------------------------------------------
  74          //  Restart
  75          //-----------------------------------------------------------------------------
  76          
  77          void MegaviRestart( void)
  78          // Restart komunikace, zaslani nove konfigurace
  79          {
  80   1         MegaviExecuteInit();               // MBridgeOk == NO restart komunikace
  81   1      } // MegaviRestart
  82          #endif // MEGAVI_RESTART
  83          
  84          //-----------------------------------------------------------------------------
  85          //  Execute
  86          //-----------------------------------------------------------------------------
  87          
  88          void MegaviExecute(void)
  89          // Exekutiva MEGAVI, volat v intervalu MEGAVI_TIMER
  90          {
  91   1         // kontrola vypadku spojeni :
  92   1         if( !MBridgeOk){
  93   2            ConfigurationExecute();          // send configuration after connection failure
  94   2            CounterDataUpdate = MegaviCounterSet( DATA_UPDATE_DELAY);  // zpozdeni prvni aktualizace dat
  95   2            return;                          // MBridgeOk updated by ConfigurationExecute()
  96   2         }
  97   1         // spojeni navazano :
  98   1         MBridgeOk = YES;                    // shazuji jej funkce SmsExecute a DataUpdateExecute
  99   1         SmsExecute();                       // vyzvedne SMS k odeslani
 100   1         if( --CounterDataUpdate == 0){
 101   2            CounterDataUpdate = MegaviCounterSet( MEGAVI_DATA_UPDATE);  // dalsi aktualizace
 102   2            DataUpdateExecute();             // aktualizace dat
 103   2         }
 104   1      } // MegaviExecute
 105          
 106          //-----------------------------------------------------------------------------
 107          //  SMS received
 108          //-----------------------------------------------------------------------------
 109          
 110          TYesNo MegaviSmsReceived( void)
 111          // Odesle SMS zpravu nactenou do GsmBuffer, GsmNumber do MEGAVI
 112          {
 113   1         if( !MBridgeSmsReceived( GsmNumber, GsmBuffer)){
 114   2            MBridgeOk = NO;                  // chyba muze byt zpusobena prebehem SMS, pro jistotu restart
 115   2            return( NO);
 116   2         }
 117   1         return( YES);
 118   1      } // MegaviSmsReceived
 119          
 120          #ifdef MEGAVI_BRIDGE_OK
              //-----------------------------------------------------------------------------
              //  Bridge OK
              //-----------------------------------------------------------------------------
              
              TYesNo MegaviBridgeOk( void)
C51 COMPILER V5.50,  MEGEXE                                                                28/06/12  15:55:51  PAGE 3   

              // Vrati YES, je-li komunikace s Bat2Bridge v poradku
              {
                 return( MBridgeOk);
              } // MegaviBridgeOk
              #endif
 131          
 132          //*****************************************************************************
 133          
 134          //-----------------------------------------------------------------------------
 135          //  Vyslani konfigurace
 136          //-----------------------------------------------------------------------------
 137          
 138          static void ConfigurationExecute( void)
 139          // Zasle aktualni konfiguraci
 140          {
 141   1      TBat2Configuration xdata *Configuration;
 142   1      byte i, j;
 143   1      
 144   1         Configuration = (TBat2Configuration xdata *)GsmBuffer;
 145   1         Configuration.BridgeAddress    = Config.Rs485.Address; // MEGAVI RS485 address
 146   1         Configuration.ReplyTimeout     = MEGAVI_REPLY_TIMEOUT;
 147   1         Configuration.BroadcastTimeout = MEGAVI_BROADCAST_TIMEOUT;
 148   1         Configuration.MegaviTimeout    = MEGAVI_DEVICE_TIMEOUT;
 149   1         Configuration.PhoneBookSize    = Config.Gsm.NumberCount;    // pocet aktivnich cisel
 150   1         memset( Configuration.Phone, 0, BAT2_PHONEBOOK_SIZE * BAT2_SMS_PHONE_NUMBER_SIZE);
 151   1         // Cisla jsou bez zakoncovaci nuly, tj. nelze pouzit strcpy()
 152   1         for (i = 0; i < Config.Gsm.NumberCount; i++) {
 153   2           for (j = 0; j < GSM_NUMBER_MAX_LENGTH; j++) {
 154   3             if (Config.Gsm.Numbers[i][j] == ' ') {
 155   4               break;         // Prvni mezera konci
 156   4             }
 157   3             Configuration.Phone[i][j] = Config.Gsm.Numbers[i][j];
 158   3           }
 159   2         }
 160   1         if( !MBridgeConfigurationSet( Configuration)){
 161   2            MBridgeOk = NO;                  // porucha spojeni s Bat2Bridge
 162   2            return;
 163   2         }
 164   1         MBridgeOk = YES;                    // spojeni navazano
 165   1      } // ConfigurationExecute
 166          
 167          //-----------------------------------------------------------------------------
 168          //  Kontrola SMS
 169          //-----------------------------------------------------------------------------
 170          
 171          static void SmsExecute( void)
 172          // Kontroluje pozadavek na vyslani SMS
 173          {
 174   1      byte SmsCount;
 175   1      byte SendOk;
 176   1      
 177   1         if( !MBridgeSmsCount( &SmsCount)){
 178   2            MBridgeOk = NO;                  // porucha spojeni s Bat2Bridge
 179   2            return;
 180   2         }
 181   1         if( SmsCount == 0){
 182   2            return;                          // zadne SMS k odeslani
 183   2         }
 184   1         // nacti zpravu k odeslani :
 185   1         if( !MBridgeSmsGet( GsmNumber, GsmBuffer)){
 186   2            MBridgeOk = NO;                  // porucha spojeni s Bat2Bridge
 187   2            return;
 188   2         }
 189   1         GsmNumber[ GSM_NUMBER_MAX_LENGTH] = '\0';   // ukonceni cisla maximalni delky
 190   1         GsmBuffer[ SMS_MAX_LENGTH - 1]    = '\0';   // ukonceni zpravy maximalni delky
 191   1         // zjisti stav GSM komunikace :
C51 COMPILER V5.50,  MEGEXE                                                                28/06/12  15:55:51  PAGE 4   

 192   1         SendOk = YES;
 193   1         if( GsmOk()){
 194   2            // odesli SMS :
 195   2            if( !SmsSend( GsmNumber, GsmBuffer, strlen( GsmBuffer))){
 196   3               SendOk = NO;
 197   3            }
 198   2         }  else {
 199   2            // GSM mimo provoz, nelze odeslat :
 200   2            SendOk = NO;
 201   2         }
 202   1         if( !MBridgeSmsStatusSet( SendOk)){
 203   2            MBridgeOk = NO;                  // porucha spojeni s Bat2Bridge
 204   2            return;
 205   2         }
 206   1         // don't set MBridgeOk
 207   1      } // SmsExecute
 208          
 209          //-----------------------------------------------------------------------------
 210          //  Aktualizace dat
 211          //-----------------------------------------------------------------------------
 212          
 213          static void DataUpdateExecute( void)
 214          // Aktualizuje data v MBridge
 215          {
 216   1         CreateStatistics( GENDER_FEMALE);
 217   1         if( !MBridgeFemaleDataSet( &Bat2Data)){
 218   2            MBridgeOk = NO;                  // porucha spojeni s Bat2Bridge
 219   2            return;
 220   2         }
 221   1         CreateStatistics( GENDER_MALE);
 222   1         if( !MBridgeMaleDataSet( &Bat2Data)){
 223   2            MBridgeOk = NO;                  // porucha spojeni s Bat2Bridge
 224   2            return;
 225   2         }
 226   1         // don't set MBridgeOk
 227   1      } // DataUpdateExecute
 228          
 229          //-----------------------------------------------------------------------------
 230          //  Vytvoreni statistiky v bufferu
 231          //-----------------------------------------------------------------------------
 232          
 233          static void CreateStatistics( TGender Gender)
 234          // Sestavi statistiku a vzorky pro dane pohlavi
 235          {
 236   1      TFifoIndex          Index;
 237   1      byte                LoggerGender;
 238   1      TLoggerSample xdata Sample;
 239   1      byte                WeightCount = 0;
 240   1      
 241   1        // Default smazu buffer
 242   1        ClearBuffer();
 243   1      
 244   1        // Pokud se nevazi, vratim prazdny buffer
 245   1        if( !FlockWeighingRunning()) {
 246   2          return;
 247   2        }
 248   1      
 249   1        // Pokud chce statistiku samcu apokud nevazi obe pohlavi, poslu mu miusto toho statistiku samic (domluve
             -no s Maximem)
 250   1        if( Gender == GENDER_MALE && !Weighing.Header.UseBothGenders) {
 251   2          Gender = GENDER_FEMALE;
 252   2        }
 253   1      
 254   1        // Vypoctu statistiku
 255   1        StatCalculate( &Archive, Gender);
 256   1      
C51 COMPILER V5.50,  MEGEXE                                                                28/06/12  15:55:51  PAGE 5   

 257   1        // Konveruju statistiku na buffer pro Megavi
 258   1        ConvertStatistics();
 259   1      
 260   1        // Vytvorim buffer poslednich hmotnosti
 261   1      
 262   1        // Pripravim si pohlavi tak, abych mohl rovnou porovnavat spravny bit v zaznamu
 263   1        LoggerGender = Gender == GENDER_MALE ? LG_SAMPLE_GENDER : 0;
 264   1        Index = FifoLast( &SamplesFifo);
 265   1        while( Index != FIFO_INVALID_INDEX) {
 266   2          FifoRead( &SamplesFifo, Index, &Sample);
 267   2          if( (Sample.Flag & LG_SAMPLE_VALUE) && ((Sample.Flag & LG_SAMPLE_GENDER) == LoggerGender)) {
 268   3            // Jde o zaznam hmotnosti se zadanym pohlavim
 269   3            Bat2Data.Weight[ WeightCount] = LoggerGetWeight( &Sample);
 270   3            WeightCount++;
 271   3            if( WeightCount >= BAT2_WEIGHT_COUNT) {
 272   4              break;          // Buffer je plny, vic hmotnosti nectu
 273   4            }
 274   3          }
 275   2          Index = FifoPrevious( &SamplesFifo, Index);
 276   2          WatchDog();
 277   2        }
 278   1      } // CreateStatistics
 279          
 280          //-----------------------------------------------------------------------------
 281          //  Konverze vypoctene statistiky do struktury pro Megavi
 282          //-----------------------------------------------------------------------------
 283          
 284          static void ConvertStatistics( void)
 285          // Konvertovani statistiky do formatu MBridge
 286          {
 287   1        Bat2Data.Statistics.Target      = StatCalcResult.TargetWeight;
 288   1        Bat2Data.Statistics.Count       = StatCalcResult.Count;
 289   1        Bat2Data.Statistics.Average     = StatCalcResult.Average;
 290   1        Bat2Data.Statistics.LastAverage = StatCalcResult.LastAverage;
 291   1        Bat2Data.Statistics.Gain        = StatCalcResult.Gain;
 292   1        Bat2Data.Statistics.Sigma       = StatCalcResult.Sigma;
 293   1        Bat2Data.Statistics.Uniformity  = 10 * (word)StatCalcResult.Uniformity;        // Uniformita na desetiny
             - procenta
 294   1      } // ConvertStatistics
 295          
 296          //-----------------------------------------------------------------------------
 297          //  Smazani bufferu
 298          //-----------------------------------------------------------------------------
 299          
 300          static void ClearBuffer()
 301          // Smazani bufferu
 302          {
 303   1      byte Size;
 304   1      byte xdata *p;
 305   1      
 306   1         p    = (byte xdata *)&Bat2Data;
 307   1         Size = sizeof( TBat2Data);
 308   1         do {
 309   2            *p = 0;
 310   2            p++;
 311   2         } while( --Size);
 312   1      } // ClearBuffer
C51 COMPILER V5.50,  MEGEXE                                                                28/06/12  15:55:51  PAGE 6   

ASSEMBLY LISTING OF GENERATED OBJECT CODE


             ; FUNCTION MegaviExecuteInit (BEGIN)
                                           ; SOURCE LINE # 65
                                           ; SOURCE LINE # 67
                                           ; SOURCE LINE # 68
0000 120000  E     LCALL   MBridgeInit
                                           ; SOURCE LINE # 69
0003 E4            CLR     A
0004 F500    R     MOV     MBridgeOk,A
                                           ; SOURCE LINE # 70
0006 22            RET     
             ; FUNCTION MegaviExecuteInit (END)

             ; FUNCTION MegaviRestart (BEGIN)
                                           ; SOURCE LINE # 77
                                           ; SOURCE LINE # 79
                                           ; SOURCE LINE # 80
0000 120000  R     LCALL   MegaviExecuteInit
                                           ; SOURCE LINE # 81
0003 22            RET     
             ; FUNCTION MegaviRestart (END)

             ; FUNCTION MegaviExecute (BEGIN)
                                           ; SOURCE LINE # 88
                                           ; SOURCE LINE # 90
                                           ; SOURCE LINE # 92
0000 E500    R     MOV     A,MBridgeOk
0002 7007          JNZ     ?C0003
                                           ; SOURCE LINE # 93
0004 120000  R     LCALL   ConfigurationExecute
                                           ; SOURCE LINE # 94
0007 750002  R     MOV     CounterDataUpdate,#02H
000A 22            RET     
                                           ; SOURCE LINE # 96
000B         ?C0003:
                                           ; SOURCE LINE # 98
000B 750001  R     MOV     MBridgeOk,#01H
                                           ; SOURCE LINE # 99
000E 120000  R     LCALL   SmsExecute
                                           ; SOURCE LINE # 100
0011 D50006  R     DJNZ    CounterDataUpdate,?C0004
                                           ; SOURCE LINE # 101
0014 750006  R     MOV     CounterDataUpdate,#06H
                                           ; SOURCE LINE # 102
0017 120000  R     LCALL   DataUpdateExecute
                                           ; SOURCE LINE # 103
                                           ; SOURCE LINE # 104
001A         ?C0004:
001A 22            RET     
             ; FUNCTION MegaviExecute (END)

             ; FUNCTION MegaviSmsReceived (BEGIN)
                                           ; SOURCE LINE # 110
                                           ; SOURCE LINE # 112
                                           ; SOURCE LINE # 113
0000 7E00    E     MOV     R6,#HIGH GsmNumber
0002 7F00    E     MOV     R7,#LOW GsmNumber
0004 7C00    E     MOV     R4,#HIGH GsmBuffer
0006 7D00    E     MOV     R5,#LOW GsmBuffer
0008 120000  E     LCALL   _MBridgeSmsReceived
000B 4005          JC      ?C0006
                                           ; SOURCE LINE # 114
000D E4            CLR     A
000E F500    R     MOV     MBridgeOk,A
C51 COMPILER V5.50,  MEGEXE                                                                28/06/12  15:55:51  PAGE 7   

                                           ; SOURCE LINE # 115
0010 C3            CLR     C
0011 22            RET     
                                           ; SOURCE LINE # 116
0012         ?C0006:
                                           ; SOURCE LINE # 117
0012 D3            SETB    C
                                           ; SOURCE LINE # 118
0013         ?C0007:
0013 22            RET     
             ; FUNCTION MegaviSmsReceived (END)

             ; FUNCTION ConfigurationExecute (BEGIN)
                                           ; SOURCE LINE # 138
                                           ; SOURCE LINE # 140
                                           ; SOURCE LINE # 144
0000 750000  E     MOV     Configuration,#HIGH GsmBuffer
0003 750000  E     MOV     Configuration+01H,#LOW GsmBuffer
                                           ; SOURCE LINE # 145
0006 900000  E     MOV     DPTR,#Config+085H
0009 E0            MOVX    A,@DPTR
000A 850082  R     MOV     DPL,Configuration+01H
000D 850083  R     MOV     DPH,Configuration
0010 F0            MOVX    @DPTR,A
                                           ; SOURCE LINE # 146
0011 A3            INC     DPTR
0012 7405          MOV     A,#05H
0014 F0            MOVX    @DPTR,A
                                           ; SOURCE LINE # 147
0015 850082  R     MOV     DPL,Configuration+01H
0018 850083  R     MOV     DPH,Configuration
001B A3            INC     DPTR
001C A3            INC     DPTR
001D 741E          MOV     A,#01EH
001F F0            MOVX    @DPTR,A
                                           ; SOURCE LINE # 148
0020 850082  R     MOV     DPL,Configuration+01H
0023 850083  R     MOV     DPH,Configuration
0026 A3            INC     DPTR
0027 A3            INC     DPTR
0028 A3            INC     DPTR
0029 743C          MOV     A,#03CH
002B F0            MOVX    @DPTR,A
                                           ; SOURCE LINE # 149
002C 900000  E     MOV     DPTR,#Config+038H
002F E0            MOVX    A,@DPTR
0030 FF            MOV     R7,A
0031 E500    R     MOV     A,Configuration+01H
0033 2404          ADD     A,#04H
0035 F582          MOV     DPL,A
0037 E4            CLR     A
0038 3500    R     ADDC    A,Configuration
003A F583          MOV     DPH,A
003C EF            MOV     A,R7
003D F0            MOVX    @DPTR,A
                                           ; SOURCE LINE # 150
003E 7E00          MOV     R6,#00H
0040 7F4B          MOV     R7,#04BH
0042 7D00          MOV     R5,#00H
0044 E500    R     MOV     A,Configuration+01H
0046 2405          ADD     A,#05H
0048 FB            MOV     R3,A
0049 E4            CLR     A
004A 3500    R     ADDC    A,Configuration
004C FA            MOV     R2,A
004D A903          MOV     R1,AR3
C51 COMPILER V5.50,  MEGEXE                                                                28/06/12  15:55:51  PAGE 8   

004F 7B01          MOV     R3,#01H
0051 120000  E     LCALL   ?C?MEMSET
                                           ; SOURCE LINE # 152
;---- Variable 'i' assigned to Register 'R7' ----
0054 E4            CLR     A
0055 FF            MOV     R7,A
0056         ?C0008:
0056 900000  E     MOV     DPTR,#Config+038H
0059 E0            MOVX    A,@DPTR
005A FE            MOV     R6,A
005B EF            MOV     A,R7
005C C3            CLR     C
005D 9E            SUBB    A,R6
005E 5045          JNC     ?C0009
                                           ; SOURCE LINE # 153
;---- Variable 'j' assigned to Register 'R6' ----
0060 E4            CLR     A
0061 FE            MOV     R6,A
0062         ?C0011:
                                           ; SOURCE LINE # 154
0062 EF            MOV     A,R7
0063 75F00F        MOV     B,#0FH
0066 A4            MUL     AB
0067 2400    E     ADD     A,#LOW Config+039H
0069 F582          MOV     DPL,A
006B E4            CLR     A
006C 3400    E     ADDC    A,#HIGH Config+039H
006E F583          MOV     DPH,A
0070 E582          MOV     A,DPL
0072 2E            ADD     A,R6
0073 F582          MOV     DPL,A
0075 E4            CLR     A
0076 3583          ADDC    A,DPH
0078 F583          MOV     DPH,A
007A E0            MOVX    A,@DPTR
007B FD            MOV     R5,A
007C 6420          XRL     A,#020H
007E 6022          JZ      ?C0010
                                           ; SOURCE LINE # 155
                                           ; SOURCE LINE # 156
0080         ?C0014:
                                           ; SOURCE LINE # 157
0080 E500    R     MOV     A,Configuration+01H
0082 2405          ADD     A,#05H
0084 F582          MOV     DPL,A
0086 E4            CLR     A
0087 3500    R     ADDC    A,Configuration
0089 F583          MOV     DPH,A
008B 75F00F        MOV     B,#0FH
008E EF            MOV     A,R7
008F 120000  E     LCALL   ?C?OFFXADD
0092 E582          MOV     A,DPL
0094 2E            ADD     A,R6
0095 F582          MOV     DPL,A
0097 E4            CLR     A
0098 3583          ADDC    A,DPH
009A F583          MOV     DPH,A
009C ED            MOV     A,R5
009D F0            MOVX    @DPTR,A
                                           ; SOURCE LINE # 158
009E 0E            INC     R6
009F BE0FC0        CJNE    R6,#0FH,?C0011
                                           ; SOURCE LINE # 159
00A2         ?C0010:
00A2 0F            INC     R7
00A3 80B1          SJMP    ?C0008
C51 COMPILER V5.50,  MEGEXE                                                                28/06/12  15:55:51  PAGE 9   

00A5         ?C0009:
                                           ; SOURCE LINE # 160
00A5 AF00    R     MOV     R7,Configuration+01H
00A7 AE00    R     MOV     R6,Configuration
00A9 120000  E     LCALL   _MBridgeConfigurationSet
00AC 4004          JC      ?C0015
                                           ; SOURCE LINE # 161
00AE E4            CLR     A
00AF F500    R     MOV     MBridgeOk,A
00B1 22            RET     
                                           ; SOURCE LINE # 163
00B2         ?C0015:
                                           ; SOURCE LINE # 164
00B2 750001  R     MOV     MBridgeOk,#01H
                                           ; SOURCE LINE # 165
00B5         ?C0016:
00B5 22            RET     
             ; FUNCTION ConfigurationExecute (END)

             ; FUNCTION SmsExecute (BEGIN)
                                           ; SOURCE LINE # 171
                                           ; SOURCE LINE # 173
                                           ; SOURCE LINE # 177
0000 7F00    R     MOV     R7,#LOW SmsCount
0002 120000  E     LCALL   _MBridgeSmsCount
0005 4004          JC      ?C0017
                                           ; SOURCE LINE # 178
0007 E4            CLR     A
0008 F500    R     MOV     MBridgeOk,A
000A 22            RET     
                                           ; SOURCE LINE # 180
000B         ?C0017:
                                           ; SOURCE LINE # 181
000B E500    R     MOV     A,SmsCount
000D 6051          JZ      ?C0018
                                           ; SOURCE LINE # 183
000F         ?C0019:
                                           ; SOURCE LINE # 185
000F 7E00    E     MOV     R6,#HIGH GsmNumber
0011 7F00    E     MOV     R7,#LOW GsmNumber
0013 7C00    E     MOV     R4,#HIGH GsmBuffer
0015 7D00    E     MOV     R5,#LOW GsmBuffer
0017 120000  E     LCALL   _MBridgeSmsGet
001A 4004          JC      ?C0020
                                           ; SOURCE LINE # 186
001C E4            CLR     A
001D F500    R     MOV     MBridgeOk,A
001F 22            RET     
                                           ; SOURCE LINE # 188
0020         ?C0020:
                                           ; SOURCE LINE # 189
0020 E4            CLR     A
0021 900000  E     MOV     DPTR,#GsmNumber+0FH
0024 F0            MOVX    @DPTR,A
                                           ; SOURCE LINE # 190
0025 900000  E     MOV     DPTR,#GsmBuffer+0A0H
0028 F0            MOVX    @DPTR,A
                                           ; SOURCE LINE # 192
0029 750001  R     MOV     SendOk,#01H
                                           ; SOURCE LINE # 193
002C 900000  E     MOV     DPTR,#GsmStatus
002F E0            MOVX    A,@DPTR
0030 6406          XRL     A,#06H
0032 701F          JNZ     ?C0021
                                           ; SOURCE LINE # 195
0034 7B01          MOV     R3,#01H
C51 COMPILER V5.50,  MEGEXE                                                                28/06/12  15:55:51  PAGE 10  

0036 7A00    E     MOV     R2,#HIGH GsmBuffer
0038 7900    E     MOV     R1,#LOW GsmBuffer
003A 120000  E     LCALL   _strlen
003D 8F00    E     MOV     ?_SmsSend?BYTE+05H,R7
003F 7E00    E     MOV     R6,#HIGH GsmNumber
0041 7F00    E     MOV     R7,#LOW GsmNumber
0043 7B01          MOV     R3,#01H
0045 7A00    E     MOV     R2,#HIGH GsmBuffer
0047 7900    E     MOV     R1,#LOW GsmBuffer
0049 120000  E     LCALL   _SmsSend
004C 4008          JC      ?C0023
                                           ; SOURCE LINE # 196
004E E4            CLR     A
004F F500    R     MOV     SendOk,A
                                           ; SOURCE LINE # 197
                                           ; SOURCE LINE # 198
0051 8003          SJMP    ?C0023
0053         ?C0021:
                                           ; SOURCE LINE # 200
0053 E4            CLR     A
0054 F500    R     MOV     SendOk,A
                                           ; SOURCE LINE # 201
0056         ?C0023:
                                           ; SOURCE LINE # 202
0056 AF00    R     MOV     R7,SendOk
0058 120000  E     LCALL   _MBridgeSmsStatusSet
005B 4003          JC      ?C0018
                                           ; SOURCE LINE # 203
005D E4            CLR     A
005E F500    R     MOV     MBridgeOk,A
                                           ; SOURCE LINE # 205
                                           ; SOURCE LINE # 207
0060         ?C0018:
0060 22            RET     
             ; FUNCTION SmsExecute (END)

             ; FUNCTION DataUpdateExecute (BEGIN)
                                           ; SOURCE LINE # 213
                                           ; SOURCE LINE # 215
                                           ; SOURCE LINE # 216
0000 E4            CLR     A
0001 FF            MOV     R7,A
0002 120000  R     LCALL   _CreateStatistics
                                           ; SOURCE LINE # 217
0005 7E00    R     MOV     R6,#HIGH Bat2Data
0007 7F00    R     MOV     R7,#LOW Bat2Data
0009 120000  E     LCALL   _MBridgeFemaleDataSet
000C 4004          JC      ?C0025
                                           ; SOURCE LINE # 218
000E E4            CLR     A
000F F500    R     MOV     MBridgeOk,A
0011 22            RET     
                                           ; SOURCE LINE # 220
0012         ?C0025:
                                           ; SOURCE LINE # 221
0012 7F01          MOV     R7,#01H
0014 120000  R     LCALL   _CreateStatistics
                                           ; SOURCE LINE # 222
0017 7E00    R     MOV     R6,#HIGH Bat2Data
0019 7F00    R     MOV     R7,#LOW Bat2Data
001B 120000  E     LCALL   _MBridgeMaleDataSet
001E 4003          JC      ?C0026
                                           ; SOURCE LINE # 223
0020 E4            CLR     A
0021 F500    R     MOV     MBridgeOk,A
                                           ; SOURCE LINE # 225
C51 COMPILER V5.50,  MEGEXE                                                                28/06/12  15:55:51  PAGE 11  

                                           ; SOURCE LINE # 227
0023         ?C0026:
0023 22            RET     
             ; FUNCTION DataUpdateExecute (END)

             ; FUNCTION _CreateStatistics (BEGIN)
0000 8F00    R     MOV     Gender,R7
                                           ; SOURCE LINE # 233
                                           ; SOURCE LINE # 235
                                           ; SOURCE LINE # 239
0002 E4            CLR     A
0003 F500    R     MOV     WeightCount,A
                                           ; SOURCE LINE # 242
0005 120000  R     LCALL   ClearBuffer
                                           ; SOURCE LINE # 245
0008 900000  E     MOV     DPTR,#Config+01BH
000B E0            MOVX    A,@DPTR
000C 7003          JNZ     $ + 5H
000E 020000  R     LJMP    ?C0029
                                           ; SOURCE LINE # 247
0011         ?C0028:
                                           ; SOURCE LINE # 250
0011 E500    R     MOV     A,Gender
0013 B40108        CJNE    A,#01H,?C0030
0016 900000  E     MOV     DPTR,#Weighing+0AH
0019 E0            MOVX    A,@DPTR
001A 7002          JNZ     ?C0030
                                           ; SOURCE LINE # 251
001C F500    R     MOV     Gender,A
                                           ; SOURCE LINE # 252
001E         ?C0030:
                                           ; SOURCE LINE # 255
001E 7E00    E     MOV     R6,#HIGH Archive
0020 7F00    E     MOV     R7,#LOW Archive
0022 AD00    R     MOV     R5,Gender
0024 120000  E     LCALL   _StatCalculate
                                           ; SOURCE LINE # 258
0027 120000  R     LCALL   ConvertStatistics
                                           ; SOURCE LINE # 263
002A E500    R     MOV     A,Gender
002C B40104        CJNE    A,#01H,?C0031
002F 7F10          MOV     R7,#010H
0031 8002          SJMP    ?C0032
0033         ?C0031:
0033 7F00          MOV     R7,#00H
0035         ?C0032:
0035 8F00    R     MOV     LoggerGender,R7
                                           ; SOURCE LINE # 264
0037 7E00    E     MOV     R6,#HIGH SamplesFifo
0039 7F00    E     MOV     R7,#LOW SamplesFifo
003B 120000  E     LCALL   _FifoLast
003E 8F00    R     MOV     Index+03H,R7
0040 8E00    R     MOV     Index+02H,R6
0042 8D00    R     MOV     Index+01H,R5
0044 8C00    R     MOV     Index,R4
0046         ?C0033:
                                           ; SOURCE LINE # 265
0046 7FFF          MOV     R7,#0FFH
0048 7EFF          MOV     R6,#0FFH
004A 7DFF          MOV     R5,#0FFH
004C 7CFF          MOV     R4,#0FFH
004E AB00    R     MOV     R3,Index+03H
0050 AA00    R     MOV     R2,Index+02H
0052 A900    R     MOV     R1,Index+01H
0054 A800    R     MOV     R0,Index
0056 C3            CLR     C
C51 COMPILER V5.50,  MEGEXE                                                                28/06/12  15:55:51  PAGE 12  

0057 120000  E     LCALL   ?C?ULCMP
005A 7003          JNZ     $ + 5H
005C 020000  R     LJMP    ?C0029
                                           ; SOURCE LINE # 266
005F 7E00    E     MOV     R6,#HIGH SamplesFifo
0061 7F00    E     MOV     R7,#LOW SamplesFifo
0063 C006          PUSH    AR6
0065 850000  E     MOV     ?_FifoReadFragment?BYTE+05H,Index+03H
0068 850000  E     MOV     ?_FifoReadFragment?BYTE+04H,Index+02H
006B 850000  E     MOV     ?_FifoReadFragment?BYTE+03H,Index+01H
006E 850000  E     MOV     ?_FifoReadFragment?BYTE+02H,Index
0071 750000  R     MOV     ?_FifoReadFragment?BYTE+06H,#HIGH Sample
0074 750000  R     MOV     ?_FifoReadFragment?BYTE+07H,#LOW Sample
0077 E4            CLR     A
0078 F500    E     MOV     ?_FifoReadFragment?BYTE+08H,A
007A F500    E     MOV     ?_FifoReadFragment?BYTE+09H,A
007C 900000  E     MOV     DPTR,#SamplesFifo+08H
007F E0            MOVX    A,@DPTR
0080 FE            MOV     R6,A
0081 A3            INC     DPTR
0082 E0            MOVX    A,@DPTR
0083 8E00    E     MOV     ?_FifoReadFragment?BYTE+0AH,R6
0085 F500    E     MOV     ?_FifoReadFragment?BYTE+0BH,A
0087 D006          POP     AR6
0089 120000  E     LCALL   _FifoReadFragment
                                           ; SOURCE LINE # 267
008C 900000  R     MOV     DPTR,#Sample
008F E0            MOVX    A,@DPTR
0090 FF            MOV     R7,A
0091 30E527        JNB     ACC.5,?C0035
0094 5410          ANL     A,#010H
0096 B50022  R     CJNE    A,LoggerGender,?C0035
                                           ; SOURCE LINE # 269
0099 7E00    R     MOV     R6,#HIGH Sample
009B 7F00    R     MOV     R7,#LOW Sample
009D 120000  E     LCALL   _LoggerGetWeight
00A0 E500    R     MOV     A,WeightCount
00A2 25E0          ADD     A,ACC
00A4 2400    R     ADD     A,#LOW Bat2Data+010H
00A6 F582          MOV     DPL,A
00A8 E4            CLR     A
00A9 3400    R     ADDC    A,#HIGH Bat2Data+010H
00AB F583          MOV     DPH,A
00AD EE            MOV     A,R6
00AE F0            MOVX    @DPTR,A
00AF A3            INC     DPTR
00B0 EF            MOV     A,R7
00B1 F0            MOVX    @DPTR,A
                                           ; SOURCE LINE # 270
00B2 0500    R     INC     WeightCount
                                           ; SOURCE LINE # 271
00B4 E500    R     MOV     A,WeightCount
00B6 C3            CLR     C
00B7 9432          SUBB    A,#032H
00B9 5024          JNC     ?C0029
                                           ; SOURCE LINE # 272
                                           ; SOURCE LINE # 273
                                           ; SOURCE LINE # 274
00BB         ?C0035:
                                           ; SOURCE LINE # 275
00BB 7E00    E     MOV     R6,#HIGH SamplesFifo
00BD 7F00    E     MOV     R7,#LOW SamplesFifo
00BF 850000  E     MOV     ?_FifoPrevious?BYTE+05H,Index+03H
00C2 850000  E     MOV     ?_FifoPrevious?BYTE+04H,Index+02H
00C5 850000  E     MOV     ?_FifoPrevious?BYTE+03H,Index+01H
00C8 850000  E     MOV     ?_FifoPrevious?BYTE+02H,Index
C51 COMPILER V5.50,  MEGEXE                                                                28/06/12  15:55:51  PAGE 13  

00CB 120000  E     LCALL   _FifoPrevious
00CE 8F00    R     MOV     Index+03H,R7
00D0 8E00    R     MOV     Index+02H,R6
00D2 8D00    R     MOV     Index+01H,R5
00D4 8C00    R     MOV     Index,R4
                                           ; SOURCE LINE # 276
00D6 75A61E        MOV     WDTRST,#01EH
00D9 75A6E1        MOV     WDTRST,#0E1H
                                           ; SOURCE LINE # 277
00DC 020000  R     LJMP    ?C0033
                                           ; SOURCE LINE # 278
00DF         ?C0029:
00DF 22            RET     
             ; FUNCTION _CreateStatistics (END)

             ; FUNCTION ConvertStatistics (BEGIN)
                                           ; SOURCE LINE # 284
                                           ; SOURCE LINE # 286
                                           ; SOURCE LINE # 287
0000 900000  E     MOV     DPTR,#StatCalcResult
0003 E0            MOVX    A,@DPTR
0004 FF            MOV     R7,A
0005 A3            INC     DPTR
0006 E0            MOVX    A,@DPTR
0007 900000  R     MOV     DPTR,#Bat2Data
000A CF            XCH     A,R7
000B F0            MOVX    @DPTR,A
000C A3            INC     DPTR
000D EF            MOV     A,R7
000E F0            MOVX    @DPTR,A
                                           ; SOURCE LINE # 288
000F 900000  E     MOV     DPTR,#StatCalcResult+02H
0012 E0            MOVX    A,@DPTR
0013 FF            MOV     R7,A
0014 A3            INC     DPTR
0015 E0            MOVX    A,@DPTR
0016 900000  R     MOV     DPTR,#Bat2Data+02H
0019 CF            XCH     A,R7
001A F0            MOVX    @DPTR,A
001B A3            INC     DPTR
001C EF            MOV     A,R7
001D F0            MOVX    @DPTR,A
                                           ; SOURCE LINE # 289
001E 900000  E     MOV     DPTR,#StatCalcResult+04H
0021 E0            MOVX    A,@DPTR
0022 FF            MOV     R7,A
0023 A3            INC     DPTR
0024 E0            MOVX    A,@DPTR
0025 900000  R     MOV     DPTR,#Bat2Data+04H
0028 CF            XCH     A,R7
0029 F0            MOVX    @DPTR,A
002A A3            INC     DPTR
002B EF            MOV     A,R7
002C F0            MOVX    @DPTR,A
                                           ; SOURCE LINE # 290
002D 900000  E     MOV     DPTR,#StatCalcResult+06H
0030 E0            MOVX    A,@DPTR
0031 FF            MOV     R7,A
0032 A3            INC     DPTR
0033 E0            MOVX    A,@DPTR
0034 900000  R     MOV     DPTR,#Bat2Data+0EH
0037 CF            XCH     A,R7
0038 F0            MOVX    @DPTR,A
0039 A3            INC     DPTR
003A EF            MOV     A,R7
003B F0            MOVX    @DPTR,A
C51 COMPILER V5.50,  MEGEXE                                                                28/06/12  15:55:51  PAGE 14  

                                           ; SOURCE LINE # 291
003C 900000  E     MOV     DPTR,#StatCalcResult+08H
003F E0            MOVX    A,@DPTR
0040 FC            MOV     R4,A
0041 A3            INC     DPTR
0042 E0            MOVX    A,@DPTR
0043 FD            MOV     R5,A
0044 A3            INC     DPTR
0045 E0            MOVX    A,@DPTR
0046 FE            MOV     R6,A
0047 A3            INC     DPTR
0048 E0            MOVX    A,@DPTR
0049 FF            MOV     R7,A
004A 900000  R     MOV     DPTR,#Bat2Data+06H
004D 120000  E     LCALL   ?C?LSTXDATA
                                           ; SOURCE LINE # 292
0050 900000  E     MOV     DPTR,#StatCalcResult+0CH
0053 E0            MOVX    A,@DPTR
0054 FF            MOV     R7,A
0055 A3            INC     DPTR
0056 E0            MOVX    A,@DPTR
0057 900000  R     MOV     DPTR,#Bat2Data+0AH
005A CF            XCH     A,R7
005B F0            MOVX    @DPTR,A
005C A3            INC     DPTR
005D EF            MOV     A,R7
005E F0            MOVX    @DPTR,A
                                           ; SOURCE LINE # 293
005F 900000  E     MOV     DPTR,#StatCalcResult+010H
0062 E0            MOVX    A,@DPTR
0063 FF            MOV     R7,A
0064 7E00          MOV     R6,#00H
0066 7C00          MOV     R4,#00H
0068 7D0A          MOV     R5,#0AH
006A 120000  E     LCALL   ?C?IMUL
006D 900000  R     MOV     DPTR,#Bat2Data+0CH
0070 EE            MOV     A,R6
0071 F0            MOVX    @DPTR,A
0072 A3            INC     DPTR
0073 EF            MOV     A,R7
0074 F0            MOVX    @DPTR,A
                                           ; SOURCE LINE # 294
0075 22            RET     
             ; FUNCTION ConvertStatistics (END)

             ; FUNCTION ClearBuffer (BEGIN)
                                           ; SOURCE LINE # 300
                                           ; SOURCE LINE # 302
                                           ; SOURCE LINE # 306
0000 7E00    R     MOV     R6,#HIGH Bat2Data
0002 7F00    R     MOV     R7,#LOW Bat2Data
;---- Variable 'p' assigned to Register 'R6/R7' ----
                                           ; SOURCE LINE # 307
;---- Variable 'Size' assigned to Register 'R5' ----
0004 7D74          MOV     R5,#074H
0006         ?C0040:
                                           ; SOURCE LINE # 308
                                           ; SOURCE LINE # 309
0006 8F82          MOV     DPL,R7
0008 8E83          MOV     DPH,R6
000A E4            CLR     A
000B F0            MOVX    @DPTR,A
                                           ; SOURCE LINE # 310
000C 0F            INC     R7
000D BF0001        CJNE    R7,#00H,?C0042
0010 0E            INC     R6
C51 COMPILER V5.50,  MEGEXE                                                                28/06/12  15:55:51  PAGE 15  

0011         ?C0042:
                                           ; SOURCE LINE # 311
0011 DDF3          DJNZ    R5,?C0040
                                           ; SOURCE LINE # 312
0013 22            RET     
             ; FUNCTION ClearBuffer (END)



MODULE INFORMATION:   STATIC OVERLAYABLE
   CODE SIZE        =    735    ----
   CONSTANT SIZE    =   ----    ----
   XDATA SIZE       =    119    ----
   PDATA SIZE       =   ----    ----
   DATA SIZE        =      2      11
   IDATA SIZE       =   ----    ----
   BIT SIZE         =   ----    ----
END OF MODULE INFORMATION.


C51 COMPILATION COMPLETE.  0 WARNING(S),  0 ERROR(S)
