:100000000C942A000C9445000C9445000C94450077
:100010000C9445000C9445000C9445000C9445004C
:100020000C9445000C9445000C9445000C9445003C
:100030000C9445000C9445000C9445000C9445002C
:100040000C9445000C9445000C9445000C9445001C
:100050000C94450011241FBECFE5D4E0DEBFCDBF18
:1000600010E0A0E6B0E0E4E4F7E002C005900D92F5
:10007000A036B107D9F710E0A0E6B0E001C01D92AC
:10008000A036B107E1F70C9447000C940000CEE5D0
:10009000D4E0DEBFCDBF809134008F608093340008
:1000A000809135008F60809335000E94D5000E94BA
:1000B000C201809135008E7F8093350084EF91E0FE
:1000C0000E9496008091350081608093350083E521
:1000D0000E94F30084E50E94F300CE0101960E9485
:1000E0007202882319F089810E94F300CE010196E3
:1000F0000E942601882309F4F0CF89818F3369F4A7
:10010000CE0101960E940A03882319F48FE30E940E
:10011000F30089810E94F300E0CF89810E94DD0114
:100120008823D9F68AE20E94F300D7CFCF93DF93DA
:10013000CDB7DEB724970FB6F894DEBF0FBECDBFA4
:100140009A838983E981FA818FEC97E0A82FB92FF0
:100150001197F1F73197D1F7CD019C838B832496CA
:100160000FB6F894DEBF0FBECDBFDF91CF910895DB
:10017000CF93DF93CDB7DEB721970FB6F894DEBFEC
:100180000FBECDBF89838981000000000000000000
:1001900000008A95C9F7898321960FB6F894DEBFCF
:1001A0000FBECDBFDF91CF910895CF93DF93CDB731
:1001B000DEB71092400083E38093290088E18093AA
:1001C0002A0086E880934000DF91CF910895CF9375
:1001D000DF93CDB7DEB780912B00992780729070A6
:1001E000DF91CF910895CF93DF93CDB7DEB72197FD
:1001F0000FB6F894DEBF0FBECDBF898380912B0070
:10020000992780729070009709F4F8CF80912B00A5
:10021000806480932B00898180932C0021960FB6F7
:10022000F894DEBF0FBECDBFDF91CF910895CF937D
:10023000DF93CDB7DEB780912B0099278074907043
:10024000009709F4F8CFDF91CF910895CF93DF9312
:10025000CDB7DEB726970FB6F894DEBF0FBECDBF81
:100260009A83898384EA9CE29C838B8380912B0010
:10027000882354F4E981FA8180912C00808381E005
:1002800090E09E838D830AC08B819C8101979C8323
:100290008B83009709F0EACF1E821D828D819E819B
:1002A00026960FB6F894DEBF0FBECDBFDF91CF917B
:1002B0000895CF93DF93CDB7DEB726970FB6F894A6
:1002C000DEBF0FBECDBF9A83898381E090E09C831F
:1002D0008B8389819A8101969A83898380912B00EF
:1002E00088232CF481E090E09E838D8316C08B815F
:1002F0009C8101979C838B83009709F0EFCF86E761
:1003000094E09C838B8389819A8101979A83898366
:10031000009709F0E3CF1E821D828D819E81269673
:100320000FB6F894DEBF0FBECDBFDF91CF91089519
:10033000CF93DF93CDB7DEB723970FB6F894DEBF28
:100340000FBECDBF84EA9CE29A83898380912B0003
:1003500088233CF480912C008B8384EA9CE29A836E
:10036000898389819A8101979A838983009709F00B
:10037000EDCF23960FB6F894DEBF0FBECDBFDF9151
:10038000CF910895CF93DF93CDB7DEB78091320040
:10039000886080933200809132008F7D809332009C
:1003A00080913200846080933200809131008C62B1
:1003B00080933100DF91CF910895CF93DF93CDB734
:1003C000DEB725970FB6F894DEBF0FBECDBF898389
:1003D000809132008B7F8093320080913200806266
:1003E0008093320080913200886080933200809147
:1003F0003200846080933200809132008B7F809342
:10040000320080913200877F8093320080913200E9
:10041000846080933200809132008B7F8093320021
:1004200080913200877F8093320080913200846017
:100430008093320088E08A83809132008B7F8093A2
:10044000320080913200877F809332008981882337
:100450002CF48091320088608093320080913200C9
:100460008460809332008981880F89838A818150DA
:100470008A83882309F0E0CF809132008B7F8093BC
:1004800032008091300080718B83809132008460D3
:1004900080933200809132008B7F80933200809174
:1004A00032008F7D8093320080913200886080938B
:1004B0003200809132008460809332001D821C8261
:1004C0008B81882321F481E090E09D838C838C8153
:1004D0009D8125960FB6F894DEBF0FBECDBFDF918C
:1004E000CF910895CF93DF93CDB7DEB727970FB69F
:1004F000F894DEBF0FBECDBF9A838983809132000E
:100500008B7F809332008091320080628093320032
:100510008091320088608093320080913200846044
:1005200080933200809132008B7F809332008091E3
:100530003200886080933200809132008460809322
:100540003200809132008B7F8093320080913200A4
:10055000877F8093320080913200846080933200E4
:1005600088E08B831C828C81880F8C838091320081
:100570008B7F80933200809130009927807190703A
:10058000009719F08C818F5F8C838091320084609A
:10059000809332008B8181508B83882309F0E3CFD5
:1005A000809132008B7F8093320080913000807187
:1005B0008D8380913200846080933200809132007C
:1005C0008B7F80933200809132008F7D8093320048
:1005D0008091320088608093320080913200846084
:1005E00080933200E981FA818C8180831F821E8290
:1005F0008D81882321F481E090E09F838E838E811A
:100600009F8127960FB6F894DEBF0FBECDBFDF9156
:10061000CF910895CF93DF93CDB7DEB727970FB66D
:10062000F894DEBF0FBECDBF9A83898380913200DC
:100630008B7F809332008091320080628093320001
:100640008091320088608093320080913200846013
:1006500080933200809132008B7F809332008091B2
:1006600032008860809332008091320084608093F1
:100670003200809132008B7F809332008091320073
:1006800088608093320080913200846080933200D1
:1006900088E08B831C828C81880F8C838091320050
:1006A0008B7F809332008091300099278071907009
:1006B000009719F08C818F5F8C8380913200846069
:1006C000809332008B8181508B83882309F0E3CFA4
:1006D000809132008B7F8093320080913000807156
:1006E0008D8380913200846080933200809132004B
:1006F0008B7F80933200809132008F7D8093320017
:100700008091320088608093320080913200846052
:1007100080933200E981FA818C8180831F821E825E
:100720008D81882321F481E090E09F838E838E81E8
:100730009F8127960FB6F894DEBF0FBECDBFDF9125
:04074000CF910895B8
:00000001FF
