:1001A6000000000000000000080808080800080019
:1001B6000A0A00000000000000000A1B0A1B0A00D1
:1001C600040F100E011E0400181902040813030080
:1001D6000C12140815120D000C0408000000000093
:1001E60002040808080402000804020202040800C7
:1001F6000004150E150400000004041F040400008A
:1002060000000000000C04080000001F00000000B1
:1002160000000000000C0C000000010204081000A1
:100226000E11111511110E00040C140404041F0004
:100236000E11010204081F001F02040201110E0024
:1002460002060A121F0202001F101E0101110E00F3
:100256000608101E11110E001F01020404040400FA
:100266000E11110E11110E000E11110F01020C00CC
:1002760000000C0C000C0C0000000C0C000C040818
:10028600020408100804020000001F001F000000FE
:1002960008040201020408000E1101020800080009
:1002A60000000000000000000E1111111F111100C6
:1002B6001E09090E09091E000E11101010110E005C
:1002C6001E09090909091E001F08080F08081F0052
:1002D6001F08080E08081C000E11101311110E003D
:1002E6001111111F111111000E04040404040E0053
:1002F6000702020202120C00111214181412110045
:100306001010101010101F00111B151111111100E3
:1003160011111915131111000E11111111110E00E1
:100326001E11111E101010000E11111115120D00C4
:100336001E11111E141211000E11100E01110E00C5
:100346001F040404040404001111111111110E00FC
:1003560011111111110A040011111115151B1100AB
:1003660011110A040A1111001111110A04040400E2
:100376001F01020408101F000E08080808080E00D6
:1003860000100804020100000E02020202020E0022
:10039600040A1100000000000000000000001F0019
:1003A600100804000000000000000E010F110F00ED
:1003B6001010161911111E0000000E1110110E005A
:1003C60001010D1311110F0000000E111F100E0078
:1003D6000609081C0808080000000D13130D011E6D
:1003E60010101619111111000800180808081C0031
:1003F60004001E020202120C0808090A0C0A09006F
:100406001808080808081C0000001A15151515001C
:10041600000016191111110000000E1111110E0025
:10042600000016191916101000000D13130D010106
:10043600000016191010100000000F100E011E000B
:1004460008081C08080906000000121212120D0006
:1004560000001111110A04000000111115150A00FF
:100466000000110A040A110000001111130D011EEB
:1004760000001F0204081F000408081008080400F2
:10048600040404000404040008040402040408002C
:1004960008150200000000000808200D000E1A01D1
:1004A600A60000000001030307070F0F0F1F1F1F01
:1004B6001F1F1F1F1F1F1F1F1F0F0F0F0F070703D2
:1004C6000100000000073F7FFFFCF0E0C0C0808015
:1004D6008000000000000000000000000080808016
:1004E600C0C0E0F0F8FF7F3F0FF0FCFFFF1F0F07D3
:1004F60003030101010000000000000000000000ED
:10050600000101010303070F1FFFFEFCF0000000BE
:1005160080C0C0E0E0F0F0F0F0F8F8F8F8F8F8F88D
:10052600F8F8F8F8F8F0F0F0E0E0E0C0800000003D
:1005360000000000000000000000000000000000B5
:1005460000000000000000000000000000000000A5
:10055600000000000000071F7FFEF870400000004A
:100566000000000000000000000000000000000085
:10057600000000000000000000F8F8F8F8F8F8F8AD
:06058600F8F8F8F8F8F89F
:10058C00F8F8F8F8F8F8F8F8F8F8F8F8F8F8F8F8DF
:10059C00F8F8F8F8F8F8F800000000000000000087
:1005AC00000000000000000000000000000000003F
:1005BC000000000000000000000000000003070322
:1005CC00030200000000000000000000000000001A
:1005DC000000000000000000000103070F0F0F1FB8
:1005EC00FFFFFFE0800000000000000000000000A2
:1005FC0000000000000001030F1F3F7FFEF8F0FF1A
:10060C00FFFFFFF0FCFEFF3F0F070703030303038D
:10061C000307070F0F1F3F3F7EFCF8F0E0C0800080
:10062C00000000FFFFFFFF0000000080C0C0E0E002
:10063C00E0E0E0E0E0E0C0C08080000000000000EE
:10064C0000000000000000F0F0F0F00001070703CC
:10065C00020000000000000000000000000000008C
:10066C000000000000000000000407070F07003F17
:10067C00FFFFFFE00000000000000000003F3F3FD4
:10068C003F00000000000000000000000000C0FF60
:10069C00FFFF7FF0FEFFFF3F0F0703030303070F6E
:1006AC007FFEF8FCFF7F0F0703030101010101032B
:1006BC00070F3FFFFEFCE000000080C0E0E0E0E040
:1006CC00E0E0C0C0800000000080C0E0E0F0F0F08E
:1006DC00F0F0F0E0E0C0C08000000000000000007E
:1006EC0000000000000000000000010103070F0FD4
:1006FC001F1F1F1F1F000000000000000000000053
:10070C0000000001010307070F1F3F3E7CF8F0F0CB
:10071C00E0C0800000FFFFFFFF00000000000000B1
:10072C000000003F3F7FFFFFFFEFCFCF8F0F0F0F7A
:10073C000F0F0F0F0F0F0F0F0FFFFFFFFF0F0F0FFD
:10074C000F0F0F0F0F0F0F808080808080808080B4
:10075C0080808080808080808080808080F8F8F825
:10076C00F880808080808080808080000000000184
:10077C000101010101010101030303030000000059
:10078C0000000000000000000004070F0F0700FF2E
:10079C00FFFFFFF0F0F0F0F0F0F0F0F0FFFFFFFFE4
:1007AC00000000000000000000000000000080FFBE
:1007BC00FFFFFFFFFFFFFF00000000000000000034
:1007CC00E0FCFFFF7F1F070303010101010103038D
:1007DC00070F7FFFFEF8C0E0E0E0E0000000000043
:1007EC000000000000000080C0E0E0E0F0F0F0F05D
:1007FC00F0F0E0E0E0C0800000000000000000002D
:10080C0000000101030707070F0F0F1F1F1F1F1FFA
:10081C001F1F1F1F1F0F0F0F0703030100000000F6
:10082C0000070F3F7FFCF8F0E0C080879F3FFFF888
:10083C00E0C0800000000000008080C0C0F0F8FF25
:10084C00FF3F0F0FFFFFFFF000000000000000F85B
:10085C00FFFFFF1F07030101000000000000010162
:10086C0003071FFFFFFEF080808080000000000067
:10087C00000000000080C0E0F0F0F0F8F8F8F8F8A4
:10088C00F8F8F0F0F0E0C0800000000F0F0F0F0040
:10089C00000000000000000000000000000000004C
:1008AC00000000000000000000000000010103FF38
:1008BC00FFFFFF000000000000000000000000002F
:1008CC000101030307070F0F1F1F3F3E7E7CFCF83F
:1008DC00F8F0F0FFFFFFFF0307070F0F1F1F3F3E4E
:1008EC007E7CFCF8F8F0F0E0E0C0C08080000000F6
:1008FC0000000000000000F0F0F0F0E0E0C0C0806C
:10090C00800000000000000000000000000000005B
:10091C0000000000000000000000000000000103C7
:10092C00070F0F0F0F0F0F0707030100000003073E
:10093C000F0F1F1F1F1F1F1F0F0F07030100000F9B
:10094C007FFFFFF8E0C080808080C0E0F0FEFF7F7A
:10095C003FFFF8E0C08080000000008080E0F8FFDE
:06096C00FF7F1FF8FEFFF3
:10097200FF1F07030101010103030F3FFFFCFEFFFD
:100982007F0F030101000000000101030FFFFFFEC2
:10099200F0000080C0E0E0F0F0F0F0F0E0E0C080B5
:1009A20000000080C0E0F0F0F8F8F8F8F8F8F0F095
:1009B200E0C08000000000000103070F0F0F1F1F9F
:1009C2001F1F1F1F1F0F0F07030100000000000061
:1009D2000000000000030303030F3FFFFFF8E0C025
:1009E200808000000000000080C0E0F8FFFFFF1FD1
:1009F20000000000000000010FFFFFFFF0F0FEFF0B
:100A0200FF1F070303010100000000000001071F90
:100A1200FFFCF9E1010303070F1F7FFEFCF8E00072
:100A22000000000080C0E0E0F0F0F0F8F8F8F8F81C
:100A3200F8F8F8F8F8F0F0F0F0E0E0C0C08000005C
:100A420000000000000000000000000000000000A4
:100A52000000000000000000000000000000000094
:100A62000000000000000000000000000000000084
:100A72000000000000000000000000000000000074
:100A82000000000000000000000000000000000064
:100A92000000000000000000000000000000000054
:100AA2000000000000000000000000000000000044
:100AB2000000000000000000000000000000000034
:100AC2000000000000000000000000000000000024
:100AD2000000000000000000000000000000000014
:100AE2000000000000000000000000000000000004
:100AF20000000000000000000000000000000000F4
:100B020000000000000000000000000000000000E3
:100B120000000000000000000000000000000000D3
:100B22000000000000000000000000FFFFFFFF00C7
:100B320000000000000000000000000000000000B3
:100B4200000000000000000000000000000000F8AB
:100B5200F8F8F800000000000000000000000000AB
:100B620000000000002024300B0A000004A700014E
:100B720003070F0F1E1E1E3C3C3C3C3C3C3C3C3CD5
:100B82003C1E1E1E0F0F070301007EFFFFC3010163
:100B92000000000000000000000000000000000053
:100BA2000101C7FFFFFC0080C0C0E0F0F0F07878E0
:100BB200787878787878787878F0F0F0E0E0C0802B
:100BC2000000000003070702000000000000000010
:100BD20000000000000000000000000000003EFED7
:100BE200FEDE1E1E1E1E1E1E1E1E1E1E1E1E1E1E83
:100BF2001E1E1E1E1E1E1E1E1E1E000000000000C7
:100C020000000000000000000000000000000000E2
:100C120000000000000000070F07040000000000B1
:100C220000000000000000000000000103070F1F89
:100C32001F1FFEFFFF07010100000000000101036A
:100C420007070F1F3E7CF8F0E08000FFFFFF0080E7
:100C5200C0E0E0F0F0F0F0F0F0E0E0E0C080000092
:100C620000000000000000F8F8F800070F0F040071
:100C7200000000000000010101000000000000006F
:100C820000080E1F0F03FEFFFF070301010101030E
:100C9200030FFEFFFF0F030100000000010107FF29
:100CA200FFFC0080C0C0E0E0E0E0E0C0C0800000E7
:100CB20080C0E0F0F0F0F0F0F0E0C0C00000000012
:100CC2000000000000000001010307070F0E1E1CB8
:100CD2003F3F3F000000000000000F0F1F1F3F7B3F
:100CE2007BF3F3E3C3C3830303030303FFFFFF03A6
:100CF200030303030303C0C0C0C0C0C0C0C0C0C060
:100D0200C0C0C0C0C0C0C0C0F8F8F8C0C0C0C0C039
:100D1200C0C0010101030303030303030707070024
:100D2200000000000000000000081E1F0F03FFFF6C
:100D3200FFE0C0C0C0C0C0C0FEFFFF0F0301000043
:100D42000000000001030FFFFFF8E0E0E0000000F8
:060D52000000000000801B
:100D5800C0E0E0F0F0F0F0F0F0F0E0E0C08000007B
:100D6800000000010307070F0E1E1C1F3F3F3E3CFB
:100D78003C3C3C3C3C1E1E0F0F070100031F7FFC40
:100D8800E0C00000003FFFFF8301000000000000FA
:100D980000000001C3FFFF7EC0C0C00000000000CB
:100DA8000000C0E0E0F0F0787878787878F0F0F03B
:100DB800E0C080001F1F1F000000000000000000AE
:100DC800000000000000000000000001010303070C
:100DD800FFFFFF0000010103030707070F0F1E1E97
:100DE8003E3C7C78F8F0F0E0E0C0C0C0F8F8F8F0DD
:100DF800F0F0E0E0C0C080800000000000000000CB
:100E080000000000000000000003070F0F1E1E1E58
:100E18001E1F0F0F0301030F1F1E3C3C3C3C3E1ED0
:100E28001F0F0700FEFFFF8301000000000181C7BC
:100E3800FFFFFF87010000000000000083FFFFFEA6
:100E48000080C0E0F0F0F0F0F0E0E0C08000C0E02A
:100E5800F0F07878787878F0F0E080000003070FF9
:100E68001F1E3E3C3C3C3C3C3E1F1F0F0701000040
:100E780000000000000F0F0FFEFFFF8301000000BD
:100E880000000000000083FFFEF800000103071FB8
:100E98007FFCF8800080C0E0E0F0F078787878781F
:100EA80078F8F8F870F0F0E0E0C0C08000000000CA
:100EB800000000000000000000000000000000002A
:100EC800000000000000000000000000000000001A
:100ED800000000000000000000000000000000000A
:100EE80000000000000000000000000000000000FA
:100EF80000000000000000000000000000000000EA
:100F080000000000000000000000000000000000D9
:100F180000000000000000000000000000000000C9
:100F2800000000000000000000000000003F3F3FFC
:100F380000000000000000000000000000000000A9
:100F4800000000000000000000F8F8F800000000B1
:100F58000000000000000000181C300B0A00000B05
:100F680070070F1C183030303030303030303018C7
:100F78001C0F07C0E070301818181818181818181F
:100F8800183070E0C001010F0F01010101010101DA
:100F980001010101010F0F808080808080808080A6
:100FA80080808080808080F0F00F3F382000000033
:100FB8000000000103070E1C383F3F80E06030301E
:100FC80030307060C0C08000000000F8F80F3F3873
:100FD800200000000303000000000020383F0FC07D
:100FE800F03818181870E0C030181818183870E061
:100FF800C00000000103060E0C18303F3F0000003F
:101008000000003070F0B0303030303030FCFC3050
:1010180030303030301F1F18181818181F1F0000E4
:1010280000000000303F1FF0F0000000000080E0EA
:10103800603030303070E0C08001070E1C18183066
:10104800373F3830303030181C0F07F0F000000000
:101058000000C0F030181818181830E0C03F3F00E2
:101068000000000000000101030306060C0C18F83C
:10107800F81838306060C0C08080000000000000B0
:1010880000071F18303030381E0719183030303834
:101098001C1F07C0F0381818183060C0E030181846
:1010A800181830E0C0070F183030303030181F07DC
:1010B80000000000000F0FC0E07030181818183832
:1010C800F8D818303070E0C0800000000000000040
:1010D8000000000000000000000000000000000008
:1010E80000000000000000000000000000000000F8
:1010F80000000000070700000000000000000000DA
:10110800000000000000F0F00000000000000000F7
:1011180000000000000000000000000000000000C7
:1011280003030300000000000000000000000000AE
:0611380000008080800031
:10113E00000000030303000000000000000303038F
:10114E000000000000808080000000000000008091
:10115E008080001012300B0A0C0D0F690800000081
:10116E000000000000000000000000000000000071
:10117E000000000000000000000000000000000061
:10118E000000000000000000000000000000000051
:10119E000000000000000000000000000000000041
:1011AE000000000000000002003FFFFFF03C0000C6
:1011BE000000000000000000000000000000000021
:1011CE000000000000000000000000000000000011
:1011DE000000000000000000000000000000000001
:1011EE0000000000000000000000000000000000F1
:1011FE0000000A000000000039CC67398C63318C86
:10120E006000000000000000000000000000000070
:10121E0000000000000000000000000000000000C0
:10122E0000000000000000000000000000000000B0
:10123E00000000000000000000000000000D000093
:10124E00000000000000031818C1CC0C60631FFEE4
:10125E00FFF18C0C60630318FFF7FF8C606303389B
:10126E0031818C0000000000000000000000000032
:10127E000000000000000000000000000000000060
:10128E0000000000000000000B0000000000000045
:10129E00080100201F8FFB91620C41C81F01FC0743
:1012AE00C08C11823C4DFF9FC020040080100000B6
:1012BE000000000000000000000000000000000020
:1012CE000000000000000000000000000000000010
:1012DE0000000015000000000000000000000000EB
:1012EE00001E0181F8181CE0C0C30C06186030C641
:1012FE000186300E73003F18F0F18FC00CE700C668
:10130E00180630C06186030C3030738181F81807DF
:10131E0080000000000000000000000000000F0030
:10132E00000000000000000003E00FE038E060C0A5
:10133E00C18183018C01F183C31DC631CCC1D9811A
:10134E00E301C601C70FCFF9C7C18000000000003E
:10135E00000000000000000000000000000000007F
:10136E000000000000000000000500000399CC669C
:10137E00300000000000000000000000000000002F
:10138E00000000000000000000000000000000004F
:10139E00000000000000000000000000000000003F
:1013AE00000000000000000000000000000000002F
:1013BE00000000000700000000E3861830C1870C13
:1013CE00183060C183060E0C181830307070000093
:1013DE0000000000000000000000000000000000FF
:1013EE0000000000000000000000000000000000EF
:1013FE0000000000000000000000000000000007D8
:10140E000000000E0E0C0C1818307060C183060C14
:10141E001830E1830C1861C70000000000000000C6
:10142E0000000000000000000000000000000000AE
:10143E00000000000000000000000000000000009E
:10144E00000000000000000000000A000000000084
:10145E000C0308C7B73F0303F3B78C4300C000006B
:10146E00000000000000000000000000000000006E
:10147E00000000000000000000000000000000005E
:10148E00000000000000000000000000000000004E
:10149E0000000000000E0000000000000000000030
:1014AE000000000003000C003000C003000C0FFF12
:1014BE00FFFF03000C003000C003000C0000000012
:1014CE00000000000000000000000000000000000E
:1014DE0000000000000000000000000000000000FE
:1014EE00050000000000000000000000000399CE7F
:1014FE0063318000000000000000000000000000CA
:10150E0000000000000000000000000000000000CD
:06151E00000000000000C7
:1015240000000000000000000000000000000000B7
:1015340000000000000700000000000000000000A0
:1015440000003FFF00000000000000000000000059
:101554000000000000000000000000000000000087
:101564000000000000000000000000000000000077
:101574000000000000000000000000000000000067
:1015840003000000000000000FF80000000000004D
:101594000000000000000000000000000000000047
:1015A4000000000000000000000000000000000037
:1015B4000000000000000000000000000000000027
:1015C400000000000000000000000009000000000E
:1015D40000180C0C0603030180C0C0603038180CDE
:1015E400060603018180C060603000000000000036
:1015F40000000000000000000000000000000000E7
:1016040000000000000000000000000000000000D6
:101614000000000000000B000000000000003E0F6E
:10162400E38E60D80F01E03C0780F01E03C0780F02
:1016340001B0671C7F07C00000000000000000002C
:101644000000000000000000000000000000000096
:101654000000000000000000000000000000000086
:10166400000800000000001818F8F81818181818D6
:1016740018181818181818FFFF00000000000000C0
:101684000000000000000000000000000000000056
:101694000000000000000000000000000000000046
:1016A4000000000000000000000000000B0000002B
:1016B400000000007C3FE70C80C0180300601C039E
:1016C40000C0380E0380E0380E01FFFFF800000070
:1016D4000000000000000000000000000000000006
:1016E40000000000000000000000000000000000F6
:1016F400000000000000000B000000000000007E5D
:101704003FF70780600C0180E0F81E0030030060A2
:101714000C01C07E1DFF0FC000000000000000008F
:1017240000000000000000000000000000000000B5
:1017340000000000000000000000000000000000A5
:1017440000000C00000000000000000C01C03C067A
:10175400C0CC18C38C30C60CC0CFFFFFF00C00C047
:101764000C00C00C00C000000000000000000000DD
:101774000000000000000000000000000000000065
:10178400000000000000000000000000000A00004B
:10179400000000001FF7FD8060180601807E1FE036
:1017A400180300C0300C07C3BFC7E00000000000EE
:1017B4000000000000000000000000000000000025
:1017C4000000000000000000000000000000000015
:1017D40000000000000000000B00000000000000FA
:1017E4000F87F1C0700C0180600DF1FFB83603C0A3
:1017F400780F01B0370C7F07C00000000000000024
:1018040000000000000000000000000000000000D4
:1018140000000000000000000000000000000000C4
:101824000000000B00000000000001FFFFF80300AF
:10183400E0180600C030060180300C0180600C0303
:10184400006018000000000000000000000000001C
:101854000000000000000000000000000000000084
:1018640000000000000000000000000000000B0069
:101874000000000000003E1FF307C0780F01F0676E
:10188400983E19E306C0780F01F0370CFF07C0003B
:101894000000000000000000000000000000000044
:1018A4000000000000000000000000000000000034
:1018B4000000000000000000000B00000000000019
:1018C400003E0FE30EC0D80F01E03C06C1DFF8FB79
:1018D4000060180300E0387E0F8000000000000064
:1018E40000000000000000000000000000000000F4
:1018F40000000000000000000000000000000000E4
:06190400000000000300DA
:10190A00000003FE00000FF80000000000000000C5
:10191A0000000000000000000000000000000000BD
:10192A0000000000000000000000000000000000AD
:10193A00000000000000000000000000000000009D
:10194A000000000000000000000500000000000088
:10195A0039CE000000000399CE63318000000000F8
:10196A00000000000000000000000000000000006D
:10197A00000000000000000000000000000000005D
:10198A00000000000000000000000000000000004D
:10199A00000000000D000000000000000000000030
:1019AA000000000000400E03E07C0F01E01C0078FC
:1019BA0000F001F003E003800400000000000000D2
:1019CA00000000000000000000000000000000000D
:1019DA000000000000000000000000000000000DF0
:1019EA0000000000000000000000000000000000ED
:1019FA000000000FFFFFFC0000000007FFFFFE00D1
:101A0A0000000000000000000000000000000000CC
:101A1A0000000000000000000000000000000000BC
:101A2A00000000000000000000000D00000000009F
:101A3A0000000000000000000004003800F801F077
:101A4A0001E003C00700F01E07C0F80E00400000C6
:101A5A00000000000000000000000000000000007C
:101A6A00000000000000000000000000000000006C
:101A7A00000000000009000000000003F3FD070158
:101A8A0080C0603030383838180C06000000C0605A
:101A9A00000000000000000000000000000000003C
:101AAA00000000000000000000000000000000002C
:101ABA00000000000000000000000000000000001C
:101ACA001300000000000000000000000003F00105
:101ADA00FF80F038380386003983F331FE7C30C743
:101AEA008C18F1831E3063C60C78C18F1C7331FFCA
:101AFA00E61EFC60000E0000F02007FC003F80009C
:101B0A0000000000000000000000000E00000000BD
:101B1A0000000000001E007801E004803300CC03BE
:101B2A003018606181860C0C3FF0FFC60198066090
:101B3A001B807C00C00000000000000000000000C4
:101B4A00000000000000000000000000000000008B
:101B5A000000000000000B00000000000001FE3F32
:101B6A00E60EC0D81B0360CFF1FF303603C0780FF2
:101B7A0001E07C1DFF3FC0000000000000000000E3
:101B8A00000000000000000000000000000000004B
:101B9A00000000000000000000000000000000003B
:101BAA00000C0000000000000000FC1FF383701608
:101BBA0000E00C00C00C00C00C00C00E0060070161
:101BCA003831FF0FC00000000000000000000000D4
:101BDA0000000000000000000000000000000000FB
:101BEA000000000000000000000000000D000000DE
:101BFA0000000000007F83FF183CC07601B00F8010
:101C0A003C01E00F007803C01E01B00D80EC1E7F7E
:101C1A00E3FC0000000000000000000000000000DB
:101C2A0000000000000000000000000000000000AA
:101C3A00000000000000000A0000000000003FFF52
:101C4A00FF00C0300C0300FFBFEC0300C0300C03E0
:101C5A0000C03FFFFC000000000000000000000080
:101C6A00000000000000000000000000000000006A
:101C7A00000000000000000000000000000000005A
:101C8A0000000B00000000000001FFFFFE00C0186A
:101C9A000300600FFFFFF00600C0180300600C018C
:101CAA00803000000000000000000000000000007A
:101CBA00000000000000000000000000000000001A
:101CCA00000000000000000000000000000E0000FC
:101CDA00000000000000001FC1FFCE077005800E43
:061CEA00003000C0030001
:101CF0000C0FF03FC00F803600DC033C0C7FF07E01
:101D000000000000000000000000000000000000D3
:101D100000000000000000000000000000000000C3
:101D200000000C000000000000000C03C03C03C0D9
:101D30003C03C03C03FFFFFFC03C03C03C03C03C6E
:101D400003C03C03C03000000000000000000000A1
:101D50000000000000000000000000000000000083
:101D6000000000000000000000000000000500006E
:101D7000007FEC6318C6318C6318C67FE00000005A
:101D80000000000000000000000000000000000053
:101D90000000000000000000000000000000000043
:101DA0000000000000000000000000000000000033
:101DB00000000000000000000800000000003F3F9D
:101DC0000303030303030303030303030387FEFC6B
:101DD0000000000000000000000000000000000003
:101DE00000000000000000000000000000000000F3
:101DF00000000000000000000000000000000000E3
:101E00000000000C000000000000000C07C0EC1CEB
:101E1000C38C70C60CC0D80F80FC0CE0C60C30C35D
:101E20008C18C0CC0EC07000000000000000000044
:101E300000000000000000000000000000000000A2
:101E400000000000000000000000000000000A0088
:101E50000000000000300C0300C0300C0300C03054
:101E60000C0300C0300C0300C03FFFFC000000006A
:101E70000000000000000000000000000000000062
:101E80000000000000000000000000000000000052
:101E90000000000000000000000E00000000000034
:101EA000000003807F03FC0FF87F61BDC6F333CCD5
:101EB000CF1E3C78F0C3C30F003C00F003C00F00FE
:101EC0003C00C00000000000000000000000000016
:101ED0000000000000000000000000000000000002
:101EE000000000000C000000000000000E03F03FA6
:101EF00003F83D83DC3CC3CE3C63C73C33C3BC1B0F
:101F0000C1FC0FC0FC07C070000000000000000012
:101F100000000000000000000000000000000000C1
:101F20000000000000000000000000000000000FA2
:101F300000000000000000000000F807FC1C1C70FE
:101F40001CC01B803E003C007800F001E003C0078D
:101F5000C01D803380E38383FE01F0000000000099
:101F60000000000000000000000000000000000071
:101F7000000000000000000000000B000000000056
:101F80000001FE3FE60EC0F80F01E03C0F83BFE703
:101F9000F0C0180300600C01803000000000000059
:101FA0000000000000000000000000000000000031
:101FB0000000000000000000000000000000000021
:101FC00000000000000F0000000000000000000002
:101FD000F807FC1C1C701CC01B803E003C007800F5
:101FE000F001E003C007C01D803380E38383FE015E
:101FF000F0006000C000C001F801F0000000000027
:1020000000000000000000000000000000000000D0
:102010000D00000000000000007F83FF1818C0665C
:1020200003301980CC0C60E3FE1FC0C3061C306176
:10203000818C06603B00E000000000000000000012
:102040000000000000000000000000000000000090
:1020500000000000000000000000000B0000000075
:102060000000003F1FF306C0580300700780FE0702
:10207000F00F00600C01C03E0DFF0FC0000000001B
:102080000000000000000000000000000000000050
:102090000000000000000000000000000000000040
:1020A0000000000000000E0000000000000000031F
:1020B000FFFFFFC0C003000C003000C003000C0095
:1020C0003000C003000C003000C003000C003000E2
:0620D0000000000000000A
:1020D60000000000000000000000000000000000FA
:1020E60000000000000000000000000C00000000DE
:1020F6000000000C03C03C03C03C03C03C03C03CD2
:1021060003C03C03C03C03C03E0770E3FC1F8000D5
:1021160000000000000000000000000000000000B9
:1021260000000000000000000000000000000000A9
:102136000000000000000E00000000000000000388
:10214600003E01D80660198063030C0C30306181B3
:102156008606180CC03300CC01E007801E00300054
:102166000000000000000000000000000000000069
:102176000000000000000000000000000000000059
:1021860000150000000000000000000000000060D4
:10219600100F01C06C0E06607033038198360C6117
:1021A600B0C30D86184C30C231833198198CC0C823
:1021B600260241201E0F00F0780701C0180C00000F
:1021C6000000000000000000000000000E000000FB
:1021D6000000000000030036018C0C30306180CC1A
:1021E600033007800C003001E00CC03301860C0C74
:1021F6003031806C00C000000000000000000000CC
:1022060000000000000000000000000000000000C8
:10221600000000000000000E0000000000000000AA
:10222600038076019C0E303061818E03300FC01E14
:10223600003000C003000C003000C003000C00306A
:102246000000000000000000000000000000000088
:102256000000000000000000000000000000000078
:1022660000000B00000000000001FFFFF80300C0A3
:1022760030060180600C0300E0180600C0300C0137
:10228600FFFFF80000000000000000000000000052
:102296000000000000000000000000000000000038
:1022A6000000000000000000000000000006000022
:1022B60000FFFC30C30C30C30C30C30C30C30C30F1
:1022C600C30FFF0000000000000000000000000037
:1022D60000000000000000000000000000000000F8
:1022E60000000000000000000000000000000000E8
:1022F600000000000000000009000000000C0601BC
:1023060080C060180C060180C060380C060300C04F
:1023160060300C060300C0600000000000000000F2
:1023260000000000000000000000000000000000A7
:102336000000000000000000000000000000000097
:1023460000000006000000FFF0C30C30C30C30C3D1
:102356000C30C30C30C30C3FFF000000000000002F
:102366000000000000000000000000000000000067
:102376000000000000000000000000000000000057
:1023860000000000000000000000000000000E0039
:1023960000000000000000000C007801E00CC061A5
:1023A60083030C0C601B00300000000000000000DE
:1023B6000000000000000000000000000000000017
:1023C6000000000000000000000000000000000007
:1023D6000000000000000000000D000000000000EA
:1023E60000000000000000000000000000000000E7
:1023F60000000000000000000000000000000000D7
:10240600000007FFFFFE00000000000000000000C3
:1024160000000000000000000000000000000000B6
:10242600000000000500000E38C300000000000098
:102436000000000000000000000000000000000096
:102446000000000000000000000000000000000086
:102456000000000000000000000000000000000076
:102466000000000000000000000000000000000A5C
:1024760000000000000000000000000003F1FE4123
:10248600C0300C7F7FFC3C0F03E3DFF3CC00000081
:102496000000000000000000000000000000000036
:1024A6000000000000000000000000000000000026
:0624B60000000000000020
:1024BC00000000000A0000000000C0300C0300C047
:1024CC00300CF3FEE1B03C0F03C0F03C0F06C3BF71
:1024DC00CDE0000000000000000000000000000043
:1024EC0000000000000000000000000000000000E0
:1024FC0000000000000000000000000000000009C7
:10250C00000000000000000000000007C7F70F03E8
:10251C000180C060301C1719FC7C0000000000001A
:10252C00000000000000000000000000000000009F
:10253C00000000000000000000000000000000008F
:10254C00000000000000000000000A000000000075
:10255C0000C0300C0300C031ECFF70D83C0F03C03E
:10256C00F03C0F0361DFF3CC000000000000000022
:10257C00000000000000000000000000000000004F
:10258C00000000000000000000000000000000003F
:10259C0000000000000B0000000000000000000024
:1025AC00000000007C1FE70CC0F01FFFFFF80300C9
:1025BC007017067FC3E00000000000000000000060
:1025CC0000000000000000000000000000000000FF
:1025DC0000000000000000000000000000000000EF
:1025EC0008000000001F3F30606060FEFE6060600D
:1025FC0060606060606060600000000000000000CF
:10260C0000000000000000000000000000000000BE
:10261C0000000000000000000000000000000000AE
:10262C0000000000000000000000000A0000000094
:10263C00000000000000000001ECFF70D83C0F030C
:10264C00C0F03C0F0361DFF3EC03419FE3F00000AB
:10265C00000000000000000000000000000000006E
:10266C00000000000000000000000000000000005E
:10267C0000000000000009000000000C06030180AF
:10268C00C060339FEE3E0F0783C1E0F0783C1E0F15
:10269C000600000000000000000000000000000028
:1026AC00000000000000000000000000000000001E
:1026BC00000000000000000000000000000000000E
:1026CC000002003C0FFFFFFC0000000000000000B7
:1026DC0000000000000000000000000000000000EE
:1026EC0000000000000000000000000000000000DE
:1026FC0000000000000000000000000000000000CE
:10270C0000000000000000000000000006000000B7
:10271C000030C00007DF0C30C30C30C30C30C30CCE
:10272C007FBC000000000000000000000000000062
:10273C00000000000000000000000000000000008D
:10274C00000000000000000000000000000000007D
:10275C00000000000000000B00000000000C0180D5
:10276C00300600C018030761CC719C3306C0F81901
:10277C008318638C3983B03800000000000000001F
:10278C00000000000000000000000000000000003D
:10279C00000000000000000000000000000000002D
:1027AC0000000200FFFFFFFFFC0000000000000023
:1027BC00000000000000000000000000000000000D
:1027CC0000000000000000000000000000000000FD
:1027DC0000000000000000000000000000000000ED
:1027EC0000000000000000000000000000100000CD
:1027FC0000000000000000000000000000000000CD
:10280C000000CE1CFF7EE3C7C183C183C183C1839B
:10281C00C183C183C183C183C183C1830000000014
:10282C00000000000000000000000000000000009C
:10283C000000000000000000090000000000000083
:10284C0000000000339FEE3E0F0783C1E0F0783CA0
:10285C001E0F060000000000000000000000000039
:10286C00000000000000000000000000000000005C
:10287C00000000000000000000000000000000004C
:10288C000000000B00000000000000000000000031
:06289C0000007C1FC71DB7
:1028A200C1F01E03C0780F01F0771C7F07C0000043
:1028B2000000000000000000000000000000000016
:1028C2000000000000000000000000000000000006
:1028D20000000000000000000A00000000000000EC
:1028E20000000000000CF3FEE1B03C0F03C0F03C1E
:1028F2000F06C3BFCDE300C0300C03000000000090
:1029020000000000000000000000000000000000C5
:1029120000000000000000000000000000000000B5
:102922000000000A0000000000000000000000009B
:1029320001ECFF70D83C0F03C0F03C0F8361DFF362
:10294200EC0300C0300C0300000000000000000097
:102952000000000000000000000000000000000075
:10296200000000000000000000000000000007005E
:1029720000000000000000033EFF183060C1830623
:102982000C183000000000000000000000000000F1
:102992000000000000000000000000000000000035
:1029A2000000000000000000000000000000000025
:1029B2000000000000000000000A0000000000000B
:1029C20000000000000003F1FEE0B00C01E03F81D6
:1029D200F00E03E1FFE3F000000000000000000041
:1029E20000000000000000000000000000000000E5
:1029F20000000000000000000000000000000000D5
:102A020000000000070000000000183060C3FFF65D
:102A12000C183060C1830607C78000000000000068
:102A220000000000000000000000000000000000A4
:102A32000000000000000000000000000000000094
:102A4200000000000000000000000000000000097B
:102A5200000000000000000000000030783C1E0F63
:102A62000783C1E0F0783E3BFCE600000000000076
:102A72000000000000000000000000000000000054
:102A82000000000000000000000000000000000044
:102A9200000000000000000000000C000000000028
:102AA20000000000000000000000C036066066065C
:102AB20030C30C3881981980F00F00F00600000036
:102AC2000000000000000000000000000000000004
:102AD20000000000000000000000000000000000F4
:102AE20000000000001200000000000000000000D2
:102AF2000000000000000000000000000C0C0F03AA
:102B02008361E19878661319CCC633330C86C361AE
:102B1200B078681C0E070381C0E0000000000000CE
:102B220000000000000000000000000000000000A3
:102B32000C00000000000000000000000000000087
:102B4200C0360630C1981980F00600F0198198301D
:102B5200C606C030000000000000000000000000B7
:102B62000000000000000000000000000000000063
:102B720000000000000000000000000C0000000047
:102B82000000000000000000000000C03606606681
:102B92000630C30C1981981980F00F00E00600601E
:102BA2000C00C018018000000000000000000000BE
:102BB2000000000000000000000000000000000013
:102BC20000000000000009000000000000000000FA
:102BD20000003FFFF0301818181C0C0C0C0607FF01
:102BE200FE000000000000000000000000000000E5
:102BF20000000000000000000000000000000000D3
:102C020000000000000000000000000000000000C2
:102C1200000A000000000003C1F0E0300C0300C015
:102C2200300C070383C0F00E01C0300C0300C0302B
:102C32000C03807C0F000000000000000000000078
:102C42000000000000000000000000000000000082
:102C52000000000000000000000000000200FFFF72
:102C6200FFFFFFFF00000000000000000000000066
:102C72000000000000000000000000000000000052
:062C82000000000000004C
:102C8800000000000000000000000000000000003C
:102C9800000000000000000000000000000000002C
:102CA800000A0000000000F03E01C0300C0300C024
:102CB800300C0380700F03C1C0E0300C0300C0303B
:102CC8000C070F83C0000000000000000000000097
:102CD80000000000000000000000000000000000EC
:102CE8000000000000000000000000000D000000CF
:102CF80000000000000000000000000000000000CC
:102D08000381BE0D987866C1F60700000000000038
:102D180000000000000000000000000000000000AB
:102D2800000000000000000000000000000000009B
:102D38000000000000000009000000000001F1FD93
:102D4800C7C1E0F07C77F1F000000000000000004F
:102D5800000000000000000000000000000000006B
:102D6800000000000000000000000000000000005B
:102D7800000000000000000000000000000000004B
:102D88000000140000000000000000000000000027
:102D98001F8006060180183000C20F8443FC2430CF
:102DA80042860018600186001860018600183041CC
:102DB80043FC240F82200043000C1801806060014E
:102DC800F80000000000000000000000000E0000F5
:102DD8000000000000000000003000C003000C00EC
:102DE8003000C0FFFFFFF03000C003000C00303F90
:102DF800FFFFFC00000000000000000000000000D1
:102E080000000000000000000000000000000000BA
:102E1800000000000000000002003FFFFFF03C003F
:102E2800000000000000000000000000000000009A
:102E3800000000000000000000000000000000008A
:102E4800000000000000000000000000000000007A
:102E5800000000000000000000000000000000006A
:102E680000000002003FFFFFF03C000000000000EF
:102E7800000000000000000000000000000000004A
:102E8800000000000000000000000000000000003A
:102E9800000000000000000000000000000000002A
:102EA8000000000000000000000000000000020018
:102EB8003FFFFFF03C0000000000000000000000A1
:102EC80000000000000000000000000000000000FA
:102ED80000000000000000000000000000000000EA
:102EE80000000000000000000000000000000000DA
:102EF80000000000000000000002003FFFFFF03C5F
:102F080000000000000000000000000000000000B9
:102F180000000000000000000000000000000000A9
:102F28000000000000000000000000000000000099
:102F38000000000000000000000000000000000089
:102F48000000000002003FFFFFF03C00000000000E
:102F58000000000000000000000000000000000069
:102F68000000000000000000000000000000000059
:102F78000000000000000000000000000000000049
:102F88000000000000000000000000000000000237
:102F9800003FFFFFF03C00000000000000000000C0
:102FA8000000000000000000000000000000000019
:102FB8000000000000000000000000000000000009
:102FC80000000000000000000000000000000000F9
:102FD8000000000000000000000002003FFFFFF0BA
:102FE8003C0000000000000000000000000000009D
:102FF80000000000000000000000000000000000C9
:1030080000000000000000000000000000000000B8
:1030180000000000000000000000000000000000A8
:1030280000000000000A00000000000381C06030BA
:10303800000003F1FE41C0300C7F7FFC3C0F03E32E
:10304800DFF3CC00000000000000000000000000DA
:103058000000000000000000000000000000000068
:0630680000000000000062
:10306E00000000000000000000000A000000000048
:10307E0030C660F03C000001F0FE70B80C0300C0DA
:10308E00300C0382718FE1F00000000000000000A0
:10309E000000000000000000000000000000000022
:1030AE000000000000000000000000000000000012
:1030BE00000000000010000000000000000000678B
:1030CE00006600660064006C006C1F603FE070E0FC
:1030DE006060C060C060C060C060C060E06061E001
:1030EE007FE01E60000000000000000000000000F5
:1030FE0000000000000000000000000000000000C2
:10310E000B0000000000001C0700C0300000007C17
:10311E001FE70CC0F01FFFFFF803007017067FC3F8
:10312E00E0000000000000000000000000000000B1
:10313E000000000000000000000000000000000081
:10314E0000000000000000000000000B0000000066
:10315E0000030C3303C0780000007C1FE70CC0F0A6
:10316E001FFFFFF803007017067FC3E0000000008A
:10317E000000000000000000000000000000000041
:10318E000000000000000000000000000000000031
:10319E0000000000000005000003B99800318C63A8
:1031AE0018C6318C63000000000000000000000013
:1031BE000000000000000000000000000000000001
:1031CE0000000000000000000000000000000000F1
:1031DE0000000000000000000000000000000000E1
:1031EE00000900000000061998783C0000339FEE9D
:1031FE003E0F0783C1E0F0783C1E0F060000000072
:10320E0000000000000000000000000000000000B0
:10321E0000000000000000000000000000000000A0
:10322E000000000000000000000000000B00000085
:10323E000000001C0700C0300000007C1FC71DC12D
:10324E00F01E03C0780F01F0771C7F07C00000004E
:10325E000000000000000000000000000000000060
:10326E000000000000000000000000000000000050
:10327E00000000000000000800000000C3663C3C97
:10328E000000CEDEF0C0C0C0C0C0C0C0C0C0C00014
:10329E000000000000000000000000000000000020
:1032AE000000000000000000000000000000000010
:1032BE000000000000000000000000000000000000
:1032CE0000000A0000000000618CC1E078000003DD
:1032DE00F1FEE0B00C01E03F81F00E03E1FFE3F000
:1032EE0000000000000000000000000000000000D0
:1032FE0000000000000000000000000000000000C0
:10330E00000000000000000000000000000A0000A5
:10331E0000000001C06619846318CFC3F060180660
:10332E0001806018060180600F81E000000000003F
:10333E00000000000000000000000000000000007F
:10334E00000000000000000000000000000000006F
:10335E000000000000000000090000000000707076
:10336E003030000030783C1E0F0783C1E0F0783E0D
:10337E003BFCE60000000000000000000000000022
:10338E00000000000000000000000000000000002F
:10339E00000000000000000000000000000000001F
:1033AE00000000090000000383E3198CC63E0E30B6
:1033BE00783C1E0F0783C1E0F0783E3BFCE6000030
:1033CE0000000000000000000000000000000000EF
:1033DE0000000000000000000000000000000000DF
:1033EE0000000000000000000000000000000B00C4
:1033FE000000000000701C0300C000000201E06C21
:10340E000D8198630C330660CC0F01E03803006029
:10341E00180300C0180000000000000000000000AB
:10342E00000000000000000000000000000000008E
:10343E000000000000000000000900000000061956
:06344E0098783C00003FED
:10345400FFF0301818181C0C0C0C0607FFFE0000B7
:103464000000000000000000000000000000000058
:103474000000000000000000000000000000000048
:1034840000000000000000000000000000000D0328
:103494008038018018000007803C01E00900CC0658
:1034A4006033030C1860C30C0C7FE3FF300D806C99
:1034B40003601E0060000000000000000000000027
:1034C40000000000000000000000000000000000F8
:1034D4000000000000000000000C1860CC07807899
:1034E4000000FC1FF383701600E00C00C00C00C049
:1034F4000C00C00E006007013831FF0FC00000004F
:1035040000000000000000000000000000000000B7
:1035140000000000000000000000000000000000A7
:10352400000000000D30C0CC03C01E00007F83FFEC
:10353400183CC07601B00F803C01E00F007803C056
:103544001E01B00D80EC1E7FE3FC000000000000B3
:103554000000000000000000000000000000000067
:103564000000000000000000000000000000000A4D
:103574000381C06030003FFFFF00C0300C0300FF38
:10358400BFEC0300C0300C0300C03FFFFC00000090
:103594000000000000000000000000000000000027
:1035A4000000000000000000000000000000000017
:1035B400000000000000000000000A618CC1E078F7
:1035C400003FFFFF00C0300C0300FFBFEC0300C04E
:1035D400300C0300C03FFFFC0000000000000000AE
:1035E40000000000000000000000000000000000D7
:1035F40000000000000000000000000000000000C7
:103604000000000000061CE31803FFCC30C30C309C
:10361400C30C30C30C33FFC00000000000000000E6
:103624000000000000000000000000000000000096
:103634000000000000000000000000000000000086
:103644000000000000000000000000000000000076
:103654000C30C1980F00F0000E03F03F03F83D83D7
:10366400DC3CC3CE3C63C73C33C3BC1BC1FC0FC0B2
:10367400FC07C07000000000000000000000000013
:103684000000000000000000000000000000000036
:1036940000000000000000000000000F00E00380B4
:1036A400060018000000F807FC1C1C701CC01B80DE
:1036B4003E003C007800F001E003C007C01D8033E9
:1036C40080E38383FE01F00000000000000000009E
:1036D40000000000000000000000000000000000E6
:1036E4000000000000000D30C0CC03C01E00007FAD
:1036F40083FF1818C06603301980CC0C60E3FE1FEA
:10370400C0C3061C3061818C06603B00E0000000F1
:1037140000000000000000000000000000000000A5
:103724000000000000000000000000000000000095
:10373400000B30C3303C0780003F1FF306C0580322
:1037440000700780FE07F00F00600C01C03E0DFF03
:103754000FC0000000000000000000000000000096
:103764000000000000000000000000000000000055
:103774000000000000000000000000000D30C0CC7C
:1037840003C01E00007FFFFFE0C006003001800C74
:10379400006003001800C006003001800C006003C4
:1037A40000180000000000000000000000000000FD
:1037B4000000000000000000000000000000000005
:1037C400000000000000000C01C038030060000C81
:1037D40003C03C03C03C03C03C03C03C03C03C03E7
:1037E400C03C03C03E0770E3FC1F800000000000E3
:1037F40000000000000000000000000000000000C5
:1038040000000000000000000000000000000000B4
:1038140000000C0F818C18C18C0F8C73C03C03C04A
:103824003C03C03C03C03C03C03C03C03C03C03E5B
:063834000770E3FC1F8099
:10383A00000000000000000000000000000000007E
:10384A00000000000000000000000000000000006E
:10385A00000000000000000D0380380180180000FD
:10386A00601F00DC0E6061860C703301F807801857
:10387A0000C006003001800C006003001800000040
:10388A00000000000000000000000000000000002E
:10389A00000000000000000000000000000000001E
:1038AA0000000B30C3303C078001FFFFF80300C063
:1038BA0030060180600C0300E0180600C0300C01DD
:1038CA00FFFFF800000000000000000000000000F8
:1038DA0000000000000000000000000000000000DE
:0D38EA0000000000000000000000000000D1
:10A26C00D2C67F017E0012E303C2C67F037E0012BA
:10A27C00E303D2A1C2A77F0A7E0012E3037F401240
:10A28C00F40C7F0A7E0012E3037F4012F40CC2A18F
:10A29C00758032D2A1C2A1758087D2A1C2A175806E
:10A2AC0007D2A1C2A1758027D2A1C2A1758039D2D3
:10A2BC00A1C2A17580EFD2A1C2A1758028D2A1C282
:10A2CC00A1E4F580D2A17F4412F40CC2A1E4F58084
:10A2DC00D2A1C2A1F580D2A1C2A17580EFD2A1C238
:10A2EC00A1758080D2A1C2A1758025D2A1C2A17511
:10A2FC0080EFD2A1C2A1F580D2A1C2A1F580D2A1DA
:10A30C00C2A1F580D2A1C2A1F580D2A17F5A12F4CC
:10A31C000CC2A1E4F580D2A17F5B12F40CC2A17532
:10A32C00800DD2A17F5812F40C7F4F12F40C12ED59
:10A33C00897F5912F40CC2A1758014D2A1E4FF12CA
:10A34C00E43ED20612001ED20212E0EBC20612004C
:0DA35C001ED20212E0EBD208D209D2A722D5
:10EA39007E00300A067A257B8080047A007B00EB11
:10EA49002FFBEA3EFAED75F028A42BFFE5F03AFE1C
:01EA5900229A
:05001E00A206920A2277
:10E43E00EF24FE60111460151460192404701B750E
:10E44E00650475669E2275650B7566672275650F88
:0BE45E0075666022756511756661220D
:10E4BF00AC07ED75F028A4FFAEF0300A067A257B85
:10E4CF008080047A007B00EF2BF568EE3AF567EC5D
:0AE4DF002568F568E43567F567224B
:10EB1E00D2A1C2A7E4FFFE7D807C25FB12DDBE7F65
:0FEB2E00807E257D807C25E4FB12DDBED2A722F0
:10E0EB00D2A1C2A7200A06A20292088004A2029221
:10E0FB00097F5912F40CC2A13009047F1080027FF2
:10E10B00003008047E0480027E00EE4FF580D2A121
:03E11B00D2A72266
:10D9BC008F308D318B32D2A1C2A7E4F533E533C35E
:10D9CC009530502AAF68AE6712EE1F7F4212F40CEE
:10D9DC00E4FFEFC39531500AC2A1853280D2A10F6A
:10D9EC0080F00568E56870020567053380CFD2A723
:01D9FC002208
:10D218008E358F368D378B38D2A1C2A7E4F539E524
:10D2280039C395375039AF68AE6712EE1F7F421287
:10D23800F40CE4FFEFC395385019C2A185368285F6
:10D248003583E493F580D2A10536E53670020535BD
:10D258000F80E10568E56870020567053980C0D26E
:02D26800A722FB
:10EEDF00AE07AF05856682856583A3E493FDEE8D4E
:07EEEF00F0A4FD12E4BF22B4
:109A06008F34E534640A7034AE67AF68FC7D281283
:109A16007A958E678F687C007D28127A818E678F93
:109A260068856682856583A3E49375F028A4AEF005
:109A36002568F568EE3567F567AF34228566828559
:109A46006583E493FF131313541FFAE534640D7012
:109A560023EAFFC3E5689FF568E5679400F567A309
:109A6600E49375F028A4AEF02568F568EE3567F541
:109A760067AF3422E534700DEA2568F568E435678A
:109A8600F567AF3422E53424E0601B24F260282415
:109A9600F46035240D7042856682856583A3A3A391
:109AA600E493F5348044E5662404F582E43565F5EF
:109AB60083E493F5348033E5662405F582E4356561
:109AC600F583E493F5348022E5662406F582E435D1
:109AD60065F583E493F5348011856682856583A3F5
:109AE600A3E493FFC3E5349FF534856682856583D9
:109AF600A3E493FBEA8BF0A4FFAEF0AD34ED33950F
:109B0600E0FC127A81E5662407F582E43565F58383
:109B16007401932FFFE4933EFEAD0212D218AF34C8
:019B2600221C
:0BF40C00D2EEC2A18F80D2A1C2EE227E
:10ED8900E4FFFE7D807C25FB12DDBE7F807E257D34
:09ED9900807C25E4FB12DDBE22A2
:10EE1F00AD07AC067F4612F40CC2A1EDF580D2A16E
:08EE2F00C2A1ECF580D2A12282
:10DDBE008E2E8F2F8C308D317F4C12F40CAF2FAEF8
:10DDCE002E12EE1F7F4212F40CE4FFFEC3EF9531CC
:10DDDE00EE9530500DC2A18B80D2A10FBF00010E67
:08DDEE0080EA7F4F12F40C22C1
:1084D40000000800C400800029000100B800C400A6
:1084E4008000290084D402030F0101010F0F010150
:1084F4000100000000000103808080F0F081838689
:108504000C183060C3830000003060C0800000009D
:10851400000000FCFC0005283F40808080808080B3
:108524008080808080808080808080808080808047
:108534008080808080808080808080808080403FB8
:10854400FF00000000000000000000000000000028
:1085540000000000000010381C0E0703010000009A
:1085640000000000000000FFFF0000000000000009
:10857400000000000000000000000103070E1C388A
:1085840070E0C0800000000000000000000000FF58
:10859400FF0000000000000000000000040E1C3872
:1085A40070E0C08000000000000000000000000037
:1085B40000000000000000FFFC02010101010101B4
:1085C4000101010101010101010101010101010197
:1085D400010101010101010101010101010102FC8B
:1085E40005283F40808080808080808080808080DB
:1085F4008080808080808080808080808080808077
:108604008080808080808080403FFF0000000000E8
:108614000000000000081C0E070301000000000019
:10862400000103070E1C0800000000000000000009
:1086340000FFFF0000000000000000000000000038
:108644000081C3E77E3C3C7EE7C38100000000005C
:10865400000000000000000000FFFF000000000018
:108664000000000000103870E0C08000000000002E
:108674000080C0E07038100000000000000000001E
:1086840000FFFC02010101010101010101010101DD
:1086940001010101010101010101010101010101C6
:1086A400010101010101010102FC0700C0004B00AE
:1086B400280028000800E8004B00280028000901D1
:1086C40010004B00280028000400C000730028009C
:1086D40028000500E80073002800280006011000A7
:1086E4007300280028000100C0009B002800280017
:1086F4000200E8009B0028002800030110009B00F2
:10870400280028000A00C000C30028002800000038
:10871400E800C300280028000B011000C300280053
:1087240028000C002000C400280028000D00780058
:09873400C4002800280086AE0EE6
:10E469008D378B38D2A1C2A712EA3912EE1F7F422B
:10E4790012F40CE4F537E537C39538500BC2A18582
:0BE489003980D2A1053780EED2A72217
:10E083008D238B24D2A1C2A712EA3912EE1F7F423D
:10E0930012F40CE4F523E523C395245014C2A1859F
:10E0A3002580D2A1C2A1E4F580D2A1052305238056
:04E0B300E5D2A722E9
:10DBB1008F368D378B38D2A1C2A77F4C12F40CAFB0
:10DBC10036AD3712EA3912EE1F7F4212F40CE4F53A
:10DBD10036E536C39538500BC2A1853980D2A105EF
:0BDBE1003680EE7F4F12F40CD2A7221A
:10EA5A008A308B3112E4BFE5312402FFE43530FEFF
:10EA6A00853182853083E493FDA3E493FB12D218A7
:01EA7A002279
:107D31008E3A8F3B8D3C8B3DC2067540017980D2D6
:107D41000774E0253DF53DE53B7803CEC313CE1323
:107D5100D8F9F54275F008A4FFC3E53B9FFFE53A6A
:107D610095F08F43E4F53FE543D39400401C7461E3
:107D7100253FF582E43403F583E0FF74E0253FF508
:107D810082E43402F583EFF0800D74E0253FF58243
:107D9100E43402F583E4F0753E01E53E75F01CA480
:107DA10024E0F582E43402F583E582253FF582E49F
:107DB1003583F583E4F0053EE53EB404DD053FE59A
:107DC1003FB41CA375F04BE53DA4246BF582E5F0AF
:107DD1003411F583E493F5419002E0E0FFE4F544CA
:107DE100F545754880F53EE53EC39543500AE548A3
:107DF100C313F548053E80EFE4F53FAE4885433EA9
:107E010075F04BE53DA4246AF582E5F03411F58364
:107E1100E4932543FDE433FCC3E53E9DEC6480F827
:107E21007480984003027EDEE53FD395454002D23F
:107E310006E53FD394F04002C207300654C2063033
:107E41000721E544131313541F75F01CA424E0F516
:107E510082E43402F583E5822545F582E43583F534
:107E610083EFF0D207E53EB54304AE4880027E8041
:107E7100E53E131313541F75F01CA424E0F582E4AE
:107E81003402F583E582253FF582E43583F583E00D
:107E9100FFE541596003EE4207BE01067E80D2062E
:107EA1008004EEC313FEB901250540798075F04BBE
:107EB100E53DA4246AF582E5F03411F583E58225D8
:107EC10040F582E43583F583E493F5418004E9C309
:107ED10013F9853E44853F45053E027E01053FE598
:107EE1003F641C6003027DFCE544131313541F75AA
:107EF100F01CA424E0F582E43402F583E5822545F3
:107F0100F582E43583F583EFF0D2A1C2A7AF42AD8C
:107F11003C12EA398E468F4712EE1FE4F53E75F0AA
:107F21004BE53DA4246AF582E5F03411F583E49331
:107F31002543FF131313541F2401FFE433FEC3E54C
:107F41003E9FEE6480F87480985043AF47AE46126E
:107F5100EE1F7F4212F40CE4F53FC2A1E53E75F03D
:107F61001CA424E0F582E43402F583E582253FF583
:107F710082E43583F583E0F580D2A1053FE53FB486
:107F81001CD80547E54770020546053E8090D2A7FB
:107F9100E4F53F75F04BE53DA4246AF582E5F03444
:107FA10011F583E4932543FF131313541F75F01C3C
:107FB100A424E0F582E43402F583E582253FF582CD
:107FC100E43583F583E0FF7461253FF582E43403F2
:0C7FD100F583EFF0053FE53FB41CB8223B
:0D000E00E4FF7F1C900361E4F0A3DFFC22FF
:10B583008E2C8F2D8D2E8B2F8A308931E94A4B706B
:10B593000302B63312000EE4F532AF2DAE2CAD2EFE
:10B5A300AB2FAA30A931853282758300127A54FBFE
:10B5B300127D31AF2DAE2CAB2FAA30A9318532824B
:10B5C300758300127A5475F04BA4240AF582E5F0D2
:10B5D3003408F583E493FD7C002402FBEC33FAEB9F
:10B5E300252DF52DEA352CF52CED2FFFEC3ECF2440
:10B5F300FFCF34FFFEEF7803CEC313CE13D8F9FD8C
:10B60300AC06E52DAE2C7803CEC313CE13D8F9FFC9
:10B61300C3ED9FEC9E500312000E0532AB2FAA30F0
:10B62300A931853282758300127A54600302B59D75
:01B6330022F4
:1098E3008E318F328D338B348A358936E4FFAB3436
:1098F300AA35A9368F82758300127A54FE600560FB
:10990300030F80EAE4F538F539F537E537C39F509F
:1099130033AB34AA35A936853782758300127A545E
:1099230075F04BA4240AF582E5F03408F583E4933B
:109933002402FDE433FCED2539F539EC3538F538EF
:10994300053780C774FE2539F53974FF3538F53886
:10995300C313FEE53913FFC3E5329FF532E5319EAC
:10996300F53112000EE4F537AF32AE31AD33AB341F
:10997300AA35A936853782758300127A54FB127D86
:1099830031853138853239AB34AA35A936853782EA
:10999300758300127A5475F04BA4240AF582E5F01E
:1099A3003408F583E493FF7E002402FDEE33FCEDDF
:1099B3002532F532EC3531F531E5392FCFEE353837
:1099C300CF24FFCF34FFFEEF7803CEC313CE13D8DB
:1099D300F9FDAC06E532AE317803CEC313CE13D80E
:1099E300F9FFC3ED9FEC9E500312000E0537AB3415
:1099F300AA35A936853782758300127A546003022B
:039A0300996B223A
:10969A008F318D328B3320012E753501AF31E53292
:1096AA002535FDAB33E4F53912DBB1AF31E53225AF
:1096BA003414C39535FDAB33E4F53912DBB1053506
:1096CA00E535D3940240D5300113AF31E53204FDBC
:1096DA00E53424FEFB7539E012E4698011AF31E507
:1096EA003204FDE53424FEFB75398012E469300149
:1096FA0017E531253314FFE53204FDE53424FEFB7A
:10970A0075390712E4698015E531253314FFE5320E
:10971A0004FDE53424FEFB75390112E469AF31AD6D
:10972A00327B0175397F12DBB1E53104FFAD32E5D9
:10973A003324FEFB7539FF12DBB1E531253314FF03
:10974A00AD327B017539FE12DBB1AF31E53225341A
:10975A0014FD7B0175397F12DBB1E53104FFE53277
:10976A00253414FDE53324FEFB7539FF12DBB1E520
:10977A0031253314FFE532253414FD7B017539FE9A
:10978A0012DBB130012E753501AF31E5322535FDD9
:10979A00AB337539FF12DBB1AF31E532253414C36F
:1097AA009535FDAB337539FF12DBB10535E535D398
:0597BA00940240D522DD
:10DFE4008F2C8D2D8B2E753429C20112969AE52E15
:10DFF40075F008A4FFC313FD7C00E52C75F008A49C
:10E004002DFFEC35F0FEE52D2406FDAA2FA9307B6B
:05E01400FF1298E32259
:10EB3D007F017DC4752F397530F47B1012DFE47FB2
:0FEB4D00177DC4752F397530FA7B1012DFE42263
:10EB5C007F017DC4752F397530F17B1012DFE47F96
:0FEB6C00177DC4752F397530FA7B1012DFE42244
:10EB7B007F017DC4752F3A7530017B1012DFE47F66
:0FEB8B00177DC4752F3A7530057B1012DFE42219
:10E1E5008F2C12E04EEF24F860210470F57E847FB9
:10E1F500E812B02CEF14600E0470E7E52C640160A2
:10E20500E112F37BD32212F37BC32212F37BC322E9
:109301007F187D4B7BA075398012E46930020E7F96
:109311001D7D4B7BA075398012E469800C7F1D7D1A
:109321004B7B7875398012E4697F227D4B7BA07578
:10933100398012E4697F277D4B7BA175398012E466
:1093410069E4F52EF52F7F18E52F75F028A4244B3D
:10935100FD7B0F7539FF12DBB1052FE52F7002057B
:109361002EC3E52F9405E52E940040DAE4F52EF5A1
:109371002FD3E52F9400E52E9400401CAE2EAF2F85
:109381007C007D28127A81EF24D0FFE43EFE7DA28D
:10939100E52F2431FB127D31AE2EAF2F7C007D28CD
:1093A100127A81EF24D0FFE43EFE7D7AE52F24344A
:1093B100FB127D31AE2EAF2F7C007D28127A81EF1A
:1093C10024D0FFE43EFE7D52E52F2437FB127D3190
:1093D100052FE52F7002052EC3E52F9403E52E948A
:1093E10000408E12000E7FD27E007DA27B31127D65
:1093F100313002187FF87E007DCA7B30127D317FCB
:10940100197DD07A847BEB12EA5A800E12000E7F0E
:10941100E37E007DCA7B30127D317F237DD27A3D90
:109421007BE612EA5A7F047DC47A857B1A12EA5AD6
:0C9431007F0F7DC47A857BE412EA5A228A
:10EA7B007E877F3A12B02CAE07EE24F66007240B8C
:10EA8B00700C7FFF223006037F0A227F0022AF0625
:01EA9B002258
:106345008F2C8D2D8B2ED202C203C204AF1EAE1D23
:10635500AD1CAC1B90035D127CAEE4F52F7F0412DF
:10636500E43EE52EB40907D204752E088030E52EEB
:10637500B40A07D203752E048024E52ED3940A406F
:106385001DE52E540FF52FD394074003E4F52FE5B3
:106395002EC4540FF52ED394084003752E08E51B23
:1063A50030E720D205AF1EAE1DAD1CAC1B127C60C4
:1063B500EF2401F51EE43EF51DE43DF51CE43CF536
:1063C5001B8002C205E52E25E0900350F03004063F
:1063D500E02404F08011200307E52FD39400400743
:1063E500900350E02402F0AF1EAE1DAD1CAC1B1295
:1063F500DABC8F1E8E1D8D1C8C1BAF1B12F43D90BD
:106405000358EFF0AF1B12F438900357EFF0AF1CB1
:1064150012F43D900356EFF0AF1C12F4389003557B
:10642500EFF0AF1D12F43D900354EFF0AF1D12F4E1
:1064350038900353EFF0AF1E12F43D900352EFF086
:10644500AF1E12F438900351EFF0900359E52EF08A
:10645500900359E0FFC39408501474512FF582E45A
:106465003403F583E4F0900359E004F080E2D206AA
:1064750012001EE52C14FFAD2D12E4BF900350E071
:106485002402FF7D1C7BFF12D9BCC20612001EE54B
:106495002E14900359F012E04EEF24F870030266B3
:1064A500C60460030266E0E55D60030266E0A201E2
:1064B500920612EA7B90035CEFF0C3940A503B12FC
:1064C500F37B90035CE0FF900359E0FE2451F582D5
:1064D500E43403F583EFF0EED394004008900359BC
:1064E500E014F08007E52E14900359F0D2029003D2
:1064F5007D7401F0E4A3F00266E090035CE024F60D
:10650500604024FE6060146043240260030266E07C
:1065150012F37BE4900359F0900359E0FFC394080C
:10652500501474512FF582E43403F583E4F090039D
:1065350059E004F080E2E52E14900359F0D20202EE
:1065450066E012F37BB205D2020266E090035DE0DD
:10655500FCA3E0FDA3E0FEA3E0F51E8E1D8D1C8CC3
:106565001B12F37BC32212F37B900357E0FFE4FC7D
:10657500FDFE7B407A42790FF8127B43C004C005CB
:10658500C006C007900358E0FFE4FCFDFE7B807A5F
:10659500967998F8127B43D003D002D001D000EF52
:1065A5002BFFEE3AFEED39FDEC38FCC004C005C00A
:0665B50006C0079003562A
:1065BB00E0FFE4FCFDFE7BA07A867901F8127B43B9
:1065CB00D003D002D001D000EF2BFFEE3AFEED3915
:1065DB00FDEC38FCC004C005C006C007900355E0B5
:1065EB00FFE4FCFDFE7B107A27F9F8127B43D00306
:1065FB00D002D001D000EF2BFFEE3AFEED39FDECCF
:10660B0038FCC004C005C006C007900354E0FFE48B
:10661B00FCFDFE7BE87A03F9F8127B43D003D00232
:10662B00D001D000EF2BFFEE3AFEED39FDEC38FC3C
:10663B00C004C005C006C007900353E0FFE4FCFD97
:10664B00FE7B64FAF9F8127B43D003D002D001D061
:10665B0000EF2BFFEE3AFEED39FDEC38FCC004C029
:10666B0005C006C007900352E0FFE4FCFDFE7B0A69
:10667B00FAF9F8127B43D003D002D001D000EF2BF4
:10668B00FBEE3AFAED39F9EC38F8900351E0FFE400
:10669B00FCFDFEEB2FF51EEE3AF51DED39F51CEC6E
:1066AB0038F51B300513AF1EAE1DAD1CAC1B127C99
:1066BB006D8F1E8E1D8D1C8C1BD32290035DE0FCF9
:1066CB00A3E0FDA3E0FEA3E0F51E8E1D8D1C8C1B2D
:1066DB0012F37BC32290037EE06004D202E4F0202D
:1066EB00020302649BC202AF2CE52D2405FD12E4CC
:1066FB00BF900350E0FF7D12E4FB12D9BC90035016
:10670B00E0FF252CFFE433CF24FE90035BF0EF3446
:10671B00FF90035AF0E490035CF090035CE0FFC33E
:10672B00952E400302680430042BEF64046004EFE1
:10673B00B4062290035BE0FFE52D2405FD12E4BFB8
:10674B007F2E129A0690035BE024FEF090035AE032
:10675B0034FFF0805A30032990035CE0B40222909E
:10676B00035BE0FFE52D2405FD12E4BF7F3A129A8F
:10677B000690035BE024FEF090035AE034FFF080B8
:10678B002EE52FD39400402790035CE0B52F20908B
:10679B00035BE0FFE52D2405FD12E4BF7F2E129A6B
:1067AB000690035BE024FEF090035AE034FFF09078
:1067BB00037DE0700C900359E0FF90035CE06F6089
:1067CB002190035BE0FFE52D2405FD12E4BF900350
:1067DB005CE02451F582E43403F583E02430FF12AE
:1067EB009A0690035BE024FEF090035AE034FFF02E
:1067FB0090035CE004F002672520010302649BE533
:10680B002C24FCFFAD2D12E4BF7F037D14E4FB129F
:10681B00D9BC12000E300518E52C75F008A424E73E
:10682B00FFE5F034FFFEAD2D7B2D127D3102649B15
:10683B00E52C75F008A424E3FFE5F034FFFEAD2D45
:09684B007B2B127D3102649B22BB
:03E1830001160082
:10DDF600C2AE75B740E4F5D875D902F5E9F5F9F57F
:10DE0600DAF5DBF5DCF5DDF5DEC295D294F508F53D
:10DE160011F50BF50CF512F513F51775090A75DBF7
:08DE260011D296D2DED2AE2229
:10B634008E388F397B507AC3EDC313FFEBAE02A86B
:10B6440007088005CEC313CE13D8F9FBAA06ED3044
:10B65400E00FAF037C007D07127A95AA06AB078042
:10B664000FAE02AF037C007D05127A95AA06AB07E4
:10B67400AE02AF03E4FCFDF8F9AE38AF39127B43F8
:10B684007B207A4E79007800127BCE8E0D8F0EC30C
:10B69400E50E9441E50D94005006750D00750E41BC
:10B6A400C3E539950EF510E538950DF50FC3E51092
:10B6B4009401E50F94005006750F00751001C2AF98
:10B6C400C2A485E93B85F93AE50E253BF53BE50D3A
:10B6D400353AF53A853BED853AFD75DD49D2AF2221
:04F52800E4F5DD2207
:10CC5E00E4250CFDE50B3402FCED65137003EC6569
:10CC6E0012604F53DBFEE51770297517018F19758A
:10CC7E000A0AC2AF85E95285F95174E02552F55280
:10CC8E0074013551F5518552EA8551FA75DA49D25A
:10CC9E00AF801C0513E513AC127002051214FDECE7
:10CCAE005401FC74202DF582EC3400F583EFF04333
:03CCBE00DB012275
:10E151007D007C04AE11E5086E601C53DBFEAE0849
:10E161000508EE541F2400F582E43400F583E0A88D
:10E1710007F643DB01D322ED1D70011C144C70D452
:02E18100C322B7
:10E851007D017C000F75A61E75A6E1AE11E5086E5F
:10E861006002D322ED1D70011C144C70EE7C50FD32
:04E87100DFE3C322FC
:10E6AF007F287E0375A61E75A6E1AD11E5086D6086
:10E6BF000C53DBFE050843DB017E037F28EF1F7041
:07E6CF00011E144E70DE2253
:10E4E9008F1475150AC2AF85E94B85F94A74E02581
:10E4F9004BF54B7401354AF54A854BEC854AFC7559
:0AE50900DC49D2AFE5DC20E0FB2284
:03003300028E9D9D
:108E9D00C0E0C083C082C0D075D000C006C007300E
:108EAD00DB2DC2DB85ED5485FD5330A40EE50E257B
:108EBD0054F554E50D3553F553800CE5102554F557
:108ECD0054E50F3553F5538554ED8553FDB2A4206C
:108EDD00D903028F66C2D985EB5485FB53E5DB546C
:108EED0030601974F02554F554E43553F553855419
:108EFD00EB8553FB75DB49751800805D74E02554D7
:108F0D00F55474013553F5538554EB8553FBE50941
:108F1D00B40A0C30940575DB11803E1509803A15A5
:108F2D0009AF09EF702775090A75DB1130942AE531
:108F3D00082420B511020508AF110511EF541F24A7
:108F4D0000F582E43400F583E518F0800CE518C3D4
:108F5D0013F51830940343188030D872C2D885EABF
:108F6D005485FA5374E02554F55474013553F55373
:108F7D008554EA8553FAE50AB40A06D295150A8096
:108F8D004DE50A7036E50CB5130DE50BB5120875F8
:108F9D00170075DA008037050CE50CAE0B70020575
:108FAD000B14FFEE5401FE74202FF582EE3400F504
:108FBD0083E0F519750A09D2958055D50A04C29535
:108FCD00800CE51913B39295E519C313F51930DA31
:108FDD003FC2DA85EC5485FC5374E02554F5547486
:108FED00013553F5538554EC8553FCE515B40A064C
:108FFD00C2961515801AE5157004F5DC8012D5158D
:10900D0004D296800BE514139296E514C313F51450
:0D901D00D007D006D0D0D082D083D0E03272
:10EADE00D2C3C2B3C297D2C4D2B2C2C3E4FFD2B3BE
:10EAEE00C2B30FBF12F87FD012D827E4F55FD3223E
:10ADA000E55F14700302AE4804600302AE7F30B268
:10ADB00002C3227F5512C91A7F5712C6F07F0F7E39
:10ADC0000012E30320B20E7F3812C91A50077F3AEF
:10ADD00012C6F04002C322D3E5399556E5389555A1
:10ADE000400DC3E5399556FFE5389555FE800BC3F8
:10ADF000E5569539FFE5559538FED3EF9405EE9469
:10AE000000502CD3E53B9558E53A9557400DC3E5E6
:10AE10003B9558FFE53A9557FE800BC3E558953BA7
:10AE2000FFE557953AFED3EF9405EE94004002C338
:10AE300022755F01755E2385385985395A853A5BDD
:10AE4000853B5CE4F55DD32230B205E4F55FC322B7
:10AE5000E55E6002C3227F3812C91A50077F3A129A
:10AE6000C6F04005E4F55FC322755F01755E0F858E
:10AE7000385985395A853A5B853B5C755D01D3222B
:10C91A008F3C7FD07D3D12C986E433F53FD3E53E97
:10C92A00946FE53D9401500BA83CE4F608F6E53F08
:10C93A0024FF22C3E53E9446E53D940E400CA83CF4
:10C94A00760108763FE53F24FF227491253EF53EA5
:10C95A0074FE353DF53DFEAF3EE4FCFD7B3F7A01BA
:10C96A00F9F8127B437BD77A0C79007800127BCED8
:0CC97A00A83CA60608A607E53F24FF2203
:10C6F0008F3C7F907D3D12C986E433F53FD3E53E04
:10C7000094DEE53D9401500CA83C76000876EFE5F8
:10C710003F24FF22C3E53E9404E53D940E400BA860
:10C720003CE4F608F6E53F24FF227422253EF53E60
:10C7300074FE353DF53DFEAF3EE4FCFD7BEFFAF9BE
:10C74000F8127B437B267A0C79007800127BCEC3EB
:10C7500074EF9FFFE49EA83CF608A607E53F24FF80
:01C7600022B6
:10D82700C2B3C297D2C4C2C3E4FDEF339297D2B357
:10D83700EF25E0FFC2B30DBD08F0C297D2B300C217
:10D84700B3E4FBFAFDEB25E0FBEA33FAD2B330C4CD
:10D8570003430301C2B30DBD0CEBD2C3D2B3D297BE
:05D86700AE02AF032238
:10C986008D40AC07EC4403FF12D82774FFF543F53E
:10C9960044E4F545F9EC4403FF12D8278E418F4253
:10C9A600D3E5429544E5419543400DC3E5429544A0
:10C9B600FFE5419543FE800BC3E5449542FFE54301
:10C9C6009541FEC3EF9405EE940050057545018030
:10C9D6000A85414385424409B9FABAA840A64108E6
:0CC9E600A642AF0412D827E54524FF222A
:07F4C300C2E8D282D2A322AD
:10E9B100D282C2E8C282D2A3D282E4FFFEC2E8EFD1
:10E9C10025E0FF30A303430701D2E80EBE08EEC2E3
:02E9D100E8223A
:0EF2F400D2B5C297D2C4C2B3E4FF12F1C22257
:10F1C200C2B3C297D2C4C2B512EA9CD2B5EFF4FF61
:01F1D200221A
:10EA9C00E4FEFDD2B3EE25E0FEEF33B3929730C423
:10EAAC0003430601C2B3EF25E0FF0DBD08E5AF0639
:01EABC002237
:10EEF60012F13230E902C322D2E912F4CA20E90241
:07EF0600C32212F443D322E1
:10F13200D2E9D2A512F4CAC2E912F4CAC2A512F4E3
:02F14200CA22DF
:0AF44300C2E9D2A512F4CAD2E922F0
:10DE9E008F46E4F547E5463392E9D2A512F4CAC29D
:10DEAE00A512F4CAE54625E0F5460547E547C394B5
:10DEBE000840E2D2E9D2A512F4CAA2E9B39206C290
:07DECE00A512F4CAA206220E
:10DED500E4F53BD2E9F53CE53B25E0F53BD2A5125F
:10DEE500F4CA30E902053BC2A512F4CA053CE53C7B
:10DEF500C3940840E2A206B392E9D2A512F4CAC2BD
:07DF0500A512F4CAAF3B2294
:07F4CA00754806D548FD223C
:10EF0D0012EEF64002C32212F1327F4812DE9E92BB
:07EF1D000012F443A20022E0
:10E2A5008F3B8D3C12F1327F4812DE9E4002C32225
:10E2B500E53B540744F0FF12DE9E4002C322E53CD5
:0FE2C500543FFF12DE9E4002C32212F443D322C5
:05F51E00D2A2D2A122DF
:10D86C00C2A1E4FEEF1392A200000000D2A10000BE
:10D87C000000C2A1EFC313FF0EBE05E8D2A1000049
:10D88C000000C2A1D2A2E4FFFEEF25E0FFD2A1006E
:10D89C0000000030A2010FC2A10EBE08ECD2A10004
:04D8AC000000002256
:10A06C00005EBCE2613FDD83C29C7E20A3FD1F41EC
:10A07C009DC3217FFCA2401E5F01E3BD3E6082DCDC
:10A08C00237D9FC1421CFEA0E1BF5D0380DE3C62CC
:10A09C00BEE0025CDF81633D7C22C09E1D43A1FFBC
:10A0AC004618FAA427799BC584DA3866E5BB5907AC
:10A0BC00DB856739BAE406581947A5FB7826C49A9C
:10A0CC00653BD987045AB8E6A7F91B45C6987A248C
:10A0DC00F8A6441A99C7257B3A6486D85B05E7B97C
:10A0EC008CD2306EEDB3510F4E10F2AC2F7193CD6C
:10A0FC00114FADF3702ECC92D38D6F31B2EC0E505C
:10A10C00AFF1134DCE90722C6D33D18F0C52B0EE4B
:10A11C00326C8ED0530DEFB1F0AE4C1291CF2D733B
:10A12C00CA947628ABF517490856B4EA6937D58B2B
:10A13C005709EBB536688AD495CB2977F4AA48161B
:10A14C00E9B7550B88D6346A2B7597C94A14F6A80B
:10A15C00742AC896154BA9F7B6E80A54D7896B35FB
:0FF2A900D290D2C0D291D292D293D2C1D2EF22C0
:10F0AD00C2EF7F7A7E0012F144D2EF7F7A7E00129A
:03F0BD00F14422F9
:1097BF00EF14604714606F14700302985F14700306
:1097CF000298881470030298B1240560030298D898
:1097DF00209005D2060298D8C2EF7F7A7E0012F150
:1097EF0044C2AFD2EF7F117E0012F144A29050031A
:1097FF00D38001C39206D2AF0298D820C005D206FB
:10980F000298D8C2EF7F7A7E0012F144C2AFD2EF36
:10981F007F117E0012F144A2C05003D38001C39286
:10982F0006D2AF0298D8209105D2060298D8C2EF7F
:10983F007F7A7E0012F144C2AFD2EF7F117E001209
:10984F00F144A2915003D38001C39206D2AF807925
:10985F00209204D2068072C2EF7F7A7E0012F1440A
:10986F00C2AFD2EF7F117E0012F144A2925003D308
:10987F008001C39206D2AF8050209304D206804954
:10988F00C2EF7F7A7E0012F144C2AFD2EF7F117E1A
:10989F000012F144A2935003D38001C39206D2AFBA
:1098AF00802720C104D2068020C2EF7F7A7E00126B
:1098BF00F144C2AFD2EF7F117E0012F144A2C1502A
:1098CF0003D38001C39206D2AF7F687E0012F144AA
:0498DF00A206B32208
:10A74500EF14603C14605C14607B14700302A7EC8A
:10A7550014700302A80E2405600302A82EC2AFC21E
:10A76500EF00000000D2EFE4F5430543E543B407ED
:10A77500F9A2905003D38001C39206D2AF02A82E4E
:10A78500C2AFC2EF00000000D2EFE4F5430543E598
:10A7950043B407F9A2C05003D38001C39206D2AFD8
:10A7A50002A82EC2AFC2EF00000000D2EFE4F543CD
:10A7B5000543E543B407F9A2915003D38001C39241
:10A7C50006D2AF8064C2AFC2EF00000000D2EFE452
:10A7D500F5430543E543B407F9A2925003D380013D
:10A7E500C39206D2AF8042C2AFC2EF00000000D2D2
:10A7F500EFE4F5430543E543B407F9A2935003D3CA
:10A805008001C39206D2AF8020C2AFC2EF00000024
:10A8150000D2EFE4F5430543E543B407F9A2C1507F
:10A8250003D38001C39206D2AF7F187E0012F14494
:03A83500A2062256
:10EDA200C2AFC2EF00000000300602D2EF7F137E36
:09EDB2000012F144D2EFD2AF22AD
:10E899008F40E4F542F541E542C313F542AF40121A
:10E8A900A74550034342800541E541C3940840E729
:03E8B900AF422249
:10EC6F008F40E4F541E54013920612EDA2E540C353
:0DEC7F0013F5400541E541C3940840E9222A
:0BF41700E5736F90A06C93F573FF226B
:10F14400E4FDFCC3ED9FEC9E50070DBD00010C8057
:02F15400F222A5
:10F2390012F0AD7FCC12EC6F7F4412EC6FC2ED225D
:10C510008F3CD2ED001297BF40057E9C7F00227FAA
:10C52000CC12EC6F7FBE12EC6FAF3C12E899753DF8
:10C53000008F3EAF3C12E899EFFEE4EE423DE4F599
:10C5400073AF3E12F417E53DFF12F417E4F53FAF69
:10C550003C12E89912F417053FE53FC3940740EFFA
:10C56000E57360057E9C7F0022E53EC4F8540FC849
:10C5700068F53EE53DC454F048F53DE4B53E0AE5B6
:0EC580003DB455057E9C7F0022AE3DAF3E22AD
:05F52300D2EDC2EF2251
:0EF3020012F2A912F239E4900559F0A3F0229C
:10CB2E0090055AE004F0900559E0701690055AE011
:10CB3E00D3943C401A12F5239005597401F0E4A3E6
:10CB4E00F02290055AE0D39401403A12F30222E407
:10CB5E00F538753902AF3812C5108E3A8F3BE4B5F1
:10CB6E003B0EE53AB49C091539E539D3940050E5EE
:10CB7E00AF38AD3BAC3A12956F0538E538C3940625
:06CB8E0040D012F2392232
:10D16F008E3F8F40E4B5400DE53FB49C087F9C7E19
:10D17F00FF12F1B022C3E53F6480948040197480A0
:10D18F002540F540E4353FF53FFEAF407C017D0083
:10D19F00127AEA12F1B02274802540F54074FF35FF
:10D1AF003FF53FFEAF407C017D00127AEA12F1B0ED
:05D1BF00EFF404FF2263
:10B6E4008E3F8F40E4B54014E53FB49C0F7F9C7EB1
:10B6F400FF12F1B07C007D0A127A8122C3E53F6417
:10B704008094804042740C2540F540E4353FF53F79
:10B71400AF40FE12F1B07E007C007D0A127A81EE09
:10B72400FD3395E0FCC004C005AE3FAF407C017D15
:10B7340000127AEA12F1B07C007D0A127A81D0E01C
:10B744002FFFD0E03EFE2274F42540F54074FF350F
:10B754003FF53FAF40FE12F1B07E007C007D0A123F
:10B764007A81EEFF3395E0FEC006C007AE3FAF40DE
:10B774000C7D00127AEA12F1B07CFF7DF6127A8118
:10B78400AC06AD07D007D006C3ED9FFFEC9EFE22AA
:10E11E0012EEF64002C32212F1327F6412DE9E929C
:10E12E000020000512F443C3227FE012DE9E7F2002
:10E13E0012DE9E7F2012DE9E12F443752261D522DE
:03E14E00FDD322DC
:06F4F400E4FF12E5132203
:06F4FA007F1012E5132251
:06F500007F2012E513223A
:06F506007F4012E5132214
:06F50C007F5012E51322FE
:09F47F007F6012E5137420FE22E7
:10F24900AD07EDD3945940027D59E4FF12EAFE223D
:10F25900AD07EDD3945940027D597F1012EAFE2281
:10F26900AD07EDD3942340027D237F2012EAFE22CD
:10EE3700AD07EDC3940150027D01EDD3943140023B
:08EE47007D317F4012EAFE223A
:10EE4F00AD07EDC3940150027D01EDD39412400242
:08EE5F007D127F5012EAFE2231
:10F00600AD07AC06C3EC942050047C207D007F60E5
:05F01600ED12EAFE22EC
:10EAFE008F438D4412F1327F6412DE9EAF4312DEDD
:10EB0E009EAF4412DE9E12F443754561D545FD223B
:10E513008F3812F1327F6412DE9EAF3812DE9E1204
:10E52300F1327F6512DE9EC20612DED58F3912F4F8
:0AE5330043753A61D53AFDAF392275
:10B02C008E308F31E4FD853182853083A3A3E49388
:10B03C00FFEDC39F400302B0F4ED75F00AA4FFAE20
:10B04C00F08531828530837401932FF533E4933E80
:10B05C00F532E55D6012E5332409F582E43532F50D
:10B06C0083E493700302B0F0853382853283A3E4CA
:10B07C0093FE740193FFC3E55A9FE5599E4065E525
:10B08C00332405F582E43532F583E493FA740193A5
:10B09C00FBEF2BFFEE3AFED3E55A9FE5599E504449
:10B0AC00853382853283A3A3A3E493FE740193FFBB
:10B0BC00C3E55C9FE55B9E402BE5332407F582E4FA
:10B0CC003532F583E493FA740193FBEF2BFFEE3AE0
:10B0DC00FED3E55C9FE55B9E500A85338285328307
:0BB0EC00E493FF220D02B0327FFF2230
:10EFAE00E5D220E0FBC2AF43D2028F828E83E0FF18
:06EFBE0053D2FDD2AF2288
:07F4D10020EA02C322D3224E
:10EFC400E5D220E0FBC2AF75D2028F828E83EDF0D2
:06EFD400E4F5D2D2AF22E9
:10BD72008F408E3F8D3E8C3DAF42AE41AD43AB44D2
:10BD820012D26A8F46E546B4FF03E4F546E546243F
:10BD920001FFE433FE7C00EFB5430FECB5060BAFB9
:10BDA20042AE41AD4412DF0C8017E546048544F0F3
:10BDB200A4F5477E002542FFEE3541FEAD4412DF79
:10BDC2000CE5468544F0A4F547AE3FAD3EAC3D855B
:10BDD200404B8E4A8D498C4812F4D14002C322E472
:10BDE200F545E545C39544501EAF45E5472545FF5A
:10BDF200E433CF2542CF3541FE74482545F8E6FDB0
:09BE020012EFC4054580DBD322D8
:10CAC7008E3D8F3E8D3F8B4012D26AAB07BBFF096D
:10CAD7007F007E007D007C0022EB7006E53F14FBA3
:10CAE70080011BEB8540F0A4F541754600754500B4
:10CAF700754400754300E4F542E542C39540501E76
:10CB0700AF42E5412542FFE433CF253ECF353DFE19
:10CB170012EFAE74432542F8A607054280DBAF4605
:07CB2700AE45AD44AC432212
:10D97A008E288F298B2AED852AF0A4F52C12F4D152
:10D98A004002C322E4F52BE52BC3952C501A7E00E6
:10D99A00E529252BFFEE3528FEE4FD12EFC475A616
:10D9AA001E75A6E1052B80DFAF29AE28AD2A12DF4E
:02D9BA000C223D
:10D26A008E4C8F4D8D4E8B4FE4F550E550C3954E45
:10D27A00503DAF4DAE4C12EFAEEF64807022755147
:10D28A0001E551C3954F50157E00E54D2551FFEE3E
:10D29A00354CFE12EFAEEF7007055180E4AF502215
:10D2AA000550E54F254DF54DE4354CF54C80BC7FD6
:02D2BA00FF2251
:10DF0C008E4C8F4D8D4E12F4D14002C322AF4DAECC
:10DF1C004C7D8012EFC4754F01E54FC3954E5014E4
:10DF2C007E00E54D254FFFEE354CFEE4FD12EFC4AF
:06DF3C00054F80E5D32231
:10F0C000D281D280C2ECD280C281D281D2ECD281F4
:03F0D000D28022C9
:10F0D300D281D280C2ECC280C281D281D2ECD281F1
:03F0E300D28022B6
:0FF2B80012EE6712D74D90055BEEF0A3EFF02238
:10AA0D0090055BE0FEA3E0FF12F3108F48E548646C
:10AA1D00816011E5486480600B12D74D90055BEEA7
:10AA2D00F0A3EFF090055BE0FEA3E08E49F54AE55B
:10AA3D004AB4FF07E549B4FF02C322AF4AAE49123B
:10AA4D00D00C4002C322AF4AAE4912E2154002C3F8
:10AA5D0022E54A2418FFE43549FEC3EF94B0EE9485
:10AA6D007C4022E4FFFE7D8012F0E64002C322E42A
:10AA7D00FFFE12F310EF64806002C322E490055BC9
:10AA8D00F0A3F0803DAF4AAE4912F3108F48E54A6E
:10AA9D002418FFE43549FEAD4812F0E64002C3220A
:10AAAD00E54A2418FFE43549FE12F310EF654860BE
:10AABD0002C322E54A241890055CF0E4354990055F
:10AACD005BF0758230758304E0F548AF4AAE49AD51
:10AADD004812F0E64002C322AF4AAE4912F310EF1E
:08AAED0065486002C322D32278
:10E8BC0012EBF7E4F53812EF3B74302538F582E4AF
:10E8CC003404F583EFF00538E538C3941840E712AB
:03E8DC00F488229B
:10D74D00E4F54DF54BF54CAF4CAE4B12F310EF64C9
:10D75D00816003BF8005754D0180167418254CF549
:10D76D004CE4354BF54BC3E54C94B0E54B947C4004
:10D77D00D6E54D6005AE4BAF4C2212E9D340057E88
:09D78D00FF7FFF227E007F0022D5
:10E9D300E4FFFE7D8112F0E64002C322E4FFFE1253
:10E9E300F310EF64816002C322E490055BF0A3F0AF
:02E9F300D3222D
:10D00C008E4B8F4C054CE54C7002054B754E0175E3
:10D01C004D01E54E600EE4F54EAF4CAE4B12E6D62C
:10D02C004002C3227430254DF582E43404F583E0CC
:10D03C00FF12EF24054CE54C7002054BE54C543FB8
:10D04C00700612F488754E01054DE54DC3941840D9
:0AD05C00C1E54E700312F488D322E0
:10E215000FBF00010E12EBF7754B0112EF3B743087
:10E22500254BF582E43404F583E06F600512F4882C
:10E23500C322054BE54BC3941840E012F488D32262
:10EE6700D2B4C2B3D2C412000312F44DE4FF12F1BC
:08EE7700D3D2B3D297D2C4221A
:0EF3100012EBF712EF3B8F4E12F488AF4E2235
:10EBF7008E4F8F50C2B3D2C4120003C2B47F031228
:0EEC0700EF24E54FFF12EF24AF5012EF24224E
:09F48800D2B4D2B3D297D2C4224F
:10F0E6008D4E12E6D64002C322AF4E12EF2412F422
:03F0F60088D3229A
:10E6D6008E4F8F5020EA02C322C2B3D2C412000367
:10E6E60012F44DC2B47F0212EF24E54FFF12EF245D
:07E6F600AF5012EF24D32204
:0AF44D00C2B47F0612EF24D2B422ED
:0D002600C2B47F0512EF2412EF3BD2B422CA
:10F1D3008F22C2B47F0112EF24AF2212EF24D2B4E4
:01F1E3002209
:08000300120026EF20E0F922B3
:10EF24007E08EF30E704D2978002C297D2B3EF2570
:07EF3400E0FFC2B3DEEC2296
:10EF3B00E4FF7E08D2C4D2B3EF25E0FF30C4034315
:07EF4B000701C2B3DEF02252
:10EE7F00D2B7D2A6D2C512F4A312F457E4FF12F1FF
:08EE8F00E4D2A6D283D2C52211
:10EC15008E288F29D2A6D2C512F4A3C2B77F0312BC
:0EEC2500EF52E528FF12EF52AF2912EF5222F4
:09F49100D2B7D2A6D283D2C52263
:10E6FD008E288F2920EA02C322D2A6D2C512F4A3F6
:10E70D0012F457C2B77F0212EF52E528FF12EF52F3
:07E71D00AF2912EF52D322D5
:0AF45700C2B77F0612EF52D2B722AF
:0DF33A00C2B77F0512EF5212EF69D2B72261
:10F1E4008F28C2B77F0112EF52AF2812EF52D2B765
:01F1F40022F8
:08F4A30012F33AEF20E0F92218
:10EF52007E08EF30E704C2838002D283C2A6EF2587
:07EF6200E0FFD2A6DEEC2265
:10EF6900E4FF7E08D2C5C2A6EF25E0FF30C5034302
:07EF79000701D2A6DEF02221
:0AF46100C2B77F0412EF52D2B722A7
:10E24500D2A6D2C512F45712F33AEF20E108D2A6AE
:10E25500D283D2C5C32212F46112F33AEF30E1083A
:10E26500D2A6D283D2C5C322D2A6D283D2C5D32207
:09F49A001B7902001B5B0818003D
:07F4D80012EDBB12F4AB22A0
:10EDBB00E49004B5F07EF47F9A12EC8C7EF47F9E87
:09EDCB0012EC8CE4FF12DBEC22D7
:08F4AB007F0A7E0012E3032238
:10C7D1008F47E547640D6005E547B40A1A9004B533
:10C7E100E0FF04F0749C2FF582E43404F583740DAA
:10C7F100F07F0112DBEC22E547B40C1A9004B5E09E
:10C80100FF04F0749C2FF582E43404F583E547F0CE
:10C811007F0112DBEC229004B5E0C39418400B9029
:10C8210004B4740DF07F0112DBEC9004B5E0FF0459
:0FC83100F0749C2FF582E43404F583E547F02280
:10EC8C008E388F39853982853883E493FF600D1275
:0DEC9C00C7D10539E5397002053880E8223E
:10C207008F428E418D408C3FE5435408F544E5430A
:10C217005470FFC4540FF546534307E54370037545
:10C227004308854345E545D394004057C3740895B3
:10C2370045FFC313243FF8E6FFE54530E005530704
:10C247000F8005EFC4540FFFEF7009E5447005E553
:10C2570045B4010B75440112F42D12C7D180057F37
:10C267002012C7D1E5466017E54514B54611E544E8
:10C2770070087544017F3012C7D17F2E12C7D115C0
:04C287004580A2222A
:10CEF8008F3D8E3C8D3B8C3AE53E20E7357F007EAA
:10CF0800007D007C00AB3DAA3CA93BA83AC3127C3B
:10CF18007B501A7F2D12C7D1AF3DAE3CAD3BAC3A2A
:10CF2800127C6D8F3D8E3C8D3B8C3A80057F2012A4
:10CF3800C7D1AF3DAE3CAD3BAC3A12DCD88F3D8E8D
:0CCF48003C8D3B8C3A853E4312C2072210
:10EE97008F388D39E4F53AE53AC395395009AF38DB
:08EEA70012C7D1053A80F022E8
:10DBEC008F48E4F5499004B5E0FFE549C39F501414
:10DBFC00749C2549F582E43404F583E0FF12E4E9D2
:10DC0C00054980E1E49004B5F0E548600D75A61E69
:0BDC1C0075A6E17FE87E0312E30322FF
:10ECA90053877F75CAE275CBFF75C8347598D0E470
:0DECB900F560F562F561F563F564D2AC22FB
:10E63700E56124806563601FC2ACE564700575649D
:10E6470001D299AE630563EE547F2460F582E4340A
:08E6570002F583EFF0D2AC22C2
:10E275007D007C08AE62E5606E601AC2ACAE6005DA
:10E2850060EE543F2420F582E43402F583E0A807CC
:10E29500F6D2ACD322ED1D70011C144C70D6C322EE
:10E875007D017C000F75A61E75A6E1AE62E5606E92
:10E885006002D322ED1D70011C144C70EE7C50FD0E
:04E89500DFE3C322D8
:10E798007F507E0675A61E75A6E1AD62E5606D60C8
:10E7A8000AC2AC0560D2AC7E067F50EF1F70011E16
:05E7B800144E70E02288
:0300230002C840D0
:10C84000C0E0C083C082C0D075D000C006C0073031
:10C850009828C298AF99EFA29A30D001B3401BE557
:10C86000602440B562020560AE620562EE543F246A
:10C8700020F582E43402F583EFF0309923C299E584
:10C8800061B563057564008017AE610561EE547F84
:10C890002460F582E43402F583E0A2D0929BF599FE
:0DC8A000D007D006D0D0D082D083D0E032B7
:10BA39008F418D42E4FF12E8754002C3227F47120D
:10BA4900E275E5476499600512E798C3227F4712BA
:10BA5900E2754002C322854748A841A6477F47129D
:10BA6900E2754002C322E5472548F5488547467FE8
:10BA79004712E2754002C322E5472548F548854744
:10BA8900457F4712E2754002C322E5472548F5483C
:10BA99008547447F4712E2754002C322E54725489E
:10BAA900F548854743AF46AE45AD44AC43A842127D
:10BAB9007CA27F4712E2754002C322E548F465473C
:10BAC9006002C3227F4712E2754002C322E5476440
:07BAD900886002C322D322A2
:10D360008F41AE44AD43AC428545498E488D478CD4
:10D37000467F9912E63785414AE546254AF54A2512
:10D3800047F54A2548F54A2549F54AAF4112E6379F
:10D39000AF4912E637AF4812E637AF4712E637AF6C
:10D3A0004612E637E54AF4FF12E6377F8812E63781
:01D3B000225A
:10E3BA008E418F427F7712E637AF42E54212E63747
:10E3CA00E541FF12E637AF42E54212E637E541FF83
:0CE3DA0012E6377F7712E637E4F5742274
:0CF388008F4112E637E5412574F5742230
:0DF34700E574F4FF12E6377F6612E6372208
:10DAFA0041740D000D0A4F4B0D0A00415445300D7B
:10DB0A0000415456312B434D45453D310D0041549A
:10DB1A002B434D47463D310D0041542B4352454757
:0DDB2A003F0D000D0A2B435245473A2000E5
:10D2BC0012E6AF7EDB7F0512DE2E7F0112E8517F76
:10D2CC000A12EEAF4002C3227F0A12EEAF4002C335
:10D2DC00227EDB7F0B12DE2E7EDA7FFE7D0112D0EA
:10D2EC00BF4002C3227F0A7E0012E3037EDB7F185D
:10D2FC0012DE2E7EDA7FFE7D0112D0BF4002C322E9
:02D30C00D3222A
:10E2D40012E6AF7EDB7F2312DE2E7EDB7F2D7D01F7
:10E2E40012D0BF4002C3227F2C12EEAF4002C322E1
:0FE2F40012E019EF64016003BF0502D322C322B9
:10EABD000D0A52494E470D0A004154410D00415473
:10EACD00480D002B2B2B000D0A434F4E4E45435442
:01EADD000038
:10E53D00E4F53E7F3D12E151501EE53E90EABD935C
:10E54D00653D6009E4F53EE53E93B53DE6053EE5E6
:0AE55D003EC3940840DDD322C32220
:0BF4220012E6AF7EEA7FC612DE2E224B
:10F099007EEA7FD4E4FD12D0BF4002C3227F0A1268
:04F0A900EEAFD322D1
:10E8DF007FE87E0312E30312E6AF7EEA7FD012DEFB
:10E8EF002E7FD07E0712E30312E6AF7EEA7FCB12B4
:03E8FF00DE2E22E8
:10A46400900553E014B40700400302A55490A47867
:10A47400F828287302A48D02A4A902A4BA02A4D7BE
:10A4840002A4F902A51E02A559E4900555F012D2C2
:10A49400BC400B9005537402F0A37414F022900591
:10A4A400537403F022900554E014F0600302A5599C
:10A4B40090055304F02212E2D4400790055374012E
:10A4C400F0229005557401F09005537404F0A374C0
:10A4D4001EF022900554E014F070079005537403A5
:10A4E400F02212E53D506E12F4229005537405F0EB
:10A4F400A3741EF022900554E014F0700A12E8DFF1
:10A504009005537403F02212F09950499005537446
:10A5140006F0A3741EF012F55022900554E014F0D6
:10A52400700D12E8DF9005537403F012F553227F87
:10A53400387D3912BAE0501D900554741EF0853CE4
:10A5440041853B40853A3F85393EAF3812A36922A5
:06A55400E4900555F02221
:10BAE0008F3D8D3EE4FF12E8514002C3227F431296
:10BAF000E151E5436499600512E6AFC3227F43122A
:10BB0000E1514002C322854344A83DA6437F43122E
:10BB1000E1514002C322E5432544F5448543427F79
:10BB20004312E1514002C322E5432544F5448543D5
:10BB3000417F4312E1514002C322E5432544F544CD
:10BB40008543407F4312E1514002C322E54325442F
:10BB5000F54485433FAF42AE41AD40AC3FA83E12F5
:10BB60007CA27F4312E1514002C322E544F46543C5
:10BB70006002C3227F4312E1514002C322E54364C5
:07BB8000886002C322D322FA
:10D3B1008F47AE4AAD49AC48854B4F8E4E8D4D8C53
:10D3C1004C7F9912CC5E854750E54C2550F5502590
:10D3D1004DF550254EF550254FF550AF4712CC5E17
:10D3E100AF4F12CC5EAF4E12CC5EAF4D12CC5EAFE2
:10D3F1004C12CC5EE550F4FF12CC5E7F8812CC5EFD
:01D401002208
:10E3E6008E478F487F7712CC5EAF48E54812CC5EE9
:10E3F600E547FF12CC5EAF48E54812CC5EE547FF25
:0CE4060012CC5E7F7712CC5EE4F575222C
:0CF394008F4712CC5EE5472575F5752209
:0DF35400E575F4FF12CC5E7F6612CC5E22E0
:10DE2E008E3D8F3EAA06A9077BFF12F0848F3FE43A
:10DE3E00F540E540C3953F501E75A61E75A6E185BB
:10DE4E003E82853D83E493FF12CC5E053EE53E7037
:08DE5E0002053D054080DB22B6
:10E01900E4F53D7F3E12E15140037F0022C3E53E16
:10E02900648094B04009D3E53E648094B94003AF5D
:10E039003D22E53D75F00AA4F53DE53E24D0253D98
:05E04900F53D80CF222F
:10EEAF008F3D75A61E75A6E17F3E12E1514002C34C
:08EEBF0022E53DB53EECD32233
:10D0BF008E3D8F3E8D3FAA06A9077BFF12F0848F0E
:10D0CF0040853D42853E43E53F6008FF12E85140F1
:10D0DF0002C322E4F541E541C39540502975A61ED0
:10D0EF0075A6E17F4412E1514002C3228543828538
:10D0FF004283E49365446002C3220543E543700213
:08D10F000542054180D0D32246
:04F52C0012F4C322F0
:10DD130012E9B1EF13E433900536F0EFA2E1E433F7
:10DD2300900532F0EFA2E2E433900535F0EFA2E381
:10DD3300E433900534F0EFA2E4E433900537F0EFD9
:09DD4300A2E5E433900533F0225F
:10EF800012F2F4E490053CF090053AF0900538F068
:07EF9000A3F090053BF02205
:10DB3700E4FF90053CE060047F1080035307EF90FB
:10DB4700053AE0600543072080035307DF90053857
:10DB5700E0600543074080035307BF900539E06045
:0DDB670005430780800353077F12F1C2229F
:0CF3A000A206E43390053CF012DB37229B
:0CF3AC00A206E43390053AF012DB372291
:0CF3B800A206E433900538F012DB372287
:0CF3C400A206E433900539F012DB37227A
:0EF31E00A206E43390053BF0A206B392A022B3
:08F4B300D2B6D2C712F51E22E9
:10B1C000C2B67F0312D86C9004FCEFF0D2B6C2B6C0
:10B1D0007F0712D86C9004FDEFF0D2B6C2B67F1391
:10B1E00012D86C9004FEEFF0D2B6C2B67F1712D818
:10B1F0006C9004FFEFF0D2B6C2B67F0B12D86C9001
:10B200000500EFF0D2B6C2B67F0F12D86C900501E0
:10B21000EFF0D2B6C2B67F1B12D86C9004FBEFF0F1
:10B22000D2B6C2B67F1F12D86C900506EFF0D2B628
:10B23000C2C77F0312D86C9004FAEFF0D2C7C2C71E
:10B240007F1312D86C900507EFF0D2C7C2C77F17E3
:10B2500012D86C900502EFF0D2C7C2C77F0B12D88C
:10B260006C900503EFF0D2C7C2C77F0F12D86C9065
:10B270000504EFF0D2C7C2C77F1B12D86C9005053A
:05B28000EFF0D2C7222F
:04F5300012EF0D22A7
:10EF97008F3A900549E53AF0E4FFAD3A12E2A57FD2
:07EFA70001AD3A12E2A522C0
:10EFDA008F3A90054AE53AF07F02FD12E2A57F03D7
:06EFEA00AD3A12E2A5227F
:0DF36100AD07900548EDF07F0412E2A522F3
:0DF36E00AD07900547EDF07F0512E2A522E6
:10D30E0012F302E4FFEF25E024A9F582E43403F5DD
:10D31E0083E4F0A3F0747F2FF582E43403F583E405
:10D32E00F0EF25E024B5F582E43403F583E4F0A3B1
:10D33E00F074C12FF582E43403F583E4F0EF25E0B9
:10D34E002485F582E43403F583E4F0A3F00FBF06E1
:02D35E00B422F7
:04F5340012CB2E22A6
:10E41200E4FBEB25E025E02491F582E43403F58367
:10E42200127CBA00000000EB25E024C7F582E43438
:0CE4320003F583E4F0A3F00BBB06D72237
:10D402008F3AE53AC394065014EF25E024C7F5821B
:10D41200E43403F583E0FCA3E0FD4C70057EFC7F61
:10D422001822AF05AE04E4FCFDA804A905AA06ABC8
:10D4320007E53A25E025E02491F582E43403F583FB
:0FD44200E0FCA3E0FDA3E0FEA3E0FF12D8B022C0
:10956F008F3C8C3D8D3EE53E7004E53D649C706FF5
:10957F00E53C25E02485F582E43403F583E475F0BA
:10958F0001127B2074C1253CF582E43403F583E09E
:10959F0004F074C1253CF582E43403F583E0D394E1
:1095AF000A5003029699740AF0E53C25E024A9F5C8
:1095BF0082E43403F583749CF0A3E4F0747F253CBC
:1095CF00F582E43403F583749CF0E53C25E024B583
:1095DF00F582E43403F58374FCF0A37418F022E5EC
:1095EF003C25E024A9F582E43403F583E53DF0A39F
:1095FF00E53EF0AF3EAE3D12D16F747F253CF58254
:10960F00E43403F583EFF0AF3EAE3D12B6E4E53C34
:10961F0025E024B5F582E43403F583EEF0A3EFF0F3
:10962F0074C1253CF582E43403F583E4F0E53C2571
:10963F00E025E02491F582E43403F583C083C082F2
:10964F00E0F8A3E0F9A3E0FAA3E0FBE53C25E02472
:10965F00B5F582E43403F583E0FEA3E0FFEE339526
:10966F00E0FDFCEB2FFFEA3EFEE93DFDE83CFCD0C0
:10967F0082D083127CAEE53C25E024C7F582E4342A
:0B968F0003F583E475F001127B20223C
:108264008E388F398C3A8D3B8A3C8B3D7544007532
:108274004300754200754100E4FBE53EB40700404D
:10828400030284B890828FF82828730282A40283A0
:10829400280283820283DC02843602846202848E92
:1082A400E53965407004E538653F601EAE38EE334D
:1082B40095E0FDFCE5442539F544E5433EF543E509
:1082C400423DF542E5413CF5410BE53B6540700418
:1082D400E53A653F601EAE3AEE3395E0FDFCE544B9
:1082E400253BF544E5433EF543E5423DF542E54192
:1082F4003CF5410BE53D65407004E53C653F70038A
:108304000284B8AE3CEE3395E0FDFCE544253DF532
:1083140044E5433EF543E5423DF542E5413CF54144
:108324000B0284B8E53965407004E538653F601E8A
:10833400AE38EE3395E0FDFCE5442539F544E543DC
:108344003EF543E5423DF542E5413CF5410BE53B55
:1083540065407004E53A653F70030284B8AE3AEEB6
:108364003395E0FDFCE544253BF544E5433EF54308
:10837400E5423DF542E5413CF5410B0284B8E53B5D
:1083840065407004E53A653F601EAE3AEE3395E011
:10839400FDFCE544253BF544E5433EF543E5423D1C
:1083A400F542E5413CF5410BE53D65407004E53C93
:1083B400653F70030284B8AE3CEE3395E0FDFCE506
:1083C40044253DF544E5433EF543E5423DF542E5AC
:1083D400413CF5410B0284B8E53965407004E53849
:1083E400653F601EAE38EE3395E0FDFCE54425396B
:1083F400F544E5433EF543E5423DF542E5413CF5B0
:10840400410BE53D65407004E53C653F7003028423
:01841400B8AF
:10841500AE3CEE3395E0FDFCE544253DF544E543F2
:108425003EF543E5423DF542E5413CF5410B02840D
:10843500B8E53965407004E538653F6076AE38EEDD
:108445003395E0FDFCE5442539F544E5433EF54328
:10845500E5423DF542E5413CF5410B8056E53B657E
:10846500407004E53A653F604AAE3AEE3395E0FD6B
:10847500FCE544253BF544E5433EF543E5423DF542
:1084850042E5413CF5410B802AE53D65407004E538
:108495003C653F601EAE3CEE3395E0FDFCE54425B2
:1084A5003DF544E5433EF543E5423DF542E5413CB6
:1084B500F5410BEB6014FFE4FCFDFEF8F9FAAF445F
:0F84C500AE43AD42AC4112D8B022AE3FAF402221
:1038F700202D2D005645495420456C656374726F21
:103907006E6963730074656C3A202B34323020354E
:1039170034352032333520323532006661783A202B
:103927002B3432302035343520323335203235369A
:1039370000652D6D61696C3A20766569744076651E
:1039470069742E637A007777772E766569742E63AC
:103957007A005A6164656A746520638E6C6F766F4E
:1039670075207465706C6F74753A007F430073003F
:1039770068004E656E8E207A6164616E8920706C76
:1039870061746E8920686F646E6F7461004E896B15
:103997006C6164005A6164656A746520616B747553
:1039A700896C6E8E20646174756D3A005A61646526
:1039B7006A746520616B7475896C6E8E208A617379
:1039C7003A0043686365746520736D617A6174209A
:1039D70076926563686E79007A897A6E616D79206F
:1039E7007A2070616D8D74693F004F4B005A6E6F7E
:1039F7007675005A727592697400416E6F004E6554
:103A0700004D656E75005469736B2070726F746F2B
:103A17006B6F6C75005A897A6E616D79004E6173B0
:103A2700746176656E8E004D657A207465706C6F73
:103A3700747900526567756C89746F7200446965A3
:103A470073656C00509169686C8992656E8E005A37
:103A57006164656A7465206865736C6F3A004879BC
:103A670073746572657A653A005A65738E6C656E14
:103A77008E3A00496E74656772618A6E8E208A611C
:103A8700733A0054643A00496E666F726D616365FC
:103A97000056966D8D6E61206F6C656A6500506586
:103AA70072696F64612076966D8D6E79206F6C6593
:103AB7006A65004E756C6F76896E8E206D6F746FB8
:103AC700686F64696E004D6F746F686F64696E79B3
:103AD7003A0056966D8D6E61206F6C656A653A0087
:103AE70050726F7665646C69206A73746520769688
:103AF7006D8D6E75006F6C656A653F005065726904
:103B07006F64612076966D8D6E79206F6C656A653E
:103B17003A004D6178696D896C6E8E206F646368B9
:103B2700796C6B61206E616400638E6C6F766F7564
:103B3700207465706C6F746F753A004D6178696DAC
:103B4700896C6E8E206F646368796C6B6120706F0F
:103B57006400638E6C6F766F75207465706C6F741C
:103B67006F753A005A6B6F708E726F766174207A38
:103B7700897A6E616D7900506572696F646120752D
:103B87006B6C8964896E8E004964656E74696669B9
:103B97006B618A6E8E208A8E736C6F0031206D691F
:103BA7006E7574610035206D696E75740031302053
:103BB7006D696E7574003230206D696E7574005AC8
:103BC7006173758F746520646F206B6F6E656B749E
:103BD7006F72750070616D8D936F7696206D6F644F
:103BE700756C0099656B656A74652E2E2E004B6F98
:103BF700708E726F76896E8E207620706F918964D1
:103C07006B7500436879626100506F75978E7661B6
:103C17007420709169686C8992656E8E00916964F1
:103C2700698A653F00509169686C8992656E8E203C
:103C3700916964698A653A005A6164656A746520A6
:103C47007072956D8D726F76896E8E007A897A6E35
:103C5700616D953A005A6164656A746520706F8A70
:103C67008974658A6E8E00646174756D3A005A6155
:103C770064656A746520706F8A8974658A6E8E00C0
:103C87008A61733A005A6164656A7465206B6F6E66
:103C9700636F769600646174756D3A005A61646566
:103CA7006A7465206B6F6E636F7696008A61733AEC
:103CB700005469736B6E6F7574206B6F7069690060
:103CC70070726F746F6B6F6C753F0056967061649E
:063CD700656B2073706FA5
:103CDD006A656E8E000420000000000000000000E8
:103CED0000000078848480780484847800000000CB
:103CFD0000000000000000000000000000000000B7
:103D0D00000000FE10101010101010100000000028
:103D1D000000000000000000000000000000000096
:103D2D000000001C224141414141221C00000000C5
:103D3D000000000000000000000000000000000076
:103D4D000000003E2121213E202020200000000007
:103D5D000000000000000004200000000000000032
:103D6D00000000000010282828447C4482820000B6
:103D7D000000000000000000000000000000000036
:103D8D00000000000082828282828282443800001C
:103D9D000000000000000000000000000000000016
:103DAD000000000000FE1010101010101010000088
:103DBD0000000000000000000000000000000000F6
:103DCD0000000000003C428181818181423C000065
:103DDD0000000000000000000003097C4241414149
:103DED004141427C3F2020203F2020203F202020A9
:103DFD0020202020203F02100000000000255555F6
:103E0D0075555200000000000000000000722525CD
:103E1D00252522000000000003087388806010082B
:103E2D008870E6899090909089863C22A2A2BCA0D1
:103E3D002020021000000000000001FBFB0100002B
:103E4D000000000000000000000080DFDF800000A7
:103E5D00000000000210000000000000011BFBE14B
:103E6D0000000000000000000000000087DFD88087
:103E7D00000000000000021000000000000001031F
:103E8D007BF90000000000000000000000009FDE34
:103E9D00C0800000000000000210000000000000C3
:103EAD0001031BF9E0000000000000000000000FFE
:103EBD009FD8C0800000000000000210000000002C
:103ECD00000001030B3978400000000000000000E5
:103EDD00061F9CC0C0800000000000000210000002
:103EED0000000000010303193870000000000000FD
:103EFD0000020E3C90C0C0800000000000000210C7
:103F0D00000000000000010303091C7820000000E0
:103F1D000000000E1C3890C0C080000000000000A2
:103F2D000210000000000000010303010C383000F6
:103F3D00000000000C1C383080C0C0800000000064
:103F4D0000000210000000000000010303010C0C32
:103F5D001818100000000C18383080C0C080000008
:103F6D00000000000210000000000000010303012A
:103F7D00040E0C18100000081838702080C0C08086
:103F8D00000000000000021000000000000001030E
:103F9D00030100060E0C000000183030602080C0B8
:103FAD00C0800000000000000210000000000000B2
:103FBD000103030100070606040020307060E000D5
:103FCD0080C0C08000000000000002100000000052
:103FDD00000001030301000303060600606060E0BA
:103FED00C00080C0C0800000000000000210000072
:103FFD00000000000103030100030303030240C09E
:10400D00C0C0C00080C0C0800000000000000210D1
:10401D00000000010100010303010001010303037E
:10402D00C0C0C0C0800080C0C08000808000000083
:10403D000210010101010100010303010001010151
:10404D00010180808080800080C0C08000808080E1
:10405D0080800210000000081C0E070303070E1CD1
:10406D0008000000000000103870E0C0C0E070389B
:10407D0010000000010206060102F6F60102868616
:10408D0004200000000000000000000000000000FF
:10409D000001010000000000000000000000000011
:1040AD000000000000000000000000000000000003
:0640BD0000FFFF000000FF
:1040C30000000000000000000000000000000000ED
:1040D3000000000000000000000000FFFF000000DF
:1040E30000000000000000000000000000000000CD
:1040F30000000000000000000000008080000000BD
:104103000000000000000000000000000420000088
:10411300000000000000000000000000000101009A
:10412300000000000000000000000000000000008C
:1041330000000000000101010101010101FFFF0175
:104143000101010101010100000000000000000065
:1041530000000000008080808080808080FFFF80DE
:1041630080808080808080000000000000000000CC
:10417300000000000000000000000000008080003C
:104183000000000000000000000000000000042008
:10419300000000000000000000000000000000001C
:1041A3000103010000000000000000000000000007
:1041B30000000000000000000000000000000000FC
:1041C3000080C0E0713B1F0E0400000000000000EF
:1041D3000000000000000000000000000103070EC3
:1041E3001C3870E0C08000000000000000000000E8
:1041F3000000000000000000183870E0C0800000DC
:1042030000000000000000000000000000000000AB
:104213000420000000000000000000000000000770
:104223000808080807000000000000000000000064
:10423300000000000000030404040404020201C19E
:10424300330F0F33C101020204040404040300000A
:10425300000000000000C020202020204040808378
:10426300CCF0F0CC838040402020202020C00000F0
:10427300000000000000000000000000000000E05B
:1042830010101010E000000000000000000000000B
:1042930000000420000000000000000000000003F4
:1042A3000400000000030400000000000000000000
:1042B3000000000000000000000000000000F806FD
:1042C30001000000F80601000000000000000000EB
:1042D30000000000000000000000000000000000DB
:1042E3000080601F00000080601F000000000000CD
:1042F30000000000000000000000000000000000BB
:10430300F030D0100000F030D010000000000000AA
:104313000000000004200000000000000000000076
:104323000001000001000003000001000000000084
:10433300000000000000000000000000010C6838CD
:1043430038F80C060381FFF1C38382063E6F0D0923
:104353000000000000000000000000001090F67E46
:10436300606141C38FFEE3C160301F0F1C1632B082
:10437300000000000000000000000000000000003A
:1043830000808000C00000808000800000000000EA
:104393000000000000003CE23D64421342954317D5
:1043A30004200000000000000000000000000000E6
:1043B30000000000000000000000000000000000FA
:1043C30000000000000000000000011A262612125F
:1043D30068988840202010080404000000000000B2
:1043E300000000000000000000008070484A4D49B2
:1043F300090102020204040808080000000000008A
:1044030000000000000000000000000000000000A9
:104413000000000000000000000000000000000099
:104423000000042000000000000000000000000065
:104433000001010101010101010000000000000071
:1044430000000000000000000000007F7F3E7EFCB3
:10445300CC8880808080808080C0E0783F0F00001F
:1044630000000000000000000000000000040E0730
:1044730003010101010101010103071EFCF000001A
:104483000000000000000000000000000000000029
:104493000080808080808080800000000000000019
:0644A300000000000420EF
:1044A90000000000000000000000030300000000FD
:1044B90000000000030300000000000000000000ED
:1044C90000000000000000000000FFFF00000000E5
:1044D90000000000FFFF00000000000000000000D5
:1044E90000000000000000080E0FFFFF0F0E08007B
:1044F90000080E0FFFFF0F0E08000000000000006B
:1045090000000000000000000080C0C08000000022
:1045190000000080C0C08000000000000000000012
:10452900042000000000000000000000000000005E
:104539000057A70000000000000000000000000074
:104549000000000000000000000000000000000161
:1045590003FFFF030100000000000000000000004D
:1045690000000000000000000000000000000080C2
:10457900C0FFFFC080000000000000000000000034
:104589000000000000000000000000000000000022
:1045990000E5EA0000000000000000000000000043
:1045A90000000420000000000000000000000000DE
:1045B90000000050A0000000000000000000000002
:1045C90000000000000000000001010101010101DB
:1045D90001010307070301010101010101010100B3
:1045E9000000000000000000008080808080808042
:1045F9008080C0E0E0C080808080808080808000F2
:1046090000000000000000000000000000000000A1
:10461900000000050A000000000000000000000082
:1046290000000000020B041B2A2A6AA080402020F7
:1046390010000080C0A0A0204040808002072354C1
:104649002404040403804000000040800412D5AA19
:10465900D5AAD5AAD5AAD5AAD5AAD5AAD5AAD5AA59
:1046690055AA55AA55AA55AA55AA55AA55AA55AA49
:1046790055AA55AA55AA55AA55AA55AA55AA55AA39
:1046890055AA55AA55AB55AB55AB55AB55AB55AB23
:1046990055AB55AB55AB04017FFFFFFE020B010380
:1046A900070F1F3F070707070780C0E0F0F8FCE086
:1046B900E0E0E0E00210FFD5AAD5AAD5AAD5AAD58F
:1046C900AAD5AAD5AAFFC040C040C040C040C0403A
:1046D900C040C040C0C00210FFD5AAD5AAD5AAD5EE
:1046E900AAD5FF80808080FFC040C040C040C04044
:1046F900C040C040404040C00210FF80808080FF21
:10470900AAD5AAD5AAD5AAD5AAFFC040404040C07B
:10471900C040C040C040C040C0C00210FFD5AAD5AB
:10472900AAFF80808080FFD5AAD5AAFFC040C040DB
:10473900C0C040404040C040C040C0C00210FFD58A
:10474900AAD5AAFF80808080FF80808080FFC0403A
:10475900C040C0C040404040C040404040C002103E
:10476900FF80808080FFAAD5AAD5FF80808080FF46
:10477900C040404040C0C040C040C040404040C030
:104789000210FF80808080FF80808080FFD5AAD5BD
:10479900AAFFC040404040C040404040C040C040E7
:1047A900C0C00210011A26261212689888402020DB
:1047B900100804048070484A4D49090102020204A4
:1047C90004080808021005031151713D4F07036FD2
:1047D9003D7911210305A0C0888A9EBCF2E0C2F68A
:1047E900BC9E8A88C0A002100000001C3E634100E4
:1047F900001C3E63410000000000003E060EFAF274
:10480900003E060EFAF20000021000030404020141
:10481900013B474930010101000000008080800C04
:1048290092E2DC8080402020C000020702010907D3
:10483900090102800020C020008002070202030251
:104849000001000080808080C080040B000000000F
:10485900000000000000DB00000000000000000074
:10486900006D00000000000000000000B60000001C
:1048790000000000000000DB040B00000000000045
:0648890000000018DB0036
:10488F000000000000000000006D000000000000AC
:10489F0000000000B600000000000000000000DB78
:1048AF00040B0000000000000000031BDB000000F1
:1048BF00000000000000006D00000000000000007C
:1048CF000000B600000000000000000000DB040B39
:1048DF000000000000000000031BDB0000000000D0
:1048EF0000006060606D000000000000000000002C
:1048FF00B600000000000000000000DB040B000009
:10490F00000000000000031BDB0000000000000C93
:10491F006C6C6C6D00000000000000000000B60021
:10492F00000000000000000000DB040B000000008E
:10493F0000000000031BDB0000000000010D6D6D87
:10494F006D6D00000000008080808080B600000048
:10495F0000000000000000DB040B0000000000005E
:10496F000000031BDB0000000000010D6D6D6D6D7D
:10497F000000000030B0B0B0B0B0B60000000000D2
:10498F000000000000DB040B00000000000000002E
:10499F00031BDB0000000000010D6D6D6D6D00004D
:1049AF00000636B6B6B6B6B6B60000000000000078
:1049BF00000000DB040B0000000000000000031BE0
:1049CF00DB0000000000010D6D6D6D6D0000000635
:1049DF0036B6B6B6B6B6B60000C0C0C0C0C0C0C00E
:1049EF00C0DB040B0000000000000000031BDB0015
:1049FF0000000000010D6D6D6D6D0000000636B6F4
:104A0F00B6B6B6B6B60018D8D8D8D8D8D8D8D8DB56
:104A1F00040B0000000000000000031BDB0000007F
:104A2F000000010D6D6D6D6D0000000636B6B6B657
:104A3F00B6B6B6031BDBDBDBDBDBDBDBDBDB020C66
:104A4F0001020202020303030707070300808080AD
:104A5F0080808080C0C0C0800608FF80808080A0DA
:104A6F00A2FFFF000000000022FFFF000000000275
:104A7F0022FFFF000000000022FFFF0000000000E7
:104A8F0022FFF8080808082828F80602808000008E
:104A9F0000000000000008080602BEBE0000000073
:104AAF000000000008080602BFBFE0E000000000A1
:104ABF00000008080602BFBFFEFE00000000000055
:104ACF0008080602BFBFFFFFE0E000000000080873
:104ADF000602BFBFFFFFFEFE00000000080806022F
:104AEF00BFBFFFFFFFFFE0E0000008080602BFBFE7
:104AFF00FFFFFFFFFEFE000008080602BFBFFFFF1B
:104B0F00FFFFFFFFE0E008080602BFBFFFFFFFFF48
:104B1F00FFFFFEFE08080602BFBFFFFFFFFFFFFFFC
:104B2F00FFFFE8E802100000000007022758483096
:104B3F00101F0000000000000000000038D02444C7
:104B4F008E0E04000000021000000000003F4040E5
:104B5F004040403F000000000000000000F20A0E3D
:104B6F000A1220C000000000021000000001010323
:104B7F000307070F0D010101030240C080808080F1
:104B8F0080B0F0E0E0C08000000002100000442A76
:104B9F001103000E3F20242E24203F000000008030
:104BAF0080800038FE02023A0202FE000210001856
:104BBF00140C0303030C14180073443414630030F3
:104BCF0050608080806050300030B48896060210AC
:104BDF000000017301040800000C1201000C120107
:104BEF002040009C00000000007030D0007030D0DA
:104BFF0002110000201106080810D0100808061135
:104C0F00200000808002C430080804050408083022
:104C1F00C4028080020F0719214141818181818166
:104C2F004141211907C0B058AC54AA56AA56AA54EC
:104C3F00AC58B0C004203F4080808080808080804E
:104C4F008080808080808080808080808080808055
:104C5F0080808080403FFF000000000000000001C6
:064C6F0001010101017FBB
:104C75007F0101010101010000000000000000FFAB
:104C8500FF0000000000000000808080808080FE22
:104C9500FE8080808080800000000000000000FF12
:104CA500FC020101010101010101010101010101F3
:104CB500010101010101010101010101010102FCE3
:104CC50004203F408080808080808080808080803C
:104CD50080808080808080808080808080808080CF
:104CE500403FFF0000000000000000000000000041
:104CF500007F7F00000000000000000000000000B1
:104D050000FFFF00000000000000000000000000A0
:104D150000FEFE0000000000000000000000000092
:104D250000FFFC0201010101010101010101010175
:104D3500010101010101010101010101010101015E
:104D450002FC04203F4080808080808080808080BD
:104D5500808080808080808080808080808080804E
:104D65008080403FFF0000000000000000000102BD
:104D75007C44444444447C020100000000000000DF
:104D8500000000FFFF0000000000103050901010E0
:104D9500101010101010101010905030100000005E
:104DA500000000FFFC0201010101010101010101F7
:104DB50001010101010101010101010101010101DE
:104DC500010102FC04203F4080808080808080803B
:104DD50080808080808080808080808080808080CE
:104DE50080808080403FFF000000000000004020E0
:104DF500110A7C46454445467C0A112040000000C6
:104E05000000000000FFFF0000000000103051927C
:104E15001418103050905030101814925130100062
:104E25000000000000FFFC02010101010101010178
:104E3500010101010101010101010101010101015D
:104E45000101010102FC010604067F7F0604021030
:104E5500000000492A1C0808080808080800000086
:104E6500000000000000000000000000000000003D
:104E75000210000000492A1C080808080A08080052
:104E85000000000000000000000020A0A0A02000FD
:104E95000000010100006400300030010000100036
:104EA50064003000300102010000BA00300030001B
:104EB5004E9703000008000A00300030000100484A
:104EC500000A0030003000020088000A003000307F
:104ED500000300C8000A0030003000040108000A81
:104EE50000300030004EB805000008000A00300010
:104EF5003000010048000A00300030004EED02008D
:104F05000008000A0030003000010048000A0030A7
:104F15000030004F0402000000000000F0002400F3
:104F2500010000002400F0002400020000004800F9
:104F3500F0002400030000006C00F00024000401D0
:104F45001800020020002001050118004300200080
:104F55002001060118006800200020010701180043
:104F6500A9002000200108011800CE002000200023
:104F750009000000CB00F00025004F1B0A010000CE
:104F8500002700F0002400050000004B00F000247D
:104F9500000A0000006F00F00024001400000093D8
:104FA50000F000240015000000CB00F000250000F3
:104FB50000000000000000000000000000000000EC
:104FC50000000000000000000000000000000000DC
:104FD50000000000000000000000000000000000CC
:104FE50000000000000000000000000000000000BC
:104FF50000000000000000000000000000000000AC
:10500500000000000000000000000000000000009B
:10501500000000000000000000000000000000008B
:10502500000000000000000000000000000000007B
:10503500000000000000000000000000000000006B
:10504500000000000000000000000000000000005B
:0650550000000000000055
:10505B000000004F8216000000002700F000240023
:10506B00010000004B00F0002400020000006F0064
:10507B00F000240003000000CB00F000250050617D
:10508B0004000000002700F0002400010000004B8A
:10509B0000F0002400020000006F00F00024000369
:1050AB000000009300F000240004000000CB00F08F
:1050BB00002500508C05000000002700F0002400A4
:1050CB00010000004B00F0002400020000006F0004
:1050DB00F0002400030000009300F0002400040003
:1050EB000000CB00F000250050C105000008009126
:1050FB00004800280001006000360068002800020C
:10510B000060009100680028000300E000000050E0
:10511B00002B000400E0002D0050002C000500D8EF
:10512B00005A0060002C000600D800CA0060002660
:0E513B00000700000000003200320050F608AD
:03E18600011A0477
:10A16C0012A26CC20612001EC20212E0EB90054D48
:10A17C0074FFF0E4A3F090054CF0751A047FA0FE78
:10A18C007D147BFF7A3879FB1298E37FA07E007DEB
:10A19C003C7BFF7A39790C1298E37FA07E007D5AC4
:10A1AC007BFF7A3979221298E37FA07E007D827B37
:10A1BC00FF7A3979381298E37FA07E007DA07BFF6F
:10A1CC007A39794D1298E3751E17751D01751C00AF
:10A1DC00751B007F0412E43E7F1E7DD912E4BFAFD5
:10A1EC001D12F43DEF2430FF129A06AF1D12F43805
:10A1FC00EF2430FF129A067F2E129A06AF1E12F42D
:10A20C003DEF2430FF129A06AF1E12F438EF2430C3
:10A21C00FF129A069003D7E0FFE4FCFDFE12DABCB5
:10A22C008F1E8E1D8D1C8C1BE4FFFE7DD47B231298
:10A23C007D317F027DD912E4BFAF1E12F43DEF24B5
:10A24C0030FF129A06AF1E12F438EF2430FF129A28
:10A25C0006D20212E0EB90037D7401F0E4A3F0222D
:10DC27008E238F248C258D2612EB1EC20212E0EB69
:10DC37007FA07E007D05AA23A9247BFF1298E37F9E
:10DC4700A07E007D23AA25A9267BFF1298E3A200C8
:0BDC57009202129301D20212E0EB22B5
:10E65F008E2C8F2D12EB1EC20212E0EB7FA07E00DC
:10E66F007D14AA2CA92D7BFF1298E3A2019202120E
:08E67F009301D20212E0EB222C
:10F15600D20612001EA200920212E0EBC2061200B4
:02F166001E2267
:10E04E00E51FB4080612B7947F082212F4BB8F1F87
:10E05E00EF24F760EB24FE600E047016E490037D4F
:10E06E00F0A304F07F092290037D7401F0A3F07FEA
:05E07E000922AF1F2282
:10C412008F23E523D39405400674052523F523E5F0
:10C422002375F00A84F523D3940A400375230AE4A2
:10C43200F524E524D394004022E524D39523501B10
:10C44200E52425E02409FFE52425E025E0FBC3746B
:10C45200929BFD7539FF12E4698019E52425E024D9
:10C4620009FFE52425E025E0FBC374929BFDE4F57A
:10C472003912E469E52425E02409FF7D937B0175E7
:0FC4820039FF12DBB10524E524D3940A40A4222C
:10DB74008B2612E4BFE526B49C087E387FF712EEAC
:10DB8400C722C3E52664809480500D7F2D129A0627
:10DB9400E526F404F52680057F20129A06AF26EFC9
:0DDBA4003395E0FEFDFC752B8212CFB02200
:10A650008F228D238A248B257F0212E43EAE24AF05
:10A66000257C007D0A127AEAAB07AD23AF2212DB0C
:10A6700074AE24AF257C007D0A127AEA7C007D0A44
:10A68000127AEAAE04AF0512F1B0EE702FEF24FC9F
:10A69000601724027026E522240BFFE5232422FD07
:10A6A0007A407B8512EA5A8024E522240BFFE523B9
:10A6B0002422FD7A407B8912EA5A8011E522240B7C
:10A6C000FFE5232422FD7A407B8112EA5A7F04129F
:10A6D000E43EE522240CFFE5232412FD12E4BFE54D
:10A6E00025B4180CE524B4FC077F2D129A068026A9
:10A6F000C3E52464809480500BC3E49525F525E4DC
:10A700009524F524AE24AF257C007D0A127AEAED6B
:10A710002430FF129A06D20612001EE5222404FFFE
:10A72000E52324FCFD12E4BF30000B7F0A7D2C7B67
:10A73000FF12D9BC80097F0A7D2CE4FB12D9BCC270
:05A740000612001E22BC
:10BF39007F0312E43EE4FF7D0F900383E0FB12DBF5
:10BF490074E4FF7D67900382E0FB12DB74E4FF7DFC
:10BF5900C4900384E0FB12DB747F0B7D0B9003B567
:10BF6900E0FAA3E0FB9004EEE024FF920012A65051
:10BF79007F0B7D0C7B2875250812E0837F0B7D6381
:10BF89009003B7E0FAA3E0FB9004F2E024FF9200EB
:10BF990012A6507F0B7D647B2875250812E0837FEC
:10BFA9000B7DC09003B9E0FAA3E0FB9004F6E0240E
:10BFB900FF920012A6507F0B7DC07B2875250812C1
:03BFC900E08322F0
:10B4C7008F228D238B24E52214FFE5232407FD7BA0
:10B4D700017539A812DBB1E52214FFE5232408FD25
:10B4E7007B0175395412DBB1E525B4040DAF22ADEC
:10B4F700237A407B5F12EA5A8018AF22AD2375F09A
:10B5070022E524A4243FF582E5F0343EAB82FA120B
:10B51700EA5AE5222402FFE5232407FD7B0175395A
:10B527002A12DBB1E5222402FFE5232408FD7B0173
:10B5370075391512DBB1D20612001EE525640260CB
:10B5470005E525B4031AAF22AD2375F022E524A43F
:10B55700243FF582E5F0343EAB82FA12EA5A8016B0
:10B56700AF22AD2312E4BF903E3FE493FFA3E493E1
:0CB57700FDE4FB12D9BCC20612001E222B
:10AE80007F037D40900524E0FB900485E0F52512CA
:10AE9000B4C77F077D40900524E0FB900486E0F571
:10AEA0002512B4C77F057D9B900524E0FEC3740F77
:10AEB0009EFB900487E0F52512B4C7900522E0B40C
:10AEC000010B7F027D9D7A467B2D12EA5A7F0E7D13
:10AED00040900527E0FB90047EE0F52512B4C77F83
:10AEE000127D40900527E0FB90047FE0F52512B429
:10AEF000C77F167D40900527E0FB900480E0F52594
:10AF000012B4C7900525E0B4010B7F0C7D427A4650
:10AF10007B2D12EA5A7F0E7D9B90052AE0FB900460
:10AF200081E0F52512B4C77F127D9B90052AE0FBD6
:10AF3000900482E0F52512B4C77F167D9B90052A08
:10AF4000E0FB900483E0F52512B4C7900528E0B437
:0EAF5000010B7F0C7D9D7A467B2D12EA5A2262
:10C30F00E4FF12E43E7F1C7D0412E4BF90052DE094
:10C31F00FF12F299E4FCFD75300A12C28B7F2E12C8
:10C32F009A0690052EE0FF12F299E4FCFD75300A93
:10C33F0012C28B7F2E129A0690052FE0FEA3E0FF0C
:10C34F0012E98E75300C12C28B7F20129A067F0471
:10C35F0012E43E7F1C7D1212E4BF90052CE0FF1209
:10C36F00F299E4FCFD75300A12C28B7F3A129A06DD
:10C37F0090052BE0FF12F299E4FCFD75300A12C212
:02C38F008B22FF
:10E1B400AE07EED39405400474052EFEEE75F00A06
:10E1C40084FED3940A40027E0A7F237D3C75F02EA0
:10E1D400EEA42453F582E5F03448AB82FA12EA5AED
:01E1E4002218
:10F01B0090053EE0600EC374239FFF7D3F7A487BD3
:05F02B003312EA5A2235
:10F168009004BDE0600B7F217D3F7A487B4312EA23
:02F178005A2219
:10B409007F1C7D3C12E4BF7F0C7D10E4FB12D9BC8C
:10B419009004E7E014601C14605214605B14607AB5
:10B429002404600302B4C67F1C7D3E7A3E7B25124C
:10B43900EA5A227F1C7D3A7A3E7B0312EA5A90042B
:10B44900E9E070177F1F7D3A7A477BEF12EA5A12BB
:10B45900F1689004B8E0FF12E1B4227F1F7D3A7AC7
:10B46900477BCD12EA5AE4FF12F01B227F1C7D3A7A
:10B479007A487B1112EA5A227F1C7D3A7A477BABC4
:10B4890012EA5A7F1F7D3A7A477BEF12EA5A12F184
:10B49900689004B8E0FF12E1B4227F1C7D3A7A4734
:10B4A9007BAB12EA5A7F1F7D3A7A477BCD12EA5A63
:0EB4B9007F0212F01B90053DE0FF12E1B4226D
:10CBFA007F0412E43E7F1C7D8812E4BF90051FE08B
:10CC0A00FF12F299E4FCFD75300A12C28BD20612A9
:10CC1A00001E7F1C7D8712E4BF900520E0600B7F19
:10CC2A00047D147BFF12D9BC80097F047D14E4FBC8
:10CC3A0012D9BCC20612001EE4FF12E43E7F227D16
:10CC4A009312E4BF900521E0FFE4FCFDFE752B83FF
:04CC5A0012CFB02223
:10E7BD007F1E7DA37A4A7B6712EA5A7F1E7DA59044
:10E7CD00050FE075F00EA42499F582E4344AAB826E
:05E7DD00FA12EA5A22C5
:10CDE100900509E060567F1C7DA17A4A7B4D12EACD
:10CDF1005A90050FE0C3940B4003740AF012E7BD8B
:10CE0100D20612001E900510E0600512E7BD8016E3
:10CE11007F1E7DA312E4BF904A67E493FFA3E493CE
:10CE2100FDE4FB12D9BC90050EE0600B7F257D9FD0
:0DCE31007A4B7B3312EA5AC20612001E2211
:10AF5E00900509E06011A3E0600D7F1C7DB57A4B72
:10AF6E007B5512EA5A802990055DE0600D7F1C7DAD
:10AF7E00B57A4B7B7712EA5A80167F1C7DB512E4A8
:10AF8E00BF904B55E493FFA3E493FDE4FB12D9BCB1
:10AF9E00900556E0600D7F207DB57A4B7B9912EAC5
:10AFAE005A80167F207DB512E4BF904B99E493FF33
:10AFBE00A3E493FDE4FB12D9BC900550E0600D7F35
:10AFCE001E7DB57A4B7BBB12EA5A80167F1E7DB56D
:10AFDE0012E4BF904BBBE493FFA3E493FDE4FB129A
:10AFEE00D9BC900553E0B4060C7F267DB57A4E7B16
:10AFFE007512EA5A22900555E0600C7F267DB57ACF
:10B00E004E7B5312EA5A227F267DB512E4BF904E34
:0EB01E0053E493FFA3E493FDE4FB12D9BC229C
:10A55A00D20612001E900557E0600D7F207DB47A66
:10A56A004B7B9912EA5A80167F207DB412E4BF9081
:10A57A004B99E493FFA3E493FDE4FB12D9BC900545
:10A58A0051E0600D7F1E7DB47A487B1112EA5A8031
:10A59A00167F1E7DB412E4BF904811E493FFA3E432
:10A5AA0093FDE4FB12D9BC900540E0FF6027600DE3
:10A5BA007F227DB67A477BCD12EA5A805A7F227D66
:10A5CA00B612E4BF9047CDE493FFA3E493FDE4FB06
:10A5DA0012D9BC80429004BAE0FF6027600D7F2246
:10A5EA007DB47A477BEF12EA5A802C7F227DB4121F
:10A5FA00E4BF9047EFE493FFA3E493FDE4FB12D991
:10A60A00BC80147F227DB412E4BF9047CDE493FF4F
:10A61A007D12E4FB12D9BC9004BBE0600D7F247D5F
:10A62A00B47A4B7BDD12EA5A80167F247DB412E499
:10A63A00BF904BDDE493FFA3E493FDE4FB12D9BC86
:06A64A00C20612001E22F0
:10ED1D008F227F1AAD227B0175390512DBB17F1B66
:0BED2D00AD227B0D75395512DBB122C1
:10ED38008F227F1AAD227B0175390A12DBB17F1B46
:0BED4800AD227B0D7539AA12DBB12251
:10EC33007F1C7DCE7B0B753422C20112969A7F0C0A
:0EEC43007E017DD07BFF7A3A79081298E32299
:10BC2E0012EB1E7F0BE4FD7BEF75250812E0837F80
:10BC3E001AE4FD7BEF75250812E0839004EAE060BC
:10BC4E000302BCCF7F2B12ED1D7F5812ED387F857E
:10BC5E0012ED1D7F9C12ED387FB212ED387FC812A7
:10BC6E00ED387F0412E43E7F1B7D669003D8E0FB27
:10BC7E0012DB747F217D717A467B4512EA5A90035E
:10BC8E00D9E0FEC39400401CEED3940650167F26D6
:10BC9E007D67EE75F022A424BDF582E43446AB82B6
:10BCAE00FA12EA5AE4FF12E43E7F207D9312E4BFBB
:10BCBE007F56129A067F267D9312E4BF7F41129A19
:05BCCE000612EC332218
:10CE3E0090054DE020E00A9004EAE0FFA3E06F6069
:10CE4E000312BC2E9004EAE0601512BF3912C30F14
:10CE5E0090054CE06003127078E490054DF022903E
:10CE6E00054DE030E12112BF3912C30F12AE801210
:10CE7E00B40912CBFA12CDE112AF5E12A55A90058B
:0DCE8E004CE06003127078E490054DF02236
:10CF5400E4F522E52275F008A404FF7D0A7B06753A
:10CF64003430C20112969AE52275F008A42402FF17
:10CF74007D12E52225E02499F582E43443F583E427
:10CF840093FA740193FB12EA5A0522E522C394052D
:10CF940040C17F207DBA7B06753430C20112969A57
:0CCFA4007F217DC27A417B9112EA5A2263
:10ECC6009004E7E024FC600C0470119004B8E0FFA7
:0DECD60012C4122290053DE0FF12C412226C
:10DF42007F207D647B06753430C20112969A7F2150
:10DF52007D6C7A417B0F12EA5A7F027D647B0675E3
:10DF62003430C20112969A7F037D6C7A407B8D1207
:06DF7200EA5A12ECC6227F
:10D1C4008F2212F37B9004E7E075F008A404FF7D3E
:10D1D4000A7B06753430C20112969AAF2212F47596
:10D1E400E52275F008A404FF7D0A7B06753430D26D
:10D1F4000112969A9004E7E024FC60030470041280
:10D20400DF4222E4FF7D3A12E4BF7F287DB6E4FBCF
:04D2140012D9BC224D
:10AAF50012EB1E12CF549004E7E075F008A404FF92
:10AB05007D0A7B06753430D20112969A9004E7E0EF
:10AB1500FF64036004EFB4040312DF4212E04EEF5A
:10AB250024F960071470F512F37B227E4E7FEA123A
:10AB3500B02CEF14601A14602414602E14603224B3
:10AB4500047033E4FF12D1C47F2C7E0112E303228B
:10AB55007F0112D1C47F2C7E0112E303227F0212F2
:10AB6500D1C47F2C7E0112E303227F0312D1C4805E
:10AB7500057F0412D1C47E4E7FB512B02CEF146050
:10AB85002A14604D240270949004E7E024FC600FC1
:10AB950004708912F37B12E92512ECC602AB21126F
:10ABA500F37B12E94812ECC602AB219004E7E024DE
:10ABB500FC601204600302AB2112F37B12EBB912A5
:10ABC500ECC602AB2112F37B12EBD812ECC602AB3A
:05ABD5002112F37B22B8
:10D58B007F017D0A7B06753430C20112969A7F02A9
:10D59B007D127A3D7B6412EA5A7F097D0A7B067500
:10D5AB003430C20112969A7F0A7D127A437BA31202
:10D5BB00EA5A7F207DBA7B06753430C20112969AE7
:0CD5CB007F217DC27A417B9112EA5A2236
:0EF32C00900522E0B40106A3E0FF12C41222F5
:10DF78007F207D647B06753430C20112969A7F211A
:10DF88007D6C7A447BA712EA5A7F027D647B067512
:10DF98003430C20112969A7F037D6C7A447B251235
:06DFA800EA5A12F32C22DC
:10D4EF008F2212F37B900522E075F008A404FF7DD4
:10D4FF000A7B06753430C20112969AAF2212F512CA
:10D50F00E52275F008A404FF7D0A7B06753430D23E
:10D51F000112969AE522B4010412DF7822E4FF7D0E
:0ED52F003A12E4BF7F287DB6E4FB12D9BC227D
:10C3910012EB1E12D58B900522E075F008A404FF64
:10C3A1007D0A7B06753430D20112969A900522E0FF
:10C3B100B4010312DF7812E04EEF24F96007147024
:10C3C100F512F37B227E4F7F0112B02CEF14601027
:10C3D100047012E4FF12D4EF7F2C7E0112E30322DA
:10C3E1007F0112D4EF7E4E7FB512B02CEF14601294
:10C3F10014601A240270BF12F37B12E33212F32C81
:10C4010080B412F37B12EB9A12F32C80A912F37B06
:01C411002208
:10D5D7007F017D0A7B06753430C20112969A7F025D
:10D5E7007D127A3D7B6412EA5A7F097D0A7B0675B4
:10D5F7003430C20112969A7F0A7D127A437BA312B6
:10D60700EA5A7F207DBA7B06753430C20112969A9A
:0CD617007F217DC27A417B9112EA5A22E9
:10E5670090054BE0FF75F003A42425F582E43405FC
:10E57700F583E0B40113EF75F003A42426F582E4D4
:0AE587003405F583E0FF12C41222F0
:10DFAE007F207D647B06753430C20112969A7F21E4
:10DFBE007D6C7A457BAB12EA5A7F027D647B0675D7
:10DFCE003430C20112969A7F037D6C7A457B2912FA
:06DFDE00EA5A12E5672279
:10CCC1008F2212F37B90054BE075F003A42425F528
:10CCD10082E43405F583E075F008A404FF7D0A7B46
:10CCE10006753430C20112969A90054BE0FFAD22D1
:10CCF10012F1F5E52275F008A404FF7D0A7B0675A3
:10CD01003430D20112969AE522B4010412DFAE2228
:10CD1100E4FF7D3A12E4BF7F287DB6E4FB12D9BC63
:01CD210022EF
:10BB870012EB1E12D5D790054BE075F003A42425C0
:10BB9700F582E43405F583E075F008A404FF7D0A17
:10BBA7007B06753430D20112969A90054BE075F0FA
:10BBB70003A42425F582E43405F583E0B4010312D8
:10BBC700DFAE12E04EEF24F960071470F512F37B35
:10BBD700227E4F7F1812B02CEF146010047012E40D
:10BBE700FF12CCC17F2C7E0112E303227F0112CC0E
:10BBF700C17E4E7FB512B02CEF1460171460242459
:10BC07000270BF12F37B90054BE0FF12E5E512E5EA
:10BC17006780AF12F37B90054BE0FF12E77212E5E6
:07BC270067809F12F37B22EE
:10E7E20012EB1EC20212E0EB7FA07E007D557BFF82
:10E7F2007A3979791298E312EB3DD20212E0EB7F7B
:05E802000212E1E52215
:10CD82007E3A7F56C20112E65F751E00751D007560
:10CD92001C00751B007F067D5A7B06C2011263458B
:10CDA2004002C3223000167F657E487D047C00ABC2
:10CDB2001EAA1DA91CA81BC3127C91601920001871
:10CDC2007FBA7E497D047C00AB1EAA1DA91CA81B4C
:0FCDD200C3127C917002D32212E7E240A3C32266
:10E591008F419003D8E541F07F087E007D007C002B
:10E5A10012578BAF41EF3395E08F47F546F545F5AF
:0AE5B100447F0312ABDA12DD4C22A6
:10C8AD007E397F59D20112E65F7F747E007D5A7BFF
:10C8BD00FF7A39797212B5839003D8E0FF3395E092
:10C8CD008F1EF51DF51CF51B7F097D5A7B02D201CC
:10C8DD0012634550377F057E007D007C00AB1EAA9C
:10C8ED001DA91CA81BC3127C7B401C7F237E007DD1
:10C8FD00007C00AB1EAA1DA91CA81BD3127C7B506B
:0DC90D0006AF1E12E5912212E7E2409422CF
:10D066008F23E52304FF7D4B7A467BA512EA5AAF50
:10D07600237D5B7B3875398012E469E5232403FF41
:10D086007D5B7B3875390112E469AF237D5A7A4698
:10D096007B9F12EA5AAF237D937A467B9F12EA5A08
:10D0A600AF237D6D7B047539FF12DBB1AF237D8025
:09D0B6007B047539FF12DBB12285
:10E902008F419003D9E541F07F107E007D007C00AD
:10E9120012578BE4854147F546F545F5447F0F12C2
:03E92200ABDA224B
:10902A0012EB1EC20212E0EB7FA07E007D147BFFD2
:10903A007A3979941298E3E4F522E52275F005A4C9
:10904A002403FF12D0660522E522C3940740EB7F72
:10905A00037D5B7A467B5512EA5A7F037D6E7A4618
:10906A007B5512EA5A7F037D817A467B5512EA5A6A
:10907A007F087D5B7A467B5512EA5A7F087D6E7AB5
:10908A00467B5512EA5A7F0D7D6E7A467B5512EA67
:10909A005A7F0D7D817A467B5512EA5A7F127D5B93
:1090AA007A467B5512EA5A7F127D817A467B55129F
:1090BA00EA5A7F177D5B7A467B5512EA5A7F1C7DF6
:1090CA006E7A467B5512EA5A7F217D817A467B5514
:1090DA0012EA5A7F087E007DCB7BFF7A3979FA1231
:1090EA00B583D20212E0EB12E04EEF24F9600714C6
:1090FA0070F512F37B22E55D70EDC3E55C944BE5F8
:10910A005B9400405BD3E55C9494E55B940050501B
:10911A00E4F522E522C3940750CDE522FB7A007CD0
:10912A00007D28FFAE02127A81EF2418FFE43EFE8A
:10913A00C3E55A9FE5599E4023EB2401FFEA33FE1B
:10914A00127A81EF2418FFE43EFED3E55A9FE559CF
:10915A009E500912F37BAF2212E90222052280B344
:10916A00C3E55A9408E559940050030290F1D3E5F7
:10917A005A94F8E559940040030290F1C3E55C94CF
:10918A00CBE55B940050030290F1D3E55C94F0E5E3
:0C919A005B940040030290F112F37B2272
:10F0300012F4DF7547007546007545007544007F82
:05F040000B12ABDA2207
:10E0B70012EB1EC20212E0EB7FA07E007D417BFFC8
:10E0C7007A3979C91298E37FA07E007D5F7BFF7A5A
:10E0D7003979DF1298E312EB7BD20212E0EB7F0271
:04E0E70012E1E5223B
:10E9F5008F4112F030AF4112C7619005317401F0BB
:10EA05007547007546007545007544007F0212ABD9
:02EA1500DA2203
:1091A6007E397F9BC20112E65F90052FE0FEA3E0A9
:1091B600FF12E98E8F1E8E1D8D1C8C1B90052EE0D6
:1091C600FF12F2998F1C90052DE0FF12F2998F1B6A
:1091D600AF1EAE1DAD1CAC1B12DD858F1E8E1D8D08
:1091E6001C8C1B7F027D5A7B09C20112634540031A
:1091F600029300AF1EAE1DAD1CAC1B12DCD88F1E39
:109206008E1D8D1C8C1BAF1B12F2E5EF541FFFAC9D
:1092160024AD25ED54E0FDECF524ED4FF525AF1C0E
:1092260012F2E5EF540FC454F0FEAC22AD23EC5419
:109236000F4EF522EDF523AF1DEFFEAD1E7C00E4CB
:109246002DFFEC3EFE12E82CEE540FFEAC22AD23B1
:10925600EC54F04EF522EFF5237E397FB3C20112AE
:10926600E65FE4F51CF51B90052CE0FF12F2998FE2
:109276001D90052BE0FF12F2998F1EAF1EAE1DAD9D
:109286001CAC1B12DD858F1E8E1D8D1C8C1B7F0753
:109296007D5A7B0AC201126345505FAF1EAE1DADFB
:1092A6001CAC1B12DCD88F1E8E1D8D1C8C1BAF1D9B
:1092B60012F2E57E00EF541F7805C333CE33CED8C5
:1092C600F9FFAC24AD25EC54FCFCED541FFDEC4E2F
:1092D600F524ED4FF525AF1E12F2E5EF543F25E0DC
:1092E60025E0FEAC24AD25EC54034EF524EDF52522
:0B92F60012E0B750057F2212E9F522BC
:108D0A0012EB1EC20212E0EB7F087E007D037BFF9E
:108D1A007A3A794B12B5837F087E007D277BFF7AEA
:108D2A003A790D12B5837F087E007D4B7BFF7A3A34
:108D3A00791C12B5837F087E007D6F7BFF7A3A79B2
:108D4A002412B5837F087E007DCB7BFF7A3979FABE
:108D5A0012B5837F22E4FD7BF075258012E0837FC4
:108D6A00237D027A4C7B4312EA5A7F247D247A4B74
:108D7A007BFF12EA5A7F237D377A4C7BC512EA5A67
:108D8A007F227D5F7B0675395512DBB17F237D68B3
:108D9A007A4C7B4312EA5A7F247D8B7A4C7B2312CE
:108DAA00EA5A7F237D9D7A4C7BC512EA5A7F227D3F
:108DBA00C57B0675395512DBB1900546E0600D7F1B
:108DCA00237DCE7A4D7BC912EA5A800B7F237DCE52
:108DDA007A4D7B4712EA5AD20212E0EB12E04EEFCA
:108DEA0024F960071470F512F37B227E4F7F7F12FD
:108DFA00B02CEFB40A0050E4908E09F828287302C8
:108E0A008E27028E2E028E35028E3C028E43028EF1
:108E1A0051028E5F028E68028E71028E9912F3D011
:108E2A0012D8F42212F3D01289522212F3D012BEAF
:108E3A00A42212F3D012B3472212F37BE51AC39489
:108E4A00045099051A809512F37BE51AD3940140D0
:108E5A008B151A808712F37B12F0C0028DE612F38B
:108E6A007B12F0D3028DE612F37B12F19E90054637
:108E7A00E0600E7F237DCE7A4D7BC912EA5A028DBD
:108E8A00E67F237DCE7A4D7B4712EA5A028DE6129F
:038E9A00F37B2245
:10F04500900449EFF0FEE48F47F546F545F5447F1A
:05F055000112ABDA22FC
:10D8F4007E3C7F2CC20112E65F900449E0FFE48F76
:10D904001EF51DF51CF51B7F0A7D5A7B02C2011210
:10D914006345501EE51EC39401400EE51ED3946377
:10D924005007AF1E12F045800612E7E240C22212F1
:03D93400EB1E22C5
:107FDD007E3A7F65C20112E65F7F877E007D5A7B08
:107FED00FF7A39797212B5839003DBE0240CFF9090
:107FFD0003DAE03400FE12F1B07E007C007D0A123F
:10800D007A81EEFD3395E0FCC004C0059003DBE002
:10801D00240CFF9003DAE03400FE7C017D00127A1F
:10802D00EA12F1B07C007D0A127A81D0E02FFFD0E8
:10803D00E03EFE3395E08F1E8E1DF51CF51B7F096E
:10804D007D5A7B21C2011263454003028263E51E06
:10805D00C394054038E51ED394325031E51E75F0BA
:10806D000A8475F00AA4FFAD1EC3ED9FFFE495F0E1
:10807D00EF7F00FE7C007D0A127A95AC06AD07E518
:10808D001E75F00A844CF522EDF523800912E7E206
:10809D005003027FDD227E3A7F70C20112E65F90AF
:1080AD0003DCE0FCA3E0FDA3E0FEA3E0F51E8E1DC6
:1080BD008D1C8C1B7F057D5A7B63C201126345406D
:1080CD00030282637F907ED07D037C00AB1EAA1DD0
:1080DD00A91CA81BD3127C915012AF1EAE1DAD1C56
:1080ED00AC1B8F278E268D258C24800612E7E2404F
:1080FD00A5227E3A7F7AC20112E65F7F927E007DD5
:10810D005A7BFF7A39797512B5839003E0E0FCA3B1
:10811D00E0FDA3E0FEA3E0F51E8E1D8D1C8C1B7FE4
:10812D00087D5A7B04C20112634540030282637FBE
:10813D00287E237D007C00AB1EAA1DA91CA81BD385
:10814D00127C915012AF1EAE1DAD1CAC1B8F2B8E31
:10815D002A8D298C28800612E7E24096227E3A7FEE
:10816D008AC20112E65F7F927E007D5A7BFF7A39CB
:10817D00797512B5839003ECE0FEA3E0FFE48F1E4A
:10818D008E1DF51CF51B7F087D5A7B04C201126301
:10819D004540030282637F287E237D007C00AB1E59
:1081AD00AA1DA91CA81BD3127C91400302825B90CF
:1081BD0003DAE522F0A3E523F0AF27AE26AD25AC1B
:1081CD0024A3127CAEAF2BAE2AAD29AC289003E0D0
:1081DD00127CAEAE1DAF1E9003ECEEF0A3EFF07F60
:1081ED00E07E407D007C0012578B9003DAE0FEA309
:1081FD00E0FFEE3395E08F478E46F545F5447F0859
:10820D0012ABDA9003DCE0FCA3E0FDA3E0FEA3E0FB
:10821D00F5478E468D458C447F0612ABDA9003E010
:10822D00E0FCA3E0FDA3E0FEA3E0F5478E468D45FF
:10823D008C447F0712ABDA9003ECE0FEA3E0FFE481
:10824D008F478E46F545F5447F1312ABDA2212E7C0
:07825D00E2500302816A22D6
:10ECE30012EB1EC20212E0EB7FA07E007D557BFF7C
:0DECF3007A3B79EA1298E3D20212E0EB229C
:109F670012EB1EC20212E0EB7F027E007D037BFF35
:109F77007A3B797E12B5837F157E007D277BFF7A3A
:109F87003B79A312B5837F157E007D4B7BFF7A3B20
:109F970079AC12B5837F157E007D6F7BFF7A3B79A5
:109FA700B412B5837F157E007D937BFF7A3B79BD25
:109FB70012B5839003EAE024FB601924FB60222496
:109FC700F6602B241370327F017D327A4E7B4B1261
:109FD700EA5A80257F017D567A4E7B4B12EA5A80DA
:109FE700187F017D7A7A4E7B4B12EA5A800B7F01EC
:109FF7007D9E7A4E7B4B12EA5A7F087E007DCB7B93
:10A00700FF7A3979FA12B583D20212E0EB12E04EE9
:10A01700EF24F960071470F512F37B227E507F5E00
:10A0270012B02C8F22EF24FB600F24FB600B24F669
:10A03700600714602C241470D412F37B9003EAE5B4
:10A0470022F07F007E107D007C0012578B9003EA80
:10A05700E0FFE48F47F546F545F5447F0512ABDA97
:05A067002212F37B2230
:10B83F0012EB1EC20212E0EB7FA07E007D417BFF68
:10B84F007A3B79C61298E37FA07E007D5F7BFF7AFB
:10B85F003B79DB1298E312EB5CD20212E0EB7F0232
:10B86F0012E1E5507312ECE3127740502A12EB1EEF
:10B87F00C20212E0EB7FA07E007D557BFF7A3B7901
:10B88F00F51298E37547017546007545007544003C
:10B89F007F0D12ABDA802812EB1EC20212E0EB7F93
:10B8AF00A07E007D557BFF7A3C790A1298E375479D
:10B8BF00007546007545007544007F0D12ABDA7FA9
:10B8CF00177DC4752F397530F17B1012DFE4D2026A
:09B8DF0012E0EB7F0112E1E52209
:10D796007E3B7F8FC20112E65F9003D7E0FFE48FE6
:10D7A6001EF51DF51CF51B7F0A7D5A7B02C2011270
:10D7B600634550249003D7E51EF07F047E007D006C
:10D7C6007C0012578B9003D7E0FFE48F47F546F5B0
:09D7D60045F5447F1012ABDA2284
:10BEA40012EB1EC20212E0EB7F027E007D037BFFD9
:10BEB4007A3A791C12B5837F087E007D277BFF7A4E
:10BEC4003B796B12B5837F087E007D4B7BFF7A3B09
:10BED400797E12B5837F087E007D6F7BFF7A3B7984
:10BEE4008F12B5837F087E007DCB7BFF7A3979FA88
:10BEF40012B583D20212E0EB12E04EEF24F9600790
:10BF04001470F512F37B227E507F8912B02CEF144B
:10BF14006011146015146019240370DC12F3D0123C
:10BF2400B83F2212F3D0129F672212F3D012D79691
:05BF34002212F37B2244
:10BFCC0012EB1EC20212E0EB7F0412E43E7F0A7EEB
:10BFDC00007D0A7BFF7A3A79CD12B5837F177D32CB
:10BFEC0012E4BF90050CE0FEA3E0FFE4FCFD752B12
:10BFFC008512CFB07F137E017D2D7BFF7A39797747
:10C00C0012B5837F0A7E007D647BFF7A3A79D91260
:10C01C00B5837F177D8C12E4BF9003E8E0FEA3E0AC
:10C02C00FFE4FCFD752B8512CFB07F137E017D875D
:10C03C007BFF7A39797712B583D20212E0EB7F1746
:10C04C007DC4752F397530F17B1012DFE47F01123E
:03C05C00E1E522F9
:10D6B90012EB1EC20212E0EB7FA07E007D417BFFD0
:10D6C9007A3A79E71298E37FA07E007D5F7BFF7A43
:10D6D9003A79FC1298E312EB7BD20212E0EB7F025B
:10D6E90012E1E5501412E49475470075460075453A
:0AD6F900007544007F0C12ABDA222A
:10BE0B007E3B7F03C20112E65F7F927E007D5A7BF1
:10BE1B00FF7A39797712B5839003E6E0FEA3E0FF52
:10BE2B00E48F1E8E1DF51CF51B7F087D5A7B04C20B
:10BE3B000112634550627F007E007D007C00AB1ECB
:10BE4B00AA1DA91CA81BD3127C9140447FE87E033A
:10BE5B007D007C00AB1EAA1DA91CA81BC3127C91E4
:10BE6B00502EAE1DAF1E9003E6EEF0A3EFF07F0059
:10BE7B007E017D007C0012578B9003E6E0FEA3E071
:10BE8B00FFE48F478E46F545F5447F0912ABDA2266
:09BE9B0012E7E2500302BE0B2283
:10B8E8007E3A7FCDC20112E65F90050CE0FEA3E030
:10B8F800FFE48F1E8E1DF51CF51B7F077D5A7B0507
:10B90800C201126345400302B9907FFF7EFF7D00AC
:10B918007C00AB1EAA1DA91CA81BD3127C91500841
:10B92800851D22851E23800612E7E240B3227E3A57
:10B938007FD9C20112E65FAE22E485231E8E1DF573
:10B948001CF51B7F077D5A7B05C2011263455038E1
:10B958007FFF7EFF7D007C00AB1EAA1DA91CA81BD3
:10B96800D3127C91501DAF23AE22AD1EAC1D12D553
:10B978003D7547007546007545007544007F0A12FD
:09B98800ABDA2212E7E240A6222C
:10B2850012EB1EC20212E0EB7F027E007D037BFF04
:10B295007A3A794412B5837F087E007D277BFF7A51
:10B2A5003A798E12B5837F087E007D4B7BFF7A3A13
:10B2B500799812B5837F087E007D6F7BFF7A3A7996
:10B2C500A512B5837F087E007D937BFF7A3A79BA14
:10B2D50012B5837F087E007DCB7BFF7A3979FA1220
:10B2E500B583D20212E0EB12E04EEF24F9600714A9
:10B2F50070F512F37B227E507FBE12B02CEF1460E6
:10B3050014146018146026146034240470D912F3E0
:10B31500D012BFCC2212F3D012D6B92212F3D0D25A
:10B325000012CD82501B12F3D012BE0B2212F3D0A5
:10B33500D20012CD82500A12F3D012B8E82212F3CD
:02B345007B2269
:10D9FD008F418D429003E5E542F09003E4E541F05F
:10DA0D007F007E0C7D007C0012578BE485421EF555
:10DA1D001DF51CF51B85411DAF1EAE1DAD1CAC1BB0
:10DA2D008F478E468D458C447F0412ABDA12DD4C48
:01DA3D0022C6
:10C58E007E3B7F197C3B7D30C20012DC277F747EA0
:10C59E00007D5A7BFF7A39797212B5839003E4E0FD
:10C5AE00FFE48F1EF51DF51CF51B7F097D5A7B02DE
:10C5BE00C2011263455041851E227E3B7F427C3B69
:10C5CE007D59C20012DC277F747E007D5A7BFF7A74
:10C5DE0039797212B5839003E5E0FFE48F1EF51DE5
:10C5EE00F51CF51B7F097D5A7B02C2011263455073
:09C5FE0007AF22AD1E12D9FD2287
:10D1170012EB1EC20212E0EB7FA07E007D417BFF77
:10D127007A3C79101298E37FA07E007D5F7BFF7ABF
:10D137003C79241298E312EB7BD20212E0EB7F02D8
:10D1470012E1E5E4339003EBF07F007E207D007C65
:10D157000012578B9003EBE0FFE48F47F546F54548
:08D16700F5447F1112ABDA223E
:10B3470012EB1EC20212E0EB7F027E007D037BFF41
:10B357007A3A792412B5837F087E007D277BFF7AAE
:10B367003A792E12B5837F087E007D4B7BFF7A3AB0
:10B37700794412B5837F087E007D6F7BFF7A3A7927
:10B387004B12B5837F087E007D937BFF7A3A793A2B
:10B3970012B5837F087E007DCB7BFF7A3979FA125D
:10B3A700B583D20212E0EB12E04EEF24F9600714E6
:10B3B70070F512F37B227E507FF312B02CEF1460EE
:10B3C70014146018146026146034240470D912F31E
:10B3D700D012C58E2212F3D012B2852212F3D0C238
:10B3E7000012CD82501B12F3D012D1172212F3D0C4
:10B3F700D20012CD82500A12F3D0127FDD2212F34F
:02B407007B22A6
:109E6000AF1EAE1DAD1CAC1B12DABC8F1E8E1D8D3D
:109E70001C8C1BAF1D12F4387E007C007D64127AAE
:109E800081C006C007AF1D12F43D7E007C037DE853
:109E9000127A81D0E02FFDD0E03EFCC004C005AFB7
:109EA0001E12F43D7E007C007D0A127A81D0E02FE4
:109EB000FFD0E03EFEC006C007AF1E12F438EFFD33
:109EC000D0E02DFFD0E03400FEE48F258E24F52372
:109ED000F522AD23AC227B107A27F9F8127B438F51
:109EE000258E248D238C22AF1C12F4387E007C003A
:109EF0007D64127A81C006C007AF1C12F43D7E005B
:109F00007C037DE8127A81D0E02FFFD0E03EFEE4B2
:109F1000FCFDE5252FF525E5243EF524ED3523F55B
:109F200023EC3522F522AF1B12F43D7E007C007D30
:109F30000A127A81C006C007AF1B12F438EFFDD0B9
:109F4000E02DFFD0E03400FEE4FCFDE5252FF525F3
:109F5000E5243EF524ED3523F523EC3522F522AF3B
:079F600025AE24AD23FC2215
:108952007E3C7F5C7C3C7D6EC20012DC2790052F42
:10896200E0FEA3E0FF12E98E8F1E8E1D8D1C8C1B74
:1089720090052EE0FF12F2998F1C90052DE0FF1258
:10898200F2998F1BAF1EAE1DAD1CAC1B12DD858F85
:108992001E8E1D8D1C8C1B7F027D5A7B09C201120B
:1089A20063454003028B56129E609004D6127CAE41
:1089B2007E3C7F757C3C7D87C20012DC27E4F51C7F
:1089C200F51B90052CE0FF12F2998F1D90052BE00C
:1089D200FF12F2998F1EAF1EAE1DAD1CAC1B12DD35
:1089E200858F1E8E1D8D1C8C1B7F077D5A7B0AC2B4
:1089F200011263454003028B569004DFE51DF0A38C
:108A0200E51EF07E3C7F8C7C3C7D9CC20012DC2704
:108A120090052FE0FEA3E0FF12E98E8F1E8E1D8DC2
:108A22001C8C1B90052EE0FF12F2998F1C90052DD5
:108A3200E0FF12F2998F1BAF1EAE1DAD1CAC1B12D4
:108A4200DD858F1E8E1D8D1C8C1B7F027D5A7B093E
:108A5200C2011263454003028B56129E609004E1EC
:108A6200127CAE7E3C7FA37C3C7DB3C20012DC272D
:108A7200E4F51CF51B90052CE0FF12F2998F1D9076
:108A8200052BE0FF12F2998F1EAF1EAE1DAD1CAC7E
:108A92001B12DD858F1E8E1D8D1C8C1B7F077D5A40
:108AA2007B0AC2011263454003028B569004D0E553
:108AB2001DF0A3E51EF07E3C7F3F7C3C7D53C2004F
:108AC20012DC27751E03751D00751C00751B007FC7
:108AD2000B7D5A7B01C201126345507812EB1EE5F1
:108AE2001ED3940040089004CFE51EF0800612E7E2
:0A8AF200E240C32212ECE312C9F2C5
:108AFC005058C20E12F53C125DA412F54012EB1E3A
:108B0C00C20212E0EB7FA07E007D417BFF7A3C79B4
:108B1C00B81298E37FA07E007D5F7BFF7A3C79C71B
:108B2C001298E312EB7BD20212E0EB7F0212E1E52A
:108B3C00500512ECE380BDD20E75470075460075EA
:0B8B4C0045007544007F0E12ABDA22DA
:0CF3D00012F37BD20012F156E4F51F226C
:10A838007E517F4612B02CEFB40800400302A922D3
:10A8480090A84FF828287302A86702A88002A89E3B
:10A8580002A8BD02A8CD02A8E302A8FC02A90C9098
:10A8680004EAE0600302A92212F3D012C391900512
:10A878004D74FFF012CE3E229004EAE0600302A974
:10A888002212F3D0E490054BF012BB8790054D746B
:10A89800FFF012CE3E229004EAE0600302A92212E1
:10A8A800F3D090054B7401F012BB8790054D74FFEF
:10A8B800F012CE3E2212F3D01291A690054D74FFED
:10A8C800F012CE3E229004EAE0704F12F3D012AAA2
:10A8D800F590054D74FFF012CE3E229004EAE07028
:10A8E8003912F3D012C8AD12902A90054D74FFF0BA
:10A8F80012CE3E2212F3D0128D0A90054D74FFF04D
:10A9080012CE3E2290054EE0C39401500D12F37B07
:0BA9180090054C7401F090054EF022F9
:10E5BB002E006176672000653D0020703D002069CC
:10E5CB003D0020643D00206F3D0044696E3A200001
:0AE5DB0020446F75743A2000200000
:0FF2C700EF60067F48129A06227F4C129A0622A9
:10D62300AB057E007C007D64127A817DFF127A95C2
:10D633007C00EF2BF525EC3EF524FEAF257D0A1289
:10D643007A95E4FCFD752B8212CFB07EE57FBB1289
:10D65300EEC7AE24AF257C007D0A127A95AE04AFE7
:0BD6630005E4FCFD752B8112CFB02206
:10707800E4FF12E43EE4FF7D0712EEDF90038DE0AB
:10708800FEA3E0FFE4FCFD752B8412CFB07F0B7DDF
:107098000712EEDF90038BE0FEA3E0FFE4FCFD7532
:1070A8002B8412CFB07F177D0712EEDF90038FE09D
:1070B800FEA3E0FFE4FCFD752B8412CFB0E4FF7D56
:1070C8001612EEDF900385E0FEA3E0FFE4FCFD75F9
:1070D8002B8412CFB07F0B7D1612EEDF900387E072
:1070E800FEA3E0FFE4FCFD752B8412CFB07F177D73
:1070F8001612EEDF900389E0FEA3E0FFE4FCFD75C5
:107108002B8412CFB0E4FF7D0C12EEDF9004ECE08C
:10711800FEA3E08E22F5237EE57FBD12EEC7C3E510
:10712800226480948050077F2D129A0680057F2064
:10713800129A06AE22AF237C017D00127AEA12F180
:10714800B0EE3395E0FDFC752B8212CFB07F2E1286
:107158009A06AF23AE2212F1B07E007C007D641245
:107168007A81EEFF3395E012F299E4FCFD75300A5E
:1071780012C28B9003BDE0FEA3E0FFC39003BCE006
:107188009FF5239003BBE09EF5227F0BE4FD12EEF2
:10719800DFC3E5226480948050127F2D129A06C3C3
:1071A800E49523F523E49522F52280057F20129AA1
:1071B80006AE22AF237C007D0A127AEAEE3395E010
:1071C800FDFC752B8212CFB07F2E129A06AE22AF2D
:1071D800237C007D0A127AEAAF0512F299E4FCFDDD
:1071E80075300912C28B7F16E4FD12EEDF7EE57F53
:1071F800C212EEC7C39004BEE06480948050077F3B
:107208002D129A0680057F20129A069004BEE0FE91
:10721800A3E0FF7C017D00127AEA12F1B0EE33950B
:10722800E0FDFC752B8212CFB07F2E129A069004D7
:10723800BEE0FEA3E0FF12F1B07E007C007D641288
:107248007A81EEFF3395E012F299E4FCFD75300A7D
:1072580012C28B7EE57FC512EEC77B107A007900DB
:1072680078009004C0E0FCA3E0FDA3E0FEA3E0FFEB
:1072780012D8B0752B0312CFB07EE57FC912EEC7C6
:107288007B407A06790078009004C4E0FCA3E0FD16
:10729800A3E0FEA3E0FF12D8B0752B8312CFB07E17
:1072A800E57FCD12EEC77B107A0079007800900454
:1072B800CAE0FCA3E0FDA3E0FEA3E0FF12D8B0758E
:1072C8002B0312CFB07EE57FD112EEC79004B8E051
:1072D800FFE4FCFDFE752B8312CFB07F1DE4FD1289
:1072E800EEDF7EE57FD512EEC7900536E0FF12F29D
:1072F800C7900532E0FF12F2C7900535E0FF12F2A1
:10730800C7900534E0FF12F2C7900537E0FF12F28C
:10731800C7900533E0FF12F2C77EE57FDB12EEC7A8
:1073280090053CE0FF12F2C790053AE0FF12F2C761
:10733800900538E0FF12F2C7900539E0FF12F2C756
:1073480090053BE0FF12F2C77F077D0112EEDF9048
:107358000503E0FF7D0112D6237EE57FE312EEC729
:10736800900504E0FF7D0112D6237F127D0412EE02
:10737800DF900505E0FF7D0112D6237F077D0C1203
:10738800EEDF9004FCE0FF7D0112D6237EE57FE36B
:1073980012EEC79004FDE0FF7D0112D6237EE57F43
:1073A800E312EEC79004FEE0FF7D0112D6237F12A0
:1073B8007D0C12EEDF9004FFE0FF7D0112D6237EE4
:1073C800E57FE312EEC7900500E0FF7D0112D623AA
:1073D8007EE57FE312EEC7900501E0FF7D0112D63E
:1073E800237F067D2312EEDF900502E0FF7D021267
:0373F800D6232277
:10ED5300E4900520F0900516F0A3F0A3F090051BB6
:0BED6300F0A3F0A3F090051A04F022CA
:10ACBE00900507E0FFE48F3BF53AF539F538AF3BE9
:10ACCE00AE3AAD39AC387B197A0DF9F8127B438F59
:10ACDE003B8E3A8D398C387B007A6479007800127D
:10ACEE007BCE8F3B8E3A8D398C387E057F16AD3BF1
:10ACFE0012CB94EF6008900519E090051FF09005B7
:10AD0E001FE0C394165009A37401F012F4E68005F7
:10AD1E00E4900520F09004FAE0FFE48F3BF53AF55D
:10AD2E0039F538AF3BAE3AAD39AC387BBA7A8BF9E0
:10AD3E00F8127B438F3B8E3A8D398C387B007A64C8
:10AD4E0079007800127BCE8F3B8E3A8D398C387F0E
:10AD5E00FF7E007D007C00AB3BAA3AA939A838D310
:10AD6E00127C91400C753BFF753A007539007538B1
:10AD7E00007E057F1BAD3B12CB94EF600F90051E3E
:10AD8E00E0900521F0C394035002E4F0E490051A1C
:02AD9E00F022A1
:10CB94008D3CAB07AA068B828A83E4853CF0127B2A
:10CBA400208B828A83A3A3E004F0E0FFC3940340B4
:10CBB4002BEFFD7C008B828A83E0FEA3E0FF127AD8
:10CBC400958B828A83A3A3A3EFF08B828A83E4F0FC
:10CBD400A3F08B828A83A3A3F07F012290051AE03D
:10CBE4006011AE02AF038F828E83A3A3A3E53CF052
:06CBF4007F01227F0022F8
:04E18900410448FF06
:0CF3DC0012F27912F2B8D20E12E41222E2
:10ED0000EF14600D14600D14600D14600D24047078
:0DED10000B7F00227F01227F02227F032261
:105149009003D8E0900430F0E4FF12D4028E388F37
:105159003912F1B0EE5403FE900431E054FCFCA383
:10516900E4EC4E900431F0EFA3F0C3E53864809489
:10517900805003D38001C3E433540125E025E0FEC8
:10518900900431E054FBFCA3E0FDEC4E900431F0B7
:10519900EDA3F09004EEE0600A900431E04408F0D9
:1051A900A3E0F07F0112D4028E388F3912F1B0EEEC
:1051B9005403FE900433E054FCFCA3E4EC4E900449
:1051C90033F0EFA3F0C3E538648094805003D380B3
:1051D90001C3E433540125E025E0FE900433E05493
:1051E900FBFCA3E0FDEC4E900433F0EDA3F090043A
:1051F900F2E0600A900433E04408F0A3E0F07F0293
:1052090012D4028E388F3912F1B0EE5403FE900495
:1052190035E054FCFCA3E4EC4E900435F0EFA3F028
:10522900C3E538648094805003D38001C3E43354C8
:105239000125E025E0FE900435E054FBFCA3E0FDE8
:10524900EC4E900435F0EDA3F09004F6E0600A907E
:105259000435E04408F0A3E0F07F0312D4028E384D
:105269008F3912F1B0EE5403FE900437E054FCFC80
:10527900A3E4EC4E900437F0EFA3F0C3E538648063
:1052890094805003D38001C3E433540125E025E021
:10529900FE900437E054FBFCA3E0FDEC4E9004378C
:1052A900F0EDA3F07F0412D4028E388F3912F1B0D9
:1052B900EE5403FE900439E054FCFCA3E4EC4E9058
:1052C9000439F0EFA3F0C3E538648094805003D328
:1052D9008001C3E433540125E025E0FE900439E060
:1052E90054FBFCA3E0FDEC4E900439F0EDA3F07FF4
:1052F9000512D4028E388F3912F1B0EE5403FE90A4
:10530900043BE054FCFCA3E4EC4E90043BF0EFA317
:10531900F0C3E538648094805003D38001C3E4333B
:10532900540125E025E0FE90043BE054FBFCA3E09A
:10533900FDEC4E90043BF0EDA3F0900524E0540FF2
:10534900C454F0FE900431E0540FFCA3E0FDEC4E90
:10535900900431F0EDA3F0900527E0540FC454F008
:10536900FE900433E0540FFCA3E0FDEC4E900433AF
:10537900F0EDA3F090052AE0540FC454F0FE900418
:1053890035E0540FFCA3E0FDEC4E900435F0EDA39D
:10539900F09004B9E0540FFF90043DE054F04FF051
:1053A900900484E0FF12ED00EF5403FFC454F0FFB2
:1053B90090043DE054CF4FF0900487E0FF12ED00D8
:1053C900EF5403FFC4333354C0FF90043DE0543F0E
:1053D9004FF090047EE0FF12ED00EF5403FF9004BC
:1053E9003EE054FC4FF090047FE0FF12ED00EF54D3
:1053F90003FF25E025E0FF90043EE054F34FF090D1
:105409000480E0FF12ED00EF5403FFC454F0FF9055
:10541900043EE054CF4FF0900481E0FF12ED00EF1D
:105429005403FFC4333354C0FF90043EE0543F4F4C
:10543900F0900482E0FF12ED00EF5403FF90043F67
:10544900E054FC4FF0900483E0FF12ED00EF5403A9
:10545900FF25E025E0FF90043FE054F34FF090046E
:1054690085E0FF12ED00EF5403FFC454F0FF9004F0
:105479003FE054CF4FF0900486E0FF12ED00EF5467
:1054890003FFC4333354C0FF90043FE0543F4FF04F
:1054990012EC51EF5407FF900440E054F84FFFF02D
:1054A90090053DE075F00A84540FFE33333354F808
:1054B900FEEF54874EFF900440F09004EAE0540157
:1054C900FEC43333335480FEEF547F4E900440F0D2
:1054D90090051FE0541F33333354F8FE900437E02E
:1054E9005407FCA3E0FDEC4E900437F0EDA3F090D7
:1054F9000520E0600A900439E04408F0A3E0F09048
:105509000556E05401C454F0FE900439E054EFFC10
:10551900A3E0FDEC4E900439F0EDA3F0900557E0BF
:06552900600A900439E065
:10552F004420F0A3E0F0900521E0900441F09005B5
:10553F0022E05401FF900442E054FE4FFFF090052B
:10554F0025E05401FE25E0FEEF54FD4EFF9004428E
:10555F00F0900528E05401FE25E025E0FEEF54FB16
:10556F004EFF900442F09003D9E05407FE333333DB
:10557F0054F8FEEF54C74EFF900442F0900550E0F0
:10558F005401FEC4333354C0FEEF54BF4E90044257
:10559F00F0900545E06007900442E04480F09005EC
:1055AF000FE0540F33333354F8FE90043BE054872D
:1055BF00FCA3E0FDEC4EFEEDFF90043BEEF0FCA3F0
:1055CF00EFF0FDAD07900509E05401C433333354B8
:1055DF0080FEEC547F4E90043BF0EDA3F090050A53
:1055EF00E05401C4333354C0FE900439E054BFFC7F
:1055FF00A3E0FDEC4EFEEDFF900439EEF0FCA3EFBF
:10560F00F0FDAD0790050EE05401C43333335480E1
:10561F00FEEC547F4E900439F0EDA3F090055DE061
:10562F005401FFC4333354C0FF900443E054BF4FC1
:10563F00FFF0900555E05401FEC43333335480FE20
:10564F00EF547F4EFF900443F090053EE05401FE6F
:10565F00EF54FE4EFF900443F09004BDE05401FE62
:10566F0025E0FEEF54FD4EFF900443F09004BCE0A4
:10567F005401FE25E025E0FEEF54FB4E900443F06D
:10568F009004BAE06007900443E04408F0900540AE
:10569F00E06007900443E04410F0900551E060078C
:1056AF00900443E04420F0900449E0547FFF9004BD
:1056BF0044E054804FF0200E0302578A900448E0D4
:1056CF00FF90052BE0FE6F700302578A9003EAE00C
:1056DF00FFEE8FF084E5F0600302578AEE543FFF30
:1056EF00900445E054C04FFFF090052CE0FE5403AA
:1056FF005403FDC4333354C0FDEF543F4D90044564
:10570F00F0EE1313543F54075407FFA3E054F84F20
:10571F00FFF090052DE0541FFE33333354F8FEEFA6
:10572F0054074E900446F090052EE0540FFF90045E
:10573F0047E054F04FFFF0900530E054075407FE58
:10574F00C454F0FEEF548F4EFF900447F090053194
:10575F00E05401FEC43333335480FEEF547F4E9038
:10576F000447F0E4900531F012AA0D500E90052B6E
:0C577F00E0900448F012F27912E41222CB
:10ABDA008F43200E0302ACBD90040F7482F0A3E5EC
:10ABEA0043F0AF47AE46AD45AC44A3127CAE9004E9
:10ABFA0049E0900415F07E047F307C047D0FE4F573
:10AC0A00438D828C83E08F828E83F00FBF00010E0A
:10AC1A000DBD00010C0543E543B418E590052BE092
:10AC2A00543FFF900445E054C04FFFF090052CE0DC
:10AC3A00FE54035403FDC4333354C0FDEF543F4D57
:10AC4A00900445F0EE1313543F54075407FFA3E052
:10AC5A0054F84FFFF090052DE0541FFE3333335460
:10AC6A00F8FEEF54074E900446F090052EE0540F7C
:10AC7A00FF900447E054F04FFFF0900530E054078E
:10AC8A005407FEC454F0FEEF548F4EFF900447F071
:10AC9A00900531E05401FEC43333335480FEEF543F
:10ACAA007F4E900447F0E4900531F012AA0D50034C
:04ACBA0012F27922F7
:07F4DF0012F27912E9D322B9
:10F279007E007F187D007B017A047930127CEB22B5
:10BCD30090052BE0543FFF900427E054C04FFFF042
:10BCE30090052CE0FE54035403FDC4333354C0FDCC
:10BCF300EF543F4D900427F0EE1313543F54075471
:10BD030007FFA3E054F84FFFF090052DE0541FFE0A
:10BD130033333354F8FEEF54074E900428F0900564
:10BD23002EE0540FFF900429E054F04FF090052FBC
:10BD3300E0FFA3E090042ACFF0A3EFF090050CE01E
:10BD4300FFA3E090042CCFF0A3EFF0A37401F0E481
:10BD5300A3F0FF74272FF582E43404F583E02576FE
:0FBD6300F5760FBF09EDE576F40490042FF0227A
:1077400012E2454002C32212EE7FE4F576FFFE12FC
:10775000EBF7752701E4F524F525F522F52375A649
:107760001E75A6E1E5276011E4F527AF25AE2412CA
:10777000E6FD400512F488C32212EF3B8F26E52672
:107780002576F57612EF52E5252401FFE43524EF46
:10779000543F700612F4917527010525E525700206
:1077A00005240523E52370020522C3E52394B0E5F3
:1077B00022947C40A912F488E527700312F4917595
:1077C000270175247C7525B0E4F522F52375A61EE6
:1077D00075A6E1E527600FE4F527AF25AE2412E694
:1077E000FD400300C32274D32523F582E522340330
:1077F000F583E0F5262576F576AF2612EF52E525DE
:107800002401FFE43524EF543F700612F4917527EC
:10781000010525E525700205240523E523700205F1
:1078200022C3E523943CE522940040A100E52770A3
:107830000312F49175270175247C7525ECE4F5227B
:10784000F523AE22AF23E4FCFD7B0B7A03F9F8D3DA
:10785000127C7B404C75A61E75A6E1E527600FE4FF
:10786000F527AF25AE2412E6FD400300C322E4F560
:1078700026E5262576F576AF2612EF52E52524017A
:10788000FFE43524EF543F700612F491752701058B
:1078900025E525700205240523E5237002052280D5
:1078A000A100E527700312F49112BCD3752701756E
:1078B000247F7525F7E4F522F52375A61E75A6E14C
:1078C000E527600FE4F527AF25AE2412E6FD40035F
:1078D00000C32274272523F582E5223404F583E0D2
:1078E000F5262576F576AF2612EF52E5252401FF21
:1078F000E43524EF543F700612F4917527010525F5
:10790000E525700205240523E52370020522C3E561
:10791000239409E522940040A100E527700312F4A6
:1079200091E4F576FFFE12EBF7E4FFFE12EC15E4AE
:10793000F522F52375A61E75A6E112EF698F26E5DF
:0379400026257683
:10794300F57612EF3BEF6526600812F49112F48886
:10795300C3220523E52370020522C3E52394B0E582
:1079630022947C40CC12F48812F4917FB07E7C1276
:10797300EC15E4F522F52375A61E75A6E112EF6951
:107983008F26E5262576F57674D32523F582E52221
:107993003403F583E06526600612F49100C32205E3
:1079A30023E52370020522C3E523943CE5229400DA
:1079B30040C50012F4917FEC7E7C12EC15E4F522B5
:1079C300F523AE22AF23E4FCFD7B0B7A03F9F8D356
:1079D300127C7B402575A61E75A6E112EF698F26E2
:1079E300E5262576F576E526600612F49100C32296
:1079F3000523E5237002052280C80012F4917FF766
:107A03007E7F12EC15E4F522F52375A61E75A6E11B
:107A130012EF698F26E5262576F57674272523F55B
:107A230082E5223404F583E06526600612F49100B2
:107A3300C3220523E52370020522C3E5239409E548
:107A430022940040C50012F491E5766002C322D36C
:017A53002210
:0CF3E80012E11E12F4F4E4900531F02252
:10DC620012F50612F2E590052DEFF012F50C12F204
:10DC7200E590052EEFF012F47F12E82C90052FEEBE
:10DC8200F0A3EFF012F50012F2E590052CEFF0127E
:0BDC9200F4FA12F2E590052BEFF022EF
:10C761008F42A807E82402F8E608E6541FFF12F2F8
:10C771009912EE37A842E6FE08E6EEC4540F540FB4
:10C78100FF12F29912EE4FA842E6FE08E6FFEE54C0
:10C791000FFE12E98E12F006E5422402F8E6FE08C9
:10C7A100E67805CEC313CE13D8F9541FFF12F299C0
:10C7B10012F269E5422402F8E6FE08E6EE1313548C
:10C7C1003F543FFF12F29912F259E4FF12F249224B
:0DF37B007516027FE27E0CE4FD12B634220E
:10E36000E4900522F0A3F0FFEF75F003A42425F557
:10E3700082E43405F583E4F0EF75F003A42426F578
:0DE3800082E43405F583E4F00FBF02DC22D7
:06F51200900522EFF0223B
:10EB9A00900523E0240AF0E0D3946440037464F0FF
:0FEBAA00900523E0FF75F00A84C3EF95F0F02289
:10E33200900523E0C3940A5004E4F080079005237B
:10E34200E024F6F0900523E0C394005002E4F0903C
:0EE352000523E0FF75F00A84C3EF95F0F0227A
:10F1F500EF75F003A42425F582E43405F583EDF0DD
:01F2050022E6
:10E77200EF75F003A42426F582E43405F583E0FE68
:10E78200240AFED3946440027E64EE75F00A84C3C8
:06E79200EE95F0FEF022FE
:10E5E500EF75F003A42426F582E43405F583E0FEF7
:10E5F500C3940A5004E4FE800474F62EFEEE75F012
:09E605000A84C3EE95F0FEF02238
:10EA1700EFC394005002E4FFEFD3946440027F6495
:10EA27000F0F0F7E007C007D0F127A817D64127AB2
:02EA3700952226
:10E80700EFC394005002E4FFEFD3946440027F64A7
:10E817007E007C007D33127A817D64127A95EF2425
:05E827000BFFE43E229E
:109D5500900522E06003029E019004E7E0FF146095
:109D65001814600C24027025E4900523F0029E016E
:109D75009005237464F0029E019004ECE0B49C0D00
:109D8500A3E0B400089005237432F0806F9003B10E
:109D9500E0FCA3E0FD7003EC649C600F9003B3E06E
:109DA500FAA3E0FBB4000CEAB49C089005237432D6
:109DB500F08032C3ED9BF539EC9AF538E42539F599
:109DC5003974023538F538EFB401069004E9E060DE
:109DD50004EFB40309AF39AE38129C448007AF399C
:109DE500AE3812D66E900523E0C394005002E4F01D
:109DF500900523E0D3946440037464F0900525E056
:109E05007008900523E0900526F0900528E070087D
:109E1500900523E0900529F0900523E0FF12EA174D
:109E2500A3EFF0900526E0FF12EA17A3EFF09005E7
:109E350029E0FF12EA17A3EFF0900523E0FF12E8EF
:109E45000712EF97900526E0FF12E80712F36190DD
:0B9E55000529E0FF12E80712F36E225F
:109C44008E3A8F3BD3E53B9400E53A6480948040A0
:109C540003029D199004E7E064016003029D1390E0
:109C640004E5E0FEA3E0FF244CFDE43EFC9004EC9C
:109C7400E0FAA3E0FBD39DEC6480F8EA648098509A
:109C840003029D13C39003B1E06480948A40057578
:109C94003C648003753C32E4900523F0C3EB9FFFE2
:109CA400EA9EFE9003DAE0FCA3E0FDC3EF9DEC64C2
:109CB40080F8EE6480984008900523E0253CF0226B
:109CC400EF24B4FFEE34FFFE3395E0FDFCF8F9AA6F
:109CD40006AB07AF3CE4FCFDFE127B43C004C005A9
:109CE400C006C0079003DBE024B4FF9003DAE0343D
:109CF400FFFE3395E0FDFCF8F9AA06AB07D007D0C8
:109D040006D005D00412D8B0900523E02FF022E449
:109D1400900523F022C3E53A6480948440079005BB
:109D2400237464F022E4900523F0AE3AAF3BEE33A3
:109D340095E0FDFC7B647A0079007800127B437B1C
:109D4400007A047900780012D8B0900523E02FF04F
:019D540022EC
:10D66E00D3EF9400EE648094805007900523746489
:10D67E00F022C3EE648094844006E4900523F022E9
:10D68E009005237464F0EE3395E0FDFC7B647A0024
:10D69E0079007800127B437B007A047900780012BF
:0BD6AE00D8B0C374649F900523F022E5
:10F2890000060814202B5F640003090E1113216482
:04E18D004104B70092
:10EDD400E49004B8F0A3F09004BDF09004BAF0A35A
:09EDE400F0FF12C17D12EFDA22EA
:10F0F900C20612F3ACC20612F3C412EDD4E49004B2
:03F10900B7F0223A
:10EBB9009004B8E0240AF0E0D3946440037464F04C
:0FEBC9009004B8E0FF75F00A84C3EF95F0F022D6
:10E925009004B8E0C3940A5004E4F080079004B85A
:10E93500E024F6F09004B8E0FF75F00A84C3EF9583
:03E94500F0F022CD
:10F05A007F0612F06F4009900484E0D394014003C4
:05F06A00D38001C32268
:10CE9B00E49004BBF0900484E0FF64026009EF644B
:10CEAB00036004EFB404099004BB7401F012F4E6C0
:10CEBB009004B7E0C394055004E004F022900534CD
:10CECB00E0700C9004BA04F0E49004CEF08014905F
:10CEDB0004CEE004F0E0D3940540087405F0E49030
:0DCEEB0004BAF09004BAE0600312F4E622ED
:10ED6E00D20612F3AC7F0612F206E49004BAF0A3B8
:0BED7E00F09004B7F0C20612F3C422AC
:10C17D008F3AE53AD394644003753A64E4F53BE5B0
:10C18D003B90F28993FFB53A0AE53B90F29193F516
:10C19D003A8050EFD3953A4043E53B90F29093FFB0
:10C1AD00E53BA393C39FFDE49400FCE53B90F2882F
:10C1BD0093F9FFC3E53A9FFFE49400FE127A81E9FB
:10C1CD00FDE53B90F28993C39DFDE49400FC127A4A
:10C1DD0095E53B90F290932FF53A8007053BE53BB3
:10C1ED00B4089CAF3A7E007C007D33127A817D6469
:0AC1FD00127A95EF240BFFE43E22B6
:10E60E00D20612F3AC9004B8E0FF12EA179004B9E8
:10E61E00EFF0900537E09004BDF09004B8E0FF12E3
:09E62E00C17D12EFDA12CE9B222D
:10DE6600D20612F3AC7F0612F206E49004BAF0A3CF
:10DE7600F09004B7F09004BCF0C20612F3C490040C
:10DE8600C4127CBA000000009004C8749CF0A3E49D
:08DE9600F09004B67409F022BB
:1073FB008E3A8F3BE4B53B0BE53AB49C06E4900424
:10740B00B8F0229004B6E004F0C3940A500302775C
:10741B003FE4F0C39004E6E0953BF5419004E5E0D2
:10742B00953AF5409004BEF0A3E541F0AE407804E8
:10743B00CEA2E713CE13D8F8F5418E40FFEE33956D
:10744B00E0FDFC9003DCE0F8A3E0F9A3E0FAA3E095
:10745B00FB127B437BE87A037900780012D8B0905B
:10746B0004C0127CAE7F007E007D007C009003E0A8
:10747B00E0F8A3E0F9A3E0FAA3E0FBD3127C7B5086
:10748B00030275669004C4E0FCA3E0FDA3E0FEA339
:10749B00E0F53F8E3E8D3D8C3C7F407E067D007C33
:1074AB00009004C0E0F8A3E0F9A3E0FAA3E0FBC36B
:1074BB00127C7B505E7BE87A03790078009003DCCA
:1074CB00E0FCA3E0FDA3E0FEA3E0FF12D8B07BE855
:1074DB007A0379007800127B43A804A905AA06ABAE
:1074EB0007AE40AF41EE3395E0FDFC127B439003BA
:1074FB00E0E0F8A3E0F9A3E0FAA3E0FB12D8B0E5D3
:10750B003F2FF53FE53E3EF53EE53D3DF53DE53C88
:10751B003CF53C7F007E717D027C00AB3FAA3EA90F
:10752B003DA83CD3127C7B400E753F00753E7175B8
:10753B003D02753C0080307F007E007D007C00ABFF
:10754B003FAA3EA93DA83CC3127C7B501A753F0055
:10755B00753E00753D00753C00800C753F00753E17
:10756B0000753D00753C00AF3FAE3EAD3DAC3C9071
:10757B0004C4127CAE9004C8E0B49C10A3E0B40029
:10758B000BA3127CBA00000000027661D39003EDCE
:10759B00E094009003ECE0940050030276617BE8EA
:1075AB007A03790078009003DCE0FCA3E0FDA3E014
:1075BB00FEA3E0FF12D8B0A804A905AA06AB07905A
:1075CB0003ECE0FEA3E0FFE4FCFD127B43A804A95F
:1075DB0005AA06AB07C39004C9E0953BFF9004C80E
:1075EB00E0953AFE3395E0FDFC127B437B0A7A0073
:1075FB007900780012D8B07B107A007900780012ED
:10760B00D8B09004CA127CAE7F407E067D007C0011
:10761B009004CAE0F8A3E0F9A3E0FAA3E0FBD312CD
:10762B007C7B400C9004CA127CBA0000064080267A
:10763B007FC07EF97DFF7CFF9004CAE0F8A3E0F9E0
:10764B00A3E0FAA3E0FBC3127C7B500A9004CA129E
:10765B007CBAFFFFF9C09004C8E53AF0A3E53BF014
:10766B00AF3FAE3EAD3DAC3C7B647A007900780019
:10767B0012D8B08F3F8E3E8D3D8C3C9004C0E0FC09
:10768B00A3E0FDA3E0FEA3E0253FF53FEE353EF57D
:10769B003EED353DF53DEC353CF53C9004CAE0FC48
:1076AB00A3E0FDA3E0FEA3E0253FF53FEE353EF55D
:1076BB003EED353DF53DEC353CF53CAF3FAE3EADDB
:1076CB003DFC7B107A007900780012D8B08F3F8E8A
:0876DB003E8D3D8C3CE4253F8F
:1076E300F53FE4353EF53EE4353DF53DE4353CF507
:1076F3003C7F647E007D007C00AB3FAA3EA93DF841
:10770300D3127C7B400E753F64753E00753D00755A
:107713003C0080227F007E007D007C00AB3FAA3EC0
:10772300A93DA83CC3127C7B500C753F00753E00FD
:0D773300753D00753C009004B8E53FF02264
:10B991008E388F39D20612F3ACAF39AE381273FB41
:10B9A1009004B8E0FF12EA179004B9EFF090053760
:10B9B100E09004BDF09004B8E0FF12C17D12EFDA0F
:10B9C10012CE9BE5397004E538649C600BC390038B
:10B9D100B1E06480948A5007E49004BCF0804D90FB
:10B9E10004BCE060249004E6E02480FF9004E5E0DC
:10B9F10034FCFEC3E5399FEE6480F8E53864809835
:10BA0100502AE49004BCF080239004E6E02480FFF7
:10BA11009004E5E034FDFEC3E5399FEE6480F8E56E
:10BA21003864809840069004BC7401F09004BCE036
:08BA310024FF920612F3C42267
:04E191004105410003
:0AF46B00E490053DF0900540F0220A
:10F10C0090053E7401F0D20612F3A0E4900540F095
:03F11C00A3F0223B
:10F17A00E490053EF0C20612F3A0E4900540F0A325
:02F18A00F02271
:10DC9D00E4900540F090050BE06005E4900541F03F
:10DCAD0090053EE0601F900534E07019900541E04D
:10DCBD0004F0E0D3940A4012740AF0900540740108
:0BDCCD00F012F4E622E4900541F02282
:10EBD80090053DE0240AF0E0D3946440037464F0A7
:0FEBE80090053DE0FF75F00A84C3EF95F0F02231
:10E9480090053DE0C3940A5004E4F0800790053D2B
:10E95800E024F6F090053DE0FF75F00A84C3EF95DA
:03E96800F0F022AA
:0FF2D600E490053EF0A374FFF0E4A3F0A3F02250
:10DA3E0090053FE004F0E0C394B44002E4F090059A
:10DA4E003DE0FF7E007C007DB4127A817D64127A07
:10DA5E009590053FE0C39FE49E500D90053E7401E6
:0FDA6E00F0D20612F3A0800312F17A12DC9D228F
:10C67C008E388F39E4B53909E538B49C0412F17A57
:10C68C002290053EE0702D9004E6E02480FF90049B
:10C69C00E5E03400FED3E5399FEE6480F8E53864BC
:10C6AC008098400412F10C22C20612F3A0E490050B
:10C6BC003EF0802C9004E6E02480FF9004E5E0340A
:10C6CC00FFFEC3E5399FEE6480F8E538648098502E
:10C6DC000412F17A22D20612F3A090053E7401F0F6
:04C6EC0012DC9D229D
:10C0F000E4F522F5237524037525D3F5260523E5FC
:10C1000023AE227002052214FF12EFAE8525828530
:10C110002483EFF00525E525700205240526E52694
:10C12000C3943C40D89003D3E064557004A3E0640A
:10C13000AA601012C4917FFF7EFF7DFF7CFF125723
:10C140008BC3229003D5E064017004A3E064176000
:10C150001012C4917FFF7EFF7DFF7CFF12578BC3BF
:10C160002212EDED90040EE06F601012C4917FFF7B
:0DC170007EFF7DFF7CFF12578BC322D32280
:10578B008F468E458D448C439003D37455F0A37490
:10579B00AAF0A37401F0A37417F012EDED90040EB0
:1057AB00EFF07FFF7EFF7DFF7CFFAB46AA45A94450
:1057BB00A843C3127C91703E754903754AD3F547D4
:1057CB00F54812F4D14002C322E4F54BAF48AE4783
:1057DB00854A82854983E0FD12EFC40548E5487090
:1057EB00020547054AE54A70020549054BE54BC3DF
:1057FB00943C40D8D32220EA02C322E5465401FF51
:10580B00E4FEFDFCEF605DE4F547F5487549037573
:10581B004AD3AF48AE47854A82854983E0FD12EFF4
:10582B00C40548E54870020547FFAE47854A8285A7
:10583B004983A3E0FD12EFC4802AE54BC3940250C9
:10584B0023AF48AE47854A82854983E0FD12EFC4FA
:10585B000548E54870020547054AE54A70020549C7
:10586B00054B80D6E5465402FFE4FEFDFCEF605E7F
:10587B00754700754802754903754AD5AF48AE4761
:10588B00854A82854983E0FD12EFC40548E54870DF
:10589B00020547FFAE47854A82854983A3E0FD1287
:1058AB00EFC4802AE54BC394025023AF48AE478523
:1058BB004A82854983E0FD12EFC40548E548700232
:1058CB000547054AE54A70020549054B80D6E54672
:1058DB005404FFE4FEFDFCEF604875470075480477
:1058EB00754903754AD7AF48AE47854A82854983C8
:1058FB00E0FD12EFC4802BE4F54BAF48AE47854A71
:10590B0082854983E0FD12EFC40548E54870020526
:10591B0047054AE54A70020549054BE54BC394011F
:10592B0040D8E5465408FFE4FEFDFCEF60487547A0
:10593B0000754805754903754AD8AF48AE47854A87
:10594B0082854983E0FD12EFC4802BE4F54BAF4811
:10595B00AE47854A82854983E0FD12EFC40548E5D1
:01596B0048F3
:10596C0070020547054AE54A70020549054BE54BAF
:10597C00C3940140D8E5465410FFE4FEFDFCEF60F3
:10598C0048754700754806754903754AD9AF48AE46
:10599C0047854A82854983E0FD12EFC4802BE4F5EC
:1059AC004BAF48AE47854A82854983E0FD12EFC470
:1059BC000548E54870020547054AE54A7002054965
:1059CC00054BE54BC3940140D8E5465420FFE4FE5B
:1059DC00FDFCEF605E754700754807754903754A15
:1059EC00DAAF48AE47854A82854983E0FD12EFC4A1
:1059FC000548E54870020547FFAE47854A82854950
:105A0C0083A3E0FD12EFC4802AE54BC3940250231C
:105A1C00AF48AE47854A82854983E0FD12EFC40545
:105A2C0048E54870020547054AE54A7002054905F4
:105A3C004B80D6E5465440FFE4FEFDFCEF60377525
:105A4C004700754809754903754ADCE4F54BAF48C6
:105A5C00AE47854A82854983E0FD12EFC40548E5CF
:105A6C004870020547054AE54A70020549054BE5B1
:105A7C004BC3940440D8E5465480FFE4FEFDFCEF94
:105A8C00603775470075480D754903754AE0E4F5B4
:105A9C004BAF48AE47854A82854983E0FD12EFC47F
:105AAC000548E54870020547054AE54A7002054974
:105ABC00054BE54BC3940440D8E4FFE5455404FE84
:105ACC00E4FDFCEE60487547007548117549037597
:105ADC004AE4AF48AE47854A82854983E0FD12EF20
:105AEC00C4802BE4F54BAF48AE47854A8285498389
:105AFC00E0FD12EFC40548E54870020547054AE58C
:105B0C004A70020549054BE54BC3940140D8E4FFAC
:105B1C00E5455408FEE4FDFCEE6048754700754809
:105B2C0012754903754AE5AF48AE47854A828549E7
:105B3C0083E0FD12EFC4802BE4F54BAF48AE4785F4
:105B4C004A82854983E0FD12EFC40548E54870029E
:105B5C000547054AE54A70020549054BE54BC394D8
:105B6C000140D8E4FFE5455401FEE4FDFCEE605E27
:105B7C00754700754813754903754AE6AF48AE473B
:105B8C00854A82854983E0FD12EFC40548E54870DB
:105B9C00020547FFAE47854A82854983A3E0FD1283
:105BAC00EFC4802AE54BC394025023AF48AE47851F
:105BBC004A82854983E0FD12EFC40548E54870022E
:105BCC000547054AE54A70020549054B80D6E4FFB6
:105BDC00E5455402FEE4FDFCEE605E754700754839
:105BEC0015754903754AE8AF48AE47854A82854921
:105BFC0083E0FD12EFC40548E54870020547FFAE8F
:105C0C0047854A82854983A3E0FD12EFC4802AE5CB
:105C1C004BC394025023AF48AE47854A82854983D3
:105C2C00E0FD12EFC40548E54870020547054AE55A
:105C3C004A70020549054B80D6E4FFE5455410FE39
:105C4C00E4FDFCEE6048754700754817754903750F
:105C5C004AEAAF48AE47854A82854983E0FD12EF98
:105C6C00C4802BE4F54BAF48AE47854A8285498307
:105C7C00E0FD12EFC40548E54870020547054AE50A
:105C8C004A70020549054BE54BC3940140D8E4FF2B
:105C9C00E5455420FEE4FDFCEE6048754700754870
:105CAC0018754903754AEBAF48AE47854A8285495A
:105CBC0083E0FD12EFC4802BE4F54BAF48AE478573
:105CCC004A82854983E0FD12EFC40548E54870021D
:105CDC000547054AE54A70020549054BE54BC39457
:105CEC000140D8E4FFE5455440FEE4FDFCEE605E67
:105CFC00754700754819754903754AECAF48AE47AE
:0B5D0C00854A82854983E0FD12EFC448
:105D17000548E54870020547FFAE47854A82854931
:105D270083A3E0FD12EFC4802AE54BC394025023FE
:105D3700AF48AE47854A82854983E0FD12EFC40527
:105D470048E54870020547054AE54A7002054905D6
:105D57004B80D675470075483B754904754A0EAFA9
:105D670048AE47854A82854983E0FD12EFC4802B00
:105D7700E4F54BAF48AE47854A82854983E0FD127B
:105D8700EFC40548E54870020547054AE54A700231
:0D5D97000549054BE54BC3940140D8D322CC
:10C491009003D37455F0A374AAF0A37401F0A374AC
:10C4A10017F0A37401F0A37419F0E4A3F0A304F04E
:10C4B100A37480F0A3127CBA0000EA609003E0123A
:10C4C1007CBA000003E89003E47405F0A3F0A3E450
:10C4D100F0A374C8F0A3E4F0A374C8F0A3740AF045
:10C4E100E4A3F0A3F0A37450F0E4FF74EE2FF582FF
:10C4F100E43403F583E4F00FBF20F012EDED900476
:0FC501000EEFF07FFF7EFF7DFF7CFF12578B2236
:10EDED007E037FD3E4FDFCEF2CF582E43EF583E05A
:09EDFD002DFD0CBC3BF1AF052219
:10E96B00E4FFEF25E02488F582E43404F583E4F03A
:10E97B00A3F0747E2FF582E43404F583E4F00FBF2B
:03E98B000AE0227D
:10F20600EF25E02488F582E43404F583E4F0A3F0E6
:01F2160022D5
:10F06F0074FC2FF582E43404F583E0C39446500317
:05F07F00D38001C32253
:109B2700E4F538AF3812D4518F3974FC2538F582F3
:109B3700E43404F583E0F53AE539C39426501D74FF
:109B47007E2538F582E43404F5837403F0E5386440
:109B5700067003029C3712F4E6029C37E53AC39479
:109B6700265011747E2538F582E43404F583740495
:109B7700F0029C37C206E539D3953A4008C3E53968
:109B8700953AFF8006C3E53A9539FFEFD3944C40E9
:109B970002D20630067CE53825E02488F582E434D5
:109BA70004F583E475F001127B20E53825E024886D
:109BB700F582E43404F583E0FEA3E04E7012E53845
:109BC70025E02488F582E43404F58374FFF0A3F0DC
:109BD700E53825E02488F582E43404F583E0FEA324
:109BE700E0D3942CEE94014019747E2538F582E475
:109BF7003404F5837402F0E5386406603312F4E642
:109C0700802E747E2538F582E43404F5837401F0E0
:109C1700801EE53825E02488F582E43404F583E4E2
:109C2700F0A3F0747E2538F582E43404F583E4F07C
:0D9C37000538E538C3940A5003029B2A2229
:0CF3F400EF7F00FE7C007D3F127A952226
:10D45100EFB40A00504890D45EF828287302D485AE
:10D4610002D48502D48502D48E02D48E02D48E02D7
:10D47100D49702D47C02D47C02D47C900549E0FF8D
:10D4810012F3F422900548E0FF12F3F422900547CD
:0FD49100E0FF12F3F42290054AE0FF12F3F422B9
:10F18C00E4900546F0900545F0900544F09005425A
:02F19C00F0225F
:10F19E00900546E070047F0180027F00900546EFE7
:02F1AE00F0224D
:06F51800E4900545F0221D
:10C05F00900545E06004A3E060119005447409F079
:10C06F00C20612F31EE4900542F022900544E0044C
:10C07F00F0E0C3940A400DE4F07516057F997E0831
:10C08F00FD12B634900543E004F0900542E01460D1
:10C09F0012146023240270319005427401F0E4A35E
:10C0AF00F08026900543E0D3940A401D900542741A
:10C0BF0002F0E4A3F08012900543E0D394324009DC
:10C0CF009005427401F0E4A3F0900542E0B4010B37
:10C0DF00A3E020E006D20612F31E22C20612F31EC0
:01C0EF00222E
:07F4E6009005457401F022BE
:10D7DF0090051174FFF0E4900508F0A3F0A3F0A3F7
:10D7EF00F090050FF0A3F0900512F0A3F0A3F0A3B3
:10D7FF0004F012E72490050CEEF0A3EFF09003E88D
:10D80F00E0FCA3E0FDD3EF9DEE9C40047F0180027E
:08D81F007F0090050EEFF022DE
:10943D009004FBE0FFD394015006E4900509F0225F
:10944D009005097401F0EFC394F5400890050F7471
:10945D000AF0807BEFC3940450027F04EFD3946233
:10946D0040027F6274FC2FFF7E007C007D0B127A20
:10947D00817D5E127A95900513E02FF0900512E034
:10948D003EF0900514E004F0E0C3940A5004A3E00C
:10949D00603DE4900515F0900512E0FEA3E0FFA3FA
:1094AD00E0FD7C00127A95900512EEF0A3EFF0E04E
:1094BD0090050FF0D3940A4003740AF090050FE065
:1094CD00FFC3740A9FF0E4900512F0A3F0A3F0908F
:1094DD000532E0FFB40103D38001C3500990050AA2
:1094ED00E07003D38001C3E43390050BF0EFB401BA
:1094FD0003D38001C3E43390050AF0601090050F8B
:10950D00E0B40A09A37401F012F4E68005E49005B5
:10951D0010F090050AE07016900508E0FF60031248
:10952D00B0F790051174FFF0E4900508F022900556
:10953D0011E0FF90052BE06F602790052BE0FF9069
:10954D000511F0900508E004F0EF75F00684E5F0E4
:10955D00700F900508E0FF12B0F75005E490050874
:02956D00F022EA
:10D53D008E248F258C268D2712F217AF25AE24123F
:10D54D00DA7D9003E8E526F0A3E527F07F007E0263
:10D55D007D007C0012578B90050CE524F0A3E5258A
:10D56D00F09003E8E0FEA3E0FFD3E5259FE5249EC0
:0ED57D0040047F0180027F0090050EEFF02237
:10E494009003E6E0FEA3E0FF90050DE02F9003E972
:10E4A400F090050CE03E9003E8F07F007E027D00D2
:0BE4B4007C0012578BE490050EF02254
:10E724007F387E077D327B0412CAC78F258E248DE5
:10E73400238C227B3C7A0079007800AF25AE24AD8F
:07E7440023AC22127BCE2260
:10DA7D00E4FCFD7B3CFAF9F8127B438F2B8E2A8D4B
:10DA8D00298C28E52BF52BE52AF52AE529F529E43E
:10DA9D00F528AF2BAE2AAD29AC2875410775423854
:0FDAAD0075433275440412BD724002C322D32266
:10F217007F387E077D327B0412D97A4002C322D31E
:01F2270022C4
:10B0F7008F3890053EE07017E538D394014010EF84
:10B1070025E0FFE433FE7C007D03127A958F387FBC
:10B11700387E077D327B0412CAC78F3C8E3B8D3A3F
:10B127008C39E4FCFDFEE53C2538F53CEE353BF576
:10B137003BED353AF53AEC3539F539E53CF53CE583
:10B147003BF53BE53AF53AE4F539AF3CAE3BAD3A72
:10B15700AC3975410775423875433275440412BDE1
:10B16700724002C3227B3C7A0079007800AF3CAE84
:10B177003BAD3AAC39127BCE90050CEEF0A3EFF065
:10B187007B3C7A0079007800AF3CAE3BAD3AAC39F6
:10B19700127BCEA804A905AA06AB079003E8E0FE38
:10B1A700A3E0FFE4FCFDD3127C9140047F01800201
:09B1B7007F0090050EEFF0D32299
:04E1950041055800E8
:10D70300900536E0B40103D38001C3E4339005569A
:10D71300F0E4A3F090050BE06005E4900558F09069
:10D72300050AE0601F900556E07019900558E00463
:10D73300F0E0D3942840127428F09005577401F058
:0AD7430012F4E622E4900558F022EB
:08E1990041055D0041055E0037
:10E38D00E490055DF0900556E0601C90050AE07084
:10E39D001690055EE004F0E0D39405400F7405F08F
:0DE3AD0090055D7401F022E490055EF02201
:0CF40000E490054FF0900551F0A3F022BD
:10F11F00D20612F3B890054F7401F0E4900551F048
:03F12F00A3F02228
:10F22800C20612F3B8E490054FF0900551F0A3F030
:01F2380022B3
:10EE0600900552E004F0E0D3941E400C741EF0907E
:09EE160005517401F012F4E6222A
:10D4A000E4900550F0A3F09004E7E0700590055279
:10D4B000F02290054FE07005900552F0229005068D
:10D4C000E0C39439500412EE0622900506E0C3949E
:10D4D00072500C9005507401F0E4900552F02290C7
:0FD4E0000533E0700412EE0622E4900552F022AC
:10E74B00E49004E7F0A3F09004EAF0FFEF25E02556
:10E75B00E024EEF582E43404F583E4F00FBF03EC20
:07E76B0012EDD412F46B2241
:10873D00E4F538E53825E024B5F582E43403F58316
:10874D00E0FEA3E0FBAA06E53825E025E024EEF5E2
:10875D0082E43404F583E4F0EB64187003EA64FCFE
:10876D0060069004E7E07016E53825E025E024EF7B
:10877D00F582E43404F583E4F0A3F00288B59003A8
:10878D00E5E0FF9003D8E0F9FD3395E0FCC3ED9FE4
:10879D00FFEC9400FE7C007D0A127A81C3EB9FEE04
:1087AD006480F8EA648098404F9003E4E0FF7E0017
:1087BD00E9FD3395E0FCED2FFFEE3CFE7C007D0ADC
:1087CD00127A81D3EB9FEE6480F8EA64809850288A
:1087DD00E53825E025E024EFF582E43404F583E463
:1087ED00F0A3F0E53825E025E024F1F582E434042A
:1087FD00F5837401F00288B5E53825E025E024EF16
:10880D00F582E43404F583E475F001127B20E5383C
:10881D0025E025E024F1F582E43404F583E060459C
:10882D00E53825E025E024EFF582E43404F583E016
:10883D00FEA3E0D3942CEE9401406DE53825E025A0
:10884D00E024EFF582E43404F5837401F0A3742C75
:10885D00F0E53825E025E024EEF582E43404F583D7
:10886D007401F08043E53825E025E024EFF582E43E
:10887D003404F583E0FEA3E0D39460EE9409402820
:10888D00E53825E025E024EFF582E43404F5837422
:10889D0009F0A37460F0E53825E025E024EEF582BB
:1088AD00E43404F5837401F0E53814602D14605040
:1088BD002402706F9003D9E0FF6402600AEF640533
:1088CD006005EF6406705CE53825E025E024EEF5E3
:1088DD0082E43404F583E4F080499003D9E0FF6429
:1088ED0004600AEF64066005EF64037036E5382511
:1088FD00E025E024EEF582E43404F583E4F08023F2
:10890D009003D9E0FF64016009EF64046004EFB4E3
:10891D000511E53825E025E024EEF582E43404F573
:10892D0083E4F0E53825E025E024EEF582E4340417
:10893D00F583E0600312F4E60538E538D394025070
:05894D00030287402237
:10DD4C00E4FFEF25E025E024EEF582E43404F583CE
:10DD5C00E4F0EF25E025E024EFF582E43404F583CC
:10DD6C00E4F0A3F0EF25E025E024F1F582E434049F
:09DD7C00F583E4F00FBF03CA2295
:10A923009004E7E06401600302AA0C9004ECE0FEEB
:10A93300A3E0FFB4000BEEB49C079004E97401F0AC
:10A94300229003B1E0FCA3E0FD7003EC649C600E75
:10A95300C3EC6480948A5006E49004E9F0229003E7
:10A96300DAE0FCA3E0FD9004E5E0FAA3E0FB2DFDB3
:10A97300EA3CFCD3EF9DEC6480F8EE6480984007DA
:10A983009004E97401F0229003DAE0FEA3E0FFC330
:10A99300EB9FFFEA9EFE9004ECE0FCA3E0FDC39F67
:10A9A300EE6480F8EC6480985006E49004E9F022A9
:10A9B3009003B1E0FEA3E0FF7003EE649C60299076
:10A9C30003DAE0FAA3E0FBC3ED9BFBEC9AFAC3EFD7
:10A9D3009BEA6480F8EE6480985006E49004E9F002
:10A9E300229004E97401F0229004E5E0FEA3E0FF65
:10A9F300C3ED9FEE6480F8EC64809840079004E90F
:0AAA03007401F022E49004E9F0224F
:108B57009004EAE0A3F0900535E0B40103D3800167
:108B6700C3E4339004EAF0600BE49004E7F0A30455
:108B7700F012E96B9003A9E0FEA3E0FFA3E0FCA3DA
:108B8700E0FDA3E0FAA3E0FB9003D9E0F53E753FD3
:108B97009C7540001282649004ECEEF0A3EFF09015
:108BA70003D8E0FF3395E0EFF8E49004E6F0E890AF
:108BB70004E5F012873D9004E8E0600612A923124D
:108BC700DD4C9004E7E014602E147003028CCD1482
:108BD7007003028CDE147003028CF224046003021B
:108BE7008D049004E8E07003028D0412F22812F15C
:108BF7007A12F0F9028D049004E8E0601112F11F77
:108C07009004E9E0700512DE66800312F0F9900423
:108C1700E9E0706912F17A9004ECE0FEA3E0FF123C
:108C2700B9919003DAE0FEA3E0FF9004E6E02FFF9E
:108C37009004E5E03EFEC39004EDE09FEE6480F80B
:108C47009004ECE0648098401C12F05A501790038F
:108C5700B1E0FEA3E0FF7003EE649C6017C3EE640F
:108C670080948A500F9004ECE0649C7002A3E0604B
:108C770003028D049004E97401F0028D0412F0F9E7
:108C87009004ECE0FEA3E0FF12C67C9004ECE0FE4B
:108C9700A3E0FF7003EE649C60639003DAE0FCA33B
:108CA700E0FDC39004E6E09DFD9004E5E09CFCD365
:108CB700EF9DEC6480F8EE6480985041E49004E9FD
:108CC700F012DE6680379004E8E0603112F11F127F
:108CD700F17A12F0F980269004E8E0600912F11F9A
:108CE70012F17A12ED6E12E60E80129004E8E0603F
:108CF7000912F11F12F0F912F2D612DA3EE49004CB
:038D0700E8F0226F
:10EC51009004E7E0FE14600604700F7F0022900428
:0EEC6100E9E070037F01227F0222EE04FF2211
:0AF475009004E7EFF0A37401F02209
:10C6070054454D50455241545552452050524F5470
:10C617004F434F4C005072696E7465643A00546121
:10C62700726765742074656D702E3A00F843004494
:10C637004154450054494D450041564552414745EF
:10C647003A00544F4F204D414E59205245434F52C7
:10C657004453004452495645523A00435553544FA8
:10C667004D45523A00454E44204F462050524F54B4
:05C677004F434F4C0091
:04F5380012F4D822CF
:04F53C0012EDBB22EF
:04F5400012F4AB22F4
:10C9F20012D74D8E228F2312F310BF8127E52345D4
:10CA0200227002C322E49004D2F0A3F0E52324E8CA
:10CA12009004DBF0E52234FF9004DAF09004DE7437
:10CA220001F08036E52324189004D3F0E4352290F7
:10CA320004D2F09004DA747CF0A37498F0E49004C9
:10CA4200D4F0A3F0E52324E89004DDF0E52234FFDE
:0CCA52009004DCF09004DE7402F0D322AB
:10D937008E388F397C007D0A127AEAEE3395E0FD46
:10D94700FC753E0212CEF8C3E53864809480500B14
:10D95700C3E49539F539E49538F5387F2E12C7D1E8
:10D96700AE38AF397C007D0A127AEAED2430FF1217
:03D97700C7D122F3
:105DA400E4F52AF52BF52CF530F52FF52EF52DF528
:105DB40031F53212EDBB7F0D12C7D17F207D021267
:105DC400EE977EC67F0712EC8C7F0D12C7D17F2D14
:105DD4007D1812EE977F0D12C7D17EC67F1C12EC80
:105DE4008C7F207D0612EE9790052DE0FF12F2992C
:105DF400E4FCFD75430A12C2077F2E12C7D1900539
:105E04002EE0FF12F299E4FCFD75430A12C2077FEB
:105E14002E12C7D190052FE0FEA3E0FF12E98E7584
:105E2400430C12C2077F0D12C7D17F207D0E12EEE4
:105E34009790052CE0FF12F299E4FCFD75430A12D9
:105E4400C2077F3A12C7D190052BE0FF12F299E402
:105E5400FCFD75430A12C2077F0D12C7D17EC67FAF
:105E64002512EC8C9003D8E0FF3395E0FEFDFC7521
:105E74003E0212CEF87F207D0112EE977EC67F335C
:105E840012EC8C7F0D12C7D17F2D7D1812EE977FF7
:105E94000D12C7D17F207D0312EE977EC67F361286
:105EA400EC8C7F207D0512EE977EC67F3B12EC8C36
:105EB4007F207D0512EE977EC67F3312EC8C7F0D1A
:105EC40012C7D17F2D7D1812EE977F0D12C7D1E432
:105ED400F5339004DEE0FFE533C39F400302626CB8
:105EE400E53325E024D2F582E43404F583E0FEA30F
:105EF400E08E34F535E53325E024DAF582E4340424
:105F0400F583E0FEA3E0FFD3E5359FE5349E40032F
:105F140002626712B794AF35AE3412E8BC7E047FD8
:105F2400308F828E83E06482700302625990052F61
:105F3400E0FEA3E0FF54F8FD900447E0FBC4540FD7
:105F44005407FBEEF522ED4BF523D39FE5229E404B
:105F54000C74F82523F52374FF3522F522AE22AF05
:105F640023E4FCFD7B107A27F9F8127B438F278EFC
:105F7400268D258C24900447E0540FFFE4FCFDFE9D
:105F84007B64FAF9F8127B43E5272FF527E5263ED3
:105F9400F526E5253DF525E5243CF524900446E069
:105FA400FB131313541F541FFFE4FCFDFEE5272FBE
:105FB400F527EE3526F526ED3525F525EC3524F5C2
:105FC40024EB5407FF25E025E0FF900445E0FDC4E1
:105FD4001313540354034F75F064A4FFAEF0ED544F
:105FE4003F2FF529EC3EF5289004D6E0FCA3E0FD14
:105FF400A3E0FEA3E0FFAB27AA26A925A824C31289
:076004007C91500302625978
:10600B009004D6E0FCA3E0FDA3E0FEA3E0FFAB27EA
:10601B00AA26A925A824C3127C9170149004DFE052
:10602B00FEA3E0FFC3E5299FE5289E5003026259BA
:10603B009004E1E0FCA3E0FDA3E0FEA3E0FFAB27AF
:10604B00AA26A925A824D3127C9140030262599059
:10605B0004E1E0FCA3E0FDA3E0FEA3E0FFAB27AA75
:10606B0026A925A824C3127C9170149004D0E0FEBD
:10607B00A3E0FFD3E5299FE5289E400302625990D8
:10608B000431E0FEA3E0FFEE5403F5368F37EE1339
:10609B0013543F30E00BC3E49537F537E49536F5F1
:1060AB0036900433E0FEA3E0FFEE5403FCAD07EEA5
:1060BB001313543F30E007C3E49DFDE49CFC9004B4
:1060CB0035E0FEA3E0FFEE5403FAAB07EE131354D7
:1060DB003F30E007C3E49BFBE49AFAAF37AE369050
:1060EB000442E0F9131313541F5407F53E753FFC9C
:1060FB007540181282648E368F37E537641870043A
:10610B00E53664FC600EE537252CF52CE536352B92
:10611B00F52B052A9004CFE0FFE52AC39F5003021D
:10612B006259900446E0FF131313541F541FFF12C0
:10613B00F299E4FCFD75430A12C2077F2E12C7D1F8
:10614B00900447E0540FFF12F299E4FCFD75430AEB
:10615B0012C2077F2E12C7D1AF23AE2212E98E7562
:10616B00430C12C2077F207D0212EE97900446E08B
:10617B005407FF25E025E0FF900445E0FEC4131310
:10618B00540354034FFF12F299E4FCFD75430A12BA
:10619B00C2077F3A12C7D1900445E0543FFF12F279
:1061AB0099E4FCFD75430A12C207AE2BAF2CAD2A46
:1061BB007C00127AEA8E2B8F2CD3E52C94E7E52BFF
:1061CB00648094834006752B03752CE7C3E52C94F0
:1061DB0019E52B6480947C5006752BFC752C19AE3D
:1061EB002BEE3395E0FDFCE530252CF530E52F3E0D
:1061FB00F52FE52E3DF52EE52D3CF52D0532E5323F
:10620B00700205317F207D0212EE97AF2CAE2B1260
:10621B00D9377F0D12C7D1E4F52BF52CF52A900455
:10622B00CFE0FD7C007E057F32127A95D3E5329F5D
:10623B00E5319E500BD3E5329464E5319400400E6A
:10624B007EC67F4912EC8C7F0D12C7D1800E74185D
:10625B002535F535E43534F534025EF90533025E48
:10626B00D67F2D7D1812EE977F0D12C7D17EC67F7C
:10627B004012EC8CD3E5329400E53194004032AF00
:01628B0030E2
:10628C00AE2FAD2EAC2DC004C005C006C007AE317C
:10629C00AF32E4FCFDF8F9AA06AB07D007D006D064
:1062AC0005D00412D8B08F308E2F8D2E8C2D800CF3
:1062BC00753000752F00752E00752D007F207D0B1D
:1062CC0012EE97AE2FAF3012D9377F0D12C7D17F98
:1062DC002D7D1812EE977F0D12C7D17EC67F5A12F4
:1062EC00EC8C7F0D7D0612EE977F2D7D1812EE97AC
:1062FC007F0D12C7D17EC67F6212EC8C7F0D7D069E
:10630C0012EE977F2D7D1812EE977F0D12C7D17F5D
:10631C00207D0512EE977EC67F6C12EC8C7F0D12E1
:10632C00C7D17F2D7D1812EE977F0D12C7D17F0D2F
:09633C007D0712EE9712F54822CC
:04F5440012ECA922FA
:106854007E007F347D007B017A04794A127CEB90C0
:10686400051FE0541FFF90044AE054E04FFFF090EE
:1068740003D9E05407FEC43354E0FEEF541F4E9096
:10688400044AF0900521E090044BF09004E7E054B2
:1068940007FF90044CE054F84FFFF09004E9E054F3
:1068A40001FE33333354F8FEEF54F74E90044CF0AA
:1068B4009004EAE0600790044CE04410F09004EB8C
:1068C400E0600790044CE04420F09004EEE06007A0
:1068D40090044CE04440F09004F2E0600790044CD3
:1068E400E04480F09004F6E0600790044DE0440139
:1068F400F090053DE075F00A84540FFF25E0FF9009
:10690400044DE054E14FF090053EE0600790044DE3
:10691400E04420F0900540E0600790044DE04440DE
:10692400F0900509E0600790044DE04480F0900584
:106934000AE0600790044EE04401F090050EE06028
:106944000790044EE04402F090050FE0540FFF2539
:10695400E025E0FF90044EE054C34FF0900510E0B2
:10696400600790044EE04440F090055DE0600790BD
:10697400044EE04480F0900522E05401FF90044F5F
:10698400E054FE4FFFF0900523E0547FFE25E0FE27
:10699400EF54014E90044FF0900524E0540FFF9003
:1069A4000450E054F04FFFF0900527E0540FFEC46C
:1069B40054F0FEEF540F4E900450F0900525E0542F
:1069C40001FF900451E054FE4FFFF0900526E0547F
:1069D4007FFE25E0FEEF54014E900451F09005280F
:1069E400E05401FF900452E054FE4FFFF09005295B
:1069F400E0547FFE25E0FEEF54014E900452F090E7
:106A0400052AE0540FFF900453E054F04FFFF09038
:106A140004B9E0540FFEC454F0FEEF540F4E90043A
:106A240053F09004B8E0547FFF900454E054804F36
:106A3400F090054FE06007900454E04480F0900427
:106A44007EE05407FF900455E054F84FFFF09004A3
:106A54007FE05407FE33333354F8FEEF54C74E90AF
:106A64000455F09004BAE06007900455E04440F007
:106A74009004BBE06007900455E04480F0900480EB
:106A8400E05407FF900456E054F84FFFF09004815F
:106A9400E05407FE33333354F8FEEF54C74E9004EA
:106AA40056F09004BCE06007900456E04440F09037
:106AB40004BDE06007900456E04480F0900482E056
:106AC4005407FF900457E054F84FFFF0900483E01C
:106AD4005407FE33333354F8FEEF54C74E90045733
:106AE400F0900556E06007900457E04440F09005AC
:106AF40057E06007900457E04480F0900485E05428
:106B040007FF900458E054F84FFFF0900486E054D7
:106B140007FE33333354F8FEEF54C74E900458F055
:106B2400900550E06007900458E04440F09005510F
:106B3400E06007900458E04480F09004BEE0FFA3B6
:106B4400E0900459CFF0A3EFF09004C0E0FCA3E080
:106B5400FDA3E0FEA3E0FF90045B127CAE9004C4AE
:106B6400E0FCA3E0FDA3E0FEA3E0FF90045F127C41
:106B7400AE900449E0547FFF900463E054804FF0EA
:106B8400900520E06007900463E04480F0E4FF7423
:106B94007F2FF582E43403F583E0FE74642FF582DD
:106BA400E43404F583EEF0EF25E024B5F582E43413
:106BB40003F583E0FCA3E0FDEF25E0246AF582E41D
:106BC4003404F583ECF0A3EDF00FBF06C290052D5D
:106BD400E0541FFF900478E0FCA3E054E0FDEC9047
:106BE4000478F0ED4FA3F090052EE0540FC454F058
:106BF400FE900476E0540FFCA3E0FDEC4EFEEDFFA6
:106C0400900476EEF0A3EFF090052FE0540FFCA370
:106C1400E0FDEE54F04C900476F0EDA3F090052CDA
:106C2400E07E00541F7805C333CE33CED8F9FF90ED
:066C34000478E054FCFCB2
:106C3A00A3E0541FFDEC4EFEED4FFF900478EEF0FA
:106C4A00FCA3EFF0FD90052BE0543F25E025E0FE84
:106C5A00EC54034E900478F0EDA3F09003D8E09042
:106C6A00047AF09003E4E0547FFF90047BE05480C0
:106C7A004FF0900545E0600790047BE04480F09077
:106C8A0003E5E0547FFF90047CE054804FF09005C8
:106C9A0046E0600790047CE04480F0900487E0546A
:106CAA0007FF90047DE054F84FF0900555E0600727
:106CBA0090047DE04408F0900553E0B40607900480
:066CCA007DE04410F02201
:106CD0007F387D3912BA394003027077E53814B431
:106CE00015004003027063906CEEF8282873026D63
:106CF0002D026D59026D7D026DA1026DC5026DE917
:106D0000026E0D026E37026E63026E87026EAB0278
:106D10006ED9026EFF026F25026F53026F79026F08
:106D20009F026FB6026FBE026FF002701B7F047E7F
:106D3000007D007C00AB3CAA3BA93AA839D3127C69
:106D400091500DAF3C12F47590054D74FFF0800327
:106D50007538F012F54C0270639004E7E06403604C
:106D6000057538F0801112EBB99004B8E0FFE48F9C
:106D70003CF53BF53AF53912F54C0270639004E7A7
:106D8000E0640360057538F0801112E9259004B8BD
:106D9000E0FFE48F3CF53BF53AF53912F54C027013
:106DA000639004E7E0640460057538F0801112EB2D
:106DB000D890053DE0FFE48F3CF53BF53AF53912FC
:106DC000F54C0270639004E7E0640460057538F0E8
:106DD000801112E94890053DE0FFE48F3CF53BF55A
:106DE0003AF53912F54C027063AF3CC3EF648094FE
:106DF000854014D3EF648094A3500C12E591900564
:106E00004D74FFF00270637538F00270637F067E88
:106E1000007D007C00AB3CAA3BA93AA839D3127C88
:106E200091500EAF3C12E90290054D74FFF00270D4
:106E3000637538F00270637F017E007D007C00ABDB
:106E40003CAA3BA93AA839D3127C91500DAF3C1211
:106E5000F51290054D74FFF080037538F012F54C73
:106E6000027063900522E0640160057538F08011BE
:106E700012EB9A900523E0FFE48F3CF53BF53AF5E1
:106E80003912F54C027063900522E06401600575CB
:106E900038F0801112E332900523E0FFE48F3CF5D7
:106EA0003BF53AF53912F54C0270637F017E007DA7
:106EB000007C00AB3CAA3BA93AA839D3127C915084
:106EC0000FE4FFAD3C12F1F590054D74FFF0800327
:106ED0007538F012F54C027063900525E06401608E
:106EE000057538F08013E4FF12E772900526E0FF85
:036EF000E48F3CF0
:106EF300F53BF53AF53912F54C027063900525E040
:106F0300640160057538F08013E4FF12E5E5900530
:106F130026E0FFE48F3CF53BF53AF53912F54C02D8
:106F230070637F017E007D007C00AB3CAA3BA93AE5
:106F3300A839D3127C91500F7F01AD3C12F1F5902B
:106F4300054D74FFF080037538F012F54C02706341
:106F5300900528E0640160057538F080137F011205
:106F6300E772900529E0FFE48F3CF53BF53AF539EC
:106F730012F54C027063900528E0640160057538D2
:106F8300F080137F0112E5E5900529E0FFE48F3CD3
:106F9300F53BF53AF53912F54C02706312F19E9008
:106FA3000546E0FFE48F3CF53BF53AF53912F54C25
:106FB3000270637F3912E9F50270637F017E007D01
:106FC300007C00AB3CAA3BA93AA839C3127C914090
:106FD300177F637E007D007C00A839D3127C91501B
:106FE30007AF3C12F04580787538F08073AE3BAD47
:106FF3003AAC39853C1E8E1D8D1C8C1BE51DD3942C
:10700300635010E51ED394635009AF1DAD1E12D912
:10701300FD804D7538F0804875A61E75A6E112688F
:1070230054753F0475404A7F347E0012E3BAE4F599
:107033003DF53E854082853F83E0FF12F38805409E
:10704300E5407002053F053EE53E7002053DC3E5A0
:107053003E9434E53D940040DA12F34712E7982258
:10706300853C45853B44853A43853942AF3812D345
:057073006012E7982205
:07F4ED009005537401F022A9
:03F55000C20E22C6
:03F55300D20E22B3
:10A369008F3DEF24FE601F14605714700302A44050
:10A379002403600302A44C754117754001753F0021
:10A38900753E0002A44F75A61E75A6E17FF87E01F1
:10A3990012E3E6AE40AF4112EBF7E4F542F54312A2
:10A3A900EF3B8F4412F3940543E54370020542C322
:10A3B900E54394F8E542940140E512F48812F35418
:10A3C9002275A61E75A6E17F457E0012E3E6754556
:10A3D900037546D3E4F542F543854682854583E016
:10A3E900FF12F3940546E546700205450543E5432A
:10A3F90070020542C3E543943CE542940040DA12F9
:10A40900BCD3754504754627E4F542F54385468274
:10A41900854583E0FF12F3940546E546700205453C
:10A429000543E54370020542C3E5439409E54294B7
:10A439000040DA12F35422E4F571F5729005537471
:10A4490007F022753DFFE53D4480FF85414B85407E
:0BA459004A853F49853E4812D3B122DE
:10CD2200E517705B7FF87E0112E3E6AF72AE711217
:10CD3200EBF7E4F538F53912EF3B8F3A12F394052D
:10CD420039E53970020538C3E53994F8E5389401BC
:10CD520040E512F48812F35474F82572F5727401E6
:10CD62003571F571FEAF72E4FCFDFB7A80F9F8D300
:10CD7200127C7B500A9005537406F0A3741EF022B5
:10E1A100016A00C10C016C19C10BC18D016900012B
:02E1B1006B0001
:10EFF00030EA0A7FE87E0312E30320EA0875A61EC2
:06F0000075A6E180EB2281
:1000C200E4F5A2758F7F758E3D75A70775A61E751F
:1000D200A6E1D2AF5389F0438901F58A758C88D2A3
:1000E200A9D28C53890F438910F58B758DFAD2AB47
:1000F200D28ED2EB12EFF012C0F012A16C12EADE35
:1001020012F52C12EF8012F4B312F53012F3E8124A
:10011200D30E12ED5312F40012F3DC12DDF612E3E9
:100122006012E96B12F18C12D7DF12E74B12F5382D
:1001320012F54412F4ED75160A7F997E08E4FD1259
:10014200B6347FB87E0B12E303756A32E490044939
:10015200F012DC6275470075460075450075440073
:10016200E4FF12ABDA9003EBE0600E9004497401F5
:10017200F012D8F4E490054EF012F4BBEF24F760CD
:100182001D146013146009240470EE12A83880E96B
:10019200D20012F15680E2C20012F15680DB12CE7A
:0401A2003E80D622A3
:10B7940075A61E75A6E112ADA05006E4F56B7F07F1
:10B7A40022900553E0B4070312CD22126CD0300C62
:10B7B40061C20C756A32056B90054EE0C39401506A
:10B7C40003E004F012F51812DC6212DD1312B1C0AA
:10B7D40012F53412ACBE12943D12D70312E38D124B
:10B7E400D4A0128B57129D55129B2712514912A4B3
:10B7F400649004EAE0600312F51812C05F12ADA071
:10B804005006E4F56B7F072290054DE04402F07F7B
:10B814000922300B0BC20B300D037F0B227F0A224F
:10B82400E56BD394FA4006E4F56B7F082212ADA0D1
:0BB834005006E4F56B7F07227FFF2227
:08F4BB0012B794EFF460F9228E
:04F54800E4F56B2259
:04F54C00756BFB22BE
:03000B0002CA5EC8
:10CA5E00C0E0C0F0C083C082C0D075D000C000C09E
:10CA6E0001C002C003C004C005C006C007758A001D
:10CA7E00758C88E56A6005D56A02D20CE5166006EB
:10CA8E00D5160312F528E55E6002155ED56C0FD241
:10CA9E000B300D05756C148003756C19B20DD00733
:10CAAE00D006D005D004D003D002D001D000D0D013
:09CABE00D082D083D0F0D0E03228
:03001B0002E68773
:10E68700C0E0C0D0758B00758DFA0569E569D39533
:10E697001A5004D2EB8002C2EBE569D3940440031D
:08E6A700756900D0D0D0E0320B
:10E30300D3EF9400EE9400402575A61E75A6E17D1B
:10E31300FFDDFE7DFFDDFE7DFDDDFE7DFFDDFE7DA0
:0FE32300FFDDFE7DFDDDFEEF1F70011E80D222AB
:10F29900EF75F06484FE740AC5F084C425F0FF227A
:10E98E00AA07A906E4FFFEFDFC75F010C3EA33FAF0
:10E99E00E933F9EF3FD4FFEE3ED4FEED3DD4FDD585
:03E9AE00F0EA226A
:10DCD800AB07AA06A905A804E4FFFEFDFC12DCF8C0
:10DCE800A80112DCF8A80212DCF8A80312DCF8225A
:10DCF80075F008E833F8EF3FD4FFEE3ED4FEED3D73
:0BDD0800D4FDEC3CD4FCD5F0EA222254
:0FF2E500EFC4540F75F00AA4FEEF540F2EFF2252
:10E82C00AB07AA06EAFF12F2E57E007C007D6412BB
:10E83C007A81AC06AD07AF03EB12F2E57E00ED2F4B
:05E84C00FFEE3CFE227E
:10DD85008F708E6F8D6E8C6DAF05AE0412E82CE42E
:10DD9500FCFD7B107A27F9F8127B43C004C005C04F
:10DDA50006C007AF70AE6F12E82CE4FCFDD003D0BF
:09DDB50002D001D000127B3622DD
:0BF42D00EF540F2490D43440D4FF2291
:10EEC7008F828E83E493FF600EC082C083129A06FE
:08EED700D083D082A380ED225C
:10CFB0008F2A8E298D288C27E52B20E7357F007E50
:10CFC000007D007C00AB2AAA29A928A827C3127CCF
:10CFD0007B501A7F2D129A06AF2AAE29AD28AC27B6
:10CFE000127C6D8F2A8E298D288C2780057F201238
:10CFF0009A06AF2AAE29AD28AC2712DCD88F2A8E2C
:0CD00000298D288C27852B3012C28B2232
:10C28B008F2F8E2E8D2D8C2CE5305408F531E5300B
:10C29B005470FFC4540FF533533007E530700375FA
:10C2AB003008853032E532D394004057C37408957B
:10C2BB0032FFC313242CF8E6FFE53230E0055307B9
:10C2CB000F8005EFC4540FFFEF7009E5317005E5E2
:10C2DB0032B4010B75310112F42D129A0680057FD1
:10C2EB0020129A06E5336017E53214B53311E531A8
:10C2FB0070087531017F30129A067F2E129A06153F
:04C30B003280A222B8
:03000000020036C5
:0C003600787FE4F6D8FD75817602007D2D
:107A5400BB010CE58229F582E5833AF583E02250E7
:107A640006E92582F8E622BBFE06E92582F8E22231
:0D7A7400E58229F582E5833AF583E493224B
:107A8100EFF88DF0A4FFEDC5F0CEA42EFEEC88F04A
:047A9100A42EFE22FF
:107A9500BC000BBE0029EF8DF084FFADF022E4CCD5
:107AA500F875F008EF2FFFEE33FEEC33FCEE9DEC9E
:107AB500984005FCEE9DFE0FD5F0E9E4CEFD22EDE4
:107AC500F8F5F0EE8420D21CFEADF075F008EF2F2E
:107AD500FFED33FD4007985006D5F0F222C398FD1F
:057AE5000FD5F0EA22BC
:107AEA00C2D5EC30E709B2D5E4C39DFDE49CFCEEB7
:107AFA0030E715B2D5E4C39FFFE49EFE127A95C320
:107B0A00E49DFDE49CFC8003127A9530D507C3E41A
:067B1A009FFFE49EFE2225
:107B2000C5F0F8A3E028F0C5F0F8E58215827002F0
:067B30001583E038F0228D
:0D7B3600EF2BFFEE3AFEED39FDEC38FC229E
:107B4300E88FF0A4CC8BF0A42CFCE98EF0A42CFCE1
:107B53008AF0EDA42CFCEA8EF0A4CDA8F08BF0A45F
:107B63002DCC3825F0FDE98FF0A42CCD35F0FCEBBE
:107B73008EF0A4FEA9F0EB8FF0A4CFC5F02ECD3983
:0F7B8300FEE43CFCEAA42DCE35F0FDE43CFC22F0
:107B920075F008758200EF2FFFEE33FECD33CDCCAA
:107BA20033CCC58233C5829BED9AEC99E58298402D
:107BB2000CF582EE9BFEED9AFDEC99FC0FD5F0D60A
:107BC200E4CEFBE4CDFAE4CCF9A88222B800C1B934
:107BD2000059BA002DEC8BF084CFCECDFCE5F0CB72
:107BE200F97818EF2FFFEE33FEED33FDEC33FCEBAB
:107BF20033FB10D703994004EB99FB0FD8E5E4F966
:107C0200FA227818EF2FFFEE33FEED33FDEC33FC52
:107C1200C933C910D7059BE99A4007EC9BFCE99A46
:107C2200F90FD8E0E4C9FAE4CCFB2275F010EF2F8B
:107C3200FFEE33FEED33FDCC33CCC833C810D7078B
:107C42009BEC9AE899400AED9BFDEC9AFCE899F8C6
:0E7C52000FD5F0DAE4CDFBE4CCFAE4C8F92259
:10D8B000C2D5E830E70FB2D5E4C39BFBE49AFAE4A3
:10D8C00099F9E498F8EC30E717B2D512D8E6127B54
:10D8D000CEE4C39BFBE49AFAE499F9E498F8800358
:10D8E000127BCE30D50DE4C39FFFE49EFEE49DFD88
:04D8F000E49CFC2296
:0D7C6000CFF4CFCEF4CECDF4CDCCF4CC22B9
:0E7C6D00C3E49FFFE49EFEE49DFDE49CFC2228
:107C7B00EB9FF5F0EA9E42F0E99D42F0EC6480C880
:067C8B0064809845F02220
:107C9100EB9FF5F0EA9E42F0E99D42F0E89C45F049
:017CA10022C0
:0C7CA200ECF608EDF608EEF608EFF6220E
:0C7CAE00ECF0A3EDF0A3EEF0A3EFF02249
:107CBA00A8828583F0D083D082127CD1127CD11223
:107CCA007CD1127CD1E473E493A3C583C5F0C58348
:107CDA00C8C582C8F0A3C583C5F0C583C8C582C814
:017CEA002277
:10F1B000C3EE6480948040028007C3E49FFFE49E16
:02F1C000FE222D
:10F08400E4FFFE127D18600C0FEF70010E09E970A9
:05F09400F20A80EF22EA
:107CEB00EF4E6013EDBB011089828A83EF60010EAA
:107CFB00EDF0A3DFFCDEFA2289F05007F709DFFC79
:0D7D0B00A9F022BBFE06F309DFFCA9F0225F
:10DABC00ECF5F0EDF8EEF9EFFAE4FFFEFDFCE5F025
:10DACC007B2033F5F0EF3FD4FFEE3ED4FEED3DD49A
:10DADC00FDEC3CD4FCDB0122BB1803E880E4BB105A
:0EDAEC0003E980DEBB0803EA80D8E5F080D4B1
:0BF43800EF540FFF22EFC4540FFF221F
:100042000200C2E493A3F8E493A34003F68001F212
:1000520008DFF48029E493A3F85407240CC8C333BF
:10006200C4540F4420C8834004F456800146F6DF8E
:10007200E4800B010204081020408090E183E47EBA
:10008200019360BCA3FF543F30E509541FFEE49383
:10009200A360010ECF54C025E060A840B8E493A34A
:1000A200FAE493A3F8E493A3C8C582C8CAC583CA75
:1000B200F0A3C8C582C8CAC583CADFE9DEE780BE2D
:01E1B300006B
:107D1800BB010689828A83E0225002E722BBFE0269
:097D2800E32289828A83E493229C
:00000001FF
