C51 COMPILER V5.50,  STR                                                                   13/09/12  16:09:47  PAGE 1   


DOS C51 COMPILER V5.50, COMPILATION OF MODULE STR
OBJECT MODULE PLACED IN STR.OBJ
COMPILER INVOKED BY: E:\C51_V5.5\BIN\C51.EXE STR.C51 CD DB

stmt level    source

   1          //*****************************************************************************
   2          //
   3          //    Str.c - Prace se stringy
   4          //    Version 1.0, (c) P.Veit
   5          //
   6          //*****************************************************************************
   7          
   8          
   9          #include "Bat2.h"
  10          #include "..\inc\bcd.h"        // BCD aritmetika
  11          
  12          //-----------------------------------------------------------------------------
  13          // Lokalni funkce:
  14          //-----------------------------------------------------------------------------
  15          
  16          static void AddBcdNumber(byte Number, byte __xdata__ *s);
  17          // Prida do <s> cislo <Number> v BCD tvaru
  18          
  19          
  20          //-----------------------------------------------------------------------------
  21          // Doplneni dvojtecky ke stringu
  22          //-----------------------------------------------------------------------------
  23          
  24          byte __xdata__ *StrAddColon(byte code *Original, byte __xdata__ *s) {
  25   1        // Prida na konec retezce <Original> dvojtecku, zkopiruje vysledek do <s> a vrati ukazatel na <s>
  26   1        byte __xdata__ *Result = s;           // Musim si zapamatovat zacatek stringu
  27   1      
  28   1        while (*Original) {
  29   2          *s = *Original;
  30   2          s++;
  31   2          Original++;
  32   2        }
  33   1        *s = ':';
  34   1        s++;
  35   1        *s = 0;
  36   1        return Result;
  37   1      }
  38          
  39          //-----------------------------------------------------------------------------
  40          // Vytvoreni datumu
  41          //-----------------------------------------------------------------------------
  42          
  43          byte __xdata__ *StrMakeDate(byte Day, byte Month, word Year, byte __xdata__ *s) {
  44   1        // Vytvori string s datumem ve formatu DD.MM.YYYY zakonceny nulou
  45   1        // Vyuziva UN.DT
  46   1        AddBcdNumber(Day, s);
  47   1        s[2]  = '.';
  48   1        AddBcdNumber(Month, s + 3);
  49   1        s[5]  = '.';
  50   1        UN.Word.Lsb = wbin2bcd(Year);
  51   1        s[6]  = 0x30 + hnib(UN.ST.X3);
  52   1        s[7]  = 0x30 + lnib(UN.ST.X3);
  53   1        s[8]  = 0x30 + hnib(UN.ST.X4);
  54   1        s[9]  = 0x30 + lnib(UN.ST.X4);
  55   1        s[10] = 0;
  56   1        return s;
  57   1      }
  58          
  59          //-----------------------------------------------------------------------------
C51 COMPILER V5.50,  STR                                                                   13/09/12  16:09:47  PAGE 2   

  60          // Vytvoreni casu
  61          //-----------------------------------------------------------------------------
  62          
  63          byte __xdata__ *StrMakeTime(byte Hour, byte Min, byte __xdata__ *s) {
  64   1        // Vytvori string s datumem ve formatu HH:MM zakonceny nulou
  65   1        AddBcdNumber(Hour, s);
  66   1        s[2] = ':';
  67   1        AddBcdNumber(Min, s + 3);
  68   1        s[5] = 0;
  69   1        return s;
  70   1      }
  71          
  72          //-----------------------------------------------------------------------------
  73          // Pridani cisla do stringu
  74          //-----------------------------------------------------------------------------
  75          
  76          static void AddBcdNumber(byte Number, byte __xdata__ *s) {
  77   1        // Prida do <s> cislo <Number> v BCD tvaru
  78   1        Number = bbin2bcd(Number);
  79   1        s[0] = 0x30 + hnib(Number);
  80   1        s[1] = 0x30 + lnib(Number);
  81   1      }
C51 COMPILER V5.50,  STR                                                                   13/09/12  16:09:47  PAGE 3   

ASSEMBLY LISTING OF GENERATED OBJECT CODE


             ; FUNCTION _StrAddColon (BEGIN)
;---- Variable 'Original' assigned to Register 'R6/R7' ----
;---- Variable 's' assigned to Register 'R4/R5' ----
                                           ; SOURCE LINE # 24
                                           ; SOURCE LINE # 26
0000 8C00    R     MOV     Result,R4
0002 8D00    R     MOV     Result+01H,R5
0004         ?C0001:
                                           ; SOURCE LINE # 28
0004 8F82          MOV     DPL,R7
0006 8E83          MOV     DPH,R6
0008 E4            CLR     A
0009 93            MOVC    A,@A+DPTR
000A FB            MOV     R3,A
000B 6011          JZ      ?C0002
                                           ; SOURCE LINE # 29
000D 8D82          MOV     DPL,R5
000F 8C83          MOV     DPH,R4
0011 F0            MOVX    @DPTR,A
                                           ; SOURCE LINE # 30
0012 0D            INC     R5
0013 BD0001        CJNE    R5,#00H,?C0007
0016 0C            INC     R4
0017         ?C0007:
                                           ; SOURCE LINE # 31
0017 0F            INC     R7
0018 BF0001        CJNE    R7,#00H,?C0008
001B 0E            INC     R6
001C         ?C0008:
                                           ; SOURCE LINE # 32
001C 80E6          SJMP    ?C0001
001E         ?C0002:
                                           ; SOURCE LINE # 33
001E 8D82          MOV     DPL,R5
0020 8C83          MOV     DPH,R4
0022 743A          MOV     A,#03AH
0024 F0            MOVX    @DPTR,A
                                           ; SOURCE LINE # 34
0025 0D            INC     R5
0026 BD0001        CJNE    R5,#00H,?C0009
0029 0C            INC     R4
002A         ?C0009:
                                           ; SOURCE LINE # 35
002A AE04          MOV     R6,AR4
002C AF05          MOV     R7,AR5
002E 8F82          MOV     DPL,R7
0030 8E83          MOV     DPH,R6
0032 E4            CLR     A
0033 F0            MOVX    @DPTR,A
                                           ; SOURCE LINE # 36
0034 AE00    R     MOV     R6,Result
0036 AF00    R     MOV     R7,Result+01H
                                           ; SOURCE LINE # 37
0038         ?C0003:
0038 22            RET     
             ; FUNCTION _StrAddColon (END)

             ; FUNCTION _StrMakeDate (BEGIN)
0000 8D00    R     MOV     Month,R5
0002 8A00    R     MOV     Year,R2
0004 8B00    R     MOV     Year+01H,R3
;---- Variable 'Day' assigned to Register 'R7' ----
                                           ; SOURCE LINE # 43
C51 COMPILER V5.50,  STR                                                                   13/09/12  16:09:47  PAGE 4   

                                           ; SOURCE LINE # 46
0006 AD00    R     MOV     R5,s+01H
0008 AC00    R     MOV     R4,s
000A 120000  R     LCALL   _AddBcdNumber
                                           ; SOURCE LINE # 47
000D 850082  R     MOV     DPL,s+01H
0010 850083  R     MOV     DPH,s
0013 A3            INC     DPTR
0014 A3            INC     DPTR
0015 742E          MOV     A,#02EH
0017 F0            MOVX    @DPTR,A
                                           ; SOURCE LINE # 48
0018 AF00    R     MOV     R7,Month
001A E500    R     MOV     A,s+01H
001C 2403          ADD     A,#03H
001E FD            MOV     R5,A
001F E4            CLR     A
0020 3500    R     ADDC    A,s
0022 FC            MOV     R4,A
0023 120000  R     LCALL   _AddBcdNumber
                                           ; SOURCE LINE # 49
0026 E500    R     MOV     A,s+01H
0028 2405          ADD     A,#05H
002A F582          MOV     DPL,A
002C E4            CLR     A
002D 3500    R     ADDC    A,s
002F F583          MOV     DPH,A
0031 742E          MOV     A,#02EH
0033 F0            MOVX    @DPTR,A
                                           ; SOURCE LINE # 50
0034 AF00    R     MOV     R7,Year+01H
0036 AE00    R     MOV     R6,Year
0038 120000  E     LCALL   _wbin2bcd
003B 8E00    E     MOV     UN+02H,R6
003D 8F00    E     MOV     UN+03H,R7
                                           ; SOURCE LINE # 51
003F AF00    E     MOV     R7,UN+02H
0041 120000  E     LCALL   _hnib
0044 EF            MOV     A,R7
0045 2430          ADD     A,#030H
0047 FF            MOV     R7,A
0048 E500    R     MOV     A,s+01H
004A 2406          ADD     A,#06H
004C F582          MOV     DPL,A
004E E4            CLR     A
004F 3500    R     ADDC    A,s
0051 F583          MOV     DPH,A
0053 EF            MOV     A,R7
0054 F0            MOVX    @DPTR,A
                                           ; SOURCE LINE # 52
0055 AF00    E     MOV     R7,UN+02H
0057 120000  E     LCALL   _lnib
005A EF            MOV     A,R7
005B 2430          ADD     A,#030H
005D FF            MOV     R7,A
005E E500    R     MOV     A,s+01H
0060 2407          ADD     A,#07H
0062 F582          MOV     DPL,A
0064 E4            CLR     A
0065 3500    R     ADDC    A,s
0067 F583          MOV     DPH,A
0069 EF            MOV     A,R7
006A F0            MOVX    @DPTR,A
                                           ; SOURCE LINE # 53
006B AF00    E     MOV     R7,UN+03H
006D 120000  E     LCALL   _hnib
C51 COMPILER V5.50,  STR                                                                   13/09/12  16:09:47  PAGE 5   

0070 EF            MOV     A,R7
0071 2430          ADD     A,#030H
0073 FF            MOV     R7,A
0074 E500    R     MOV     A,s+01H
0076 2408          ADD     A,#08H
0078 F582          MOV     DPL,A
007A E4            CLR     A
007B 3500    R     ADDC    A,s
007D F583          MOV     DPH,A
007F EF            MOV     A,R7
0080 F0            MOVX    @DPTR,A
                                           ; SOURCE LINE # 54
0081 AF00    E     MOV     R7,UN+03H
0083 120000  E     LCALL   _lnib
0086 EF            MOV     A,R7
0087 2430          ADD     A,#030H
0089 FF            MOV     R7,A
008A E500    R     MOV     A,s+01H
008C 2409          ADD     A,#09H
008E F582          MOV     DPL,A
0090 E4            CLR     A
0091 3500    R     ADDC    A,s
0093 F583          MOV     DPH,A
0095 EF            MOV     A,R7
0096 F0            MOVX    @DPTR,A
                                           ; SOURCE LINE # 55
0097 E500    R     MOV     A,s+01H
0099 240A          ADD     A,#0AH
009B F582          MOV     DPL,A
009D E4            CLR     A
009E 3500    R     ADDC    A,s
00A0 F583          MOV     DPH,A
00A2 E4            CLR     A
00A3 F0            MOVX    @DPTR,A
                                           ; SOURCE LINE # 56
00A4 AE00    R     MOV     R6,s
00A6 AF00    R     MOV     R7,s+01H
                                           ; SOURCE LINE # 57
00A8         ?C0004:
00A8 22            RET     
             ; FUNCTION _StrMakeDate (END)

             ; FUNCTION _StrMakeTime (BEGIN)
0000 8D00    R     MOV     Min,R5
0002 8A00    R     MOV     s,R2
0004 8B00    R     MOV     s+01H,R3
;---- Variable 'Hour' assigned to Register 'R7' ----
                                           ; SOURCE LINE # 63
                                           ; SOURCE LINE # 65
0006 AD00    R     MOV     R5,s+01H
0008 AC00    R     MOV     R4,s
000A 120000  R     LCALL   _AddBcdNumber
                                           ; SOURCE LINE # 66
000D 850082  R     MOV     DPL,s+01H
0010 850083  R     MOV     DPH,s
0013 A3            INC     DPTR
0014 A3            INC     DPTR
0015 743A          MOV     A,#03AH
0017 F0            MOVX    @DPTR,A
                                           ; SOURCE LINE # 67
0018 AF00    R     MOV     R7,Min
001A E500    R     MOV     A,s+01H
001C 2403          ADD     A,#03H
001E FD            MOV     R5,A
001F E4            CLR     A
0020 3500    R     ADDC    A,s
C51 COMPILER V5.50,  STR                                                                   13/09/12  16:09:47  PAGE 6   

0022 FC            MOV     R4,A
0023 120000  R     LCALL   _AddBcdNumber
                                           ; SOURCE LINE # 68
0026 E500    R     MOV     A,s+01H
0028 2405          ADD     A,#05H
002A F582          MOV     DPL,A
002C E4            CLR     A
002D 3500    R     ADDC    A,s
002F F583          MOV     DPH,A
0031 E4            CLR     A
0032 F0            MOVX    @DPTR,A
                                           ; SOURCE LINE # 69
0033 AE00    R     MOV     R6,s
0035 AF00    R     MOV     R7,s+01H
                                           ; SOURCE LINE # 70
0037         ?C0005:
0037 22            RET     
             ; FUNCTION _StrMakeTime (END)

             ; FUNCTION _AddBcdNumber (BEGIN)
0000 8F00    R     MOV     Number,R7
0002 8C00    R     MOV     s,R4
0004 8D00    R     MOV     s+01H,R5
                                           ; SOURCE LINE # 76
                                           ; SOURCE LINE # 78
0006 120000  E     LCALL   _bbin2bcd
0009 8F00    R     MOV     Number,R7
                                           ; SOURCE LINE # 79
000B 120000  E     LCALL   _hnib
000E EF            MOV     A,R7
000F 2430          ADD     A,#030H
0011 850082  R     MOV     DPL,s+01H
0014 850083  R     MOV     DPH,s
0017 F0            MOVX    @DPTR,A
                                           ; SOURCE LINE # 80
0018 AF00    R     MOV     R7,Number
001A 120000  E     LCALL   _lnib
001D EF            MOV     A,R7
001E 2430          ADD     A,#030H
0020 850082  R     MOV     DPL,s+01H
0023 850083  R     MOV     DPH,s
0026 A3            INC     DPTR
0027 F0            MOVX    @DPTR,A
                                           ; SOURCE LINE # 81
0028 22            RET     
             ; FUNCTION _AddBcdNumber (END)



MODULE INFORMATION:   STATIC OVERLAYABLE
   CODE SIZE        =    323    ----
   CONSTANT SIZE    =   ----    ----
   XDATA SIZE       =   ----    ----
   PDATA SIZE       =   ----    ----
   DATA SIZE        =   ----      14
   IDATA SIZE       =   ----    ----
   BIT SIZE         =   ----    ----
END OF MODULE INFORMATION.


C51 COMPILATION COMPLETE.  0 WARNING(S),  0 ERROR(S)
