:1000E4000400000000000000000000000000000008
:1000F4000680130F8CC008F10038000000000000D7
:100104000680130F8CD008F10038000000000000B6
:1001140006F08010044AA0044620000000000000FD
:1001240005FC4322245222040200000000000000C7
:1001340005FC5322244222050200000000000000B6
:1001440005FC532224522204020000000000000097
:100154000304D23F0402000000000000000000007D
:100164000405C23F0412000000000000000000006B
:100174000305C23F0502000000000000000000006B
:1001840006FCD30030100C01C33F00000000000047
:1001940007F08010045220048210F00000000000D8
:1001A40007F08010054220049210F00000000000C7
:1001B40007F08010054220059210F00000000000B6
:1001C40006FC012000122000C21F000000000000F5
:1001D40006FC112000022001C21F000000000000E4
:1001E40005800125524225E00300000000000000C4
:1001F40005804125522225E4030000000000000090
:1002040005806125524225E603000000000000003D
:1002140004E009A110062100000000000000000015
:1002240005E02125540225600100000000000000C3
:1002340005E0412552222564010000000000000071
:1002440005E0412550422560010000000000000047
:100254000202403F00000000000000000000000017
:100264000304203F04000000000000000000000020
:100274000304003F04000000000000000000000030
:1002840005F06301124001E60300000000000000D5
:1002940005E02121140221E001000000000000001B
:1002A40005E04121122221E40100000000000000C9
:1002B40005E06121124221E6010000000000000077
:1002C40005F02120040220F00300000000000000DB
:1002D40005F04120022220F4030000000000000089
:1002E4000400000000000000000000000000000006
:1002F40001FC0200000000000000000000000000FB
:100304000408600008600000000000000000000015
:1003140007800039F0C039F0C00910000000000067
:1003240005308224FE8F24880100000000000000B4
:100334000A184002248031C000038C0124400218B2
:1003440007D8412224822580011600020000000003
:10035400020860000000000000000000000000002F
:1003640003F0C1600208000000000000000000006B
:100374000302C860F001000000000000000000005B
:10038400051480003E8000140000000000000000FE
:100394000740000440803F4000044000000000008B
:1003A4000200043000000000000000000000000013
:1003B40003400004400000000000000000000000B2
:1003C4000100020000000000000000000000000026
:1003D40003000E1F0E0000000000000000000000DB
:1003E40005F84120044220F801000000000000004C
:1003F4000308C23F000200000000000000000000EB
:1004040005084328444222180200000000000000AE
:1004140005084120244222D8010000000000000009
:100424000560000548C03F400000000000000000D7
:10043400053C4122244222C40100000000000000C7
:1004440005F08122244222C00100000000000000C7
:1004540005044030C440030C00000000000000000C
:1004640005D84122244222D80100000000000000E7
:1004740005384024444214F8000000000000000045
:100484000130030000000000000000000000000034
:1004940002000873000000000000000000000000DB
:1004A4000640000AA0001110812000000000000096
:1004B40007A0000AA0000AA0000AA0000000000093
:0604C40006080211100100
:1004CA000AA000040000000000000404402C24805C
:1004DA000100000000000000000009F08120E4444F
:1004EA005114455F048110F000000680030F8CC090
:1004FA0008F0003800000000000005FC43222442F6
:10050A0022D8010000000000000006F0801004421A
:10051A002004422000000000000006FC43200442A0
:10052A002008010F00000000000005FC43222442BD
:10053A002204020000000000000005FC43022440DF
:10054A000224000000000000000006F080100442AF
:10055A002444423C00000000000006FC0302200084
:10056A000220C03F0000000000000304C23F040252
:10057A00000000000000000000000400422004C245
:10058A001F00000000000000000005FC0306908028
:10059A001004020000000000000004FC0320000216
:1005AA002000000000000000000007FCC30030002B
:1005BA000C30C000FC030000000006FCC300300041
:1005CA000C00C33F00000000000007F08010044246
:1005DA0020048210F0000000000005FC430444409F
:1005EA000438000000000000000007F080100442F8
:1005FA0020048690F0080000000006FC43044440F2
:10060A000C38012000000000000005184222244294
:10061A0022C4010000000000000005044000FC4361
:10062A000004000000000000000006FC0120000297
:10063A002000C21F000000000000051C000E00037D
:10064A000E1C0000000000000000091C000E000340
:10065A000E1C000E00030E1C0000050C03096000AE
:10066A00090C0300000000000000050C0003C00391
:10067A00030C000000000000000005044328644247
:10068A00210C020000000000000003FE2F80020877
:10069A0000000000000000000000030E001F000E12
:1006AA000000000000000000000003022880FE0F86
:1006BA0000000000000000000000072000010840C0
:1006CA000008000120000000000006000880000861
:1006DA0080000880000000000000020240000000C4
:1006EA000000000000000000000005800125500203
:1006FA0025E0030000000000000005FE03211002AF
:10070A0021E0010000000000000004E001211002C5
:10071A002100000000000000000005E00121100295
:10072A0021FE030000000000000005E00125500240
:10073A002560010000000000000003FC23011200F4
:10074A000000000000000000000005E001A1100AFE
:10075A00A1F0070000000000000005FE03011000E0
:10076A0001E0030000000000000001F403000000A3
:10077A00000000000000000000000210487F000096
:10078A000000000000000000000005FE0304A000B5
:10079A001100020000000000000001FE030000003A
:1007AA000000000000000000000007F00301100034
:1007BA003E100001E0030000000005F003011000F4
:1007CA0001E0030000000000000005E00121100222
:1007DA0021E0010000000000000005F00F211002D6
:1007EA0021E0010000000000000005E001211002E4
:1007FA0021F00F0000000000000003F003021000C7
:10080A0000000000000000000000046002259002C1
:10081A001900000000000000000003FC0121100282
:10082A000000000000000000000005F001200002A6
:10083A0020F003000000000000000530000C000357
:10084A000C30000000000000000007F00030C0007B
:10085A0003C00030F0000000000005100212C000C2
:10086A0012100200000000000000053000CC000356
:10087A000C300000000000000000041003295002A0
:10088A002300000000000000000004400004BC2710
:10089A008000000000000000000001FE0F000000C0
:0608AA0000000000000048
:1008B000000000000402C87B4000040000000000AB
:1008C0000000000007C00002200004800008600053
:1008D0000000000005800125542225E003000000EF
:1008E0000000000004E0212114222100000000008B
:1008F0000000000008E00121100221FE0300086052
:100900000000000005E001255422256001000000E0
:100910000000000005E0212554422562010000008E
:100920000000000002F423000000000000000000AE
:100930000000000005F24301142001E00300000064
:100940000000000005E00121142221E00100000068
:100950000000000003F2430212000000000000004B
:1009600000000000046242259422190000000000EB
:100970000000000003FC012116020000000000003E
:100980000000000005F00120042220F00300000018
:100990000000000005F041200A4220F003000000A2
:1009A00000000000053000CC04230C3000000000E3
:1009B000000000000412432954222300000000001C
:1009C000000000000680030F8DC008F00038000012
:1009D0000000000006F080100452200542200000B4
:1009E0000000000006FC432005522008010F000013
:1009F0000000000005FC43222652220402000000F1
:100A00000000000005FC43222552220402000000E1
:100A1000000000000304E23F0502000000000000A7
:100A20000000000006FCC30031200C01C33F0000A1
:100A30000000000007F08010046220058210F00022
:100A40000000000006FC430445500C380120000063
:100A50000000000005184222255222C401000000B7
:100A60000000000005044000FD53000400000000E9
:100A70000000000006FC012000222001C21F00002F
:100A80000000000006FC012002522002C21F0000EC
:100A900000000000050C0003C213030C000000005E
:100AA00000000000050443286552210C02000000EC
:100AB0000000000006800125500225E00F800000A4
:100AC0000000000004E001211422210000000000C9
:100AD0000000000005E001255002E5600A0000006A
:100AE000000000000340E03F100000000000000094
:100AF0000000000005F00301142001E003000000E5
:100B0000000000000460022594221900000000008B
:100B100000000000041043295202230000000000DE
:100B2000000000000410032954022300000000000C
:100B3000000000000780030F8CC008F000F80008D8
:100B40000000000006F08010045220044220000043
:100B50000000000005FC4322244262040A00000059
:100B6000000000000540C03F10022000020000000D
:100B70000000000006FCC30030100C00C33F000062
:100B80000000000005184222254222C40100000096
:100B900000000000050443286542210C020000000B
:100BA00000000000050443286542210C02000000FB
:100BB0000000000005F84121122221E2010000009E
:100BC0000000000005F00325500225A001000000F0
:100BD0000000000004F0030110000100000000000C
:100BE0000000000006000638700221F003600000DB
:100BF000000000000710021680003F80001610025F
:100C0000000000000410022550021A00000000003D
:100C10000000000005F00308400002F0030000009F
:100C20000000000005F02308444002F20300000029
:100C30000000000005F00304A000111002000000F5
:100C4000000000000500021F100001F0030000007A
:100C50000000000005F00302C00002F003000000E5
:100C60000000000005F00304400004F00300000051
:100C70000000000005F00301100001F00300000077
:100C80000000000005100001F0030110000000004A
:060C900000000000053029
:100C960000CC00030C30000000000000000007E05C
:100CA600012110E2FF100221E0010000000005F022
:100CB600032000023F00060000000000000005704F
:100CC6000008800008F0030000000000000007F0A4
:100CD600032000023F000220F0030000000008F09D
:100CE600032000023F000220F0036000000006100F
:100CF6000001F0032440021800000000000007F085
:100D06000324400224800100F0030000000005F0E7
:100D160003244002248001000000000000000410AB
:100D2600022550021E00000000000000000008F02E
:100D3600030440001E10022110021E000000056080
:100D46000219900009F0030000000000000005FCF5
:100D56004322244222C4010000000000000005FCDA
:100D660043000440000400000000000000000700EB
:100D76000E3870C22004C23F000E000000000904B5
:100D8600C210B00004FC0304B0C010040200050445
:100D96004222244222D8010000000000000006FC86
:100DA6000310C0000308C03F00000000000006FC5E
:100DB6000310C1100308C03F00000000000006FC3D
:100DC60003026080090441200000000000000600C4
:100DD600C21F04400004C03F00000000000006FCE3
:100DE600430004400004C03F000000000000060C61
:100DF6000223C0010C30C00000000000000007F014
:100E0600801008C13F088110F0000000000007FCB8
:100E1600032000022000C23F000E00000000063C36
:100E2600000440000440C03F00000000000009FC30
:100E36000320000220FC0320000220FC03000AFC21
:100E46000320000220FC0320000220FC03E007042C
:100E56004000FC0322200222C0010000000007FC23
:100E66000322200222C00100FC030000000005FC52
:100E76000322200222C00100000000000000060438
:100E8600422224422228010F00000000000009FC33
:100E96000302F08010044220048210F000000600D5
:100EA6008213C4400444C03F0000000000000580D7
:100EB6004125504225E0030000000000000005E047
:100EC6004121104221E0010000000000000005F071
:100ED6004120004220F0030000000000000005FC55
:100EE6002300122221EC0100000000000000068011
:100EF600130F8CC008F1003800000000000007F056
:100F06008010054220058210F0000000000006FC5B
:100F1600112000022001C21F00000000000004187A
:100F2600400224800100000000000000000009F0DB
:100F36008120E44451144551048420F00100072027
:100F4600011220C11F2001122001000000000530FF
:100F560040CC00430C30000000000000000006807A
:100F6600030F8CD008F000380000000000000200DB
:100F7600000000000560342A32640564322A3462B7
:100F8600043844C4440004027C545400037E56567C
:100F9600000005027C5454020402447C44000346CB
:100FA6007E4600000502447C440205027E0A127E4B
:100FB600053A44444438053846464638053A4646D6
:100FC600463805023C40403C043E42423E00050293
:100FD6006C687040046C6A72440005046A6A744264
:100FE600033048C8000004023458500004345A52F2
:100FF600040003325852000003020C780000040C6F
:101006007A020400030278020000047A120A7200CF
:101016000502344848300504324A4C300504324A49
:101026004C32043A4420780005043A4224780200FF
:1010360000000000015E000000000306000600003C
:101046000568386C382C034CFE64000005641A3CB5
:10105600582605304C5A2450020806000000033872
:101066004482000003824438000003140A1400007E
:06107600032070200000C1
:10107C0001C000000000031010100000014000002F
:10108C00000004C0300C0200043C42423C0003440B
:10109C007E4000000362524C0000034A4A340000B8
:1010AC000418147E1000034E4A320000043C4A4AD5
:1010BC0030000402720A060004344A4A3400040C5C
:1010CC0052523C0001480000000001C80000000022
:1010DC000310284400000428282828000344281062
:1010EC00000003520A040000057884B2AABC057003
:1010FC001C121C70047E4A4A3400043C42424200DA
:10110C00047E42423C00037E4A4A0000037E0A0AE7
:10111C000000043C42523000047E10107E0003425A
:10112C007E4200000340423E0000047E1028440032
:10113C00047E40404000057E0418047E047E0810A6
:10114C007E00043C42423C00047E12120C00043C23
:10115C004242BC00047E12126C0003444A3200006E
:10116C0003027E020000043E40403E00041E60600C
:10117C001E00051E6018601E05422418244205023C
:10118C00047804020462524A460002FE8200000007
:10119C0004020C30C0000282FE00000005300C027C
:1011AC000C300580808080800202040000000368FF
:1011BC0068700000047E4848300003304848000046
:1011CC00043048487E00033058500000027C0A006E
:1011DC0000000430A8A87800047E10087000017A82
:1011EC000000000002807A000000047E10284000FD
:1011FC00017E000000000578107810780478100843
:10120C00700004304848300004F84848300004307E
:10121C004848F800037810080000035058280000D4
:10122C00023C48000000043840207800041860603C
:10123C0018000518603860180448303048000498CD
:10124C00E060180003685858000003106C8200001E
:10125C0001FE0000000003826C100000052010103D
:10126C00201003686C72000003324C4A00000432F8
:10127C004C4A7E0003305C52000003325C5200008A
:10128C000408780402000478120C72000430484CF4
:10129C003200037A140A000003525C2A000004088E
:1012AC003C480600043840247A000430442A740078
:1012BC00049860641A00036A5C5A000005603824C4
:1012CC003A60043846464600047E46463800047CA4
:1012DC0054540200037C5656000003447C46000024
:1012EC00047E0A127E0005384444443A047E162AD1
:1012FC004000034A562600000504067E0604043C02
:10130C0040423C00043C40423C00050408740A0482
:10131C00046456564C00036868F000000430484CD6
:10132C0002000330D850000003127E08000004783D
:10133C00100C72000450582C02000468585C020017
:10134C0003685A58000005603824B86004384444D7
:10135C004600037CD454000005207C504040047CA3
:10136C0008127C00044854240200046454544E00B7
:10137C00046454564C0003384C360000037858383B
:10138C0000000378080800000560382838600568FC
:10139C00107810680358583000000478201078003A
:1013AC000478221278000478102840000440380891
:1013BC007800047810107800037810780000050885
:1013CC007808780805080878080804986020180040
:1013DC00053048FE483004784040F80004182020BE
:1013EC0078000578407840780578407840F8050812
:1013FC0008785020047850207800037850200000A2
:10140C0003585830000005781030483003502878C5
:10141C000000037C54240000037C0404000005E05D
:10142C005C447CC00544287C2844035454280000A8
:10143C00047C10087C00047C12087C00047C1028BE
:10144C00440004403C047C0005047C047C04044CF3
:06145C0030100C00053009
:1014620048FC4830047C4040FC00040C10107C0016
:10147200057C407C407C057C407C40FC05047C5023
:101482005020047C50207C00047C505020000354E7
:1014920054380000057C103844380368147C00007E
:1014A200046A68724000043248483200043A40201C
:1014B2007A00047C025C200005603A243A60053A16
:1014C2004444443A05023C40423C040C12120C00D3
:1014D200057C82BAAA7C035078500000049AE0602E
:0814E2001A0005603A2438608D
:10E197007580FFC291D292C293301404D2A6800236
:10E1A700D2A7D29100C291003087F7C2A6C2A7D2E8
:09E1B70091D293D2927580FF22EF
:10E06C0012E1977580FFC291C292C293301404D210
:10E07C00A68002D2A78F80D29100C29100C2A6C204
:0BE08C00A7D291D293D2927580FF22A0
:10E0970012E1977580FFC291C292D293301404D2D5
:10E0A700A68002D2A78F80D29100C29100C2A6C2D9
:0BE0B700A7D291D293D2927580FF2275
:10DE9A00E4FE12E1977580FFC291D292D2933014B8
:10DEAA0004D2A68002D2A7D29100AF80C291C2A6A4
:10DEBA00C2A7D291D293D2927580FF0EBE02D3220C
:10D15C00C2A6C2A7C2A5D2A6D2A77F0F7E0012DF9D
:10D16C008AD2A57F0F7E0012DF8AC2A6C2A7C21484
:10D17C007FC012E06C7F4012E06C7FB812E06C7FD5
:10D18C003F12E06CD2147FC012E06C7F4012E06C56
:0DD19C007FB812E06C7F3F12E06CC21422DD
:0DE9D000C2147F3F12E06CD21412E06C22E2
:10DC2C00C214E4FDED24B8FF12E06CE4FEE4FF1234
:10DC3C00E0970EBE40F70DBD08EAD214E4FDED24CA
:10DC4C00B8FF12E06CE4FEE4FF12E0970EBE40F762
:05DC5C000DBD08EA22E5
:10CD1A00A907C203754301D20474B82DFD74B8255E
:10CD2A0042F542AE05EEC39542503CD203AD01ED49
:10CD3A00C39B5030EDC413135403FFA214E4336FA2
:10CD4A006002D203300315C203EF24FF9214AF0628
:10CD5A0012E06CED543F2440FF12E06CE4FF12E055
:08CD6A00970D80CB0E80BE2264
:109AAE008F408D418B42C202E4FD7B01D203E54023
:109ABE00C41313540324FF9214E541131313541FBC
:109ACE00F54424B8FF12E06CE540543F2440FF12E9
:109ADE00E06CE5415407FFEBA807088002C333D8BA
:109AEE00FCFB12DE9AAD07E540543F2440FF12E026
:109AFE006CAA40EAC395424003029BA8EAC4131322
:109B0E005403FFA214E4336F6002D202A941E9C3E9
:109B1E0095435076E9D394404002C203E9131313E0
:109B2E00541F65446002D20230024CC2023003055B
:109B3E00AF0512E097D203EAC41313540324FF9225
:109B4E0014E9131313541FF54424B8FF12E06CEA02
:109B5E00543F2440FF12E06C7B01E95407FFEBA851
:109B6E0007088002C333D8FCFB12DE9AAD07EA5415
:109B7E003F2440FF12E06C300105EB42058004EB00
:109B8E00F45205EB25E0FB098084C3E5439541D3F0
:109B9E0094085002D2020A029B01AF0512E09722EE
:10CD7200A907C206754101D20774B82DFD74B82502
:10CD820040F540AE05EEC39540503CD206AD01EDF4
:10CD9200C39B5030EDC413135403FFA214E4336F4A
:10CDA2006002D206300615C206EF24FF9214AF06C7
:10CDB20012E06CED543F2440FF12E06C7FFF12E062
:08CDC200970D80CB0E80BE220C
:10B63E008D408B41AA07E4FB754201EAC4131354F3
:10B64E000324FF9214E540131313541F24B8FF1262
:10B65E00E06CEA543F2440FF12E06CE5405407FFD3
:10B66E00E542A807088002C333D8FCF542A902EAD6
:10B67E002541FFE433FEE9D39FEE6480F874809891
:10B68E005043E9C413135403FFA214E4336F601B39
:10B69E00EF24FF9214E540131313541F24B8FF1226
:10B6AE00E06CE9543F2440FF12E06C12DE9AAB07C7
:10B6BE00E9543F2440FF12E06CE5424203AF03120F
:06B6CE00E0970980AA22AA
:10B9A4008F328B33A905E4FA753401E532C41313DD
:10B9B400540324FF9214E9131313541F24B8FF12E1
:10B9C400E06CE95407FFE534A807088002C333D8C4
:10B9D400FCF534AB32E5322533FFE433FEEBD39F81
:10B9E400EE6480F87480985043EBC413135403FF3F
:10B9F400A214E4336F6011EF24FF9214E9131313BC
:10BA0400541F24B8FF12E06CEB543F2440FF12E0B3
:10BA14006C12DE9AAA07EB543F2440FF12E06CE557
:0DBA2400344202AF0212E0970B0B80A92202
:10D91F008B31A907E9D3943F4003D38001C39214FD
:10D92F00AC05E531FBED2BFFE433FEECC39FEE645A
:10D93F0080F87480985018EC24B8FF12E06CE9540A
:10D94F003F2440FF12E06C7FFF12E0970C80D32240
:109DAC008F408D418B42C201E4F97D01D202E54026
:109DBC00C41313540324FF9214E541131313541FBB
:109DCC00F54324B8FF12E06CE540543F2440FF12E9
:109DDC00E06CE5415407FFEDA807088002C333D8B7
:109DEC00FCFD12DE9AA907E540543F2440FF12E027
:109DFC006CAC41E5412542FFE433FEECD39FEE64AD
:109E0C0080F87480984003029EA0ECD394404002EA
:109E1C00C202EC131313541F65436002D2013001CC
:109E2C0068C201300205AF0112E097D202EC1313A5
:109E3C0013541FF54324B8FF12E06CE540543F2443
:109E4C0040FF12E06C7D01EC5407FFEDA807088081
:109E5C0002C333D8FCFD12DE9AA907E540543F2417
:109E6C0040FF12E06CE5412542FFE433FEEC240890
:109E7C00FBE433FAC3EB9FEE6480F8EA64809850FD
:109E8C000879FFD20174072CFCED4201ED25E0FDB1
:0A9E9C000C029DFFAF0112E09722B7
:1098AB008F308D318B32D3E5359539E5386480F8BF
:1098BB00E5346480984006853834853935C3E53501
:1098CB009537E5366480F8E5346480985006853624
:1098DB0034853735AF30AD31AB3212B63EAF30E5F4
:1098EB0031253314FDAB3212B63EAF30AD31E5331B
:1098FB0014FB129DACE5302532FFAD31E53314FB83
:10990B00129DACE53224FFFDE434FFFCC3E5359535
:10991B0037FFE5349536FE122B60C3E5399537FDDD
:10992B00E5389536FC122BC9AE07E53004FF2EF552
:10993B003BD395304012E53104FDAB3BE53125338C
:10994B0014F543D201129AAEE5302532FFE433FE13
:10995B00C3E53B9FEE6480F87480985017AF3BE5EE
:10996B003104FDE5302532FBE531253314F543C2D7
:10997B0001129AAEE53AF460289005537404F0AEE8
:10998B0034EE3395E085350C8E0BF50AF509E53091
:10999B00253214FFAD31E4FBE53A4480F548127FE4
:0299AB00012297
:10D89D0090054EEFF014601E04703590054F740026
:10D8AD00F0A374E4F0A3740CF0A37410F0E4A3F0EF
:10D8BD00A304F0A3F02290054F740FF0A37474F03D
:10D8CD00A37408F0A37406F0E4A3F0A304F0A3F08E
:01D8DD002228
:105244008F548D55AF03C206E4FB755701755801A1
:10525400755901D207E554D3947F40030255C5E53F
:1052640055D3943F40030255C5900552E0FEEF8E9E
:10527400F0A4FFAEF090054FE0FCA3E02FF55CEC4A
:105284003EF55B855C82F583E493F55DE554C413D8
:1052940013540324FF9214E555131313541FF556A6
:1052A40024B8FF12E06CE554543F2440FF12E06C34
:1052B400900553E0FF64016008EF64036003025447
:1052C4009190054EE0FF64026008EF6403600302FE
:1052D4005374A955900551E02555FFE433FEE9C305
:1052E4009FEE6480F874809840030255C5D206AAE4
:1052F40054E554255DFFE433FEEAC39FEE6480F871
:105304007480985064EAC413135403FFA214E43362
:105314006F6002D206300620C206EF24FF9214E921
:10532400131313541FF556EA543F2440FF12E06C44
:10533400E55624B8FF12E06C900553E0B40314E57D
:105344005C2558F582E4355BF583E493F4FF12E0C1
:10535400978011E55C2558F582E4355BF583E49389
:10536400FF12E09705580A8088740829F90252D878
:10537400E4FB855C82855B83A393F55AAA54E554C8
:10538400255DFFE433FEEAC39FEE6480F8748098E1
:10539400400302547DEAC413135403FFA214E433FC
:1053A4006F6002D206755701E5555407FFE557A80B
:1053B40007088002C333D8FCF557A955900551E07E
:1053C4002555FFE433FEE9C39FEE6480F8748098AA
:1053D400400302546EE9D394404002C207E9131318
:1053E40013541F65566002D20630064930071490E4
:1053F4000553E0B40308EBF4FF12E0978005AF0314
:1054040012E097D207C206EAC41313540324FF928E
:1054140014E9131313541FF556EA543F2440FF12A2
:10542400E06CE55624B8FF12E06CE9D395554003CF
:10543400755701E4FBE55A55596004E5574203E505
:105444005725E0F557E559B480160558755901E517
:105454005C2558F582E4355BF583E493F55A8006C0
:10546400E55925E0F559090253C0900551E0D3945C
:10547400085002D2060A025382900553E0B403078F
:10548400EBF4FF12E09722AF0312E09722E55554A4
:1054940007FFE557A807088002C333D8FCF5571265
:1054A400DE9AAB07E554543F2440FF12E06CAA5443
:1054B400E554255DFFE433FEEAC39FEE6480F8748F
:1054C400809840030255C0EAC413135403FFA21486
:1054D400E4336F6002D206A955900551E02555FFCB
:1054E400E433FEE9C39FEE6480F8748098400302BD
:1054F40055B1E9D394404002C207E9131313541F72
:1055040065566002D20630064EC206AF0312E0971B
:10551400D207EAC41313540324FF9214E913131398
:10552400541FF556EA543F2440FF12E06CE556241C
:10553400B8FF12E06C755701E95407FFE557A80757
:0C554400088002C333D8FCF55712DE9A31
:10555000AB07EA543F2440FF12E06CE55C2558F5A8
:1055600082E4355BF583E49355596029900553E057
:10557000FFB40207E557F45203801AEFB40412E5B2
:10558000575B6007E557F45203800AE557420380F2
:1055900004E5574203E55725E0F557E559B4800780
:1055A00005587559018006E55925E0F55909025459
:1055B000DD900551E0D394085002D2060A0254B49B
:0655C000AF0312E0972288
:10C346008F458D468B478A488949E4F54AAF45AD06
:10C3560046AB47AA48A949854A82758300122ACC6A
:10C36600FB125244AB47AA48A949854A8275830005
:10C37600122ACCFF900552E0FEEF8EF0A4FF900546
:10C386004FE0FCA3E02FF582E5F03CF583E493FF54
:10C39600900554E0FEEF2E2545F545054A854A826F
:10C3A600758300122ACCFF600AF46007E545D39432
:04C3B6007F409A2208
:10BF7B008F458D468B478A488949E4FFAB47AA48D2
:10BF8B00A9498F82758300122ACCFE6006F46003E8
:10BF9B000F80E98F4AE54AD394004050E54A24FFCD
:10BFAB00FFE434FFAB47AA48A9498F82F583122AD5
:10BFBB00CCFB900552E0FFEB8FF0A4FF90054FE018
:10BFCB00FCA3E02FF582E5F03CF583E493FF9005AD
:10BFDB0054E0FEEF2EFFC3E5459FF545C3940040AB
:0DBFEB000BAD46AF45125244154A80A92205
:10A61A008F3F8D408B418A428943E4F545F546AB2D
:10A62A0041AA42A943854582758300122ACCFF605C
:10A63A0007F46004054580E7E4F544E544C395451D
:10A64A00503BAB41AA42A943854482758300122A32
:10A65A00CCFF900552E0FEEF8EF0A4FF90054FE08C
:10A66A00FCA3E02FF582E5F03CF583E493FF900527
:10A67A0054E0FEEF2E2546F546054480BE9005546B
:10A68A00E0FFC3E5469FF546C313FFC3E53F9FF5C9
:10A69A003FE4F544E544C395455057AF3FAD40AB61
:10A6AA0041AA42A943854482758300122ACCFB122F
:10A6BA005244AB41AA42A943854482758300122AB7
:10A6CA00CCFF900552E0FEEF8EF0A4FF90054FE01C
:10A6DA00FCA3E02FF582E5F03CF583E493FF9005B7
:10A6EA0054E0FEEF2E253FF53FD3947F50040544F6
:03A6FA0080A22219
:10B1E6008B548A558956AF0CAE0BAD0AAC0912DAF0
:10B1F600598F0C8E0B8D0A8C09AF0912EA29AB54B4
:10B20600AA55A956900007EF122B3EAF0912EA2461
:10B21600AB54AA55A956900006EF122B3EAF0A1260
:10B22600EA29AB54AA55A956900005EF122B3EAF5A
:10B236000A12EA24AB54AA55A956900004EF122B21
:10B246003EAF0B12EA29AB54AA55A956900003EF5C
:10B25600122B3EAF0B12EA24AB54AA55A956900006
:10B2660002EF122B3EAF0C12EA29AB54AA55A9568F
:10B27600900001EF122B3EAF0C12EA24AB54AA55F4
:07B28600A956EF122B2C2248
:107F01008F458D468B47E4F552E50930E720D203D2
:107F1100AF0CAE0BAD0AAC09122D77EF2401F50CB5
:107F2100E43EF50BE43DF50AE43CF5098002C203A9
:107F31007B007A00794912B1E6E54830E7087553CC
:107F41002E53487F800375532CE5477040754708D1
:107F5100C3E5479548D39401400F74482547F8E697
:107F610070071547E547B401E7200303027FF1904D
:107F7100054EE0FF6003B4010974492547F8762DE9
:107F8100800774492547F8760B05478063755108CA
:107F910074482551F8E67027E55114FFE548C39F61
:107FA100501D90054EE0FF6003B40109744825514E
:107FB100F87620800774482551F8760AD551D130DA
:107FC100032EE4F55190054EE0FF6003B4010D74FA
:107FD100482551F8E6B42011762D801474482551B6
:107FE100F8E6B40A04760B80070551E551B408D5CB
:107FF10090054EE0FF6003B40103755230E4F55182
:10800100E551C3954740030280ED74492551F8E6D7
:10801100FB2552FF900552E0FEEF8EF0A4FF900584
:108021004FE0FCA3E02FF582E5F03CF583E493FFFC
:10803100C3E5459FF545EBC394204009AF45AD46E7
:108041001252448010AF45AD4674492551F8E625DA
:1080510052FB125244E548D3940050030280DDE5FF
:10806100512401FFE433FEEF65487001EE706D901D
:10807100054EE0FF600464017033900552E0FFE5B6
:10808100538FF0A4FF90054FE0FCA3E02FF582E5AC
:10809100F03CF583E493FF900555E02FFFC3E545E0
:1080A1009FF545FFAD46AB53125244802F900552C8
:1080B100E075F00EA4FF90054FE0FCA3E02FF582E0
:1080C100E5F03CF583E493FF900555E02FFFC3E510
:1080D100459FF545FFAD467B0E125244900554E095
:0D80E100FFC3E5459FF545055102800122D2
:108750008F418D428B438A448945C206E4F54A75B0
:108760004B01F54C754D03754E01D2079000021276
:108770002ACCF546E541C41313540324FF9214E5B3
:1087800042131313541FF54924B8FF12E06CE5415E
:10879000543F2440FF12E06CE5425407FFE54BA82C
:1087A00007088002C333D8FCF54B12DE9A8F4AE5E6
:1087B00041543F2440FF12E06C854147AB43AA443B
:1087C000A945900001122ACC2541FFE433FEC3E500
:1087D000479FEE6480F874809840030288C6E5479E
:1087E000C413135403FFA214E4336F6002D206854E
:1087F0004248E5422546FFE433FEC3E5489FEE6468
:1088000080F874809840030288B8E548D3944040CB
:1088100002C207E548131313541F65496002D206CC
:10882000300654C206300705AF4A12E097D207E57A
:1088300047C41313540324FF9214E548131313542D
:108840001FF54924B8FF12E06CE547543F2440FF70
:1088500012E06C754B01E5485407FFE54BA807088B
:108860008002C333D8FCF54B12DE9A8F4AE5475499
:108870003F2440FF12E06CAB43AA44A945854D82DA
:10888000854C83122ACC554E6006E54B424A800542
:10889000E54BF4524AE54B25E0F54BE54EB4800D2F
:1088A000054DE54D7002054C754E018006E54E25DF
:1088B000E0F54E05480287F2E546D394085002D20F
:0C88C0000605470287BCAF4A12E0972271
:1046BE008F388D398B3AAF0CAE0BAD0AAC097889B9
:1046CE00122E90D203C204C205E53B30E708753CBA
:1046DE002E533B7F8003753C2CE53AB40907D20577
:1046EE00753A088020E53AB40A07D204753A048078
:1046FE0014E53BD394074003E4F53BE53AD3940825
:10470E004003753A087B007A00797E12B1E678860E
:10471E00A63A7886E6FFC39408500B747E2FF8E411
:10472E00F678860680EC9005537403F0E53B702313
:10473E00E53A25E0FFE53A75F005A42F24067888C2
:10474E00F63005052406F6801B3004187888060618
:10475E00068011E53A25E0FFE53A75F005A42F2411
:10476E00087888F6AF38E539131313541FFEFDE5AC
:10477E0038788826FBEE2402F54012CD72E53A1405
:10478E007886F675A61E75A6E112E2CCEF122F45BD
:10479E0047EC0147CC02482C03480C04486C0548F2
:1047AE005306484D0749634149634248534347EC1A
:1047BE008147CC82482C83480C840000496512E95D
:1047CE00A47886E6247EF8E6C39409500306800298
:1047DE00E4F6D203750E19D210D21302496512E90E
:1047EE00A47886E6247EF8E6D39400400316800271
:1047FE007609D203750E19D210D21302496512E949
:10480E00A47886E6D394004003168006E53A147821
:10481E0086F6D203750E0AC210D21302496512E94A
:10482E00A4E53A14FF7886E6C39F5003068004E49D
:10483E007886F6D203750E0AC210D213024965208D
:10484E0017030249657889122E348F0C8E0B8D0A50
:10485E008C0912E9A4E4900553F0C217C32212E9A1
:10486E00A4787FE675F00AA41826F6E4F509F50A91
:10487E007880E6FF7E007C007D64122B60AA06AB7A
:10488E00077881E6FF7E007C037DE8122B60EF2B1C
:10489E00FFEE3AFE787EE67C002FF50CEC3EF50B33
:1048AE007884E6FFE4FDFE7B407A42790FF8122C05
:1048BE005AC004C005C006C0077885E6FFE4FCFDBB
:1048CE00FE7B807A967998F8122C5AD003D002D0BB
:1048DE0001D000EF2BFFEE3AFEED39FDEC38FCC0B7
:1048EE0004C005C006C0077883E6FFE4FCFDFE7B2E
:1048FE00A07A867901F8122C5AD003D002D001D0BA
:10490E0000EF2BFFEE3AFEED39FDEC38FCC004C093
:10491E0005C006C0077882E6FFE4FCFDFE7B107A38
:10492E0027F9F8122C5AD003D002D001D000EF2B69
:10493E00FFEE3AFEED39FDEC38FCE50C2FF50CE5FB
:10494E000B3EF50BE50A3DF50AE5093CF509E49049
:02495E000553FF
:10496000F0D322D203200303024791C20312E9D0FD
:10497000E53B7023E53A25E0FFE53A75F005A42F05
:1049800024067888F63005052406F6801B300418C6
:1049900078880606068011E53A25E0FFE53A75F0CD
:1049A00005A42F24087888F6E53878882624F71897
:1049B000F6E408F67888E6C3953A40030247911872
:1049C000E6FEFFE539131313541FFCFDEE2405FB2F
:1049D000EC2402F54012CD722010077988E71866A2
:1049E00060337888E6247EF8E6FEB401137887E623
:1049F00004FFE5392402FDEE2430FB1252448015F9
:104A00007887E6FFE5392402FD08E6247EF8E624EF
:104A100030FB12524430052C7888E62401FFE43341
:104A2000FEEF64044E6006EF64064E70177887163A
:104A30001616E6FFE5392402FD7B2E1252447887D4
:104A4000161680703004257888E62401FFE433FED2
:104A5000EF64024E701618161616E6FFE5392402AA
:104A6000FD7B3A125244788716168048E53BD39472
:104A700000403D7888E62401FFE433FEEF653B709B
:104A800001EE702C788774FC26F6E53CB42E0FE618
:104A900004FFE5392402FDAB3C125244800E7887B6
:104AA000E6FFE5392402FDAB3C12524478878004CE
:104AB00078871616788774FB26F608060249B42212
:106251008F2E8D2F8A308B31D2039005537403F02A
:1062610090054EE0B401057533058003753309E5EA
:106271003224FFFFE434FFFEE5312FF582EE3530A5
:10628100F583E064207028E532147877F67877E6B4
:10629100FFD39400401FEF24FFFFE434FFFEE531FC
:1062A1002FF582EE3530F583E0B420091680DEE566
:1062B10032147877F6E47879F67879E6FFC3953287
:1062C1005016E5312FF582E43530F583E0B4200333
:1062D100745FF078790680E1E5328533F0A4FFE55B
:1062E1003225E02F2406FF7879F6FEAF2EE52F1335
:1062F1001313541FFCFDE52E2EFBEC2402F5401276
:10630100CD7275A61E75A6E112E2CCEF122F456380
:106311008A01633B0263FC0363DC04642505641B9F
:1063210006645241645242641B43638A81633B8227
:1063310063FC8363DC840000645412E9A47877E68B
:106341002531F582E43530F583E0FFB45F05743023
:10635100F0802AEFC394395005E004F0801FEFB4B8
:10636100390D3002057441F08013745FF0800EEF37
:10637100C3945A5005E004F08003745FF0D20375B2
:106381000E19D210D21302645412E9A47877E625CB
:1063910031F582E43530F583E0FFB45F0D3002055D
:1063A100745AF0802B7439F08026EFD39441400564
:1063B100E014F0801BEFB441057439F08012EFD383
:1063C10094304005E014F08007EFB43003745FF0BF
:1063D100D203750E19D210D213807812E9A4E532D6
:1063E10014FF7877E6C39F5003068004E47877F6BC
:1063F100D203750E0AC210D213805812E9A478771D
:10640100E6D394004003168006E532147877F6D27D
:1064110003750E0AC210D213803912E9A4E4900563
:1064210053F0C32212E9A4E47879F67879E6FFC340
:1064310095325016E5312FF582E43530F583E0B41D
:106441005F037420F078790680E1E4900553F0D37E
:1064510022D203200303026303C20312E9D0E52E13
:1064610024047878F6E408F67879E6C39532400397
:1064710002630318E6FE24FEFFE52F131313541FD6
:10648100FCFDE5332EFBEC2402F54012CD72201009
:106491000A7979E71866700302654290054EE0B407
:1064A100011C7878E6FFE52F2404FD08E62531F587
:1064B10082E43530F583E0FB12524402654278797B
:1064C100E62531F582E43530F583E0FB24CF603CED
:1064D10024E8603824FC601824FC601424FA704815
:1064E1007878E624FEFFE52F2402FD125244805104
:1064F1007878E614FFE52F2402FD08E62531F582C0
:10650100E43530F583E0FB12524480357878E604B7
:10651100FFE52F2402FD08E62531F582E43530F54B
:1065210083E0FB12524480197878E6FFE52F2402BC
:10653100FD08E62531F582E43530F583E0FB1252A2
:0E65410044E5332402787826F60806026469E1
:01654F002229
:06EA7900AD1612E57E223D
:10CC68008B3F8A408941E4F542AB3FAA40A9411273
:10CC78002AB3FF6037F46034900552E0FEEF8EF07F
:10CC8800A4FF90054FE0FCA3E02FF582E5F03CF50A
:10CC980083E493FF900554E0FEEF2E2542F542749D
:10CCA800012541F541E43540F54080BD900554E04B
:09CCB800FFC3E5429FF542FF2293
:1072C8008B3A8A3B893C8D3D753E01D203E53D30C2
:1072D800E705C203533D7FE4F517AB3AAA3BA93C47
:1072E800851782758300122ACCFF6009B4FF020556
:1072F8003E051780E5E4900553F012DC2CE4F5090F
:10730800E509C3953E4003027390E53DD3940040E0
:1073180020E5090475F035A4FFE53E04FEEF8EF084
:1073280084FF900551E0FEC313FEC3EF9EF50A806B
:107338001EE5090475F040A4FFE53E04FEEF8EF05B
:1073480084FF900551E0FEC313FEC3EF9EF50A7F4C
:1073580040AD0AAB3AAA3BA93C12A61AAB3AAA3BE3
:10736800A93C122AB3FF6010F4600D7401253CF5A6
:107378003CE4353BF53B80E47401253CF53CE435C1
:107388003BF53B0509027308E53DD3940050030221
:107398007508E53DC39430400302743EE53D24EF93
:1073A8006020146033146046240370567E177FBA39
:1073B800AD1612E57EAA06A907753AFF8A3B893CF5
:1073C80080407E177FC0AD1612E57EAA06A9077514
:1073D8003AFF8A3B893C802A7E927F2DAD1612E5C2
:1073E8007EAA06A907753AFF8A3B893C80147E92DB
:1073F8007F3AAD1612E57EAA06A907753AFF8A3BC1
:10740800893CAB3AAA3BA93C12CC688F17C3746D70
:107418009517FF7D357BFF7A1479FD128750C37469
:107428007D9517FFAB3AAA3BA93C12C3463003032C
:1074380012E86F7F05227F037D357BFF7A1579106F
:10744800128750E53D24CF601F1460042402702E7B
:107458007E177FC0AD1612E57EAA06A9077BFF7FBF
:10746800137D3512C34680167E177FE6AD1612E5EA
:107478007EAA06A9077BFF7F137D3512C346E53D2B
:1074880024CF603314601A240270407E177FBAAD8F
:107498001612E57EAA06A907753AFF8A3B893C8041
:1074A8002A7E177FCFAD1612E57EAA06A907753A80
:1074B800FF8A3B893C80147E177FDEAD1612E57E7D
:1074C800AA06A907753AFF8A3B893CAB3AAA3BA9A9
:1074D8003C12CC688F17C3746D9517FF7D357BFF01
:0274E8007A1414
:1074EA0079FD128750C3747D9517FFAB3AAA3BA961
:1074FA003C12C34630030412E560227FFF227FFF5D
:01750A00225E
:10E57E00EDD3940040150FBF00010E8F828E83E401
:0CE58E009370ED1D0FBF00010E80E52210
:106846008B2B8A2C892DE4F52ED200D201900003E1
:10685600122ACCD3940840037FFF227D017C00E4FA
:10686600F517AB2BAA2CA92D900003122ACCFFE515
:1068760017C39F5028900007122C15FFE5F05CFE09
:10688600EF5DB5050DEEB504097477252EF8A6174C
:10689600052EED25E0FDEC33FC051780C5E52E70D1
:1068A600037FFF2212E2CCEF122F4568D0016989DF
:1068B600026A010569FB066A16416A164269FB43CC
:1068C60068D08169898200006A1812E9A4AB2BAAF4
:1068D6002CA92D900009122ACCFFE52E14FEEFC339
:1068E6009E4003026A18900004122F15EA496005BB
:1068F6007517108003E4F517E4FFE5171313135417
:106906001FFD7B0575420812CD1AAB2BAA2CA92DAB
:106916009000097401122AF9900004122F15E94A11
:106926004B701AAB2BAA2CA92D90000A122ACCFF69
:10693600900009122ACCC39FD39403502AAB2BAAEA
:106946002CA92D900004122F15EA49602AAB2BAA18
:106956002CA92D90000A122ACCFF900009122ACCED
:10696600C39FD394024010AB2BAA2CA92D90000AEA
:106976007401122AF9D201D200750E19D210C2136F
:10698600026A1812E9A4AB2BAA2CA92D90000912B1
:106996002ACCD39400407B900004122F15EA49605C
:1069A600057517108003E4F517E4FFE517131313B5
:1069B600541FFD7B0575420812CD1AAB2BAA2CA9D4
:1069C6002D90000974FF122AF990000A122ACCFFB2
:1069D600900009122ACCFEC39F500FAB2BAA2CA9FC
:1069E6002D90000AEE122B3ED201D200750E19D25E
:1069F60010C213801D12E9A47FFF2212E9A4AB2B5B
:106A0600AA2CA92D900009122ACC2477F8E6FF2299
:106A1600D2002000030268AAC20012E9D0200103B6
:106A2600026AC0C20112DC2C752F02AB2BAA2CA95C
:106A36002D900004122F15EA496018E4FFFDAB2BD8
:106A4600AA2CA92D900004122F1512C346741025E6
:106A56002FF52F9005537401F0AB2BAA2CA92D907E
:106A6600000A122ACCF517E517C3952E5047AB2B13
:106A7600AA2CA92D90000A122ACC2404FFE433FE86
:106A8600C3E5179FEE6480F87480985028122EF59F
:066A9600AE02AF017477AF
:106A9C002517F8E6FD12E57EAA06A9077BFF7F08FD
:106AAC00AD2F12C3467410252FF52F051780B2E4B5
:106ABC00900553F0AB2BAA2CA92D900004122F1586
:106ACC00EA4960057517108003E4F51730102DE4C2
:106ADC00FFAB2BAA2CA92D90000A122ACCFE9000F9
:106AEC0009122ACCC39EC454F0FEE51724042EFDD3
:106AFC007BFF7A1579821287500268AAE4FFE517AA
:106B0C00131313541FFD7B0575420812CD1A02682E
:026B1C00AA22AB
:10AD9D008F318D328A338B34D200E536C3953540F1
:10ADAD0003E4F536E53124F4FFE5322402FD7BFFA3
:10ADBD007A1579821287509005537401F012E2CC06
:10ADCD00EF14602E24FC604C14603E24C3603A24C2
:10ADDD00C2601F1460042480704512E9A4E5351487
:10ADED00FFE536C39F500405368003E4F536D200E7
:10ADFD00802D12E9A4E536D3940040041536800564
:10AE0D00E53514F536D200801612E9A4E490055309
:10AE1D00F07FFF2212E9A4E4900553F0AF36223003
:10AE2D00009BC20012E9D0AF31E532131313541F4A
:10AE3D00FD7B802402F54212CD1AAF34AE33AD3610
:10AE4D0012E57EAA06A9077BFFAF31AD3212C346CC
:04AE5D0002ADCA2256
:02E59A00C115A9
:10E0C200D2B4E4F53875A61E75A6E130B3FD20B3CF
:10E0D200FD0538E538B403ED7FFE12E703E4F538B9
:0BE0E2000538E538B410F912BDF1223A
:10BDF100D2B47F5012E7037F0612E703E4FF12E794
:10BE0100037F0112E7037F2112E703E4FF12E70337
:10BE1100E4FF12E703E4FF12E703E4FF12E7037F05
:10BE2100F212E703E4F53975A61E75A6E130B3FDFC
:10BE310020B3FD0539E539B402ED7F5012E703E483
:10BE4100FF12E7037F0112E7037FF112E703E4F535
:10BE51003975A61E75A6E130B3FD20B3FD0539E5A0
:10BE610039B402ED7F5212E703E4FF12E7037F25A5
:04BE710012E70322AF
:10E48C00EF25E0FEC454F0FDEE044DF538D2B47F18
:0FE49C005112E703E4FF12E703AF3812E7032240
:10DD0000D2B47F0112E703D2B7E4FF0FBF14FC12B5
:10DD1000E7A18F7412E7A18F7512E7A18F76E574E2
:10DD200030E7047FFF80027F008F73AF76AE75AD62
:04DD300074AC73223A
:10E7A100E4FF7E08C2B4EF25E0FF30B70343070161
:05E7B100D2B4DEF022ED
:10E703007E08C2B4EF30E704D2B78002C2B7D2B4F6
:07E71300EF25E0FFDEEC2220
:10E8E200C2AAC215D28AC28B12E48C12BDF1D2AA7C
:01E8F2002203
:05000E00C2AAC2152288
:10E7B600C2AAC215900564E0FCA3E0FDA3E0FEA397
:05E7C600E0FFD2AA22D1
:0300130002D79180
:10D79100C0E0C0F0C083C082C0D075D000C000C05E
:10D7A10001C002C003C004C005C006C00712DD00ED
:10D7B100900564122E9CD215D007D006D005D00456
:10D7C100D003D002D001D000D0D0D082D083D0F00D
:03D7D100D0E03273
:10DFB9007F0A7D3012E5B67F0B7D0212E5B67F4AF6
:10DFC9007D2012E5B67F4BE4FD12E5B67F0C12E623
:0EDFD9003D8F247F0D12E63D8F24E524332278
:10E5B600D293D291D292C2908F80C293C2928D8012
:0BE5C600D292D290D2937580FFD32236
:10E63D00D293D291D292C2908F80C2937580FFC235
:0AE64D0091AF80D291D290D29322B7
:06EA7F00E4FF12E63D2257
:06EA85007F0212E63D22B3
:06EA8B007F0412E63D22AB
:06EA91007F0712E63D22A2
:06EA97007F0812E63D229B
:09EA39007F0912E63D7420FE2263
:10E92600AD07EDD3945940027D59E4FF12E5B622B6
:10E93600AD07EDD3945940027D597F0212E5B62208
:10E94600AD07EDD3942340027D237F0412E5B62262
:10E6A300AD07EDC3940150027D01EDD394314002D7
:08E6B3007D317F0712E5B6225C
:10E42A00AE07EEC3940150027E01EED3941240026D
:10E43A007E127F067D0112E5B67F08AD0612E5B6AB
:01E44A0022AF
:10E7CB00AD07AC06C3EC942050047C207D007F0980
:05E7DB00ED12E5B6227D
:10E5D100AB07AA06AC057F50EBFD12E5B6EAFD0FCD
:0BE5E10012E5B67F53AD0412E5B62230
:10E71A00AB07AA067F50EBFD12E5B6EAFD0F12E53C
:07E72A00B67F5312E63D2209
:03E59C0001150066
:10D4DE00C2AEE4F5D875D90375DA09F5DBF5DCF5DE
:10D4EE00DDF5DEC39FFFE49EFEEFF514EEF513852A
:10D4FE0014E98513F9C3ED9401EC940050047C00FB
:10D50E007D01C3E49DFDE49CFCEDF5EAECF5FA43E8
:08D51E00DA4075D840D2AE22BC
:06EA9D00C2AEE4F5D82230
:0300330002E6BB27
:10E6BB0030D804C2D8B2A230DF0DB2A2C2DE8514AC
:08E6CB00E98513F975D840320E
:10E75F00E5D220E0FBC2AF43D2028F828E83E0FF6F
:06E76F0053D2FDD2AF22DF
:07EA720020A002C322D32201
:10E77500E5D220E0FBC2AF75D2028F828E83EDF029
:06E78500E4F5D2D2AF2240
:0AEA2F0053C3BF75C33C43C340222C
:0BEA0300E4F5C5E5C430E7FBAFC52219
:080003008FC5E5C430E7FB22C4
:10E8830012E9DD7FD712000312EA038F6F12EAAF9A
:03E89300AF6F2242
:10E4CA00756D13756E8812E883EF30E702D322E583
:0EE4DA006E156E7002156D14456D70EAC3224A
:10E44B008E6D8F6E12E9DD7F84120003E4FF1200E4
:10E45B0003E56D5401FF120003AF6EE56E1200036E
:01E46B00228E
:10DBF5008E6D8F6E12E9DD7F83120003E56EAE6DCB
:10DC05007806CEC313CE13D8F9FF120003E56EAE26
:10DC15006D7802C333CE33CED8F9FF120003E4FF8B
:07DC250012000312EAAF2216
:10D10E008E6D8F6E8C6F8D7012E9DD7FE8120003CD
:10D11E00E56EAE6D7806CEC313CE13D8F9FF1200AE
:10D12E0003E56F5401FFAE6EEE25E025E04FFF12D2
:10D13E000003AF70E570120003E4FF120003E4FF7A
:0ED14E00120003E4FF120003E4FF12000322AC
:10D3240012EA2F7FFF7E0512E71AEF7F00FEC00787
:10D33400C0067FFE7E0512E71AEFFDD0E0FED0E0C6
:10D344004DFF900556EEF0A3EFF0C3EE9410500B92
:10D35400900556E0FEA3E0FF12BA3174FF90055623
:0AD36400F0A3F090055CF0A3F022A6
:10D1F6008F648E638D628C617809122DB98E658F6E
:10D2060066900556E0FEA3E0FF65667003E5656E71
:10D216006007AD66AC6512E380900556E565F0A340
:10D22600E566F0C3E56594105011E564FFE56354C7
:0CD2360001FEE490055AEEF0A3EFF02298
:10CF2500AD0790055BE02400FF90055AE03406FE4E
:10CF350012E5D190055BE004F0700690055AE00417
:10CF4500F0C390055AE094024028900556E0FCA3F2
:10CF5500E0FFAE042401FDE43CFC12E380E490050F
:10CF65005AF0A3F0900557E004F07006900556E0DE
:03CF750004F022A3
:0EE9C20012D36E12BD6C8F5312EAAFAF532208
:10E81F0012D1F6AF5912CF257FFE7EFF7DFF7CFF11
:04E82F0012D1F622EA
:10D36E008F648E638D628C617809122DB990055C85
:10D37E00EEF0FAA3EFF0FBE564FFE5635401FEE483
:10D38E00900558EEF0A3EFF0900556E0FEA3E06B8B
:10D39E007002EA6E601390055CE0FEA3E0FF90055C
:0AD3AE0058E0FCA3E0FD12D10E22AE
:10BD6C00900556E0FEA3E0FF90055CE0B5061AA333
:10BD7C00E0B50715900559E02400FF900558E03414
:10BD8C0006FE12E71A8F61800512EA038F61900597
:10BD9C0059E004F07006900558E004F0C390055883
:10BDAC00E094025003AF612212EAAFE4900558F020
:10BDBC00A3F090055DE004F0700690055CE004F0E3
:10BDCC00900556E0FCA3E0FD90055CE0FEA3E0FFCF
:10BDDC006D7002EE6C600B900558E0FCA3E0FD1258
:05BDEC00D10EAF612241
:10E380008C678D6875A61E75A6E1C3EE94105003C8
:10E3900012BA31C3E56794105007AF68AE6712D464
:02E3A0004C220D
:10BA31008E698F6AE4FFFE12E44BE4F56BF56CE46A
:10BA4100256CFFE56B3406FE12E71A120003056C44
:10BA5100E56C7002056BC3E56B940240E212EAAF3C
:10BA6100AF6AAE6912DBF512E4CAAF6AAE69E4FDF2
:10BA7100FC12D10EE4F56BF56CE4256CFFE56B343B
:10BA810006FE12E71AC00712EA03AE07D007EF6EEF
:10BA9100600512EAAFC322056CE56C7002056BC349
:10BAA100E56B940240D312EAAF7FFE7E057DFF1263
:0DBAB100E5D17FFF7E057DFF12E5D1D32298
:10D44C008E698F6AE4FDFC12D10EE4F56BF56C125B
:10D45C00EA03AD07E4256CFFE56B3406FE12E5D15B
:10D46C00056CE56C7002056BC3E56B940240E01231
:10D47C00EAAF7FFE7E05AD6AE56A12E5D1E569FD8E
:09D48C007FFF7E0512E5D1D322D9
:10DE3800AB07AA068B828A83122EA800000000EB8B
:10DE48002404F582E43AF583122EA800000000AEFF
:10DE580002AF03EF2408F582E43EF583E4F0A3F073
:01DE68002297
:10BE75008E468F478F828E83C083C082E0FCA3E00D
:10BE8500FDA3E0FEA3E0FFAB4BAA4AA949A84812CF
:10BE950023FDD082D083122E9CE5472404F582E44D
:10BEA5003546F583C083C082E0F8A3E0F9A3E0FA44
:10BEB500A3E0FBC000C001C002C003AF4BAE4AAD5A
:10BEC50049AC48AB4BAA4AA949A8481224EED0036D
:10BED500D002D001D0001223FDD082D083122E9C37
:10BEE500E5472408F582E43546F583E475F001124B
:03BEF5002BFF22FE
:10D56E008E4E8F4F8F828E83E5822408F582E435AE
:10D57E0083F583E0FAA3E0FB4A7005FFFEFDFC2273
:10D58E00AD03AC02E4122717A804A905AA06AB073F
:10D59E00854F82854E83E0FCA3E0FDA3E0FEA3E071
:05D5AE00FF1225F72229
:109BAE008E4E8F4F8F828E83E5822408F582E435A8
:109BBE0083F583E0FEA3E0D39401EE940050097F79
:109BCE00007E007D007C0022854F82854E83E0FC66
:109BDE00A3E0FDA3E0FEA3E0FFA804A905AA06FBEF
:109BEE001224EEC004C005C006C007E54F2408F5D8
:109BFE0082E4354EF583E0FCA3E0FDE4122717A8BE
:109C0E0004A905AA06AB07D007D006D005D00412CA
:109C1E0025F78F538E528D518C50E54F2404F582CB
:109C2E00E4354EF583E0FCA3E0FDA3E0FEA3E0FFE8
:109C3E00AB53AA52A951A8501223F98F538E528DAD
:109C4E00518C507F6F7E127D837C3AAB53AA52A902
:109C5E0051A850122694600250097F007E007D00AC
:109C6E007C0022E54F2408F582E4354EF583E0FEB4
:109C7E00A3E024FFFDEE34FFFCE4122717A804A98D
:109C8E0005AA06AB077F007E007D807C3F1225F77C
:0F9C9E00AB53AA52A951A8501224EE12B1402282
:10D5B3008F518E508D4F8C4E7F6F7E127D837C3AC0
:10D5C300AB51AA50A94FA84E12269450097F007E52
:10D5D300007D007C0022AB51AA50A94FA84EAF5545
:10D5E300AE54AD53AC521225F77B007A0079C8785C
:05D5F300421224EE22AB
:10A6FD008F518E508D4F8C4E7F6F7E127D837C3AA5
:10A70D00AB55AA54A953A85212269450097F007E26
:10A71D00007DC87C4222AC56E412271C7B007A00D7
:10A72D0079C878421225F7AB51AA50A94FA84E12FD
:10A73D0024EEAB55AA54A953A8521225F78F5A8E61
:10A74D00598D588C577F007E007D407C40AB5AAAB6
:10A75D0059A958A857122694600B40097F007E0016
:10A76D007DC87C4222AF5AAE59AD58AC5712DECAE5
:10A77D008F668E658D648C63AF5AAE59AD58AC57EC
:10A78D0012829E8F5E8E5D8D5C8C5B7B007A007974
:10A79D000078401224EE8F5E8E5D8D5C8C5BAB5E1F
:10A7AD00AA5DA95CA85B7F007E007D807C3F1223A3
:10A7BD00F98F5E8E5D8D5C8C5B7F007E007DC87C2D
:0DA7CD0042AB5EAA5DA95CA85B1224EE22DF
:10DECA008F628E618D608C5F122701AB62AA61A995
:10DEDA0060A85F1224EE7B007A0079007840122550
:10DEEA00F712B5DC7B2A7A4279CC783E1224EE22EC
:10829E008F628E618D608C5F7F897E337D6D7C3EBB
:1082AE00AB62AA61A960A85F1224EE7B007A007906
:1082BE0080783F1223FDA804A905AA06AB077F000C
:1082CE007E007D807C3F1225F78F6A8E698D688CCB
:1082DE00677FFA7E857DA37C3EAB6AAA69A968A8F2
:1082EE00671224EE8F728E718D708C6FAF6AAE69CD
:1082FE00AD68AC67AB6AAA69A968A8671224EE8F4D
:10830E006E8E6D8D6C8C6BAB72AA71A970A86FC0DE
:10831E0000C001C002C0037F877E8F7DB67CBEABDE
:10832E006EAA6DA96CA86B1224EED003D002D001F8
:10833E00D0001223FD8F728E718D708C6FAF6EAE6A
:10834E006DAD6CAC6BAB6AAA69A968A8671224EE16
:10835E008F6E8E6D8D6C8C6BAB72AA71A970A86FBF
:10836E00C000C001C002C0037F787E077DE47C3F61
:10837E00AB6EAA6DA96CA86B1224EED003D002D0FE
:10838E0001D0001223FD8F728E718D708C6FAF6EC7
:10839E00AE6DAD6CAC6BAB6AAA69A968A867122406
:1083AE00EE8F6E8E6D8D6C8C6BAB72AA71A970A8F0
:1083BE006FC000C001C002C0037FEA7E1E7DE97C53
:1083CE00BFAB6EAA6DA96CA86B1224EED003D002BF
:1083DE00D001D0001223FD8F728E718D708C6FAF15
:1083EE006EAE6DAD6CAC6BAB6AAA69A968A867126C
:1083FE0024EE8F6E8E6D8D6C8C6BAB72AA71A97024
:10840E00A86FC000C001C002C0037F6F7E467DAA68
:10841E007C3FAB6EAA6DA96CA86B1224EED003D074
:10842E0002D001D0001223FD8F728E718D708C6F71
:0C843E00AB66AA65A964A8631224EE22B4
:10DEFA00900536122E9CAF54AE53AD52AC519005DC
:10DF0A003A122E9CAF58AE57AD56AC5590052E120C
:10DF1A002E9CE4900534F0A3F0900532F0A3F02291
:10CA9B008F508E4F8D4E8C4D900536E0FCA3E0FDF4
:10CAAB00A3E0FEA3E0FFAB50AA4FA94EA84D122660
:10CABB0094401D90053AE0FCA3E0FDA3E0FEA3E04B
:10CACB00FFAB50AA4FA94EA84D1226946011400FF0
:10CADB00900535E004F07006900534E004F02290E8
:0ECAEB000533E004F07006900532E004F022FE
:10C97D00900532E07002A3E0700D900534E0700276
:10C98D00A3E070037F6422900534E0FEA3E0FFE492
:10C99D00AA06AB07900532E0FEA3E0FFE4EF2BFF04
:10C9AD00EE3AFEE433FDE433FCC004C005C006C01E
:10C9BD0007900532E0FEA3E0FFE4FCFD7B64FAF98D
:10C9CD00F8122C5AD003D002D001D000122CE5223F
:10E5EC00E4FDEF2408F582E43EF58375F002ED12AC
:0BE5FC002ED9E4F0A3F00DBD27E822AB
:1080EE008E538F548F828E83E0F8A3E0F9A3E0FACB
:1080FE00A3E0FBC3E5589BF558E5579AF557E556AF
:10810E0099F556E55598F5557F007E007D007C006B
:10811E00AB58AA57A956F8C3122D9250030281D01C
:10812E00E5542404F582E43553F583E0FCA3E0FD29
:10813E00A3E0FEA3E0FF7B277A0079007800122CE3
:10814E005A7B027A007900780012D74DAB58AA57A5
:10815E00A956A855C3122D924013E5542454F58206
:10816E00E43553F583E475F001122BFF22E5542418
:10817E0004F582E43553F583E0FCA3E0FDA3E0FEB5
:10818E00A3E0FF7B027A007900780012D74DEF252D
:10819E0058FFEE3557FEED3556FDEC3555FCE554E2
:1081AE002404F582E43553F583E0F8A3E0F9A3E067
:1081BE00FAA3E0FB12D74D8F5974132559F55902C6
:1081CE008283AF58AE57AD56AC55122D848F588E54
:1081DE00578D568C55E5542404F582E43553F583BA
:1081EE00E0FCA3E0FDA3E0FEA3E0FF7B277A00798D
:1081FE00007800122C5A7B027A007900780012D790
:10820E004DAB58AA57A956A855C3122D924013E547
:10821E00542408F582E43553F583E475F001122BEE
:10822E00FF22E5542404F582E43553F583E0FCA3E4
:10823E00E0FDA3E0FEA3E0FF7B027A007900780068
:10824E0012D74DEF2558FFEE3557FEED3556FDECA6
:10825E003555FCE5542404F582E43553F583E0F8F6
:10826E00A3E0F9A3E0FAA3E0FB12D74D8F59C37434
:10827E00139559F559E5542408F582E43553F583E1
:10828E0075F002E559122ED9E475F001122BFF227A
:1099AD008E408F417549007548007547007546001A
:1099BD00E4F54AE5412408F582E43540F58375F078
:1099CD0002E54A122ED9E0FEA3E0FFE4FCFDAB490F
:1099DD00AA48A947A846C3122D925021E541240853
:1099ED00F582E43540F58375F002E54A122ED9E093
:1099FD00FEA3E0FFE48F498E48F547F546054AE59D
:109A0D004AB427AFAB45AA44A943A842AF49AE48D3
:109A1D00AD47AC4612D74DAC00AD01AE02AF037BE6
:109A2D00007A0079007800C3122D925034AF49AE00
:109A3D0048AD47AC46AB45AA44A943A84212D74D01
:109A4D008F498E488D478C467A0079007800EF2437
:109A5D0001F549EA3EF548E93DF547E83CF5468014
:109A6D001BAF49AE48AD47AC46AB45AA44A943A888
:109A7D004212D74D8F498E488D478C467F007E0010
:109A8D007D007C00AB49AA48A947A846C3122D9278
:109A9D0070067F01FEFDFC22AF49AE48AD47AC46D6
:019AAD002296
:109F9E008E4A8F4BED75F002A4FFAEF0E4FCFD850A
:109FAE004B82854A83E0F8A3E0F9A3E0FAA3E0FB35
:109FBE00122C5A7B647A007900780012D74D7B27D9
:109FCE007A007900780012D74DE54B2404F582E42F
:109FDE00354AF583122E9CE54B2404F582E4354A6E
:109FEE00F583E0FCA3E0FDA3E0FEA3E0FF7B017A96
:109FFE000079007800D3122D924012E54B2404F51F
:10A00E0082E4354AF583122EA800000001E54B24A8
:10A01E0004F582E4354AF583E0FCA3E0FDA3E0FEFF
:10A02E00A3E0FF7B277A0079007800122C5A7B027E
:10A03E007A007900780012D74D854B82854A83E0ED
:10A04E00F8A3E0F9A3E0FAA3E0FBC3122D9250357A
:10A05E00E54B2404F582E4354AF583E0FCA3E0FDEC
:10A06E00A3E0FEA3E0FF7B277A0079007800122C94
:10A07E005A7B027A007900780012D74D854B828583
:06A08E004A83122E9C2201
:10E23600E4FDEF2408F582E43EF58375F002ED1265
:10E246002ED9E0FAA3E0D39400EA94004002C32258
:06E256000DBD27DED322FE
:108F92008E3C8F3D8F828E83E0FCA3E0FDA3E0FE3A
:108FA200A3E0F5418E408D3F8C3E8F82E582240402
:108FB200F582E4353CF583E0FCA3E0FDA3E0FEA3EB
:108FC200E0F5498E488D478C468F82E5822408F56C
:108FD20082E4353CF583E0FEA3E08E4EF54F8F82AE
:108FE200E582240AF582E4353CF583E0F5518F826F
:108FF200E582240BF582E4353CF583E0F552754DAC
:10900200FF754CFF754BFF754AFF754500754400AF
:10901200754300754200AF49AE48AD47AC46AB451B
:10902200AA44A943A842C3122DA8506275A61E7570
:10903200A6E1AF41AE40AD3FAC3E12E9C28F50E572
:109042005065516005E550B5520E85454D85444C3D
:1090520085434B85424A8036E4FCFDE541254FF5C8
:1090620041E540354EF540ED353FF53FEC353EF5F7
:109072003E7A0079007800E5452401F545EA354459
:10908200F544E93543F543E83542F5428088AF4D72
:10909200AE4CAD4BAC4AE53D240CF582E4353CF5D3
:1090A20083122E9CE53D2410F582E4353CF583E5E0
:1090B20050F07FFF7EFF7DFF7CFFAB4DAA4CA94B9A
:1090C200A84AC3122DA87007AF3DAE3C12D01D2294
:10D01D008E538F548F828E83E0FCA3E0FDA3E0FE40
:10D02D00A3E0FFE554240AF582E43553F583E0F5DA
:10D03D005912E81FE554240CF582E43553F583129B
:10D04D002EA800000000E554240AF582E43553F5BE
:10D05D0083E0FFE5542410F582E43553F583EFF0BA
:01D06D0022A0
:10A094008E4B8F4C8C4D8D4E8F828E83E582240C9B
:10A0A400F582E43583F583E0FCA3E0FDA3E0FEA3A1
:10A0B400E0F5528E518D508C4FF5588E578D568C3D
:10A0C40055854D59854E5AE4F55BF55C8A5D8B5E8A
:10A0D400AE4B12D2424002C3227A0079007800E5E6
:10A0E400522401F552EA3551F551E93550F550E85D
:10A0F400354FF54FE54C2404F582E4354BF583E008
:10A10400FCA3E0FDA3E0FEA3E0FFAB52AA51A950DB
:10A11400A84FC3122DA840267552007551007550E2
:10A1240000754F00E54C240BF582E4354BF583E0D4
:10A13400FFE54C2410F582E4354BF583EFF0AF5284
:10A14400AE51AD50AC4FE54C240CF582E4354BF5E3
:10A1540083122E9C855266855165855064854F63B4
:10A16400E4F567F568AF4CAE4B12CF7812D1F6E543
:10A174004C2410F582E4354BF583E0FF12CF25D350
:01A1840022B8
:10D2420020A002C322855866855765855664855598
:10D2520063855B67855C6812CF7812D1F6E4F55F6F
:10D26200F560C3E560955EE55F955D501D855A8268
:10D27200855983E0FF12CF25055AE55A70020559F8
:0CD282000560E5607002055F80D8D322D3
:10D49500855866855765855664855563855B6785BB
:10D4A5005C6812CF7812D36EE4F55FF560C3E56072
:10D4B500955EE55F955D501D12BD6C855A82855957
:10D4C50083EFF0055AE55A700205590560E560706D
:09D4D50002055F80D812EAAF22C3
:10AE61008E538F548F828E83E582240AF582E435D6
:10AE710083F583E0FFE5542410F582E43553F5832F
:10AE8100E0B507388E83E554240CF582E43583F56B
:10AE910083E0FCA3E0FDA3E0FEA3E0FF7B007A00DA
:10AEA10079007800C3122DA870097FFF7EFF7DFF16
:10AEB1007CFF227F007E007D007C0022E55424047B
:10AEC100F582E43553F583E0FCA3E0FDA3E0FEA3A6
:10AED100E024FFFFEE34FFFEED34FFFDEC34FFFC18
:10AEE100E554240CF582E43553F583E0F8A3E0F949
:10AEF100A3E0FAA3E0FBC3122DA87005FFFEFDFC41
:10AF010022E554240CF582E43553F583E0FCA3E0FB
:10AF1100FDA3E0FEA3E02401FFE43EFEE43DFDE4E9
:03AF21003CFC22D3
:10B509008E4E8F4F8F828E83E582240CF582E4352F
:10B5190083F583E0FCA3E0FDA3E0FEA3E0FF7B004D
:10B529007A0079007800C3122DA8704AE54F240AE1
:10B53900F582E4354EF583E0FFE54F2410F582E40A
:10B54900354EF583E0B507097FFF7EFF7DFF7CFF60
:10B5590022E54F2404F582E4354EF583E0FCA3E0AF
:10B56900FDA3E0FEA3E024FFFFEE34FFFEED34FF70
:10B57900FDEC34FFFC22E54F240CF582E4354EF551
:10B5890083E0FCA3E0FDA3E0FEA3E024FFFFEE348B
:0BB59900FFFEED34FFFDEC34FFFC2250
:10ACD4008E4E8F4F7FFF7EFF7DFF7CFFAB53AA52CA
:10ACE400A951A850C3122DA870097FFF7EFF7DFFD4
:10ACF4007CFF227F007E007D007C00AB53AA52A91A
:10AD040051A850C3122DA87042E54F240AF582E4DD
:10AD1400354EF583E0FFE54F2410F582E4354EF51A
:10AD240083E0B507097FFF7EFF7DFF7CFF22E54FAF
:10AD34002404F582E4354EF583E0FCA3E0FDA3E0B2
:10AD4400FEA3E0F5538E528D518C50E55324FFF54C
:10AD540053E55234FFF552E55134FFF551E55034D3
:10AD6400FFF550E54F240CF582E4354EF583E0FC05
:10AD7400A3E0FDA3E0FEA3E0FFAB53AA52A951A8B0
:10AD840050C3122DA870097FFF7EFF7DFF7CFF2238
:09AD9400AF53AE52AD51AC502298
:10A8B5008E538F547FFF7EFF7DFF7CFFAB58AA57D9
:10A8C500A956A855C3122DA870097FFF7EFF7DFFED
:10A8D5007CFF22E5542404F582E43553F583E0FC3E
:10A8E500A3E0FDA3E0FEA3E024FFFFEE34FFFEEDB1
:10A8F50034FFFDEC34FFFCAB58AA57A956A855C345
:10A90500122DA87031E554240AF582E43553F583F8
:10A91500E0FFE5542410F582E43553F583E0B507EF
:10A92500097FFF7EFF7DFF7CFF227558FF7557FF6E
:10A935007556FF7555FF7A0079007800E5582401B2
:10A94500F558EA3557F557E93556F556E83555F5CD
:10A9550055E554240CF582E43553F583E0FCA3E07A
:10A96500FDA3E0FEA3E0FFAB58AA57A956A855C31F
:10A97500122DA870097FFF7EFF7DFF7CFF22AF5857
:07A98500AE57AD56AC5522A0
:10CF78008E618F628F828E83E5822408F582E43584
:10CF880083F583E0FEA3E0FFE4FCFDAB66AA65A998
:10CF980064A863122C5A856282856183E0F8A3E055
:10CFA800F9A3E0FAA3E02FFBEA3EFAE93DF9E83CF1
:10CFB800F8E4FCFDEB2568FFEA3567FEED39FDEC8A
:03CFC80038FC2210
:10E8960043878075CAC475CBFF75C8347598521204
:03E8A600EA4A2219
:03EABC00A29922FA
:08EA4200309904C2998F99225A
:03EABF00A29822F8
:0BEA0E002098037F0022C298AF9922DD
:08EA4A00C2ACC2983099FD2214
:10E14300754B0B754CB875A61E75A6E112EABF5048
:10E153000B12EA0E754B0B754CB880EAE54C154C67
:0AE163007002154B14454B70DD22CD
:10E282008F5475550B7556B812EABF500912EA0E33
:10E29200A854A607D322E5561556AE557002155559
:05E2A2004E70E5C322EF
:10E33A008F5175520B7553B812EABC5007AF511280
:10E34A00EA42D322E5531553AE52700215524E706B
:03E35A00E7C322F4
:10D7D4008E4B8F4CAA06A9077BFF12E80A8F4D8552
:10D7E4004B4F854C50E4F54EE54EC3954D50227594
:10D7F400A61E75A6E1855082854F83E493FF12E34C
:10D804003A4002C3220550E5507002054F054E8090
:03D81400D7D32245
:10E657008F4AE54AC4540FFF12EA1912E33AE54A12
:0AE66700540FFF12EA1912E33A22E1
:10E25C0012E9768E4B8F4CE54B2430FF12E33AAF2C
:10E26C004CEFC4540F2430FF12E33AE54C540F2406
:06E27C0030FF12E33A221C
:10DC6100E4F54B7F4C12E28240037F0022C3E54C76
:10DC7100648094B04009D3E54C648094B94003AF0B
:10DC81004B22E54B75F00AA4F54BE54C24D0254B0E
:05DC9100F54B80CF22DD
:10D3B8007F4C12E28240037F0022D3E54C648094C4
:10D3C800B95007E54C24D0FF8005E54C24C9FFEF90
:10D3D800C454F0F54B7F4C12E28240037F0022D305
:10D3E800E54C648094B95007E54C24D0FF8005E5EE
:0AD3F8004C24C9FFEF424BAF4B225B
:10E7E0008F4B75A61E75A6E17F4C12E2825005E59F
:05E7F0004BB54CEE22C8
:10E8A9008F4B75A61E75A6E17F4C12E2825003D5E7
:03E8B9004BF022FF
:10C6B9008E4B8F4C8D4DAA06A9077BFF12E80A8F76
:10C6C9004E854B50854C5175A61E75A6E175536470
:10C6D90012EABF400D7F017E0012DF8AD553F1D5E2
:10C6E9004DE5E4F54FE54FC3954E502975A61E75E6
:10C6F900A6E17F5212E2824002C32285518285500F
:10C7090083E49365526002C3220551E55170020525
:07C7190050054F80D0D32230
:10B6D4000D0A4F4B0D0A00415445300D004154569C
:10B6E400312B434D45453D310D0041542B434D47CE
:10B6F400463D300D0041542B435245473F0D000D4C
:10B704000A2B435245473A200041542B434F505390
:10B714003F0D000D0A2B434F50533A200041542B48
:10B724004353510D000D0A2B4353513A2000415409
:10B734002B434D47533D000D0A3E20000D0A2B4379
:10B744004D47533A200041542B434D47523D000D81
:10B754000A2B434D47523A200041542B434D474452
:02B764003D00A6
:10D63D0012E1437EB67FDB12D7D47F0A12E7E07F7B
:10D64D000A12E7E012E1437EB67FE112D7D47EB62F
:10D65D007FD47D0112C6B94002C32212E1437EB6CA
:10D66D007FEE12D7D47EB67FD47D0112C6B94002AB
:04D67D00C322D322CF
:10E0ED0012E1437EB67FF912D7D47EB77F037D014F
:10E0FD0012C6B94002C3227F2C12E7E012DC61EF99
:0BE10D0064016003BF0502D322C3229F
:1090D2008B438A4489458D469003BEE0F547AF46EF
:1090E2007E007C007D07122B60EF24FFFFEE34FF31
:1090F200FEEF7803CEC313CE13D8F9FFE54704FE83
:10910200C3132F2409F54812E1437EB77F3212D7E9
:10911200D4AF4812E25C7F0D12E33A7EB77F3B7D0B
:109122000A12C6B94002C322E4FF12E6577F1112A7
:10913200E657E4FF12E657AF4712E6577F9112E671
:1091420057E4F548E548C39547502674A22548F5EB
:1091520082E43403F583E0FF12E33A74A12548F573
:1091620082E43403F583E0FF12E33A0548054880C0
:10917200D3E54730E0157F4612E33A74A02547F560
:1091820082E43403F583E0FF12E33AE4FF12E65788
:10919200E4FF12E6577FAA12E657AF4612E657E4FB
:1091A200F549F548E548C395465050E549B40705E9
:1091B200E4F5498042AB43AA44A9458548827583B8
:1091C20000122ACCFFAE49A806088002C313D8FCBD
:1091D200FFE5482401FDE4338D82F583122ACCFE9B
:1091E200C374079549FDEEA805088002C333D8FC75
:1091F200420712E6570549054880A97F1A12E33A49
:0F9202007EB77F407D6412C6B94002C322D322DB
:1085D1008F428C438D44054212E1437EB77F4A129C
:1085E100D7D4AF4212E25C7F0D12E33A7EB77F53DC
:1085F1007D0512C6B940037FFF2212DC618F45E57C
:10860100456007640160037F00227F2C12E7E012BE
:10861100DC618F457F0A12E7E0E5457002FF221217
:10862100D3B88F45E54525E0FF12E8A97F0212E89E
:10863100A912D3B88F459003BEE545F0F54612D394
:10864100B88F45E5456491600FE54564816009E5B2
:108651004564A160037FFF22E4F548E548C39546E0
:10866100503412D3B88F45E545540F2430FF74A11F
:108671002548F582E43403F583EFF0E545C4540F52
:108681002430FF74A22548F582E43403F583EFF02A
:108691000548054880C5E54630E01912D3B88F4535
:1086A100E545540F2430FF74A02546F582E43403D8
:1086B100F583EFF012D3B88F4512D3B88F45E54556
:1086C10060037FFF227F0E12E8A912D3B88F458580
:1086D1004547E547D394A040037547A012D3B88F0F
:1086E10045854549E4F54AF548E548C39547504F66
:1086F100AF4AE545A807088002C333D8FC42495375
:10870100497FE5497003754940E5442548F582E410
:108711003543F583E549F0C37407954AFFE545A85C
:1087210007088002C313D8FCF549054AE54AB40895
:1087310005E4F54A800512D3B88F45054880AAE5BE
:0F874100442547F582E43543F583E4F0AF472242
:10E671008F43054312E1437EB77F5D12D7D4AF4389
:09E6810012E25C7F0D12E33A2263
:10E4E800EDD3940050047D018008EDD394094002D7
:0EE4F8007D09EF2424F582E43EF583EDF02249
:10E014008E4C8F4DE4FB854D82854C8375F004EB6B
:10E02400122ED9122EA8000000000BBB09E8E54D02
:0CE034002425F582E4354CF583E4F0224D
:10BC5F008E4C8F4D8F828E83E5822424F582E435BE
:10BC6F0083F583E0FF606FEF14F9E9D3940040355B
:10BC7F00E975F004A424FCFFE5F034FFFEE54D2F39
:10BC8F00F582EE354CF583E0FCA3E0FDA3E0FEA3C7
:10BC9F00E0FF854D82854C8375F004E9122ED91291
:10BCAF002E9C1980C5E54D2424F582E4354CF5838F
:10BCBF00E0FFE54D2425F582E4354CF583E0C39F85
:10BCCF005003E004F0AF51AE50AD4FAC4E854D82F6
:07BCDF00854C83122E9C220C
:10BB4B008E578F588F828E83E5822425F582E435BC
:10BB5B0083F583E07005FFFEFDFC22755C00755BD1
:10BB6B0000755A00755900E4FBE5582424F582E46E
:10BB7B003557F583E0FFEBC39F502D8558828557D2
:10BB8B008375F004EB122ED9E0FCA3E0FDA3E0FEDD
:10BB9B00A3E0255CF55CEE355BF55BED355AF55AAC
:10BBAB00EC3559F5590B80C1E5582425F582E43560
:10BBBB0057F583E0FFE4FCFDFEF8F9FAAB07AF5C49
:0ABBCB00AE5BAD5AAC5912D74D2203
:10E50600EF2424F582E43EF583E0FDEF2425F58231
:0EE51600E43EF583E0C39D4003D38001C322A1
:10C787008E4C8F4D12BB4B8F568E558D548C53E468
:10C79700F552E54D2424F582E4354CF583E0FFE5B9
:10C7A70052C39F503F854D82854C8375F004E552F7
:10C7B700122ED9E0FCA3E0FDA3E0FEA3E0C395564B
:10C7C700FFEE9555FEED9554FDEC9553FC12DE04F6
:10C7D700AB51AA50A94FA84EC3122D925002C322A3
:06C7E700055280AED322D2
:02E59F00C116A3
:0DE9DD00301605D294C2B222C294D2B222EA
:05EAAF00D294D2B22256
:10D402008E3C8F3D8C3E8D3FEE3395E0FDFC12D17C
:10D41200F6741E253DF97402353CAF01F5408F418B
:10D42200E4F542C3E542953FE53E6480F874809896
:10D432005017854182854083E0FF12CF250541E5E3
:0AD442004170020540054280DA2225
:10C42B007F007E007D007C0012D36E752402752583
:10C43B001EE4F52612BD6C852582852483EFF0055D
:10C44B0025E525700205240526E526C3947140E4F5
:10C45B0012EAAF90021EE064017002A3E0601012BA
:10C46B00BABE7FFF7EFF7DFF7CFF1288CCC3227E8E
:10C47B00027F1E12E7F590028EE06F601012BABEBB
:0FC48B007FFF7EFF7DFF7CFF1288CCC322D32270
:1088CC008F3B8E3A8D398C3820A002C32290021E29
:1088DC007401F0A3E4F07E027F1E12E7F590028E85
:1088EC00EFF07FFF7EFF7DFF7CFFAB3BAA3AA939FF
:1088FC00A838C3122DA87015FFFE7D71FC12D4028E
:10890C007FFE7EFF7DFF7CFF12D1F6D322E53B5428
:10891C0001FFE4FEFDFCEF6007E4FF7D0212D402D0
:10892C00E53B5402FFE4FEFDFCEF60067F020D12F6
:10893C00D402E53B5404FFE4FEFDFCEF60067F042B
:10894C000D12D402E53B5408FFE4FEFDFCEF60067B
:10895C007F050D12D402E53B5410FFE4FEFDFCEF45
:10896C0060067F060D12D402E53B5420FFE4FEFDA9
:10897C00FCEF60067F070D12D402E53B5440FFE488
:10898C00FEFDFCEF60067F080D12D402E53B54801F
:10899C00FFE4FEFDFCEF60067F090D12D402E4FF3C
:1089AC00E53A5401FEE4FDFCEE60097F0D7E007D8E
:1089BC001212D402E4FFE53A5402FEE4FDFCEE6030
:1089CC00087F0A7E000D12D402E4FFE53A5404FE3F
:1089DC00E4FDFCEE60087F0B7E000D12D402E4FF78
:1089EC00E53A5408FEE4FDFCEE60087F0C7E000DB9
:1089FC0012D402E4FFE53A5410FEE4FDFCEE6009EB
:108A0C007F1F7E007D5112D402E4FFE53A5420FE14
:108A1C00E4FDFCEE60087F037E000D12D4027F7033
:108A2C007E007D017C0012D4027FFE7EFF7DFF7CE8
:068A3C00FF12D1F6D32267
:10E7F500E4FDFCEF2CF582E43EF583E02DFD0CBC39
:05E8050070F1AF0522D7
:10C72000900293E0900222F0900294E0900223F0B5
:10C73000900295E0900224F0900296E0900225F09D
:10C74000900297E0900226F0900298E0900227F085
:10C75000900299E0900228F090029AE0900229F06D
:10C7600090029BE090022AF0783D7C027D017B01E3
:10C770007A0279AE7E007F51122A8A7FFF7EFF7D8A
:07C78000FF7CFF1288CC22B0
:10BABE0090021E7401F0A3E4F0A304F0900222742D
:10BACE000FF0A3F0A3F0A3F0A3741EF0A37404F080
:10BADE00E4A3F0A37428F0A3740AF0E4A3F0900298
:10BAEE002D74FFF0E4A3F0A3F0A3F0A3F0A3F0A352
:10BAFE00F0A3F0A3F090023CF0A3F0A3F0A3F0A308
:10BB0E00F0A3F0A3F0FFE4FEEF75F00FA42443F5CD
:10BB1E0082E43402F583E5822EF582E43583F583E3
:10BB2E007420F00EBE0FE10FBF05DBE4900221F092
:0DBB3E007E027F1E12E7F590028EEFF022CE
:10D8DE00E4F531F53275330475345AF5350532E514
:10D8EE0032AE317002053114FF12E75F8534828546
:10D8FE003383EFF00534E534700205330535E53535
:10D90E00C3948340D890045AE0C3940A4002E4F0D2
:01D91E0022E6
:10CDCA0020A002C32275330475345AE4F531F532D2
:10CDDA00D200F53575A61E75A6E1300009C200120B
:10CDEA00EA724002C322AF32AE3185348285338380
:10CDFA00E0FD12E7750532E532700205310534E5CA
:10CE0A003470020533E532543F7002D2000535E52D
:08CE1A0035C3948340BED3220E
:10DD340030A0307F537E0A7D007C0012D1F6752B13
:10DD440004752C5AE4F52D852C82852B83E0FF1273
:10DD5400CF25052CE52C7002052B052DE52DC3944C
:04DD64008340E422F2
:0DE9EA00001F1C1F1E1F1E1F1F1E1F1E1FB3
:10CBB2008E458F468D828C83A3A3E0FF85468285B6
:10CBC2004583A3A3E06F70418D828C83A3A3A3E06E
:10CBD200FF854682854583A3A3A3E0B5072BAE0458
:10CBE200AF05EF2404F582E43EF583E0FEA3E0FF07
:10CBF200E5462404F582E43545F583E0FCA3E0B57F
:0BCC02000707ECB50603D38001C32236
:10CC0D00C206900004122C1554037002D206900037
:10CC1D0002122ACC24FFF551E434FFF550900003A5
:10CC2D00122ACCD39401402E7F01900003122ACCFE
:10CC3D0014FEEFD39E501FEF90E9EA932551F55165
:10CC4D00E43550F55030060BBF02080551E5517023
:0BCC5D000205500F80D4AE50AF5122F2
:10DF2A008B4D8A4E894F900004122C155403700DA4
:10DF3A0012CC0DC3746E9FFF74019EFE22AB4DAAD4
:10DF4A004EA94F12CC0DC3746D9FFF74019EFE2221
:10844A008B458A468947900004122C15FFAEF0AB83
:10845A0048AA49A94A900004122C15FDACF0C39F02
:10846A00EC9E50057E007F0022AB45AA46A94790A4
:10847A000004122C156D7003EC65F0704390000334
:10848A00122ACCFDAB48AA49A94A900003122ACC69
:10849A00FCC39D50057E007F0022EC6D7052AB45F7
:1084AA00AA46A947900002122ACCFFAB48AA49A9BA
:1084BA004A900002122ACCD39F50357E007F0022B8
:1084CA00AB45AA46A947900004122C15FFAEF0ABA3
:1084DA0048AA49A94A900004122C15C39FFFE5F047
:1084EA009EFED3EF94B3EE940040057E007F0022F7
:1084FA00AB45AA46A947900004122C15FFAEF0AB73
:10850A0048AA49A94A900004122C156F7003E5F095
:10851A006E7047AB45AA46A947900004122C155421
:10852A00037008754B01754C6E8006754B01754CCE
:10853A006DAB48AA49A94A12DF2AAC06AD07AB457A
:10854A00AA46A94712CC0DEF2DFFEE3CFEC3E54C1F
:10855A009FF54CE54B9EF54B8068AB45AA46A9476B
:10856A0012DF2A8E4B8F4CAB45AA46A947900004CE
:10857A00122C152401FFE435F0FEAB48AA49A94A9A
:10858A00900004122C15FDC3EF9DEE95F05026EFD6
:10859A005403700E746E254CF54C7401354BF54B33
:1085AA00800C746D254CF54C7401354BF54B0FBF9F
:1085BA0000010E80C512CC0DEF254CF54CEE354B63
:0785CA00F54BAE4BAF4C2254
:1092110053617665005361757665672E0044656C10
:1092210065746500456666616365720051756974B0
:109231000051756974746572004E657874005375D8
:109241006976616E740041646400416A6F7574658A
:1092510072004368616E6765004D6F646966696598
:1092610072004D6F7665004465706C61632E004439
:1092710061793A004A6F75723A0057656967687497
:109281003A00506F6964733A0054686520637572DF
:1092910076652069732066756C6C004C6120636F84
:1092A100757262652065737420736174757282656D
:1092B100005468652064617920616C72656164792C
:1092C100206578697374732EFF4F766572777269C2
:1092D10074653F004365206A6F7572206578697314
:1092E10074652064656A612EFF4C652072656D703E
:1092F1006C616365723F0044656C657465207468D8
:10930100652063686F73656EFF6461792066726FB3
:109311006D20746865207461626C653F00537570DF
:109321007072696D6572206C65206A6F7572FF637A
:10933100686F697369206475207461626C65617519
:029341003F00EB
:10C074007F33E4FD7B4C12B63E7F337D3F7B4C1215
:10C08400B63E7F337D087B4C12B63E7F33E4FD7BA6
:10C094000812D91F7F7FE4FD7B0812D91F7F4DE46E
:10C0A400FD7B0812D91F7F33E4FD7B7F75400112AD
:10C0B400CD727F0112D89D9005537402F07E177FD4
:10C0C4007112EA79AA06A9077BFF7F40E4FD12A654
:10C0D4001A7E177F7A12EA79AA06A9077BFF7F6680
:0BC0E400E4FD12A61AE4FF12D89D2212
:10E16D007F337D3F7B4C12B63E7F337D087B4C1257
:10E17D00B63E7531137F35AD317B4912B9A4740BA1
:0AE18D002531F531C3943F40EC2228
:107B16008F317F0112D89DE531147003027BE61484
:107B26007003027C95147003027C3E147003027C81
:107B36009524046003027D09E4FF7D017BFF7A152D
:107B4600796F1287507E927F6312EA79AA06A90797
:107B56007BFF7F0F7D0212C346E4FF7D0E7BFF7A1B
:107B66001479FD1287507E927F4712EA79AA06A9F8
:107B7600077BFF7F0F7D0F12C346E4FF7D1B7BFF54
:107B86007A1579361287507E927F5312EA79AA06C1
:107B9600A9077BFF7F0F7D1C12C346E4FF7D287B70
:107BA600FF7A1579231287507E927F1E12EA79AAF0
:107BB60006A9077BFF7F0F7D2912C346E4FF7D35AB
:107BC6007BFF7A1579101287507E927F2D12EA7903
:107BD600AA06A9077BFF7F0F7D3612C346027D09E1
:107BE6007E927F7012EA79AA06A9077BFFE4FFFD61
:107BF60012C346E4FF7D287BFF7A1479FD12875075
:107C06007E927F3A12EA79AA06A9077BFF7F0F7D4B
:107C16002912C346E4FF7D357BFF7A15791012875A
:107C2600507E177FC012EA79AA06A9077BFF7F0F4D
:107C36007D3612C346027D097E927F7B12EA79AABF
:107C460006A9077BFFE4FFFD12C346E4FF7D287B00
:107C5600FF7A1479FD1287507E927F1112EA79AA73
:107C660006A9077BFF7F0F7D2912C346E4FF7D35FA
:107C76007BFF7A1579101287507E177FC012EA793A
:107C8600AA06A9077BFF7F0F7D3612C3468074E5DF
:107C96003124FC6019240270287E927F7012EA79E2
:107CA600AA06A9077BFFE4FFFD12C34680137E9256
:107CB6007F7B12EA79AA06A9077BFFE4FFFD12C3C0
:107CC60046E4FF7D287BFF7A1479FD1287507E9269
:107CD6007F1112EA79AA06A9077BFF7F0F7D291279
:107CE600C346E4FF7D357BFF7A1579101287507EF7
:107CF600177FC012EA79AA06A9077BFF7F0F7D3698
:097D060012C346E4FF12D89D22CD
:108E4D008E318F32E4FF85328285318375F004EFE8
:108E5D00122ED9A3A3E0FCA3E04C601885328285C5
:108E6D00318375F004EF122ED9E0FCA3E04C6004C1
:108E7D000FBF1ED2E4FEEEC39F4003028F9179E730
:108E8D00EE04F509E509C39F50388532828531839B
:108E9D00AD0975F004ED122ED9E0FCA3E0FDE9FB60
:108EAD00C3ED9BEC94005016853282853183AD095C
:108EBD0075F004ED122ED9E0A3E0F985090B050933
:108ECD0080C285328285318375F004EE122ED9E091
:108EDD00FCA3E0FDE9C39DE49C4003028F8D853228
:108EED008285318375F004EE122ED9E0A3E0F98569
:108EFD003282853183AD0B75F004ED122ED9E0FC75
:108F0D00A3E0FD85328285318375F004EE122ED9F2
:108F1D00ECF0A3EDF0E9FD853282853183AB0B7565
:108F2D00F004EB122ED9E4F0A3EDF08532828531F9
:108F3D008375F004EE122ED9A3A3E0A3E0F98532D8
:108F4D0082853183AD0B75F004ED122ED9A3A3E00C
:108F5D00FCA3E0FD85328285318375F004EE122E7F
:108F6D00D9A3A3ECF0A3EDF0AD0185328285318359
:108F7D00AB0B75F004EB122ED9A3A3E4F0A3EDF027
:058F8D000E028E83229C
:10C3BA008E318F32E4F9FF85328285318375F0043C
:10C3CA00EF122ED9A3A3E0FCA3E04C6018853282B9
:10C3DA0085318375F004EF122ED9E0FCA3E04C609E
:10C3EA00040FBF1ED2E4FEEEC39F50308532828511
:10C3FA00318375F004EE122ED9E0FCA3E0FDE9FBCF
:10C40A00D3ED9BEC9400401185328285318375F01F
:10C41A0004EE122ED9E0A3E0F90E80CBAF017E0024
:01C42A0022EF
:10CAF900E4F531F532FD8F828E8375F004ED122E47
:10CB0900D9A3A3E0FAA3E04A60168F828E8375F059
:10CB190004ED122ED9E0FAA3E04A60040DBD1ED639
:10CB2900E4FCECC39D50218F828E8375F004EC12D6
:10CB39002ED9A3A3E0FAA3E0FBD39532EA953140BD
:0DCB4900048A318B320C80DAAE31AF32221B
:10750B008E458F468C478D48E4FD854682854583A5
:10751B0075F004ED122ED9A3A3E0FEA3E04E601884
:10752B0085468285458375F004ED122ED9E0FEA3C6
:10753B00E04E60040DBD1ED2ED7003FEFF228546AA
:10754B0082854583E0FEA3E0FFC3E5489FE5479EA8
:10755B00500E854682854583A3A3E0FEA3E0FF2260
:10756B0085468285458375F004ED122ED9E582247C
:10757B00FCF582E58334FFF583E0FEA3E0FFD3E562
:10758B00489FE5479E401F85468285458375F004DD
:10759B00ED122ED9E58224FEF582E58334FFF583C7
:1075AB00E0FEA3E0FF22E4FCECC39D503085468255
:1075BB0085458375F004EC122ED9E0FEA3E0B548A7
:1075CB0019EEB5471585468285458375F004EC1297
:1075DB002ED9A3A3E0FEA3E0FF220C80CB7C01EC11
:1075EB00C39D502485468285458375F004EC122E8D
:1075FB00D9E0FEA3E0D39548EE954740088C0AEC02
:10760B0014F50980030C80D7854682854583AF0925
:10761B0075F004EF122ED9A3A3E0FEA3E0FFE4FC68
:10762B00FDA804A905AA06AB07854682854583AF4D
:10763B000A75F004EF122ED9A3A3E0FEA3E0FFE43A
:10764B00C3EF9BFFEE9AFEED99FDEC98FCA804A905
:10765B0005C006C007854682854583AF0975F004D2
:10766B00EF122ED9E0FEA3E0FFE4AA06AB07C3E5B9
:10767B00489BFFE5479AFEE49400FDE49400FCD0A0
:10768B0003D002122C5AC004C005C006C0078546A1
:10769B0082854583AF0975F004EF122ED9E0FEA366
:1076AB00E0FFE4FCFDA804A905AA06AB078546820A
:1076BB00854583AF0A75F004EF122ED9E0FEA3E0E7
:1076CB00FFE4C3EF9BFBEE9AFAED99F9EC98F8D037
:1076DB0007D006D005D00412D74DA804A905AA06D9
:1076EB00AB07854682854583AF0975F004EF122EF3
:1076FB00D9A3A3E0FEA3E0FFE4FCFDEB2FFFEA3EE2
:06770B00FEED39EC38220E
:10E3A2008F828E83E4F0A304F08F828E83A3A3EC8A
:10E3B200F0A3EDF0EF2406F582E43EF583E4F0A34A
:02E3C200F02247
:0CE9F7008F828E83A3A3E0FEA3E0FF222A
:10326A008E2E8F2FE47877F608F608F608F6087699
:10327A000118F6787AE6FFC3941E502F852F8285AF
:10328A002E8375F004EF122ED9A3A3E0FCA3E04C21
:10329A006019852F82852E8375F004EF122ED9E0EE
:1032AA00FEA3E04E6005787A0680C8787BE624FEA5
:1032BA0070030233B514601A14700302338E2403A8
:1032CA0060030233C712DC2C7877E6FF127B1612F2
:1032DA00C0747F347D017B4C75420812CD1A7F4E33
:1032EA007D017B7D75420812CD1A7F2E7D017B32CE
:1032FA0075420812CD1A12E16DE4F5307879E6FFCD
:10330A00FDE5302DFDE433FC08E6FBC3ED9B74803C
:10331A00F86C98506F852F82852E83E5302F75F0D3
:10332A0004122ED9E0FEA3E0FFE48F0C8E0BF50AFF
:10333A00F5097F4BE53075F00BA42408FDE4FBF595
:10334A0048127F01852F82852E83E530787926758C
:10335A00F004122ED9A3A3E0FEA3E0FFE48F0C8EA3
:10336A000BF50AF5097F7DE53075F00BA42408FDFD
:10337A00E4FB754883127F010530E530C39405509C
:10338A00030233067F2E7D017B3275420812CD1A65
:10339A007F2EC37978E778799675F00BA4240AFD15
:1033AA007BFF7A1579821287508012E4FFFD7B2E0B
:1033BA0075420812CD1A7877E6FF127B16E4787BFD
:1033CA00F67877E61470030235E524FE70030236B8
:1033DA00EB147003023852240460030238FF12E22D
:1033EA00CCEF122F45343601340E0234C00334AA0E
:1033FA0004347B0535AA0635E043343681340E821F
:10340A00000038FF7878E6D3940050030238FF12A0
:10341A00E9A4787816E6FFC308965009A607787BD0
:10342A0076030238FF787B76040238FF787AE6FF63
:10343A00D3940050030238FFEF14FF7878E6C39F55
:10344A0040030238FF12E9A478780608E62405FF4B
:10345A00E433FE18E6C39FEE6480F8748098400A4D
:10346A00787906787B76030238FF787B760402380F
:10347A00FF12E9A4787AE6C3941E500B7877760196
:10348A00787B76020238FF7E927F8A12EA79AA0650
:10349A00A9077BFF7D101272C8787B76010238FF7C
:1034AA00787AE670030238FF12E9A478777604780E
:1034BA007B76020238FF787AE670030238FF12E957
:1034CA00A47E927FF812EA79AA06A9077BFF7D31CA
:1034DA001272C8EF64056007787B76010238FF78BC
:1034EA0078E6F530787AE614FFE530C39F506885B0
:1034FA002F82852E8375F004E530122ED9E58224B9
:10350A0004F582E43583F583E0FEA3E0FF852F828C
:10351A00852E8375F004E530122ED9EEF0A3EFF074
:05352A00852F82852EB3
:10352F008375F004E530122ED9E5822406F582E486
:10353F003583F583E0FEA3E0FF852F82852E83750B
:10354F00F004E530122ED9A3A3EEF0A3EFF005306F
:10355F00808D787A16E6FFC3941E5013852F8285CF
:10356F002E8375F004EF122ED9A3A3E4F0A3F07805
:10357F0078E6FED394004018EEC39F401316E6FF83
:10358F00C394055005E408F68006EF24FC7879F61D
:10359F00E47877F6787B76010238FF12E9A4787A1F
:1035AF00E6FFC3941E5013852F82852E8375F0047A
:1035BF00EF122ED9A3A3E4F0A3F07E187F6812EACE
:1035CF0079AA06A9077BFF7D311272C8BF0502D306
:1035DF002212E9A4C322AF2FAE2E12C3BA787CEE0B
:1035EF00F608EFF6C394E7EE9403500806E6700270
:1035FF0018068006E4787CF608F6787CE6FE08E686
:10360F00FFE48F0C8E0BF50AF509FF12D89DE4FF2E
:10361F007D087B03F53B1246BE400BE47877F678C6
:10362F007B76020238FF7F017E007D007C00AB0CB1
:10363F00AA0BA90AA809C3122DA850277E187F35F7
:10364F0012EA79AA06A9077BFF7D321272C8BF055D
:10365F0007787B76010238FFE47877F6787B76017E
:10366F000238FFC202AE0BAF0C787CA60608A60785
:10367F00E4F530787AE6FFE530C39F5020852F823E
:10368F00852E8375F004E530122ED9E0FCA3E07887
:10369F007D667003EC18666004053080D6E530C394
:1036AF009F50247E927FB212EA79AA06A9077BFF68
:1036BF007D311272C8EF6405600BE47877F6787B82
:1036CF0076010238FFD20278777603300207787BD3
:1036DF0076010238FF787B76020238FFAF2FAE2ECD
:1036EF0012CAF9E48F0C8E0BF50AF509FF12D89D5B
:1036FF00E4FF7D087B05753B831246BE400BE478E3
:10370F0077F6787B76020238FF7F1E7E007D007C85
:10371F0000AB0CAA0BA90AA809C3122DA840167F4B
:10372F00FF7EFF7D007C00AB0CAA0BA90AA809D372
:10373F00122DA840277E187F3512EA79AA06A9070D
:10374F007BFF7D321272C8BF0507787B7601023886
:10375F00FFE47877F6787B76010238FF300237E4A2
:10376F00F530787AE6FFE530C39F5020852F8285AC
:10377F002E8375F004E530122ED9E0FCA3E0787D9E
:10378F00667003EC18666004053080D6E530B50727
:10379F000BE4F5308006787AE6F53006787CE6FEA5
:1037AF0008E6FF852F82852E8375F004E530122EF3
:1037BF00D9EEF0A3EFF0AE0BAF0C852F82852E83E1
:1037CF0075F004E530122ED9A3A3EEF0A3EFF0208D
:0437DF00021C787AD6
:1037E300E6FFC3941E5013852F82852E8375F00444
:1037F300EF122ED9A3A3E4F0A3F0AF2FAE2E128EB7
:103803004DE4F530E530C3787A965038852F8285BC
:103813002E8375F004E530122ED9E0FEA3E0787D07
:10382300667003EE186670187878A630E530C39496
:10383300055005E408F680087878E624FC7979F7E2
:10384300053080C0E47877F6787B76010238FF850F
:103853002F82852E837878E675F004122ED9A3A3E0
:10386300E0FEA3E0FFE48F0C8E0BF50AF509FF12CF
:10387300D89DE4FF7D087B05753B831246BE400A55
:10388300E47877F6787B760280727F1E7E007D0077
:103893007C00AB0CAA0BA90AA809C3122DA84016D9
:1038A3007FFF7EFF7D007C00AB0CAA0BA90AA80951
:1038B300D3122DA840257E187F3512EA79AA06A9CE
:1038C300077BFF7D321272C8BF0506787B760180C5
:1038D3002BE47877F6787B76018021AE0BAF0C85ED
:1038E3002F82852E837878E675F004122ED9A3A350
:1038F300EEF0A3EFF0E418F6787B760175A61E755B
:06390300A6E10232B5222C
:104AC0002D202020202020200054686520666C6F57
:104AD000636B20616C7265616479206578697374B9
:104AE000732EFF456E746572206469666665726533
:104AF0006E74206E756D6265722E004C65206C6F51
:104B000074206578697374652064656A613AFF652D
:104B10006E7472657220756E206E6F6D627265FFC5
:104B2000646966666572656E742E005468652073EC
:104B3000656C656374656420666C6F636BFF646F9E
:104B400065736E27742065786973742EFF53656CE6
:104B500065637420616E6F74686572206E756D6236
:104B600065722E004C65206C6F742063686F6973EA
:104B700069206E27657869737465FF7061733A20E8
:104B800073656C656374696F6E6E6572FF756E2018
:104B90006175747265206E6F6D6272652E00466C71
:104BA0006F636B206E616D653AFFFFFF004E6F6DA6
:104BB000206475206C6F743AFFFFFF005573652009
:104BC000626F74682067656E646572733F00536539
:104BD0007061726572206C65732073657865733FD0
:104BE000005573652067726F7774682063757276FD
:104BF00065733F005574696C6973657220646573F1
:104C000020636F7572626573FF646520706F6964FD
:104C1000732073706563696669717565733F004ED3
:104C20006F7720796F752063616E20656E74657291
:104C3000FF612067726F777468206375727665FF15
:104C4000666F722066656D616C65732E004D6169DB
:104C50006E74656E616E742070726F6772616D6DD7
:104C60006572FF756E6520636F757262652064659D
:104C70002063726F697373616E6365FF66656D654E
:104C80006C6C6573004E6F7720796F752063616E71
:104C900020656E746572FF612067726F777468209B
:104CA0006375727665FF666F72206D616C65732E39
:104CB000004D61696E74656E616E742070726F670D
:104CC00072616D6D6572FF756E6520636F757262DE
:104CD000652064652063726F697373616E6365FF3D
:104CE0006D116C6573004E6F7720796F752063616D
:104CF0006E20656E746572FF612067726F777468ED
:104D00002063757276652E004D61696E74656E6103
:104D10006E742070726F6772616D6D6572FF756E73
:104D20006520636F75726265FF64652063726F69E9
:104D30007373616E63652E004C696D6974207468CD
:104D400065207765696768696E67FF6279207469B5
:104D50006D653F004C696D69746572206C652074E7
:104D6000656D7073FF64652070657365653F0057FE
:104D7000656967682066726F6D3AFFFFFF005065D6
:104D80007365652010207061727469722064653AE1
:104D9000FFFFFF0057656967682074696C6C3AFF14
:104DA000FFFF005065736565206A75737175276133
:104DB0003AFFFFFF00486F757273004865757265B2
:104DC0007300496E697469616C20776569676874FE
:104DD0003AFFFFFF00506F69647320696E69746960
:104DE000616C3AFFFFFF00496E697469616C20775E
:104DF0006569676874FF666F722066656D616C65D2
:104E0000733AFFFF00506F69647320696E697469BB
:104E1000616CFF706F75722066656D656C6C657393
:104E20003AFFFF00496E697469616C2077656967B4
:104E30006874FF666F72206D616C65733AFFFF00E6
:104E4000506F69647320696E697469616CFF706F7B
:104E50007572206D616C65733AFFFF004E6F2066BE
:104E60006C6F636B20666F756E64005061732064B5
:104E700065206C6F74FF656E206D656D6F6972657E
:104E80000043686F6F7365206120666C6F636B3AD7
:104E9000FFFFFF0043686F6973697220756E206CB5
:064EA0006F743AFFFFFFF2
:104EA600006E6F206E616D65005061732064652031
:044EB6006E6F6D00AE
:10C91B008C328D338A348B3530A0567B717A007E06
:10C92B00007C007DFD122B60EF2BFBEA3EFAE53518
:10C93B002BFBE5343AFAFEAF03E4FD12D1F6E4F536
:10C94B0038F539C3E5399537E5389536502375A653
:10C95B001E75A6E1853382853283E0FF12CF250554
:10C96B0033E533700205320539E53970020538803D
:02C97B00D222C6
:10CB56008C468D478A488B497B717A007E007C0023
:10CB66007DFD122B60EF2BFBEA3EFAE5492BFBE538
:10CB7600483AFAFEAF03E4FD12D36EE4F54CF54DE8
:10CB8600C3E54D954BE54C954A501D12BD6C854746
:10CB960082854683EFF00547E54770020546054D59
:0CCBA600E54D7002054C80D812EAAF2269
:10E3C4007B717A007E007C007DFD122B60EF2BFBBD
:10E3D400EA3EFAE42BFBE43AFAFEAF03E4FD12E969
:02E3E400C22253
:10E040008D2C30A0267B717A007E007C007DFD1235
:10E050002B60EF2BFBEA3EFAE42BFBE43AFAFEAF2F
:0CE0600003E4FD12D1F6AF2C12CF2522F4
:10BBD50090022BE070079003CCF0A3F02290022C8A
:10BBE500E0603AA3E0FF12E3C490022DE06F601716
:10BBF500E490022BF090022D74FFF07F007E017D12
:10BC0500007C001288CC2290022DE0FF7C037DBFD2
:10BC1500E4FBFAF54A754B0D12CB5680399003BFFC
:10BC250074FFF0E4FF74C02FF582E4344AF583E431
:10BC350093FE74C02FF582E43403F583EEF00FBF55
:10BC450008E3E49003C8F0900236E09003C9F0E4FD
:0ABC5500A3F0A37417F01255C622E5
:10D9DD0090022CE06028A3E0FF7C037DE27B0D7AB2
:10D9ED0000754A00754B7812CB567E037FE27D01A0
:10D9FD007C0012750B9003CEEEF0A3EFF022900297
:0EDA0D0037E0FFA3E09003CECFF0A3EFF022AE
:10D681009003C9E0603D90022CE06028A3E0FF7C9C
:10D69100037DE27B857A00754A00754B7812CB5683
:10D6A1007E037FE27D017C0012750B9003D0EEF0CA
:10D6B100A3EFF022900239E0FFA3E09003D0CFF076
:04D6C100A3EFF022C1
:1055C60090022BE070030259037548017549057571
:1055D6004A5E7B017A02793012844AEF2401FFE4A5
:1055E6003EFE90022FE02F9003CDF090022EE03E7B
:1055F6009003CCF09003C8E0606690022DE0FF7C3B
:10560600037DE27B0D7A00754A00754B7812CB5606
:105616007E037FE29003CCE0FCA3E0FD12750B90C5
:1056260003CEEEF0A3EFF09003C9E0700302575CDF
:1056360090022DE0FF7C037DE27B857A00754A00AF
:10564600754B7812CB567E037FE29003CCE0FCA329
:10565600E0FD12750B9003D0EEF0A3EFF002575C5D
:1056660090023CE0701B90022EE0FEA3E0FFC39088
:1056760003CDE09FFF9003CCE09EFEEF64014E70E9
:105686000912D9DD12D68102575CE4FF12A4508FAD
:10569600448E438D428C417FFF7EFF7D007C00ABB4
:1056A60044AA43A942A841D3122D92400C7544FF47
:1056B6007543FF754200754100AE43AF449003CE7B
:1056C600EEF0A3EFF04E700312D9DD9003CEE0FEAC
:1056D600A3E0FFC3941EEE94004009D3EF94FFEEBF
:1056E60094FF40099003CEE4F0A3741EF09003C922
:1056F600E060637F0112A4508F448E438D428C413B
:105706007FFF7EFF7D007C00AB44AA43A942A841EF
:10571600D3122D92400C7544FF7543FF75420075F8
:105726004100AE43AF449003D0EEF0A3EFF04E70CD
:105736000312D6819003D0E0FEA3E0FFC3941EEED1
:1057460094004009D3EF94FFEE94FF40099003D0F4
:10575600E4F0A3741EF0900222E0FFE4EF2464FB61
:10576600E433FAE433F9E433F89003CEE0FEA3E041
:10577600FFE4FCFD122C5A9003D2122E9C9003D209
:10578600E0FCA3E0FDA3E0FEA3E02432FFE43EFE3E
:10579600E43DFDE43CFC9003D2122E9C9003D2E043
:1057A600FCA3E0FDA3E0FEA3E0FF7B647A007900A2
:1057B600780012D74D9003D2122E9C900223E0FF60
:1057C600E4FCFDFEC374649FFBE49400FAE49400D9
:1057D600F9E49400F89003CEE0FEA3E0FFE4122C77
:1057E6005A9003D6122E9C9003D6E0FCA3E0FDA3AC
:1057F600E0FEA3E02432FFE43EFEE43DFDE43CFC93
:105806009003D6122E9C9003D6E0FCA3E0FDA3E005
:10581600FEA3E0FF7B647A007900780012D74D90F2
:1058260003D6122E9C9003C9E0700302590390021E
:1058360024E0FFE4EF2464FBE433FAE433F9E433D1
:10584600F89003D0E0FEA3E0FFE4FCFD122C5A9092
:1058560003DA122E9C9003DAE0FCA3E0FDA3E0FE3F
:10586600A3E02432FFE43EFEE43DFDE43CFC90036D
:10587600DA122E9C9003DAE0FCA3E0FDA3E0FEA37F
:10588600E0FF7B647A007900780012D74D9003DA46
:10589600122E9C900225E0FFE4FCFDFEC374649F7B
:1058A600FBE49400FAE49400F9E49400F89003D041
:1058B600E0FEA3E0FFE4122C5A9003DE122E9C9029
:1058C60003DEE0FCA3E0FDA3E0FEA3E02432FFE458
:1058D6003EFEE43DFDE43CFC9003DE122E9C90036C
:1058E600DEE0FCA3E0FDA3E0FEA3E0FF7B647A001C
:0E58F6007900780012D74D9003DE122E9C220E
:10DFE7008F309003E274FFF07C037DE27B0B7A00B5
:10DFF70075360075370112C91BAF307C037DE27B94
:0DE007000C7A0075360075370112C91B2216
:08EA5200EF4480FF1239092294
:04EAB40012390922E8
:10E8330030A0107DFF12E0407FFE7EFF7DFF7CFF56
:04E8430012D1F622D6
:10E3E60030A01EE4F52BAF2B7DFF12E040052BE598
:10E3F6002BC3940A40F07FFE7EFF7DFF7CFF12D187
:02E40600F622FC
:108BAB00D2017539FFE4F538AF3812E3C4EFB538AD
:108BBB000585383980090538E538C3940A40E9E55D
:108BCB0039B4FF157E4E7F5C12EA79AA06A9077BA2
:108BDB00FF7D101272C87FFF227E4E7F8112EA79D1
:108BEB00AA06A9077BFF7DB01272C87F177D1A7B7F
:108BFB00FF7A1579821287509005537401F020018A
:108C0B0003028C8FC2017F217D037B7F754205128E
:108C1B00CD1A7F217D18E5392430FB125244AF3930
:108C2B007C037DE27B017A00754A00754B0812CB01
:108C3B0056E49003EAF0F53874E22538F582E43413
:108C4B0003F583E0B420070538E538B408EA7F273D
:108C5B007D187B3A125244750930E538C39408509D
:108C6B000FAF097D187B017A0379E212C34680149A
:108C7B007E4E7FA712EA79AA06A9077BFFAF097D73
:108C8B001812C34612E2CCEF14603824FC605E1459
:108C9B00605024C3604C24C2602914600724806098
:108CAB0003028C0912E9A4E539C394095004053970
:108CBB008003E4F539AF3912E3C4EFB539E9D201DA
:108CCB00028C0912E9A4E539D394004004153980CC
:108CDB0003753909AF3912E3C4EFB539E9D2010293
:108CEB008C0912E9A4E4900553F07FFF2212E9A44A
:088CFB00E4900553F0AF3922AB
:10B091008F2E9003E2E52EF07C037DE2E4FBFAF5CE
:10B0A1003675370112C91BE4F52F74E2252FF5829D
:10B0B100E43403F5837420F0052FE52FB408EBAFDA
:10B0C1002E7C037DE27B017A00753600753708120C
:10B0D100C91BE4F52F74E2252FF582E43403F583CF
:10B0E100E4F0052FE52FB478ECAF2E7C037DE27BF5
:10B0F1000D7A0075360075377812C91BAF2E7C03A7
:10B101007DE27B857A0075360075377812C91BAFF1
:10B111002E7C037DE27B097A0075360075370112BA
:10B12100C91BAF2E7C037DE27B0A7A007536007560
:0BB13100370112C91BAF2E12DFE7220E
:103909008F2CC200E52C30E705D200532C7FAF2C59
:103919007C037DE2E4FBFAF54A754B0112CB569024
:1039290003E2E0B52C173000307E4A7FC912EA79EC
:10393900AA06A9077BFF7D101272C8C322200014B2
:103949007E4B7F2B12EA79AA06A9077BFF7D10120D
:1039590072C8C322AF2C12B091AF2C7C037DE27BDD
:10396900017A00754A00754B0812CB567E4B7F9E33
:1039790012EA79AA06A9077BFF7DB01272C87F12E5
:103989007D187A037BE2753208D202126251400235
:10399900C322AF2C7C037DE27B017A00753600756A
:1039A900370812C91B7E4B7FBC12EA79AA06A90700
:1039B9007BFF7D311272C8BF0504D2018002C201AA
:1039C900A201E4339003E2F0AF2C7C037DE27B0A91
:1039D9007A0075360075370112C91B7E4B7FE112DB
:1039E900EA79AA06A9077BFF7D311272C8EF64053F
:1039F9006003023ABB9003E204F0AF2C7C037DE242
:103A09007B097A00753600F53712C91B3001147E1F
:103A19004C7F1F12EA79AA06A9077BFF7D13127250
:103A2900C880127E4C7FE612EA79AA06A9077BFFB5
:103A39007D131272C8AF2C7C037DE27B0D7A007571
:103A49004A00754B7812CB567E037FE212326A40E8
:103A590002C322AF2C7C037DE27B0D7A0075360010
:103A690075377812C91B200103023CAD7E4C7F8556
:103A790012EA79AA06A9077BFF7D131272C8AF2C37
:103A89007C037DE27B857A00754A00754B7812CB01
:103A9900567E037FE212326A4002C322AF2C7C03B6
:103AA9007DE27B857A0075360075377812C91B026D
:103AB9003CADE49003E2F0AF2C7C037DE27B09FA94
:103AC900F53675370112C91BAF2C7C037DE27B0DDE
:103AD9007A00754A00754B7812CB5630014B7E4DF2
:103AE9007FE712EA79AA06A9077BFF7DB01272C89F
:103AF9007D22900228E075F003A42426F974183574
:103B0900F0FA7BFF7F5C12C3467E037FE212E9F77E
:103B1900E48F0C8E0BF50AF5097F2D7D207B057549
:103B29003B831246BE404DC3227E4D7FC212EA79C5
:103B3900AA06A9077BFF7DB01272C87D1A900228D8
:103B4900E075F003A42426F9741835F0FA7BFF7F99
:103B59005C12C3467E037FE212E9F7E48F0C8E0BF9
:103B6900F50AF5097F2D7D187B05753B831246BE45
:103B79004002C3227F1E7E007D007C00AB0CAA0B95
:103B8900A90AA809C3122DA840167FFF7EFF7D0050
:103B99007C00AB0CAA0BA90AA809D3122DA8401CBA
:103BA9007E187F3512EA79AA06A9077BFF7D3212B2
:103BB90072C8EF64057003023AD1C3227E037FE223
:103BC900AC0BAD0C12E3A2AF2C7C037DE27B0D7A2A
:103BD9000075360075377812C91B200103023CAD08
:103BE9007E4E7F2412EA79AA06A9077BFF7DB012CF
:103BF90072C87D22900228E075F003A42426F97486
:103C09001835F0FA7BFF7F5C12C346AF2C7C037D2D
:103C1900E27B857A00754A00754B7812CB567E0394
:103C29007FE212E9F7E48F0C8E0BF50AF5097F2D77
:103C39007D207B05753B831246BE4002C3227F1E51
:103C49007E007D007C00AB0CAA0BA90AA809C3124F
:103C59002DA840167FFF7EFF7D007C00AB0CAA0BD0
:103C6900A90AA809D3122DA8401C7E187F3512EA8B
:103C790079AA06A9077BFF7D321272C8EF64057025
:103C890003023BE9C3227E037FE2AC0BAD0C12E3D6
:103C9900A2AF2C7C037DE27B857A007536007537EF
:103CA9007812C91B7E4D7F3812EA79AA06A9077BCB
:103CB900FF7D311272C8EF64056003023E237E4D19
:103CC9007F6F12EA79AA06A9077BFF7DB01272C835
:103CD9007E4D7FB512EA79AA06A9077BFF7F4F7D42
:103CE9001A12C346AF2C7C037DE27B0B7A00754A1E
:103CF90000754B0112CB569003E2E0FFE48F0CF5FF
:103D09000BF50AF509E50CD394174003E4F50C7F8C
:103D1900367D187B02E4F53B1246BE4008AF2C12F3
:103D2900DFE7023E28E50CD3941740227E187F3541
:103D390012EA79AA06A9077BFF7D321272C8EF64DD
:103D4900057003023CC7AF2C12DFE7023E2890033F
:063D5900E2E50CF0AF2CC6
:103D5F007C037DE27B0B7A0075360075370112C943
:103D6F001B850C2D7E4D7F9412EA79AA06A9077B3D
:103D7F00FF7DB01272C87E4D7FB512EA79AA06A9EF
:103D8F00077BFF7F4F7D1A12C346AF2C7C037DE26A
:103D9F007B0C7A00754A00754B0112CB569003E2EB
:103DAF00E0FFE48F0CF50BF50AF509E50CD394173A
:103DBF004003750C177F367D187B02E4F53B1246E6
:103DCF00BE4007AF2C12DFE7804FE50CC3952D40A7
:103DDF0007E50CD3941740217E187F3512EA79AA94
:103DEF0006A9077BFF7D321272C8EF6405700302CC
:103DFF003D73AF2C12DFE780209003E2E50CF0AFAC
:103E0F002C7C037DE27B0C7A00753600753701122E
:103E1F00C91B8005AF2C12DFE730A00B7FFE7EFFA2
:093E2F007DFF7CFF12D1F6D322C5
:03E5A1000118005E
:10E9560012DC968F247F0A7E0012DF8A12DC962252
:10E8F30012DC96EF64FE600875A61E75A6E180F033
:01E9030022F1
:10C57600E51854C064407019E518543F60037FFF06
:10C586002212DC968F41E541B4FE0BE4F5187FFFDD
:10C596002212DC968F41E541B4FE0FE51854C070B7
:10C5A600037FFF22E4F5187FFE22E51854C024C05D
:10C5B600601224C0601424C0601024C0701D751859
:10C5C600417FFF22751899AF4122E518543F600359
:0CC5D6007FFF227518CAE5414480FF2257
:10DC9600D2B5D2A4D2A320A3037F032220A4037F5C
:10DCA600042220B5037F0122C2A40020A3037F061D
:10DCB6002220B5037F0522D2A4C2B50020A3037F8C
:05DCC60002227FFE2296
:1014EA00100B0BFE0B60002318C220863082010C01
:1014FA00A0FF00100B0BFE0B60008318C82086307B
:10150A0082010CA0FF00100B0BFE0B60001319C523
:10151A0010463191010CA0FF00100B0BFE0B60006E
:10152A000318C228263280010CA0FF00100B0BFE04
:10153A000B60000398C828863080010CA0FF0010B9
:10154A000B0BFE0B60008318C208863088010CA0C2
:10155A00FF00100B0BFE0B6008A398C80026328A06
:10156A00210CA0FF00100B0BFE0B6000A398C88291
:10157A0026328A010CA0FF00040408FF7E3C1804EE
:10158A00050618596E0704050642D55702040506D2
:10159A0084F00B0404050608F44308020503377DAA
:1015AA000304069CA809030406659695040506C368
:1015BA00CCCC300103022E050606208414C3010494
:1015CA0006058490EF080707074030F00F0403016F
:1015DA00070607807135190C02000809074020DC4C
:1015EA00FFF7C381400707078E4824E28383004F31
:1015FA004328FCF1FF7F00FCF1FF7F0044F0FF7FEE
:10160A00007CF0FF7F0038000C300000000E7000F4
:10161A0038000E70006C000E700044000E78007CDA
:10162A00001E7C003800FE7F000000FE3F003C00E8
:10163A00FC1F007C00F80F004000C001007C000085
:10164A0000007C000000000000001F007F009E3F99
:10165A00007F008E7F000000CE7F003E00CE7B0020
:10166A007E00CE71004400CE70000000CE70007C77
:10167A0000CE30007C00FE1F000800FE7F000C0038
:10168A00FE7F000400FC7F00BC00F87F00F0000031
:10169A00000038000000000C000E000000000E00E0
:1016AA000000E0FF0F0000E0FF3F0000E0FF3F0006
:1016BA004CE0FF7F005C000E700074000E70003476
:1016CA00000E700000000E780038000000006C0068
:1016DA00000000440000005044800A00A8004005B1
:1016EA00005460A00200AA744001005554A00200F0
:1016FA00AA7C5001005578A00080AA0050014055EC
:10170A007FA000A0AA7F5001505100A002A8A838CB
:10171A00500555517CA0AAAAA854405555505CA022
:10172A00AA2AA808405515500080AA0AA84C0055B4
:10173A0005505C00AA00A874001400503400000090
:10174A00A814100AFE0B38E18E130A28A080020A98
:10175A0028E084134E28A0FF05050701C15F100089
:10176A00040505EAABAF00446179004A6F7572005F
:10177A0057656967687400506F69647300466C6FD7
:10178A00636B004C6F74005461726765740043693F
:10179A00626C65004C6173740050726563656465C0
:1017AA006E7400436F756E74004E6F6D62726500E1
:1017BA004F4B004F4B0043616E63656C00416E6E88
:1017CA00756C65720052657472790052652D657385
:1017DA0073617900596573004F7569004E6F004E49
:1017EA006F6E004572726F72004572726575720093
:1017FA005761697400417474656E64726500686447
:10180A007300616E780076657273696F6E00766533
:10181A007273696F6E006B67006C62006B67006CB5
:10182A00620031003200350031300054686520769C
:10183A00616C7565FF6973206E6F742076616C69DF
:10184A0064004C612076616C657572206E27657341
:10185A0074FF7061732076616C61626C650053611C
:10186A007665206368616E6765733F00456E7265D1
:10187A0067697374726572FF6D6F64696669636123
:10188A0074696F6E733F005765696768696E672090
:10189A00697320737461727465642EFF53746F7078
:1018AA0020746865207765696768696E67FF66698D
:1018BA007273742E004C61207065736565206573C0
:0618CA007420636F6D6DD8
:1018D000656E6365652EFF41727265746572206C7A
:1018E0006120706573656520642761626F72642E84
:1018F0000053544F505045440041525245540057F4
:1019000045494748494E47005045534545005041D9
:1019100055534544005041555345004F4E4C494E98
:101920004500454E204C49474E45004152434849E9
:101930005645004152434849564500437600437698
:1019400000554E4900486F6D2E005061676500508C
:10195000616765004E6F206461746100506173209F
:10196000646520646F6E6E656573005265616C6CB2
:10197000792073746F70FF7765696768696E672097
:101980006F662074686520666C6F636B3F00417200
:10199000726574657220767261696D656E74FF6C34
:1019A000612070657365653F005468652073656CE0
:1019B000656374656420666C6F636B206973FF6E8A
:1019C0006F7720776569676865642EFF53656C657E
:1019D000637420616E6F7468657220666C6F636BF0
:1019E0002E004C65206C6F742063686F69736920EA
:1019F000657374FF656E2070657365652E2043689E
:101A00006F69736972FF756E206175747265206C01
:101A10006F742E0055736520612070726564656671
:101A2000696E656420666C6F636B3F005574696C0A
:101A30006973657220756E206C6F74FF70726564D7
:101A40006566696E693F005374617274696E6720E0
:101A50006461793AFFFFFF00446562757420646534
:101A60002070657365653AFFFFFF00466C6F636B1E
:101A7000206E756D6265723AFFFFFF004E756D65F1
:101A8000726F206465206C6F743AFFFFFF0052652F
:101A9000616C6C792064656C657465FF616C6C20A9
:101AA00074686520666C6F636B733F00537570706C
:101AB00072696D657220767261696D656E74FF740E
:101AC0006F7573206C6573206C6F74733F00416C8D
:101AD0006C2074686520666C6F636B73FF7765724A
:101AE000652064656C657465642E00546F757320A1
:101AF0006C6573206C6F7473FF736F6E74207375F5
:101B0000707072696D65732E00446174653AFFFFF1
:101B1000FF00446174653AFFFFFF0054696D653A48
:101B2000FFFFFF0048657572653AFFFFFF004964DB
:101B3000656E74696669636174696F6E206E756D38
:101B40006265723AFFFFFF004E756D65726F20642B
:101B5000276964656E74696669636174696F6E3A5A
:101B6000FFFFFF00486973746F6772616D207261D7
:101B70006E67653AFFFFFF00456368656C6C652022
:101B80006465206C27686973746F6772616D6D6539
:101B90003AFFFFFF00556E69666F726D69747920B8
:101BA00072616E67653AFFFFFF00456368656C6CA4
:101BB00065206427756E69666F726D6974653AFF9A
:101BC000FFFF004D617267696E2061626F7665206C
:101BD000746172676574FF666F722066656D616C13
:101BE00065733AFFFF0045636172742061752D646F
:101BF0006573737573206465206C61FF636F757224
:101C0000626520706F7572206C65732066656D6506
:101C10006C6C65733AFFFF004D617267696E2075E9
:101C20006E64657220746172676574FF666F7220FE
:101C300066656D616C65733AFFFF004563617274A0
:101C400020656E2D646573736F7573206465206CF9
:101C500061FF636F7572626520706F7572206C65CD
:101C6000732066656D656C6C6573FFFF004D617276
:101C700067696E2061626F76652074617267657452
:101C8000FF666F72206D616C65733AFFFF004563FC
:101C90006172742061752D6465737375732064655A
:101CA000206C61FF636F7572626520706F757220C2
:061CB0006C6573206D114C
:101CB6006C6573FFFF004D617267696E20756E6417
:101CC600657220746172676574FF666F72206D615C
:101CD6006C65733AFFFF00456361727420656E2D73
:101CE600646573736F7573206465206C61FF636F41
:101CF6007572626520706F7572206C6573206D1148
:101D06006C6573FFFF0053746162696C697A617474
:101D1600696F6E3AFFFFFF0053746162696C697305
:101D26006174696F6E3AFFFFFF0053746162696CFC
:101D3600697A6174696F6EFF74696D653AFFFF00B9
:101D460054656D7073FF64652073746162696C69B4
:101D5600736174696F6E3AFFFF00556E6974733A6A
:101D6600FFFFFF00556E6974653AFFFFFF00506C78
:101D76006174666F726D3AFFFFFF00506C617465A7
:101D8600666F726D65206EE43AFFFFFF0044697668
:101D96006973696F6E3AFFFFFF0047726164756190
:101DA60074696F6E3AFFFFFF00456D707479207499
:101DB6006865207363616C6573004C696265726562
:101DC60072206C65732062616C616E63657300508E
:101DD6007574206F6E20746865207363616C65731B
:101DE6003AFFFFFF0043616C6962726572206C65A1
:101DF600732062616C616E6365733AFFFFFF004991
:101E06006E736572742061206D656D6F7279FF6DFA
:101E16006F64756C6500496E736572657220756EC8
:101E2600206D6F64756C65FF6465206D656D6F6907
:101E36007265004D656D6F7279206D6F64756C65A6
:101E4600FF6973206E6F742070726573656E74001F
:101E56004C65206D6F64756C65206465206D656DDD
:101E66006F697265FF6E27657374207061732070E9
:101E7600726573656E7400436F7079207375636362
:101E860065737366756C00436F706965207265755E
:101E9600737369650050726F67726573733AFFFFFB
:101EA600FF0050726F6772657373696F6E3AFFFF5A
:101EB600FF00546865206D6F64756C6520636F6EF6
:101EC6007461696E73FF6120646966666572656E2A
:101ED600742076657273696F6E2EFF436F6E746938
:101EE6006E75653F004C65206D6F64756C6520638B
:101EF6006F6E7469656E74FF756E652076657273B4
:101F0600696F6E20646966666572656E74652EFF1C
:101F1600436F6E74696E7565723F0043616E6E6FD6
:101F2600742072656164FF636F6E666967757261BE
:101F360074696F6E004C6120636F6E6669677572B7
:101F46006174696F6E206E65FF70657574207061CF
:101F5600732065747265206C75650055736520473E
:101F6600534DFF636F6D6D756E69636174696F6E56
:101F76003F005574696C6973657220617070656C99
:101F86002047534D3F0053656E6420737461746936
:101F96007374696373FF6174206D69646E69676841
:101FA600743F00456E766F796572206C65732064A8
:101FB6006F6E6E656573FF61206D696E7569743F3E
:101FC6000053656E642064617461FF6F6E207265F4
:101FD60071756573743F00456E766F796572206C16
:101FE600657320646F6E6E656573FF61206C61209A
:101FF60064656D616E64653F00436865636B206E62
:10200600756D626572733F005665726966696572C1
:10201600206C6573206E756D65726F733F00506836
:102026006F6E65206E756D6265723AFFFFFF004E3A
:10203600756D65726F2064652074656C6570686F78
:102046006E653AFFFFFF00416374697665206E7521
:102056006D626572733AFFFFFF004E756D65726FB4
:1020660073207574696C697361626C65733AFFFFFE
:10207600FF004C616E677561676500456E676C6948
:102086007368004672616E136169730053746172FE
:0620960074207765696704
:10209C0068696E67004172636869766500436F70AA
:1020AC0079206461746100536574757000446562D5
:1020BC007574206465206C612070657365650041E2
:1020CC0072636869766500436F70696572206C6530
:1020DC007320646F6E6E656573004D697365206166
:1020EC007520706F696E740050617573652077652B
:1020FC00696768696E670053746F702077656967EC
:10210C0068696E67004172636869766500436F7039
:10211C007920646174610053657475700050617549
:10212C0073650041727215746572206C6120706564
:10213C00736565004172636869766500436F706909
:10214C006572206C657320646F6E6E656573004DEF
:10215C0069736520617520706F696E7400436F6ED2
:10216C0074696E7565207765696768696E67005379
:10217C00746F70207765696768696E670041726378
:10218C006869766500436F707920646174610053EF
:10219C006574757000436F6E74696E75657220613D
:1021AC002070657365720041727215746572206CD3
:1021BC0061207065736565004172636869766500BE
:1021CC00436F70696572206C657320646F6E6E6509
:1021DC006573004D69736520617520706F696E744D
:1021EC00005365747570004D6973652061752070BE
:1021FC006F696E74004461746520616E642074694B
:10220C006D65004964656E74696669636174696FB4
:10221C006E206E756D62657200466C6F636B730039
:10222C00537461746973746963730047534D00533D
:10223C0063616C657300526561642066726F6D201A
:10224C006D6F64756C65005374617274206F6E6C85
:10225C00696E6500446174652065742068657572EB
:10226C0065004E756D65726F2064276964656E74C8
:10227C00696669636174696F6E004C6F74730053A7
:10228C0074617469737469717565730047534D009B
:10229C0042616C616E636573004C65637475726545
:1022AC00206475206D6F64756C650044656275748F
:1022BC00206D6F646520656E206C69676E650046E5
:1022CC006C6F636B73004C6F7473004E6577206694
:1022DC006C6F636B004564697420666C6F636B0094
:1022EC0044656C65746520666C6F636B0044656C4B
:1022FC0065746520616C6C20666C6F636B73004E4B
:10230C006F7576656175206C6F74004564697465D2
:10231C0072206C65206C6F74005375707072696DEF
:10232C006572206C65206C6F7400537570707269E7
:10233C006D657220746F7573206C6573206C6F748F
:10234C0073005363616C65730042616C616E63650D
:10235C007300536176696E6720706172616D65748C
:10236C0065727300556E697473004368616E6765BE
:10237C0020706C6174666F726D0043616C6962727F
:10238C006174696F6E00536175766567617264651F
:10239C0000556E69746573004368616E67657220E1
:1023AC00646520706C617465666F726D6500436165
:1023BC006C6962726174696F6E0047534D004753CC
:1023CC004D0053657474696E6773004E756D62656C
:1023DC007273004D6973657320617520706F696E3F
:0A23EC0074004E756D65726F73008A
:10E68A0090022BE06012900519E024FFB392061263
:09E69A00E90490010E74FFF02266
:10E118007E197F6B12EA79AA06A9077BFF7D311267
:10E1280072C8BF051512C1E0E490022BF0FF7E0112
:0BE13800FDFC1288CCE49000FCF022FB
:105F4C007E1A7F1412EA79AA06A9077BFF7D31120B
:105F5C0072C8EF64057035752C01128BAB8F2BE575
:105F6C002BC3940A400302625090022BE0603DA3C5
:105F7C00E06039A3E0652B70337E197FA912EA79B2
:105F8C00AA06A9077BFF7D101272C822E4F52C7EAD
:105F9C004B7FBC12EA79AA06A9077BFF7D311272EE
:105FAC00C8BF0505752D018003E4F52D7E1A7F47CA
:105FBC0012EA79AA06A9077BFF7DB01272C8750C8C
:105FCC0001750B00750A007509007F327D187B0383
:105FDC00E4F53B1246BE4003026250C3E50C94014B
:105FEC00E50B9400501C7E187F3512EA79AA06A99D
:105FFC00077BFF7D321272C8EF64056003026250AA
:10600C0080AAE50C24FFF52FE50B34FFF52EE52CCB
:10601C0060030261B4E52D60467E4D7FE712EA799C
:10602C00AA06A9077BFF7DB01272C87D22900228B8
:10603C00E075F003A42426F9741835F0FA7BFF7F81
:10604C005C12C346750C00750B00750A00750900CF
:10605C007F2D7D207B05753B831246BE4049227EF9
:10606C004D7FC212EA79AA06A9077BFF7DB0127296
:10607C00C87D1A900228E075F003A42426F9741840
:10608C0035F0FA7BFF7F5C12C346750C00750B0074
:10609C00750A007509007F2D7D187B05753B8312F1
:1060AC0046BE40030262507F1E7E007D007C00AB2A
:1060BC000CAA0BA90AA809C3122DA840167FFF7EB3
:1060CC00FF7D007C00AB0CAA0BA90AA809D3122DEA
:1060DC00A8401D7E187F3512EA79AA06A9077BFF16
:1060EC007D321272C8EF64056003026250026021B7
:1060FC00AF0CAE0BAD0AAC098F338E328D318C30B8
:10610C00E52D70030261B47E4E7F2412EA79AA0653
:10611C00A9077BFF7DB01272C87D22900228E07522
:10612C00F003A42426F9741835F0FA7BFF7F5C1277
:10613C00C346750C00750B00750A007509007F2DA0
:10614C007D207B05753B831246BE40030262507F67
:10615C001E7E007D007C00AB0CAA0BA90AA809C30B
:10616C00122DA840167FFF7EFF7D007C00AB0CAA91
:10617C000BA90AA809D3122DA8401D7E187F351231
:10618C00EA79AA06A9077BFF7D321272C8EF640573
:10619C006003026250026113AF0CAE0BAD0AAC0986
:1061AC008F378E368D358C3490022B7401F0A3E52D
:0161BC002CB6
:1061BD00F090022EE52EF0A3E52FF0E52C6008906F
:1061CD00022DE52BF0801C90022D74FFF09002360D
:1061DD00E52DF0A3E532F0A3E533F0A3E536F0A30A
:1061ED00E537F090055EE0900230F090055FE090AD
:1061FD000231F0900560E0900232F0900561E09080
:10620D000233F0900562E0FFA3E0900234CFF0A3DB
:10621D00EFF090022AE090023BF0A200E433A3F0ED
:10622D007F007E017D007C001288CC12AB3212E61D
:10623D000712BBD512B88812DA9712D1A99000FCBB
:04624D007401F022C6
:10E4AB0090022BE060137E187F9112EA79AA06A9DD
:0FE4BB00077BFF7D101272C822D200125F4C2225
:10B32F007E1E7F0512EA79AA06A9077BFF7D3012E0
:10B33F0072C8EF6405600302B3CE90022BE0600386
:10B34F0012C5097FFE7EFF7DFF7CFF12D1F612E44E
:10B35F006C40137E1E7F3912EA79AA06A9077BFF7C
:10B36F007D101272C8227E1E7F9B12EA79AA06A94F
:10B37F00077BFFE4FD1272C812EAC212EA627FF481
:10B38F007E0112DF8A12DD3412A53512A185501409
:10B39F007E1E7F7D12EA79AA06A9077BFF7D101218
:10B3AF0072C880127E177FED12EA79AA06A9077B71
:10B3BF00FF7D101272C812E6D312E8CF12E9952260
:10A98C0090022BE060137E187F9112EA79AA06A937
:10A99C00077BFF7D101272C8227E1E7F0512EA799A
:10A9AC00AA06A9077BFF7D301272C8EF640560030D
:10A9BC0002AA5E7FFE7EFF7DFF7CFF12D1F612E4C1
:10A9CC006C40137E1E7F3912EA79AA06A9077BFF19
:10A9DC007D101272C82212EA627FF47E0112DF8AA5
:10A9EC0012DAD37E027F8F12E7F59002FFE06F60E0
:10A9FC00197E1F7F2112EA79AA06A9077BFF7D1019
:10AA0C001272C812E8CF12E9952290028FE064010D
:10AA1C007002A3E0601E7E1E7FB812EA79AA06A916
:10AA2C00077BFF7D311272C8EF6405600712E8CF17
:10AA3C0012E9952212C720129CAD12E8CF12E995AB
:10AA4C007E1E7F7D12EA79AA06A9077BFF7D101274
:03AA5C0072C8229B
:1093430090022BE060137E187F9112EA79AA06A996
:10935300077BFF7D101272C8227E1B7F0912EA79F8
:10936300AA06A9077BFF7DB01272C8900562E0FED2
:10937300A3E0FF12E35D8F0C8E0B8D0A8C09900521
:1093830061E0FF12E9768F0A900560E0FF12E9764B
:109393008F09AF0CAE0BAD0AAC0912DB848F0C8EB8
:1093A3000B8D0A8C097F1E7D187B09E4F53B124661
:1093B300BE4003029464AF0CAE0BAD0AAC0912DBE2
:1093C300498F2E8E2D8D2C8C2B7E1B7F1B12EA79C1
:1093D300AA06A9077BFF7DB01272C8E4F50AF50956
:1093E30090055FE0FF12E9768F0B90055EE0FF12B8
:1093F300E9768F0CAF0CAE0BAD0AAC0912DB848F90
:109403000C8E0B8D0A8C097F2D7D187B0AE4F53BAE
:109413001246BE504CAF0CAE0BAD0AAC0912DB4981
:109423008F0C8E0B8D0A8C09AF0B12E946AF0C1211
:10943300E936E4FF12E926AE2DAD2CAC2B852E0CBC
:109443008E0B8D0A8C09AF0912E6A3AF0A12E42A28
:10945300AF0BEFFEAD0C7C00E42DFFEC3EFE12E7FC
:02946300CB221A
:10C8B7007E1B7F2E12EA79AA06A9077BFF7DB0129D
:10C8C70072C8900220E0FFE48F0CF50BF50AF5091A
:10C8D7007F367D187B02F53B1246BE5036E50CC30A
:10C8E70094014007E50CD3941F40177E187F35123B
:10C8F700EA79AA06A9077BFF7D321272C8BF051322
:10C9070080AE900220E50CF07F027E007D007C0067
:04C917001288CC2294
:1096920090022BE060137E187F9112EA79AA06A944
:1096A200077BFF7D101272C8227E1B7F6412EA794B
:1096B200AA06A9077BFF7DB01272C8900229E0FFBB
:1096C200E48F0CF50BF50AF5097F267D1A7BE6126D
:1096D20052447F527D1A7B251252447F327D187B81
:1096E20003E4F53B1246BE40030297A0C3E50C9487
:1096F2000AE50B9400400BD3E50C9464E50B94004F
:10970200401C7E187F3512EA79AA06A9077BFF7DE5
:10971200321272C8EF640560030297A0808BAF0C0F
:109722008F2B7E1B7F9512EA79AA06A9077BFF7D04
:10973200B01272C890022AE0FFE48F0CF50BF50A12
:10974200F5097F2A7D1A7BE61252447F4F7D1A7BF0
:10975200251252447F367D187B02E4F53B1246BE49
:10976200503CE50CC394014007E50CD394314017FB
:109772007E187F3512EA79AA06A9077BFF7D32128D
:1097820072C8BF0519809B90022AE50CF09002294D
:0F979200E52BF07F007E0C7D007C001288CC223E
:10D06E007E1A7F6B12EA79AA06A9077BFF7DB012A2
:10D07E0072C8750C00750B00750A007509007F3AB1
:10D08E007D187B01E4F53B1246BE5023E50CC3949C
:10D09E000A40177E187F3512EA79AA06A9077BFF88
:10D0AE007D321272C8BF050780B6AF0C12EA52224B
:10DD6800128BAB8F2BE52BC3940A502790022BE024
:10DD7800601CA3E06018A3E0B52B137E197FA912DD
:10DD8800EA79AA06A9077BFF7D101272C822AF2B79
:04DD980012EAB422B5
:10DD9C00128BAB8F2BE52BC3940A502790022BE0F0
:10DDAC00601CA3E06018A3E0B52B137E197FA912A9
:10DDBC00EA79AA06A9077BFF7D101272C822AF2B45
:04DDCC0012E8332204
:10D5260090022BE06017A3E060137E187F9112EA49
:10D5360079AA06A9077BFF7D101272C8227E1A7F80
:10D546008E12EA79AA06A9077BFF7D311272C8BF3F
:10D55600051512E3E67E1A7FCE12EA79AA06A90716
:08D566007BFF7D101272C82248
:107D0F007E1B7FC312EA79AA06A9077BFF7DB012FB
:107D1F0072C87F507D227B25125244900222E0FFD1
:107D2F00E48F0CF50BF50AF5097F367D207B02F504
:107D3F003B1246BE4003027F00850C2B7E1C7F1832
:107D4F0012EA79AA06A9077BFF7DB01272C87F508D
:107D5F007D227B25125244900223E0FFE48F0CF525
:107D6F000BF50AF5097F367D207B02F53B1246BEE7
:107D7F004003027F00850C2C7E1C7F6D12EA79AACE
:107D8F0006A9077BFF7DB01272C87F507D227B252D
:107D9F00125244900224E0FFE48F0CF50BF50AF524
:107DAF00097F367D207B02F53B1246BE4003027FE2
:107DBF0000850C2D7E1C7FBC12EA79AA06A9077BD1
:107DCF00FF7DB01272C87F507D227B2512524490E6
:107DDF000225E0FFE48F0CF50BF50AF5097F367DE0
:107DEF00207B02F53B1246BE4003027F00850C2E1E
:107DFF007E1D7F0C12EA79AA06A9077BFF7DB012C0
:107E0F0072C8900226E0FFE48F0CF50BF50AF50916
:107E1F007F247D1A7BE61252447F537D1A7B2512F5
:107E2F0052447F317D187B03753B811246BE400360
:107E3F00027F00D3E50C94FAE50B9400401C7E18EA
:107E4F007F3512EA79AA06A9077BFF7D321272C825
:107E5F00EF64056003027F008096850C2F7E1D7FE7
:107E6F003012EA79AA06A9077BFF7DB01272C8907B
:107E7F000227E0FFE48F0CF50BF50AF5097F3C7D37
:107E8F00207B01F53B1246BE5067E50CC3940240C0
:107E9F0007E50CD3940940197E187F3512EA79AAA9
:107EAF0006A9077BFF7D321272C8EF64057042800E
:107EBF00AC850C307E187F6812EA79AA06A9077B79
:107ECF00FF7D311272C8BF0528900222E52BF0A367
:107EDF00E52CF0A3E52DF0A3E52EF0A3E52FF0A3FD
:107EEF00E530F07FFC7E007D007C001288CC12E82C
:027EFF005B2204
:10D95F007E1D7F6012EA79AA06A9077BFF7DB012B0
:10D96F0072C87F3C7D187A187B207535029002288B
:10D97F00E0F53612AD9D8F09E509F460119002288C
:0FD98F00E509F07F007E027D007C001288CC222B
:10D28E007E1D7F7412EA79AA06A9077BFF7DB01274
:10D29E0072C890045AE0FFC3940A500BE48F0CF549
:10D2AE000BF50AF509800C750C00750B00750A005C
:10D2BE007509007F3A7D187B01E4F53B1246BE509E
:0BD2CE000990045AE50CF012CDCA22B2
:104EBA007E1D7F7412EA79AA06A9077BFF7DB012CC
:104ECA0072C890045AE0FFC3940A500BE48F0CF5A1
:104EDA000BF50AF509800C750C00750B00750A00B4
:104EEA007509007F3A7D187B01E4F53B1246BE4006
:104EFA0003025243850C307E1D7F9312EA79AA067B
:104F0A00A9077BFF7DB01272C8E53075F00DA424A5
:104F1A0067F582E43404F583E024FE600D24FD6025
:104F2A000E2404700FE4F509800D750901800875D7
:104F3A00090280037509037F3C7D187A187B2C755A
:104F4A00350485093612AD9D8F09E509F47003020F
:104F5A005243AF09EF14601B14602C2402703CE525
:104F6A003075F00DA42467F582E43404F5837401E6
:104F7A00F0803AE53075F00DA42467F582E4340434
:104F8A00F5837402F08026E53075F00DA42467F5E8
:104F9A0082E43404F5837405F08012E53075F00D6F
:104FAA00A42467F582E43404F583740AF012CDCAA6
:104FBA0012EAA312EAC27E1D7FAF12EA79AA06A9F3
:104FCA00077BFF7D301272C8EF6405600302523D11
:104FDA007E177FFA12EA79AA06A9077BFFE4FD1277
:104FEA0072C812000EE4FF12E8E2E4F52B20150560
:104FFA0012CE7A80F812E7B6052BE52BC3940A4045
:10500A00EC752F00752E00752D00752C00E4F52B1C
:10501A0020150512CE7A80F812E7B6E52F2FF52F64
:10502A00E52E3EF52EE52D3DF52DE52C3CF52C051E
:10503A002BE52BC3943240D8E52F2419F52FE435FC
:10504A002EF52EE4352DF52DE4352CF52CAF2FAEAB
:10505A002EAD2DFC7B327A007900780012D74D8F65
:10506A002F8E2E8D2D8C2CE53075F00DA4245BF53A
:10507A0082E43404F583122E9C7E1D7FD512EA79D0
:10508A00AA06A9077BFF7DB01272C87D1A90022872
:10509A00E075F003A42426F9741835F0FA7BFF7F33
:1050AA005C12C346E53075F00DA42463F582E4343E
:1050BA0004F583E0FCA3E0FDA3E0FEA3E0FF7B9FF1
:1050CA007A8679017800C3122D92500E750C0075FC
:1050DA000B00750A007509008021E53075F00DA4F2
:1050EA002463F582E43404F583E0FCA3E0FDA3E045
:1050FA00FEA3E0F50C8E0B8D0A8C097F2D7D187BA3
:10510A0005753B831246BE400302523D7F007E0076
:10511A007D007C00AB0CAA0BA90AA809C3122DA812
:10512A0060167F407E0D7D037C00AB0CAA0BA90A9A
:10513A00A809D3122DA8401D7E187F3512EA79AA34
:10514A0006A9077BFF7D321272C8EF64056003026D
:10515A00523D025083AF0CAE0BAD0AAC09E5307577
:10516A00F00DA42463F582E43404F583122E9C7EA8
:10517A00177FFA12EA79AA06A9077BFFE4FD1272E1
:10518A00C8E4F52B20150512CE7A80F812E7B60589
:10519A002BE52BC3940A40EC752F00752E00752D54
:1051AA0000752C00E4F52B20150512CE7A80F81232
:1051BA00E7B6E52F2FF52FE52E3EF52EE52D3DF529
:1051CA002DE52C3CF52C052BE52BC3943240D8E574
:1051DA002F2419F52FE4352EF52EE4352DF52DE47F
:1051EA00352CF52CAF2FAE2EAD2DFC7B327A007903
:1051FA0000780012D74D8F2F8E2E8D2D8C2CE530F6
:10520A0075F00DA4245FF582E43404F583122E9C14
:10521A007E187F6812EA79AA06A9077BFF7D3112F8
:10522A0072C8BF050B90045AE530F012CDCA80034C
:0A523A0012D8DE12E6D312EAA92210
:10B28D007E1F7F6112EA79AA06A9077BFF7D311225
:10B29D0072C8BF05047F0180027F0090023DEFF070
:10B2AD0060717E1F7F8C12EA79AA06A9077BFF7D4C
:10B2BD00311272C8BF05047F0180027F0090023EEB
:10B2CD00EFF07E1F7FC712EA79AA06A9077BFF7DE3
:10B2DD00311272C8BF05047F0180027F0090023FCA
:10B2ED00EFF060227E1F7FFF12EA79AA06A9077B85
:10B2FD00FF7D311272C8BF05047F0180027F00906F
:10B30D000241EFF08005E4900241F012E8CF12E91E
:10B31D0095800312EA627F007E107D007C0012880A
:02B32D00CC2230
:10957E007E207F2412EA79AA06A9077BFF7DB0120E
:10958E0072C87F0112D89DE4F52BE4F52CE52B75FE
:10959E00F00FA42443F582E43402F583E582252CF2
:1095AE00F582E43583F583E0FF7413252CF582E410
:1095BE003400F583EFF0052CE52CB40FD07F087D39
:1095CE00187A007B1375320FC202126251506BE48F
:1095DE00F52C7413252CF582E43400F583E0B420C9
:1095EE0007052CE52CB40FEAE52CB40F0E2412F56A
:1095FE0082E43400F583E06420603FE4F52C7413BC
:10960E00252CF582E43400F583E0FFE52B75F00F91
:10961E00A42443F582E43402F583E582252CF582F9
:10962E00E43583F583EFF0052CE52CB40FD0052B34
:10963E00E52BC394055003029598E4FF12D89DE5DF
:10964E002B700690023EF0800690023E7401F09060
:10965E000242E52BF07F007E107D007C001288CC4C
:10966E007E207F4D12EA79AA06A9077BFF7D901214
:10967E0072C87F3D7D1A900242E02430FB125244A4
:04968E0012E86F224D
:10CCC10090000C74FFF0A37420F0A37478F074FF4B
:10CCD100A3F0A3F0E4A3F0A3F090000874FFF0A385
:10CCE1007420F0A37481F0A37402F07B017A0079BF
:10CCF10008126846BFFF0280FE900221E0C3940241
:10CD01004004E4F08005900221EFF07F007E207D59
:09CD1100007C001288CC80FE2297
:105C3900E4F524F525FF12D89DE4900553F0900270
:105C49002BE0604E900519E060247E217F69E516FE
:105C590075F005A4FD12E57EAA06A907900008744F
:105C6900FFF0A3EAF0A3E9F0A37405F080467E20D3
:105C79007FF4E51675F005A4FD12E57EAA06A907CD
:105C890090000874FFF0A3EAF0A3E9F0A37405F00B
:105C990080227E207F92E51625E025E0FD12E57E33
:105CA900AA06A90790000874FFF0A3EAF0A3E9F097
:105CB900A37404F090000CE4F0A3F0A3F074FFA324
:105CC900F0A3F0A3E524F0A3E525F07B017A0079A0
:105CD900081268468F2AE52AF47003025F4590028C
:105CE9002BE07002052A900011E0F524A3E0F525C8
:105CF900E4F526F527E52A14601414602114602EB2
:105D090014603124046003025C4712E68A2290027F
:105D19002BE0600412E11822C200125F4C221259D2
:105D290004E4FF12D89DE4900553F0025C4712B3D6
:105D39002F025C477E227F01E51675F008A4FD124B
:105D4900E57EAA06A90790000874FFF0A3EAF0A36C
:105D5900E9F0A37408F07E217FED12EA79AA06A979
:105D69000790000C74FFF0A3EAF0A3E9F074FFA315
:105D7900F0A3F0A3E526F0A3E527F07B017A0079EB
:105D8900081268468F2AE52AF47003025C479000DE
:105D990011E0F526A3E0F527E4F528F529E52AB46D
:105DA90008005090905DB4F8282873025DCC025D1C
:105DB900D2025DDE025DD8025E58025EBF025F3923
:105DC900025F3F129343025D3D12C8B7025D3D1267
:105DD9009692025D3D7E227FD7E51625E025E0FDFE
:105DE90012E57EAA06A90790000874FFF0A3EAF05D
:105DF900A3E9F0A37404F07E227FCB12EA79AA0604
:105E0900A90790000C74FFF0A3EAF0A3E9F074FF6E
:105E1900A3F0A3F0E4A3F0A3F07B017A00790812C0
:105E290068468F2AE52AF47003025D3DE52A14606D
:105E39000F146011146013240370DE12D06E80D920
:105E490012DD6880D412DD9C80CF12D52680CA7EEF
:105E5900237FCEE51625E0FD12E57EAA06A9079067
:105E6900000874FFF0A3EAF0A3E9F0A37402F07E3E
:105E7900237FC612EA79AA06A90790000C74FFF0DD
:105E8900A3EAF0A3E9F074FFA3F0A3F0E4A3F0A35D
:105E9900F07B017A0079081268468F2AE52AF470A6
:105EA90003025D3DE52A1460080470E512B28D8095
:105EB900E012957E80DB7E237F5EE51625E025E0F6
:105EC900FD12E57EAA06A90790000874FFF0A3EA6F
:105ED900F0A3E9F0A37404F07E237F4E12EA79AAB5
:105EE90006A90790000C74FFF0A3EAF0A3E9F07487
:105EF900FFA3F0A3F0E4A3F0A3F07B017A007908F3
:105F09001268468F2AE52AF47003025D3DE52A14DA
:0F5F1900600F146011146013240370DE127D0FEB
:105F280080D912D95F80D412D28E80CF124EBA8017
:105F3800CA12A98C025D3D12E4AB025D3D12E6D3A4
:045F480012EAA9228E
:10D2D90012D15C12DC2C900221E0F51612C0EFE4A9
:10D2E900FF12D89D90022BE060089000FC7401F0B9
:10D2F9008005E49000FCF090010E74FFF0E49000CA
:10D30900FBF09000FAF0C21778FD7C007D017BFFED
:0BD319007AE47919FE7F11122A8A22A3
:10CFCB008E458F468C478D48E4FFE5462FF582E46E
:10CFDB003545F583E493FE7022E5482FF582E43561
:10CFEB0047F583743AF0EF2401FDE433FCE5482D5B
:10CFFB00F582EC3547F583E4F08010E5482FF58298
:10D00B00E43547F583EEF00FBFFABFAA47A9487B7B
:02D01B000122F0
:10A276008F458D46AF03AE0212E35D8F0C8E0B8DBC
:10A286000A8C09AF4612E9768F0AAF4512E9768F36
:10A2960009AF0912EA29EF2430854A82854983F0FD
:10A2A600AF0912EA24EF2430854A82854983A3F058
:10A2B600854A82854983A3A3742EF0AF0A12EA2940
:10A2C600EF2430854A82854983A3A3A3F0AF0A12FF
:10A2D600EA24EF2430FFE54A2404F582E43549F503
:10A2E60083EFF0E54A2405F582E43549F583742EBB
:10A2F600F0AF0B12EA29EF2430FFE54A2406F58277
:10A30600E43549F583EFF0AF0B12EA24EF2430FF72
:10A31600E54A2407F582E43549F583EFF0AF0C12E0
:10A32600EA29EF2430FFE54A2408F582E43549F5A9
:10A3360083EFF0AF0C12EA24EF2430FFE54A24093C
:10A34600F582E43549F583EFF0E54A240AF582E41F
:0DA356003549F583E4F0AA49A94A7B0122AC
:10C168008D408A418B4212E9768F09AF0912EA297C
:10C17800EF2430854282854183F0AF0912EA24EF2B
:10C188002430854282854183A3F08542828541839C
:10C19800A3A3743AF0AF4012E9768F09AF0912EA07
:10C1A80029EF2430854282854183A3A3A3F0AF09F8
:10C1B80012EA24EF2430FFE5422404F582E43541F5
:10C1C800F583EFF0E5422405F582E43541F583E493
:08C1D800F0AA41A9427B0122FB
:10DDD00090023DE060159003B1E0B4030E7F7A7DC0
:10DDE000377BFF7A177962128750227F7A7D3790CE
:10DDF0001763E493247AFBA3E4932437F543C20129
:04DE0000129AAE22A2
:108A42008E408F418C428D439000FCE0C3940550D0
:108A520003028B0B7E197F2B12EA79AA06A9077BE8
:108A6200FFE4FFFD12C346854182854083E0FEA3F9
:108A7200E0FFC3940AEE94005005E4F5448011C36C
:108A8200EF9464EE94005005754404800375440825
:108A9200E5412404F582E43540F583E0FFE5412415
:108AA20005F582E43540F583E0FDE5412406F582D3
:108AB200E43540F583E0FAA3E0FB754900754A13FB
:108AC20012A276E544C313FFC3745A9FFFE4FD125A
:108AD200BF7B7E177F7112EA79AD43AC4212CFCBD6
:108AE200C374789544FFE4FD12BF7B8541828540C3
:108AF20083E0FEA3E0FFE48F0C8E0BF50AF5097FFD
:108B02007FFDFBF548127F01229000FCE070327E6F
:108B1200187FF112EA79AA06A9077BFFE4FFFD128A
:108B2200C346900560E0FFA3E0FD754900754A1356
:108B3200A3E0FAA3E0FB12A2767F67E4FD12BF7BFB
:108B420022900519E060157E197F0E12EA79AA06B5
:108B5200A9077BFFE4FFFD12C346802E90023CE092
:108B620060157E197F1B12EA79AA06A9077BFFE42A
:108B7200FFFD12C34680137E187FFF12EA79AA0610
:108B8200A9077BFFE4FFFD12C346900560E0FFA347
:108B9200E0FD754900754A13A3E0FAA3E0FB12A2B7
:098BA200767F67E4FD12BF7B221F
:108D03009000FCE0C3940540217F567D357BFF7ABC
:108D130015796F1287507E177F7112EA79AA06A917
:108D2300077BFF7F647D3712C3469000FCE070032E
:108D3300028E4CE4FF7D357BFF7A1579361287501E
:108D43009000FCE014B407004003028E1B908D5783
:108D5300F8282873028D6C028D7C028D8C028DD4D1
:108D6300028D7C028D8C028DD47F0E7D377BFF7A42
:108D73001579D0128750028E1B7F0E7D377BFF7AC9
:108D83001579DA128750028E1B7F0E7D377BFF7AAF
:108D93001579E41287507E177F7A12EA79AA06A919
:108DA300077BFF7F647D0F12C3469000FCE0C394F2
:108DB30005400F7F567D0D7BFF7A1479FD12875096
:108DC30080567F567D0D7BFF7A15796F1287508011
:108DD300477F0E7D377BFF7A1579EF12875090001E
:108DE300FCE0C39405400F7F237D357BFF7A147924
:108DF300FD128750800D7F237D357BFF7A15796FB8
:108E03001287507E197F4A12EA79AA06A9077BFFC7
:108E13007F317D3712C3462230012E7F237D357B80
:108E2300FF7A1579231287509000FBE0700E7F3193
:108E33007D387BFF7A157990128750227F317D37F9
:0A8E43007BFF7A157989128750220F
:10A3630090010EE030E72812DC2C7E017F377C0061
:10A373007D13128A427E177F7A12EA797C007D135D
:10A3830012CFCBE4FF7D1412C346C201128D03909A
:10A39300010EE030E2297F69E4FD7B80754308C24A
:10A3A30001129AAE90055FE0FF90055EE0FD7A0032
:10A3B3007B1312C1687F80E4FD12BF7B12DDD09056
:10A3C300010EE020E00302A44F7F407E0D7D037C5D
:10A3D300009004E3E0F8A3E0F9A3E0FAA3E0FBD3E1
:10A3E300122D92400E750C40750B0D750A037509FD
:10A3F30000803F7F617E797DFE7CFF9004E3E0F87F
:10A40300A3E0F9A3E0FAA3E0FBC3122D92500E756B
:10A413000C61750B79750AFE7509FF80159004E3CD
:10A42300E0FCA3E0FDA3E0FEA3E0F50C8E0B8D0A98
:10A433008C097F287D147B4675431CC201129AAE9A
:0DA443007F467D14E4FB754883127F0122E3
:1065500090010EE020E7030266DF12DC2C7E017F53
:10656000377C007D13128A427E177F8712EA797C7E
:10657000007D1312CFCBE4FF7D0B12C346E4FF7402
:10658000C02FF582E43403F583E0FE74132FF58207
:10659000E43400F583EEF00FBF08E4E490001BF054
:1065A000FF74132FF582E43400F583E0B420040F68
:1065B000BF08EEEFC39408500F7F1E7D0B7B017A5E
:1065C00000791312C34680147E4E7FA712EA79AA7F
:1065D00006A9077BFF7F1E7D0B12C3467E177F71C6
:1065E00012EA797C007D1312CFCB7F717D0B12BF35
:1065F0007B9003CCE0FEA3E0FFE48F0C8E0BF50A4A
:10660000F5097F807D0BFBF548127F017E177F9196
:1066100012EA797C007D1312CFCBE4FF7D1412C304
:10662000469003C9E060549003CEE0FEA3E0FFE48F
:106630008F0C8E0BF50AF5097F467D14FB75488398
:10664000127F017F487D157BFF7A15799012875064
:106650009003D0E0FEA3E0FFE48F0C8E0BF50AF56B
:10666000097F6E7D14FB754883127F017F707D1555
:106670007BFF7A15798912875080359003CEE0FE32
:10668000A3E0FFE48F0C8E0BF50AF5097F467D141D
:10669000FB754883127F017D14900228E075F0039A
:1066A000A42426F9741835F0FA7BFF7F4812C346FC
:1066B0007E177F7A12EA797C007D1312CFCBE4FF3C
:1066C0007D1D12C3467E177F9E12EA797C007D13E2
:1066D00012CFCBE4FF7D2612C346C201128D039078
:1066E000010EE030E2297F69E4FD7B80754308C23A
:1066F00001129AAE90055FE0FF90055EE0FD7A0022
:106700007B1312C1687F80E4FD12BF7B12DDD09045
:10671000010EE020E0030267AF7F407E0D7D037C29
:10672000009004E3E0F8A3E0F9A3E0FAA3E0FBD3D0
:10673000122D92400E750C40750B0D750A037509EC
:1067400000803F7F617E797DFE7CFF9004E3E0F86E
:10675000A3E0F9A3E0FAA3E0FBC3122D92500E755B
:106760000C61750B79750AFE7509FF80159004E3BD
:10677000E0FCA3E0FDA3E0FEA3E0F50C8E0B8D0A88
:106780008C097F287D1D7B50754325C201129AAE6E
:106790007F467D1DE4FB754883127F01900517E05D
:1067A000600D7F487D217BFF7A1579A51287509077
:1067B000010EE020E1030268459004E8E0FCA3E05C
:0C67C000FDA3E0FEA3E0F50C8E0B8D0A9B
:1067CC008C097F287D267B4675432EC201129AAE1A
:1067DC007F467D26E4FB754883127F019003C9E058
:1067EC00603E7F007E007D007C009004E8E0F8A312
:1067FC00E0F9A3E0FAA3E0FBD3122D92403B900406
:10680C00ECE0700E7F487D277BFF7A15799012871C
:10681C0050227F487D277BFF7A1579891287502279
:10682C007D26900228E075F003A42426F97418350F
:0A683C00F0FA7BFF7F4812C34622EA
:1042A0008E368F3790010EE020E7030243C312DC05
:1042B0002CAF37AE367C007D13128A427E177FAD5D
:1042C00012EA797C007D1312CFCBE4FF7D0B12C381
:1042D00046E4FF7D157BFF7A1579AA1287507F058A
:1042E0007D147B3A1252447E197F3B12EA797C009E
:1042F0007D1312CFCBE4FF7D1D12C3467F397D1E97
:104300007BFF7A1579B61287507E197F4112EA79C0
:104310007C007D1312CFCBE4FF7D2612C3467F398C
:104320007D277BFF7A1579B61287507F4B7D0D7BF9
:10433000FF7A1579C91287507F527D0B7B3A125252
:10434000447D0B900228E075F003A42426F974182C
:1043500035F0FA7BFF7F7512C3467F4B7D157BFFDF
:104360007A1579B01287507F507D147B3A125244EF
:104370007D14900228E075F003A42426F974183502
:10438000F0FA7BFF7F7512C3467F4B7D1E7BFF7A61
:104390001579C11287507F527D1D7B3A1252447DA0
:1043A0001D900228E075F003A42426F9741835F056
:1043B000FA7BFF7F7512C3469003C9E024FF920188
:1043C000128D039000FCE0C39405503090010EE084
:1043D00030E2297F69E4FD7B80754308C201129AAF
:1043E000AE90055FE0FF90055EE0FD7A007B131262
:1043F000C1687F80E4FD12BF7B12DDD090010EE02A
:1044000020E1030246BD9003C9E0604A9000FBE052
:1044100064017042E5372468F539E43536F538A390
:10442000E0C394054015E53724CEF582E43536F532
:1044300083E0FEA3E08E3AF53B800B9003D0E0FED4
:10444000A3E08E3AF53BE53724D2F582E43536F524
:1044500083E0F53C8042E5372408F539E43536F54C
:10446000389000FCE0C394054015E53724CCF58274
:10447000E43536F583E0FEA3E08E3AF53B800B9001
:1044800003CEE0FEA3E08E3AF53BE53724D1F5827A
:10449000E43536F583E0F53CE5392408F582E4356A
:1044A00038F583E0FEA3E0FFE48F0C8E0BF50AF5F0
:1044B000097F207D0B7B37754313C201129AAE7FB3
:1044C000377D0BE4FBF548127F01AF39AE3812D5CA
:1044D0006E900000122E9C900000E0FCA3E0FDA373
:1044E000E0FEA3E0FF1227508F0C8E0B8D0A8C0983
:1044F0007F557D147B7375431CC201129AAE7F7386
:104500007D14E4FB754883127F01AF39AE38129BEE
:01451000AEFC
:10451100900004122E9C900004E0FCA3E0FDA3E0B7
:10452100FEA3E0FF1227508F0C8E0B8D0A8C097FA2
:10453100197D147B3775431CC201129AAE7F377DFA
:1045410014E4FB754883127F01900004E0FCA3E0B2
:10455100FDA3E0FEA3E0F5558E548D538C529000DF
:1045610000E0FCA3E0FDA3E0FEA3E0FF12D5B3123F
:1045710027508F0C8E0B8D0A8C097F237D1D7B3775
:10458100754325C201129AAE7F377D1DE4FBF548C4
:10459100127F01E53724D0F582E43536F583E060FA
:1045A1000CE4853C0CF50BF50AF509803790000405
:1045B100E0FCA3E0FDA3E0FEA3E0F5558E548D538E
:1045C1008C5290023BE0F556900000E0FCA3E0FD28
:1045D100A3E0FEA3E0FF12A6FD1227508F0C8E0B65
:1045E1008D0A8C097F237D267B3775432EC20112EC
:1045F1009AAE7F377D26E4FBF548127F01AE3AE49F
:10460100853B0C8E0BF50AF5097F557D0B7B737588
:104611004313C201129AAE7F737D0BE4FB7548838D
:10462100127F019003C9E060419000FBE0B4013AC0
:10463100E53724CAF582E43536F583E0FCA3E0FDD5
:10464100E4122717A804A905AA06AB07900000E009
:10465100FCA3E0FDA3E0FEA3E0FF1223F912275023
:104661008F0C8E0B8D0A8C098038E53724C8F582B2
:10467100E43536F583E0FCA3E0FDE4122717A80436
:10468100A905AA06AB07900000E0FCA3E0FDA3E0AA
:10469100FEA3E0FF1223F91227508F0C8E0B8D0A17
:1046A1008C097F557D1D7B73754325C201129AAE1E
:0D46B1007F737D1DE4FB754883127F01229D
:106B1E008E368F3790010EE030E76A12DC2CAF37DD
:106B2E00AE367C007D13128A427F027D297B4F1286
:106B3E00B63E7F037D297B01129DAC7F4F7D297B65
:106B4E0001129DAC7F297D297B01129DAC7D1C908D
:106B5E000228E075F003A42426F9741835F0FA7BA8
:106B6E00FF7F7312C3467E187F0812EA79AA06A920
:106B7E00077BFF7F737D2612C3469003C9E024FF77
:106B8E009201128D039000FCE0C3940550309001E9
:106B9E000EE030E2297F69E4FD7B80754308C20177
:106BAE00129AAE90055FE0FF90055EE0FD7A007BE5
:106BBE001312C1687F80E4FD12BF7B12DDD09001FD
:106BCE000EE0FF20E10620E303026DC5EF20E10396
:106BDE00026CAD9003C9E060149000FBE0B4010DAF
:106BEE00E5372472F539E43536F538800BE5372470
:106BFE0012F539E43536F53875451E754400754382
:106C0E0000754200AF39AE381299AD8F3D8E3C8D76
:106C1E003B8C3A7F037D0B7B51754329C201129A3F
:106C2E00AEE4F53EE5392408F582E43538F5837592
:106C3E00F002E53E122ED9E0FEA3E0FFE4FCFDAB30
:106C4E003DAA3CA93BA83A12D74D8F3FE5392408FF
:106C5E00F582E43538F58375F002E53E122ED9E063
:106C6E00FEA3E0D39400EE94004007E53F70037559
:106C7E003F01E53E25E02403FFC37429953FFDAB9C
:106C8E003F129DACE53E25E02404FFC37429953FD9
:106C9E00FDAB3F129DAC053EE53EC394274085906B
:106CAE0015BEE493FEC313FFC374039FFF7D2BEE4B
:106CBE00244FFBA3E493242BF543C201129AAE900A
:106CCE0015BEE493FFC313FFC374039FFF9000FA36
:106CDE00E025E02FFF7D2B7BFF7A1579BD128750C3
:106CEE009000FAE0FFE4EF24EDFFE434FFFEE4341D
:106CFE00FFFDE434FFFCE5392404F582E43538F574
:106D0E0083E0F8A3E0F9A3E0FAA3E0FB122C5A8586
:106D1E003982853883E0F8A3E0F9A3E0FAA3E02FE7
:106D2E00F50CEA3EF50BE93DF50AE83CF5097F5313
:106D3E007D1C7B71754324C201129AAE9000FAE05D
:106D4E00700F7F6B7D1D7BFF7A15799E12875080A9
:106D5E00229000FAE0B4260F7F6B7D1D7BFF7A1523
:106D6E007997128750800C7F717D1CE4FB754883E8
:106D7E00127F01E5392408F582E43538F583C083A6
:106D8E00C0829000FAE0D082D08375F002122ED924
:106D9E00E0FEA3E0FFE48F0C8E0BF50AF5097F539E
:106DAE007D267B7175432EC201129AAE7F717D26B0
:086DBE00E4FBF548127F0122FD
:10B3CF007E007FFD12AE6190010F122E9C7FFF7EDB
:10B3DF00FF7DFF7CFF90010FE0F8A3E0F9A3E0FAF7
:10B3EF00A3E0FBC3122DA8607490010FE0FCA3E053
:10B3FF00FDA3E0FEA3E0F53E8E3D8D3C8C3BE4F5D6
:10B40F003F7E007FFDC00690010FE0FCA3E0FDA38F
:10B41F00E0FEA3E0F5588E578D568C55D00612A836
:10B42F00B590010F122E9C7FFF7EFF7DFF7CFF905A
:10B43F00010FE0F8A3E0F9A3E0FAA3E0FBC3122D9C
:10B44F00A8700FAF3EAE3DAD3CAC3B90010F122E3E
:0EB45F009C22053FE53FC3940840A6808C2246
:10E1C00090022BE0700B90010F122EA8FFFFFFFFB3
:10E1D0002278FD7C007D017B017A02790A7E007F36
:08E1E00011122A8A12B3CF22AA
:10DF5A008F398E388D378C367E017F2685396685D6
:10DF6A0038658D648C637567007568D312CF7890B5
:10DF7A0000FD122E9C7E007FFD128F9212B3CF22DB
:10C49A0090010FE0FCA3E0FDA3E0FEA3E0F53A8ED5
:10C4AA00398D388C37E4F5367E007FFD853A58851C
:10C4BA00395785385685375512A8B58F3A8E398D32
:10C4CA00388C377FFF7EFF7DFF7CFFAB3AAA39A904
:10C4DA0038A837C3122DA8700E7E007FFD12AE61F8
:10C4EA0090010F122E9C220536E536C3940840B8F7
:0FC4FA00AF3AAE39AD38AC3790010F122E9C22FD
:10C7ED0090010FE0FCA3E0FDA3E0FEA3E0F53A8E7F
:10C7FD00398D388C37E4F5367E007FFD853A5385CB
:10C80D00395285385185375012ACD48F3A8E398DC7
:10C81D00388C377FFF7EFF7DFF7CFFAB3AAA39A9AD
:10C82D0038A837C3122DA8700412B3CF220536E5F0
:10C83D0036C3940840C2AF3AAE39AD38AC3790012B
:05C84D000F122E9C22D9
:10AA5F008F428E418D408C3F900108E0FF90010D99
:10AA6F00E06F6012E5422401FFE43541FEE435401A
:10AA7F00FDE4353FFC22900109E0FCA3E0FDA3E0DB
:10AA8F00FEA3E0FFAB42AA41A940A83FD3122DA8D5
:10AA9F004020900109E0F8A3E0F9A3E0FAA3E0FB5E
:10AAAF00C3E5429BFFE5419AFEE54099FDE53F98DE
:10AABF00FC22900101E0FCA3E0FDA3E0FEA3E02453
:10AACF00FFFFEE34FFFEED34FFFDEC34FFFC900191
:10AADF0009E0F8A3E0F9A3E0FAA3E0FBC3122DA865
:10AAEF007009AF42AE41AD40AC3F22900101E0FC96
:10AAFF00A3E0FDA3E0FEA3E02542FFEE3541FEED0E
:10AB0F003540FDEC353FFC900109E0F8A3E0F9A3D7
:10AB1F00E0FAA3E0FBC3EF9BFFEE9AFEED99FDEC8D
:03AB2F0098FC226D
:10791500E4F53EF53D90010FE0FCA3E0FDA3E0FE9C
:10792500A3E0F53B8E3A8D398C38E4FF7D017B80F1
:1079350075420612CD1A7FFF7EFF7DFF7CFFAB3BB4
:10794500AA3AA939A838C3122DA870157E197F54F3
:1079550012EA79AA06A9077BFF7F407D1B12A61AAA
:1079650022E4F53C7FFF7EFF7DFF7CFFAB3BAA3A1F
:10797500A939A838C3122DA87003027B157E007F94
:10798500FDC006853B58853A578539568538557566
:107995005901755A13E4F55BF55C900105E0FEA30A
:1079A500E08E5DF55ED00612D495AF3BAE3AAD39AB
:1079B500AC3812AA5F8F0C8E0B8D0A8C09E53E75CB
:1079C500F044A42413FFE53D75F009A4240BFDE460
:1079D500FBF548127F01E53E75F044A42414FFE54C
:1079E5003D75F009A4240BFD7B3A12524490011316
:1079F500E020E503027ABB7E017F1312DA1B8F0CB0
:107A05008E0B8D0A8C097F9F7E867D017C00AB0CD9
:107A1500AA0BA90AA809D3122DA8400C750C9F75AD
:107A25000B86750A01750900E53E75F044A42430FE
:107A3500FFE53D75F009A4240BFDE4FB75488312B1
:107A45007F019003C9E06041900113E030E41DE53A
:107A55003E75F044A42432FFE53D75F009A4240CDD
:107A6500FD7BFF7A157989128750806FE53E75F0A9
:107A750044A42432FFE53D75F009A4240CFD7BFFE9
:107A85007A1579901287508052E53E75F044A4240A
:107A950032FFC007E53D75F009A4240BFD900228CF
:107AA500E075F003A42426F9741835F0FA7BFFD0AD
:107AB5000712C3468025900115E0541FFFE4FD7AA7
:107AC500007B1312C168E53E75F044A42431FFE53F
:107AD5003D75F009A4240BFD12BF7B7E007FFD855B
:107AE5003B58853A5785395685385512A8B58F3B89
:107AF5008E3A8D398C38053DE53DC3940440050526
:107B05003EE4F53D053CE53CC39408500302796924
:017B1500224D
:10BFF8008E368F3790010EE030E71912DC2CAF3700
:10C00800AE367C007D13128A429003C9E024FF9269
:10C0180001128D039000FCE0C39405503090010E8E
:10C02800E030E2297F69E4FD7B80754308C2011294
:10C038009AAE90055FE0FF90055EE0FD7A007B1305
:10C0480012C1687F80E4FD12BF7B12DDD090010E23
:10C05800E0FF20E10330E413EF30E10C9000FCE056
:0CC06800C39405500312E1C012791522A8
:1059040090023CE060137E197F5412EA79AA06A93A
:10591400077BFF7D101272C82290022BE0600312F5
:10592400C5097F0112D89DE4900553F012DC2CD2F6
:10593400007E017F2612B5098F2E8E2D8D2C8C2B87
:105944007FFF7EFF7DFF7CFFAB2EAA2DA92CA82B09
:10595400C3122DA8700AFF12D89DE4900553F022BB
:105964009000FCE0F5339000FBE0F5349000FAE0A1
:10597400F5359000FC7405F0E49000FBF09000FA1B
:10598400F090010E74FFF0300052C2007E017F26B9
:10599400852E58852D57852C56852B5575590075A0
:1059A4005A27E4F55BF55CF55D755ED312D49590EA
:1059B40000FCE024FA6010146016240270197E00C2
:1059C4007F271242A080107E007F27126B1E800763
:1059D4007E007F2712BFF8E490010EF012E2CCEFB4
:1059E400122F455A63015AEA025A3D035A09045BCD
:1059F40071055C19065C19435AC3815B4A825BB327
:105A0400850000598B12E9A49000FCE0C394075070
:105A140005E004F080069000FC7405F09000FCE0C2
:105A2400B4070BAF2EAE2DAD2CAC2B12DF5A900168
:105A34000E74FFF0D20002598B9003C9E070030288
:105A4400598B12E9A49000FBE0700404F08005E493
:105A54009000FBF090010E74FFF0D20002598B7E8F
:105A6400017F26852E53852D52852C51852B50126E
:105A7400ACD48F328E318D308C2F7FFF7EFF7DFF33
:105A84007CFFAB32AA31A930A82FC3122DA8700312
:105A940002598B12E9A485322E85312D85302C854F
:105AA4002F2B9000FCE0B4070BAF2EAE2DAD2CAC29
:105AB4002B12DF5A90010E74FFF0D20002598B12A0
:095AC400E9A47E017F2612AE6107
:105ACD008F2E8E2D8D2C8C2B9000FCE0B4070312A5
:105ADD00DF5A90010E74FFF0D20002598B7E017FC8
:105AED0026852E58852D57852C56852B5512A8B5F4
:105AFD008F328E318D308C2F7FFF7EFF7DFF7CFFAF
:105B0D00AB32AA31A930A82FC3122DA870030259A8
:105B1D008B12E9A485322E85312D85302C852F2BC6
:105B2D009000FCE0B4070BAF2EAE2DAD2CAC2B12BC
:105B3D00DF5A90010E74FFF0D20002598B12E9A4C6
:105B4D007E017F2612B5098F2E8E2D8D2C8C2B90DC
:105B5D0000FCE0B4070312DF5A90010E74FFF0D27F
:105B6D000002598B9000FCE024F9602804600302C8
:105B7D00598B12E9A49000FAE0C394265005E00475
:105B8D00F08005E49000FAF090010EE04408F0D2A8
:105B9D000002598B12E9A412C49A90010EE0441030
:105BAD00F0D20002598B9000FCE024F960290460CA
:105BBD000302598B12E9A49000FAE0D3940040053A
:105BCD00E014F080069000FA7426F090010EE04487
:105BDD0008F0D20002598B12E9A412C7ED90010E04
:105BED00E04410F0D20002598B12E9A49000FAE0C3
:105BFD00D394004005E014F080069000FA7426F06E
:105C0D0090010EE04408F0D20002598B12E9A4E491
:105C1D00FF12D89DE4900553F09000FCE533F09011
:0C5C2D0000FBE534F09000FAE535F022B1
:10E1E80012DC2C90174CE493FFC313FFC374409FB9
:10E1F800FFA3E493FEC313FEC374209EFD7BFF7A46
:07E2080017794B1287502229
:10CED00090010EEFF07F0112D89DE4900553F09081
:10CEE00000FCE014601214601414601A1460202412
:10CEF00004702312A363801E12655080197E017F87
:10CF0000371242A080107E017F37126B1E80077E91
:10CF1000017F3712BFF8E4FF12D89DE4900553F06B
:05CF200090010EF0225B
:10C0EF007F0112D89D7F057D057BFF7A1579F912A7
:10C0FF0087507E187F1012EA79AA06A9077BFF7F67
:10C10F007B7D0512BF7B7F007E0112E2F1E48F0C75
:10C11F008E0BF50AF5097F7A7D0CFB754882127F2D
:10C12F00017F6A7D1E7BFF7A17796A128750900212
:10C13F0020E0FF75F00A842430900013F0EF75F0C3
:10C14F000A84E5F02430A3F0E4A3F07F7B7D1C7B11
:09C15F00017A00791312BF7B2262
:0FE986009000FBE0700304F022E49000FBF0220D
:10E8BC009000FAE0C394265004E004F022E49000A7
:03E8CC00FAF0223D
:10E847009000FAE0D394004004E014F0229000FA1C
:04E857007426F02211
:10DCCB0090023CE060149000FCE0C394035004E02D
:10DCDB0004F0229000FC7401F0229000FCE0C3944D
:10DCEB0004500BE004F0E0B4040A12E1C0229000EF
:05DCFB00FC7401F022A1
:10D1A900D2189004DD122EA800000000E49004E1DA
:10D1B900F0A304F0A3122EA800000000E49004E7F5
:10D1C900F0A3122EA800000000E49004ECF012E88D
:10D1D9005B900513122EA80001869FE4900517F0B5
:0DD1E900A3F0A3F012E0C2E4FF12E8E2227E
:10E85B007E047FED900227E0FD12E4E87E047FED5D
:04E86B0012E0142281
:10E90400A206E433900519F0300605E4900517F0EB
:01E9140022E0
:106DC6008E418F428C438D448F828E83C083C082D6
:106DD600E0F8A3E0F9A3E0FAA3E0FB8F828E83E557
:106DE600822404F582E43583F583E0FFC313FFE4D0
:106DF600FCFDFEEB2FFFEE3AFEED39FDEC38FCD044
:106E060082D083122E9C854282854183C083C082B4
:106E1600E0FCA3E0FDA3E0FEA3E0FFC004C005C0C4
:106E260006C007E5422404F582E43541F583E0FF18
:106E3600E4FCFDFEF8F9FAAB07D007D006D005D082
:106E46000412D74DD082D083122E9C85448285436E
:106E560083E0F8A3E0F9A3E0FAA3E0FBE544240409
:106E6600F582E43543F583E0FCA3E0FDA3E0FEA351
:106E7600E0C39BFFEE9AFEED99FDEC98FCE54224FB
:106E860006F582E43541F583122E9C8542828541C2
:106E960083C083C082E0FCA3E0FDA3E0FEA3E0FF85
:106EA600854482854383E0F8A3E0F9A3E0FAA3E0F2
:106EB600FBC3EF9BFFEE9AFEED99FDEC98FCD082AA
:106EC600D083122E9CE5442408F582E43543F583ED
:106ED600E0FCA3E0FDA3E0FEA3E0FFEC122712C056
:106EE60004C005C006C007854282854183E0FCA335
:106EF600E0FDA3E0FEA3E0FFEC122712D003D002D0
:106F0600D001D0001224EEC004C005C006C007E5BB
:106F1600422406F582E43541F583E0FCA3E0FDA3B7
:106F2600E0FEA3E0FFEC122712A804A905AA06AB0F
:106F360007D007D006D005D0041225F78F488E4714
:106F46008D468C457F007E007D007C00AB48AA47BD
:106F5600A946A8451226944041AB48AA47A946A887
:106F660045C000C001C002C003E544240CF582E41C
:106F76003543F583E0FCE412271C7B007A00790098
:106F860078401225F7D003D002D001D0001223FD9D
:106F96008F488E478D468C458047AF48AE47AD46F5
:106FA600AC45C004C005C006C007E544240CF58204
:106FB600E43543F583E0FCE412271C7B007A007974
:106FC6000078401225F7A804A905AA06AB07D00742
:106FD600D006D005D0041223F98F488E478D468CF3
:106FE60045AF48AE47AD46AC45122750E5422406AC
:106FF600F582E43541F583122E9CE544240CF58296
:10700600E43543F583E0FFD39401404FE4FCFDFEF5
:10701600A804A905AA06AB07E5422406F582E435CD
:1070260041F583E0FCA3E0FDA3E0FEA3E0FF12D759
:107036004DA804A905AA06AB07E544240CF582E48D
:107046003543F583E0FFE4FCFDFE122C5AE54224AD
:0C70560006F582E43541F583122E9C22E1
:107711008B418A428943C206C207E92410F9E43A3F
:10772100FEAF01C006C007A943900006122DE08FED
:10773100518E508D4F8C4ED007D00612BC5FE54361
:107741002410F9E43542FEAF0112E5064002C322DE
:10775100E5432410F9E43542FEAF01C006C00790AD
:1077610003CEE0FEA3E0FFE4FCFDF8F9AA06AB07B7
:10777100900226E0FFE4FE122C5A7BE87A0379009E
:10778100780012D74D8F518E508D4F8C4ED007D02F
:107791000612C7874029AB41AA42A94390003A1279
:1077A1002ACC600CE92410F9E43AFEAF0112E0148E
:1077B100AB41AA42A94390003AE4122B3EC322AB4B
:1077C10041AA42A94390003A122ACC6002C32290F6
:1077D100003A7401122B3EE92410F9E43AFEAF019C
:1077E10012BB4B8F478E468D458C44AB41AA42A9B3
:1077F10043900036122E60C3E5479BF54BE5469A50
:10780100F54AE54599F549E54498F548AB41AA4261
:10781100A943900036122E109003D2E0FCA3E0FDA4
:10782100A3E0FEA3E0FFAB4BAA4AA949A848D312A3
:107831002D92501A9003D6E0FCA3E0FDA3E0FEA335
:10784100E0FFA848C3122D924004D206803A90036B
:10785100C9E060349003DAE0FCA3E0FDA3E0FEA3FD
:10786100E0FFAB4BAA4AA949A848D3122D92501860
:107871009003DEE0FCA3E0FDA3E0FEA3E0FFA84847
:10788100C3122D924002D207200605200702C3220F
:1078910030066130075E9003D0E0FEA3E0FFE4C351
:1078A100EF954BFFEE954AFEE49549FDE49548FCC2
:1078B10012DE04C004C005C006C0079003CEE0FE7E
:1078C100A3E0FFE4C3EF954BFFEE954AFEE4954933
:1078D100FDE49548FC12DE04A804A905AA06AB073D
:1078E100D007D006D005D004D3122D925004C20780
:1078F1008002C206AF4BAE4AAD49AC48AB41AA4289
:10790100A94390000B122E10A207E43390000F122E
:047911002B3ED32214
:1097A100E49004E7F0201802C322201502C322909E
:1097B10004DDE0F8A3E0F9A3E0FAA3E0FBC000C0F8
:1097C10001C002C00312E7B6D003D002D001D0001D
:1097D100EB2FFFEA3EFEE93DFDE83CFC9004DD1283
:1097E1002E9C9004E1E004F0E0C394045002C322F3
:1097F1009004E2E06013E4F09004DD122EA8000072
:109801000000E49004E1F0C3227E047FDD90045A5D
:10981100E075F00DA4245BF582E43404AD82FC1202
:109821006DC69004DD122EA800000000E49004E152
:10983100F090010EE04401F09004E77401F0900211
:109841002BE07002C3229003CEE07002A3E060100F
:109851009003C9E0600C9003D0E07002A3E07002B5
:10986100C322E4FF9003CAE0FEF46016A3E0FDF416
:10987100601090055FE0FCC39E4005ECD39D400263
:109881007F01900518E06F600FEFF024FF92061240
:10989100E90490010E74FFF0900519E06002C32203
:0A98A1007B017A0479DD12771122B1
:10E6D300D2189004E27401F07E047FED12E014126C
:08E6E300000EE4FF12E8E22240
:03EAC200C2182255
:10E40800000010000000017315EEFEFF0000000080
:10E4180000000000000000070900037FFF00000063
:02E428000000F2
:10AB320012D5F8400812DBBDE4FF12C9DD90023CD9
:10AB4200E0600412E6222278267C017D017BFF7AF6
:10AB5200E479087E007F11122A8A780A7C027D013C
:10AB62007BFF7AE479197E007F11122A8A7E017FA7
:10AB720026128F9290022BE0700302AC047E017FBA
:10AB82002612B5098F3B8E3A8D398C387FFF7EFFB6
:10AB92007DFF7CFFAB3BAA3AA939A838C3122DA886
:10ABA200700412D85A227E017F26853B58853A5777
:10ABB200853956853855755901755A20755B00756A
:10ABC2005C02755D00755E0612D4957E017F397C4C
:10ABD200017D2012CBB2400412D85A227E017F2678
:10ABE200853B66853A658539648538637567007586
:10ABF20068D312CF7890020A122E9C7E027F0A122C
:03AC02008F92220C
:10B7F8008F448E438D428C41E54570347E017F3FF6
:10B80800C006C007AF44AE43EC1227128F4B8E4AD6
:10B818008D498C48D007D00612BE757E017F4985B8
:10B8280044588543578542568541551280EE8036E7
:10B838007E017F9FC006C007AF44AE43AD42AC4116
:10B84800EC1227128F4B8E4A8D498C48D007D006B0
:10B8580012BE757E017FA985445885435785425697
:10B868008541551280EEE4FF12C9DD90023CE0707C
:10B878000EAF44AE43AD42AC4185454A12C8522290
:10DA970078397C017D017B017A05795E7E007F06FE
:10DAA700122A8A90023CE0700630A00312D817E4CD
:10DAB700FF12C9DD90023CE0600990013AE0FF12D5
:0CDAC700E5422290013AE0FF12E5242223
:10E96600E54524FF9206E54624FF920712B46D2280
:10C5090090023CE070667E017F2612B5098F448E49
:10C51900438D428C417E017F268544588543578D42
:10C52900568C55755901755A20755B00755C0275F5
:10C539005D00755E0612D4957E017F397C017D20F0
:10C5490012CBB250247E017F2685445885435785F6
:10C559004256854155755901755A37E4F55BF55CC5
:0DC56900F55D755ED312D2422212D85A221F
:10C1E00090023CE07071900215E0FF90021AE06F3F
:10C1F000600320A007E4900207F0805290020774C9
:10C2000001F07E017F3F12D56E8F478E468D458CA3
:10C21000447E027F0AE4FD90023BE0F548129465FB
:10C22000900208EFF09003C9E060237E017F9F1227
:10C23000D56E8F478E468D458C447E027F0A7D01E8
:10C2400090023BE0F548129465900209EFF030A0AF
:08C250000312D81712C50922E0
:10D6C5007E017F3F12D56E1227508E418F42900307
:10D6D500C9E060107E017F9F12D56E1227508E43E0
:10D6E5008F448005E4F543F54412DBBD9001FFE569
:10D6F50041F0A3E542F0A3E543F0A3E544F07F0143
:04D7050012C9DD2246
:10B888007E017F4912E236501D9003CEE0FEA3E010
:10B89800FFE4FCFD900149122E9C7E017F49900235
:10B8A80029E0FD129F9E9003C9E060267E017FA9D2
:10B8B80012E236501D9003D0E0FEA3E0FFE4FCFD49
:10B8C8009001A9122E9C7E017FA9900229E0FD1209
:10B8D8009F9E9003CCE0FFA3E0900137CFF0A3EF49
:10B8E800F09003CEE0FFA3E0900203CFF0A3EFF0C7
:10B8F8009003D0E0FFA3E0900205CFF0A3EFF07F24
:0EB908000112C9DD90023CE0700312D85A22F1
:10A450008F457E017F2612B5098F498E488D478C26
:10A46000467FFF7EFF7DFF7CFFAB49AA48A947A836
:10A4700046C3122DA87005FFFEFDFC22E5457025A0
:10A480007E017F268549588548578547568546551C
:10A49000755901755A16F55B755C08F55D755E0AB0
:10A4A00012D49580257E017F268549588548578599
:10A4B0004756854655755901755A16755B00755C8A
:10A4C00068755D00755E0A12D4957E017F1612D5FF
:10A4D0006E8F4D8E4C8D4B8C4A7F007E007D007CB4
:10A4E00000AB4DAA4CA94BA84A122694600E400C12
:10A4F000AF4DAE4CAD4BAC4A122750227E017F26A9
:10A5000085495385485285475185465012ACD48FB2
:10A51000498E488D478C467FFF7EFF7DFF7CFFABD9
:10A5200049AA48A947A846C3122DA8600302A47CE3
:05A53000FFFEFDFC220E
:10DA1B00AB07AA068B828A83A3E0FEA3E0FFE48F09
:10DA2B00568E55F554F553AE02AF038F828E83E0BD
:10DA3B0030E012E556F556E555F555E5544401F53C
:0EDA4B0054E553F553AF56AE55AD54AC5322CF
:10E6070090023CE0600512EA5A80077E017F2612DD
:0BE61700D01D12DBBDE4FF12C9DD22A4
:10DBBD007E017F3F12DE387E017F9F12DE387E01AF
:10DBCD007F4912E5EC7E017FA912E5ECE49001FF9F
:10DBDD00F0A3F0A3F0A3F0A3F0A3F0A3F0A3F0A3A0
:08DBED00F0A37464F0A3F02220
:10D5F800E4F53CF540753D01753E37F53FAF3C0518
:10D608003C7E0012E71A853E82853D83EFF0E025D7
:10D6180040F540053EE53E7002053D053FE53FC348
:10D6280094D340D9AF3C7E0012E71AE540F46F600E
:05D6380002C322D32211
:10C9DD0020A003EF605878397C017D017B017A0539
:10C9ED00795E7E007F06122A8AE4F546F54A754780
:10C9FD0001754837F549AF4605467E008548828565
:10CA0D004783E0FD12E5D1854882854783E0254ABD
:10CA1D00F54A0548E548700205470549E549C394BF
:0FCA2D00D340D3AF467E00E54AF4FD12E5D12297
:10BCE6008F41E541B4010E75420175439F754401CC
:10BCF6007545A9800C75420175433F75440175452C
:10BD060049E5432408F582E43542F583E0FEA3E0E5
:10BD16004E6052AF43AE4212D56E1227508F498EF7
:10BD2600488D478C467F007E007D007C00AB49AA8B
:10BD360048A947A846D3122D92402AAF49AE48AD2E
:10BD460047AC46854582854483122E9CAF45AE445A
:10BD5600900229E0FD129F9E7E027F0AAD45AC440B
:06BD6600AB4112AF2422E4
:10D81700900215E0FF90021AE0FE6F603590021447
:10D82700E0FFEEB5071C7F007E007D007C009002C4
:10D8370016E0F8A3E0F9A3E0FAA3E0FBC3122DA8D2
:10D847006010E4FF12BCE69003C9E060057F011297
:03D85700BCE6220A
:10C852008F498E488D478C46E549F549E548F548AC
:10C86200E5475401F547E4F54690021CE548F0A37C
:10C87200E549F07FFF7EFF7D007C00FBAA48A947C7
:10C88200A846D3122D92400890021B7421F0800614
:10C8920090021B7420F0E54A600790021BE04410EE
:10C8A200F07E027F0A7C027D1B900212E0FAA3E076
:05C8B200FB12A094221E
:10E52400E490021BF0A3F0A3EFF07E027F0A7C02CA
:0EE534007D1B900212E0FAA3E0FB12A09422DD
:10D85A007E017F267C017D377BD37A0012A0947EDD
:10D86A00017F2612B5098F488E478D468C457E0169
:10D87A007F268548668547658D648C637567007564
:10D88A0068D312CF7890020A122E9C7E027F0A1267
:03D89A00D01D227C
:109465008E418F428D43E543B4010575431080035A
:10947500E4F543C374649548FDE49400FCE41227C5
:1094850017AB47AA46A945A8441224EE7B007A00EB
:1094950079C878421225F7C004C005C006C007E5A3
:1094A500482464FDE433FCE4122717AB47AA46A918
:1094B50045A8441224EE7B007A0079C8784212252B
:1094C500F78F548E538D528C518547588546578555
:1094D5004556854455D007D006D005D00412DEFA8E
:1094E500AF42AE4112AE618F4C8E4B8D4A8C497F97
:1094F500FF7EFF7DFF7CFFAB4CAA4BA94AA849C361
:10950500122DA86070854C58854B57854A5685495C
:1095150055755902755A1BE4F55BF55CE54224085F
:10952500F582E43541F583E0FEA3E08E5DF55EAF9F
:1095350042AE4112D49590021BE0FF30E513541062
:10954500B5430E7E027F1B12DA1BEC12271212CADC
:109555009B854C58854B57854A56854955AF42AE34
:109565004112A8B58F4C8E4B8D4A8C4975A61E7538
:09957500A6E10294F412C97D2262
:10AF24008E4A8F4B8C4C8D4D8B4EE54EB40105757E
:10AF34004E108003E4F54EAF4DAE4C12E5ECAF4B32
:10AF4400AE4A12AE618F528E518D508C4F7FFF7E70
:10AF5400FF7DFF7CFFAB52AA51A950A84FC3122D0D
:10AF6400A86078855258855157855056854F557538
:10AF74005902755A1BE4F55BF55CE54B2408F58230
:10AF8400E4354AF583E0FEA3E08E5DF55EAF4BAE9B
:10AF94004A12D49590021BE0FF30E51B5410B54EC5
:10AFA400167E027F1B12DA1B8F588E578D568C55D6
:10AFB400AF4DAE4C1280EE85525885515785505690
:10AFC400854F55AF4BAE4A12A8B58F528E518D5056
:0CAFD4008C4F75A61E75A6E102AF51223D
:10E9150000001000000A97F900037FFF00000000C7
:01E9250000F1
:10E62200781D7C057D017BFF7AE979157E007F11DB
:0BE63200122A8A7E057F1D128F9222A3
:08EA5A007E057F1D12D01D2274
:10B46D008F4A8E498D488C477F007E007D007C0081
:10B47D00AB4AAA49A948A847C3122D92501B900563
:10B48D001A740CF0AF4AAE49AD48AC47122D848FFB
:10B49D004A8E498D488C47800690051A7408F0E550
:10B4AD004AF54AE549F549E5485403F548E4F547B9
:10B4BD0090051BE549F0A3E54AF090051AE0FBAFB6
:10B4CD004AAE49AD48AC477810122DCCEF5403FF6E
:10B4DD00E4EB4F90051AF0300604E04420F03007FD
:10B4ED000790051AE04410F07E057F1D7C057D1A3E
:0CB4FD00900525E0FAA3E0FB12A09422C9
:10E54200E490051AF0A3F0A3EFF07E057F1D7C0591
:0EE552007D1A900525E0FAA3E0FB12A09422AA
:10E46C00D216E4F52B12E883EF543CFFBF2C04C208
:10E47C0016D322052BE52BC3940340E9C216C32205
:10A53500E4F52CF52DF52EF52F75A61E75A6E12053
:10A54500A00302A617C216AF2DAE2CAD2FAC2E124E
:10A55500D10EE4F52B12EA03743E252BF582E43483
:10A5650005F583EFF0052BE52BC3941040E712EAC0
:10A57500AFD216AF2FAE2E12E44BE4F52B743E2569
:10A585002BF582E43405F583E0FF120003052BE586
:10A595002BC3941040E712EAAF7410252FF52FE472
:10A5A500352EF52EC39402405FAE2CAF2D7C007D79
:10A5B5003E122B74ED4C7036753308AE2CAF2DFC66
:10A5C500FD7B42FAF9F8122C5A7B007A1079007853
:10A5D5000012D74D8E348F35E4F536F537F53875DD
:10A5E5003964753AFF7B6B7D287F0A1298ABE4F5D9
:10A5F5002EF52F12E4CAAF2DAE2C12DBF512E4CAEC
:10A60500052DE52D7002052CC3E52C941050030291
:05A61500A53EC2162263
:10A18500E4F52CF52DF52EF52F75A61E75A6E12007
:10A19500A00302A272C216AF2DAE2CAD2FAC2E12AB
:10A1A500D10EE4F52B12EA03743E252BF582E43437
:10A1B50005F583EFF0052BE52BC3941040E712EA74
:10A1C500AFD216AF2DAE2CAD2FAC2E12D10EE4F5BD
:10A1D5002B12EA03743E252BF582E43405F583E062
:10A1E5006F600712EAAFC216C322052BE52BC39495
:10A1F5001040DE12EAAF7410252FF52FE4352EF549
:10A205002EC39402405DAE2CAF2D7C007D78122BC1
:10A2150074ED4C7041753308AE2CAF2DFCFD7B22DF
:10A22500FAF9F8122C5A7B007A107900780012D7C7
:10A235004DEF2442FFE43EFEE43DE43C8E348F3591
:10A24500E4F536F537F538753964753AFF7B6B7D7E
:10A25500287F0A1298ABE4F52EF52F052DE52D7014
:10A2650002052CC3E52C9410500302A18EC216D30F
:01A2750022C6
:10DAD30030A037D2167F007E007D007C0012D36E0B
:10DAE300752B02752C8FE4F52D12BD6C852C828568
:10DAF3002B83EFF0052CE52C7002052B052DE52D6E
:0BDB0300C3947140E412EAAFC2162286
:109CAD00E4F52CF52DF52E752F70E52D7F0025E0B3
:109CBD00FEEF252FF531E52E3EF53020A003029D58
:109CCD00ABD216AF2DAE2CAD2FAC2E12D10EE4F5BE
:109CDD002B12EA03743E252BF582E43405F583EF50
:109CED00F0052BE52BC3941040E712EAAFC216AF77
:109CFD002FAE2E12E44BE4F52BAE30AF31E4FCFD6C
:109D0D007B71FAF9F8D3122D925012743E252BF572
:109D1D0082E43405F583E0FF120003801912EAAFE7
:109D2D00AF2B7E00E52F252BCFEE352ECF2401CF87
:109D3D003400FE12E44B0531E53170020530AE30D2
:109D4D00AF31E4FCFD7B537A0AF9F8D3122D925012
:109D5D001112EAAF12E4CAAF2DAE2C12DBF512E4EC
:109D6D00CA22052BE52BC39410408E12EAAF741056
:109D7D00252FF52FE4352EF52EC394025003029CAA
:109D8D00C8E4F52EF52F12E4CAAF2DAE2C12DBF57B
:0F9D9D0012E4CA052DE52D7002052C029CC82288
:10E78B0030A00A7FD07E0712DF8A20A00875A61E54
:06E79B0075A6E180EB22EF
:10AC05005354415455530053544154002564200076
:10AC15005343414C4553200042414C414E4345204E
:10AC250000464C4F434B20004C4F542000444159A3
:10AC350020004A4F5552200046454D414C45533A58
:10AC4500200046454D454C4C453A20004D414C456C
:10AC5500533A20004D414C453A2000436E74200084
:10AC65004E62200041766720004D6F7920004761D4
:10AC7500696E2000474D51200053696720004574D7
:10AC85007920004376200043762000556E69200028
:10AC9500486F6D200053544F505045440041525267
:10ACA5004554005745494748494E47005045534587
:10ACB5004500504155534544005041555345004FBB
:0FACC5004E4C494E4500454E204C49474E4500E8
:10E8CF0090023DE0600C12E896E49003B1F0A3F0E3
:03E8DF00A3F02281
:0FE9950090023DE06008C2A19003B17401F0222E
:08EA6200D2A1E49003B1F022FF
:10D709009003B1E024FE602414602D2402703412C9
:10D71900D63D502F9003B17402F0E4F542AF4212A6
:10D72900E6710542E542C3940A40F22212E0ED5047
:10D73900129003B17403F02212E0ED40069003B198
:04D749007401F02255
:10AFE000E4F54190023DE0700302B09012D7099061
:10AFF00003B1E064036016A3E06401600302B09053
:10B00000A3E0600314F022E49003B2F0229003B2B4
:10B01000E0B4010812D99EE49003B2F0E4FF7C038F
:10B020007D001285D18F41E541F46064E5416060A7
:10B030007E037F0012E3169003BEE024A1F582E4B4
:10B040003403F583E4F012E2A7504090023FE06041
:10B050003A78007C037D017BFF7AAC79051230F3EE
:10B06000EF700C7FF47E0112DF8A12B766801C78C5
:10B07000007C037D017BFF7AAC790C1230F3EF701A
:10B080000A7FF47E0112DF8A12DE69E4FF12E671A4
:01B09000229D
:10B916007EAC7F1512EA79AA06A9077BFF78007C20
:10B92600037D011231DC7551FF7552AC75531190D0
:10B936000220E0755400F5557B017A0379B4123E76
:10B94600947551017552037553B47B017A037900DE
:10B9560012CE227EAC7F3212EA79AA06A907755169
:10B96600FF8A5289537B017A03790012CE227551E0
:10B97600FF7552AC755311900137E0FEA3E08E546B
:10B98600F5557B017A0379B4123E947551017552CF
:0EB99600037553B47B017A03790012CE22228E
:109EA600E4F54EE50930E72CAF0CAE0BAD0AAC0974
:109EB600122D77EF2401F50CE43EF50BE43DF50A8F
:109EC600E43CF50974B4254EF582E43403F5837455
:109ED6002DF0054EAF0CAE0BAD0AAC0912DB498F67
:109EE6000C8E0B8D0A8C09AF0A12EA24EFD394006C
:109EF6004018AF0A12EA24EF2430FF74B4254EF559
:109F060082E43403F583EFF0054EAF0B12EA29EF36
:109F16002430FF74B4254EF582E43403F583EFF064
:109F2600054E74B4254EF582E43403F583742EF0A1
:109F3600054EAF0B12EA24EF2430FF74B4254EF51C
:109F460082E43403F583EFF0054EAF0C12EA29EFF5
:109F56002430FF74B4254EF582E43403F583EFF024
:109F6600054EAF0C12EA24EF2430FF74B4254EF5EB
:109F760082E43403F583EFF0054E74B4254EF58282
:109F8600E43403F5837420F0054E74B4254EF5824F
:089F9600E43403F583E4F0223A
:107062008F42E542B40108754B01754C9F8006754D
:107072004B01754C3F7EAC7F6012EA79AA06A907E4
:107082007551FF8A5289537B017A03790012CE220D
:107092007551FF7552AC755311E54C2408F582E425
:1070A200354BF583E0FEA3E08E54F5557B017A0360
:1070B20079B4123E947551017552037553B47B0134
:1070C2007A03790012CE227EAC7F6912EA79AA068F
:1070D200A9077551FF8A5289537B017A03790012FD
:1070E200CE22AF4CAE4B12D56E8F468E458D448C60
:1070F200431227508F0C8E0B8D0A8C09129EA67597
:1071020051017552037553B47B017A03790012CE93
:10711200227EAC7F7312EA79AA06A9077551FF8A0B
:107122005289537B017A03790012CE22E542B401DF
:107132002C900201E0FCA3E0FDE4122717A804A9A9
:1071420005AA06AB07AF46AE45AD44AC431223F9E0
:107152001227508F0C8E0B8D0A8C09802A9001FF0A
:10716200E0FCA3E0FDE4122717A804A905AA06ABD8
:1071720007AF46AE45AD44AC431223F91227508FF8
:107182000C8E0B8D0A8C09129EA675510175520345
:107192007553B47B017A03790012CE227EAC7F7ED6
:1071A20012EA79AA06A9077551FF8A5289537B010F
:1071B2007A03790012CE22AF4CAE4B129BAE8F4AAD
:1071C2008E498D488C471227508F0C8E0B8D0A8C5E
:1071D20009129EA67551017552037553B47B017A4B
:0871E20003790012CE227EACFD
:1071EA007F8812EA79AA06A9077551FF8A5289533C
:1071FA007B017A03790012CE22854A558549548546
:10720A004853854752AF46AE45AD44AC4312D5B359
:10721A001227508E548F557551FF7552AC75531104
:10722A007B017A0379B4123E947551017552037544
:10723A0053B47B017A03790012CE227EAC7F90127E
:10724A00EA79AA06A9077551FF8A5289537B017AFE
:10725A0003790012CE22900207E06015E542B401DC
:10726A0008900209E0F54D802A900208E0F54D8069
:10727A0022854A5585495485485385475290023B91
:10728A00E0F556AF46AE45AD44AC4312A6FD122713
:10729A00508F4D7551FF7552AC7553117554008559
:1072AA004D557B017A0379B4123E9475510175529A
:0E72BA00037553B47B017A03790012CE2222B1
:10D0BE0012B9169003C9E0601B7EAC7F3D12EA796F
:10D0CE00AA06A9077551FF8A5289537B017A037903
:10D0DE000012CE22E4FF1270629003C9E060207E3F
:10D0EE00AC7F5112EA79AA06A9077551FF8A5289B7
:10D0FE00537B017A03790012CE227F0112706222D5
:10CA3C00EF75F00FA42443F582E43402AF82FEE4D8
:10CA4C00FD8F828E83E0B420120FBF00010EBD0E4D
:10CA5C0006E49003A1F0220DBD0FE6E4FCEDC394B7
:10CA6C000F501F8F828E83E0FB6420601574A12C05
:10CA7C00F582E43403F583EBF00C0FBF00010E0DCF
:0FCA8C0080DB74A12CF582E43403F583E4F022FF
:10D99E00E4F542900242E0FFE542C39F502BAF42B6
:10D9AE0012CA3C7B017A0379A112E80A9003BEEFFA
:10D9BE00F07B017A03790012E80AAD077B017A0346
:0FD9CE0079001290D2054280CAE49003B2F02291
:10E7310090023DE06010A3E0600C9003B3740CF014
:07E741009003B27401F02205
:10BEF800EF75F00FA42443F582E43402AF82F544D1
:10BF08008F45E4F543854582854483E0B4201605D2
:10BF180045E54570020544E543B40E02C3220543D6
:10BF2800E543B40FE07B017A0379A112E80AE4FE45
:10BF3800EEC39F503CE543C3940F4002C32285459E
:10BF480082854483E0FDB42002C32274A12EF582C9
:10BF5800E43403F583E0FB3395E0FAEB6D7001EA16
:10BF68006002C3220545E5457002054405430E807D
:03BF7800BFD32212
:10E2A700900241E07002D322E4F542900242E0FF7F
:10E2B700E542C39F500DAF4212BEF85002D322056C
:05E2C7004280E8C322C3
:10E748007EAC7F9A12EA79AA06A9077BFF78007C3B
:07E75800037D011231DC22F8
:10B766007B017A0379A112E80A9003BEEFF09002FA
:10B776002BE0606612B916900519E0601D7EAC7F5D
:10B78600B712EA79AA06A9077551FF8A5289537B2F
:10B79600017A03790012CE22804390023CE0601DBC
:10B7A6007EAC7FC412EA79AA06A9077551FF8A52B0
:10B7B60089537B017A03790012CE2280207EAC7FEA
:10B7C600A812EA79AA06A9077551FF8A5289537BFE
:10B7D600017A03790012CE22800312E7487B017AB0
:10B7E60003790012E80AAD077B017A03790012900B
:02B7F600D2225D
:10DE69007B017A0379A112E80A9003BEEFF09002D0
:10DE79002BE0600512D0BE800312E7487B017A03CC
:10DE8900790012E80AAD077B017A0379001290D272
:01DE99002266
:10E316008E428F43854382854283E0FF601512E675
:10E32600EB854382854283EFF00543E543700205A2
:04E336004280E1221E
:0FE9A4007515027FE27E0C7D717C0612D4DE2297
:10E2CC00E540B4430612CE7A7F432212EA6A8F40AD
:10E2DC00EF24C060EB24FE60060470067F41227FB1
:05E2EC004222AF4022B8
:10E5600012E2CC8F3FEF24FA600824C3600A243EF5
:0EE5700070EE12E9A4AF3F2212E9A47F06224A
:10E86F0012E2CCEF24FA600824C36004243E70F057
:04E87F0012E9A422D4
:10C2D0007F2C7E0112DF8A20A00312E78B90056875
:10C2E0007405F0D2AF5389F0438901E4F58A758C67
:10C2F00088D2A9D28C75150A7F997E087D4C7C0462
:10C3000012D4DE12DFB912DB0E12EA7F12D324122E
:10C31000C42B12D8DE12D2D912E8CF12E99575A635
:10C320001E75A6E112AB327E017F397C057D5E125F
:10C33000CBB240047F0180027F00900569EFF012CC
:06C34000BBD512D1A922B9
:10A7DA0012E956BF050B12E9A412E8F3D21112CC02
:10A7EA00C1C21112EA6AEF14700302A87F14605EF4
:10A7FA0014603514601F24C4700302A8A924BF6022
:10A80A007414604A247D70DB12E9A4125C397FFF5C
:10A81A0012CED080CE90022BE060C812E9A412DCDE
:10A82A00CB7FFF12CED080BB90022BE060B59003A5
:10A83A00C9E060AF9000FCE0FF64026004EFB4037B
:10A84A00A212E9A412E9867FFF12CED08095900069
:10A85A00FCE024FC601104708A12E9A412E8BC7FAF
:10A86A000812CED002A7ED12E9A412C49A7F1012E0
:10A87A00CED002A7ED9000FCE024FC601404600333
:10A88A0002A7ED12E9A412E8477F0812CED002A768
:10A89A00ED12E9A412C7ED7F1012CED002A7ED90F7
:0BA8AA00010EE0FF12CED002A7ED224D
:10C2580030A074900569E0706E1297A1503D90046B
:10C26800E8E0FCA3E0FDA3E0FEA3E0FFA3E0F545C2
:10C2780012B7F890023CE0601A9004E3E0FCA3E0F7
:10C28800FDA3E0FEA3E0FF754501900517E0F54624
:10C2980012E96690010EE04402F02290022BE06061
:10C2A8002690023CE060209004E7E0601A9004E3E6
:10C2B800E0FCA3E0FDA3E0FEA3E0FFE4F545900564
:08C2C80017E0F54612E96622B9
:10C5E20012E9D012DB0E7E017F397C057D5E12CB13
:10C5F200B24028E4900569F090022BE0601512C168
:10C60200E012D0BE12D6C512E7311255C612B88852
:10C6120012DA9790010E74FFF0801B90055FE0FF25
:10C6220090013AE06F600F90022BE0600912DA97F6
:10C6320090010E74FFF0900568E014F07006740526
:0CC64200F012AFE090010EE04404F02282
:1000160020A019C2B612EA6212E1E812E78BD2B644
:0D00260012E99590010E74FFF012EAB82265
:10DB0E0012EA9112E9B3900560EFF012EA9712E96A
:10DB1E00B3900561EFF012EA3912E2F1900562EE70
:10DB2E00F0A3EFF012EA8B12E9B390055FEFF0125B
:0BDB3E00EA8512E9B390055EEFF022CB
:10E5A400010E19C190C113010800C112C18F010DE0
:01E5B4000066
:10DF8A00D3EF9400EE9400402575A61E75A6E17D98
:10DF9A00FFDDFE7DFFDDFE7DFDDDFE7DFFDDFE7D1D
:0FDFAA00FFDDFE7DFDDDFEEF1F70011E80D22228
:10CE7A0075A61E75A6E1120016201118301212C2EC
:10CE8A0012750832300F04050D8003E4F50D12C542
:10CE9A00E212C25830130BC2133010037F42227FB2
:10CEAA004122E50DD394F04006E4F50D7F432212AA
:10CEBA00C576EFF46004E4F50D2290010EE06003FC
:06CECA007F40227FFF22E1
:08EA6A0012CE7AEFF460F922EC
:06EAA300E4F50DC20F2294
:06EAA900E4F50DD20F227E
:04EAB800750DF122C5
:03000B0002C64EDC
:10C64E00C0E0C0F0C083C082C0D075D000C000C0B2
:10C65E0001C002C003C004C005C006C007758A0031
:10C66E00758C88D50E0FD213301005750E148003FD
:10C67E00750E19B210E5086005D50802D212E5153F
:10C68E006006D5150312EA9DE518543F6002151891
:10C69E00D007D006D005D004D003D002D001D000F0
:0BC6AE00D0D0D082D083D0F0D0E0329A
:1000C200C2A7C2A6D2B6E4F5A2758FFF758E3D75A2
:1000D200A70775A61E75A6E175083212C2D012A72F
:0200E200DA2220
:10E97600EF75F06484FE740AC5F084C425F0FF22A6
:10E35D00AA07A906E4FFFEFDFC75F010C3EA33FA27
:10E36D00E933F9EF3FD4FFEE3ED4FEED3DD4FDD5BC
:03E37D00F0EA22A1
:10DB4900AB07AA06A905A804E4FFFEFDFC12DB69E0
:10DB5900A80112DB69A80212DB69A80312DB69229A
:10DB690075F008E833F8EF3FD4FFEE3ED4FEED3D03
:0BDB7900D4FDEC3CD4FCD5F0EA2222E5
:0FE9B300EFC4540F75F00AA4FEEF540F2EFF228D
:10E2F100AB07AA06EAFF12E9B37E007C007D641237
:10E301002B60AC06AD07AF03EB12E9B37E00ED2F36
:05E31100FFEE3CFE22BE
:10DB84008F128E118D108C0FAF05AE0412E2F1E4EA
:10DB9400FCFD7B107A27F9F8122C5AC004C005C08A
:10DBA40006C007AF12AE1112E2F1E4FCFDD003D0BF
:09DBB40002D001D000122C4D2218
:0BEA1900EF540F2490D43440D4FF22AF
:1023F6000227BCE86480F8E933E83360110460F032
:10240600ED33EC337009E8FCE9FDEAFEEBFF22044C
:1024160060DED3EB9FEA9EE99DE8C2E78CF0C2F747
:1024260095F0400CE8CCF8E9CDF9EACEFAEBCFFB13
:1024360012278785D0F05804700320D5B3E80470BE
:10244600075002B2D50227C692D5EC0460F7E4CC59
:10245600C0E0C398F8603B94186008400DD0E0FBDC
:1024660002279EE4FBFAC9FC8028E830E406E4C9AA
:10247600FBE4CAFCE830E305E4C9CACBFCE8540730
:102486006010F8C3E913F9EA13FAEB13FBEC13FC3B
:10249600D8F130F52FC3E49CFCEF9BFFEE9AFEEDDE
:1024A60099FDD0E0FBEF4E4D4C701222DB03022764
:1024B600C3EC2CFCEF33FFEE33FEED33FDED30E7DE
:1024C600EB02279EEF2BFFEE3AFEED39FDD0E0FB47
:1024D60050130BBB00030227C6ED13FDEE13FEEFF0
:0824E60013FFEC13FC02279E1A
:1024EE00EC4D6011E8497017ED33EC3304600DE4E8
:1024FE00FCFFFEFD22E933E8330470F80227BC121C
:10250E00278758046009E4CC24815006285009021C
:10251E0027C62840030227C3C0E0EB4A7044B980A7
:10252E0006D0E0FB0227B2EF4E701CBD8008EBFF19
:10253E00EAFEE9FD80EBE98DF0A4FEE5F00225D779
:10254E00E9CDF9EAFEEBFFEF89F0A4FCE5F0CE89C8
:10255E00F0A42EFFE435F0CD89F0A42DFEE435F085
:10256E008067EF4E7005BD80D780C3EF8BF0A4ACB3
:10257E00F0EE8BF0A42CFCE435F0F8EF8AF0A42CEE
:10258E00E5F038FCE433CB8DF0A42CFCE5F03BF801
:10259E00EE8AF0A42CFCE5F038F8E433CF89F0A4F1
:1025AE002CFCE5F038CF3400CE89F0A42FFFE5F0F7
:1025BE003EFEE433C98DF0A42EFEE5F039CD8AF04F
:1025CE00A42FFFE5F03EFEE43DFD33D0E0FB5007C7
:1025DE000BBB000F0227C6EC2CFCEF33FFEE33FED5
:0625EE00ED33FD02279E03
:1025F4000227C6EC5D046005E8590470030227BC99
:10260400122787580460F6EC4860F2EC7004FDFE73
:10261400FF22C860DB2481C85009C39860025006B9
:102624000227C39850CAF582E9294B4A7005AB8248
:102634000227B275F0007C1A7880C3EF9BEE9AED06
:1026440099400DC3EF9BFFEE9AFEED99FDE842F031
:10265400DC23ACF0D0E0FFD0E0FED0E0FDAB822084
:10266400E7101BEB60BAEC2CFCEF33FFEE33FEED0E
:1026740033FD02279EE803F830E705C0F075F0004B
:10268400EF2FFFEE33FEED33FD40B830E7C280AAF2
:1026940074F8CC6480CCC86480C8F582046043C3F9
:1026A400EB9FF5F0EA9E42F0E99D42F0E89C45F08C
:1026B40060305018E5825FFFE582F42B5582FB50B1
:1026C400210ABA001D09B90019088016E5825BFBCE
:1026D400E582F42F5582FF50090EBE00050DBD00A2
:1026E400010CC3EB9FF5F0EA9E42F0E99D42F0E84D
:0D26F4009C45F06007CC4820E701B3EC22C4
:10270100ED33EC33600A047003BD8004ECB2E7FCE6
:0127110022A5
:1027120075F020800E75F010800575F0087D007E42
:10272200007F003392D530D503122D84EC33401054
:10273200EF33FFEE33FEED33FDEC33FCD5F0ED224B
:0E274200E5F0247EA2D513CC92E7CDCEFF2287
:10275000EDD2E7CD33EC3392D524814006E4FFFE81
:10276000FDFC22FCE4CFCECDCC24E0501174FF80E0
:10277000EDC3CC13CCCD13CDCE13CECF13CF04707D
:07278000F030D5DE022D84CC
:103E3800E5652451F8E6056522784E300D02785183
:103E4800E475F001122EE5022AB32006EB7F2ED28C
:103E5800068018EF540F2490D43440D4FF300A0B56
:103E6800EF24BFB41A0050032461FFE56660021511
:103E7800660569E56970020568300D0D784EE475D0
:103E8800F001122EE5EF022B2C02E20F7403D20D83
:103E98008003E4C20DF5658B4E8A4F8950E4F566C0
:103EA800F568F569E56660077F20123E7380F5F5D1
:103EB80067C207C206C208C209C20BC20CC20E12F0
:103EC8003E41FF700D300D057F00123E84AF69AE94
:103ED8006822B42563C2D5C20A123E41FF24D0B479
:103EE8000A00501E75F00A20D50DC566A42566F592
:103EF800667002D20980E0D206C567A42567F56717
:103F080080D524CFB41A00EF5004C2E5D20A02418A
:103F18006CD20780C2D20680BCD20880B8D2D580C5
:103F2800B6D20B80B07F20123E732008077401B50B
:103F3800660040F1123E38FF123E73023EACD20ECC
:103F4800D20C8091123E38FB123E38FA123E38F9F4
:103F58004A4B7006795E7A427BFF200833E566603B
:103F68002FAF67BF00011F7E008E82758300122A63
:103F7800CC60050EEE6F70F1C2D5EBC0E0EAC0E090
:103F8800E9C0E0EE1241C7D0E0F9D0E0FAD0E0FB9A
:103F9800122AB3FF60A5EBC0E0EAC0E0E9C0E01276
:103FA8003E73D0E02401F9D0E03400FAD0E0FBE51C
:103FB8006760DDD567DA8083D208809E1241AC60E5
:103FC800F7E5677001041227D1A967600DE56760FE
:103FD8000914F567124251EF60F3EA30E702F4047E
:103FE800C3995077EAF425670430E701E404F567DC
:103FF800800D1241AC60C1EA056725671227D1EA36
:104008007864F630E701E4256704D56704200B01DE
:10401800141241C7E4C0E01242517864E6601320EC
:10402800E70714F6123E5B802204F6D0E014C0E0E5
:104038007F00123E5BE5676007123E521567800BF2
:10404800300B03123E52D0E0023EACD0E00480C5F3
:104058001241AC60A0E567041227D17864EAF6E55E
:1040680067200B0260010424041241C774FF04C0D6
:10407800E0124251123E5BE567200B026003123EDC
:1040880052D0E0B567E87F45123E657864E67F2B3D
:1040980030E7047F2DF404C0E0123E73D0E075F0E1
:0740A8000A84C0F0123E5C27
:1040AF00D0E0123E5C023EAC791080027908C20C5F
:1040BF00C20E8008D2D5790A8004790AC2D5E4FAF3
:1040CF00FDFEFF123E38FC7B08200713123E38FD21
:1040DF007B1030060A123E38FE123E38FF7B20EC72
:1040EF003382D592D55013C3E43006069FFFE49E6A
:1040FF00FEE42007039DFDE49CFCE4CBF8C207EC33
:10410F00700CCFCECDCCE824F8F870F38017C3EF46
:10411F0033FFEE33FEED33FDEC33FCEB33FB994015
:10412F0002FB0FD8E9EB300705F8D0E0C448B2071F
:10413F00C0E00AEC4D4E4F78207B0070C2EAC0E021
:10414F001241C9D0F0D0E0200704C4C0E0C4B207C8
:10415F00C0F0123E5CD0F0D5F0EB023EAC122F4512
:10416F003F4C5340B7583F1D4C3F194240BB4F4047
:10417F00C34440C3493F324340C9553FFA464058B4
:10418F00453FC4474281503F212D3F252E3F482BAD
:10419F003F29233F4620426C2A00003F4010060370
:1041AF00756706123E38FC123E38FD123E38FE127D
:1041BF003E38FF785D022800790AA2D52009143015
:1041CF000B09B910020404B9080104A2D5200C028E
:1041DF005001042008689208B566005034C0E07F93
:1041EF00203009197F30A208720C720B500F124247
:1041FF0020C208C20CC20BC20E7F30800F300B03DF
:10420F00E9C0E0123E73300B03D0E0F9D0E0B566A1
:10421F00CC300B177F30B9100C123E737F58300A19
:10422F00077F788003B90803123E733008057F2D8E
:10423F00023E737F20200EF87F2B200CF322920872
:10424F0080CF7F00B407005005245DF8E6FF2228D9
:10425F006E756C6C29002D50434958D207123E38A9
:10426F003007F8C207786630D504D2067867F602B1
:10427F003EDD123E382403B405004001E490426550
:10428F0093123E64743A123E64D20975660402407A
:01429F00B767
:10B5A40033DA929E35B16011377FE5FE3921848903
:10B5B4003AAEC3FF3C1D955B3D6358473E75FDF0B5
:10B5C4003F3172183F800000C2D50227C60227BC53
:10B5D400BD80FA50F30227C3ED33EC330460F17BF2
:10B5E4003B7AAA79B8783F1224EEED33EC3392D546
:10B5F400247B5011A2D570DB500BED448024045001
:10B6040004A2D580CEEFFBEEFAEDF9ECF812275048
:10B61400EFF582F404FC12271C1223FDC08290B5BE
:10B62400A47409122912ED33CC33D0F092D525F04D
:0AB63400A2D57001C313CC13FD2250
:10B13C000227BC22EDA2E7D2E7F9EC3340F260F330
:10B14C00B4FF08ED547F70E80227C6F82481C2E0F2
:10B15C00C0E0F40428FAC313FCED92E7FD8C548D87
:10B16C00558E568F57EEA2E7E9BA7F02C31334000F
:10B17C009400FA75F091A4E5F013F494FE8AF0A40F
:10B18C0033E5F033248CD313FDE492E7FE7F007C8F
:10B19C003F758302ECC0E0F8EDC0E0F9EEC0E0FAD8
:10B1AC00EFC0E0FBAC54AD55AE56AF571225F7D0FF
:10B1BC00E0FBD0E0FAD0E0F9D0E0F81223FDED642A
:10B1CC0080FD30E7011CD583CBED33CC33F8D0E0D8
:0AB1DC00A2E71328C313CC13FD22D1
:10278700E9D2E7C933E833F892D5EDD2E7CD33EC98
:0727970033FC5002B2D52211
:10279E00EC30E7100FBF000C0EBE00080DBD00049C
:1027AE000BEB6014A2D5EB13FCED92E7FD2274FF48
:1027BE00FCFDFEFF22E480F8A2D574FF13FC7D80A1
:0327CE00E480EFB5
:1027D100F920E72824F950037907E4F42402FB18CF
:1027E100DBFDE624FB5014E9600DE4F618E604F67F
:0F27F100B40A08E4F6D9F57401F60A22C2D5221B
:10280000ED33EC3392D5FA602AB4FF33EDC2E77BA7
:10281000FF60067A287925E4227A28792E20D504CB
:102820007A287929224E614E002B494E46002D49C7
:102830004E4600E47A08F608DAFC7B00740722E8CA
:10284000C0E0ECC0E0EDC0E0EEC0E0EFC0E0EA7553
:10285000F010A4CAABF075F04DA42BFBE435F0FCEE
:10286000EA2410FAEB34C5FBEC34D9FCEDC2E7FFE7
:1028700075F056A4F42411C5F0F434C58FF0A42AE1
:10288000E5F03BE43CF620E71412297AD0E0FFD0D3
:10289000E0FED0E0FDD0E0FC1225F78014F4041235
:1028A000297AD0E0FFD0E0FED0E0FDD0E0FC122499
:1028B000EED0E0F8E6FAEDD2E7CD33EC332482FB3C
:1028C000E4C3CF33CFCE33CECD33CD33DBF37B0771
:1028D00075F00A846004F6081B0AE5F0F6088FF02C
:1028E000740AA4FFACF08EF0740AA42CFEACF05075
:1028F000010C8DF0740AA42CFDE435F0F608DBDE43
:0329000074072237
:10290300C0E0EFFBEEFAEDF9ECF81224EED0E0F5BF
:10291300F0EFFBEEFAEDF9ECF8122E40A3E8C0E07D
:10292300E9C0E0EAC0E0EBC0E0C0F01224EE122EF2
:1029330050A31223FDD0F0D0E0FBD0E0FAD0E0F9B1
:07294300D0E0F8D5F0D72227
:10294A003F8000004120000042C80000447A000095
:10295A00461C400047C35000497424004B18968017
:10296A004CBEBC205A0E1BCA6753C21C749DC5AE0E
:10297A00FB60065407601C23231229A8EB54386015
:10298A00091229941229A31224EEECF8EDF9EEFAB1
:10299A00EFCB22EB1229A380F1543803241C90298F
:1029AA004AFE93FC0EEE93FD0EEE930ECE93FF229B
:03000000020036C5
:0C003600787FE4F6D8FD75818C02007D17
:1029BA00E709F608DFFA8046E709F208DFFA803EFF
:1029CA0088828C83E709F0A3DFFA8032E309F608EC
:1029DA00DFFA8078E309F208DFFA807088828C8354
:1029EA00E309F0A3DFFA806489828A83E0A3F60808
:1029FA00DFFA805889828A83E0A3F208DFFA804CE2
:102A0A0080D280FA80C680D4806980F280338010B8
:102A1A0080A680EA809A80A880DA80E280CA803321
:102A2A0089828A83ECFAE493A3C8C582C8CCC58399
:102A3A00CCF0A3C8C582C8CCC583CCDFE9DEE78069
:102A4A000D89828A83E493A3F608DFF9ECFAA9F0E8
:102A5A00EDFB2289828A83ECFAE0A3C8C582C8CC3E
:102A6A00C583CCF0A3C8C582C8CCC583CCDFEADE57
:102A7A00E880DB89828A83E493A3F208DFF980CCB9
:102A8A0088F0ED2402B4040050C2F582EB2402B4AB
:102A9A00040050B823234582F582EF4E60AEEF6002
:092AAA00010EE58223902A0A7353
:102AB300BB010689828A83E0225002E722BBFE0221
:092AC300E32289828A83E4932254
:102ACC00BB010CE58229F582E5833AF583E02250BF
:102ADC0006E92582F8E622BBFE06E92582F8E22209
:0D2AEC00E58229F582E5833AF583E4932223
:102AF900BB010FF8E58229F582E5833AF583E028E1
:102B0900F0225009C58229F8E58226F622BBFE0982
:102B1900C58229F8E22582F222F8EA2583F583E9BC
:032B2900932822CC
:102B2C00BB010689828A83F0225002F722BBFE0188
:022B3C00F32282
:102B3E00F8BB010DE58229F582E5833AF583E8F0CD
:102B4E00225006E92582C8F622BBFE05E92582C879
:022B5E00F22261
:102B6000EFF88DF0A4FFEDC5F0CEA42EFEEC88F0BA
:042B7000A42EFE226F
:102B7400BC000BBE0029EF8DF084FFADF022E4CC45
:102B8400F875F008EF2FFFEE33FEEC33FCEE9DEC0E
:102B9400984005FCEE9DFE0FD5F0E9E4CEFD22ED54
:102BA400F8F5F0EE8420D21CFEADF075F008EF2F9E
:102BB400FFED33FD4007985006D5F0F222C398FD8F
:052BC4000FD5F0EA222C
:102BC900C2D5EC30E709B2D5E4C39DFDE49CFCEE27
:102BD90030E715B2D5E4C39FFFE49EFE122B74C300
:102BE900E49DFDE49CFC8003122B7430D507C3E4FB
:062BF9009FFFE49EFE2296
:102BFF00C5F0F8A3E028F0C5F0F8E5821582700261
:062C0F001583E038F022FD
:102C1500BB0110E58229F582E5833AF583E0F5F0FD
:102C2500A3E0225009E92582F886F008E622BBFEDA
:102C35000AE92582F8E2F5F008E222E5832AF58320
:082C4500E993F5F0A3E99322E5
:0D2C4D00EF2BFFEE3AFEED39FDEC38FC22D6
:102C5A00E88FF0A4CC8BF0A42CFCE98EF0A42CFC19
:102C6A008AF0EDA42CFCEA8EF0A4CDA8F08BF0A497
:102C7A002DCC3825F0FDE98FF0A42CCD35F0FCEBF6
:102C8A008EF0A4FEA9F0EB8FF0A4CFC5F02ECD39BB
:0F2C9A00FEE43CFCEAA42DCE35F0FDE43CFC2228
:102CA90075F008758200EF2FFFEE33FECD33CDCCE2
:102CB90033CCC58233C5829BED9AEC99E582984065
:102CC9000CF582EE9BFEED9AFDEC99FC0FD5F0D642
:102CD900E4CEFBE4CDFAE4CCF9A88222B800C1B96C
:102CE9000059BA002DEC8BF084CFCECDFCE5F0CBAA
:102CF900F97818EF2FFFEE33FEED33FDEC33FCEBE3
:102D090033FB10D703994004EB99FB0FD8E5E4F99D
:102D1900FA227818EF2FFFEE33FEED33FDEC33FC8A
:102D2900C933C910D7059BE99A4007EC9BFCE99A7E
:102D3900F90FD8E0E4C9FAE4CCFB2275F010EF2FC3
:102D4900FFEE33FEED33FDCC33CCC833C810D707C3
:102D59009BEC9AE899400AED9BFDEC9AFCE899F8FE
:0E2D69000FD5F0DAE4CDFBE4CCFAE4C8F92291
:10D74D00C2D5E830E70FB2D5E4C39BFBE49AFAE407
:10D75D0099F9E498F8EC30E717B2D512D783122C6B
:10D76D00E5E4C39BFBE49AFAE499F9E498F88003A5
:10D77D00122CE530D50DE4C39FFFE49EFEE49DFD24
:04D78D00E49CFC22FA
:0D2D7700CFF4CFCEF4CECDF4CDCCF4CC22F1
:0E2D8400C3E49FFFE49EFEE49DFDE49CFC2260
:102D9200EB9FF5F0EA9E42F0E99D42F0EC6480C8B8
:062DA20064809845F02258
:102DA800EB9FF5F0EA9E42F0E99D42F0E89C45F081
:012DB80022F8
:102DB900E8600FECC313FCED13FDEE13FEEF13FFF8
:032DC900D8F1221C
:102DCC00E86010ECA2E713FCED13FDEE13FEEF131D
:042DDC00FFD8F0220A
:102DE000BB010DE58229F582E5833AF5830231F9CD
:102DF0005007E92582F8022E34BBFE07E92582F848
:102E0000023205E58229F582E5833AF583022E40F8
:102E1000BB010DE58229F582E5833AF583022E9CFC
:102E20005007E92582F8022E90BBFE07E92582F8BB
:042E30000232372211
:0C2E3400E6FC08E6FD08E6FE08E6FF22CA
:102E4000E493FCA3E493FDA3E493FEA3E493FF22A5
:102E5000E493F8A3E493F9A3E493FAA3E493FB22A5
:102E6000BB010DE58229F582E5833AF58302321E26
:102E70005007E92582F8023211BBFE07E92582F8E6
:102E800002322AE58229F582E5833AF583022E5043
:0C2E9000ECF608EDF608EEF608EFF6226E
:0C2E9C00ECF0A3EDF0A3EEF0A3EFF022A9
:102EA800A8828583F0D083D082122EBF122EBF1243
:102EB8002EBF122EBFE473E493A3C583C5F0C58368
:102EC800C8C582C8F0A3C583C5F0C583C8C582C874
:012ED80022D7
:0C2ED900A42582F582E5F03583F5832204
:102EE500FAE6FB0808E6F925F0F618E6CA3AF622EE
:102EF500BB010789828A8302324C5005E9F8023208
:102F050043BBFE05E9F802325589828A8302325EA7
:102F1500BB010DE58229F582E5833AF58302324C42
:102F25005007E92582F8023243BBFE07E92582F8FE
:102F3500023255E58229F582E5833AF58302325E50
:102F4500D083D082F8E4937012740193700DA3A31B
:102F550093F8740193F5828883E47374029368602F
:062F6500EFA3A3A380DF2F
:10E20F00EFB40A07740D12E21A740A309811A89924
:10E21F00B8130CC2983098FDA899C298B811F6306F
:07E22F0099FDC299F5992247
:10E6EB00CEEFCEEEC39461400BEEC3947B5005EEA0
:08E6FB0024E0FF22CFEECF2244
:10DE04008F5A8E598D588C577F007E007D007C0080
:10DE1400AB5AAA59A958A857C3122D92400AAF5A0F
:10DE2400AE59AD58AC57800BAF5AAE59AD58AC573C
:04DE3400122D842205
:10CE22008B4E8A4F89508B548A558956AB4E05508A
:10CE3200E550AA4F7002054F14F9122AB370ED742F
:10CE4200FF2550F55074FF354FF54FAB510553E5B3
:10CE520053AA527002055214F9122AB3FFAB4E05BF
:10CE620050E550AA4F7002054F14F9EF122B2C70A7
:08CE7200DAAB54AA55A95622BF
:102F6B00E3F5F009E208B5F06D606B80F3E3F5F083
:102F7B0009E608B5F060605E80F387F009E608B5F6
:102F8B00F054605280F487F009E208B5F0486046CF
:102F9B0080F488828C8387F009E0A3B5F038603623
:102FAB0080F488828C8387F009E493A3B5F02760C3
:102FBB002580F388828C83E3F5F009E0A3B5F01646
:102FCB00601480F388828C83E3F5F009E493A3B556
:102FDB00F004600280F2023096808580E7808E805C
:102FEB00D2803C8015806C807E809B80B5808B80EE
:102FFB00A1804F8070803A0230AC89828A83ECFAD0
:10300B00E493F5F0A3C8C582C8CCC583CCE493A3E5
:10301B00C8C582C8CCC583CCB5F070606E80E18921
:10302B00828A83E493F5F0A3E208B5F05E605C80DE
:10303B00F289828A83E0F5F0A3E608B5F04D604B88
:10304B0080F389828A83E0F5F0A3E208B5F03C6057
:10305B003A80F389828A83E493F5F0A3E608B5F00E
:10306B002A602880F2805D89828A83ECFAE493F5EA
:10307B00F0A3C8C582C8CCC583CCE0A3C8C582C8A1
:10308B00CCC583CCB5F004600280E27F00F845F03C
:10309B00600EE863F0806480D395F01F40027F01DF
:1030AB002289828A83ECFAE0F5F0A3C8C582C8CCEA
:1030BB00C583CCE0A3C8C582C8CCC583CCB5F0CB47
:1030CB0060C980E389828A83ECFAE0F5F0A3C8C576
:1030DB0082C8CCC583CCE493A3C8C582C8CCC583B6
:1030EB00CCB5F0A760A580E288F0ED2402B4040013
:1030FB005099F582EB2402B40400508F23234582B0
:05310B0023902FE47386
:10311000E709F60870FA8046E709F20870FA803E7F
:1031200088828C83E709F0A370FA807EE309F608B1
:1031300070FA8076E309F20870FA806E88828C83D8
:10314000E309F0A370FA806289828A83E0A3F6081B
:1031500070FA805689828A83E0A3F20870FA804A66
:1031600080D280FA80C680D4806580F28031801061
:1031700080A680EA809A80A880DA80E280CA8031C6
:1031800089828A83ECFAE493A3C8C582C8CCC5833C
:10319000CCF0A3C8C582C8CCC583CC70E9800D89AA
:1031A000828A83E493A3F60870F9ECFAA9F0EDFBA8
:1031B0002289828A83ECFAE0A3C8C582C8CCC58381
:1031C000CCF0A3C8C582C8CCC583CC70EA80DD89A9
:1031D000828A83E493A3F20870F980CE88F0ED240C
:1031E00002B4040050C4F582EB2402B4040050BAC7
:0931F00023234582239031607312
:10E80A00E4FFFE122AB3600C0FEF70010E09E970E3
:05E81A00F20A80EF226C
:10DA5900ECF5F0EDF8EEF9EFFAE4FFFEFDFCE5F088
:10DA69007B2033F5F0EF3FD4FFEE3ED4FEED3DD4FD
:10DA7900FDEC3CD4FCDB0122BB1803E880E4BB10BD
:0EDA890003E980DEBB0803EA80D8E5F080D414
:0BEA2400EF540FFF22EFC4540FFF223D
:100042000200C2E493A3F8E493A34003F68001F212
:1000520008DFF48029E493A3F85407240CC8C333BF
:10006200C4540F4420C8834004F456800146F6DF8E
:10007200E4800B010204081020408090E59AE47E9F
:10008200019360BCA3FF543F30E509541FFEE49383
:10009200A360010ECF54C025E060A840B8E493A34A
:1000A200FAE493A3F8E493A3C8C582C8CAC583CA75
:1000B200F0A3C8C582C8CAC583CADFE9DEE780BE2D
:01E5B5000065
:0C31F900E0FCA3E0FDA3E0FEA3E0FF2249
:0C320500E2FC08E2FD08E2FE08E2FF2205
:0D321100E6FB08E6F908E6FA08E6CBF8222D
:0C321E00E0F8A3E0F9A3E0FAA3E0FB2233
:0D322A00E2FB08E2F908E2FA08E2CBF82224
:0C323700ECF208EDF208EEF208EFF222D3
:09324300E6FB08E6FA08E6F922B0
:09324C00E0FBA3E0FAA3E0F92283
:09325500E2FB08E2FA08E2F922AA
:0C325E00E493FB740193FA740293F922CC
:00000001FF
