C51 COMPILER V5.50,  TXPACKET                                                              15/03/07  07:40:25  PAGE 1   


DOS C51 COMPILER V5.50, COMPILATION OF MODULE TXPACKET
OBJECT MODULE PLACED IN ..\MODULY\RADIO\TXPACKET.OBJ
COMPILER INVOKED BY: D:\C51_V5.5\BIN\C51.EXE ..\MODULY\RADIO\TXPACKET.C51 CD DB

stmt level    source

   1          //*****************************************************************************
   2          //
   3          //    TxPacket.c  - Packet transmitter
   4          //    Version 1.0, (c) Vymos
   5          //
   6          //*****************************************************************************
   7          
   8          #include "..\Inc\TxPacket.h"
   9          
  10          //#define __SEND_IDLE__       1          // vysilani vyplne, prijimac spatne synchronizuje, nepouzivat
  11          
  12          #define INDEX_CRC           DATA_SIZE  // CRC jako posledni byte dat
  13          #define INDEX_SYNC          0xFF       // Vysilame synchronizacni hlavicku
  14          #define INDEX_STX           0xFE       // Vysilame startovaci bajt
  15          #define INDEX_ID            0xFD       // vysilame identifikacni cislo
  16          #define INDEX_ADDRESS       0xFC       // vysilame adresu
  17          #define INDEX_IDLE          0xFB       // vysilame vypln
  18          #define INDEX_STOP          0xFA       // nevysilame nic
  19          
  20          
  21          // Globalni data :
  22          
  23          TPacket __xdata__ Packet;                // pracovni paket
  24          bit               _PacketTxActive;       // probiha vysilani
  25          static bit        IsStx;                 // vysli STX_CHAR
  26          
  27          static byte Index;                       // pracovni index
  28          static byte SyncIndex;                   // pracovni index pro vysilani synchronizacni hlavicky
  29          
  30          //-----------------------------------------------------------------------------
  31          // Inicializace
  32          //-----------------------------------------------------------------------------
  33          
  34          void TxPacketInit( void)
  35          // Inicializace komunikace
  36          {
  37   1         ES = 0;                       // com interrupt disable
  38   1         // Inicializace COMu :
  39   1         #if DOUBLE_BAUDRATE == 2
                    PCON |=  PCON_SMOD1;
                 #else
  42   1            PCON &= ~PCON_SMOD1;
  43   1         #endif
  44   1         #ifdef TXPACKET_TIMER_1
                    // Timer 1 jako baud generator :
                    SetTimer1Baud( PACKET_BAUD);
                    TMOD &= 0x0F;
                    TMOD |= TMOD_M81;          // timer, mode 2, TR1 control
                    TR1   = 1;                 // run timer 1
                 #endif
  51   1         #ifdef TXPACKET_TIMER_2
  52   1            // Timer 2 jako baud generator :
  53   1            SetTimer2Baud( PACKET_BAUD);
  54   1            T2CON  = T2CON_COM;        // TR2=1, RCLK, TCLK
  55   1         #endif
  56   1         #ifndef PACKET_PARITY
  57   1            SCON = SCON_NORMAL;        // serial MODE 1, enable Rx
  58   1         #else
                    SCON = SCON_PARITY;        // serial MODE 3, enable Rx
C51 COMPILER V5.50,  TXPACKET                                                              15/03/07  07:40:25  PAGE 2   

                 #endif
  61   1         // Inicializace kontextu :
  62   1         _PacketTxActive = NO;
  63   1         Index           = INDEX_STOP; // zastaveno vysilani
  64   1         ES = 1;                       // com interrupt enable
  65   1      } // TxPacketInit
  66          
  67          //-----------------------------------------------------------------------------
  68          // Start vysilani
  69          //-----------------------------------------------------------------------------
  70          
  71          void TxPacketTransmit( void)
  72          // Paket pripraven, vysilej
  73          {
  74   1      //   byte j;
  75   1         _PacketTxActive = YES;            // probiha vysilani
  76   1         IsStx           = NO;             // neni zdvojene STX
  77   1      #ifdef __SEND_IDLE__
                 if( Index == INDEX_IDLE){
                    // vysilame vyplnove znaky
                    Index        = INDEX_STX;      // startuj paket v nejblizsim preruseni
                    return;
                 }
              #endif
  84   1         // zatim nevysilame
  85   1      #ifdef TXPACKET_SYNC
  86   1         SyncIndex = 0;               // Vysilam 1. bajt synchronizacni hlavicky
  87   1         SBUF      = PacketSync[0];   // Vyslu prvni bajt hlavicky
  88   1         Index     = INDEX_SYNC;      // Vysilam synchronizacni hlavicku
  89   1      #else
                 SBUF            = STX_CHAR;       // prime vyslani narazniku
                 Index           = INDEX_ID;  // naraznik uz mame, nasleduje identifikacni cislo*/
              #endif// TXPACKET_SYNC
  93   1      
  94   1      } // TxPacketTransmit
  95          
  96          //-----------------------------------------------------------------------------
  97          // Stop
  98          //-----------------------------------------------------------------------------
  99          
 100          void TxPacketStop( void)
 101          // Uplne zastaveni vysilani
 102          {
 103   1         Index = INDEX_STOP;  // zastav
 104   1         while( TI);          // cekej na konec vysilani
 105   1         ES = 0;              // zakaz preruseni
 106   1      } // TxPacketStop
 107          
 108          //-----------------------------------------------------------------------------
 109          // Prerusovaci rutina
 110          //-----------------------------------------------------------------------------
 111          
 112          static void ComIsr( void) interrupt INT_SERIAL
 113          {
 114   1      byte ch;
 115   1      
 116   1         if( RI){
 117   2            RI = 0;
 118   2         }
 119   1         if( !TI){
 120   2            return;
 121   2         }
 122   1         // preruseni od vysilace
 123   1         TI = 0;                        // zrus priznak preruseni
 124   1      #ifdef __SEND_IDLE__
                 if( Index == INDEX_STOP){
C51 COMPILER V5.50,  TXPACKET                                                              15/03/07  07:40:25  PAGE 3   

                    return;                     // konec vysilani
                 }
                 if( Index == INDEX_IDLE){
                    SBUF  = NULL_CHAR;          // vyplnovy znak
                    return;
                 }
                 if( Index == INDEX_STX){
                    SBUF  = STX_CHAR;           // prechod z vyplne na paket - naraznik
                    Index = INDEX_ID;      // nasleduje identifikacni cislo
                    return;
                 }
              #endif
 138   1      
 139   1      #ifdef TXPACKET_SYNC
 140   1         if (Index == INDEX_SYNC) {
 141   2           if (SyncIndex < sizeof(PacketSync) - 1) {
 142   3             SyncIndex++;
 143   3             SBUF = PacketSync[SyncIndex];   // Vyslu dalsi bajt hlavicky
 144   3           } else {
 145   3             // Uz jsem dovysilal synchronizaci
 146   3             SBUF  = STX_CHAR;      // prechod ze synchronizace na paket - naraznik
 147   3             Index = INDEX_ID;      // nasleduje identifikacni cislo
 148   3           }//else
 149   2           return;
 150   2         }//if
 151   1      #endif
 152   1      
 153   1         if( Index == INDEX_ID){
 154   2            SBUF = Packet.Id;           // identifikacni cislo nezdvojuje STX
 155   2            Index = INDEX_ADDRESS;      // nasleduje adresa
 156   2            return;
 157   2         }
 158   1         if( Index == INDEX_ADDRESS){
 159   2            SBUF = Packet.Address;      // adresa nezdvojuje STX
 160   2            Index = 0;                  // prvni byte dat
 161   2            return;
 162   2         }
 163   1         if( IsStx){
 164   2            // predchozi znak byl STX, nyni zdvojit
 165   2            IsStx = NO;
 166   2            SBUF  = STX_CHAR;
 167   2            return;
 168   2         }
 169   1         if( Index > INDEX_CRC){
 170   2            // dokoncen paket
 171   2            _PacketTxActive = NO;       // konec vysilani
 172   2      #ifdef __SEND_IDLE__
                    SBUF  = NULL_CHAR;          // vysilej vypln
                    Index = INDEX_IDLE;         // nastav kontext na vypln
              #endif
 176   2            return;
 177   2         }
 178   1         // dovolime si podvod, crc je zahrnuto jako byte dat
 179   1         ch = Packet.Data.Byte[ Index];
 180   1      
 181   1         Index++;
 182   1         if( ch == STX_CHAR){
 183   2            IsStx = YES;                // v pristim cyklu zdvojime
 184   2         }
 185   1         SBUF = ch;
 186   1      } // ComIsr
 187          
C51 COMPILER V5.50,  TXPACKET                                                              15/03/07  07:40:25  PAGE 4   

ASSEMBLY LISTING OF GENERATED OBJECT CODE


             ; FUNCTION TxPacketInit (BEGIN)
                                           ; SOURCE LINE # 34
                                           ; SOURCE LINE # 36
                                           ; SOURCE LINE # 37
0000 C2AC          CLR     ES
                                           ; SOURCE LINE # 42
0002 53877F        ANL     PCON,#07FH
                                           ; SOURCE LINE # 53
0005 75CAC1        MOV     RCAP2L,#0C1H
0008 75CBFF        MOV     RCAP2H,#0FFH
                                           ; SOURCE LINE # 54
000B 75C834        MOV     T2CON,#034H
                                           ; SOURCE LINE # 57
000E 759852        MOV     SCON,#052H
                                           ; SOURCE LINE # 62
0011 C200    R     CLR     _PacketTxActive
                                           ; SOURCE LINE # 63
0013 7500FA  R     MOV     Index,#0FAH
                                           ; SOURCE LINE # 64
0016 D2AC          SETB    ES
                                           ; SOURCE LINE # 65
0018 22            RET     
             ; FUNCTION TxPacketInit (END)

             ; FUNCTION TxPacketTransmit (BEGIN)
                                           ; SOURCE LINE # 71
                                           ; SOURCE LINE # 73
                                           ; SOURCE LINE # 75
0000 D200    R     SETB    _PacketTxActive
                                           ; SOURCE LINE # 76
0002 C200    R     CLR     IsStx
                                           ; SOURCE LINE # 86
0004 E4            CLR     A
0005 F500    R     MOV     SyncIndex,A
                                           ; SOURCE LINE # 87
0007 900000  E     MOV     DPTR,#PacketSync
000A 93            MOVC    A,@A+DPTR
000B F599          MOV     SBUF,A
                                           ; SOURCE LINE # 88
000D 7500FF  R     MOV     Index,#0FFH
                                           ; SOURCE LINE # 94
0010 22            RET     
             ; FUNCTION TxPacketTransmit (END)

             ; FUNCTION TxPacketStop (BEGIN)
                                           ; SOURCE LINE # 100
                                           ; SOURCE LINE # 102
                                           ; SOURCE LINE # 103
0000 7500FA  R     MOV     Index,#0FAH
0003         ?C0003:
                                           ; SOURCE LINE # 104
0003 2099FD        JB      TI,?C0003
0006         ?C0004:
                                           ; SOURCE LINE # 105
0006 C2AC          CLR     ES
                                           ; SOURCE LINE # 106
0008 22            RET     
             ; FUNCTION TxPacketStop (END)

             ; FUNCTION ComIsr (BEGIN)
0000 C0E0          PUSH    ACC
0002 C083          PUSH    DPH
0004 C082          PUSH    DPL
C51 COMPILER V5.50,  TXPACKET                                                              15/03/07  07:40:25  PAGE 5   

0006 C0D0          PUSH    PSW
0008 75D000        MOV     PSW,#00H
000B C007          PUSH    AR7
                                           ; SOURCE LINE # 112
                                           ; SOURCE LINE # 116
000D 309802        JNB     RI,?C0006
                                           ; SOURCE LINE # 117
0010 C298          CLR     RI
                                           ; SOURCE LINE # 118
0012         ?C0006:
                                           ; SOURCE LINE # 119
0012 30996D        JNB     TI,?C0008
                                           ; SOURCE LINE # 121
0015         ?C0007:
                                           ; SOURCE LINE # 123
0015 C299          CLR     TI
                                           ; SOURCE LINE # 140
0017 E500    R     MOV     A,Index
0019 B4FF1B        CJNE    A,#0FFH,?C0009
                                           ; SOURCE LINE # 141
001C E500    R     MOV     A,SyncIndex
001E C3            CLR     C
001F 9402          SUBB    A,#02H
0021 500C          JNC     ?C0010
                                           ; SOURCE LINE # 142
0023 0500    R     INC     SyncIndex
                                           ; SOURCE LINE # 143
0025 E500    R     MOV     A,SyncIndex
0027 900000  E     MOV     DPTR,#PacketSync
002A 93            MOVC    A,@A+DPTR
002B F599          MOV     SBUF,A
                                           ; SOURCE LINE # 144
002D 8053          SJMP    ?C0008
002F         ?C0010:
                                           ; SOURCE LINE # 146
002F 7599FE        MOV     SBUF,#0FEH
                                           ; SOURCE LINE # 147
0032 7500FD  R     MOV     Index,#0FDH
                                           ; SOURCE LINE # 148
0035 804B          SJMP    ?C0008
                                           ; SOURCE LINE # 150
0037         ?C0009:
                                           ; SOURCE LINE # 153
0037 E500    R     MOV     A,Index
0039 B4FD0B        CJNE    A,#0FDH,?C0012
                                           ; SOURCE LINE # 154
003C 900000  R     MOV     DPTR,#Packet+01H
003F E0            MOVX    A,@DPTR
0040 F599          MOV     SBUF,A
                                           ; SOURCE LINE # 155
0042 7500FC  R     MOV     Index,#0FCH
0045 803B          SJMP    ?C0008
                                           ; SOURCE LINE # 157
0047         ?C0012:
                                           ; SOURCE LINE # 158
0047 E500    R     MOV     A,Index
0049 B4FC0B        CJNE    A,#0FCH,?C0013
                                           ; SOURCE LINE # 159
004C 900000  R     MOV     DPTR,#Packet+02H
004F E0            MOVX    A,@DPTR
0050 F599          MOV     SBUF,A
                                           ; SOURCE LINE # 160
0052 750000  R     MOV     Index,#00H
0055 802B          SJMP    ?C0008
                                           ; SOURCE LINE # 162
0057         ?C0013:
C51 COMPILER V5.50,  TXPACKET                                                              15/03/07  07:40:25  PAGE 6   

                                           ; SOURCE LINE # 163
0057 300007  R     JNB     IsStx,?C0014
                                           ; SOURCE LINE # 165
005A C200    R     CLR     IsStx
                                           ; SOURCE LINE # 166
005C 7599FE        MOV     SBUF,#0FEH
005F 8021          SJMP    ?C0008
                                           ; SOURCE LINE # 168
0061         ?C0014:
                                           ; SOURCE LINE # 169
0061 E500    R     MOV     A,Index
0063 D3            SETB    C
0064 9402          SUBB    A,#02H
0066 4004          JC      ?C0015
                                           ; SOURCE LINE # 171
0068 C200    R     CLR     _PacketTxActive
006A 8016          SJMP    ?C0008
                                           ; SOURCE LINE # 177
006C         ?C0015:
                                           ; SOURCE LINE # 179
006C 7400    R     MOV     A,#LOW Packet+03H
006E 2500    R     ADD     A,Index
0070 F582          MOV     DPL,A
0072 E4            CLR     A
0073 3400    R     ADDC    A,#HIGH Packet+03H
0075 F583          MOV     DPH,A
0077 E0            MOVX    A,@DPTR
0078 FF            MOV     R7,A
;---- Variable 'ch' assigned to Register 'R7' ----
                                           ; SOURCE LINE # 181
0079 0500    R     INC     Index
                                           ; SOURCE LINE # 182
007B BFFE02        CJNE    R7,#0FEH,?C0016
                                           ; SOURCE LINE # 183
007E D200    R     SETB    IsStx
                                           ; SOURCE LINE # 184
0080         ?C0016:
                                           ; SOURCE LINE # 185
0080 8F99          MOV     SBUF,R7
                                           ; SOURCE LINE # 186
0082         ?C0008:
0082 D007          POP     AR7
0084 D0D0          POP     PSW
0086 D082          POP     DPL
0088 D083          POP     DPH
008A D0E0          POP     ACC
008C 32            RETI    
             ; FUNCTION ComIsr (END)



MODULE INFORMATION:   STATIC OVERLAYABLE
   CODE SIZE        =    195    ----
   CONSTANT SIZE    =   ----    ----
   XDATA SIZE       =      6    ----
   PDATA SIZE       =   ----    ----
   DATA SIZE        =      2    ----
   IDATA SIZE       =   ----    ----
   BIT SIZE         =      2    ----
END OF MODULE INFORMATION.


C51 COMPILATION COMPLETE.  0 WARNING(S),  0 ERROR(S)
