C51 COMPILER V5.50,  DATA                                                                  02/12/08  15:57:41  PAGE 1   


DOS C51 COMPILER V5.50, COMPILATION OF MODULE DATA
OBJECT MODULE PLACED IN DATA.OBJ
COMPILER INVOKED BY: E:\C51_V5.5\BIN\C51.EXE DATA.C51 CD DB

stmt level    source

   1          //*****************************************************************************
   2          //
   3          //    Data.c - zdroj dat z jednoho nebo vice souboru pro statisticke vypocty
   4          //    Version 1.0
   5          //
   6          //*****************************************************************************
   7          
   8          #include "Data.h"
   9          #include "..\inc\X25645.h"     // Externi EEPROM
  10          
  11          TData __xdata__ Data;
  12          
  13          #define SetStartAddress()       Data.CurrentAddress = DelkaSouboruVBajtech() * (Data.CurrentFile - 1)     
             -     // Adresa pocatku aktualniho souboru
  14          extern unsigned char idata PocetSouboru;
  15          
  16          
  17          //-----------------------------------------------------------------------------
  18          // Smazani vsech souboru
  19          //-----------------------------------------------------------------------------
  20          
  21          void DataClear() {
  22   1        // Vymaze vsechny soubory ze seznamu
  23   1        Data.FilesCount       = 0;
  24   1        Data.CurrentFile      = 0;
  25   1        Data.CurrentFileIndex = 0;
  26   1      }
  27          
  28          //-----------------------------------------------------------------------------
  29          // Pridani souboru
  30          //-----------------------------------------------------------------------------
  31          
  32          TYesNo DataAddFile(byte FileNumber) {
  33   1        // Prida do seznamu soubor zadany cislem <FileNumber>. Pokud je uz seznam plny, vrati NO.
  34   1        if (Data.FilesCount >= DATA_MAX_FILES) {
  35   2          return NO;  // Seznam je plny
  36   2        }
  37   1        Data.Files[Data.FilesCount] = FileNumber;
  38   1        Data.FilesCount++;
  39   1        return YES;
  40   1      }
  41          
  42          //-----------------------------------------------------------------------------
  43          // Nastaveni na 1 soubor
  44          //-----------------------------------------------------------------------------
  45          
  46          void DataSetOneFile(byte FileNumber) {
  47   1        // Nastavi na 1 soubor zadany cislem <FileNumber>
  48   1        Data.Files[0]   = FileNumber;
  49   1        Data.FilesCount = 1;
  50   1      }
  51          
  52          //-----------------------------------------------------------------------------
  53          // Inicializace nacitani vzorku
  54          //-----------------------------------------------------------------------------
  55          
  56          TYesNo DataFirst() {
  57   1        // Nastavi cteni na 1. vzorek prvniho souboru
  58   1        if (Data.FilesCount == 0) {
C51 COMPILER V5.50,  DATA                                                                  02/12/08  15:57:41  PAGE 2   

  59   2          return NO;  // Seznam je prazdny
  60   2        }
  61   1        Data.CurrentFile      = Data.Files[0];
  62   1        Data.CurrentFileIndex = 0;
  63   1        SetStartAddress();                    // Adresa pocatku aktualniho souboru
  64   1        return YES;
  65   1      }
  66          
  67          //-----------------------------------------------------------------------------
  68          // Posunuti na dalsi vzorek
  69          //-----------------------------------------------------------------------------
  70          
  71          TYesNo DataNext() {
  72   1        // Posune se na dalsi platny vzorek (bud na dalsi vzorek v aktualnim souboru, nebo na zacatek dalsiho so
             -uboru). Pokud je uz na konci, vrati NO.
  73   1        Data.CurrentAddress += 2;     // Adresa dalsiho vzorku
  74   1        if (Data.CurrentAddress >= DelkaSouboruVBajtech() * Data.CurrentFile || EepReadByte(Data.CurrentAddress)
             - == 0xFF) {
  75   2          // Dosel jsem na konec aktualniho souboru, presunu se na dalsi neprazdny soubor v seznamu
  76   2          do {
  77   3            if (Data.CurrentFileIndex + 1 >= Data.FilesCount) {
  78   4              return NO;  // Dalsi soubor uz v seznamu neni
  79   4            }
  80   3            Data.CurrentFileIndex++;  // Prejdu na dalsi soubor v poli
  81   3            Data.CurrentFile = Data.Files[Data.CurrentFileIndex];     // Cislo fyzickeho souboru
  82   3            SetStartAddress();        // Adresa pocatku aktualniho souboru
  83   3          } while (EepReadByte(Data.CurrentAddress) == 0xFF);         // Posunuju soubor, dokud nenarazim na nej
             -aky vzorek na zacatku souboru
  84   2        }//if
  85   1        // Na aktualni adrese je nejaky vzorek
  86   1        return YES;
  87   1      }
  88          
  89          //-----------------------------------------------------------------------------
  90          // Nacteni vzorku
  91          //-----------------------------------------------------------------------------
  92          
  93          TYesNo DataRead() {
  94   1        // Nacte vzorek na aktualni pozici a ulozi udaje do Weight a Flag
  95   1        TUs US;
  96   1        US.SR.Y1 = EepReadByte(Data.CurrentAddress);
  97   1        if (US.SR.Y1 == 0xFF) {
  98   2          return NO;  // Konec souboru
  99   2        }
 100   1        Data.Flag = (TYesNo)((US.SR.Y1 & 0x80) == 0x80);
 101   1        US.SR.Y1 &= 0x7F;     // Smazu flag
 102   1        US.SR.Y2 = EepReadByte(Data.CurrentAddress + 1);
 103   1        Data.Weight = US.DS;
 104   1        return YES;
 105   1      }
 106          
 107          //-----------------------------------------------------------------------------
 108          // Hledani cisla souboru
 109          //-----------------------------------------------------------------------------
 110          
 111          TYesNo DataFileExists(byte FileNumber) {
 112   1        // Pokud je uz soubor <FileNumber> v seznamu, vrati YES.
 113   1        byte j;
 114   1      
 115   1        for (j = 0; j < Data.FilesCount; j++) {
 116   2          if (Data.Files[j] == FileNumber) {
 117   3            return YES;       // Nasel jsem soubor
 118   3          }
 119   2        }
 120   1        return NO;            // Nenasel jsem
 121   1      }
C51 COMPILER V5.50,  DATA                                                                  02/12/08  15:57:41  PAGE 3   

ASSEMBLY LISTING OF GENERATED OBJECT CODE


             ; FUNCTION DataClear (BEGIN)
                                           ; SOURCE LINE # 21
                                           ; SOURCE LINE # 23
0000 E4            CLR     A
0001 900000  R     MOV     DPTR,#Data+063H
0004 F0            MOVX    @DPTR,A
                                           ; SOURCE LINE # 24
0005 A3            INC     DPTR
0006 F0            MOVX    @DPTR,A
                                           ; SOURCE LINE # 25
0007 A3            INC     DPTR
0008 F0            MOVX    @DPTR,A
                                           ; SOURCE LINE # 26
0009 22            RET     
             ; FUNCTION DataClear (END)

             ; FUNCTION _DataAddFile (BEGIN)
;---- Variable 'FileNumber' assigned to Register 'R7' ----
                                           ; SOURCE LINE # 32
                                           ; SOURCE LINE # 34
0000 900000  R     MOV     DPTR,#Data+063H
0003 E0            MOVX    A,@DPTR
0004 FE            MOV     R6,A
0005 C3            CLR     C
0006 9463          SUBB    A,#063H
0008 4002          JC      ?C0002
                                           ; SOURCE LINE # 35
000A C3            CLR     C
000B 22            RET     
                                           ; SOURCE LINE # 36
000C         ?C0002:
                                           ; SOURCE LINE # 37
000C 7400    R     MOV     A,#LOW Data
000E 2E            ADD     A,R6
000F F582          MOV     DPL,A
0011 E4            CLR     A
0012 3400    R     ADDC    A,#HIGH Data
0014 F583          MOV     DPH,A
0016 EF            MOV     A,R7
0017 F0            MOVX    @DPTR,A
                                           ; SOURCE LINE # 38
0018 900000  R     MOV     DPTR,#Data+063H
001B E0            MOVX    A,@DPTR
001C 04            INC     A
001D F0            MOVX    @DPTR,A
                                           ; SOURCE LINE # 39
001E D3            SETB    C
                                           ; SOURCE LINE # 40
001F         ?C0003:
001F 22            RET     
             ; FUNCTION _DataAddFile (END)

             ; FUNCTION _DataSetOneFile (BEGIN)
;---- Variable 'FileNumber' assigned to Register 'R7' ----
                                           ; SOURCE LINE # 46
                                           ; SOURCE LINE # 48
0000 900000  R     MOV     DPTR,#Data
0003 EF            MOV     A,R7
0004 F0            MOVX    @DPTR,A
                                           ; SOURCE LINE # 49
0005 900000  R     MOV     DPTR,#Data+063H
0008 7401          MOV     A,#01H
000A F0            MOVX    @DPTR,A
C51 COMPILER V5.50,  DATA                                                                  02/12/08  15:57:41  PAGE 4   

                                           ; SOURCE LINE # 50
000B 22            RET     
             ; FUNCTION _DataSetOneFile (END)

             ; FUNCTION DataFirst (BEGIN)
                                           ; SOURCE LINE # 56
                                           ; SOURCE LINE # 58
0000 900000  R     MOV     DPTR,#Data+063H
0003 E0            MOVX    A,@DPTR
0004 7002          JNZ     ?C0005
                                           ; SOURCE LINE # 59
0006 C3            CLR     C
0007 22            RET     
                                           ; SOURCE LINE # 60
0008         ?C0005:
                                           ; SOURCE LINE # 61
0008 900000  R     MOV     DPTR,#Data
000B E0            MOVX    A,@DPTR
000C 900000  R     MOV     DPTR,#Data+064H
000F F0            MOVX    @DPTR,A
                                           ; SOURCE LINE # 62
0010 E4            CLR     A
0011 A3            INC     DPTR
0012 F0            MOVX    @DPTR,A
                                           ; SOURCE LINE # 63
0013 7800    E     MOV     R0,#PocetSouboru
0015 E6            MOV     A,@R0
0016 FD            MOV     R5,A
0017 7C00          MOV     R4,#00H
0019 7E1F          MOV     R6,#01FH
001B 7F40          MOV     R7,#040H
001D 120000  E     LCALL   ?C?UIDIV
0020 EF            MOV     A,R7
0021 2402          ADD     A,#02H
0023 FF            MOV     R7,A
0024 E4            CLR     A
0025 3E            ADDC    A,R6
0026 FE            MOV     R6,A
0027 900000  R     MOV     DPTR,#Data+064H
002A E0            MOVX    A,@DPTR
002B 24FF          ADD     A,#0FFH
002D FD            MOV     R5,A
002E E4            CLR     A
002F 34FF          ADDC    A,#0FFH
0031 FC            MOV     R4,A
0032 120000  E     LCALL   ?C?IMUL
0035 900000  R     MOV     DPTR,#Data+066H
0038 EE            MOV     A,R6
0039 F0            MOVX    @DPTR,A
003A A3            INC     DPTR
003B EF            MOV     A,R7
003C F0            MOVX    @DPTR,A
                                           ; SOURCE LINE # 64
003D D3            SETB    C
                                           ; SOURCE LINE # 65
003E         ?C0006:
003E 22            RET     
             ; FUNCTION DataFirst (END)

             ; FUNCTION DataNext (BEGIN)
                                           ; SOURCE LINE # 71
                                           ; SOURCE LINE # 73
0000 900000  R     MOV     DPTR,#Data+067H
0003 E0            MOVX    A,@DPTR
0004 2402          ADD     A,#02H
0006 F0            MOVX    @DPTR,A
C51 COMPILER V5.50,  DATA                                                                  02/12/08  15:57:41  PAGE 5   

0007 900000  R     MOV     DPTR,#Data+066H
000A E0            MOVX    A,@DPTR
000B 3400          ADDC    A,#00H
000D F0            MOVX    @DPTR,A
                                           ; SOURCE LINE # 74
000E 7800    E     MOV     R0,#PocetSouboru
0010 E6            MOV     A,@R0
0011 FD            MOV     R5,A
0012 7C00          MOV     R4,#00H
0014 7E1F          MOV     R6,#01FH
0016 7F40          MOV     R7,#040H
0018 120000  E     LCALL   ?C?UIDIV
001B EF            MOV     A,R7
001C 2402          ADD     A,#02H
001E FF            MOV     R7,A
001F E4            CLR     A
0020 3E            ADDC    A,R6
0021 FE            MOV     R6,A
0022 900000  R     MOV     DPTR,#Data+064H
0025 E0            MOVX    A,@DPTR
0026 FD            MOV     R5,A
0027 7C00          MOV     R4,#00H
0029 120000  E     LCALL   ?C?IMUL
002C AC06          MOV     R4,AR6
002E AD07          MOV     R5,AR7
0030 900000  R     MOV     DPTR,#Data+066H
0033 E0            MOVX    A,@DPTR
0034 FE            MOV     R6,A
0035 A3            INC     DPTR
0036 E0            MOVX    A,@DPTR
0037 FF            MOV     R7,A
0038 C3            CLR     C
0039 9D            SUBB    A,R5
003A EE            MOV     A,R6
003B 9C            SUBB    A,R4
003C 5007          JNC     ?C0011
003E 120000  E     LCALL   _EepReadByte
0041 EF            MOV     A,R7
0042 F4            CPL     A
0043 7060          JNZ     ?C0007
0045         ?C0011:
                                           ; SOURCE LINE # 76
                                           ; SOURCE LINE # 77
0045 900000  R     MOV     DPTR,#Data+065H
0048 E0            MOVX    A,@DPTR
0049 2401          ADD     A,#01H
004B FF            MOV     R7,A
004C E4            CLR     A
004D 33            RLC     A
004E FE            MOV     R6,A
004F 900000  R     MOV     DPTR,#Data+063H
0052 E0            MOVX    A,@DPTR
0053 FD            MOV     R5,A
0054 C3            CLR     C
0055 EF            MOV     A,R7
0056 9D            SUBB    A,R5
0057 7480          MOV     A,#080H
0059 F8            MOV     R0,A
005A 6E            XRL     A,R6
005B 98            SUBB    A,R0
005C 4002          JC      ?C0012
                                           ; SOURCE LINE # 78
005E C3            CLR     C
005F 22            RET     
                                           ; SOURCE LINE # 79
0060         ?C0012:
C51 COMPILER V5.50,  DATA                                                                  02/12/08  15:57:41  PAGE 6   

                                           ; SOURCE LINE # 80
0060 900000  R     MOV     DPTR,#Data+065H
0063 E0            MOVX    A,@DPTR
0064 04            INC     A
0065 F0            MOVX    @DPTR,A
                                           ; SOURCE LINE # 81
0066 E0            MOVX    A,@DPTR
0067 2400    R     ADD     A,#LOW Data
0069 F582          MOV     DPL,A
006B E4            CLR     A
006C 3400    R     ADDC    A,#HIGH Data
006E F583          MOV     DPH,A
0070 E0            MOVX    A,@DPTR
0071 FF            MOV     R7,A
0072 900000  R     MOV     DPTR,#Data+064H
0075 F0            MOVX    @DPTR,A
0076 FB            MOV     R3,A
                                           ; SOURCE LINE # 82
0077 7800    E     MOV     R0,#PocetSouboru
0079 E6            MOV     A,@R0
007A FD            MOV     R5,A
007B 7C00          MOV     R4,#00H
007D 7E1F          MOV     R6,#01FH
007F 7F40          MOV     R7,#040H
0081 120000  E     LCALL   ?C?UIDIV
0084 EF            MOV     A,R7
0085 2402          ADD     A,#02H
0087 FF            MOV     R7,A
0088 E4            CLR     A
0089 3E            ADDC    A,R6
008A FE            MOV     R6,A
008B EB            MOV     A,R3
008C 24FF          ADD     A,#0FFH
008E FD            MOV     R5,A
008F E4            CLR     A
0090 34FF          ADDC    A,#0FFH
0092 FC            MOV     R4,A
0093 120000  E     LCALL   ?C?IMUL
0096 900000  R     MOV     DPTR,#Data+066H
0099 EE            MOV     A,R6
009A F0            MOVX    @DPTR,A
009B A3            INC     DPTR
009C EF            MOV     A,R7
009D F0            MOVX    @DPTR,A
                                           ; SOURCE LINE # 83
009E 120000  E     LCALL   _EepReadByte
00A1 EF            MOV     A,R7
00A2 F4            CPL     A
00A3 60A0          JZ      ?C0011
                                           ; SOURCE LINE # 84
00A5         ?C0007:
                                           ; SOURCE LINE # 86
00A5 D3            SETB    C
                                           ; SOURCE LINE # 87
00A6         ?C0013:
00A6 22            RET     
             ; FUNCTION DataNext (END)

             ; FUNCTION DataRead (BEGIN)
                                           ; SOURCE LINE # 93
                                           ; SOURCE LINE # 96
0000 900000  R     MOV     DPTR,#Data+066H
0003 E0            MOVX    A,@DPTR
0004 FE            MOV     R6,A
0005 A3            INC     DPTR
0006 E0            MOVX    A,@DPTR
C51 COMPILER V5.50,  DATA                                                                  02/12/08  15:57:41  PAGE 7   

0007 FF            MOV     R7,A
0008 120000  E     LCALL   _EepReadByte
000B 8F00    R     MOV     US,R7
                                           ; SOURCE LINE # 97
000D E500    R     MOV     A,US
000F B4FF02        CJNE    A,#0FFH,?C0014
                                           ; SOURCE LINE # 98
0012 C3            CLR     C
0013 22            RET     
                                           ; SOURCE LINE # 99
0014         ?C0014:
                                           ; SOURCE LINE # 100
0014 E500    R     MOV     A,US
0016 5480          ANL     A,#080H
0018 FF            MOV     R7,A
0019 BF8003        CJNE    R7,#080H,?C0016
001C D3            SETB    C
001D 8001          SJMP    ?C0017
001F         ?C0016:
001F C3            CLR     C
0020         ?C0017:
0020 E4            CLR     A
0021 33            RLC     A
0022 900000  R     MOV     DPTR,#Data+06AH
0025 F0            MOVX    @DPTR,A
                                           ; SOURCE LINE # 101
0026 53007F  R     ANL     US,#07FH
                                           ; SOURCE LINE # 102
0029 900000  R     MOV     DPTR,#Data+067H
002C E0            MOVX    A,@DPTR
002D 2401          ADD     A,#01H
002F FF            MOV     R7,A
0030 900000  R     MOV     DPTR,#Data+066H
0033 E0            MOVX    A,@DPTR
0034 3400          ADDC    A,#00H
0036 FE            MOV     R6,A
0037 120000  E     LCALL   _EepReadByte
003A 8F00    R     MOV     US+01H,R7
                                           ; SOURCE LINE # 103
003C 900000  R     MOV     DPTR,#Data+068H
003F E500    R     MOV     A,US
0041 F0            MOVX    @DPTR,A
0042 A3            INC     DPTR
0043 E500    R     MOV     A,US+01H
0045 F0            MOVX    @DPTR,A
                                           ; SOURCE LINE # 104
0046 D3            SETB    C
                                           ; SOURCE LINE # 105
0047         ?C0015:
0047 22            RET     
             ; FUNCTION DataRead (END)

             ; FUNCTION _DataFileExists (BEGIN)
;---- Variable 'FileNumber' assigned to Register 'R7' ----
                                           ; SOURCE LINE # 111
                                           ; SOURCE LINE # 115
;---- Variable 'j' assigned to Register 'R6' ----
0000 E4            CLR     A
0001 FE            MOV     R6,A
0002         ?C0018:
0002 900000  R     MOV     DPTR,#Data+063H
0005 E0            MOVX    A,@DPTR
0006 FD            MOV     R5,A
0007 EE            MOV     A,R6
0008 C3            CLR     C
0009 9D            SUBB    A,R5
C51 COMPILER V5.50,  DATA                                                                  02/12/08  15:57:41  PAGE 8   

000A 5013          JNC     ?C0019
                                           ; SOURCE LINE # 116
000C 7400    R     MOV     A,#LOW Data
000E 2E            ADD     A,R6
000F F582          MOV     DPL,A
0011 E4            CLR     A
0012 3400    R     ADDC    A,#HIGH Data
0014 F583          MOV     DPH,A
0016 E0            MOVX    A,@DPTR
0017 B50702        CJNE    A,AR7,?C0020
                                           ; SOURCE LINE # 117
001A D3            SETB    C
001B 22            RET     
                                           ; SOURCE LINE # 118
                                           ; SOURCE LINE # 119
001C         ?C0020:
001C 0E            INC     R6
001D 80E3          SJMP    ?C0018
001F         ?C0019:
                                           ; SOURCE LINE # 120
001F C3            CLR     C
                                           ; SOURCE LINE # 121
0020         ?C0022:
0020 22            RET     
             ; FUNCTION _DataFileExists (END)



MODULE INFORMATION:   STATIC OVERLAYABLE
   CODE SIZE        =    389    ----
   CONSTANT SIZE    =   ----    ----
   XDATA SIZE       =    107    ----
   PDATA SIZE       =   ----    ----
   DATA SIZE        =   ----       2
   IDATA SIZE       =   ----    ----
   BIT SIZE         =   ----    ----
END OF MODULE INFORMATION.


C51 COMPILATION COMPLETE.  0 WARNING(S),  0 ERROR(S)
