C51 COMPILER V5.50,  AIN                                                                   12/10/09  13:17:38  PAGE 1   


DOS C51 COMPILER V5.50, COMPILATION OF MODULE AIN
OBJECT MODULE PLACED IN AIN.OBJ
COMPILER INVOKED BY: E:\C51_V5.5\BIN\C51.EXE AIN.C51 CD DB

stmt level    source

   1          //*****************************************************************************
   2          //
   3          //    Ain.c - Analogove vstupy
   4          //    Version 1.0
   5          //
   6          //*****************************************************************************
   7          
   8          #include "Ain.h"
   9          #include "..\inc\Adc0832.h"             // AD prevodnik
  10          #include "..\inc\System.h"              // "operacni system" - SysDelay()
  11          
  12          //-----------------------------------------------------------------------------
  13          // Inicializace
  14          //-----------------------------------------------------------------------------
  15          
  16          void AinInit() {
  17   1        // Inicializuje AD prevodnik
  18   1        AdcInit();
  19   1      }
  20          
  21          //-----------------------------------------------------------------------------
  22          // Cteni analogoveho vstupu
  23          //-----------------------------------------------------------------------------
  24          
  25          byte AinRead(byte Channel) {
  26   1        // Precte analogovy vstup s cislem <Channel>
  27   1        // Premapuju vstupy
  28   1        switch (Channel) {
  29   2          case 0:   Channel = ADC_SINGLE_CH0; break;
  30   2          default:  Channel = ADC_SINGLE_CH1;
  31   2        }//switch
  32   1        return AdcRead(Channel);
  33   1      }
  34          
  35          //-----------------------------------------------------------------------------
  36          // Kalibrace analogoveho vstupu
  37          //-----------------------------------------------------------------------------
  38          
  39          #define AIN_CALIBRATION_COUNT  100   // Kolik prevodu se nacte
  40          #define AIN_CALIBRATION_DELAY  10    // Kolik milisekund se ceka mezi jednotlivymi prevody
  41          
  42          byte AinCalibrate(byte Channel) {
  43   1        // Nacte kalibraci vstupu Channel
  44   1        byte j;
  45   1        word Sum;
  46   1      
  47   1        SysDelay(3000);   // Pockam na ustaleni po pisknuti na klaveu
  48   1        Sum = 0;
  49   1        for (j = 0; j < AIN_CALIBRATION_COUNT; j++) {
  50   2          Sum += AinRead(Channel);
  51   2          SysDelay(AIN_CALIBRATION_DELAY);
  52   2        }//for
  53   1        Sum += AIN_CALIBRATION_COUNT / 2;    // Zaokrouhleni
  54   1        Sum /= AIN_CALIBRATION_COUNT;
  55   1        return Sum;
  56   1      }
  57          
  58          
C51 COMPILER V5.50,  AIN                                                                   12/10/09  13:17:38  PAGE 2   

ASSEMBLY LISTING OF GENERATED OBJECT CODE


             ; FUNCTION AinInit (BEGIN)
                                           ; SOURCE LINE # 16
                                           ; SOURCE LINE # 18
0000 120000  E     LCALL   AdcInit
                                           ; SOURCE LINE # 19
0003 22            RET     
             ; FUNCTION AinInit (END)

             ; FUNCTION _AinRead (BEGIN)
;---- Variable 'Channel' assigned to Register 'R7' ----
                                           ; SOURCE LINE # 25
                                           ; SOURCE LINE # 28
0000 EF            MOV     A,R7
0001 7004          JNZ     ?C0004
                                           ; SOURCE LINE # 29
0003         ?C0003:
0003 7F03          MOV     R7,#03H
0005 8002          SJMP    ?C0002
                                           ; SOURCE LINE # 30
0007         ?C0004:
0007 7F07          MOV     R7,#07H
                                           ; SOURCE LINE # 31
0009         ?C0002:
                                           ; SOURCE LINE # 32
0009 120000  E     LCALL   _AdcRead
                                           ; SOURCE LINE # 33
000C         ?C0005:
000C 22            RET     
             ; FUNCTION _AinRead (END)

             ; FUNCTION _AinCalibrate (BEGIN)
0000 8F00    R     MOV     Channel,R7
                                           ; SOURCE LINE # 42
                                           ; SOURCE LINE # 47
0002 7FB8          MOV     R7,#0B8H
0004 7E0B          MOV     R6,#0BH
0006 120000  E     LCALL   _SysDelay
                                           ; SOURCE LINE # 48
0009 E4            CLR     A
000A F500    R     MOV     Sum,A
000C F500    R     MOV     Sum+01H,A
                                           ; SOURCE LINE # 49
000E F500    R     MOV     j,A
0010         ?C0006:
                                           ; SOURCE LINE # 50
0010 AF00    R     MOV     R7,Channel
0012 120000  R     LCALL   _AinRead
0015 EF            MOV     A,R7
0016 2500    R     ADD     A,Sum+01H
0018 F500    R     MOV     Sum+01H,A
001A E4            CLR     A
001B 3500    R     ADDC    A,Sum
001D F500    R     MOV     Sum,A
                                           ; SOURCE LINE # 51
001F 7F0A          MOV     R7,#0AH
0021 7E00          MOV     R6,#00H
0023 120000  E     LCALL   _SysDelay
                                           ; SOURCE LINE # 52
0026 0500    R     INC     j
0028 E500    R     MOV     A,j
002A C3            CLR     C
002B 9464          SUBB    A,#064H
002D 40E1          JC      ?C0006
C51 COMPILER V5.50,  AIN                                                                   12/10/09  13:17:38  PAGE 3   

002F         ?C0007:
                                           ; SOURCE LINE # 53
002F 7432          MOV     A,#032H
0031 2500    R     ADD     A,Sum+01H
0033 F500    R     MOV     Sum+01H,A
0035 E4            CLR     A
0036 3500    R     ADDC    A,Sum
0038 F500    R     MOV     Sum,A
                                           ; SOURCE LINE # 54
003A FE            MOV     R6,A
003B AF00    R     MOV     R7,Sum+01H
003D 7C00          MOV     R4,#00H
003F 7D64          MOV     R5,#064H
0041 120000  E     LCALL   ?C?UIDIV
0044 8E00    R     MOV     Sum,R6
0046 8F00    R     MOV     Sum+01H,R7
                                           ; SOURCE LINE # 55
                                           ; SOURCE LINE # 56
0048         ?C0009:
0048 22            RET     
             ; FUNCTION _AinCalibrate (END)



MODULE INFORMATION:   STATIC OVERLAYABLE
   CODE SIZE        =     90    ----
   CONSTANT SIZE    =   ----    ----
   XDATA SIZE       =   ----    ----
   PDATA SIZE       =   ----    ----
   DATA SIZE        =   ----       4
   IDATA SIZE       =   ----    ----
   BIT SIZE         =   ----    ----
END OF MODULE INFORMATION.


C51 COMPILATION COMPLETE.  0 WARNING(S),  0 ERROR(S)
