
HIDMemory.elf:     file format elf32-avr

Sections:
Idx Name          Size      VMA       LMA       File off  Algn
  0 .data         00000010  00800100  00002688  0000271c  2**0
                  CONTENTS, ALLOC, LOAD, DATA
  1 .text         00002688  00000000  00000000  00000094  2**1
                  CONTENTS, ALLOC, LOAD, READONLY, CODE
  2 .bss          00000068  00800110  00800110  0000272c  2**0
                  ALLOC
  3 .noinit       00000004  00800178  00800178  0000272c  2**0
                  ALLOC
  4 .stab         00000c84  00000000  00000000  0000272c  2**2
                  CONTENTS, READONLY, DEBUGGING
  5 .stabstr      000001b6  00000000  00000000  000033b0  2**0
                  CONTENTS, READONLY, DEBUGGING
  6 .debug_aranges 00000228  00000000  00000000  00003566  2**0
                  CONTENTS, READONLY, DEBUGGING
  7 .debug_pubnames 00000951  00000000  00000000  0000378e  2**0
                  CONTENTS, READONLY, DEBUGGING
  8 .debug_info   0000365a  00000000  00000000  000040df  2**0
                  CONTENTS, READONLY, DEBUGGING
  9 .debug_abbrev 0000128e  00000000  00000000  00007739  2**0
                  CONTENTS, READONLY, DEBUGGING
 10 .debug_line   00003f13  00000000  00000000  000089c7  2**0
                  CONTENTS, READONLY, DEBUGGING
 11 .debug_frame  000005f0  00000000  00000000  0000c8dc  2**2
                  CONTENTS, READONLY, DEBUGGING
 12 .debug_str    000012d7  00000000  00000000  0000cecc  2**0
                  CONTENTS, READONLY, DEBUGGING
 13 .debug_loc    000012b7  00000000  00000000  0000e1a3  2**0
                  CONTENTS, READONLY, DEBUGGING
 14 .debug_pubtypes 00000797  00000000  00000000  0000f45a  2**0
                  CONTENTS, READONLY, DEBUGGING
 15 .debug_ranges 00000090  00000000  00000000  0000fbf1  2**0
                  CONTENTS, READONLY, DEBUGGING

Disassembly of section .text:

00000000 <__vectors>:
       0:	0c 94 e4 00 	jmp	0x1c8	; 0x1c8 <__ctors_end>
       4:	0c 94 0d 01 	jmp	0x21a	; 0x21a <__bad_interrupt>
       8:	0c 94 0d 01 	jmp	0x21a	; 0x21a <__bad_interrupt>
       c:	0c 94 0d 01 	jmp	0x21a	; 0x21a <__bad_interrupt>
      10:	0c 94 0d 01 	jmp	0x21a	; 0x21a <__bad_interrupt>
      14:	0c 94 0d 01 	jmp	0x21a	; 0x21a <__bad_interrupt>
      18:	0c 94 0d 01 	jmp	0x21a	; 0x21a <__bad_interrupt>
      1c:	0c 94 0d 01 	jmp	0x21a	; 0x21a <__bad_interrupt>
      20:	0c 94 0d 01 	jmp	0x21a	; 0x21a <__bad_interrupt>
      24:	0c 94 0d 01 	jmp	0x21a	; 0x21a <__bad_interrupt>
      28:	0c 94 08 0f 	jmp	0x1e10	; 0x1e10 <__vector_10>
      2c:	0c 94 0d 01 	jmp	0x21a	; 0x21a <__bad_interrupt>
      30:	0c 94 0d 01 	jmp	0x21a	; 0x21a <__bad_interrupt>
      34:	0c 94 0d 01 	jmp	0x21a	; 0x21a <__bad_interrupt>
      38:	0c 94 0d 01 	jmp	0x21a	; 0x21a <__bad_interrupt>
      3c:	0c 94 0d 01 	jmp	0x21a	; 0x21a <__bad_interrupt>
      40:	0c 94 0d 01 	jmp	0x21a	; 0x21a <__bad_interrupt>
      44:	0c 94 0d 01 	jmp	0x21a	; 0x21a <__bad_interrupt>
      48:	0c 94 0d 01 	jmp	0x21a	; 0x21a <__bad_interrupt>
      4c:	0c 94 0d 01 	jmp	0x21a	; 0x21a <__bad_interrupt>
      50:	0c 94 0d 01 	jmp	0x21a	; 0x21a <__bad_interrupt>
      54:	0c 94 0d 01 	jmp	0x21a	; 0x21a <__bad_interrupt>
      58:	0c 94 0d 01 	jmp	0x21a	; 0x21a <__bad_interrupt>
      5c:	0c 94 0d 01 	jmp	0x21a	; 0x21a <__bad_interrupt>
      60:	0c 94 0d 01 	jmp	0x21a	; 0x21a <__bad_interrupt>
      64:	0c 94 0d 01 	jmp	0x21a	; 0x21a <__bad_interrupt>
      68:	0c 94 0d 01 	jmp	0x21a	; 0x21a <__bad_interrupt>
      6c:	0c 94 0d 01 	jmp	0x21a	; 0x21a <__bad_interrupt>
      70:	0c 94 0d 01 	jmp	0x21a	; 0x21a <__bad_interrupt>
      74:	0c 94 0d 01 	jmp	0x21a	; 0x21a <__bad_interrupt>
      78:	0c 94 0d 01 	jmp	0x21a	; 0x21a <__bad_interrupt>
      7c:	0c 94 0d 01 	jmp	0x21a	; 0x21a <__bad_interrupt>
      80:	0c 94 0d 01 	jmp	0x21a	; 0x21a <__bad_interrupt>
      84:	0c 94 0d 01 	jmp	0x21a	; 0x21a <__bad_interrupt>
      88:	0c 94 0d 01 	jmp	0x21a	; 0x21a <__bad_interrupt>
      8c:	0c 94 0d 01 	jmp	0x21a	; 0x21a <__bad_interrupt>
      90:	0c 94 0d 01 	jmp	0x21a	; 0x21a <__bad_interrupt>
      94:	0c 94 0d 01 	jmp	0x21a	; 0x21a <__bad_interrupt>

00000098 <__c.2014>:
      98:	45 52 52 4f 52 20 3a 20 75 6e 61 62 6c 65 20 73     ERROR : unable s
      a8:	65 6e 64 20 73 65 63 74 6f 72 0a 00                 end sector..

000000b4 <__c.2009>:
      b4:	43 6f 6d 6d 61 6e 64 20 25 64 20 75 6e 6b 6e 6f     Command %d unkno
      c4:	77 6e 0a 00                                         wn..

000000c8 <__c.1995>:
      c8:	46 6c 61 73 68 20 73 69 7a 65 20 3a 20 25 6c 64     Flash size : %ld
      d8:	20 73 65 63 74 6f 72 73 0a 00                        sectors..

000000e2 <__c.1993>:
      e2:	45 52 52 4f 52 20 3a 20 75 6e 61 62 6c 65 20 72     ERROR : unable r
      f2:	65 61 64 20 66 6c 61 73 68 20 63 61 70 61 63 69     ead flash capaci
     102:	74 79 0a 00                                         ty..

00000106 <__c.1991>:
     106:	45 52 52 4f 52 20 3a 20 66 6c 61 73 68 20 6e 6f     ERROR : flash no
     116:	74 20 72 65 61 64 79 0a 00                          t ready..

0000011f <__c.1989>:
     11f:	53 74 61 72 74 2e 2e 2e 0a 00                       Start.....

00000129 <usb_dev_desc>:
     129:	12 01 00 02 00 00 00 40 eb 03 13 20 00 10 01 02     .......@... ....
     139:	03 01                                               ..

0000013b <usb_conf_desc>:
     13b:	09 02 29 00 01 01 00 80 32 09 04 00 00 02 03 00     ..).....2.......
     14b:	00 00 09 21 11 01 00 01 22 26 00 07 05 81 03 40     ...!...."&.....@
     15b:	00 01 07 05 02 03 40 00 01                          ......@..

00000164 <usb_user_manufacturer_string_descriptor>:
     164:	0c 03 41 00 54 00 4d 00 45 00 4c 00                 ..A.T.M.E.L.

00000170 <usb_user_product_string_descriptor>:
     170:	22 03 41 00 56 00 52 00 20 00 55 00 53 00 42 00     ".A.V.R. .U.S.B.
     180:	20 00 48 00 49 00 44 00 20 00 44 00 45 00 4d 00      .H.I.D. .D.E.M.
     190:	4f 00                                               O.

00000192 <usb_user_serial_number>:
     192:	0c 03 30 00 30 00 30 00 30 00 30 00                 ..0.0.0.0.0.

0000019e <usb_user_language_id>:
     19e:	04 03 09 04                                         ....

000001a2 <usb_hid_report_descriptor>:
     1a2:	06 ff ff 09 01 a1 01 09 02 09 03 15 00 26 ff 00     .............&..
     1b2:	75 08 95 40 81 02 09 04 09 05 15 00 26 ff 00 75     u..@........&..u
     1c2:	08 95 40 91 02 c0                                   ..@...

000001c8 <__ctors_end>:
     1c8:	11 24       	eor	r1, r1
     1ca:	1f be       	out	0x3f, r1	; 63
     1cc:	cf ef       	ldi	r28, 0xFF	; 255
     1ce:	d0 e2       	ldi	r29, 0x20	; 32
     1d0:	de bf       	out	0x3e, r29	; 62
     1d2:	cd bf       	out	0x3d, r28	; 61

000001d4 <__low_level_init>:

#ifdef __cplusplus
extern "C" {
#endif
char __low_level_init()
{
     1d4:	90 e0       	ldi	r25, 0x00	; 0
     1d6:	80 e8       	ldi	r24, 0x80	; 128
     1d8:	0f b6       	in	r0, 0x3f	; 63
     1da:	f8 94       	cli
     1dc:	80 93 61 00 	sts	0x0061, r24
     1e0:	90 93 61 00 	sts	0x0061, r25
     1e4:	0f be       	out	0x3f, r0	; 63
  Clear_prescaler();
  return 1;
}
     1e6:	81 e0       	ldi	r24, 0x01	; 1

000001e8 <__do_copy_data>:
     1e8:	11 e0       	ldi	r17, 0x01	; 1
     1ea:	a0 e0       	ldi	r26, 0x00	; 0
     1ec:	b1 e0       	ldi	r27, 0x01	; 1
     1ee:	e8 e8       	ldi	r30, 0x88	; 136
     1f0:	f6 e2       	ldi	r31, 0x26	; 38
     1f2:	00 e0       	ldi	r16, 0x00	; 0
     1f4:	0b bf       	out	0x3b, r16	; 59
     1f6:	02 c0       	rjmp	.+4      	; 0x1fc <__do_copy_data+0x14>
     1f8:	07 90       	elpm	r0, Z+
     1fa:	0d 92       	st	X+, r0
     1fc:	a0 31       	cpi	r26, 0x10	; 16
     1fe:	b1 07       	cpc	r27, r17
     200:	d9 f7       	brne	.-10     	; 0x1f8 <__do_copy_data+0x10>

00000202 <__do_clear_bss>:
     202:	11 e0       	ldi	r17, 0x01	; 1
     204:	a0 e1       	ldi	r26, 0x10	; 16
     206:	b1 e0       	ldi	r27, 0x01	; 1
     208:	01 c0       	rjmp	.+2      	; 0x20c <.do_clear_bss_start>

0000020a <.do_clear_bss_loop>:
     20a:	1d 92       	st	X+, r1

0000020c <.do_clear_bss_start>:
     20c:	a8 37       	cpi	r26, 0x78	; 120
     20e:	b1 07       	cpc	r27, r17
     210:	e1 f7       	brne	.-8      	; 0x20a <.do_clear_bss_loop>
     212:	0e 94 0d 02 	call	0x41a	; 0x41a <main>
     216:	0c 94 42 13 	jmp	0x2684	; 0x2684 <_exit>

0000021a <__bad_interrupt>:
     21a:	0c 94 00 00 	jmp	0	; 0x0 <__vectors>

0000021e <my_putchar>:
                                      _FDEV_SETUP_RW);

#define cprintf( Format, ...) printf_P( PSTR( Format), ## __VA_ARGS__)

static int my_putchar( int ch, FILE *f)
{
     21e:	ef 92       	push	r14
     220:	ff 92       	push	r15
     222:	cf 93       	push	r28
     224:	df 93       	push	r29
     226:	ec 01       	movw	r28, r24
   if( ch == '\n'){
     228:	8a 30       	cpi	r24, 0x0A	; 10
     22a:	91 05       	cpc	r25, r1
     22c:	21 f4       	brne	.+8      	; 0x236 <my_putchar+0x18>
      uart_putchar( '\r');
     22e:	8d e0       	ldi	r24, 0x0D	; 13
     230:	90 e0       	ldi	r25, 0x00	; 0
     232:	0e 94 f7 0f 	call	0x1fee	; 0x1fee <uart_putchar>
   }
   uart_putchar( ch);
     236:	ce 01       	movw	r24, r28
     238:	0e 94 f7 0f 	call	0x1fee	; 0x1fee <uart_putchar>
   return( ch);
} // my_putchar
     23c:	ce 01       	movw	r24, r28
     23e:	df 91       	pop	r29
     240:	cf 91       	pop	r28
     242:	ff 90       	pop	r15
     244:	ef 90       	pop	r14
     246:	08 95       	ret

00000248 <hid_task_init>:
//-----------------------------------------------------------------------------
// Initialize
//-----------------------------------------------------------------------------

void hid_task_init( void)
{
     248:	df 93       	push	r29
     24a:	cf 93       	push	r28
     24c:	00 d0       	rcall	.+0      	; 0x24e <hid_task_init+0x6>
     24e:	00 d0       	rcall	.+0      	; 0x250 <hid_task_init+0x8>
     250:	cd b7       	in	r28, 0x3d	; 61
     252:	de b7       	in	r29, 0x3e	; 62
U32 nb_sectors;

   Leds_init();
     254:	8a b1       	in	r24, 0x0a	; 10
     256:	80 6f       	ori	r24, 0xF0	; 240
     258:	8a b9       	out	0x0a, r24	; 10
   Joy_init();
     25a:	84 b1       	in	r24, 0x04	; 4
     25c:	8f 71       	andi	r24, 0x1F	; 31
     25e:	84 b9       	out	0x04, r24	; 4
     260:	85 b1       	in	r24, 0x05	; 5
     262:	80 6e       	ori	r24, 0xE0	; 224
     264:	85 b9       	out	0x05, r24	; 5
     266:	8d b1       	in	r24, 0x0d	; 13
     268:	8f 7c       	andi	r24, 0xCF	; 207
     26a:	8d b9       	out	0x0d, r24	; 13
     26c:	8e b1       	in	r24, 0x0e	; 14
     26e:	80 63       	ori	r24, 0x30	; 48
     270:	8e b9       	out	0x0e, r24	; 14
   df_mem_init();    // Init the hw/sw ressources required to drive the DF.
     272:	0e 94 db 0a 	call	0x15b6	; 0x15b6 <df_mem_init>
   uart_init(); 
     276:	0e 94 e2 0f 	call	0x1fc4	; 0x1fc4 <uart_init>
   stdout = &StdioStream;
     27a:	80 e0       	ldi	r24, 0x00	; 0
     27c:	91 e0       	ldi	r25, 0x01	; 1
     27e:	90 93 75 01 	sts	0x0175, r25
     282:	80 93 74 01 	sts	0x0174, r24
   cprintf( "Start...\n");
     286:	00 d0       	rcall	.+0      	; 0x288 <hid_task_init+0x40>
     288:	8f e1       	ldi	r24, 0x1F	; 31
     28a:	91 e0       	ldi	r25, 0x01	; 1
     28c:	ed b7       	in	r30, 0x3d	; 61
     28e:	fe b7       	in	r31, 0x3e	; 62
     290:	92 83       	std	Z+2, r25	; 0x02
     292:	81 83       	std	Z+1, r24	; 0x01
     294:	0e 94 72 10 	call	0x20e4	; 0x20e4 <printf_P>
   if( df_test_unit_ready() != CTRL_GOOD){
     298:	0f 90       	pop	r0
     29a:	0f 90       	pop	r0
     29c:	0e 94 de 0a 	call	0x15bc	; 0x15bc <df_test_unit_ready>
     2a0:	88 23       	and	r24, r24
     2a2:	59 f0       	breq	.+22     	; 0x2ba <hid_task_init+0x72>
      cprintf( "ERROR : flash not ready\n");
     2a4:	00 d0       	rcall	.+0      	; 0x2a6 <hid_task_init+0x5e>
     2a6:	86 e0       	ldi	r24, 0x06	; 6
     2a8:	91 e0       	ldi	r25, 0x01	; 1
     2aa:	ed b7       	in	r30, 0x3d	; 61
     2ac:	fe b7       	in	r31, 0x3e	; 62
     2ae:	92 83       	std	Z+2, r25	; 0x02
     2b0:	81 83       	std	Z+1, r24	; 0x01
     2b2:	0e 94 72 10 	call	0x20e4	; 0x20e4 <printf_P>
     2b6:	0f 90       	pop	r0
     2b8:	0f 90       	pop	r0
   }
   if( df_read_capacity( &nb_sectors) != CTRL_GOOD){
     2ba:	ce 01       	movw	r24, r28
     2bc:	01 96       	adiw	r24, 0x01	; 1
     2be:	0e 94 f0 0a 	call	0x15e0	; 0x15e0 <df_read_capacity>
     2c2:	88 23       	and	r24, r24
     2c4:	79 f0       	breq	.+30     	; 0x2e4 <hid_task_init+0x9c>
      cprintf( "ERROR : unable read flash capacity\n");
     2c6:	00 d0       	rcall	.+0      	; 0x2c8 <hid_task_init+0x80>
     2c8:	82 ee       	ldi	r24, 0xE2	; 226
     2ca:	90 e0       	ldi	r25, 0x00	; 0
     2cc:	ed b7       	in	r30, 0x3d	; 61
     2ce:	fe b7       	in	r31, 0x3e	; 62
     2d0:	92 83       	std	Z+2, r25	; 0x02
     2d2:	81 83       	std	Z+1, r24	; 0x01
     2d4:	0e 94 72 10 	call	0x20e4	; 0x20e4 <printf_P>
      nb_sectors = 0;
     2d8:	19 82       	std	Y+1, r1	; 0x01
     2da:	1a 82       	std	Y+2, r1	; 0x02
     2dc:	1b 82       	std	Y+3, r1	; 0x03
     2de:	1c 82       	std	Y+4, r1	; 0x04
     2e0:	0f 90       	pop	r0
     2e2:	0f 90       	pop	r0
   }
   cprintf( "Flash size : %ld sectors\n", nb_sectors);
     2e4:	00 d0       	rcall	.+0      	; 0x2e6 <hid_task_init+0x9e>
     2e6:	00 d0       	rcall	.+0      	; 0x2e8 <hid_task_init+0xa0>
     2e8:	00 d0       	rcall	.+0      	; 0x2ea <hid_task_init+0xa2>
     2ea:	88 ec       	ldi	r24, 0xC8	; 200
     2ec:	90 e0       	ldi	r25, 0x00	; 0
     2ee:	ed b7       	in	r30, 0x3d	; 61
     2f0:	fe b7       	in	r31, 0x3e	; 62
     2f2:	92 83       	std	Z+2, r25	; 0x02
     2f4:	81 83       	std	Z+1, r24	; 0x01
     2f6:	89 81       	ldd	r24, Y+1	; 0x01
     2f8:	9a 81       	ldd	r25, Y+2	; 0x02
     2fa:	ab 81       	ldd	r26, Y+3	; 0x03
     2fc:	bc 81       	ldd	r27, Y+4	; 0x04
     2fe:	83 83       	std	Z+3, r24	; 0x03
     300:	94 83       	std	Z+4, r25	; 0x04
     302:	a5 83       	std	Z+5, r26	; 0x05
     304:	b6 83       	std	Z+6, r27	; 0x06
     306:	0e 94 72 10 	call	0x20e4	; 0x20e4 <printf_P>
     30a:	8d b7       	in	r24, 0x3d	; 61
     30c:	9e b7       	in	r25, 0x3e	; 62
     30e:	06 96       	adiw	r24, 0x06	; 6
     310:	0f b6       	in	r0, 0x3f	; 63
     312:	f8 94       	cli
     314:	9e bf       	out	0x3e, r25	; 62
     316:	0f be       	out	0x3f, r0	; 63
     318:	8d bf       	out	0x3d, r24	; 61
} // hid_task_init
     31a:	0f 90       	pop	r0
     31c:	0f 90       	pop	r0
     31e:	0f 90       	pop	r0
     320:	0f 90       	pop	r0
     322:	cf 91       	pop	r28
     324:	df 91       	pop	r29
     326:	08 95       	ret

00000328 <sof_action>:
//-----------------------------------------------------------------------------

void sof_action()
{
   //cpt_sof++;
} // sof_action
     328:	08 95       	ret

0000032a <hid_report_out>:
void hid_report_out( void)
{
Byte i;


   Usb_select_endpoint(EP_HID_OUT);
     32a:	82 e0       	ldi	r24, 0x02	; 2
     32c:	80 93 e9 00 	sts	0x00E9, r24
   if( !Is_usb_receive_out()){
     330:	80 91 e8 00 	lds	r24, 0x00E8
     334:	82 ff       	sbrs	r24, 2
     336:	3c c0       	rjmp	.+120    	; 0x3b0 <hid_report_out+0x86>
      return;                          // no data received
   }
   // read report from HID Generic Demo
   Led0_on();
     338:	5c 9a       	sbi	0x0b, 4	; 11
     33a:	e8 e1       	ldi	r30, 0x18	; 24
     33c:	f1 e0       	ldi	r31, 0x01	; 1
   for( i = 0; i < HIDDEMO_OUT_REPORT_SIZE; i++){
      Buffer[ i] = Usb_read_byte();
     33e:	80 91 f1 00 	lds	r24, 0x00F1
     342:	81 93       	st	Z+, r24
   if( !Is_usb_receive_out()){
      return;                          // no data received
   }
   // read report from HID Generic Demo
   Led0_on();
   for( i = 0; i < HIDDEMO_OUT_REPORT_SIZE; i++){
     344:	81 e0       	ldi	r24, 0x01	; 1
     346:	e8 35       	cpi	r30, 0x58	; 88
     348:	f8 07       	cpc	r31, r24
     34a:	c9 f7       	brne	.-14     	; 0x33e <hid_report_out+0x14>
      Buffer[ i] = Usb_read_byte();
   }
   Usb_ack_receive_out();
     34c:	80 91 e8 00 	lds	r24, 0x00E8
     350:	8b 7f       	andi	r24, 0xFB	; 251
     352:	80 93 e8 00 	sts	0x00E8, r24
     356:	80 91 e8 00 	lds	r24, 0x00E8
     35a:	8f 77       	andi	r24, 0x7F	; 127
     35c:	80 93 e8 00 	sts	0x00E8, r24
   memcpy( &Request, Buffer, sizeof( Request));
     360:	a1 e1       	ldi	r26, 0x11	; 17
     362:	b1 e0       	ldi	r27, 0x01	; 1
     364:	e8 e1       	ldi	r30, 0x18	; 24
     366:	f1 e0       	ldi	r31, 0x01	; 1
     368:	87 e0       	ldi	r24, 0x07	; 7
     36a:	01 90       	ld	r0, Z+
     36c:	0d 92       	st	X+, r0
     36e:	81 50       	subi	r24, 0x01	; 1
     370:	e1 f7       	brne	.-8      	; 0x36a <hid_report_out+0x40>
   if( Request.Command != HID_FLASH_READ){
     372:	20 91 11 01 	lds	r18, 0x0111
     376:	22 23       	and	r18, r18
     378:	b9 f0       	breq	.+46     	; 0x3a8 <hid_report_out+0x7e>
      cprintf( "Command %d unknown\n", Request.Command);
     37a:	00 d0       	rcall	.+0      	; 0x37c <hid_report_out+0x52>
     37c:	00 d0       	rcall	.+0      	; 0x37e <hid_report_out+0x54>
     37e:	ed b7       	in	r30, 0x3d	; 61
     380:	fe b7       	in	r31, 0x3e	; 62
     382:	31 96       	adiw	r30, 0x01	; 1
     384:	84 eb       	ldi	r24, 0xB4	; 180
     386:	90 e0       	ldi	r25, 0x00	; 0
     388:	ad b7       	in	r26, 0x3d	; 61
     38a:	be b7       	in	r27, 0x3e	; 62
     38c:	12 96       	adiw	r26, 0x02	; 2
     38e:	9c 93       	st	X, r25
     390:	8e 93       	st	-X, r24
     392:	11 97       	sbiw	r26, 0x01	; 1
     394:	22 83       	std	Z+2, r18	; 0x02
     396:	13 82       	std	Z+3, r1	; 0x03
     398:	0e 94 72 10 	call	0x20e4	; 0x20e4 <printf_P>
      Led0_off();
     39c:	5c 98       	cbi	0x0b, 4	; 11
      return;
     39e:	0f 90       	pop	r0
     3a0:	0f 90       	pop	r0
     3a2:	0f 90       	pop	r0
     3a4:	0f 90       	pop	r0
     3a6:	08 95       	ret
   }
   IsBufferFull = true;
     3a8:	81 e0       	ldi	r24, 0x01	; 1
     3aa:	80 93 10 01 	sts	0x0110, r24
   Led0_off();
     3ae:	5c 98       	cbi	0x0b, 4	; 11
     3b0:	08 95       	ret

000003b2 <hid_report_in>:
// Report IN
//-----------------------------------------------------------------------------

void hid_report_in( void)
{
   if( !IsBufferFull){
     3b2:	80 91 10 01 	lds	r24, 0x0110
     3b6:	88 23       	and	r24, r24
     3b8:	31 f1       	breq	.+76     	; 0x406 <hid_report_in+0x54>
      return;                          // no data to send
   }

   Usb_select_endpoint( EP_HID_IN);
     3ba:	81 e0       	ldi	r24, 0x01	; 1
     3bc:	80 93 e9 00 	sts	0x00E9, r24
   if(!Is_usb_write_enabled()){
     3c0:	80 91 e8 00 	lds	r24, 0x00E8
     3c4:	85 ff       	sbrs	r24, 5
     3c6:	1f c0       	rjmp	.+62     	; 0x406 <hid_report_in+0x54>
      return;                          // not ready to send report
   }
   // Send report
   Led2_on();
     3c8:	5e 9a       	sbi	0x0b, 6	; 11
//   cprintf( "R @%08X %d\n", Request.Address, Request.Count);
   if( df_read_10( Request.Address, Request.Count) != CTRL_GOOD){
     3ca:	60 91 12 01 	lds	r22, 0x0112
     3ce:	70 91 13 01 	lds	r23, 0x0113
     3d2:	80 91 14 01 	lds	r24, 0x0114
     3d6:	90 91 15 01 	lds	r25, 0x0115
     3da:	40 91 16 01 	lds	r20, 0x0116
     3de:	50 91 17 01 	lds	r21, 0x0117
     3e2:	0e 94 01 0b 	call	0x1602	; 0x1602 <df_read_10>
     3e6:	88 23       	and	r24, r24
     3e8:	59 f0       	breq	.+22     	; 0x400 <hid_report_in+0x4e>
      cprintf( "ERROR : unable send sector\n");
     3ea:	00 d0       	rcall	.+0      	; 0x3ec <hid_report_in+0x3a>
     3ec:	88 e9       	ldi	r24, 0x98	; 152
     3ee:	90 e0       	ldi	r25, 0x00	; 0
     3f0:	ed b7       	in	r30, 0x3d	; 61
     3f2:	fe b7       	in	r31, 0x3e	; 62
     3f4:	92 83       	std	Z+2, r25	; 0x02
     3f6:	81 83       	std	Z+1, r24	; 0x01
     3f8:	0e 94 72 10 	call	0x20e4	; 0x20e4 <printf_P>
     3fc:	0f 90       	pop	r0
     3fe:	0f 90       	pop	r0
   }
   IsBufferFull = false;            // buffer done
     400:	10 92 10 01 	sts	0x0110, r1
   Led2_off();
     404:	5e 98       	cbi	0x0b, 6	; 11
     406:	08 95       	ret

00000408 <hid_task>:
// Task
//-----------------------------------------------------------------------------

void hid_task( void)
{
   if(!Is_device_enumerated())          // Check USB HID is enumerated
     408:	80 91 6e 01 	lds	r24, 0x016E
     40c:	88 23       	and	r24, r24
     40e:	21 f0       	breq	.+8      	; 0x418 <hid_task+0x10>
      return;

   hid_report_out();
     410:	0e 94 95 01 	call	0x32a	; 0x32a <hid_report_out>
   hid_report_in();
     414:	0e 94 d9 01 	call	0x3b2	; 0x3b2 <hid_report_in>
     418:	08 95       	ret

0000041a <main>:

//_____ D E F I N I T I O N S ______________________________________________

int main(void)
{
   start_boot_if_required();
     41a:	0e 94 ce 04 	call	0x99c	; 0x99c <start_boot_if_required>
   wdtdrv_disable();
     41e:	0e 94 05 10 	call	0x200a	; 0x200a <wdtdrv_disable>
The type of x is clock_div_t.
*/
void clock_prescale_set(clock_div_t __x)
{
    uint8_t __tmp = _BV(CLKPCE);
    __asm__ __volatile__ (
     422:	90 e0       	ldi	r25, 0x00	; 0
     424:	80 e8       	ldi	r24, 0x80	; 128
     426:	0f b6       	in	r0, 0x3f	; 63
     428:	f8 94       	cli
     42a:	80 93 61 00 	sts	0x0061, r24
     42e:	90 93 61 00 	sts	0x0061, r25
     432:	0f be       	out	0x3f, r0	; 63
   Clear_prescaler();
   scheduler();
     434:	0e 94 6c 10 	call	0x20d8	; 0x20d8 <scheduler>
   return 0;
}
     438:	80 e0       	ldi	r24, 0x00	; 0
     43a:	90 e0       	ldi	r25, 0x00	; 0
     43c:	08 95       	ret

0000043e <usb_user_endpoint_init>:
//! @brief This function configures the endpoints
//!
//! @param conf_nb configuration number choosed by USB host
//!
void usb_user_endpoint_init(U8 conf_nb)
{
     43e:	cf 93       	push	r28
     440:	df 93       	push	r29
   usb_configure_endpoint( EP_HID_IN,   
     442:	c9 ee       	ldi	r28, 0xE9	; 233
     444:	d0 e0       	ldi	r29, 0x00	; 0
     446:	81 e0       	ldi	r24, 0x01	; 1
     448:	88 83       	st	Y, r24
     44a:	81 ec       	ldi	r24, 0xC1	; 193
     44c:	60 e3       	ldi	r22, 0x30	; 48
     44e:	0e 94 5a 04 	call	0x8b4	; 0x8b4 <usb_config_ep>
                           DIRECTION_IN,  
                           EP_HID_IN_SIZE,        \
                           ONE_BANK,      
                           NYET_ENABLED);

   usb_configure_endpoint( EP_HID_OUT,    
     452:	82 e0       	ldi	r24, 0x02	; 2
     454:	88 83       	st	Y, r24
     456:	80 ec       	ldi	r24, 0xC0	; 192
     458:	60 e3       	ldi	r22, 0x30	; 48
     45a:	0e 94 5a 04 	call	0x8b4	; 0x8b4 <usb_config_ep>
                           TYPE_INTERRUPT,
                           DIRECTION_OUT, 
                           EP_HID_OUT_SIZE, 
                           ONE_BANK,      
                           NYET_ENABLED);
}
     45e:	df 91       	pop	r29
     460:	cf 91       	pop	r28
     462:	08 95       	ret

00000464 <usb_user_interface_get>:
//! @return alternate setting configurated
//!
U8   usb_user_interface_get( U16 wInterface )
{
   return 0;  // Only one alternate setting possible for all interface
}
     464:	80 e0       	ldi	r24, 0x00	; 0
     466:	08 95       	ret

00000468 <usb_user_interface_reset>:
//! @param alternate_setting  alternate setting selected
//!
void usb_user_interface_reset(U16 wInterface, U8 alternate_setting)
{  
   // default setting selected = reset data toggle
   if( INTERFACE_NB == wInterface )
     468:	00 97       	sbiw	r24, 0x00	; 0
     46a:	19 f5       	brne	.+70     	; 0x4b2 <usb_user_interface_reset+0x4a>
   {
      // Interface HID
      Usb_select_endpoint(EP_HID_IN);
     46c:	81 e0       	ldi	r24, 0x01	; 1
     46e:	80 93 e9 00 	sts	0x00E9, r24
      Usb_disable_stall_handshake();
     472:	80 91 eb 00 	lds	r24, 0x00EB
     476:	80 61       	ori	r24, 0x10	; 16
     478:	80 93 eb 00 	sts	0x00EB, r24
      Usb_reset_endpoint(EP_HID_IN);
     47c:	92 e0       	ldi	r25, 0x02	; 2
     47e:	90 93 ea 00 	sts	0x00EA, r25
     482:	10 92 ea 00 	sts	0x00EA, r1
      Usb_reset_data_toggle();
     486:	80 91 eb 00 	lds	r24, 0x00EB
     48a:	88 60       	ori	r24, 0x08	; 8
     48c:	80 93 eb 00 	sts	0x00EB, r24
      Usb_select_endpoint(EP_HID_OUT);
     490:	90 93 e9 00 	sts	0x00E9, r25
      Usb_disable_stall_handshake();
     494:	80 91 eb 00 	lds	r24, 0x00EB
     498:	80 61       	ori	r24, 0x10	; 16
     49a:	80 93 eb 00 	sts	0x00EB, r24
      Usb_reset_endpoint(EP_HID_OUT);
     49e:	84 e0       	ldi	r24, 0x04	; 4
     4a0:	80 93 ea 00 	sts	0x00EA, r24
     4a4:	10 92 ea 00 	sts	0x00EA, r1
      Usb_reset_data_toggle();
     4a8:	80 91 eb 00 	lds	r24, 0x00EB
     4ac:	88 60       	ori	r24, 0x08	; 8
     4ae:	80 93 eb 00 	sts	0x00EB, r24
     4b2:	08 95       	ret

000004b4 <usb_user_get_descriptor>:
//!
//! @return FALSE, if the global descriptor no filled
//!
Bool usb_user_get_descriptor(U8 type, U8 string)
{
   switch(type)
     4b4:	83 30       	cpi	r24, 0x03	; 3
     4b6:	31 f5       	brne	.+76     	; 0x504 <usb_user_get_descriptor+0x50>
   {
      case DESCRIPTOR_STRING:
      switch (string)
     4b8:	61 30       	cpi	r22, 0x01	; 1
     4ba:	69 f0       	breq	.+26     	; 0x4d6 <usb_user_get_descriptor+0x22>
     4bc:	61 30       	cpi	r22, 0x01	; 1
     4be:	28 f0       	brcs	.+10     	; 0x4ca <usb_user_get_descriptor+0x16>
     4c0:	62 30       	cpi	r22, 0x02	; 2
     4c2:	79 f0       	breq	.+30     	; 0x4e2 <usb_user_get_descriptor+0x2e>
     4c4:	63 30       	cpi	r22, 0x03	; 3
     4c6:	01 f5       	brne	.+64     	; 0x508 <usb_user_get_descriptor+0x54>
     4c8:	12 c0       	rjmp	.+36     	; 0x4ee <usb_user_get_descriptor+0x3a>
      {
         case LANG_ID:
         data_to_transfer = sizeof (usb_user_language_id);
     4ca:	84 e0       	ldi	r24, 0x04	; 4
     4cc:	80 93 6f 01 	sts	0x016F, r24
         pbuffer = &(usb_user_language_id.bLength);
     4d0:	8e e9       	ldi	r24, 0x9E	; 158
     4d2:	91 e0       	ldi	r25, 0x01	; 1
     4d4:	11 c0       	rjmp	.+34     	; 0x4f8 <usb_user_get_descriptor+0x44>
         return TRUE;
         break;
        
         case MAN_INDEX:
         data_to_transfer = sizeof (usb_user_manufacturer_string_descriptor);
     4d6:	8c e0       	ldi	r24, 0x0C	; 12
     4d8:	80 93 6f 01 	sts	0x016F, r24
         pbuffer = &(usb_user_manufacturer_string_descriptor.bLength);
     4dc:	84 e6       	ldi	r24, 0x64	; 100
     4de:	91 e0       	ldi	r25, 0x01	; 1
     4e0:	0b c0       	rjmp	.+22     	; 0x4f8 <usb_user_get_descriptor+0x44>
         return TRUE;
         break;
        
         case PROD_INDEX:
         data_to_transfer = sizeof (usb_user_product_string_descriptor);
     4e2:	82 e2       	ldi	r24, 0x22	; 34
     4e4:	80 93 6f 01 	sts	0x016F, r24
         pbuffer = &(usb_user_product_string_descriptor.bLength);
     4e8:	80 e7       	ldi	r24, 0x70	; 112
     4ea:	91 e0       	ldi	r25, 0x01	; 1
     4ec:	05 c0       	rjmp	.+10     	; 0x4f8 <usb_user_get_descriptor+0x44>
         return TRUE;
         break;
           
#if (USB_DEVICE_SN_USE==ENABLE)              
         case SN_INDEX:
         data_to_transfer = sizeof (usb_user_serial_number);
     4ee:	8c e0       	ldi	r24, 0x0C	; 12
     4f0:	80 93 6f 01 	sts	0x016F, r24
         pbuffer = &(usb_user_serial_number.bLength);
     4f4:	82 e9       	ldi	r24, 0x92	; 146
     4f6:	91 e0       	ldi	r25, 0x01	; 1
     4f8:	90 93 71 01 	sts	0x0171, r25
     4fc:	80 93 70 01 	sts	0x0170, r24
#if (USE_DEVICE_SN_UNIQUE==ENABLE)
         f_get_serial_string=TRUE;
         data_to_transfer += (SN_LENGTH*4);
#endif
         return TRUE;
     500:	81 e0       	ldi	r24, 0x01	; 1
     502:	08 95       	ret
         break;
#endif
      }
      break;
   }
   return FALSE;
     504:	80 e0       	ldi	r24, 0x00	; 0
     506:	08 95       	ret
     508:	80 e0       	ldi	r24, 0x00	; 0
}
     50a:	08 95       	ret

0000050c <hid_get_report_descriptor>:


//! @brief This function manages hit get repport request.
//!
void hid_get_report_descriptor(void)
{
     50c:	df 93       	push	r29
     50e:	cf 93       	push	r28
     510:	00 d0       	rcall	.+0      	; 0x512 <hid_get_report_descriptor+0x6>
     512:	00 d0       	rcall	.+0      	; 0x514 <hid_get_report_descriptor+0x8>
     514:	cd b7       	in	r28, 0x3d	; 61
     516:	de b7       	in	r29, 0x3e	; 62
   U16 wLength;
   U8  nb_byte;
   bit zlp = FALSE;
   U16 wInterface;

   LSB(wInterface)=Usb_read_byte();
     518:	80 91 f1 00 	lds	r24, 0x00F1
     51c:	8b 83       	std	Y+3, r24	; 0x03
   MSB(wInterface)=Usb_read_byte();
     51e:	80 91 f1 00 	lds	r24, 0x00F1
     522:	8c 83       	std	Y+4, r24	; 0x04

   data_to_transfer = sizeof(usb_hid_report_descriptor);
     524:	86 e2       	ldi	r24, 0x26	; 38
     526:	80 93 6f 01 	sts	0x016F, r24
   pbuffer = &(usb_hid_report_descriptor.report[0]);
     52a:	82 ea       	ldi	r24, 0xA2	; 162
     52c:	91 e0       	ldi	r25, 0x01	; 1
     52e:	90 93 71 01 	sts	0x0171, r25
     532:	80 93 70 01 	sts	0x0170, r24

   LSB(wLength) = Usb_read_byte();
     536:	80 91 f1 00 	lds	r24, 0x00F1
     53a:	89 83       	std	Y+1, r24	; 0x01
   MSB(wLength) = Usb_read_byte();
     53c:	80 91 f1 00 	lds	r24, 0x00F1
     540:	8a 83       	std	Y+2, r24	; 0x02
   Usb_ack_receive_setup();
     542:	80 91 e8 00 	lds	r24, 0x00E8
     546:	87 7f       	andi	r24, 0xF7	; 247
     548:	80 93 e8 00 	sts	0x00E8, r24

   if (wLength > data_to_transfer)
     54c:	89 81       	ldd	r24, Y+1	; 0x01
     54e:	9a 81       	ldd	r25, Y+2	; 0x02
     550:	87 32       	cpi	r24, 0x27	; 39
     552:	91 05       	cpc	r25, r1
     554:	28 f5       	brcc	.+74     	; 0x5a0 <hid_get_report_descriptor+0x94>
      if ((data_to_transfer % EP_CONTROL_LENGTH) == 0) { zlp = TRUE; }
      else { zlp = FALSE; }
   }
   else
   {
      data_to_transfer = (U8)wLength;           // send only requested number of data
     556:	80 93 6f 01 	sts	0x016F, r24
     55a:	22 c0       	rjmp	.+68     	; 0x5a0 <hid_get_report_descriptor+0x94>
   }

   while((data_to_transfer != 0) && (!Is_usb_receive_out()))
   {
      while(!Is_usb_read_control_enabled());
     55c:	80 91 e8 00 	lds	r24, 0x00E8
     560:	80 ff       	sbrs	r24, 0
     562:	fc cf       	rjmp	.-8      	; 0x55c <hid_get_report_descriptor+0x50>
     564:	20 e0       	ldi	r18, 0x00	; 0
     566:	13 c0       	rjmp	.+38     	; 0x58e <hid_get_report_descriptor+0x82>

      nb_byte=0;
      while(data_to_transfer != 0)              // Send data until necessary
      {
         if(nb_byte++==EP_CONTROL_LENGTH)       // Check endpoint 0 size
     568:	20 34       	cpi	r18, 0x40	; 64
     56a:	a9 f0       	breq	.+42     	; 0x596 <hid_get_report_descriptor+0x8a>
     56c:	2f 5f       	subi	r18, 0xFF	; 255
         }
#ifndef __GNUC__
         Usb_write_byte(*pbuffer++);
#else    // AVRGCC does not support point to PGM space
//warning with AVRGCC assumes devices descriptors are stored in the lower 64Kbytes of on-chip flash memory
         Usb_write_byte(pgm_read_byte_near((unsigned int)pbuffer++));
     56e:	e0 91 70 01 	lds	r30, 0x0170
     572:	f0 91 71 01 	lds	r31, 0x0171
     576:	cf 01       	movw	r24, r30
     578:	01 96       	adiw	r24, 0x01	; 1
     57a:	90 93 71 01 	sts	0x0171, r25
     57e:	80 93 70 01 	sts	0x0170, r24
     582:	e4 91       	lpm	r30, Z+
     584:	e0 93 f1 00 	sts	0x00F1, r30
#endif
         data_to_transfer --;
     588:	31 50       	subi	r19, 0x01	; 1
     58a:	30 93 6f 01 	sts	0x016F, r19
   while((data_to_transfer != 0) && (!Is_usb_receive_out()))
   {
      while(!Is_usb_read_control_enabled());

      nb_byte=0;
      while(data_to_transfer != 0)              // Send data until necessary
     58e:	30 91 6f 01 	lds	r19, 0x016F
     592:	33 23       	and	r19, r19
     594:	49 f7       	brne	.-46     	; 0x568 <hid_get_report_descriptor+0x5c>
//warning with AVRGCC assumes devices descriptors are stored in the lower 64Kbytes of on-chip flash memory
         Usb_write_byte(pgm_read_byte_near((unsigned int)pbuffer++));
#endif
         data_to_transfer --;
      }
      Usb_send_control_in();
     596:	80 91 e8 00 	lds	r24, 0x00E8
     59a:	8e 7f       	andi	r24, 0xFE	; 254
     59c:	80 93 e8 00 	sts	0x00E8, r24
   else
   {
      data_to_transfer = (U8)wLength;           // send only requested number of data
   }

   while((data_to_transfer != 0) && (!Is_usb_receive_out()))
     5a0:	80 91 6f 01 	lds	r24, 0x016F
     5a4:	88 23       	and	r24, r24
     5a6:	21 f0       	breq	.+8      	; 0x5b0 <hid_get_report_descriptor+0xa4>
     5a8:	80 91 e8 00 	lds	r24, 0x00E8
     5ac:	82 ff       	sbrs	r24, 2
     5ae:	d6 cf       	rjmp	.-84     	; 0x55c <hid_get_report_descriptor+0x50>
   { 
      while(!Is_usb_read_control_enabled());
      Usb_send_control_in();
   }

   while(!Is_usb_receive_out());
     5b0:	80 91 e8 00 	lds	r24, 0x00E8
     5b4:	82 ff       	sbrs	r24, 2
     5b6:	fc cf       	rjmp	.-8      	; 0x5b0 <hid_get_report_descriptor+0xa4>
   Usb_ack_receive_out();
     5b8:	80 91 e8 00 	lds	r24, 0x00E8
     5bc:	8b 7f       	andi	r24, 0xFB	; 251
     5be:	80 93 e8 00 	sts	0x00E8, r24
     5c2:	80 91 e8 00 	lds	r24, 0x00E8
     5c6:	8f 77       	andi	r24, 0x7F	; 127
     5c8:	80 93 e8 00 	sts	0x00E8, r24
}
     5cc:	0f 90       	pop	r0
     5ce:	0f 90       	pop	r0
     5d0:	0f 90       	pop	r0
     5d2:	0f 90       	pop	r0
     5d4:	cf 91       	pop	r28
     5d6:	df 91       	pop	r29
     5d8:	08 95       	ret

000005da <usb_hid_set_report_ouput>:

//! @brief This function manages hit set report request.
//!
void usb_hid_set_report_ouput (void)
{
   Usb_ack_receive_setup();
     5da:	80 91 e8 00 	lds	r24, 0x00E8
     5de:	87 7f       	andi	r24, 0xF7	; 247
     5e0:	80 93 e8 00 	sts	0x00E8, r24
   Usb_send_control_in();
     5e4:	80 91 e8 00 	lds	r24, 0x00E8
     5e8:	8e 7f       	andi	r24, 0xFE	; 254
     5ea:	80 93 e8 00 	sts	0x00E8, r24

   while(!Is_usb_receive_out());
     5ee:	80 91 e8 00 	lds	r24, 0x00E8
     5f2:	82 ff       	sbrs	r24, 2
     5f4:	fc cf       	rjmp	.-8      	; 0x5ee <usb_hid_set_report_ouput+0x14>
   Usb_ack_receive_out();
     5f6:	80 91 e8 00 	lds	r24, 0x00E8
     5fa:	8b 7f       	andi	r24, 0xFB	; 251
     5fc:	80 93 e8 00 	sts	0x00E8, r24
     600:	80 91 e8 00 	lds	r24, 0x00E8
     604:	8f 77       	andi	r24, 0x7F	; 127
     606:	80 93 e8 00 	sts	0x00E8, r24
   Usb_send_control_in();
     60a:	80 91 e8 00 	lds	r24, 0x00E8
     60e:	8e 7f       	andi	r24, 0xFE	; 254
     610:	80 93 e8 00 	sts	0x00E8, r24
}
     614:	08 95       	ret

00000616 <usb_hid_set_idle>:
//!
//! @param Duration     When the upper byte of wValue is 0 (zero), the duration is indefinite else from 0.004 to 1.020 seconds
//! @param Report ID    0 the idle rate applies to all input reports, else only applies to the Report ID
//!
void usb_hid_set_idle (U8 u8_report_id, U8 u8_duration )
{
     616:	df 93       	push	r29
     618:	cf 93       	push	r28
     61a:	00 d0       	rcall	.+0      	; 0x61c <usb_hid_set_idle+0x6>
     61c:	cd b7       	in	r28, 0x3d	; 61
     61e:	de b7       	in	r29, 0x3e	; 62
   U16 wInterface;
   
   // Get interface number to put in idle mode
   LSB(wInterface)=Usb_read_byte();
     620:	80 91 f1 00 	lds	r24, 0x00F1
     624:	89 83       	std	Y+1, r24	; 0x01
   MSB(wInterface)=Usb_read_byte();
     626:	80 91 f1 00 	lds	r24, 0x00F1
     62a:	8a 83       	std	Y+2, r24	; 0x02
   Usb_ack_receive_setup();
     62c:	80 91 e8 00 	lds	r24, 0x00E8
     630:	87 7f       	andi	r24, 0xF7	; 247
     632:	80 93 e8 00 	sts	0x00E8, r24
  
   g_u8_report_rate = u8_duration;
     636:	60 93 59 01 	sts	0x0159, r22
   
   Usb_send_control_in();
     63a:	80 91 e8 00 	lds	r24, 0x00E8
     63e:	8e 7f       	andi	r24, 0xFE	; 254
     640:	80 93 e8 00 	sts	0x00E8, r24
   while(!Is_usb_in_ready());
     644:	80 91 e8 00 	lds	r24, 0x00E8
     648:	80 ff       	sbrs	r24, 0
     64a:	fc cf       	rjmp	.-8      	; 0x644 <usb_hid_set_idle+0x2e>
}
     64c:	0f 90       	pop	r0
     64e:	0f 90       	pop	r0
     650:	cf 91       	pop	r28
     652:	df 91       	pop	r29
     654:	08 95       	ret

00000656 <usb_hid_get_idle>:
//! @brief This function manages hid get idle request.
//!
//! @param Report ID    0 the idle rate applies to all input reports, else only applies to the Report ID
//!
void usb_hid_get_idle (U8 u8_report_id)
{
     656:	df 93       	push	r29
     658:	cf 93       	push	r28
     65a:	00 d0       	rcall	.+0      	; 0x65c <usb_hid_get_idle+0x6>
     65c:	00 d0       	rcall	.+0      	; 0x65e <usb_hid_get_idle+0x8>
     65e:	cd b7       	in	r28, 0x3d	; 61
     660:	de b7       	in	r29, 0x3e	; 62
   U16 wLength;
   U16 wInterface;

   // Get interface number to put in idle mode
   LSB(wInterface)= Usb_read_byte();
     662:	80 91 f1 00 	lds	r24, 0x00F1
     666:	8b 83       	std	Y+3, r24	; 0x03
   MSB(wInterface)= Usb_read_byte();
     668:	80 91 f1 00 	lds	r24, 0x00F1
     66c:	8c 83       	std	Y+4, r24	; 0x04
   LSB(wLength)   = Usb_read_byte();
     66e:	80 91 f1 00 	lds	r24, 0x00F1
     672:	89 83       	std	Y+1, r24	; 0x01
   MSB(wLength)   = Usb_read_byte();
     674:	80 91 f1 00 	lds	r24, 0x00F1
     678:	8a 83       	std	Y+2, r24	; 0x02
   Usb_ack_receive_setup();
     67a:	80 91 e8 00 	lds	r24, 0x00E8
     67e:	87 7f       	andi	r24, 0xF7	; 247
     680:	80 93 e8 00 	sts	0x00E8, r24
   
   if( wLength != 0 )
     684:	89 81       	ldd	r24, Y+1	; 0x01
     686:	9a 81       	ldd	r25, Y+2	; 0x02
     688:	00 97       	sbiw	r24, 0x00	; 0
     68a:	49 f0       	breq	.+18     	; 0x69e <usb_hid_get_idle+0x48>
   {
      Usb_write_byte(g_u8_report_rate);
     68c:	80 91 59 01 	lds	r24, 0x0159
     690:	80 93 f1 00 	sts	0x00F1, r24
      Usb_send_control_in();
     694:	80 91 e8 00 	lds	r24, 0x00E8
     698:	8e 7f       	andi	r24, 0xFE	; 254
     69a:	80 93 e8 00 	sts	0x00E8, r24
   }
   
   while(!Is_usb_receive_out());
     69e:	80 91 e8 00 	lds	r24, 0x00E8
     6a2:	82 ff       	sbrs	r24, 2
     6a4:	fc cf       	rjmp	.-8      	; 0x69e <usb_hid_get_idle+0x48>
   Usb_ack_receive_out();
     6a6:	80 91 e8 00 	lds	r24, 0x00E8
     6aa:	8b 7f       	andi	r24, 0xFB	; 251
     6ac:	80 93 e8 00 	sts	0x00E8, r24
     6b0:	80 91 e8 00 	lds	r24, 0x00E8
     6b4:	8f 77       	andi	r24, 0x7F	; 127
     6b6:	80 93 e8 00 	sts	0x00E8, r24
}
     6ba:	0f 90       	pop	r0
     6bc:	0f 90       	pop	r0
     6be:	0f 90       	pop	r0
     6c0:	0f 90       	pop	r0
     6c2:	cf 91       	pop	r28
     6c4:	df 91       	pop	r29
     6c6:	08 95       	ret

000006c8 <usb_hid_set_report_feature>:

void usb_hid_set_report_feature(void)
{

   Usb_ack_receive_setup();
     6c8:	80 91 e8 00 	lds	r24, 0x00E8
     6cc:	87 7f       	andi	r24, 0xF7	; 247
     6ce:	80 93 e8 00 	sts	0x00E8, r24
   Usb_send_control_in();
     6d2:	80 91 e8 00 	lds	r24, 0x00E8
     6d6:	8e 7f       	andi	r24, 0xFE	; 254
     6d8:	80 93 e8 00 	sts	0x00E8, r24

   while(!Is_usb_receive_out());
     6dc:	80 91 e8 00 	lds	r24, 0x00E8
     6e0:	82 ff       	sbrs	r24, 2
     6e2:	fc cf       	rjmp	.-8      	; 0x6dc <usb_hid_set_report_feature+0x14>

   if(Usb_read_byte()==0x55)
     6e4:	80 91 f1 00 	lds	r24, 0x00F1
     6e8:	85 35       	cpi	r24, 0x55	; 85
     6ea:	79 f4       	brne	.+30     	; 0x70a <usb_hid_set_report_feature+0x42>
      if(Usb_read_byte()==0xAA)
     6ec:	80 91 f1 00 	lds	r24, 0x00F1
     6f0:	8a 3a       	cpi	r24, 0xAA	; 170
     6f2:	59 f4       	brne	.+22     	; 0x70a <usb_hid_set_report_feature+0x42>
         if(Usb_read_byte()==0x55)
     6f4:	80 91 f1 00 	lds	r24, 0x00F1
     6f8:	85 35       	cpi	r24, 0x55	; 85
     6fa:	39 f4       	brne	.+14     	; 0x70a <usb_hid_set_report_feature+0x42>
            if(Usb_read_byte()==0xAA)
     6fc:	80 91 f1 00 	lds	r24, 0x00F1
     700:	8a 3a       	cpi	r24, 0xAA	; 170
     702:	19 f4       	brne	.+6      	; 0x70a <usb_hid_set_report_feature+0x42>
            {
               jump_bootloader=1;
     704:	81 e0       	ldi	r24, 0x01	; 1
     706:	80 93 58 01 	sts	0x0158, r24
            }
   Usb_ack_receive_out();
     70a:	80 91 e8 00 	lds	r24, 0x00E8
     70e:	8b 7f       	andi	r24, 0xFB	; 251
     710:	80 93 e8 00 	sts	0x00E8, r24
     714:	80 91 e8 00 	lds	r24, 0x00E8
     718:	8f 77       	andi	r24, 0x7F	; 127
     71a:	80 93 e8 00 	sts	0x00E8, r24
   Usb_send_control_in();
     71e:	80 91 e8 00 	lds	r24, 0x00E8
     722:	8e 7f       	andi	r24, 0xFE	; 254
     724:	80 93 e8 00 	sts	0x00E8, r24
   while(!Is_usb_in_ready());
     728:	80 91 e8 00 	lds	r24, 0x00E8
     72c:	80 ff       	sbrs	r24, 0
     72e:	fc cf       	rjmp	.-8      	; 0x728 <usb_hid_set_report_feature+0x60>
}
     730:	08 95       	ret

00000732 <hid_get_hid_descriptor>:

//! @brief This function manages hid get hid descriptor request.
//!
void hid_get_hid_descriptor(void)
{
     732:	df 93       	push	r29
     734:	cf 93       	push	r28
     736:	00 d0       	rcall	.+0      	; 0x738 <hid_get_hid_descriptor+0x6>
     738:	00 d0       	rcall	.+0      	; 0x73a <hid_get_hid_descriptor+0x8>
     73a:	cd b7       	in	r28, 0x3d	; 61
     73c:	de b7       	in	r29, 0x3e	; 62
   U16 wLength;
   U8  nb_byte;
   bit zlp=FALSE;
   U16 wInterface;

   LSB(wInterface)=Usb_read_byte();
     73e:	80 91 f1 00 	lds	r24, 0x00F1
     742:	8b 83       	std	Y+3, r24	; 0x03
   MSB(wInterface)=Usb_read_byte();
     744:	80 91 f1 00 	lds	r24, 0x00F1
     748:	8c 83       	std	Y+4, r24	; 0x04

   data_to_transfer = sizeof(usb_conf_desc.hid);
     74a:	89 e0       	ldi	r24, 0x09	; 9
     74c:	80 93 6f 01 	sts	0x016F, r24
   pbuffer = &(usb_conf_desc.hid.bLength);
     750:	8d e4       	ldi	r24, 0x4D	; 77
     752:	91 e0       	ldi	r25, 0x01	; 1
     754:	90 93 71 01 	sts	0x0171, r25
     758:	80 93 70 01 	sts	0x0170, r24

   LSB(wLength) = Usb_read_byte();
     75c:	80 91 f1 00 	lds	r24, 0x00F1
     760:	89 83       	std	Y+1, r24	; 0x01
   MSB(wLength) = Usb_read_byte();
     762:	80 91 f1 00 	lds	r24, 0x00F1
     766:	8a 83       	std	Y+2, r24	; 0x02
   Usb_ack_receive_setup();
     768:	80 91 e8 00 	lds	r24, 0x00E8
     76c:	87 7f       	andi	r24, 0xF7	; 247
     76e:	80 93 e8 00 	sts	0x00E8, r24

   if (wLength > data_to_transfer)
     772:	89 81       	ldd	r24, Y+1	; 0x01
     774:	9a 81       	ldd	r25, Y+2	; 0x02
     776:	8a 30       	cpi	r24, 0x0A	; 10
     778:	91 05       	cpc	r25, r1
     77a:	28 f5       	brcc	.+74     	; 0x7c6 <hid_get_hid_descriptor+0x94>
      if ((data_to_transfer % EP_CONTROL_LENGTH) == 0) { zlp = TRUE; }
      else { zlp = FALSE; }                     // no need of zero length packet
   }
   else
   {
      data_to_transfer = (U8)wLength;           // send only requested number of data
     77c:	80 93 6f 01 	sts	0x016F, r24
     780:	22 c0       	rjmp	.+68     	; 0x7c6 <hid_get_hid_descriptor+0x94>
   }

   while((data_to_transfer != 0) && (!Is_usb_receive_out()))
   {
      while(!Is_usb_read_control_enabled());
     782:	80 91 e8 00 	lds	r24, 0x00E8
     786:	80 ff       	sbrs	r24, 0
     788:	fc cf       	rjmp	.-8      	; 0x782 <hid_get_hid_descriptor+0x50>
     78a:	20 e0       	ldi	r18, 0x00	; 0
     78c:	13 c0       	rjmp	.+38     	; 0x7b4 <hid_get_hid_descriptor+0x82>

      nb_byte=0;
      while(data_to_transfer != 0)              // Send data until necessary
      {
         if(nb_byte++==EP_CONTROL_LENGTH)       // Check endpoint 0 size
     78e:	20 34       	cpi	r18, 0x40	; 64
     790:	a9 f0       	breq	.+42     	; 0x7bc <hid_get_hid_descriptor+0x8a>
     792:	2f 5f       	subi	r18, 0xFF	; 255
         }
#ifndef __GNUC__
         Usb_write_byte(*pbuffer++);
#else    // AVRGCC does not support point to PGM space
//warning with AVRGCC assumes devices descriptors are stored in the lower 64Kbytes of on-chip flash memory
         Usb_write_byte(pgm_read_byte_near((unsigned int)pbuffer++));
     794:	e0 91 70 01 	lds	r30, 0x0170
     798:	f0 91 71 01 	lds	r31, 0x0171
     79c:	cf 01       	movw	r24, r30
     79e:	01 96       	adiw	r24, 0x01	; 1
     7a0:	90 93 71 01 	sts	0x0171, r25
     7a4:	80 93 70 01 	sts	0x0170, r24
     7a8:	e4 91       	lpm	r30, Z+
     7aa:	e0 93 f1 00 	sts	0x00F1, r30
#endif
         data_to_transfer --;
     7ae:	31 50       	subi	r19, 0x01	; 1
     7b0:	30 93 6f 01 	sts	0x016F, r19
   while((data_to_transfer != 0) && (!Is_usb_receive_out()))
   {
      while(!Is_usb_read_control_enabled());

      nb_byte=0;
      while(data_to_transfer != 0)              // Send data until necessary
     7b4:	30 91 6f 01 	lds	r19, 0x016F
     7b8:	33 23       	and	r19, r19
     7ba:	49 f7       	brne	.-46     	; 0x78e <hid_get_hid_descriptor+0x5c>
//warning with AVRGCC assumes devices descriptors are stored in the lower 64Kbytes of on-chip flash memory
         Usb_write_byte(pgm_read_byte_near((unsigned int)pbuffer++));
#endif
         data_to_transfer --;
      }
      Usb_send_control_in();
     7bc:	80 91 e8 00 	lds	r24, 0x00E8
     7c0:	8e 7f       	andi	r24, 0xFE	; 254
     7c2:	80 93 e8 00 	sts	0x00E8, r24
   else
   {
      data_to_transfer = (U8)wLength;           // send only requested number of data
   }

   while((data_to_transfer != 0) && (!Is_usb_receive_out()))
     7c6:	80 91 6f 01 	lds	r24, 0x016F
     7ca:	88 23       	and	r24, r24
     7cc:	21 f0       	breq	.+8      	; 0x7d6 <hid_get_hid_descriptor+0xa4>
     7ce:	80 91 e8 00 	lds	r24, 0x00E8
     7d2:	82 ff       	sbrs	r24, 2
     7d4:	d6 cf       	rjmp	.-84     	; 0x782 <hid_get_hid_descriptor+0x50>
   { 
      while(!Is_usb_read_control_enabled());
      Usb_send_control_in();
   }

   while(!Is_usb_receive_out());
     7d6:	80 91 e8 00 	lds	r24, 0x00E8
     7da:	82 ff       	sbrs	r24, 2
     7dc:	fc cf       	rjmp	.-8      	; 0x7d6 <hid_get_hid_descriptor+0xa4>
   Usb_ack_receive_out();
     7de:	80 91 e8 00 	lds	r24, 0x00E8
     7e2:	8b 7f       	andi	r24, 0xFB	; 251
     7e4:	80 93 e8 00 	sts	0x00E8, r24
     7e8:	80 91 e8 00 	lds	r24, 0x00E8
     7ec:	8f 77       	andi	r24, 0x7F	; 127
     7ee:	80 93 e8 00 	sts	0x00E8, r24
}
     7f2:	0f 90       	pop	r0
     7f4:	0f 90       	pop	r0
     7f6:	0f 90       	pop	r0
     7f8:	0f 90       	pop	r0
     7fa:	cf 91       	pop	r28
     7fc:	df 91       	pop	r29
     7fe:	08 95       	ret

00000800 <usb_user_read_request>:
//!
//! @return TRUE,  when the request is processed
//! @return FALSE, if the request is'nt know (STALL handshake is managed by the main standard request function).
//!
Bool usb_user_read_request(U8 type, U8 request)
{
     800:	28 2f       	mov	r18, r24
   U8    wValue_msb;
   U8    wValue_lsb;

   // Read wValue
   wValue_lsb = Usb_read_byte();
     802:	80 91 f1 00 	lds	r24, 0x00F1
   wValue_msb = Usb_read_byte();
     806:	90 91 f1 00 	lds	r25, 0x00F1

   //** Specific request from Class HID
   if( USB_SETUP_GET_STAND_INTERFACE == type )
     80a:	21 38       	cpi	r18, 0x81	; 129
     80c:	69 f4       	brne	.+26     	; 0x828 <usb_user_read_request+0x28>
   {
      switch( request )
     80e:	66 30       	cpi	r22, 0x06	; 6
     810:	49 f5       	brne	.+82     	; 0x864 <usb_user_read_request+0x64>
      {
         case SETUP_GET_DESCRIPTOR:
         switch( wValue_msb ) // Descriptor ID
     812:	91 32       	cpi	r25, 0x21	; 33
     814:	19 f0       	breq	.+6      	; 0x81c <usb_user_read_request+0x1c>
     816:	92 32       	cpi	r25, 0x22	; 34
     818:	29 f5       	brne	.+74     	; 0x864 <usb_user_read_request+0x64>
     81a:	03 c0       	rjmp	.+6      	; 0x822 <usb_user_read_request+0x22>
         {
            case DESCRIPTOR_HID:
            hid_get_hid_descriptor();
     81c:	0e 94 99 03 	call	0x732	; 0x732 <hid_get_hid_descriptor>
     820:	18 c0       	rjmp	.+48     	; 0x852 <usb_user_read_request+0x52>
            return TRUE;
            break;
   
            case DESCRIPTOR_REPORT:
            hid_get_report_descriptor();
     822:	0e 94 86 02 	call	0x50c	; 0x50c <hid_get_report_descriptor>
     826:	15 c0       	rjmp	.+42     	; 0x852 <usb_user_read_request+0x52>
            break;
         }
         break;
      }
   }
   if( USB_SETUP_SET_CLASS_INTER == type )
     828:	21 32       	cpi	r18, 0x21	; 33
     82a:	a9 f4       	brne	.+42     	; 0x856 <usb_user_read_request+0x56>
   {
      switch( request )
     82c:	69 30       	cpi	r22, 0x09	; 9
     82e:	19 f0       	breq	.+6      	; 0x836 <usb_user_read_request+0x36>
     830:	6a 30       	cpi	r22, 0x0A	; 10
     832:	c1 f4       	brne	.+48     	; 0x864 <usb_user_read_request+0x64>
     834:	0b c0       	rjmp	.+22     	; 0x84c <usb_user_read_request+0x4c>
      {
         case SETUP_HID_SET_REPORT:
         // The MSB wValue field specifies the Report Type
         // The LSB wValue field specifies the Report ID
         switch (wValue_msb)
     836:	92 30       	cpi	r25, 0x02	; 2
     838:	19 f0       	breq	.+6      	; 0x840 <usb_user_read_request+0x40>
     83a:	93 30       	cpi	r25, 0x03	; 3
     83c:	99 f4       	brne	.+38     	; 0x864 <usb_user_read_request+0x64>
     83e:	03 c0       	rjmp	.+6      	; 0x846 <usb_user_read_request+0x46>
            case REPORT_TYPE_INPUT:
            // TODO
            break;
            
            case REPORT_TYPE_OUTPUT:
            usb_hid_set_report_ouput();
     840:	0e 94 ed 02 	call	0x5da	; 0x5da <usb_hid_set_report_ouput>
     844:	06 c0       	rjmp	.+12     	; 0x852 <usb_user_read_request+0x52>
            return TRUE;
            break;

            case REPORT_TYPE_FEATURE:
            usb_hid_set_report_feature();
     846:	0e 94 64 03 	call	0x6c8	; 0x6c8 <usb_hid_set_report_feature>
     84a:	03 c0       	rjmp	.+6      	; 0x852 <usb_user_read_request+0x52>
            break;
         }
         break;

         case SETUP_HID_SET_IDLE:
         usb_hid_set_idle(wValue_lsb,wValue_msb);
     84c:	69 2f       	mov	r22, r25
     84e:	0e 94 0b 03 	call	0x616	; 0x616 <usb_hid_set_idle>
         return TRUE;
     852:	81 e0       	ldi	r24, 0x01	; 1
     854:	08 95       	ret
         case SETUP_HID_SET_PROTOCOL:
         // TODO
         break;
      }
   }
   if( USB_SETUP_GET_CLASS_INTER == type )
     856:	21 3a       	cpi	r18, 0xA1	; 161
     858:	29 f4       	brne	.+10     	; 0x864 <usb_user_read_request+0x64>
   {
      switch( request )
     85a:	62 30       	cpi	r22, 0x02	; 2
     85c:	29 f4       	brne	.+10     	; 0x868 <usb_user_read_request+0x68>
      {
         case SETUP_HID_GET_REPORT:
         // TODO
         break;
         case SETUP_HID_GET_IDLE:
         usb_hid_get_idle(wValue_lsb);
     85e:	0e 94 2b 03 	call	0x656	; 0x656 <usb_hid_get_idle>
     862:	f7 cf       	rjmp	.-18     	; 0x852 <usb_user_read_request+0x52>
         case SETUP_HID_GET_PROTOCOL:
         // TODO
         break;
      }
   }
   return FALSE;  // No supported request
     864:	80 e0       	ldi	r24, 0x00	; 0
     866:	08 95       	ret
     868:	80 e0       	ldi	r24, 0x00	; 0
}
     86a:	08 95       	ret

0000086c <set_power_down_mode>:

//! This function makes the AVR core enter power down mode.
//!
void set_power_down_mode(void)
{
   Setup_power_down_mode();
     86c:	13 be       	out	0x33, r1	; 51
     86e:	83 b7       	in	r24, 0x33	; 51
     870:	85 60       	ori	r24, 0x05	; 5
     872:	83 bf       	out	0x33, r24	; 51
   Sleep_instruction();
     874:	88 95       	sleep
}
     876:	08 95       	ret

00000878 <set_idle_mode>:

//! This function makes the AVR core enter idle mode.
//!
void set_idle_mode(void)
{
   Setup_idle_mode();
     878:	13 be       	out	0x33, r1	; 51
     87a:	83 b7       	in	r24, 0x33	; 51
     87c:	81 60       	ori	r24, 0x01	; 1
     87e:	83 bf       	out	0x33, r24	; 51
   Sleep_instruction();
     880:	88 95       	sleep
}
     882:	08 95       	ret

00000884 <set_adc_noise_reduction_mode>:

//! This function makes the AVR core enter adc noise reduction mode.
//!
void set_adc_noise_reduction_mode(void)
{
   Setup_adc_noise_reduction_mode();
     884:	13 be       	out	0x33, r1	; 51
     886:	83 b7       	in	r24, 0x33	; 51
     888:	83 60       	ori	r24, 0x03	; 3
     88a:	83 bf       	out	0x33, r24	; 51
   Sleep_instruction();
     88c:	88 95       	sleep
}
     88e:	08 95       	ret

00000890 <set_power_save_mode>:

//! This function makes the AVR core enter power save mode.
//!
void set_power_save_mode(void)
{
   Setup_power_save_mode();
     890:	13 be       	out	0x33, r1	; 51
     892:	83 b7       	in	r24, 0x33	; 51
     894:	87 60       	ori	r24, 0x07	; 7
     896:	83 bf       	out	0x33, r24	; 51
   Sleep_instruction();
     898:	88 95       	sleep
}
     89a:	08 95       	ret

0000089c <set_standby_mode>:

//! This function makes the AVR core enter standby mode.
//!
void set_standby_mode(void)
{
   Setup_standby_mode();
     89c:	13 be       	out	0x33, r1	; 51
     89e:	83 b7       	in	r24, 0x33	; 51
     8a0:	8d 60       	ori	r24, 0x0D	; 13
     8a2:	83 bf       	out	0x33, r24	; 51
   Sleep_instruction();
     8a4:	88 95       	sleep
}
     8a6:	08 95       	ret

000008a8 <set_ext_standby_mode>:

//! This function makes the AVR core enter extended standby mode.
//!
void set_ext_standby_mode(void)
{
   Setup_ext_standby_mode();
     8a8:	13 be       	out	0x33, r1	; 51
     8aa:	83 b7       	in	r24, 0x33	; 51
     8ac:	8f 60       	ori	r24, 0x0F	; 15
     8ae:	83 bf       	out	0x33, r24	; 51
   Sleep_instruction();
     8b0:	88 95       	sleep
}
     8b2:	08 95       	ret

000008b4 <usb_config_ep>:
//!
//! @return Is_endpoint_configured.
//!
U8 usb_config_ep(U8 config0, U8 config1)
{
    Usb_enable_endpoint();
     8b4:	eb ee       	ldi	r30, 0xEB	; 235
     8b6:	f0 e0       	ldi	r31, 0x00	; 0
     8b8:	90 81       	ld	r25, Z
     8ba:	91 60       	ori	r25, 0x01	; 1
     8bc:	90 83       	st	Z, r25
    UECFG0X = config0;
     8be:	80 93 ec 00 	sts	0x00EC, r24
    UECFG1X = (UECFG1X & (1<<ALLOC)) | config1;
     8c2:	ed ee       	ldi	r30, 0xED	; 237
     8c4:	f0 e0       	ldi	r31, 0x00	; 0
     8c6:	80 81       	ld	r24, Z
     8c8:	82 70       	andi	r24, 0x02	; 2
     8ca:	68 2b       	or	r22, r24
     8cc:	60 83       	st	Z, r22
    Usb_allocate_memory();
     8ce:	80 81       	ld	r24, Z
     8d0:	82 60       	ori	r24, 0x02	; 2
     8d2:	80 83       	st	Z, r24
    return (Is_endpoint_configured());
     8d4:	80 91 ee 00 	lds	r24, 0x00EE
}
     8d8:	88 1f       	adc	r24, r24
     8da:	88 27       	eor	r24, r24
     8dc:	88 1f       	adc	r24, r24
     8de:	08 95       	ret

000008e0 <usb_select_enpoint_interrupt>:
{
U8 interrupt_flags;
U8 ep_num;

   ep_num = 0;
   interrupt_flags = Usb_interrupt_flags();
     8e0:	90 91 f4 00 	lds	r25, 0x00F4
U8 usb_select_enpoint_interrupt(void)
{
U8 interrupt_flags;
U8 ep_num;

   ep_num = 0;
     8e4:	80 e0       	ldi	r24, 0x00	; 0
   interrupt_flags = Usb_interrupt_flags();

   while(ep_num < MAX_EP_NB)
   {
      if (interrupt_flags & 1)
     8e6:	90 fd       	sbrc	r25, 0
     8e8:	06 c0       	rjmp	.+12     	; 0x8f6 <usb_select_enpoint_interrupt+0x16>
      {
         return (ep_num);
      }
      else
      {
         ep_num++;
     8ea:	8f 5f       	subi	r24, 0xFF	; 255
U8 ep_num;

   ep_num = 0;
   interrupt_flags = Usb_interrupt_flags();

   while(ep_num < MAX_EP_NB)
     8ec:	87 30       	cpi	r24, 0x07	; 7
     8ee:	11 f0       	breq	.+4      	; 0x8f4 <usb_select_enpoint_interrupt+0x14>
         return (ep_num);
      }
      else
      {
         ep_num++;
         interrupt_flags = interrupt_flags >> 1;
     8f0:	96 95       	lsr	r25
     8f2:	f9 cf       	rjmp	.-14     	; 0x8e6 <usb_select_enpoint_interrupt+0x6>
      }
   }
   return 0;
     8f4:	80 e0       	ldi	r24, 0x00	; 0
}
     8f6:	08 95       	ret

000008f8 <usb_send_packet>:
//!
//! Note:
//! tbuf is incremented of 'data_length'.
//!
U8 usb_send_packet(U8 ep_num, U8* tbuf, U8 data_length)
{
     8f8:	fb 01       	movw	r30, r22
U8 remaining_length;

   remaining_length = data_length;
   Usb_select_endpoint(ep_num);
     8fa:	80 93 e9 00 	sts	0x00E9, r24
//!
U8 usb_send_packet(U8 ep_num, U8* tbuf, U8 data_length)
{
U8 remaining_length;

   remaining_length = data_length;
     8fe:	84 2f       	mov	r24, r20
   Usb_select_endpoint(ep_num);
   while(Is_usb_write_enabled() && (0 != remaining_length))
     900:	04 c0       	rjmp	.+8      	; 0x90a <usb_send_packet+0x12>
   {
      Usb_write_byte(*tbuf);
     902:	91 91       	ld	r25, Z+
     904:	90 93 f1 00 	sts	0x00F1, r25
      remaining_length--;
     908:	81 50       	subi	r24, 0x01	; 1
{
U8 remaining_length;

   remaining_length = data_length;
   Usb_select_endpoint(ep_num);
   while(Is_usb_write_enabled() && (0 != remaining_length))
     90a:	90 91 e8 00 	lds	r25, 0x00E8
     90e:	95 ff       	sbrs	r25, 5
     910:	02 c0       	rjmp	.+4      	; 0x916 <usb_send_packet+0x1e>
     912:	88 23       	and	r24, r24
     914:	b1 f7       	brne	.-20     	; 0x902 <usb_send_packet+0xa>
      Usb_write_byte(*tbuf);
      remaining_length--;
      tbuf++;
   }
   return remaining_length;
}
     916:	08 95       	ret

00000918 <usb_read_packet>:
//!
//! Note:
//! rbuf is incremented of 'data_length'.
//!
U8 usb_read_packet(U8 ep_num, U8* rbuf, U8  data_length)
{
     918:	fb 01       	movw	r30, r22
U8 remaining_length;

   remaining_length = data_length;
   Usb_select_endpoint(ep_num);
     91a:	80 93 e9 00 	sts	0x00E9, r24
//!
U8 usb_read_packet(U8 ep_num, U8* rbuf, U8  data_length)
{
U8 remaining_length;

   remaining_length = data_length;
     91e:	84 2f       	mov	r24, r20
   Usb_select_endpoint(ep_num);

   while(Is_usb_read_enabled() && (0 != remaining_length))
     920:	04 c0       	rjmp	.+8      	; 0x92a <usb_read_packet+0x12>
   {
      *rbuf = Usb_read_byte();
     922:	90 91 f1 00 	lds	r25, 0x00F1
     926:	91 93       	st	Z+, r25
      remaining_length--;
     928:	81 50       	subi	r24, 0x01	; 1
U8 remaining_length;

   remaining_length = data_length;
   Usb_select_endpoint(ep_num);

   while(Is_usb_read_enabled() && (0 != remaining_length))
     92a:	90 91 e8 00 	lds	r25, 0x00E8
     92e:	95 ff       	sbrs	r25, 5
     930:	02 c0       	rjmp	.+4      	; 0x936 <usb_read_packet+0x1e>
     932:	88 23       	and	r24, r24
     934:	b1 f7       	brne	.-20     	; 0x922 <usb_read_packet+0xa>
      *rbuf = Usb_read_byte();
      remaining_length--;
      rbuf++;
   }
   return remaining_length;
}
     936:	08 95       	ret

00000938 <usb_halt_endpoint>:
//!
//! @return none
//!
void usb_halt_endpoint (U8 ep_num)
{
   Usb_select_endpoint(ep_num);
     938:	80 93 e9 00 	sts	0x00E9, r24
   Usb_enable_stall_handshake();
     93c:	eb ee       	ldi	r30, 0xEB	; 235
     93e:	f0 e0       	ldi	r31, 0x00	; 0
     940:	80 81       	ld	r24, Z
     942:	80 62       	ori	r24, 0x20	; 32
     944:	80 83       	st	Z, r24
}
     946:	08 95       	ret

00000948 <usb_init_device>:
//!
//! @return status
//!
U8 usb_init_device (void)
{
   Usb_select_device();
     948:	80 91 d8 00 	lds	r24, 0x00D8
     94c:	8f 7b       	andi	r24, 0xBF	; 191
     94e:	80 93 d8 00 	sts	0x00D8, r24
   if(Is_usb_id_device())
     952:	80 91 d9 00 	lds	r24, 0x00D9
     956:	81 ff       	sbrs	r24, 1
     958:	08 c0       	rjmp	.+16     	; 0x96a <usb_init_device+0x22>
   {
      Usb_select_endpoint(EP_CONTROL);
     95a:	10 92 e9 00 	sts	0x00E9, r1
      if(!Is_usb_endpoint_enabled())
     95e:	80 91 eb 00 	lds	r24, 0x00EB
     962:	80 ff       	sbrs	r24, 0
     964:	04 c0       	rjmp	.+8      	; 0x96e <usb_init_device+0x26>
                                ONE_BANK,      \
                                NYET_DISABLED);
#endif
      }
   }
   return FALSE;
     966:	80 e0       	ldi	r24, 0x00	; 0
     968:	08 95       	ret
     96a:	80 e0       	ldi	r24, 0x00	; 0
}
     96c:	08 95       	ret
   {
      Usb_select_endpoint(EP_CONTROL);
      if(!Is_usb_endpoint_enabled())
      {
#if (USB_LOW_SPEED_DEVICE==DISABLE)
         return usb_configure_endpoint(EP_CONTROL,    \
     96e:	10 92 e9 00 	sts	0x00E9, r1
     972:	82 e0       	ldi	r24, 0x02	; 2
     974:	60 e3       	ldi	r22, 0x30	; 48
     976:	0e 94 5a 04 	call	0x8b4	; 0x8b4 <usb_config_ep>
     97a:	08 95       	ret

0000097c <start_boot>:
//! This function should be called when a special eve,t is detected in the application that requires the bootloader activation.
//! When this function is used, be sure to implement the "start_boot_if_required()" function at the begining of main().   
//!
void start_boot(void)
{
   boot_key=0x55AAAA55;
     97c:	85 e5       	ldi	r24, 0x55	; 85
     97e:	9a ea       	ldi	r25, 0xAA	; 170
     980:	aa ea       	ldi	r26, 0xAA	; 170
     982:	b5 e5       	ldi	r27, 0x55	; 85
     984:	80 93 78 01 	sts	0x0178, r24
     988:	90 93 79 01 	sts	0x0179, r25
     98c:	a0 93 7a 01 	sts	0x017A, r26
     990:	b0 93 7b 01 	sts	0x017B, r27
   
   // Enable the WDT for reset mode
   wdtdrv_enable(WDTO_500MS);
     994:	85 e0       	ldi	r24, 0x05	; 5
     996:	0e 94 15 10 	call	0x202a	; 0x202a <wdtdrv_enable>
     99a:	ff cf       	rjmp	.-2      	; 0x99a <start_boot+0x1e>

0000099c <start_boot_if_required>:
//! The function starts the on-chip bootloader if the application has posted such a request.
//! This function sould be inserted at the begining of the main function.   
//!
void start_boot_if_required(void)
{
  if(boot_key==GOTOBOOTKEY)
     99c:	80 91 78 01 	lds	r24, 0x0178
     9a0:	90 91 79 01 	lds	r25, 0x0179
     9a4:	a0 91 7a 01 	lds	r26, 0x017A
     9a8:	b0 91 7b 01 	lds	r27, 0x017B
     9ac:	85 35       	cpi	r24, 0x55	; 85
     9ae:	2a ea       	ldi	r18, 0xAA	; 170
     9b0:	92 07       	cpc	r25, r18
     9b2:	2a ea       	ldi	r18, 0xAA	; 170
     9b4:	a2 07       	cpc	r26, r18
     9b6:	25 e5       	ldi	r18, 0x55	; 85
     9b8:	b2 07       	cpc	r27, r18
     9ba:	69 f4       	brne	.+26     	; 0x9d6 <start_boot_if_required+0x3a>
  {
      boot_key = 0;
     9bc:	10 92 78 01 	sts	0x0178, r1
     9c0:	10 92 79 01 	sts	0x0179, r1
     9c4:	10 92 7a 01 	sts	0x017A, r1
     9c8:	10 92 7b 01 	sts	0x017B, r1
      (*start_bootloader)();           //! Jumping to bootloader
     9cc:	e0 91 0e 01 	lds	r30, 0x010E
     9d0:	f0 91 0f 01 	lds	r31, 0x010F
     9d4:	09 95       	icall
     9d6:	08 95       	ret

000009d8 <goto_boot>:

//! @brief This function jump to on-chip bootloader without CPU reset.
//!
void goto_boot(void)
{
   (*start_bootloader)();              //! Jumping to bootloader
     9d8:	e0 91 0e 01 	lds	r30, 0x010E
     9dc:	f0 91 0f 01 	lds	r31, 0x010F
     9e0:	09 95       	icall
}
     9e2:	08 95       	ret

000009e4 <df_chipselect_current>:

//! This function physically selects the current addressed memory
//!
static void df_chipselect_current(void)
{
   Df_desel_all();
     9e4:	8e b1       	in	r24, 0x0e	; 14
     9e6:	83 60       	ori	r24, 0x03	; 3
     9e8:	8e b9       	out	0x0e, r24	; 14
   switch (df_select)
     9ea:	80 91 5f 01 	lds	r24, 0x015F
     9ee:	88 23       	and	r24, r24
     9f0:	19 f0       	breq	.+6      	; 0x9f8 <df_chipselect_current+0x14>
     9f2:	81 30       	cpi	r24, 0x01	; 1
     9f4:	21 f4       	brne	.+8      	; 0x9fe <df_chipselect_current+0x1a>
     9f6:	02 c0       	rjmp	.+4      	; 0x9fc <df_chipselect_current+0x18>
   {
      case 0:
      Df_select_0();
     9f8:	70 98       	cbi	0x0e, 0	; 14
      break;
     9fa:	08 95       	ret
#if (DF_NB_MEM > 1)
      case 1:
      Df_select_1();
     9fc:	71 98       	cbi	0x0e, 1	; 14
     9fe:	08 95       	ret

00000a00 <df_wait_busy>:
//! This function waits until the DataFlash is not busy.
//!
static void df_wait_busy (void)
{
   // Read the status register until the DataFlash is not busy.
   df_chipselect_current();
     a00:	0e 94 f2 04 	call	0x9e4	; 0x9e4 <df_chipselect_current>
   Spi_write_data(DF_RD_STATUS); // Send the read status register cmd
     a04:	87 ed       	ldi	r24, 0xD7	; 215
     a06:	8e bd       	out	0x2e, r24	; 46
     a08:	0d b4       	in	r0, 0x2d	; 45
     a0a:	07 fe       	sbrs	r0, 7
     a0c:	fd cf       	rjmp	.-6      	; 0xa08 <df_wait_busy+0x8>
                                 // + 1st step to clear the SPIF bit
   Spi_write_data(0);            // dummy write that:
     a0e:	1e bc       	out	0x2e, r1	; 46
     a10:	0d b4       	in	r0, 0x2d	; 45
     a12:	07 fe       	sbrs	r0, 7
     a14:	fd cf       	rjmp	.-6      	; 0xa10 <df_wait_busy+0x10>
     a16:	04 c0       	rjmp	.+8      	; 0xa20 <df_wait_busy+0x20>
                                 // - get status register
                                 // - does the 1st step to clear the SPIF bit
   // Following Spi_read_data() finalize the clear of SPIF by accessing SPDR
   while ((Spi_read_data() & DF_MSK_BIT_BUSY) == DF_MEM_BUSY)
   {
      Spi_write_data(0);         // dummy write to get new status
     a18:	1e bc       	out	0x2e, r1	; 46
     a1a:	0d b4       	in	r0, 0x2d	; 45
     a1c:	07 fe       	sbrs	r0, 7
     a1e:	fd cf       	rjmp	.-6      	; 0xa1a <df_wait_busy+0x1a>
   Spi_write_data(0);            // dummy write that:
                                 // - finalize the clear of the SPIF bit (access to SPDR)
                                 // - get status register
                                 // - does the 1st step to clear the SPIF bit
   // Following Spi_read_data() finalize the clear of SPIF by accessing SPDR
   while ((Spi_read_data() & DF_MSK_BIT_BUSY) == DF_MEM_BUSY)
     a20:	0e b4       	in	r0, 0x2e	; 46
     a22:	07 fe       	sbrs	r0, 7
     a24:	f9 cf       	rjmp	.-14     	; 0xa18 <df_wait_busy+0x18>
   {
      Spi_write_data(0);         // dummy write to get new status
                                 // + 1st step to clear the SPIF bit
   }
   Df_desel_all();               // unselect memory to leave STATUS request mode
     a26:	8e b1       	in	r24, 0x0e	; 14
     a28:	83 60       	ori	r24, 0x03	; 3
     a2a:	8e b9       	out	0x0e, r24	; 14
   Spi_ack_write();              // Final step to clear the SPIF bit.
     a2c:	8e b5       	in	r24, 0x2e	; 46
}
     a2e:	08 95       	ret

00000a30 <df_init>:
//! This function initializes the SPI bus over which the DF is controlled
//!
void df_init (void)
{
   // Init the SPI communication link between the DF and the DF driver.
   Df_init_spi();
     a30:	23 98       	cbi	0x04, 3	; 4
     a32:	84 b1       	in	r24, 0x04	; 4
     a34:	87 60       	ori	r24, 0x07	; 7
     a36:	84 b9       	out	0x04, r24	; 4
     a38:	85 b1       	in	r24, 0x05	; 5
     a3a:	8f 60       	ori	r24, 0x0F	; 15
     a3c:	85 b9       	out	0x05, r24	; 5
     a3e:	8d b1       	in	r24, 0x0d	; 13
     a40:	83 60       	ori	r24, 0x03	; 3
     a42:	8d b9       	out	0x0d, r24	; 13
     a44:	8e b1       	in	r24, 0x0e	; 14
     a46:	83 60       	ori	r24, 0x03	; 3
     a48:	8e b9       	out	0x0e, r24	; 14
   Spi_select_master();
     a4a:	8c b5       	in	r24, 0x2c	; 44
     a4c:	80 61       	ori	r24, 0x10	; 16
     a4e:	8c bd       	out	0x2c, r24	; 44
   Spi_set_mode(SPI_MODE_3);
     a50:	8c b5       	in	r24, 0x2c	; 44
     a52:	83 7f       	andi	r24, 0xF3	; 243
     a54:	8c bd       	out	0x2c, r24	; 44
     a56:	8c b5       	in	r24, 0x2c	; 44
     a58:	8c 60       	ori	r24, 0x0C	; 12
     a5a:	8c bd       	out	0x2c, r24	; 44
   Spi_init_bus();
     a5c:	84 b1       	in	r24, 0x04	; 4
     a5e:	86 60       	ori	r24, 0x06	; 6
     a60:	84 b9       	out	0x04, r24	; 4
   Spi_set_rate(SPI_RATE_0);  // SCK freq == fosc/2.
     a62:	8c b5       	in	r24, 0x2c	; 44
     a64:	8c 7f       	andi	r24, 0xFC	; 252
     a66:	8c bd       	out	0x2c, r24	; 44
     a68:	8c b5       	in	r24, 0x2c	; 44
     a6a:	8c bd       	out	0x2c, r24	; 44
     a6c:	8d b5       	in	r24, 0x2d	; 45
     a6e:	81 60       	ori	r24, 0x01	; 1
     a70:	8d bd       	out	0x2d, r24	; 45
   Spi_disable_ss();
   Spi_enable();
     a72:	8c b5       	in	r24, 0x2c	; 44
     a74:	80 64       	ori	r24, 0x40	; 64
     a76:	8c bd       	out	0x2c, r24	; 44

   // Data Flash Controller init.
   df_mem_busy = 0;           // all memories ready
     a78:	10 92 5e 01 	sts	0x015E, r1
   df_select = 0;
     a7c:	10 92 5f 01 	sts	0x015F, r1
}
     a80:	08 95       	ret

00000a82 <df_mem_check>:
//! @return bit
//!   The memory is ready     -> OK
//!   The memory check failed -> KO
//!
Bool df_mem_check (void)
{
     a82:	0f 93       	push	r16
     a84:	1f 93       	push	r17
   // DF memory check.
   for(df_select=0; df_select<DF_NB_MEM; df_select++)
     a86:	10 92 5f 01 	sts	0x015F, r1
   {
      df_chipselect_current();
      Spi_write_data(DF_RD_STATUS); // Send the read status register cmd
     a8a:	07 ed       	ldi	r16, 0xD7	; 215
//!   The memory check failed -> KO
//!
Bool df_mem_check (void)
{
   // DF memory check.
   for(df_select=0; df_select<DF_NB_MEM; df_select++)
     a8c:	19 c0       	rjmp	.+50     	; 0xac0 <df_mem_check+0x3e>
   {
      df_chipselect_current();
     a8e:	0e 94 f2 04 	call	0x9e4	; 0x9e4 <df_chipselect_current>
      Spi_write_data(DF_RD_STATUS); // Send the read status register cmd
     a92:	0e bd       	out	0x2e, r16	; 46
     a94:	0d b4       	in	r0, 0x2d	; 45
     a96:	07 fe       	sbrs	r0, 7
     a98:	fd cf       	rjmp	.-6      	; 0xa94 <df_mem_check+0x12>
                                    // + 1st step to clear the SPIF bit
      Spi_write_data(0);            // dummy write that:
     a9a:	1e bc       	out	0x2e, r1	; 46
     a9c:	0d b4       	in	r0, 0x2d	; 45
     a9e:	07 fe       	sbrs	r0, 7
     aa0:	fd cf       	rjmp	.-6      	; 0xa9c <df_mem_check+0x1a>
                                    // - finalize the clear of the SPIF bit (access to SPDR)
                                    // - get status register
                                    // - does the 1st step to clear the SPIF bit 
      // Following Spi_read_data() finalize the clear of SPIF by accessing SPDR.
      // Check the DF density.
      if ((Spi_read_data() & DF_MSK_DENSITY) != DF_DENSITY)
     aa2:	8e b5       	in	r24, 0x2e	; 46
     aa4:	8c 73       	andi	r24, 0x3C	; 60
     aa6:	8c 33       	cpi	r24, 0x3C	; 60
     aa8:	29 f0       	breq	.+10     	; 0xab4 <df_mem_check+0x32>
      {   
        // Unexpected value.
        Df_desel_all();
     aaa:	8e b1       	in	r24, 0x0e	; 14
     aac:	83 60       	ori	r24, 0x03	; 3
     aae:	8e b9       	out	0x0e, r24	; 14
        return (KO);
     ab0:	80 e0       	ldi	r24, 0x00	; 0
     ab2:	0b c0       	rjmp	.+22     	; 0xaca <df_mem_check+0x48>
      }
      Df_desel_all();
     ab4:	8e b1       	in	r24, 0x0e	; 14
     ab6:	83 60       	ori	r24, 0x03	; 3
     ab8:	8e b9       	out	0x0e, r24	; 14
//!   The memory check failed -> KO
//!
Bool df_mem_check (void)
{
   // DF memory check.
   for(df_select=0; df_select<DF_NB_MEM; df_select++)
     aba:	1f 5f       	subi	r17, 0xFF	; 255
     abc:	10 93 5f 01 	sts	0x015F, r17
     ac0:	10 91 5f 01 	lds	r17, 0x015F
     ac4:	12 30       	cpi	r17, 0x02	; 2
     ac6:	18 f3       	brcs	.-58     	; 0xa8e <df_mem_check+0xc>
        Df_desel_all();
        return (KO);
      }
      Df_desel_all();
   }
   return OK;
     ac8:	81 e0       	ldi	r24, 0x01	; 1
}
     aca:	1f 91       	pop	r17
     acc:	0f 91       	pop	r16
     ace:	08 95       	ret

00000ad0 <df_read_open>:
//!
//! @return bit
//!   The open succeeded      -> OK
//!
Bool df_read_open (Uint32 pos)
{
     ad0:	1f 93       	push	r17
     ad2:	df 93       	push	r29
     ad4:	cf 93       	push	r28
     ad6:	00 d0       	rcall	.+0      	; 0xad8 <df_read_open+0x8>
     ad8:	00 d0       	rcall	.+0      	; 0xada <df_read_open+0xa>
     ada:	cd b7       	in	r28, 0x3d	; 61
     adc:	de b7       	in	r29, 0x3e	; 62
     ade:	e6 2f       	mov	r30, r22
     ae0:	69 83       	std	Y+1, r22	; 0x01
     ae2:	7a 83       	std	Y+2, r23	; 0x02
     ae4:	8b 83       	std	Y+3, r24	; 0x03
     ae6:	9c 83       	std	Y+4, r25	; 0x04
   // Set the global memory ptr at a Byte address.
   gl_ptr_mem = df_translate_addr(pos);
     ae8:	26 2f       	mov	r18, r22
     aea:	37 2f       	mov	r19, r23
     aec:	48 2f       	mov	r20, r24
     aee:	59 2f       	mov	r21, r25
#else
   #if (DF_NB_MEM == 2)
      #if (DF_PAGE_SIZE == 512)
   return ((log_sect_addr&0xFFFFFFFE) << 8);
      #else
   return (((log_sect_addr&0xFFFFFFFC) << 8) | ((log_sect_addr&0x00000001) << 9));
     af0:	da 01       	movw	r26, r20
     af2:	c9 01       	movw	r24, r18
     af4:	81 70       	andi	r24, 0x01	; 1
     af6:	90 70       	andi	r25, 0x00	; 0
     af8:	a0 70       	andi	r26, 0x00	; 0
     afa:	b0 70       	andi	r27, 0x00	; 0
     afc:	79 e0       	ldi	r23, 0x09	; 9
     afe:	88 0f       	add	r24, r24
     b00:	99 1f       	adc	r25, r25
     b02:	aa 1f       	adc	r26, r26
     b04:	bb 1f       	adc	r27, r27
     b06:	7a 95       	dec	r23
     b08:	d1 f7       	brne	.-12     	; 0xafe <df_read_open+0x2e>
     b0a:	2c 7f       	andi	r18, 0xFC	; 252
     b0c:	54 2f       	mov	r21, r20
     b0e:	43 2f       	mov	r20, r19
     b10:	32 2f       	mov	r19, r18
     b12:	22 27       	eor	r18, r18
     b14:	82 2b       	or	r24, r18
     b16:	93 2b       	or	r25, r19
     b18:	a4 2b       	or	r26, r20
     b1a:	b5 2b       	or	r27, r21
//!   The open succeeded      -> OK
//!
Bool df_read_open (Uint32 pos)
{
   // Set the global memory ptr at a Byte address.
   gl_ptr_mem = df_translate_addr(pos);
     b1c:	80 93 5a 01 	sts	0x015A, r24
     b20:	90 93 5b 01 	sts	0x015B, r25
     b24:	a0 93 5c 01 	sts	0x015C, r26
     b28:	b0 93 5d 01 	sts	0x015D, r27
#else
   #if (DF_NB_MEM == 2)
      #if (DF_PAGE_SIZE == 512)
   df_select = (memzone>>0)&0x01;
      #else
   df_select = (memzone>>1)&0x01;
     b2c:	e6 95       	lsr	r30
     b2e:	e1 70       	andi	r30, 0x01	; 1
     b30:	e0 93 5f 01 	sts	0x015F, r30
   
   // Select the DF that memory "pos" points to (the "df_select" variable will be updated)
   df_chipselect_memzone(LSB0(pos));
   
   // If the DF memory is busy, wait until it's not.
   if (is_df_busy(df_select))
     b34:	20 91 5e 01 	lds	r18, 0x015E
     b38:	82 2f       	mov	r24, r18
     b3a:	90 e0       	ldi	r25, 0x00	; 0
     b3c:	0e 2e       	mov	r0, r30
     b3e:	02 c0       	rjmp	.+4      	; 0xb44 <df_read_open+0x74>
     b40:	95 95       	asr	r25
     b42:	87 95       	ror	r24
     b44:	0a 94       	dec	r0
     b46:	e2 f7       	brpl	.-8      	; 0xb40 <df_read_open+0x70>
     b48:	80 ff       	sbrs	r24, 0
     b4a:	0d c0       	rjmp	.+26     	; 0xb66 <df_read_open+0x96>
   {
    df_release_busy(df_select);
     b4c:	81 e0       	ldi	r24, 0x01	; 1
     b4e:	90 e0       	ldi	r25, 0x00	; 0
     b50:	02 c0       	rjmp	.+4      	; 0xb56 <df_read_open+0x86>
     b52:	88 0f       	add	r24, r24
     b54:	99 1f       	adc	r25, r25
     b56:	ea 95       	dec	r30
     b58:	e2 f7       	brpl	.-8      	; 0xb52 <df_read_open+0x82>
     b5a:	80 95       	com	r24
     b5c:	82 23       	and	r24, r18
     b5e:	80 93 5e 01 	sts	0x015E, r24
    df_wait_busy();                              // wait end of programming
     b62:	0e 94 00 05 	call	0xa00	; 0xa00 <df_wait_busy>
   }
   
   // Physically assert the selected dataflash
   df_chipselect_current();
     b66:	0e 94 f2 04 	call	0x9e4	; 0x9e4 <df_chipselect_current>
   
   //#
   //# Initiate a page read at a given sector address.
   //#
   // Send read main command, + first step to clear the SPIF bit
   Spi_write_data(DF_RD_MAIN);
     b6a:	82 ed       	ldi	r24, 0xD2	; 210
     b6c:	8e bd       	out	0x2e, r24	; 46
     b6e:	0d b4       	in	r0, 0x2d	; 45
     b70:	07 fe       	sbrs	r0, 7
     b72:	fd cf       	rjmp	.-6      	; 0xb6e <df_read_open+0x9e>
   // - the Byte-address within the page(last ybits).
   // (x and y depending on the DF type).
   // NOTE: the bits of gl_ptr_mem above the 24bits are not useful for the local
   // DF addressing. They are used for DF discrimination when there are several
   // DFs.
   Spi_write_data((MSB1(gl_ptr_mem) << DF_SHFT_B1) | (MSB2(gl_ptr_mem) >> DF_SHFT_B2));
     b74:	80 91 5c 01 	lds	r24, 0x015C
     b78:	88 0f       	add	r24, r24
     b7a:	90 91 5b 01 	lds	r25, 0x015B
     b7e:	99 1f       	adc	r25, r25
     b80:	99 27       	eor	r25, r25
     b82:	99 1f       	adc	r25, r25
     b84:	89 2b       	or	r24, r25
     b86:	8e bd       	out	0x2e, r24	; 46
     b88:	0d b4       	in	r0, 0x2d	; 45
     b8a:	07 fe       	sbrs	r0, 7
     b8c:	fd cf       	rjmp	.-6      	; 0xb88 <df_read_open+0xb8>
   Spi_write_data(((MSB2(gl_ptr_mem) & ~DF_PAGE_MASK) << DF_SHFT_B1) | (MSB2(gl_ptr_mem) & DF_PAGE_MASK));
     b8e:	20 91 5b 01 	lds	r18, 0x015B
     b92:	82 2f       	mov	r24, r18
     b94:	90 e0       	ldi	r25, 0x00	; 0
     b96:	8c 7f       	andi	r24, 0xFC	; 252
     b98:	88 0f       	add	r24, r24
     b9a:	99 1f       	adc	r25, r25
     b9c:	23 70       	andi	r18, 0x03	; 3
     b9e:	28 2b       	or	r18, r24
     ba0:	2e bd       	out	0x2e, r18	; 46
     ba2:	0d b4       	in	r0, 0x2d	; 45
     ba4:	07 fe       	sbrs	r0, 7
     ba6:	fd cf       	rjmp	.-6      	; 0xba2 <df_read_open+0xd2>
   Spi_write_data(MSB3(gl_ptr_mem));
     ba8:	80 91 5a 01 	lds	r24, 0x015A
     bac:	8e bd       	out	0x2e, r24	; 46
     bae:	0d b4       	in	r0, 0x2d	; 45
     bb0:	07 fe       	sbrs	r0, 7
     bb2:	fd cf       	rjmp	.-6      	; 0xbae <df_read_open+0xde>
   // Final step to clear the SPIF bit will be done on the next write
   
   // 4 dummy writes for reading delay
   Spi_write_data(0xFF);
     bb4:	8f ef       	ldi	r24, 0xFF	; 255
     bb6:	8e bd       	out	0x2e, r24	; 46
     bb8:	0d b4       	in	r0, 0x2d	; 45
     bba:	07 fe       	sbrs	r0, 7
     bbc:	fd cf       	rjmp	.-6      	; 0xbb8 <df_read_open+0xe8>
   Spi_write_data(0xFF);
     bbe:	8f ef       	ldi	r24, 0xFF	; 255
     bc0:	8e bd       	out	0x2e, r24	; 46
     bc2:	0d b4       	in	r0, 0x2d	; 45
     bc4:	07 fe       	sbrs	r0, 7
     bc6:	fd cf       	rjmp	.-6      	; 0xbc2 <df_read_open+0xf2>
   Spi_write_data(0xFF);
     bc8:	8f ef       	ldi	r24, 0xFF	; 255
     bca:	8e bd       	out	0x2e, r24	; 46
     bcc:	0d b4       	in	r0, 0x2d	; 45
     bce:	07 fe       	sbrs	r0, 7
     bd0:	fd cf       	rjmp	.-6      	; 0xbcc <df_read_open+0xfc>
   Spi_write_data(0xFF); // Tx 0xFF, first step to clear the SPIF bit
     bd2:	8f ef       	ldi	r24, 0xFF	; 255
     bd4:	8e bd       	out	0x2e, r24	; 46
     bd6:	0d b4       	in	r0, 0x2d	; 45
     bd8:	07 fe       	sbrs	r0, 7
     bda:	fd cf       	rjmp	.-6      	; 0xbd6 <df_read_open+0x106>
   Spi_ack_write();      // Final step to clear the SPIF bit.
     bdc:	8e b5       	in	r24, 0x2e	; 46
   
   return OK;
}
     bde:	81 e0       	ldi	r24, 0x01	; 1
     be0:	0f 90       	pop	r0
     be2:	0f 90       	pop	r0
     be4:	0f 90       	pop	r0
     be6:	0f 90       	pop	r0
     be8:	cf 91       	pop	r28
     bea:	df 91       	pop	r29
     bec:	1f 91       	pop	r17
     bee:	08 95       	ret

00000bf0 <df_read_close>:

//! This function unselects the current DF memory.
//!
void df_read_close (void)
{
  Df_desel_all();   // Unselect memory
     bf0:	8e b1       	in	r24, 0x0e	; 14
     bf2:	83 60       	ori	r24, 0x03	; 3
     bf4:	8e b9       	out	0x0e, r24	; 14
}
     bf6:	08 95       	ret

00000bf8 <df_read_sector>:
//! @param nb_sector    number of contiguous sectors to read [IN]
//!
//! @return The read succeeded   -> OK
//!
Bool df_read_sector (Uint16 nb_sector)
{
     bf8:	28 e0       	ldi	r18, 0x08	; 8
#endif
   do
   {
      for (i = 8; i != 0; i--)
      {
         Disable_interrupt();    // Global disable.
     bfa:	f8 94       	cli
         for(j=0;j<64;j++)
         {
            Spi_write_data(0); Usb_write_byte(Spi_read_data());
         }
#else         
         Spi_write_data(0); Usb_write_byte(Spi_read_data());
     bfc:	1e bc       	out	0x2e, r1	; 46
     bfe:	0d b4       	in	r0, 0x2d	; 45
     c00:	07 fe       	sbrs	r0, 7
     c02:	fd cf       	rjmp	.-6      	; 0xbfe <df_read_sector+0x6>
     c04:	3e b5       	in	r19, 0x2e	; 46
     c06:	30 93 f1 00 	sts	0x00F1, r19
         Spi_write_data(0); Usb_write_byte(Spi_read_data());
     c0a:	1e bc       	out	0x2e, r1	; 46
     c0c:	0d b4       	in	r0, 0x2d	; 45
     c0e:	07 fe       	sbrs	r0, 7
     c10:	fd cf       	rjmp	.-6      	; 0xc0c <df_read_sector+0x14>
     c12:	3e b5       	in	r19, 0x2e	; 46
     c14:	30 93 f1 00 	sts	0x00F1, r19
         Spi_write_data(0); Usb_write_byte(Spi_read_data());
     c18:	1e bc       	out	0x2e, r1	; 46
     c1a:	0d b4       	in	r0, 0x2d	; 45
     c1c:	07 fe       	sbrs	r0, 7
     c1e:	fd cf       	rjmp	.-6      	; 0xc1a <df_read_sector+0x22>
     c20:	3e b5       	in	r19, 0x2e	; 46
     c22:	30 93 f1 00 	sts	0x00F1, r19
         Spi_write_data(0); Usb_write_byte(Spi_read_data());
     c26:	1e bc       	out	0x2e, r1	; 46
     c28:	0d b4       	in	r0, 0x2d	; 45
     c2a:	07 fe       	sbrs	r0, 7
     c2c:	fd cf       	rjmp	.-6      	; 0xc28 <df_read_sector+0x30>
     c2e:	3e b5       	in	r19, 0x2e	; 46
     c30:	30 93 f1 00 	sts	0x00F1, r19
         Spi_write_data(0); Usb_write_byte(Spi_read_data());
     c34:	1e bc       	out	0x2e, r1	; 46
     c36:	0d b4       	in	r0, 0x2d	; 45
     c38:	07 fe       	sbrs	r0, 7
     c3a:	fd cf       	rjmp	.-6      	; 0xc36 <df_read_sector+0x3e>
     c3c:	3e b5       	in	r19, 0x2e	; 46
     c3e:	30 93 f1 00 	sts	0x00F1, r19
         Spi_write_data(0); Usb_write_byte(Spi_read_data());
     c42:	1e bc       	out	0x2e, r1	; 46
     c44:	0d b4       	in	r0, 0x2d	; 45
     c46:	07 fe       	sbrs	r0, 7
     c48:	fd cf       	rjmp	.-6      	; 0xc44 <df_read_sector+0x4c>
     c4a:	3e b5       	in	r19, 0x2e	; 46
     c4c:	30 93 f1 00 	sts	0x00F1, r19
         Spi_write_data(0); Usb_write_byte(Spi_read_data());
     c50:	1e bc       	out	0x2e, r1	; 46
     c52:	0d b4       	in	r0, 0x2d	; 45
     c54:	07 fe       	sbrs	r0, 7
     c56:	fd cf       	rjmp	.-6      	; 0xc52 <df_read_sector+0x5a>
     c58:	3e b5       	in	r19, 0x2e	; 46
     c5a:	30 93 f1 00 	sts	0x00F1, r19
         Spi_write_data(0); Usb_write_byte(Spi_read_data());
     c5e:	1e bc       	out	0x2e, r1	; 46
     c60:	0d b4       	in	r0, 0x2d	; 45
     c62:	07 fe       	sbrs	r0, 7
     c64:	fd cf       	rjmp	.-6      	; 0xc60 <df_read_sector+0x68>
     c66:	3e b5       	in	r19, 0x2e	; 46
     c68:	30 93 f1 00 	sts	0x00F1, r19
         Spi_write_data(0); Usb_write_byte(Spi_read_data());
     c6c:	1e bc       	out	0x2e, r1	; 46
     c6e:	0d b4       	in	r0, 0x2d	; 45
     c70:	07 fe       	sbrs	r0, 7
     c72:	fd cf       	rjmp	.-6      	; 0xc6e <df_read_sector+0x76>
     c74:	3e b5       	in	r19, 0x2e	; 46
     c76:	30 93 f1 00 	sts	0x00F1, r19
         Spi_write_data(0); Usb_write_byte(Spi_read_data());
     c7a:	1e bc       	out	0x2e, r1	; 46
     c7c:	0d b4       	in	r0, 0x2d	; 45
     c7e:	07 fe       	sbrs	r0, 7
     c80:	fd cf       	rjmp	.-6      	; 0xc7c <df_read_sector+0x84>
     c82:	3e b5       	in	r19, 0x2e	; 46
     c84:	30 93 f1 00 	sts	0x00F1, r19
         Spi_write_data(0); Usb_write_byte(Spi_read_data());
     c88:	1e bc       	out	0x2e, r1	; 46
     c8a:	0d b4       	in	r0, 0x2d	; 45
     c8c:	07 fe       	sbrs	r0, 7
     c8e:	fd cf       	rjmp	.-6      	; 0xc8a <df_read_sector+0x92>
     c90:	3e b5       	in	r19, 0x2e	; 46
     c92:	30 93 f1 00 	sts	0x00F1, r19
         Spi_write_data(0); Usb_write_byte(Spi_read_data());
     c96:	1e bc       	out	0x2e, r1	; 46
     c98:	0d b4       	in	r0, 0x2d	; 45
     c9a:	07 fe       	sbrs	r0, 7
     c9c:	fd cf       	rjmp	.-6      	; 0xc98 <df_read_sector+0xa0>
     c9e:	3e b5       	in	r19, 0x2e	; 46
     ca0:	30 93 f1 00 	sts	0x00F1, r19
         Spi_write_data(0); Usb_write_byte(Spi_read_data());
     ca4:	1e bc       	out	0x2e, r1	; 46
     ca6:	0d b4       	in	r0, 0x2d	; 45
     ca8:	07 fe       	sbrs	r0, 7
     caa:	fd cf       	rjmp	.-6      	; 0xca6 <df_read_sector+0xae>
     cac:	3e b5       	in	r19, 0x2e	; 46
     cae:	30 93 f1 00 	sts	0x00F1, r19
         Spi_write_data(0); Usb_write_byte(Spi_read_data());
     cb2:	1e bc       	out	0x2e, r1	; 46
     cb4:	0d b4       	in	r0, 0x2d	; 45
     cb6:	07 fe       	sbrs	r0, 7
     cb8:	fd cf       	rjmp	.-6      	; 0xcb4 <df_read_sector+0xbc>
     cba:	3e b5       	in	r19, 0x2e	; 46
     cbc:	30 93 f1 00 	sts	0x00F1, r19
         Spi_write_data(0); Usb_write_byte(Spi_read_data());
     cc0:	1e bc       	out	0x2e, r1	; 46
     cc2:	0d b4       	in	r0, 0x2d	; 45
     cc4:	07 fe       	sbrs	r0, 7
     cc6:	fd cf       	rjmp	.-6      	; 0xcc2 <df_read_sector+0xca>
     cc8:	3e b5       	in	r19, 0x2e	; 46
     cca:	30 93 f1 00 	sts	0x00F1, r19
         Spi_write_data(0); Usb_write_byte(Spi_read_data());
     cce:	1e bc       	out	0x2e, r1	; 46
     cd0:	0d b4       	in	r0, 0x2d	; 45
     cd2:	07 fe       	sbrs	r0, 7
     cd4:	fd cf       	rjmp	.-6      	; 0xcd0 <df_read_sector+0xd8>
     cd6:	3e b5       	in	r19, 0x2e	; 46
     cd8:	30 93 f1 00 	sts	0x00F1, r19
         Spi_write_data(0); Usb_write_byte(Spi_read_data());
     cdc:	1e bc       	out	0x2e, r1	; 46
     cde:	0d b4       	in	r0, 0x2d	; 45
     ce0:	07 fe       	sbrs	r0, 7
     ce2:	fd cf       	rjmp	.-6      	; 0xcde <df_read_sector+0xe6>
     ce4:	3e b5       	in	r19, 0x2e	; 46
     ce6:	30 93 f1 00 	sts	0x00F1, r19
         Spi_write_data(0); Usb_write_byte(Spi_read_data());
     cea:	1e bc       	out	0x2e, r1	; 46
     cec:	0d b4       	in	r0, 0x2d	; 45
     cee:	07 fe       	sbrs	r0, 7
     cf0:	fd cf       	rjmp	.-6      	; 0xcec <df_read_sector+0xf4>
     cf2:	3e b5       	in	r19, 0x2e	; 46
     cf4:	30 93 f1 00 	sts	0x00F1, r19
         Spi_write_data(0); Usb_write_byte(Spi_read_data());
     cf8:	1e bc       	out	0x2e, r1	; 46
     cfa:	0d b4       	in	r0, 0x2d	; 45
     cfc:	07 fe       	sbrs	r0, 7
     cfe:	fd cf       	rjmp	.-6      	; 0xcfa <df_read_sector+0x102>
     d00:	3e b5       	in	r19, 0x2e	; 46
     d02:	30 93 f1 00 	sts	0x00F1, r19
         Spi_write_data(0); Usb_write_byte(Spi_read_data());
     d06:	1e bc       	out	0x2e, r1	; 46
     d08:	0d b4       	in	r0, 0x2d	; 45
     d0a:	07 fe       	sbrs	r0, 7
     d0c:	fd cf       	rjmp	.-6      	; 0xd08 <df_read_sector+0x110>
     d0e:	3e b5       	in	r19, 0x2e	; 46
     d10:	30 93 f1 00 	sts	0x00F1, r19
         Spi_write_data(0); Usb_write_byte(Spi_read_data());
     d14:	1e bc       	out	0x2e, r1	; 46
     d16:	0d b4       	in	r0, 0x2d	; 45
     d18:	07 fe       	sbrs	r0, 7
     d1a:	fd cf       	rjmp	.-6      	; 0xd16 <df_read_sector+0x11e>
     d1c:	3e b5       	in	r19, 0x2e	; 46
     d1e:	30 93 f1 00 	sts	0x00F1, r19
         Spi_write_data(0); Usb_write_byte(Spi_read_data());
     d22:	1e bc       	out	0x2e, r1	; 46
     d24:	0d b4       	in	r0, 0x2d	; 45
     d26:	07 fe       	sbrs	r0, 7
     d28:	fd cf       	rjmp	.-6      	; 0xd24 <df_read_sector+0x12c>
     d2a:	3e b5       	in	r19, 0x2e	; 46
     d2c:	30 93 f1 00 	sts	0x00F1, r19
         Spi_write_data(0); Usb_write_byte(Spi_read_data());
     d30:	1e bc       	out	0x2e, r1	; 46
     d32:	0d b4       	in	r0, 0x2d	; 45
     d34:	07 fe       	sbrs	r0, 7
     d36:	fd cf       	rjmp	.-6      	; 0xd32 <df_read_sector+0x13a>
     d38:	3e b5       	in	r19, 0x2e	; 46
     d3a:	30 93 f1 00 	sts	0x00F1, r19
         Spi_write_data(0); Usb_write_byte(Spi_read_data());
     d3e:	1e bc       	out	0x2e, r1	; 46
     d40:	0d b4       	in	r0, 0x2d	; 45
     d42:	07 fe       	sbrs	r0, 7
     d44:	fd cf       	rjmp	.-6      	; 0xd40 <df_read_sector+0x148>
     d46:	3e b5       	in	r19, 0x2e	; 46
     d48:	30 93 f1 00 	sts	0x00F1, r19
         Spi_write_data(0); Usb_write_byte(Spi_read_data());
     d4c:	1e bc       	out	0x2e, r1	; 46
     d4e:	0d b4       	in	r0, 0x2d	; 45
     d50:	07 fe       	sbrs	r0, 7
     d52:	fd cf       	rjmp	.-6      	; 0xd4e <df_read_sector+0x156>
     d54:	3e b5       	in	r19, 0x2e	; 46
     d56:	30 93 f1 00 	sts	0x00F1, r19
         Spi_write_data(0); Usb_write_byte(Spi_read_data());
     d5a:	1e bc       	out	0x2e, r1	; 46
     d5c:	0d b4       	in	r0, 0x2d	; 45
     d5e:	07 fe       	sbrs	r0, 7
     d60:	fd cf       	rjmp	.-6      	; 0xd5c <df_read_sector+0x164>
     d62:	3e b5       	in	r19, 0x2e	; 46
     d64:	30 93 f1 00 	sts	0x00F1, r19
         Spi_write_data(0); Usb_write_byte(Spi_read_data());
     d68:	1e bc       	out	0x2e, r1	; 46
     d6a:	0d b4       	in	r0, 0x2d	; 45
     d6c:	07 fe       	sbrs	r0, 7
     d6e:	fd cf       	rjmp	.-6      	; 0xd6a <df_read_sector+0x172>
     d70:	3e b5       	in	r19, 0x2e	; 46
     d72:	30 93 f1 00 	sts	0x00F1, r19
         Spi_write_data(0); Usb_write_byte(Spi_read_data());
     d76:	1e bc       	out	0x2e, r1	; 46
     d78:	0d b4       	in	r0, 0x2d	; 45
     d7a:	07 fe       	sbrs	r0, 7
     d7c:	fd cf       	rjmp	.-6      	; 0xd78 <df_read_sector+0x180>
     d7e:	3e b5       	in	r19, 0x2e	; 46
     d80:	30 93 f1 00 	sts	0x00F1, r19
         Spi_write_data(0); Usb_write_byte(Spi_read_data());
     d84:	1e bc       	out	0x2e, r1	; 46
     d86:	0d b4       	in	r0, 0x2d	; 45
     d88:	07 fe       	sbrs	r0, 7
     d8a:	fd cf       	rjmp	.-6      	; 0xd86 <df_read_sector+0x18e>
     d8c:	3e b5       	in	r19, 0x2e	; 46
     d8e:	30 93 f1 00 	sts	0x00F1, r19
         Spi_write_data(0); Usb_write_byte(Spi_read_data());
     d92:	1e bc       	out	0x2e, r1	; 46
     d94:	0d b4       	in	r0, 0x2d	; 45
     d96:	07 fe       	sbrs	r0, 7
     d98:	fd cf       	rjmp	.-6      	; 0xd94 <df_read_sector+0x19c>
     d9a:	3e b5       	in	r19, 0x2e	; 46
     d9c:	30 93 f1 00 	sts	0x00F1, r19
         Spi_write_data(0); Usb_write_byte(Spi_read_data());
     da0:	1e bc       	out	0x2e, r1	; 46
     da2:	0d b4       	in	r0, 0x2d	; 45
     da4:	07 fe       	sbrs	r0, 7
     da6:	fd cf       	rjmp	.-6      	; 0xda2 <df_read_sector+0x1aa>
     da8:	3e b5       	in	r19, 0x2e	; 46
     daa:	30 93 f1 00 	sts	0x00F1, r19
         Spi_write_data(0); Usb_write_byte(Spi_read_data());
     dae:	1e bc       	out	0x2e, r1	; 46
     db0:	0d b4       	in	r0, 0x2d	; 45
     db2:	07 fe       	sbrs	r0, 7
     db4:	fd cf       	rjmp	.-6      	; 0xdb0 <df_read_sector+0x1b8>
     db6:	3e b5       	in	r19, 0x2e	; 46
     db8:	30 93 f1 00 	sts	0x00F1, r19
         Spi_write_data(0); Usb_write_byte(Spi_read_data());
     dbc:	1e bc       	out	0x2e, r1	; 46
     dbe:	0d b4       	in	r0, 0x2d	; 45
     dc0:	07 fe       	sbrs	r0, 7
     dc2:	fd cf       	rjmp	.-6      	; 0xdbe <df_read_sector+0x1c6>
     dc4:	3e b5       	in	r19, 0x2e	; 46
     dc6:	30 93 f1 00 	sts	0x00F1, r19
         Spi_write_data(0); Usb_write_byte(Spi_read_data());
     dca:	1e bc       	out	0x2e, r1	; 46
     dcc:	0d b4       	in	r0, 0x2d	; 45
     dce:	07 fe       	sbrs	r0, 7
     dd0:	fd cf       	rjmp	.-6      	; 0xdcc <df_read_sector+0x1d4>
     dd2:	3e b5       	in	r19, 0x2e	; 46
     dd4:	30 93 f1 00 	sts	0x00F1, r19
         Spi_write_data(0); Usb_write_byte(Spi_read_data());
     dd8:	1e bc       	out	0x2e, r1	; 46
     dda:	0d b4       	in	r0, 0x2d	; 45
     ddc:	07 fe       	sbrs	r0, 7
     dde:	fd cf       	rjmp	.-6      	; 0xdda <df_read_sector+0x1e2>
     de0:	3e b5       	in	r19, 0x2e	; 46
     de2:	30 93 f1 00 	sts	0x00F1, r19
         Spi_write_data(0); Usb_write_byte(Spi_read_data());
     de6:	1e bc       	out	0x2e, r1	; 46
     de8:	0d b4       	in	r0, 0x2d	; 45
     dea:	07 fe       	sbrs	r0, 7
     dec:	fd cf       	rjmp	.-6      	; 0xde8 <df_read_sector+0x1f0>
     dee:	3e b5       	in	r19, 0x2e	; 46
     df0:	30 93 f1 00 	sts	0x00F1, r19
         Spi_write_data(0); Usb_write_byte(Spi_read_data());
     df4:	1e bc       	out	0x2e, r1	; 46
     df6:	0d b4       	in	r0, 0x2d	; 45
     df8:	07 fe       	sbrs	r0, 7
     dfa:	fd cf       	rjmp	.-6      	; 0xdf6 <df_read_sector+0x1fe>
     dfc:	3e b5       	in	r19, 0x2e	; 46
     dfe:	30 93 f1 00 	sts	0x00F1, r19
         Spi_write_data(0); Usb_write_byte(Spi_read_data());
     e02:	1e bc       	out	0x2e, r1	; 46
     e04:	0d b4       	in	r0, 0x2d	; 45
     e06:	07 fe       	sbrs	r0, 7
     e08:	fd cf       	rjmp	.-6      	; 0xe04 <df_read_sector+0x20c>
     e0a:	3e b5       	in	r19, 0x2e	; 46
     e0c:	30 93 f1 00 	sts	0x00F1, r19
         Spi_write_data(0); Usb_write_byte(Spi_read_data());
     e10:	1e bc       	out	0x2e, r1	; 46
     e12:	0d b4       	in	r0, 0x2d	; 45
     e14:	07 fe       	sbrs	r0, 7
     e16:	fd cf       	rjmp	.-6      	; 0xe12 <df_read_sector+0x21a>
     e18:	3e b5       	in	r19, 0x2e	; 46
     e1a:	30 93 f1 00 	sts	0x00F1, r19
         Spi_write_data(0); Usb_write_byte(Spi_read_data());
     e1e:	1e bc       	out	0x2e, r1	; 46
     e20:	0d b4       	in	r0, 0x2d	; 45
     e22:	07 fe       	sbrs	r0, 7
     e24:	fd cf       	rjmp	.-6      	; 0xe20 <df_read_sector+0x228>
     e26:	3e b5       	in	r19, 0x2e	; 46
     e28:	30 93 f1 00 	sts	0x00F1, r19
         Spi_write_data(0); Usb_write_byte(Spi_read_data());
     e2c:	1e bc       	out	0x2e, r1	; 46
     e2e:	0d b4       	in	r0, 0x2d	; 45
     e30:	07 fe       	sbrs	r0, 7
     e32:	fd cf       	rjmp	.-6      	; 0xe2e <df_read_sector+0x236>
     e34:	3e b5       	in	r19, 0x2e	; 46
     e36:	30 93 f1 00 	sts	0x00F1, r19
         Spi_write_data(0); Usb_write_byte(Spi_read_data());
     e3a:	1e bc       	out	0x2e, r1	; 46
     e3c:	0d b4       	in	r0, 0x2d	; 45
     e3e:	07 fe       	sbrs	r0, 7
     e40:	fd cf       	rjmp	.-6      	; 0xe3c <df_read_sector+0x244>
     e42:	3e b5       	in	r19, 0x2e	; 46
     e44:	30 93 f1 00 	sts	0x00F1, r19
         Spi_write_data(0); Usb_write_byte(Spi_read_data());
     e48:	1e bc       	out	0x2e, r1	; 46
     e4a:	0d b4       	in	r0, 0x2d	; 45
     e4c:	07 fe       	sbrs	r0, 7
     e4e:	fd cf       	rjmp	.-6      	; 0xe4a <df_read_sector+0x252>
     e50:	3e b5       	in	r19, 0x2e	; 46
     e52:	30 93 f1 00 	sts	0x00F1, r19
         Spi_write_data(0); Usb_write_byte(Spi_read_data());
     e56:	1e bc       	out	0x2e, r1	; 46
     e58:	0d b4       	in	r0, 0x2d	; 45
     e5a:	07 fe       	sbrs	r0, 7
     e5c:	fd cf       	rjmp	.-6      	; 0xe58 <df_read_sector+0x260>
     e5e:	3e b5       	in	r19, 0x2e	; 46
     e60:	30 93 f1 00 	sts	0x00F1, r19
         Spi_write_data(0); Usb_write_byte(Spi_read_data());
     e64:	1e bc       	out	0x2e, r1	; 46
     e66:	0d b4       	in	r0, 0x2d	; 45
     e68:	07 fe       	sbrs	r0, 7
     e6a:	fd cf       	rjmp	.-6      	; 0xe66 <df_read_sector+0x26e>
     e6c:	3e b5       	in	r19, 0x2e	; 46
     e6e:	30 93 f1 00 	sts	0x00F1, r19
         Spi_write_data(0); Usb_write_byte(Spi_read_data());
     e72:	1e bc       	out	0x2e, r1	; 46
     e74:	0d b4       	in	r0, 0x2d	; 45
     e76:	07 fe       	sbrs	r0, 7
     e78:	fd cf       	rjmp	.-6      	; 0xe74 <df_read_sector+0x27c>
     e7a:	3e b5       	in	r19, 0x2e	; 46
     e7c:	30 93 f1 00 	sts	0x00F1, r19
         Spi_write_data(0); Usb_write_byte(Spi_read_data());
     e80:	1e bc       	out	0x2e, r1	; 46
     e82:	0d b4       	in	r0, 0x2d	; 45
     e84:	07 fe       	sbrs	r0, 7
     e86:	fd cf       	rjmp	.-6      	; 0xe82 <df_read_sector+0x28a>
     e88:	3e b5       	in	r19, 0x2e	; 46
     e8a:	30 93 f1 00 	sts	0x00F1, r19
         Spi_write_data(0); Usb_write_byte(Spi_read_data());
     e8e:	1e bc       	out	0x2e, r1	; 46
     e90:	0d b4       	in	r0, 0x2d	; 45
     e92:	07 fe       	sbrs	r0, 7
     e94:	fd cf       	rjmp	.-6      	; 0xe90 <df_read_sector+0x298>
     e96:	3e b5       	in	r19, 0x2e	; 46
     e98:	30 93 f1 00 	sts	0x00F1, r19
         Spi_write_data(0); Usb_write_byte(Spi_read_data());
     e9c:	1e bc       	out	0x2e, r1	; 46
     e9e:	0d b4       	in	r0, 0x2d	; 45
     ea0:	07 fe       	sbrs	r0, 7
     ea2:	fd cf       	rjmp	.-6      	; 0xe9e <df_read_sector+0x2a6>
     ea4:	3e b5       	in	r19, 0x2e	; 46
     ea6:	30 93 f1 00 	sts	0x00F1, r19
         Spi_write_data(0); Usb_write_byte(Spi_read_data());
     eaa:	1e bc       	out	0x2e, r1	; 46
     eac:	0d b4       	in	r0, 0x2d	; 45
     eae:	07 fe       	sbrs	r0, 7
     eb0:	fd cf       	rjmp	.-6      	; 0xeac <df_read_sector+0x2b4>
     eb2:	3e b5       	in	r19, 0x2e	; 46
     eb4:	30 93 f1 00 	sts	0x00F1, r19
         Spi_write_data(0); Usb_write_byte(Spi_read_data());
     eb8:	1e bc       	out	0x2e, r1	; 46
     eba:	0d b4       	in	r0, 0x2d	; 45
     ebc:	07 fe       	sbrs	r0, 7
     ebe:	fd cf       	rjmp	.-6      	; 0xeba <df_read_sector+0x2c2>
     ec0:	3e b5       	in	r19, 0x2e	; 46
     ec2:	30 93 f1 00 	sts	0x00F1, r19
         Spi_write_data(0); Usb_write_byte(Spi_read_data());
     ec6:	1e bc       	out	0x2e, r1	; 46
     ec8:	0d b4       	in	r0, 0x2d	; 45
     eca:	07 fe       	sbrs	r0, 7
     ecc:	fd cf       	rjmp	.-6      	; 0xec8 <df_read_sector+0x2d0>
     ece:	3e b5       	in	r19, 0x2e	; 46
     ed0:	30 93 f1 00 	sts	0x00F1, r19
         Spi_write_data(0); Usb_write_byte(Spi_read_data());
     ed4:	1e bc       	out	0x2e, r1	; 46
     ed6:	0d b4       	in	r0, 0x2d	; 45
     ed8:	07 fe       	sbrs	r0, 7
     eda:	fd cf       	rjmp	.-6      	; 0xed6 <df_read_sector+0x2de>
     edc:	3e b5       	in	r19, 0x2e	; 46
     ede:	30 93 f1 00 	sts	0x00F1, r19
         Spi_write_data(0); Usb_write_byte(Spi_read_data());
     ee2:	1e bc       	out	0x2e, r1	; 46
     ee4:	0d b4       	in	r0, 0x2d	; 45
     ee6:	07 fe       	sbrs	r0, 7
     ee8:	fd cf       	rjmp	.-6      	; 0xee4 <df_read_sector+0x2ec>
     eea:	3e b5       	in	r19, 0x2e	; 46
     eec:	30 93 f1 00 	sts	0x00F1, r19
         Spi_write_data(0); Usb_write_byte(Spi_read_data());
     ef0:	1e bc       	out	0x2e, r1	; 46
     ef2:	0d b4       	in	r0, 0x2d	; 45
     ef4:	07 fe       	sbrs	r0, 7
     ef6:	fd cf       	rjmp	.-6      	; 0xef2 <df_read_sector+0x2fa>
     ef8:	3e b5       	in	r19, 0x2e	; 46
     efa:	30 93 f1 00 	sts	0x00F1, r19
         Spi_write_data(0); Usb_write_byte(Spi_read_data());
     efe:	1e bc       	out	0x2e, r1	; 46
     f00:	0d b4       	in	r0, 0x2d	; 45
     f02:	07 fe       	sbrs	r0, 7
     f04:	fd cf       	rjmp	.-6      	; 0xf00 <df_read_sector+0x308>
     f06:	3e b5       	in	r19, 0x2e	; 46
     f08:	30 93 f1 00 	sts	0x00F1, r19
         Spi_write_data(0); Usb_write_byte(Spi_read_data());
     f0c:	1e bc       	out	0x2e, r1	; 46
     f0e:	0d b4       	in	r0, 0x2d	; 45
     f10:	07 fe       	sbrs	r0, 7
     f12:	fd cf       	rjmp	.-6      	; 0xf0e <df_read_sector+0x316>
     f14:	3e b5       	in	r19, 0x2e	; 46
     f16:	30 93 f1 00 	sts	0x00F1, r19
         Spi_write_data(0); Usb_write_byte(Spi_read_data());
     f1a:	1e bc       	out	0x2e, r1	; 46
     f1c:	0d b4       	in	r0, 0x2d	; 45
     f1e:	07 fe       	sbrs	r0, 7
     f20:	fd cf       	rjmp	.-6      	; 0xf1c <df_read_sector+0x324>
     f22:	3e b5       	in	r19, 0x2e	; 46
     f24:	30 93 f1 00 	sts	0x00F1, r19
         Spi_write_data(0); Usb_write_byte(Spi_read_data());
     f28:	1e bc       	out	0x2e, r1	; 46
     f2a:	0d b4       	in	r0, 0x2d	; 45
     f2c:	07 fe       	sbrs	r0, 7
     f2e:	fd cf       	rjmp	.-6      	; 0xf2a <df_read_sector+0x332>
     f30:	3e b5       	in	r19, 0x2e	; 46
     f32:	30 93 f1 00 	sts	0x00F1, r19
         Spi_write_data(0); Usb_write_byte(Spi_read_data());
     f36:	1e bc       	out	0x2e, r1	; 46
     f38:	0d b4       	in	r0, 0x2d	; 45
     f3a:	07 fe       	sbrs	r0, 7
     f3c:	fd cf       	rjmp	.-6      	; 0xf38 <df_read_sector+0x340>
     f3e:	3e b5       	in	r19, 0x2e	; 46
     f40:	30 93 f1 00 	sts	0x00F1, r19
         Spi_write_data(0); Usb_write_byte(Spi_read_data());
     f44:	1e bc       	out	0x2e, r1	; 46
     f46:	0d b4       	in	r0, 0x2d	; 45
     f48:	07 fe       	sbrs	r0, 7
     f4a:	fd cf       	rjmp	.-6      	; 0xf46 <df_read_sector+0x34e>
     f4c:	3e b5       	in	r19, 0x2e	; 46
     f4e:	30 93 f1 00 	sts	0x00F1, r19
         Spi_write_data(0); Usb_write_byte(Spi_read_data());
     f52:	1e bc       	out	0x2e, r1	; 46
     f54:	0d b4       	in	r0, 0x2d	; 45
     f56:	07 fe       	sbrs	r0, 7
     f58:	fd cf       	rjmp	.-6      	; 0xf54 <df_read_sector+0x35c>
     f5a:	3e b5       	in	r19, 0x2e	; 46
     f5c:	30 93 f1 00 	sts	0x00F1, r19
         Spi_write_data(0); Usb_write_byte(Spi_read_data());
     f60:	1e bc       	out	0x2e, r1	; 46
     f62:	0d b4       	in	r0, 0x2d	; 45
     f64:	07 fe       	sbrs	r0, 7
     f66:	fd cf       	rjmp	.-6      	; 0xf62 <df_read_sector+0x36a>
     f68:	3e b5       	in	r19, 0x2e	; 46
     f6a:	30 93 f1 00 	sts	0x00F1, r19
         Spi_write_data(0); Usb_write_byte(Spi_read_data());
     f6e:	1e bc       	out	0x2e, r1	; 46
     f70:	0d b4       	in	r0, 0x2d	; 45
     f72:	07 fe       	sbrs	r0, 7
     f74:	fd cf       	rjmp	.-6      	; 0xf70 <df_read_sector+0x378>
     f76:	3e b5       	in	r19, 0x2e	; 46
     f78:	30 93 f1 00 	sts	0x00F1, r19
#endif
#ifndef DF_SEND_ACK
         Usb_send_in();          // Send the FIFO IN content to the USB Host.
     f7c:	30 91 e8 00 	lds	r19, 0x00E8
     f80:	3f 77       	andi	r19, 0x7F	; 127
     f82:	30 93 e8 00 	sts	0x00E8, r19
#else
         Usb_ack_in_ready();     //VYM send data over the USB
#endif

         Enable_interrupt();     // Global interrupt re-enable.
     f86:	78 94       	sei

         // Wait until the tx is done so that we may write to the FIFO IN again.
         while(Is_usb_write_enabled()==FALSE)
     f88:	04 c0       	rjmp	.+8      	; 0xf92 <df_read_sector+0x39a>
         {
            if(!Is_usb_endpoint_enabled())
     f8a:	30 91 eb 00 	lds	r19, 0x00EB
     f8e:	30 ff       	sbrs	r19, 0
     f90:	20 c0       	rjmp	.+64     	; 0xfd2 <df_read_sector+0x3da>
#endif

         Enable_interrupt();     // Global interrupt re-enable.

         // Wait until the tx is done so that we may write to the FIFO IN again.
         while(Is_usb_write_enabled()==FALSE)
     f92:	30 91 e8 00 	lds	r19, 0x00E8
     f96:	35 ff       	sbrs	r19, 5
     f98:	f8 cf       	rjmp	.-16     	; 0xf8a <df_read_sector+0x392>
     f9a:	21 50       	subi	r18, 0x01	; 1
#ifdef DF_CODE_SIZE_OPTIMIZATION   
   U8 j;
#endif
   do
   {
      for (i = 8; i != 0; i--)
     f9c:	09 f0       	breq	.+2      	; 0xfa0 <df_read_sector+0x3a8>
     f9e:	2d ce       	rjmp	.-934    	; 0xbfa <df_read_sector+0x2>
         {
            if(!Is_usb_endpoint_enabled())
               return KO; // USB Reset
         }         
      }
      gl_ptr_mem += 512;         // increment global address pointer
     fa0:	20 91 5a 01 	lds	r18, 0x015A
     fa4:	30 91 5b 01 	lds	r19, 0x015B
     fa8:	40 91 5c 01 	lds	r20, 0x015C
     fac:	50 91 5d 01 	lds	r21, 0x015D
     fb0:	20 50       	subi	r18, 0x00	; 0
     fb2:	3e 4f       	sbci	r19, 0xFE	; 254
     fb4:	4f 4f       	sbci	r20, 0xFF	; 255
     fb6:	5f 4f       	sbci	r21, 0xFF	; 255
     fb8:	20 93 5a 01 	sts	0x015A, r18
     fbc:	30 93 5b 01 	sts	0x015B, r19
     fc0:	40 93 5c 01 	sts	0x015C, r20
     fc4:	50 93 5d 01 	sts	0x015D, r21
      nb_sector--;               // 1 more sector read
     fc8:	01 97       	sbiw	r24, 0x01	; 1
                 df_read_open(gl_ptr_mem>>9);
            }
         #endif
      #endif
   }
   while (nb_sector != 0);
     fca:	09 f0       	breq	.+2      	; 0xfce <df_read_sector+0x3d6>
     fcc:	15 ce       	rjmp	.-982    	; 0xbf8 <df_read_sector>

   return OK;
     fce:	81 e0       	ldi	r24, 0x01	; 1
     fd0:	08 95       	ret

         // Wait until the tx is done so that we may write to the FIFO IN again.
         while(Is_usb_write_enabled()==FALSE)
         {
            if(!Is_usb_endpoint_enabled())
               return KO; // USB Reset
     fd2:	80 e0       	ldi	r24, 0x00	; 0
      #endif
   }
   while (nb_sector != 0);

   return OK;
}
     fd4:	08 95       	ret

00000fd6 <df_write_open>:
//! @param  pos   Sector address
//!
//! @return The open succeeded      -> OK
//!
Bool df_write_open (Uint32 pos)
{
     fd6:	1f 93       	push	r17
     fd8:	df 93       	push	r29
     fda:	cf 93       	push	r28
     fdc:	00 d0       	rcall	.+0      	; 0xfde <df_write_open+0x8>
     fde:	00 d0       	rcall	.+0      	; 0xfe0 <df_write_open+0xa>
     fe0:	cd b7       	in	r28, 0x3d	; 61
     fe2:	de b7       	in	r29, 0x3e	; 62
     fe4:	e6 2f       	mov	r30, r22
     fe6:	69 83       	std	Y+1, r22	; 0x01
     fe8:	7a 83       	std	Y+2, r23	; 0x02
     fea:	8b 83       	std	Y+3, r24	; 0x03
     fec:	9c 83       	std	Y+4, r25	; 0x04
   // Set the global memory ptr at a Byte address.
   gl_ptr_mem = df_translate_addr(pos);
     fee:	26 2f       	mov	r18, r22
     ff0:	37 2f       	mov	r19, r23
     ff2:	48 2f       	mov	r20, r24
     ff4:	59 2f       	mov	r21, r25
#else
   #if (DF_NB_MEM == 2)
      #if (DF_PAGE_SIZE == 512)
   return ((log_sect_addr&0xFFFFFFFE) << 8);
      #else
   return (((log_sect_addr&0xFFFFFFFC) << 8) | ((log_sect_addr&0x00000001) << 9));
     ff6:	da 01       	movw	r26, r20
     ff8:	c9 01       	movw	r24, r18
     ffa:	81 70       	andi	r24, 0x01	; 1
     ffc:	90 70       	andi	r25, 0x00	; 0
     ffe:	a0 70       	andi	r26, 0x00	; 0
    1000:	b0 70       	andi	r27, 0x00	; 0
    1002:	19 e0       	ldi	r17, 0x09	; 9
    1004:	88 0f       	add	r24, r24
    1006:	99 1f       	adc	r25, r25
    1008:	aa 1f       	adc	r26, r26
    100a:	bb 1f       	adc	r27, r27
    100c:	1a 95       	dec	r17
    100e:	d1 f7       	brne	.-12     	; 0x1004 <df_write_open+0x2e>
    1010:	2c 7f       	andi	r18, 0xFC	; 252
    1012:	54 2f       	mov	r21, r20
    1014:	43 2f       	mov	r20, r19
    1016:	32 2f       	mov	r19, r18
    1018:	22 27       	eor	r18, r18
    101a:	82 2b       	or	r24, r18
    101c:	93 2b       	or	r25, r19
    101e:	a4 2b       	or	r26, r20
    1020:	b5 2b       	or	r27, r21
//! @return The open succeeded      -> OK
//!
Bool df_write_open (Uint32 pos)
{
   // Set the global memory ptr at a Byte address.
   gl_ptr_mem = df_translate_addr(pos);
    1022:	80 93 5a 01 	sts	0x015A, r24
    1026:	90 93 5b 01 	sts	0x015B, r25
    102a:	a0 93 5c 01 	sts	0x015C, r26
    102e:	b0 93 5d 01 	sts	0x015D, r27
#else
   #if (DF_NB_MEM == 2)
      #if (DF_PAGE_SIZE == 512)
   df_select = (memzone>>0)&0x01;
      #else
   df_select = (memzone>>1)&0x01;
    1032:	e6 95       	lsr	r30
    1034:	e1 70       	andi	r30, 0x01	; 1
    1036:	e0 93 5f 01 	sts	0x015F, r30
   
   // Select the DF that memory "pos" points to
   df_chipselect_memzone(LSB0(pos));
   
   // If the DF memory is busy, wait until it's not.
   if (is_df_busy(df_select))
    103a:	20 91 5e 01 	lds	r18, 0x015E
    103e:	82 2f       	mov	r24, r18
    1040:	90 e0       	ldi	r25, 0x00	; 0
    1042:	0e 2e       	mov	r0, r30
    1044:	02 c0       	rjmp	.+4      	; 0x104a <df_write_open+0x74>
    1046:	95 95       	asr	r25
    1048:	87 95       	ror	r24
    104a:	0a 94       	dec	r0
    104c:	e2 f7       	brpl	.-8      	; 0x1046 <df_write_open+0x70>
    104e:	80 ff       	sbrs	r24, 0
    1050:	0d c0       	rjmp	.+26     	; 0x106c <df_write_open+0x96>
   {
    df_release_busy(df_select);
    1052:	81 e0       	ldi	r24, 0x01	; 1
    1054:	90 e0       	ldi	r25, 0x00	; 0
    1056:	02 c0       	rjmp	.+4      	; 0x105c <df_write_open+0x86>
    1058:	88 0f       	add	r24, r24
    105a:	99 1f       	adc	r25, r25
    105c:	ea 95       	dec	r30
    105e:	e2 f7       	brpl	.-8      	; 0x1058 <df_write_open+0x82>
    1060:	80 95       	com	r24
    1062:	82 23       	and	r24, r18
    1064:	80 93 5e 01 	sts	0x015E, r24
    df_wait_busy();                              // wait end of programming
    1068:	0e 94 00 05 	call	0xa00	; 0xa00 <df_wait_busy>
   }
   
#if DF_PAGE_SIZE > 512
   // Physically assert the selected dataflash
   df_chipselect_current();
    106c:	0e 94 f2 04 	call	0x9e4	; 0x9e4 <df_chipselect_current>
   
   //#
   //# Transfer the current page content in buffer1.
   //#
   // Send Main Mem page to Buffer1 command, + first step to clear the SPIF bit
   Spi_write_data(DF_TF_BUF_1);
    1070:	83 e5       	ldi	r24, 0x53	; 83
    1072:	8e bd       	out	0x2e, r24	; 46
    1074:	0d b4       	in	r0, 0x2d	; 45
    1076:	07 fe       	sbrs	r0, 7
    1078:	fd cf       	rjmp	.-6      	; 0x1074 <df_write_open+0x9e>
   // - remaining don't care bits(last ybits).
   // (x and y depending on the DF type).
   // NOTE: the bits of gl_ptr_mem above the 24bits are not useful for the local
   // DF addressing. They are used for DF discrimination when there are several
   // DFs.
   Spi_write_data((MSB1(gl_ptr_mem) << DF_SHFT_B1) | (MSB2(gl_ptr_mem) >> DF_SHFT_B2));
    107a:	80 91 5c 01 	lds	r24, 0x015C
    107e:	88 0f       	add	r24, r24
    1080:	90 91 5b 01 	lds	r25, 0x015B
    1084:	99 1f       	adc	r25, r25
    1086:	99 27       	eor	r25, r25
    1088:	99 1f       	adc	r25, r25
    108a:	89 2b       	or	r24, r25
    108c:	8e bd       	out	0x2e, r24	; 46
    108e:	0d b4       	in	r0, 0x2d	; 45
    1090:	07 fe       	sbrs	r0, 7
    1092:	fd cf       	rjmp	.-6      	; 0x108e <df_write_open+0xb8>
   Spi_write_data(MSB2(gl_ptr_mem) << DF_SHFT_B1);
    1094:	80 91 5b 01 	lds	r24, 0x015B
    1098:	88 0f       	add	r24, r24
    109a:	8e bd       	out	0x2e, r24	; 46
    109c:	0d b4       	in	r0, 0x2d	; 45
    109e:	07 fe       	sbrs	r0, 7
    10a0:	fd cf       	rjmp	.-6      	; 0x109c <df_write_open+0xc6>
   Spi_write_data(0);       // Remaining don't care bits.
    10a2:	1e bc       	out	0x2e, r1	; 46
    10a4:	0d b4       	in	r0, 0x2d	; 45
    10a6:	07 fe       	sbrs	r0, 7
    10a8:	fd cf       	rjmp	.-6      	; 0x10a4 <df_write_open+0xce>
   Spi_ack_write();         // Final step to clear the SPIF bit.
    10aa:	8e b5       	in	r24, 0x2e	; 46
   
   Df_desel_all();          // Unselect memory to validate the command
    10ac:	8e b1       	in	r24, 0x0e	; 14
    10ae:	83 60       	ori	r24, 0x03	; 3
    10b0:	8e b9       	out	0x0e, r24	; 14
   
   df_wait_busy();               // Wait end of page transfer
    10b2:	0e 94 00 05 	call	0xa00	; 0xa00 <df_wait_busy>
#endif
   
   // Physically assert the selected dataflash
   df_chipselect_current();
    10b6:	0e 94 f2 04 	call	0x9e4	; 0x9e4 <df_chipselect_current>
   //#
   //# Initiate a page write at a given sector address.
   //#
   // Send Main Memory Page Program Through Buffer1 command,
   // + first step to clear the SPIF bit
   Spi_write_data(DF_PG_BUF_1);
    10ba:	82 e8       	ldi	r24, 0x82	; 130
    10bc:	8e bd       	out	0x2e, r24	; 46
    10be:	0d b4       	in	r0, 0x2d	; 45
    10c0:	07 fe       	sbrs	r0, 7
    10c2:	fd cf       	rjmp	.-6      	; 0x10be <df_write_open+0xe8>
   //  (.) the Byte-address within the page(last ybits).
   // (x and y depending on the DF type).
   // NOTE: the bits of gl_ptr_mem above the 24bits are not useful for the local
   // DF addressing. They are used for DF discrimination when there are several
   // DFs.
   Spi_write_data((MSB1(gl_ptr_mem) << DF_SHFT_B1) | (MSB2(gl_ptr_mem) >> DF_SHFT_B2));
    10c4:	80 91 5c 01 	lds	r24, 0x015C
    10c8:	88 0f       	add	r24, r24
    10ca:	90 91 5b 01 	lds	r25, 0x015B
    10ce:	99 1f       	adc	r25, r25
    10d0:	99 27       	eor	r25, r25
    10d2:	99 1f       	adc	r25, r25
    10d4:	89 2b       	or	r24, r25
    10d6:	8e bd       	out	0x2e, r24	; 46
    10d8:	0d b4       	in	r0, 0x2d	; 45
    10da:	07 fe       	sbrs	r0, 7
    10dc:	fd cf       	rjmp	.-6      	; 0x10d8 <df_write_open+0x102>
   Spi_write_data(((MSB2(gl_ptr_mem) & ~DF_PAGE_MASK) << DF_SHFT_B1) | (MSB2(gl_ptr_mem) & DF_PAGE_MASK));
    10de:	20 91 5b 01 	lds	r18, 0x015B
    10e2:	82 2f       	mov	r24, r18
    10e4:	90 e0       	ldi	r25, 0x00	; 0
    10e6:	8c 7f       	andi	r24, 0xFC	; 252
    10e8:	88 0f       	add	r24, r24
    10ea:	99 1f       	adc	r25, r25
    10ec:	23 70       	andi	r18, 0x03	; 3
    10ee:	28 2b       	or	r18, r24
    10f0:	2e bd       	out	0x2e, r18	; 46
    10f2:	0d b4       	in	r0, 0x2d	; 45
    10f4:	07 fe       	sbrs	r0, 7
    10f6:	fd cf       	rjmp	.-6      	; 0x10f2 <df_write_open+0x11c>
   Spi_write_data(MSB3(gl_ptr_mem));
    10f8:	80 91 5a 01 	lds	r24, 0x015A
    10fc:	8e bd       	out	0x2e, r24	; 46
    10fe:	0d b4       	in	r0, 0x2d	; 45
    1100:	07 fe       	sbrs	r0, 7
    1102:	fd cf       	rjmp	.-6      	; 0x10fe <df_write_open+0x128>
   Spi_ack_write();         // Final step to clear the SPIF bit.
    1104:	8e b5       	in	r24, 0x2e	; 46
   
   return OK;
}
    1106:	81 e0       	ldi	r24, 0x01	; 1
    1108:	0f 90       	pop	r0
    110a:	0f 90       	pop	r0
    110c:	0f 90       	pop	r0
    110e:	0f 90       	pop	r0
    1110:	cf 91       	pop	r28
    1112:	df 91       	pop	r29
    1114:	1f 91       	pop	r17
    1116:	08 95       	ret

00001118 <df_write_close>:
{
   //#
   //# While end of logical sector (512B) not reached, zero-fill the remaining
   //# memory Bytes.
   //#
   while ((MSB3(gl_ptr_mem) != 0x00) || ((MSB2(gl_ptr_mem) & 0x01) != 0x00))
    1118:	17 c0       	rjmp	.+46     	; 0x1148 <df_write_close+0x30>
   {
      Spi_write_data(0x00);   // - Final step to clear the SPIF bit,
    111a:	1e bc       	out	0x2e, r1	; 46
    111c:	0d b4       	in	r0, 0x2d	; 45
    111e:	07 fe       	sbrs	r0, 7
    1120:	fd cf       	rjmp	.-6      	; 0x111c <df_write_close+0x4>
                              // - Write 0x00
                              // - first step to clear the SPIF bit.
      gl_ptr_mem++;
    1122:	80 91 5a 01 	lds	r24, 0x015A
    1126:	90 91 5b 01 	lds	r25, 0x015B
    112a:	a0 91 5c 01 	lds	r26, 0x015C
    112e:	b0 91 5d 01 	lds	r27, 0x015D
    1132:	01 96       	adiw	r24, 0x01	; 1
    1134:	a1 1d       	adc	r26, r1
    1136:	b1 1d       	adc	r27, r1
    1138:	80 93 5a 01 	sts	0x015A, r24
    113c:	90 93 5b 01 	sts	0x015B, r25
    1140:	a0 93 5c 01 	sts	0x015C, r26
    1144:	b0 93 5d 01 	sts	0x015D, r27
{
   //#
   //# While end of logical sector (512B) not reached, zero-fill the remaining
   //# memory Bytes.
   //#
   while ((MSB3(gl_ptr_mem) != 0x00) || ((MSB2(gl_ptr_mem) & 0x01) != 0x00))
    1148:	80 91 5a 01 	lds	r24, 0x015A
    114c:	88 23       	and	r24, r24
    114e:	29 f7       	brne	.-54     	; 0x111a <df_write_close+0x2>
    1150:	80 91 5b 01 	lds	r24, 0x015B
    1154:	80 fd       	sbrc	r24, 0
    1156:	e1 cf       	rjmp	.-62     	; 0x111a <df_write_close+0x2>
      Spi_write_data(0x00);   // - Final step to clear the SPIF bit,
                              // - Write 0x00
                              // - first step to clear the SPIF bit.
      gl_ptr_mem++;
   }
   Spi_ack_write();           // Final step to clear the SPIF bit.
    1158:	8e b5       	in	r24, 0x2e	; 46
   
   Df_desel_all();            // Launch page programming (or simply unselect memory
    115a:	8e b1       	in	r24, 0x0e	; 14
    115c:	83 60       	ori	r24, 0x03	; 3
    115e:	8e b9       	out	0x0e, r24	; 14
                              // if the while loop was not performed).
   df_set_busy(df_select);    // Current memory is busy
    1160:	81 e0       	ldi	r24, 0x01	; 1
    1162:	90 e0       	ldi	r25, 0x00	; 0
    1164:	00 90 5f 01 	lds	r0, 0x015F
    1168:	02 c0       	rjmp	.+4      	; 0x116e <df_write_close+0x56>
    116a:	88 0f       	add	r24, r24
    116c:	99 1f       	adc	r25, r25
    116e:	0a 94       	dec	r0
    1170:	e2 f7       	brpl	.-8      	; 0x116a <df_write_close+0x52>
    1172:	20 91 5e 01 	lds	r18, 0x015E
    1176:	28 2b       	or	r18, r24
    1178:	20 93 5e 01 	sts	0x015E, r18
}
    117c:	08 95       	ret

0000117e <df_write_sector>:
      #if DF_PAGE_SIZE > 512
         // Check if end of 1024b page.
         if ((MSB2(gl_ptr_mem) & DF_PAGE_MASK) == 0x00)
         {
            Df_desel_all();               // Launch page programming
            df_set_busy(df_select);       // memory is busy
    117e:	61 e0       	ldi	r22, 0x01	; 1
    1180:	70 e0       	ldi	r23, 0x00	; 0
   U8 j;
#endif
   do
   {
      //# Write 8x64b = 512b from the USB FIFO OUT.
      for (i = 8; i != 0; i--)
    1182:	28 e0       	ldi	r18, 0x08	; 8
    1184:	04 c0       	rjmp	.+8      	; 0x118e <df_write_sector+0x10>
      {
         // Wait end of rx in USB EPOUT.
         while(!Is_usb_read_enabled())
         {
            if(!Is_usb_endpoint_enabled())
    1186:	30 91 eb 00 	lds	r19, 0x00EB
    118a:	30 ff       	sbrs	r19, 0
    118c:	c6 c1       	rjmp	.+908    	; 0x151a <df_write_sector+0x39c>
   {
      //# Write 8x64b = 512b from the USB FIFO OUT.
      for (i = 8; i != 0; i--)
      {
         // Wait end of rx in USB EPOUT.
         while(!Is_usb_read_enabled())
    118e:	30 91 e8 00 	lds	r19, 0x00E8
    1192:	35 ff       	sbrs	r19, 5
    1194:	f8 cf       	rjmp	.-16     	; 0x1186 <df_write_sector+0x8>
         {
            if(!Is_usb_endpoint_enabled())
              return KO; // USB Reset
         }
   
         Disable_interrupt();    // Global disable.
    1196:	f8 94       	cli
         for(j=0;j<64;j++)
         {
            Spi_write_data(Usb_read_byte());
         }
#else
         Spi_write_data(Usb_read_byte());
    1198:	30 91 f1 00 	lds	r19, 0x00F1
    119c:	3e bd       	out	0x2e, r19	; 46
    119e:	0d b4       	in	r0, 0x2d	; 45
    11a0:	07 fe       	sbrs	r0, 7
    11a2:	fd cf       	rjmp	.-6      	; 0x119e <df_write_sector+0x20>
         Spi_write_data(Usb_read_byte());
    11a4:	30 91 f1 00 	lds	r19, 0x00F1
    11a8:	3e bd       	out	0x2e, r19	; 46
    11aa:	0d b4       	in	r0, 0x2d	; 45
    11ac:	07 fe       	sbrs	r0, 7
    11ae:	fd cf       	rjmp	.-6      	; 0x11aa <df_write_sector+0x2c>
         Spi_write_data(Usb_read_byte());
    11b0:	30 91 f1 00 	lds	r19, 0x00F1
    11b4:	3e bd       	out	0x2e, r19	; 46
    11b6:	0d b4       	in	r0, 0x2d	; 45
    11b8:	07 fe       	sbrs	r0, 7
    11ba:	fd cf       	rjmp	.-6      	; 0x11b6 <df_write_sector+0x38>
         Spi_write_data(Usb_read_byte());
    11bc:	30 91 f1 00 	lds	r19, 0x00F1
    11c0:	3e bd       	out	0x2e, r19	; 46
    11c2:	0d b4       	in	r0, 0x2d	; 45
    11c4:	07 fe       	sbrs	r0, 7
    11c6:	fd cf       	rjmp	.-6      	; 0x11c2 <df_write_sector+0x44>
         Spi_write_data(Usb_read_byte());
    11c8:	30 91 f1 00 	lds	r19, 0x00F1
    11cc:	3e bd       	out	0x2e, r19	; 46
    11ce:	0d b4       	in	r0, 0x2d	; 45
    11d0:	07 fe       	sbrs	r0, 7
    11d2:	fd cf       	rjmp	.-6      	; 0x11ce <df_write_sector+0x50>
         Spi_write_data(Usb_read_byte());
    11d4:	30 91 f1 00 	lds	r19, 0x00F1
    11d8:	3e bd       	out	0x2e, r19	; 46
    11da:	0d b4       	in	r0, 0x2d	; 45
    11dc:	07 fe       	sbrs	r0, 7
    11de:	fd cf       	rjmp	.-6      	; 0x11da <df_write_sector+0x5c>
         Spi_write_data(Usb_read_byte());
    11e0:	30 91 f1 00 	lds	r19, 0x00F1
    11e4:	3e bd       	out	0x2e, r19	; 46
    11e6:	0d b4       	in	r0, 0x2d	; 45
    11e8:	07 fe       	sbrs	r0, 7
    11ea:	fd cf       	rjmp	.-6      	; 0x11e6 <df_write_sector+0x68>
         Spi_write_data(Usb_read_byte());
    11ec:	30 91 f1 00 	lds	r19, 0x00F1
    11f0:	3e bd       	out	0x2e, r19	; 46
    11f2:	0d b4       	in	r0, 0x2d	; 45
    11f4:	07 fe       	sbrs	r0, 7
    11f6:	fd cf       	rjmp	.-6      	; 0x11f2 <df_write_sector+0x74>
         Spi_write_data(Usb_read_byte());
    11f8:	30 91 f1 00 	lds	r19, 0x00F1
    11fc:	3e bd       	out	0x2e, r19	; 46
    11fe:	0d b4       	in	r0, 0x2d	; 45
    1200:	07 fe       	sbrs	r0, 7
    1202:	fd cf       	rjmp	.-6      	; 0x11fe <df_write_sector+0x80>
         Spi_write_data(Usb_read_byte());
    1204:	30 91 f1 00 	lds	r19, 0x00F1
    1208:	3e bd       	out	0x2e, r19	; 46
    120a:	0d b4       	in	r0, 0x2d	; 45
    120c:	07 fe       	sbrs	r0, 7
    120e:	fd cf       	rjmp	.-6      	; 0x120a <df_write_sector+0x8c>
         Spi_write_data(Usb_read_byte());
    1210:	30 91 f1 00 	lds	r19, 0x00F1
    1214:	3e bd       	out	0x2e, r19	; 46
    1216:	0d b4       	in	r0, 0x2d	; 45
    1218:	07 fe       	sbrs	r0, 7
    121a:	fd cf       	rjmp	.-6      	; 0x1216 <df_write_sector+0x98>
         Spi_write_data(Usb_read_byte());
    121c:	30 91 f1 00 	lds	r19, 0x00F1
    1220:	3e bd       	out	0x2e, r19	; 46
    1222:	0d b4       	in	r0, 0x2d	; 45
    1224:	07 fe       	sbrs	r0, 7
    1226:	fd cf       	rjmp	.-6      	; 0x1222 <df_write_sector+0xa4>
         Spi_write_data(Usb_read_byte());
    1228:	30 91 f1 00 	lds	r19, 0x00F1
    122c:	3e bd       	out	0x2e, r19	; 46
    122e:	0d b4       	in	r0, 0x2d	; 45
    1230:	07 fe       	sbrs	r0, 7
    1232:	fd cf       	rjmp	.-6      	; 0x122e <df_write_sector+0xb0>
         Spi_write_data(Usb_read_byte());
    1234:	30 91 f1 00 	lds	r19, 0x00F1
    1238:	3e bd       	out	0x2e, r19	; 46
    123a:	0d b4       	in	r0, 0x2d	; 45
    123c:	07 fe       	sbrs	r0, 7
    123e:	fd cf       	rjmp	.-6      	; 0x123a <df_write_sector+0xbc>
         Spi_write_data(Usb_read_byte());
    1240:	30 91 f1 00 	lds	r19, 0x00F1
    1244:	3e bd       	out	0x2e, r19	; 46
    1246:	0d b4       	in	r0, 0x2d	; 45
    1248:	07 fe       	sbrs	r0, 7
    124a:	fd cf       	rjmp	.-6      	; 0x1246 <df_write_sector+0xc8>
         Spi_write_data(Usb_read_byte());
    124c:	30 91 f1 00 	lds	r19, 0x00F1
    1250:	3e bd       	out	0x2e, r19	; 46
    1252:	0d b4       	in	r0, 0x2d	; 45
    1254:	07 fe       	sbrs	r0, 7
    1256:	fd cf       	rjmp	.-6      	; 0x1252 <df_write_sector+0xd4>
         Spi_write_data(Usb_read_byte());
    1258:	30 91 f1 00 	lds	r19, 0x00F1
    125c:	3e bd       	out	0x2e, r19	; 46
    125e:	0d b4       	in	r0, 0x2d	; 45
    1260:	07 fe       	sbrs	r0, 7
    1262:	fd cf       	rjmp	.-6      	; 0x125e <df_write_sector+0xe0>
         Spi_write_data(Usb_read_byte());
    1264:	30 91 f1 00 	lds	r19, 0x00F1
    1268:	3e bd       	out	0x2e, r19	; 46
    126a:	0d b4       	in	r0, 0x2d	; 45
    126c:	07 fe       	sbrs	r0, 7
    126e:	fd cf       	rjmp	.-6      	; 0x126a <df_write_sector+0xec>
         Spi_write_data(Usb_read_byte());
    1270:	30 91 f1 00 	lds	r19, 0x00F1
    1274:	3e bd       	out	0x2e, r19	; 46
    1276:	0d b4       	in	r0, 0x2d	; 45
    1278:	07 fe       	sbrs	r0, 7
    127a:	fd cf       	rjmp	.-6      	; 0x1276 <df_write_sector+0xf8>
         Spi_write_data(Usb_read_byte());
    127c:	30 91 f1 00 	lds	r19, 0x00F1
    1280:	3e bd       	out	0x2e, r19	; 46
    1282:	0d b4       	in	r0, 0x2d	; 45
    1284:	07 fe       	sbrs	r0, 7
    1286:	fd cf       	rjmp	.-6      	; 0x1282 <df_write_sector+0x104>
         Spi_write_data(Usb_read_byte());
    1288:	30 91 f1 00 	lds	r19, 0x00F1
    128c:	3e bd       	out	0x2e, r19	; 46
    128e:	0d b4       	in	r0, 0x2d	; 45
    1290:	07 fe       	sbrs	r0, 7
    1292:	fd cf       	rjmp	.-6      	; 0x128e <df_write_sector+0x110>
         Spi_write_data(Usb_read_byte());
    1294:	30 91 f1 00 	lds	r19, 0x00F1
    1298:	3e bd       	out	0x2e, r19	; 46
    129a:	0d b4       	in	r0, 0x2d	; 45
    129c:	07 fe       	sbrs	r0, 7
    129e:	fd cf       	rjmp	.-6      	; 0x129a <df_write_sector+0x11c>
         Spi_write_data(Usb_read_byte());
    12a0:	30 91 f1 00 	lds	r19, 0x00F1
    12a4:	3e bd       	out	0x2e, r19	; 46
    12a6:	0d b4       	in	r0, 0x2d	; 45
    12a8:	07 fe       	sbrs	r0, 7
    12aa:	fd cf       	rjmp	.-6      	; 0x12a6 <df_write_sector+0x128>
         Spi_write_data(Usb_read_byte());
    12ac:	30 91 f1 00 	lds	r19, 0x00F1
    12b0:	3e bd       	out	0x2e, r19	; 46
    12b2:	0d b4       	in	r0, 0x2d	; 45
    12b4:	07 fe       	sbrs	r0, 7
    12b6:	fd cf       	rjmp	.-6      	; 0x12b2 <df_write_sector+0x134>
         Spi_write_data(Usb_read_byte());
    12b8:	30 91 f1 00 	lds	r19, 0x00F1
    12bc:	3e bd       	out	0x2e, r19	; 46
    12be:	0d b4       	in	r0, 0x2d	; 45
    12c0:	07 fe       	sbrs	r0, 7
    12c2:	fd cf       	rjmp	.-6      	; 0x12be <df_write_sector+0x140>
         Spi_write_data(Usb_read_byte());
    12c4:	30 91 f1 00 	lds	r19, 0x00F1
    12c8:	3e bd       	out	0x2e, r19	; 46
    12ca:	0d b4       	in	r0, 0x2d	; 45
    12cc:	07 fe       	sbrs	r0, 7
    12ce:	fd cf       	rjmp	.-6      	; 0x12ca <df_write_sector+0x14c>
         Spi_write_data(Usb_read_byte());
    12d0:	30 91 f1 00 	lds	r19, 0x00F1
    12d4:	3e bd       	out	0x2e, r19	; 46
    12d6:	0d b4       	in	r0, 0x2d	; 45
    12d8:	07 fe       	sbrs	r0, 7
    12da:	fd cf       	rjmp	.-6      	; 0x12d6 <df_write_sector+0x158>
         Spi_write_data(Usb_read_byte());
    12dc:	30 91 f1 00 	lds	r19, 0x00F1
    12e0:	3e bd       	out	0x2e, r19	; 46
    12e2:	0d b4       	in	r0, 0x2d	; 45
    12e4:	07 fe       	sbrs	r0, 7
    12e6:	fd cf       	rjmp	.-6      	; 0x12e2 <df_write_sector+0x164>
         Spi_write_data(Usb_read_byte());
    12e8:	30 91 f1 00 	lds	r19, 0x00F1
    12ec:	3e bd       	out	0x2e, r19	; 46
    12ee:	0d b4       	in	r0, 0x2d	; 45
    12f0:	07 fe       	sbrs	r0, 7
    12f2:	fd cf       	rjmp	.-6      	; 0x12ee <df_write_sector+0x170>
         Spi_write_data(Usb_read_byte());
    12f4:	30 91 f1 00 	lds	r19, 0x00F1
    12f8:	3e bd       	out	0x2e, r19	; 46
    12fa:	0d b4       	in	r0, 0x2d	; 45
    12fc:	07 fe       	sbrs	r0, 7
    12fe:	fd cf       	rjmp	.-6      	; 0x12fa <df_write_sector+0x17c>
         Spi_write_data(Usb_read_byte());
    1300:	30 91 f1 00 	lds	r19, 0x00F1
    1304:	3e bd       	out	0x2e, r19	; 46
    1306:	0d b4       	in	r0, 0x2d	; 45
    1308:	07 fe       	sbrs	r0, 7
    130a:	fd cf       	rjmp	.-6      	; 0x1306 <df_write_sector+0x188>
         Spi_write_data(Usb_read_byte());
    130c:	30 91 f1 00 	lds	r19, 0x00F1
    1310:	3e bd       	out	0x2e, r19	; 46
    1312:	0d b4       	in	r0, 0x2d	; 45
    1314:	07 fe       	sbrs	r0, 7
    1316:	fd cf       	rjmp	.-6      	; 0x1312 <df_write_sector+0x194>
         Spi_write_data(Usb_read_byte());
    1318:	30 91 f1 00 	lds	r19, 0x00F1
    131c:	3e bd       	out	0x2e, r19	; 46
    131e:	0d b4       	in	r0, 0x2d	; 45
    1320:	07 fe       	sbrs	r0, 7
    1322:	fd cf       	rjmp	.-6      	; 0x131e <df_write_sector+0x1a0>
         Spi_write_data(Usb_read_byte());
    1324:	30 91 f1 00 	lds	r19, 0x00F1
    1328:	3e bd       	out	0x2e, r19	; 46
    132a:	0d b4       	in	r0, 0x2d	; 45
    132c:	07 fe       	sbrs	r0, 7
    132e:	fd cf       	rjmp	.-6      	; 0x132a <df_write_sector+0x1ac>
         Spi_write_data(Usb_read_byte());
    1330:	30 91 f1 00 	lds	r19, 0x00F1
    1334:	3e bd       	out	0x2e, r19	; 46
    1336:	0d b4       	in	r0, 0x2d	; 45
    1338:	07 fe       	sbrs	r0, 7
    133a:	fd cf       	rjmp	.-6      	; 0x1336 <df_write_sector+0x1b8>
         Spi_write_data(Usb_read_byte());
    133c:	30 91 f1 00 	lds	r19, 0x00F1
    1340:	3e bd       	out	0x2e, r19	; 46
    1342:	0d b4       	in	r0, 0x2d	; 45
    1344:	07 fe       	sbrs	r0, 7
    1346:	fd cf       	rjmp	.-6      	; 0x1342 <df_write_sector+0x1c4>
         Spi_write_data(Usb_read_byte());
    1348:	30 91 f1 00 	lds	r19, 0x00F1
    134c:	3e bd       	out	0x2e, r19	; 46
    134e:	0d b4       	in	r0, 0x2d	; 45
    1350:	07 fe       	sbrs	r0, 7
    1352:	fd cf       	rjmp	.-6      	; 0x134e <df_write_sector+0x1d0>
         Spi_write_data(Usb_read_byte());
    1354:	30 91 f1 00 	lds	r19, 0x00F1
    1358:	3e bd       	out	0x2e, r19	; 46
    135a:	0d b4       	in	r0, 0x2d	; 45
    135c:	07 fe       	sbrs	r0, 7
    135e:	fd cf       	rjmp	.-6      	; 0x135a <df_write_sector+0x1dc>
         Spi_write_data(Usb_read_byte());
    1360:	30 91 f1 00 	lds	r19, 0x00F1
    1364:	3e bd       	out	0x2e, r19	; 46
    1366:	0d b4       	in	r0, 0x2d	; 45
    1368:	07 fe       	sbrs	r0, 7
    136a:	fd cf       	rjmp	.-6      	; 0x1366 <df_write_sector+0x1e8>
         Spi_write_data(Usb_read_byte());
    136c:	30 91 f1 00 	lds	r19, 0x00F1
    1370:	3e bd       	out	0x2e, r19	; 46
    1372:	0d b4       	in	r0, 0x2d	; 45
    1374:	07 fe       	sbrs	r0, 7
    1376:	fd cf       	rjmp	.-6      	; 0x1372 <df_write_sector+0x1f4>
         Spi_write_data(Usb_read_byte());
    1378:	30 91 f1 00 	lds	r19, 0x00F1
    137c:	3e bd       	out	0x2e, r19	; 46
    137e:	0d b4       	in	r0, 0x2d	; 45
    1380:	07 fe       	sbrs	r0, 7
    1382:	fd cf       	rjmp	.-6      	; 0x137e <df_write_sector+0x200>
         Spi_write_data(Usb_read_byte());
    1384:	30 91 f1 00 	lds	r19, 0x00F1
    1388:	3e bd       	out	0x2e, r19	; 46
    138a:	0d b4       	in	r0, 0x2d	; 45
    138c:	07 fe       	sbrs	r0, 7
    138e:	fd cf       	rjmp	.-6      	; 0x138a <df_write_sector+0x20c>
         Spi_write_data(Usb_read_byte());
    1390:	30 91 f1 00 	lds	r19, 0x00F1
    1394:	3e bd       	out	0x2e, r19	; 46
    1396:	0d b4       	in	r0, 0x2d	; 45
    1398:	07 fe       	sbrs	r0, 7
    139a:	fd cf       	rjmp	.-6      	; 0x1396 <df_write_sector+0x218>
         Spi_write_data(Usb_read_byte());
    139c:	30 91 f1 00 	lds	r19, 0x00F1
    13a0:	3e bd       	out	0x2e, r19	; 46
    13a2:	0d b4       	in	r0, 0x2d	; 45
    13a4:	07 fe       	sbrs	r0, 7
    13a6:	fd cf       	rjmp	.-6      	; 0x13a2 <df_write_sector+0x224>
         Spi_write_data(Usb_read_byte());
    13a8:	30 91 f1 00 	lds	r19, 0x00F1
    13ac:	3e bd       	out	0x2e, r19	; 46
    13ae:	0d b4       	in	r0, 0x2d	; 45
    13b0:	07 fe       	sbrs	r0, 7
    13b2:	fd cf       	rjmp	.-6      	; 0x13ae <df_write_sector+0x230>
         Spi_write_data(Usb_read_byte());
    13b4:	30 91 f1 00 	lds	r19, 0x00F1
    13b8:	3e bd       	out	0x2e, r19	; 46
    13ba:	0d b4       	in	r0, 0x2d	; 45
    13bc:	07 fe       	sbrs	r0, 7
    13be:	fd cf       	rjmp	.-6      	; 0x13ba <df_write_sector+0x23c>
         Spi_write_data(Usb_read_byte());
    13c0:	30 91 f1 00 	lds	r19, 0x00F1
    13c4:	3e bd       	out	0x2e, r19	; 46
    13c6:	0d b4       	in	r0, 0x2d	; 45
    13c8:	07 fe       	sbrs	r0, 7
    13ca:	fd cf       	rjmp	.-6      	; 0x13c6 <df_write_sector+0x248>
         Spi_write_data(Usb_read_byte());
    13cc:	30 91 f1 00 	lds	r19, 0x00F1
    13d0:	3e bd       	out	0x2e, r19	; 46
    13d2:	0d b4       	in	r0, 0x2d	; 45
    13d4:	07 fe       	sbrs	r0, 7
    13d6:	fd cf       	rjmp	.-6      	; 0x13d2 <df_write_sector+0x254>
         Spi_write_data(Usb_read_byte());
    13d8:	30 91 f1 00 	lds	r19, 0x00F1
    13dc:	3e bd       	out	0x2e, r19	; 46
    13de:	0d b4       	in	r0, 0x2d	; 45
    13e0:	07 fe       	sbrs	r0, 7
    13e2:	fd cf       	rjmp	.-6      	; 0x13de <df_write_sector+0x260>
         Spi_write_data(Usb_read_byte());
    13e4:	30 91 f1 00 	lds	r19, 0x00F1
    13e8:	3e bd       	out	0x2e, r19	; 46
    13ea:	0d b4       	in	r0, 0x2d	; 45
    13ec:	07 fe       	sbrs	r0, 7
    13ee:	fd cf       	rjmp	.-6      	; 0x13ea <df_write_sector+0x26c>
         Spi_write_data(Usb_read_byte());
    13f0:	30 91 f1 00 	lds	r19, 0x00F1
    13f4:	3e bd       	out	0x2e, r19	; 46
    13f6:	0d b4       	in	r0, 0x2d	; 45
    13f8:	07 fe       	sbrs	r0, 7
    13fa:	fd cf       	rjmp	.-6      	; 0x13f6 <df_write_sector+0x278>
         Spi_write_data(Usb_read_byte());
    13fc:	30 91 f1 00 	lds	r19, 0x00F1
    1400:	3e bd       	out	0x2e, r19	; 46
    1402:	0d b4       	in	r0, 0x2d	; 45
    1404:	07 fe       	sbrs	r0, 7
    1406:	fd cf       	rjmp	.-6      	; 0x1402 <df_write_sector+0x284>
         Spi_write_data(Usb_read_byte());
    1408:	30 91 f1 00 	lds	r19, 0x00F1
    140c:	3e bd       	out	0x2e, r19	; 46
    140e:	0d b4       	in	r0, 0x2d	; 45
    1410:	07 fe       	sbrs	r0, 7
    1412:	fd cf       	rjmp	.-6      	; 0x140e <df_write_sector+0x290>
         Spi_write_data(Usb_read_byte());
    1414:	30 91 f1 00 	lds	r19, 0x00F1
    1418:	3e bd       	out	0x2e, r19	; 46
    141a:	0d b4       	in	r0, 0x2d	; 45
    141c:	07 fe       	sbrs	r0, 7
    141e:	fd cf       	rjmp	.-6      	; 0x141a <df_write_sector+0x29c>
         Spi_write_data(Usb_read_byte());
    1420:	30 91 f1 00 	lds	r19, 0x00F1
    1424:	3e bd       	out	0x2e, r19	; 46
    1426:	0d b4       	in	r0, 0x2d	; 45
    1428:	07 fe       	sbrs	r0, 7
    142a:	fd cf       	rjmp	.-6      	; 0x1426 <df_write_sector+0x2a8>
         Spi_write_data(Usb_read_byte());
    142c:	30 91 f1 00 	lds	r19, 0x00F1
    1430:	3e bd       	out	0x2e, r19	; 46
    1432:	0d b4       	in	r0, 0x2d	; 45
    1434:	07 fe       	sbrs	r0, 7
    1436:	fd cf       	rjmp	.-6      	; 0x1432 <df_write_sector+0x2b4>
         Spi_write_data(Usb_read_byte());
    1438:	30 91 f1 00 	lds	r19, 0x00F1
    143c:	3e bd       	out	0x2e, r19	; 46
    143e:	0d b4       	in	r0, 0x2d	; 45
    1440:	07 fe       	sbrs	r0, 7
    1442:	fd cf       	rjmp	.-6      	; 0x143e <df_write_sector+0x2c0>
         Spi_write_data(Usb_read_byte());
    1444:	30 91 f1 00 	lds	r19, 0x00F1
    1448:	3e bd       	out	0x2e, r19	; 46
    144a:	0d b4       	in	r0, 0x2d	; 45
    144c:	07 fe       	sbrs	r0, 7
    144e:	fd cf       	rjmp	.-6      	; 0x144a <df_write_sector+0x2cc>
         Spi_write_data(Usb_read_byte());
    1450:	30 91 f1 00 	lds	r19, 0x00F1
    1454:	3e bd       	out	0x2e, r19	; 46
    1456:	0d b4       	in	r0, 0x2d	; 45
    1458:	07 fe       	sbrs	r0, 7
    145a:	fd cf       	rjmp	.-6      	; 0x1456 <df_write_sector+0x2d8>
         Spi_write_data(Usb_read_byte());
    145c:	30 91 f1 00 	lds	r19, 0x00F1
    1460:	3e bd       	out	0x2e, r19	; 46
    1462:	0d b4       	in	r0, 0x2d	; 45
    1464:	07 fe       	sbrs	r0, 7
    1466:	fd cf       	rjmp	.-6      	; 0x1462 <df_write_sector+0x2e4>
         Spi_write_data(Usb_read_byte());
    1468:	30 91 f1 00 	lds	r19, 0x00F1
    146c:	3e bd       	out	0x2e, r19	; 46
    146e:	0d b4       	in	r0, 0x2d	; 45
    1470:	07 fe       	sbrs	r0, 7
    1472:	fd cf       	rjmp	.-6      	; 0x146e <df_write_sector+0x2f0>
         Spi_write_data(Usb_read_byte());
    1474:	30 91 f1 00 	lds	r19, 0x00F1
    1478:	3e bd       	out	0x2e, r19	; 46
    147a:	0d b4       	in	r0, 0x2d	; 45
    147c:	07 fe       	sbrs	r0, 7
    147e:	fd cf       	rjmp	.-6      	; 0x147a <df_write_sector+0x2fc>
         Spi_write_data(Usb_read_byte());
    1480:	30 91 f1 00 	lds	r19, 0x00F1
    1484:	3e bd       	out	0x2e, r19	; 46
    1486:	0d b4       	in	r0, 0x2d	; 45
    1488:	07 fe       	sbrs	r0, 7
    148a:	fd cf       	rjmp	.-6      	; 0x1486 <df_write_sector+0x308>
         Spi_write_data(Usb_read_byte());
    148c:	30 91 f1 00 	lds	r19, 0x00F1
    1490:	3e bd       	out	0x2e, r19	; 46
    1492:	0d b4       	in	r0, 0x2d	; 45
    1494:	07 fe       	sbrs	r0, 7
    1496:	fd cf       	rjmp	.-6      	; 0x1492 <df_write_sector+0x314>
#endif
         Spi_ack_write();        // Final step to clear the SPIF bit.
    1498:	3e b5       	in	r19, 0x2e	; 46
   
         Usb_ack_receive_out();  // USB EPOUT read acknowledgement.
    149a:	30 91 e8 00 	lds	r19, 0x00E8
    149e:	3b 7f       	andi	r19, 0xFB	; 251
    14a0:	30 93 e8 00 	sts	0x00E8, r19
    14a4:	30 91 e8 00 	lds	r19, 0x00E8
    14a8:	3f 77       	andi	r19, 0x7F	; 127
    14aa:	30 93 e8 00 	sts	0x00E8, r19
   
         Enable_interrupt();     // Global re-enable.
    14ae:	78 94       	sei
   U8 j;
#endif
   do
   {
      //# Write 8x64b = 512b from the USB FIFO OUT.
      for (i = 8; i != 0; i--)
    14b0:	21 50       	subi	r18, 0x01	; 1
    14b2:	09 f0       	breq	.+2      	; 0x14b6 <df_write_sector+0x338>
    14b4:	6c ce       	rjmp	.-808    	; 0x118e <df_write_sector+0x10>
         Usb_ack_receive_out();  // USB EPOUT read acknowledgement.
   
         Enable_interrupt();     // Global re-enable.
      } // for (i = 8; i != 0; i--)

      gl_ptr_mem += 512;         // Update the memory pointer.
    14b6:	20 91 5a 01 	lds	r18, 0x015A
    14ba:	30 91 5b 01 	lds	r19, 0x015B
    14be:	40 91 5c 01 	lds	r20, 0x015C
    14c2:	50 91 5d 01 	lds	r21, 0x015D
    14c6:	20 50       	subi	r18, 0x00	; 0
    14c8:	3e 4f       	sbci	r19, 0xFE	; 254
    14ca:	4f 4f       	sbci	r20, 0xFF	; 255
    14cc:	5f 4f       	sbci	r21, 0xFF	; 255
    14ce:	20 93 5a 01 	sts	0x015A, r18
    14d2:	30 93 5b 01 	sts	0x015B, r19
    14d6:	40 93 5c 01 	sts	0x015C, r20
    14da:	50 93 5d 01 	sts	0x015D, r21
      nb_sector--;               // 1 more sector written
    14de:	01 97       	sbiw	r24, 0x01	; 1

      //# Launch page programming if end of page.
      //#
      #if DF_PAGE_SIZE > 512
         // Check if end of 1024b page.
         if ((MSB2(gl_ptr_mem) & DF_PAGE_MASK) == 0x00)
    14e0:	20 91 5b 01 	lds	r18, 0x015B
    14e4:	30 e0       	ldi	r19, 0x00	; 0
    14e6:	23 70       	andi	r18, 0x03	; 3
    14e8:	30 70       	andi	r19, 0x00	; 0
    14ea:	21 15       	cp	r18, r1
    14ec:	31 05       	cpc	r19, r1
    14ee:	81 f4       	brne	.+32     	; 0x1510 <df_write_sector+0x392>
         {
            Df_desel_all();               // Launch page programming
    14f0:	2e b1       	in	r18, 0x0e	; 14
    14f2:	23 60       	ori	r18, 0x03	; 3
    14f4:	2e b9       	out	0x0e, r18	; 14
            df_set_busy(df_select);       // memory is busy
    14f6:	9b 01       	movw	r18, r22
    14f8:	00 90 5f 01 	lds	r0, 0x015F
    14fc:	02 c0       	rjmp	.+4      	; 0x1502 <df_write_sector+0x384>
    14fe:	22 0f       	add	r18, r18
    1500:	33 1f       	adc	r19, r19
    1502:	0a 94       	dec	r0
    1504:	e2 f7       	brpl	.-8      	; 0x14fe <df_write_sector+0x380>
    1506:	40 91 5e 01 	lds	r20, 0x015E
    150a:	42 2b       	or	r20, r18
    150c:	40 93 5e 01 	sts	0x015E, r20
            if (nb_sector != 0)
              df_write_open(gl_ptr_mem>>9);
         #endif
      #endif
   }
   while (nb_sector != 0);
    1510:	00 97       	sbiw	r24, 0x00	; 0
    1512:	09 f0       	breq	.+2      	; 0x1516 <df_write_sector+0x398>
    1514:	36 ce       	rjmp	.-916    	; 0x1182 <df_write_sector+0x4>

   return OK;                  // Write done
    1516:	81 e0       	ldi	r24, 0x01	; 1
    1518:	08 95       	ret
      {
         // Wait end of rx in USB EPOUT.
         while(!Is_usb_read_enabled())
         {
            if(!Is_usb_endpoint_enabled())
              return KO; // USB Reset
    151a:	80 e0       	ldi	r24, 0x00	; 0
      #endif
   }
   while (nb_sector != 0);

   return OK;                  // Write done
}
    151c:	08 95       	ret

0000151e <df_read_sector_2_ram>:
//! @return The read succeeded -> OK
//!
Bool df_read_sector_2_ram(U8 *ram)
{
   U16 i;
   for(i=0;i<512;i++)
    151e:	28 2f       	mov	r18, r24
    1520:	39 2f       	mov	r19, r25
    1522:	f9 01       	movw	r30, r18
    1524:	80 e0       	ldi	r24, 0x00	; 0
    1526:	90 e0       	ldi	r25, 0x00	; 0
   {
      Spi_write_data(0);
    1528:	1e bc       	out	0x2e, r1	; 46
    152a:	0d b4       	in	r0, 0x2d	; 45
    152c:	07 fe       	sbrs	r0, 7
    152e:	fd cf       	rjmp	.-6      	; 0x152a <df_read_sector_2_ram+0xc>
      *ram=Spi_read_data();
    1530:	2e b5       	in	r18, 0x2e	; 46
    1532:	21 93       	st	Z+, r18
//! @return The read succeeded -> OK
//!
Bool df_read_sector_2_ram(U8 *ram)
{
   U16 i;
   for(i=0;i<512;i++)
    1534:	01 96       	adiw	r24, 0x01	; 1
    1536:	22 e0       	ldi	r18, 0x02	; 2
    1538:	80 30       	cpi	r24, 0x00	; 0
    153a:	92 07       	cpc	r25, r18
    153c:	a9 f7       	brne	.-22     	; 0x1528 <df_read_sector_2_ram+0xa>
   {
      Spi_write_data(0);
      *ram=Spi_read_data();
      ram++;
   }
   gl_ptr_mem += 512;     // Update the memory pointer.
    153e:	80 91 5a 01 	lds	r24, 0x015A
    1542:	90 91 5b 01 	lds	r25, 0x015B
    1546:	a0 91 5c 01 	lds	r26, 0x015C
    154a:	b0 91 5d 01 	lds	r27, 0x015D
    154e:	80 50       	subi	r24, 0x00	; 0
    1550:	9e 4f       	sbci	r25, 0xFE	; 254
    1552:	af 4f       	sbci	r26, 0xFF	; 255
    1554:	bf 4f       	sbci	r27, 0xFF	; 255
    1556:	80 93 5a 01 	sts	0x015A, r24
    155a:	90 93 5b 01 	sts	0x015B, r25
    155e:	a0 93 5c 01 	sts	0x015C, r26
    1562:	b0 93 5d 01 	sts	0x015D, r27
   return OK;
}
    1566:	81 e0       	ldi	r24, 0x01	; 1
    1568:	08 95       	ret

0000156a <df_write_sector_from_ram>:
//! @return The read succeeded   -> OK
//!
Bool df_write_sector_from_ram(U8 *ram)
{
   U16 i;
   for(i=0;i<512;i++)
    156a:	28 2f       	mov	r18, r24
    156c:	39 2f       	mov	r19, r25
    156e:	f9 01       	movw	r30, r18
    1570:	80 e0       	ldi	r24, 0x00	; 0
    1572:	90 e0       	ldi	r25, 0x00	; 0
   {
      Spi_write_data(*ram);
    1574:	21 91       	ld	r18, Z+
    1576:	2e bd       	out	0x2e, r18	; 46
    1578:	0d b4       	in	r0, 0x2d	; 45
    157a:	07 fe       	sbrs	r0, 7
    157c:	fd cf       	rjmp	.-6      	; 0x1578 <df_write_sector_from_ram+0xe>
//! @return The read succeeded   -> OK
//!
Bool df_write_sector_from_ram(U8 *ram)
{
   U16 i;
   for(i=0;i<512;i++)
    157e:	01 96       	adiw	r24, 0x01	; 1
    1580:	22 e0       	ldi	r18, 0x02	; 2
    1582:	80 30       	cpi	r24, 0x00	; 0
    1584:	92 07       	cpc	r25, r18
    1586:	b1 f7       	brne	.-20     	; 0x1574 <df_write_sector_from_ram+0xa>
   {
      Spi_write_data(*ram);
      ram++;
   }
   Spi_ack_write();        // Final step to clear the SPIF bit.
    1588:	8e b5       	in	r24, 0x2e	; 46
   gl_ptr_mem += 512;      // Update the memory pointer.
    158a:	80 91 5a 01 	lds	r24, 0x015A
    158e:	90 91 5b 01 	lds	r25, 0x015B
    1592:	a0 91 5c 01 	lds	r26, 0x015C
    1596:	b0 91 5d 01 	lds	r27, 0x015D
    159a:	80 50       	subi	r24, 0x00	; 0
    159c:	9e 4f       	sbci	r25, 0xFE	; 254
    159e:	af 4f       	sbci	r26, 0xFF	; 255
    15a0:	bf 4f       	sbci	r27, 0xFF	; 255
    15a2:	80 93 5a 01 	sts	0x015A, r24
    15a6:	90 93 5b 01 	sts	0x015B, r25
    15aa:	a0 93 5c 01 	sts	0x015C, r26
    15ae:	b0 93 5d 01 	sts	0x015D, r27
   return OK;
}
    15b2:	81 e0       	ldi	r24, 0x01	; 1
    15b4:	08 95       	ret

000015b6 <df_mem_init>:

//! This function initializes the hw/sw ressources required to drive the DF.
//!
void df_mem_init(void)
{
   df_init();        // Init the DF driver and its communication link.
    15b6:	0e 94 18 05 	call	0xa30	; 0xa30 <df_init>
}
    15ba:	08 95       	ret

000015bc <df_test_unit_ready>:
//!   Not initialize ->    CTRL_BUSY
//!   Else           ->    CTRL_NO_PRESENT
//!
Ctrl_status df_test_unit_ready(void)
{
   if( g_b_df_protected != g_b_df_protected_last )
    15bc:	80 91 60 01 	lds	r24, 0x0160
    15c0:	90 91 61 01 	lds	r25, 0x0161
    15c4:	89 17       	cp	r24, r25
    15c6:	21 f0       	breq	.+8      	; 0x15d0 <df_test_unit_ready+0x14>
   {
      g_b_df_protected_last = g_b_df_protected;
    15c8:	80 93 61 01 	sts	0x0161, r24
      return CTRL_BUSY;
    15cc:	83 e0       	ldi	r24, 0x03	; 3
    15ce:	08 95       	ret
   }
   return( (OK==df_mem_check()) ? CTRL_GOOD : CTRL_NO_PRESENT);
    15d0:	0e 94 41 05 	call	0xa82	; 0xa82 <df_mem_check>
    15d4:	81 30       	cpi	r24, 0x01	; 1
    15d6:	11 f4       	brne	.+4      	; 0x15dc <df_test_unit_ready+0x20>
    15d8:	80 e0       	ldi	r24, 0x00	; 0
    15da:	08 95       	ret
    15dc:	82 e0       	ldi	r24, 0x02	; 2
}
    15de:	08 95       	ret

000015e0 <df_read_capacity>:
{
#ifdef DF_4_MB              // AT45DB321 memories
   *u32_nb_sector = ((DF_NB_MEM*4*1024L*1024L)/512)-1;
#endif
#ifdef DF_8_MB              // AT45DB642 memories
   *u32_nb_sector = ((DF_NB_MEM*8*1024L*1024L)/512)-1;
    15e0:	2f ef       	ldi	r18, 0xFF	; 255
    15e2:	3f e7       	ldi	r19, 0x7F	; 127
    15e4:	40 e0       	ldi	r20, 0x00	; 0
    15e6:	50 e0       	ldi	r21, 0x00	; 0
    15e8:	fc 01       	movw	r30, r24
    15ea:	20 83       	st	Z, r18
    15ec:	31 83       	std	Z+1, r19	; 0x01
    15ee:	42 83       	std	Z+2, r20	; 0x02
    15f0:	53 83       	std	Z+3, r21	; 0x03
#endif
   return df_test_unit_ready();
    15f2:	0e 94 de 0a 	call	0x15bc	; 0x15bc <df_test_unit_ready>
}
    15f6:	08 95       	ret

000015f8 <df_wr_protect>:
//! @return FALSE, the memory is not write-protected
//!
Bool  df_wr_protect(void)
{
   return g_b_df_protected;
}
    15f8:	80 91 60 01 	lds	r24, 0x0160
    15fc:	08 95       	ret

000015fe <df_removal>:
//! @return FALSE, The memory isn't removed
//!
Bool  df_removal(void)
{
   return FALSE;
}
    15fe:	80 e0       	ldi	r24, 0x00	; 0
    1600:	08 95       	ret

00001602 <df_read_10>:
//! @return                Ctrl_status
//!   It is ready    ->    CTRL_GOOD
//!   A error occur  ->    CTRL_FAIL
//!
Ctrl_status df_read_10( U32 addr , U16 nb_sector )
{
    1602:	bf 92       	push	r11
    1604:	cf 92       	push	r12
    1606:	df 92       	push	r13
    1608:	ef 92       	push	r14
    160a:	ff 92       	push	r15
    160c:	0f 93       	push	r16
    160e:	1f 93       	push	r17
    1610:	df 93       	push	r29
    1612:	cf 93       	push	r28
    1614:	00 d0       	rcall	.+0      	; 0x1616 <df_read_10+0x14>
    1616:	00 d0       	rcall	.+0      	; 0x1618 <df_read_10+0x16>
    1618:	cd b7       	in	r28, 0x3d	; 61
    161a:	de b7       	in	r29, 0x3e	; 62
#if   (DF_NB_MEM == 1)     // 1 DATAFLASH
   df_read_open(addr);                    // wait device is not busy, then send command & address
   status = df_read_sector(nb_sector);             // transfer data from memory to USB
   
#else                      // 2 or 4 DATAFLASH
   U32   next_sector_addr = addr;
    161c:	69 83       	std	Y+1, r22	; 0x01
    161e:	7a 83       	std	Y+2, r23	; 0x02
    1620:	8b 83       	std	Y+3, r24	; 0x03
    1622:	9c 83       	std	Y+4, r25	; 0x04
   U16   nb_sectors_remaining = nb_sector;
    1624:	04 2f       	mov	r16, r20
    1626:	15 2f       	mov	r17, r21
//!   It is ready    ->    CTRL_GOOD
//!   A error occur  ->    CTRL_FAIL
//!
Ctrl_status df_read_10( U32 addr , U16 nb_sector )
{
   U8 status = OK;
    1628:	bb 24       	eor	r11, r11
    162a:	b3 94       	inc	r11
      df_read_close();
      nb_sectors_remaining--;
      next_sector_addr++;
   }
   #else                      // 1024B PAGES
   while( (nb_sectors_remaining != 0) && (status == OK))
    162c:	47 c0       	rjmp	.+142    	; 0x16bc <df_read_10+0xba>
   {
      df_read_open(next_sector_addr);     // wait device is not busy, then send command & address
    162e:	c9 80       	ldd	r12, Y+1	; 0x01
    1630:	da 80       	ldd	r13, Y+2	; 0x02
    1632:	eb 80       	ldd	r14, Y+3	; 0x03
    1634:	fc 80       	ldd	r15, Y+4	; 0x04
    1636:	c7 01       	movw	r24, r14
    1638:	b6 01       	movw	r22, r12
    163a:	0e 94 68 05 	call	0xad0	; 0xad0 <df_read_open>
      if ((LSB0(next_sector_addr)&0x01) == 0)
    163e:	89 81       	ldd	r24, Y+1	; 0x01
    1640:	80 fd       	sbrc	r24, 0
    1642:	2a c0       	rjmp	.+84     	; 0x1698 <df_read_10+0x96>
      {
        if (nb_sectors_remaining == 1)
    1644:	01 30       	cpi	r16, 0x01	; 1
    1646:	11 05       	cpc	r17, r1
    1648:	99 f4       	brne	.+38     	; 0x1670 <df_read_10+0x6e>
        {
           status = df_read_sector(1);
    164a:	81 e0       	ldi	r24, 0x01	; 1
    164c:	90 e0       	ldi	r25, 0x00	; 0
    164e:	0e 94 fc 05 	call	0xbf8	; 0xbf8 <df_read_sector>
    1652:	b8 2e       	mov	r11, r24
           df_read_close();
    1654:	0e 94 f8 05 	call	0xbf0	; 0xbf0 <df_read_close>
           nb_sectors_remaining--;
           next_sector_addr++;
    1658:	08 94       	sec
    165a:	c1 1c       	adc	r12, r1
    165c:	d1 1c       	adc	r13, r1
    165e:	e1 1c       	adc	r14, r1
    1660:	f1 1c       	adc	r15, r1
    1662:	c9 82       	std	Y+1, r12	; 0x01
    1664:	da 82       	std	Y+2, r13	; 0x02
    1666:	eb 82       	std	Y+3, r14	; 0x03
    1668:	fc 82       	std	Y+4, r15	; 0x04
      {
        if (nb_sectors_remaining == 1)
        {
           status = df_read_sector(1);
           df_read_close();
           nb_sectors_remaining--;
    166a:	00 e0       	ldi	r16, 0x00	; 0
    166c:	10 e0       	ldi	r17, 0x00	; 0
    166e:	26 c0       	rjmp	.+76     	; 0x16bc <df_read_10+0xba>
           next_sector_addr++;
        }
        else
        {
          status = df_read_sector(2);
    1670:	82 e0       	ldi	r24, 0x02	; 2
    1672:	90 e0       	ldi	r25, 0x00	; 0
    1674:	0e 94 fc 05 	call	0xbf8	; 0xbf8 <df_read_sector>
    1678:	b8 2e       	mov	r11, r24
          df_read_close();
    167a:	0e 94 f8 05 	call	0xbf0	; 0xbf0 <df_read_close>
          nb_sectors_remaining -= 2;
    167e:	02 50       	subi	r16, 0x02	; 2
    1680:	10 40       	sbci	r17, 0x00	; 0
          next_sector_addr += 2;
    1682:	a7 01       	movw	r20, r14
    1684:	96 01       	movw	r18, r12
    1686:	2e 5f       	subi	r18, 0xFE	; 254
    1688:	3f 4f       	sbci	r19, 0xFF	; 255
    168a:	4f 4f       	sbci	r20, 0xFF	; 255
    168c:	5f 4f       	sbci	r21, 0xFF	; 255
    168e:	29 83       	std	Y+1, r18	; 0x01
    1690:	3a 83       	std	Y+2, r19	; 0x02
    1692:	4b 83       	std	Y+3, r20	; 0x03
    1694:	5c 83       	std	Y+4, r21	; 0x04
    1696:	12 c0       	rjmp	.+36     	; 0x16bc <df_read_10+0xba>
        }
      }
      else
      {
        status = df_read_sector(1);
    1698:	81 e0       	ldi	r24, 0x01	; 1
    169a:	90 e0       	ldi	r25, 0x00	; 0
    169c:	0e 94 fc 05 	call	0xbf8	; 0xbf8 <df_read_sector>
    16a0:	b8 2e       	mov	r11, r24
        df_read_close();
    16a2:	0e 94 f8 05 	call	0xbf0	; 0xbf0 <df_read_close>
        nb_sectors_remaining--;
    16a6:	01 50       	subi	r16, 0x01	; 1
    16a8:	10 40       	sbci	r17, 0x00	; 0
        next_sector_addr++;
    16aa:	08 94       	sec
    16ac:	c1 1c       	adc	r12, r1
    16ae:	d1 1c       	adc	r13, r1
    16b0:	e1 1c       	adc	r14, r1
    16b2:	f1 1c       	adc	r15, r1
    16b4:	c9 82       	std	Y+1, r12	; 0x01
    16b6:	da 82       	std	Y+2, r13	; 0x02
    16b8:	eb 82       	std	Y+3, r14	; 0x03
    16ba:	fc 82       	std	Y+4, r15	; 0x04
      df_read_close();
      nb_sectors_remaining--;
      next_sector_addr++;
   }
   #else                      // 1024B PAGES
   while( (nb_sectors_remaining != 0) && (status == OK))
    16bc:	01 15       	cp	r16, r1
    16be:	11 05       	cpc	r17, r1
    16c0:	21 f0       	breq	.+8      	; 0x16ca <df_read_10+0xc8>
    16c2:	8b 2d       	mov	r24, r11
    16c4:	81 30       	cpi	r24, 0x01	; 1
    16c6:	09 f4       	brne	.+2      	; 0x16ca <df_read_10+0xc8>
    16c8:	b2 cf       	rjmp	.-156    	; 0x162e <df_read_10+0x2c>
      }
   }
   #endif
#endif
   
   df_read_close();
    16ca:	0e 94 f8 05 	call	0xbf0	; 0xbf0 <df_read_close>
   if(status == KO)
      return CTRL_FAIL;
    16ce:	81 e0       	ldi	r24, 0x01	; 1
    16d0:	b1 10       	cpse	r11, r1
    16d2:	80 e0       	ldi	r24, 0x00	; 0
   return CTRL_GOOD;
}
    16d4:	0f 90       	pop	r0
    16d6:	0f 90       	pop	r0
    16d8:	0f 90       	pop	r0
    16da:	0f 90       	pop	r0
    16dc:	cf 91       	pop	r28
    16de:	df 91       	pop	r29
    16e0:	1f 91       	pop	r17
    16e2:	0f 91       	pop	r16
    16e4:	ff 90       	pop	r15
    16e6:	ef 90       	pop	r14
    16e8:	df 90       	pop	r13
    16ea:	cf 90       	pop	r12
    16ec:	bf 90       	pop	r11
    16ee:	08 95       	ret

000016f0 <df_write_10>:
//! @return                Ctrl_status
//!   It is ready    ->    CTRL_GOOD
//!   A error occur  ->    CTRL_FAIL
//!
Ctrl_status df_write_10( U32 addr , U16 nb_sector )
{
    16f0:	cf 92       	push	r12
    16f2:	df 92       	push	r13
    16f4:	ef 92       	push	r14
    16f6:	ff 92       	push	r15
    16f8:	0f 93       	push	r16
    16fa:	1f 93       	push	r17
    16fc:	df 93       	push	r29
    16fe:	cf 93       	push	r28
    1700:	00 d0       	rcall	.+0      	; 0x1702 <df_write_10+0x12>
    1702:	00 d0       	rcall	.+0      	; 0x1704 <df_write_10+0x14>
    1704:	cd b7       	in	r28, 0x3d	; 61
    1706:	de b7       	in	r29, 0x3e	; 62
#if   (DF_NB_MEM != 1)                 // if more than 1 memory, variables are needed for zones mangement
   U32   next_sector_addr = addr;
    1708:	69 83       	std	Y+1, r22	; 0x01
    170a:	7a 83       	std	Y+2, r23	; 0x02
    170c:	8b 83       	std	Y+3, r24	; 0x03
    170e:	9c 83       	std	Y+4, r25	; 0x04
   U16   nb_sectors_remaining = nb_sector;
#endif

   if( g_b_df_protected ) return CTRL_FAIL;
    1710:	80 91 60 01 	lds	r24, 0x0160
    1714:	88 23       	and	r24, r24
    1716:	09 f0       	breq	.+2      	; 0x171a <df_write_10+0x2a>
    1718:	57 c0       	rjmp	.+174    	; 0x17c8 <df_write_10+0xd8>
    171a:	04 2f       	mov	r16, r20
    171c:	15 2f       	mov	r17, r21
    171e:	4c c0       	rjmp	.+152    	; 0x17b8 <df_write_10+0xc8>
      next_sector_addr++;
   }
   #else                // 1024B PAGES
   while (nb_sectors_remaining != 0)
   {
      df_write_open(next_sector_addr);     // wait device is not busy, then send command & address
    1720:	c9 80       	ldd	r12, Y+1	; 0x01
    1722:	da 80       	ldd	r13, Y+2	; 0x02
    1724:	eb 80       	ldd	r14, Y+3	; 0x03
    1726:	fc 80       	ldd	r15, Y+4	; 0x04
    1728:	c7 01       	movw	r24, r14
    172a:	b6 01       	movw	r22, r12
    172c:	0e 94 eb 07 	call	0xfd6	; 0xfd6 <df_write_open>
      if ((LSB0(next_sector_addr)&0x01) == 0)
    1730:	89 81       	ldd	r24, Y+1	; 0x01
    1732:	80 fd       	sbrc	r24, 0
    1734:	2b c0       	rjmp	.+86     	; 0x178c <df_write_10+0x9c>
      {
        if (nb_sectors_remaining == 1)
    1736:	01 30       	cpi	r16, 0x01	; 1
    1738:	11 05       	cpc	r17, r1
    173a:	a1 f4       	brne	.+40     	; 0x1764 <df_write_10+0x74>
        {
          if( KO == df_write_sector(1))    // transfer the page from memory to USB
    173c:	81 e0       	ldi	r24, 0x01	; 1
    173e:	90 e0       	ldi	r25, 0x00	; 0
    1740:	0e 94 bf 08 	call	0x117e	; 0x117e <df_write_sector>
    1744:	88 23       	and	r24, r24
    1746:	41 f1       	breq	.+80     	; 0x1798 <df_write_10+0xa8>
          {
             df_mem_init();
             return CTRL_FAIL;
          }
          df_write_close();
    1748:	0e 94 8c 08 	call	0x1118	; 0x1118 <df_write_close>
          nb_sectors_remaining--;
          next_sector_addr++;
    174c:	08 94       	sec
    174e:	c1 1c       	adc	r12, r1
    1750:	d1 1c       	adc	r13, r1
    1752:	e1 1c       	adc	r14, r1
    1754:	f1 1c       	adc	r15, r1
    1756:	c9 82       	std	Y+1, r12	; 0x01
    1758:	da 82       	std	Y+2, r13	; 0x02
    175a:	eb 82       	std	Y+3, r14	; 0x03
    175c:	fc 82       	std	Y+4, r15	; 0x04
          {
             df_mem_init();
             return CTRL_FAIL;
          }
          df_write_close();
          nb_sectors_remaining--;
    175e:	00 e0       	ldi	r16, 0x00	; 0
    1760:	10 e0       	ldi	r17, 0x00	; 0
    1762:	2a c0       	rjmp	.+84     	; 0x17b8 <df_write_10+0xc8>
          next_sector_addr++;
        }
        else
        {
          if( KO == df_write_sector(2))    // transfer the page from memory to USB
    1764:	82 e0       	ldi	r24, 0x02	; 2
    1766:	90 e0       	ldi	r25, 0x00	; 0
    1768:	0e 94 bf 08 	call	0x117e	; 0x117e <df_write_sector>
    176c:	88 23       	and	r24, r24
    176e:	a1 f0       	breq	.+40     	; 0x1798 <df_write_10+0xa8>
          {
             df_mem_init();
             return CTRL_FAIL;
          }
          df_write_close();
    1770:	0e 94 8c 08 	call	0x1118	; 0x1118 <df_write_close>
          nb_sectors_remaining -= 2;
    1774:	02 50       	subi	r16, 0x02	; 2
    1776:	10 40       	sbci	r17, 0x00	; 0
          next_sector_addr += 2;
    1778:	d7 01       	movw	r26, r14
    177a:	c6 01       	movw	r24, r12
    177c:	02 96       	adiw	r24, 0x02	; 2
    177e:	a1 1d       	adc	r26, r1
    1780:	b1 1d       	adc	r27, r1
    1782:	89 83       	std	Y+1, r24	; 0x01
    1784:	9a 83       	std	Y+2, r25	; 0x02
    1786:	ab 83       	std	Y+3, r26	; 0x03
    1788:	bc 83       	std	Y+4, r27	; 0x04
    178a:	16 c0       	rjmp	.+44     	; 0x17b8 <df_write_10+0xc8>
        }
      }
      else
      {
        if( KO == df_write_sector(1))      // transfer the page from memory to USB
    178c:	81 e0       	ldi	r24, 0x01	; 1
    178e:	90 e0       	ldi	r25, 0x00	; 0
    1790:	0e 94 bf 08 	call	0x117e	; 0x117e <df_write_sector>
    1794:	88 23       	and	r24, r24
    1796:	19 f4       	brne	.+6      	; 0x179e <df_write_10+0xae>

//! This function initializes the hw/sw ressources required to drive the DF.
//!
void df_mem_init(void)
{
   df_init();        // Init the DF driver and its communication link.
    1798:	0e 94 18 05 	call	0xa30	; 0xa30 <df_init>
    179c:	15 c0       	rjmp	.+42     	; 0x17c8 <df_write_10+0xd8>
        if( KO == df_write_sector(1))      // transfer the page from memory to USB
        {
           df_mem_init();
           return CTRL_FAIL;
        }
        df_write_close();
    179e:	0e 94 8c 08 	call	0x1118	; 0x1118 <df_write_close>
        nb_sectors_remaining--;
    17a2:	01 50       	subi	r16, 0x01	; 1
    17a4:	10 40       	sbci	r17, 0x00	; 0
        next_sector_addr++;
    17a6:	08 94       	sec
    17a8:	c1 1c       	adc	r12, r1
    17aa:	d1 1c       	adc	r13, r1
    17ac:	e1 1c       	adc	r14, r1
    17ae:	f1 1c       	adc	r15, r1
    17b0:	c9 82       	std	Y+1, r12	; 0x01
    17b2:	da 82       	std	Y+2, r13	; 0x02
    17b4:	eb 82       	std	Y+3, r14	; 0x03
    17b6:	fc 82       	std	Y+4, r15	; 0x04
      df_write_close();
      nb_sectors_remaining--;
      next_sector_addr++;
   }
   #else                // 1024B PAGES
   while (nb_sectors_remaining != 0)
    17b8:	01 15       	cp	r16, r1
    17ba:	11 05       	cpc	r17, r1
    17bc:	09 f0       	breq	.+2      	; 0x17c0 <df_write_10+0xd0>
    17be:	b0 cf       	rjmp	.-160    	; 0x1720 <df_write_10+0x30>
        next_sector_addr++;
      }
   }
   #endif
#endif
   df_write_close();                    // unselect memory
    17c0:	0e 94 8c 08 	call	0x1118	; 0x1118 <df_write_close>
   return CTRL_GOOD;
    17c4:	80 e0       	ldi	r24, 0x00	; 0
    17c6:	01 c0       	rjmp	.+2      	; 0x17ca <df_write_10+0xda>
#if   (DF_NB_MEM != 1)                 // if more than 1 memory, variables are needed for zones mangement
   U32   next_sector_addr = addr;
   U16   nb_sectors_remaining = nb_sector;
#endif

   if( g_b_df_protected ) return CTRL_FAIL;
    17c8:	81 e0       	ldi	r24, 0x01	; 1
   }
   #endif
#endif
   df_write_close();                    // unselect memory
   return CTRL_GOOD;
}
    17ca:	0f 90       	pop	r0
    17cc:	0f 90       	pop	r0
    17ce:	0f 90       	pop	r0
    17d0:	0f 90       	pop	r0
    17d2:	cf 91       	pop	r28
    17d4:	df 91       	pop	r29
    17d6:	1f 91       	pop	r17
    17d8:	0f 91       	pop	r16
    17da:	ff 90       	pop	r15
    17dc:	ef 90       	pop	r14
    17de:	df 90       	pop	r13
    17e0:	cf 90       	pop	r12
    17e2:	08 95       	ret

000017e4 <df_df_2_ram>:
//! @return                Ctrl_status
//!   It is ready    ->    CTRL_GOOD
//!   A error occur  ->    CTRL_FAIL
//!
Ctrl_status    df_df_2_ram( U32 addr, U8 *ram)
{
    17e4:	cf 93       	push	r28
    17e6:	df 93       	push	r29
    17e8:	ea 01       	movw	r28, r20
   df_read_open(addr);
    17ea:	0e 94 68 05 	call	0xad0	; 0xad0 <df_read_open>
   df_read_sector_2_ram(ram);
    17ee:	ce 01       	movw	r24, r28
    17f0:	0e 94 8f 0a 	call	0x151e	; 0x151e <df_read_sector_2_ram>
   df_read_close();
    17f4:	0e 94 f8 05 	call	0xbf0	; 0xbf0 <df_read_close>
   return CTRL_GOOD;
}
    17f8:	80 e0       	ldi	r24, 0x00	; 0
    17fa:	df 91       	pop	r29
    17fc:	cf 91       	pop	r28
    17fe:	08 95       	ret

00001800 <df_ram_2_df>:
//! @return                Ctrl_status
//!   It is ready    ->    CTRL_GOOD
//!   A error occur  ->    CTRL_FAIL
//!
Ctrl_status    df_ram_2_df(U32 addr, U8 *ram)
{
    1800:	cf 93       	push	r28
    1802:	df 93       	push	r29
    1804:	ea 01       	movw	r28, r20
   df_write_open(addr);
    1806:	0e 94 eb 07 	call	0xfd6	; 0xfd6 <df_write_open>
   df_write_sector_from_ram(ram);
    180a:	ce 01       	movw	r24, r28
    180c:	0e 94 b5 0a 	call	0x156a	; 0x156a <df_write_sector_from_ram>
   df_write_close();
    1810:	0e 94 8c 08 	call	0x1118	; 0x1118 <df_write_close>
   return CTRL_GOOD;
}
    1814:	80 e0       	ldi	r24, 0x00	; 0
    1816:	df 91       	pop	r29
    1818:	cf 91       	pop	r28
    181a:	08 95       	ret

0000181c <usb_device_task_init>:
//! @return none
//!
//!/
void usb_device_task_init(void)
{
   Enable_interrupt();
    181c:	78 94       	sei
   Usb_disable();
    181e:	e8 ed       	ldi	r30, 0xD8	; 216
    1820:	f0 e0       	ldi	r31, 0x00	; 0
    1822:	80 81       	ld	r24, Z
    1824:	8f 76       	andi	r24, 0x6F	; 111
    1826:	80 83       	st	Z, r24
   Usb_enable();
    1828:	80 81       	ld	r24, Z
    182a:	80 69       	ori	r24, 0x90	; 144
    182c:	80 83       	st	Z, r24
   Usb_select_device();
    182e:	80 81       	ld	r24, Z
    1830:	8f 7b       	andi	r24, 0xBF	; 191
    1832:	80 83       	st	Z, r24
#if (USB_LOW_SPEED_DEVICE==ENABLE)
   Usb_low_speed_mode();
#endif
   Enable_interrupt();
    1834:	78 94       	sei
#if (USB_OTG_FEATURE == ENABLED)
   Usb_enable_id_interrupt();
   Clear_otg_features_from_host();
   otg_device_sessions = 0;
#endif
}
    1836:	08 95       	ret

00001838 <usb_start_device>:
//!
//! @return none
//!
void usb_start_device (void)
{
   Pll_start_auto();
    1838:	8e e0       	ldi	r24, 0x0E	; 14
    183a:	89 bd       	out	0x29, r24	; 41
   Wait_pll_ready();
    183c:	09 b4       	in	r0, 0x29	; 41
    183e:	00 fe       	sbrs	r0, 0
    1840:	fd cf       	rjmp	.-6      	; 0x183c <usb_start_device+0x4>

   Disable_interrupt();
    1842:	f8 94       	cli
   Usb_unfreeze_clock();
    1844:	80 91 d8 00 	lds	r24, 0x00D8
    1848:	8f 7d       	andi	r24, 0xDF	; 223
    184a:	80 93 d8 00 	sts	0x00D8, r24
   usb_init_device();         // configure the USB controller EP0
    184e:	0e 94 a4 04 	call	0x948	; 0x948 <usb_init_device>
   Usb_attach();
    1852:	80 91 e0 00 	lds	r24, 0x00E0
    1856:	8e 7f       	andi	r24, 0xFE	; 254
    1858:	80 93 e0 00 	sts	0x00E0, r24
   Enable_interrupt();
    185c:	78 94       	sei
   
   Usb_enable_suspend_interrupt();
    185e:	80 91 e2 00 	lds	r24, 0x00E2
    1862:	81 60       	ori	r24, 0x01	; 1
    1864:	80 93 e2 00 	sts	0x00E2, r24
   Usb_enable_reset_interrupt();
    1868:	80 91 e2 00 	lds	r24, 0x00E2
    186c:	88 60       	ori	r24, 0x08	; 8
    186e:	80 93 e2 00 	sts	0x00E2, r24
#if (USB_OTG_FEATURE == ENABLED)
   Usb_enable_id_interrupt();
#endif
}
    1872:	08 95       	ret

00001874 <usb_device_task>:
#else
   
   // Non-OTG exclusives Device operations

   // VBUS state detection
   if (Is_usb_vbus_high()&& (usb_connected==FALSE))
    1874:	80 91 d9 00 	lds	r24, 0x00D9
    1878:	80 ff       	sbrs	r24, 0
    187a:	14 c0       	rjmp	.+40     	; 0x18a4 <usb_device_task+0x30>
    187c:	80 91 62 01 	lds	r24, 0x0162
    1880:	88 23       	and	r24, r24
    1882:	81 f4       	brne	.+32     	; 0x18a4 <usb_device_task+0x30>
   {
      usb_connected = TRUE;
    1884:	81 e0       	ldi	r24, 0x01	; 1
    1886:	80 93 62 01 	sts	0x0162, r24
      remote_wakeup_feature = DISABLED;
    188a:	10 92 64 01 	sts	0x0164, r1
      Usb_vbus_on_action();
      Usb_send_event(EVT_USB_POWERED);
    188e:	80 91 65 01 	lds	r24, 0x0165
    1892:	90 91 66 01 	lds	r25, 0x0166
    1896:	82 60       	ori	r24, 0x02	; 2
    1898:	90 93 66 01 	sts	0x0166, r25
    189c:	80 93 65 01 	sts	0x0165, r24
      usb_start_device();
    18a0:	0e 94 1c 0c 	call	0x1838	; 0x1838 <usb_start_device>
   }
   if (Is_usb_vbus_low()&& (usb_connected==TRUE))
    18a4:	80 91 d9 00 	lds	r24, 0x00D9
    18a8:	80 fd       	sbrc	r24, 0
    18aa:	18 c0       	rjmp	.+48     	; 0x18dc <usb_device_task+0x68>
    18ac:	36 c0       	rjmp	.+108    	; 0x191a <usb_device_task+0xa6>
   {
      usb_connected = FALSE;
    18ae:	10 92 62 01 	sts	0x0162, r1
      usb_configuration_nb = 0;
    18b2:	10 92 6e 01 	sts	0x016E, r1
      Usb_send_event(EVT_USB_UNPOWERED);
    18b6:	80 91 65 01 	lds	r24, 0x0165
    18ba:	90 91 66 01 	lds	r25, 0x0166
    18be:	84 60       	ori	r24, 0x04	; 4
    18c0:	90 93 66 01 	sts	0x0166, r25
    18c4:	80 93 65 01 	sts	0x0165, r24
      Usb_detach();
    18c8:	80 91 e0 00 	lds	r24, 0x00E0
    18cc:	81 60       	ori	r24, 0x01	; 1
    18ce:	80 93 e0 00 	sts	0x00E0, r24
      Usb_freeze_clock();
    18d2:	80 91 d8 00 	lds	r24, 0x00D8
    18d6:	80 62       	ori	r24, 0x20	; 32
    18d8:	80 93 d8 00 	sts	0x00D8, r24
      Usb_vbus_off_action();
   }

   if(Is_usb_event(EVT_USB_RESET))
    18dc:	80 91 65 01 	lds	r24, 0x0165
    18e0:	90 91 66 01 	lds	r25, 0x0166
    18e4:	90 ff       	sbrs	r25, 0
    18e6:	10 c0       	rjmp	.+32     	; 0x1908 <usb_device_task+0x94>
   {
      Usb_ack_event(EVT_USB_RESET);
    18e8:	80 91 65 01 	lds	r24, 0x0165
    18ec:	90 91 66 01 	lds	r25, 0x0166
    18f0:	9e 7f       	andi	r25, 0xFE	; 254
    18f2:	90 93 66 01 	sts	0x0166, r25
    18f6:	80 93 65 01 	sts	0x0165, r24
      Usb_reset_endpoint(0);
    18fa:	81 e0       	ldi	r24, 0x01	; 1
    18fc:	80 93 ea 00 	sts	0x00EA, r24
    1900:	10 92 ea 00 	sts	0x00EA, r1
      usb_configuration_nb=0;
    1904:	10 92 6e 01 	sts	0x016E, r1
   // =======================================
   // Common Standard Device Control Requests
   // =======================================
   //   - device enumeration process
   //   - device control commands and features
   Usb_select_endpoint(EP_CONTROL);
    1908:	10 92 e9 00 	sts	0x00E9, r1
   if (Is_usb_receive_setup())
    190c:	80 91 e8 00 	lds	r24, 0x00E8
    1910:	83 ff       	sbrs	r24, 3
    1912:	08 c0       	rjmp	.+16     	; 0x1924 <usb_device_task+0xb0>
   {
      usb_process_request();
    1914:	0e 94 93 0c 	call	0x1926	; 0x1926 <usb_process_request>
    1918:	08 95       	ret
      remote_wakeup_feature = DISABLED;
      Usb_vbus_on_action();
      Usb_send_event(EVT_USB_POWERED);
      usb_start_device();
   }
   if (Is_usb_vbus_low()&& (usb_connected==TRUE))
    191a:	80 91 62 01 	lds	r24, 0x0162
    191e:	81 30       	cpi	r24, 0x01	; 1
    1920:	e9 f6       	brne	.-70     	; 0x18dc <usb_device_task+0x68>
    1922:	c5 cf       	rjmp	.-118    	; 0x18ae <usb_device_task+0x3a>
    1924:	08 95       	ret

00001926 <usb_process_request>:
//! @brief This function reads the SETUP request sent to the default control endpoint
//! and calls the appropriate function. When exiting of the usb_read_request
//! function, the device is ready to manage the next request.
//!
void usb_process_request(void)
{
    1926:	0f 93       	push	r16
    1928:	1f 93       	push	r17
    192a:	df 93       	push	r29
    192c:	cf 93       	push	r28
    192e:	00 d0       	rcall	.+0      	; 0x1930 <usb_process_request+0xa>
    1930:	cd b7       	in	r28, 0x3d	; 61
    1932:	de b7       	in	r29, 0x3e	; 62
   U8 bmRequestType;
   U8 bmRequest;

   Usb_ack_control_out();
    1934:	80 91 e8 00 	lds	r24, 0x00E8
    1938:	8b 7f       	andi	r24, 0xFB	; 251
    193a:	80 93 e8 00 	sts	0x00E8, r24
   bmRequestType = Usb_read_byte();
    193e:	10 91 f1 00 	lds	r17, 0x00F1
   bmRequest     = Usb_read_byte();
    1942:	00 91 f1 00 	lds	r16, 0x00F1

   switch (bmRequest)
    1946:	06 30       	cpi	r16, 0x06	; 6
    1948:	f9 f0       	breq	.+62     	; 0x1988 <usb_process_request+0x62>
    194a:	07 30       	cpi	r16, 0x07	; 7
    194c:	68 f4       	brcc	.+26     	; 0x1968 <usb_process_request+0x42>
    194e:	01 30       	cpi	r16, 0x01	; 1
    1950:	09 f4       	brne	.+2      	; 0x1954 <usb_process_request+0x2e>
    1952:	25 c1       	rjmp	.+586    	; 0x1b9e <usb_process_request+0x278>
    1954:	01 30       	cpi	r16, 0x01	; 1
    1956:	08 f4       	brcc	.+2      	; 0x195a <usb_process_request+0x34>
    1958:	8f c1       	rjmp	.+798    	; 0x1c78 <usb_process_request+0x352>
    195a:	03 30       	cpi	r16, 0x03	; 3
    195c:	09 f4       	brne	.+2      	; 0x1960 <usb_process_request+0x3a>
    195e:	53 c1       	rjmp	.+678    	; 0x1c06 <usb_process_request+0x2e0>
    1960:	05 30       	cpi	r16, 0x05	; 5
    1962:	09 f0       	breq	.+2      	; 0x1966 <usb_process_request+0x40>
    1964:	0d c2       	rjmp	.+1050   	; 0x1d80 <usb_process_request+0x45a>
    1966:	df c0       	rjmp	.+446    	; 0x1b26 <usb_process_request+0x200>
    1968:	09 30       	cpi	r16, 0x09	; 9
    196a:	09 f4       	brne	.+2      	; 0x196e <usb_process_request+0x48>
    196c:	01 c1       	rjmp	.+514    	; 0x1b70 <usb_process_request+0x24a>
    196e:	0a 30       	cpi	r16, 0x0A	; 10
    1970:	20 f4       	brcc	.+8      	; 0x197a <usb_process_request+0x54>
    1972:	08 30       	cpi	r16, 0x08	; 8
    1974:	09 f0       	breq	.+2      	; 0x1978 <usb_process_request+0x52>
    1976:	04 c2       	rjmp	.+1032   	; 0x1d80 <usb_process_request+0x45a>
    1978:	ac c0       	rjmp	.+344    	; 0x1ad2 <usb_process_request+0x1ac>
    197a:	0a 30       	cpi	r16, 0x0A	; 10
    197c:	09 f4       	brne	.+2      	; 0x1980 <usb_process_request+0x5a>
    197e:	ae c1       	rjmp	.+860    	; 0x1cdc <usb_process_request+0x3b6>
    1980:	0b 30       	cpi	r16, 0x0B	; 11
    1982:	09 f0       	breq	.+2      	; 0x1986 <usb_process_request+0x60>
    1984:	fd c1       	rjmp	.+1018   	; 0x1d80 <usb_process_request+0x45a>
    1986:	d4 c1       	rjmp	.+936    	; 0x1d30 <usb_process_request+0x40a>
   {
      case SETUP_GET_DESCRIPTOR:
      if (USB_SETUP_GET_STAND_DEVICE == bmRequestType)
    1988:	10 38       	cpi	r17, 0x80	; 128
    198a:	09 f0       	breq	.+2      	; 0x198e <usb_process_request+0x68>
    198c:	f9 c1       	rjmp	.+1010   	; 0x1d80 <usb_process_request+0x45a>
   U16  sn_index=0;
   U8   initial_data_to_transfer;
#endif
    
   zlp             = FALSE;                  /* no zero length packet */
   string_type     = Usb_read_byte();        /* read LSB of wValue    */
    198e:	60 91 f1 00 	lds	r22, 0x00F1
   descriptor_type = Usb_read_byte();        /* read MSB of wValue    */
    1992:	80 91 f1 00 	lds	r24, 0x00F1

   switch (descriptor_type)
    1996:	81 30       	cpi	r24, 0x01	; 1
    1998:	19 f0       	breq	.+6      	; 0x19a0 <usb_process_request+0x7a>
    199a:	82 30       	cpi	r24, 0x02	; 2
    199c:	89 f4       	brne	.+34     	; 0x19c0 <usb_process_request+0x9a>
    199e:	06 c0       	rjmp	.+12     	; 0x19ac <usb_process_request+0x86>
   {
      case DESCRIPTOR_DEVICE:
      data_to_transfer = Usb_get_dev_desc_length(); //!< sizeof (usb_user_device_descriptor);
    19a0:	82 e1       	ldi	r24, 0x12	; 18
    19a2:	80 93 6f 01 	sts	0x016F, r24
      pbuffer          = Usb_get_dev_desc_pointer();
    19a6:	89 e2       	ldi	r24, 0x29	; 41
    19a8:	91 e0       	ldi	r25, 0x01	; 1
    19aa:	05 c0       	rjmp	.+10     	; 0x19b6 <usb_process_request+0x90>
      break;
      
      case DESCRIPTOR_CONFIGURATION:
      data_to_transfer = Usb_get_conf_desc_length(); //!< sizeof (usb_user_configuration_descriptor);
    19ac:	89 e2       	ldi	r24, 0x29	; 41
    19ae:	80 93 6f 01 	sts	0x016F, r24
      pbuffer          = Usb_get_conf_desc_pointer();
    19b2:	8b e3       	ldi	r24, 0x3B	; 59
    19b4:	91 e0       	ldi	r25, 0x01	; 1
    19b6:	90 93 71 01 	sts	0x0171, r25
    19ba:	80 93 70 01 	sts	0x0170, r24
    19be:	05 c0       	rjmp	.+10     	; 0x19ca <usb_process_request+0xa4>
      break;
      
      default:
      if( !usb_user_get_descriptor(descriptor_type, string_type))
    19c0:	0e 94 5a 02 	call	0x4b4	; 0x4b4 <usb_user_get_descriptor>
    19c4:	88 23       	and	r24, r24
    19c6:	09 f4       	brne	.+2      	; 0x19ca <usb_process_request+0xa4>
    19c8:	db c1       	rjmp	.+950    	; 0x1d80 <usb_process_request+0x45a>
         return FALSE;  // Unknow descriptor then stall request
      break;
   }

   dummy = Usb_read_byte();                     //!< don't care of wIndex field
    19ca:	80 91 f1 00 	lds	r24, 0x00F1
   dummy = Usb_read_byte();
    19ce:	80 91 f1 00 	lds	r24, 0x00F1
   LSB(wLength) = Usb_read_byte();              //!< read wLength
    19d2:	80 91 f1 00 	lds	r24, 0x00F1
    19d6:	89 83       	std	Y+1, r24	; 0x01
   MSB(wLength) = Usb_read_byte();
    19d8:	80 91 f1 00 	lds	r24, 0x00F1
    19dc:	8a 83       	std	Y+2, r24	; 0x02
   Usb_ack_receive_setup() ;                  //!< clear the receive setup flag
    19de:	80 91 e8 00 	lds	r24, 0x00E8
    19e2:	87 7f       	andi	r24, 0xF7	; 247
    19e4:	80 93 e8 00 	sts	0x00E8, r24

   if (wLength > data_to_transfer)
    19e8:	89 81       	ldd	r24, Y+1	; 0x01
    19ea:	9a 81       	ldd	r25, Y+2	; 0x02
    19ec:	40 91 6f 01 	lds	r20, 0x016F
    19f0:	24 2f       	mov	r18, r20
    19f2:	30 e0       	ldi	r19, 0x00	; 0
    19f4:	28 17       	cp	r18, r24
    19f6:	39 07       	cpc	r19, r25
    19f8:	18 f4       	brcc	.+6      	; 0x1a00 <usb_process_request+0xda>
   {
      if ((data_to_transfer % EP_CONTROL_LENGTH) == 0) { zlp = TRUE; }
    19fa:	4f 73       	andi	r20, 0x3F	; 63
    19fc:	29 f0       	breq	.+10     	; 0x1a08 <usb_process_request+0xe2>
    19fe:	02 c0       	rjmp	.+4      	; 0x1a04 <usb_process_request+0xde>
      else { zlp = FALSE; }                   //!< no need of zero length packet
   }
   else
   {
      data_to_transfer = (U8)wLength;         //!< send only requested number of data
    1a00:	80 93 6f 01 	sts	0x016F, r24
#if (USE_DEVICE_SN_UNIQUE==ENABLE)
   U16  sn_index=0;
   U8   initial_data_to_transfer;
#endif
    
   zlp             = FALSE;                  /* no zero length packet */
    1a04:	30 e0       	ldi	r19, 0x00	; 0
    1a06:	01 c0       	rjmp	.+2      	; 0x1a0a <usb_process_request+0xe4>
   MSB(wLength) = Usb_read_byte();
   Usb_ack_receive_setup() ;                  //!< clear the receive setup flag

   if (wLength > data_to_transfer)
   {
      if ((data_to_transfer % EP_CONTROL_LENGTH) == 0) { zlp = TRUE; }
    1a08:	31 e0       	ldi	r19, 0x01	; 1
   else
   {
      data_to_transfer = (U8)wLength;         //!< send only requested number of data
   }

   Usb_ack_nak_out();
    1a0a:	80 91 e8 00 	lds	r24, 0x00E8
    1a0e:	8f 7e       	andi	r24, 0xEF	; 239
    1a10:	30 c0       	rjmp	.+96     	; 0x1a72 <usb_process_request+0x14c>
#endif
   while((data_to_transfer != 0) && (!Is_usb_nak_out_sent()))
   {
      while(!Is_usb_read_control_enabled())
      {
         if (Is_usb_nak_out_sent())
    1a12:	80 91 e8 00 	lds	r24, 0x00E8
    1a16:	84 fd       	sbrc	r24, 4
    1a18:	08 c0       	rjmp	.+16     	; 0x1a2a <usb_process_request+0x104>
            break;    // don't clear the flag now, it will be cleared after
         if (Is_usb_vbus_low())
    1a1a:	80 91 d9 00 	lds	r24, 0x00D9
    1a1e:	80 ff       	sbrs	r24, 0
    1a20:	04 c0       	rjmp	.+8      	; 0x1a2a <usb_process_request+0x104>
#if (USE_DEVICE_SN_UNIQUE==ENABLE)
   initial_data_to_transfer = data_to_transfer;
#endif
   while((data_to_transfer != 0) && (!Is_usb_nak_out_sent()))
   {
      while(!Is_usb_read_control_enabled())
    1a22:	80 91 e8 00 	lds	r24, 0x00E8
    1a26:	80 ff       	sbrs	r24, 0
    1a28:	f4 cf       	rjmp	.-24     	; 0x1a12 <usb_process_request+0xec>
      {
         if (Is_usb_nak_out_sent())
            break;    // don't clear the flag now, it will be cleared after
         if (Is_usb_vbus_low())
    1a2a:	20 e0       	ldi	r18, 0x00	; 0
    1a2c:	13 c0       	rjmp	.+38     	; 0x1a54 <usb_process_request+0x12e>
      }
              
      nb_byte=0;
      while(data_to_transfer != 0)        //!< Send data until necessary
      {
         if(nb_byte++==EP_CONTROL_LENGTH) //!< Check endpoint 0 size
    1a2e:	20 34       	cpi	r18, 0x40	; 64
    1a30:	a9 f0       	breq	.+42     	; 0x1a5c <usb_process_request+0x136>
    1a32:	2f 5f       	subi	r18, 0xFF	; 255
         else
         {
            Usb_write_PGM_byte(pbuffer++);                                                 //Write a flash byte to USB        
         }        
#else          
         Usb_write_PGM_byte(pbuffer++);          
    1a34:	e0 91 70 01 	lds	r30, 0x0170
    1a38:	f0 91 71 01 	lds	r31, 0x0171
    1a3c:	cf 01       	movw	r24, r30
    1a3e:	01 96       	adiw	r24, 0x01	; 1
    1a40:	90 93 71 01 	sts	0x0171, r25
    1a44:	80 93 70 01 	sts	0x0170, r24
    1a48:	e4 91       	lpm	r30, Z+
    1a4a:	e0 93 f1 00 	sts	0x00F1, r30
#endif
         data_to_transfer --;                                                             //decrements the number of bytes to transmit.
    1a4e:	41 50       	subi	r20, 0x01	; 1
    1a50:	40 93 6f 01 	sts	0x016F, r20
         if (Is_usb_vbus_low())
            break;          
      }
              
      nb_byte=0;
      while(data_to_transfer != 0)        //!< Send data until necessary
    1a54:	40 91 6f 01 	lds	r20, 0x016F
    1a58:	44 23       	and	r20, r20
    1a5a:	49 f7       	brne	.-46     	; 0x1a2e <usb_process_request+0x108>
         Usb_write_PGM_byte(pbuffer++);          
#endif
         data_to_transfer --;                                                             //decrements the number of bytes to transmit.
      }
      
      if (Is_usb_nak_out_sent())
    1a5c:	80 91 e8 00 	lds	r24, 0x00E8
    1a60:	84 fd       	sbrc	r24, 4
    1a62:	11 c0       	rjmp	.+34     	; 0x1a86 <usb_process_request+0x160>
         break;
      if (Is_usb_vbus_low())
    1a64:	80 91 d9 00 	lds	r24, 0x00D9
    1a68:	80 ff       	sbrs	r24, 0
    1a6a:	0d c0       	rjmp	.+26     	; 0x1a86 <usb_process_request+0x160>
         break;
      Usb_send_control_in();
    1a6c:	80 91 e8 00 	lds	r24, 0x00E8
    1a70:	8e 7f       	andi	r24, 0xFE	; 254
    1a72:	80 93 e8 00 	sts	0x00E8, r24
    
   byte_to_send=0;
#if (USE_DEVICE_SN_UNIQUE==ENABLE)
   initial_data_to_transfer = data_to_transfer;
#endif
   while((data_to_transfer != 0) && (!Is_usb_nak_out_sent()))
    1a76:	80 91 6f 01 	lds	r24, 0x016F
    1a7a:	88 23       	and	r24, r24
    1a7c:	21 f0       	breq	.+8      	; 0x1a86 <usb_process_request+0x160>
    1a7e:	80 91 e8 00 	lds	r24, 0x00E8
    1a82:	84 ff       	sbrs	r24, 4
    1a84:	ce cf       	rjmp	.-100    	; 0x1a22 <usb_process_request+0xfc>
   
#if (USE_DEVICE_SN_UNIQUE==ENABLE)      
   f_get_serial_string=FALSE;                                                   //end of signature transmission    
#endif   

   if((zlp == TRUE) && (!Is_usb_nak_out_sent()))
    1a86:	31 30       	cpi	r19, 0x01	; 1
    1a88:	b9 f4       	brne	.+46     	; 0x1ab8 <usb_process_request+0x192>
    1a8a:	80 91 e8 00 	lds	r24, 0x00E8
    1a8e:	84 ff       	sbrs	r24, 4
    1a90:	05 c0       	rjmp	.+10     	; 0x1a9c <usb_process_request+0x176>
    1a92:	12 c0       	rjmp	.+36     	; 0x1ab8 <usb_process_request+0x192>
   {
      while(!Is_usb_read_control_enabled()) {if(Is_usb_vbus_low())break;}
    1a94:	80 91 d9 00 	lds	r24, 0x00D9
    1a98:	80 ff       	sbrs	r24, 0
    1a9a:	04 c0       	rjmp	.+8      	; 0x1aa4 <usb_process_request+0x17e>
    1a9c:	80 91 e8 00 	lds	r24, 0x00E8
    1aa0:	80 ff       	sbrs	r24, 0
    1aa2:	f8 cf       	rjmp	.-16     	; 0x1a94 <usb_process_request+0x16e>
      Usb_send_control_in();
    1aa4:	80 91 e8 00 	lds	r24, 0x00E8
    1aa8:	8e 7f       	andi	r24, 0xFE	; 254
    1aaa:	80 93 e8 00 	sts	0x00E8, r24
    1aae:	04 c0       	rjmp	.+8      	; 0x1ab8 <usb_process_request+0x192>
   }

   while (!(Is_usb_nak_out_sent())) {if(Is_usb_vbus_low())break;}
    1ab0:	80 91 d9 00 	lds	r24, 0x00D9
    1ab4:	80 ff       	sbrs	r24, 0
    1ab6:	04 c0       	rjmp	.+8      	; 0x1ac0 <usb_process_request+0x19a>
    1ab8:	80 91 e8 00 	lds	r24, 0x00E8
    1abc:	84 ff       	sbrs	r24, 4
    1abe:	f8 cf       	rjmp	.-16     	; 0x1ab0 <usb_process_request+0x18a>
   Usb_ack_nak_out();
    1ac0:	80 91 e8 00 	lds	r24, 0x00E8
    1ac4:	8f 7e       	andi	r24, 0xEF	; 239
    1ac6:	80 93 e8 00 	sts	0x00E8, r24
   Usb_ack_control_out();
    1aca:	80 91 e8 00 	lds	r24, 0x00E8
    1ace:	8b 7f       	andi	r24, 0xFB	; 251
    1ad0:	27 c0       	rjmp	.+78     	; 0x1b20 <usb_process_request+0x1fa>
            return;
      }
      break;

      case SETUP_GET_CONFIGURATION:
      if (USB_SETUP_GET_STAND_DEVICE == bmRequestType)
    1ad2:	10 38       	cpi	r17, 0x80	; 128
    1ad4:	09 f0       	breq	.+2      	; 0x1ad8 <usb_process_request+0x1b2>
    1ad6:	54 c1       	rjmp	.+680    	; 0x1d80 <usb_process_request+0x45a>
//! This function manages the GET CONFIGURATION request. The current
//! configuration number is returned.
//!
void usb_get_configuration(void)
{
   Usb_ack_receive_setup();
    1ad8:	80 91 e8 00 	lds	r24, 0x00E8
    1adc:	87 7f       	andi	r24, 0xF7	; 247
    1ade:	80 93 e8 00 	sts	0x00E8, r24

   Usb_write_byte(usb_configuration_nb);
    1ae2:	80 91 6e 01 	lds	r24, 0x016E
    1ae6:	80 93 f1 00 	sts	0x00F1, r24
   Usb_ack_in_ready();
    1aea:	80 91 e8 00 	lds	r24, 0x00E8
    1aee:	8e 7f       	andi	r24, 0xFE	; 254
    1af0:	80 93 e8 00 	sts	0x00E8, r24
    1af4:	80 91 e8 00 	lds	r24, 0x00E8
    1af8:	8f 77       	andi	r24, 0x7F	; 127
    1afa:	80 93 e8 00 	sts	0x00E8, r24
    1afe:	04 c0       	rjmp	.+8      	; 0x1b08 <usb_process_request+0x1e2>

   while( !Is_usb_receive_out() ){if(Is_usb_vbus_low())break;}
    1b00:	80 91 d9 00 	lds	r24, 0x00D9
    1b04:	80 ff       	sbrs	r24, 0
    1b06:	04 c0       	rjmp	.+8      	; 0x1b10 <usb_process_request+0x1ea>
    1b08:	80 91 e8 00 	lds	r24, 0x00E8
    1b0c:	82 ff       	sbrs	r24, 2
    1b0e:	f8 cf       	rjmp	.-16     	; 0x1b00 <usb_process_request+0x1da>
   Usb_ack_receive_out();
    1b10:	80 91 e8 00 	lds	r24, 0x00E8
    1b14:	8b 7f       	andi	r24, 0xFB	; 251
    1b16:	80 93 e8 00 	sts	0x00E8, r24
    1b1a:	80 91 e8 00 	lds	r24, 0x00E8
    1b1e:	8f 77       	andi	r24, 0x7F	; 127
    1b20:	80 93 e8 00 	sts	0x00E8, r24

      case SETUP_GET_CONFIGURATION:
      if (USB_SETUP_GET_STAND_DEVICE == bmRequestType)
      {
         usb_get_configuration();
         return;
    1b24:	44 c1       	rjmp	.+648    	; 0x1dae <usb_process_request+0x488>
      }
      break;

      case SETUP_SET_ADDRESS:
      if (USB_SETUP_SET_STAND_DEVICE == bmRequestType)
    1b26:	11 23       	and	r17, r17
    1b28:	09 f0       	breq	.+2      	; 0x1b2c <usb_process_request+0x206>
    1b2a:	2a c1       	rjmp	.+596    	; 0x1d80 <usb_process_request+0x45a>
//! This function manages the SET ADDRESS request. When complete, the device
//! will filter the requests using the new address.
//!
void usb_set_address(void)
{
   U8 addr = Usb_read_byte();
    1b2c:	80 91 f1 00 	lds	r24, 0x00F1
   Usb_configure_address(addr);
    1b30:	90 91 e3 00 	lds	r25, 0x00E3
    1b34:	8f 77       	andi	r24, 0x7F	; 127
    1b36:	90 78       	andi	r25, 0x80	; 128
    1b38:	89 2b       	or	r24, r25
    1b3a:	80 93 e3 00 	sts	0x00E3, r24

   Usb_ack_receive_setup();
    1b3e:	80 91 e8 00 	lds	r24, 0x00E8
    1b42:	87 7f       	andi	r24, 0xF7	; 247
    1b44:	80 93 e8 00 	sts	0x00E8, r24

   Usb_send_control_in();                    // send a ZLP for STATUS phase
    1b48:	80 91 e8 00 	lds	r24, 0x00E8
    1b4c:	8e 7f       	andi	r24, 0xFE	; 254
    1b4e:	80 93 e8 00 	sts	0x00E8, r24
    1b52:	04 c0       	rjmp	.+8      	; 0x1b5c <usb_process_request+0x236>
   while(!Is_usb_in_ready()) {if(Is_usb_vbus_low())break;} // waits for status phase done
    1b54:	80 91 d9 00 	lds	r24, 0x00D9
    1b58:	80 ff       	sbrs	r24, 0
    1b5a:	04 c0       	rjmp	.+8      	; 0x1b64 <usb_process_request+0x23e>
    1b5c:	80 91 e8 00 	lds	r24, 0x00E8
    1b60:	80 ff       	sbrs	r24, 0
    1b62:	f8 cf       	rjmp	.-16     	; 0x1b54 <usb_process_request+0x22e>
                                             // before using the new address
   Usb_enable_address();
    1b64:	80 91 e3 00 	lds	r24, 0x00E3
    1b68:	80 68       	ori	r24, 0x80	; 128
    1b6a:	80 93 e3 00 	sts	0x00E3, r24

      case SETUP_SET_ADDRESS:
      if (USB_SETUP_SET_STAND_DEVICE == bmRequestType)
      {
         usb_set_address();
         return;
    1b6e:	1f c1       	rjmp	.+574    	; 0x1dae <usb_process_request+0x488>
      }
      break;

      case SETUP_SET_CONFIGURATION:
      if (USB_SETUP_SET_STAND_DEVICE == bmRequestType)
    1b70:	11 23       	and	r17, r17
    1b72:	09 f0       	breq	.+2      	; 0x1b76 <usb_process_request+0x250>
    1b74:	05 c1       	rjmp	.+522    	; 0x1d80 <usb_process_request+0x45a>
Bool usb_set_configuration( void )
{
   U8 configuration_number;

   // Get/Check new configuration
   configuration_number = Usb_read_byte();
    1b76:	80 91 f1 00 	lds	r24, 0x00F1
   if (configuration_number > NB_CONFIGURATION)
    1b7a:	82 30       	cpi	r24, 0x02	; 2
    1b7c:	08 f0       	brcs	.+2      	; 0x1b80 <usb_process_request+0x25a>
    1b7e:	00 c1       	rjmp	.+512    	; 0x1d80 <usb_process_request+0x45a>
      return FALSE;  //  Bad configuration number then stall request
   Usb_ack_receive_setup();
    1b80:	90 91 e8 00 	lds	r25, 0x00E8
    1b84:	97 7f       	andi	r25, 0xF7	; 247
    1b86:	90 93 e8 00 	sts	0x00E8, r25
   usb_configuration_nb = configuration_number;
    1b8a:	80 93 6e 01 	sts	0x016E, r24
   
   Usb_send_control_in();                          // send a ZLP for STATUS phase
    1b8e:	90 91 e8 00 	lds	r25, 0x00E8
    1b92:	9e 7f       	andi	r25, 0xFE	; 254
    1b94:	90 93 e8 00 	sts	0x00E8, r25
   usb_user_endpoint_init(usb_configuration_nb);   // endpoint configuration
    1b98:	0e 94 1f 02 	call	0x43e	; 0x43e <usb_user_endpoint_init>
    1b9c:	08 c1       	rjmp	.+528    	; 0x1dae <usb_process_request+0x488>
{
   U8 wValue;
   U8 wIndex;
   U8 dummy;

   switch (bmRequestType)
    1b9e:	11 23       	and	r17, r17
    1ba0:	c1 f1       	breq	.+112    	; 0x1c12 <usb_process_request+0x2ec>
    1ba2:	12 30       	cpi	r17, 0x02	; 2
    1ba4:	09 f0       	breq	.+2      	; 0x1ba8 <usb_process_request+0x282>
    1ba6:	ec c0       	rjmp	.+472    	; 0x1d80 <usb_process_request+0x45a>
      case USB_SETUP_SET_STAND_INTERFACE:
      return FALSE;                    // Unknow request
      break;
      
      case USB_SETUP_SET_STAND_ENDPOINT:
      wValue = Usb_read_byte();
    1ba8:	80 91 f1 00 	lds	r24, 0x00F1
      dummy  = Usb_read_byte();
    1bac:	90 91 f1 00 	lds	r25, 0x00F1
      if (wValue != FEATURE_ENDPOINT_HALT)
    1bb0:	88 23       	and	r24, r24
    1bb2:	09 f0       	breq	.+2      	; 0x1bb6 <usb_process_request+0x290>
    1bb4:	e5 c0       	rjmp	.+458    	; 0x1d80 <usb_process_request+0x45a>
         return FALSE;                 // Unknow request
      wIndex = (Usb_read_byte() & MSK_EP_DIR);
    1bb6:	e0 91 f1 00 	lds	r30, 0x00F1
    1bba:	ef 77       	andi	r30, 0x7F	; 127
      Usb_select_endpoint(wIndex);
    1bbc:	e0 93 e9 00 	sts	0x00E9, r30
      if( !Is_usb_endpoint_enabled())
    1bc0:	80 91 eb 00 	lds	r24, 0x00EB
    1bc4:	80 ff       	sbrs	r24, 0
    1bc6:	f0 c0       	rjmp	.+480    	; 0x1da8 <usb_process_request+0x482>
      {
         Usb_select_endpoint(EP_CONTROL);
         return FALSE;              // Invalid request
      } 
      if(wIndex != EP_CONTROL)
    1bc8:	ee 23       	and	r30, r30
    1bca:	b1 f0       	breq	.+44     	; 0x1bf8 <usb_process_request+0x2d2>
      {
         Usb_disable_stall_handshake();
    1bcc:	80 91 eb 00 	lds	r24, 0x00EB
    1bd0:	80 61       	ori	r24, 0x10	; 16
    1bd2:	80 93 eb 00 	sts	0x00EB, r24
         Usb_reset_endpoint(wIndex);
    1bd6:	81 e0       	ldi	r24, 0x01	; 1
    1bd8:	90 e0       	ldi	r25, 0x00	; 0
    1bda:	0e 2e       	mov	r0, r30
    1bdc:	02 c0       	rjmp	.+4      	; 0x1be2 <usb_process_request+0x2bc>
    1bde:	88 0f       	add	r24, r24
    1be0:	99 1f       	adc	r25, r25
    1be2:	0a 94       	dec	r0
    1be4:	e2 f7       	brpl	.-8      	; 0x1bde <usb_process_request+0x2b8>
    1be6:	80 93 ea 00 	sts	0x00EA, r24
    1bea:	10 92 ea 00 	sts	0x00EA, r1
         Usb_reset_data_toggle();
    1bee:	80 91 eb 00 	lds	r24, 0x00EB
    1bf2:	88 60       	ori	r24, 0x08	; 8
    1bf4:	80 93 eb 00 	sts	0x00EB, r24
      }
      Usb_select_endpoint(EP_CONTROL);
    1bf8:	10 92 e9 00 	sts	0x00E9, r1
      endpoint_status[wIndex] = 0x00;
    1bfc:	f0 e0       	ldi	r31, 0x00	; 0
    1bfe:	e9 59       	subi	r30, 0x99	; 153
    1c00:	fe 4f       	sbci	r31, 0xFE	; 254
    1c02:	10 82       	st	Z, r1
    1c04:	30 c0       	rjmp	.+96     	; 0x1c66 <usb_process_request+0x340>
{
   U8 wValue;
   U8 wIndex;
   U8 dummy;

   switch (bmRequestType)
    1c06:	11 23       	and	r17, r17
    1c08:	21 f0       	breq	.+8      	; 0x1c12 <usb_process_request+0x2ec>
    1c0a:	12 30       	cpi	r17, 0x02	; 2
    1c0c:	09 f0       	breq	.+2      	; 0x1c10 <usb_process_request+0x2ea>
    1c0e:	b8 c0       	rjmp	.+368    	; 0x1d80 <usb_process_request+0x45a>
    1c10:	03 c0       	rjmp	.+6      	; 0x1c18 <usb_process_request+0x2f2>
   {
      case USB_SETUP_SET_STAND_DEVICE:
      wValue = Usb_read_byte();
    1c12:	80 91 f1 00 	lds	r24, 0x00F1
    1c16:	b4 c0       	rjmp	.+360    	; 0x1d80 <usb_process_request+0x45a>
      case USB_SETUP_SET_STAND_INTERFACE:
      return FALSE;                    // Unknow request
      break;

      case USB_SETUP_SET_STAND_ENDPOINT:
      wValue   = Usb_read_byte();
    1c18:	80 91 f1 00 	lds	r24, 0x00F1
      dummy    = Usb_read_byte();                //!< dummy read
    1c1c:	90 91 f1 00 	lds	r25, 0x00F1
      if (wValue != FEATURE_ENDPOINT_HALT)
    1c20:	88 23       	and	r24, r24
    1c22:	09 f0       	breq	.+2      	; 0x1c26 <usb_process_request+0x300>
    1c24:	ad c0       	rjmp	.+346    	; 0x1d80 <usb_process_request+0x45a>
         return FALSE;                 // Unknow request
      wIndex = (Usb_read_byte() & MSK_EP_DIR);
    1c26:	e0 91 f1 00 	lds	r30, 0x00F1
    1c2a:	ef 77       	andi	r30, 0x7F	; 127
      if (wIndex == EP_CONTROL)
    1c2c:	51 f4       	brne	.+20     	; 0x1c42 <usb_process_request+0x31c>
      {
         Usb_enable_stall_handshake();
    1c2e:	80 91 eb 00 	lds	r24, 0x00EB
    1c32:	80 62       	ori	r24, 0x20	; 32
    1c34:	80 93 eb 00 	sts	0x00EB, r24
         Usb_ack_receive_setup();
    1c38:	80 91 e8 00 	lds	r24, 0x00E8
    1c3c:	87 7f       	andi	r24, 0xF7	; 247
    1c3e:	80 93 e8 00 	sts	0x00E8, r24
      }
      Usb_select_endpoint(wIndex);
    1c42:	e0 93 e9 00 	sts	0x00E9, r30
      if( !Is_usb_endpoint_enabled())
    1c46:	80 91 eb 00 	lds	r24, 0x00EB
    1c4a:	80 ff       	sbrs	r24, 0
    1c4c:	ad c0       	rjmp	.+346    	; 0x1da8 <usb_process_request+0x482>
      {
         Usb_select_endpoint(EP_CONTROL);
         return FALSE;              // Invalid request
      }
      Usb_enable_stall_handshake();
    1c4e:	80 91 eb 00 	lds	r24, 0x00EB
    1c52:	80 62       	ori	r24, 0x20	; 32
    1c54:	80 93 eb 00 	sts	0x00EB, r24
      Usb_select_endpoint(EP_CONTROL);
    1c58:	10 92 e9 00 	sts	0x00E9, r1
      endpoint_status[wIndex] = 0x01;
    1c5c:	f0 e0       	ldi	r31, 0x00	; 0
    1c5e:	e9 59       	subi	r30, 0x99	; 153
    1c60:	fe 4f       	sbci	r31, 0xFE	; 254
    1c62:	81 e0       	ldi	r24, 0x01	; 1
    1c64:	80 83       	st	Z, r24
      Usb_ack_receive_setup();
    1c66:	80 91 e8 00 	lds	r24, 0x00E8
    1c6a:	87 7f       	andi	r24, 0xF7	; 247
    1c6c:	80 93 e8 00 	sts	0x00E8, r24
      Usb_send_control_in();
    1c70:	80 91 e8 00 	lds	r24, 0x00E8
    1c74:	8e 7f       	andi	r24, 0xFE	; 254
    1c76:	54 cf       	rjmp	.-344    	; 0x1b20 <usb_process_request+0x1fa>
Bool usb_get_status( U8 bmRequestType )
{
   U8 wIndex;
   U8 dummy;

   dummy    = Usb_read_byte();                 //!< dummy read
    1c78:	80 91 f1 00 	lds	r24, 0x00F1
   dummy    = Usb_read_byte();                 //!< dummy read
    1c7c:	80 91 f1 00 	lds	r24, 0x00F1
   wIndex   = Usb_read_byte();
    1c80:	e0 91 f1 00 	lds	r30, 0x00F1

   switch(bmRequestType)
    1c84:	11 38       	cpi	r17, 0x81	; 129
    1c86:	29 f0       	breq	.+10     	; 0x1c92 <usb_process_request+0x36c>
    1c88:	12 38       	cpi	r17, 0x82	; 130
    1c8a:	59 f0       	breq	.+22     	; 0x1ca2 <usb_process_request+0x37c>
    1c8c:	10 38       	cpi	r17, 0x80	; 128
    1c8e:	09 f0       	breq	.+2      	; 0x1c92 <usb_process_request+0x36c>
    1c90:	77 c0       	rjmp	.+238    	; 0x1d80 <usb_process_request+0x45a>
      Usb_ack_receive_setup();
      Usb_write_byte(device_status);
      break;

      case USB_SETUP_GET_STAND_INTERFACE:
      Usb_ack_receive_setup();
    1c92:	80 91 e8 00 	lds	r24, 0x00E8
    1c96:	87 7f       	andi	r24, 0xF7	; 247
    1c98:	80 93 e8 00 	sts	0x00E8, r24
      Usb_write_byte(0);      // Reserved - always 0
    1c9c:	10 92 f1 00 	sts	0x00F1, r1
    1ca0:	0c c0       	rjmp	.+24     	; 0x1cba <usb_process_request+0x394>
      break;

      case USB_SETUP_GET_STAND_ENDPOINT:
      Usb_ack_receive_setup();
    1ca2:	80 91 e8 00 	lds	r24, 0x00E8
    1ca6:	87 7f       	andi	r24, 0xF7	; 247
    1ca8:	80 93 e8 00 	sts	0x00E8, r24
      wIndex = wIndex & MSK_EP_DIR;
    1cac:	ef 77       	andi	r30, 0x7F	; 127
      Usb_write_byte( endpoint_status[wIndex] );
    1cae:	f0 e0       	ldi	r31, 0x00	; 0
    1cb0:	e9 59       	subi	r30, 0x99	; 153
    1cb2:	fe 4f       	sbci	r31, 0xFE	; 254
    1cb4:	80 81       	ld	r24, Z
    1cb6:	80 93 f1 00 	sts	0x00F1, r24
      break;
    
      default:
      return FALSE;
   }
   Usb_write_byte(0);
    1cba:	10 92 f1 00 	sts	0x00F1, r1

   Usb_send_control_in();
    1cbe:	80 91 e8 00 	lds	r24, 0x00E8
    1cc2:	8e 7f       	andi	r24, 0xFE	; 254
    1cc4:	80 93 e8 00 	sts	0x00E8, r24
    1cc8:	04 c0       	rjmp	.+8      	; 0x1cd2 <usb_process_request+0x3ac>
   while( !Is_usb_receive_out() ){if(Is_usb_vbus_low())break;}
    1cca:	80 91 d9 00 	lds	r24, 0x00D9
    1cce:	80 ff       	sbrs	r24, 0
    1cd0:	1f cf       	rjmp	.-450    	; 0x1b10 <usb_process_request+0x1ea>
    1cd2:	80 91 e8 00 	lds	r24, 0x00E8
    1cd6:	82 ff       	sbrs	r24, 2
    1cd8:	f8 cf       	rjmp	.-16     	; 0x1cca <usb_process_request+0x3a4>
    1cda:	1a cf       	rjmp	.-460    	; 0x1b10 <usb_process_request+0x1ea>
      if (usb_get_status(bmRequestType))
         return;
      break;

      case SETUP_GET_INTERFACE:
      if (USB_SETUP_GET_STAND_INTERFACE == bmRequestType)
    1cdc:	11 38       	cpi	r17, 0x81	; 129
    1cde:	09 f0       	breq	.+2      	; 0x1ce2 <usb_process_request+0x3bc>
    1ce0:	4f c0       	rjmp	.+158    	; 0x1d80 <usb_process_request+0x45a>
   U16   wInterface;
   U8    wValue_msb;
   U8    wValue_lsb;

   // Read wValue
   wValue_lsb = Usb_read_byte();
    1ce2:	80 91 f1 00 	lds	r24, 0x00F1
   wValue_msb = Usb_read_byte();
    1ce6:	80 91 f1 00 	lds	r24, 0x00F1
   // wValue = Alternate Setting
   // wIndex = Interface
   LSB(wInterface)=Usb_read_byte();
    1cea:	90 91 f1 00 	lds	r25, 0x00F1
    1cee:	99 83       	std	Y+1, r25	; 0x01
   MSB(wInterface)=Usb_read_byte();
    1cf0:	90 91 f1 00 	lds	r25, 0x00F1
    1cf4:	9a 83       	std	Y+2, r25	; 0x02
   if( (0!=wValue_msb) || (0!=wValue_msb) )
    1cf6:	88 23       	and	r24, r24
    1cf8:	09 f0       	breq	.+2      	; 0x1cfc <usb_process_request+0x3d6>
    1cfa:	42 c0       	rjmp	.+132    	; 0x1d80 <usb_process_request+0x45a>
      return FALSE;
   Usb_ack_receive_setup();
    1cfc:	80 91 e8 00 	lds	r24, 0x00E8
    1d00:	87 7f       	andi	r24, 0xF7	; 247
    1d02:	80 93 e8 00 	sts	0x00E8, r24
   
   Usb_write_byte( usb_user_interface_get(wInterface) );
    1d06:	89 81       	ldd	r24, Y+1	; 0x01
    1d08:	9a 81       	ldd	r25, Y+2	; 0x02
    1d0a:	0e 94 32 02 	call	0x464	; 0x464 <usb_user_interface_get>
    1d0e:	80 93 f1 00 	sts	0x00F1, r24
   Usb_send_control_in();
    1d12:	80 91 e8 00 	lds	r24, 0x00E8
    1d16:	8e 7f       	andi	r24, 0xFE	; 254
    1d18:	80 93 e8 00 	sts	0x00E8, r24
    1d1c:	04 c0       	rjmp	.+8      	; 0x1d26 <usb_process_request+0x400>

   while( !Is_usb_receive_out() ){if(Is_usb_vbus_low())break;}
    1d1e:	80 91 d9 00 	lds	r24, 0x00D9
    1d22:	80 ff       	sbrs	r24, 0
    1d24:	f5 ce       	rjmp	.-534    	; 0x1b10 <usb_process_request+0x1ea>
    1d26:	80 91 e8 00 	lds	r24, 0x00E8
    1d2a:	82 ff       	sbrs	r24, 2
    1d2c:	f8 cf       	rjmp	.-16     	; 0x1d1e <usb_process_request+0x3f8>
    1d2e:	f0 ce       	rjmp	.-544    	; 0x1b10 <usb_process_request+0x1ea>
            return;
      }
      break;

      case SETUP_SET_INTERFACE:
      if (bmRequestType == USB_SETUP_SET_STAND_INTERFACE)
    1d30:	11 30       	cpi	r17, 0x01	; 1
    1d32:	31 f5       	brne	.+76     	; 0x1d80 <usb_process_request+0x45a>
   U16   wInterface;
   U8    wValue_msb;
   U8    wValue_lsb;

   // Read wValue
   wValue_lsb = Usb_read_byte();
    1d34:	60 91 f1 00 	lds	r22, 0x00F1
   wValue_msb = Usb_read_byte();
    1d38:	80 91 f1 00 	lds	r24, 0x00F1
   // wValue = Alternate Setting
   // wIndex = Interface
   LSB(wInterface)=Usb_read_byte();
    1d3c:	90 91 f1 00 	lds	r25, 0x00F1
    1d40:	99 83       	std	Y+1, r25	; 0x01
   MSB(wInterface)=Usb_read_byte();
    1d42:	90 91 f1 00 	lds	r25, 0x00F1
    1d46:	9a 83       	std	Y+2, r25	; 0x02
   if( 0!=wValue_msb )
    1d48:	88 23       	and	r24, r24
    1d4a:	d1 f4       	brne	.+52     	; 0x1d80 <usb_process_request+0x45a>
      return FALSE;
   Usb_ack_receive_setup();
    1d4c:	80 91 e8 00 	lds	r24, 0x00E8
    1d50:	87 7f       	andi	r24, 0xF7	; 247
    1d52:	80 93 e8 00 	sts	0x00E8, r24
   
   usb_user_interface_reset(wInterface, wValue_lsb);
    1d56:	89 81       	ldd	r24, Y+1	; 0x01
    1d58:	9a 81       	ldd	r25, Y+2	; 0x02
    1d5a:	0e 94 34 02 	call	0x468	; 0x468 <usb_user_interface_reset>
   Usb_select_endpoint(EP_CONTROL);
    1d5e:	10 92 e9 00 	sts	0x00E9, r1
            
   Usb_send_control_in();
    1d62:	80 91 e8 00 	lds	r24, 0x00E8
    1d66:	8e 7f       	andi	r24, 0xFE	; 254
    1d68:	80 93 e8 00 	sts	0x00E8, r24
    1d6c:	04 c0       	rjmp	.+8      	; 0x1d76 <usb_process_request+0x450>
   while(!Is_usb_in_ready()) {if(Is_usb_vbus_low())break;}
    1d6e:	80 91 d9 00 	lds	r24, 0x00D9
    1d72:	80 ff       	sbrs	r24, 0
    1d74:	1c c0       	rjmp	.+56     	; 0x1dae <usb_process_request+0x488>
    1d76:	80 91 e8 00 	lds	r24, 0x00E8
    1d7a:	80 ff       	sbrs	r24, 0
    1d7c:	f8 cf       	rjmp	.-16     	; 0x1d6e <usb_process_request+0x448>
    1d7e:	17 c0       	rjmp	.+46     	; 0x1dae <usb_process_request+0x488>
      default:
      break;
   }

   // un-supported like standard request => call to user read request
   if( !usb_user_read_request(bmRequestType, bmRequest) )
    1d80:	81 2f       	mov	r24, r17
    1d82:	60 2f       	mov	r22, r16
    1d84:	0e 94 00 04 	call	0x800	; 0x800 <usb_user_read_request>
    1d88:	88 23       	and	r24, r24
    1d8a:	89 f4       	brne	.+34     	; 0x1dae <usb_process_request+0x488>
   {
      // Request unknow in the specific request list from interface
      // keep that order (set StallRq/clear RxSetup) or a
      // OUT request following the SETUP may be acknowledged
      Usb_enable_stall_handshake();
    1d8c:	80 91 eb 00 	lds	r24, 0x00EB
    1d90:	80 62       	ori	r24, 0x20	; 32
    1d92:	80 93 eb 00 	sts	0x00EB, r24
      Usb_ack_receive_setup();
    1d96:	80 91 e8 00 	lds	r24, 0x00E8
    1d9a:	87 7f       	andi	r24, 0xF7	; 247
    1d9c:	80 93 e8 00 	sts	0x00E8, r24
      endpoint_status[(EP_CONTROL & MSK_EP_DIR)] = 0x01;
    1da0:	81 e0       	ldi	r24, 0x01	; 1
    1da2:	80 93 67 01 	sts	0x0167, r24
    1da6:	03 c0       	rjmp	.+6      	; 0x1dae <usb_process_request+0x488>
         Usb_ack_receive_setup();
      }
      Usb_select_endpoint(wIndex);
      if( !Is_usb_endpoint_enabled())
      {
         Usb_select_endpoint(EP_CONTROL);
    1da8:	10 92 e9 00 	sts	0x00E9, r1
    1dac:	e9 cf       	rjmp	.-46     	; 0x1d80 <usb_process_request+0x45a>
      // OUT request following the SETUP may be acknowledged
      Usb_enable_stall_handshake();
      Usb_ack_receive_setup();
      endpoint_status[(EP_CONTROL & MSK_EP_DIR)] = 0x01;
   }
}
    1dae:	0f 90       	pop	r0
    1db0:	0f 90       	pop	r0
    1db2:	cf 91       	pop	r28
    1db4:	df 91       	pop	r29
    1db6:	1f 91       	pop	r17
    1db8:	0f 91       	pop	r16
    1dba:	08 95       	ret

00001dbc <usb_generate_remote_wakeup>:

//! This function manages the remote wake up generation
//!
void usb_generate_remote_wakeup(void)
{
   if(Is_pll_ready()==FALSE)
    1dbc:	09 b4       	in	r0, 0x29	; 41
    1dbe:	00 fc       	sbrc	r0, 0
    1dc0:	05 c0       	rjmp	.+10     	; 0x1dcc <usb_generate_remote_wakeup+0x10>
   {
      Pll_start_auto();
    1dc2:	8e e0       	ldi	r24, 0x0E	; 14
    1dc4:	89 bd       	out	0x29, r24	; 41
      Wait_pll_ready();
    1dc6:	09 b4       	in	r0, 0x29	; 41
    1dc8:	00 fe       	sbrs	r0, 0
    1dca:	fd cf       	rjmp	.-6      	; 0x1dc6 <usb_generate_remote_wakeup+0xa>
   }
   Usb_unfreeze_clock();
    1dcc:	80 91 d8 00 	lds	r24, 0x00D8
    1dd0:	8f 7d       	andi	r24, 0xDF	; 223
    1dd2:	80 93 d8 00 	sts	0x00D8, r24
   if (remote_wakeup_feature == ENABLED)
    1dd6:	80 91 64 01 	lds	r24, 0x0164
    1dda:	81 30       	cpi	r24, 0x01	; 1
    1ddc:	39 f4       	brne	.+14     	; 0x1dec <usb_generate_remote_wakeup+0x30>
   {
      Usb_initiate_remote_wake_up();
    1dde:	80 91 e0 00 	lds	r24, 0x00E0
    1de2:	82 60       	ori	r24, 0x02	; 2
    1de4:	80 93 e0 00 	sts	0x00E0, r24
      remote_wakeup_feature = DISABLED;
    1de8:	10 92 64 01 	sts	0x0164, r1
    1dec:	08 95       	ret

00001dee <usb_task_init>:
   #if (USB_HOST_FEATURE == ENABLED && USB_DEVICE_FEATURE == ENABLED)
   U8 delay;
   #endif

   #if (USE_USB_PADS_REGULATOR==ENABLE)  // Otherwise assume USB PADs regulator is not used
   Usb_enable_regulator();
    1dee:	e7 ed       	ldi	r30, 0xD7	; 215
    1df0:	f0 e0       	ldi	r31, 0x00	; 0
    1df2:	80 81       	ld	r24, Z
    1df4:	81 60       	ori	r24, 0x01	; 1
    1df6:	80 83       	st	Z, r24
   g_old_usb_mode=g_usb_mode;   // Store current usb mode, for mode change detection
// -----------------------------------------------------------------------------

// ---- DEVICE ONLY USB MODE ---------------------------------------------------
#elif ((USB_DEVICE_FEATURE == ENABLED)&& (USB_HOST_FEATURE == DISABLE))
   Usb_force_device_mode();
    1df8:	80 81       	ld	r24, Z
    1dfa:	8f 7b       	andi	r24, 0xBF	; 191
    1dfc:	80 83       	st	Z, r24
    1dfe:	80 81       	ld	r24, Z
    1e00:	80 68       	ori	r24, 0x80	; 128
    1e02:	80 83       	st	Z, r24
   usb_device_task_init();
    1e04:	0e 94 0e 0c 	call	0x181c	; 0x181c <usb_device_task_init>
   #error  at least one of USB_DEVICE_FEATURE or USB_HOST_FEATURE should be enabled
#endif
// -----------------------------------------------------------------------------


}
    1e08:	08 95       	ret

00001e0a <usb_task>:
  }
// -----------------------------------------------------------------------------

// ---- DEVICE ONLY USB MODE ---------------------------------------------------
#elif ((USB_DEVICE_FEATURE == ENABLED)&& (USB_HOST_FEATURE == DISABLE))
   usb_device_task();
    1e0a:	0e 94 3a 0c 	call	0x1874	; 0x1874 <usb_device_task>
   #error  at least one of USB_DEVICE_FEATURE or USB_HOST_FEATURE should be enabled
   #error  otherwise the usb task has nothing to do ...
#endif
// -----------------------------------------------------------------------------

}
    1e0e:	08 95       	ret

00001e10 <__vector_10>:
 ISR(USB_GEN_vect)
#else
