C51 COMPILER V5.50,  NVAHY                                                                 14/03/06  07:47:21  PAGE 1   


DOS C51 COMPILER V5.50, COMPILATION OF MODULE NVAHY
OBJECT MODULE PLACED IN NVAHY.OBJ
COMPILER INVOKED BY: D:\C51_V5.5\BIN\C51.EXE NVAHY.C51 CD DB

stmt level    source

   1          //*****************************************************************************
   2          //
   3          //    NVahy.c - Naslapne vahy
   4          //    Version 1.0, (c) P.Veit & VymOs
   5          //
   6          //*****************************************************************************
   7          
   8          #include "Pig.h"
   9          #include "NVahy.h"
  10          #include "Light.h"             // LED indikace
  11          #include "Beep.h"              // Piskani
  12          #include "..\inc\Ads1241s.h"   // A/D prevodnik
  13          #include "..\inc\bcd.h"        // BCD aritmetika
  14          #include "..\inc\Pca.h"        // zvuky pomoci PCA
  15          #include <math.h>
  16          
  17          //#define __DEBUG__
  18          
  19          #ifdef __DEBUG__
              #include "..\inc\El12864.h"    // Displej
              #endif
  22          
  23          // ---------------------------------------------------------------------------------------------
  24          // Zakladni parametry naslapne vahy
  25          // ---------------------------------------------------------------------------------------------
  26          
  27          #define POCATECNI_HMOTNOST_NASLAPNYCH_VAH    NOSNOST_NASLAPNYCH_VAH    // Hmotnost, kterou pri startu uloz
             -im do pole historie, aby mne to hned po startu neulozilo
  28          
  29          // ---------------------------------------------------------------------------------------------
  30          // Globalni promenne :
  31          // ---------------------------------------------------------------------------------------------
  32          
  33          TNVaha __xdata__ NVaha;
  34          
  35          static byte __xdata__ _NVahyEnable;       // YES/NO Povoleni/zakaz vazeni
  36          
  37          // ---------------------------------------------------------------------------------------------
  38          // Inicializace
  39          // ---------------------------------------------------------------------------------------------
  40          
  41          void NVahyInit( void)
  42          // Inicializace
  43          {
  44   1         _NVahyEnable = YES;       // povolit vazeni
  45   1      
  46   1         NVaha.Suma          = 0;
  47   1         NVaha.Pocet         = 0;
  48   1         NVaha.ZahoditVzorek = YES;
  49   1         NVaha.Hmotnost      = 0;
  50   1         NVaha.NovaHmotnost  = NO;
  51   1      
  52   1         NVaha.PosledniUlozenaHmotnost = 0;
  53   1      
  54   1         NVahyInitAverage();
  55   1      
  56   1         NVaha.PosledniUstalenaHmotnost = POCATECNI_HMOTNOST_NASLAPNYCH_VAH;   // Aby to hned neukladalo
  57   1         NVaha.Ustaleni = NO;
  58   1      
C51 COMPILER V5.50,  NVAHY                                                                 14/03/06  07:47:21  PAGE 2   

  59   1         NVaha.Pauza       = NO;
  60   1      
  61   1         AdcInit();          // Inicializace A/D prevodniku
  62   1         AdcStart(WEIGHT_CHANNEL);         // Start cteni na pozadi
  63   1      } // NVahyInit
  64          
  65          // ---------------------------------------------------------------------------------------------
  66          // Nastaveni klouzaveho prumeru
  67          // ---------------------------------------------------------------------------------------------
  68          
  69          void NVahyInitAverage() {
  70   1        // Inicializace klouzaveho prumeru podle konfigurace
  71   1        AverageSetLength(&NVaha.Average, Config.StabilizationTime);
  72   1        AverageClear(&NVaha.Average);
  73   1      }
  74          
  75          // ---------------------------------------------------------------------------------------------
  76          // Nastaveni pauzy
  77          // ---------------------------------------------------------------------------------------------
  78          
  79          void NVahySetPause(TYesNo NewPause) {
  80   1        // Nastaveni pauzy vahy
  81   1        NVaha.Pauza = NewPause;
  82   1        if (NewPause) {
  83   2          NVaha.Ustaleni = NO;  // Zrusim ustaleni, jinak by tam mohlo trcet zobrazene po celou dobu pauzy, i kd
             -yz by vaha nebyla ustalena
  84   2        }
  85   1      }
  86          
  87          //-----------------------------------------------------------------------------
  88          // Prepocet vahy
  89          //-----------------------------------------------------------------------------
  90          
  91          static void VypoctiHmotnostNaslapneVahy(TNVaha __xdata__ *Vaha, TKalibracePlosiny __xdata__ *KalibracePlos
             -iny)
  92          // Vypocte hmotnost naslapne vahy
  93          {
  94   1      float f;    // Musim bohuzel float
  95   1      
  96   1        // Vypoctu prumer
  97   1        Vaha->Suma += (long)(Vaha->Pocet / 2);
  98   1        Vaha->Suma /= (long)Vaha->Pocet;
  99   1      
 100   1      #ifdef __DEBUG__  // Prevod
                VymazOblastRychle(80, 6, 128, 8);
                UN.DT = Vaha->Suma;
                ZobrazCislo(128, 52, 0, 0);
              #endif
 105   1      
 106   1        Vaha->Hmotnost = KalibracePlosiny->KalibraceRozsahu - KalibracePlosiny->KalibraceNuly;   // Rozdil
 107   1        Vaha->Suma -= KalibracePlosiny->KalibraceNuly;
 108   1        f = (float)Vaha->Suma * (float)KalibracePlosiny->Rozsah / (float)Vaha->Hmotnost;
 109   1      
 110   1        // Zaokrouhleni podle dilku
 111   1        if( f >= 0){
 112   2          f += (float)KalibracePlosiny->Dilek / 2.0;
 113   2        } else {
 114   2          f -= (float)KalibracePlosiny->Dilek / 2.0;
 115   2        }//else
 116   1        Vaha->Hmotnost = f;
 117   1        // Zaokrouhleni na dilek
 118   1        if (KalibracePlosiny->Dilek > 1) {
 119   2          // Jen pokud je dilek vetsi nez 1
 120   2          Vaha->Hmotnost  = (Vaha->Hmotnost / (long)KalibracePlosiny->Dilek) * (long)KalibracePlosiny->Dilek;
 121   2        }//if
 122   1      } // VypoctiHmotnostNaslapneVahy
C51 COMPILER V5.50,  NVAHY                                                                 14/03/06  07:47:21  PAGE 3   

 123          
 124          //-----------------------------------------------------------------------------
 125          // Podminka nastupu
 126          //-----------------------------------------------------------------------------
 127          
 128          #define Nastup(Rozdil, HorniMez, DolniMez) (Rozdil <= (long)HorniMez && Rozdil >= (long)DolniMez)
 129          
 130          //-----------------------------------------------------------------------------
 131          // Automat naslapne vahy
 132          //-----------------------------------------------------------------------------
 133          
 134          static TYesNo ZkontrolujNaslapnouVahu(TNVaha *Vaha) {
 135   1        // Zkontroluje hmotnost u zadane vahy s aktualni rustovou krivkou a pokud to nekam sedne, tak hmotnost u
             -lozi do <Vaha> a vrati YES
 136   1        // Vyuziva hejno nactene v globalni promenne Hejno
 137   1        long   PrumernaHmotnost;             // Pro zrychleni
 138   1        long   RozdilHmotnosti;              // Pro zrychleni
 139   1      
 140   1        // Pridam vzorek
 141   1        AverageAdd(&Vaha->Average, Vaha->Hmotnost);
 142   1      
 143   1        // Cekam, dokud se klouzavy prumer nenaplni
 144   1        if (!AverageFull(&Vaha->Average)) {
 145   2          return NO;   // Klouzavy prumer jeste neni zaplnen
 146   2        }
 147   1      
 148   1        // Test ustaleni klouzaveho prumeru
 149   1        RozdilHmotnosti = (Config.Weighing.LowLimit + Config.Weighing.HighLimit) / 2;         // Stred
 150   1        if (!AverageSteady(&Vaha->Average, (TAverageValue)Config.StabilizationRange * (TAverageValue)RozdilHmotn
             -osti / 1000L)) {
 151   2          if (Vaha->Ustaleni) {
 152   3            // Pokud byla vaha dosud ustalena, smazu vsechny prvky, pri skokove zmene to nekdy blblo (cilova 100
             -0, ustaleni +-1.0%,
 153   3            // skok hmotnosti z 1000->1020 zpusobil oscilace ustaleni).
 154   3            AverageClear(&Vaha->Average);
 155   3            // Aktualni vzorek, ktery zpusobil neustaleni, schvalne nyni nedavam do klouzaveho prumeru, dam tam 
             -az dalsi vzorek.
 156   3          }
 157   2          Vaha->Ustaleni = NO;
 158   2          return NO;   // Vaha neni ustalena
 159   2        }
 160   1      
 161   1        // Vaha je ustalena
 162   1        if (Vaha->Ustaleni) {
 163   2          // Vaha byla ustalena i v minulem kroku, stav se nemeni a nic netestuju
 164   2          return NO;
 165   2        }
 166   1      
 167   1        // Prave doslo k ustaleni (v minulem kroku vaha ustalena nebyla, ted ano)
 168   1        Vaha->Ustaleni   = YES;                        // Nastavim flag ustaleni
 169   1        PrumernaHmotnost = AverageGetAverage(&Vaha->Average);                 // Aktualni ustalena hmotnost
 170   1        RozdilHmotnosti  = PrumernaHmotnost - Vaha->PosledniUstalenaHmotnost; // Rozdil hmotnosti
 171   1        Vaha->PosledniUstalenaHmotnost = PrumernaHmotnost;                    // Zapamatuju si ustalenou hmotnos
             -t pro dalsi krok
 172   1      
 173   1        if (!Nastup(RozdilHmotnosti, Config.Weighing.HighLimit, Config.Weighing.LowLimit)) {
 174   2          LightRedOn();       // Po ustaleni nikam hmotnost nepadla - indikuji
 175   2          return NO;          // Hmotnost nikam nepadla
 176   2        }
 177   1      
 178   1        LightGreenOn();                       // Ukladam => roznu zelenou LED
 179   1        BeepSaving(Config.SoundVolume, Config.SoundDuration);     // Pisknu ze se ulozilo
 180   1      
 181   1        Vaha->PosledniUlozenaHmotnost = RozdilHmotnosti;
 182   1        return YES;
 183   1      }  // ZkontrolujNaslapnouVahu
C51 COMPILER V5.50,  NVAHY                                                                 14/03/06  07:47:21  PAGE 4   

 184          
 185          //-----------------------------------------------------------------------------
 186          // Obsluha vsech vah
 187          //-----------------------------------------------------------------------------
 188          
 189          TYesNo NVahyObsluha( void)
 190          // Projede vsechny prevody naslapnych vah a pokud je nejaky novy prevod,
 191          // vypocte jeho hmotnost, zkontroluje, zda se ma ulozit atd.
 192          // Automaticky nastavuje promennou Zobrazit
 193          {
 194   1        NVaha.NovaHmotnost = NO;
 195   1      
 196   1        if( !_NVahyEnable){
 197   2          return NO;   // zakaz vazeni
 198   2        }
 199   1        //---------------------- odecti vahy :
 200   1        if( !AdcDataReady()){
 201   2          return NO;   // neni zmereno
 202   2        }
 203   1        // Je nacten novy platny prevod, nactu ho do sumy
 204   1        NVaha.Suma += AdcRead();
 205   1        NVaha.Pocet++;
 206   1      
 207   1        if (NVaha.Pocet < Config.Filter) {
 208   2          return NO;   // Jeste nemam nasumovany potrebny pocet vzorku
 209   2        }//if
 210   1      
 211   1        if (NVaha.ZahoditVzorek) {
 212   2          // Chce prvni namerenou hmotnost zahodit a cekat az na dalsi (kvuli zakmitum o startu)
 213   2          NVaha.ZahoditVzorek = NO;  // Shodim flag
 214   2          NVaha.Suma = 0;            // Vynuluju sumu
 215   2          NVaha.Pocet = 0;
 216   2          return NO;
 217   2        }//if
 218   1      
 219   1        // Vypocti z prevodu novou hmotnost :
 220   1        VypoctiHmotnostNaslapneVahy(&NVaha, &Kalibrace.Plosiny[Kalibrace.PouzitaPlosina]);
 221   1        // Vynuluju sumu
 222   1        NVaha.Suma = 0;
 223   1        NVaha.Pocet = 0;
 224   1      
 225   1        Zobrazit |= ZOBRAZIT_NV_HMOTNOST;
 226   1        NVaha.NovaHmotnost = YES;   // Nastavim flag, ze se nacetla nova hmotnost
 227   1      
 228   1        //---------------------- vyhodnoceni nastupu :
 229   1        if( !WeighingRunning()){
 230   2            return NO;  // Pokud se nevazi, nic nedelam
 231   2        }
 232   1        // Osetrim casove omezeni vazeni
 233   1        if (NVaha.Pauza) {
 234   2          return NO;     // Ja prave zapauzovane
 235   2        }
 236   1        // Obslouzim vahu
 237   1        return ZkontrolujNaslapnouVahu( &NVaha);        // Zkontroluje novou hmotnost
 238   1      } // NVahyObsluha
 239          
 240          //-----------------------------------------------------------------------------
 241          // Povoleni / zakaz vazeni
 242          //-----------------------------------------------------------------------------
 243          
 244          void NVahyEnable( void)
 245          // Povoleni vazeni
 246          {
 247   1         _NVahyEnable = YES;
 248   1      
 249   1         // Inicializuji i stav vahy - mohlo se tam udat kde co
C51 COMPILER V5.50,  NVAHY                                                                 14/03/06  07:47:21  PAGE 5   

 250   1         NVaha.ZahoditVzorek = YES;
 251   1         AverageClear(&NVaha.Average);
 252   1      //   NVaha.Stav          = STAV_NV_INICIALIZACE;  // Inicializuj stav naslapnych vah
 253   1      //   NVaha.DobaCekani    = 0;
 254   1      
 255   1         AdcStop();          // pro jistotu restart
 256   1         AdcStart(WEIGHT_CHANNEL);
 257   1      } // NVahyEnable
 258          
 259          void NVahyDisable( void)
 260          // Zakaz vazeni
 261          {
 262   1         _NVahyEnable = NO;
 263   1      } // NVahyDisable
 264          
C51 COMPILER V5.50,  NVAHY                                                                 14/03/06  07:47:21  PAGE 6   

ASSEMBLY LISTING OF GENERATED OBJECT CODE


             ; FUNCTION NVahyInit (BEGIN)
                                           ; SOURCE LINE # 41
                                           ; SOURCE LINE # 43
                                           ; SOURCE LINE # 44
0000 900000  R     MOV     DPTR,#_NVahyEnable
0003 7401          MOV     A,#01H
0005 F0            MOVX    @DPTR,A
                                           ; SOURCE LINE # 46
0006 A3            INC     DPTR
0007 120000  E     LCALL   ?C?LSTKXDATA
000A 00            DB      #00H
000B 00            DB      #00H
000C 00            DB      #00H
000D 00            DB      #00H
                                           ; SOURCE LINE # 47
000E E4            CLR     A
000F 900000  R     MOV     DPTR,#NVaha+04H
0012 F0            MOVX    @DPTR,A
                                           ; SOURCE LINE # 48
0013 A3            INC     DPTR
0014 04            INC     A
0015 F0            MOVX    @DPTR,A
                                           ; SOURCE LINE # 49
0016 A3            INC     DPTR
0017 120000  E     LCALL   ?C?LSTKXDATA
001A 00            DB      #00H
001B 00            DB      #00H
001C 00            DB      #00H
001D 00            DB      #00H
                                           ; SOURCE LINE # 50
001E E4            CLR     A
001F 900000  R     MOV     DPTR,#NVaha+0AH
0022 F0            MOVX    @DPTR,A
                                           ; SOURCE LINE # 52
0023 A3            INC     DPTR
0024 120000  E     LCALL   ?C?LSTKXDATA
0027 00            DB      #00H
0028 00            DB      #00H
0029 00            DB      #00H
002A 00            DB      #00H
                                           ; SOURCE LINE # 54
002B 120000  R     LCALL   NVahyInitAverage
                                           ; SOURCE LINE # 56
002E 900000  R     MOV     DPTR,#NVaha+035H
0031 120000  E     LCALL   ?C?LSTKXDATA
0034 00            DB      #00H
0035 01            DB      #01H
0036 86            DB      #086H
0037 9F            DB      #09FH
                                           ; SOURCE LINE # 57
0038 E4            CLR     A
0039 900000  R     MOV     DPTR,#NVaha+039H
003C F0            MOVX    @DPTR,A
                                           ; SOURCE LINE # 59
003D A3            INC     DPTR
003E F0            MOVX    @DPTR,A
                                           ; SOURCE LINE # 61
003F 120000  E     LCALL   AdcInit
                                           ; SOURCE LINE # 62
0042 E4            CLR     A
0043 FF            MOV     R7,A
0044 120000  E     LCALL   _AdcStart
                                           ; SOURCE LINE # 63
C51 COMPILER V5.50,  NVAHY                                                                 14/03/06  07:47:21  PAGE 7   

0047 22            RET     
             ; FUNCTION NVahyInit (END)

             ; FUNCTION NVahyInitAverage (BEGIN)
                                           ; SOURCE LINE # 69
                                           ; SOURCE LINE # 71
0000 7E00    R     MOV     R6,#HIGH NVaha+0FH
0002 7F00    R     MOV     R7,#LOW NVaha+0FH
0004 900000  E     MOV     DPTR,#Config+06H
0007 E0            MOVX    A,@DPTR
0008 FD            MOV     R5,A
0009 120000  E     LCALL   _AverageSetLength
                                           ; SOURCE LINE # 72
000C 7E00    R     MOV     R6,#HIGH NVaha+0FH
000E 7F00    R     MOV     R7,#LOW NVaha+0FH
0010 120000  E     LCALL   _AverageClear
                                           ; SOURCE LINE # 73
0013 22            RET     
             ; FUNCTION NVahyInitAverage (END)

             ; FUNCTION NVahySetPause (BEGIN)
                                           ; SOURCE LINE # 79
                                           ; SOURCE LINE # 81
0000 A200    R     MOV     C,NewPause
0002 E4            CLR     A
0003 33            RLC     A
0004 900000  R     MOV     DPTR,#NVaha+03AH
0007 F0            MOVX    @DPTR,A
                                           ; SOURCE LINE # 82
0008 300005  R     JNB     NewPause,?C0004
                                           ; SOURCE LINE # 83
000B E4            CLR     A
000C 900000  R     MOV     DPTR,#NVaha+039H
000F F0            MOVX    @DPTR,A
                                           ; SOURCE LINE # 84
                                           ; SOURCE LINE # 85
0010         ?C0004:
0010 22            RET     
             ; FUNCTION NVahySetPause (END)

             ; FUNCTION _VypoctiHmotnostNaslapneVahy (BEGIN)
0000 8E00    R     MOV     Vaha,R6
0002 8F00    R     MOV     Vaha+01H,R7
0004 8C00    R     MOV     KalibracePlosiny,R4
0006 8D00    R     MOV     KalibracePlosiny+01H,R5
                                           ; SOURCE LINE # 91
                                           ; SOURCE LINE # 93
                                           ; SOURCE LINE # 97
0008 8F82          MOV     DPL,R7
000A 8E83          MOV     DPH,R6
000C C083          PUSH    DPH
000E C082          PUSH    DPL
0010 E0            MOVX    A,@DPTR
0011 F8            MOV     R0,A
0012 A3            INC     DPTR
0013 E0            MOVX    A,@DPTR
0014 F9            MOV     R1,A
0015 A3            INC     DPTR
0016 E0            MOVX    A,@DPTR
0017 FA            MOV     R2,A
0018 A3            INC     DPTR
0019 E0            MOVX    A,@DPTR
001A FB            MOV     R3,A
001B 8F82          MOV     DPL,R7
001D 8E83          MOV     DPH,R6
001F E582          MOV     A,DPL
C51 COMPILER V5.50,  NVAHY                                                                 14/03/06  07:47:21  PAGE 8   

0021 2404          ADD     A,#04H
0023 F582          MOV     DPL,A
0025 E4            CLR     A
0026 3583          ADDC    A,DPH
0028 F583          MOV     DPH,A
002A E0            MOVX    A,@DPTR
002B FF            MOV     R7,A
002C C3            CLR     C
002D 13            RRC     A
002E FF            MOV     R7,A
002F E4            CLR     A
0030 FC            MOV     R4,A
0031 FD            MOV     R5,A
0032 FE            MOV     R6,A
0033 EB            MOV     A,R3
0034 2F            ADD     A,R7
0035 FF            MOV     R7,A
0036 EE            MOV     A,R6
0037 3A            ADDC    A,R2
0038 FE            MOV     R6,A
0039 ED            MOV     A,R5
003A 39            ADDC    A,R1
003B FD            MOV     R5,A
003C EC            MOV     A,R4
003D 38            ADDC    A,R0
003E FC            MOV     R4,A
003F D082          POP     DPL
0041 D083          POP     DPH
0043 120000  E     LCALL   ?C?LSTXDATA
                                           ; SOURCE LINE # 98
0046 850082  R     MOV     DPL,Vaha+01H
0049 850083  R     MOV     DPH,Vaha
004C C083          PUSH    DPH
004E C082          PUSH    DPL
0050 E0            MOVX    A,@DPTR
0051 FC            MOV     R4,A
0052 A3            INC     DPTR
0053 E0            MOVX    A,@DPTR
0054 FD            MOV     R5,A
0055 A3            INC     DPTR
0056 E0            MOVX    A,@DPTR
0057 FE            MOV     R6,A
0058 A3            INC     DPTR
0059 E0            MOVX    A,@DPTR
005A FF            MOV     R7,A
005B C004          PUSH    AR4
005D C005          PUSH    AR5
005F C006          PUSH    AR6
0061 C007          PUSH    AR7
0063 E500    R     MOV     A,Vaha+01H
0065 2404          ADD     A,#04H
0067 F582          MOV     DPL,A
0069 E4            CLR     A
006A 3500    R     ADDC    A,Vaha
006C F583          MOV     DPH,A
006E E0            MOVX    A,@DPTR
006F FF            MOV     R7,A
0070 E4            CLR     A
0071 FC            MOV     R4,A
0072 FD            MOV     R5,A
0073 FE            MOV     R6,A
0074 F8            MOV     R0,A
0075 F9            MOV     R1,A
0076 FA            MOV     R2,A
0077 AB07          MOV     R3,AR7
0079 D007          POP     AR7
C51 COMPILER V5.50,  NVAHY                                                                 14/03/06  07:47:21  PAGE 9   

007B D006          POP     AR6
007D D005          POP     AR5
007F D004          POP     AR4
0081 120000  E     LCALL   ?C?SLDIV
0084 D082          POP     DPL
0086 D083          POP     DPH
0088 120000  E     LCALL   ?C?LSTXDATA
                                           ; SOURCE LINE # 106
008B 850082  R     MOV     DPL,KalibracePlosiny+01H
008E 850083  R     MOV     DPH,KalibracePlosiny
0091 E0            MOVX    A,@DPTR
0092 F8            MOV     R0,A
0093 A3            INC     DPTR
0094 E0            MOVX    A,@DPTR
0095 F9            MOV     R1,A
0096 A3            INC     DPTR
0097 E0            MOVX    A,@DPTR
0098 FA            MOV     R2,A
0099 A3            INC     DPTR
009A E0            MOVX    A,@DPTR
009B FB            MOV     R3,A
009C E500    R     MOV     A,KalibracePlosiny+01H
009E 2404          ADD     A,#04H
00A0 F582          MOV     DPL,A
00A2 E4            CLR     A
00A3 3500    R     ADDC    A,KalibracePlosiny
00A5 F583          MOV     DPH,A
00A7 E0            MOVX    A,@DPTR
00A8 FC            MOV     R4,A
00A9 A3            INC     DPTR
00AA E0            MOVX    A,@DPTR
00AB FD            MOV     R5,A
00AC A3            INC     DPTR
00AD E0            MOVX    A,@DPTR
00AE FE            MOV     R6,A
00AF A3            INC     DPTR
00B0 E0            MOVX    A,@DPTR
00B1 C3            CLR     C
00B2 9B            SUBB    A,R3
00B3 FF            MOV     R7,A
00B4 EE            MOV     A,R6
00B5 9A            SUBB    A,R2
00B6 FE            MOV     R6,A
00B7 ED            MOV     A,R5
00B8 99            SUBB    A,R1
00B9 FD            MOV     R5,A
00BA EC            MOV     A,R4
00BB 98            SUBB    A,R0
00BC FC            MOV     R4,A
00BD E500    R     MOV     A,Vaha+01H
00BF 2406          ADD     A,#06H
00C1 F582          MOV     DPL,A
00C3 E4            CLR     A
00C4 3500    R     ADDC    A,Vaha
00C6 F583          MOV     DPH,A
00C8 120000  E     LCALL   ?C?LSTXDATA
                                           ; SOURCE LINE # 107
00CB 850082  R     MOV     DPL,Vaha+01H
00CE 850083  R     MOV     DPH,Vaha
00D1 C083          PUSH    DPH
00D3 C082          PUSH    DPL
00D5 E0            MOVX    A,@DPTR
00D6 FC            MOV     R4,A
00D7 A3            INC     DPTR
00D8 E0            MOVX    A,@DPTR
00D9 FD            MOV     R5,A
C51 COMPILER V5.50,  NVAHY                                                                 14/03/06  07:47:21  PAGE 10  

00DA A3            INC     DPTR
00DB E0            MOVX    A,@DPTR
00DC FE            MOV     R6,A
00DD A3            INC     DPTR
00DE E0            MOVX    A,@DPTR
00DF FF            MOV     R7,A
00E0 850082  R     MOV     DPL,KalibracePlosiny+01H
00E3 850083  R     MOV     DPH,KalibracePlosiny
00E6 E0            MOVX    A,@DPTR
00E7 F8            MOV     R0,A
00E8 A3            INC     DPTR
00E9 E0            MOVX    A,@DPTR
00EA F9            MOV     R1,A
00EB A3            INC     DPTR
00EC E0            MOVX    A,@DPTR
00ED FA            MOV     R2,A
00EE A3            INC     DPTR
00EF E0            MOVX    A,@DPTR
00F0 FB            MOV     R3,A
00F1 C3            CLR     C
00F2 EF            MOV     A,R7
00F3 9B            SUBB    A,R3
00F4 FF            MOV     R7,A
00F5 EE            MOV     A,R6
00F6 9A            SUBB    A,R2
00F7 FE            MOV     R6,A
00F8 ED            MOV     A,R5
00F9 99            SUBB    A,R1
00FA FD            MOV     R5,A
00FB EC            MOV     A,R4
00FC 98            SUBB    A,R0
00FD FC            MOV     R4,A
00FE D082          POP     DPL
0100 D083          POP     DPH
0102 120000  E     LCALL   ?C?LSTXDATA
                                           ; SOURCE LINE # 108
0105 E500    R     MOV     A,KalibracePlosiny+01H
0107 2408          ADD     A,#08H
0109 F582          MOV     DPL,A
010B E4            CLR     A
010C 3500    R     ADDC    A,KalibracePlosiny
010E F583          MOV     DPH,A
0110 E0            MOVX    A,@DPTR
0111 FC            MOV     R4,A
0112 A3            INC     DPTR
0113 E0            MOVX    A,@DPTR
0114 FD            MOV     R5,A
0115 A3            INC     DPTR
0116 E0            MOVX    A,@DPTR
0117 FE            MOV     R6,A
0118 A3            INC     DPTR
0119 E0            MOVX    A,@DPTR
011A FF            MOV     R7,A
011B EC            MOV     A,R4
011C 120000  E     LCALL   ?C?FCASTL
011F C004          PUSH    AR4
0121 C005          PUSH    AR5
0123 C006          PUSH    AR6
0125 C007          PUSH    AR7
0127 850082  R     MOV     DPL,Vaha+01H
012A 850083  R     MOV     DPH,Vaha
012D E0            MOVX    A,@DPTR
012E FC            MOV     R4,A
012F A3            INC     DPTR
0130 E0            MOVX    A,@DPTR
0131 FD            MOV     R5,A
C51 COMPILER V5.50,  NVAHY                                                                 14/03/06  07:47:21  PAGE 11  

0132 A3            INC     DPTR
0133 E0            MOVX    A,@DPTR
0134 FE            MOV     R6,A
0135 A3            INC     DPTR
0136 E0            MOVX    A,@DPTR
0137 FF            MOV     R7,A
0138 EC            MOV     A,R4
0139 120000  E     LCALL   ?C?FCASTL
013C D003          POP     AR3
013E D002          POP     AR2
0140 D001          POP     AR1
0142 D000          POP     AR0
0144 120000  E     LCALL   ?C?FPMUL
0147 C004          PUSH    AR4
0149 C005          PUSH    AR5
014B C006          PUSH    AR6
014D C007          PUSH    AR7
014F E500    R     MOV     A,Vaha+01H
0151 2406          ADD     A,#06H
0153 F582          MOV     DPL,A
0155 E4            CLR     A
0156 3500    R     ADDC    A,Vaha
0158 F583          MOV     DPH,A
015A E0            MOVX    A,@DPTR
015B FC            MOV     R4,A
015C A3            INC     DPTR
015D E0            MOVX    A,@DPTR
015E FD            MOV     R5,A
015F A3            INC     DPTR
0160 E0            MOVX    A,@DPTR
0161 FE            MOV     R6,A
0162 A3            INC     DPTR
0163 E0            MOVX    A,@DPTR
0164 FF            MOV     R7,A
0165 EC            MOV     A,R4
0166 120000  E     LCALL   ?C?FCASTL
0169 A804          MOV     R0,AR4
016B A905          MOV     R1,AR5
016D AA06          MOV     R2,AR6
016F AB07          MOV     R3,AR7
0171 D007          POP     AR7
0173 D006          POP     AR6
0175 D005          POP     AR5
0177 D004          POP     AR4
0179 120000  E     LCALL   ?C?FPDIV
017C 8F00    R     MOV     f+03H,R7
017E 8E00    R     MOV     f+02H,R6
0180 8D00    R     MOV     f+01H,R5
0182 8C00    R     MOV     f,R4
                                           ; SOURCE LINE # 111
0184 7F00          MOV     R7,#00H
0186 7E00          MOV     R6,#00H
0188 7D00          MOV     R5,#00H
018A 7C00          MOV     R4,#00H
018C AB00    R     MOV     R3,f+03H
018E AA00    R     MOV     R2,f+02H
0190 A900    R     MOV     R1,f+01H
0192 A800    R     MOV     R0,f
0194 120000  E     LCALL   ?C?FPCMP3
0197 4041          JC      ?C0005
                                           ; SOURCE LINE # 112
0199 AB00    R     MOV     R3,f+03H
019B AA00    R     MOV     R2,f+02H
019D A900    R     MOV     R1,f+01H
019F A800    R     MOV     R0,f
01A1 C000          PUSH    AR0
C51 COMPILER V5.50,  NVAHY                                                                 14/03/06  07:47:21  PAGE 12  

01A3 C001          PUSH    AR1
01A5 C002          PUSH    AR2
01A7 C003          PUSH    AR3
01A9 E500    R     MOV     A,KalibracePlosiny+01H
01AB 240C          ADD     A,#0CH
01AD F582          MOV     DPL,A
01AF E4            CLR     A
01B0 3500    R     ADDC    A,KalibracePlosiny
01B2 F583          MOV     DPH,A
01B4 E0            MOVX    A,@DPTR
01B5 FC            MOV     R4,A
01B6 E4            CLR     A
01B7 120000  E     LCALL   ?C?FCASTC
01BA 7B00          MOV     R3,#00H
01BC 7A00          MOV     R2,#00H
01BE 7900          MOV     R1,#00H
01C0 7840          MOV     R0,#040H
01C2 120000  E     LCALL   ?C?FPDIV
01C5 D003          POP     AR3
01C7 D002          POP     AR2
01C9 D001          POP     AR1
01CB D000          POP     AR0
01CD 120000  E     LCALL   ?C?FPADD
01D0 8F00    R     MOV     f+03H,R7
01D2 8E00    R     MOV     f+02H,R6
01D4 8D00    R     MOV     f+01H,R5
01D6 8C00    R     MOV     f,R4
                                           ; SOURCE LINE # 113
01D8 8047          SJMP    ?C0006
01DA         ?C0005:
                                           ; SOURCE LINE # 114
01DA AF00    R     MOV     R7,f+03H
01DC AE00    R     MOV     R6,f+02H
01DE AD00    R     MOV     R5,f+01H
01E0 AC00    R     MOV     R4,f
01E2 C004          PUSH    AR4
01E4 C005          PUSH    AR5
01E6 C006          PUSH    AR6
01E8 C007          PUSH    AR7
01EA E500    R     MOV     A,KalibracePlosiny+01H
01EC 240C          ADD     A,#0CH
01EE F582          MOV     DPL,A
01F0 E4            CLR     A
01F1 3500    R     ADDC    A,KalibracePlosiny
01F3 F583          MOV     DPH,A
01F5 E0            MOVX    A,@DPTR
01F6 FC            MOV     R4,A
01F7 E4            CLR     A
01F8 120000  E     LCALL   ?C?FCASTC
01FB 7B00          MOV     R3,#00H
01FD 7A00          MOV     R2,#00H
01FF 7900          MOV     R1,#00H
0201 7840          MOV     R0,#040H
0203 120000  E     LCALL   ?C?FPDIV
0206 A804          MOV     R0,AR4
0208 A905          MOV     R1,AR5
020A AA06          MOV     R2,AR6
020C AB07          MOV     R3,AR7
020E D007          POP     AR7
0210 D006          POP     AR6
0212 D005          POP     AR5
0214 D004          POP     AR4
0216 120000  E     LCALL   ?C?FPSUB
0219 8F00    R     MOV     f+03H,R7
021B 8E00    R     MOV     f+02H,R6
021D 8D00    R     MOV     f+01H,R5
C51 COMPILER V5.50,  NVAHY                                                                 14/03/06  07:47:21  PAGE 13  

021F 8C00    R     MOV     f,R4
                                           ; SOURCE LINE # 115
0221         ?C0006:
                                           ; SOURCE LINE # 116
0221 AF00    R     MOV     R7,f+03H
0223 AE00    R     MOV     R6,f+02H
0225 AD00    R     MOV     R5,f+01H
0227 AC00    R     MOV     R4,f
0229 120000  E     LCALL   ?C?CASTF
022C E500    R     MOV     A,Vaha+01H
022E 2406          ADD     A,#06H
0230 F582          MOV     DPL,A
0232 E4            CLR     A
0233 3500    R     ADDC    A,Vaha
0235 F583          MOV     DPH,A
0237 120000  E     LCALL   ?C?LSTXDATA
                                           ; SOURCE LINE # 118
023A E500    R     MOV     A,KalibracePlosiny+01H
023C 240C          ADD     A,#0CH
023E F582          MOV     DPL,A
0240 E4            CLR     A
0241 3500    R     ADDC    A,KalibracePlosiny
0243 F583          MOV     DPH,A
0245 E0            MOVX    A,@DPTR
0246 FF            MOV     R7,A
0247 D3            SETB    C
0248 9401          SUBB    A,#01H
024A 404F          JC      ?C0008
                                           ; SOURCE LINE # 120
024C E4            CLR     A
024D FC            MOV     R4,A
024E FD            MOV     R5,A
024F FE            MOV     R6,A
0250 A804          MOV     R0,AR4
0252 A905          MOV     R1,AR5
0254 AA06          MOV     R2,AR6
0256 AB07          MOV     R3,AR7
0258 E500    R     MOV     A,Vaha+01H
025A 2406          ADD     A,#06H
025C F582          MOV     DPL,A
025E E4            CLR     A
025F 3500    R     ADDC    A,Vaha
0261 F583          MOV     DPH,A
0263 E0            MOVX    A,@DPTR
0264 FC            MOV     R4,A
0265 A3            INC     DPTR
0266 E0            MOVX    A,@DPTR
0267 FD            MOV     R5,A
0268 A3            INC     DPTR
0269 E0            MOVX    A,@DPTR
026A FE            MOV     R6,A
026B A3            INC     DPTR
026C E0            MOVX    A,@DPTR
026D FF            MOV     R7,A
026E 120000  E     LCALL   ?C?SLDIV
0271 A804          MOV     R0,AR4
0273 A905          MOV     R1,AR5
0275 AA06          MOV     R2,AR6
0277 AB07          MOV     R3,AR7
0279 E500    R     MOV     A,KalibracePlosiny+01H
027B 240C          ADD     A,#0CH
027D F582          MOV     DPL,A
027F E4            CLR     A
0280 3500    R     ADDC    A,KalibracePlosiny
0282 F583          MOV     DPH,A
0284 E0            MOVX    A,@DPTR
C51 COMPILER V5.50,  NVAHY                                                                 14/03/06  07:47:21  PAGE 14  

0285 FF            MOV     R7,A
0286 E4            CLR     A
0287 FC            MOV     R4,A
0288 FD            MOV     R5,A
0289 FE            MOV     R6,A
028A 120000  E     LCALL   ?C?LMUL
028D E500    R     MOV     A,Vaha+01H
028F 2406          ADD     A,#06H
0291 F582          MOV     DPL,A
0293 E4            CLR     A
0294 3500    R     ADDC    A,Vaha
0296 F583          MOV     DPH,A
0298 120000  E     LCALL   ?C?LSTXDATA
                                           ; SOURCE LINE # 121
                                           ; SOURCE LINE # 122
029B         ?C0008:
029B 22            RET     
             ; FUNCTION _VypoctiHmotnostNaslapneVahy (END)

             ; FUNCTION _ZkontrolujNaslapnouVahu (BEGIN)
0000 8B00    R     MOV     Vaha,R3
0002 8A00    R     MOV     Vaha+01H,R2
0004 8900    R     MOV     Vaha+02H,R1
                                           ; SOURCE LINE # 134
                                           ; SOURCE LINE # 141
0006 E9            MOV     A,R1
0007 240F          ADD     A,#0FH
0009 F9            MOV     R1,A
000A E4            CLR     A
000B 3A            ADDC    A,R2
000C FE            MOV     R6,A
000D AF01          MOV     R7,AR1
000F C006          PUSH    AR6
0011 C007          PUSH    AR7
0013 A900    R     MOV     R1,Vaha+02H
0015 900006        MOV     DPTR,#06H
0018 120000  E     LCALL   ?C?LLDOPTR
001B 8F00    E     MOV     ?_AverageAdd?BYTE+05H,R7
001D 8E00    E     MOV     ?_AverageAdd?BYTE+04H,R6
001F 8D00    E     MOV     ?_AverageAdd?BYTE+03H,R5
0021 8C00    E     MOV     ?_AverageAdd?BYTE+02H,R4
0023 D007          POP     AR7
0025 D006          POP     AR6
0027 120000  E     LCALL   _AverageAdd
                                           ; SOURCE LINE # 144
002A E500    R     MOV     A,Vaha+02H
002C 240F          ADD     A,#0FH
002E F9            MOV     R1,A
002F E4            CLR     A
0030 3500    R     ADDC    A,Vaha+01H
0032 FE            MOV     R6,A
0033 AF01          MOV     R7,AR1
0035 120000  E     LCALL   _AverageFull
0038 4002          JC      ?C0009
                                           ; SOURCE LINE # 145
003A C3            CLR     C
003B 22            RET     
                                           ; SOURCE LINE # 146
003C         ?C0009:
                                           ; SOURCE LINE # 149
003C 900000  E     MOV     DPTR,#Config+017H
003F E0            MOVX    A,@DPTR
0040 FC            MOV     R4,A
0041 A3            INC     DPTR
0042 E0            MOVX    A,@DPTR
0043 FD            MOV     R5,A
C51 COMPILER V5.50,  NVAHY                                                                 14/03/06  07:47:21  PAGE 15  

0044 A3            INC     DPTR
0045 E0            MOVX    A,@DPTR
0046 FE            MOV     R6,A
0047 A3            INC     DPTR
0048 E0            MOVX    A,@DPTR
0049 FF            MOV     R7,A
004A 900000  E     MOV     DPTR,#Config+013H
004D E0            MOVX    A,@DPTR
004E F8            MOV     R0,A
004F A3            INC     DPTR
0050 E0            MOVX    A,@DPTR
0051 F9            MOV     R1,A
0052 A3            INC     DPTR
0053 E0            MOVX    A,@DPTR
0054 FA            MOV     R2,A
0055 A3            INC     DPTR
0056 E0            MOVX    A,@DPTR
0057 2F            ADD     A,R7
0058 FF            MOV     R7,A
0059 EA            MOV     A,R2
005A 3E            ADDC    A,R6
005B FE            MOV     R6,A
005C E9            MOV     A,R1
005D 3D            ADDC    A,R5
005E FD            MOV     R5,A
005F E8            MOV     A,R0
0060 3C            ADDC    A,R4
0061 FC            MOV     R4,A
0062 7B02          MOV     R3,#02H
0064 7A00          MOV     R2,#00H
0066 7900          MOV     R1,#00H
0068 7800          MOV     R0,#00H
006A 120000  E     LCALL   ?C?SLDIV
006D 8F00    R     MOV     RozdilHmotnosti+03H,R7
006F 8E00    R     MOV     RozdilHmotnosti+02H,R6
0071 8D00    R     MOV     RozdilHmotnosti+01H,R5
0073 8C00    R     MOV     RozdilHmotnosti,R4
                                           ; SOURCE LINE # 150
0075 E500    R     MOV     A,Vaha+02H
0077 240F          ADD     A,#0FH
0079 F9            MOV     R1,A
007A E4            CLR     A
007B 3500    R     ADDC    A,Vaha+01H
007D FE            MOV     R6,A
007E AF01          MOV     R7,AR1
0080 C006          PUSH    AR6
0082 C007          PUSH    AR7
0084 900000  E     MOV     DPTR,#Config+05H
0087 E0            MOVX    A,@DPTR
0088 FF            MOV     R7,A
0089 E4            CLR     A
008A FC            MOV     R4,A
008B FD            MOV     R5,A
008C FE            MOV     R6,A
008D AB00    R     MOV     R3,RozdilHmotnosti+03H
008F AA00    R     MOV     R2,RozdilHmotnosti+02H
0091 A900    R     MOV     R1,RozdilHmotnosti+01H
0093 A800    R     MOV     R0,RozdilHmotnosti
0095 120000  E     LCALL   ?C?LMUL
0098 7BE8          MOV     R3,#0E8H
009A 7A03          MOV     R2,#03H
009C 7900          MOV     R1,#00H
009E 7800          MOV     R0,#00H
00A0 120000  E     LCALL   ?C?SLDIV
00A3 8F00    E     MOV     ?_AverageSteady?BYTE+05H,R7
00A5 8E00    E     MOV     ?_AverageSteady?BYTE+04H,R6
C51 COMPILER V5.50,  NVAHY                                                                 14/03/06  07:47:21  PAGE 16  

00A7 8D00    E     MOV     ?_AverageSteady?BYTE+03H,R5
00A9 8C00    E     MOV     ?_AverageSteady?BYTE+02H,R4
00AB D007          POP     AR7
00AD D006          POP     AR6
00AF 120000  E     LCALL   _AverageSteady
00B2 4029          JC      ?C0011
                                           ; SOURCE LINE # 151
00B4 AB00    R     MOV     R3,Vaha
00B6 AA00    R     MOV     R2,Vaha+01H
00B8 A900    R     MOV     R1,Vaha+02H
00BA 900039        MOV     DPTR,#039H
00BD 120000  E     LCALL   ?C?CLDOPTR
00C0 600C          JZ      ?C0012
                                           ; SOURCE LINE # 154
00C2 E9            MOV     A,R1
00C3 240F          ADD     A,#0FH
00C5 F9            MOV     R1,A
00C6 E4            CLR     A
00C7 3A            ADDC    A,R2
00C8 FE            MOV     R6,A
00C9 AF01          MOV     R7,AR1
00CB 120000  E     LCALL   _AverageClear
                                           ; SOURCE LINE # 156
00CE         ?C0012:
                                           ; SOURCE LINE # 157
00CE AB00    R     MOV     R3,Vaha
00D0 AA00    R     MOV     R2,Vaha+01H
00D2 A900    R     MOV     R1,Vaha+02H
00D4 900039        MOV     DPTR,#039H
00D7 E4            CLR     A
00D8 120000  E     LCALL   ?C?CSTOPTR
                                           ; SOURCE LINE # 158
00DB C3            CLR     C
00DC 22            RET     
                                           ; SOURCE LINE # 159
00DD         ?C0011:
                                           ; SOURCE LINE # 162
00DD AB00    R     MOV     R3,Vaha
00DF AA00    R     MOV     R2,Vaha+01H
00E1 A900    R     MOV     R1,Vaha+02H
00E3 900039        MOV     DPTR,#039H
00E6 120000  E     LCALL   ?C?CLDOPTR
00E9 6002          JZ      ?C0013
                                           ; SOURCE LINE # 164
00EB C3            CLR     C
00EC 22            RET     
                                           ; SOURCE LINE # 165
00ED         ?C0013:
                                           ; SOURCE LINE # 168
00ED 900039        MOV     DPTR,#039H
00F0 7401          MOV     A,#01H
00F2 120000  E     LCALL   ?C?CSTOPTR
                                           ; SOURCE LINE # 169
00F5 E9            MOV     A,R1
00F6 240F          ADD     A,#0FH
00F8 F9            MOV     R1,A
00F9 E4            CLR     A
00FA 3A            ADDC    A,R2
00FB FE            MOV     R6,A
00FC AF01          MOV     R7,AR1
00FE 120000  E     LCALL   _AverageGetAverage
0101 8F00    R     MOV     PrumernaHmotnost+03H,R7
0103 8E00    R     MOV     PrumernaHmotnost+02H,R6
0105 8D00    R     MOV     PrumernaHmotnost+01H,R5
0107 8C00    R     MOV     PrumernaHmotnost,R4
                                           ; SOURCE LINE # 170
C51 COMPILER V5.50,  NVAHY                                                                 14/03/06  07:47:21  PAGE 17  

0109 AB00    R     MOV     R3,Vaha
010B AA00    R     MOV     R2,Vaha+01H
010D A900    R     MOV     R1,Vaha+02H
010F 900035        MOV     DPTR,#035H
0112 120000  E     LCALL   ?C?LLDOPTR0
0115 C3            CLR     C
0116 E500    R     MOV     A,PrumernaHmotnost+03H
0118 9B            SUBB    A,R3
0119 F500    R     MOV     RozdilHmotnosti+03H,A
011B E500    R     MOV     A,PrumernaHmotnost+02H
011D 9A            SUBB    A,R2
011E F500    R     MOV     RozdilHmotnosti+02H,A
0120 E500    R     MOV     A,PrumernaHmotnost+01H
0122 99            SUBB    A,R1
0123 F500    R     MOV     RozdilHmotnosti+01H,A
0125 E500    R     MOV     A,PrumernaHmotnost
0127 98            SUBB    A,R0
0128 F500    R     MOV     RozdilHmotnosti,A
                                           ; SOURCE LINE # 171
012A AB00    R     MOV     R3,Vaha
012C AA00    R     MOV     R2,Vaha+01H
012E A900    R     MOV     R1,Vaha+02H
0130 900035        MOV     DPTR,#035H
0133 120000  E     LCALL   ?C?LSTOPTR
                                           ; SOURCE LINE # 173
0136 900000  E     MOV     DPTR,#Config+017H
0139 E0            MOVX    A,@DPTR
013A FC            MOV     R4,A
013B A3            INC     DPTR
013C E0            MOVX    A,@DPTR
013D FD            MOV     R5,A
013E A3            INC     DPTR
013F E0            MOVX    A,@DPTR
0140 FE            MOV     R6,A
0141 A3            INC     DPTR
0142 E0            MOVX    A,@DPTR
0143 FF            MOV     R7,A
0144 AB00    R     MOV     R3,RozdilHmotnosti+03H
0146 AA00    R     MOV     R2,RozdilHmotnosti+02H
0148 A900    R     MOV     R1,RozdilHmotnosti+01H
014A A800    R     MOV     R0,RozdilHmotnosti
014C D3            SETB    C
014D 120000  E     LCALL   ?C?SLCMP
0150 5016          JNC     ?C0015
0152 900000  E     MOV     DPTR,#Config+013H
0155 E0            MOVX    A,@DPTR
0156 FC            MOV     R4,A
0157 A3            INC     DPTR
0158 E0            MOVX    A,@DPTR
0159 FD            MOV     R5,A
015A A3            INC     DPTR
015B E0            MOVX    A,@DPTR
015C FE            MOV     R6,A
015D A3            INC     DPTR
015E E0            MOVX    A,@DPTR
015F FF            MOV     R7,A
0160 A800    R     MOV     R0,RozdilHmotnosti
0162 C3            CLR     C
0163 120000  E     LCALL   ?C?SLCMP
0166 5005          JNC     ?C0014
0168         ?C0015:
                                           ; SOURCE LINE # 174
0168 120000  E     LCALL   LightRedOn
                                           ; SOURCE LINE # 175
016B C3            CLR     C
016C 22            RET     
C51 COMPILER V5.50,  NVAHY                                                                 14/03/06  07:47:21  PAGE 18  

                                           ; SOURCE LINE # 176
016D         ?C0014:
                                           ; SOURCE LINE # 178
016D 120000  E     LCALL   LightGreenOn
                                           ; SOURCE LINE # 179
0170 900000  E     MOV     DPTR,#Config+01FH
0173 E0            MOVX    A,@DPTR
0174 FF            MOV     R7,A
0175 900000  E     MOV     DPTR,#Config+01DH
0178 E0            MOVX    A,@DPTR
0179 FC            MOV     R4,A
017A A3            INC     DPTR
017B E0            MOVX    A,@DPTR
017C FD            MOV     R5,A
017D 120000  E     LCALL   _BeepSaving
                                           ; SOURCE LINE # 181
0180 AF00    R     MOV     R7,RozdilHmotnosti+03H
0182 AE00    R     MOV     R6,RozdilHmotnosti+02H
0184 AD00    R     MOV     R5,RozdilHmotnosti+01H
0186 AC00    R     MOV     R4,RozdilHmotnosti
0188 AB00    R     MOV     R3,Vaha
018A AA00    R     MOV     R2,Vaha+01H
018C A900    R     MOV     R1,Vaha+02H
018E 90000B        MOV     DPTR,#0BH
0191 120000  E     LCALL   ?C?LSTOPTR
                                           ; SOURCE LINE # 182
0194 D3            SETB    C
                                           ; SOURCE LINE # 183
0195         ?C0010:
0195 22            RET     
             ; FUNCTION _ZkontrolujNaslapnouVahu (END)

             ; FUNCTION NVahyObsluha (BEGIN)
                                           ; SOURCE LINE # 189
                                           ; SOURCE LINE # 193
                                           ; SOURCE LINE # 194
0000 E4            CLR     A
0001 900000  R     MOV     DPTR,#NVaha+0AH
0004 F0            MOVX    @DPTR,A
                                           ; SOURCE LINE # 196
0005 900000  R     MOV     DPTR,#_NVahyEnable
0008 E0            MOVX    A,@DPTR
0009 7002          JNZ     ?C0016
                                           ; SOURCE LINE # 197
000B C3            CLR     C
000C 22            RET     
                                           ; SOURCE LINE # 198
000D         ?C0016:
                                           ; SOURCE LINE # 200
000D 200002  E     JB      _AdcStatus,?C0018
                                           ; SOURCE LINE # 201
0010 C3            CLR     C
0011 22            RET     
                                           ; SOURCE LINE # 202
0012         ?C0018:
                                           ; SOURCE LINE # 204
0012 900000  R     MOV     DPTR,#NVaha
0015 E0            MOVX    A,@DPTR
0016 F8            MOV     R0,A
0017 A3            INC     DPTR
0018 E0            MOVX    A,@DPTR
0019 F9            MOV     R1,A
001A A3            INC     DPTR
001B E0            MOVX    A,@DPTR
001C FA            MOV     R2,A
001D A3            INC     DPTR
C51 COMPILER V5.50,  NVAHY                                                                 14/03/06  07:47:21  PAGE 19  

001E E0            MOVX    A,@DPTR
001F FB            MOV     R3,A
0020 C000          PUSH    AR0
0022 C001          PUSH    AR1
0024 C002          PUSH    AR2
0026 C003          PUSH    AR3
0028 120000  E     LCALL   AdcRead
002B D003          POP     AR3
002D D002          POP     AR2
002F D001          POP     AR1
0031 D000          POP     AR0
0033 EB            MOV     A,R3
0034 2F            ADD     A,R7
0035 FF            MOV     R7,A
0036 EA            MOV     A,R2
0037 3E            ADDC    A,R6
0038 FE            MOV     R6,A
0039 E9            MOV     A,R1
003A 3D            ADDC    A,R5
003B FD            MOV     R5,A
003C E8            MOV     A,R0
003D 3C            ADDC    A,R4
003E FC            MOV     R4,A
003F 900000  R     MOV     DPTR,#NVaha
0042 120000  E     LCALL   ?C?LSTXDATA
                                           ; SOURCE LINE # 205
0045 900000  R     MOV     DPTR,#NVaha+04H
0048 E0            MOVX    A,@DPTR
0049 04            INC     A
004A F0            MOVX    @DPTR,A
                                           ; SOURCE LINE # 207
004B 900000  E     MOV     DPTR,#Config+04H
004E E0            MOVX    A,@DPTR
004F FF            MOV     R7,A
0050 900000  R     MOV     DPTR,#NVaha+04H
0053 E0            MOVX    A,@DPTR
0054 C3            CLR     C
0055 9F            SUBB    A,R7
0056 5002          JNC     ?C0019
                                           ; SOURCE LINE # 208
0058 C3            CLR     C
0059 22            RET     
                                           ; SOURCE LINE # 209
005A         ?C0019:
                                           ; SOURCE LINE # 211
005A 900000  R     MOV     DPTR,#NVaha+05H
005D E0            MOVX    A,@DPTR
005E 6013          JZ      ?C0020
                                           ; SOURCE LINE # 213
0060 E4            CLR     A
0061 F0            MOVX    @DPTR,A
                                           ; SOURCE LINE # 214
0062 900000  R     MOV     DPTR,#NVaha
0065 120000  E     LCALL   ?C?LSTKXDATA
0068 00            DB      #00H
0069 00            DB      #00H
006A 00            DB      #00H
006B 00            DB      #00H
                                           ; SOURCE LINE # 215
006C E4            CLR     A
006D 900000  R     MOV     DPTR,#NVaha+04H
0070 F0            MOVX    @DPTR,A
                                           ; SOURCE LINE # 216
0071 C3            CLR     C
0072 22            RET     
                                           ; SOURCE LINE # 217
C51 COMPILER V5.50,  NVAHY                                                                 14/03/06  07:47:21  PAGE 20  

0073         ?C0020:
                                           ; SOURCE LINE # 220
0073 7E00    R     MOV     R6,#HIGH NVaha
0075 7F00    R     MOV     R7,#LOW NVaha
0077 900000  E     MOV     DPTR,#Kalibrace
007A E0            MOVX    A,@DPTR
007B 75F00D        MOV     B,#0DH
007E A4            MUL     AB
007F 2400    E     ADD     A,#LOW Kalibrace+01H
0081 F582          MOV     DPL,A
0083 E4            CLR     A
0084 3400    E     ADDC    A,#HIGH Kalibrace+01H
0086 AD82          MOV     R5,DPL
0088 FC            MOV     R4,A
0089 120000  R     LCALL   _VypoctiHmotnostNaslapneVahy
                                           ; SOURCE LINE # 222
008C 900000  R     MOV     DPTR,#NVaha
008F 120000  E     LCALL   ?C?LSTKXDATA
0092 00            DB      #00H
0093 00            DB      #00H
0094 00            DB      #00H
0095 00            DB      #00H
                                           ; SOURCE LINE # 223
0096 E4            CLR     A
0097 900000  R     MOV     DPTR,#NVaha+04H
009A F0            MOVX    @DPTR,A
                                           ; SOURCE LINE # 225
009B 900000  E     MOV     DPTR,#Zobrazit
009E E0            MOVX    A,@DPTR
009F 4401          ORL     A,#01H
00A1 F0            MOVX    @DPTR,A
                                           ; SOURCE LINE # 226
00A2 900000  R     MOV     DPTR,#NVaha+0AH
00A5 7401          MOV     A,#01H
00A7 F0            MOVX    @DPTR,A
                                           ; SOURCE LINE # 229
00A8 900000  E     MOV     DPTR,#Config+0AH
00AB E0            MOVX    A,@DPTR
00AC 7002          JNZ     ?C0021
                                           ; SOURCE LINE # 230
00AE C3            CLR     C
00AF 22            RET     
                                           ; SOURCE LINE # 231
00B0         ?C0021:
                                           ; SOURCE LINE # 233
00B0 900000  R     MOV     DPTR,#NVaha+03AH
00B3 E0            MOVX    A,@DPTR
00B4 6002          JZ      ?C0022
                                           ; SOURCE LINE # 234
00B6 C3            CLR     C
00B7 22            RET     
                                           ; SOURCE LINE # 235
00B8         ?C0022:
                                           ; SOURCE LINE # 237
00B8 7B01          MOV     R3,#01H
00BA 7A00    R     MOV     R2,#HIGH NVaha
00BC 7900    R     MOV     R1,#LOW NVaha
00BE 120000  R     LCALL   _ZkontrolujNaslapnouVahu
                                           ; SOURCE LINE # 238
00C1         ?C0017:
00C1 22            RET     
             ; FUNCTION NVahyObsluha (END)

             ; FUNCTION NVahyEnable (BEGIN)
                                           ; SOURCE LINE # 244
                                           ; SOURCE LINE # 246
C51 COMPILER V5.50,  NVAHY                                                                 14/03/06  07:47:21  PAGE 21  

                                           ; SOURCE LINE # 247
0000 900000  R     MOV     DPTR,#_NVahyEnable
0003 7401          MOV     A,#01H
0005 F0            MOVX    @DPTR,A
                                           ; SOURCE LINE # 250
0006 900000  R     MOV     DPTR,#NVaha+05H
0009 F0            MOVX    @DPTR,A
                                           ; SOURCE LINE # 251
000A 7E00    R     MOV     R6,#HIGH NVaha+0FH
000C 7F00    R     MOV     R7,#LOW NVaha+0FH
000E 120000  E     LCALL   _AverageClear
                                           ; SOURCE LINE # 255
0011 120000  E     LCALL   AdcStop
                                           ; SOURCE LINE # 256
0014 E4            CLR     A
0015 FF            MOV     R7,A
0016 120000  E     LCALL   _AdcStart
                                           ; SOURCE LINE # 257
0019 22            RET     
             ; FUNCTION NVahyEnable (END)

             ; FUNCTION NVahyDisable (BEGIN)
                                           ; SOURCE LINE # 259
                                           ; SOURCE LINE # 261
                                           ; SOURCE LINE # 262
0000 E4            CLR     A
0001 900000  R     MOV     DPTR,#_NVahyEnable
0004 F0            MOVX    @DPTR,A
                                           ; SOURCE LINE # 263
0005 22            RET     
             ; FUNCTION NVahyDisable (END)



MODULE INFORMATION:   STATIC OVERLAYABLE
   CODE SIZE        =   1409    ----
   CONSTANT SIZE    =   ----    ----
   XDATA SIZE       =     60    ----
   PDATA SIZE       =   ----    ----
   DATA SIZE        =   ----      19
   IDATA SIZE       =   ----    ----
   BIT SIZE         =   ----       1
END OF MODULE INFORMATION.


C51 COMPILATION COMPLETE.  0 WARNING(S),  0 ERROR(S)
