C51 COMPILER V5.50,  PODSVIT                                                               14/03/06  07:47:25  PAGE 1   


DOS C51 COMPILER V5.50, COMPILATION OF MODULE PODSVIT
OBJECT MODULE PLACED IN PODSVIT.OBJ
COMPILER INVOKED BY: D:\C51_V5.5\BIN\C51.EXE PODSVIT.C51 CD DB

stmt level    source

   1          //*****************************************************************************
   2          //
   3          //    Podsvit.c - Kontrola podsvitu
   4          //    Version 1.0
   5          //
   6          //*****************************************************************************
   7          
   8          #include "Podsvit.h"
   9          #include "Pig.h"
  10          
  11          static byte __xdata__ Pocitadlo;  // Pocitadlo automatickeho podsvitu
  12          
  13          #define PODSVIT_AUTO_PERIODA 10   // Kolik sekund po stisku klavesy sviti automaticky podsvit
  14          
  15          void PodsvitInit() {
  16   1        // Inicializace
  17   1        Pocitadlo = PODSVIT_AUTO_PERIODA;   // Po zapnuti vahy v automatickem rezimu svitim
  18   1      }
  19          
  20          void PodsvitAutoOn() {
  21   1        // Rozne automaticky podsvit
  22   1        if (Config.Backlight != BACKLIGHT_AUTO) {
  23   2          return;
  24   2        }
  25   1        Pocitadlo = PODSVIT_AUTO_PERIODA;   // Novy odpocet periody
  26   1        ZapniPodsvit();
  27   1      }
  28          
  29          void PodsvitExecute() {
  30   1        // Ovladani podsvitu, volat kazdou sekundu
  31   1        // Signal podsvitu se ovlada periodicky stale, kvuli nasilnemu vypinani podsvitu pri lowbat (po obnove n
             -apajeni se podsvit automaticky obnovi v teto fci)
  32   1        switch (Config.Backlight) {
  33   2          case BACKLIGHT_ON: {
  34   3            // Podsvit trvale zapnuty
  35   3            ZapniPodsvit();
  36   3            return;
  37   3          }
  38   2          case BACKLIGHT_OFF: {
  39   3            // Podsvit trvale vypnuty
  40   3            VypniPodsvit();
  41   3            return;
  42   3          }
  43   2          default: {
  44   3            // Podsvit rizeny automaticky
  45   3            if (Pocitadlo > 0) Pocitadlo--;
  46   3            if (Pocitadlo == 0) {
  47   4              VypniPodsvit();
  48   4            }
  49   3          }
  50   2        }//switch
  51   1      }
  52          
C51 COMPILER V5.50,  PODSVIT                                                               14/03/06  07:47:25  PAGE 2   

ASSEMBLY LISTING OF GENERATED OBJECT CODE


             ; FUNCTION PodsvitInit (BEGIN)
                                           ; SOURCE LINE # 15
                                           ; SOURCE LINE # 17
0000 900000  R     MOV     DPTR,#Pocitadlo
0003 740A          MOV     A,#0AH
0005 F0            MOVX    @DPTR,A
                                           ; SOURCE LINE # 18
0006 22            RET     
             ; FUNCTION PodsvitInit (END)

             ; FUNCTION PodsvitAutoOn (BEGIN)
                                           ; SOURCE LINE # 20
                                           ; SOURCE LINE # 22
0000 900000  E     MOV     DPTR,#Config+01BH
0003 E0            MOVX    A,@DPTR
0004 B40208        CJNE    A,#02H,?C0003
                                           ; SOURCE LINE # 24
0007         ?C0002:
                                           ; SOURCE LINE # 25
0007 900000  R     MOV     DPTR,#Pocitadlo
000A 740A          MOV     A,#0AH
000C F0            MOVX    @DPTR,A
                                           ; SOURCE LINE # 26
000D D2B6          SETB    BatSVIT
                                           ; SOURCE LINE # 27
000F         ?C0003:
000F 22            RET     
             ; FUNCTION PodsvitAutoOn (END)

             ; FUNCTION PodsvitExecute (BEGIN)
                                           ; SOURCE LINE # 29
                                           ; SOURCE LINE # 32
0000 900000  E     MOV     DPTR,#Config+01BH
0003 E0            MOVX    A,@DPTR
0004 6006          JZ      ?C0007
0006 14            DEC     A
0007 7006          JNZ     ?C0008
                                           ; SOURCE LINE # 33
0009         ?C0005:
                                           ; SOURCE LINE # 35
0009 D2B6          SETB    BatSVIT
000B 22            RET     
                                           ; SOURCE LINE # 37
                                           ; SOURCE LINE # 38
000C         ?C0007:
                                           ; SOURCE LINE # 40
000C C2B6          CLR     BatSVIT
000E 22            RET     
                                           ; SOURCE LINE # 42
                                           ; SOURCE LINE # 43
000F         ?C0008:
                                           ; SOURCE LINE # 45
000F 900000  R     MOV     DPTR,#Pocitadlo
0012 E0            MOVX    A,@DPTR
0013 D3            SETB    C
0014 9400          SUBB    A,#00H
0016 4003          JC      ?C0009
0018 E0            MOVX    A,@DPTR
0019 14            DEC     A
001A F0            MOVX    @DPTR,A
001B         ?C0009:
                                           ; SOURCE LINE # 46
001B 900000  R     MOV     DPTR,#Pocitadlo
C51 COMPILER V5.50,  PODSVIT                                                               14/03/06  07:47:25  PAGE 3   

001E E0            MOVX    A,@DPTR
001F 7002          JNZ     ?C0006
                                           ; SOURCE LINE # 47
0021 C2B6          CLR     BatSVIT
                                           ; SOURCE LINE # 48
                                           ; SOURCE LINE # 49
                                           ; SOURCE LINE # 50
                                           ; SOURCE LINE # 51
0023         ?C0006:
0023 22            RET     
             ; FUNCTION PodsvitExecute (END)



MODULE INFORMATION:   STATIC OVERLAYABLE
   CODE SIZE        =     59    ----
   CONSTANT SIZE    =   ----    ----
   XDATA SIZE       =      1    ----
   PDATA SIZE       =   ----    ----
   DATA SIZE        =   ----    ----
   IDATA SIZE       =   ----    ----
   BIT SIZE         =   ----    ----
END OF MODULE INFORMATION.


C51 COMPILATION COMPLETE.  0 WARNING(S),  0 ERROR(S)
