C51 COMPILER V5.50,  ALARM                                                                 12/10/09  13:17:37  PAGE 1   


DOS C51 COMPILER V5.50, COMPILATION OF MODULE ALARM
OBJECT MODULE PLACED IN ..\HERMES1\ALARM.OBJ
COMPILER INVOKED BY: E:\C51_V5.5\BIN\C51.EXE ..\HERMES1\ALARM.C51 CD DB

stmt level    source

   1          //*****************************************************************************
   2          //
   3          //    Alarm.c - Ovladani alarmu podle poruch
   4          //    Version 1.0
   5          //
   6          //*****************************************************************************
   7          
   8          #include "Alarm.h"
   9          #include "Hermes1.h"
  10          #include "Beep.h"              // Repro v jednotce
  11          #include "Led.h"               // Ovladani LED diod
  12          
  13          TAlarm __xdata__ Alarm;
  14          
  15          //-----------------------------------------------------------------------------
  16          // Inicializace
  17          //-----------------------------------------------------------------------------
  18          
  19          void AlarmInit(void) {
  20   1        // Inicializuje alarmu
  21   1        Alarm.Quiet      = NO;                // Repro zapnuty
  22   1        Alarm.ShowAlarm  = NO;                // Neindikuje se alarm
  23   1        Alarm.Type       = ALARM_TYPE_TEMP;   // Pro jistotu, i kdyz neni treba
  24   1        LedInit();                            // Zhasnu LED
  25   1      }
  26          
  27          //-----------------------------------------------------------------------------
  28          // Zapnuti/vypnuti reproduktoru a majaku (hlaseni alarmu)
  29          //-----------------------------------------------------------------------------
  30          
  31          void AlarmChange(void) {
  32   1        // Zapne / vypne hlaseni alarmu
  33   1        Alarm.Quiet = !Alarm.Quiet;
  34   1      }
  35          
  36          //-----------------------------------------------------------------------------
  37          // Nulovani alarmu
  38          //-----------------------------------------------------------------------------
  39          
  40          void AlarmClear(void) {
  41   1        // Vynuluje alarm (volat periodicky na zacatku kazdeho mericiho cyklu)
  42   1        Alarm.ShowAlarm = NO;
  43   1      }
  44          
  45          //-----------------------------------------------------------------------------
  46          // Nastaveni alarmu
  47          //-----------------------------------------------------------------------------
  48          
  49          void AlarmSet(TAlarmType AlarmType) {
  50   1        // Nastavi alarm pri nejake poruse
  51   1        Alarm.ShowAlarm = YES;
  52   1        Alarm.Type      = AlarmType;
  53   1      }
  54          
  55          //-----------------------------------------------------------------------------
  56          // Periodicka obsluha
  57          //-----------------------------------------------------------------------------
  58          
  59          void AlarmTrigger(void) {
C51 COMPILER V5.50,  ALARM                                                                 12/10/09  13:17:37  PAGE 2   

  60   1        // Casovac alarmu, volat kazdych TIMER0_PERIOD ms
  61   1        LedTrigger(Alarm.ShowAlarm);
  62   1      }
C51 COMPILER V5.50,  ALARM                                                                 12/10/09  13:17:37  PAGE 3   

ASSEMBLY LISTING OF GENERATED OBJECT CODE


             ; FUNCTION AlarmInit (BEGIN)
                                           ; SOURCE LINE # 19
                                           ; SOURCE LINE # 21
0000 E4            CLR     A
0001 900000  R     MOV     DPTR,#Alarm+02H
0004 F0            MOVX    @DPTR,A
                                           ; SOURCE LINE # 22
0005 900000  R     MOV     DPTR,#Alarm
0008 F0            MOVX    @DPTR,A
                                           ; SOURCE LINE # 23
0009 A3            INC     DPTR
000A F0            MOVX    @DPTR,A
                                           ; SOURCE LINE # 24
000B 120000  E     LCALL   LedInit
                                           ; SOURCE LINE # 25
000E 22            RET     
             ; FUNCTION AlarmInit (END)

             ; FUNCTION AlarmChange (BEGIN)
                                           ; SOURCE LINE # 31
                                           ; SOURCE LINE # 33
0000 900000  R     MOV     DPTR,#Alarm+02H
0003 E0            MOVX    A,@DPTR
0004 7004          JNZ     ?C0002
0006 7F01          MOV     R7,#01H
0008 8002          SJMP    ?C0003
000A         ?C0002:
000A 7F00          MOV     R7,#00H
000C         ?C0003:
000C 900000  R     MOV     DPTR,#Alarm+02H
000F EF            MOV     A,R7
0010 F0            MOVX    @DPTR,A
                                           ; SOURCE LINE # 34
0011 22            RET     
             ; FUNCTION AlarmChange (END)

             ; FUNCTION AlarmClear (BEGIN)
                                           ; SOURCE LINE # 40
                                           ; SOURCE LINE # 42
0000 E4            CLR     A
0001 900000  R     MOV     DPTR,#Alarm
0004 F0            MOVX    @DPTR,A
                                           ; SOURCE LINE # 43
0005 22            RET     
             ; FUNCTION AlarmClear (END)

             ; FUNCTION _AlarmSet (BEGIN)
;---- Variable 'AlarmType' assigned to Register 'R7' ----
                                           ; SOURCE LINE # 49
                                           ; SOURCE LINE # 51
0000 900000  R     MOV     DPTR,#Alarm
0003 7401          MOV     A,#01H
0005 F0            MOVX    @DPTR,A
                                           ; SOURCE LINE # 52
0006 A3            INC     DPTR
0007 EF            MOV     A,R7
0008 F0            MOVX    @DPTR,A
                                           ; SOURCE LINE # 53
0009 22            RET     
             ; FUNCTION _AlarmSet (END)

             ; FUNCTION AlarmTrigger (BEGIN)
                                           ; SOURCE LINE # 59
C51 COMPILER V5.50,  ALARM                                                                 12/10/09  13:17:37  PAGE 4   

                                           ; SOURCE LINE # 61
0000 900000  R     MOV     DPTR,#Alarm
0003 E0            MOVX    A,@DPTR
0004 24FF          ADD     A,#0FFH
0006 9200    E     MOV     ?LedTrigger?BIT,C
0008 120000  E     LCALL   LedTrigger
                                           ; SOURCE LINE # 62
000B 22            RET     
             ; FUNCTION AlarmTrigger (END)



MODULE INFORMATION:   STATIC OVERLAYABLE
   CODE SIZE        =     61    ----
   CONSTANT SIZE    =   ----    ----
   XDATA SIZE       =      3    ----
   PDATA SIZE       =   ----    ----
   DATA SIZE        =   ----    ----
   IDATA SIZE       =   ----    ----
   BIT SIZE         =   ----    ----
END OF MODULE INFORMATION.


C51 COMPILATION COMPLETE.  0 WARNING(S),  0 ERROR(S)
