
Fram.elf:     file format elf32-avr

Sections:
Idx Name          Size      VMA       LMA       File off  Algn
  0 .text         00000f94  00000000  00000000  00000094  2**1
                  CONTENTS, ALLOC, LOAD, READONLY, CODE
  1 .data         00000026  00800060  00000f94  00001028  2**0
                  CONTENTS, ALLOC, LOAD, DATA
  2 .bss          00000008  00800086  00800086  0000104e  2**0
                  ALLOC
  3 .debug_aranges 000000c0  00000000  00000000  0000104e  2**0
                  CONTENTS, READONLY, DEBUGGING
  4 .debug_pubnames 000001e5  00000000  00000000  0000110e  2**0
                  CONTENTS, READONLY, DEBUGGING
  5 .debug_info   00000c94  00000000  00000000  000012f3  2**0
                  CONTENTS, READONLY, DEBUGGING
  6 .debug_abbrev 000005eb  00000000  00000000  00001f87  2**0
                  CONTENTS, READONLY, DEBUGGING
  7 .debug_line   00000acf  00000000  00000000  00002572  2**0
                  CONTENTS, READONLY, DEBUGGING
  8 .debug_frame  000001d0  00000000  00000000  00003044  2**2
                  CONTENTS, READONLY, DEBUGGING
  9 .debug_str    000002bf  00000000  00000000  00003214  2**0
                  CONTENTS, READONLY, DEBUGGING
 10 .debug_loc    00000489  00000000  00000000  000034d3  2**0
                  CONTENTS, READONLY, DEBUGGING
 11 .debug_ranges 000000d0  00000000  00000000  0000395c  2**0
                  CONTENTS, READONLY, DEBUGGING

Disassembly of section .text:

00000000 <__vectors>:
   0:	0c 94 90 00 	jmp	0x120	; 0x120 <__ctors_end>
   4:	0c 94 ad 00 	jmp	0x15a	; 0x15a <__bad_interrupt>
   8:	0c 94 ad 00 	jmp	0x15a	; 0x15a <__bad_interrupt>
   c:	0c 94 ad 00 	jmp	0x15a	; 0x15a <__bad_interrupt>
  10:	0c 94 ad 00 	jmp	0x15a	; 0x15a <__bad_interrupt>
  14:	0c 94 ad 00 	jmp	0x15a	; 0x15a <__bad_interrupt>
  18:	0c 94 ad 00 	jmp	0x15a	; 0x15a <__bad_interrupt>
  1c:	0c 94 ad 00 	jmp	0x15a	; 0x15a <__bad_interrupt>
  20:	0c 94 ad 00 	jmp	0x15a	; 0x15a <__bad_interrupt>
  24:	0c 94 ad 00 	jmp	0x15a	; 0x15a <__bad_interrupt>
  28:	0c 94 ad 00 	jmp	0x15a	; 0x15a <__bad_interrupt>
  2c:	0c 94 ad 00 	jmp	0x15a	; 0x15a <__bad_interrupt>
  30:	0c 94 ad 00 	jmp	0x15a	; 0x15a <__bad_interrupt>
  34:	0c 94 ad 00 	jmp	0x15a	; 0x15a <__bad_interrupt>
  38:	0c 94 ad 00 	jmp	0x15a	; 0x15a <__bad_interrupt>
  3c:	0c 94 ad 00 	jmp	0x15a	; 0x15a <__bad_interrupt>
  40:	0c 94 ad 00 	jmp	0x15a	; 0x15a <__bad_interrupt>
  44:	0c 94 ad 00 	jmp	0x15a	; 0x15a <__bad_interrupt>
  48:	0c 94 ad 00 	jmp	0x15a	; 0x15a <__bad_interrupt>
  4c:	0c 94 ad 00 	jmp	0x15a	; 0x15a <__bad_interrupt>
  50:	0c 94 ad 00 	jmp	0x15a	; 0x15a <__bad_interrupt>

00000054 <__c.1680>:
  54:	53 65 65 64 20 3a 20 25 64 0a 00                    Seed : %d..

0000005f <__c.1677>:
  5f:	53 65 65 64 20 3a 20 25 64 0a 00                    Seed : %d..

0000006a <__c.1672>:
  6a:	50 72 65 73 65 6e 74 20 4f 4b 0a 00                 Present OK..

00000076 <__c.1669>:
  76:	25 73 0a 00                                         %s..

0000007a <__c.1665>:
  7a:	25 73 0a 00                                         %s..

0000007e <__c.1721>:
  7e:	53 65 65 64 20 3a 20 25 64 0a 00                    Seed : %d..

00000089 <__c.1718>:
  89:	0a 44 6f 77 6e 0a 00                                .Down..

00000090 <__c.1713>:
  90:	53 74 61 72 74 2e 2e 2e 0a 00                       Start.....

0000009a <__c.1751>:
  9a:	44 6f 6e 65 0a 00                                   Done..

000000a0 <__c.1746>:
  a0:	2a 44 6f 6e 65 0a 00                                *Done..

000000a7 <__c.1741>:
  a7:	40 25 30 36 6c 58 20 3a 20 25 30 32 58 20 28 25     @%06lX : %02X (%
  b7:	30 32 58 29 0a 00                                   02X)..

000000bd <__c.1738>:
  bd:	2a 25 30 36 6c 58 20 3a 20 25 30 32 58 20 28 25     *%06lX : %02X (%
  cd:	30 32 58 29 0a 00                                   02X)..

000000d3 <__c.1736>:
  d3:	53 74 61 72 74 2e 2e 2e 0a 00                       Start.....

000000dd <__c.1775>:
  dd:	53 65 65 64 20 3a 20 25 64 0a 00                    Seed : %d..

000000e8 <__c.1772>:
  e8:	0a 44 6f 77 6e 0a 00                                .Down..

000000ef <__c.1767>:
  ef:	53 74 61 72 74 2e 2e 2e 0a 00                       Start.....

000000f9 <__c.1799>:
  f9:	44 6f 6e 65 0a 00                                   Done..

000000ff <__c.1794>:
  ff:	40 25 30 36 6c 58 20 3a 20 25 30 32 58 20 28 25     @%06lX : %02X (%
 10f:	30 32 58 29 0a 00                                   02X)..

00000115 <__c.1792>:
 115:	53 74 61 72 74 2e 2e 2e 0a 00 00                    Start......

00000120 <__ctors_end>:
 120:	11 24       	eor	r1, r1
 122:	1f be       	out	0x3f, r1	; 63
 124:	cf e5       	ldi	r28, 0x5F	; 95
 126:	d4 e0       	ldi	r29, 0x04	; 4
 128:	de bf       	out	0x3e, r29	; 62
 12a:	cd bf       	out	0x3d, r28	; 61

0000012c <__do_copy_data>:
 12c:	10 e0       	ldi	r17, 0x00	; 0
 12e:	a0 e6       	ldi	r26, 0x60	; 96
 130:	b0 e0       	ldi	r27, 0x00	; 0
 132:	e4 e9       	ldi	r30, 0x94	; 148
 134:	ff e0       	ldi	r31, 0x0F	; 15
 136:	02 c0       	rjmp	.+4      	; 0x13c <.do_copy_data_start>

00000138 <.do_copy_data_loop>:
 138:	05 90       	lpm	r0, Z+
 13a:	0d 92       	st	X+, r0

0000013c <.do_copy_data_start>:
 13c:	a6 38       	cpi	r26, 0x86	; 134
 13e:	b1 07       	cpc	r27, r17
 140:	d9 f7       	brne	.-10     	; 0x138 <.do_copy_data_loop>

00000142 <__do_clear_bss>:
 142:	10 e0       	ldi	r17, 0x00	; 0
 144:	a6 e8       	ldi	r26, 0x86	; 134
 146:	b0 e0       	ldi	r27, 0x00	; 0
 148:	01 c0       	rjmp	.+2      	; 0x14c <.do_clear_bss_start>

0000014a <.do_clear_bss_loop>:
 14a:	1d 92       	st	X+, r1

0000014c <.do_clear_bss_start>:
 14c:	ae 38       	cpi	r26, 0x8E	; 142
 14e:	b1 07       	cpc	r27, r17
 150:	e1 f7       	brne	.-8      	; 0x14a <.do_clear_bss_loop>
 152:	0e 94 af 00 	call	0x15e	; 0x15e <main>
 156:	0c 94 c8 07 	jmp	0xf90	; 0xf90 <_exit>

0000015a <__bad_interrupt>:
 15a:	0c 94 00 00 	jmp	0	; 0x0 <__vectors>

0000015e <main>:
//------------------------------------------------------------------------------
// Main
//------------------------------------------------------------------------------

int main( void)
{
 15e:	2f 92       	push	r2
 160:	3f 92       	push	r3
 162:	4f 92       	push	r4
 164:	5f 92       	push	r5
 166:	6f 92       	push	r6
 168:	7f 92       	push	r7
 16a:	9f 92       	push	r9
 16c:	af 92       	push	r10
 16e:	bf 92       	push	r11
 170:	cf 92       	push	r12
 172:	df 92       	push	r13
 174:	ef 92       	push	r14
 176:	ff 92       	push	r15
 178:	0f 93       	push	r16
 17a:	1f 93       	push	r17
 17c:	df 93       	push	r29
 17e:	cf 93       	push	r28
 180:	0f 92       	push	r0
 182:	cd b7       	in	r28, 0x3d	; 61
 184:	de b7       	in	r29, 0x3e	; 62
byte ch;

   StatusLedInit();
 186:	a0 9a       	sbi	0x14, 0	; 20
   StatusLedOff();
 188:	a8 9a       	sbi	0x15, 0	; 21
   ButtonInit();
 18a:	d0 98       	cbi	0x1a, 0	; 26

   SpiInit();
 18c:	0e 94 89 03 	call	0x712	; 0x712 <SpiInit>
   FramInit();
 190:	0e 94 ff 03 	call	0x7fe	; 0x7fe <FramInit>

   TRACE_INIT();
 194:	0e 94 41 03 	call	0x682	; 0x682 <Uart0Init>
 198:	83 e7       	ldi	r24, 0x73	; 115
 19a:	90 e0       	ldi	r25, 0x00	; 0
 19c:	90 93 8b 00 	sts	0x008B, r25
 1a0:	80 93 8a 00 	sts	0x008A, r24

   // flash :
   StatusLedOn();
 1a4:	a8 98       	cbi	0x15, 0	; 21
   SysDelay( 500);
 1a6:	84 ef       	ldi	r24, 0xF4	; 244
 1a8:	91 e0       	ldi	r25, 0x01	; 1
 1aa:	0e 94 30 03 	call	0x660	; 0x660 <SysDelay>
   StatusLedOff();
 1ae:	a8 9a       	sbi	0x15, 0	; 21
   // main loop :
   TRACE( "START");
 1b0:	00 d0       	rcall	.+0      	; 0x1b2 <main+0x54>
 1b2:	00 d0       	rcall	.+0      	; 0x1b4 <main+0x56>
 1b4:	8a e7       	ldi	r24, 0x7A	; 122
 1b6:	90 e0       	ldi	r25, 0x00	; 0
 1b8:	ad b7       	in	r26, 0x3d	; 61
 1ba:	be b7       	in	r27, 0x3e	; 62
 1bc:	12 96       	adiw	r26, 0x02	; 2
 1be:	9c 93       	st	X, r25
 1c0:	8e 93       	st	-X, r24
 1c2:	11 97       	sbiw	r26, 0x01	; 1
 1c4:	80 e6       	ldi	r24, 0x60	; 96
 1c6:	90 e0       	ldi	r25, 0x00	; 0
 1c8:	14 96       	adiw	r26, 0x04	; 4
 1ca:	9c 93       	st	X, r25
 1cc:	8e 93       	st	-X, r24
 1ce:	13 97       	sbiw	r26, 0x03	; 3
 1d0:	0e 94 92 04 	call	0x924	; 0x924 <printf_P>
   Seed    = SEED_INITIAL;
 1d4:	81 e0       	ldi	r24, 0x01	; 1
 1d6:	90 e0       	ldi	r25, 0x00	; 0
 1d8:	90 93 87 00 	sts	0x0087, r25
 1dc:	80 93 86 00 	sts	0x0086, r24
 1e0:	0f 90       	pop	r0
 1e2:	0f 90       	pop	r0
 1e4:	0f 90       	pop	r0
 1e6:	0f 90       	pop	r0
         case 'p' :
            if( !FramIsPresent()){
               TRACE( "Not present\n");
               break;
            }
            cprintf( "Present OK\n");
 1e8:	2a e6       	ldi	r18, 0x6A	; 106
 1ea:	42 2e       	mov	r4, r18
 1ec:	20 e0       	ldi	r18, 0x00	; 0
 1ee:	52 2e       	mov	r5, r18
      }
      Uart0TxChar( ch);
      switch( ch){
         case 'p' :
            if( !FramIsPresent()){
               TRACE( "Not present\n");
 1f0:	96 e7       	ldi	r25, 0x76	; 118
 1f2:	29 2e       	mov	r2, r25
 1f4:	90 e0       	ldi	r25, 0x00	; 0
 1f6:	39 2e       	mov	r3, r25
            cprintf( "Seed : %d\n", Seed);
            break;

         case 'c' :
            Seed = SEED_INITIAL;
            cprintf( "Seed : %d\n", Seed);
 1f8:	84 e5       	ldi	r24, 0x54	; 84
 1fa:	68 2e       	mov	r6, r24
 1fc:	80 e0       	ldi	r24, 0x00	; 0
 1fe:	78 2e       	mov	r7, r24
   StatusLedOff();
   // main loop :
   TRACE( "START");
   Seed    = SEED_INITIAL;
   forever {
      if( !Uart0RxChar( &ch)){
 200:	ce 01       	movw	r24, r28
 202:	01 96       	adiw	r24, 0x01	; 1
 204:	0e 94 54 03 	call	0x6a8	; 0x6a8 <Uart0RxChar>
 208:	88 23       	and	r24, r24
 20a:	d1 f3       	breq	.-12     	; 0x200 <main+0xa2>
         continue;
      }
      Uart0TxChar( ch);
 20c:	89 81       	ldd	r24, Y+1	; 0x01
 20e:	0e 94 4c 03 	call	0x698	; 0x698 <Uart0TxChar>
      switch( ch){
 212:	89 81       	ldd	r24, Y+1	; 0x01
 214:	82 37       	cpi	r24, 0x72	; 114
 216:	09 f4       	brne	.+2      	; 0x21a <main+0xbc>
 218:	83 c0       	rjmp	.+262    	; 0x320 <main+0x1c2>
 21a:	83 37       	cpi	r24, 0x73	; 115
 21c:	70 f4       	brcc	.+28     	; 0x23a <main+0xdc>
 21e:	86 36       	cpi	r24, 0x66	; 102
 220:	09 f4       	brne	.+2      	; 0x224 <main+0xc6>
 222:	58 c1       	rjmp	.+688    	; 0x4d4 <__stack+0x75>
 224:	87 36       	cpi	r24, 0x67	; 103
 226:	18 f4       	brcc	.+6      	; 0x22e <main+0xd0>
 228:	83 36       	cpi	r24, 0x63	; 99
 22a:	51 f7       	brne	.-44     	; 0x200 <main+0xa2>
 22c:	44 c1       	rjmp	.+648    	; 0x4b6 <__stack+0x57>
 22e:	87 36       	cpi	r24, 0x67	; 103
 230:	09 f4       	brne	.+2      	; 0x234 <main+0xd6>
 232:	a3 c1       	rjmp	.+838    	; 0x57a <__stack+0x11b>
 234:	80 37       	cpi	r24, 0x70	; 112
 236:	21 f7       	brne	.-56     	; 0x200 <main+0xa2>
 238:	0d c0       	rjmp	.+26     	; 0x254 <main+0xf6>
 23a:	87 37       	cpi	r24, 0x77	; 119
 23c:	11 f1       	breq	.+68     	; 0x282 <main+0x124>
 23e:	88 37       	cpi	r24, 0x78	; 120
 240:	18 f4       	brcc	.+6      	; 0x248 <main+0xea>
 242:	83 37       	cpi	r24, 0x73	; 115
 244:	e9 f6       	brne	.-70     	; 0x200 <main+0xa2>
 246:	19 c1       	rjmp	.+562    	; 0x47a <__stack+0x1b>
 248:	88 37       	cpi	r24, 0x78	; 120
 24a:	09 f4       	brne	.+2      	; 0x24e <main+0xf0>
 24c:	03 c2       	rjmp	.+1030   	; 0x654 <__stack+0x1f5>
 24e:	89 37       	cpi	r24, 0x79	; 121
 250:	b9 f6       	brne	.-82     	; 0x200 <main+0xa2>
 252:	03 c2       	rjmp	.+1030   	; 0x65a <__stack+0x1fb>
         case 'p' :
            if( !FramIsPresent()){
 254:	0e 94 1b 04 	call	0x836	; 0x836 <FramIsPresent>
 258:	88 23       	and	r24, r24
 25a:	59 f4       	brne	.+22     	; 0x272 <main+0x114>
               TRACE( "Not present\n");
 25c:	00 d0       	rcall	.+0      	; 0x25e <main+0x100>
 25e:	00 d0       	rcall	.+0      	; 0x260 <main+0x102>
 260:	ed b7       	in	r30, 0x3d	; 61
 262:	fe b7       	in	r31, 0x3e	; 62
 264:	32 82       	std	Z+2, r3	; 0x02
 266:	21 82       	std	Z+1, r2	; 0x01
 268:	26 e6       	ldi	r18, 0x66	; 102
 26a:	30 e0       	ldi	r19, 0x00	; 0
 26c:	34 83       	std	Z+4, r19	; 0x04
 26e:	23 83       	std	Z+3, r18	; 0x03
 270:	1b c1       	rjmp	.+566    	; 0x4a8 <__stack+0x49>
               break;
            }
            cprintf( "Present OK\n");
 272:	00 d0       	rcall	.+0      	; 0x274 <main+0x116>
 274:	ad b7       	in	r26, 0x3d	; 61
 276:	be b7       	in	r27, 0x3e	; 62
 278:	12 96       	adiw	r26, 0x02	; 2
 27a:	5c 92       	st	X, r5
 27c:	4e 92       	st	-X, r4
 27e:	11 97       	sbiw	r26, 0x01	; 1
 280:	e4 c1       	rjmp	.+968    	; 0x64a <__stack+0x1eb>
// Write test pattern
{
long i;
byte Rand;

   cprintf( "Start...\n");
 282:	00 d0       	rcall	.+0      	; 0x284 <main+0x126>
 284:	20 e9       	ldi	r18, 0x90	; 144
 286:	30 e0       	ldi	r19, 0x00	; 0
 288:	ed b7       	in	r30, 0x3d	; 61
 28a:	fe b7       	in	r31, 0x3e	; 62
 28c:	32 83       	std	Z+2, r19	; 0x02
 28e:	21 83       	std	Z+1, r18	; 0x01
 290:	0e 94 92 04 	call	0x924	; 0x924 <printf_P>
 294:	0f 90       	pop	r0
 296:	0f 90       	pop	r0
   forever {
      srand( Seed);
 298:	80 91 86 00 	lds	r24, 0x0086
 29c:	90 91 87 00 	lds	r25, 0x0087
 2a0:	0e 94 87 04 	call	0x90e	; 0x90e <srand>
 2a4:	ee 24       	eor	r14, r14
 2a6:	ff 24       	eor	r15, r15
 2a8:	87 01       	movw	r16, r14
      for( i = 0; i < FRAM_SIZE; i++){
          Rand = rand();
 2aa:	0e 94 82 04 	call	0x904	; 0x904 <rand>
 2ae:	48 2f       	mov	r20, r24
          FramWriteByte( i, Rand);
 2b0:	c8 01       	movw	r24, r16
 2b2:	b7 01       	movw	r22, r14
 2b4:	0e 94 d8 03 	call	0x7b0	; 0x7b0 <FramWriteByte>
byte Rand;

   cprintf( "Start...\n");
   forever {
      srand( Seed);
      for( i = 0; i < FRAM_SIZE; i++){
 2b8:	08 94       	sec
 2ba:	e1 1c       	adc	r14, r1
 2bc:	f1 1c       	adc	r15, r1
 2be:	01 1d       	adc	r16, r1
 2c0:	11 1d       	adc	r17, r1
 2c2:	30 e0       	ldi	r19, 0x00	; 0
 2c4:	e3 16       	cp	r14, r19
 2c6:	30 e0       	ldi	r19, 0x00	; 0
 2c8:	f3 06       	cpc	r15, r19
 2ca:	32 e0       	ldi	r19, 0x02	; 2
 2cc:	03 07       	cpc	r16, r19
 2ce:	30 e0       	ldi	r19, 0x00	; 0
 2d0:	13 07       	cpc	r17, r19
 2d2:	59 f7       	brne	.-42     	; 0x2aa <main+0x14c>
#endif
      }
#ifdef DEBUG_SHOW_DONE
      Uart0TxChar( '.');
#endif
      if( !FramIsPresent()){
 2d4:	0e 94 1b 04 	call	0x836	; 0x836 <FramIsPresent>
 2d8:	88 23       	and	r24, r24
 2da:	21 f4       	brne	.+8      	; 0x2e4 <main+0x186>
         cprintf( "\nDown\n");
 2dc:	00 d0       	rcall	.+0      	; 0x2de <main+0x180>
 2de:	e9 e8       	ldi	r30, 0x89	; 137
 2e0:	f0 e0       	ldi	r31, 0x00	; 0
 2e2:	ad c1       	rjmp	.+858    	; 0x63e <__stack+0x1df>
         break;
      }
      Seed++;
 2e4:	80 91 86 00 	lds	r24, 0x0086
 2e8:	90 91 87 00 	lds	r25, 0x0087
 2ec:	01 96       	adiw	r24, 0x01	; 1
 2ee:	90 93 87 00 	sts	0x0087, r25
 2f2:	80 93 86 00 	sts	0x0086, r24
      cprintf( "Seed : %d\n", Seed);
 2f6:	00 d0       	rcall	.+0      	; 0x2f8 <main+0x19a>
 2f8:	00 d0       	rcall	.+0      	; 0x2fa <main+0x19c>
 2fa:	ee e7       	ldi	r30, 0x7E	; 126
 2fc:	f0 e0       	ldi	r31, 0x00	; 0
 2fe:	ad b7       	in	r26, 0x3d	; 61
 300:	be b7       	in	r27, 0x3e	; 62
 302:	12 96       	adiw	r26, 0x02	; 2
 304:	fc 93       	st	X, r31
 306:	ee 93       	st	-X, r30
 308:	11 97       	sbiw	r26, 0x01	; 1
 30a:	14 96       	adiw	r26, 0x04	; 4
 30c:	9c 93       	st	X, r25
 30e:	8e 93       	st	-X, r24
 310:	13 97       	sbiw	r26, 0x03	; 3
 312:	0e 94 92 04 	call	0x924	; 0x924 <printf_P>
 316:	0f 90       	pop	r0
 318:	0f 90       	pop	r0
 31a:	0f 90       	pop	r0
 31c:	0f 90       	pop	r0
 31e:	bc cf       	rjmp	.-136    	; 0x298 <main+0x13a>
long i;
byte Value;
byte Rand;
long Address;

   cprintf( "Start...\n");
 320:	00 d0       	rcall	.+0      	; 0x322 <main+0x1c4>
 322:	e3 ed       	ldi	r30, 0xD3	; 211
 324:	f0 e0       	ldi	r31, 0x00	; 0
 326:	ad b7       	in	r26, 0x3d	; 61
 328:	be b7       	in	r27, 0x3e	; 62
 32a:	12 96       	adiw	r26, 0x02	; 2
 32c:	fc 93       	st	X, r31
 32e:	ee 93       	st	-X, r30
 330:	11 97       	sbiw	r26, 0x01	; 1
 332:	0e 94 92 04 	call	0x924	; 0x924 <printf_P>
   srand( Seed);
 336:	0f 90       	pop	r0
 338:	0f 90       	pop	r0
 33a:	80 91 86 00 	lds	r24, 0x0086
 33e:	90 91 87 00 	lds	r25, 0x0087
 342:	0e 94 87 04 	call	0x90e	; 0x90e <srand>
 346:	aa 24       	eor	r10, r10
 348:	bb 24       	eor	r11, r11
 34a:	65 01       	movw	r12, r10
   for( i = 0; i < FRAM_SIZE; i++){
      Value = FramReadByte( i);
 34c:	c6 01       	movw	r24, r12
 34e:	b5 01       	movw	r22, r10
 350:	0e 94 0d 04 	call	0x81a	; 0x81a <FramReadByte>
 354:	18 2f       	mov	r17, r24
      Rand  = rand();
 356:	0e 94 82 04 	call	0x904	; 0x904 <rand>
      if( Value != Rand){
 35a:	18 17       	cp	r17, r24
 35c:	09 f4       	brne	.+2      	; 0x360 <main+0x202>
 35e:	7a c0       	rjmp	.+244    	; 0x454 <main+0x2f6>
         cprintf( "*%06lX : %02X (%02X)\n", i, Value, Rand);
 360:	2d b7       	in	r18, 0x3d	; 61
 362:	3e b7       	in	r19, 0x3e	; 62
 364:	2a 50       	subi	r18, 0x0A	; 10
 366:	30 40       	sbci	r19, 0x00	; 0
 368:	0f b6       	in	r0, 0x3f	; 63
 36a:	f8 94       	cli
 36c:	3e bf       	out	0x3e, r19	; 62
 36e:	0f be       	out	0x3f, r0	; 63
 370:	2d bf       	out	0x3d, r18	; 61
 372:	ed b7       	in	r30, 0x3d	; 61
 374:	fe b7       	in	r31, 0x3e	; 62
 376:	31 96       	adiw	r30, 0x01	; 1
 378:	2d eb       	ldi	r18, 0xBD	; 189
 37a:	30 e0       	ldi	r19, 0x00	; 0
 37c:	ad b7       	in	r26, 0x3d	; 61
 37e:	be b7       	in	r27, 0x3e	; 62
 380:	12 96       	adiw	r26, 0x02	; 2
 382:	3c 93       	st	X, r19
 384:	2e 93       	st	-X, r18
 386:	11 97       	sbiw	r26, 0x01	; 1
 388:	a2 82       	std	Z+2, r10	; 0x02
 38a:	b3 82       	std	Z+3, r11	; 0x03
 38c:	c4 82       	std	Z+4, r12	; 0x04
 38e:	d5 82       	std	Z+5, r13	; 0x05
 390:	16 83       	std	Z+6, r17	; 0x06
 392:	17 82       	std	Z+7, r1	; 0x07
 394:	80 87       	std	Z+8, r24	; 0x08
 396:	11 86       	std	Z+9, r1	; 0x09
 398:	0e 94 92 04 	call	0x924	; 0x924 <printf_P>
         Address = i;              // first invalid address
         srand( Seed - 1);         // try previous pattern
 39c:	8d b7       	in	r24, 0x3d	; 61
 39e:	9e b7       	in	r25, 0x3e	; 62
 3a0:	0a 96       	adiw	r24, 0x0a	; 10
 3a2:	0f b6       	in	r0, 0x3f	; 63
 3a4:	f8 94       	cli
 3a6:	9e bf       	out	0x3e, r25	; 62
 3a8:	0f be       	out	0x3f, r0	; 63
 3aa:	8d bf       	out	0x3d, r24	; 61
 3ac:	80 91 86 00 	lds	r24, 0x0086
 3b0:	90 91 87 00 	lds	r25, 0x0087
 3b4:	01 97       	sbiw	r24, 0x01	; 1
 3b6:	0e 94 87 04 	call	0x90e	; 0x90e <srand>
 3ba:	ee 24       	eor	r14, r14
 3bc:	ff 24       	eor	r15, r15
 3be:	87 01       	movw	r16, r14
         for( i = 0; i < FRAM_SIZE; i++){
            Rand  = rand();
 3c0:	0e 94 82 04 	call	0x904	; 0x904 <rand>
 3c4:	98 2e       	mov	r9, r24
            if( i < Address){
 3c6:	ea 14       	cp	r14, r10
 3c8:	fb 04       	cpc	r15, r11
 3ca:	0c 05       	cpc	r16, r12
 3cc:	1d 05       	cpc	r17, r13
 3ce:	7c f1       	brlt	.+94     	; 0x42e <main+0x2d0>
               continue;           // already compared
            }
            Value = FramReadByte( i);
 3d0:	c8 01       	movw	r24, r16
 3d2:	b7 01       	movw	r22, r14
 3d4:	0e 94 0d 04 	call	0x81a	; 0x81a <FramReadByte>
            if( Value != Rand){
 3d8:	89 15       	cp	r24, r9
 3da:	49 f1       	breq	.+82     	; 0x42e <main+0x2d0>
               cprintf( "@%06lX : %02X (%02X)\n", i, Value, Rand);
 3dc:	ad b7       	in	r26, 0x3d	; 61
 3de:	be b7       	in	r27, 0x3e	; 62
 3e0:	1a 97       	sbiw	r26, 0x0a	; 10
 3e2:	0f b6       	in	r0, 0x3f	; 63
 3e4:	f8 94       	cli
 3e6:	be bf       	out	0x3e, r27	; 62
 3e8:	0f be       	out	0x3f, r0	; 63
 3ea:	ad bf       	out	0x3d, r26	; 61
 3ec:	ed b7       	in	r30, 0x3d	; 61
 3ee:	fe b7       	in	r31, 0x3e	; 62
 3f0:	31 96       	adiw	r30, 0x01	; 1
 3f2:	27 ea       	ldi	r18, 0xA7	; 167
 3f4:	30 e0       	ldi	r19, 0x00	; 0
 3f6:	12 96       	adiw	r26, 0x02	; 2
 3f8:	3c 93       	st	X, r19
 3fa:	2e 93       	st	-X, r18
 3fc:	11 97       	sbiw	r26, 0x01	; 1
 3fe:	e2 82       	std	Z+2, r14	; 0x02
 400:	f3 82       	std	Z+3, r15	; 0x03
 402:	04 83       	std	Z+4, r16	; 0x04
 404:	15 83       	std	Z+5, r17	; 0x05
 406:	86 83       	std	Z+6, r24	; 0x06
 408:	17 82       	std	Z+7, r1	; 0x07
 40a:	90 86       	std	Z+8, r9	; 0x08
 40c:	11 86       	std	Z+9, r1	; 0x09
 40e:	0e 94 92 04 	call	0x924	; 0x924 <printf_P>
               if( ComRxWait(0)){
 412:	8d b7       	in	r24, 0x3d	; 61
 414:	9e b7       	in	r25, 0x3e	; 62
 416:	0a 96       	adiw	r24, 0x0a	; 10
 418:	0f b6       	in	r0, 0x3f	; 63
 41a:	f8 94       	cli
 41c:	9e bf       	out	0x3e, r25	; 62
 41e:	0f be       	out	0x3f, r0	; 63
 420:	8d bf       	out	0x3d, r24	; 61
 422:	80 e0       	ldi	r24, 0x00	; 0
 424:	90 e0       	ldi	r25, 0x00	; 0
 426:	0e 94 61 03 	call	0x6c2	; 0x6c2 <Uart0RxWait>
 42a:	88 23       	and	r24, r24
 42c:	79 f4       	brne	.+30     	; 0x44c <main+0x2ee>
      Rand  = rand();
      if( Value != Rand){
         cprintf( "*%06lX : %02X (%02X)\n", i, Value, Rand);
         Address = i;              // first invalid address
         srand( Seed - 1);         // try previous pattern
         for( i = 0; i < FRAM_SIZE; i++){
 42e:	08 94       	sec
 430:	e1 1c       	adc	r14, r1
 432:	f1 1c       	adc	r15, r1
 434:	01 1d       	adc	r16, r1
 436:	11 1d       	adc	r17, r1
 438:	90 e0       	ldi	r25, 0x00	; 0
 43a:	e9 16       	cp	r14, r25
 43c:	90 e0       	ldi	r25, 0x00	; 0
 43e:	f9 06       	cpc	r15, r25
 440:	92 e0       	ldi	r25, 0x02	; 2
 442:	09 07       	cpc	r16, r25
 444:	90 e0       	ldi	r25, 0x00	; 0
 446:	19 07       	cpc	r17, r25
 448:	09 f0       	breq	.+2      	; 0x44c <main+0x2ee>
 44a:	ba cf       	rjmp	.-140    	; 0x3c0 <main+0x262>
               if( ComRxWait(0)){
                  break;                // stop on first receive
               }
            }
         } // for
         cprintf( "*Done\n");
 44c:	00 d0       	rcall	.+0      	; 0x44e <main+0x2f0>
 44e:	e0 ea       	ldi	r30, 0xA0	; 160
 450:	f0 e0       	ldi	r31, 0x00	; 0
 452:	f5 c0       	rjmp	.+490    	; 0x63e <__stack+0x1df>
byte Rand;
long Address;

   cprintf( "Start...\n");
   srand( Seed);
   for( i = 0; i < FRAM_SIZE; i++){
 454:	08 94       	sec
 456:	a1 1c       	adc	r10, r1
 458:	b1 1c       	adc	r11, r1
 45a:	c1 1c       	adc	r12, r1
 45c:	d1 1c       	adc	r13, r1
 45e:	f0 e0       	ldi	r31, 0x00	; 0
 460:	af 16       	cp	r10, r31
 462:	f0 e0       	ldi	r31, 0x00	; 0
 464:	bf 06       	cpc	r11, r31
 466:	f2 e0       	ldi	r31, 0x02	; 2
 468:	cf 06       	cpc	r12, r31
 46a:	f0 e0       	ldi	r31, 0x00	; 0
 46c:	df 06       	cpc	r13, r31
 46e:	09 f0       	breq	.+2      	; 0x472 <__stack+0x13>
 470:	6d cf       	rjmp	.-294    	; 0x34c <main+0x1ee>
         } // for
         cprintf( "*Done\n");
         return;
      } // if
   }
   cprintf( "Done\n");
 472:	00 d0       	rcall	.+0      	; 0x474 <__stack+0x15>
 474:	ea e9       	ldi	r30, 0x9A	; 154
 476:	f0 e0       	ldi	r31, 0x00	; 0
 478:	e2 c0       	rjmp	.+452    	; 0x63e <__stack+0x1df>
         case 'r' :
            TestRead();
            break;

         case 's' :
            Seed++;
 47a:	80 91 86 00 	lds	r24, 0x0086
 47e:	90 91 87 00 	lds	r25, 0x0087
 482:	01 96       	adiw	r24, 0x01	; 1
 484:	90 93 87 00 	sts	0x0087, r25
 488:	80 93 86 00 	sts	0x0086, r24
            cprintf( "Seed : %d\n", Seed);
 48c:	00 d0       	rcall	.+0      	; 0x48e <__stack+0x2f>
 48e:	00 d0       	rcall	.+0      	; 0x490 <__stack+0x31>
 490:	ef e5       	ldi	r30, 0x5F	; 95
 492:	f0 e0       	ldi	r31, 0x00	; 0
 494:	ad b7       	in	r26, 0x3d	; 61
 496:	be b7       	in	r27, 0x3e	; 62
 498:	12 96       	adiw	r26, 0x02	; 2
 49a:	fc 93       	st	X, r31
 49c:	ee 93       	st	-X, r30
 49e:	11 97       	sbiw	r26, 0x01	; 1
 4a0:	14 96       	adiw	r26, 0x04	; 4
 4a2:	9c 93       	st	X, r25
 4a4:	8e 93       	st	-X, r24
 4a6:	13 97       	sbiw	r26, 0x03	; 3
 4a8:	0e 94 92 04 	call	0x924	; 0x924 <printf_P>
 4ac:	0f 90       	pop	r0
 4ae:	0f 90       	pop	r0
 4b0:	0f 90       	pop	r0
 4b2:	0f 90       	pop	r0
 4b4:	a5 ce       	rjmp	.-694    	; 0x200 <main+0xa2>
            break;

         case 'c' :
            Seed = SEED_INITIAL;
 4b6:	81 e0       	ldi	r24, 0x01	; 1
 4b8:	90 e0       	ldi	r25, 0x00	; 0
 4ba:	90 93 87 00 	sts	0x0087, r25
 4be:	80 93 86 00 	sts	0x0086, r24
            cprintf( "Seed : %d\n", Seed);
 4c2:	00 d0       	rcall	.+0      	; 0x4c4 <__stack+0x65>
 4c4:	00 d0       	rcall	.+0      	; 0x4c6 <__stack+0x67>
 4c6:	ad b7       	in	r26, 0x3d	; 61
 4c8:	be b7       	in	r27, 0x3e	; 62
 4ca:	12 96       	adiw	r26, 0x02	; 2
 4cc:	7c 92       	st	X, r7
 4ce:	6e 92       	st	-X, r6
 4d0:	11 97       	sbiw	r26, 0x01	; 1
 4d2:	e6 cf       	rjmp	.-52     	; 0x4a0 <__stack+0x41>
static void TestFastWrite( void)
// Write test pattern
{
long i;

   cprintf( "Start...\n");
 4d4:	00 d0       	rcall	.+0      	; 0x4d6 <__stack+0x77>
 4d6:	2f ee       	ldi	r18, 0xEF	; 239
 4d8:	30 e0       	ldi	r19, 0x00	; 0
 4da:	ed b7       	in	r30, 0x3d	; 61
 4dc:	fe b7       	in	r31, 0x3e	; 62
 4de:	32 83       	std	Z+2, r19	; 0x02
 4e0:	21 83       	std	Z+1, r18	; 0x01
 4e2:	0e 94 92 04 	call	0x924	; 0x924 <printf_P>
 4e6:	0f 90       	pop	r0
 4e8:	0f 90       	pop	r0
   forever {
      srand( Seed);
 4ea:	80 91 86 00 	lds	r24, 0x0086
 4ee:	90 91 87 00 	lds	r25, 0x0087
 4f2:	0e 94 87 04 	call	0x90e	; 0x90e <srand>
      FramPageWriteStart( 0);
 4f6:	60 e0       	ldi	r22, 0x00	; 0
 4f8:	70 e0       	ldi	r23, 0x00	; 0
 4fa:	80 e0       	ldi	r24, 0x00	; 0
 4fc:	90 e0       	ldi	r25, 0x00	; 0
 4fe:	0e 94 b6 03 	call	0x76c	; 0x76c <FramPageWriteStart>
 502:	ee 24       	eor	r14, r14
 504:	ff 24       	eor	r15, r15
 506:	87 01       	movw	r16, r14
      for( i = 0; i < FRAM_SIZE; i++){
          FramPageWriteData( rand());
 508:	0e 94 82 04 	call	0x904	; 0x904 <rand>
 50c:	0e 94 9b 03 	call	0x736	; 0x736 <SpiWriteByte>

   cprintf( "Start...\n");
   forever {
      srand( Seed);
      FramPageWriteStart( 0);
      for( i = 0; i < FRAM_SIZE; i++){
 510:	08 94       	sec
 512:	e1 1c       	adc	r14, r1
 514:	f1 1c       	adc	r15, r1
 516:	01 1d       	adc	r16, r1
 518:	11 1d       	adc	r17, r1
 51a:	30 e0       	ldi	r19, 0x00	; 0
 51c:	e3 16       	cp	r14, r19
 51e:	30 e0       	ldi	r19, 0x00	; 0
 520:	f3 06       	cpc	r15, r19
 522:	32 e0       	ldi	r19, 0x02	; 2
 524:	03 07       	cpc	r16, r19
 526:	30 e0       	ldi	r19, 0x00	; 0
 528:	13 07       	cpc	r17, r19
 52a:	71 f7       	brne	.-36     	; 0x508 <__stack+0xa9>
          FramPageWriteData( rand());
      }
      FramPageWritePerform();
 52c:	97 9a       	sbi	0x12, 7	; 18
#ifdef DEBUG_SHOW_DONE
      Uart0TxChar( '.');
#endif
      if( !FramIsPresent()){
 52e:	0e 94 1b 04 	call	0x836	; 0x836 <FramIsPresent>
 532:	88 23       	and	r24, r24
 534:	21 f4       	brne	.+8      	; 0x53e <__stack+0xdf>
         cprintf( "\nDown\n");
 536:	00 d0       	rcall	.+0      	; 0x538 <__stack+0xd9>
 538:	e8 ee       	ldi	r30, 0xE8	; 232
 53a:	f0 e0       	ldi	r31, 0x00	; 0
 53c:	80 c0       	rjmp	.+256    	; 0x63e <__stack+0x1df>
         break;
      }
      Seed++;
 53e:	80 91 86 00 	lds	r24, 0x0086
 542:	90 91 87 00 	lds	r25, 0x0087
 546:	01 96       	adiw	r24, 0x01	; 1
 548:	90 93 87 00 	sts	0x0087, r25
 54c:	80 93 86 00 	sts	0x0086, r24
      cprintf( "Seed : %d\n", Seed);
 550:	00 d0       	rcall	.+0      	; 0x552 <__stack+0xf3>
 552:	00 d0       	rcall	.+0      	; 0x554 <__stack+0xf5>
 554:	ed ed       	ldi	r30, 0xDD	; 221
 556:	f0 e0       	ldi	r31, 0x00	; 0
 558:	ad b7       	in	r26, 0x3d	; 61
 55a:	be b7       	in	r27, 0x3e	; 62
 55c:	12 96       	adiw	r26, 0x02	; 2
 55e:	fc 93       	st	X, r31
 560:	ee 93       	st	-X, r30
 562:	11 97       	sbiw	r26, 0x01	; 1
 564:	14 96       	adiw	r26, 0x04	; 4
 566:	9c 93       	st	X, r25
 568:	8e 93       	st	-X, r24
 56a:	13 97       	sbiw	r26, 0x03	; 3
 56c:	0e 94 92 04 	call	0x924	; 0x924 <printf_P>
 570:	0f 90       	pop	r0
 572:	0f 90       	pop	r0
 574:	0f 90       	pop	r0
 576:	0f 90       	pop	r0
 578:	b8 cf       	rjmp	.-144    	; 0x4ea <__stack+0x8b>
{
long i;
byte Value;
byte Rand;

   cprintf( "Start...\n");
 57a:	00 d0       	rcall	.+0      	; 0x57c <__stack+0x11d>
 57c:	e5 e1       	ldi	r30, 0x15	; 21
 57e:	f1 e0       	ldi	r31, 0x01	; 1
 580:	ad b7       	in	r26, 0x3d	; 61
 582:	be b7       	in	r27, 0x3e	; 62
 584:	12 96       	adiw	r26, 0x02	; 2
 586:	fc 93       	st	X, r31
 588:	ee 93       	st	-X, r30
 58a:	11 97       	sbiw	r26, 0x01	; 1
 58c:	0e 94 92 04 	call	0x924	; 0x924 <printf_P>
   srand( Seed);
 590:	0f 90       	pop	r0
 592:	0f 90       	pop	r0
 594:	80 91 86 00 	lds	r24, 0x0086
 598:	90 91 87 00 	lds	r25, 0x0087
 59c:	0e 94 87 04 	call	0x90e	; 0x90e <srand>
   FramBlockReadStart( 0);
 5a0:	60 e0       	ldi	r22, 0x00	; 0
 5a2:	70 e0       	ldi	r23, 0x00	; 0
 5a4:	80 e0       	ldi	r24, 0x00	; 0
 5a6:	90 e0       	ldi	r25, 0x00	; 0
 5a8:	0e 94 e2 03 	call	0x7c4	; 0x7c4 <FramBlockReadStart>
 5ac:	ee 24       	eor	r14, r14
 5ae:	ff 24       	eor	r15, r15
 5b0:	87 01       	movw	r16, r14
   for( i = 0; i < FRAM_SIZE; i++){
      Value = FramBlockReadData();
 5b2:	0e 94 91 03 	call	0x722	; 0x722 <SpiReadByte>
 5b6:	d8 2e       	mov	r13, r24
      Rand  = rand();
 5b8:	0e 94 82 04 	call	0x904	; 0x904 <rand>
      if( Value != Rand){
 5bc:	d8 16       	cp	r13, r24
 5be:	61 f1       	breq	.+88     	; 0x618 <__stack+0x1b9>
         cprintf( "@%06lX : %02X (%02X)\n", i, Value, Rand);
 5c0:	2d b7       	in	r18, 0x3d	; 61
 5c2:	3e b7       	in	r19, 0x3e	; 62
 5c4:	2a 50       	subi	r18, 0x0A	; 10
 5c6:	30 40       	sbci	r19, 0x00	; 0
 5c8:	0f b6       	in	r0, 0x3f	; 63
 5ca:	f8 94       	cli
 5cc:	3e bf       	out	0x3e, r19	; 62
 5ce:	0f be       	out	0x3f, r0	; 63
 5d0:	2d bf       	out	0x3d, r18	; 61
 5d2:	ed b7       	in	r30, 0x3d	; 61
 5d4:	fe b7       	in	r31, 0x3e	; 62
 5d6:	31 96       	adiw	r30, 0x01	; 1
 5d8:	2f ef       	ldi	r18, 0xFF	; 255
 5da:	30 e0       	ldi	r19, 0x00	; 0
 5dc:	ad b7       	in	r26, 0x3d	; 61
 5de:	be b7       	in	r27, 0x3e	; 62
 5e0:	12 96       	adiw	r26, 0x02	; 2
 5e2:	3c 93       	st	X, r19
 5e4:	2e 93       	st	-X, r18
 5e6:	11 97       	sbiw	r26, 0x01	; 1
 5e8:	e2 82       	std	Z+2, r14	; 0x02
 5ea:	f3 82       	std	Z+3, r15	; 0x03
 5ec:	04 83       	std	Z+4, r16	; 0x04
 5ee:	15 83       	std	Z+5, r17	; 0x05
 5f0:	d6 82       	std	Z+6, r13	; 0x06
 5f2:	17 82       	std	Z+7, r1	; 0x07
 5f4:	80 87       	std	Z+8, r24	; 0x08
 5f6:	11 86       	std	Z+9, r1	; 0x09
 5f8:	0e 94 92 04 	call	0x924	; 0x924 <printf_P>
         if( ComRxWait(0)){
 5fc:	8d b7       	in	r24, 0x3d	; 61
 5fe:	9e b7       	in	r25, 0x3e	; 62
 600:	0a 96       	adiw	r24, 0x0a	; 10
 602:	0f b6       	in	r0, 0x3f	; 63
 604:	f8 94       	cli
 606:	9e bf       	out	0x3e, r25	; 62
 608:	0f be       	out	0x3f, r0	; 63
 60a:	8d bf       	out	0x3d, r24	; 61
 60c:	80 e0       	ldi	r24, 0x00	; 0
 60e:	90 e0       	ldi	r25, 0x00	; 0
 610:	0e 94 61 03 	call	0x6c2	; 0x6c2 <Uart0RxWait>
 614:	88 23       	and	r24, r24
 616:	79 f4       	brne	.+30     	; 0x636 <__stack+0x1d7>
byte Rand;

   cprintf( "Start...\n");
   srand( Seed);
   FramBlockReadStart( 0);
   for( i = 0; i < FRAM_SIZE; i++){
 618:	08 94       	sec
 61a:	e1 1c       	adc	r14, r1
 61c:	f1 1c       	adc	r15, r1
 61e:	01 1d       	adc	r16, r1
 620:	11 1d       	adc	r17, r1
 622:	90 e0       	ldi	r25, 0x00	; 0
 624:	e9 16       	cp	r14, r25
 626:	90 e0       	ldi	r25, 0x00	; 0
 628:	f9 06       	cpc	r15, r25
 62a:	92 e0       	ldi	r25, 0x02	; 2
 62c:	09 07       	cpc	r16, r25
 62e:	90 e0       	ldi	r25, 0x00	; 0
 630:	19 07       	cpc	r17, r25
 632:	09 f0       	breq	.+2      	; 0x636 <__stack+0x1d7>
 634:	be cf       	rjmp	.-132    	; 0x5b2 <__stack+0x153>
         if( ComRxWait(0)){
            break;                // stop on first receive
         }
      }
   }
   FramBlockReadStop();
 636:	97 9a       	sbi	0x12, 7	; 18
   cprintf( "Done\n");
 638:	00 d0       	rcall	.+0      	; 0x63a <__stack+0x1db>
 63a:	e9 ef       	ldi	r30, 0xF9	; 249
 63c:	f0 e0       	ldi	r31, 0x00	; 0
 63e:	ad b7       	in	r26, 0x3d	; 61
 640:	be b7       	in	r27, 0x3e	; 62
 642:	12 96       	adiw	r26, 0x02	; 2
 644:	fc 93       	st	X, r31
 646:	ee 93       	st	-X, r30
 648:	11 97       	sbiw	r26, 0x01	; 1
 64a:	0e 94 92 04 	call	0x924	; 0x924 <printf_P>
 64e:	0f 90       	pop	r0
 650:	0f 90       	pop	r0
 652:	d6 cd       	rjmp	.-1108   	; 0x200 <main+0xa2>
         case 'g' :
            TestFastRead();
            break;

         case 'x' :
            FramSleep();
 654:	0e 94 b0 03 	call	0x760	; 0x760 <FramSleep>
 658:	d3 cd       	rjmp	.-1114   	; 0x200 <main+0xa2>
            break;

         case 'y' :
            FramWakeup();
 65a:	0e 94 a6 03 	call	0x74c	; 0x74c <FramWakeup>
 65e:	d0 cd       	rjmp	.-1120   	; 0x200 <main+0xa2>

00000660 <SysDelay>:
void SysDelay( word ms)
// Milisecond delay
{
word cnt;

   __asm__ __volatile__( "\n"
 660:	2f ec       	ldi	r18, 0xCF	; 207
 662:	37 e0       	ldi	r19, 0x07	; 7

00000664 <L_dl18>:
 664:	e2 2f       	mov	r30, r18
 666:	f3 2f       	mov	r31, r19

00000668 <L_dl28>:
 668:	31 97       	sbiw	r30, 0x01	; 1
 66a:	f1 f7       	brne	.-4      	; 0x668 <L_dl28>
 66c:	01 97       	sbiw	r24, 0x01	; 1
 66e:	d1 f7       	brne	.-12     	; 0x664 <L_dl18>
                  "sbiw %A1, 1" "\n\t"
                  "brne L_dl1%=" "\n\t"
                  : "=&w" (cnt)
                  : "w" (ms), "r" (DELAY_COUNT)
   );
} // SysDelay
 670:	08 95       	ret

00000672 <SysUDelay>:
	...
         "brne L_ud1%="
		: "=r" (us)
		: "0" (us)
	);
   #elif (FXTAL <= 8000000)
	__asm__ __volatile__ (
 67a:	00 00       	nop
 67c:	8a 95       	dec	r24
 67e:	c9 f7       	brne	.-14     	; 0x672 <SysUDelay>
		: "0" (us)
	);
   #else // 8-16 MHz
      #error "SysUDelay not implemented yet"
   #endif
} // SysUDelay
 680:	08 95       	ret

00000682 <Uart0Init>:
//-----------------------------------------------------------------------------

void UartInit( void)
// Communication initialisation
{
   UBRRH = (byte)(BAUD_DIVISOR >> 8);  // set baud rate divisor
 682:	10 bc       	out	0x20, r1	; 32
   UBRRL = (byte) BAUD_DIVISOR;
 684:	83 e3       	ldi	r24, 0x33	; 51
 686:	89 b9       	out	0x09, r24	; 9
   UCSRB = (1 << RXEN) | (1 << TXEN);  // enable Rx, Tx
 688:	88 e1       	ldi	r24, 0x18	; 24
 68a:	8a b9       	out	0x0a, r24	; 10
      #if defined( UART_PARITY_EVEN)
         UCSRC = (1 << URSEL) | (3 << UCSZ0) | (2 << UPM0); // 8 bits, 1 stopbit, even
      #elif defined( UART_PARITY_ODD)
         UCSRC = (1 << URSEL) | (3 << UCSZ0) | (3 << UPM0); // 8 bits, 1 stopbit, odd
      #else // no parity
         UCSRC = (1 << URSEL) | (3 << UCSZ0);               // 8 bits, 1 stopbit
 68c:	86 e8       	ldi	r24, 0x86	; 134
 68e:	80 bd       	out	0x20, r24	; 32
      #endif   
   #endif
} // UartInit
 690:	08 95       	ret

00000692 <Uart0TxBusy>:
//-----------------------------------------------------------------------------

TYesNo UartTxBusy( void)
// Returns YES if transmitter is busy
{
   return( UCSRA & (1 << UDRE));
 692:	8b b1       	in	r24, 0x0b	; 11
} // UartTxBusy
 694:	80 72       	andi	r24, 0x20	; 32
 696:	08 95       	ret

00000698 <Uart0TxChar>:
//-----------------------------------------------------------------------------

void UartTxChar( byte Char)
// Transmit <Char> byte
{
   while( !(UCSRA & (1 << UDRE)));
 698:	5d 9b       	sbis	0x0b, 5	; 11
 69a:	fe cf       	rjmp	.-4      	; 0x698 <Uart0TxChar>
   UCSRA |= (1 << TXC);              // clear Tx complete bit
 69c:	5e 9a       	sbi	0x0b, 6	; 11
   UDR = Char;
 69e:	8c b9       	out	0x0c, r24	; 12
} // UartTxChar
 6a0:	08 95       	ret

000006a2 <Uart0TxDrain>:
//-----------------------------------------------------------------------------

void UartTxDrain( void)
// Waits for end of transmission
{
   while( !(UCSRA & (1 << TXC)));    // wait for Tx complete set
 6a2:	5e 9b       	sbis	0x0b, 6	; 11
 6a4:	fe cf       	rjmp	.-4      	; 0x6a2 <Uart0TxDrain>
} // UartTxDrain
 6a6:	08 95       	ret

000006a8 <Uart0RxChar>:
//-----------------------------------------------------------------------------

TYesNo UartRxChar( byte *Char)
// Returns YES and received byte on <Char>,
// or NO on timeout
{
 6a8:	fc 01       	movw	r30, r24
 6aa:	84 ea       	ldi	r24, 0xA4	; 164
 6ac:	9c e2       	ldi	r25, 0x2C	; 44
word Timeout;

   Timeout = WDelayCount( UART_RX_TIMEOUT, 3);
   do {
      if( UCSRA & (1 << RXC)){
 6ae:	5f 9b       	sbis	0x0b, 7	; 11
 6b0:	04 c0       	rjmp	.+8      	; 0x6ba <Uart0RxChar+0x12>
         *Char = UDR;
 6b2:	8c b1       	in	r24, 0x0c	; 12
 6b4:	80 83       	st	Z, r24
 6b6:	81 e0       	ldi	r24, 0x01	; 1
 6b8:	08 95       	ret
         return( YES);
      }
   } while( --Timeout);
 6ba:	01 97       	sbiw	r24, 0x01	; 1
 6bc:	c1 f7       	brne	.-16     	; 0x6ae <Uart0RxChar+0x6>
 6be:	80 e0       	ldi	r24, 0x00	; 0
   return( NO);
} // UartRxChar
 6c0:	08 95       	ret

000006c2 <Uart0RxWait>:
// Waits for receive up to <Timeout> miliseconds
{
word i;

   i = 1;
   Timeout++;
 6c2:	01 96       	adiw	r24, 0x01	; 1
 6c4:	21 e0       	ldi	r18, 0x01	; 1
 6c6:	30 e0       	ldi	r19, 0x00	; 0
   do{
      do {
         if( UCSRA & (1 << RXC)){
 6c8:	5f 9b       	sbis	0x0b, 7	; 11
 6ca:	02 c0       	rjmp	.+4      	; 0x6d0 <Uart0RxWait+0xe>
 6cc:	81 e0       	ldi	r24, 0x01	; 1
 6ce:	08 95       	ret
            return( YES);
         }
      } while( --i);
 6d0:	21 50       	subi	r18, 0x01	; 1
 6d2:	30 40       	sbci	r19, 0x00	; 0
 6d4:	c9 f7       	brne	.-14     	; 0x6c8 <Uart0RxWait+0x6>
      i = WDelayCount( 1000, 3);
   } while( --Timeout);
 6d6:	01 97       	sbiw	r24, 0x01	; 1
 6d8:	26 e7       	ldi	r18, 0x76	; 118
 6da:	34 e0       	ldi	r19, 0x04	; 4
 6dc:	a9 f7       	brne	.-22     	; 0x6c8 <Uart0RxWait+0x6>
 6de:	80 e0       	ldi	r24, 0x00	; 0
   return( NO);
} // UartRxWait
 6e0:	08 95       	ret

000006e2 <Uart0FlushChars>:
// Flush Rx
//-----------------------------------------------------------------------------

void UartFlushChars( void)
// Skips all Rx chars up to intercharacter timeout
{
 6e2:	84 ea       	ldi	r24, 0xA4	; 164
 6e4:	9c e2       	ldi	r25, 0x2C	; 44
word Timeout;
byte c;

   Timeout = WDelayCount( UART_RX_TIMEOUT, 3);
   do {
      if( UCSRA & (1 << RXC)){
 6e6:	5f 9b       	sbis	0x0b, 7	; 11
 6e8:	03 c0       	rjmp	.+6      	; 0x6f0 <Uart0FlushChars+0xe>
         c  = UDR;                                      // get character
 6ea:	8c b1       	in	r24, 0x0c	; 12
 6ec:	84 ea       	ldi	r24, 0xA4	; 164
 6ee:	9c e2       	ldi	r25, 0x2C	; 44
         Timeout = WDelayCount( UART_RX_TIMEOUT, 3);   // timeout again
         continue;
      }
   } while( --Timeout);
 6f0:	01 97       	sbiw	r24, 0x01	; 1
 6f2:	c9 f7       	brne	.-14     	; 0x6e6 <Uart0FlushChars+0x4>
} // UartFlushChars
 6f4:	08 95       	ret

000006f6 <ComPutchar>:
//-----------------------------------------------------------------------------
// COM putchar
//-----------------------------------------------------------------------------

int ComPutchar( char c, FILE *stream)
{
 6f6:	1f 93       	push	r17
 6f8:	18 2f       	mov	r17, r24
   if( c == '\n'){
 6fa:	8a 30       	cpi	r24, 0x0A	; 10
 6fc:	19 f4       	brne	.+6      	; 0x704 <ComPutchar+0xe>
      ComTxChar( '\r');                // translate LF to CR+LF
 6fe:	8d e0       	ldi	r24, 0x0D	; 13
 700:	0e 94 4c 03 	call	0x698	; 0x698 <Uart0TxChar>
   }
   ComTxChar( c);
 704:	81 2f       	mov	r24, r17
 706:	0e 94 4c 03 	call	0x698	; 0x698 <Uart0TxChar>
   return( 0);
} // ComPutchar
 70a:	80 e0       	ldi	r24, 0x00	; 0
 70c:	90 e0       	ldi	r25, 0x00	; 0
 70e:	1f 91       	pop	r17
 710:	08 95       	ret

00000712 <SpiInit>:
//-----------------------------------------------------------------------------

void SpiInit( void)
// Inicializace sbernice
{
   SpiPortInit();
 712:	81 b3       	in	r24, 0x11	; 17
 714:	80 6d       	ori	r24, 0xD0	; 208
 716:	81 bb       	out	0x11, r24	; 17
 718:	8d 98       	cbi	0x11, 5	; 17
   SpiClrSCK();      // vychozi stav
 71a:	94 98       	cbi	0x12, 4	; 18
   SpiAttach();      // vychozi stav
 71c:	97 98       	cbi	0x12, 7	; 18
   SpiRelease();     // deselect
 71e:	97 9a       	sbi	0x12, 7	; 18
} // SpiInit
 720:	08 95       	ret

00000722 <SpiReadByte>:
// Cteni dat
//-----------------------------------------------------------------------------

byte SpiReadByte( void)
// Precte byte
{
 722:	80 e0       	ldi	r24, 0x00	; 0
 724:	98 e0       	ldi	r25, 0x08	; 8
byte Value = 0;
byte i = 8;

   do {
      SpiSetSCK();
 726:	94 9a       	sbi	0x12, 4	; 18
      Value <<= 1;
 728:	88 0f       	add	r24, r24
      if( SpiGetSO()){
 72a:	85 99       	sbic	0x10, 5	; 16
         Value |= 1;
 72c:	81 60       	ori	r24, 0x01	; 1
      }
      SpiClrSCK();
 72e:	94 98       	cbi	0x12, 4	; 18
   } while( --i);
 730:	91 50       	subi	r25, 0x01	; 1
 732:	c9 f7       	brne	.-14     	; 0x726 <SpiReadByte+0x4>
   return( Value);
} // SpiReadByte
 734:	08 95       	ret

00000736 <SpiWriteByte>:
// Zapis dat
//-----------------------------------------------------------------------------

void SpiWriteByte(byte Value)
// Zapise byte
{
 736:	98 e0       	ldi	r25, 0x08	; 8
byte i;

   i = 8;
   do {
      SpiClrSI();
 738:	96 98       	cbi	0x12, 6	; 18
      if( Value & 0x80) {
 73a:	87 fd       	sbrc	r24, 7
         SpiSetSI();
 73c:	96 9a       	sbi	0x12, 6	; 18
      }
      SpiSetSCK();
 73e:	94 9a       	sbi	0x12, 4	; 18
      Value <<= 1;
      SpiClrSCK();
 740:	94 98       	cbi	0x12, 4	; 18
   } while( --i);
 742:	91 50       	subi	r25, 0x01	; 1
 744:	11 f0       	breq	.+4      	; 0x74a <SpiWriteByte+0x14>
      SpiClrSI();
      if( Value & 0x80) {
         SpiSetSI();
      }
      SpiSetSCK();
      Value <<= 1;
 746:	88 0f       	add	r24, r24
 748:	f7 cf       	rjmp	.-18     	; 0x738 <SpiWriteByte+0x2>
 74a:	08 95       	ret

0000074c <FramWakeup>:
//-----------------------------------------------------------------------------

void FramWakeup( void)
// Wakeup from sleep mode
{
   SpiAttach();                        // select CS
 74c:	97 98       	cbi	0x12, 7	; 18
   SysDelay( 1);                       // wait for wakeup
 74e:	81 e0       	ldi	r24, 0x01	; 1
 750:	90 e0       	ldi	r25, 0x00	; 0
 752:	0e 94 30 03 	call	0x660	; 0x660 <SysDelay>
   SpiWriteByte( FRAM_WRDI);           // some command
 756:	84 e0       	ldi	r24, 0x04	; 4
 758:	0e 94 9b 03 	call	0x736	; 0x736 <SpiWriteByte>
   SpiRelease();                       // deselect CS
 75c:	97 9a       	sbi	0x12, 7	; 18
} // FramWakeup
 75e:	08 95       	ret

00000760 <FramSleep>:
//-----------------------------------------------------------------------------

void FramSleep( void)
// Enter sleep mode
{
   SpiAttach();                        // select CS
 760:	97 98       	cbi	0x12, 7	; 18
   SpiWriteByte( FRAM_SLEEP);
 762:	89 eb       	ldi	r24, 0xB9	; 185
 764:	0e 94 9b 03 	call	0x736	; 0x736 <SpiWriteByte>
   SpiRelease();                       // deselect CS
 768:	97 9a       	sbi	0x12, 7	; 18
} // FramSleep
 76a:	08 95       	ret

0000076c <FramPageWriteStart>:
// Zapis Stranky do pameti
//-----------------------------------------------------------------------------

void FramPageWriteStart( dword Address)
// Start page write at <Address>
{
 76c:	ef 92       	push	r14
 76e:	ff 92       	push	r15
 770:	0f 93       	push	r16
 772:	1f 93       	push	r17
 774:	7b 01       	movw	r14, r22
 776:	8c 01       	movw	r16, r24
//-----------------------------------------------------------------------------

static void WrenCmd()
// Send WREN instruction
{
   SpiAttach();                        // select CS
 778:	97 98       	cbi	0x12, 7	; 18
   SpiWriteByte( FRAM_WREN);
 77a:	86 e0       	ldi	r24, 0x06	; 6
 77c:	0e 94 9b 03 	call	0x736	; 0x736 <SpiWriteByte>
   SpiRelease();                       // deselect CS
 780:	97 9a       	sbi	0x12, 7	; 18

void FramPageWriteStart( dword Address)
// Start page write at <Address>
{
   WrenCmd();                          // Set write enable latch
   SpiAttach();                        // select CS
 782:	97 98       	cbi	0x12, 7	; 18
   SpiWriteByte( FRAM_WRITE);          // WRITE instruction
 784:	82 e0       	ldi	r24, 0x02	; 2
 786:	0e 94 9b 03 	call	0x736	; 0x736 <SpiWriteByte>
   SpiWriteByte( Address >> 16);       // high address
 78a:	c8 01       	movw	r24, r16
 78c:	aa 27       	eor	r26, r26
 78e:	bb 27       	eor	r27, r27
 790:	0e 94 9b 03 	call	0x736	; 0x736 <SpiWriteByte>
   SpiWriteByte( Address >> 8);        // mid address
 794:	bb 27       	eor	r27, r27
 796:	a1 2f       	mov	r26, r17
 798:	90 2f       	mov	r25, r16
 79a:	8f 2d       	mov	r24, r15
 79c:	0e 94 9b 03 	call	0x736	; 0x736 <SpiWriteByte>
   SpiWriteByte( Address);             // low address
 7a0:	8e 2d       	mov	r24, r14
 7a2:	0e 94 9b 03 	call	0x736	; 0x736 <SpiWriteByte>
} // FramPageWriteStart
 7a6:	1f 91       	pop	r17
 7a8:	0f 91       	pop	r16
 7aa:	ff 90       	pop	r15
 7ac:	ef 90       	pop	r14
 7ae:	08 95       	ret

000007b0 <FramWriteByte>:
// Write
//-----------------------------------------------------------------------------

void FramWriteByte( dword Address, byte Value)
// Write <Value> at <Address>
{
 7b0:	1f 93       	push	r17
 7b2:	14 2f       	mov	r17, r20
   FramPageWriteStart( Address);       // start page write
 7b4:	0e 94 b6 03 	call	0x76c	; 0x76c <FramPageWriteStart>
   FramPageWriteData( Value);          // write data byte
 7b8:	81 2f       	mov	r24, r17
 7ba:	0e 94 9b 03 	call	0x736	; 0x736 <SpiWriteByte>
   FramPageWritePerform();             // save data
 7be:	97 9a       	sbi	0x12, 7	; 18
} // FramWriteByte
 7c0:	1f 91       	pop	r17
 7c2:	08 95       	ret

000007c4 <FramBlockReadStart>:
// Page read
//-----------------------------------------------------------------------------

void FramBlockReadStart( dword Address)
// Block read start
{
 7c4:	ef 92       	push	r14
 7c6:	ff 92       	push	r15
 7c8:	0f 93       	push	r16
 7ca:	1f 93       	push	r17
 7cc:	7b 01       	movw	r14, r22
 7ce:	8c 01       	movw	r16, r24
   SpiAttach();                        // select CS
 7d0:	97 98       	cbi	0x12, 7	; 18
   SpiWriteByte( FRAM_READ);           // READ instruction
 7d2:	83 e0       	ldi	r24, 0x03	; 3
 7d4:	0e 94 9b 03 	call	0x736	; 0x736 <SpiWriteByte>
   SpiWriteByte( Address >> 16);       // high address
 7d8:	c8 01       	movw	r24, r16
 7da:	aa 27       	eor	r26, r26
 7dc:	bb 27       	eor	r27, r27
 7de:	0e 94 9b 03 	call	0x736	; 0x736 <SpiWriteByte>
   SpiWriteByte( Address >> 8);        // mid address
 7e2:	bb 27       	eor	r27, r27
 7e4:	a1 2f       	mov	r26, r17
 7e6:	90 2f       	mov	r25, r16
 7e8:	8f 2d       	mov	r24, r15
 7ea:	0e 94 9b 03 	call	0x736	; 0x736 <SpiWriteByte>
   SpiWriteByte( Address);             // low address
 7ee:	8e 2d       	mov	r24, r14
 7f0:	0e 94 9b 03 	call	0x736	; 0x736 <SpiWriteByte>
} // FramBlockReadStart
 7f4:	1f 91       	pop	r17
 7f6:	0f 91       	pop	r16
 7f8:	ff 90       	pop	r15
 7fa:	ef 90       	pop	r14
 7fc:	08 95       	ret

000007fe <FramInit>:
//-----------------------------------------------------------------------------

static void WrenCmd()
// Send WREN instruction
{
   SpiAttach();                        // select CS
 7fe:	97 98       	cbi	0x12, 7	; 18
   SpiWriteByte( FRAM_WREN);
 800:	86 e0       	ldi	r24, 0x06	; 6
 802:	0e 94 9b 03 	call	0x736	; 0x736 <SpiWriteByte>
   SpiRelease();                       // deselect CS
 806:	97 9a       	sbi	0x12, 7	; 18
//-----------------------------------------------------------------------------

static void WrsrCmd( byte Value)
// Write status register
{
   SpiAttach();                        // select CS
 808:	97 98       	cbi	0x12, 7	; 18
   SpiWriteByte( FRAM_WRSR);
 80a:	81 e0       	ldi	r24, 0x01	; 1
 80c:	0e 94 9b 03 	call	0x736	; 0x736 <SpiWriteByte>
   SpiWriteByte( Value);
 810:	80 e0       	ldi	r24, 0x00	; 0
 812:	0e 94 9b 03 	call	0x736	; 0x736 <SpiWriteByte>
   SpiRelease();                       // deselect CS
 816:	97 9a       	sbi	0x12, 7	; 18
void FramInit()
// Initialisation (warning - without SPI)
{
   WrenCmd();                          // set write enable latch
   WrsrCmd( 0);                        // clear write protection
} // FramInit
 818:	08 95       	ret

0000081a <FramReadByte>:
byte FramReadByte( dword Address)
// Returns single byte from <Address>
{
byte Value;

   FramBlockReadStart( Address);       // block start
 81a:	0e 94 e2 03 	call	0x7c4	; 0x7c4 <FramBlockReadStart>
   Value = FramBlockReadData();        // write data byte
 81e:	0e 94 91 03 	call	0x722	; 0x722 <SpiReadByte>
   FramBlockReadStop();                // stop block read
 822:	97 9a       	sbi	0x12, 7	; 18
   return( Value);
} // FramReadByte
 824:	08 95       	ret

00000826 <RdsrCmd>:
static byte RdsrCmd()
// Returns status register
{
byte Value;

   SpiAttach();                        // select CS
 826:	97 98       	cbi	0x12, 7	; 18
   SpiWriteByte( FRAM_RDSR);
 828:	85 e0       	ldi	r24, 0x05	; 5
 82a:	0e 94 9b 03 	call	0x736	; 0x736 <SpiWriteByte>
   Value  = SpiReadByte();
 82e:	0e 94 91 03 	call	0x722	; 0x722 <SpiReadByte>
   SpiRelease();                       // deselect CS
 832:	97 9a       	sbi	0x12, 7	; 18
   return( Value);
}  // RdsrCmd
 834:	08 95       	ret

00000836 <FramIsPresent>:
//-----------------------------------------------------------------------------

static void WrenCmd()
// Send WREN instruction
{
   SpiAttach();                        // select CS
 836:	97 98       	cbi	0x12, 7	; 18
   SpiWriteByte( FRAM_WREN);
 838:	86 e0       	ldi	r24, 0x06	; 6
 83a:	0e 94 9b 03 	call	0x736	; 0x736 <SpiWriteByte>
   SpiRelease();                       // deselect CS
 83e:	97 9a       	sbi	0x12, 7	; 18

TYesNo FramIsPresent( void)
// Returns YES if memory is present
{
   WrenCmd();                          // write enable - set WEN bit in the status register
   if( !(RdsrCmd() & FRAM_MASK_WEL)){
 840:	0e 94 13 04 	call	0x826	; 0x826 <RdsrCmd>
 844:	81 fd       	sbrc	r24, 1
 846:	02 c0       	rjmp	.+4      	; 0x84c <FramIsPresent+0x16>
 848:	80 e0       	ldi	r24, 0x00	; 0
 84a:	08 95       	ret
//-----------------------------------------------------------------------------

static void WrdiCmd( void)
// Set write disable
{
   SpiAttach();                        // select CS
 84c:	97 98       	cbi	0x12, 7	; 18
   SpiWriteByte( FRAM_WRDI);
 84e:	84 e0       	ldi	r24, 0x04	; 4
 850:	0e 94 9b 03 	call	0x736	; 0x736 <SpiWriteByte>
   SpiRelease();                       // deselect CS
 854:	97 9a       	sbi	0x12, 7	; 18
   WrenCmd();                          // write enable - set WEN bit in the status register
   if( !(RdsrCmd() & FRAM_MASK_WEL)){
      return( NO);                     // not present
   }
   WrdiCmd();                          // write disable - clear WEN bit
   if(   RdsrCmd() & FRAM_MASK_WEL){
 856:	0e 94 13 04 	call	0x826	; 0x826 <RdsrCmd>
 85a:	86 95       	lsr	r24
 85c:	80 95       	com	r24
 85e:	81 70       	andi	r24, 0x01	; 1
      return( NO);                     // not present
   }
   return( YES);
} // FramIsPresent
 860:	08 95       	ret

00000862 <do_rand>:
 862:	a0 e0       	ldi	r26, 0x00	; 0
 864:	b0 e0       	ldi	r27, 0x00	; 0
 866:	e7 e3       	ldi	r30, 0x37	; 55
 868:	f4 e0       	ldi	r31, 0x04	; 4
 86a:	0c 94 77 07 	jmp	0xeee	; 0xeee <__prologue_saves__+0x10>
 86e:	ec 01       	movw	r28, r24
 870:	a8 80       	ld	r10, Y
 872:	b9 80       	ldd	r11, Y+1	; 0x01
 874:	ca 80       	ldd	r12, Y+2	; 0x02
 876:	db 80       	ldd	r13, Y+3	; 0x03
 878:	a1 14       	cp	r10, r1
 87a:	b1 04       	cpc	r11, r1
 87c:	c1 04       	cpc	r12, r1
 87e:	d1 04       	cpc	r13, r1
 880:	41 f4       	brne	.+16     	; 0x892 <do_rand+0x30>
 882:	84 e2       	ldi	r24, 0x24	; 36
 884:	a8 2e       	mov	r10, r24
 886:	89 ed       	ldi	r24, 0xD9	; 217
 888:	b8 2e       	mov	r11, r24
 88a:	8b e5       	ldi	r24, 0x5B	; 91
 88c:	c8 2e       	mov	r12, r24
 88e:	87 e0       	ldi	r24, 0x07	; 7
 890:	d8 2e       	mov	r13, r24
 892:	c6 01       	movw	r24, r12
 894:	b5 01       	movw	r22, r10
 896:	2d e1       	ldi	r18, 0x1D	; 29
 898:	33 ef       	ldi	r19, 0xF3	; 243
 89a:	41 e0       	ldi	r20, 0x01	; 1
 89c:	50 e0       	ldi	r21, 0x00	; 0
 89e:	0e 94 54 07 	call	0xea8	; 0xea8 <__divmodsi4>
 8a2:	27 ea       	ldi	r18, 0xA7	; 167
 8a4:	31 e4       	ldi	r19, 0x41	; 65
 8a6:	40 e0       	ldi	r20, 0x00	; 0
 8a8:	50 e0       	ldi	r21, 0x00	; 0
 8aa:	0e 94 35 07 	call	0xe6a	; 0xe6a <__mulsi3>
 8ae:	7b 01       	movw	r14, r22
 8b0:	8c 01       	movw	r16, r24
 8b2:	c6 01       	movw	r24, r12
 8b4:	b5 01       	movw	r22, r10
 8b6:	2d e1       	ldi	r18, 0x1D	; 29
 8b8:	33 ef       	ldi	r19, 0xF3	; 243
 8ba:	41 e0       	ldi	r20, 0x01	; 1
 8bc:	50 e0       	ldi	r21, 0x00	; 0
 8be:	0e 94 54 07 	call	0xea8	; 0xea8 <__divmodsi4>
 8c2:	ca 01       	movw	r24, r20
 8c4:	b9 01       	movw	r22, r18
 8c6:	2c ee       	ldi	r18, 0xEC	; 236
 8c8:	34 ef       	ldi	r19, 0xF4	; 244
 8ca:	4f ef       	ldi	r20, 0xFF	; 255
 8cc:	5f ef       	ldi	r21, 0xFF	; 255
 8ce:	0e 94 35 07 	call	0xe6a	; 0xe6a <__mulsi3>
 8d2:	6e 0d       	add	r22, r14
 8d4:	7f 1d       	adc	r23, r15
 8d6:	80 1f       	adc	r24, r16
 8d8:	91 1f       	adc	r25, r17
 8da:	97 ff       	sbrs	r25, 7
 8dc:	04 c0       	rjmp	.+8      	; 0x8e6 <do_rand+0x84>
 8de:	61 50       	subi	r22, 0x01	; 1
 8e0:	70 40       	sbci	r23, 0x00	; 0
 8e2:	80 40       	sbci	r24, 0x00	; 0
 8e4:	90 48       	sbci	r25, 0x80	; 128
 8e6:	68 83       	st	Y, r22
 8e8:	79 83       	std	Y+1, r23	; 0x01
 8ea:	8a 83       	std	Y+2, r24	; 0x02
 8ec:	9b 83       	std	Y+3, r25	; 0x03
 8ee:	9b 01       	movw	r18, r22
 8f0:	3f 77       	andi	r19, 0x7F	; 127
 8f2:	c9 01       	movw	r24, r18
 8f4:	cd b7       	in	r28, 0x3d	; 61
 8f6:	de b7       	in	r29, 0x3e	; 62
 8f8:	ea e0       	ldi	r30, 0x0A	; 10
 8fa:	0c 94 93 07 	jmp	0xf26	; 0xf26 <__epilogue_restores__+0x10>

000008fe <rand_r>:
 8fe:	0e 94 31 04 	call	0x862	; 0x862 <do_rand>
 902:	08 95       	ret

00000904 <rand>:
 904:	81 e8       	ldi	r24, 0x81	; 129
 906:	90 e0       	ldi	r25, 0x00	; 0
 908:	0e 94 31 04 	call	0x862	; 0x862 <do_rand>
 90c:	08 95       	ret

0000090e <srand>:
 90e:	a0 e0       	ldi	r26, 0x00	; 0
 910:	b0 e0       	ldi	r27, 0x00	; 0
 912:	80 93 81 00 	sts	0x0081, r24
 916:	90 93 82 00 	sts	0x0082, r25
 91a:	a0 93 83 00 	sts	0x0083, r26
 91e:	b0 93 84 00 	sts	0x0084, r27
 922:	08 95       	ret

00000924 <printf_P>:
 924:	a0 e0       	ldi	r26, 0x00	; 0
 926:	b0 e0       	ldi	r27, 0x00	; 0
 928:	e8 e9       	ldi	r30, 0x98	; 152
 92a:	f4 e0       	ldi	r31, 0x04	; 4
 92c:	0c 94 7f 07 	jmp	0xefe	; 0xefe <__prologue_saves__+0x20>
 930:	fe 01       	movw	r30, r28
 932:	35 96       	adiw	r30, 0x05	; 5
 934:	61 91       	ld	r22, Z+
 936:	71 91       	ld	r23, Z+
 938:	a0 91 8a 00 	lds	r26, 0x008A
 93c:	b0 91 8b 00 	lds	r27, 0x008B
 940:	13 96       	adiw	r26, 0x03	; 3
 942:	8c 91       	ld	r24, X
 944:	13 97       	sbiw	r26, 0x03	; 3
 946:	88 60       	ori	r24, 0x08	; 8
 948:	13 96       	adiw	r26, 0x03	; 3
 94a:	8c 93       	st	X, r24
 94c:	80 91 8a 00 	lds	r24, 0x008A
 950:	90 91 8b 00 	lds	r25, 0x008B
 954:	af 01       	movw	r20, r30
 956:	0e 94 b8 04 	call	0x970	; 0x970 <vfprintf>
 95a:	e0 91 8a 00 	lds	r30, 0x008A
 95e:	f0 91 8b 00 	lds	r31, 0x008B
 962:	23 81       	ldd	r18, Z+3	; 0x03
 964:	27 7f       	andi	r18, 0xF7	; 247
 966:	23 83       	std	Z+3, r18	; 0x03
 968:	20 96       	adiw	r28, 0x00	; 0
 96a:	e2 e0       	ldi	r30, 0x02	; 2
 96c:	0c 94 9b 07 	jmp	0xf36	; 0xf36 <__epilogue_restores__+0x20>

00000970 <vfprintf>:
 970:	ab e0       	ldi	r26, 0x0B	; 11
 972:	b0 e0       	ldi	r27, 0x00	; 0
 974:	ee eb       	ldi	r30, 0xBE	; 190
 976:	f4 e0       	ldi	r31, 0x04	; 4
 978:	0c 94 6f 07 	jmp	0xede	; 0xede <__prologue_saves__>
 97c:	3c 01       	movw	r6, r24
 97e:	2b 01       	movw	r4, r22
 980:	5a 01       	movw	r10, r20
 982:	fc 01       	movw	r30, r24
 984:	17 82       	std	Z+7, r1	; 0x07
 986:	16 82       	std	Z+6, r1	; 0x06
 988:	83 81       	ldd	r24, Z+3	; 0x03
 98a:	81 fd       	sbrc	r24, 1
 98c:	03 c0       	rjmp	.+6      	; 0x994 <vfprintf+0x24>
 98e:	6f ef       	ldi	r22, 0xFF	; 255
 990:	7f ef       	ldi	r23, 0xFF	; 255
 992:	c6 c1       	rjmp	.+908    	; 0xd20 <vfprintf+0x3b0>
 994:	9a e0       	ldi	r25, 0x0A	; 10
 996:	89 2e       	mov	r8, r25
 998:	1e 01       	movw	r2, r28
 99a:	08 94       	sec
 99c:	21 1c       	adc	r2, r1
 99e:	31 1c       	adc	r3, r1
 9a0:	f3 01       	movw	r30, r6
 9a2:	23 81       	ldd	r18, Z+3	; 0x03
 9a4:	f2 01       	movw	r30, r4
 9a6:	23 fd       	sbrc	r18, 3
 9a8:	85 91       	lpm	r24, Z+
 9aa:	23 ff       	sbrs	r18, 3
 9ac:	81 91       	ld	r24, Z+
 9ae:	2f 01       	movw	r4, r30
 9b0:	88 23       	and	r24, r24
 9b2:	09 f4       	brne	.+2      	; 0x9b6 <vfprintf+0x46>
 9b4:	b2 c1       	rjmp	.+868    	; 0xd1a <vfprintf+0x3aa>
 9b6:	85 32       	cpi	r24, 0x25	; 37
 9b8:	39 f4       	brne	.+14     	; 0x9c8 <vfprintf+0x58>
 9ba:	23 fd       	sbrc	r18, 3
 9bc:	85 91       	lpm	r24, Z+
 9be:	23 ff       	sbrs	r18, 3
 9c0:	81 91       	ld	r24, Z+
 9c2:	2f 01       	movw	r4, r30
 9c4:	85 32       	cpi	r24, 0x25	; 37
 9c6:	29 f4       	brne	.+10     	; 0x9d2 <vfprintf+0x62>
 9c8:	90 e0       	ldi	r25, 0x00	; 0
 9ca:	b3 01       	movw	r22, r6
 9cc:	0e 94 ab 06 	call	0xd56	; 0xd56 <fputc>
 9d0:	e7 cf       	rjmp	.-50     	; 0x9a0 <vfprintf+0x30>
 9d2:	98 2f       	mov	r25, r24
 9d4:	ff 24       	eor	r15, r15
 9d6:	ee 24       	eor	r14, r14
 9d8:	99 24       	eor	r9, r9
 9da:	ff e1       	ldi	r31, 0x1F	; 31
 9dc:	ff 15       	cp	r31, r15
 9de:	d0 f0       	brcs	.+52     	; 0xa14 <vfprintf+0xa4>
 9e0:	9b 32       	cpi	r25, 0x2B	; 43
 9e2:	69 f0       	breq	.+26     	; 0x9fe <vfprintf+0x8e>
 9e4:	9c 32       	cpi	r25, 0x2C	; 44
 9e6:	28 f4       	brcc	.+10     	; 0x9f2 <vfprintf+0x82>
 9e8:	90 32       	cpi	r25, 0x20	; 32
 9ea:	59 f0       	breq	.+22     	; 0xa02 <vfprintf+0x92>
 9ec:	93 32       	cpi	r25, 0x23	; 35
 9ee:	91 f4       	brne	.+36     	; 0xa14 <vfprintf+0xa4>
 9f0:	0e c0       	rjmp	.+28     	; 0xa0e <vfprintf+0x9e>
 9f2:	9d 32       	cpi	r25, 0x2D	; 45
 9f4:	49 f0       	breq	.+18     	; 0xa08 <vfprintf+0x98>
 9f6:	90 33       	cpi	r25, 0x30	; 48
 9f8:	69 f4       	brne	.+26     	; 0xa14 <vfprintf+0xa4>
 9fa:	41 e0       	ldi	r20, 0x01	; 1
 9fc:	24 c0       	rjmp	.+72     	; 0xa46 <vfprintf+0xd6>
 9fe:	52 e0       	ldi	r21, 0x02	; 2
 a00:	f5 2a       	or	r15, r21
 a02:	84 e0       	ldi	r24, 0x04	; 4
 a04:	f8 2a       	or	r15, r24
 a06:	28 c0       	rjmp	.+80     	; 0xa58 <vfprintf+0xe8>
 a08:	98 e0       	ldi	r25, 0x08	; 8
 a0a:	f9 2a       	or	r15, r25
 a0c:	25 c0       	rjmp	.+74     	; 0xa58 <vfprintf+0xe8>
 a0e:	e0 e1       	ldi	r30, 0x10	; 16
 a10:	fe 2a       	or	r15, r30
 a12:	22 c0       	rjmp	.+68     	; 0xa58 <vfprintf+0xe8>
 a14:	f7 fc       	sbrc	r15, 7
 a16:	29 c0       	rjmp	.+82     	; 0xa6a <vfprintf+0xfa>
 a18:	89 2f       	mov	r24, r25
 a1a:	80 53       	subi	r24, 0x30	; 48
 a1c:	8a 30       	cpi	r24, 0x0A	; 10
 a1e:	70 f4       	brcc	.+28     	; 0xa3c <vfprintf+0xcc>
 a20:	f6 fe       	sbrs	r15, 6
 a22:	05 c0       	rjmp	.+10     	; 0xa2e <vfprintf+0xbe>
 a24:	98 9c       	mul	r9, r8
 a26:	90 2c       	mov	r9, r0
 a28:	11 24       	eor	r1, r1
 a2a:	98 0e       	add	r9, r24
 a2c:	15 c0       	rjmp	.+42     	; 0xa58 <vfprintf+0xe8>
 a2e:	e8 9c       	mul	r14, r8
 a30:	e0 2c       	mov	r14, r0
 a32:	11 24       	eor	r1, r1
 a34:	e8 0e       	add	r14, r24
 a36:	f0 e2       	ldi	r31, 0x20	; 32
 a38:	ff 2a       	or	r15, r31
 a3a:	0e c0       	rjmp	.+28     	; 0xa58 <vfprintf+0xe8>
 a3c:	9e 32       	cpi	r25, 0x2E	; 46
 a3e:	29 f4       	brne	.+10     	; 0xa4a <vfprintf+0xda>
 a40:	f6 fc       	sbrc	r15, 6
 a42:	6b c1       	rjmp	.+726    	; 0xd1a <vfprintf+0x3aa>
 a44:	40 e4       	ldi	r20, 0x40	; 64
 a46:	f4 2a       	or	r15, r20
 a48:	07 c0       	rjmp	.+14     	; 0xa58 <vfprintf+0xe8>
 a4a:	9c 36       	cpi	r25, 0x6C	; 108
 a4c:	19 f4       	brne	.+6      	; 0xa54 <vfprintf+0xe4>
 a4e:	50 e8       	ldi	r21, 0x80	; 128
 a50:	f5 2a       	or	r15, r21
 a52:	02 c0       	rjmp	.+4      	; 0xa58 <vfprintf+0xe8>
 a54:	98 36       	cpi	r25, 0x68	; 104
 a56:	49 f4       	brne	.+18     	; 0xa6a <vfprintf+0xfa>
 a58:	f2 01       	movw	r30, r4
 a5a:	23 fd       	sbrc	r18, 3
 a5c:	95 91       	lpm	r25, Z+
 a5e:	23 ff       	sbrs	r18, 3
 a60:	91 91       	ld	r25, Z+
 a62:	2f 01       	movw	r4, r30
 a64:	99 23       	and	r25, r25
 a66:	09 f0       	breq	.+2      	; 0xa6a <vfprintf+0xfa>
 a68:	b8 cf       	rjmp	.-144    	; 0x9da <vfprintf+0x6a>
 a6a:	89 2f       	mov	r24, r25
 a6c:	85 54       	subi	r24, 0x45	; 69
 a6e:	83 30       	cpi	r24, 0x03	; 3
 a70:	18 f0       	brcs	.+6      	; 0xa78 <vfprintf+0x108>
 a72:	80 52       	subi	r24, 0x20	; 32
 a74:	83 30       	cpi	r24, 0x03	; 3
 a76:	38 f4       	brcc	.+14     	; 0xa86 <vfprintf+0x116>
 a78:	44 e0       	ldi	r20, 0x04	; 4
 a7a:	50 e0       	ldi	r21, 0x00	; 0
 a7c:	a4 0e       	add	r10, r20
 a7e:	b5 1e       	adc	r11, r21
 a80:	5f e3       	ldi	r21, 0x3F	; 63
 a82:	59 83       	std	Y+1, r21	; 0x01
 a84:	0f c0       	rjmp	.+30     	; 0xaa4 <vfprintf+0x134>
 a86:	93 36       	cpi	r25, 0x63	; 99
 a88:	31 f0       	breq	.+12     	; 0xa96 <vfprintf+0x126>
 a8a:	93 37       	cpi	r25, 0x73	; 115
 a8c:	79 f0       	breq	.+30     	; 0xaac <vfprintf+0x13c>
 a8e:	93 35       	cpi	r25, 0x53	; 83
 a90:	09 f0       	breq	.+2      	; 0xa94 <vfprintf+0x124>
 a92:	56 c0       	rjmp	.+172    	; 0xb40 <vfprintf+0x1d0>
 a94:	20 c0       	rjmp	.+64     	; 0xad6 <vfprintf+0x166>
 a96:	f5 01       	movw	r30, r10
 a98:	80 81       	ld	r24, Z
 a9a:	89 83       	std	Y+1, r24	; 0x01
 a9c:	42 e0       	ldi	r20, 0x02	; 2
 a9e:	50 e0       	ldi	r21, 0x00	; 0
 aa0:	a4 0e       	add	r10, r20
 aa2:	b5 1e       	adc	r11, r21
 aa4:	61 01       	movw	r12, r2
 aa6:	01 e0       	ldi	r16, 0x01	; 1
 aa8:	10 e0       	ldi	r17, 0x00	; 0
 aaa:	12 c0       	rjmp	.+36     	; 0xad0 <vfprintf+0x160>
 aac:	f5 01       	movw	r30, r10
 aae:	c0 80       	ld	r12, Z
 ab0:	d1 80       	ldd	r13, Z+1	; 0x01
 ab2:	f6 fc       	sbrc	r15, 6
 ab4:	03 c0       	rjmp	.+6      	; 0xabc <vfprintf+0x14c>
 ab6:	6f ef       	ldi	r22, 0xFF	; 255
 ab8:	7f ef       	ldi	r23, 0xFF	; 255
 aba:	02 c0       	rjmp	.+4      	; 0xac0 <vfprintf+0x150>
 abc:	69 2d       	mov	r22, r9
 abe:	70 e0       	ldi	r23, 0x00	; 0
 ac0:	42 e0       	ldi	r20, 0x02	; 2
 ac2:	50 e0       	ldi	r21, 0x00	; 0
 ac4:	a4 0e       	add	r10, r20
 ac6:	b5 1e       	adc	r11, r21
 ac8:	c6 01       	movw	r24, r12
 aca:	0e 94 a0 06 	call	0xd40	; 0xd40 <strnlen>
 ace:	8c 01       	movw	r16, r24
 ad0:	5f e7       	ldi	r21, 0x7F	; 127
 ad2:	f5 22       	and	r15, r21
 ad4:	14 c0       	rjmp	.+40     	; 0xafe <vfprintf+0x18e>
 ad6:	f5 01       	movw	r30, r10
 ad8:	c0 80       	ld	r12, Z
 ada:	d1 80       	ldd	r13, Z+1	; 0x01
 adc:	f6 fc       	sbrc	r15, 6
 ade:	03 c0       	rjmp	.+6      	; 0xae6 <vfprintf+0x176>
 ae0:	6f ef       	ldi	r22, 0xFF	; 255
 ae2:	7f ef       	ldi	r23, 0xFF	; 255
 ae4:	02 c0       	rjmp	.+4      	; 0xaea <vfprintf+0x17a>
 ae6:	69 2d       	mov	r22, r9
 ae8:	70 e0       	ldi	r23, 0x00	; 0
 aea:	42 e0       	ldi	r20, 0x02	; 2
 aec:	50 e0       	ldi	r21, 0x00	; 0
 aee:	a4 0e       	add	r10, r20
 af0:	b5 1e       	adc	r11, r21
 af2:	c6 01       	movw	r24, r12
 af4:	0e 94 95 06 	call	0xd2a	; 0xd2a <strnlen_P>
 af8:	8c 01       	movw	r16, r24
 afa:	50 e8       	ldi	r21, 0x80	; 128
 afc:	f5 2a       	or	r15, r21
 afe:	f3 fe       	sbrs	r15, 3
 b00:	07 c0       	rjmp	.+14     	; 0xb10 <vfprintf+0x1a0>
 b02:	1a c0       	rjmp	.+52     	; 0xb38 <vfprintf+0x1c8>
 b04:	80 e2       	ldi	r24, 0x20	; 32
 b06:	90 e0       	ldi	r25, 0x00	; 0
 b08:	b3 01       	movw	r22, r6
 b0a:	0e 94 ab 06 	call	0xd56	; 0xd56 <fputc>
 b0e:	ea 94       	dec	r14
 b10:	8e 2d       	mov	r24, r14
 b12:	90 e0       	ldi	r25, 0x00	; 0
 b14:	08 17       	cp	r16, r24
 b16:	19 07       	cpc	r17, r25
 b18:	a8 f3       	brcs	.-22     	; 0xb04 <vfprintf+0x194>
 b1a:	0e c0       	rjmp	.+28     	; 0xb38 <vfprintf+0x1c8>
 b1c:	f6 01       	movw	r30, r12
 b1e:	f7 fc       	sbrc	r15, 7
 b20:	85 91       	lpm	r24, Z+
 b22:	f7 fe       	sbrs	r15, 7
 b24:	81 91       	ld	r24, Z+
 b26:	6f 01       	movw	r12, r30
 b28:	90 e0       	ldi	r25, 0x00	; 0
 b2a:	b3 01       	movw	r22, r6
 b2c:	0e 94 ab 06 	call	0xd56	; 0xd56 <fputc>
 b30:	e1 10       	cpse	r14, r1
 b32:	ea 94       	dec	r14
 b34:	01 50       	subi	r16, 0x01	; 1
 b36:	10 40       	sbci	r17, 0x00	; 0
 b38:	01 15       	cp	r16, r1
 b3a:	11 05       	cpc	r17, r1
 b3c:	79 f7       	brne	.-34     	; 0xb1c <vfprintf+0x1ac>
 b3e:	ea c0       	rjmp	.+468    	; 0xd14 <vfprintf+0x3a4>
 b40:	94 36       	cpi	r25, 0x64	; 100
 b42:	11 f0       	breq	.+4      	; 0xb48 <vfprintf+0x1d8>
 b44:	99 36       	cpi	r25, 0x69	; 105
 b46:	69 f5       	brne	.+90     	; 0xba2 <vfprintf+0x232>
 b48:	f7 fe       	sbrs	r15, 7
 b4a:	08 c0       	rjmp	.+16     	; 0xb5c <vfprintf+0x1ec>
 b4c:	f5 01       	movw	r30, r10
 b4e:	20 81       	ld	r18, Z
 b50:	31 81       	ldd	r19, Z+1	; 0x01
 b52:	42 81       	ldd	r20, Z+2	; 0x02
 b54:	53 81       	ldd	r21, Z+3	; 0x03
 b56:	84 e0       	ldi	r24, 0x04	; 4
 b58:	90 e0       	ldi	r25, 0x00	; 0
 b5a:	0a c0       	rjmp	.+20     	; 0xb70 <vfprintf+0x200>
 b5c:	f5 01       	movw	r30, r10
 b5e:	80 81       	ld	r24, Z
 b60:	91 81       	ldd	r25, Z+1	; 0x01
 b62:	9c 01       	movw	r18, r24
 b64:	44 27       	eor	r20, r20
 b66:	37 fd       	sbrc	r19, 7
 b68:	40 95       	com	r20
 b6a:	54 2f       	mov	r21, r20
 b6c:	82 e0       	ldi	r24, 0x02	; 2
 b6e:	90 e0       	ldi	r25, 0x00	; 0
 b70:	a8 0e       	add	r10, r24
 b72:	b9 1e       	adc	r11, r25
 b74:	9f e6       	ldi	r25, 0x6F	; 111
 b76:	f9 22       	and	r15, r25
 b78:	57 ff       	sbrs	r21, 7
 b7a:	09 c0       	rjmp	.+18     	; 0xb8e <vfprintf+0x21e>
 b7c:	50 95       	com	r21
 b7e:	40 95       	com	r20
 b80:	30 95       	com	r19
 b82:	21 95       	neg	r18
 b84:	3f 4f       	sbci	r19, 0xFF	; 255
 b86:	4f 4f       	sbci	r20, 0xFF	; 255
 b88:	5f 4f       	sbci	r21, 0xFF	; 255
 b8a:	e0 e8       	ldi	r30, 0x80	; 128
 b8c:	fe 2a       	or	r15, r30
 b8e:	ca 01       	movw	r24, r20
 b90:	b9 01       	movw	r22, r18
 b92:	a1 01       	movw	r20, r2
 b94:	2a e0       	ldi	r18, 0x0A	; 10
 b96:	30 e0       	ldi	r19, 0x00	; 0
 b98:	0e 94 d7 06 	call	0xdae	; 0xdae <__ultoa_invert>
 b9c:	d8 2e       	mov	r13, r24
 b9e:	d2 18       	sub	r13, r2
 ba0:	40 c0       	rjmp	.+128    	; 0xc22 <vfprintf+0x2b2>
 ba2:	95 37       	cpi	r25, 0x75	; 117
 ba4:	29 f4       	brne	.+10     	; 0xbb0 <vfprintf+0x240>
 ba6:	1f 2d       	mov	r17, r15
 ba8:	1f 7e       	andi	r17, 0xEF	; 239
 baa:	2a e0       	ldi	r18, 0x0A	; 10
 bac:	30 e0       	ldi	r19, 0x00	; 0
 bae:	1d c0       	rjmp	.+58     	; 0xbea <vfprintf+0x27a>
 bb0:	1f 2d       	mov	r17, r15
 bb2:	19 7f       	andi	r17, 0xF9	; 249
 bb4:	9f 36       	cpi	r25, 0x6F	; 111
 bb6:	61 f0       	breq	.+24     	; 0xbd0 <vfprintf+0x260>
 bb8:	90 37       	cpi	r25, 0x70	; 112
 bba:	20 f4       	brcc	.+8      	; 0xbc4 <vfprintf+0x254>
 bbc:	98 35       	cpi	r25, 0x58	; 88
 bbe:	09 f0       	breq	.+2      	; 0xbc2 <vfprintf+0x252>
 bc0:	ac c0       	rjmp	.+344    	; 0xd1a <vfprintf+0x3aa>
 bc2:	0f c0       	rjmp	.+30     	; 0xbe2 <vfprintf+0x272>
 bc4:	90 37       	cpi	r25, 0x70	; 112
 bc6:	39 f0       	breq	.+14     	; 0xbd6 <vfprintf+0x266>
 bc8:	98 37       	cpi	r25, 0x78	; 120
 bca:	09 f0       	breq	.+2      	; 0xbce <vfprintf+0x25e>
 bcc:	a6 c0       	rjmp	.+332    	; 0xd1a <vfprintf+0x3aa>
 bce:	04 c0       	rjmp	.+8      	; 0xbd8 <vfprintf+0x268>
 bd0:	28 e0       	ldi	r18, 0x08	; 8
 bd2:	30 e0       	ldi	r19, 0x00	; 0
 bd4:	0a c0       	rjmp	.+20     	; 0xbea <vfprintf+0x27a>
 bd6:	10 61       	ori	r17, 0x10	; 16
 bd8:	14 fd       	sbrc	r17, 4
 bda:	14 60       	ori	r17, 0x04	; 4
 bdc:	20 e1       	ldi	r18, 0x10	; 16
 bde:	30 e0       	ldi	r19, 0x00	; 0
 be0:	04 c0       	rjmp	.+8      	; 0xbea <vfprintf+0x27a>
 be2:	14 fd       	sbrc	r17, 4
 be4:	16 60       	ori	r17, 0x06	; 6
 be6:	20 e1       	ldi	r18, 0x10	; 16
 be8:	32 e0       	ldi	r19, 0x02	; 2
 bea:	17 ff       	sbrs	r17, 7
 bec:	08 c0       	rjmp	.+16     	; 0xbfe <vfprintf+0x28e>
 bee:	f5 01       	movw	r30, r10
 bf0:	60 81       	ld	r22, Z
 bf2:	71 81       	ldd	r23, Z+1	; 0x01
 bf4:	82 81       	ldd	r24, Z+2	; 0x02
 bf6:	93 81       	ldd	r25, Z+3	; 0x03
 bf8:	44 e0       	ldi	r20, 0x04	; 4
 bfa:	50 e0       	ldi	r21, 0x00	; 0
 bfc:	08 c0       	rjmp	.+16     	; 0xc0e <vfprintf+0x29e>
 bfe:	f5 01       	movw	r30, r10
 c00:	80 81       	ld	r24, Z
 c02:	91 81       	ldd	r25, Z+1	; 0x01
 c04:	bc 01       	movw	r22, r24
 c06:	80 e0       	ldi	r24, 0x00	; 0
 c08:	90 e0       	ldi	r25, 0x00	; 0
 c0a:	42 e0       	ldi	r20, 0x02	; 2
 c0c:	50 e0       	ldi	r21, 0x00	; 0
 c0e:	a4 0e       	add	r10, r20
 c10:	b5 1e       	adc	r11, r21
 c12:	a1 01       	movw	r20, r2
 c14:	0e 94 d7 06 	call	0xdae	; 0xdae <__ultoa_invert>
 c18:	d8 2e       	mov	r13, r24
 c1a:	d2 18       	sub	r13, r2
 c1c:	8f e7       	ldi	r24, 0x7F	; 127
 c1e:	f8 2e       	mov	r15, r24
 c20:	f1 22       	and	r15, r17
 c22:	f6 fe       	sbrs	r15, 6
 c24:	0b c0       	rjmp	.+22     	; 0xc3c <vfprintf+0x2cc>
 c26:	5e ef       	ldi	r21, 0xFE	; 254
 c28:	f5 22       	and	r15, r21
 c2a:	d9 14       	cp	r13, r9
 c2c:	38 f4       	brcc	.+14     	; 0xc3c <vfprintf+0x2cc>
 c2e:	f4 fe       	sbrs	r15, 4
 c30:	07 c0       	rjmp	.+14     	; 0xc40 <vfprintf+0x2d0>
 c32:	f2 fc       	sbrc	r15, 2
 c34:	05 c0       	rjmp	.+10     	; 0xc40 <vfprintf+0x2d0>
 c36:	8f ee       	ldi	r24, 0xEF	; 239
 c38:	f8 22       	and	r15, r24
 c3a:	02 c0       	rjmp	.+4      	; 0xc40 <vfprintf+0x2d0>
 c3c:	1d 2d       	mov	r17, r13
 c3e:	01 c0       	rjmp	.+2      	; 0xc42 <vfprintf+0x2d2>
 c40:	19 2d       	mov	r17, r9
 c42:	f4 fe       	sbrs	r15, 4
 c44:	0d c0       	rjmp	.+26     	; 0xc60 <vfprintf+0x2f0>
 c46:	fe 01       	movw	r30, r28
 c48:	ed 0d       	add	r30, r13
 c4a:	f1 1d       	adc	r31, r1
 c4c:	80 81       	ld	r24, Z
 c4e:	80 33       	cpi	r24, 0x30	; 48
 c50:	19 f4       	brne	.+6      	; 0xc58 <vfprintf+0x2e8>
 c52:	99 ee       	ldi	r25, 0xE9	; 233
 c54:	f9 22       	and	r15, r25
 c56:	08 c0       	rjmp	.+16     	; 0xc68 <vfprintf+0x2f8>
 c58:	1f 5f       	subi	r17, 0xFF	; 255
 c5a:	f2 fe       	sbrs	r15, 2
 c5c:	05 c0       	rjmp	.+10     	; 0xc68 <vfprintf+0x2f8>
 c5e:	03 c0       	rjmp	.+6      	; 0xc66 <vfprintf+0x2f6>
 c60:	8f 2d       	mov	r24, r15
 c62:	86 78       	andi	r24, 0x86	; 134
 c64:	09 f0       	breq	.+2      	; 0xc68 <vfprintf+0x2f8>
 c66:	1f 5f       	subi	r17, 0xFF	; 255
 c68:	0f 2d       	mov	r16, r15
 c6a:	f3 fc       	sbrc	r15, 3
 c6c:	14 c0       	rjmp	.+40     	; 0xc96 <vfprintf+0x326>
 c6e:	f0 fe       	sbrs	r15, 0
 c70:	0f c0       	rjmp	.+30     	; 0xc90 <vfprintf+0x320>
 c72:	1e 15       	cp	r17, r14
 c74:	10 f0       	brcs	.+4      	; 0xc7a <vfprintf+0x30a>
 c76:	9d 2c       	mov	r9, r13
 c78:	0b c0       	rjmp	.+22     	; 0xc90 <vfprintf+0x320>
 c7a:	9d 2c       	mov	r9, r13
 c7c:	9e 0c       	add	r9, r14
 c7e:	91 1a       	sub	r9, r17
 c80:	1e 2d       	mov	r17, r14
 c82:	06 c0       	rjmp	.+12     	; 0xc90 <vfprintf+0x320>
 c84:	80 e2       	ldi	r24, 0x20	; 32
 c86:	90 e0       	ldi	r25, 0x00	; 0
 c88:	b3 01       	movw	r22, r6
 c8a:	0e 94 ab 06 	call	0xd56	; 0xd56 <fputc>
 c8e:	1f 5f       	subi	r17, 0xFF	; 255
 c90:	1e 15       	cp	r17, r14
 c92:	c0 f3       	brcs	.-16     	; 0xc84 <vfprintf+0x314>
 c94:	04 c0       	rjmp	.+8      	; 0xc9e <vfprintf+0x32e>
 c96:	1e 15       	cp	r17, r14
 c98:	10 f4       	brcc	.+4      	; 0xc9e <vfprintf+0x32e>
 c9a:	e1 1a       	sub	r14, r17
 c9c:	01 c0       	rjmp	.+2      	; 0xca0 <vfprintf+0x330>
 c9e:	ee 24       	eor	r14, r14
 ca0:	04 ff       	sbrs	r16, 4
 ca2:	0f c0       	rjmp	.+30     	; 0xcc2 <vfprintf+0x352>
 ca4:	80 e3       	ldi	r24, 0x30	; 48
 ca6:	90 e0       	ldi	r25, 0x00	; 0
 ca8:	b3 01       	movw	r22, r6
 caa:	0e 94 ab 06 	call	0xd56	; 0xd56 <fputc>
 cae:	02 ff       	sbrs	r16, 2
 cb0:	1d c0       	rjmp	.+58     	; 0xcec <vfprintf+0x37c>
 cb2:	01 fd       	sbrc	r16, 1
 cb4:	03 c0       	rjmp	.+6      	; 0xcbc <vfprintf+0x34c>
 cb6:	88 e7       	ldi	r24, 0x78	; 120
 cb8:	90 e0       	ldi	r25, 0x00	; 0
 cba:	0e c0       	rjmp	.+28     	; 0xcd8 <vfprintf+0x368>
 cbc:	88 e5       	ldi	r24, 0x58	; 88
 cbe:	90 e0       	ldi	r25, 0x00	; 0
 cc0:	0b c0       	rjmp	.+22     	; 0xcd8 <vfprintf+0x368>
 cc2:	80 2f       	mov	r24, r16
 cc4:	86 78       	andi	r24, 0x86	; 134
 cc6:	91 f0       	breq	.+36     	; 0xcec <vfprintf+0x37c>
 cc8:	01 ff       	sbrs	r16, 1
 cca:	02 c0       	rjmp	.+4      	; 0xcd0 <vfprintf+0x360>
 ccc:	8b e2       	ldi	r24, 0x2B	; 43
 cce:	01 c0       	rjmp	.+2      	; 0xcd2 <vfprintf+0x362>
 cd0:	80 e2       	ldi	r24, 0x20	; 32
 cd2:	f7 fc       	sbrc	r15, 7
 cd4:	8d e2       	ldi	r24, 0x2D	; 45
 cd6:	90 e0       	ldi	r25, 0x00	; 0
 cd8:	b3 01       	movw	r22, r6
 cda:	0e 94 ab 06 	call	0xd56	; 0xd56 <fputc>
 cde:	06 c0       	rjmp	.+12     	; 0xcec <vfprintf+0x37c>
 ce0:	80 e3       	ldi	r24, 0x30	; 48
 ce2:	90 e0       	ldi	r25, 0x00	; 0
 ce4:	b3 01       	movw	r22, r6
 ce6:	0e 94 ab 06 	call	0xd56	; 0xd56 <fputc>
 cea:	9a 94       	dec	r9
 cec:	d9 14       	cp	r13, r9
 cee:	c0 f3       	brcs	.-16     	; 0xce0 <vfprintf+0x370>
 cf0:	da 94       	dec	r13
 cf2:	f1 01       	movw	r30, r2
 cf4:	ed 0d       	add	r30, r13
 cf6:	f1 1d       	adc	r31, r1
 cf8:	80 81       	ld	r24, Z
 cfa:	90 e0       	ldi	r25, 0x00	; 0
 cfc:	b3 01       	movw	r22, r6
 cfe:	0e 94 ab 06 	call	0xd56	; 0xd56 <fputc>
 d02:	dd 20       	and	r13, r13
 d04:	a9 f7       	brne	.-22     	; 0xcf0 <vfprintf+0x380>
 d06:	06 c0       	rjmp	.+12     	; 0xd14 <vfprintf+0x3a4>
 d08:	80 e2       	ldi	r24, 0x20	; 32
 d0a:	90 e0       	ldi	r25, 0x00	; 0
 d0c:	b3 01       	movw	r22, r6
 d0e:	0e 94 ab 06 	call	0xd56	; 0xd56 <fputc>
 d12:	ea 94       	dec	r14
 d14:	ee 20       	and	r14, r14
 d16:	c1 f7       	brne	.-16     	; 0xd08 <vfprintf+0x398>
 d18:	43 ce       	rjmp	.-890    	; 0x9a0 <vfprintf+0x30>
 d1a:	f3 01       	movw	r30, r6
 d1c:	66 81       	ldd	r22, Z+6	; 0x06
 d1e:	77 81       	ldd	r23, Z+7	; 0x07
 d20:	cb 01       	movw	r24, r22
 d22:	2b 96       	adiw	r28, 0x0b	; 11
 d24:	e2 e1       	ldi	r30, 0x12	; 18
 d26:	0c 94 8b 07 	jmp	0xf16	; 0xf16 <__epilogue_restores__>

00000d2a <strnlen_P>:
 d2a:	fc 01       	movw	r30, r24
 d2c:	05 90       	lpm	r0, Z+
 d2e:	61 50       	subi	r22, 0x01	; 1
 d30:	70 40       	sbci	r23, 0x00	; 0
 d32:	01 10       	cpse	r0, r1
 d34:	d8 f7       	brcc	.-10     	; 0xd2c <strnlen_P+0x2>
 d36:	80 95       	com	r24
 d38:	90 95       	com	r25
 d3a:	8e 0f       	add	r24, r30
 d3c:	9f 1f       	adc	r25, r31
 d3e:	08 95       	ret

00000d40 <strnlen>:
 d40:	fc 01       	movw	r30, r24
 d42:	61 50       	subi	r22, 0x01	; 1
 d44:	70 40       	sbci	r23, 0x00	; 0
 d46:	01 90       	ld	r0, Z+
 d48:	01 10       	cpse	r0, r1
 d4a:	d8 f7       	brcc	.-10     	; 0xd42 <strnlen+0x2>
 d4c:	80 95       	com	r24
 d4e:	90 95       	com	r25
 d50:	8e 0f       	add	r24, r30
 d52:	9f 1f       	adc	r25, r31
 d54:	08 95       	ret

00000d56 <fputc>:
 d56:	0f 93       	push	r16
 d58:	1f 93       	push	r17
 d5a:	cf 93       	push	r28
 d5c:	df 93       	push	r29
 d5e:	8c 01       	movw	r16, r24
 d60:	eb 01       	movw	r28, r22
 d62:	8b 81       	ldd	r24, Y+3	; 0x03
 d64:	81 ff       	sbrs	r24, 1
 d66:	1b c0       	rjmp	.+54     	; 0xd9e <fputc+0x48>
 d68:	82 ff       	sbrs	r24, 2
 d6a:	0d c0       	rjmp	.+26     	; 0xd86 <fputc+0x30>
 d6c:	2e 81       	ldd	r18, Y+6	; 0x06
 d6e:	3f 81       	ldd	r19, Y+7	; 0x07
 d70:	8c 81       	ldd	r24, Y+4	; 0x04
 d72:	9d 81       	ldd	r25, Y+5	; 0x05
 d74:	28 17       	cp	r18, r24
 d76:	39 07       	cpc	r19, r25
 d78:	64 f4       	brge	.+24     	; 0xd92 <fputc+0x3c>
 d7a:	e8 81       	ld	r30, Y
 d7c:	f9 81       	ldd	r31, Y+1	; 0x01
 d7e:	01 93       	st	Z+, r16
 d80:	f9 83       	std	Y+1, r31	; 0x01
 d82:	e8 83       	st	Y, r30
 d84:	06 c0       	rjmp	.+12     	; 0xd92 <fputc+0x3c>
 d86:	e8 85       	ldd	r30, Y+8	; 0x08
 d88:	f9 85       	ldd	r31, Y+9	; 0x09
 d8a:	80 2f       	mov	r24, r16
 d8c:	09 95       	icall
 d8e:	89 2b       	or	r24, r25
 d90:	31 f4       	brne	.+12     	; 0xd9e <fputc+0x48>
 d92:	8e 81       	ldd	r24, Y+6	; 0x06
 d94:	9f 81       	ldd	r25, Y+7	; 0x07
 d96:	01 96       	adiw	r24, 0x01	; 1
 d98:	9f 83       	std	Y+7, r25	; 0x07
 d9a:	8e 83       	std	Y+6, r24	; 0x06
 d9c:	02 c0       	rjmp	.+4      	; 0xda2 <fputc+0x4c>
 d9e:	0f ef       	ldi	r16, 0xFF	; 255
 da0:	1f ef       	ldi	r17, 0xFF	; 255
 da2:	c8 01       	movw	r24, r16
 da4:	df 91       	pop	r29
 da6:	cf 91       	pop	r28
 da8:	1f 91       	pop	r17
 daa:	0f 91       	pop	r16
 dac:	08 95       	ret

00000dae <__ultoa_invert>:
 dae:	fa 01       	movw	r30, r20
 db0:	aa 27       	eor	r26, r26
 db2:	28 30       	cpi	r18, 0x08	; 8
 db4:	51 f1       	breq	.+84     	; 0xe0a <__ultoa_invert+0x5c>
 db6:	20 31       	cpi	r18, 0x10	; 16
 db8:	81 f1       	breq	.+96     	; 0xe1a <__ultoa_invert+0x6c>
 dba:	e8 94       	clt
 dbc:	6f 93       	push	r22
 dbe:	6e 7f       	andi	r22, 0xFE	; 254
 dc0:	6e 5f       	subi	r22, 0xFE	; 254
 dc2:	7f 4f       	sbci	r23, 0xFF	; 255
 dc4:	8f 4f       	sbci	r24, 0xFF	; 255
 dc6:	9f 4f       	sbci	r25, 0xFF	; 255
 dc8:	af 4f       	sbci	r26, 0xFF	; 255
 dca:	b1 e0       	ldi	r27, 0x01	; 1
 dcc:	3e d0       	rcall	.+124    	; 0xe4a <__ultoa_invert+0x9c>
 dce:	b4 e0       	ldi	r27, 0x04	; 4
 dd0:	3c d0       	rcall	.+120    	; 0xe4a <__ultoa_invert+0x9c>
 dd2:	67 0f       	add	r22, r23
 dd4:	78 1f       	adc	r23, r24
 dd6:	89 1f       	adc	r24, r25
 dd8:	9a 1f       	adc	r25, r26
 dda:	a1 1d       	adc	r26, r1
 ddc:	68 0f       	add	r22, r24
 dde:	79 1f       	adc	r23, r25
 de0:	8a 1f       	adc	r24, r26
 de2:	91 1d       	adc	r25, r1
 de4:	a1 1d       	adc	r26, r1
 de6:	6a 0f       	add	r22, r26
 de8:	71 1d       	adc	r23, r1
 dea:	81 1d       	adc	r24, r1
 dec:	91 1d       	adc	r25, r1
 dee:	a1 1d       	adc	r26, r1
 df0:	20 d0       	rcall	.+64     	; 0xe32 <__ultoa_invert+0x84>
 df2:	09 f4       	brne	.+2      	; 0xdf6 <__ultoa_invert+0x48>
 df4:	68 94       	set
 df6:	3f 91       	pop	r19
 df8:	2a e0       	ldi	r18, 0x0A	; 10
 dfa:	26 9f       	mul	r18, r22
 dfc:	11 24       	eor	r1, r1
 dfe:	30 19       	sub	r19, r0
 e00:	30 5d       	subi	r19, 0xD0	; 208
 e02:	31 93       	st	Z+, r19
 e04:	de f6       	brtc	.-74     	; 0xdbc <__ultoa_invert+0xe>
 e06:	cf 01       	movw	r24, r30
 e08:	08 95       	ret
 e0a:	46 2f       	mov	r20, r22
 e0c:	47 70       	andi	r20, 0x07	; 7
 e0e:	40 5d       	subi	r20, 0xD0	; 208
 e10:	41 93       	st	Z+, r20
 e12:	b3 e0       	ldi	r27, 0x03	; 3
 e14:	0f d0       	rcall	.+30     	; 0xe34 <__ultoa_invert+0x86>
 e16:	c9 f7       	brne	.-14     	; 0xe0a <__ultoa_invert+0x5c>
 e18:	f6 cf       	rjmp	.-20     	; 0xe06 <__ultoa_invert+0x58>
 e1a:	46 2f       	mov	r20, r22
 e1c:	4f 70       	andi	r20, 0x0F	; 15
 e1e:	40 5d       	subi	r20, 0xD0	; 208
 e20:	4a 33       	cpi	r20, 0x3A	; 58
 e22:	18 f0       	brcs	.+6      	; 0xe2a <__ultoa_invert+0x7c>
 e24:	49 5d       	subi	r20, 0xD9	; 217
 e26:	31 fd       	sbrc	r19, 1
 e28:	40 52       	subi	r20, 0x20	; 32
 e2a:	41 93       	st	Z+, r20
 e2c:	02 d0       	rcall	.+4      	; 0xe32 <__ultoa_invert+0x84>
 e2e:	a9 f7       	brne	.-22     	; 0xe1a <__ultoa_invert+0x6c>
 e30:	ea cf       	rjmp	.-44     	; 0xe06 <__ultoa_invert+0x58>
 e32:	b4 e0       	ldi	r27, 0x04	; 4
 e34:	a6 95       	lsr	r26
 e36:	97 95       	ror	r25
 e38:	87 95       	ror	r24
 e3a:	77 95       	ror	r23
 e3c:	67 95       	ror	r22
 e3e:	ba 95       	dec	r27
 e40:	c9 f7       	brne	.-14     	; 0xe34 <__ultoa_invert+0x86>
 e42:	00 97       	sbiw	r24, 0x00	; 0
 e44:	61 05       	cpc	r22, r1
 e46:	71 05       	cpc	r23, r1
 e48:	08 95       	ret
 e4a:	9b 01       	movw	r18, r22
 e4c:	ac 01       	movw	r20, r24
 e4e:	0a 2e       	mov	r0, r26
 e50:	06 94       	lsr	r0
 e52:	57 95       	ror	r21
 e54:	47 95       	ror	r20
 e56:	37 95       	ror	r19
 e58:	27 95       	ror	r18
 e5a:	ba 95       	dec	r27
 e5c:	c9 f7       	brne	.-14     	; 0xe50 <__ultoa_invert+0xa2>
 e5e:	62 0f       	add	r22, r18
 e60:	73 1f       	adc	r23, r19
 e62:	84 1f       	adc	r24, r20
 e64:	95 1f       	adc	r25, r21
 e66:	a0 1d       	adc	r26, r0
 e68:	08 95       	ret

00000e6a <__mulsi3>:
 e6a:	62 9f       	mul	r22, r18
 e6c:	d0 01       	movw	r26, r0
 e6e:	73 9f       	mul	r23, r19
 e70:	f0 01       	movw	r30, r0
 e72:	82 9f       	mul	r24, r18
 e74:	e0 0d       	add	r30, r0
 e76:	f1 1d       	adc	r31, r1
 e78:	64 9f       	mul	r22, r20
 e7a:	e0 0d       	add	r30, r0
 e7c:	f1 1d       	adc	r31, r1
 e7e:	92 9f       	mul	r25, r18
 e80:	f0 0d       	add	r31, r0
 e82:	83 9f       	mul	r24, r19
 e84:	f0 0d       	add	r31, r0
 e86:	74 9f       	mul	r23, r20
 e88:	f0 0d       	add	r31, r0
 e8a:	65 9f       	mul	r22, r21
 e8c:	f0 0d       	add	r31, r0
 e8e:	99 27       	eor	r25, r25
 e90:	72 9f       	mul	r23, r18
 e92:	b0 0d       	add	r27, r0
 e94:	e1 1d       	adc	r30, r1
 e96:	f9 1f       	adc	r31, r25
 e98:	63 9f       	mul	r22, r19
 e9a:	b0 0d       	add	r27, r0
 e9c:	e1 1d       	adc	r30, r1
 e9e:	f9 1f       	adc	r31, r25
 ea0:	bd 01       	movw	r22, r26
 ea2:	cf 01       	movw	r24, r30
 ea4:	11 24       	eor	r1, r1
 ea6:	08 95       	ret

00000ea8 <__divmodsi4>:
 ea8:	97 fb       	bst	r25, 7
 eaa:	09 2e       	mov	r0, r25
 eac:	05 26       	eor	r0, r21
 eae:	0e d0       	rcall	.+28     	; 0xecc <__divmodsi4_neg1>
 eb0:	57 fd       	sbrc	r21, 7
 eb2:	04 d0       	rcall	.+8      	; 0xebc <__divmodsi4_neg2>
 eb4:	4b d0       	rcall	.+150    	; 0xf4c <__udivmodsi4>
 eb6:	0a d0       	rcall	.+20     	; 0xecc <__divmodsi4_neg1>
 eb8:	00 1c       	adc	r0, r0
 eba:	38 f4       	brcc	.+14     	; 0xeca <__divmodsi4_exit>

00000ebc <__divmodsi4_neg2>:
 ebc:	50 95       	com	r21
 ebe:	40 95       	com	r20
 ec0:	30 95       	com	r19
 ec2:	21 95       	neg	r18
 ec4:	3f 4f       	sbci	r19, 0xFF	; 255
 ec6:	4f 4f       	sbci	r20, 0xFF	; 255
 ec8:	5f 4f       	sbci	r21, 0xFF	; 255

00000eca <__divmodsi4_exit>:
 eca:	08 95       	ret

00000ecc <__divmodsi4_neg1>:
 ecc:	f6 f7       	brtc	.-4      	; 0xeca <__divmodsi4_exit>
 ece:	90 95       	com	r25
 ed0:	80 95       	com	r24
 ed2:	70 95       	com	r23
 ed4:	61 95       	neg	r22
 ed6:	7f 4f       	sbci	r23, 0xFF	; 255
 ed8:	8f 4f       	sbci	r24, 0xFF	; 255
 eda:	9f 4f       	sbci	r25, 0xFF	; 255
 edc:	08 95       	ret

00000ede <__prologue_saves__>:
 ede:	2f 92       	push	r2
 ee0:	3f 92       	push	r3
 ee2:	4f 92       	push	r4
 ee4:	5f 92       	push	r5
 ee6:	6f 92       	push	r6
 ee8:	7f 92       	push	r7
 eea:	8f 92       	push	r8
 eec:	9f 92       	push	r9
 eee:	af 92       	push	r10
 ef0:	bf 92       	push	r11
 ef2:	cf 92       	push	r12
 ef4:	df 92       	push	r13
 ef6:	ef 92       	push	r14
 ef8:	ff 92       	push	r15
 efa:	0f 93       	push	r16
 efc:	1f 93       	push	r17
 efe:	cf 93       	push	r28
 f00:	df 93       	push	r29
 f02:	cd b7       	in	r28, 0x3d	; 61
 f04:	de b7       	in	r29, 0x3e	; 62
 f06:	ca 1b       	sub	r28, r26
 f08:	db 0b       	sbc	r29, r27
 f0a:	0f b6       	in	r0, 0x3f	; 63
 f0c:	f8 94       	cli
 f0e:	de bf       	out	0x3e, r29	; 62
 f10:	0f be       	out	0x3f, r0	; 63
 f12:	cd bf       	out	0x3d, r28	; 61
 f14:	09 94       	ijmp

00000f16 <__epilogue_restores__>:
 f16:	2a 88       	ldd	r2, Y+18	; 0x12
 f18:	39 88       	ldd	r3, Y+17	; 0x11
 f1a:	48 88       	ldd	r4, Y+16	; 0x10
 f1c:	5f 84       	ldd	r5, Y+15	; 0x0f
 f1e:	6e 84       	ldd	r6, Y+14	; 0x0e
 f20:	7d 84       	ldd	r7, Y+13	; 0x0d
 f22:	8c 84       	ldd	r8, Y+12	; 0x0c
 f24:	9b 84       	ldd	r9, Y+11	; 0x0b
 f26:	aa 84       	ldd	r10, Y+10	; 0x0a
 f28:	b9 84       	ldd	r11, Y+9	; 0x09
 f2a:	c8 84       	ldd	r12, Y+8	; 0x08
 f2c:	df 80       	ldd	r13, Y+7	; 0x07
 f2e:	ee 80       	ldd	r14, Y+6	; 0x06
 f30:	fd 80       	ldd	r15, Y+5	; 0x05
 f32:	0c 81       	ldd	r16, Y+4	; 0x04
 f34:	1b 81       	ldd	r17, Y+3	; 0x03
 f36:	aa 81       	ldd	r26, Y+2	; 0x02
 f38:	b9 81       	ldd	r27, Y+1	; 0x01
 f3a:	ce 0f       	add	r28, r30
 f3c:	d1 1d       	adc	r29, r1
 f3e:	0f b6       	in	r0, 0x3f	; 63
 f40:	f8 94       	cli
 f42:	de bf       	out	0x3e, r29	; 62
 f44:	0f be       	out	0x3f, r0	; 63
 f46:	cd bf       	out	0x3d, r28	; 61
 f48:	ed 01       	movw	r28, r26
 f4a:	08 95       	ret

00000f4c <__udivmodsi4>:
 f4c:	a1 e2       	ldi	r26, 0x21	; 33
 f4e:	1a 2e       	mov	r1, r26
 f50:	aa 1b       	sub	r26, r26
 f52:	bb 1b       	sub	r27, r27
 f54:	fd 01       	movw	r30, r26
 f56:	0d c0       	rjmp	.+26     	; 0xf72 <__udivmodsi4_ep>

00000f58 <__udivmodsi4_loop>:
 f58:	aa 1f       	adc	r26, r26
 f5a:	bb 1f       	adc	r27, r27
 f5c:	ee 1f       	adc	r30, r30
 f5e:	ff 1f       	adc	r31, r31
 f60:	a2 17       	cp	r26, r18
 f62:	b3 07       	cpc	r27, r19
 f64:	e4 07       	cpc	r30, r20
 f66:	f5 07       	cpc	r31, r21
 f68:	20 f0       	brcs	.+8      	; 0xf72 <__udivmodsi4_ep>
 f6a:	a2 1b       	sub	r26, r18
 f6c:	b3 0b       	sbc	r27, r19
 f6e:	e4 0b       	sbc	r30, r20
 f70:	f5 0b       	sbc	r31, r21

00000f72 <__udivmodsi4_ep>:
 f72:	66 1f       	adc	r22, r22
 f74:	77 1f       	adc	r23, r23
 f76:	88 1f       	adc	r24, r24
 f78:	99 1f       	adc	r25, r25
 f7a:	1a 94       	dec	r1
 f7c:	69 f7       	brne	.-38     	; 0xf58 <__udivmodsi4_loop>
 f7e:	60 95       	com	r22
 f80:	70 95       	com	r23
 f82:	80 95       	com	r24
 f84:	90 95       	com	r25
 f86:	9b 01       	movw	r18, r22
 f88:	ac 01       	movw	r20, r24
 f8a:	bd 01       	movw	r22, r26
 f8c:	cf 01       	movw	r24, r30
 f8e:	08 95       	ret

00000f90 <_exit>:
 f90:	f8 94       	cli

00000f92 <__stop_program>:
 f92:	ff cf       	rjmp	.-2      	; 0xf92 <__stop_program>
