C51 COMPILER V5.50,  TOUCHCTL                                                              24/07/12  10:33:53  PAGE 1   


DOS C51 COMPILER V5.50, COMPILATION OF MODULE TOUCHCTL
OBJECT MODULE PLACED IN ..\MODULY\TOUCHCTL\TOUCHCTL.OBJ
COMPILER INVOKED BY: E:\C51_V5.5\BIN\C51.EXE ..\MODULY\TOUCHCTL\TOUCHCTL.C51 CD DB

stmt level    source

   1          //*****************************************************************************
   2          //
   3          //    TouchCtl.c  -  Prace s touchpanelem
   4          //    Verze 1.0
   5          //
   6          //*****************************************************************************
   7          
   8          #include "..\inc\Ads7846.h"    // touch screen
   9          #include "..\inc\TouchCtl.h"
  10          
  11          //-----------------------------------------------------------------------------
  12          // Test souradnic
  13          //-----------------------------------------------------------------------------
  14          
  15          byte TouchCtlCheck(TTouchWorkplace code *Workplace) {
  16   1        // Otestuje zadane souradnice v zadane pracovni oblasti, pokud souradnice padnou do nejakeho prvku, vrat
             -i jeho Id.
  17   1        // <AutoRepeat> znaci, zda byl stisk s autorepeatem nebo bez
  18   1        // Pokud souradnice nepadnou nikam, vrati TOUCHCTL_ID_EMPTY
  19   1        byte j;
  20   1        TTouchButton code *Button;
  21   1      
  22   1        for (j = 0; j < Workplace->Count; j++) {
  23   2          Button = &Workplace->Buttons[j];
  24   2          if (Touch.Repeat && !Button->AutoRepeat) {
  25   3            continue;   // Tento prvek nechci s autorepeatem, nezpracovavam ho
  26   3          }
  27   2          if (Touch.X >= Button->X && Touch.X <= Button->X + Button->Width && Touch.Y >= Button->Y && Touch.Y <=
             - Button->Y + Button->Height) {
  28   3            return Button->Id;
  29   3          }
  30   2        }//for
  31   1        return TOUCHCTL_ID_EMPTY;  // Souradnice nikam nepadly
  32   1      }
C51 COMPILER V5.50,  TOUCHCTL                                                              24/07/12  10:33:53  PAGE 2   

ASSEMBLY LISTING OF GENERATED OBJECT CODE


             ; FUNCTION _TouchCtlCheck (BEGIN)
0000 8E00    R     MOV     Workplace,R6
0002 8F00    R     MOV     Workplace+01H,R7
                                           ; SOURCE LINE # 15
                                           ; SOURCE LINE # 22
;---- Variable 'j' assigned to Register 'R5' ----
0004 E4            CLR     A
0005 FD            MOV     R5,A
0006         ?C0001:
0006 850082  R     MOV     DPL,Workplace+01H
0009 850083  R     MOV     DPH,Workplace
000C A3            INC     DPTR
000D A3            INC     DPTR
000E E4            CLR     A
000F 93            MOVC    A,@A+DPTR
0010 FF            MOV     R7,A
0011 ED            MOV     A,R5
0012 C3            CLR     C
0013 9F            SUBB    A,R7
0014 4003          JC      $ + 5H
0016 020000  R     LJMP    ?C0002
                                           ; SOURCE LINE # 23
0019 ED            MOV     A,R5
001A 75F00A        MOV     B,#0AH
001D A4            MUL     AB
001E FF            MOV     R7,A
001F AEF0          MOV     R6,B
0021 850082  R     MOV     DPL,Workplace+01H
0024 850083  R     MOV     DPH,Workplace
0027 7401          MOV     A,#01H
0029 93            MOVC    A,@A+DPTR
002A 2F            ADD     A,R7
002B F500    R     MOV     Button+01H,A
002D E4            CLR     A
002E 93            MOVC    A,@A+DPTR
002F 3E            ADDC    A,R6
0030 F500    R     MOV     Button,A
                                           ; SOURCE LINE # 24
0032 E500    E     MOV     A,Touch+04H
0034 6012          JZ      ?C0004
0036 E500    R     MOV     A,Button+01H
0038 2409          ADD     A,#09H
003A F582          MOV     DPL,A
003C E4            CLR     A
003D 3500    R     ADDC    A,Button
003F F583          MOV     DPH,A
0041 E4            CLR     A
0042 93            MOVC    A,@A+DPTR
0043 7003          JNZ     $ + 5H
0045 020000  R     LJMP    ?C0003
                                           ; SOURCE LINE # 25
                                           ; SOURCE LINE # 26
0048         ?C0004:
                                           ; SOURCE LINE # 27
0048 850082  R     MOV     DPL,Button+01H
004B 850083  R     MOV     DPH,Button
004E A3            INC     DPTR
004F E4            CLR     A
0050 93            MOVC    A,@A+DPTR
0051 FE            MOV     R6,A
0052 7401          MOV     A,#01H
0054 93            MOVC    A,@A+DPTR
0055 FF            MOV     R7,A
C51 COMPILER V5.50,  TOUCHCTL                                                              24/07/12  10:33:53  PAGE 3   

0056 C3            CLR     C
0057 E500    E     MOV     A,Touch+01H
0059 9F            SUBB    A,R7
005A E500    E     MOV     A,Touch
005C 9E            SUBB    A,R6
005D 4065          JC      ?C0003
005F E500    R     MOV     A,Button+01H
0061 2405          ADD     A,#05H
0063 F582          MOV     DPL,A
0065 E4            CLR     A
0066 3500    R     ADDC    A,Button
0068 F583          MOV     DPH,A
006A E4            CLR     A
006B 93            MOVC    A,@A+DPTR
006C FA            MOV     R2,A
006D 7401          MOV     A,#01H
006F 93            MOVC    A,@A+DPTR
0070 FB            MOV     R3,A
0071 EF            MOV     A,R7
0072 2B            ADD     A,R3
0073 FF            MOV     R7,A
0074 EE            MOV     A,R6
0075 3A            ADDC    A,R2
0076 FE            MOV     R6,A
0077 D3            SETB    C
0078 E500    E     MOV     A,Touch+01H
007A 9F            SUBB    A,R7
007B E500    E     MOV     A,Touch
007D 9E            SUBB    A,R6
007E 5044          JNC     ?C0003
0080 850082  R     MOV     DPL,Button+01H
0083 850083  R     MOV     DPH,Button
0086 A3            INC     DPTR
0087 A3            INC     DPTR
0088 A3            INC     DPTR
0089 E4            CLR     A
008A 93            MOVC    A,@A+DPTR
008B FE            MOV     R6,A
008C 7401          MOV     A,#01H
008E 93            MOVC    A,@A+DPTR
008F FF            MOV     R7,A
0090 C3            CLR     C
0091 E500    E     MOV     A,Touch+03H
0093 9F            SUBB    A,R7
0094 E500    E     MOV     A,Touch+02H
0096 9E            SUBB    A,R6
0097 402B          JC      ?C0003
0099 E500    R     MOV     A,Button+01H
009B 2407          ADD     A,#07H
009D F582          MOV     DPL,A
009F E4            CLR     A
00A0 3500    R     ADDC    A,Button
00A2 F583          MOV     DPH,A
00A4 E4            CLR     A
00A5 93            MOVC    A,@A+DPTR
00A6 FA            MOV     R2,A
00A7 7401          MOV     A,#01H
00A9 93            MOVC    A,@A+DPTR
00AA FB            MOV     R3,A
00AB EF            MOV     A,R7
00AC 2B            ADD     A,R3
00AD FF            MOV     R7,A
00AE EE            MOV     A,R6
00AF 3A            ADDC    A,R2
00B0 FE            MOV     R6,A
00B1 D3            SETB    C
C51 COMPILER V5.50,  TOUCHCTL                                                              24/07/12  10:33:53  PAGE 4   

00B2 E500    E     MOV     A,Touch+03H
00B4 9F            SUBB    A,R7
00B5 E500    E     MOV     A,Touch+02H
00B7 9E            SUBB    A,R6
00B8 500A          JNC     ?C0003
                                           ; SOURCE LINE # 28
00BA 850082  R     MOV     DPL,Button+01H
00BD 850083  R     MOV     DPH,Button
00C0 E4            CLR     A
00C1 93            MOVC    A,@A+DPTR
00C2 FF            MOV     R7,A
00C3 22            RET     
                                           ; SOURCE LINE # 29
                                           ; SOURCE LINE # 30
00C4         ?C0003:
00C4 0D            INC     R5
00C5 020000  R     LJMP    ?C0001
00C8         ?C0002:
                                           ; SOURCE LINE # 31
00C8 7FFF          MOV     R7,#0FFH
                                           ; SOURCE LINE # 32
00CA         ?C0006:
00CA 22            RET     
             ; FUNCTION _TouchCtlCheck (END)



MODULE INFORMATION:   STATIC OVERLAYABLE
   CODE SIZE        =    203    ----
   CONSTANT SIZE    =   ----    ----
   XDATA SIZE       =   ----    ----
   PDATA SIZE       =   ----    ----
   DATA SIZE        =   ----       4
   IDATA SIZE       =   ----    ----
   BIT SIZE         =   ----    ----
END OF MODULE INFORMATION.


C51 COMPILATION COMPLETE.  0 WARNING(S),  0 ERROR(S)
