C51 COMPILER V5.50,  MBREG                                                                 15/05/10  14:40:41  PAGE 1   


DOS C51 COMPILER V5.50, COMPILATION OF MODULE MBREG
OBJECT MODULE PLACED IN MBREG.OBJ
COMPILER INVOKED BY: E:\C51_V5.5\BIN\C51.EXE MBREG.C51 CD DB

stmt level    source

   1          //*****************************************************************************
   2          //
   3          //    MBReg.c - MODBUS Register Map
   4          //    Version 1.0
   5          //
   6          //*****************************************************************************
   7          
   8          #include "MBReg.h"
   9          #include "Bat2.h"
  10          #include "Flock.h"             // Editovani hejna
  11          #include "Scale.h"             // Naslapne vahy
  12          #include "Cfg.h"               // Konfigurace
  13          #include "Date.h"              // Date/time computing
  14          #include "Menu.h"              // Uzivatelske rozhrani
  15          #include "Archive.h"           // Archiv udaju
  16          
  17          #include "..\inc\bcd.h"        // BCD aritmetika
  18          
  19          // ---------------------------------------------------------------------------------------------
  20          // Globalni promenne
  21          // ---------------------------------------------------------------------------------------------
  22          
  23          TMbReg __xdata__ MbReg;
  24          
  25          //-----------------------------------------------------------------------------
  26          // Lokalni promenne
  27          //-----------------------------------------------------------------------------
  28          
  29          static union {
  30            TFlock                Flock;
  31            TLongDateTime         DateTime;
  32            TArchive              Archive;
  33            TCmdStartWeighing     CmdStartWeighing;
  34          } __xdata__ ModbusBuffer; // 253 bajtu (nejdelsi je TFlock)
  35          
  36          // Cteni vysledku
  37          typedef struct {
  38            TArchive __xdata__ *  Archive;        // Ukazatel na archiv, ktery se prave nacita (bud aktualni den, ne
             -bo historie)
  39            TFifoIndex            Index;          // Aktualni pozice dne v archivu
  40          } TResults;
  41          static TResults __xdata__ Results;
  42          
  43          //-----------------------------------------------------------------------------
  44          // Definice
  45          //-----------------------------------------------------------------------------
  46          
  47          // Kontrola rozsahu
  48          #define CheckRange(Val, Min, Max)     (Val >= Min && Val <= Max)
  49          
  50          // Kontrola rozsahu, ulozeni <MbReg.Value> a vraceni
  51          #define SaveToItem(Item, Min, Max)              \
  52            if (!CheckRange(MbReg.Value, Min, Max)) {     \
  53              return MB_WRITE_RESULT_INVALID_VALUE;       \
  54            }                                             \
  55            Item = MbReg.Value;                           \
  56            return MB_WRITE_RESULT_OK;
  57          
  58          #define AddressInRange(Min, Max) (MbReg.Address >= Min && MbReg.Address <= Max)
C51 COMPILER V5.50,  MBREG                                                                 15/05/10  14:40:41  PAGE 2   

  59          
  60          #define GetWordLsb(Data)        (Data & 0x00FF)
  61          // Vrati LSB bajt z cisla <Data>
  62          
  63          #define GetWordMsb(Data)        (Data >> 8)
  64          // Vrati MSB bajt z cisla <Data>
  65          
  66          //-----------------------------------------------------------------------------
  67          // Lokalni funkce
  68          //-----------------------------------------------------------------------------
  69          
  70          static word GetDWordLsb(void __xdata__ *Data);
  71          // Vrati 2 bajtovy LSB z 4 bajtoveho cisla <Data>
  72          
  73          static word GetDWordMsb(void __xdata__ *Data);
  74          // Vrati 2 bajtovy MSB z 4 bajtoveho cisla <Data>
  75          
  76          static word MakeWord(byte Msb, byte Lsb);
  77          // Vrati word vytvoreny z <Msb> a <Lsb>
  78          
  79          static TYesNo CheckLetter(byte ch);
  80          // Zkontroluje hodnotu znaku <ch>
  81          
  82          static byte WriteMargin(void);
  83          // Zapise hodnotu <MbReg.Value> do mezi MBREG_CONFIG_MARGIN_ABOVE_FEMALES..MBREG_CONFIG_MARGIN_BELOW_MALES
  84          
  85          // ---------------------------------------------------------------------------------------------
  86          // Inicializace
  87          // ---------------------------------------------------------------------------------------------
  88          
  89          void MBRegInit(void) {
  90   1        // Inicializace
  91   1        Results.Archive = &Archive;            // Nastavim default na dnesek
  92   1        Results.Index = FIFO_INVALID_INDEX;
  93   1      }
  94          // ---------------------------------------------------------------------------------------------
  95          // Cteni registru
  96          // ---------------------------------------------------------------------------------------------
  97          
  98          word MBRegRead(void) {
  99   1        // Vrati obsah registru s adresou <Address>
 100   1      
 101   1        // Souvisle useky delam zvlast, usetrim tak pamet
 102   1        if (AddressInRange(MBREG_FLOCK_CURVE_F_DAY_1, MBREG_FLOCK_CURVE_F_DAY_30)) {
 103   2          return ModbusBuffer.Flock.GrowthCurve[GENDER_FEMALE][MbReg.Address - MBREG_FLOCK_CURVE_F_DAY_1].Day;
 104   2        }
 105   1        if (AddressInRange(MBREG_FLOCK_CURVE_F_WEIGHT_1, MBREG_FLOCK_CURVE_F_WEIGHT_30)) {
 106   2          return ModbusBuffer.Flock.GrowthCurve[GENDER_FEMALE][MbReg.Address - MBREG_FLOCK_CURVE_F_WEIGHT_1].Wei
             -ght;
 107   2        }
 108   1        if (AddressInRange(MBREG_FLOCK_CURVE_M_DAY_1, MBREG_FLOCK_CURVE_M_DAY_30)) {
 109   2          return ModbusBuffer.Flock.GrowthCurve[GENDER_MALE][MbReg.Address - MBREG_FLOCK_CURVE_M_DAY_1].Day;
 110   2        }
 111   1        if (AddressInRange(MBREG_FLOCK_CURVE_M_WEIGHT_1, MBREG_FLOCK_CURVE_M_WEIGHT_30)) {
 112   2          return ModbusBuffer.Flock.GrowthCurve[GENDER_MALE][MbReg.Address - MBREG_FLOCK_CURVE_M_WEIGHT_1].Weigh
             -t;
 113   2        }
 114   1        if (AddressInRange(MBREG_RESULTS_HIST_F_COUNT_1, MBREG_RESULTS_HIST_F_COUNT_39)) {
 115   2          return Results.Archive->Hist[GENDER_FEMALE].Slot[MbReg.Address - MBREG_RESULTS_HIST_F_COUNT_1];
 116   2        }
 117   1        if (AddressInRange(MBREG_RESULTS_HIST_M_COUNT_1, MBREG_RESULTS_HIST_M_COUNT_39)) {
 118   2          return Results.Archive->Hist[GENDER_MALE].Slot[MbReg.Address - MBREG_RESULTS_HIST_M_COUNT_1];
 119   2        }
 120   1      
 121   1        // Jednotlive adresy
 122   1        switch (MbReg.Address) {
C51 COMPILER V5.50,  MBREG                                                                 15/05/10  14:40:41  PAGE 3   

 123   2      
 124   2          // Konfigurace -----------------------------------------------------------------------------
 125   2          case MBREG_CONFIG_VERSION:
 126   2            return Config.Version;
 127   2          case MBREG_CONFIG_BUILD:
 128   2            return Config.Build;
 129   2          case MBREG_CONFIG_HWVERSION:
 130   2            return Config.HwVersion;
 131   2          case MBREG_CONFIG_ID_0:
 132   2            return MakeWord(Config.IdentificationNumber[0], Config.IdentificationNumber[1]);
 133   2          case MBREG_CONFIG_ID_1:
 134   2            return MakeWord(Config.IdentificationNumber[2], Config.IdentificationNumber[3]);
 135   2          case MBREG_CONFIG_ID_2:
 136   2            return MakeWord(Config.IdentificationNumber[4], Config.IdentificationNumber[5]);
 137   2          case MBREG_CONFIG_ID_3:
 138   2            return MakeWord(Config.IdentificationNumber[6], Config.IdentificationNumber[7]);
 139   2          case MBREG_CONFIG_ID_4:
 140   2            return MakeWord(Config.IdentificationNumber[8], Config.IdentificationNumber[9]);
 141   2          case MBREG_CONFIG_LANGUAGE:
 142   2            return Config.Language;
 143   2          case MBREG_CONFIG_MARGIN_ABOVE_FEMALES:
 144   2            return Config.MarginAbove[GENDER_FEMALE];
 145   2          case MBREG_CONFIG_MARGIN_ABOVE_MALES:
 146   2            return Config.MarginAbove[GENDER_MALE];
 147   2          case MBREG_CONFIG_MARGIN_BELOW_FEMALES:
 148   2            return Config.MarginBelow[GENDER_FEMALE];
 149   2          case MBREG_CONFIG_MARGIN_BELOW_MALES:
 150   2            return Config.MarginBelow[GENDER_MALE];
 151   2          case MBREG_CONFIG_FILTER:
 152   2            return Config.Filter;
 153   2          case MBREG_CONFIG_STABILIZATIONRANGE:
 154   2            return Config.StabilizationRange;
 155   2          case MBREG_CONFIG_STABILIZATIONTIME:
 156   2            return Config.StabilizationTime;
 157   2          case MBREG_CONFIG_AUTOMODE:
 158   2            return Config.AutoMode;
 159   2          case MBREG_CONFIG_JUMPMODE:
 160   2            return Config.JumpMode;
 161   2          case MBREG_CONFIG_UNITS:
 162   2            return Config.Units;
 163   2          case MBREG_CONFIG_HISTOGRAMRANGE:
 164   2            return Config.HistogramRange;
 165   2          case MBREG_CONFIG_UNIFORMITYRANGE:
 166   2            return Config.UniformityRange;
 167   2          case MBREG_CONFIG_WS_RUNNING:
 168   2            return Config.WeighingStart.Running;
 169   2          case MBREG_CONFIG_WS_WAITING:
 170   2            return Config.WeighingStart.WaitingForStart;
 171   2          case MBREG_CONFIG_WS_USEFLOCK:
 172   2            return Config.WeighingStart.UseFlock;
 173   2          case MBREG_CONFIG_WS_CURRENTFLOCK:
 174   2            return Config.WeighingStart.CurrentFlock;
 175   2          case MBREG_CONFIG_WS_CURVEDAYSHIFT:
 176   2            return Config.WeighingStart.CurveDayShift;
 177   2          case MBREG_CONFIG_WS_DATETIME_HOUR:
 178   2            return Config.WeighingStart.DateTime.Hour;
 179   2          case MBREG_CONFIG_WS_DATETIME_MIN:
 180   2            return Config.WeighingStart.DateTime.Min;
 181   2          case MBREG_CONFIG_WS_DATETIME_DAY:
 182   2            return Config.WeighingStart.DateTime.Day;
 183   2          case MBREG_CONFIG_WS_DATETIME_MONTH:
 184   2            return Config.WeighingStart.DateTime.Month;
 185   2          case MBREG_CONFIG_WS_DATETIME_YEAR:
 186   2            return Config.WeighingStart.DateTime.Year;
 187   2          case MBREG_CONFIG_WS_QW_USEBOTHGENDERS:
 188   2            return Config.WeighingStart.QuickWeighing.UseBothGenders;
C51 COMPILER V5.50,  MBREG                                                                 15/05/10  14:40:41  PAGE 4   

 189   2          case MBREG_CONFIG_WS_QW_INITIALWFEMALES:
 190   2            return Config.WeighingStart.QuickWeighing.InitialWeight[GENDER_FEMALE];
 191   2          case MBREG_CONFIG_WS_QW_INITIALWMALES:
 192   2            return Config.WeighingStart.QuickWeighing.InitialWeight[GENDER_MALE];
 193   2          case MBREG_CONFIG_WS_UNIFORMITYRANGE:
 194   2            return Config.WeighingStart.UniformityRange;
 195   2          case MBREG_CONFIG_WS_ONLINE:
 196   2            return Config.WeighingStart.Online;
 197   2          case MBREG_CONFIG_BACKLIGHT:
 198   2            return Config.Backlight;
 199   2          case MBREG_CONFIG_RS485_ADDRESS:
 200   2            return Config.Rs485.Address;
 201   2          case MBREG_CONFIG_RS485_SPEED_HI:
 202   2            return GetDWordMsb(&Config.Rs485.Speed);
 203   2          case MBREG_CONFIG_RS485_SPEED_LO:
 204   2            return GetDWordLsb(&Config.Rs485.Speed);
 205   2          case MBREG_CONFIG_RS485_PARITY:
 206   2            return Config.Rs485.Parity;
 207   2          case MBREG_CONFIG_RS485_REPLYDELAY:
 208   2            return Config.Rs485.ReplyDelay;
 209   2          case MBREG_CONFIG_RS485_SILENTINTERVAL:
 210   2            return Config.Rs485.SilentInterval;
 211   2          case MBREG_CONFIG_RS485_PROTOCOL:
 212   2            return Config.Rs485.Protocol;
 213   2          case MBREG_CONFIG_COMPARISONFLOCK:
 214   2            return Config.ComparisonFlock;
 215   2          case MBREG_CONFIG_CORRECTION_DAY1:
 216   2            return Config.WeightCorrection.Day1;
 217   2          case MBREG_CONFIG_CORRECTION_DAY2:
 218   2            return Config.WeightCorrection.Day2;
 219   2          case MBREG_CONFIG_CORRECTION_CORRECTION:
 220   2            return Config.WeightCorrection.Correction;
 221   2      
 222   2          // Hejna -----------------------------------------------------------------------------
 223   2          // Vracim hejno nactene po zapisu do cisla hejna
 224   2          case MBREG_FLOCK_HEADER_NUMBER:
 225   2            return ModbusBuffer.Flock.Header.Number;
 226   2          case MBREG_FLOCK_HEADER_TITLE_1:
 227   2          case MBREG_FLOCK_HEADER_TITLE_2:
 228   2          case MBREG_FLOCK_HEADER_TITLE_3:
 229   2          case MBREG_FLOCK_HEADER_TITLE_4:
 230   2            return MakeWord(ModbusBuffer.Flock.Header.Title[2 * (MbReg.Address - MBREG_FLOCK_HEADER_TITLE_1)],
 231   2                            ModbusBuffer.Flock.Header.Title[2 * (MbReg.Address - MBREG_FLOCK_HEADER_TITLE_1) + 1
             -]);
 232   2          case MBREG_FLOCK_HEADER_USECURVES:
 233   2            return ModbusBuffer.Flock.Header.UseCurves;
 234   2          case MBREG_FLOCK_HEADER_USEBOTHGENDERS:
 235   2            return ModbusBuffer.Flock.Header.UseBothGenders;
 236   2          case MBREG_FLOCK_HEADER_WEIGHFROM:
 237   2            return ModbusBuffer.Flock.Header.WeighFrom;
 238   2          case MBREG_FLOCK_HEADER_WEIGHTILL:
 239   2            return ModbusBuffer.Flock.Header.WeighTill;
 240   2      
 241   2          // Datum a cas -----------------------------------------------------------------------------
 242   2          case MBREG_DATETIME_DAY:
 243   2            return ActualDateTime.Day;
 244   2          case MBREG_DATETIME_MONTH:
 245   2            return ActualDateTime.Month;
 246   2          case MBREG_DATETIME_YEAR:
 247   2            return ActualDateTime.Year;
 248   2          case MBREG_DATETIME_HOUR:
 249   2            return ActualDateTime.Hour;
 250   2          case MBREG_DATETIME_MIN:
 251   2            return ActualDateTime.Min;
 252   2      
 253   2          // Stav vazeni -----------------------------------------------------------------------------
C51 COMPILER V5.50,  MBREG                                                                 15/05/10  14:40:41  PAGE 5   

 254   2          case MBREG_WEIGHING_PAUSE:
 255   2            return Scale.Pause;
 256   2      
 257   2          // Vysledky vazeni -----------------------------------------------------------------------------
 258   2          case MBREG_RESULTS_DAYNUMBER:
 259   2            return Results.Archive->DayNumber;
 260   2          case MBREG_RESULTS_DATETIME_DAY:
 261   2            return Results.Archive->DateTime.Day;
 262   2          case MBREG_RESULTS_DATETIME_MONTH:
 263   2            return Results.Archive->DateTime.Month;
 264   2          case MBREG_RESULTS_DATETIME_YEAR:
 265   2            return Results.Archive->DateTime.Year;
 266   2          case MBREG_RESULTS_DATETIME_HOUR:
 267   2            return Results.Archive->DateTime.Hour;
 268   2          case MBREG_RESULTS_DATETIME_MIN:
 269   2            return Results.Archive->DateTime.Min;
 270   2          case MBREG_RESULTS_STAT_F_XSUM_HI:
 271   2            return GetDWordMsb(&Results.Archive->Stat[GENDER_FEMALE].XSuma);
 272   2          case MBREG_RESULTS_STAT_F_XSUM_LO:
 273   2            return GetDWordLsb(&Results.Archive->Stat[GENDER_FEMALE].XSuma);
 274   2          case MBREG_RESULTS_STAT_F_X2SUM_HI:
 275   2            return GetDWordMsb(&Results.Archive->Stat[GENDER_FEMALE].X2Suma);
 276   2          case MBREG_RESULTS_STAT_F_X2SUM_LO:
 277   2            return GetDWordLsb(&Results.Archive->Stat[GENDER_FEMALE].X2Suma);
 278   2          case MBREG_RESULTS_STAT_F_COUNT:
 279   2            return Results.Archive->Stat[GENDER_FEMALE].Count;
 280   2          case MBREG_RESULTS_STAT_M_XSUM_HI:
 281   2            return GetDWordMsb(&Results.Archive->Stat[GENDER_MALE].XSuma);
 282   2          case MBREG_RESULTS_STAT_M_XSUM_LO:
 283   2            return GetDWordLsb(&Results.Archive->Stat[GENDER_MALE].XSuma);
 284   2          case MBREG_RESULTS_STAT_M_X2SUM_HI:
 285   2            return GetDWordMsb(&Results.Archive->Stat[GENDER_MALE].X2Suma);
 286   2          case MBREG_RESULTS_STAT_M_X2SUM_LO:
 287   2            return GetDWordLsb(&Results.Archive->Stat[GENDER_MALE].X2Suma);
 288   2          case MBREG_RESULTS_STAT_M_COUNT:
 289   2            return Results.Archive->Stat[GENDER_MALE].Count;
 290   2          case MBREG_RESULTS_HIST_F_CENTER_HI:
 291   2            return GetDWordMsb(&Results.Archive->Hist[GENDER_FEMALE].Center);
 292   2          case MBREG_RESULTS_HIST_F_CENTER_LO:
 293   2            return GetDWordLsb(&Results.Archive->Hist[GENDER_FEMALE].Center);
 294   2          case MBREG_RESULTS_HIST_F_STEP_HI:
 295   2            return GetDWordMsb(&Results.Archive->Hist[GENDER_FEMALE].Step);
 296   2          case MBREG_RESULTS_HIST_F_STEP_LO:
 297   2            return GetDWordLsb(&Results.Archive->Hist[GENDER_FEMALE].Step);
 298   2          case MBREG_RESULTS_HIST_M_CENTER_HI:
 299   2            return GetDWordMsb(&Results.Archive->Hist[GENDER_MALE].Center);
 300   2          case MBREG_RESULTS_HIST_M_CENTER_LO:
 301   2            return GetDWordLsb(&Results.Archive->Hist[GENDER_MALE].Center);
 302   2          case MBREG_RESULTS_HIST_M_STEP_HI:
 303   2            return GetDWordMsb(&Results.Archive->Hist[GENDER_MALE].Step);
 304   2          case MBREG_RESULTS_HIST_M_STEP_LO:
 305   2            return GetDWordLsb(&Results.Archive->Hist[GENDER_MALE].Step);
 306   2          case MBREG_RESULTS_LASTAVERAGE_F:
 307   2            return Results.Archive->LastAverage[GENDER_FEMALE];
 308   2          case MBREG_RESULTS_LASTAVERAGE_M:
 309   2            return Results.Archive->LastAverage[GENDER_MALE];
 310   2          case MBREG_RESULTS_TARGETWEIGHT_F:
 311   2            return Results.Archive->TargetWeight[GENDER_FEMALE];
 312   2          case MBREG_RESULTS_TARGETWEIGHT_M:
 313   2            return Results.Archive->TargetWeight[GENDER_MALE];
 314   2          case MBREG_RESULTS_REALUNIFORMITYUSED:
 315   2            return Results.Archive->RealUniformityUsed;
 316   2          case MBREG_RESULTS_REALUNIFORMITY_F:
 317   2            return Results.Archive->RealUniformity[GENDER_FEMALE];
 318   2          case MBREG_RESULTS_REALUNIFORMITY_M:
 319   2            return Results.Archive->RealUniformity[GENDER_MALE];
C51 COMPILER V5.50,  MBREG                                                                 15/05/10  14:40:41  PAGE 6   

 320   2      
 321   2          // Kalibrace -----------------------------------------------------------------------------
 322   2          case MBREG_CAL_ZEROCAL_HI:
 323   2            return GetDWordMsb(&Calibration.ZeroCalibration);
 324   2          case MBREG_CAL_ZEROCAL_LO:
 325   2            return GetDWordLsb(&Calibration.ZeroCalibration);
 326   2          case MBREG_CAL_RANGECAL_HI:
 327   2            return GetDWordMsb(&Calibration.RangeCalibration);
 328   2          case MBREG_CAL_RANGECAL_LO:
 329   2            return GetDWordLsb(&Calibration.RangeCalibration);
 330   2          case MBREG_CAL_RANGE_HI:
 331   2            return GetDWordMsb(&Calibration.Range);
 332   2          case MBREG_CAL_RANGE_LO:
 333   2            return GetDWordLsb(&Calibration.Range);
 334   2          case MBREG_CAL_DIVISION:
 335   2            return Calibration.Division;
 336   2      
 337   2          default:
 338   2            return 0;
 339   2        }//switch
 340   1      
 341   1      } // MBRegRead
 342          
 343          // ---------------------------------------------------------------------------------------------
 344          // Zapis do registru
 345          // ---------------------------------------------------------------------------------------------
 346          
 347          TMBWriteResult MBRegWrite(void) {
 348   1        // Zapise hodnotu <Value> do registru s adresou <Address>. Pokud je registr jen pro cteni, vrati NO.
 349   1      
 350   1        // Souvisle useky delam zvlast, usetrim tak pamet
 351   1        if (AddressInRange(MBREG_FLOCK_CURVE_F_DAY_1, MBREG_FLOCK_CURVE_F_DAY_30)) {
 352   2          SaveToItem(ModbusBuffer.Flock.GrowthCurve[GENDER_FEMALE][MbReg.Address - MBREG_FLOCK_CURVE_F_DAY_1].Da
             -y, 0, CURVE_MAX_DAY);
 353   2        }
 354   1        if (AddressInRange(MBREG_FLOCK_CURVE_F_WEIGHT_1, MBREG_FLOCK_CURVE_F_WEIGHT_30)) {
 355   2          // Hmotnost musi byt v mezich MIN_TARGET_WEIGHT..MAX_TARGET_WEIGHT nebo 0, ktera ukoncuje krivku
 356   2          if (!CheckRange(MbReg.Value, MIN_TARGET_WEIGHT, MAX_TARGET_WEIGHT) && MbReg.Value != 0) {
 357   3            return MB_WRITE_RESULT_INVALID_VALUE;
 358   3          }
 359   2          ModbusBuffer.Flock.GrowthCurve[GENDER_FEMALE][MbReg.Address - MBREG_FLOCK_CURVE_F_WEIGHT_1].Weight = M
             -bReg.Value;
 360   2          return MB_WRITE_RESULT_OK;
 361   2        }
 362   1        if (AddressInRange(MBREG_FLOCK_CURVE_M_DAY_1, MBREG_FLOCK_CURVE_M_DAY_30)) {
 363   2          SaveToItem(ModbusBuffer.Flock.GrowthCurve[GENDER_MALE][MbReg.Address - MBREG_FLOCK_CURVE_M_DAY_1].Day,
             - 0, CURVE_MAX_DAY);
 364   2        }
 365   1        if (AddressInRange(MBREG_FLOCK_CURVE_M_WEIGHT_1, MBREG_FLOCK_CURVE_M_WEIGHT_30)) {
 366   2          // Hmotnost musi byt v mezich MIN_TARGET_WEIGHT..MAX_TARGET_WEIGHT nebo 0, ktera ukoncuje krivku
 367   2          if (!CheckRange(MbReg.Value, MIN_TARGET_WEIGHT, MAX_TARGET_WEIGHT) && MbReg.Value != 0) {
 368   3            return MB_WRITE_RESULT_INVALID_VALUE;
 369   3          }
 370   2          ModbusBuffer.Flock.GrowthCurve[GENDER_MALE][MbReg.Address - MBREG_FLOCK_CURVE_M_WEIGHT_1].Weight = MbR
             -eg.Value;
 371   2          return MB_WRITE_RESULT_OK;
 372   2        }
 373   1      
 374   1        // Jednotlive adresy
 375   1        switch (MbReg.Address) {
 376   2      
 377   2          // Konfigurace -----------------------------------------------------------------------------
 378   2      //    case MBREG_CONFIG_ID:
 379   2      //      SaveToItem(Config.IdentificationNumber, MIN_IDENTIFICATION_NUMBER, MAX_IDENTIFICATION_NUMBER);
 380   2          case MBREG_CONFIG_MARGIN_ABOVE_FEMALES:
 381   2          case MBREG_CONFIG_MARGIN_ABOVE_MALES:
C51 COMPILER V5.50,  MBREG                                                                 15/05/10  14:40:41  PAGE 7   

 382   2          case MBREG_CONFIG_MARGIN_BELOW_FEMALES:
 383   2          case MBREG_CONFIG_MARGIN_BELOW_MALES:
 384   2            return WriteMargin();
 385   2      
 386   2          case MBREG_CONFIG_FILTER:
 387   2            if (!CheckRange(MbReg.Value, MIN_FILTER, MAX_FILTER)) {
 388   3              return MB_WRITE_RESULT_INVALID_VALUE;
 389   3            }
 390   2            Config.Filter = MbReg.Value;
 391   2            FlockReadWeighingParameters();        // Znovu vypoctu parametry ukladani, aby se zmeny ihned projev
             -ily (pokud se vazi)
 392   2            return MB_WRITE_RESULT_OK;
 393   2      
 394   2          case MBREG_CONFIG_STABILIZATIONRANGE:
 395   2            if (!CheckRange(MbReg.Value, MIN_STABILIZATION_RANGE, MAX_STABILIZATION_RANGE)) {
 396   3              return MB_WRITE_RESULT_INVALID_VALUE;
 397   3            }
 398   2            Config.StabilizationRange = MbReg.Value;
 399   2            FlockReadWeighingParameters();        // Znovu vypoctu parametry ukladani, aby se zmeny ihned projev
             -ily (pokud se vazi)
 400   2            return MB_WRITE_RESULT_OK;
 401   2      
 402   2          case MBREG_CONFIG_STABILIZATIONTIME:
 403   2            if (!CheckRange(MbReg.Value, MIN_STABILIZATION_TIME, MAX_STABILIZATION_TIME)) {
 404   3              return MB_WRITE_RESULT_INVALID_VALUE;
 405   3            }
 406   2            Config.StabilizationTime = MbReg.Value;
 407   2            FlockReadWeighingParameters();        // Znovu vypoctu parametry ukladani, aby se zmeny ihned projev
             -ily (pokud se vazi)
 408   2            ScaleInitAverage();                   // Nastavim novou delku ustaleni
 409   2            return MB_WRITE_RESULT_OK;
 410   2      
 411   2          case MBREG_CONFIG_AUTOMODE:
 412   2            SaveToItem(Config.AutoMode, 0, _AUTOMODE_COUNT - 1);
 413   2      
 414   2          case MBREG_CONFIG_JUMPMODE:
 415   2            SaveToItem(Config.JumpMode, 0, _JUMPMODE_COUNT - 1);
 416   2      
 417   2          case MBREG_CONFIG_UNITS:
 418   2            SaveToItem(Config.Units, 0, _UNITS_COUNT - 1);
 419   2      
 420   2          case MBREG_CONFIG_HISTOGRAMRANGE:
 421   2            if (FlockWeighingRunningOrWaiting()) {
 422   3              return MB_WRITE_RESULT_INVALID_VALUE;         // Tento parametr nesmi menit, kdyz se krmi
 423   3            }
 424   2            SaveToItem(Config.HistogramRange, MIN_HISTOGRAM_RANGE, MAX_HISTOGRAM_RANGE);
 425   2      
 426   2          case MBREG_CONFIG_UNIFORMITYRANGE:
 427   2            if (FlockWeighingRunningOrWaiting()) {
 428   3              return MB_WRITE_RESULT_INVALID_VALUE;         // Tento parametr nesmi menit, kdyz se krmi
 429   3            }
 430   2            SaveToItem(Config.UniformityRange, MIN_UNIFORMITY_RANGE, MAX_UNIFORMITY_RANGE);
 431   2      
 432   2          case MBREG_CONFIG_BACKLIGHT:
 433   2            SaveToItem(Config.Backlight, 0, _BACKLIGHT_COUNT - 1);
 434   2      
 435   2          case MBREG_CONFIG_COMPARISONFLOCK:
 436   2            if (MbReg.Value != FLOCK_EMPTY_NUMBER) {
 437   3              // FLOCK_EMPTY_NUMBER znaci vazeni bez porovnani
 438   3              if (MbReg.Value >= FLOCKS_MAX_COUNT) {
 439   4                return MB_WRITE_RESULT_INVALID_VALUE;      // Radeji kontrola cisla
 440   4              }
 441   3              if (FlockReadFlockNumber(MbReg.Value) != MbReg.Value) {
 442   4                return MB_WRITE_RESULT_INVALID_VALUE;      // Hejno v pameti neexistuje
 443   4              }
 444   3              if (!FlockContainsCurve(MbReg.Value)) {
C51 COMPILER V5.50,  MBREG                                                                 15/05/10  14:40:41  PAGE 8   

 445   4                // Zvolene hejno neobsahuje rustovou krivku, nebylo by s cim porovnavat
 446   4                return MB_WRITE_RESULT_INVALID_VALUE;      // Hejno v pameti neexistuje
 447   4              }
 448   3            }
 449   2            Config.ComparisonFlock = MbReg.Value;
 450   2            FlockReadWeighingParameters();        // Znovu vypoctu hmotnost porovnani, aby se zmeny ihned projev
             -ily (pokud se vazi)
 451   2            return MB_WRITE_RESULT_OK;
 452   2      
 453   2          case MBREG_CONFIG_CORRECTION_DAY1:
 454   2            SaveToItem(Config.WeightCorrection.Day1, 0, CURVE_MAX_DAY);
 455   2      
 456   2          case MBREG_CONFIG_CORRECTION_DAY2:
 457   2            if (MbReg.Value == 0 && Config.WeightCorrection.Day1 == 0) {
 458   3              // Nulu povolim ulozit jen pokud je i prvni den nulovy. V tom pripade nechce korekci pouzivat (nas
             -tavi vse na 0)
 459   3              Config.WeightCorrection.Day2 = 0;
 460   3              return MB_WRITE_RESULT_OK;
 461   3            }
 462   2            // Pokud chce nastavit nenulovy Day2, musi byt vyssi naz Day1
 463   2            SaveToItem(Config.WeightCorrection.Day2, Config.WeightCorrection.Day1 + 1, CURVE_MAX_DAY);
 464   2      
 465   2          case MBREG_CONFIG_CORRECTION_CORRECTION:
 466   2            SaveToItem(Config.WeightCorrection.Correction, 0, 0xFF);        // Na bajt
 467   2      
 468   2          case MBREG_CONFIG_SAVE:
 469   2            CfgSave(CFG_ALL);
 470   2            return MB_WRITE_RESULT_OK;
 471   2      
 472   2      
 473   2          // Hejna -----------------------------------------------------------------------------
 474   2          case MBREG_FLOCK_HEADER_NUMBER:
 475   2            SaveToItem(ModbusBuffer.Flock.Header.Number, 0, FLOCKS_MAX_COUNT - 1);
 476   2          case MBREG_FLOCK_HEADER_TITLE_1:
 477   2          case MBREG_FLOCK_HEADER_TITLE_2:
 478   2          case MBREG_FLOCK_HEADER_TITLE_3:
 479   2          case MBREG_FLOCK_HEADER_TITLE_4:
 480   2            if (!CheckLetter(GetWordMsb(MbReg.Value)) || !CheckLetter(GetWordLsb(MbReg.Value))) {
 481   3              return MB_WRITE_RESULT_INVALID_VALUE;
 482   3            }
 483   2            ModbusBuffer.Flock.Header.Title[2 * (MbReg.Address - MBREG_FLOCK_HEADER_TITLE_1)]     = GetWordMsb(M
             -bReg.Value),
 484   2            ModbusBuffer.Flock.Header.Title[2 * (MbReg.Address - MBREG_FLOCK_HEADER_TITLE_1) + 1] = GetWordLsb(M
             -bReg.Value);
 485   2            return MB_WRITE_RESULT_OK;
 486   2      
 487   2          case MBREG_FLOCK_HEADER_USECURVES:
 488   2            SaveToItem(ModbusBuffer.Flock.Header.UseCurves, 0, 1);
 489   2          case MBREG_FLOCK_HEADER_USEBOTHGENDERS:
 490   2            SaveToItem(ModbusBuffer.Flock.Header.UseBothGenders, 0, 1);
 491   2          case MBREG_FLOCK_HEADER_WEIGHFROM:
 492   2            if (MbReg.Value != FLOCK_TIME_LIMIT_EMPTY) {
 493   3              // FLOCK_TIME_LIMIT_EMPTY znaci bez casoveho limitu
 494   3              if (!CheckRange(MbReg.Value, 0, FLOCK_TIME_LIMIT_MAX_HOUR)) {
 495   4                return MB_WRITE_RESULT_INVALID_VALUE;
 496   4              }
 497   3            }
 498   2            ModbusBuffer.Flock.Header.WeighFrom = MbReg.Value;
 499   2            return MB_WRITE_RESULT_OK;
 500   2          case MBREG_FLOCK_HEADER_WEIGHTILL:
 501   2            if (MbReg.Value != FLOCK_TIME_LIMIT_EMPTY) {
 502   3              // FLOCK_TIME_LIMIT_EMPTY znaci bez casoveho limitu
 503   3              if (!CheckRange(MbReg.Value, 0, FLOCK_TIME_LIMIT_MAX_HOUR)) {
 504   4                return MB_WRITE_RESULT_INVALID_VALUE;
 505   4              }
 506   3            }
C51 COMPILER V5.50,  MBREG                                                                 15/05/10  14:40:41  PAGE 9   

 507   2            ModbusBuffer.Flock.Header.WeighTill = MbReg.Value;
 508   2            return MB_WRITE_RESULT_OK;
 509   2          case MBREG_FLOCK_LOAD:
 510   2            // Nactu pozadovane hejno do bufferu
 511   2            if (MbReg.Value >= FLOCKS_MAX_COUNT) {
 512   3              return MB_WRITE_RESULT_INVALID_VALUE;
 513   3            }
 514   2            if (FlockReadFlockNumber(MbReg.Value) != MbReg.Value) {
 515   3              return MB_WRITE_RESULT_INVALID_VALUE;          // Hejno v pameti neexistuje
 516   3            }
 517   2            FlockReadItem(MbReg.Value, (byte __xdata__ *)&ModbusBuffer.Flock, 0, sizeof(TFlock));
 518   2            return MB_WRITE_RESULT_OK;
 519   2          case MBREG_FLOCK_SAVE:
 520   2            // Ulozeni hejna <ModbusBuffer.Flock> do pameti (bud update jiz existujiciho hejna, nebo zalozeni no
             -veho)
 521   2            if (ModbusBuffer.Flock.Header.Number >= FLOCKS_MAX_COUNT) {
 522   3              return MB_WRITE_RESULT_INVALID_VALUE;      // Radeji kontrola cisla
 523   3            }
 524   2            if (FlockWeighingFlock(ModbusBuffer.Flock.Header.Number)) {
 525   3              return MB_WRITE_RESULT_INVALID_VALUE;      // Podle hejna se prave krmi, musi nejdriv ukoncit krme
             -ni a pak teprve muze hejno upravovat
 526   3            }
 527   2            FlockSaveItem(ModbusBuffer.Flock.Header.Number, (byte __xdata__ *)&ModbusBuffer.Flock, 0, sizeof(TFl
             -ock));
 528   2            if (ModbusBuffer.Flock.Header.Number == Config.ComparisonFlock) {
 529   3              // Pokud zmenil hejno, podle ktereho se porovnava, znovu vypoctu hmotnost porovnani, aby se zmeny 
             -ihned projevily (pokud se vazi)
 530   3              FlockReadWeighingParameters();
 531   3            }
 532   2            return MB_WRITE_RESULT_OK;
 533   2          case MBREG_FLOCK_DELETE:
 534   2            if (MbReg.Value >= FLOCKS_MAX_COUNT) {
 535   3              return MB_WRITE_RESULT_INVALID_VALUE;      // Radeji kontrola cisla
 536   3            }
 537   2            if (FlockWeighingFlock(MbReg.Value)) {
 538   3              return MB_WRITE_RESULT_INVALID_VALUE;      // Podle hejna se prave krmi, musi nejdriv ukoncit krme
             -ni a pak teprve muze hejno smazat
 539   3            }
 540   2            FlockDeleteFlock(MbReg.Value);
 541   2            return MB_WRITE_RESULT_OK;
 542   2      
 543   2          // Datum a cas -----------------------------------------------------------------------------
 544   2          case MBREG_DATETIME_DAY:
 545   2            SaveToItem(ModbusBuffer.DateTime.Day, 1, 31);
 546   2          case MBREG_DATETIME_MONTH:
 547   2            SaveToItem(ModbusBuffer.DateTime.Month, 1, 12);
 548   2          case MBREG_DATETIME_YEAR:
 549   2            SaveToItem(ModbusBuffer.DateTime.Year, 1, 3000);
 550   2          case MBREG_DATETIME_HOUR:
 551   2            SaveToItem(ModbusBuffer.DateTime.Hour, 0, 23);
 552   2          case MBREG_DATETIME_MIN:
 553   2            SaveToItem(ModbusBuffer.DateTime.Min, 0, 59);
 554   2          case MBREG_DATETIME_SAVE:
 555   2            CmdDateTime = ModbusBuffer.DateTime;
 556   2            DateSet();
 557   2            return MB_WRITE_RESULT_OK;
 558   2      
 559   2          // Start vazeni -----------------------------------------------------------------------------
 560   2          case MBREG_WEIGHING_ONLINE:
 561   2            SaveToItem(ModbusBuffer.CmdStartWeighing.Online, 0, 1);
 562   2          case MBREG_WEIGHING_INITIALDAYNUMBER:
 563   2            SaveToItem(ModbusBuffer.CmdStartWeighing.InitialDayNumber, 0, CURVE_MAX_DAY);
 564   2            return MB_WRITE_RESULT_OK;
 565   2          case MBREG_WEIGHING_FLOCKNUMBER:
 566   2            if (MbReg.Value != FLOCK_EMPTY_NUMBER) {
 567   3              // FLOCK_EMPTY_NUMBER znaci vazeni bez hejna
C51 COMPILER V5.50,  MBREG                                                                 15/05/10  14:40:41  PAGE 10  

 568   3              if (MbReg.Value >= FLOCKS_MAX_COUNT) {
 569   4                return MB_WRITE_RESULT_INVALID_VALUE;      // Radeji kontrola cisla
 570   4              }
 571   3              if (FlockReadFlockNumber(MbReg.Value) != MbReg.Value) {
 572   4                return MB_WRITE_RESULT_INVALID_VALUE;      // Hejno v pameti neexistuje
 573   4              }
 574   3            }
 575   2            ModbusBuffer.CmdStartWeighing.FlockNumber = MbReg.Value;
 576   2            return MB_WRITE_RESULT_OK;
 577   2          case MBREG_WEIGHING_QW_USEBOTHGENDERS:
 578   2            SaveToItem(ModbusBuffer.CmdStartWeighing.QuickWeighing.UseBothGenders, 0, 1);
 579   2          case MBREG_WEIGHING_QW_INITIALWFEMALES:
 580   2            SaveToItem(ModbusBuffer.CmdStartWeighing.QuickWeighing.InitialWeight[GENDER_FEMALE], MIN_TARGET_WEIG
             -HT, MAX_TARGET_WEIGHT);
 581   2          case MBREG_WEIGHING_QW_INITIALWMALES:
 582   2            SaveToItem(ModbusBuffer.CmdStartWeighing.QuickWeighing.InitialWeight[GENDER_MALE],   MIN_TARGET_WEIG
             -HT, MAX_TARGET_WEIGHT);
 583   2          case MBREG_WEIGHING_WAITINGFORSTART:
 584   2            SaveToItem(ModbusBuffer.CmdStartWeighing.WaitingForStart, 0, 1);
 585   2          case MBREG_WEIGHING_COMPARISONFLOCK:
 586   2            if (MbReg.Value != FLOCK_EMPTY_NUMBER) {
 587   3              // FLOCK_EMPTY_NUMBER znaci vazeni bez porovnani
 588   3              if (MbReg.Value >= FLOCKS_MAX_COUNT) {
 589   4                return MB_WRITE_RESULT_INVALID_VALUE;      // Radeji kontrola cisla
 590   4              }
 591   3              if (FlockReadFlockNumber(MbReg.Value) != MbReg.Value) {
 592   4                return MB_WRITE_RESULT_INVALID_VALUE;      // Hejno v pameti neexistuje
 593   4              }
 594   3              if (!FlockContainsCurve(MbReg.Value)) {
 595   4                // Zvolene hejno neobsahuje rustovou krivku, nebylo by s cim porovnavat
 596   4                return MB_WRITE_RESULT_INVALID_VALUE;      // Hejno v pameti neexistuje
 597   4              }
 598   3            }
 599   2            ModbusBuffer.CmdStartWeighing.ComparisonFlock = MbReg.Value;
 600   2            return MB_WRITE_RESULT_OK;
 601   2          case MBREG_WEIGHING_DATETIME_DAY:
 602   2            SaveToItem(ModbusBuffer.CmdStartWeighing.DateTime.Day, 1, 31);
 603   2          case MBREG_WEIGHING_DATETIME_MONTH:
 604   2            SaveToItem(ModbusBuffer.CmdStartWeighing.DateTime.Month, 1, 12);
 605   2          case MBREG_WEIGHING_DATETIME_YEAR:
 606   2            SaveToItem(ModbusBuffer.CmdStartWeighing.DateTime.Year, 1, 3000);
 607   2          case MBREG_WEIGHING_DATETIME_HOUR:
 608   2            SaveToItem(ModbusBuffer.CmdStartWeighing.DateTime.Hour, 0, 23);
 609   2          case MBREG_WEIGHING_DATETIME_MIN:
 610   2            SaveToItem(ModbusBuffer.CmdStartWeighing.DateTime.Min, 0, 59);
 611   2          case MBREG_WEIGHING_START:
 612   2            if (FlockWeighingRunningOrWaiting()) {
 613   3              return MB_WRITE_RESULT_INVALID_VALUE;           // Uz se vazi
 614   3            }
 615   2            // Kontrola hejna
 616   2            if (ModbusBuffer.CmdStartWeighing.FlockNumber == FLOCK_EMPTY_NUMBER) {
 617   3              // Vazeni bez hejna, zkontroluji cilovou hmotnost
 618   3              if (!CheckRange(ModbusBuffer.CmdStartWeighing.QuickWeighing.InitialWeight[GENDER_FEMALE], MIN_TARG
             -ET_WEIGHT, MAX_TARGET_WEIGHT)) {
 619   4                return MB_WRITE_RESULT_INVALID_VALUE;
 620   4              }
 621   3              if (ModbusBuffer.CmdStartWeighing.QuickWeighing.UseBothGenders
 622   3                  && !CheckRange(ModbusBuffer.CmdStartWeighing.QuickWeighing.InitialWeight[GENDER_MALE], MIN_TAR
             -GET_WEIGHT, MAX_TARGET_WEIGHT)) {
 623   4                return MB_WRITE_RESULT_INVALID_VALUE;         // Chce obe pohlavi a cilova hmotnost pro samce ne
             -ni v poradku
 624   4              }
 625   3            } else {
 626   3              // Vazeni podle hejna
 627   3              if (ModbusBuffer.CmdStartWeighing.FlockNumber >= FLOCKS_MAX_COUNT) {
 628   4                return MB_WRITE_RESULT_INVALID_VALUE;         // Radeji kontrola cisla
C51 COMPILER V5.50,  MBREG                                                                 15/05/10  14:40:41  PAGE 11  

 629   4              }
 630   3              if (FlockReadFlockNumber(ModbusBuffer.CmdStartWeighing.FlockNumber) != ModbusBuffer.CmdStartWeighi
             -ng.FlockNumber) {
 631   4                return MB_WRITE_RESULT_INVALID_VALUE;         // Hejno v pameti neexistuje
 632   4              }
 633   3            }
 634   2            // Kontrola dne
 635   2            if (!CheckRange(ModbusBuffer.CmdStartWeighing.InitialDayNumber, 0, CURVE_MAX_DAY)) {
 636   3              return MB_WRITE_RESULT_INVALID_VALUE;           // Den mimo rozsah
 637   3            }
 638   2            // Kontrola porovnani
 639   2            if (ModbusBuffer.CmdStartWeighing.ComparisonFlock != FLOCK_EMPTY_NUMBER) {
 640   3              if (ModbusBuffer.CmdStartWeighing.ComparisonFlock >= FLOCKS_MAX_COUNT) {
 641   4                return MB_WRITE_RESULT_INVALID_VALUE;         // Radeji kontrola cisla
 642   4              }
 643   3              if (FlockReadFlockNumber(ModbusBuffer.CmdStartWeighing.ComparisonFlock) != ModbusBuffer.CmdStartWe
             -ighing.ComparisonFlock) {
 644   4                return MB_WRITE_RESULT_INVALID_VALUE;         // Hejno v pameti neexistuje
 645   4              }
 646   3              if (!FlockContainsCurve(ModbusBuffer.CmdStartWeighing.ComparisonFlock)) {
 647   4                // Zvolene hejno neobsahuje rustovou krivku, nebylo by s cim porovnavat
 648   4                return MB_WRITE_RESULT_INVALID_VALUE;      // Hejno v pameti neexistuje
 649   4              }
 650   3            }
 651   2            // Kontrola opozdeneho startu
 652   2            if (ModbusBuffer.CmdStartWeighing.WaitingForStart) {
 653   3              if (!CheckRange(ModbusBuffer.CmdStartWeighing.DateTime.Day,   1, 31)
 654   3               || !CheckRange(ModbusBuffer.CmdStartWeighing.DateTime.Month, 1, 12)
 655   3               || !CheckRange(ModbusBuffer.CmdStartWeighing.DateTime.Year,  1, 3000)
 656   3               || !CheckRange(ModbusBuffer.CmdStartWeighing.DateTime.Hour,  0, 23)
 657   3               || !CheckRange(ModbusBuffer.CmdStartWeighing.DateTime.Min,   0, 59)) {
 658   4                 return MB_WRITE_RESULT_INVALID_VALUE;
 659   4              }
 660   3            } else {
 661   3              ModbusBuffer.CmdStartWeighing.DateTime = ActualDateTime;        // Musim dat aktualni datum
 662   3            }
 663   2            // Spustim vazeni
 664   2            CmdStartWeighing = ModbusBuffer.CmdStartWeighing;
 665   2            FlockStartWeighing();                         // Prebere zadane parametry a zahaji vazeni
 666   2            if (Config.WeighingStart.Running) {
 667   3              DisplayMode = DISPLAY_MODE_WEIGHING;        // Zobrazuji vazeni
 668   3            } else {
 669   3              DisplayMode = DISPLAY_MODE_WAITING;         // Zobrazuji cekani na start
 670   3            }
 671   2            Display = DISPLAY_ALL;
 672   2            return MB_WRITE_RESULT_OK;
 673   2          case MBREG_WEIGHING_PAUSE:
 674   2            if (!CheckRange(MbReg.Value, 0, 1)) {
 675   3              return MB_WRITE_RESULT_INVALID_VALUE;           // Muze byt jen 0 nebo 1
 676   3            }
 677   2            if (!FlockWeighingRunning()) {
 678   3              return MB_WRITE_RESULT_INVALID_VALUE;           // Zatim se nevazi, nelze zapauzovat ani odpauzova
             -t
 679   3            }
 680   2            if (MbReg.Value == Scale.Pause) {
 681   3              return MB_WRITE_RESULT_INVALID_VALUE;           // Vaha uz je zapauzovana nebo odpauzovana
 682   3            }
 683   2            ScaleSetPause(MbReg.Value);
 684   2            Display = DISPLAY_ALL;                            // Aby prekreslil i hlavicku
 685   2            return MB_WRITE_RESULT_OK;
 686   2          case MBREG_WEIGHING_STOP:
 687   2            if (!FlockWeighingRunningOrWaiting()) {
 688   3              return MB_WRITE_RESULT_INVALID_VALUE;           // Nevazi se
 689   3            }
 690   2            FlockStopWeighing();
 691   2            DisplayMode = DISPLAY_MODE_IDLE;
C51 COMPILER V5.50,  MBREG                                                                 15/05/10  14:40:41  PAGE 12  

 692   2            Display = DISPLAY_ALL;
 693   2            return MB_WRITE_RESULT_OK;
 694   2      
 695   2          // Vysledky vazeni -----------------------------------------------------------------------------
 696   2          case MBREG_RESULTS_LOAD_TODAY:
 697   2            // Nastavim cteni na atualni den vazeni
 698   2            Results.Archive = &Archive;                       // Nastavim na dnesek
 699   2            return MB_WRITE_RESULT_OK;
 700   2          case MBREG_RESULTS_LOAD_FIRST_DAY:
 701   2            // Nastavim cteni na prvni den v archivu
 702   2            Results.Index = FifoFirst(&DayFifo);
 703   2            if (Results.Index == FIFO_INVALID_INDEX) {
 704   3              return MB_WRITE_RESULT_INVALID_VALUE;           // V archivu nic neni
 705   3            }
 706   2            if (FlockWeighingRunning()) {
 707   3              ArchiveSaveDay();                               // Pokud se krmi, ulozim dnesek do archivu (stejne
             - jako by sel v menu do archivu)
 708   3            }
 709   2            ArchiveReadDay(ModbusBuffer.Archive, Results.Index);   // Nactu den
 710   2            Results.Archive = &ModbusBuffer.Archive;          // Nastavim na archiv
 711   2            return MB_WRITE_RESULT_OK;
 712   2          case MBREG_RESULTS_LOAD_NEXT_DAY:
 713   2            // Posunu cteni na dalsi den v archivu
 714   2            if (Results.Archive != &ModbusBuffer.Archive) {
 715   3              return MB_WRITE_RESULT_INVALID_VALUE;           // Zatim nenastavil na 1. den
 716   3            }
 717   2            if (Results.Index == FIFO_INVALID_INDEX) {
 718   3              return MB_WRITE_RESULT_INVALID_VALUE;           // Uz jsem na poslednim dnu
 719   3            }
 720   2            Results.Index = FifoNext(&DayFifo, Results.Index);
 721   2            if (Results.Index == FIFO_INVALID_INDEX) {
 722   3              return MB_WRITE_RESULT_INVALID_VALUE;           // Konec archivu
 723   3            }
 724   2            ArchiveReadDay(ModbusBuffer.Archive, Results.Index);   // Nactu den
 725   2            return MB_WRITE_RESULT_OK;
 726   2      
 727   2          default:
 728   2            // Do registru nelze zapisovat
 729   2            return MB_WRITE_RESULT_INVALID_ADDRESS;
 730   2        }//switch
 731   1      
 732   1      } // MBRegWrite
 733          
 734          
 735          //-----------------------------------------------------------------------------
 736          // Maskovani
 737          //-----------------------------------------------------------------------------
 738          
 739          static word GetDWordLsb(void __xdata__ *Data) {
 740   1        // Vrati 2 bajtovy LSB z 4 bajtoveho cisla <Data>
 741   1        return (*(dword __xdata__ *)Data & 0x0000FFFF);
 742   1      }
 743          
 744          static word GetDWordMsb(void __xdata__ *Data) {
 745   1        // Vrati 2 bajtovy MSB z 4 bajtoveho cisla <Data>
 746   1        return (*(dword __xdata__ *)Data >> 16);
 747   1      }
 748          
 749          static word MakeWord(byte Msb, byte Lsb) {
 750   1        // Vrati word vytvoreny z <Msb> a <Lsb>
 751   1        return (Msb << 8) | Lsb;
 752   1      }
 753          
 754          //-----------------------------------------------------------------------------
 755          // Kontrola pismene nazvu
 756          //-----------------------------------------------------------------------------
C51 COMPILER V5.50,  MBREG                                                                 15/05/10  14:40:41  PAGE 13  

 757          
 758          static TYesNo CheckLetter(byte ch) {
 759   1        // Zkontroluje hodnotu znaku <ch>
 760   1        if (ch >= 'A' && ch <= 'Z') {
 761   2          return YES;
 762   2        }
 763   1        if (ch >= '0' && ch <= '9') {
 764   2          return YES;
 765   2        }
 766   1        if (ch == ' ') {
 767   2          return YES;
 768   2        }
 769   1        return NO;
 770   1      }
 771          
 772          //-----------------------------------------------------------------------------
 773          // Zapis mezi
 774          //-----------------------------------------------------------------------------
 775          
 776          static byte WriteMargin(void) {
 777   1        // Zapise hodnotu <MbReg.Value> do mezi MBREG_CONFIG_MARGIN_ABOVE_FEMALES..MBREG_CONFIG_MARGIN_BELOW_MAL
             -ES
 778   1        byte __xdata__ *p;
 779   1      
 780   1        if (!CheckRange(MbReg.Value, MIN_MARGIN, MAX_MARGIN)) {
 781   2          return MB_WRITE_RESULT_INVALID_VALUE;
 782   2        }
 783   1      
 784   1        // Meze jsou naskladane za sebou stejne jako adresy MBREG_CONFIG_MARGIN_ABOVE_FEMALES..MBREG_CONFIG_MARG
             -IN_BELOW_MALES
 785   1        p = &Config.MarginAbove[GENDER_FEMALE];
 786   1        p += MbReg.Address - MBREG_CONFIG_MARGIN_ABOVE_FEMALES;
 787   1        *p = MbReg.Value;
 788   1      
 789   1        FlockReadWeighingParameters();        // Znovu vypoctu parametry ukladani, aby se zmeny ihned projevily 
             -(pokud se vazi)
 790   1        return MB_WRITE_RESULT_OK;
 791   1      }
C51 COMPILER V5.50,  MBREG                                                                 15/05/10  14:40:41  PAGE 14  

ASSEMBLY LISTING OF GENERATED OBJECT CODE


             ; FUNCTION MBRegInit (BEGIN)
                                           ; SOURCE LINE # 89
                                           ; SOURCE LINE # 91
0000 900000  R     MOV     DPTR,#Results
0003 7400    E     MOV     A,#HIGH Archive
0005 F0            MOVX    @DPTR,A
0006 A3            INC     DPTR
0007 7400    E     MOV     A,#LOW Archive
0009 F0            MOVX    @DPTR,A
                                           ; SOURCE LINE # 92
000A A3            INC     DPTR
000B 120000  E     LCALL   ?C?LSTKXDATA
000E FF            DB      #0FFH
000F FF            DB      #0FFH
0010 FF            DB      #0FFH
0011 FF            DB      #0FFH
                                           ; SOURCE LINE # 93
0012 22            RET     
             ; FUNCTION MBRegInit (END)

             ; FUNCTION MBRegRead (BEGIN)
                                           ; SOURCE LINE # 98
                                           ; SOURCE LINE # 102
0000 900000  R     MOV     DPTR,#MbReg
0003 E0            MOVX    A,@DPTR
0004 FC            MOV     R4,A
0005 A3            INC     DPTR
0006 E0            MOVX    A,@DPTR
0007 FD            MOV     R5,A
0008 C3            CLR     C
0009 94F2          SUBB    A,#0F2H
000B EC            MOV     A,R4
000C 9403          SUBB    A,#03H
000E 4024          JC      ?C0002
0010 D3            SETB    C
0011 ED            MOV     A,R5
0012 940F          SUBB    A,#0FH
0014 EC            MOV     A,R4
0015 9404          SUBB    A,#04H
0017 501B          JNC     ?C0002
                                           ; SOURCE LINE # 103
0019 ED            MOV     A,R5
001A AE04          MOV     R6,AR4
001C 7802          MOV     R0,#02H
001E         ?C0320:
001E C3            CLR     C
001F 33            RLC     A
0020 CE            XCH     A,R6
0021 33            RLC     A
0022 CE            XCH     A,R6
0023 D8F9          DJNZ    R0,?C0320
0025 2400    R     ADD     A,#LOW ModbusBuffer+0F045H
0027 F582          MOV     DPL,A
0029 EE            MOV     A,R6
002A 3400    R     ADDC    A,#HIGH ModbusBuffer+0F045H
002C F583          MOV     DPH,A
002E E0            MOVX    A,@DPTR
002F FE            MOV     R6,A
0030 A3            INC     DPTR
0031 E0            MOVX    A,@DPTR
0032 FF            MOV     R7,A
0033 22            RET     
                                           ; SOURCE LINE # 104
C51 COMPILER V5.50,  MBREG                                                                 15/05/10  14:40:41  PAGE 15  

0034         ?C0002:
                                           ; SOURCE LINE # 105
0034 C3            CLR     C
0035 ED            MOV     A,R5
0036 9410          SUBB    A,#010H
0038 EC            MOV     A,R4
0039 9404          SUBB    A,#04H
003B 4028          JC      ?C0004
003D D3            SETB    C
003E ED            MOV     A,R5
003F 942D          SUBB    A,#02DH
0041 EC            MOV     A,R4
0042 9404          SUBB    A,#04H
0044 501F          JNC     ?C0004
                                           ; SOURCE LINE # 106
0046 900000  R     MOV     DPTR,#MbReg
0049 E0            MOVX    A,@DPTR
004A FE            MOV     R6,A
004B A3            INC     DPTR
004C E0            MOVX    A,@DPTR
004D 7802          MOV     R0,#02H
004F         ?C0321:
004F C3            CLR     C
0050 33            RLC     A
0051 CE            XCH     A,R6
0052 33            RLC     A
0053 CE            XCH     A,R6
0054 D8F9          DJNZ    R0,?C0321
0056 2400    R     ADD     A,#LOW ModbusBuffer+0EFCFH
0058 F582          MOV     DPL,A
005A EE            MOV     A,R6
005B 3400    R     ADDC    A,#HIGH ModbusBuffer+0EFCFH
005D F583          MOV     DPH,A
005F E0            MOVX    A,@DPTR
0060 FE            MOV     R6,A
0061 A3            INC     DPTR
0062 E0            MOVX    A,@DPTR
0063 FF            MOV     R7,A
0064 22            RET     
                                           ; SOURCE LINE # 107
0065         ?C0004:
                                           ; SOURCE LINE # 108
0065 900000  R     MOV     DPTR,#MbReg
0068 E0            MOVX    A,@DPTR
0069 FE            MOV     R6,A
006A A3            INC     DPTR
006B E0            MOVX    A,@DPTR
006C FF            MOV     R7,A
006D C3            CLR     C
006E 942E          SUBB    A,#02EH
0070 EE            MOV     A,R6
0071 9404          SUBB    A,#04H
0073 4022          JC      ?C0005
0075 D3            SETB    C
0076 EF            MOV     A,R7
0077 944B          SUBB    A,#04BH
0079 EE            MOV     A,R6
007A 9404          SUBB    A,#04H
007C 5019          JNC     ?C0005
                                           ; SOURCE LINE # 109
007E EF            MOV     A,R7
007F 7802          MOV     R0,#02H
0081         ?C0322:
0081 C3            CLR     C
0082 33            RLC     A
0083 CE            XCH     A,R6
C51 COMPILER V5.50,  MBREG                                                                 15/05/10  14:40:41  PAGE 16  

0084 33            RLC     A
0085 CE            XCH     A,R6
0086 D8F9          DJNZ    R0,?C0322
0088 2400    R     ADD     A,#LOW ModbusBuffer+0EFCDH
008A F582          MOV     DPL,A
008C EE            MOV     A,R6
008D 3400    R     ADDC    A,#HIGH ModbusBuffer+0EFCDH
008F F583          MOV     DPH,A
0091 E0            MOVX    A,@DPTR
0092 FE            MOV     R6,A
0093 A3            INC     DPTR
0094 E0            MOVX    A,@DPTR
0095 FF            MOV     R7,A
0096 22            RET     
                                           ; SOURCE LINE # 110
0097         ?C0005:
                                           ; SOURCE LINE # 111
0097 900000  R     MOV     DPTR,#MbReg
009A E0            MOVX    A,@DPTR
009B FC            MOV     R4,A
009C A3            INC     DPTR
009D E0            MOVX    A,@DPTR
009E FD            MOV     R5,A
009F C3            CLR     C
00A0 944C          SUBB    A,#04CH
00A2 EC            MOV     A,R4
00A3 9404          SUBB    A,#04H
00A5 4024          JC      ?C0006
00A7 D3            SETB    C
00A8 ED            MOV     A,R5
00A9 9469          SUBB    A,#069H
00AB EC            MOV     A,R4
00AC 9404          SUBB    A,#04H
00AE 501B          JNC     ?C0006
                                           ; SOURCE LINE # 112
00B0 ED            MOV     A,R5
00B1 AE04          MOV     R6,AR4
00B3 7802          MOV     R0,#02H
00B5         ?C0323:
00B5 C3            CLR     C
00B6 33            RLC     A
00B7 CE            XCH     A,R6
00B8 33            RLC     A
00B9 CE            XCH     A,R6
00BA D8F9          DJNZ    R0,?C0323
00BC 2400    R     ADD     A,#LOW ModbusBuffer+0EF57H
00BE F582          MOV     DPL,A
00C0 EE            MOV     A,R6
00C1 3400    R     ADDC    A,#HIGH ModbusBuffer+0EF57H
00C3 F583          MOV     DPH,A
00C5 E0            MOVX    A,@DPTR
00C6 FE            MOV     R6,A
00C7 A3            INC     DPTR
00C8 E0            MOVX    A,@DPTR
00C9 FF            MOV     R7,A
00CA 22            RET     
                                           ; SOURCE LINE # 113
00CB         ?C0006:
                                           ; SOURCE LINE # 114
00CB C3            CLR     C
00CC ED            MOV     A,R5
00CD 94B5          SUBB    A,#0B5H
00CF EC            MOV     A,R4
00D0 940F          SUBB    A,#0FH
00D2 4032          JC      ?C0007
00D4 D3            SETB    C
C51 COMPILER V5.50,  MBREG                                                                 15/05/10  14:40:41  PAGE 17  

00D5 ED            MOV     A,R5
00D6 94DB          SUBB    A,#0DBH
00D8 EC            MOV     A,R4
00D9 940F          SUBB    A,#0FH
00DB 5029          JNC     ?C0007
                                           ; SOURCE LINE # 115
00DD 900000  R     MOV     DPTR,#MbReg+01H
00E0 E0            MOVX    A,@DPTR
00E1 25E0          ADD     A,ACC
00E3 FF            MOV     R7,A
00E4 900000  R     MOV     DPTR,#MbReg
00E7 E0            MOVX    A,@DPTR
00E8 33            RLC     A
00E9 FE            MOV     R6,A
00EA EF            MOV     A,R7
00EB 24BA          ADD     A,#0BAH
00ED FF            MOV     R7,A
00EE EE            MOV     A,R6
00EF 34E0          ADDC    A,#0E0H
00F1 FE            MOV     R6,A
00F2 900000  R     MOV     DPTR,#Results
00F5 E0            MOVX    A,@DPTR
00F6 FC            MOV     R4,A
00F7 A3            INC     DPTR
00F8 E0            MOVX    A,@DPTR
00F9 2F            ADD     A,R7
00FA F582          MOV     DPL,A
00FC EE            MOV     A,R6
00FD 3C            ADDC    A,R4
00FE F583          MOV     DPH,A
0100 E0            MOVX    A,@DPTR
0101 FE            MOV     R6,A
0102 A3            INC     DPTR
0103 E0            MOVX    A,@DPTR
0104 FF            MOV     R7,A
0105 22            RET     
                                           ; SOURCE LINE # 116
0106         ?C0007:
                                           ; SOURCE LINE # 117
0106 900000  R     MOV     DPTR,#MbReg
0109 E0            MOVX    A,@DPTR
010A FE            MOV     R6,A
010B A3            INC     DPTR
010C E0            MOVX    A,@DPTR
010D FF            MOV     R7,A
010E C3            CLR     C
010F 94E0          SUBB    A,#0E0H
0111 EE            MOV     A,R6
0112 940F          SUBB    A,#0FH
0114 402C          JC      ?C0008
0116 D3            SETB    C
0117 EF            MOV     A,R7
0118 9406          SUBB    A,#06H
011A EE            MOV     A,R6
011B 9410          SUBB    A,#010H
011D 5023          JNC     ?C0008
                                           ; SOURCE LINE # 118
011F EF            MOV     A,R7
0120 25E0          ADD     A,ACC
0122 FF            MOV     R7,A
0123 EE            MOV     A,R6
0124 33            RLC     A
0125 FE            MOV     R6,A
0126 EF            MOV     A,R7
0127 24BA          ADD     A,#0BAH
0129 FF            MOV     R7,A
C51 COMPILER V5.50,  MBREG                                                                 15/05/10  14:40:41  PAGE 18  

012A EE            MOV     A,R6
012B 34E0          ADDC    A,#0E0H
012D FE            MOV     R6,A
012E 900000  R     MOV     DPTR,#Results
0131 E0            MOVX    A,@DPTR
0132 FC            MOV     R4,A
0133 A3            INC     DPTR
0134 E0            MOVX    A,@DPTR
0135 2F            ADD     A,R7
0136 F582          MOV     DPL,A
0138 EE            MOV     A,R6
0139 3C            ADDC    A,R4
013A F583          MOV     DPH,A
013C E0            MOVX    A,@DPTR
013D FE            MOV     R6,A
013E A3            INC     DPTR
013F E0            MOVX    A,@DPTR
0140 FF            MOV     R7,A
0141 22            RET     
                                           ; SOURCE LINE # 119
0142         ?C0008:
                                           ; SOURCE LINE # 122
0142 900000  R     MOV     DPTR,#MbReg
0145 E0            MOVX    A,@DPTR
0146 FE            MOV     R6,A
0147 A3            INC     DPTR
0148 E0            MOVX    A,@DPTR
0149 8EF0          MOV     B,R6
014B 120000  E     LCALL   ?C?ICASE
014E 0000    R     DW      ?C0010
0150 0001          DW      01H
0152 0000    R     DW      ?C0011
0154 0002          DW      02H
0156 0000    R     DW      ?C0012
0158 0003          DW      03H
015A 0000    R     DW      ?C0018
015C 0004          DW      04H
015E 0000    R     DW      ?C0013
0160 0005          DW      05H
0162 0000    R     DW      ?C0014
0164 0006          DW      06H
0166 0000    R     DW      ?C0015
0168 0007          DW      07H
016A 0000    R     DW      ?C0016
016C 0008          DW      08H
016E 0000    R     DW      ?C0017
0170 0009          DW      09H
0172 0000    R     DW      ?C0031
0174 000A          DW      0AH
0176 0000    R     DW      ?C0032
0178 000B          DW      0BH
017A 0000    R     DW      ?C0033
017C 000C          DW      0CH
017E 0000    R     DW      ?C0034
0180 000D          DW      0DH
0182 0000    R     DW      ?C0035
0184 000E          DW      0EH
0186 0000    R     DW      ?C0036
0188 000F          DW      0FH
018A 0000    R     DW      ?C0037
018C 0010          DW      010H
018E 0000    R     DW      ?C0038
0190 0011          DW      011H
0192 0000    R     DW      ?C0039
0194 0012          DW      012H
0196 0000    R     DW      ?C0040
C51 COMPILER V5.50,  MBREG                                                                 15/05/10  14:40:41  PAGE 19  

0198 0013          DW      013H
019A 0000    R     DW      ?C0041
019C 0014          DW      014H
019E 0000    R     DW      ?C0042
01A0 0015          DW      015H
01A2 0000    R     DW      ?C0043
01A4 0016          DW      016H
01A6 0000    R     DW      ?C0044
01A8 0017          DW      017H
01AA 0000    R     DW      ?C0045
01AC 0018          DW      018H
01AE 0000    R     DW      ?C0047
01B0 0019          DW      019H
01B2 0000    R     DW      ?C0048
01B4 001A          DW      01AH
01B6 0000    R     DW      ?C0049
01B8 001B          DW      01BH
01BA 0000    R     DW      ?C0050
01BC 001C          DW      01CH
01BE 0000    R     DW      ?C0051
01C0 001D          DW      01DH
01C2 0000    R     DW      ?C0052
01C4 001E          DW      01EH
01C6 0000    R     DW      ?C0053
01C8 001F          DW      01FH
01CA 0000    R     DW      ?C0029
01CC 0020          DW      020H
01CE 0000    R     DW      ?C0030
01D0 0021          DW      021H
01D2 0000    R     DW      ?C0019
01D4 0022          DW      022H
01D6 0000    R     DW      ?C0020
01D8 0023          DW      023H
01DA 0000    R     DW      ?C0021
01DC 0024          DW      024H
01DE 0000    R     DW      ?C0022
01E0 0025          DW      025H
01E2 0000    R     DW      ?C0023
01E4 0026          DW      026H
01E6 0000    R     DW      ?C0024
01E8 0027          DW      027H
01EA 0000    R     DW      ?C0025
01EC 0028          DW      028H
01EE 0000    R     DW      ?C0026
01F0 0029          DW      029H
01F2 0000    R     DW      ?C0027
01F4 002A          DW      02AH
01F6 0000    R     DW      ?C0028
01F8 002B          DW      02BH
01FA 0000    R     DW      ?C0046
01FC 002C          DW      02CH
01FE 0000    R     DW      ?C0054
0200 002D          DW      02DH
0202 0000    R     DW      ?C0055
0204 002E          DW      02EH
0206 0000    R     DW      ?C0056
0208 002F          DW      02FH
020A 0000    R     DW      ?C0057
020C 0030          DW      030H
020E 0000    R     DW      ?C0058
0210 03E9          DW      03E9H
0212 0000    R     DW      ?C0062
0214 03EA          DW      03EAH
0216 0000    R     DW      ?C0062
0218 03EB          DW      03EBH
021A 0000    R     DW      ?C0062
C51 COMPILER V5.50,  MBREG                                                                 15/05/10  14:40:41  PAGE 20  

021C 03EC          DW      03ECH
021E 0000    R     DW      ?C0062
0220 03ED          DW      03EDH
0222 0000    R     DW      ?C0063
0224 03EE          DW      03EEH
0226 0000    R     DW      ?C0064
0228 03EF          DW      03EFH
022A 0000    R     DW      ?C0065
022C 03F0          DW      03F0H
022E 0000    R     DW      ?C0066
0230 03F1          DW      03F1H
0232 0000    R     DW      ?C0067
0234 07D1          DW      07D1H
0236 0000    R     DW      ?C0068
0238 07D2          DW      07D2H
023A 0000    R     DW      ?C0069
023C 07D3          DW      07D3H
023E 0000    R     DW      ?C0070
0240 07D4          DW      07D4H
0242 0000    R     DW      ?C0071
0244 07D5          DW      07D5H
0246 0000    R     DW      ?C0072
0248 0DAD          DW      0DADH
024A 0000    R     DW      ?C0073
024C 0FA1          DW      0FA1H
024E 0000    R     DW      ?C0074
0250 0FA2          DW      0FA2H
0252 0000    R     DW      ?C0075
0254 0FA3          DW      0FA3H
0256 0000    R     DW      ?C0076
0258 0FA4          DW      0FA4H
025A 0000    R     DW      ?C0077
025C 0FA5          DW      0FA5H
025E 0000    R     DW      ?C0078
0260 0FA6          DW      0FA6H
0262 0000    R     DW      ?C0079
0264 0FA7          DW      0FA7H
0266 0000    R     DW      ?C0080
0268 0FA8          DW      0FA8H
026A 0000    R     DW      ?C0081
026C 0FA9          DW      0FA9H
026E 0000    R     DW      ?C0082
0270 0FAA          DW      0FAAH
0272 0000    R     DW      ?C0083
0274 0FAB          DW      0FABH
0276 0000    R     DW      ?C0084
0278 0FAC          DW      0FACH
027A 0000    R     DW      ?C0085
027C 0FAD          DW      0FADH
027E 0000    R     DW      ?C0086
0280 0FAE          DW      0FAEH
0282 0000    R     DW      ?C0087
0284 0FAF          DW      0FAFH
0286 0000    R     DW      ?C0088
0288 0FB0          DW      0FB0H
028A 0000    R     DW      ?C0089
028C 0FB1          DW      0FB1H
028E 0000    R     DW      ?C0090
0290 0FB2          DW      0FB2H
0292 0000    R     DW      ?C0091
0294 0FB3          DW      0FB3H
0296 0000    R     DW      ?C0092
0298 0FB4          DW      0FB4H
029A 0000    R     DW      ?C0093
029C 0FDC          DW      0FDCH
029E 0000    R     DW      ?C0094
C51 COMPILER V5.50,  MBREG                                                                 15/05/10  14:40:41  PAGE 21  

02A0 0FDD          DW      0FDDH
02A2 0000    R     DW      ?C0095
02A4 0FDE          DW      0FDEH
02A6 0000    R     DW      ?C0096
02A8 0FDF          DW      0FDFH
02AA 0000    R     DW      ?C0097
02AC 1007          DW      01007H
02AE 0000    R     DW      ?C0098
02B0 1008          DW      01008H
02B2 0000    R     DW      ?C0099
02B4 1009          DW      01009H
02B6 0000    R     DW      ?C0100
02B8 100A          DW      0100AH
02BA 0000    R     DW      ?C0101
02BC 100B          DW      0100BH
02BE 0000    R     DW      ?C0102
02C0 100C          DW      0100CH
02C2 0000    R     DW      ?C0103
02C4 100D          DW      0100DH
02C6 0000    R     DW      ?C0104
02C8 1389          DW      01389H
02CA 0000    R     DW      ?C0105
02CC 138A          DW      0138AH
02CE 0000    R     DW      ?C0106
02D0 138B          DW      0138BH
02D2 0000    R     DW      ?C0107
02D4 138C          DW      0138CH
02D6 0000    R     DW      ?C0108
02D8 138D          DW      0138DH
02DA 0000    R     DW      ?C0109
02DC 138E          DW      0138EH
02DE 0000    R     DW      ?C0110
02E0 138F          DW      0138FH
02E2 0000          DW      00H
02E4 0000    R     DW      ?C0111
                                           ; SOURCE LINE # 125
02E6         ?C0010:
                                           ; SOURCE LINE # 126
02E6 900000  E     MOV     DPTR,#Config
02E9 E0            MOVX    A,@DPTR
02EA FE            MOV     R6,A
02EB A3            INC     DPTR
02EC E0            MOVX    A,@DPTR
02ED FF            MOV     R7,A
02EE 22            RET     
                                           ; SOURCE LINE # 127
02EF         ?C0011:
                                           ; SOURCE LINE # 128
02EF 900000  E     MOV     DPTR,#Config+02H
02F2 E0            MOVX    A,@DPTR
02F3 FF            MOV     R7,A
02F4 7E00          MOV     R6,#00H
02F6 22            RET     
                                           ; SOURCE LINE # 129
02F7         ?C0012:
                                           ; SOURCE LINE # 130
02F7 900000  E     MOV     DPTR,#Config+03H
02FA E0            MOVX    A,@DPTR
02FB FF            MOV     R7,A
02FC 7E00          MOV     R6,#00H
02FE 22            RET     
                                           ; SOURCE LINE # 131
02FF         ?C0013:
                                           ; SOURCE LINE # 132
02FF 900000  E     MOV     DPTR,#Config+04H
0302 E0            MOVX    A,@DPTR
C51 COMPILER V5.50,  MBREG                                                                 15/05/10  14:40:41  PAGE 22  

0303 FF            MOV     R7,A
0304 A3            INC     DPTR
0305 E0            MOVX    A,@DPTR
0306 FD            MOV     R5,A
0307 120000  R     LCALL   _MakeWord
030A 22            RET     
                                           ; SOURCE LINE # 133
030B         ?C0014:
                                           ; SOURCE LINE # 134
030B 900000  E     MOV     DPTR,#Config+06H
030E E0            MOVX    A,@DPTR
030F FF            MOV     R7,A
0310 A3            INC     DPTR
0311 E0            MOVX    A,@DPTR
0312 FD            MOV     R5,A
0313 120000  R     LCALL   _MakeWord
0316 22            RET     
                                           ; SOURCE LINE # 135
0317         ?C0015:
                                           ; SOURCE LINE # 136
0317 900000  E     MOV     DPTR,#Config+08H
031A E0            MOVX    A,@DPTR
031B FF            MOV     R7,A
031C A3            INC     DPTR
031D E0            MOVX    A,@DPTR
031E FD            MOV     R5,A
031F 120000  R     LCALL   _MakeWord
0322 22            RET     
                                           ; SOURCE LINE # 137
0323         ?C0016:
                                           ; SOURCE LINE # 138
0323 900000  E     MOV     DPTR,#Config+0AH
0326 E0            MOVX    A,@DPTR
0327 FF            MOV     R7,A
0328 A3            INC     DPTR
0329 E0            MOVX    A,@DPTR
032A FD            MOV     R5,A
032B 120000  R     LCALL   _MakeWord
032E 22            RET     
                                           ; SOURCE LINE # 139
032F         ?C0017:
                                           ; SOURCE LINE # 140
032F 900000  E     MOV     DPTR,#Config+0CH
0332 E0            MOVX    A,@DPTR
0333 FF            MOV     R7,A
0334 A3            INC     DPTR
0335 E0            MOVX    A,@DPTR
0336 FD            MOV     R5,A
0337 120000  R     LCALL   _MakeWord
033A 22            RET     
                                           ; SOURCE LINE # 141
033B         ?C0018:
                                           ; SOURCE LINE # 142
033B 900000  E     MOV     DPTR,#Config+0EH
033E E0            MOVX    A,@DPTR
033F FF            MOV     R7,A
0340 7E00          MOV     R6,#00H
0342 22            RET     
                                           ; SOURCE LINE # 143
0343         ?C0019:
                                           ; SOURCE LINE # 144
0343 900000  E     MOV     DPTR,#Config+0FH
0346 E0            MOVX    A,@DPTR
0347 FF            MOV     R7,A
0348 7E00          MOV     R6,#00H
034A 22            RET     
C51 COMPILER V5.50,  MBREG                                                                 15/05/10  14:40:41  PAGE 23  

                                           ; SOURCE LINE # 145
034B         ?C0020:
                                           ; SOURCE LINE # 146
034B 900000  E     MOV     DPTR,#Config+010H
034E E0            MOVX    A,@DPTR
034F FF            MOV     R7,A
0350 7E00          MOV     R6,#00H
0352 22            RET     
                                           ; SOURCE LINE # 147
0353         ?C0021:
                                           ; SOURCE LINE # 148
0353 900000  E     MOV     DPTR,#Config+011H
0356 E0            MOVX    A,@DPTR
0357 FF            MOV     R7,A
0358 7E00          MOV     R6,#00H
035A 22            RET     
                                           ; SOURCE LINE # 149
035B         ?C0022:
                                           ; SOURCE LINE # 150
035B 900000  E     MOV     DPTR,#Config+012H
035E E0            MOVX    A,@DPTR
035F FF            MOV     R7,A
0360 7E00          MOV     R6,#00H
0362 22            RET     
                                           ; SOURCE LINE # 151
0363         ?C0023:
                                           ; SOURCE LINE # 152
0363 900000  E     MOV     DPTR,#Config+013H
0366 E0            MOVX    A,@DPTR
0367 FF            MOV     R7,A
0368 7E00          MOV     R6,#00H
036A 22            RET     
                                           ; SOURCE LINE # 153
036B         ?C0024:
                                           ; SOURCE LINE # 154
036B 900000  E     MOV     DPTR,#Config+014H
036E E0            MOVX    A,@DPTR
036F FF            MOV     R7,A
0370 7E00          MOV     R6,#00H
0372 22            RET     
                                           ; SOURCE LINE # 155
0373         ?C0025:
                                           ; SOURCE LINE # 156
0373 900000  E     MOV     DPTR,#Config+015H
0376 E0            MOVX    A,@DPTR
0377 FF            MOV     R7,A
0378 7E00          MOV     R6,#00H
037A 22            RET     
                                           ; SOURCE LINE # 157
037B         ?C0026:
                                           ; SOURCE LINE # 158
037B 900000  E     MOV     DPTR,#Config+016H
037E E0            MOVX    A,@DPTR
037F FF            MOV     R7,A
0380 7E00          MOV     R6,#00H
0382 22            RET     
                                           ; SOURCE LINE # 159
0383         ?C0027:
                                           ; SOURCE LINE # 160
0383 900000  E     MOV     DPTR,#Config+017H
0386 E0            MOVX    A,@DPTR
0387 FF            MOV     R7,A
0388 7E00          MOV     R6,#00H
038A 22            RET     
                                           ; SOURCE LINE # 161
038B         ?C0028:
C51 COMPILER V5.50,  MBREG                                                                 15/05/10  14:40:41  PAGE 24  

                                           ; SOURCE LINE # 162
038B 900000  E     MOV     DPTR,#Config+018H
038E E0            MOVX    A,@DPTR
038F FF            MOV     R7,A
0390 7E00          MOV     R6,#00H
0392 22            RET     
                                           ; SOURCE LINE # 163
0393         ?C0029:
                                           ; SOURCE LINE # 164
0393 900000  E     MOV     DPTR,#Config+019H
0396 E0            MOVX    A,@DPTR
0397 FF            MOV     R7,A
0398 7E00          MOV     R6,#00H
039A 22            RET     
                                           ; SOURCE LINE # 165
039B         ?C0030:
                                           ; SOURCE LINE # 166
039B 900000  E     MOV     DPTR,#Config+01AH
039E E0            MOVX    A,@DPTR
039F FF            MOV     R7,A
03A0 7E00          MOV     R6,#00H
03A2 22            RET     
                                           ; SOURCE LINE # 167
03A3         ?C0031:
                                           ; SOURCE LINE # 168
03A3 900000  E     MOV     DPTR,#Config+01BH
03A6 E0            MOVX    A,@DPTR
03A7 FF            MOV     R7,A
03A8 7E00          MOV     R6,#00H
03AA 22            RET     
                                           ; SOURCE LINE # 169
03AB         ?C0032:
                                           ; SOURCE LINE # 170
03AB 900000  E     MOV     DPTR,#Config+01CH
03AE E0            MOVX    A,@DPTR
03AF FF            MOV     R7,A
03B0 7E00          MOV     R6,#00H
03B2 22            RET     
                                           ; SOURCE LINE # 171
03B3         ?C0033:
                                           ; SOURCE LINE # 172
03B3 900000  E     MOV     DPTR,#Config+01DH
03B6 E0            MOVX    A,@DPTR
03B7 FF            MOV     R7,A
03B8 7E00          MOV     R6,#00H
03BA 22            RET     
                                           ; SOURCE LINE # 173
03BB         ?C0034:
                                           ; SOURCE LINE # 174
03BB 900000  E     MOV     DPTR,#Config+01EH
03BE E0            MOVX    A,@DPTR
03BF FF            MOV     R7,A
03C0 7E00          MOV     R6,#00H
03C2 22            RET     
                                           ; SOURCE LINE # 175
03C3         ?C0035:
                                           ; SOURCE LINE # 176
03C3 900000  E     MOV     DPTR,#Config+01FH
03C6 E0            MOVX    A,@DPTR
03C7 FE            MOV     R6,A
03C8 A3            INC     DPTR
03C9 E0            MOVX    A,@DPTR
03CA FF            MOV     R7,A
03CB 22            RET     
                                           ; SOURCE LINE # 177
03CC         ?C0036:
C51 COMPILER V5.50,  MBREG                                                                 15/05/10  14:40:41  PAGE 25  

                                           ; SOURCE LINE # 178
03CC 900000  E     MOV     DPTR,#Config+022H
03CF E0            MOVX    A,@DPTR
03D0 FF            MOV     R7,A
03D1 7E00          MOV     R6,#00H
03D3 22            RET     
                                           ; SOURCE LINE # 179
03D4         ?C0037:
                                           ; SOURCE LINE # 180
03D4 900000  E     MOV     DPTR,#Config+021H
03D7 E0            MOVX    A,@DPTR
03D8 FF            MOV     R7,A
03D9 7E00          MOV     R6,#00H
03DB 22            RET     
                                           ; SOURCE LINE # 181
03DC         ?C0038:
                                           ; SOURCE LINE # 182
03DC 900000  E     MOV     DPTR,#Config+023H
03DF E0            MOVX    A,@DPTR
03E0 FF            MOV     R7,A
03E1 7E00          MOV     R6,#00H
03E3 22            RET     
                                           ; SOURCE LINE # 183
03E4         ?C0039:
                                           ; SOURCE LINE # 184
03E4 900000  E     MOV     DPTR,#Config+024H
03E7 E0            MOVX    A,@DPTR
03E8 FF            MOV     R7,A
03E9 7E00          MOV     R6,#00H
03EB 22            RET     
                                           ; SOURCE LINE # 185
03EC         ?C0040:
                                           ; SOURCE LINE # 186
03EC 900000  E     MOV     DPTR,#Config+025H
03EF E0            MOVX    A,@DPTR
03F0 FE            MOV     R6,A
03F1 A3            INC     DPTR
03F2 E0            MOVX    A,@DPTR
03F3 FF            MOV     R7,A
03F4 22            RET     
                                           ; SOURCE LINE # 187
03F5         ?C0041:
                                           ; SOURCE LINE # 188
03F5 900000  E     MOV     DPTR,#Config+027H
03F8 E0            MOVX    A,@DPTR
03F9 FF            MOV     R7,A
03FA 7E00          MOV     R6,#00H
03FC 22            RET     
                                           ; SOURCE LINE # 189
03FD         ?C0042:
                                           ; SOURCE LINE # 190
03FD 900000  E     MOV     DPTR,#Config+028H
0400 E0            MOVX    A,@DPTR
0401 FE            MOV     R6,A
0402 A3            INC     DPTR
0403 E0            MOVX    A,@DPTR
0404 FF            MOV     R7,A
0405 22            RET     
                                           ; SOURCE LINE # 191
0406         ?C0043:
                                           ; SOURCE LINE # 192
0406 900000  E     MOV     DPTR,#Config+02AH
0409 E0            MOVX    A,@DPTR
040A FE            MOV     R6,A
040B A3            INC     DPTR
040C E0            MOVX    A,@DPTR
C51 COMPILER V5.50,  MBREG                                                                 15/05/10  14:40:41  PAGE 26  

040D FF            MOV     R7,A
040E 22            RET     
                                           ; SOURCE LINE # 193
040F         ?C0044:
                                           ; SOURCE LINE # 194
040F 900000  E     MOV     DPTR,#Config+02CH
0412 E0            MOVX    A,@DPTR
0413 FF            MOV     R7,A
0414 7E00          MOV     R6,#00H
0416 22            RET     
                                           ; SOURCE LINE # 195
0417         ?C0045:
                                           ; SOURCE LINE # 196
0417 900000  E     MOV     DPTR,#Config+02DH
041A E0            MOVX    A,@DPTR
041B FF            MOV     R7,A
041C 7E00          MOV     R6,#00H
041E 22            RET     
                                           ; SOURCE LINE # 197
041F         ?C0046:
                                           ; SOURCE LINE # 198
041F 900000  E     MOV     DPTR,#Config+084H
0422 E0            MOVX    A,@DPTR
0423 FF            MOV     R7,A
0424 7E00          MOV     R6,#00H
0426 22            RET     
                                           ; SOURCE LINE # 199
0427         ?C0047:
                                           ; SOURCE LINE # 200
0427 900000  E     MOV     DPTR,#Config+085H
042A E0            MOVX    A,@DPTR
042B FF            MOV     R7,A
042C 7E00          MOV     R6,#00H
042E 22            RET     
                                           ; SOURCE LINE # 201
042F         ?C0048:
                                           ; SOURCE LINE # 202
042F 7E00    E     MOV     R6,#HIGH Config+086H
0431 7F00    E     MOV     R7,#LOW Config+086H
0433 120000  R     LCALL   _GetDWordMsb
0436 22            RET     
                                           ; SOURCE LINE # 203
0437         ?C0049:
                                           ; SOURCE LINE # 204
0437 7E00    E     MOV     R6,#HIGH Config+086H
0439 7F00    E     MOV     R7,#LOW Config+086H
043B 120000  R     LCALL   _GetDWordLsb
043E 22            RET     
                                           ; SOURCE LINE # 205
043F         ?C0050:
                                           ; SOURCE LINE # 206
043F 900000  E     MOV     DPTR,#Config+08AH
0442 E0            MOVX    A,@DPTR
0443 FF            MOV     R7,A
0444 7E00          MOV     R6,#00H
0446 22            RET     
                                           ; SOURCE LINE # 207
0447         ?C0051:
                                           ; SOURCE LINE # 208
0447 900000  E     MOV     DPTR,#Config+08BH
044A E0            MOVX    A,@DPTR
044B FE            MOV     R6,A
044C A3            INC     DPTR
044D E0            MOVX    A,@DPTR
044E FF            MOV     R7,A
044F 22            RET     
C51 COMPILER V5.50,  MBREG                                                                 15/05/10  14:40:41  PAGE 27  

                                           ; SOURCE LINE # 209
0450         ?C0052:
                                           ; SOURCE LINE # 210
0450 900000  E     MOV     DPTR,#Config+08DH
0453 E0            MOVX    A,@DPTR
0454 FF            MOV     R7,A
0455 7E00          MOV     R6,#00H
0457 22            RET     
                                           ; SOURCE LINE # 211
0458         ?C0053:
                                           ; SOURCE LINE # 212
0458 900000  E     MOV     DPTR,#Config+08EH
045B E0            MOVX    A,@DPTR
045C FF            MOV     R7,A
045D 7E00          MOV     R6,#00H
045F 22            RET     
                                           ; SOURCE LINE # 213
0460         ?C0054:
                                           ; SOURCE LINE # 214
0460 900000  E     MOV     DPTR,#Config+08FH
0463 E0            MOVX    A,@DPTR
0464 FF            MOV     R7,A
0465 7E00          MOV     R6,#00H
0467 22            RET     
                                           ; SOURCE LINE # 215
0468         ?C0055:
                                           ; SOURCE LINE # 216
0468 900000  E     MOV     DPTR,#Config+090H
046B E0            MOVX    A,@DPTR
046C FE            MOV     R6,A
046D A3            INC     DPTR
046E E0            MOVX    A,@DPTR
046F FF            MOV     R7,A
0470 22            RET     
                                           ; SOURCE LINE # 217
0471         ?C0056:
                                           ; SOURCE LINE # 218
0471 900000  E     MOV     DPTR,#Config+092H
0474 E0            MOVX    A,@DPTR
0475 FE            MOV     R6,A
0476 A3            INC     DPTR
0477 E0            MOVX    A,@DPTR
0478 FF            MOV     R7,A
0479 22            RET     
                                           ; SOURCE LINE # 219
047A         ?C0057:
                                           ; SOURCE LINE # 220
047A 900000  E     MOV     DPTR,#Config+094H
047D E0            MOVX    A,@DPTR
047E FF            MOV     R7,A
047F 7E00          MOV     R6,#00H
0481 22            RET     
                                           ; SOURCE LINE # 224
0482         ?C0058:
                                           ; SOURCE LINE # 225
0482 900000  R     MOV     DPTR,#ModbusBuffer
0485 E0            MOVX    A,@DPTR
0486 FF            MOV     R7,A
0487 7E00          MOV     R6,#00H
0489 22            RET     
                                           ; SOURCE LINE # 226
                                           ; SOURCE LINE # 227
                                           ; SOURCE LINE # 228
                                           ; SOURCE LINE # 229
048A         ?C0062:
                                           ; SOURCE LINE # 230
C51 COMPILER V5.50,  MBREG                                                                 15/05/10  14:40:41  PAGE 28  

048A 900000  R     MOV     DPTR,#MbReg+01H
048D E0            MOVX    A,@DPTR
048E 25E0          ADD     A,ACC
0490 FD            MOV     R5,A
0491 900000  R     MOV     DPTR,#MbReg
0494 E0            MOVX    A,@DPTR
0495 33            RLC     A
0496 FC            MOV     R4,A
0497 7400    R     MOV     A,#LOW ModbusBuffer+0F82DH
0499 2D            ADD     A,R5
049A F582          MOV     DPL,A
049C EC            MOV     A,R4
049D 3400    R     ADDC    A,#HIGH ModbusBuffer+0F82DH
049F F583          MOV     DPH,A
04A1 E0            MOVX    A,@DPTR
04A2 FF            MOV     R7,A
04A3 7400    R     MOV     A,#LOW ModbusBuffer+0F82EH
04A5 2D            ADD     A,R5
04A6 F582          MOV     DPL,A
04A8 EC            MOV     A,R4
04A9 3400    R     ADDC    A,#HIGH ModbusBuffer+0F82EH
04AB F583          MOV     DPH,A
04AD E0            MOVX    A,@DPTR
04AE FD            MOV     R5,A
04AF 120000  R     LCALL   _MakeWord
04B2 22            RET     
                                           ; SOURCE LINE # 232
04B3         ?C0063:
                                           ; SOURCE LINE # 233
04B3 900000  R     MOV     DPTR,#ModbusBuffer+09H
04B6 E0            MOVX    A,@DPTR
04B7 FF            MOV     R7,A
04B8 7E00          MOV     R6,#00H
04BA 22            RET     
                                           ; SOURCE LINE # 234
04BB         ?C0064:
                                           ; SOURCE LINE # 235
04BB 900000  R     MOV     DPTR,#ModbusBuffer+0AH
04BE E0            MOVX    A,@DPTR
04BF FF            MOV     R7,A
04C0 7E00          MOV     R6,#00H
04C2 22            RET     
                                           ; SOURCE LINE # 236
04C3         ?C0065:
                                           ; SOURCE LINE # 237
04C3 900000  R     MOV     DPTR,#ModbusBuffer+0BH
04C6 E0            MOVX    A,@DPTR
04C7 FF            MOV     R7,A
04C8 7E00          MOV     R6,#00H
04CA 22            RET     
                                           ; SOURCE LINE # 238
04CB         ?C0066:
                                           ; SOURCE LINE # 239
04CB 900000  R     MOV     DPTR,#ModbusBuffer+0CH
04CE E0            MOVX    A,@DPTR
04CF FF            MOV     R7,A
04D0 7E00          MOV     R6,#00H
04D2 22            RET     
                                           ; SOURCE LINE # 242
04D3         ?C0067:
                                           ; SOURCE LINE # 243
04D3 900000  E     MOV     DPTR,#ActualDateTime+02H
04D6 E0            MOVX    A,@DPTR
04D7 FF            MOV     R7,A
04D8 7E00          MOV     R6,#00H
04DA 22            RET     
C51 COMPILER V5.50,  MBREG                                                                 15/05/10  14:40:41  PAGE 29  

                                           ; SOURCE LINE # 244
04DB         ?C0068:
                                           ; SOURCE LINE # 245
04DB 900000  E     MOV     DPTR,#ActualDateTime+03H
04DE E0            MOVX    A,@DPTR
04DF FF            MOV     R7,A
04E0 7E00          MOV     R6,#00H
04E2 22            RET     
                                           ; SOURCE LINE # 246
04E3         ?C0069:
                                           ; SOURCE LINE # 247
04E3 900000  E     MOV     DPTR,#ActualDateTime+04H
04E6 E0            MOVX    A,@DPTR
04E7 FE            MOV     R6,A
04E8 A3            INC     DPTR
04E9 E0            MOVX    A,@DPTR
04EA FF            MOV     R7,A
04EB 22            RET     
                                           ; SOURCE LINE # 248
04EC         ?C0070:
                                           ; SOURCE LINE # 249
04EC 900000  E     MOV     DPTR,#ActualDateTime+01H
04EF E0            MOVX    A,@DPTR
04F0 FF            MOV     R7,A
04F1 7E00          MOV     R6,#00H
04F3 22            RET     
                                           ; SOURCE LINE # 250
04F4         ?C0071:
                                           ; SOURCE LINE # 251
04F4 900000  E     MOV     DPTR,#ActualDateTime
04F7 E0            MOVX    A,@DPTR
04F8 FF            MOV     R7,A
04F9 7E00          MOV     R6,#00H
04FB 22            RET     
                                           ; SOURCE LINE # 254
04FC         ?C0072:
                                           ; SOURCE LINE # 255
04FC 900000  E     MOV     DPTR,#Scale+03CH
04FF E0            MOVX    A,@DPTR
0500 FF            MOV     R7,A
0501 7E00          MOV     R6,#00H
0503 22            RET     
                                           ; SOURCE LINE # 258
0504         ?C0073:
                                           ; SOURCE LINE # 259
0504 900000  R     MOV     DPTR,#Results
0507 E0            MOVX    A,@DPTR
0508 FE            MOV     R6,A
0509 A3            INC     DPTR
050A E0            MOVX    A,@DPTR
050B F582          MOV     DPL,A
050D 8E83          MOV     DPH,R6
050F E0            MOVX    A,@DPTR
0510 FE            MOV     R6,A
0511 A3            INC     DPTR
0512 E0            MOVX    A,@DPTR
0513 FF            MOV     R7,A
0514 22            RET     
                                           ; SOURCE LINE # 260
0515         ?C0074:
                                           ; SOURCE LINE # 261
0515 900000  R     MOV     DPTR,#Results
0518 E0            MOVX    A,@DPTR
0519 FE            MOV     R6,A
051A A3            INC     DPTR
051B E0            MOVX    A,@DPTR
C51 COMPILER V5.50,  MBREG                                                                 15/05/10  14:40:41  PAGE 30  

051C 2404          ADD     A,#04H
051E F582          MOV     DPL,A
0520 E4            CLR     A
0521 3E            ADDC    A,R6
0522 F583          MOV     DPH,A
0524 E0            MOVX    A,@DPTR
0525 FF            MOV     R7,A
0526 7E00          MOV     R6,#00H
0528 22            RET     
                                           ; SOURCE LINE # 262
0529         ?C0075:
                                           ; SOURCE LINE # 263
0529 900000  R     MOV     DPTR,#Results
052C E0            MOVX    A,@DPTR
052D FE            MOV     R6,A
052E A3            INC     DPTR
052F E0            MOVX    A,@DPTR
0530 2405          ADD     A,#05H
0532 F582          MOV     DPL,A
0534 E4            CLR     A
0535 3E            ADDC    A,R6
0536 F583          MOV     DPH,A
0538 E0            MOVX    A,@DPTR
0539 FF            MOV     R7,A
053A 7E00          MOV     R6,#00H
053C 22            RET     
                                           ; SOURCE LINE # 264
053D         ?C0076:
                                           ; SOURCE LINE # 265
053D 900000  R     MOV     DPTR,#Results
0540 E0            MOVX    A,@DPTR
0541 FE            MOV     R6,A
0542 A3            INC     DPTR
0543 E0            MOVX    A,@DPTR
0544 2406          ADD     A,#06H
0546 F582          MOV     DPL,A
0548 E4            CLR     A
0549 3E            ADDC    A,R6
054A F583          MOV     DPH,A
054C E0            MOVX    A,@DPTR
054D FE            MOV     R6,A
054E A3            INC     DPTR
054F E0            MOVX    A,@DPTR
0550 FF            MOV     R7,A
0551 22            RET     
                                           ; SOURCE LINE # 266
0552         ?C0077:
                                           ; SOURCE LINE # 267
0552 900000  R     MOV     DPTR,#Results
0555 E0            MOVX    A,@DPTR
0556 FE            MOV     R6,A
0557 A3            INC     DPTR
0558 E0            MOVX    A,@DPTR
0559 F582          MOV     DPL,A
055B 8E83          MOV     DPH,R6
055D A3            INC     DPTR
055E A3            INC     DPTR
055F A3            INC     DPTR
0560 E0            MOVX    A,@DPTR
0561 FF            MOV     R7,A
0562 7E00          MOV     R6,#00H
0564 22            RET     
                                           ; SOURCE LINE # 268
0565         ?C0078:
                                           ; SOURCE LINE # 269
0565 900000  R     MOV     DPTR,#Results
C51 COMPILER V5.50,  MBREG                                                                 15/05/10  14:40:41  PAGE 31  

0568 E0            MOVX    A,@DPTR
0569 FE            MOV     R6,A
056A A3            INC     DPTR
056B E0            MOVX    A,@DPTR
056C F582          MOV     DPL,A
056E 8E83          MOV     DPH,R6
0570 A3            INC     DPTR
0571 A3            INC     DPTR
0572 E0            MOVX    A,@DPTR
0573 FF            MOV     R7,A
0574 7E00          MOV     R6,#00H
0576 22            RET     
                                           ; SOURCE LINE # 270
0577         ?C0079:
                                           ; SOURCE LINE # 271
0577 900000  R     MOV     DPTR,#Results+01H
057A E0            MOVX    A,@DPTR
057B 2408          ADD     A,#08H
057D FF            MOV     R7,A
057E 900000  R     MOV     DPTR,#Results
0581 E0            MOVX    A,@DPTR
0582 3400          ADDC    A,#00H
0584 FE            MOV     R6,A
0585 120000  R     LCALL   _GetDWordMsb
0588 22            RET     
                                           ; SOURCE LINE # 272
0589         ?C0080:
                                           ; SOURCE LINE # 273
0589 900000  R     MOV     DPTR,#Results+01H
058C E0            MOVX    A,@DPTR
058D 2408          ADD     A,#08H
058F FF            MOV     R7,A
0590 900000  R     MOV     DPTR,#Results
0593 E0            MOVX    A,@DPTR
0594 3400          ADDC    A,#00H
0596 FE            MOV     R6,A
0597 120000  R     LCALL   _GetDWordLsb
059A 22            RET     
                                           ; SOURCE LINE # 274
059B         ?C0081:
                                           ; SOURCE LINE # 275
059B 900000  R     MOV     DPTR,#Results+01H
059E E0            MOVX    A,@DPTR
059F 240C          ADD     A,#0CH
05A1 FF            MOV     R7,A
05A2 900000  R     MOV     DPTR,#Results
05A5 E0            MOVX    A,@DPTR
05A6 3400          ADDC    A,#00H
05A8 FE            MOV     R6,A
05A9 120000  R     LCALL   _GetDWordMsb
05AC 22            RET     
                                           ; SOURCE LINE # 276
05AD         ?C0082:
                                           ; SOURCE LINE # 277
05AD 900000  R     MOV     DPTR,#Results+01H
05B0 E0            MOVX    A,@DPTR
05B1 240C          ADD     A,#0CH
05B3 FF            MOV     R7,A
05B4 900000  R     MOV     DPTR,#Results
05B7 E0            MOVX    A,@DPTR
05B8 3400          ADDC    A,#00H
05BA FE            MOV     R6,A
05BB 120000  R     LCALL   _GetDWordLsb
05BE 22            RET     
                                           ; SOURCE LINE # 278
05BF         ?C0083:
C51 COMPILER V5.50,  MBREG                                                                 15/05/10  14:40:41  PAGE 32  

                                           ; SOURCE LINE # 279
05BF 900000  R     MOV     DPTR,#Results
05C2 E0            MOVX    A,@DPTR
05C3 FE            MOV     R6,A
05C4 A3            INC     DPTR
05C5 E0            MOVX    A,@DPTR
05C6 2410          ADD     A,#010H
05C8 F582          MOV     DPL,A
05CA E4            CLR     A
05CB 3E            ADDC    A,R6
05CC F583          MOV     DPH,A
05CE E0            MOVX    A,@DPTR
05CF FE            MOV     R6,A
05D0 A3            INC     DPTR
05D1 E0            MOVX    A,@DPTR
05D2 FF            MOV     R7,A
05D3 22            RET     
                                           ; SOURCE LINE # 280
05D4         ?C0084:
                                           ; SOURCE LINE # 281
05D4 900000  R     MOV     DPTR,#Results+01H
05D7 E0            MOVX    A,@DPTR
05D8 2412          ADD     A,#012H
05DA FF            MOV     R7,A
05DB 900000  R     MOV     DPTR,#Results
05DE E0            MOVX    A,@DPTR
05DF 3400          ADDC    A,#00H
05E1 FE            MOV     R6,A
05E2 120000  R     LCALL   _GetDWordMsb
05E5 22            RET     
                                           ; SOURCE LINE # 282
05E6         ?C0085:
                                           ; SOURCE LINE # 283
05E6 900000  R     MOV     DPTR,#Results+01H
05E9 E0            MOVX    A,@DPTR
05EA 2412          ADD     A,#012H
05EC FF            MOV     R7,A
05ED 900000  R     MOV     DPTR,#Results
05F0 E0            MOVX    A,@DPTR
05F1 3400          ADDC    A,#00H
05F3 FE            MOV     R6,A
05F4 120000  R     LCALL   _GetDWordLsb
05F7 22            RET     
                                           ; SOURCE LINE # 284
05F8         ?C0086:
                                           ; SOURCE LINE # 285
05F8 900000  R     MOV     DPTR,#Results+01H
05FB E0            MOVX    A,@DPTR
05FC 2416          ADD     A,#016H
05FE FF            MOV     R7,A
05FF 900000  R     MOV     DPTR,#Results
0602 E0            MOVX    A,@DPTR
0603 3400          ADDC    A,#00H
0605 FE            MOV     R6,A
0606 120000  R     LCALL   _GetDWordMsb
0609 22            RET     
                                           ; SOURCE LINE # 286
060A         ?C0087:
                                           ; SOURCE LINE # 287
060A 900000  R     MOV     DPTR,#Results+01H
060D E0            MOVX    A,@DPTR
060E 2416          ADD     A,#016H
0610 FF            MOV     R7,A
0611 900000  R     MOV     DPTR,#Results
0614 E0            MOVX    A,@DPTR
0615 3400          ADDC    A,#00H
C51 COMPILER V5.50,  MBREG                                                                 15/05/10  14:40:41  PAGE 33  

0617 FE            MOV     R6,A
0618 120000  R     LCALL   _GetDWordLsb
061B 22            RET     
                                           ; SOURCE LINE # 288
061C         ?C0088:
                                           ; SOURCE LINE # 289
061C 900000  R     MOV     DPTR,#Results
061F E0            MOVX    A,@DPTR
0620 FE            MOV     R6,A
0621 A3            INC     DPTR
0622 E0            MOVX    A,@DPTR
0623 241A          ADD     A,#01AH
0625 F582          MOV     DPL,A
0627 E4            CLR     A
0628 3E            ADDC    A,R6
0629 F583          MOV     DPH,A
062B E0            MOVX    A,@DPTR
062C FE            MOV     R6,A
062D A3            INC     DPTR
062E E0            MOVX    A,@DPTR
062F FF            MOV     R7,A
0630 22            RET     
                                           ; SOURCE LINE # 290
0631         ?C0089:
                                           ; SOURCE LINE # 291
0631 900000  R     MOV     DPTR,#Results+01H
0634 E0            MOVX    A,@DPTR
0635 241C          ADD     A,#01CH
0637 FF            MOV     R7,A
0638 900000  R     MOV     DPTR,#Results
063B E0            MOVX    A,@DPTR
063C 3400          ADDC    A,#00H
063E FE            MOV     R6,A
063F 120000  R     LCALL   _GetDWordMsb
0642 22            RET     
                                           ; SOURCE LINE # 292
0643         ?C0090:
                                           ; SOURCE LINE # 293
0643 900000  R     MOV     DPTR,#Results+01H
0646 E0            MOVX    A,@DPTR
0647 241C          ADD     A,#01CH
0649 FF            MOV     R7,A
064A 900000  R     MOV     DPTR,#Results
064D E0            MOVX    A,@DPTR
064E 3400          ADDC    A,#00H
0650 FE            MOV     R6,A
0651 120000  R     LCALL   _GetDWordLsb
0654 22            RET     
                                           ; SOURCE LINE # 294
0655         ?C0091:
                                           ; SOURCE LINE # 295
0655 900000  R     MOV     DPTR,#Results+01H
0658 E0            MOVX    A,@DPTR
0659 2420          ADD     A,#020H
065B FF            MOV     R7,A
065C 900000  R     MOV     DPTR,#Results
065F E0            MOVX    A,@DPTR
0660 3400          ADDC    A,#00H
0662 FE            MOV     R6,A
0663 120000  R     LCALL   _GetDWordMsb
0666 22            RET     
                                           ; SOURCE LINE # 296
0667         ?C0092:
                                           ; SOURCE LINE # 297
0667 900000  R     MOV     DPTR,#Results+01H
066A E0            MOVX    A,@DPTR
C51 COMPILER V5.50,  MBREG                                                                 15/05/10  14:40:41  PAGE 34  

066B 2420          ADD     A,#020H
066D FF            MOV     R7,A
066E 900000  R     MOV     DPTR,#Results
0671 E0            MOVX    A,@DPTR
0672 3400          ADDC    A,#00H
0674 FE            MOV     R6,A
0675 120000  R     LCALL   _GetDWordLsb
0678 22            RET     
                                           ; SOURCE LINE # 298
0679         ?C0093:
                                           ; SOURCE LINE # 299
0679 900000  R     MOV     DPTR,#Results+01H
067C E0            MOVX    A,@DPTR
067D 2472          ADD     A,#072H
067F FF            MOV     R7,A
0680 900000  R     MOV     DPTR,#Results
0683 E0            MOVX    A,@DPTR
0684 3400          ADDC    A,#00H
0686 FE            MOV     R6,A
0687 120000  R     LCALL   _GetDWordMsb
068A 22            RET     
                                           ; SOURCE LINE # 300
068B         ?C0094:
                                           ; SOURCE LINE # 301
068B 900000  R     MOV     DPTR,#Results+01H
068E E0            MOVX    A,@DPTR
068F 2472          ADD     A,#072H
0691 FF            MOV     R7,A
0692 900000  R     MOV     DPTR,#Results
0695 E0            MOVX    A,@DPTR
0696 3400          ADDC    A,#00H
0698 FE            MOV     R6,A
0699 120000  R     LCALL   _GetDWordLsb
069C 22            RET     
                                           ; SOURCE LINE # 302
069D         ?C0095:
                                           ; SOURCE LINE # 303
069D 900000  R     MOV     DPTR,#Results+01H
06A0 E0            MOVX    A,@DPTR
06A1 2476          ADD     A,#076H
06A3 FF            MOV     R7,A
06A4 900000  R     MOV     DPTR,#Results
06A7 E0            MOVX    A,@DPTR
06A8 3400          ADDC    A,#00H
06AA FE            MOV     R6,A
06AB 120000  R     LCALL   _GetDWordMsb
06AE 22            RET     
                                           ; SOURCE LINE # 304
06AF         ?C0096:
                                           ; SOURCE LINE # 305
06AF 900000  R     MOV     DPTR,#Results+01H
06B2 E0            MOVX    A,@DPTR
06B3 2476          ADD     A,#076H
06B5 FF            MOV     R7,A
06B6 900000  R     MOV     DPTR,#Results
06B9 E0            MOVX    A,@DPTR
06BA 3400          ADDC    A,#00H
06BC FE            MOV     R6,A
06BD 120000  R     LCALL   _GetDWordLsb
06C0 22            RET     
                                           ; SOURCE LINE # 306
06C1         ?C0097:
                                           ; SOURCE LINE # 307
06C1 900000  R     MOV     DPTR,#Results
06C4 E0            MOVX    A,@DPTR
06C5 FE            MOV     R6,A
C51 COMPILER V5.50,  MBREG                                                                 15/05/10  14:40:41  PAGE 35  

06C6 A3            INC     DPTR
06C7 E0            MOVX    A,@DPTR
06C8 24C8          ADD     A,#0C8H
06CA F582          MOV     DPL,A
06CC E4            CLR     A
06CD 3E            ADDC    A,R6
06CE F583          MOV     DPH,A
06D0 E0            MOVX    A,@DPTR
06D1 FE            MOV     R6,A
06D2 A3            INC     DPTR
06D3 E0            MOVX    A,@DPTR
06D4 FF            MOV     R7,A
06D5 22            RET     
                                           ; SOURCE LINE # 308
06D6         ?C0098:
                                           ; SOURCE LINE # 309
06D6 900000  R     MOV     DPTR,#Results
06D9 E0            MOVX    A,@DPTR
06DA FE            MOV     R6,A
06DB A3            INC     DPTR
06DC E0            MOVX    A,@DPTR
06DD 24CA          ADD     A,#0CAH
06DF F582          MOV     DPL,A
06E1 E4            CLR     A
06E2 3E            ADDC    A,R6
06E3 F583          MOV     DPH,A
06E5 E0            MOVX    A,@DPTR
06E6 FE            MOV     R6,A
06E7 A3            INC     DPTR
06E8 E0            MOVX    A,@DPTR
06E9 FF            MOV     R7,A
06EA 22            RET     
                                           ; SOURCE LINE # 310
06EB         ?C0099:
                                           ; SOURCE LINE # 311
06EB 900000  R     MOV     DPTR,#Results
06EE E0            MOVX    A,@DPTR
06EF FE            MOV     R6,A
06F0 A3            INC     DPTR
06F1 E0            MOVX    A,@DPTR
06F2 24CC          ADD     A,#0CCH
06F4 F582          MOV     DPL,A
06F6 E4            CLR     A
06F7 3E            ADDC    A,R6
06F8 F583          MOV     DPH,A
06FA E0            MOVX    A,@DPTR
06FB FE            MOV     R6,A
06FC A3            INC     DPTR
06FD E0            MOVX    A,@DPTR
06FE FF            MOV     R7,A
06FF 22            RET     
                                           ; SOURCE LINE # 312
0700         ?C0100:
                                           ; SOURCE LINE # 313
0700 900000  R     MOV     DPTR,#Results
0703 E0            MOVX    A,@DPTR
0704 FE            MOV     R6,A
0705 A3            INC     DPTR
0706 E0            MOVX    A,@DPTR
0707 24CE          ADD     A,#0CEH
0709 F582          MOV     DPL,A
070B E4            CLR     A
070C 3E            ADDC    A,R6
070D F583          MOV     DPH,A
070F E0            MOVX    A,@DPTR
0710 FE            MOV     R6,A
C51 COMPILER V5.50,  MBREG                                                                 15/05/10  14:40:41  PAGE 36  

0711 A3            INC     DPTR
0712 E0            MOVX    A,@DPTR
0713 FF            MOV     R7,A
0714 22            RET     
                                           ; SOURCE LINE # 314
0715         ?C0101:
                                           ; SOURCE LINE # 315
0715 900000  R     MOV     DPTR,#Results
0718 E0            MOVX    A,@DPTR
0719 FE            MOV     R6,A
071A A3            INC     DPTR
071B E0            MOVX    A,@DPTR
071C 24D0          ADD     A,#0D0H
071E F582          MOV     DPL,A
0720 E4            CLR     A
0721 3E            ADDC    A,R6
0722 F583          MOV     DPH,A
0724 E0            MOVX    A,@DPTR
0725 FF            MOV     R7,A
0726 7E00          MOV     R6,#00H
0728 22            RET     
                                           ; SOURCE LINE # 316
0729         ?C0102:
                                           ; SOURCE LINE # 317
0729 900000  R     MOV     DPTR,#Results
072C E0            MOVX    A,@DPTR
072D FE            MOV     R6,A
072E A3            INC     DPTR
072F E0            MOVX    A,@DPTR
0730 24D1          ADD     A,#0D1H
0732 F582          MOV     DPL,A
0734 E4            CLR     A
0735 3E            ADDC    A,R6
0736 F583          MOV     DPH,A
0738 E0            MOVX    A,@DPTR
0739 FF            MOV     R7,A
073A 7E00          MOV     R6,#00H
073C 22            RET     
                                           ; SOURCE LINE # 318
073D         ?C0103:
                                           ; SOURCE LINE # 319
073D 900000  R     MOV     DPTR,#Results
0740 E0            MOVX    A,@DPTR
0741 FE            MOV     R6,A
0742 A3            INC     DPTR
0743 E0            MOVX    A,@DPTR
0744 24D2          ADD     A,#0D2H
0746 F582          MOV     DPL,A
0748 E4            CLR     A
0749 3E            ADDC    A,R6
074A F583          MOV     DPH,A
074C E0            MOVX    A,@DPTR
074D FF            MOV     R7,A
074E 7E00          MOV     R6,#00H
0750 22            RET     
                                           ; SOURCE LINE # 322
0751         ?C0104:
                                           ; SOURCE LINE # 323
0751 7E00    E     MOV     R6,#HIGH Calibration
0753 7F00    E     MOV     R7,#LOW Calibration
0755 120000  R     LCALL   _GetDWordMsb
0758 22            RET     
                                           ; SOURCE LINE # 324
0759         ?C0105:
                                           ; SOURCE LINE # 325
0759 7E00    E     MOV     R6,#HIGH Calibration
C51 COMPILER V5.50,  MBREG                                                                 15/05/10  14:40:41  PAGE 37  

075B 7F00    E     MOV     R7,#LOW Calibration
075D 120000  R     LCALL   _GetDWordLsb
0760 22            RET     
                                           ; SOURCE LINE # 326
0761         ?C0106:
                                           ; SOURCE LINE # 327
0761 7E00    E     MOV     R6,#HIGH Calibration+04H
0763 7F00    E     MOV     R7,#LOW Calibration+04H
0765 120000  R     LCALL   _GetDWordMsb
0768 22            RET     
                                           ; SOURCE LINE # 328
0769         ?C0107:
                                           ; SOURCE LINE # 329
0769 7E00    E     MOV     R6,#HIGH Calibration+04H
076B 7F00    E     MOV     R7,#LOW Calibration+04H
076D 120000  R     LCALL   _GetDWordLsb
0770 22            RET     
                                           ; SOURCE LINE # 330
0771         ?C0108:
                                           ; SOURCE LINE # 331
0771 7E00    E     MOV     R6,#HIGH Calibration+08H
0773 7F00    E     MOV     R7,#LOW Calibration+08H
0775 120000  R     LCALL   _GetDWordMsb
0778 22            RET     
                                           ; SOURCE LINE # 332
0779         ?C0109:
                                           ; SOURCE LINE # 333
0779 7E00    E     MOV     R6,#HIGH Calibration+08H
077B 7F00    E     MOV     R7,#LOW Calibration+08H
077D 120000  R     LCALL   _GetDWordLsb
0780 22            RET     
                                           ; SOURCE LINE # 334
0781         ?C0110:
                                           ; SOURCE LINE # 335
0781 900000  E     MOV     DPTR,#Calibration+0CH
0784 E0            MOVX    A,@DPTR
0785 FF            MOV     R7,A
0786 7E00          MOV     R6,#00H
0788 22            RET     
                                           ; SOURCE LINE # 337
0789         ?C0111:
                                           ; SOURCE LINE # 338
0789 7E00          MOV     R6,#00H
078B 7F00          MOV     R7,#00H
                                           ; SOURCE LINE # 339
                                           ; SOURCE LINE # 341
078D         ?C0003:
078D 22            RET     
             ; FUNCTION MBRegRead (END)

             ; FUNCTION MBRegWrite (BEGIN)
                                           ; SOURCE LINE # 347
                                           ; SOURCE LINE # 351
0000 900000  R     MOV     DPTR,#MbReg
0003 E0            MOVX    A,@DPTR
0004 FC            MOV     R4,A
0005 A3            INC     DPTR
0006 E0            MOVX    A,@DPTR
0007 FD            MOV     R5,A
0008 C3            CLR     C
0009 94F2          SUBB    A,#0F2H
000B EC            MOV     A,R4
000C 9403          SUBB    A,#03H
000E 403E          JC      ?C0112
0010 D3            SETB    C
0011 ED            MOV     A,R5
C51 COMPILER V5.50,  MBREG                                                                 15/05/10  14:40:41  PAGE 38  

0012 940F          SUBB    A,#0FH
0014 EC            MOV     A,R4
0015 9404          SUBB    A,#04H
0017 5035          JNC     ?C0112
                                           ; SOURCE LINE # 352
0019 A3            INC     DPTR
001A E0            MOVX    A,@DPTR
001B FA            MOV     R2,A
001C A3            INC     DPTR
001D E0            MOVX    A,@DPTR
001E FB            MOV     R3,A
001F C3            CLR     C
0020 EA            MOV     A,R2
0021 9400          SUBB    A,#00H
0023 4009          JC      ?C0114
0025 D3            SETB    C
0026 EB            MOV     A,R3
0027 94E7          SUBB    A,#0E7H
0029 EA            MOV     A,R2
002A 9403          SUBB    A,#03H
002C 4003          JC      ?C0113
002E         ?C0114:
002E 7F02          MOV     R7,#02H
0030 22            RET     
0031         ?C0113:
0031 ED            MOV     A,R5
0032 AE04          MOV     R6,AR4
0034 7802          MOV     R0,#02H
0036         ?C0324:
0036 C3            CLR     C
0037 33            RLC     A
0038 CE            XCH     A,R6
0039 33            RLC     A
003A CE            XCH     A,R6
003B D8F9          DJNZ    R0,?C0324
003D 2400    R     ADD     A,#LOW ModbusBuffer+0F045H
003F F582          MOV     DPL,A
0041 EE            MOV     A,R6
0042 3400    R     ADDC    A,#HIGH ModbusBuffer+0F045H
0044 F583          MOV     DPH,A
0046 EA            MOV     A,R2
0047 F0            MOVX    @DPTR,A
0048 A3            INC     DPTR
0049 EB            MOV     A,R3
004A F0            MOVX    @DPTR,A
004B 7F00          MOV     R7,#00H
004D 22            RET     
                                           ; SOURCE LINE # 353
004E         ?C0112:
                                           ; SOURCE LINE # 354
004E 900000  R     MOV     DPTR,#MbReg
0051 E0            MOVX    A,@DPTR
0052 FC            MOV     R4,A
0053 A3            INC     DPTR
0054 E0            MOVX    A,@DPTR
0055 FD            MOV     R5,A
0056 C3            CLR     C
0057 9410          SUBB    A,#010H
0059 EC            MOV     A,R4
005A 9404          SUBB    A,#04H
005C 4044          JC      ?C0116
005E D3            SETB    C
005F ED            MOV     A,R5
0060 942D          SUBB    A,#02DH
0062 EC            MOV     A,R4
0063 9404          SUBB    A,#04H
C51 COMPILER V5.50,  MBREG                                                                 15/05/10  14:40:41  PAGE 39  

0065 503B          JNC     ?C0116
                                           ; SOURCE LINE # 356
0067 A3            INC     DPTR
0068 E0            MOVX    A,@DPTR
0069 FA            MOV     R2,A
006A A3            INC     DPTR
006B E0            MOVX    A,@DPTR
006C FB            MOV     R3,A
006D C3            CLR     C
006E 941E          SUBB    A,#01EH
0070 EA            MOV     A,R2
0071 9400          SUBB    A,#00H
0073 4009          JC      ?C0118
0075 D3            SETB    C
0076 EB            MOV     A,R3
0077 94FF          SUBB    A,#0FFH
0079 EA            MOV     A,R2
007A 94FF          SUBB    A,#0FFH
007C 4007          JC      ?C0117
007E         ?C0118:
007E EB            MOV     A,R3
007F 4A            ORL     A,R2
0080 6003          JZ      ?C0117
                                           ; SOURCE LINE # 357
0082 7F02          MOV     R7,#02H
0084 22            RET     
                                           ; SOURCE LINE # 358
0085         ?C0117:
                                           ; SOURCE LINE # 359
0085 ED            MOV     A,R5
0086 AE04          MOV     R6,AR4
0088 7802          MOV     R0,#02H
008A         ?C0325:
008A C3            CLR     C
008B 33            RLC     A
008C CE            XCH     A,R6
008D 33            RLC     A
008E CE            XCH     A,R6
008F D8F9          DJNZ    R0,?C0325
0091 2400    R     ADD     A,#LOW ModbusBuffer+0EFCFH
0093 F582          MOV     DPL,A
0095 EE            MOV     A,R6
0096 3400    R     ADDC    A,#HIGH ModbusBuffer+0EFCFH
0098 F583          MOV     DPH,A
009A EA            MOV     A,R2
009B F0            MOVX    @DPTR,A
009C A3            INC     DPTR
009D EB            MOV     A,R3
009E F0            MOVX    @DPTR,A
                                           ; SOURCE LINE # 360
009F 7F00          MOV     R7,#00H
00A1 22            RET     
                                           ; SOURCE LINE # 361
00A2         ?C0116:
                                           ; SOURCE LINE # 362
00A2 900000  R     MOV     DPTR,#MbReg
00A5 E0            MOVX    A,@DPTR
00A6 FC            MOV     R4,A
00A7 A3            INC     DPTR
00A8 E0            MOVX    A,@DPTR
00A9 FD            MOV     R5,A
00AA C3            CLR     C
00AB 942E          SUBB    A,#02EH
00AD EC            MOV     A,R4
00AE 9404          SUBB    A,#04H
00B0 403E          JC      ?C0119
C51 COMPILER V5.50,  MBREG                                                                 15/05/10  14:40:41  PAGE 40  

00B2 D3            SETB    C
00B3 ED            MOV     A,R5
00B4 944B          SUBB    A,#04BH
00B6 EC            MOV     A,R4
00B7 9404          SUBB    A,#04H
00B9 5035          JNC     ?C0119
                                           ; SOURCE LINE # 363
00BB A3            INC     DPTR
00BC E0            MOVX    A,@DPTR
00BD FA            MOV     R2,A
00BE A3            INC     DPTR
00BF E0            MOVX    A,@DPTR
00C0 FB            MOV     R3,A
00C1 C3            CLR     C
00C2 EA            MOV     A,R2
00C3 9400          SUBB    A,#00H
00C5 4009          JC      ?C0121
00C7 D3            SETB    C
00C8 EB            MOV     A,R3
00C9 94E7          SUBB    A,#0E7H
00CB EA            MOV     A,R2
00CC 9403          SUBB    A,#03H
00CE 4003          JC      ?C0120
00D0         ?C0121:
00D0 7F02          MOV     R7,#02H
00D2 22            RET     
00D3         ?C0120:
00D3 ED            MOV     A,R5
00D4 AE04          MOV     R6,AR4
00D6 7802          MOV     R0,#02H
00D8         ?C0326:
00D8 C3            CLR     C
00D9 33            RLC     A
00DA CE            XCH     A,R6
00DB 33            RLC     A
00DC CE            XCH     A,R6
00DD D8F9          DJNZ    R0,?C0326
00DF 2400    R     ADD     A,#LOW ModbusBuffer+0EFCDH
00E1 F582          MOV     DPL,A
00E3 EE            MOV     A,R6
00E4 3400    R     ADDC    A,#HIGH ModbusBuffer+0EFCDH
00E6 F583          MOV     DPH,A
00E8 EA            MOV     A,R2
00E9 F0            MOVX    @DPTR,A
00EA A3            INC     DPTR
00EB EB            MOV     A,R3
00EC F0            MOVX    @DPTR,A
00ED 7F00          MOV     R7,#00H
00EF 22            RET     
                                           ; SOURCE LINE # 364
00F0         ?C0119:
                                           ; SOURCE LINE # 365
00F0 900000  R     MOV     DPTR,#MbReg
00F3 E0            MOVX    A,@DPTR
00F4 FC            MOV     R4,A
00F5 A3            INC     DPTR
00F6 E0            MOVX    A,@DPTR
00F7 FD            MOV     R5,A
00F8 C3            CLR     C
00F9 944C          SUBB    A,#04CH
00FB EC            MOV     A,R4
00FC 9404          SUBB    A,#04H
00FE 4044          JC      ?C0122
0100 D3            SETB    C
0101 ED            MOV     A,R5
0102 9469          SUBB    A,#069H
C51 COMPILER V5.50,  MBREG                                                                 15/05/10  14:40:41  PAGE 41  

0104 EC            MOV     A,R4
0105 9404          SUBB    A,#04H
0107 503B          JNC     ?C0122
                                           ; SOURCE LINE # 367
0109 A3            INC     DPTR
010A E0            MOVX    A,@DPTR
010B FA            MOV     R2,A
010C A3            INC     DPTR
010D E0            MOVX    A,@DPTR
010E FB            MOV     R3,A
010F C3            CLR     C
0110 941E          SUBB    A,#01EH
0112 EA            MOV     A,R2
0113 9400          SUBB    A,#00H
0115 4009          JC      ?C0124
0117 D3            SETB    C
0118 EB            MOV     A,R3
0119 94FF          SUBB    A,#0FFH
011B EA            MOV     A,R2
011C 94FF          SUBB    A,#0FFH
011E 4007          JC      ?C0123
0120         ?C0124:
0120 EB            MOV     A,R3
0121 4A            ORL     A,R2
0122 6003          JZ      ?C0123
                                           ; SOURCE LINE # 368
0124 7F02          MOV     R7,#02H
0126 22            RET     
                                           ; SOURCE LINE # 369
0127         ?C0123:
                                           ; SOURCE LINE # 370
0127 ED            MOV     A,R5
0128 AE04          MOV     R6,AR4
012A 7802          MOV     R0,#02H
012C         ?C0327:
012C C3            CLR     C
012D 33            RLC     A
012E CE            XCH     A,R6
012F 33            RLC     A
0130 CE            XCH     A,R6
0131 D8F9          DJNZ    R0,?C0327
0133 2400    R     ADD     A,#LOW ModbusBuffer+0EF57H
0135 F582          MOV     DPL,A
0137 EE            MOV     A,R6
0138 3400    R     ADDC    A,#HIGH ModbusBuffer+0EF57H
013A F583          MOV     DPH,A
013C EA            MOV     A,R2
013D F0            MOVX    @DPTR,A
013E A3            INC     DPTR
013F EB            MOV     A,R3
0140 F0            MOVX    @DPTR,A
                                           ; SOURCE LINE # 371
0141 7F00          MOV     R7,#00H
0143 22            RET     
                                           ; SOURCE LINE # 372
0144         ?C0122:
                                           ; SOURCE LINE # 375
0144 900000  R     MOV     DPTR,#MbReg
0147 E0            MOVX    A,@DPTR
0148 FE            MOV     R6,A
0149 A3            INC     DPTR
014A E0            MOVX    A,@DPTR
014B 8EF0          MOV     B,R6
014D 120000  E     LCALL   ?C?ICASE
0150 0000    R     DW      ?C0148
0152 0020          DW      020H
C51 COMPILER V5.50,  MBREG                                                                 15/05/10  14:40:41  PAGE 42  

0154 0000    R     DW      ?C0153
0156 0021          DW      021H
0158 0000    R     DW      ?C0129
015A 0022          DW      022H
015C 0000    R     DW      ?C0129
015E 0023          DW      023H
0160 0000    R     DW      ?C0129
0162 0024          DW      024H
0164 0000    R     DW      ?C0129
0166 0025          DW      025H
0168 0000    R     DW      ?C0130
016A 0026          DW      026H
016C 0000    R     DW      ?C0133
016E 0027          DW      027H
0170 0000    R     DW      ?C0136
0172 0028          DW      028H
0174 0000    R     DW      ?C0139
0176 0029          DW      029H
0178 0000    R     DW      ?C0142
017A 002A          DW      02AH
017C 0000    R     DW      ?C0145
017E 002B          DW      02BH
0180 0000    R     DW      ?C0158
0182 002C          DW      02CH
0184 0000    R     DW      ?C0161
0186 002D          DW      02DH
0188 0000    R     DW      ?C0166
018A 002E          DW      02EH
018C 0000    R     DW      ?C0169
018E 002F          DW      02FH
0190 0000    R     DW      ?C0173
0192 0030          DW      030H
0194 0000    R     DW      ?C0176
0196 01F4          DW      01F4H
0198 0000    R     DW      ?C0177
019A 03E9          DW      03E9H
019C 0000    R     DW      ?C0183
019E 03EA          DW      03EAH
01A0 0000    R     DW      ?C0183
01A2 03EB          DW      03EBH
01A4 0000    R     DW      ?C0183
01A6 03EC          DW      03ECH
01A8 0000    R     DW      ?C0183
01AA 03ED          DW      03EDH
01AC 0000    R     DW      ?C0186
01AE 03EE          DW      03EEH
01B0 0000    R     DW      ?C0189
01B2 03EF          DW      03EFH
01B4 0000    R     DW      ?C0192
01B6 03F0          DW      03F0H
01B8 0000    R     DW      ?C0196
01BA 03F1          DW      03F1H
01BC 0000    R     DW      ?C0200
01BE 05DC          DW      05DCH
01C0 0000    R     DW      ?C0203
01C2 05DD          DW      05DDH
01C4 0000    R     DW      ?C0208
01C6 05DE          DW      05DEH
01C8 0000    R     DW      ?C0212
01CA 07D1          DW      07D1H
01CC 0000    R     DW      ?C0215
01CE 07D2          DW      07D2H
01D0 0000    R     DW      ?C0218
01D2 07D3          DW      07D3H
01D4 0000    R     DW      ?C0221
01D6 07D4          DW      07D4H
C51 COMPILER V5.50,  MBREG                                                                 15/05/10  14:40:41  PAGE 43  

01D8 0000    R     DW      ?C0224
01DA 07D5          DW      07D5H
01DC 0000    R     DW      ?C0227
01DE 09C4          DW      09C4H
01E0 0000    R     DW      ?C0228
01E2 0BB9          DW      0BB9H
01E4 0000    R     DW      ?C0231
01E6 0BBA          DW      0BBAH
01E8 0000    R     DW      ?C0234
01EA 0BBB          DW      0BBBH
01EC 0000    R     DW      ?C0238
01EE 0BBC          DW      0BBCH
01F0 0000    R     DW      ?C0241
01F2 0BBD          DW      0BBDH
01F4 0000    R     DW      ?C0244
01F6 0BBE          DW      0BBEH
01F8 0000    R     DW      ?C0247
01FA 0BBF          DW      0BBFH
01FC 0000    R     DW      ?C0250
01FE 0BC0          DW      0BC0H
0200 0000    R     DW      ?C0255
0202 0BC1          DW      0BC1H
0204 0000    R     DW      ?C0258
0206 0BC2          DW      0BC2H
0208 0000    R     DW      ?C0261
020A 0BC3          DW      0BC3H
020C 0000    R     DW      ?C0264
020E 0BC4          DW      0BC4H
0210 0000    R     DW      ?C0267
0212 0BC5          DW      0BC5H
0214 0000    R     DW      ?C0270
0216 0DAC          DW      0DACH
0218 0000    R     DW      ?C0294
021A 0DAD          DW      0DADH
021C 0000    R     DW      ?C0299
021E 0DAE          DW      0DAEH
0220 0000    R     DW      ?C0301
0222 1194          DW      01194H
0224 0000    R     DW      ?C0302
0226 1195          DW      01195H
0228 0000    R     DW      ?C0305
022A 1196          DW      01196H
022C 0000          DW      00H
022E 0000    R     DW      ?C0309
                                           ; SOURCE LINE # 380
                                           ; SOURCE LINE # 381
                                           ; SOURCE LINE # 382
                                           ; SOURCE LINE # 383
0230         ?C0129:
                                           ; SOURCE LINE # 384
0230 120000  R     LCALL   WriteMargin
0233 22            RET     
                                           ; SOURCE LINE # 386
0234         ?C0130:
                                           ; SOURCE LINE # 387
0234 900000  R     MOV     DPTR,#MbReg+02H
0237 E0            MOVX    A,@DPTR
0238 FE            MOV     R6,A
0239 A3            INC     DPTR
023A E0            MOVX    A,@DPTR
023B FF            MOV     R7,A
023C C3            CLR     C
023D 9401          SUBB    A,#01H
023F EE            MOV     A,R6
0240 9400          SUBB    A,#00H
0242 4009          JC      ?C0132
C51 COMPILER V5.50,  MBREG                                                                 15/05/10  14:40:41  PAGE 44  

0244 D3            SETB    C
0245 EF            MOV     A,R7
0246 9428          SUBB    A,#028H
0248 EE            MOV     A,R6
0249 9400          SUBB    A,#00H
024B 4003          JC      ?C0131
024D         ?C0132:
                                           ; SOURCE LINE # 388
024D 7F02          MOV     R7,#02H
024F 22            RET     
                                           ; SOURCE LINE # 389
0250         ?C0131:
                                           ; SOURCE LINE # 390
0250 900000  R     MOV     DPTR,#MbReg+03H
0253 E0            MOVX    A,@DPTR
0254 900000  E     MOV     DPTR,#Config+013H
0257 F0            MOVX    @DPTR,A
                                           ; SOURCE LINE # 391
0258 120000  E     LCALL   FlockReadWeighingParameters
                                           ; SOURCE LINE # 392
025B 7F00          MOV     R7,#00H
025D 22            RET     
                                           ; SOURCE LINE # 394
025E         ?C0133:
                                           ; SOURCE LINE # 395
025E 900000  R     MOV     DPTR,#MbReg+02H
0261 E0            MOVX    A,@DPTR
0262 FE            MOV     R6,A
0263 A3            INC     DPTR
0264 E0            MOVX    A,@DPTR
0265 FF            MOV     R7,A
0266 C3            CLR     C
0267 EE            MOV     A,R6
0268 9400          SUBB    A,#00H
026A 4009          JC      ?C0135
026C D3            SETB    C
026D EF            MOV     A,R7
026E 94FA          SUBB    A,#0FAH
0270 EE            MOV     A,R6
0271 9400          SUBB    A,#00H
0273 4003          JC      ?C0134
0275         ?C0135:
                                           ; SOURCE LINE # 396
0275 7F02          MOV     R7,#02H
0277 22            RET     
                                           ; SOURCE LINE # 397
0278         ?C0134:
                                           ; SOURCE LINE # 398
0278 900000  R     MOV     DPTR,#MbReg+03H
027B E0            MOVX    A,@DPTR
027C 900000  E     MOV     DPTR,#Config+014H
027F F0            MOVX    @DPTR,A
                                           ; SOURCE LINE # 399
0280 120000  E     LCALL   FlockReadWeighingParameters
                                           ; SOURCE LINE # 400
0283 7F00          MOV     R7,#00H
0285 22            RET     
                                           ; SOURCE LINE # 402
0286         ?C0136:
                                           ; SOURCE LINE # 403
0286 900000  R     MOV     DPTR,#MbReg+02H
0289 E0            MOVX    A,@DPTR
028A FE            MOV     R6,A
028B A3            INC     DPTR
028C E0            MOVX    A,@DPTR
028D FF            MOV     R7,A
C51 COMPILER V5.50,  MBREG                                                                 15/05/10  14:40:41  PAGE 45  

028E C3            CLR     C
028F 9402          SUBB    A,#02H
0291 EE            MOV     A,R6
0292 9400          SUBB    A,#00H
0294 4009          JC      ?C0138
0296 D3            SETB    C
0297 EF            MOV     A,R7
0298 9409          SUBB    A,#09H
029A EE            MOV     A,R6
029B 9400          SUBB    A,#00H
029D 4003          JC      ?C0137
029F         ?C0138:
                                           ; SOURCE LINE # 404
029F 7F02          MOV     R7,#02H
02A1 22            RET     
                                           ; SOURCE LINE # 405
02A2         ?C0137:
                                           ; SOURCE LINE # 406
02A2 900000  R     MOV     DPTR,#MbReg+03H
02A5 E0            MOVX    A,@DPTR
02A6 900000  E     MOV     DPTR,#Config+015H
02A9 F0            MOVX    @DPTR,A
                                           ; SOURCE LINE # 407
02AA 120000  E     LCALL   FlockReadWeighingParameters
                                           ; SOURCE LINE # 408
02AD 120000  E     LCALL   ScaleInitAverage
                                           ; SOURCE LINE # 409
02B0 7F00          MOV     R7,#00H
02B2 22            RET     
                                           ; SOURCE LINE # 411
02B3         ?C0139:
                                           ; SOURCE LINE # 412
02B3 900000  R     MOV     DPTR,#MbReg+02H
02B6 E0            MOVX    A,@DPTR
02B7 FE            MOV     R6,A
02B8 A3            INC     DPTR
02B9 E0            MOVX    A,@DPTR
02BA FF            MOV     R7,A
02BB C3            CLR     C
02BC EE            MOV     A,R6
02BD 9400          SUBB    A,#00H
02BF 4009          JC      ?C0141
02C1 D3            SETB    C
02C2 EF            MOV     A,R7
02C3 9401          SUBB    A,#01H
02C5 EE            MOV     A,R6
02C6 9400          SUBB    A,#00H
02C8 4003          JC      ?C0140
02CA         ?C0141:
02CA 7F02          MOV     R7,#02H
02CC 22            RET     
02CD         ?C0140:
02CD 900000  R     MOV     DPTR,#MbReg+03H
02D0 E0            MOVX    A,@DPTR
02D1 900000  E     MOV     DPTR,#Config+016H
02D4 F0            MOVX    @DPTR,A
02D5 7F00          MOV     R7,#00H
02D7 22            RET     
                                           ; SOURCE LINE # 414
02D8         ?C0142:
                                           ; SOURCE LINE # 415
02D8 900000  R     MOV     DPTR,#MbReg+02H
02DB E0            MOVX    A,@DPTR
02DC FE            MOV     R6,A
02DD A3            INC     DPTR
02DE E0            MOVX    A,@DPTR
C51 COMPILER V5.50,  MBREG                                                                 15/05/10  14:40:41  PAGE 46  

02DF FF            MOV     R7,A
02E0 C3            CLR     C
02E1 EE            MOV     A,R6
02E2 9400          SUBB    A,#00H
02E4 4009          JC      ?C0144
02E6 D3            SETB    C
02E7 EF            MOV     A,R7
02E8 9402          SUBB    A,#02H
02EA EE            MOV     A,R6
02EB 9400          SUBB    A,#00H
02ED 4003          JC      ?C0143
02EF         ?C0144:
02EF 7F02          MOV     R7,#02H
02F1 22            RET     
02F2         ?C0143:
02F2 900000  R     MOV     DPTR,#MbReg+03H
02F5 E0            MOVX    A,@DPTR
02F6 900000  E     MOV     DPTR,#Config+017H
02F9 F0            MOVX    @DPTR,A
02FA 7F00          MOV     R7,#00H
02FC 22            RET     
                                           ; SOURCE LINE # 417
02FD         ?C0145:
                                           ; SOURCE LINE # 418
02FD 900000  R     MOV     DPTR,#MbReg+02H
0300 E0            MOVX    A,@DPTR
0301 FE            MOV     R6,A
0302 A3            INC     DPTR
0303 E0            MOVX    A,@DPTR
0304 FF            MOV     R7,A
0305 C3            CLR     C
0306 EE            MOV     A,R6
0307 9400          SUBB    A,#00H
0309 4009          JC      ?C0147
030B D3            SETB    C
030C EF            MOV     A,R7
030D 9401          SUBB    A,#01H
030F EE            MOV     A,R6
0310 9400          SUBB    A,#00H
0312 4003          JC      ?C0146
0314         ?C0147:
0314 7F02          MOV     R7,#02H
0316 22            RET     
0317         ?C0146:
0317 900000  R     MOV     DPTR,#MbReg+03H
031A E0            MOVX    A,@DPTR
031B 900000  E     MOV     DPTR,#Config+018H
031E F0            MOVX    @DPTR,A
031F 7F00          MOV     R7,#00H
0321 22            RET     
                                           ; SOURCE LINE # 420
0322         ?C0148:
                                           ; SOURCE LINE # 421
0322 900000  E     MOV     DPTR,#Config+01CH
0325 E0            MOVX    A,@DPTR
0326 7006          JNZ     ?C0150
0328 900000  E     MOV     DPTR,#Config+01BH
032B E0            MOVX    A,@DPTR
032C 6003          JZ      ?C0149
032E         ?C0150:
                                           ; SOURCE LINE # 422
032E 7F02          MOV     R7,#02H
0330 22            RET     
                                           ; SOURCE LINE # 423
0331         ?C0149:
                                           ; SOURCE LINE # 424
C51 COMPILER V5.50,  MBREG                                                                 15/05/10  14:40:41  PAGE 47  

0331 900000  R     MOV     DPTR,#MbReg+02H
0334 E0            MOVX    A,@DPTR
0335 FE            MOV     R6,A
0336 A3            INC     DPTR
0337 E0            MOVX    A,@DPTR
0338 FF            MOV     R7,A
0339 C3            CLR     C
033A 940A          SUBB    A,#0AH
033C EE            MOV     A,R6
033D 9400          SUBB    A,#00H
033F 4009          JC      ?C0152
0341 D3            SETB    C
0342 EF            MOV     A,R7
0343 9464          SUBB    A,#064H
0345 EE            MOV     A,R6
0346 9400          SUBB    A,#00H
0348 4003          JC      ?C0151
034A         ?C0152:
034A 7F02          MOV     R7,#02H
034C 22            RET     
034D         ?C0151:
034D 900000  R     MOV     DPTR,#MbReg+03H
0350 E0            MOVX    A,@DPTR
0351 900000  E     MOV     DPTR,#Config+019H
0354 F0            MOVX    @DPTR,A
0355 7F00          MOV     R7,#00H
0357 22            RET     
                                           ; SOURCE LINE # 426
0358         ?C0153:
                                           ; SOURCE LINE # 427
0358 900000  E     MOV     DPTR,#Config+01CH
035B E0            MOVX    A,@DPTR
035C 7006          JNZ     ?C0155
035E 900000  E     MOV     DPTR,#Config+01BH
0361 E0            MOVX    A,@DPTR
0362 6003          JZ      ?C0154
0364         ?C0155:
                                           ; SOURCE LINE # 428
0364 7F02          MOV     R7,#02H
0366 22            RET     
                                           ; SOURCE LINE # 429
0367         ?C0154:
                                           ; SOURCE LINE # 430
0367 900000  R     MOV     DPTR,#MbReg+02H
036A E0            MOVX    A,@DPTR
036B FE            MOV     R6,A
036C A3            INC     DPTR
036D E0            MOVX    A,@DPTR
036E FF            MOV     R7,A
036F C3            CLR     C
0370 9401          SUBB    A,#01H
0372 EE            MOV     A,R6
0373 9400          SUBB    A,#00H
0375 4009          JC      ?C0157
0377 D3            SETB    C
0378 EF            MOV     A,R7
0379 9431          SUBB    A,#031H
037B EE            MOV     A,R6
037C 9400          SUBB    A,#00H
037E 4003          JC      ?C0156
0380         ?C0157:
0380 7F02          MOV     R7,#02H
0382 22            RET     
0383         ?C0156:
0383 900000  R     MOV     DPTR,#MbReg+03H
0386 E0            MOVX    A,@DPTR
C51 COMPILER V5.50,  MBREG                                                                 15/05/10  14:40:41  PAGE 48  

0387 900000  E     MOV     DPTR,#Config+01AH
038A F0            MOVX    @DPTR,A
038B 7F00          MOV     R7,#00H
038D 22            RET     
                                           ; SOURCE LINE # 432
038E         ?C0158:
                                           ; SOURCE LINE # 433
038E 900000  R     MOV     DPTR,#MbReg+02H
0391 E0            MOVX    A,@DPTR
0392 FE            MOV     R6,A
0393 A3            INC     DPTR
0394 E0            MOVX    A,@DPTR
0395 FF            MOV     R7,A
0396 C3            CLR     C
0397 EE            MOV     A,R6
0398 9400          SUBB    A,#00H
039A 4009          JC      ?C0160
039C D3            SETB    C
039D EF            MOV     A,R7
039E 9402          SUBB    A,#02H
03A0 EE            MOV     A,R6
03A1 9400          SUBB    A,#00H
03A3 4003          JC      ?C0159
03A5         ?C0160:
03A5 7F02          MOV     R7,#02H
03A7 22            RET     
03A8         ?C0159:
03A8 900000  R     MOV     DPTR,#MbReg+03H
03AB E0            MOVX    A,@DPTR
03AC 900000  E     MOV     DPTR,#Config+084H
03AF F0            MOVX    @DPTR,A
03B0 7F00          MOV     R7,#00H
03B2 22            RET     
                                           ; SOURCE LINE # 435
03B3         ?C0161:
                                           ; SOURCE LINE # 436
03B3 900000  R     MOV     DPTR,#MbReg+02H
03B6 E0            MOVX    A,@DPTR
03B7 FE            MOV     R6,A
03B8 A3            INC     DPTR
03B9 E0            MOVX    A,@DPTR
03BA FF            MOV     R7,A
03BB F4            CPL     A
03BC 4E            ORL     A,R6
03BD 6031          JZ      ?C0162
                                           ; SOURCE LINE # 438
03BF C3            CLR     C
03C0 EF            MOV     A,R7
03C1 940A          SUBB    A,#0AH
03C3 EE            MOV     A,R6
03C4 9400          SUBB    A,#00H
03C6 4003          JC      ?C0163
                                           ; SOURCE LINE # 439
03C8 7F02          MOV     R7,#02H
03CA 22            RET     
                                           ; SOURCE LINE # 440
03CB         ?C0163:
                                           ; SOURCE LINE # 441
03CB 900000  R     MOV     DPTR,#MbReg+03H
03CE E0            MOVX    A,@DPTR
03CF FF            MOV     R7,A
03D0 120000  E     LCALL   _FlockReadFlockNumber
03D3 900000  R     MOV     DPTR,#MbReg+02H
03D6 E0            MOVX    A,@DPTR
03D7 FC            MOV     R4,A
03D8 A3            INC     DPTR
C51 COMPILER V5.50,  MBREG                                                                 15/05/10  14:40:41  PAGE 49  

03D9 E0            MOVX    A,@DPTR
03DA 6F            XRL     A,R7
03DB 7001          JNZ     ?C0328
03DD EC            MOV     A,R4
03DE         ?C0328:
03DE 6003          JZ      ?C0164
                                           ; SOURCE LINE # 442
03E0 7F02          MOV     R7,#02H
03E2 22            RET     
                                           ; SOURCE LINE # 443
03E3         ?C0164:
                                           ; SOURCE LINE # 444
03E3 900000  R     MOV     DPTR,#MbReg+03H
03E6 E0            MOVX    A,@DPTR
03E7 FF            MOV     R7,A
03E8 120000  E     LCALL   _FlockContainsCurve
03EB 4003          JC      ?C0162
                                           ; SOURCE LINE # 446
03ED 7F02          MOV     R7,#02H
03EF 22            RET     
                                           ; SOURCE LINE # 447
                                           ; SOURCE LINE # 448
03F0         ?C0162:
                                           ; SOURCE LINE # 449
03F0 900000  R     MOV     DPTR,#MbReg+03H
03F3 E0            MOVX    A,@DPTR
03F4 900000  E     MOV     DPTR,#Config+08FH
03F7 F0            MOVX    @DPTR,A
                                           ; SOURCE LINE # 450
03F8 120000  E     LCALL   FlockReadWeighingParameters
                                           ; SOURCE LINE # 451
03FB 7F00          MOV     R7,#00H
03FD 22            RET     
                                           ; SOURCE LINE # 453
03FE         ?C0166:
                                           ; SOURCE LINE # 454
03FE 900000  R     MOV     DPTR,#MbReg+02H
0401 E0            MOVX    A,@DPTR
0402 FC            MOV     R4,A
0403 A3            INC     DPTR
0404 E0            MOVX    A,@DPTR
0405 FD            MOV     R5,A
0406 C3            CLR     C
0407 EC            MOV     A,R4
0408 9400          SUBB    A,#00H
040A 4009          JC      ?C0168
040C D3            SETB    C
040D ED            MOV     A,R5
040E 94E7          SUBB    A,#0E7H
0410 EC            MOV     A,R4
0411 9403          SUBB    A,#03H
0413 4003          JC      ?C0167
0415         ?C0168:
0415 7F02          MOV     R7,#02H
0417 22            RET     
0418         ?C0167:
0418 900000  E     MOV     DPTR,#Config+090H
041B EC            MOV     A,R4
041C F0            MOVX    @DPTR,A
041D A3            INC     DPTR
041E ED            MOV     A,R5
041F F0            MOVX    @DPTR,A
0420 7F00          MOV     R7,#00H
0422 22            RET     
                                           ; SOURCE LINE # 456
0423         ?C0169:
C51 COMPILER V5.50,  MBREG                                                                 15/05/10  14:40:41  PAGE 50  

                                           ; SOURCE LINE # 457
0423 900000  R     MOV     DPTR,#MbReg+02H
0426 E0            MOVX    A,@DPTR
0427 FC            MOV     R4,A
0428 A3            INC     DPTR
0429 E0            MOVX    A,@DPTR
042A FD            MOV     R5,A
042B 4C            ORL     A,R4
042C 7012          JNZ     ?C0170
042E 900000  E     MOV     DPTR,#Config+090H
0431 E0            MOVX    A,@DPTR
0432 7002          JNZ     ?C0329
0434 A3            INC     DPTR
0435 E0            MOVX    A,@DPTR
0436         ?C0329:
0436 7008          JNZ     ?C0170
                                           ; SOURCE LINE # 459
0438 900000  E     MOV     DPTR,#Config+092H
043B F0            MOVX    @DPTR,A
043C A3            INC     DPTR
043D F0            MOVX    @DPTR,A
                                           ; SOURCE LINE # 460
043E FF            MOV     R7,A
043F 22            RET     
                                           ; SOURCE LINE # 461
0440         ?C0170:
                                           ; SOURCE LINE # 463
0440 900000  E     MOV     DPTR,#Config+091H
0443 E0            MOVX    A,@DPTR
0444 2401          ADD     A,#01H
0446 FF            MOV     R7,A
0447 900000  E     MOV     DPTR,#Config+090H
044A E0            MOVX    A,@DPTR
044B 3400          ADDC    A,#00H
044D FE            MOV     R6,A
044E C3            CLR     C
044F ED            MOV     A,R5
0450 9F            SUBB    A,R7
0451 EC            MOV     A,R4
0452 9E            SUBB    A,R6
0453 4009          JC      ?C0172
0455 D3            SETB    C
0456 ED            MOV     A,R5
0457 94E7          SUBB    A,#0E7H
0459 EC            MOV     A,R4
045A 9403          SUBB    A,#03H
045C 4003          JC      ?C0171
045E         ?C0172:
045E 7F02          MOV     R7,#02H
0460 22            RET     
0461         ?C0171:
0461 900000  R     MOV     DPTR,#MbReg+02H
0464 E0            MOVX    A,@DPTR
0465 FF            MOV     R7,A
0466 A3            INC     DPTR
0467 E0            MOVX    A,@DPTR
0468 900000  E     MOV     DPTR,#Config+092H
046B CF            XCH     A,R7
046C F0            MOVX    @DPTR,A
046D A3            INC     DPTR
046E EF            MOV     A,R7
046F F0            MOVX    @DPTR,A
0470 7F00          MOV     R7,#00H
0472 22            RET     
                                           ; SOURCE LINE # 465
0473         ?C0173:
C51 COMPILER V5.50,  MBREG                                                                 15/05/10  14:40:41  PAGE 51  

                                           ; SOURCE LINE # 466
0473 900000  R     MOV     DPTR,#MbReg+02H
0476 E0            MOVX    A,@DPTR
0477 FE            MOV     R6,A
0478 A3            INC     DPTR
0479 E0            MOVX    A,@DPTR
047A FF            MOV     R7,A
047B C3            CLR     C
047C EE            MOV     A,R6
047D 9400          SUBB    A,#00H
047F 4009          JC      ?C0175
0481 D3            SETB    C
0482 EF            MOV     A,R7
0483 94FF          SUBB    A,#0FFH
0485 EE            MOV     A,R6
0486 9400          SUBB    A,#00H
0488 4003          JC      ?C0174
048A         ?C0175:
048A 7F02          MOV     R7,#02H
048C 22            RET     
048D         ?C0174:
048D 900000  R     MOV     DPTR,#MbReg+03H
0490 E0            MOVX    A,@DPTR
0491 900000  E     MOV     DPTR,#Config+094H
0494 F0            MOVX    @DPTR,A
0495 7F00          MOV     R7,#00H
0497 22            RET     
                                           ; SOURCE LINE # 468
0498         ?C0176:
                                           ; SOURCE LINE # 469
0498 7FFF          MOV     R7,#0FFH
049A 7EFF          MOV     R6,#0FFH
049C 7DFF          MOV     R5,#0FFH
049E 7CFF          MOV     R4,#0FFH
04A0 120000  E     LCALL   _CfgSave
                                           ; SOURCE LINE # 470
04A3 7F00          MOV     R7,#00H
04A5 22            RET     
                                           ; SOURCE LINE # 474
04A6         ?C0177:
                                           ; SOURCE LINE # 475
04A6 900000  R     MOV     DPTR,#MbReg+02H
04A9 E0            MOVX    A,@DPTR
04AA FE            MOV     R6,A
04AB A3            INC     DPTR
04AC E0            MOVX    A,@DPTR
04AD FF            MOV     R7,A
04AE C3            CLR     C
04AF EE            MOV     A,R6
04B0 9400          SUBB    A,#00H
04B2 4009          JC      ?C0179
04B4 D3            SETB    C
04B5 EF            MOV     A,R7
04B6 9409          SUBB    A,#09H
04B8 EE            MOV     A,R6
04B9 9400          SUBB    A,#00H
04BB 4003          JC      ?C0178
04BD         ?C0179:
04BD 7F02          MOV     R7,#02H
04BF 22            RET     
04C0         ?C0178:
04C0 900000  R     MOV     DPTR,#MbReg+03H
04C3 E0            MOVX    A,@DPTR
04C4 900000  R     MOV     DPTR,#ModbusBuffer
04C7 F0            MOVX    @DPTR,A
04C8 7F00          MOV     R7,#00H
C51 COMPILER V5.50,  MBREG                                                                 15/05/10  14:40:41  PAGE 52  

04CA 22            RET     
                                           ; SOURCE LINE # 476
                                           ; SOURCE LINE # 477
                                           ; SOURCE LINE # 478
                                           ; SOURCE LINE # 479
04CB         ?C0183:
                                           ; SOURCE LINE # 480
04CB 900000  R     MOV     DPTR,#MbReg+02H
04CE E0            MOVX    A,@DPTR
04CF FF            MOV     R7,A
04D0 120000  R     LCALL   _CheckLetter
04D3 500A          JNC     ?C0185
04D5 900000  R     MOV     DPTR,#MbReg+03H
04D8 E0            MOVX    A,@DPTR
04D9 FF            MOV     R7,A
04DA 120000  R     LCALL   _CheckLetter
04DD 4003          JC      ?C0184
04DF         ?C0185:
                                           ; SOURCE LINE # 481
04DF 7F02          MOV     R7,#02H
04E1 22            RET     
                                           ; SOURCE LINE # 482
04E2         ?C0184:
                                           ; SOURCE LINE # 483
04E2 900000  R     MOV     DPTR,#MbReg+02H
04E5 E0            MOVX    A,@DPTR
04E6 FD            MOV     R5,A
04E7 900000  R     MOV     DPTR,#MbReg+01H
04EA E0            MOVX    A,@DPTR
04EB 25E0          ADD     A,ACC
04ED FF            MOV     R7,A
04EE 900000  R     MOV     DPTR,#MbReg
04F1 E0            MOVX    A,@DPTR
04F2 33            RLC     A
04F3 FE            MOV     R6,A
04F4 7400    R     MOV     A,#LOW ModbusBuffer+0F82DH
04F6 2F            ADD     A,R7
04F7 F582          MOV     DPL,A
04F9 EE            MOV     A,R6
04FA 3400    R     ADDC    A,#HIGH ModbusBuffer+0F82DH
04FC F583          MOV     DPH,A
04FE ED            MOV     A,R5
04FF F0            MOVX    @DPTR,A
0500 900000  R     MOV     DPTR,#MbReg+03H
0503 E0            MOVX    A,@DPTR
0504 FD            MOV     R5,A
0505 7400    R     MOV     A,#LOW ModbusBuffer+0F82EH
0507 2F            ADD     A,R7
0508 F582          MOV     DPL,A
050A EE            MOV     A,R6
050B 3400    R     ADDC    A,#HIGH ModbusBuffer+0F82EH
050D F583          MOV     DPH,A
050F ED            MOV     A,R5
0510 F0            MOVX    @DPTR,A
                                           ; SOURCE LINE # 485
0511 7F00          MOV     R7,#00H
0513 22            RET     
                                           ; SOURCE LINE # 487
0514         ?C0186:
                                           ; SOURCE LINE # 488
0514 900000  R     MOV     DPTR,#MbReg+02H
0517 E0            MOVX    A,@DPTR
0518 FE            MOV     R6,A
0519 A3            INC     DPTR
051A E0            MOVX    A,@DPTR
051B FF            MOV     R7,A
C51 COMPILER V5.50,  MBREG                                                                 15/05/10  14:40:41  PAGE 53  

051C C3            CLR     C
051D EE            MOV     A,R6
051E 9400          SUBB    A,#00H
0520 4009          JC      ?C0188
0522 D3            SETB    C
0523 EF            MOV     A,R7
0524 9401          SUBB    A,#01H
0526 EE            MOV     A,R6
0527 9400          SUBB    A,#00H
0529 4003          JC      ?C0187
052B         ?C0188:
052B 7F02          MOV     R7,#02H
052D 22            RET     
052E         ?C0187:
052E 900000  R     MOV     DPTR,#MbReg+03H
0531 E0            MOVX    A,@DPTR
0532 900000  R     MOV     DPTR,#ModbusBuffer+09H
0535 F0            MOVX    @DPTR,A
0536 7F00          MOV     R7,#00H
0538 22            RET     
                                           ; SOURCE LINE # 489
0539         ?C0189:
                                           ; SOURCE LINE # 490
0539 900000  R     MOV     DPTR,#MbReg+02H
053C E0            MOVX    A,@DPTR
053D FE            MOV     R6,A
053E A3            INC     DPTR
053F E0            MOVX    A,@DPTR
0540 FF            MOV     R7,A
0541 C3            CLR     C
0542 EE            MOV     A,R6
0543 9400          SUBB    A,#00H
0545 4009          JC      ?C0191
0547 D3            SETB    C
0548 EF            MOV     A,R7
0549 9401          SUBB    A,#01H
054B EE            MOV     A,R6
054C 9400          SUBB    A,#00H
054E 4003          JC      ?C0190
0550         ?C0191:
0550 7F02          MOV     R7,#02H
0552 22            RET     
0553         ?C0190:
0553 900000  R     MOV     DPTR,#MbReg+03H
0556 E0            MOVX    A,@DPTR
0557 900000  R     MOV     DPTR,#ModbusBuffer+0AH
055A F0            MOVX    @DPTR,A
055B 7F00          MOV     R7,#00H
055D 22            RET     
                                           ; SOURCE LINE # 491
055E         ?C0192:
                                           ; SOURCE LINE # 492
055E 900000  R     MOV     DPTR,#MbReg+02H
0561 E0            MOVX    A,@DPTR
0562 FE            MOV     R6,A
0563 A3            INC     DPTR
0564 E0            MOVX    A,@DPTR
0565 FF            MOV     R7,A
0566 F4            CPL     A
0567 4E            ORL     A,R6
0568 6012          JZ      ?C0193
                                           ; SOURCE LINE # 494
056A C3            CLR     C
056B EE            MOV     A,R6
056C 9400          SUBB    A,#00H
056E 4009          JC      ?C0195
C51 COMPILER V5.50,  MBREG                                                                 15/05/10  14:40:41  PAGE 54  

0570 D3            SETB    C
0571 EF            MOV     A,R7
0572 9417          SUBB    A,#017H
0574 EE            MOV     A,R6
0575 9400          SUBB    A,#00H
0577 4003          JC      ?C0193
0579         ?C0195:
                                           ; SOURCE LINE # 495
0579 7F02          MOV     R7,#02H
057B 22            RET     
                                           ; SOURCE LINE # 496
                                           ; SOURCE LINE # 497
057C         ?C0193:
                                           ; SOURCE LINE # 498
057C 900000  R     MOV     DPTR,#MbReg+03H
057F E0            MOVX    A,@DPTR
0580 900000  R     MOV     DPTR,#ModbusBuffer+0BH
0583 F0            MOVX    @DPTR,A
                                           ; SOURCE LINE # 499
0584 7F00          MOV     R7,#00H
0586 22            RET     
                                           ; SOURCE LINE # 500
0587         ?C0196:
                                           ; SOURCE LINE # 501
0587 900000  R     MOV     DPTR,#MbReg+02H
058A E0            MOVX    A,@DPTR
058B FE            MOV     R6,A
058C A3            INC     DPTR
058D E0            MOVX    A,@DPTR
058E FF            MOV     R7,A
058F F4            CPL     A
0590 4E            ORL     A,R6
0591 6012          JZ      ?C0197
                                           ; SOURCE LINE # 503
0593 C3            CLR     C
0594 EE            MOV     A,R6
0595 9400          SUBB    A,#00H
0597 4009          JC      ?C0199
0599 D3            SETB    C
059A EF            MOV     A,R7
059B 9417          SUBB    A,#017H
059D EE            MOV     A,R6
059E 9400          SUBB    A,#00H
05A0 4003          JC      ?C0197
05A2         ?C0199:
                                           ; SOURCE LINE # 504
05A2 7F02          MOV     R7,#02H
05A4 22            RET     
                                           ; SOURCE LINE # 505
                                           ; SOURCE LINE # 506
05A5         ?C0197:
                                           ; SOURCE LINE # 507
05A5 900000  R     MOV     DPTR,#MbReg+03H
05A8 E0            MOVX    A,@DPTR
05A9 900000  R     MOV     DPTR,#ModbusBuffer+0CH
05AC F0            MOVX    @DPTR,A
                                           ; SOURCE LINE # 508
05AD 7F00          MOV     R7,#00H
05AF 22            RET     
                                           ; SOURCE LINE # 509
05B0         ?C0200:
                                           ; SOURCE LINE # 511
05B0 C3            CLR     C
05B1 900000  R     MOV     DPTR,#MbReg+03H
05B4 E0            MOVX    A,@DPTR
05B5 940A          SUBB    A,#0AH
C51 COMPILER V5.50,  MBREG                                                                 15/05/10  14:40:41  PAGE 55  

05B7 900000  R     MOV     DPTR,#MbReg+02H
05BA E0            MOVX    A,@DPTR
05BB 9400          SUBB    A,#00H
05BD 4003          JC      ?C0201
                                           ; SOURCE LINE # 512
05BF 7F02          MOV     R7,#02H
05C1 22            RET     
                                           ; SOURCE LINE # 513
05C2         ?C0201:
                                           ; SOURCE LINE # 514
05C2 900000  R     MOV     DPTR,#MbReg+03H
05C5 E0            MOVX    A,@DPTR
05C6 FF            MOV     R7,A
05C7 120000  E     LCALL   _FlockReadFlockNumber
05CA 900000  R     MOV     DPTR,#MbReg+02H
05CD E0            MOVX    A,@DPTR
05CE FC            MOV     R4,A
05CF A3            INC     DPTR
05D0 E0            MOVX    A,@DPTR
05D1 6F            XRL     A,R7
05D2 7001          JNZ     ?C0330
05D4 EC            MOV     A,R4
05D5         ?C0330:
05D5 6003          JZ      ?C0202
                                           ; SOURCE LINE # 515
05D7 7F02          MOV     R7,#02H
05D9 22            RET     
                                           ; SOURCE LINE # 516
05DA         ?C0202:
                                           ; SOURCE LINE # 517
05DA 900000  R     MOV     DPTR,#MbReg+03H
05DD E0            MOVX    A,@DPTR
05DE FF            MOV     R7,A
05DF 7C00    R     MOV     R4,#HIGH ModbusBuffer
05E1 7D00    R     MOV     R5,#LOW ModbusBuffer
05E3 E4            CLR     A
05E4 FB            MOV     R3,A
05E5 FA            MOV     R2,A
05E6 F500    E     MOV     ?_FlockReadItem?BYTE+05H,A
05E8 7500FD  E     MOV     ?_FlockReadItem?BYTE+06H,#0FDH
05EB 120000  E     LCALL   _FlockReadItem
                                           ; SOURCE LINE # 518
05EE 7F00          MOV     R7,#00H
05F0 22            RET     
                                           ; SOURCE LINE # 519
05F1         ?C0203:
                                           ; SOURCE LINE # 521
05F1 900000  R     MOV     DPTR,#ModbusBuffer
05F4 E0            MOVX    A,@DPTR
05F5 C3            CLR     C
05F6 940A          SUBB    A,#0AH
05F8 4003          JC      ?C0204
                                           ; SOURCE LINE # 522
05FA 7F02          MOV     R7,#02H
05FC 22            RET     
                                           ; SOURCE LINE # 523
05FD         ?C0204:
                                           ; SOURCE LINE # 524
05FD 900000  E     MOV     DPTR,#Config+01CH
0600 E0            MOVX    A,@DPTR
0601 7006          JNZ     ?C0206
0603 900000  E     MOV     DPTR,#Config+01BH
0606 E0            MOVX    A,@DPTR
0607 6013          JZ      ?C0205
0609         ?C0206:
0609 900000  E     MOV     DPTR,#Config+01DH
C51 COMPILER V5.50,  MBREG                                                                 15/05/10  14:40:41  PAGE 56  

060C E0            MOVX    A,@DPTR
060D 600D          JZ      ?C0205
060F A3            INC     DPTR
0610 E0            MOVX    A,@DPTR
0611 FF            MOV     R7,A
0612 900000  R     MOV     DPTR,#ModbusBuffer
0615 E0            MOVX    A,@DPTR
0616 B50703        CJNE    A,AR7,?C0205
                                           ; SOURCE LINE # 525
0619 7F02          MOV     R7,#02H
061B 22            RET     
                                           ; SOURCE LINE # 526
061C         ?C0205:
                                           ; SOURCE LINE # 527
061C 900000  R     MOV     DPTR,#ModbusBuffer
061F E0            MOVX    A,@DPTR
0620 FF            MOV     R7,A
0621 7C00    R     MOV     R4,#HIGH ModbusBuffer
0623 7D00    R     MOV     R5,#LOW ModbusBuffer
0625 E4            CLR     A
0626 FB            MOV     R3,A
0627 FA            MOV     R2,A
0628 F500    E     MOV     ?_FlockSaveItem?BYTE+05H,A
062A 7500FD  E     MOV     ?_FlockSaveItem?BYTE+06H,#0FDH
062D 120000  E     LCALL   _FlockSaveItem
                                           ; SOURCE LINE # 528
0630 900000  E     MOV     DPTR,#Config+08FH
0633 E0            MOVX    A,@DPTR
0634 FF            MOV     R7,A
0635 900000  R     MOV     DPTR,#ModbusBuffer
0638 E0            MOVX    A,@DPTR
0639 B50703        CJNE    A,AR7,?C0207
                                           ; SOURCE LINE # 530
063C 120000  E     LCALL   FlockReadWeighingParameters
                                           ; SOURCE LINE # 531
063F         ?C0207:
                                           ; SOURCE LINE # 532
063F 7F00          MOV     R7,#00H
0641 22            RET     
                                           ; SOURCE LINE # 533
0642         ?C0208:
                                           ; SOURCE LINE # 534
0642 900000  R     MOV     DPTR,#MbReg+02H
0645 E0            MOVX    A,@DPTR
0646 FC            MOV     R4,A
0647 A3            INC     DPTR
0648 E0            MOVX    A,@DPTR
0649 FD            MOV     R5,A
064A C3            CLR     C
064B 940A          SUBB    A,#0AH
064D EC            MOV     A,R4
064E 9400          SUBB    A,#00H
0650 4003          JC      ?C0209
                                           ; SOURCE LINE # 535
0652 7F02          MOV     R7,#02H
0654 22            RET     
                                           ; SOURCE LINE # 536
0655         ?C0209:
                                           ; SOURCE LINE # 537
0655 900000  E     MOV     DPTR,#Config+01CH
0658 E0            MOVX    A,@DPTR
0659 7006          JNZ     ?C0211
065B 900000  E     MOV     DPTR,#Config+01BH
065E E0            MOVX    A,@DPTR
065F 6012          JZ      ?C0210
0661         ?C0211:
C51 COMPILER V5.50,  MBREG                                                                 15/05/10  14:40:41  PAGE 57  

0661 900000  E     MOV     DPTR,#Config+01DH
0664 E0            MOVX    A,@DPTR
0665 600C          JZ      ?C0210
0667 A3            INC     DPTR
0668 E0            MOVX    A,@DPTR
0669 B50507        CJNE    A,AR5,?C0210
066C E4            CLR     A
066D B50403        CJNE    A,AR4,?C0210
                                           ; SOURCE LINE # 538
0670 7F02          MOV     R7,#02H
0672 22            RET     
                                           ; SOURCE LINE # 539
0673         ?C0210:
                                           ; SOURCE LINE # 540
0673 900000  R     MOV     DPTR,#MbReg+03H
0676 E0            MOVX    A,@DPTR
0677 FF            MOV     R7,A
0678 120000  E     LCALL   _FlockDeleteFlock
                                           ; SOURCE LINE # 541
067B 7F00          MOV     R7,#00H
067D 22            RET     
                                           ; SOURCE LINE # 544
067E         ?C0212:
                                           ; SOURCE LINE # 545
067E 900000  R     MOV     DPTR,#MbReg+02H
0681 E0            MOVX    A,@DPTR
0682 FE            MOV     R6,A
0683 A3            INC     DPTR
0684 E0            MOVX    A,@DPTR
0685 FF            MOV     R7,A
0686 C3            CLR     C
0687 9401          SUBB    A,#01H
0689 EE            MOV     A,R6
068A 9400          SUBB    A,#00H
068C 4009          JC      ?C0214
068E D3            SETB    C
068F EF            MOV     A,R7
0690 941F          SUBB    A,#01FH
0692 EE            MOV     A,R6
0693 9400          SUBB    A,#00H
0695 4003          JC      ?C0213
0697         ?C0214:
0697 7F02          MOV     R7,#02H
0699 22            RET     
069A         ?C0213:
069A 900000  R     MOV     DPTR,#MbReg+03H
069D E0            MOVX    A,@DPTR
069E 900000  R     MOV     DPTR,#ModbusBuffer+02H
06A1 F0            MOVX    @DPTR,A
06A2 7F00          MOV     R7,#00H
06A4 22            RET     
                                           ; SOURCE LINE # 546
06A5         ?C0215:
                                           ; SOURCE LINE # 547
06A5 900000  R     MOV     DPTR,#MbReg+02H
06A8 E0            MOVX    A,@DPTR
06A9 FE            MOV     R6,A
06AA A3            INC     DPTR
06AB E0            MOVX    A,@DPTR
06AC FF            MOV     R7,A
06AD C3            CLR     C
06AE 9401          SUBB    A,#01H
06B0 EE            MOV     A,R6
06B1 9400          SUBB    A,#00H
06B3 4009          JC      ?C0217
06B5 D3            SETB    C
C51 COMPILER V5.50,  MBREG                                                                 15/05/10  14:40:41  PAGE 58  

06B6 EF            MOV     A,R7
06B7 940C          SUBB    A,#0CH
06B9 EE            MOV     A,R6
06BA 9400          SUBB    A,#00H
06BC 4003          JC      ?C0216
06BE         ?C0217:
06BE 7F02          MOV     R7,#02H
06C0 22            RET     
06C1         ?C0216:
06C1 900000  R     MOV     DPTR,#MbReg+03H
06C4 E0            MOVX    A,@DPTR
06C5 900000  R     MOV     DPTR,#ModbusBuffer+03H
06C8 F0            MOVX    @DPTR,A
06C9 7F00          MOV     R7,#00H
06CB 22            RET     
                                           ; SOURCE LINE # 548
06CC         ?C0218:
                                           ; SOURCE LINE # 549
06CC 900000  R     MOV     DPTR,#MbReg+02H
06CF E0            MOVX    A,@DPTR
06D0 FC            MOV     R4,A
06D1 A3            INC     DPTR
06D2 E0            MOVX    A,@DPTR
06D3 FD            MOV     R5,A
06D4 C3            CLR     C
06D5 9401          SUBB    A,#01H
06D7 EC            MOV     A,R4
06D8 9400          SUBB    A,#00H
06DA 4009          JC      ?C0220
06DC D3            SETB    C
06DD ED            MOV     A,R5
06DE 94B8          SUBB    A,#0B8H
06E0 EC            MOV     A,R4
06E1 940B          SUBB    A,#0BH
06E3 4003          JC      ?C0219
06E5         ?C0220:
06E5 7F02          MOV     R7,#02H
06E7 22            RET     
06E8         ?C0219:
06E8 900000  R     MOV     DPTR,#ModbusBuffer+04H
06EB EC            MOV     A,R4
06EC F0            MOVX    @DPTR,A
06ED A3            INC     DPTR
06EE ED            MOV     A,R5
06EF F0            MOVX    @DPTR,A
06F0 7F00          MOV     R7,#00H
06F2 22            RET     
                                           ; SOURCE LINE # 550
06F3         ?C0221:
                                           ; SOURCE LINE # 551
06F3 900000  R     MOV     DPTR,#MbReg+02H
06F6 E0            MOVX    A,@DPTR
06F7 FE            MOV     R6,A
06F8 A3            INC     DPTR
06F9 E0            MOVX    A,@DPTR
06FA FF            MOV     R7,A
06FB C3            CLR     C
06FC EE            MOV     A,R6
06FD 9400          SUBB    A,#00H
06FF 4009          JC      ?C0223
0701 D3            SETB    C
0702 EF            MOV     A,R7
0703 9417          SUBB    A,#017H
0705 EE            MOV     A,R6
0706 9400          SUBB    A,#00H
0708 4003          JC      ?C0222
C51 COMPILER V5.50,  MBREG                                                                 15/05/10  14:40:41  PAGE 59  

070A         ?C0223:
070A 7F02          MOV     R7,#02H
070C 22            RET     
070D         ?C0222:
070D 900000  R     MOV     DPTR,#MbReg+03H
0710 E0            MOVX    A,@DPTR
0711 900000  R     MOV     DPTR,#ModbusBuffer+01H
0714 F0            MOVX    @DPTR,A
0715 7F00          MOV     R7,#00H
0717 22            RET     
                                           ; SOURCE LINE # 552
0718         ?C0224:
                                           ; SOURCE LINE # 553
0718 900000  R     MOV     DPTR,#MbReg+02H
071B E0            MOVX    A,@DPTR
071C FE            MOV     R6,A
071D A3            INC     DPTR
071E E0            MOVX    A,@DPTR
071F FF            MOV     R7,A
0720 C3            CLR     C
0721 EE            MOV     A,R6
0722 9400          SUBB    A,#00H
0724 4009          JC      ?C0226
0726 D3            SETB    C
0727 EF            MOV     A,R7
0728 943B          SUBB    A,#03BH
072A EE            MOV     A,R6
072B 9400          SUBB    A,#00H
072D 4003          JC      ?C0225
072F         ?C0226:
072F 7F02          MOV     R7,#02H
0731 22            RET     
0732         ?C0225:
0732 900000  R     MOV     DPTR,#MbReg+03H
0735 E0            MOVX    A,@DPTR
0736 900000  R     MOV     DPTR,#ModbusBuffer
0739 F0            MOVX    @DPTR,A
073A 7F00          MOV     R7,#00H
073C 22            RET     
                                           ; SOURCE LINE # 554
073D         ?C0227:
                                           ; SOURCE LINE # 555
073D 7800    E     MOV     R0,#LOW CmdDateTime
073F 7C00    E     MOV     R4,#HIGH CmdDateTime
0741 7D01          MOV     R5,#01H
0743 7B01          MOV     R3,#01H
0745 7A00    R     MOV     R2,#HIGH ModbusBuffer
0747 7900    R     MOV     R1,#LOW ModbusBuffer
0749 7E00          MOV     R6,#00H
074B 7F06          MOV     R7,#06H
074D 120000  E     LCALL   ?C?COPY
                                           ; SOURCE LINE # 556
0750 120000  E     LCALL   DateSet
                                           ; SOURCE LINE # 557
0753 7F00          MOV     R7,#00H
0755 22            RET     
                                           ; SOURCE LINE # 560
0756         ?C0228:
                                           ; SOURCE LINE # 561
0756 900000  R     MOV     DPTR,#MbReg+02H
0759 E0            MOVX    A,@DPTR
075A FE            MOV     R6,A
075B A3            INC     DPTR
075C E0            MOVX    A,@DPTR
075D FF            MOV     R7,A
075E C3            CLR     C
C51 COMPILER V5.50,  MBREG                                                                 15/05/10  14:40:41  PAGE 60  

075F EE            MOV     A,R6
0760 9400          SUBB    A,#00H
0762 4009          JC      ?C0230
0764 D3            SETB    C
0765 EF            MOV     A,R7
0766 9401          SUBB    A,#01H
0768 EE            MOV     A,R6
0769 9400          SUBB    A,#00H
076B 4003          JC      ?C0229
076D         ?C0230:
076D 7F02          MOV     R7,#02H
076F 22            RET     
0770         ?C0229:
0770 900000  R     MOV     DPTR,#MbReg+03H
0773 E0            MOVX    A,@DPTR
0774 900000  R     MOV     DPTR,#ModbusBuffer
0777 F0            MOVX    @DPTR,A
0778 7F00          MOV     R7,#00H
077A 22            RET     
                                           ; SOURCE LINE # 562
077B         ?C0231:
                                           ; SOURCE LINE # 563
077B 900000  R     MOV     DPTR,#MbReg+02H
077E E0            MOVX    A,@DPTR
077F FC            MOV     R4,A
0780 A3            INC     DPTR
0781 E0            MOVX    A,@DPTR
0782 FD            MOV     R5,A
0783 C3            CLR     C
0784 EC            MOV     A,R4
0785 9400          SUBB    A,#00H
0787 4009          JC      ?C0233
0789 D3            SETB    C
078A ED            MOV     A,R5
078B 94E7          SUBB    A,#0E7H
078D EC            MOV     A,R4
078E 9403          SUBB    A,#03H
0790 4003          JC      ?C0232
0792         ?C0233:
0792 7F02          MOV     R7,#02H
0794 22            RET     
0795         ?C0232:
0795 900000  R     MOV     DPTR,#ModbusBuffer+01H
0798 EC            MOV     A,R4
0799 F0            MOVX    @DPTR,A
079A A3            INC     DPTR
079B ED            MOV     A,R5
079C F0            MOVX    @DPTR,A
079D 7F00          MOV     R7,#00H
079F 22            RET     
                                           ; SOURCE LINE # 564
                                           ; SOURCE LINE # 565
07A0         ?C0234:
                                           ; SOURCE LINE # 566
07A0 900000  R     MOV     DPTR,#MbReg+02H
07A3 E0            MOVX    A,@DPTR
07A4 FE            MOV     R6,A
07A5 A3            INC     DPTR
07A6 E0            MOVX    A,@DPTR
07A7 FF            MOV     R7,A
07A8 F4            CPL     A
07A9 4E            ORL     A,R6
07AA 6024          JZ      ?C0235
                                           ; SOURCE LINE # 568
07AC C3            CLR     C
07AD EF            MOV     A,R7
C51 COMPILER V5.50,  MBREG                                                                 15/05/10  14:40:41  PAGE 61  

07AE 940A          SUBB    A,#0AH
07B0 EE            MOV     A,R6
07B1 9400          SUBB    A,#00H
07B3 4003          JC      ?C0236
                                           ; SOURCE LINE # 569
07B5 7F02          MOV     R7,#02H
07B7 22            RET     
                                           ; SOURCE LINE # 570
07B8         ?C0236:
                                           ; SOURCE LINE # 571
07B8 900000  R     MOV     DPTR,#MbReg+03H
07BB E0            MOVX    A,@DPTR
07BC FF            MOV     R7,A
07BD 120000  E     LCALL   _FlockReadFlockNumber
07C0 900000  R     MOV     DPTR,#MbReg+02H
07C3 E0            MOVX    A,@DPTR
07C4 FC            MOV     R4,A
07C5 A3            INC     DPTR
07C6 E0            MOVX    A,@DPTR
07C7 6F            XRL     A,R7
07C8 7001          JNZ     ?C0332
07CA EC            MOV     A,R4
07CB         ?C0332:
07CB 6003          JZ      ?C0235
                                           ; SOURCE LINE # 572
07CD 7F02          MOV     R7,#02H
07CF 22            RET     
                                           ; SOURCE LINE # 573
                                           ; SOURCE LINE # 574
07D0         ?C0235:
                                           ; SOURCE LINE # 575
07D0 900000  R     MOV     DPTR,#MbReg+03H
07D3 E0            MOVX    A,@DPTR
07D4 900000  R     MOV     DPTR,#ModbusBuffer+03H
07D7 F0            MOVX    @DPTR,A
                                           ; SOURCE LINE # 576
07D8 7F00          MOV     R7,#00H
07DA 22            RET     
                                           ; SOURCE LINE # 577
07DB         ?C0238:
                                           ; SOURCE LINE # 578
07DB 900000  R     MOV     DPTR,#MbReg+02H
07DE E0            MOVX    A,@DPTR
07DF FE            MOV     R6,A
07E0 A3            INC     DPTR
07E1 E0            MOVX    A,@DPTR
07E2 FF            MOV     R7,A
07E3 C3            CLR     C
07E4 EE            MOV     A,R6
07E5 9400          SUBB    A,#00H
07E7 4009          JC      ?C0240
07E9 D3            SETB    C
07EA EF            MOV     A,R7
07EB 9401          SUBB    A,#01H
07ED EE            MOV     A,R6
07EE 9400          SUBB    A,#00H
07F0 4003          JC      ?C0239
07F2         ?C0240:
07F2 7F02          MOV     R7,#02H
07F4 22            RET     
07F5         ?C0239:
07F5 900000  R     MOV     DPTR,#MbReg+03H
07F8 E0            MOVX    A,@DPTR
07F9 900000  R     MOV     DPTR,#ModbusBuffer+04H
07FC F0            MOVX    @DPTR,A
07FD 7F00          MOV     R7,#00H
C51 COMPILER V5.50,  MBREG                                                                 15/05/10  14:40:41  PAGE 62  

07FF 22            RET     
                                           ; SOURCE LINE # 579
0800         ?C0241:
                                           ; SOURCE LINE # 580
0800 900000  R     MOV     DPTR,#MbReg+02H
0803 E0            MOVX    A,@DPTR
0804 FC            MOV     R4,A
0805 A3            INC     DPTR
0806 E0            MOVX    A,@DPTR
0807 FD            MOV     R5,A
0808 C3            CLR     C
0809 941E          SUBB    A,#01EH
080B EC            MOV     A,R4
080C 9400          SUBB    A,#00H
080E 4009          JC      ?C0243
0810 D3            SETB    C
0811 ED            MOV     A,R5
0812 94FF          SUBB    A,#0FFH
0814 EC            MOV     A,R4
0815 94FF          SUBB    A,#0FFH
0817 4003          JC      ?C0242
0819         ?C0243:
0819 7F02          MOV     R7,#02H
081B 22            RET     
081C         ?C0242:
081C 900000  R     MOV     DPTR,#ModbusBuffer+05H
081F EC            MOV     A,R4
0820 F0            MOVX    @DPTR,A
0821 A3            INC     DPTR
0822 ED            MOV     A,R5
0823 F0            MOVX    @DPTR,A
0824 7F00          MOV     R7,#00H
0826 22            RET     
                                           ; SOURCE LINE # 581
0827         ?C0244:
                                           ; SOURCE LINE # 582
0827 900000  R     MOV     DPTR,#MbReg+02H
082A E0            MOVX    A,@DPTR
082B FC            MOV     R4,A
082C A3            INC     DPTR
082D E0            MOVX    A,@DPTR
082E FD            MOV     R5,A
082F C3            CLR     C
0830 941E          SUBB    A,#01EH
0832 EC            MOV     A,R4
0833 9400          SUBB    A,#00H
0835 4009          JC      ?C0246
0837 D3            SETB    C
0838 ED            MOV     A,R5
0839 94FF          SUBB    A,#0FFH
083B EC            MOV     A,R4
083C 94FF          SUBB    A,#0FFH
083E 4003          JC      ?C0245
0840         ?C0246:
0840 7F02          MOV     R7,#02H
0842 22            RET     
0843         ?C0245:
0843 900000  R     MOV     DPTR,#ModbusBuffer+07H
0846 EC            MOV     A,R4
0847 F0            MOVX    @DPTR,A
0848 A3            INC     DPTR
0849 ED            MOV     A,R5
084A F0            MOVX    @DPTR,A
084B 7F00          MOV     R7,#00H
084D 22            RET     
                                           ; SOURCE LINE # 583
C51 COMPILER V5.50,  MBREG                                                                 15/05/10  14:40:41  PAGE 63  

084E         ?C0247:
                                           ; SOURCE LINE # 584
084E 900000  R     MOV     DPTR,#MbReg+02H
0851 E0            MOVX    A,@DPTR
0852 FE            MOV     R6,A
0853 A3            INC     DPTR
0854 E0            MOVX    A,@DPTR
0855 FF            MOV     R7,A
0856 C3            CLR     C
0857 EE            MOV     A,R6
0858 9400          SUBB    A,#00H
085A 4009          JC      ?C0249
085C D3            SETB    C
085D EF            MOV     A,R7
085E 9401          SUBB    A,#01H
0860 EE            MOV     A,R6
0861 9400          SUBB    A,#00H
0863 4003          JC      ?C0248
0865         ?C0249:
0865 7F02          MOV     R7,#02H
0867 22            RET     
0868         ?C0248:
0868 900000  R     MOV     DPTR,#MbReg+03H
086B E0            MOVX    A,@DPTR
086C 900000  R     MOV     DPTR,#ModbusBuffer+09H
086F F0            MOVX    @DPTR,A
0870 7F00          MOV     R7,#00H
0872 22            RET     
                                           ; SOURCE LINE # 585
0873         ?C0250:
                                           ; SOURCE LINE # 586
0873 900000  R     MOV     DPTR,#MbReg+02H
0876 E0            MOVX    A,@DPTR
0877 FE            MOV     R6,A
0878 A3            INC     DPTR
0879 E0            MOVX    A,@DPTR
087A FF            MOV     R7,A
087B F4            CPL     A
087C 4E            ORL     A,R6
087D 6031          JZ      ?C0251
                                           ; SOURCE LINE # 588
087F C3            CLR     C
0880 EF            MOV     A,R7
0881 940A          SUBB    A,#0AH
0883 EE            MOV     A,R6
0884 9400          SUBB    A,#00H
0886 4003          JC      ?C0252
                                           ; SOURCE LINE # 589
0888 7F02          MOV     R7,#02H
088A 22            RET     
                                           ; SOURCE LINE # 590
088B         ?C0252:
                                           ; SOURCE LINE # 591
088B 900000  R     MOV     DPTR,#MbReg+03H
088E E0            MOVX    A,@DPTR
088F FF            MOV     R7,A
0890 120000  E     LCALL   _FlockReadFlockNumber
0893 900000  R     MOV     DPTR,#MbReg+02H
0896 E0            MOVX    A,@DPTR
0897 FC            MOV     R4,A
0898 A3            INC     DPTR
0899 E0            MOVX    A,@DPTR
089A 6F            XRL     A,R7
089B 7001          JNZ     ?C0333
089D EC            MOV     A,R4
089E         ?C0333:
C51 COMPILER V5.50,  MBREG                                                                 15/05/10  14:40:41  PAGE 64  

089E 6003          JZ      ?C0253
                                           ; SOURCE LINE # 592
08A0 7F02          MOV     R7,#02H
08A2 22            RET     
                                           ; SOURCE LINE # 593
08A3         ?C0253:
                                           ; SOURCE LINE # 594
08A3 900000  R     MOV     DPTR,#MbReg+03H
08A6 E0            MOVX    A,@DPTR
08A7 FF            MOV     R7,A
08A8 120000  E     LCALL   _FlockContainsCurve
08AB 4003          JC      ?C0251
                                           ; SOURCE LINE # 596
08AD 7F02          MOV     R7,#02H
08AF 22            RET     
                                           ; SOURCE LINE # 597
                                           ; SOURCE LINE # 598
08B0         ?C0251:
                                           ; SOURCE LINE # 599
08B0 900000  R     MOV     DPTR,#MbReg+03H
08B3 E0            MOVX    A,@DPTR
08B4 900000  R     MOV     DPTR,#ModbusBuffer+0AH
08B7 F0            MOVX    @DPTR,A
                                           ; SOURCE LINE # 600
08B8 7F00          MOV     R7,#00H
08BA 22            RET     
                                           ; SOURCE LINE # 601
08BB         ?C0255:
                                           ; SOURCE LINE # 602
08BB 900000  R     MOV     DPTR,#MbReg+02H
08BE E0            MOVX    A,@DPTR
08BF FE            MOV     R6,A
08C0 A3            INC     DPTR
08C1 E0            MOVX    A,@DPTR
08C2 FF            MOV     R7,A
08C3 C3            CLR     C
08C4 9401          SUBB    A,#01H
08C6 EE            MOV     A,R6
08C7 9400          SUBB    A,#00H
08C9 4009          JC      ?C0257
08CB D3            SETB    C
08CC EF            MOV     A,R7
08CD 941F          SUBB    A,#01FH
08CF EE            MOV     A,R6
08D0 9400          SUBB    A,#00H
08D2 4003          JC      ?C0256
08D4         ?C0257:
08D4 7F02          MOV     R7,#02H
08D6 22            RET     
08D7         ?C0256:
08D7 900000  R     MOV     DPTR,#MbReg+03H
08DA E0            MOVX    A,@DPTR
08DB 900000  R     MOV     DPTR,#ModbusBuffer+0DH
08DE F0            MOVX    @DPTR,A
08DF 7F00          MOV     R7,#00H
08E1 22            RET     
                                           ; SOURCE LINE # 603
08E2         ?C0258:
                                           ; SOURCE LINE # 604
08E2 900000  R     MOV     DPTR,#MbReg+02H
08E5 E0            MOVX    A,@DPTR
08E6 FE            MOV     R6,A
08E7 A3            INC     DPTR
08E8 E0            MOVX    A,@DPTR
08E9 FF            MOV     R7,A
08EA C3            CLR     C
C51 COMPILER V5.50,  MBREG                                                                 15/05/10  14:40:41  PAGE 65  

08EB 9401          SUBB    A,#01H
08ED EE            MOV     A,R6
08EE 9400          SUBB    A,#00H
08F0 4009          JC      ?C0260
08F2 D3            SETB    C
08F3 EF            MOV     A,R7
08F4 940C          SUBB    A,#0CH
08F6 EE            MOV     A,R6
08F7 9400          SUBB    A,#00H
08F9 4003          JC      ?C0259
08FB         ?C0260:
08FB 7F02          MOV     R7,#02H
08FD 22            RET     
08FE         ?C0259:
08FE 900000  R     MOV     DPTR,#MbReg+03H
0901 E0            MOVX    A,@DPTR
0902 900000  R     MOV     DPTR,#ModbusBuffer+0EH
0905 F0            MOVX    @DPTR,A
0906 7F00          MOV     R7,#00H
0908 22            RET     
                                           ; SOURCE LINE # 605
0909         ?C0261:
                                           ; SOURCE LINE # 606
0909 900000  R     MOV     DPTR,#MbReg+02H
090C E0            MOVX    A,@DPTR
090D FC            MOV     R4,A
090E A3            INC     DPTR
090F E0            MOVX    A,@DPTR
0910 FD            MOV     R5,A
0911 C3            CLR     C
0912 9401          SUBB    A,#01H
0914 EC            MOV     A,R4
0915 9400          SUBB    A,#00H
0917 4009          JC      ?C0263
0919 D3            SETB    C
091A ED            MOV     A,R5
091B 94B8          SUBB    A,#0B8H
091D EC            MOV     A,R4
091E 940B          SUBB    A,#0BH
0920 4003          JC      ?C0262
0922         ?C0263:
0922 7F02          MOV     R7,#02H
0924 22            RET     
0925         ?C0262:
0925 900000  R     MOV     DPTR,#ModbusBuffer+0FH
0928 EC            MOV     A,R4
0929 F0            MOVX    @DPTR,A
092A A3            INC     DPTR
092B ED            MOV     A,R5
092C F0            MOVX    @DPTR,A
092D 7F00          MOV     R7,#00H
092F 22            RET     
                                           ; SOURCE LINE # 607
0930         ?C0264:
                                           ; SOURCE LINE # 608
0930 900000  R     MOV     DPTR,#MbReg+02H
0933 E0            MOVX    A,@DPTR
0934 FE            MOV     R6,A
0935 A3            INC     DPTR
0936 E0            MOVX    A,@DPTR
0937 FF            MOV     R7,A
0938 C3            CLR     C
0939 EE            MOV     A,R6
093A 9400          SUBB    A,#00H
093C 4009          JC      ?C0266
093E D3            SETB    C
C51 COMPILER V5.50,  MBREG                                                                 15/05/10  14:40:41  PAGE 66  

093F EF            MOV     A,R7
0940 9417          SUBB    A,#017H
0942 EE            MOV     A,R6
0943 9400          SUBB    A,#00H
0945 4003          JC      ?C0265
0947         ?C0266:
0947 7F02          MOV     R7,#02H
0949 22            RET     
094A         ?C0265:
094A 900000  R     MOV     DPTR,#MbReg+03H
094D E0            MOVX    A,@DPTR
094E 900000  R     MOV     DPTR,#ModbusBuffer+0CH
0951 F0            MOVX    @DPTR,A
0952 7F00          MOV     R7,#00H
0954 22            RET     
                                           ; SOURCE LINE # 609
0955         ?C0267:
                                           ; SOURCE LINE # 610
0955 900000  R     MOV     DPTR,#MbReg+02H
0958 E0            MOVX    A,@DPTR
0959 FE            MOV     R6,A
095A A3            INC     DPTR
095B E0            MOVX    A,@DPTR
095C FF            MOV     R7,A
095D C3            CLR     C
095E EE            MOV     A,R6
095F 9400          SUBB    A,#00H
0961 4009          JC      ?C0269
0963 D3            SETB    C
0964 EF            MOV     A,R7
0965 943B          SUBB    A,#03BH
0967 EE            MOV     A,R6
0968 9400          SUBB    A,#00H
096A 4003          JC      ?C0268
096C         ?C0269:
096C 7F02          MOV     R7,#02H
096E 22            RET     
096F         ?C0268:
096F 900000  R     MOV     DPTR,#MbReg+03H
0972 E0            MOVX    A,@DPTR
0973 900000  R     MOV     DPTR,#ModbusBuffer+0BH
0976 F0            MOVX    @DPTR,A
0977 7F00          MOV     R7,#00H
0979 22            RET     
                                           ; SOURCE LINE # 611
097A         ?C0270:
                                           ; SOURCE LINE # 612
097A 900000  E     MOV     DPTR,#Config+01CH
097D E0            MOVX    A,@DPTR
097E 7006          JNZ     ?C0272
0980 900000  E     MOV     DPTR,#Config+01BH
0983 E0            MOVX    A,@DPTR
0984 6003          JZ      ?C0271
0986         ?C0272:
                                           ; SOURCE LINE # 613
0986 7F02          MOV     R7,#02H
0988 22            RET     
                                           ; SOURCE LINE # 614
0989         ?C0271:
                                           ; SOURCE LINE # 616
0989 900000  R     MOV     DPTR,#ModbusBuffer+03H
098C E0            MOVX    A,@DPTR
098D F4            CPL     A
098E 7044          JNZ     ?C0273
                                           ; SOURCE LINE # 618
0990 C3            CLR     C
C51 COMPILER V5.50,  MBREG                                                                 15/05/10  14:40:41  PAGE 67  

0991 900000  R     MOV     DPTR,#ModbusBuffer+06H
0994 E0            MOVX    A,@DPTR
0995 941E          SUBB    A,#01EH
0997 900000  R     MOV     DPTR,#ModbusBuffer+05H
099A E0            MOVX    A,@DPTR
099B 9400          SUBB    A,#00H
099D 400D          JC      ?C0275
099F D3            SETB    C
09A0 A3            INC     DPTR
09A1 E0            MOVX    A,@DPTR
09A2 94FF          SUBB    A,#0FFH
09A4 900000  R     MOV     DPTR,#ModbusBuffer+05H
09A7 E0            MOVX    A,@DPTR
09A8 94FF          SUBB    A,#0FFH
09AA 4003          JC      ?C0274
09AC         ?C0275:
                                           ; SOURCE LINE # 619
09AC 7F02          MOV     R7,#02H
09AE 22            RET     
                                           ; SOURCE LINE # 620
09AF         ?C0274:
                                           ; SOURCE LINE # 621
09AF 900000  R     MOV     DPTR,#ModbusBuffer+04H
09B2 E0            MOVX    A,@DPTR
09B3 603D          JZ      ?C0278
09B5 C3            CLR     C
09B6 900000  R     MOV     DPTR,#ModbusBuffer+08H
09B9 E0            MOVX    A,@DPTR
09BA 941E          SUBB    A,#01EH
09BC 900000  R     MOV     DPTR,#ModbusBuffer+07H
09BF E0            MOVX    A,@DPTR
09C0 9400          SUBB    A,#00H
09C2 400D          JC      ?C0277
09C4 D3            SETB    C
09C5 A3            INC     DPTR
09C6 E0            MOVX    A,@DPTR
09C7 94FF          SUBB    A,#0FFH
09C9 900000  R     MOV     DPTR,#ModbusBuffer+07H
09CC E0            MOVX    A,@DPTR
09CD 94FF          SUBB    A,#0FFH
09CF 4021          JC      ?C0278
09D1         ?C0277:
                                           ; SOURCE LINE # 622
                                           ; SOURCE LINE # 623
09D1 7F02          MOV     R7,#02H
09D3 22            RET     
                                           ; SOURCE LINE # 624
                                           ; SOURCE LINE # 625
09D4         ?C0273:
                                           ; SOURCE LINE # 627
09D4 900000  R     MOV     DPTR,#ModbusBuffer+03H
09D7 E0            MOVX    A,@DPTR
09D8 C3            CLR     C
09D9 940A          SUBB    A,#0AH
09DB 4003          JC      ?C0279
                                           ; SOURCE LINE # 628
09DD 7F02          MOV     R7,#02H
09DF 22            RET     
                                           ; SOURCE LINE # 629
09E0         ?C0279:
                                           ; SOURCE LINE # 630
09E0 900000  R     MOV     DPTR,#ModbusBuffer+03H
09E3 E0            MOVX    A,@DPTR
09E4 FF            MOV     R7,A
09E5 120000  E     LCALL   _FlockReadFlockNumber
09E8 900000  R     MOV     DPTR,#ModbusBuffer+03H
C51 COMPILER V5.50,  MBREG                                                                 15/05/10  14:40:41  PAGE 68  

09EB E0            MOVX    A,@DPTR
09EC 6F            XRL     A,R7
09ED 6003          JZ      ?C0278
                                           ; SOURCE LINE # 631
09EF 7F02          MOV     R7,#02H
09F1 22            RET     
                                           ; SOURCE LINE # 632
                                           ; SOURCE LINE # 633
09F2         ?C0278:
                                           ; SOURCE LINE # 635
09F2 C3            CLR     C
09F3 900000  R     MOV     DPTR,#ModbusBuffer+01H
09F6 E0            MOVX    A,@DPTR
09F7 9400          SUBB    A,#00H
09F9 400D          JC      ?C0282
09FB D3            SETB    C
09FC A3            INC     DPTR
09FD E0            MOVX    A,@DPTR
09FE 94E7          SUBB    A,#0E7H
0A00 900000  R     MOV     DPTR,#ModbusBuffer+01H
0A03 E0            MOVX    A,@DPTR
0A04 9403          SUBB    A,#03H
0A06 4003          JC      ?C0281
0A08         ?C0282:
                                           ; SOURCE LINE # 636
0A08 7F02          MOV     R7,#02H
0A0A 22            RET     
                                           ; SOURCE LINE # 637
0A0B         ?C0281:
                                           ; SOURCE LINE # 639
0A0B 900000  R     MOV     DPTR,#ModbusBuffer+0AH
0A0E E0            MOVX    A,@DPTR
0A0F F4            CPL     A
0A10 6028          JZ      ?C0283
                                           ; SOURCE LINE # 640
0A12 E0            MOVX    A,@DPTR
0A13 C3            CLR     C
0A14 940A          SUBB    A,#0AH
0A16 4003          JC      ?C0284
                                           ; SOURCE LINE # 641
0A18 7F02          MOV     R7,#02H
0A1A 22            RET     
                                           ; SOURCE LINE # 642
0A1B         ?C0284:
                                           ; SOURCE LINE # 643
0A1B 900000  R     MOV     DPTR,#ModbusBuffer+0AH
0A1E E0            MOVX    A,@DPTR
0A1F FF            MOV     R7,A
0A20 120000  E     LCALL   _FlockReadFlockNumber
0A23 900000  R     MOV     DPTR,#ModbusBuffer+0AH
0A26 E0            MOVX    A,@DPTR
0A27 6F            XRL     A,R7
0A28 6003          JZ      ?C0285
                                           ; SOURCE LINE # 644
0A2A 7F02          MOV     R7,#02H
0A2C 22            RET     
                                           ; SOURCE LINE # 645
0A2D         ?C0285:
                                           ; SOURCE LINE # 646
0A2D 900000  R     MOV     DPTR,#ModbusBuffer+0AH
0A30 E0            MOVX    A,@DPTR
0A31 FF            MOV     R7,A
0A32 120000  E     LCALL   _FlockContainsCurve
0A35 4003          JC      ?C0283
                                           ; SOURCE LINE # 648
0A37 7F02          MOV     R7,#02H
C51 COMPILER V5.50,  MBREG                                                                 15/05/10  14:40:41  PAGE 69  

0A39 22            RET     
                                           ; SOURCE LINE # 649
                                           ; SOURCE LINE # 650
0A3A         ?C0283:
                                           ; SOURCE LINE # 652
0A3A 900000  R     MOV     DPTR,#ModbusBuffer+09H
0A3D E0            MOVX    A,@DPTR
0A3E 6059          JZ      ?C0287
                                           ; SOURCE LINE # 653
0A40 900000  R     MOV     DPTR,#ModbusBuffer+0DH
0A43 E0            MOVX    A,@DPTR
0A44 C3            CLR     C
0A45 9401          SUBB    A,#01H
0A47 404D          JC      ?C0289
0A49 E0            MOVX    A,@DPTR
0A4A D3            SETB    C
0A4B 941F          SUBB    A,#01FH
0A4D 5047          JNC     ?C0289
0A4F A3            INC     DPTR
0A50 E0            MOVX    A,@DPTR
0A51 C3            CLR     C
0A52 9401          SUBB    A,#01H
0A54 4040          JC      ?C0289
0A56 E0            MOVX    A,@DPTR
0A57 D3            SETB    C
0A58 940C          SUBB    A,#0CH
0A5A 503A          JNC     ?C0289
0A5C C3            CLR     C
0A5D 900000  R     MOV     DPTR,#ModbusBuffer+010H
0A60 E0            MOVX    A,@DPTR
0A61 9401          SUBB    A,#01H
0A63 900000  R     MOV     DPTR,#ModbusBuffer+0FH
0A66 E0            MOVX    A,@DPTR
0A67 9400          SUBB    A,#00H
0A69 402B          JC      ?C0289
0A6B D3            SETB    C
0A6C A3            INC     DPTR
0A6D E0            MOVX    A,@DPTR
0A6E 94B8          SUBB    A,#0B8H
0A70 900000  R     MOV     DPTR,#ModbusBuffer+0FH
0A73 E0            MOVX    A,@DPTR
0A74 940B          SUBB    A,#0BH
0A76 501E          JNC     ?C0289
0A78 900000  R     MOV     DPTR,#ModbusBuffer+0CH
0A7B E0            MOVX    A,@DPTR
0A7C C3            CLR     C
0A7D 9400          SUBB    A,#00H
0A7F 4015          JC      ?C0289
0A81 E0            MOVX    A,@DPTR
0A82 D3            SETB    C
0A83 9417          SUBB    A,#017H
0A85 500F          JNC     ?C0289
0A87 900000  R     MOV     DPTR,#ModbusBuffer+0BH
0A8A E0            MOVX    A,@DPTR
0A8B C3            CLR     C
0A8C 9400          SUBB    A,#00H
0A8E 4006          JC      ?C0289
0A90 E0            MOVX    A,@DPTR
0A91 D3            SETB    C
0A92 943B          SUBB    A,#03BH
0A94 401A          JC      ?C0291
0A96         ?C0289:
                                           ; SOURCE LINE # 657
                                           ; SOURCE LINE # 658
0A96 7F02          MOV     R7,#02H
0A98 22            RET     
C51 COMPILER V5.50,  MBREG                                                                 15/05/10  14:40:41  PAGE 70  

                                           ; SOURCE LINE # 659
                                           ; SOURCE LINE # 660
0A99         ?C0287:
                                           ; SOURCE LINE # 661
0A99 7A00    R     MOV     R2,#HIGH ModbusBuffer+0BH
0A9B 7900    R     MOV     R1,#LOW ModbusBuffer+0BH
0A9D 7800    R     MOV     R0,#LOW ModbusBuffer+0BH
0A9F 7C00    R     MOV     R4,#HIGH ModbusBuffer+0BH
0AA1 7D01          MOV     R5,#01H
0AA3 7B01          MOV     R3,#01H
0AA5 7A00    E     MOV     R2,#HIGH ActualDateTime
0AA7 7900    E     MOV     R1,#LOW ActualDateTime
0AA9 7E00          MOV     R6,#00H
0AAB 7F06          MOV     R7,#06H
0AAD 120000  E     LCALL   ?C?COPY
                                           ; SOURCE LINE # 662
0AB0         ?C0291:
                                           ; SOURCE LINE # 664
0AB0 7800    E     MOV     R0,#LOW CmdStartWeighing
0AB2 7C00    E     MOV     R4,#HIGH CmdStartWeighing
0AB4 7D01          MOV     R5,#01H
0AB6 7B01          MOV     R3,#01H
0AB8 7A00    R     MOV     R2,#HIGH ModbusBuffer
0ABA 7900    R     MOV     R1,#LOW ModbusBuffer
0ABC 7E00          MOV     R6,#00H
0ABE 7F11          MOV     R7,#011H
0AC0 120000  E     LCALL   ?C?COPY
                                           ; SOURCE LINE # 665
0AC3 120000  E     LCALL   FlockStartWeighing
                                           ; SOURCE LINE # 666
0AC6 900000  E     MOV     DPTR,#Config+01BH
0AC9 E0            MOVX    A,@DPTR
0ACA 6008          JZ      ?C0292
                                           ; SOURCE LINE # 667
0ACC 900000  E     MOV     DPTR,#DisplayMode
0ACF 7402          MOV     A,#02H
0AD1 F0            MOVX    @DPTR,A
                                           ; SOURCE LINE # 668
0AD2 8006          SJMP    ?C0293
0AD4         ?C0292:
                                           ; SOURCE LINE # 669
0AD4 900000  E     MOV     DPTR,#DisplayMode
0AD7 7401          MOV     A,#01H
0AD9 F0            MOVX    @DPTR,A
                                           ; SOURCE LINE # 670
0ADA         ?C0293:
                                           ; SOURCE LINE # 671
0ADA 900000  E     MOV     DPTR,#Display
0ADD 74FF          MOV     A,#0FFH
0ADF F0            MOVX    @DPTR,A
                                           ; SOURCE LINE # 672
0AE0 7F00          MOV     R7,#00H
0AE2 22            RET     
                                           ; SOURCE LINE # 673
0AE3         ?C0294:
                                           ; SOURCE LINE # 674
0AE3 900000  R     MOV     DPTR,#MbReg+02H
0AE6 E0            MOVX    A,@DPTR
0AE7 FC            MOV     R4,A
0AE8 A3            INC     DPTR
0AE9 E0            MOVX    A,@DPTR
0AEA FD            MOV     R5,A
0AEB C3            CLR     C
0AEC EC            MOV     A,R4
0AED 9400          SUBB    A,#00H
0AEF 4009          JC      ?C0296
C51 COMPILER V5.50,  MBREG                                                                 15/05/10  14:40:41  PAGE 71  

0AF1 D3            SETB    C
0AF2 ED            MOV     A,R5
0AF3 9401          SUBB    A,#01H
0AF5 EC            MOV     A,R4
0AF6 9400          SUBB    A,#00H
0AF8 4003          JC      ?C0295
0AFA         ?C0296:
                                           ; SOURCE LINE # 675
0AFA 7F02          MOV     R7,#02H
0AFC 22            RET     
                                           ; SOURCE LINE # 676
0AFD         ?C0295:
                                           ; SOURCE LINE # 677
0AFD 900000  E     MOV     DPTR,#Config+01BH
0B00 E0            MOVX    A,@DPTR
0B01 7003          JNZ     ?C0297
                                           ; SOURCE LINE # 678
0B03 7F02          MOV     R7,#02H
0B05 22            RET     
                                           ; SOURCE LINE # 679
0B06         ?C0297:
                                           ; SOURCE LINE # 680
0B06 900000  E     MOV     DPTR,#Scale+03CH
0B09 E0            MOVX    A,@DPTR
0B0A B50507        CJNE    A,AR5,?C0298
0B0D E4            CLR     A
0B0E B50403        CJNE    A,AR4,?C0298
                                           ; SOURCE LINE # 681
0B11 7F02          MOV     R7,#02H
0B13 22            RET     
                                           ; SOURCE LINE # 682
0B14         ?C0298:
                                           ; SOURCE LINE # 683
0B14 EC            MOV     A,R4
0B15 4D            ORL     A,R5
0B16 24FF          ADD     A,#0FFH
0B18 9200    E     MOV     ?ScaleSetPause?BIT,C
0B1A 120000  E     LCALL   ScaleSetPause
                                           ; SOURCE LINE # 684
0B1D 900000  E     MOV     DPTR,#Display
0B20 74FF          MOV     A,#0FFH
0B22 F0            MOVX    @DPTR,A
                                           ; SOURCE LINE # 685
0B23 7F00          MOV     R7,#00H
0B25 22            RET     
                                           ; SOURCE LINE # 686
0B26         ?C0299:
                                           ; SOURCE LINE # 687
0B26 900000  E     MOV     DPTR,#Config+01CH
0B29 E0            MOVX    A,@DPTR
0B2A 7009          JNZ     ?C0300
0B2C 900000  E     MOV     DPTR,#Config+01BH
0B2F E0            MOVX    A,@DPTR
0B30 7003          JNZ     ?C0300
                                           ; SOURCE LINE # 688
0B32 7F02          MOV     R7,#02H
0B34 22            RET     
                                           ; SOURCE LINE # 689
0B35         ?C0300:
                                           ; SOURCE LINE # 690
0B35 120000  E     LCALL   FlockStopWeighing
                                           ; SOURCE LINE # 691
0B38 E4            CLR     A
0B39 900000  E     MOV     DPTR,#DisplayMode
0B3C F0            MOVX    @DPTR,A
                                           ; SOURCE LINE # 692
C51 COMPILER V5.50,  MBREG                                                                 15/05/10  14:40:41  PAGE 72  

0B3D 900000  E     MOV     DPTR,#Display
0B40 74FF          MOV     A,#0FFH
0B42 F0            MOVX    @DPTR,A
                                           ; SOURCE LINE # 693
0B43 7F00          MOV     R7,#00H
0B45 22            RET     
                                           ; SOURCE LINE # 696
0B46         ?C0301:
                                           ; SOURCE LINE # 698
0B46 900000  R     MOV     DPTR,#Results
0B49 7400    E     MOV     A,#HIGH Archive
0B4B F0            MOVX    @DPTR,A
0B4C A3            INC     DPTR
0B4D 7400    E     MOV     A,#LOW Archive
0B4F F0            MOVX    @DPTR,A
                                           ; SOURCE LINE # 699
0B50 7F00          MOV     R7,#00H
0B52 22            RET     
                                           ; SOURCE LINE # 700
0B53         ?C0302:
                                           ; SOURCE LINE # 702
0B53 7E00    E     MOV     R6,#HIGH DayFifo
0B55 7F00    E     MOV     R7,#LOW DayFifo
0B57 120000  E     LCALL   _FifoFirst
0B5A 900000  R     MOV     DPTR,#Results+02H
