C51 COMPILER V5.50,  ONLINE                                                                07/12/10  13:51:54  PAGE 1   


DOS C51 COMPILER V5.50, COMPILATION OF MODULE ONLINE
OBJECT MODULE PLACED IN ONLINE.OBJ
COMPILER INVOKED BY: E:\C51_V5.5\BIN\C51.EXE ONLINE.C51 CD DB

stmt level    source

   1          //*****************************************************************************
   2          //
   3          //    Online.c     - Ukladani dat online
   4          //    Version 1.0,
   5          //
   6          //*****************************************************************************
   7          
   8          #include "Online.h"
   9          
  10          TFifo code InitOnlineFifo = { FL_ONLINE_BASE,
  11                                        FL_ONLINE_SAMPLES,
  12                                        FL_ONLINE_SAMPLE_SIZE,
  13                                        ON_SAMPLE_EMPTY,
  14                                        ON_SAMPLE_FULL,
  15                                        0, 0};
  16          
  17          // Pracovni data :
  18          TFifo __xdata__ OnlineFifo;
  19          
  20          // pracovni buffer vzorku :
  21          static TOnlineSample __xdata__ Sample;
  22          
  23          
  24          //-----------------------------------------------------------------------------
  25          // Inicializace
  26          //-----------------------------------------------------------------------------
  27          
  28          void OnlineInit(void) {
  29   1        // Inicializace online mereni (po nabehu napajeni)
  30   1        OnlineFifo = InitOnlineFifo;
  31   1        // Inicializace OnlineFifo
  32   1        FifoInit(&OnlineFifo);   // Najde posledni zaznam
  33   1      } // OnlineInit
  34          
  35          //-----------------------------------------------------------------------------
  36          // Smazani obsahu
  37          //-----------------------------------------------------------------------------
  38          
  39          void OnlineReset(void) {
  40   1        // Mazani online dat
  41   1        FifoReset(&OnlineFifo);
  42   1      } // OnlineReset
  43          
  44          //-----------------------------------------------------------------------------
  45          // Zaznam vzorku
  46          //-----------------------------------------------------------------------------
  47          
  48          void OnlineNewWeight(TRawValue Weight, TYesNo Saved, TYesNo Stable) {
  49   1        // Zaznam noveho online vzorku hmotnosti
  50   1        // Hmotnost
  51   1        if (Weight < 0) {
  52   2          // Zaporna hmotnost
  53   2          Sample.Flag = ON_SAMPLE_WEIGHT | ON_SAMPLE_SIGN;
  54   2          Weight = -Weight;
  55   2        } else {
  56   2          // Kladna hmotnost
  57   2          Sample.Flag = ON_SAMPLE_WEIGHT;
  58   2        }
  59   1        Weight &= ON_SAMPLE_MASK_WEIGHT;   // Omezim na 19 bitu
C51 COMPILER V5.50,  ONLINE                                                                07/12/10  13:51:54  PAGE 2   

  60   1        Sample.Value = Weight;
  61   1        Sample.Flag |= (Weight >> 16) & ON_SAMPLE_WEIGHT_MSB;   // Horni bity hmotnosti
  62   1        // Flag ulozeni
  63   1        if (Saved) {
  64   2          Sample.Flag |= ON_SAMPLE_SAVED;
  65   2        }//if
  66   1        // Ustaleni
  67   1        if (Stable) {
  68   2          Sample.Flag |= ON_SAMPLE_STABLE;
  69   2        }//if
  70   1        FifoWrite(&OnlineFifo, &Sample);
  71   1      } // OnlineNewWeight
  72          
  73          //-----------------------------------------------------------------------------
  74          // Zmena hodiny
  75          //-----------------------------------------------------------------------------
  76          
  77          void OnlineNewHour(byte Hour) {
  78   1        // Zaznam nove hodiny <Hour> (binarne)
  79   1        Sample.Flag  = 0;
  80   1        Sample.Value = Hour;
  81   1        FifoWrite(&OnlineFifo, &Sample);
  82   1      } // OnlineNewHour
C51 COMPILER V5.50,  ONLINE                                                                07/12/10  13:51:54  PAGE 3   

ASSEMBLY LISTING OF GENERATED OBJECT CODE


             ; FUNCTION OnlineInit (BEGIN)
                                           ; SOURCE LINE # 28
                                           ; SOURCE LINE # 30
0000 7800    R     MOV     R0,#LOW OnlineFifo
0002 7C00    R     MOV     R4,#HIGH OnlineFifo
0004 7D01          MOV     R5,#01H
0006 7BFF          MOV     R3,#0FFH
0008 7A00    R     MOV     R2,#HIGH InitOnlineFifo
000A 7900    R     MOV     R1,#LOW InitOnlineFifo
000C 7E00          MOV     R6,#00H
000E 7F11          MOV     R7,#011H
0010 120000  E     LCALL   ?C?COPY
                                           ; SOURCE LINE # 32
0013 7E00    R     MOV     R6,#HIGH OnlineFifo
0015 7F00    R     MOV     R7,#LOW OnlineFifo
0017 120000  E     LCALL   _FifoInit
                                           ; SOURCE LINE # 33
001A 22            RET     
             ; FUNCTION OnlineInit (END)

             ; FUNCTION OnlineReset (BEGIN)
                                           ; SOURCE LINE # 39
                                           ; SOURCE LINE # 41
0000 7E00    R     MOV     R6,#HIGH OnlineFifo
0002 7F00    R     MOV     R7,#LOW OnlineFifo
0004 120000  E     LCALL   _FifoReset
                                           ; SOURCE LINE # 42
0007 22            RET     
             ; FUNCTION OnlineReset (END)

             ; FUNCTION _OnlineNewWeight (BEGIN)
0000 8F00    R     MOV     Weight+03H,R7
0002 8E00    R     MOV     Weight+02H,R6
0004 8D00    R     MOV     Weight+01H,R5
0006 8C00    R     MOV     Weight,R4
                                           ; SOURCE LINE # 48
                                           ; SOURCE LINE # 51
0008 7F00          MOV     R7,#00H
000A 7E00          MOV     R6,#00H
000C 7D00          MOV     R5,#00H
000E 7C00          MOV     R4,#00H
0010 AB00    R     MOV     R3,Weight+03H
0012 AA00    R     MOV     R2,Weight+02H
0014 A900    R     MOV     R1,Weight+01H
0016 A800    R     MOV     R0,Weight
0018 C3            CLR     C
0019 120000  E     LCALL   ?C?SLCMP
001C 501B          JNC     ?C0003
                                           ; SOURCE LINE # 53
001E 900000  R     MOV     DPTR,#Sample
0021 740C          MOV     A,#0CH
0023 F0            MOVX    @DPTR,A
                                           ; SOURCE LINE # 54
0024 AF00    R     MOV     R7,Weight+03H
0026 AE00    R     MOV     R6,Weight+02H
0028 AD00    R     MOV     R5,Weight+01H
002A AC00    R     MOV     R4,Weight
002C 120000  E     LCALL   ?C?LNEG
002F 8F00    R     MOV     Weight+03H,R7
0031 8E00    R     MOV     Weight+02H,R6
0033 8D00    R     MOV     Weight+01H,R5
0035 8C00    R     MOV     Weight,R4
                                           ; SOURCE LINE # 55
C51 COMPILER V5.50,  ONLINE                                                                07/12/10  13:51:54  PAGE 4   

0037 8006          SJMP    ?C0004
0039         ?C0003:
                                           ; SOURCE LINE # 57
0039 900000  R     MOV     DPTR,#Sample
003C 7408          MOV     A,#08H
003E F0            MOVX    @DPTR,A
                                           ; SOURCE LINE # 58
003F         ?C0004:
                                           ; SOURCE LINE # 59
003F E500    R     MOV     A,Weight+03H
0041 F500    R     MOV     Weight+03H,A
0043 E500    R     MOV     A,Weight+02H
0045 F500    R     MOV     Weight+02H,A
0047 E500    R     MOV     A,Weight+01H
0049 5403          ANL     A,#03H
004B F500    R     MOV     Weight+01H,A
004D E4            CLR     A
004E F500    R     MOV     Weight,A
                                           ; SOURCE LINE # 60
0050 900000  R     MOV     DPTR,#Sample+01H
0053 E500    R     MOV     A,Weight+02H
0055 F0            MOVX    @DPTR,A
0056 A3            INC     DPTR
0057 E500    R     MOV     A,Weight+03H
0059 F0            MOVX    @DPTR,A
                                           ; SOURCE LINE # 61
005A 900000  R     MOV     DPTR,#Sample
005D E0            MOVX    A,@DPTR
005E FB            MOV     R3,A
005F AF00    R     MOV     R7,Weight+03H
0061 AE00    R     MOV     R6,Weight+02H
0063 AD00    R     MOV     R5,Weight+01H
0065 AC00    R     MOV     R4,Weight
0067 7810          MOV     R0,#010H
0069 120000  E     LCALL   ?C?SLSHR
006C EF            MOV     A,R7
006D 5403          ANL     A,#03H
006F FF            MOV     R7,A
0070 E4            CLR     A
0071 EB            MOV     A,R3
0072 4F            ORL     A,R7
0073 900000  R     MOV     DPTR,#Sample
0076 F0            MOVX    @DPTR,A
                                           ; SOURCE LINE # 63
0077 300004  R     JNB     Saved,?C0005
                                           ; SOURCE LINE # 64
007A E0            MOVX    A,@DPTR
007B 4420          ORL     A,#020H
007D F0            MOVX    @DPTR,A
                                           ; SOURCE LINE # 65
007E         ?C0005:
                                           ; SOURCE LINE # 67
007E 300007  R     JNB     Stable,?C0006
                                           ; SOURCE LINE # 68
0081 900000  R     MOV     DPTR,#Sample
0084 E0            MOVX    A,@DPTR
0085 4410          ORL     A,#010H
0087 F0            MOVX    @DPTR,A
                                           ; SOURCE LINE # 69
0088         ?C0006:
                                           ; SOURCE LINE # 70
0088 7E00    R     MOV     R6,#HIGH OnlineFifo
008A 7F00    R     MOV     R7,#LOW OnlineFifo
008C 7C00    R     MOV     R4,#HIGH Sample
008E 7D00    R     MOV     R5,#LOW Sample
0090 900000  R     MOV     DPTR,#OnlineFifo+08H
C51 COMPILER V5.50,  ONLINE                                                                07/12/10  13:51:54  PAGE 5   

0093 E0            MOVX    A,@DPTR
0094 FA            MOV     R2,A
0095 A3            INC     DPTR
0096 E0            MOVX    A,@DPTR
0097 FB            MOV     R3,A
0098 120000  E     LCALL   _FifoNewFragment
                                           ; SOURCE LINE # 71
009B 22            RET     
             ; FUNCTION _OnlineNewWeight (END)

             ; FUNCTION _OnlineNewHour (BEGIN)
;---- Variable 'Hour' assigned to Register 'R7' ----
                                           ; SOURCE LINE # 77
                                           ; SOURCE LINE # 79
0000 E4            CLR     A
0001 900000  R     MOV     DPTR,#Sample
0004 F0            MOVX    @DPTR,A
                                           ; SOURCE LINE # 80
0005 A3            INC     DPTR
0006 F0            MOVX    @DPTR,A
0007 A3            INC     DPTR
0008 EF            MOV     A,R7
0009 F0            MOVX    @DPTR,A
                                           ; SOURCE LINE # 81
000A 7E00    R     MOV     R6,#HIGH OnlineFifo
000C 7F00    R     MOV     R7,#LOW OnlineFifo
000E 7C00    R     MOV     R4,#HIGH Sample
0010 7D00    R     MOV     R5,#LOW Sample
0012 900000  R     MOV     DPTR,#OnlineFifo+08H
0015 E0            MOVX    A,@DPTR
0016 FA            MOV     R2,A
0017 A3            INC     DPTR
0018 E0            MOVX    A,@DPTR
0019 FB            MOV     R3,A
001A 120000  E     LCALL   _FifoNewFragment
                                           ; SOURCE LINE # 82
001D 22            RET     
             ; FUNCTION _OnlineNewHour (END)



MODULE INFORMATION:   STATIC OVERLAYABLE
   CODE SIZE        =    221    ----
   CONSTANT SIZE    =     17    ----
   XDATA SIZE       =     20    ----
   PDATA SIZE       =   ----    ----
   DATA SIZE        =   ----       4
   IDATA SIZE       =   ----    ----
   BIT SIZE         =   ----       2
END OF MODULE INFORMATION.


C51 COMPILATION COMPLETE.  0 WARNING(S),  0 ERROR(S)
