C51 COMPILER V5.50,  ELMOTOR                                                               12/04/12  07:45:32  PAGE 1   


DOS C51 COMPILER V5.50, COMPILATION OF MODULE ELMOTOR
OBJECT MODULE PLACED IN ELMOTOR.OBJ
COMPILER INVOKED BY: E:\C51_V5.5\BIN\C51.EXE ELMOTOR.C51 CD DB

stmt level    source

   1          //*****************************************************************************
   2          //
   3          //    ElMotor.c - Beh elektromotoru
   4          //    Version 1.0
   5          //
   6          //*****************************************************************************
   7          
   8          #include "ElMotor.h"
   9          #include "Diesel.h"            // Diesel motor
  10          #include "Charging.h"          // Dobijeni
  11          
  12          byte __xdata__ ElMotorOn = NO;   // YES/NO zapnuty elektromotor
  13          
  14          #ifndef __TMCREMOTE__
  15          
  16          // Beh elektromotoru - delam to stejne jako poruchy
  17          static byte __xdata__ RunningCounter = 0;
  18          #define MIN_RUNNING_TIME 5     // V sekundach
  19          
  20          //-----------------------------------------------------------------------------
  21          // Nacteni behu elektromotoru
  22          //-----------------------------------------------------------------------------
  23          
  24          void ElMotorExecute() {
  25   1        // Nacteni behu elektromotoru, volat az po nacteni behu dieselu a dobijeni
  26   1        ElMotorOn = NO;  // Default neni nastartovany
  27   1        if (Charging.On && !Diesel.On) {
  28   2          RunningCounter++;
  29   2          if (RunningCounter > MIN_RUNNING_TIME) {
  30   3            // Porucha uz trva dlouho
  31   3            RunningCounter = MIN_RUNNING_TIME;   // Aby pocitadlo nepreteklo
  32   3            ElMotorOn = YES;
  33   3          }//if
  34   2        } else {
  35   2          RunningCounter = 0;
  36   2        }//else
  37   1      }
  38          
  39          #endif // __TMCREMOTE__
C51 COMPILER V5.50,  ELMOTOR                                                               12/04/12  07:45:32  PAGE 2   

ASSEMBLY LISTING OF GENERATED OBJECT CODE


             ; FUNCTION ElMotorExecute (BEGIN)
                                           ; SOURCE LINE # 24
                                           ; SOURCE LINE # 26
0000 E4            CLR     A
0001 900000  R     MOV     DPTR,#ElMotorOn
0004 F0            MOVX    @DPTR,A
                                           ; SOURCE LINE # 27
0005 900000  E     MOV     DPTR,#Charging
0008 E0            MOVX    A,@DPTR
0009 601C          JZ      ?C0001
000B 900000  E     MOV     DPTR,#Diesel+01H
000E E0            MOVX    A,@DPTR
000F 7016          JNZ     ?C0001
                                           ; SOURCE LINE # 28
0011 900000  R     MOV     DPTR,#RunningCounter
0014 E0            MOVX    A,@DPTR
0015 04            INC     A
0016 F0            MOVX    @DPTR,A
                                           ; SOURCE LINE # 29
0017 E0            MOVX    A,@DPTR
0018 D3            SETB    C
0019 9405          SUBB    A,#05H
001B 400F          JC      ?C0004
                                           ; SOURCE LINE # 31
001D 7405          MOV     A,#05H
001F F0            MOVX    @DPTR,A
                                           ; SOURCE LINE # 32
0020 900000  R     MOV     DPTR,#ElMotorOn
0023 7401          MOV     A,#01H
0025 F0            MOVX    @DPTR,A
                                           ; SOURCE LINE # 33
                                           ; SOURCE LINE # 34
0026 22            RET     
0027         ?C0001:
                                           ; SOURCE LINE # 35
0027 E4            CLR     A
0028 900000  R     MOV     DPTR,#RunningCounter
002B F0            MOVX    @DPTR,A
                                           ; SOURCE LINE # 36
                                           ; SOURCE LINE # 37
002C         ?C0004:
002C 22            RET     
             ; FUNCTION ElMotorExecute (END)



MODULE INFORMATION:   STATIC OVERLAYABLE
   CODE SIZE        =     45    ----
   CONSTANT SIZE    =   ----    ----
   XDATA SIZE       =      2    ----
   PDATA SIZE       =   ----    ----
   DATA SIZE        =   ----    ----
   IDATA SIZE       =   ----    ----
   BIT SIZE         =   ----    ----
END OF MODULE INFORMATION.


C51 COMPILATION COMPLETE.  0 WARNING(S),  0 ERROR(S)
