C51 COMPILER V5.50,  HEATING                                                               12/04/12  07:45:31  PAGE 1   


DOS C51 COMPILER V5.50, COMPILATION OF MODULE HEATING
OBJECT MODULE PLACED IN HEATING.OBJ
COMPILER INVOKED BY: E:\C51_V5.5\BIN\C51.EXE HEATING.C51 CD DB

stmt level    source

   1          //*****************************************************************************
   2          //
   3          //    Heating.c - Ovladani topeni
   4          //    Version 1.0
   5          //
   6          //*****************************************************************************
   7          
   8          #include "Heating.h"
   9          #include "Servo.h"             // Kontrola stavu serv
  10          #include "Din.h"               // Digitalni vstupy
  11          #include "Dout.h"              // Digitalni vystupy
  12          #include "Aout.h"              // Analogove vystupy
  13          #include "Alarm.h"             // Indikace poruch
  14          #include "FAir.h"              // Regulace cerstrveho vzduchu - prepocet procent na polohu serva
  15          #include "Temp.h"              // Teploty
  16          #include "..\inc\Thermo.h"     // Prevod teplot
  17          
  18          THeating __xdata__ Heating;
  19          
  20          #ifndef __TMCREMOTE__
  21          
  22          // Promenne pro poruchu
  23          static byte __xdata__ HeatingCounter = 0;     // Pocitadlo doby behu topeni od nahozeni
  24          #define WAIT_AFTER_HEATING_START 5            // Kolik sekund cekat po zapnuti topeni na vyhodnocovani chy
             -by topeni
  25          
  26          static byte __xdata__ CounterErrorFree;       // Pocitadlo doby po odezneni chyby topeni (LEDka blika, tj.
             - chytnu ji jen nahodne)
  27          #define WAIT_AFTER_HEATING_ERROR 5            // Kolik sekund pockat po odezneni chyby topeni, nez se vyhl
             -aseni poruchy zrusi
  28          
  29          // Promenne regulatoru
  30          static byte __xdata__ Step;                   // aktualni cislo kroku
  31          
  32          #define HEATING_MIN_DAC 0x0B                  // Vystup DA prevodniku, aby dal 2V (zcela zavrene servo)
  33          #define HEATING_MAX_DAC 0x3E                  // Vystup DA prevodniku, aby dal 10V (zcela otevrene servo)
  34          
  35          // Hystereze prepinani vykonu topeni ve st. Celsia
  36          #define HEATING_ECONOMY_DIFFERENCE         TempMk1C(3)          // Pri jakem rozdilu cilove a prumerne tep
             -loty bude prepinat vykon topeni C * 256
  37          #define HEATING_ECONOMY_HYSTERESIS         TempMk01C(0, 5)      // Hystereze pro prepinani vykonu topeni C
             - * 256
  38          #define HEATING_ECONOMY_OUTSIDE_TEMP_LIMIT TempMk1C(10)         // Pri okolni teplote < 10C nastavim natvr
             -do vysoky vykon, rizeni delam jen >= 10C
  39          
  40          // Hystereze pro bufiky
  41          #ifdef USE_ON_OFF_HEATING
                #define HEATING_ON_OFF_HYSTERESIS        TempMk01C(0, 3)      // Hystereze pro spinani bufiku +/- 0.3C
              #endif // USE_ON_OFF_HEATING
  44          
  45          
  46          // Prepocet teploty na interni format regulatoru :
  47          extern int __xdata__ RequestedTemperature;
  48          
  49          static byte PrepoctiProcentaNaDAC(byte Procenta);
  50            // Prepocte procenta 0..HEATING_MAX na analogovy vystup (DAC) serva topeni, vcetne linearizace vykonu
  51          
  52          
  53          //-----------------------------------------------------------------------------
C51 COMPILER V5.50,  HEATING                                                               12/04/12  07:45:31  PAGE 2   

  54          // Inicializace
  55          //-----------------------------------------------------------------------------
  56          
  57          void HeatingInit() {
  58   1        // Inicializace
  59   1        Heating.Percent = 0;
  60   1        Heating.Position = 0;
  61   1        Heating.Flame = NO;
  62   1        Heating.Failure = NO;
  63   1        Heating.ServoFailure = NO;
  64   1        AoutSetHeatingServo(PrepoctiProcentaNaDAC(0));       // Zavru ventil (po inicializaci je na Aout=0.3V a 
             -zacne to hlasit poruchu serva topeni)
  65   1      }
  66          
  67          //-----------------------------------------------------------------------------
  68          // Spinani napajeni topeni
  69          //-----------------------------------------------------------------------------
  70          
  71          #ifdef USE_ON_OFF_HEATING
              
              // U bufiku zapnu napajeni a zapamatuju si stav kvuli hysterezi
              #define SwitchPower(State)              \
                DoutSetHeating(State);                \
                Heating.On = State;
              
              #else
  79          
  80          // U teplovodniho topeni jen zapnu
  81          #define SwitchPower(State)      DoutSetHeating(State)
  82          
  83          #endif // USE_ON_OFF_HEATING
  84          
  85          
  86          //-----------------------------------------------------------------------------
  87          // Vypnuti topeni
  88          //-----------------------------------------------------------------------------
  89          
  90          void HeatingStop() {
  91   1        // Vypne topeni a vynuluje poruchu
  92   1        SwitchPower(NO);                      // Vypnu cerpadlo
  93   1        DoutSetHetingEconomy(NO);             // Prepnu zpet na vysoky vykon
  94   1        HeatingInit();
  95   1        HeatingCounter = 0;                   // Pri pristim zapnuti budu opet pocitat od nuly
  96   1      }
  97          
  98          //-----------------------------------------------------------------------------
  99          // Pridani vykonu topeni v rucnim rezimu
 100          //-----------------------------------------------------------------------------
 101          
 102          void HeatingManualIncrease() {
 103   1        // Pridani vykonu topeni v rucnim rezimu
 104   1        Heating.Percent += HEATING_MANUAL_STEP;
 105   1        if (Heating.Percent > HEATING_MAX) {
 106   2          Heating.Percent = HEATING_MAX;   // Omezim
 107   2        }
 108   1        Heating.Percent -= Heating.Percent % HEATING_MANUAL_STEP;  // Zaokrouhlim na krok
 109   1      }
 110          
 111          //-----------------------------------------------------------------------------
 112          // Ubrani vykonu topeni v rucnim rezimu
 113          //-----------------------------------------------------------------------------
 114          
 115          void HeatingManualDecrease() {
 116   1        // Ubrani vykonu topeni v rucnim rezimu
 117   1        if (Heating.Percent < HEATING_MANUAL_STEP) {
 118   2          Heating.Percent = 0;
C51 COMPILER V5.50,  HEATING                                                               12/04/12  07:45:31  PAGE 3   

 119   2        } else {
 120   2          Heating.Percent -= HEATING_MANUAL_STEP;
 121   2        }
 122   1        Heating.Percent -= Heating.Percent % HEATING_MANUAL_STEP;  // Zaokrouhlim na krok
 123   1      }
 124          
 125          //-----------------------------------------------------------------------------
 126          // Test zavreneho topeni
 127          //-----------------------------------------------------------------------------
 128          
 129          #ifdef USE_COOLING
 130          
 131          TYesNo HeatingFullyClosed() {
 132   1        // Vrati YES, pokud je ventil topeni plne uzavren nebo je servo odpojeno/v chybe
 133   1        return (TYesNo)(ServoFullyClosed(SERVO_HEATING) || ServoStatus[SERVO_HEATING] > SERVO_STATUS_RUNNING);
 134   1      }
 135          
 136          #endif // USE_COOLING
 137          
 138          
 139          //-----------------------------------------------------------------------------
 140          // Kontrola poruchy
 141          //-----------------------------------------------------------------------------
 142          
 143          static void HeatingCheckFailure() {
 144   1        // Zkontroluje poruchu topeni a poruchu serva topeni
 145   1        // Servo topeni
 146   1        Heating.ServoFailure = NO;
 147   1        if (ServoStatus[SERVO_HEATING] == SERVO_STATUS_TIMEOUT || ServoStatus[SERVO_HEATING] == SERVO_STATUS_CON
             -TROL || ServoStatus[SERVO_HEATING] == SERVO_STATUS_OFF) {
 148   2          Heating.ServoFailure = YES;
 149   2          AlarmSet();         // Vyhlasim alarm
 150   2        }
 151   1        // Samotne Webasto - tuto poruchu zacnu sledovat az po nekolika sekundach po zapnuti topeni a poruchu vy
             -hlasim po prvnim vyskytu chyby.
 152   1        // V pripade zmizeni chyby cekam nejakou dobu a az potom chybu zrusim (LED poruchy blika, tj. nekdy ji c
             -hytnu a nekdy ne)
 153   1        if (HeatingCounter < WAIT_AFTER_HEATING_START) {
 154   2          HeatingCounter++;   // Jeste cekam
 155   2        } else {
 156   2          // Od startu topeni uz ubehla nejaka doba, muzu testovat poruchu Webasta
 157   2          if (DinHeatingCoolingError == DIN_COOLING_FAILURE) {
 158   3            Heating.Failure = YES;
 159   3            CounterErrorFree = 0;             // Snuluju pocitadlo odezneni chyby
 160   3          } else {
 161   3            // Pocitam dobu odezneni poruchy a az pak poruchu zrusim
 162   3            CounterErrorFree++;
 163   3            if (CounterErrorFree > WAIT_AFTER_HEATING_ERROR) {
 164   4              CounterErrorFree = WAIT_AFTER_HEATING_ERROR;            // Aby counter nepretekl
 165   4              Heating.Failure = NO;
 166   4            }
 167   3          }
 168   2          if (Heating.Failure) {
 169   3            // Chyba se vyskytla bud v tomto kroku, nebo jeste trva z minula, alarm kazdopadne stale trva az do 
             -prepnuti rezimu
 170   3            AlarmSet();         // Vyhlasim alarm
 171   3          }
 172   2        }//else
 173   1      }
 174          
 175          //-----------------------------------------------------------------------------
 176          // Start topeni v rucnim rezimu
 177          //-----------------------------------------------------------------------------
 178          
 179          void HeatingManualStart() {
 180   1        // Zahaji topeni v rucnim rezimu
C51 COMPILER V5.50,  HEATING                                                               12/04/12  07:45:31  PAGE 4   

 181   1        SwitchPower(YES);             // Zapnu cerpadlo, u bufiku jedu stale naplno nehlede na nastaveny vykon
 182   1        ServoResetTimer(SERVO_HEATING);  // Nuluju pocitadlo chyby serva
 183   1        Heating.Failure = NO;         // Porucha nemuze byt
 184   1        Heating.ServoFailure = NO;    // Porucha nemuze byt
 185   1        HeatingCounter = 0;           // Dobu behu topeni pocitam od nuly (prave jsem zapnul)
 186   1        DoutSetHetingEconomy(NO);     // V manualnim rezimu jedu na plny vykon topeni
 187   1      }
 188          
 189          //-----------------------------------------------------------------------------
 190          // Krok topeni v rucnim rezimu
 191          //-----------------------------------------------------------------------------
 192          
 193          //#define SERVO_TYPE_1    1       // Stare servo s nelinearnim prubehem vykonu versus poloha serva
 194          //#define SERVO_TYPE_2    1       // Nove servo od 28.4.2008 s castecnou linearizaci
 195          #define SERVO_TYPE_3    1       // Tricestny ventil od 23.9.2009 (Volvo)
 196          
 197          // Prevodni tabulka topny vykon versus poloha serva topeni, musi zacinat 0 a koncit 100. Namereno 30.1.200
             -8 na Volvu Svedsko.
 198          #ifdef SERVO_TYPE_1
                #define POWER_TABLE_COUNT     8                                               // Pocet bodu v prevodni t
             -abulce
                byte code PowerTable[POWER_TABLE_COUNT]    = {0, 6, 8, 20, 32, 43, 95, 100};  // Vykon topeni v %
                byte code PositionTable[POWER_TABLE_COUNT] = {0, 3, 9, 14, 17, 19, 33, 100};  // Poloha serva v %
              #elif defined SERVO_TYPE_2
                #define POWER_TABLE_COUNT     8                                               // Pocet bodu v prevodni t
             -abulce
                byte code PowerTable[POWER_TABLE_COUNT]    = {0, 10, 35, 76, 95, 100};        // Vykon topeni v %
                byte code PositionTable[POWER_TABLE_COUNT] = {0, 15, 29, 38, 46, 100};        // Poloha serva v %
              #elif defined SERVO_TYPE_3
 207            #define POWER_TABLE_COUNT     8                                               // Pocet bodu v prevodni t
             -abulce
 208            byte code PowerTable[POWER_TABLE_COUNT]    = {0, 3, 12, 44, 59, 100};        // Vykon topeni v %
 209            byte code PositionTable[POWER_TABLE_COUNT] = {0, 9, 15, 25, 33, 100};        // Poloha serva v %
 210          #endif // SERVO_TYPE_3
 211          
 212          static byte PrepoctiProcentaNaDAC(byte Procenta) {
 213   1        // Prepocte procenta 0..HEATING_MAX na analogovy vystup (DAC) serva topeni, vcetne linearizace vykonu
 214   1        byte j;
 215   1      
 216   1        if (Procenta > HEATING_MAX) {
 217   2          Procenta = HEATING_MAX;                // Radeji omezim na max 100%
 218   2        }
 219   1      
 220   1        // Korekce nelinearni zavislosti vykonu topeni na poloze serva:
 221   1        // Hledam koncovy bod
 222   1        for (j = 0; j < POWER_TABLE_COUNT; j++) {
 223   2          if (Procenta == PowerTable[j]) {
 224   3            Procenta = PositionTable[j];          // Vykon je roven primo bodu ve krivce
 225   3            break;
 226   3          }
 227   2          if (PowerTable[j] > Procenta) {
 228   3            // Vypoctu vykon
 229   3            Procenta = PositionTable[j - 1]
 230   3                     + (word)((word)(Procenta - PowerTable[j - 1])
 231   3                     * (word)(PositionTable[j] - PositionTable[j - 1])
 232   3                     / (word)(PowerTable[j] - PowerTable[j - 1]));
 233   3            break;            // Nasel jsem prvni bod napravo od vykonu
 234   3          }
 235   2        }
 236   1      
 237   1        // Nastaveni DAC podle zkorigovaneho vykonu:
 238   1        return (word)((word)HEATING_MIN_DAC + (word)Procenta * (word)(HEATING_MAX_DAC - HEATING_MIN_DAC) / (word
             -)HEATING_MAX);
 239   1      }
 240          
 241          //-----------------------------------------------------------------------------
C51 COMPILER V5.50,  HEATING                                                               12/04/12  07:45:31  PAGE 5   

 242          // Krok topeni v rucnim rezimu
 243          //-----------------------------------------------------------------------------
 244          
 245          void HeatingManualExecute() {
 246   1        // Provede krok v rezimu manualniho topeni, volat 1x za sekundu
 247   1        SwitchPower(YES);             // U teplovodniho topeni zapnu cerpadlo, u bufiku sepnu vzdy na plny vykon
             - bez moznosti regulace
 248   1        Heating.Position = FAirCalculateServoPosition(Heating.Percent);
 249   1        Heating.Flame = DinHeatingFlame;
 250   1        // 30.1.2008: Linearizuju vykon topeni, zavislost vykonu topeni na otevreni serva je znacne nelinearni
 251   1        AoutSetHeatingServo(PrepoctiProcentaNaDAC(Heating.Percent));       // Otevru ventil podle navolenych pro
             -cent
 252   1        HeatingCheckFailure();        // Kontrola poruchy
 253   1      }
 254          
 255          //-----------------------------------------------------------------------------
 256          // Start topeni v automatickem rezimu
 257          //-----------------------------------------------------------------------------
 258          
 259          void HeatingAutoStart() {
 260   1        // Zahaji topeni v automatickem rezimu
 261   1      #ifdef USE_ON_OFF_HEATING
                SwitchPower(NO);              // Bufik necham zatim vypnuty
              #else
 264   1        SwitchPower(YES);             // Zapnu cerpadlo
 265   1      #endif // USE_ON_OFF_HEATING
 266   1        ServoResetTimer(SERVO_HEATING);  // Nuluju pocitadlo chyby serva
 267   1        Heating.Failure = NO;         // Porucha nemuze byt
 268   1        Heating.ServoFailure = NO;    // Porucha nemuze byt
 269   1        HeatingCounter = 0;           // Dobu behu topeni pocitam od nuly (prave jsem zapnul)
 270   1        Heating.Economy = NO;         // Default vysoky vykon
 271   1        DoutSetHetingEconomy(NO);     // Default vysoky vykon
 272   1        // Regulator topeni
 273   1        Heating.Integral = 0;         // topeni integral
 274   1        Heating.LastTemperature = AUTO_TEMP_ERROR;    // Teplotu ve skrini z minuleho kroku nastavim na nedefino
             -vanou
 275   1        Step = REG_TS - 1;            // topeni aktualni cislo kroku,
 276   1      }
 277          
 278          //-----------------------------------------------------------------------------
 279          // Krok topeni v automatickem rezimu
 280          //-----------------------------------------------------------------------------
 281          
 282          #ifdef USE_ON_OFF_HEATING
              
              void HeatingAutoExecute(int Average) {
                // Provede krok regulatoru ON/OFF v rezimu auto topeni, volat 1x za sekundu. <Average> je prumerna teplo
             -ta podle lozeni ve vnitrnim formatu
                if (Average == AUTO_TEMP_ERROR) {
                  SwitchPower(NO);            // Teplotni cidlo je odpojene, vypnu topeni
                  Heating.Percent = 0;        // Indikace vykonu
                  return;
                }
              
                // Hystereze
                if (Heating.On) {
                  // Topeni je zapnuto
                  if (Average > RequestedTemperature + HEATING_ON_OFF_HYSTERESIS) {
                    // Teplota nad nastavenou => vypnu
                    Heating.On = NO;
                  }
                } else {
                  if (Average < RequestedTemperature - HEATING_ON_OFF_HYSTERESIS) {
                    // Teplota pod nastavenou => zapnu
                    Heating.On = YES;
                  }
C51 COMPILER V5.50,  HEATING                                                               12/04/12  07:45:31  PAGE 6   

                }
              
                // Zapnu nebo vypnu topeni
                SwitchPower(Heating.On);
                Heating.Percent = Heating.On ? 100 : 0;        // Indikace vykonu
              }
              
              #else
 312          
 313          static void HeatingRegulatorStep(int temp) {
 314   1        // Krok regulatoru topeni, prumerna teplota ve skrini je <temp> (ve vnitrnim formatu)
 315   1        // 6.2.2008: Prechod na PID regulaci ve standardni forme CO = Kp*e + (Kp/Ti)*int(e*dt) + Kp*Td*de/dt (de
             -/dt je nahrazeno primo derivaci teploty)
 316   1        // Vsechny teploty se beru v celych stupnich Celsia, vysledky prop. a int. slozek jsou primo v % vykonu 
             -topeni. Napriklad:
 317   1        // Error Kp     Ti      Prop. slozka  Integ. slozka
 318   1        // 2.0C  10.000 300 s   20 %          0.67% za 10sec
 319   1        long i;
 320   1        int err;
 321   1      
 322   1        if (temp == AUTO_TEMP_ERROR) {
 323   2          // zadna pozadovana sonda nemeri
 324   2          Heating.Percent = 0;    // Zavru ventil
 325   2          return;
 326   2        }
 327   1        // vzorkovaci perioda :
 328   1        if (++Step >= REG_TS) {
 329   2          Step = 0;          // nove citani, pokracuj ve vypoctu
 330   2        } else {
 331   2          return;            // neaktivni perioda
 332   2        }
 333   1        // vypocet jednoho kroku regulatoru
 334   1        err = RequestedTemperature - temp;     // regulacni rozdil * 256C
 335   1        Heating.Error = err;                     // Zapamatuju si (ve vnitrnim formatu)
 336   1        err >>= 4;                               // spodni 4 bity se nemeri
 337   1      
 338   1        // Proporcionalni slozka
 339   1        Heating.Proportional = Config.RegKp * err / REG_MAX_KP;   // proporcionalni slozka
 340   1      
 341   1        // Integracni slozka
 342   1        // Integral anti-windup: Pokud je proporcionalni slozka zasaturovana na 100% (tj. proporcionalni slozka 
             -plne otevira ventil), nastavim vstup integratoru
 343   1        // na nulu, tj. neintegruji. Slouzi to k zamezeni prekroceni cilove teploty pri nabehu. Integrace by se 
             -mela spravne zastavit pokud je vystup regulatoru
 344   1        // na 100% (tj. P+D), ale napr. pri otevreni dveri behem regulace se to chava lepe jen na P slozku - int
             -egrator je tak delsi dobu zastaveny. Na druhou
 345   1        // stranu nabeh topeni trva trosku dele (zacne se integrovat az za delsi dobu od startu topeni).
 346   1        if (Config.RegTi > 0) {
 347   2          // platna integracni slozka
 348   2          i = Heating.Integral;
 349   2          if (Heating.Proportional < REG_PROP_SATURATION) {
 350   3            // Priintegruju jen kdyz neni proporcionalni vystup v saturaci. Pokud je, necham v integracni slozce
             - minulou hodnotu.
 351   3            i += (Config.RegKp / REG_MAX_KP) * REG_INT_SCALE * REG_TS * (long)err / Config.RegTi;     // Kvuli r
             -ozsahu longu nasobim Config.RegKp / REG_MAX_KP
 352   3          }//if
 353   2          // limitace integracni slozky :
 354   2          if (i > REG_INT_HI) {
 355   3            i = REG_INT_HI;
 356   3          } else if (i < REG_INT_LO) {
 357   3            i = REG_INT_LO;
 358   3          }//else
 359   2        } else {
 360   2          // bez integracni slozky
 361   2          i = 0;
 362   2        }//else
C51 COMPILER V5.50,  HEATING                                                               12/04/12  07:45:31  PAGE 7   

 363   1        Heating.Integral = i;                     // zapamatuj pro dalsi krok
 364   1      
 365   1        // Derivacni slozka
 366   1        if (Heating.LastTemperature == AUTO_TEMP_ERROR) {
 367   2          // Pokud je teplota ve skrini z minuleho kroku rovna AUTO_TEMP_ERROR, jde o prvni krok regulatoru po s
             -tartu => nederivuju, pockam na dalsi krok
 368   2          Heating.Derivative = 0;
 369   2        } else if (Config.RegTd > 0) {
 370   2         // Kvuli rozsahu longu nasobim Config.RegKp / REG_MAX_KP
 371   2         Heating.Derivative = (Config.RegKp / REG_MAX_KP) * (long)Config.RegTd * (long)(Heating.LastTemperature 
             -- temp) / (long)REG_TS / (long)REG_DER_SCALE;
 372   2          // Limitace derivacni slozky
 373   2          if (Heating.Derivative > REG_DER_HI) {
 374   3            Heating.Derivative = REG_DER_HI;
 375   3          } else if (Heating.Derivative < REG_DER_LO) {
 376   3            Heating.Derivative = REG_DER_LO;
 377   3          }
 378   2        }
 379   1        Heating.LastTemperature = temp;       // Zapamatuju si teplotu pro dalsi krok
 380   1      
 381   1        // Vypoctu celkovy vystup
 382   1        i /= REG_INT_SCALE;               // integracni slozka ( / 100)
 383   1        i += Heating.Proportional;        // Prictu proporcionalni slozku
 384   1        i += Heating.Derivative;          // Prictu derivacni slozku
 385   1        i /= REG_T_LSB;                   // Meritko
 386   1        i += REG_Y_LO;                    // Pripoctu offset nuly
 387   1        // limitace akcni veliciny :
 388   1        if (i > REG_Y_HI) {
 389   2          i = REG_Y_HI;
 390   2        } else if (i < REG_Y_LO) {
 391   2          i = REG_Y_LO;
 392   2        }
 393   1        Heating.Percent = i;
 394   1      } // HeatingRegulatorStep
 395          
 396          void HeatingAutoExecute(int Average) {
 397   1        // Provede krok PID regulatoru v rezimu auto topeni, volat 1x za sekundu. <Average> je prumerna teplota 
             -podle lozeni ve vnitrnim formatu
 398   1        SwitchPower(YES);             // Zapnu cerpadlo
 399   1        HeatingRegulatorStep(Average);
 400   1        Heating.Position = FAirCalculateServoPosition(Heating.Percent);
 401   1        Heating.Flame = DinHeatingFlame;
 402   1        AoutSetHeatingServo(PrepoctiProcentaNaDAC(Heating.Percent));       // Otevru ventil podle navolenych pro
             -cent
 403   1        HeatingCheckFailure();        // Kontrola poruchy
 404   1      
 405   1        // Pokud se topi automaticky, nastavim podle rozdilu cilove a prumerne teploty vykon topeni.
 406   1        if (Average == AUTO_TEMP_ERROR || Temp[TEMP_OUTSIDE] < HEATING_ECONOMY_OUTSIDE_TEMP_LIMIT) {
 407   2          // Zadne cidlo nemeri, nastavim napevno vysoky vykon, neni podle ceho ridit ho automaticky.
 408   2          // 13.12.2007: Pri okolni teplote nizsi nez 10C nastavim taky automaticky vysoky vykon. Vysoky vykon s
             -e nastavi, i pokud venkovni cidlo nemeri.
 409   2          Heating.Economy = NO;
 410   2        } else if (Heating.Economy) {
 411   2          // Je prave nastaven nizky vykon topeni
 412   2          if (Average < RequestedTemperature - HEATING_ECONOMY_DIFFERENCE - HEATING_ECONOMY_HYSTERESIS) {
 413   3            // Teplota uz prilis klesla, prepnu topeni na vysoky vykon
 414   3            Heating.Economy = NO;
 415   3          }
 416   2        } else {
 417   2          // Je prave nastaven vysoky vykon topeni
 418   2          if (Average >= RequestedTemperature - HEATING_ECONOMY_DIFFERENCE + HEATING_ECONOMY_HYSTERESIS) {
 419   3            // Teplota uz prilis vzrostla, prepnu topeni na nizky vykon
 420   3            Heating.Economy = YES;
 421   3          }
 422   2        }
 423   1        DoutSetHetingEconomy(Heating.Economy);    // Fyzicky nastavim
C51 COMPILER V5.50,  HEATING                                                               12/04/12  07:45:31  PAGE 8   

 424   1      }
 425          
 426          #endif // USE_ON_OFF_HEATING
 427          
 428          
 429          #endif // __TMCREMOTE__
 430          
C51 COMPILER V5.50,  HEATING                                                               12/04/12  07:45:31  PAGE 9   

ASSEMBLY LISTING OF GENERATED OBJECT CODE


             ; FUNCTION HeatingInit (BEGIN)
                                           ; SOURCE LINE # 57
                                           ; SOURCE LINE # 59
0000 E4            CLR     A
0001 900000  R     MOV     DPTR,#Heating
0004 F0            MOVX    @DPTR,A
                                           ; SOURCE LINE # 60
0005 A3            INC     DPTR
0006 F0            MOVX    @DPTR,A
                                           ; SOURCE LINE # 61
0007 900000  R     MOV     DPTR,#Heating+05H
000A F0            MOVX    @DPTR,A
                                           ; SOURCE LINE # 62
000B 900000  R     MOV     DPTR,#Heating+02H
000E F0            MOVX    @DPTR,A
                                           ; SOURCE LINE # 63
000F A3            INC     DPTR
0010 F0            MOVX    @DPTR,A
                                           ; SOURCE LINE # 64
0011 FF            MOV     R7,A
0012 120000  R     LCALL   _PrepoctiProcentaNaDAC
0015 120000  E     LCALL   _AoutSetHeatingServo
                                           ; SOURCE LINE # 65
0018 22            RET     
             ; FUNCTION HeatingInit (END)

             ; FUNCTION HeatingStop (BEGIN)
                                           ; SOURCE LINE # 90
                                           ; SOURCE LINE # 92
0000 C200    E     CLR     ?DoutSetHeating?BIT
0002 120000  E     LCALL   DoutSetHeating
                                           ; SOURCE LINE # 93
0005 C200    E     CLR     ?DoutSetHetingEconomy?BIT
0007 120000  E     LCALL   DoutSetHetingEconomy
                                           ; SOURCE LINE # 94
000A 120000  R     LCALL   HeatingInit
                                           ; SOURCE LINE # 95
000D E4            CLR     A
000E 900000  R     MOV     DPTR,#HeatingCounter
0011 F0            MOVX    @DPTR,A
                                           ; SOURCE LINE # 96
0012 22            RET     
             ; FUNCTION HeatingStop (END)

             ; FUNCTION HeatingManualIncrease (BEGIN)
                                           ; SOURCE LINE # 102
                                           ; SOURCE LINE # 104
0000 900000  R     MOV     DPTR,#Heating
0003 E0            MOVX    A,@DPTR
0004 240A          ADD     A,#0AH
0006 F0            MOVX    @DPTR,A
                                           ; SOURCE LINE # 105
0007 E0            MOVX    A,@DPTR
0008 D3            SETB    C
0009 9464          SUBB    A,#064H
000B 4003          JC      ?C0003
                                           ; SOURCE LINE # 106
000D 7464          MOV     A,#064H
000F F0            MOVX    @DPTR,A
                                           ; SOURCE LINE # 107
0010         ?C0003:
                                           ; SOURCE LINE # 108
0010 900000  R     MOV     DPTR,#Heating
C51 COMPILER V5.50,  HEATING                                                               12/04/12  07:45:31  PAGE 10  

0013 E0            MOVX    A,@DPTR
0014 FF            MOV     R7,A
0015 75F00A        MOV     B,#0AH
0018 84            DIV     AB
0019 C3            CLR     C
001A EF            MOV     A,R7
001B 95F0          SUBB    A,B
001D F0            MOVX    @DPTR,A
                                           ; SOURCE LINE # 109
001E 22            RET     
             ; FUNCTION HeatingManualIncrease (END)

             ; FUNCTION HeatingManualDecrease (BEGIN)
                                           ; SOURCE LINE # 115
                                           ; SOURCE LINE # 117
0000 900000  R     MOV     DPTR,#Heating
0003 E0            MOVX    A,@DPTR
0004 C3            CLR     C
0005 940A          SUBB    A,#0AH
0007 5004          JNC     ?C0005
                                           ; SOURCE LINE # 118
0009 E4            CLR     A
000A F0            MOVX    @DPTR,A
                                           ; SOURCE LINE # 119
000B 8007          SJMP    ?C0006
000D         ?C0005:
                                           ; SOURCE LINE # 120
000D 900000  R     MOV     DPTR,#Heating
0010 E0            MOVX    A,@DPTR
0011 24F6          ADD     A,#0F6H
0013 F0            MOVX    @DPTR,A
                                           ; SOURCE LINE # 121
0014         ?C0006:
                                           ; SOURCE LINE # 122
0014 900000  R     MOV     DPTR,#Heating
0017 E0            MOVX    A,@DPTR
0018 FF            MOV     R7,A
0019 75F00A        MOV     B,#0AH
001C 84            DIV     AB
001D C3            CLR     C
001E EF            MOV     A,R7
001F 95F0          SUBB    A,B
0021 F0            MOVX    @DPTR,A
                                           ; SOURCE LINE # 123
0022 22            RET     
             ; FUNCTION HeatingManualDecrease (END)

             ; FUNCTION HeatingFullyClosed (BEGIN)
                                           ; SOURCE LINE # 131
                                           ; SOURCE LINE # 133
0000 7F06          MOV     R7,#06H
0002 120000  E     LCALL   _ServoFullyClosed
0005 4009          JC      ?C0010
0007 900000  E     MOV     DPTR,#ServoStatus+06H
000A E0            MOVX    A,@DPTR
000B D3            SETB    C
000C 9401          SUBB    A,#01H
000E 4003          JC      ?C0008
0010         ?C0010:
0010 D3            SETB    C
0011 8001          SJMP    ?C0009
0013         ?C0008:
0013 C3            CLR     C
0014         ?C0009:
                                           ; SOURCE LINE # 134
0014         ?C0011:
C51 COMPILER V5.50,  HEATING                                                               12/04/12  07:45:31  PAGE 11  

0014 22            RET     
             ; FUNCTION HeatingFullyClosed (END)

             ; FUNCTION HeatingCheckFailure (BEGIN)
                                           ; SOURCE LINE # 143
                                           ; SOURCE LINE # 146
0000 E4            CLR     A
0001 900000  R     MOV     DPTR,#Heating+03H
0004 F0            MOVX    @DPTR,A
                                           ; SOURCE LINE # 147
0005 900000  E     MOV     DPTR,#ServoStatus+06H
0008 E0            MOVX    A,@DPTR
0009 FF            MOV     R7,A
000A 6402          XRL     A,#02H
000C 6009          JZ      ?C0013
000E EF            MOV     A,R7
000F 6403          XRL     A,#03H
0011 6004          JZ      ?C0013
0013 EF            MOV     A,R7
0014 B40409        CJNE    A,#04H,?C0012
0017         ?C0013:
                                           ; SOURCE LINE # 148
0017 900000  R     MOV     DPTR,#Heating+03H
001A 7401          MOV     A,#01H
001C F0            MOVX    @DPTR,A
                                           ; SOURCE LINE # 149
001D 120000  E     LCALL   AlarmSet
                                           ; SOURCE LINE # 150
0020         ?C0012:
                                           ; SOURCE LINE # 153
0020 900000  R     MOV     DPTR,#HeatingCounter
0023 E0            MOVX    A,@DPTR
0024 C3            CLR     C
0025 9405          SUBB    A,#05H
0027 5004          JNC     ?C0014
                                           ; SOURCE LINE # 154
0029 E0            MOVX    A,@DPTR
002A 04            INC     A
002B F0            MOVX    @DPTR,A
                                           ; SOURCE LINE # 155
002C 22            RET     
002D         ?C0014:
                                           ; SOURCE LINE # 157
002D 900000  E     MOV     DPTR,#DinHeatingCoolingError
0030 E0            MOVX    A,@DPTR
0031 700C          JNZ     ?C0016
                                           ; SOURCE LINE # 158
0033 900000  R     MOV     DPTR,#Heating+02H
0036 04            INC     A
0037 F0            MOVX    @DPTR,A
                                           ; SOURCE LINE # 159
0038 E4            CLR     A
0039 900000  R     MOV     DPTR,#CounterErrorFree
003C F0            MOVX    @DPTR,A
                                           ; SOURCE LINE # 160
003D 8014          SJMP    ?C0017
003F         ?C0016:
                                           ; SOURCE LINE # 162
003F 900000  R     MOV     DPTR,#CounterErrorFree
0042 E0            MOVX    A,@DPTR
0043 04            INC     A
0044 F0            MOVX    @DPTR,A
                                           ; SOURCE LINE # 163
0045 E0            MOVX    A,@DPTR
0046 D3            SETB    C
0047 9405          SUBB    A,#05H
C51 COMPILER V5.50,  HEATING                                                               12/04/12  07:45:31  PAGE 12  

0049 4008          JC      ?C0017
                                           ; SOURCE LINE # 164
004B 7405          MOV     A,#05H
004D F0            MOVX    @DPTR,A
                                           ; SOURCE LINE # 165
004E E4            CLR     A
004F 900000  R     MOV     DPTR,#Heating+02H
0052 F0            MOVX    @DPTR,A
                                           ; SOURCE LINE # 166
                                           ; SOURCE LINE # 167
0053         ?C0017:
                                           ; SOURCE LINE # 168
0053 900000  R     MOV     DPTR,#Heating+02H
0056 E0            MOVX    A,@DPTR
0057 6003          JZ      ?C0020
                                           ; SOURCE LINE # 170
0059 120000  E     LCALL   AlarmSet
                                           ; SOURCE LINE # 171
                                           ; SOURCE LINE # 172
                                           ; SOURCE LINE # 173
005C         ?C0020:
005C 22            RET     
             ; FUNCTION HeatingCheckFailure (END)

             ; FUNCTION HeatingManualStart (BEGIN)
                                           ; SOURCE LINE # 179
                                           ; SOURCE LINE # 181
0000 D200    E     SETB    ?DoutSetHeating?BIT
0002 120000  E     LCALL   DoutSetHeating
                                           ; SOURCE LINE # 182
0005 7F06          MOV     R7,#06H
0007 120000  E     LCALL   _ServoResetTimer
                                           ; SOURCE LINE # 183
000A E4            CLR     A
000B 900000  R     MOV     DPTR,#Heating+02H
000E F0            MOVX    @DPTR,A
                                           ; SOURCE LINE # 184
000F A3            INC     DPTR
0010 F0            MOVX    @DPTR,A
                                           ; SOURCE LINE # 185
0011 900000  R     MOV     DPTR,#HeatingCounter
0014 F0            MOVX    @DPTR,A
                                           ; SOURCE LINE # 186
0015 C200    E     CLR     ?DoutSetHetingEconomy?BIT
0017 120000  E     LCALL   DoutSetHetingEconomy
                                           ; SOURCE LINE # 187
001A 22            RET     
             ; FUNCTION HeatingManualStart (END)

             ; FUNCTION _PrepoctiProcentaNaDAC (BEGIN)
0000 8F00    R     MOV     Procenta,R7
                                           ; SOURCE LINE # 212
                                           ; SOURCE LINE # 216
0002 E500    R     MOV     A,Procenta
0004 D3            SETB    C
0005 9464          SUBB    A,#064H
0007 4003          JC      ?C0022
                                           ; SOURCE LINE # 217
0009 750064  R     MOV     Procenta,#064H
                                           ; SOURCE LINE # 218
000C         ?C0022:
                                           ; SOURCE LINE # 222
000C E4            CLR     A
000D F500    R     MOV     j,A
000F         ?C0023:
                                           ; SOURCE LINE # 223
C51 COMPILER V5.50,  HEATING                                                               12/04/12  07:45:31  PAGE 13  

000F E500    R     MOV     A,j
0011 900000  R     MOV     DPTR,#PowerTable
0014 93            MOVC    A,@A+DPTR
0015 FF            MOV     R7,A
0016 B5000A  R     CJNE    A,Procenta,?C0026
                                           ; SOURCE LINE # 224
0019 E500    R     MOV     A,j
001B 900000  R     MOV     DPTR,#PositionTable
001E 93            MOVC    A,@A+DPTR
001F F500    R     MOV     Procenta,A
                                           ; SOURCE LINE # 225
0021 8050          SJMP    ?C0024
                                           ; SOURCE LINE # 226
0023         ?C0026:
                                           ; SOURCE LINE # 227
0023 EF            MOV     A,R7
0024 D3            SETB    C
0025 9500    R     SUBB    A,Procenta
0027 4043          JC      ?C0025
                                           ; SOURCE LINE # 232
0029 E500    R     MOV     A,j
002B 900000  R     MOV     DPTR,#PositionTable-01H
002E 93            MOVC    A,@A+DPTR
002F FF            MOV     R7,A
0030 E500    R     MOV     A,j
0032 A3            INC     DPTR
0033 93            MOVC    A,@A+DPTR
0034 C3            CLR     C
0035 9F            SUBB    A,R7
0036 FD            MOV     R5,A
0037 E4            CLR     A
0038 9400          SUBB    A,#00H
003A FC            MOV     R4,A
003B E500    R     MOV     A,j
003D 900000  R     MOV     DPTR,#PowerTable-01H
0040 93            MOVC    A,@A+DPTR
0041 F9            MOV     R1,A
0042 FF            MOV     R7,A
0043 C3            CLR     C
0044 E500    R     MOV     A,Procenta
0046 9F            SUBB    A,R7
0047 FF            MOV     R7,A
0048 E4            CLR     A
0049 9400          SUBB    A,#00H
004B FE            MOV     R6,A
004C 120000  E     LCALL   ?C?IMUL
004F E9            MOV     A,R1
0050 FD            MOV     R5,A
0051 E500    R     MOV     A,j
0053 900000  R     MOV     DPTR,#PowerTable
0056 93            MOVC    A,@A+DPTR
0057 C3            CLR     C
0058 9D            SUBB    A,R5
0059 FD            MOV     R5,A
005A E4            CLR     A
005B 9400          SUBB    A,#00H
005D FC            MOV     R4,A
005E 120000  E     LCALL   ?C?UIDIV
0061 E500    R     MOV     A,j
0063 900000  R     MOV     DPTR,#PositionTable-01H
0066 93            MOVC    A,@A+DPTR
0067 2F            ADD     A,R7
0068 F500    R     MOV     Procenta,A
                                           ; SOURCE LINE # 233
006A 8007          SJMP    ?C0024
                                           ; SOURCE LINE # 234
C51 COMPILER V5.50,  HEATING                                                               12/04/12  07:45:31  PAGE 14  

                                           ; SOURCE LINE # 235
006C         ?C0025:
006C 0500    R     INC     j
006E E500    R     MOV     A,j
0070 B4089C        CJNE    A,#08H,?C0023
0073         ?C0024:
                                           ; SOURCE LINE # 238
0073 AF00    R     MOV     R7,Procenta
0075 7E00          MOV     R6,#00H
0077 7C00          MOV     R4,#00H
0079 7D33          MOV     R5,#033H
007B 120000  E     LCALL   ?C?IMUL
007E 7D64          MOV     R5,#064H
0080 120000  E     LCALL   ?C?UIDIV
0083 EF            MOV     A,R7
0084 240B          ADD     A,#0BH
0086 FF            MOV     R7,A
0087 E4            CLR     A
0088 3E            ADDC    A,R6
                                           ; SOURCE LINE # 239
0089         ?C0028:
0089 22            RET     
             ; FUNCTION _PrepoctiProcentaNaDAC (END)

             ; FUNCTION HeatingManualExecute (BEGIN)
                                           ; SOURCE LINE # 245
                                           ; SOURCE LINE # 247
0000 D200    E     SETB    ?DoutSetHeating?BIT
0002 120000  E     LCALL   DoutSetHeating
                                           ; SOURCE LINE # 248
0005 900000  R     MOV     DPTR,#Heating
0008 E0            MOVX    A,@DPTR
0009 FF            MOV     R7,A
000A 120000  E     LCALL   _FAirCalculateServoPosition
000D 900000  R     MOV     DPTR,#Heating+01H
0010 EF            MOV     A,R7
0011 F0            MOVX    @DPTR,A
                                           ; SOURCE LINE # 249
0012 900000  E     MOV     DPTR,#DinHeatingFlame
0015 E0            MOVX    A,@DPTR
0016 900000  R     MOV     DPTR,#Heating+05H
0019 F0            MOVX    @DPTR,A
                                           ; SOURCE LINE # 251
001A 900000  R     MOV     DPTR,#Heating
001D E0            MOVX    A,@DPTR
001E FF            MOV     R7,A
001F 120000  R     LCALL   _PrepoctiProcentaNaDAC
0022 120000  E     LCALL   _AoutSetHeatingServo
                                           ; SOURCE LINE # 252
0025 120000  R     LCALL   HeatingCheckFailure
                                           ; SOURCE LINE # 253
0028 22            RET     
             ; FUNCTION HeatingManualExecute (END)

             ; FUNCTION HeatingAutoStart (BEGIN)
                                           ; SOURCE LINE # 259
                                           ; SOURCE LINE # 264
0000 D200    E     SETB    ?DoutSetHeating?BIT
0002 120000  E     LCALL   DoutSetHeating
                                           ; SOURCE LINE # 266
0005 7F06          MOV     R7,#06H
0007 120000  E     LCALL   _ServoResetTimer
                                           ; SOURCE LINE # 267
000A E4            CLR     A
000B 900000  R     MOV     DPTR,#Heating+02H
000E F0            MOVX    @DPTR,A
C51 COMPILER V5.50,  HEATING                                                               12/04/12  07:45:31  PAGE 15  

                                           ; SOURCE LINE # 268
000F A3            INC     DPTR
0010 F0            MOVX    @DPTR,A
                                           ; SOURCE LINE # 269
0011 900000  R     MOV     DPTR,#HeatingCounter
0014 F0            MOVX    @DPTR,A
                                           ; SOURCE LINE # 270
0015 900000  R     MOV     DPTR,#Heating+04H
0018 F0            MOVX    @DPTR,A
                                           ; SOURCE LINE # 271
0019 C200    E     CLR     ?DoutSetHetingEconomy?BIT
001B 120000  E     LCALL   DoutSetHetingEconomy
                                           ; SOURCE LINE # 273
001E 900000  R     MOV     DPTR,#Heating+0CH
0021 120000  E     LCALL   ?C?LSTKXDATA
0024 00            DB      #00H
0025 00            DB      #00H
0026 00            DB      #00H
0027 00            DB      #00H
                                           ; SOURCE LINE # 274
0028 900000  R     MOV     DPTR,#Heating+010H
002B 749C          MOV     A,#09CH
002D F0            MOVX    @DPTR,A
002E A3            INC     DPTR
002F E4            CLR     A
0030 F0            MOVX    @DPTR,A
                                           ; SOURCE LINE # 275
0031 900000  R     MOV     DPTR,#Step
0034 7409          MOV     A,#09H
0036 F0            MOVX    @DPTR,A
                                           ; SOURCE LINE # 276
0037 22            RET     
             ; FUNCTION HeatingAutoStart (END)

             ; FUNCTION _HeatingRegulatorStep (BEGIN)
0000 8E00    R     MOV     temp,R6
0002 8F00    R     MOV     temp+01H,R7
                                           ; SOURCE LINE # 313
                                           ; SOURCE LINE # 322
0004 E4            CLR     A
0005 B5000B  R     CJNE    A,temp+01H,?C0031
0008 E500    R     MOV     A,temp
000A B49C06        CJNE    A,#09CH,?C0031
                                           ; SOURCE LINE # 324
000D E4            CLR     A
000E 900000  R     MOV     DPTR,#Heating
0011 F0            MOVX    @DPTR,A
0012 22            RET     
                                           ; SOURCE LINE # 326
0013         ?C0031:
                                           ; SOURCE LINE # 328
0013 900000  R     MOV     DPTR,#Step
0016 E0            MOVX    A,@DPTR
0017 04            INC     A
0018 F0            MOVX    @DPTR,A
0019 C3            CLR     C
001A 940A          SUBB    A,#0AH
001C 5003          JNC     $ + 5H
001E 020000  R     LJMP    ?C0032
                                           ; SOURCE LINE # 329
0021 E4            CLR     A
0022 F0            MOVX    @DPTR,A
                                           ; SOURCE LINE # 330
                                           ; SOURCE LINE # 332
0023         ?C0034:
                                           ; SOURCE LINE # 334
C51 COMPILER V5.50,  HEATING                                                               12/04/12  07:45:31  PAGE 16  

0023 C3            CLR     C
0024 900000  E     MOV     DPTR,#RequestedTemperature+01H
0027 E0            MOVX    A,@DPTR
0028 9500    R     SUBB    A,temp+01H
002A F500    R     MOV     err+01H,A
002C 900000  E     MOV     DPTR,#RequestedTemperature
002F E0            MOVX    A,@DPTR
0030 9500    R     SUBB    A,temp
0032 F500    R     MOV     err,A
                                           ; SOURCE LINE # 335
0034 900000  R     MOV     DPTR,#Heating+06H
0037 F0            MOVX    @DPTR,A
0038 A3            INC     DPTR
0039 E500    R     MOV     A,err+01H
003B F0            MOVX    @DPTR,A
                                           ; SOURCE LINE # 336
003C AE00    R     MOV     R6,err
003E 7804          MOV     R0,#04H
0040         ?C0059:
0040 CE            XCH     A,R6
0041 A2E7          MOV     C,ACC.7
0043 13            RRC     A
0044 CE            XCH     A,R6
0045 13            RRC     A
0046 D8F8          DJNZ    R0,?C0059
0048 F500    R     MOV     err+01H,A
004A 8E00    R     MOV     err,R6
                                           ; SOURCE LINE # 339
004C FF            MOV     R7,A
004D EE            MOV     A,R6
004E 33            RLC     A
004F 95E0          SUBB    A,ACC
0051 FD            MOV     R5,A
0052 FC            MOV     R4,A
0053 900000  E     MOV     DPTR,#Config+09H
0056 E0            MOVX    A,@DPTR
0057 F8            MOV     R0,A
0058 A3            INC     DPTR
0059 E0            MOVX    A,@DPTR
005A F9            MOV     R1,A
005B A3            INC     DPTR
005C E0            MOVX    A,@DPTR
005D FA            MOV     R2,A
005E A3            INC     DPTR
005F E0            MOVX    A,@DPTR
0060 FB            MOV     R3,A
0061 120000  E     LCALL   ?C?LMUL
0064 7BE8          MOV     R3,#0E8H
0066 7A03          MOV     R2,#03H
0068 7900          MOV     R1,#00H
006A 7800          MOV     R0,#00H
006C 120000  E     LCALL   ?C?SLDIV
006F 900000  R     MOV     DPTR,#Heating+08H
0072 120000  E     LCALL   ?C?LSTXDATA
                                           ; SOURCE LINE # 346
0075 7F00          MOV     R7,#00H
0077 7E00          MOV     R6,#00H
0079 7D00          MOV     R5,#00H
007B 7C00          MOV     R4,#00H
007D 900000  E     MOV     DPTR,#Config+0DH
0080 E0            MOVX    A,@DPTR
0081 F8            MOV     R0,A
0082 A3            INC     DPTR
0083 E0            MOVX    A,@DPTR
0084 F9            MOV     R1,A
0085 A3            INC     DPTR
C51 COMPILER V5.50,  HEATING                                                               12/04/12  07:45:31  PAGE 17  

0086 E0            MOVX    A,@DPTR
0087 FA            MOV     R2,A
0088 A3            INC     DPTR
0089 E0            MOVX    A,@DPTR
008A FB            MOV     R3,A
008B D3            SETB    C
008C 120000  E     LCALL   ?C?SLCMP
008F 5003          JNC     $ + 5H
0091 020000  R     LJMP    ?C0035
                                           ; SOURCE LINE # 348
0094 900000  R     MOV     DPTR,#Heating+0CH
0097 E0            MOVX    A,@DPTR
0098 FC            MOV     R4,A
0099 A3            INC     DPTR
009A E0            MOVX    A,@DPTR
009B FD            MOV     R5,A
009C A3            INC     DPTR
009D E0            MOVX    A,@DPTR
009E FE            MOV     R6,A
009F A3            INC     DPTR
00A0 E0            MOVX    A,@DPTR
00A1 F500    R     MOV     i+03H,A
00A3 8E00    R     MOV     i+02H,R6
00A5 8D00    R     MOV     i+01H,R5
00A7 8C00    R     MOV     i,R4
                                           ; SOURCE LINE # 349
00A9 7F40          MOV     R7,#040H
00AB 7E06          MOV     R6,#06H
00AD 7D00          MOV     R5,#00H
00AF 7C00          MOV     R4,#00H
00B1 900000  R     MOV     DPTR,#Heating+08H
00B4 E0            MOVX    A,@DPTR
00B5 F8            MOV     R0,A
00B6 A3            INC     DPTR
00B7 E0            MOVX    A,@DPTR
00B8 F9            MOV     R1,A
00B9 A3            INC     DPTR
00BA E0            MOVX    A,@DPTR
00BB FA            MOV     R2,A
00BC A3            INC     DPTR
00BD E0            MOVX    A,@DPTR
00BE FB            MOV     R3,A
00BF C3            CLR     C
00C0 120000  E     LCALL   ?C?SLCMP
00C3 505E          JNC     ?C0036
                                           ; SOURCE LINE # 351
00C5 7BE8          MOV     R3,#0E8H
00C7 7A03          MOV     R2,#03H
00C9 7900          MOV     R1,#00H
00CB 7800          MOV     R0,#00H
00CD 900000  E     MOV     DPTR,#Config+09H
00D0 E0            MOVX    A,@DPTR
00D1 FC            MOV     R4,A
00D2 A3            INC     DPTR
00D3 E0            MOVX    A,@DPTR
00D4 FD            MOV     R5,A
00D5 A3            INC     DPTR
00D6 E0            MOVX    A,@DPTR
00D7 FE            MOV     R6,A
00D8 A3            INC     DPTR
00D9 E0            MOVX    A,@DPTR
00DA FF            MOV     R7,A
00DB 120000  E     LCALL   ?C?SLDIV
00DE 7BE8          MOV     R3,#0E8H
00E0 7A03          MOV     R2,#03H
00E2 7900          MOV     R1,#00H
C51 COMPILER V5.50,  HEATING                                                               12/04/12  07:45:31  PAGE 18  

00E4 7800          MOV     R0,#00H
00E6 120000  E     LCALL   ?C?LMUL
00E9 A804          MOV     R0,AR4
00EB A905          MOV     R1,AR5
00ED AA06          MOV     R2,AR6
00EF AB07          MOV     R3,AR7
00F1 AE00    R     MOV     R6,err
00F3 AF00    R     MOV     R7,err+01H
00F5 EE            MOV     A,R6
00F6 33            RLC     A
00F7 95E0          SUBB    A,ACC
00F9 FD            MOV     R5,A
00FA FC            MOV     R4,A
00FB 120000  E     LCALL   ?C?LMUL
00FE 900000  E     MOV     DPTR,#Config+0DH
0101 E0            MOVX    A,@DPTR
0102 F8            MOV     R0,A
0103 A3            INC     DPTR
0104 E0            MOVX    A,@DPTR
0105 F9            MOV     R1,A
0106 A3            INC     DPTR
0107 E0            MOVX    A,@DPTR
0108 FA            MOV     R2,A
0109 A3            INC     DPTR
010A E0            MOVX    A,@DPTR
010B FB            MOV     R3,A
010C 120000  E     LCALL   ?C?SLDIV
010F E500    R     MOV     A,i+03H
0111 2F            ADD     A,R7
0112 F500    R     MOV     i+03H,A
0114 E500    R     MOV     A,i+02H
0116 3E            ADDC    A,R6
0117 F500    R     MOV     i+02H,A
0119 E500    R     MOV     A,i+01H
011B 3D            ADDC    A,R5
011C F500    R     MOV     i+01H,A
011E E500    R     MOV     A,i
0120 3C            ADDC    A,R4
0121 F500    R     MOV     i,A
                                           ; SOURCE LINE # 352
0123         ?C0036:
                                           ; SOURCE LINE # 354
0123 7F00          MOV     R7,#00H
0125 7E71          MOV     R6,#071H
0127 7D02          MOV     R5,#02H
0129 7C00          MOV     R4,#00H
012B AB00    R     MOV     R3,i+03H
012D AA00    R     MOV     R2,i+02H
012F A900    R     MOV     R1,i+01H
0131 A800    R     MOV     R0,i
0133 D3            SETB    C
0134 120000  E     LCALL   ?C?SLCMP
0137 400E          JC      ?C0037
                                           ; SOURCE LINE # 355
0139 750000  R     MOV     i+03H,#00H
013C 750071  R     MOV     i+02H,#071H
013F 750002  R     MOV     i+01H,#02H
0142 750000  R     MOV     i,#00H
                                           ; SOURCE LINE # 356
0145 8030          SJMP    ?C0040
0147         ?C0037:
0147 7F00          MOV     R7,#00H
0149 7E00          MOV     R6,#00H
014B 7D00          MOV     R5,#00H
014D 7C00          MOV     R4,#00H
014F AB00    R     MOV     R3,i+03H
C51 COMPILER V5.50,  HEATING                                                               12/04/12  07:45:31  PAGE 19  

0151 AA00    R     MOV     R2,i+02H
0153 A900    R     MOV     R1,i+01H
0155 A800    R     MOV     R0,i
0157 C3            CLR     C
0158 120000  E     LCALL   ?C?SLCMP
015B 501A          JNC     ?C0040
                                           ; SOURCE LINE # 357
015D 750000  R     MOV     i+03H,#00H
0160 750000  R     MOV     i+02H,#00H
0163 750000  R     MOV     i+01H,#00H
0166 750000  R     MOV     i,#00H
                                           ; SOURCE LINE # 358
                                           ; SOURCE LINE # 359
0169 800C          SJMP    ?C0040
016B         ?C0035:
                                           ; SOURCE LINE # 361
016B 750000  R     MOV     i+03H,#00H
016E 750000  R     MOV     i+02H,#00H
0171 750000  R     MOV     i+01H,#00H
0174 750000  R     MOV     i,#00H
                                           ; SOURCE LINE # 362
0177         ?C0040:
                                           ; SOURCE LINE # 363
0177 AF00    R     MOV     R7,i+03H
0179 AE00    R     MOV     R6,i+02H
017B AD00    R     MOV     R5,i+01H
017D AC00    R     MOV     R4,i
017F 900000  R     MOV     DPTR,#Heating+0CH
0182 120000  E     LCALL   ?C?LSTXDATA
                                           ; SOURCE LINE # 366
0185 900000  R     MOV     DPTR,#Heating+010H
0188 E0            MOVX    A,@DPTR
0189 B49C10        CJNE    A,#09CH,?C0041
018C A3            INC     DPTR
018D E0            MOVX    A,@DPTR
018E B4000B        CJNE    A,#00H,?C0041
                                           ; SOURCE LINE # 368
0191 A3            INC     DPTR
0192 120000  E     LCALL   ?C?LSTKXDATA
0195 00            DB      #00H
0196 00            DB      #00H
0197 00            DB      #00H
0198 00            DB      #00H
                                           ; SOURCE LINE # 369
0199 020000  R     LJMP    ?C0042
019C         ?C0041:
019C D3            SETB    C
019D 900000  E     MOV     DPTR,#Config+01AH
01A0 E0            MOVX    A,@DPTR
01A1 9400          SUBB    A,#00H
01A3 900000  E     MOV     DPTR,#Config+019H
01A6 E0            MOVX    A,@DPTR
01A7 9400          SUBB    A,#00H
01A9 5003          JNC     $ + 5H
01AB 020000  R     LJMP    ?C0042
                                           ; SOURCE LINE # 371
01AE 7BE8          MOV     R3,#0E8H
01B0 7A03          MOV     R2,#03H
01B2 7900          MOV     R1,#00H
01B4 7800          MOV     R0,#00H
01B6 900000  E     MOV     DPTR,#Config+09H
01B9 E0            MOVX    A,@DPTR
01BA FC            MOV     R4,A
01BB A3            INC     DPTR
01BC E0            MOVX    A,@DPTR
01BD FD            MOV     R5,A
C51 COMPILER V5.50,  HEATING                                                               12/04/12  07:45:31  PAGE 20  

01BE A3            INC     DPTR
01BF E0            MOVX    A,@DPTR
01C0 FE            MOV     R6,A
01C1 A3            INC     DPTR
01C2 E0            MOVX    A,@DPTR
01C3 FF            MOV     R7,A
01C4 120000  E     LCALL   ?C?SLDIV
01C7 A804          MOV     R0,AR4
01C9 A905          MOV     R1,AR5
01CB AA06          MOV     R2,AR6
01CD AB07          MOV     R3,AR7
01CF 900000  E     MOV     DPTR,#Config+019H
01D2 E0            MOVX    A,@DPTR
01D3 FE            MOV     R6,A
01D4 A3            INC     DPTR
01D5 E0            MOVX    A,@DPTR
01D6 FF            MOV     R7,A
01D7 E4            CLR     A
01D8 FC            MOV     R4,A
01D9 FD            MOV     R5,A
01DA 120000  E     LCALL   ?C?LMUL
01DD A804          MOV     R0,AR4
01DF A905          MOV     R1,AR5
01E1 AA06          MOV     R2,AR6
01E3 AB07          MOV     R3,AR7
01E5 C3            CLR     C
01E6 900000  R     MOV     DPTR,#Heating+011H
01E9 E0            MOVX    A,@DPTR
01EA 9500    R     SUBB    A,temp+01H
01EC FF            MOV     R7,A
01ED 900000  R     MOV     DPTR,#Heating+010H
01F0 E0            MOVX    A,@DPTR
01F1 9500    R     SUBB    A,temp
01F3 FE            MOV     R6,A
01F4 33            RLC     A
01F5 95E0          SUBB    A,ACC
01F7 FD            MOV     R5,A
01F8 FC            MOV     R4,A
01F9 120000  E     LCALL   ?C?LMUL
01FC 7B0A          MOV     R3,#0AH
01FE 7A00          MOV     R2,#00H
0200 7900          MOV     R1,#00H
0202 7800          MOV     R0,#00H
0204 120000  E     LCALL   ?C?SLDIV
0207 7B10          MOV     R3,#010H
0209 7A00          MOV     R2,#00H
020B 7900          MOV     R1,#00H
020D 7800          MOV     R0,#00H
020F 120000  E     LCALL   ?C?SLDIV
0212 900000  R     MOV     DPTR,#Heating+012H
0215 120000  E     LCALL   ?C?LSTXDATA
                                           ; SOURCE LINE # 373
0218 7F40          MOV     R7,#040H
021A 7E06          MOV     R6,#06H
021C 7D00          MOV     R5,#00H
021E 7C00          MOV     R4,#00H
0220 900000  R     MOV     DPTR,#Heating+012H
0223 E0            MOVX    A,@DPTR
0224 F8            MOV     R0,A
0225 A3            INC     DPTR
0226 E0            MOVX    A,@DPTR
0227 F9            MOV     R1,A
0228 A3            INC     DPTR
0229 E0            MOVX    A,@DPTR
022A FA            MOV     R2,A
022B A3            INC     DPTR
C51 COMPILER V5.50,  HEATING                                                               12/04/12  07:45:31  PAGE 21  

022C E0            MOVX    A,@DPTR
022D FB            MOV     R3,A
022E D3            SETB    C
022F 120000  E     LCALL   ?C?SLCMP
0232 400C          JC      ?C0044
                                           ; SOURCE LINE # 374
0234 900000  R     MOV     DPTR,#Heating+012H
0237 120000  E     LCALL   ?C?LSTKXDATA
023A 00            DB      #00H
023B 00            DB      #00H
023C 06            DB      #06H
023D 40            DB      #040H
                                           ; SOURCE LINE # 375
023E 8026          SJMP    ?C0042
0240         ?C0044:
0240 7FC0          MOV     R7,#0C0H
0242 7EF9          MOV     R6,#0F9H
0244 7DFF          MOV     R5,#0FFH
0246 7CFF          MOV     R4,#0FFH
0248 900000  R     MOV     DPTR,#Heating+012H
024B E0            MOVX    A,@DPTR
024C F8            MOV     R0,A
024D A3            INC     DPTR
024E E0            MOVX    A,@DPTR
024F F9            MOV     R1,A
0250 A3            INC     DPTR
0251 E0            MOVX    A,@DPTR
0252 FA            MOV     R2,A
0253 A3            INC     DPTR
0254 E0            MOVX    A,@DPTR
0255 FB            MOV     R3,A
0256 C3            CLR     C
0257 120000  E     LCALL   ?C?SLCMP
025A 500A          JNC     ?C0042
                                           ; SOURCE LINE # 376
025C 900000  R     MOV     DPTR,#Heating+012H
025F 120000  E     LCALL   ?C?LSTKXDATA
0262 FF            DB      #0FFH
0263 FF            DB      #0FFH
0264 F9            DB      #0F9H
0265 C0            DB      #0C0H
                                           ; SOURCE LINE # 377
                                           ; SOURCE LINE # 378
0266         ?C0042:
                                           ; SOURCE LINE # 379
0266 900000  R     MOV     DPTR,#Heating+010H
0269 E500    R     MOV     A,temp
026B F0            MOVX    @DPTR,A
026C A3            INC     DPTR
026D E500    R     MOV     A,temp+01H
026F F0            MOVX    @DPTR,A
                                           ; SOURCE LINE # 382
0270 AF00    R     MOV     R7,i+03H
0272 AE00    R     MOV     R6,i+02H
0274 AD00    R     MOV     R5,i+01H
0276 AC00    R     MOV     R4,i
0278 7B64          MOV     R3,#064H
027A 7A00          MOV     R2,#00H
027C 7900          MOV     R1,#00H
027E 7800          MOV     R0,#00H
0280 120000  E     LCALL   ?C?SLDIV
0283 8F00    R     MOV     i+03H,R7
0285 8E00    R     MOV     i+02H,R6
0287 8D00    R     MOV     i+01H,R5
0289 8C00    R     MOV     i,R4
                                           ; SOURCE LINE # 383
C51 COMPILER V5.50,  HEATING                                                               12/04/12  07:45:31  PAGE 22  

028B 900000  R     MOV     DPTR,#Heating+08H
028E E0            MOVX    A,@DPTR
028F FC            MOV     R4,A
0290 A3            INC     DPTR
0291 E0            MOVX    A,@DPTR
0292 FD            MOV     R5,A
0293 A3            INC     DPTR
0294 E0            MOVX    A,@DPTR
0295 FE            MOV     R6,A
0296 A3            INC     DPTR
0297 E0            MOVX    A,@DPTR
0298 2500    R     ADD     A,i+03H
029A F500    R     MOV     i+03H,A
029C EE            MOV     A,R6
029D 3500    R     ADDC    A,i+02H
029F F500    R     MOV     i+02H,A
02A1 ED            MOV     A,R5
02A2 3500    R     ADDC    A,i+01H
02A4 F500    R     MOV     i+01H,A
02A6 EC            MOV     A,R4
02A7 3500    R     ADDC    A,i
02A9 F500    R     MOV     i,A
                                           ; SOURCE LINE # 384
02AB 900000  R     MOV     DPTR,#Heating+012H
02AE E0            MOVX    A,@DPTR
02AF FC            MOV     R4,A
02B0 A3            INC     DPTR
02B1 E0            MOVX    A,@DPTR
02B2 FD            MOV     R5,A
02B3 A3            INC     DPTR
02B4 E0            MOVX    A,@DPTR
02B5 FE            MOV     R6,A
02B6 A3            INC     DPTR
02B7 E0            MOVX    A,@DPTR
02B8 2500    R     ADD     A,i+03H
02BA F500    R     MOV     i+03H,A
02BC EE            MOV     A,R6
02BD 3500    R     ADDC    A,i+02H
02BF F500    R     MOV     i+02H,A
02C1 ED            MOV     A,R5
02C2 3500    R     ADDC    A,i+01H
02C4 F500    R     MOV     i+01H,A
02C6 EC            MOV     A,R4
02C7 3500    R     ADDC    A,i
02C9 F500    R     MOV     i,A
                                           ; SOURCE LINE # 385
02CB AF00    R     MOV     R7,i+03H
02CD AE00    R     MOV     R6,i+02H
02CF AD00    R     MOV     R5,i+01H
02D1 FC            MOV     R4,A
02D2 7B10          MOV     R3,#010H
02D4 7A00          MOV     R2,#00H
02D6 7900          MOV     R1,#00H
02D8 7800          MOV     R0,#00H
02DA 120000  E     LCALL   ?C?SLDIV
02DD 8F00    R     MOV     i+03H,R7
02DF 8E00    R     MOV     i+02H,R6
02E1 8D00    R     MOV     i+01H,R5
02E3 8C00    R     MOV     i,R4
                                           ; SOURCE LINE # 386
02E5 E4            CLR     A
02E6 2500    R     ADD     A,i+03H
02E8 F500    R     MOV     i+03H,A
02EA E4            CLR     A
02EB 3500    R     ADDC    A,i+02H
02ED F500    R     MOV     i+02H,A
C51 COMPILER V5.50,  HEATING                                                               12/04/12  07:45:31  PAGE 23  

02EF E4            CLR     A
02F0 3500    R     ADDC    A,i+01H
02F2 F500    R     MOV     i+01H,A
02F4 E4            CLR     A
02F5 3500    R     ADDC    A,i
02F7 F500    R     MOV     i,A
                                           ; SOURCE LINE # 388
02F9 7F64          MOV     R7,#064H
02FB 7E00          MOV     R6,#00H
02FD 7D00          MOV     R5,#00H
02FF 7C00          MOV     R4,#00H
0301 AB00    R     MOV     R3,i+03H
0303 AA00    R     MOV     R2,i+02H
0305 A900    R     MOV     R1,i+01H
0307 F8            MOV     R0,A
0308 D3            SETB    C
0309 120000  E     LCALL   ?C?SLCMP
030C 400E          JC      ?C0047
                                           ; SOURCE LINE # 389
030E 750064  R     MOV     i+03H,#064H
0311 750000  R     MOV     i+02H,#00H
0314 750000  R     MOV     i+01H,#00H
0317 750000  R     MOV     i,#00H
                                           ; SOURCE LINE # 390
031A 8022          SJMP    ?C0048
031C         ?C0047:
031C 7F00          MOV     R7,#00H
031E 7E00          MOV     R6,#00H
0320 7D00          MOV     R5,#00H
0322 7C00          MOV     R4,#00H
0324 AB00    R     MOV     R3,i+03H
0326 AA00    R     MOV     R2,i+02H
0328 A900    R     MOV     R1,i+01H
032A A800    R     MOV     R0,i
032C C3            CLR     C
032D 120000  E     LCALL   ?C?SLCMP
0330 500C          JNC     ?C0048
                                           ; SOURCE LINE # 391
0332 750000  R     MOV     i+03H,#00H
0335 750000  R     MOV     i+02H,#00H
0338 750000  R     MOV     i+01H,#00H
033B 750000  R     MOV     i,#00H
                                           ; SOURCE LINE # 392
033E         ?C0048:
                                           ; SOURCE LINE # 393
033E 900000  R     MOV     DPTR,#Heating
0341 E500    R     MOV     A,i+03H
0343 F0            MOVX    @DPTR,A
                                           ; SOURCE LINE # 394
0344         ?C0032:
0344 22            RET     
             ; FUNCTION _HeatingRegulatorStep (END)

             ; FUNCTION _HeatingAutoExecute (BEGIN)
0000 8E00    R     MOV     Average,R6
0002 8F00    R     MOV     Average+01H,R7
                                           ; SOURCE LINE # 396
                                           ; SOURCE LINE # 398
0004 D200    E     SETB    ?DoutSetHeating?BIT
0006 120000  E     LCALL   DoutSetHeating
                                           ; SOURCE LINE # 399
0009 AF00    R     MOV     R7,Average+01H
000B AE00    R     MOV     R6,Average
000D 120000  R     LCALL   _HeatingRegulatorStep
                                           ; SOURCE LINE # 400
0010 900000  R     MOV     DPTR,#Heating
C51 COMPILER V5.50,  HEATING                                                               12/04/12  07:45:31  PAGE 24  

0013 E0            MOVX    A,@DPTR
0014 FF            MOV     R7,A
0015 120000  E     LCALL   _FAirCalculateServoPosition
0018 900000  R     MOV     DPTR,#Heating+01H
001B EF            MOV     A,R7
001C F0            MOVX    @DPTR,A
                                           ; SOURCE LINE # 401
001D 900000  E     MOV     DPTR,#DinHeatingFlame
0020 E0            MOVX    A,@DPTR
0021 900000  R     MOV     DPTR,#Heating+05H
0024 F0            MOVX    @DPTR,A
                                           ; SOURCE LINE # 402
0025 900000  R     MOV     DPTR,#Heating
0028 E0            MOVX    A,@DPTR
0029 FF            MOV     R7,A
002A 120000  R     LCALL   _PrepoctiProcentaNaDAC
002D 120000  E     LCALL   _AoutSetHeatingServo
                                           ; SOURCE LINE # 403
0030 120000  R     LCALL   HeatingCheckFailure
                                           ; SOURCE LINE # 406
0033 E500    R     MOV     A,Average+01H
0035 7004          JNZ     ?C0061
0037 E500    R     MOV     A,Average
0039 649C          XRL     A,#09CH
003B         ?C0061:
003B 600B          JZ      ?C0051
003D C3            CLR     C
003E 900000  E     MOV     DPTR,#Temp+08H
0041 E0            MOVX    A,@DPTR
0042 6480          XRL     A,#080H
0044 948A          SUBB    A,#08AH
0046 5007          JNC     ?C0050
0048         ?C0051:
                                           ; SOURCE LINE # 409
0048 E4            CLR     A
0049 900000  R     MOV     DPTR,#Heating+04H
004C F0            MOVX    @DPTR,A
                                           ; SOURCE LINE # 410
004D 804D          SJMP    ?C0052
004F         ?C0050:
004F 900000  R     MOV     DPTR,#Heating+04H
0052 E0            MOVX    A,@DPTR
0053 6024          JZ      ?C0053
                                           ; SOURCE LINE # 412
0055 900000  E     MOV     DPTR,#RequestedTemperature+01H
0058 E0            MOVX    A,@DPTR
0059 2480          ADD     A,#080H
005B FF            MOV     R7,A
005C 900000  E     MOV     DPTR,#RequestedTemperature
005F E0            MOVX    A,@DPTR
0060 34FC          ADDC    A,#0FCH
0062 FE            MOV     R6,A
0063 C3            CLR     C
0064 E500    R     MOV     A,Average+01H
0066 9F            SUBB    A,R7
0067 EE            MOV     A,R6
0068 6480          XRL     A,#080H
006A F8            MOV     R0,A
006B E500    R     MOV     A,Average
006D 6480          XRL     A,#080H
006F 98            SUBB    A,R0
0070 502A          JNC     ?C0052
                                           ; SOURCE LINE # 414
0072 E4            CLR     A
0073 900000  R     MOV     DPTR,#Heating+04H
0076 F0            MOVX    @DPTR,A
C51 COMPILER V5.50,  HEATING                                                               12/04/12  07:45:31  PAGE 25  

                                           ; SOURCE LINE # 415
                                           ; SOURCE LINE # 416
0077 8023          SJMP    ?C0052
0079         ?C0053:
                                           ; SOURCE LINE # 418
0079 900000  E     MOV     DPTR,#RequestedTemperature+01H
007C E0            MOVX    A,@DPTR
007D 2480          ADD     A,#080H
007F FF            MOV     R7,A
0080 900000  E     MOV     DPTR,#RequestedTemperature
0083 E0            MOVX    A,@DPTR
0084 34FD          ADDC    A,#0FDH
0086 FE            MOV     R6,A
0087 C3            CLR     C
0088 E500    R     MOV     A,Average+01H
008A 9F            SUBB    A,R7
008B EE            MOV     A,R6
008C 6480          XRL     A,#080H
008E F8            MOV     R0,A
008F E500    R     MOV     A,Average
0091 6480          XRL     A,#080H
0093 98            SUBB    A,R0
0094 4006          JC      ?C0052
                                           ; SOURCE LINE # 420
0096 900000  R     MOV     DPTR,#Heating+04H
0099 7401          MOV     A,#01H
009B F0            MOVX    @DPTR,A
                                           ; SOURCE LINE # 421
                                           ; SOURCE LINE # 422
009C         ?C0052:
                                           ; SOURCE LINE # 423
009C 900000  R     MOV     DPTR,#Heating+04H
009F E0            MOVX    A,@DPTR
00A0 24FF          ADD     A,#0FFH
00A2 9200    E     MOV     ?DoutSetHetingEconomy?BIT,C
00A4 120000  E     LCALL   DoutSetHetingEconomy
                                           ; SOURCE LINE # 424
00A7 22            RET     
             ; FUNCTION _HeatingAutoExecute (END)



MODULE INFORMATION:   STATIC OVERLAYABLE
   CODE SIZE        =   1491    ----
   CONSTANT SIZE    =     16    ----
   XDATA SIZE       =     25    ----
   PDATA SIZE       =   ----    ----
   DATA SIZE        =   ----      12
   IDATA SIZE       =   ----    ----
   BIT SIZE         =   ----    ----
END OF MODULE INFORMATION.


C51 COMPILATION COMPLETE.  0 WARNING(S),  0 ERROR(S)
