C51 COMPILER V5.50,  TEMP                                                                  12/04/12  07:45:30  PAGE 1   


DOS C51 COMPILER V5.50, COMPILATION OF MODULE TEMP
OBJECT MODULE PLACED IN TEMP.OBJ
COMPILER INVOKED BY: E:\C51_V5.5\BIN\C51.EXE TEMP.C51 CD DB

stmt level    source

   1          //*****************************************************************************
   2          //
   3          //    Temp.c - Teplomery
   4          //    Version 1.0
   5          //
   6          //*****************************************************************************
   7          
   8          #include "Temp.h"
   9          #include "..\inc\Thermo.h"      // Cteni teplot
  10          
  11          // Definice teplot
  12          int __xdata__  Temp[TEMP_COUNT];      // Teploty ve vnitrnim formatu
  13          char __xdata__ Temp1C[TEMP_COUNT];    // Teploty zaokrouhlene na 1 stupen
  14          int __xdata__  Temp01C[TEMP_COUNT];   // Teploty zaokrouhlene na desetinu stupne
  15          
  16          // Celkovy pocet chyb (pro diagnostiku)
  17          word __xdata__ TempTotalErrorCounter[TEMP_COUNT];       // Celkovy pocet neplatnych nacteni u jednotlivych
             - teplomeru od zapnuti jednotky
  18          
  19          #ifndef __TMCREMOTE__
  20          
  21          // Promenne pro prumerovani teplot po celou dobu periody ukladani
  22          // Perioda muze byt maximalne 99minut a merim kazdou sekundu => max. 99 * 60 = 5940 vzorku a max. suma muz
             -e byt 99 * 60 * 99.9C = 5880600 stupnu.
  23          static long __xdata__ SumaTeplot[TEMP_COUNT];   // Suma na desetiny stupne
  24          static word __xdata__ PocetTeplot[TEMP_COUNT];  // POcet prvku v sume
  25          
  26          // Osetreni chybneho nacteni
  27          static byte __xdata__ ErrorCounter[TEMP_COUNT]; // Pocet neplatnych nacteni u jednotlivych teplomeru
  28          #define MAX_ERRORS      10                      // Maximalni pocet chyb pri nacitani teploty, pri kterem s
             -e ohlasi odpojene cidlo
  29          
  30          //-----------------------------------------------------------------------------
  31          // Inicializace
  32          //-----------------------------------------------------------------------------
  33          
  34          void TemperatureInit() {
  35   1        // Inicializuje teplomery (fce TempInit() uz je definovana)
  36   1        byte c;
  37   1      
  38   1        ThermoInit();
  39   1        // Nastavim pocatecni hodnoty teplot (kdyby bylo po startu odpojene cidlo, trcela by tam MAX_ERRORS seku
             -nd nahodna teplota) a vynuluju pocet chyb
  40   1        for (c = 0; c < TEMP_COUNT; c++) {
  41   2          Temp[c]                  = 0;
  42   2          Temp1C[c]                = 0;
  43   2          Temp01C[c]               = 0;
  44   2          ErrorCounter[c]          = 0;
  45   2          TempTotalErrorCounter[c] = 0;
  46   2        }//for
  47   1      }
  48          
  49          //-----------------------------------------------------------------------------
  50          // Cteni teplot
  51          //-----------------------------------------------------------------------------
  52          
  53          void TemperatureRead() {
  54   1        // Nacte vsechny teploty a ulozi je do lokalnich promennych
  55   1        ThermoMeasure();
C51 COMPILER V5.50,  TEMP                                                                  12/04/12  07:45:30  PAGE 2   

  56   1      }
  57          
  58          //-----------------------------------------------------------------------------
  59          // Nulovani prumerovani
  60          //-----------------------------------------------------------------------------
  61          
  62          void TempClearAverages() {
  63   1        // Vynuluje prumerovani teplot
  64   1        byte c;
  65   1        for (c = 0; c < TEMP_COUNT; c++) {
  66   2          SumaTeplot[c]  = 0;
  67   2          PocetTeplot[c] = 0;
  68   2        }//for
  69   1      }
  70          
  71          //-----------------------------------------------------------------------------
  72          // Vypocet prumeru teploty
  73          //-----------------------------------------------------------------------------
  74          
  75          int TempCountAverage(byte address) {
  76   1        // Vypocte a vrati prumer u zadane teploty. Teplota je na desetiny stupne (12.3C = 123)
  77   1        if (address >= TEMP_COUNT || PocetTeplot[address] == 0) {
  78   2          return TEMP_INVALID_01C;   // Nejaka divna adresa nebo v sume neni zadna tepota
  79   2        } else {
  80   2          // Nemusim nijak zaokrouhlovat, max. chyba bude 0.1C
  81   2          return (long)(SumaTeplot[address] / (long)PocetTeplot[address]);
  82   2        }//else
  83   1      }
  84          
  85          //-----------------------------------------------------------------------------
  86          // Callback teploty
  87          //-----------------------------------------------------------------------------
  88          
  89          void AlogTemperature( byte channel, int value) {
  90   1        // Ulozi zadanou teplotu do lokalni promenne (tuto fci vola fce ThermoMeasure(), kvuli kompatibilite s A
             -uto musi mit tento nazev)
  91   1        // Prototyp je definovany v Hardware.h, aby fce byla pristupna pro modul Thermo.c
  92   1        if (value == TEMP_INVALID) {
  93   2          // Teplotu se v tomto kroku nepodarilo nacist
  94   2          TempTotalErrorCounter[channel]++;           // Celkovy pocet chyb (pro diagnostiku)
  95   2          ErrorCounter[channel]++;
  96   2          if (ErrorCounter[channel] > MAX_ERRORS) {
  97   3            // Cidlo je opravdu odpojene
  98   3            ErrorCounter[channel] = MAX_ERRORS;       // Omezim, aby nepreteklo
  99   3            Temp[channel]    = AUTO_TEMP_ERROR;
 100   3            Temp1C[channel]  = TEMP_INVALID_1C;
 101   3            Temp01C[channel] = TEMP_INVALID_01C;
 102   3          }// else zatim necham puvodni hodnotu teplomeru
 103   2          return;
 104   2        }//if
 105   1        // Teplota v poradku
 106   1        Temp[channel]    = value;
 107   1        Temp1C[channel]  = TempConvert1C(value);
 108   1        Temp01C[channel] = TempConvert01C(value);
 109   1        // Nuluju pocet chybnych cteni
 110   1        ErrorCounter[channel] = 0;
 111   1        // Prictu zmerenou teplotu do sumy
 112   1        SumaTeplot[channel] += Temp01C[channel];  // Pricitam teplotu na desetiny
 113   1        PocetTeplot[channel]++;
 114   1      } // AlogTemperature
 115          
 116          //-----------------------------------------------------------------------------
 117          // Vypocet prumeru teploty podle lozeni
 118          //-----------------------------------------------------------------------------
 119          
 120          #define Pricti(Temp)    \
C51 COMPILER V5.50,  TEMP                                                                  12/04/12  07:45:30  PAGE 3   

 121            if (Temp != Error) {  \
 122              suma += Temp;       \
 123              count++;            \
 124            }
 125          
 126          int TempLocalizationAverage(int Front, int Middle, int Rear, TLocalizationStatus Localization, int Error) 
             -{
 127   1        // Vypocte ze zadanych teplot prumer podle zadaneho lozeni. Teploty muzou byt ve vnitrnim formatu i zaok
             -rouhlene, <Error> udava hodnotu pri chybe.
 128   1        long suma  = 0;
 129   1        byte count = 0;
 130   1      
 131   1        switch (Localization) {
 132   2          case LOC_CELE :
 133   2            // prumer ze vsech tri teplot
 134   2            Pricti(Front);
 135   2            Pricti(Middle);
 136   2            Pricti(Rear);
 137   2            break;
 138   2          case LOC_PREDNI_POLOVINA :
 139   2            // prumer ze prednich dvou teplot
 140   2            Pricti(Front);
 141   2            Pricti(Middle);
 142   2            break;
 143   2          case LOC_ZADNI_POLOVINA :
 144   2            // prumer ze zadnich dvou teplot
 145   2            Pricti(Middle);
 146   2            Pricti(Rear);
 147   2            break;
 148   2          case LOC_KRAJNI_TRETINY :
 149   2            // prumer ze zadnich krajnich teplot
 150   2            Pricti(Front);
 151   2            Pricti(Rear);
 152   2            break;
 153   2          case LOC_PREDNI_TRETINA :
 154   2            // prumer ze vsech tri teplot
 155   2            Pricti(Front);
 156   2            break;
 157   2          case LOC_STREDNI_TRETINA :
 158   2            // prumer ze vsech tri teplot
 159   2            Pricti(Middle);
 160   2            break;
 161   2          case LOC_ZADNI_TRETINA :
 162   2            // prumer ze vsech tri teplot
 163   2            Pricti(Rear);
 164   2            break;
 165   2        }
 166   1        if (count != 0) {
 167   2          return (suma / count);       // prumerna teplota z mericich cidel
 168   2        } else {
 169   2          return (Error);              // zadne cidlo nemeri
 170   2        }
 171   1      }
 172          
 173          #endif // __TMCREMOTE__
C51 COMPILER V5.50,  TEMP                                                                  12/04/12  07:45:30  PAGE 4   

ASSEMBLY LISTING OF GENERATED OBJECT CODE


             ; FUNCTION TemperatureInit (BEGIN)
                                           ; SOURCE LINE # 34
                                           ; SOURCE LINE # 38
0000 120000  E     LCALL   ThermoInit
                                           ; SOURCE LINE # 40
;---- Variable 'c' assigned to Register 'R7' ----
0003 E4            CLR     A
0004 FF            MOV     R7,A
0005         ?C0001:
                                           ; SOURCE LINE # 41
0005 EF            MOV     A,R7
0006 25E0          ADD     A,ACC
0008 2400    R     ADD     A,#LOW Temp
000A F582          MOV     DPL,A
000C E4            CLR     A
000D 3400    R     ADDC    A,#HIGH Temp
000F F583          MOV     DPH,A
0011 E4            CLR     A
0012 F0            MOVX    @DPTR,A
0013 A3            INC     DPTR
0014 F0            MOVX    @DPTR,A
                                           ; SOURCE LINE # 42
0015 7400    R     MOV     A,#LOW Temp1C
0017 2F            ADD     A,R7
0018 F582          MOV     DPL,A
001A E4            CLR     A
001B 3400    R     ADDC    A,#HIGH Temp1C
001D F583          MOV     DPH,A
001F E4            CLR     A
0020 F0            MOVX    @DPTR,A
                                           ; SOURCE LINE # 43
0021 EF            MOV     A,R7
0022 25E0          ADD     A,ACC
0024 2400    R     ADD     A,#LOW Temp01C
0026 F582          MOV     DPL,A
0028 E4            CLR     A
0029 3400    R     ADDC    A,#HIGH Temp01C
002B F583          MOV     DPH,A
002D E4            CLR     A
002E F0            MOVX    @DPTR,A
002F A3            INC     DPTR
0030 F0            MOVX    @DPTR,A
                                           ; SOURCE LINE # 44
0031 7400    R     MOV     A,#LOW ErrorCounter
0033 2F            ADD     A,R7
0034 F582          MOV     DPL,A
0036 E4            CLR     A
0037 3400    R     ADDC    A,#HIGH ErrorCounter
0039 F583          MOV     DPH,A
003B E4            CLR     A
003C F0            MOVX    @DPTR,A
                                           ; SOURCE LINE # 45
003D EF            MOV     A,R7
003E 25E0          ADD     A,ACC
0040 2400    R     ADD     A,#LOW TempTotalErrorCounter
0042 F582          MOV     DPL,A
0044 E4            CLR     A
0045 3400    R     ADDC    A,#HIGH TempTotalErrorCounter
0047 F583          MOV     DPH,A
0049 E4            CLR     A
004A F0            MOVX    @DPTR,A
004B A3            INC     DPTR
004C F0            MOVX    @DPTR,A
C51 COMPILER V5.50,  TEMP                                                                  12/04/12  07:45:30  PAGE 5   

                                           ; SOURCE LINE # 46
004D 0F            INC     R7
004E BF06B4        CJNE    R7,#06H,?C0001
                                           ; SOURCE LINE # 47
0051         ?C0004:
0051 22            RET     
             ; FUNCTION TemperatureInit (END)

             ; FUNCTION TemperatureRead (BEGIN)
                                           ; SOURCE LINE # 53
                                           ; SOURCE LINE # 55
0000 120000  E     LCALL   ThermoMeasure
                                           ; SOURCE LINE # 56
0003 22            RET     
             ; FUNCTION TemperatureRead (END)

             ; FUNCTION TempClearAverages (BEGIN)
                                           ; SOURCE LINE # 62
                                           ; SOURCE LINE # 65
;---- Variable 'c' assigned to Register 'R3' ----
0000 E4            CLR     A
0001 FB            MOV     R3,A
0002         ?C0006:
                                           ; SOURCE LINE # 66
0002 EB            MOV     A,R3
0003 25E0          ADD     A,ACC
0005 25E0          ADD     A,ACC
0007 2400    R     ADD     A,#LOW SumaTeplot
0009 F582          MOV     DPL,A
000B E4            CLR     A
000C 3400    R     ADDC    A,#HIGH SumaTeplot
000E F583          MOV     DPH,A
0010 120000  E     LCALL   ?C?LSTKXDATA
0013 00            DB      #00H
0014 00            DB      #00H
0015 00            DB      #00H
0016 00            DB      #00H
                                           ; SOURCE LINE # 67
0017 EB            MOV     A,R3
0018 25E0          ADD     A,ACC
001A 2400    R     ADD     A,#LOW PocetTeplot
001C F582          MOV     DPL,A
001E E4            CLR     A
001F 3400    R     ADDC    A,#HIGH PocetTeplot
0021 F583          MOV     DPH,A
0023 E4            CLR     A
0024 F0            MOVX    @DPTR,A
0025 A3            INC     DPTR
0026 F0            MOVX    @DPTR,A
                                           ; SOURCE LINE # 68
0027 0B            INC     R3
0028 BB06D7        CJNE    R3,#06H,?C0006
                                           ; SOURCE LINE # 69
002B         ?C0009:
002B 22            RET     
             ; FUNCTION TempClearAverages (END)

             ; FUNCTION _TempCountAverage (BEGIN)
0000 8F00    R     MOV     address,R7
                                           ; SOURCE LINE # 75
                                           ; SOURCE LINE # 77
0002 E500    R     MOV     A,address
0004 C3            CLR     C
0005 9406          SUBB    A,#06H
0007 5014          JNC     ?C0011
0009 EF            MOV     A,R7
C51 COMPILER V5.50,  TEMP                                                                  12/04/12  07:45:30  PAGE 6   

000A 25E0          ADD     A,ACC
000C 2400    R     ADD     A,#LOW PocetTeplot
000E F582          MOV     DPL,A
0010 E4            CLR     A
0011 3400    R     ADDC    A,#HIGH PocetTeplot
0013 F583          MOV     DPH,A
0015 E0            MOVX    A,@DPTR
0016 FC            MOV     R4,A
0017 A3            INC     DPTR
0018 E0            MOVX    A,@DPTR
0019 FD            MOV     R5,A
001A 4C            ORL     A,R4
001B 7005          JNZ     ?C0010
001D         ?C0011:
                                           ; SOURCE LINE # 78
001D 7EFC          MOV     R6,#0FCH
001F 7F18          MOV     R7,#018H
0021 22            RET     
                                           ; SOURCE LINE # 79
0022         ?C0010:
                                           ; SOURCE LINE # 81
0022 AF05          MOV     R7,AR5
0024 AE04          MOV     R6,AR4
0026 E4            CLR     A
0027 FC            MOV     R4,A
0028 FD            MOV     R5,A
0029 A804          MOV     R0,AR4
002B A905          MOV     R1,AR5
002D AA06          MOV     R2,AR6
002F AB07          MOV     R3,AR7
0031 E500    R     MOV     A,address
0033 25E0          ADD     A,ACC
0035 25E0          ADD     A,ACC
0037 2400    R     ADD     A,#LOW SumaTeplot
0039 F582          MOV     DPL,A
003B E4            CLR     A
003C 3400    R     ADDC    A,#HIGH SumaTeplot
003E F583          MOV     DPH,A
0040 E0            MOVX    A,@DPTR
0041 FC            MOV     R4,A
0042 A3            INC     DPTR
0043 E0            MOVX    A,@DPTR
0044 FD            MOV     R5,A
0045 A3            INC     DPTR
0046 E0            MOVX    A,@DPTR
0047 FE            MOV     R6,A
0048 A3            INC     DPTR
0049 E0            MOVX    A,@DPTR
004A FF            MOV     R7,A
004B 120000  E     LCALL   ?C?SLDIV
                                           ; SOURCE LINE # 82
                                           ; SOURCE LINE # 83
004E         ?C0012:
004E 22            RET     
             ; FUNCTION _TempCountAverage (END)

             ; FUNCTION _AlogTemperature (BEGIN)
0000 8F00    R     MOV     channel,R7
0002 8C00    R     MOV     value,R4
0004 8D00    R     MOV     value+01H,R5
                                           ; SOURCE LINE # 89
                                           ; SOURCE LINE # 92
0006 E500    R     MOV     A,value+01H
0008 7004          JNZ     ?C0040
000A E500    R     MOV     A,value
000C 649C          XRL     A,#09CH
C51 COMPILER V5.50,  TEMP                                                                  12/04/12  07:45:30  PAGE 7   

000E         ?C0040:
000E 706F          JNZ     ?C0014
                                           ; SOURCE LINE # 94
0010 E500    R     MOV     A,channel
0012 25E0          ADD     A,ACC
0014 2400    R     ADD     A,#LOW TempTotalErrorCounter
0016 F582          MOV     DPL,A
0018 E4            CLR     A
0019 3400    R     ADDC    A,#HIGH TempTotalErrorCounter
001B F583          MOV     DPH,A
001D E4            CLR     A
001E 75F001        MOV     B,#01H
0021 120000  E     LCALL   ?C?IILDX
                                           ; SOURCE LINE # 95
0024 7400    R     MOV     A,#LOW ErrorCounter
0026 2500    R     ADD     A,channel
0028 F582          MOV     DPL,A
002A E4            CLR     A
002B 3400    R     ADDC    A,#HIGH ErrorCounter
002D F583          MOV     DPH,A
002F E0            MOVX    A,@DPTR
0030 04            INC     A
0031 F0            MOVX    @DPTR,A
                                           ; SOURCE LINE # 96
0032 7400    R     MOV     A,#LOW ErrorCounter
0034 2500    R     ADD     A,channel
0036 F582          MOV     DPL,A
0038 E4            CLR     A
0039 3400    R     ADDC    A,#HIGH ErrorCounter
003B F583          MOV     DPH,A
003D E0            MOVX    A,@DPTR
003E D3            SETB    C
003F 940A          SUBB    A,#0AH
0041 5003          JNC     $ + 5H
0043 020000  R     LJMP    ?C0016
                                           ; SOURCE LINE # 98
0046 740A          MOV     A,#0AH
0048 F0            MOVX    @DPTR,A
                                           ; SOURCE LINE # 99
0049 E500    R     MOV     A,channel
004B 25E0          ADD     A,ACC
004D 2400    R     ADD     A,#LOW Temp
004F F582          MOV     DPL,A
0051 E4            CLR     A
0052 3400    R     ADDC    A,#HIGH Temp
0054 F583          MOV     DPH,A
0056 749C          MOV     A,#09CH
0058 F0            MOVX    @DPTR,A
0059 A3            INC     DPTR
005A E4            CLR     A
005B F0            MOVX    @DPTR,A
                                           ; SOURCE LINE # 100
005C 7400    R     MOV     A,#LOW Temp1C
005E 2500    R     ADD     A,channel
0060 F582          MOV     DPL,A
0062 E4            CLR     A
0063 3400    R     ADDC    A,#HIGH Temp1C
0065 F583          MOV     DPH,A
0067 749C          MOV     A,#09CH
0069 F0            MOVX    @DPTR,A
                                           ; SOURCE LINE # 101
006A E500    R     MOV     A,channel
006C 25E0          ADD     A,ACC
006E 2400    R     ADD     A,#LOW Temp01C
0070 F582          MOV     DPL,A
0072 E4            CLR     A
C51 COMPILER V5.50,  TEMP                                                                  12/04/12  07:45:30  PAGE 8   

0073 3400    R     ADDC    A,#HIGH Temp01C
0075 F583          MOV     DPH,A
0077 74FC          MOV     A,#0FCH
0079 F0            MOVX    @DPTR,A
007A A3            INC     DPTR
007B 7418          MOV     A,#018H
007D F0            MOVX    @DPTR,A
                                           ; SOURCE LINE # 102
007E 22            RET     
                                           ; SOURCE LINE # 104
007F         ?C0014:
                                           ; SOURCE LINE # 106
007F E500    R     MOV     A,channel
0081 25E0          ADD     A,ACC
0083 2400    R     ADD     A,#LOW Temp
0085 F582          MOV     DPL,A
0087 E4            CLR     A
0088 3400    R     ADDC    A,#HIGH Temp
008A F583          MOV     DPH,A
008C E500    R     MOV     A,value
008E F0            MOVX    @DPTR,A
008F A3            INC     DPTR
0090 E500    R     MOV     A,value+01H
0092 F0            MOVX    @DPTR,A
                                           ; SOURCE LINE # 107
0093 AF00    R     MOV     R7,value+01H
0095 AE00    R     MOV     R6,value
0097 120000  E     LCALL   _TempConvert1C
009A 7400    R     MOV     A,#LOW Temp1C
009C 2500    R     ADD     A,channel
009E F582          MOV     DPL,A
00A0 E4            CLR     A
00A1 3400    R     ADDC    A,#HIGH Temp1C
00A3 F583          MOV     DPH,A
00A5 EF            MOV     A,R7
00A6 F0            MOVX    @DPTR,A
                                           ; SOURCE LINE # 108
00A7 AF00    R     MOV     R7,value+01H
00A9 AE00    R     MOV     R6,value
00AB 120000  E     LCALL   _TempConvert01C
00AE E500    R     MOV     A,channel
00B0 25E0          ADD     A,ACC
00B2 2400    R     ADD     A,#LOW Temp01C
00B4 F582          MOV     DPL,A
00B6 E4            CLR     A
00B7 3400    R     ADDC    A,#HIGH Temp01C
00B9 F583          MOV     DPH,A
00BB EE            MOV     A,R6
00BC F0            MOVX    @DPTR,A
00BD A3            INC     DPTR
00BE EF            MOV     A,R7
00BF F0            MOVX    @DPTR,A
                                           ; SOURCE LINE # 110
00C0 7400    R     MOV     A,#LOW ErrorCounter
00C2 2500    R     ADD     A,channel
00C4 F582          MOV     DPL,A
00C6 E4            CLR     A
00C7 3400    R     ADDC    A,#HIGH ErrorCounter
00C9 F583          MOV     DPH,A
00CB E4            CLR     A
00CC F0            MOVX    @DPTR,A
                                           ; SOURCE LINE # 112
00CD E500    R     MOV     A,channel
00CF 25E0          ADD     A,ACC
00D1 25E0          ADD     A,ACC
00D3 2400    R     ADD     A,#LOW SumaTeplot
C51 COMPILER V5.50,  TEMP                                                                  12/04/12  07:45:30  PAGE 9   

00D5 F582          MOV     DPL,A
00D7 E4            CLR     A
00D8 3400    R     ADDC    A,#HIGH SumaTeplot
00DA F583          MOV     DPH,A
00DC C083          PUSH    DPH
00DE C082          PUSH    DPL
00E0 E0            MOVX    A,@DPTR
00E1 F8            MOV     R0,A
00E2 A3            INC     DPTR
00E3 E0            MOVX    A,@DPTR
00E4 F9            MOV     R1,A
00E5 A3            INC     DPTR
00E6 E0            MOVX    A,@DPTR
00E7 FA            MOV     R2,A
00E8 A3            INC     DPTR
00E9 E0            MOVX    A,@DPTR
00EA FB            MOV     R3,A
00EB E500    R     MOV     A,channel
00ED 25E0          ADD     A,ACC
00EF 2400    R     ADD     A,#LOW Temp01C
00F1 F582          MOV     DPL,A
00F3 E4            CLR     A
00F4 3400    R     ADDC    A,#HIGH Temp01C
00F6 F583          MOV     DPH,A
00F8 E0            MOVX    A,@DPTR
00F9 FE            MOV     R6,A
00FA A3            INC     DPTR
00FB E0            MOVX    A,@DPTR
00FC FF            MOV     R7,A
00FD EE            MOV     A,R6
00FE 33            RLC     A
00FF 95E0          SUBB    A,ACC
0101 FD            MOV     R5,A
0102 FC            MOV     R4,A
0103 EB            MOV     A,R3
0104 2F            ADD     A,R7
0105 FF            MOV     R7,A
0106 EA            MOV     A,R2
0107 3E            ADDC    A,R6
0108 FE            MOV     R6,A
0109 E9            MOV     A,R1
010A 3D            ADDC    A,R5
010B FD            MOV     R5,A
010C E8            MOV     A,R0
010D 3C            ADDC    A,R4
010E FC            MOV     R4,A
010F D082          POP     DPL
0111 D083          POP     DPH
0113 120000  E     LCALL   ?C?LSTXDATA
                                           ; SOURCE LINE # 113
0116 E500    R     MOV     A,channel
0118 25E0          ADD     A,ACC
011A 2400    R     ADD     A,#LOW PocetTeplot
011C F582          MOV     DPL,A
011E E4            CLR     A
011F 3400    R     ADDC    A,#HIGH PocetTeplot
0121 F583          MOV     DPH,A
0123 E4            CLR     A
0124 75F001        MOV     B,#01H
0127 120000  E     LCALL   ?C?IILDX
                                           ; SOURCE LINE # 114
012A         ?C0016:
012A 22            RET     
             ; FUNCTION _AlogTemperature (END)

             ; FUNCTION _TempLocalizationAverage (BEGIN)
C51 COMPILER V5.50,  TEMP                                                                  12/04/12  07:45:30  PAGE 10  

0000 8E00    R     MOV     Front,R6
0002 8F00    R     MOV     Front+01H,R7
0004 8C00    R     MOV     Middle,R4
0006 8D00    R     MOV     Middle+01H,R5
0008 8A00    R     MOV     Rear,R2
000A 8B00    R     MOV     Rear+01H,R3
                                           ; SOURCE LINE # 126
                                           ; SOURCE LINE # 128
000C 750000  R     MOV     suma+03H,#00H
000F 750000  R     MOV     suma+02H,#00H
0012 750000  R     MOV     suma+01H,#00H
0015 750000  R     MOV     suma,#00H
                                           ; SOURCE LINE # 129
;---- Variable 'count' assigned to Register 'R3' ----
0018 E4            CLR     A
0019 FB            MOV     R3,A
                                           ; SOURCE LINE # 131
001A E500    R     MOV     A,Localization
001C B40700        CJNE    A,#07H,?C0041
001F         ?C0041:
001F 4003          JC      $ + 5H
0021 020000  R     LJMP    ?C0017
0024 900000  R     MOV     DPTR,#?C0042
0027 F8            MOV     R0,A
0028 28            ADD     A,R0
0029 28            ADD     A,R0
002A 73            JMP     @A+DPTR
002B         ?C0042:
002B 020000  R     LJMP    ?C0018
002E 020000  R     LJMP    ?C0022
0031 020000  R     LJMP    ?C0025
0034 020000  R     LJMP    ?C0028
0037 020000  R     LJMP    ?C0031
003A 020000  R     LJMP    ?C0033
003D 020000  R     LJMP    ?C0035
                                           ; SOURCE LINE # 132
0040         ?C0018:
                                           ; SOURCE LINE # 134
0040 E500    R     MOV     A,Front+01H
0042 6500    R     XRL     A,Error+01H
0044 7004          JNZ     ?C0043
0046 E500    R     MOV     A,Front
0048 6500    R     XRL     A,Error
004A         ?C0043:
004A 601E          JZ      ?C0019
004C AE00    R     MOV     R6,Front
004E EE            MOV     A,R6
004F 33            RLC     A
0050 95E0          SUBB    A,ACC
0052 FD            MOV     R5,A
0053 FC            MOV     R4,A
0054 E500    R     MOV     A,suma+03H
0056 2500    R     ADD     A,Front+01H
0058 F500    R     MOV     suma+03H,A
005A E500    R     MOV     A,suma+02H
005C 3E            ADDC    A,R6
005D F500    R     MOV     suma+02H,A
005F E500    R     MOV     A,suma+01H
0061 3D            ADDC    A,R5
0062 F500    R     MOV     suma+01H,A
0064 E500    R     MOV     A,suma
0066 3C            ADDC    A,R4
0067 F500    R     MOV     suma,A
0069 0B            INC     R3
006A         ?C0019:
                                           ; SOURCE LINE # 135
C51 COMPILER V5.50,  TEMP                                                                  12/04/12  07:45:30  PAGE 11  

006A E500    R     MOV     A,Middle+01H
006C 6500    R     XRL     A,Error+01H
006E 7004          JNZ     ?C0044
0070 E500    R     MOV     A,Middle
0072 6500    R     XRL     A,Error
0074         ?C0044:
0074 601E          JZ      ?C0020
0076 AE00    R     MOV     R6,Middle
0078 EE            MOV     A,R6
0079 33            RLC     A
007A 95E0          SUBB    A,ACC
007C FD            MOV     R5,A
007D FC            MOV     R4,A
007E E500    R     MOV     A,suma+03H
0080 2500    R     ADD     A,Middle+01H
0082 F500    R     MOV     suma+03H,A
0084 E500    R     MOV     A,suma+02H
0086 3E            ADDC    A,R6
0087 F500    R     MOV     suma+02H,A
0089 E500    R     MOV     A,suma+01H
008B 3D            ADDC    A,R5
008C F500    R     MOV     suma+01H,A
008E E500    R     MOV     A,suma
0090 3C            ADDC    A,R4
0091 F500    R     MOV     suma,A
0093 0B            INC     R3
0094         ?C0020:
                                           ; SOURCE LINE # 136
0094 E500    R     MOV     A,Rear+01H
0096 6500    R     XRL     A,Error+01H
0098 7004          JNZ     ?C0045
009A E500    R     MOV     A,Rear
009C 6500    R     XRL     A,Error
009E         ?C0045:
009E 7003          JNZ     $ + 5H
00A0 020000  R     LJMP    ?C0017
00A3 AE00    R     MOV     R6,Rear
00A5 EE            MOV     A,R6
00A6 33            RLC     A
00A7 95E0          SUBB    A,ACC
00A9 FD            MOV     R5,A
00AA FC            MOV     R4,A
00AB E500    R     MOV     A,suma+03H
00AD 2500    R     ADD     A,Rear+01H
00AF F500    R     MOV     suma+03H,A
00B1 E500    R     MOV     A,suma+02H
00B3 3E            ADDC    A,R6
00B4 F500    R     MOV     suma+02H,A
00B6 E500    R     MOV     A,suma+01H
00B8 3D            ADDC    A,R5
00B9 F500    R     MOV     suma+01H,A
00BB E500    R     MOV     A,suma
00BD 3C            ADDC    A,R4
00BE F500    R     MOV     suma,A
00C0 0B            INC     R3
                                           ; SOURCE LINE # 137
00C1 020000  R     LJMP    ?C0017
                                           ; SOURCE LINE # 138
00C4         ?C0022:
                                           ; SOURCE LINE # 140
00C4 E500    R     MOV     A,Front+01H
00C6 6500    R     XRL     A,Error+01H
00C8 7004          JNZ     ?C0046
00CA E500    R     MOV     A,Front
00CC 6500    R     XRL     A,Error
00CE         ?C0046:
C51 COMPILER V5.50,  TEMP                                                                  12/04/12  07:45:30  PAGE 12  

00CE 601E          JZ      ?C0023
00D0 AE00    R     MOV     R6,Front
00D2 EE            MOV     A,R6
00D3 33            RLC     A
00D4 95E0          SUBB    A,ACC
00D6 FD            MOV     R5,A
00D7 FC            MOV     R4,A
00D8 E500    R     MOV     A,suma+03H
00DA 2500    R     ADD     A,Front+01H
00DC F500    R     MOV     suma+03H,A
00DE E500    R     MOV     A,suma+02H
00E0 3E            ADDC    A,R6
00E1 F500    R     MOV     suma+02H,A
00E3 E500    R     MOV     A,suma+01H
00E5 3D            ADDC    A,R5
00E6 F500    R     MOV     suma+01H,A
00E8 E500    R     MOV     A,suma
00EA 3C            ADDC    A,R4
00EB F500    R     MOV     suma,A
00ED 0B            INC     R3
00EE         ?C0023:
                                           ; SOURCE LINE # 141
00EE E500    R     MOV     A,Middle+01H
00F0 6500    R     XRL     A,Error+01H
00F2 7004          JNZ     ?C0047
00F4 E500    R     MOV     A,Middle
00F6 6500    R     XRL     A,Error
00F8         ?C0047:
00F8 7003          JNZ     $ + 5H
00FA 020000  R     LJMP    ?C0017
00FD AE00    R     MOV     R6,Middle
00FF EE            MOV     A,R6
0100 33            RLC     A
0101 95E0          SUBB    A,ACC
0103 FD            MOV     R5,A
0104 FC            MOV     R4,A
0105 E500    R     MOV     A,suma+03H
0107 2500    R     ADD     A,Middle+01H
0109 F500    R     MOV     suma+03H,A
010B E500    R     MOV     A,suma+02H
010D 3E            ADDC    A,R6
010E F500    R     MOV     suma+02H,A
0110 E500    R     MOV     A,suma+01H
0112 3D            ADDC    A,R5
0113 F500    R     MOV     suma+01H,A
0115 E500    R     MOV     A,suma
0117 3C            ADDC    A,R4
0118 F500    R     MOV     suma,A
011A 0B            INC     R3
                                           ; SOURCE LINE # 142
011B 020000  R     LJMP    ?C0017
                                           ; SOURCE LINE # 143
011E         ?C0025:
                                           ; SOURCE LINE # 145
011E E500    R     MOV     A,Middle+01H
0120 6500    R     XRL     A,Error+01H
0122 7004          JNZ     ?C0048
0124 E500    R     MOV     A,Middle
0126 6500    R     XRL     A,Error
0128         ?C0048:
0128 601E          JZ      ?C0026
012A AE00    R     MOV     R6,Middle
012C EE            MOV     A,R6
012D 33            RLC     A
012E 95E0          SUBB    A,ACC
0130 FD            MOV     R5,A
C51 COMPILER V5.50,  TEMP                                                                  12/04/12  07:45:30  PAGE 13  

0131 FC            MOV     R4,A
0132 E500    R     MOV     A,suma+03H
0134 2500    R     ADD     A,Middle+01H
0136 F500    R     MOV     suma+03H,A
0138 E500    R     MOV     A,suma+02H
013A 3E            ADDC    A,R6
013B F500    R     MOV     suma+02H,A
013D E500    R     MOV     A,suma+01H
013F 3D            ADDC    A,R5
0140 F500    R     MOV     suma+01H,A
0142 E500    R     MOV     A,suma
0144 3C            ADDC    A,R4
0145 F500    R     MOV     suma,A
0147 0B            INC     R3
0148         ?C0026:
                                           ; SOURCE LINE # 146
0148 E500    R     MOV     A,Rear+01H
014A 6500    R     XRL     A,Error+01H
014C 7004          JNZ     ?C0049
014E E500    R     MOV     A,Rear
0150 6500    R     XRL     A,Error
0152         ?C0049:
0152 7003          JNZ     $ + 5H
0154 020000  R     LJMP    ?C0017
0157 AE00    R     MOV     R6,Rear
0159 EE            MOV     A,R6
015A 33            RLC     A
015B 95E0          SUBB    A,ACC
015D FD            MOV     R5,A
015E FC            MOV     R4,A
015F E500    R     MOV     A,suma+03H
0161 2500    R     ADD     A,Rear+01H
0163 F500    R     MOV     suma+03H,A
0165 E500    R     MOV     A,suma+02H
0167 3E            ADDC    A,R6
0168 F500    R     MOV     suma+02H,A
016A E500    R     MOV     A,suma+01H
016C 3D            ADDC    A,R5
016D F500    R     MOV     suma+01H,A
016F E500    R     MOV     A,suma
0171 3C            ADDC    A,R4
0172 F500    R     MOV     suma,A
0174 0B            INC     R3
                                           ; SOURCE LINE # 147
0175 020000  R     LJMP    ?C0017
                                           ; SOURCE LINE # 148
0178         ?C0028:
                                           ; SOURCE LINE # 150
0178 E500    R     MOV     A,Front+01H
017A 6500    R     XRL     A,Error+01H
017C 7004          JNZ     ?C0050
017E E500    R     MOV     A,Front
0180 6500    R     XRL     A,Error
0182         ?C0050:
0182 601E          JZ      ?C0029
0184 AE00    R     MOV     R6,Front
0186 EE            MOV     A,R6
0187 33            RLC     A
0188 95E0          SUBB    A,ACC
018A FD            MOV     R5,A
018B FC            MOV     R4,A
018C E500    R     MOV     A,suma+03H
018E 2500    R     ADD     A,Front+01H
0190 F500    R     MOV     suma+03H,A
0192 E500    R     MOV     A,suma+02H
0194 3E            ADDC    A,R6
C51 COMPILER V5.50,  TEMP                                                                  12/04/12  07:45:30  PAGE 14  

0195 F500    R     MOV     suma+02H,A
0197 E500    R     MOV     A,suma+01H
0199 3D            ADDC    A,R5
019A F500    R     MOV     suma+01H,A
019C E500    R     MOV     A,suma
019E 3C            ADDC    A,R4
019F F500    R     MOV     suma,A
01A1 0B            INC     R3
01A2         ?C0029:
                                           ; SOURCE LINE # 151
01A2 E500    R     MOV     A,Rear+01H
01A4 6500    R     XRL     A,Error+01H
01A6 7004          JNZ     ?C0051
01A8 E500    R     MOV     A,Rear
01AA 6500    R     XRL     A,Error
01AC         ?C0051:
01AC 7003          JNZ     $ + 5H
01AE 020000  R     LJMP    ?C0017
01B1 AE00    R     MOV     R6,Rear
01B3 EE            MOV     A,R6
01B4 33            RLC     A
01B5 95E0          SUBB    A,ACC
01B7 FD            MOV     R5,A
01B8 FC            MOV     R4,A
01B9 E500    R     MOV     A,suma+03H
01BB 2500    R     ADD     A,Rear+01H
01BD F500    R     MOV     suma+03H,A
01BF E500    R     MOV     A,suma+02H
01C1 3E            ADDC    A,R6
01C2 F500    R     MOV     suma+02H,A
01C4 E500    R     MOV     A,suma+01H
01C6 3D            ADDC    A,R5
01C7 F500    R     MOV     suma+01H,A
01C9 E500    R     MOV     A,suma
01CB 3C            ADDC    A,R4
01CC F500    R     MOV     suma,A
01CE 0B            INC     R3
                                           ; SOURCE LINE # 152
01CF 020000  R     LJMP    ?C0017
                                           ; SOURCE LINE # 153
01D2         ?C0031:
                                           ; SOURCE LINE # 155
01D2 E500    R     MOV     A,Front+01H
01D4 6500    R     XRL     A,Error+01H
01D6 7004          JNZ     ?C0052
01D8 E500    R     MOV     A,Front
01DA 6500    R     XRL     A,Error
01DC         ?C0052:
01DC 6076          JZ      ?C0017
01DE AE00    R     MOV     R6,Front
01E0 EE            MOV     A,R6
01E1 33            RLC     A
01E2 95E0          SUBB    A,ACC
01E4 FD            MOV     R5,A
01E5 FC            MOV     R4,A
01E6 E500    R     MOV     A,suma+03H
01E8 2500    R     ADD     A,Front+01H
01EA F500    R     MOV     suma+03H,A
01EC E500    R     MOV     A,suma+02H
01EE 3E            ADDC    A,R6
01EF F500    R     MOV     suma+02H,A
01F1 E500    R     MOV     A,suma+01H
01F3 3D            ADDC    A,R5
01F4 F500    R     MOV     suma+01H,A
01F6 E500    R     MOV     A,suma
01F8 3C            ADDC    A,R4
C51 COMPILER V5.50,  TEMP                                                                  12/04/12  07:45:30  PAGE 15  

01F9 F500    R     MOV     suma,A
01FB 0B            INC     R3
                                           ; SOURCE LINE # 156
01FC 8056          SJMP    ?C0017
                                           ; SOURCE LINE # 157
01FE         ?C0033:
                                           ; SOURCE LINE # 159
01FE E500    R     MOV     A,Middle+01H
0200 6500    R     XRL     A,Error+01H
0202 7004          JNZ     ?C0053
0204 E500    R     MOV     A,Middle
0206 6500    R     XRL     A,Error
0208         ?C0053:
0208 604A          JZ      ?C0017
020A AE00    R     MOV     R6,Middle
020C EE            MOV     A,R6
020D 33            RLC     A
020E 95E0          SUBB    A,ACC
0210 FD            MOV     R5,A
0211 FC            MOV     R4,A
0212 E500    R     MOV     A,suma+03H
0214 2500    R     ADD     A,Middle+01H
0216 F500    R     MOV     suma+03H,A
0218 E500    R     MOV     A,suma+02H
021A 3E            ADDC    A,R6
021B F500    R     MOV     suma+02H,A
021D E500    R     MOV     A,suma+01H
021F 3D            ADDC    A,R5
0220 F500    R     MOV     suma+01H,A
0222 E500    R     MOV     A,suma
0224 3C            ADDC    A,R4
0225 F500    R     MOV     suma,A
0227 0B            INC     R3
                                           ; SOURCE LINE # 160
0228 802A          SJMP    ?C0017
                                           ; SOURCE LINE # 161
022A         ?C0035:
                                           ; SOURCE LINE # 163
022A E500    R     MOV     A,Rear+01H
022C 6500    R     XRL     A,Error+01H
022E 7004          JNZ     ?C0054
0230 E500    R     MOV     A,Rear
0232 6500    R     XRL     A,Error
0234         ?C0054:
0234 601E          JZ      ?C0017
0236 AE00    R     MOV     R6,Rear
0238 EE            MOV     A,R6
0239 33            RLC     A
023A 95E0          SUBB    A,ACC
023C FD            MOV     R5,A
023D FC            MOV     R4,A
023E E500    R     MOV     A,suma+03H
0240 2500    R     ADD     A,Rear+01H
0242 F500    R     MOV     suma+03H,A
0244 E500    R     MOV     A,suma+02H
0246 3E            ADDC    A,R6
0247 F500    R     MOV     suma+02H,A
0249 E500    R     MOV     A,suma+01H
024B 3D            ADDC    A,R5
024C F500    R     MOV     suma+01H,A
024E E500    R     MOV     A,suma
0250 3C            ADDC    A,R4
0251 F500    R     MOV     suma,A
0253 0B            INC     R3
                                           ; SOURCE LINE # 164
                                           ; SOURCE LINE # 165
C51 COMPILER V5.50,  TEMP                                                                  12/04/12  07:45:30  PAGE 16  

0254         ?C0017:
                                           ; SOURCE LINE # 166
0254 EB            MOV     A,R3
0255 6014          JZ      ?C0037
                                           ; SOURCE LINE # 167
0257 FF            MOV     R7,A
0258 E4            CLR     A
0259 FC            MOV     R4,A
025A FD            MOV     R5,A
025B FE            MOV     R6,A
025C F8            MOV     R0,A
025D F9            MOV     R1,A
025E FA            MOV     R2,A
025F AF00    R     MOV     R7,suma+03H
0261 AE00    R     MOV     R6,suma+02H
0263 AD00    R     MOV     R5,suma+01H
0265 AC00    R     MOV     R4,suma
0267 120000  E     LCALL   ?C?SLDIV
026A 22            RET     
                                           ; SOURCE LINE # 168
026B         ?C0037:
                                           ; SOURCE LINE # 169
026B AE00    R     MOV     R6,Error
026D AF00    R     MOV     R7,Error+01H
                                           ; SOURCE LINE # 170
                                           ; SOURCE LINE # 171
026F         ?C0038:
026F 22            RET     
             ; FUNCTION _TempLocalizationAverage (END)



MODULE INFORMATION:   STATIC OVERLAYABLE
   CODE SIZE        =   1132    ----
   CONSTANT SIZE    =   ----    ----
   XDATA SIZE       =     84    ----
   PDATA SIZE       =   ----    ----
   DATA SIZE        =   ----      17
   IDATA SIZE       =   ----    ----
   BIT SIZE         =   ----    ----
END OF MODULE INFORMATION.


C51 COMPILATION COMPLETE.  0 WARNING(S),  0 ERROR(S)
