C51 COMPILER V5.50,  PCATMC                                                                24/07/12  10:33:52  PAGE 1   


DOS C51 COMPILER V5.50, COMPILATION OF MODULE PCATMC
OBJECT MODULE PLACED IN ..\MODULY\RD2\PCATMC.OBJ
COMPILER INVOKED BY: E:\C51_V5.5\BIN\C51.EXE ..\MODULY\RD2\PCATMC.C51 CD DB

stmt level    source

   1          //*****************************************************************************
   2          //
   3          //    PcaTmc.c  -  TMC project PCA services
   4          //    Version 1.0  (c) VymOs
   5          //
   6          //*****************************************************************************
   7          
   8          #include "..\inc\Pca.h"
   9          #include "..\inc\Delays.h"       // Delay computing
  10          #include "..\inc\TinyFifo.h"     // Rx 2 fifo
  11          
  12          // Pomocna struktura :
  13          
  14          typedef union {
  15             word Counter;
  16             byte Byte[ 2];
  17          } TCounter;
  18          
  19          //---- Zvukovy vystup ---------------------------------------------------------
  20          
  21          #ifdef PCA_ASYNC_BEEP
  22             byte _pca_duration = 0;                       // citac delky tonu pro asynchronni pipnuti
  23          #endif
  24          
  25          #ifdef PCA_SOUND
  26             static word sound_pwm1;                       // prvni perioda zvuku
  27             static word sound_pwm2;                       // druha perioda zvuku
  28          #endif
  29          
  30          //---- Rx/Tx RS232 ------------------------------------------------------------
  31          
  32          #define RX2_BITS       10                        // vcetne startbitu a stopbitu
  33          #define RX2_RUNNING    (RX2_CCAPM & CCAPM_ECCF)  // bezi prijem, !RX2_RUNNING - prijat znak
  34          #define RX2_CAPTURE    (RX2_CCAPM & (CCAPM_CAPN | CCAPM_CAPP)) // nastaveno zachytavani
  35          
  36          #ifndef RX2_INVERT
  37             // normalni polarita - v klidu je H
  38             #define RX2_MARK       0                      // startbit
  39             #define RX2_SPACE      1                      // klidova uroven
  40             #define RX2_START_EDGE CCAPM_NEGATIVE_EDGE    // startbit je do 0
  41          #else
                 // invertovana polarita - v klidu je L
                 #define RX2_MARK       1                      // startbit
                 #define RX2_SPACE      0                      // klidova uroven
                 #define RX2_START_EDGE CCAPM_POSITIVE_EDGE    // startbit je do 1
              #endif
  47          
  48          #define TX2_BITS      10                         // vcetne startbitu a stopbitu
  49          #define TX2_RUNNING   (TX2_CCAPM & CCAPM_ECCF)   // bezi vysilani, !TX2_RUNNING - pripraveno na dalsi znak
  50          
  51          #ifndef TX2_INVERT
                 // normalni polarita - v klidu je H
                 #define TX2_MARK       0                      // startbit
                 #define TX2_SPACE      1                      // klidova uroven
                 #define Tx2Bit( b)     (b)                    // vysilany bit
              #else
  57             // invertovana polarita - v klidu je L
  58             #define TX2_MARK       1                      // startbit
  59             #define TX2_SPACE      0                      // klidova uroven
C51 COMPILER V5.50,  PCATMC                                                                24/07/12  10:33:52  PAGE 2   

  60             #define Tx2Bit( b)     !(b)                   // vysilany bit
  61          #endif
  62          
  63          // Casovani bitu :
  64          
  65          #define COM2_ONE_BIT_COUNT      (FXTAL * PCA_X2 / 4 / COM2_BAUD)
  66          #define COM2_HALF_BIT_COUNT     (COM2_ONE_BIT_COUNT / 2)
  67          
  68          #ifdef PCA_COM2
  69          //-----------------------------------------------------------------------------
  70             #if COM2_RX_TIMEOUT > WDELAY_MAX( 0)
                    #error "COM2_RX_TIMEOUT out of range"
                 #endif
  73             #if 100000 > WDELAY_MAX( 0)
                    #error "Unable set ComRxWait 100ms timeout"
                 #endif
  76          
  77             // plny duplex - vlastni data a pocet pro Rx i Tx
  78             static volatile byte Data2Tx;                 // Tx byte
  79             static volatile byte Count2Tx;                // Tx bit count
  80             static volatile byte Data2Rx;                 // Rx byte
  81             static volatile byte Count2Rx;                // Rx bit count
  82          
  83             #define Com2RxEnable()   Count2Rx = RX2_BITS; RX2_CCAPM = RX2_START_EDGE // Nastavi cekani na prijem
  84             #define Com2RxStop()     RX2_CCAPM = CCAPM_STOP                          // Zastaveni prijmu
  85          
  86             //-- FIFO pro Rx COM2 : ----------------------------------------------------
  87          
  88             #define COM_ISIZE COM2_RX_BUFFER_SIZE                   // delka Rx fronty
  89          
  90             static volatile byte iread;                             // cteci ukazatel do Rx bufferu
  91             static volatile byte iwrite;                            // zapisovaci ukazatel do Rx bufferu
  92             static xdata    byte ibuff[ COM_ISIZE];                 // Rx fifo
  93          
  94             #define Com2DisableInt()   RX2_CCAPM &= ~CCAPM_ECCF     // zakaz preruseni od modulu
  95             #define Com2EnableInt()    RX2_CCAPM |=  CCAPM_ECCF     // povoleni preruseni od modulu
  96          
  97             #define Com2RFifoInit()     TFifoInit(  iread, iwrite)                // inicializace
  98             #define Com2RFifoEmpty()    TFifoEmpty( iread, iwrite)                // zadne nactene znaky
  99             #define Com2RFifoRead()     TFifoRead(  ibuff, iread,  COM_ISIZE)     // cteni znaku
 100             #define Com2RFifoFlush()    TFifoFlush( iread);                       // preskok znaku
 101             #define Com2RFifoFull()     TFifoFull(  iread, iwrite, COM_ISIZE)     // zaplnene fifo
 102             #define Com2RFifoWrite( ch) TFifoWrite( ibuff, iwrite, COM_ISIZE, ch) // zapis znaku
 103          
 104          //-- FIFO pro Tx COM2 : ------------------------------------------------------
 105          
 106          #define COM_OSIZE COM2_TX_BUFFER_SIZE                      // delka Tx fronty
 107          
 108          volatile byte _tx2_running;                                // probiha vysilani
 109          
 110          #if COM2_TX_BUFFER_SIZE <= 128
                 static volatile byte oread;                             // cteci ukazatel do Tx bufferu
                 static volatile byte owrite;                            // zapisovaci ukazatel do Tx bufferu
              #else
 114             static volatile word oread;                             // cteci ukazatel do Tx bufferu
 115             static volatile word owrite;                            // zapisovaci ukazatel do Tx bufferu
 116          #endif
 117          static xdata byte obuff[ COM_OSIZE];                       // Tx fifo
 118          
 119          
 120          #define Com2TFifoInit()     TFifoInit(  oread, owrite)                // inicializace
 121          #define Com2TFifoEmpty()    TFifoEmpty( oread, owrite)                // zadne nactene znaky
 122          #define Com2TFifoRead()     TFifoRead(  obuff, oread,  COM_OSIZE)     // cteni znaku
 123          #define Com2TFifoFlush()    TFifoFlush( oread);                       // preskok znaku
 124          #define Com2TFifoFull()     TFifoFull(  oread, owrite, COM_OSIZE)     // zaplnene fifo
 125          #define Com2TFifoWrite( ch) TFifoWrite( obuff, owrite, COM_OSIZE, ch) // zapis znaku
C51 COMPILER V5.50,  PCATMC                                                                24/07/12  10:33:52  PAGE 3   

 126          
 127          //-----------------------------------------------------------------------------
 128          #endif // PCA_COM2
 129          
 130          //---- Vysilac RS232 ----------------------------------------------------------
 131          
 132          #define TX3_BITS      10                         // vcetne startbitu a stopbitu
 133          #define TX3_RUNNING   (TX3_CCAPM & CCAPM_ECCF)   // bezi vysilani, !TX3_RUNNING - pripraveno na dalsi znak
 134          
 135          #ifndef TX3_INVERT
 136             // normalni polarita - v klidu je H
 137             #define TX3_MARK       0                      // startbit
 138             #define TX3_SPACE      1                      // klidova uroven
 139             #define Tx3Bit( b)     (b)                    // vysilany bit
 140          #else
                 // invertovana polarita - v klidu je L
                 #define TX3_MARK       1                      // startbit
                 #define TX3_SPACE      0                      // klidova uroven
                 #define Tx3Bit( b)     !(b)                   // vysilany bit
              #endif
 146          
 147          #define COM3_ONE_BIT_COUNT      (FXTAL * PCA_X2 / 4 / COM3_BAUD)
 148          #define COM3_HALF_BIT_COUNT     (COM3_ONE_BIT_COUNT / 2)
 149          
 150          #ifdef PCA_COM3
 151             static volatile byte Data3;                   // Rx/Tx byte
 152             static volatile byte Count3;                  // Rx/Tx bit count
 153          #endif
 154          
 155          //-----------------------------------------------------------------------------
 156          // Inicializace
 157          //-----------------------------------------------------------------------------
 158          
 159          void PcaInit( void)
 160          // Inicializace modulu
 161          {
 162   1         // klidovy stav PCA :
 163   1         EC         = 0;                               // zakaz preruseni od PCA
 164   1         IPH        = IPH_PPC;                         // IRQ priority level = 2
 165   1         CCON       = 0;                               // stop PCA, smazani vsech priznaku preruseni
 166   1         CMOD       = CMOD_CPS4;                       // hodiny fosc/4
 167   1         CL         = 0;                               // nulovani citace
 168   1         CH         = 0;
 169   1         CCAPM0     = CCAPM_STOP;                      // zakaz vsech komparatoru
 170   1         CCAPM1     = CCAPM_STOP;
 171   1         CCAPM2     = CCAPM_STOP;
 172   1         CCAPM3     = CCAPM_STOP;
 173   1         CCAPM4     = CCAPM_STOP;
 174   1         // klidovy stav na portech :
 175   1      #ifdef PCA_COM2
 176   1         PcaTX2     = TX2_SPACE;                       // klidova uroven
 177   1         PcaRX2     = 1;                               // vstup
 178   1         Com2RFifoInit();                              // inicializace Rx bufferu
 179   1         Com2TFifoInit();                              // inicializace Tx bufferu
 180   1         _tx2_running = NO;                            // zadne vysilani
 181   1         Com2RxEnable();                               // povoleni prijmu
 182   1      #endif
 183   1      #ifdef PCA_COM3
 184   1         PcaTX3     = TX3_SPACE;                       // klidova uroven
 185   1      #endif
 186   1         // povoleni preruseni :
 187   1         CR         = 1;                               // povol citani
 188   1         EC         = 1;                               // povol preruseni od PCA
 189   1      } // PcaInit
 190          
 191          #ifdef PCA_SOUND
C51 COMPILER V5.50,  PCATMC                                                                24/07/12  10:33:52  PAGE 4   

 192          //-----------------------------------------------------------------------------
 193          // Zvuk
 194          //-----------------------------------------------------------------------------
 195          
 196          void PcaSoundRun( word count, byte attenuator)
 197          // Spusti zvuk s periodou <count> a  utlumem <attenuator>
 198          {
 199   1      TCounter Counter;
 200   1      word     pwm;
 201   1      
 202   1         pwm    = 50000;                               // min utlum - perioda 50% je 50000
 203   1         pwm  >>= (attenuator >> 1);                   // sudy utlum je 6dB (1/2)
 204   1         // normalizujeme na 50% == 10000 :
 205   1         if( attenuator & 0x01){
 206   2            pwm /= 7;                                  // lichy utlum pridej 3dB (1/V2) + odstraneni petinasobku
 207   2         } else {
 208   2            pwm /= 5;                                  // sudy utlum je 0dB + odstraneni petinasobku
 209   2         }
 210   1         sound_pwm1 = count * (dword)pwm / 20000;      // pwm 10 000 == 1/2
 211   1         if( sound_pwm1 < 65){
 212   2            sound_pwm1 = 65;                           // zpracovani IRQ je pomerne dlouhe
 213   2         }
 214   1         sound_pwm2 = count - sound_pwm1;              // doplnek do cele periody
 215   1         if( sound_pwm2 < 1){
 216   2            sound_pwm2 = 1;
 217   2         }
 218   1         DisableInts();                                // kriticka sekce
 219   1         PcaSoundOut      = 0;                         // prvni perioda
 220   1         Counter.Byte[ 1] = CL;                        // precti LSB citace
 221   1         Counter.Byte[ 0] = CH;                        // precti MSB citace
 222   1         Counter.Counter += sound_pwm1;                // nastav prvni periodu
 223   1         SOUND_COUNTER_L  = Counter.Byte[ 1];          // nastav LSB
 224   1         SOUND_COUNTER_H  = Counter.Byte[ 0];          // nastav MSB
 225   1         SOUND_CCAPM      = CCAPM_SW_TIMER;            // spust komparaci
 226   1         EnableInts();                                 // konec kriticke sekce
 227   1      } // PcaSoundRun
 228          
 229          //-----------------------------------------------------------------------------
 230          // Zastaveni
 231          //-----------------------------------------------------------------------------
 232          
 233          void PcaNosound( void)
 234          // Zastavi zvuk
 235          {
 236   1         SOUND_CCAPM = CCAPM_STOP;                     // zastav komparaci
 237   1      } // PcaNosound
 238          
 239          #endif // PCA_SOUND
 240          
 241          #ifdef PCA_COM2
 242          //-----------------------------------------------------------------------------
 243          // Vysilani
 244          //-----------------------------------------------------------------------------
 245          
 246          void Com2TxChar( byte c)
 247          // Vyslani znaku
 248          {
 249   1      TCounter Counter;
 250   1      
 251   1         if( Com2TFifoFull()){
 252   2            return;                                    // neni misto ve fronte
 253   2         }
 254   1         Com2DisableInt();                             // vyhradni pristup
 255   1         if( !_tx2_running){
 256   2            // prazdne FIFO, vysilani je zastaveno
 257   2            _tx2_running     = YES;                    // zahajeni vysilani
C51 COMPILER V5.50,  PCATMC                                                                24/07/12  10:33:52  PAGE 5   

 258   2            Data2Tx          = c;                      // vysilana data
 259   2            Count2Tx         = TX2_BITS;               // delka vysilanych dat
 260   2            DisableInts();                             // kriticka sekce
 261   2            Counter.Byte[ 1] = CL;                     // precti LSB citace
 262   2            Counter.Byte[ 0] = CH;                     // precti MSB citace
 263   2            Counter.Counter += COM2_ONE_BIT_COUNT;     // preruseni co nejdrive, radeji v baudovem ramci
 264   2            TX2_COUNTER_L    = Counter.Byte[ 1];       // nejpve LSB
 265   2            TX2_COUNTER_H    = Counter.Byte[ 0];       // potom MSB
 266   2            TX2_CCAPM        = CCAPM_SW_TIMER;         // compare mode - casovani bitu
 267   2            EnableInts();                              // konec kriticke sekce
 268   2         } else {
 269   2            // probiha vysilani, pridej do bufferu
 270   2            Com2TFifoWrite( c);
 271   2         }
 272   1         Com2EnableInt();
 273   1      } // Com2TxChar
 274          
 275          //-----------------------------------------------------------------------------
 276          // Prijem
 277          //-----------------------------------------------------------------------------
 278          
 279          TYesNo Com2RxChar( byte data *c)
 280          // Vraci prijaty znak, nebo NO pro timeout
 281          {
 282   1      word Timeout;
 283   1      
 284   1         Timeout = WDelayCount( COM2_RX_TIMEOUT, 6);
 285   1         do {
 286   2            if( !Com2RFifoEmpty()){
 287   3               // prijat znak
 288   3               Com2DisableInt();
 289   3               *c = Com2RFifoRead();
 290   3               Com2EnableInt();
 291   3               return( YES);
 292   3            }
 293   2         } while( --Timeout);
 294   1         return( NO);
 295   1      } // Com2RxChar
 296          
 297          #ifdef COM2_RX_WAIT
 298          //-----------------------------------------------------------------------------
 299          // Cekani na Rx
 300          //-----------------------------------------------------------------------------
 301          
 302          TYesNo Com2RxWait( byte Timeout)
 303          // Ceka na znak az <Timeout> * 100 milisekund
 304          {
 305   1      word i;
 306   1      
 307   1         i = 1;
 308   1         Timeout++;
 309   1         do{
 310   2            WatchDog();
 311   2            do {
 312   3               if( !Com2RFifoEmpty()){
 313   4                  return( YES);                        // pripraven znak
 314   4               }
 315   3            } while( --i);
 316   2            i = WDelayCount( 100000, 6);
 317   2         } while( --Timeout);
 318   1         return( NO);
 319   1      } // Com2RxWait
 320          #endif // COM2_RX_WAIT
 321          
 322          #ifdef COM2_FLUSH_CHARS
 323          //-----------------------------------------------------------------------------
C51 COMPILER V5.50,  PCATMC                                                                24/07/12  10:33:52  PAGE 6   

 324          // Preskok prijmu
 325          //-----------------------------------------------------------------------------
 326          
 327          void Com2FlushChars( void)
 328          // Vynecha vsechny znaky az do meziznakoveho timeoutu
 329          {
 330   1      word Timeout;
 331   1      
 332   1         Timeout = WDelayCount( COM2_RX_TIMEOUT, 10);
 333   1         do {
 334   2            WatchDog();
 335   2            if( !Com2RFifoEmpty()){
 336   3               // prijat znak
 337   3               Com2DisableInt();
 338   3               Com2RFifoFlush();
 339   3               Com2EnableInt();
 340   3               Timeout = WDelayCount( COM2_RX_TIMEOUT, 10);  // znovu timeout
 341   3               continue;
 342   3            }
 343   2         } while( --Timeout);
 344   1      } // Com2FlushChars
 345          #endif // COM2_FLUSH_CHARS
 346          
 347          #endif // PCA_COM2
 348          
 349          #ifdef PCA_COM3
 350          //-----------------------------------------------------------------------------
 351          // Vysilani
 352          //-----------------------------------------------------------------------------
 353          
 354          void Com3TxChar( byte c)
 355          // Vyslani znaku
 356          {
 357   1      TCounter Counter;
 358   1      
 359   1         Data3            = c;                         // vysilana data
 360   1         Count3           = TX3_BITS;                  // delka vysilanych dat
 361   1         DisableInts();                                // kriticka sekce
 362   1         Counter.Byte[ 1] = CL;                        // precti LSB citace
 363   1         Counter.Byte[ 0] = CH;                        // precti MSB citace
 364   1         Counter.Counter += COM3_ONE_BIT_COUNT;        // preruseni co nejdrive, radeji v baudovem ramci
 365   1         TX3_COUNTER_L    = Counter.Byte[ 1];          // nejpve LSB
 366   1         TX3_COUNTER_H    = Counter.Byte[ 0];          // potom MSB
 367   1         TX3_CCAPM        = CCAPM_SW_TIMER;            // compare mode - casovani bitu
 368   1         EnableInts();                                 // konec kriticke sekce
 369   1         while( TX3_RUNNING);                          // cekani na konec
 370   1      } // Com3TxChar
 371          #endif // PCA_COM3
 372          
 373          //-----------------------------------------------------------------------------
 374          // Prerusovaci rutina
 375          //-----------------------------------------------------------------------------
 376          
 377          static void PcaHandler( void) interrupt INT_PCA
 378          // Prerusovaci rutina PCA
 379          {
 380   1      TCounter Counter;
 381   1      
 382   1      #ifdef PCA_SOUND
 383   1         if( SOUND_FLAG){
 384   2            SOUND_FLAG = 0;
 385   2            Counter.Byte[ 1] = SOUND_COUNTER_L;        // precti LSB
 386   2            Counter.Byte[ 0] = SOUND_COUNTER_H;        // precti MSB
 387   2            if( PcaSoundOut){
 388   3               Counter.Counter += sound_pwm1;          // nastav prvni periodu
 389   3            } else {
C51 COMPILER V5.50,  PCATMC                                                                24/07/12  10:33:52  PAGE 7   

 390   3               Counter.Counter += sound_pwm2;          // nastav druhou periodu
 391   3            }
 392   2            SOUND_COUNTER_L  = Counter.Byte[ 1];       // nastav LSB
 393   2            SOUND_COUNTER_H  = Counter.Byte[ 0];       // nastav MSB
 394   2            PcaSoundOut      = !PcaSoundOut;
 395   2         }
 396   1      #endif
 397   1      #ifdef PCA_COM2
 398   1         // Rx ----------------------------------------------------------------------
 399   1         if( RX2_FLAG){
 400   2            RX2_FLAG = 0;                              // zrus priznak preruseni
 401   2            Counter.Byte[ 1] = RX2_COUNTER_L;          // nejprve LSB
 402   2            Counter.Byte[ 0] = RX2_COUNTER_H;          // potom MSB
 403   2            if( RX2_CAPTURE){
 404   3               // capture - vzorkovani startbitu
 405   3               Counter.Counter += COM2_HALF_BIT_COUNT;
 406   3               RX2_COUNTER_L    = Counter.Byte[ 1];    // nejpve LSB
 407   3               RX2_COUNTER_H    = Counter.Byte[ 0];    // potom MSB
 408   3               RX2_CCAPM        = CCAPM_SW_TIMER;      // compare mode - casovani bitu
 409   3               Data2Rx          = 0;                   // prijimana data
 410   3               goto rx2_done;
 411   3            }
 412   2            Counter.Counter += COM2_ONE_BIT_COUNT;
 413   2            RX2_COUNTER_L    = Counter.Byte[ 1];       // nejpve LSB
 414   2            RX2_COUNTER_H    = Counter.Byte[ 0];       // potom MSB
 415   2            // startbit :
 416   2            if( Count2Rx == RX2_BITS){
 417   3               if( PcaRX2 == RX2_SPACE){
 418   4                  // falesny startbit
 419   4                  RX2_CCAPM = RX2_START_EDGE;          // nove cekani na startbit
 420   4                  goto rx2_done;
 421   4               }
 422   3               Count2Rx--;                             // startbit ok
 423   3               goto rx2_done;
 424   3            }
 425   2            // stopbit :
 426   2            if( --Count2Rx == 0){
 427   3               Com2RxEnable();                         // novy prijem
 428   3               if( PcaRX2 == RX2_MARK){
 429   4                  goto rx2_done;                       // chyba stopbitu (tj. ramce)
 430   4               }
 431   3               // uspesny prijem znaku
 432   3               if( Com2RFifoFull()){
 433   4                  Com2RFifoFlush();                     // zahod nejstarsi znak
 434   4               }
 435   3               Com2RFifoWrite( Data2Rx);                // zapis znak
 436   3               goto rx2_done;
 437   3            }
 438   2            // datove bity :
 439   2            Data2Rx >>= 1;
 440   2            if( PcaRX2 == RX2_SPACE){
 441   3               Data2Rx |= 0x80;
 442   3            }
 443   2         }
 444   1      rx2_done :;
 445   1         // Tx ----------------------------------------------------------------------
 446   1         if( TX2_FLAG){
 447   2            TX2_FLAG = 0;                              // zrus priznak preruseni
 448   2            Counter.Byte[ 1] = TX2_COUNTER_L;          // nejprve LSB
 449   2            Counter.Byte[ 0] = TX2_COUNTER_H;          // potom MSB
 450   2            Counter.Counter += COM2_ONE_BIT_COUNT;     // nasledujici bit
 451   2            TX2_COUNTER_L    = Counter.Byte[ 1];       // nejpve LSB
 452   2            TX2_COUNTER_H    = Counter.Byte[ 0];       // potom MSB
 453   2            // startbit (jen pro prvni znak) :
 454   2            if( Count2Tx == TX2_BITS){
 455   3               PcaTX2 = TX2_MARK;                      // startbit
C51 COMPILER V5.50,  PCATMC                                                                24/07/12  10:33:52  PAGE 8   

 456   3               Count2Tx--;
 457   3               goto tx2_done;
 458   3            }
 459   2            if( Count2Tx == 0){
 460   3               // konec stopbitu = konec znaku
 461   3               if( Com2TFifoEmpty()){
 462   4                  _tx2_running = NO;                   // dovysilano
 463   4                  TX2_CCAPM    = CCAPM_STOP;           // zastav timer
 464   4                  goto tx2_done;
 465   4               }
 466   3               // dalsi znak :
 467   3               Data2Tx  = Com2TFifoRead();             // znak z FIFO
 468   3               Count2Tx = TX2_BITS - 1;                // delka vysilanych dat bez startbitu
 469   3               PcaTX2   = TX2_MARK;                    // startbit
 470   3               goto tx3_done;
 471   3            }
 472   2            if( --Count2Tx == 0){
 473   3               PcaTX2   = TX2_SPACE;                   // zahaj stopbit
 474   3               goto tx2_done;
 475   3            }
 476   2            PcaTX2 = Tx2Bit( Data2Tx & 0x01);          // datovy bit
 477   2            Data2Tx >>= 1;
 478   2         }
 479   1      tx2_done :;
 480   1      #endif // PCA_COM2
 481   1      #ifdef PCA_COM3
 482   1         // Tx ----------------------------------------------------------------------
 483   1         if( TX3_FLAG){
 484   2            TX3_FLAG = 0;                              // zrus priznak preruseni
 485   2            Counter.Byte[ 1] = TX3_COUNTER_L;          // nejprve LSB
 486   2            Counter.Byte[ 0] = TX3_COUNTER_H;          // potom MSB
 487   2            Counter.Counter += COM3_ONE_BIT_COUNT;     // nasledujici bit
 488   2            TX3_COUNTER_L    = Counter.Byte[ 1];       // nejpve LSB
 489   2            TX3_COUNTER_H    = Counter.Byte[ 0];       // potom MSB
 490   2            // startbit :
 491   2            if( Count3 == TX3_BITS){
 492   3               PcaTX3 = TX3_MARK;                      // startbit
 493   3               Count3--;
 494   3               goto tx3_done;
 495   3            }
 496   2            if( Count3 == 0){
 497   3               TX3_CCAPM = CCAPM_STOP;                 // konec stopbitu
 498   3               goto tx3_done;
 499   3            }
 500   2            if( --Count3 == 0){
 501   3               PcaTX3   = TX3_SPACE;                   // zahaj stopbit
 502   3               goto tx3_done;
 503   3            }
 504   2            PcaTX3 = Tx3Bit( Data3 & 0x01);            // datovy bit
 505   2            Data3 >>= 1;
 506   2         }
 507   1      tx3_done :;
 508   1      #endif
 509   1      } // PcaHandler
 510          
C51 COMPILER V5.50,  PCATMC                                                                24/07/12  10:33:52  PAGE 9   

ASSEMBLY LISTING OF GENERATED OBJECT CODE


             ; FUNCTION PcaInit (BEGIN)
                                           ; SOURCE LINE # 159
                                           ; SOURCE LINE # 161
                                           ; SOURCE LINE # 163
0000 C2AE          CLR     EC
                                           ; SOURCE LINE # 164
0002 75B740        MOV     IPH0,#040H
                                           ; SOURCE LINE # 165
0005 E4            CLR     A
0006 F5D8          MOV     CCON,A
                                           ; SOURCE LINE # 166
0008 75D902        MOV     CMOD,#02H
                                           ; SOURCE LINE # 167
000B F5E9          MOV     CL,A
                                           ; SOURCE LINE # 168
000D F5F9          MOV     CH,A
                                           ; SOURCE LINE # 169
000F F5DA          MOV     CCAPM0,A
                                           ; SOURCE LINE # 170
0011 F5DB          MOV     CCAPM1,A
                                           ; SOURCE LINE # 171
0013 F5DC          MOV     CCAPM2,A
                                           ; SOURCE LINE # 172
0015 F5DD          MOV     CCAPM3,A
                                           ; SOURCE LINE # 173
0017 F5DE          MOV     CCAPM4,A
                                           ; SOURCE LINE # 176
0019 C295          CLR     TmcTX2
                                           ; SOURCE LINE # 177
001B D294          SETB    TmcRX2
                                           ; SOURCE LINE # 178
001D F500    R     MOV     iread,A
001F F500    R     MOV     iwrite,A
                                           ; SOURCE LINE # 179
0021 F500    R     MOV     oread,A
0023 F500    R     MOV     oread+01H,A
0025 F500    R     MOV     owrite,A
0027 F500    R     MOV     owrite+01H,A
                                           ; SOURCE LINE # 180
0029 F500    R     MOV     _tx2_running,A
                                           ; SOURCE LINE # 181
002B 75000A  R     MOV     Count2Rx,#0AH
002E 75DB11        MOV     CCAPM1,#011H
                                           ; SOURCE LINE # 184
0031 D296          SETB    TmcTX3
                                           ; SOURCE LINE # 187
0033 D2DE          SETB    CR
                                           ; SOURCE LINE # 188
0035 D2AE          SETB    EC
                                           ; SOURCE LINE # 189
0037 22            RET     
             ; FUNCTION PcaInit (END)

             ; FUNCTION _PcaSoundRun (BEGIN)
0000 8E00    R     MOV     count,R6
0002 8F00    R     MOV     count+01H,R7
;---- Variable 'attenuator' assigned to Register 'R5' ----
                                           ; SOURCE LINE # 196
                                           ; SOURCE LINE # 198
                                           ; SOURCE LINE # 202
;---- Variable 'pwm' assigned to Register 'R2/R3' ----
0004 7B50          MOV     R3,#050H
0006 7AC3          MOV     R2,#0C3H
C51 COMPILER V5.50,  PCATMC                                                                24/07/12  10:33:52  PAGE 10  

                                           ; SOURCE LINE # 203
0008 ED            MOV     A,R5
0009 C3            CLR     C
000A 13            RRC     A
000B FF            MOV     R7,A
000C EB            MOV     A,R3
000D AE02          MOV     R6,AR2
000F A807          MOV     R0,AR7
0011 08            INC     R0
0012 8005          SJMP    ?C0058
0014         ?C0057:
0014 CE            XCH     A,R6
0015 C3            CLR     C
0016 13            RRC     A
0017 CE            XCH     A,R6
0018 13            RRC     A
0019         ?C0058:
0019 D8F9          DJNZ    R0,?C0057
001B FB            MOV     R3,A
001C AA06          MOV     R2,AR6
                                           ; SOURCE LINE # 205
001E ED            MOV     A,R5
001F 30E00F        JNB     ACC.0,?C0002
                                           ; SOURCE LINE # 206
0022 AF03          MOV     R7,AR3
0024 7C00          MOV     R4,#00H
0026 7D07          MOV     R5,#07H
0028 120000  E     LCALL   ?C?UIDIV
002B AA06          MOV     R2,AR6
002D AB07          MOV     R3,AR7
                                           ; SOURCE LINE # 207
002F 800F          SJMP    ?C0003
0031         ?C0002:
                                           ; SOURCE LINE # 208
0031 AE02          MOV     R6,AR2
0033 AF03          MOV     R7,AR3
0035 7C00          MOV     R4,#00H
0037 7D05          MOV     R5,#05H
0039 120000  E     LCALL   ?C?UIDIV
003C AA06          MOV     R2,AR6
003E AB07          MOV     R3,AR7
                                           ; SOURCE LINE # 209
0040         ?C0003:
                                           ; SOURCE LINE # 210
0040 AE02          MOV     R6,AR2
0042 AF03          MOV     R7,AR3
0044 E4            CLR     A
0045 FC            MOV     R4,A
0046 FD            MOV     R5,A
0047 F8            MOV     R0,A
0048 F9            MOV     R1,A
0049 AE00    R     MOV     R6,count
004B AF00    R     MOV     R7,count+01H
004D 120000  E     LCALL   ?C?LMUL
0050 7B20          MOV     R3,#020H
0052 7A4E          MOV     R2,#04EH
0054 7900          MOV     R1,#00H
0056 7800          MOV     R0,#00H
0058 120000  E     LCALL   ?C?ULDIV
005B 8E00    R     MOV     sound_pwm1,R6
005D 8F00    R     MOV     sound_pwm1+01H,R7
                                           ; SOURCE LINE # 211
005F C3            CLR     C
0060 E500    R     MOV     A,sound_pwm1+01H
0062 9441          SUBB    A,#041H
0064 E500    R     MOV     A,sound_pwm1
C51 COMPILER V5.50,  PCATMC                                                                24/07/12  10:33:52  PAGE 11  

0066 9400          SUBB    A,#00H
0068 5006          JNC     ?C0004
                                           ; SOURCE LINE # 212
006A 750000  R     MOV     sound_pwm1,#00H
006D 750041  R     MOV     sound_pwm1+01H,#041H
                                           ; SOURCE LINE # 213
0070         ?C0004:
                                           ; SOURCE LINE # 214
0070 C3            CLR     C
0071 E500    R     MOV     A,count+01H
0073 9500    R     SUBB    A,sound_pwm1+01H
0075 F500    R     MOV     sound_pwm2+01H,A
0077 E500    R     MOV     A,count
0079 9500    R     SUBB    A,sound_pwm1
007B F500    R     MOV     sound_pwm2,A
                                           ; SOURCE LINE # 215
007D C3            CLR     C
007E E500    R     MOV     A,sound_pwm2+01H
0080 9401          SUBB    A,#01H
0082 E500    R     MOV     A,sound_pwm2
0084 9400          SUBB    A,#00H
0086 5006          JNC     ?C0005
                                           ; SOURCE LINE # 216
0088 750000  R     MOV     sound_pwm2,#00H
008B 750001  R     MOV     sound_pwm2+01H,#01H
                                           ; SOURCE LINE # 217
008E         ?C0005:
                                           ; SOURCE LINE # 218
008E C2AF          CLR     EA
                                           ; SOURCE LINE # 219
0090 C2A4          CLR     TmcPISK
                                           ; SOURCE LINE # 220
0092 85E900  R     MOV     Counter+01H,CL
                                           ; SOURCE LINE # 221
0095 85F900  R     MOV     Counter,CH
                                           ; SOURCE LINE # 222
0098 E500    R     MOV     A,sound_pwm1+01H
009A 2500    R     ADD     A,Counter+01H
009C F500    R     MOV     Counter+01H,A
009E E500    R     MOV     A,sound_pwm1
00A0 3500    R     ADDC    A,Counter
00A2 F500    R     MOV     Counter,A
                                           ; SOURCE LINE # 223
00A4 8500ED  R     MOV     CCAP3L,Counter+01H
                                           ; SOURCE LINE # 224
00A7 8500FD  R     MOV     CCAP3H,Counter
                                           ; SOURCE LINE # 225
00AA 75DD49        MOV     CCAPM3,#049H
                                           ; SOURCE LINE # 226
00AD D2AF          SETB    EA
                                           ; SOURCE LINE # 227
00AF 22            RET     
             ; FUNCTION _PcaSoundRun (END)

             ; FUNCTION PcaNosound (BEGIN)
                                           ; SOURCE LINE # 233
                                           ; SOURCE LINE # 235
                                           ; SOURCE LINE # 236
0000 E4            CLR     A
0001 F5DD          MOV     CCAPM3,A
                                           ; SOURCE LINE # 237
0003 22            RET     
             ; FUNCTION PcaNosound (END)

             ; FUNCTION _Com2TxChar (BEGIN)
;---- Variable 'c' assigned to Register 'R7' ----
C51 COMPILER V5.50,  PCATMC                                                                24/07/12  10:33:52  PAGE 12  

                                           ; SOURCE LINE # 246
                                           ; SOURCE LINE # 248
                                           ; SOURCE LINE # 251
0000 E4            CLR     A
0001 2500    R     ADD     A,oread+01H
0003 FD            MOV     R5,A
0004 E500    R     MOV     A,oread
0006 3402          ADDC    A,#02H
0008 FC            MOV     R4,A
0009 ED            MOV     A,R5
000A 6500    R     XRL     A,owrite+01H
000C 7003          JNZ     ?C0059
000E EC            MOV     A,R4
000F 6500    R     XRL     A,owrite
0011         ?C0059:
0011 604F          JZ      ?C0009
                                           ; SOURCE LINE # 253
0013         ?C0008:
                                           ; SOURCE LINE # 254
0013 53DBFE        ANL     CCAPM1,#0FEH
                                           ; SOURCE LINE # 255
0016 E500    R     MOV     A,_tx2_running
0018 7029          JNZ     ?C0010
                                           ; SOURCE LINE # 257
001A 750001  R     MOV     _tx2_running,#01H
                                           ; SOURCE LINE # 258
001D 8F00    R     MOV     Data2Tx,R7
                                           ; SOURCE LINE # 259
001F 75000A  R     MOV     Count2Tx,#0AH
                                           ; SOURCE LINE # 260
0022 C2AF          CLR     EA
                                           ; SOURCE LINE # 261
0024 85E900  R     MOV     Counter+01H,CL
                                           ; SOURCE LINE # 262
0027 85F900  R     MOV     Counter,CH
                                           ; SOURCE LINE # 263
002A 74E0          MOV     A,#0E0H
002C 2500    R     ADD     A,Counter+01H
002E F500    R     MOV     Counter+01H,A
0030 7401          MOV     A,#01H
0032 3500    R     ADDC    A,Counter
0034 F500    R     MOV     Counter,A
                                           ; SOURCE LINE # 264
0036 8500EA  R     MOV     CCAP0L,Counter+01H
                                           ; SOURCE LINE # 265
0039 8500FA  R     MOV     CCAP0H,Counter
                                           ; SOURCE LINE # 266
003C 75DA49        MOV     CCAPM0,#049H
                                           ; SOURCE LINE # 267
003F D2AF          SETB    EA
                                           ; SOURCE LINE # 268
0041 801C          SJMP    ?C0011
0043         ?C0010:
                                           ; SOURCE LINE # 270
0043 0500    R     INC     owrite+01H
0045 E500    R     MOV     A,owrite+01H
0047 AC00    R     MOV     R4,owrite
0049 7002          JNZ     ?C0060
004B 0500    R     INC     owrite
004D         ?C0060:
004D 14            DEC     A
004E FD            MOV     R5,A
004F EC            MOV     A,R4
0050 5401          ANL     A,#01H
0052 FC            MOV     R4,A
0053 7400    R     MOV     A,#LOW obuff
C51 COMPILER V5.50,  PCATMC                                                                24/07/12  10:33:52  PAGE 13  

0055 2D            ADD     A,R5
0056 F582          MOV     DPL,A
0058 EC            MOV     A,R4
0059 3400    R     ADDC    A,#HIGH obuff
005B F583          MOV     DPH,A
005D EF            MOV     A,R7
005E F0            MOVX    @DPTR,A
                                           ; SOURCE LINE # 271
005F         ?C0011:
                                           ; SOURCE LINE # 272
005F 43DB01        ORL     CCAPM1,#01H
                                           ; SOURCE LINE # 273
0062         ?C0009:
0062 22            RET     
             ; FUNCTION _Com2TxChar (END)

             ; FUNCTION _Com2RxChar (BEGIN)
;---- Variable 'c' assigned to Register 'R7' ----
                                           ; SOURCE LINE # 279
                                           ; SOURCE LINE # 281
                                           ; SOURCE LINE # 284
;---- Variable 'Timeout' assigned to Register 'R4/R5' ----
0000 7D00          MOV     R5,#00H
0002 7C04          MOV     R4,#04H
0004         ?C0014:
                                           ; SOURCE LINE # 285
                                           ; SOURCE LINE # 286
0004 AE00    R     MOV     R6,iwrite
0006 E500    R     MOV     A,iread
0008 6E            XRL     A,R6
0009 601C          JZ      ?C0012
                                           ; SOURCE LINE # 288
000B 53DBFE        ANL     CCAPM1,#0FEH
                                           ; SOURCE LINE # 289
000E AE00    R     MOV     R6,iread
0010 0500    R     INC     iread
0012 EE            MOV     A,R6
0013 541F          ANL     A,#01FH
0015 2400    R     ADD     A,#LOW ibuff
0017 F582          MOV     DPL,A
0019 E4            CLR     A
001A 3400    R     ADDC    A,#HIGH ibuff
001C F583          MOV     DPH,A
001E E0            MOVX    A,@DPTR
001F A807          MOV     R0,AR7
0021 F6            MOV     @R0,A
                                           ; SOURCE LINE # 290
0022 43DB01        ORL     CCAPM1,#01H
                                           ; SOURCE LINE # 291
0025 D3            SETB    C
0026 22            RET     
                                           ; SOURCE LINE # 292
                                           ; SOURCE LINE # 293
0027         ?C0012:
0027 ED            MOV     A,R5
0028 1D            DEC     R5
0029 7001          JNZ     ?C0061
002B 1C            DEC     R4
002C         ?C0061:
002C 14            DEC     A
002D 4C            ORL     A,R4
002E 70D4          JNZ     ?C0014
                                           ; SOURCE LINE # 294
0030 C3            CLR     C
                                           ; SOURCE LINE # 295
0031         ?C0016:
C51 COMPILER V5.50,  PCATMC                                                                24/07/12  10:33:52  PAGE 14  

0031 22            RET     
             ; FUNCTION _Com2RxChar (END)

             ; FUNCTION _Com2RxWait (BEGIN)
;---- Variable 'Timeout' assigned to Register 'R7' ----
                                           ; SOURCE LINE # 302
                                           ; SOURCE LINE # 304
                                           ; SOURCE LINE # 307
;---- Variable 'i' assigned to Register 'R4/R5' ----
0000 7D01          MOV     R5,#01H
0002 7C00          MOV     R4,#00H
                                           ; SOURCE LINE # 308
0004 0F            INC     R7
0005         ?C0019:
                                           ; SOURCE LINE # 309
                                           ; SOURCE LINE # 310
0005 75A61E        MOV     WDTRST,#01EH
0008 75A6E1        MOV     WDTRST,#0E1H
000B         ?C0022:
                                           ; SOURCE LINE # 311
                                           ; SOURCE LINE # 312
000B AE00    R     MOV     R6,iwrite
000D E500    R     MOV     A,iread
000F 6E            XRL     A,R6
0010 6002          JZ      ?C0020
                                           ; SOURCE LINE # 313
0012 D3            SETB    C
0013 22            RET     
                                           ; SOURCE LINE # 314
                                           ; SOURCE LINE # 315
0014         ?C0020:
0014 ED            MOV     A,R5
0015 1D            DEC     R5
0016 7001          JNZ     ?C0062
0018 1C            DEC     R4
0019         ?C0062:
0019 14            DEC     A
001A 4C            ORL     A,R4
001B 70EE          JNZ     ?C0022
                                           ; SOURCE LINE # 316
001D 7C50          MOV     R4,#050H
001F FD            MOV     R5,A
                                           ; SOURCE LINE # 317
0020 DFE3          DJNZ    R7,?C0019
                                           ; SOURCE LINE # 318
0022 C3            CLR     C
                                           ; SOURCE LINE # 319
0023         ?C0024:
0023 22            RET     
             ; FUNCTION _Com2RxWait (END)

             ; FUNCTION Com2FlushChars (BEGIN)
                                           ; SOURCE LINE # 327
                                           ; SOURCE LINE # 329
                                           ; SOURCE LINE # 332
;---- Variable 'Timeout' assigned to Register 'R6/R7' ----
0000 7F28          MOV     R7,#028H
0002 7E03          MOV     R6,#03H
0004         ?C0027:
                                           ; SOURCE LINE # 333
                                           ; SOURCE LINE # 334
0004 75A61E        MOV     WDTRST,#01EH
0007 75A6E1        MOV     WDTRST,#0E1H
                                           ; SOURCE LINE # 335
000A AD00    R     MOV     R5,iwrite
000C E500    R     MOV     A,iread
C51 COMPILER V5.50,  PCATMC                                                                24/07/12  10:33:52  PAGE 15  

000E 6D            XRL     A,R5
000F 600C          JZ      ?C0025
                                           ; SOURCE LINE # 337
0011 53DBFE        ANL     CCAPM1,#0FEH
                                           ; SOURCE LINE # 338
0014 0500    R     INC     iread
                                           ; SOURCE LINE # 339
0016 43DB01        ORL     CCAPM1,#01H
                                           ; SOURCE LINE # 340
0019 7E03          MOV     R6,#03H
001B 7F28          MOV     R7,#028H
                                           ; SOURCE LINE # 341
                                           ; SOURCE LINE # 342
                                           ; SOURCE LINE # 343
001D         ?C0025:
001D EF            MOV     A,R7
001E 1F            DEC     R7
001F 7001          JNZ     ?C0063
0021 1E            DEC     R6
0022         ?C0063:
0022 14            DEC     A
0023 4E            ORL     A,R6
0024 70DE          JNZ     ?C0027
                                           ; SOURCE LINE # 344
0026 22            RET     
             ; FUNCTION Com2FlushChars (END)

             ; FUNCTION _Com3TxChar (BEGIN)
;---- Variable 'c' assigned to Register 'R7' ----
                                           ; SOURCE LINE # 354
                                           ; SOURCE LINE # 356
                                           ; SOURCE LINE # 359
0000 8F00    R     MOV     Data3,R7
                                           ; SOURCE LINE # 360
0002 75000A  R     MOV     Count3,#0AH
                                           ; SOURCE LINE # 361
0005 C2AF          CLR     EA
                                           ; SOURCE LINE # 362
0007 85E900  R     MOV     Counter+01H,CL
                                           ; SOURCE LINE # 363
000A 85F900  R     MOV     Counter,CH
                                           ; SOURCE LINE # 364
000D 74E0          MOV     A,#0E0H
000F 2500    R     ADD     A,Counter+01H
0011 F500    R     MOV     Counter+01H,A
0013 7401          MOV     A,#01H
0015 3500    R     ADDC    A,Counter
0017 F500    R     MOV     Counter,A
                                           ; SOURCE LINE # 365
0019 8500EC  R     MOV     CCAP2L,Counter+01H
                                           ; SOURCE LINE # 366
001C 8500FC  R     MOV     CCAP2H,Counter
                                           ; SOURCE LINE # 367
001F 75DC49        MOV     CCAPM2,#049H
                                           ; SOURCE LINE # 368
0022 D2AF          SETB    EA
0024         ?C0030:
                                           ; SOURCE LINE # 369
0024 E5DC          MOV     A,CCAPM2
0026 20E0FB        JB      ACC.0,?C0030
                                           ; SOURCE LINE # 370
0029         ?C0032:
0029 22            RET     
             ; FUNCTION _Com3TxChar (END)

             ; FUNCTION PcaHandler (BEGIN)
C51 COMPILER V5.50,  PCATMC                                                                24/07/12  10:33:52  PAGE 16  

0000 C0E0          PUSH    ACC
0002 C083          PUSH    DPH
0004 C082          PUSH    DPL
0006 C0D0          PUSH    PSW
0008 75D000        MOV     PSW,#00H
000B C006          PUSH    AR6
000D C007          PUSH    AR7
                                           ; SOURCE LINE # 377
                                           ; SOURCE LINE # 383
000F 30DB2D        JNB     CCF3,?C0033
                                           ; SOURCE LINE # 384
0012 C2DB          CLR     CCF3
                                           ; SOURCE LINE # 385
0014 85ED00  R     MOV     Counter+01H,CCAP3L
                                           ; SOURCE LINE # 386
0017 85FD00  R     MOV     Counter,CCAP3H
                                           ; SOURCE LINE # 387
001A 30A40E        JNB     TmcPISK,?C0034
                                           ; SOURCE LINE # 388
001D E500    R     MOV     A,sound_pwm1+01H
001F 2500    R     ADD     A,Counter+01H
0021 F500    R     MOV     Counter+01H,A
0023 E500    R     MOV     A,sound_pwm1
0025 3500    R     ADDC    A,Counter
0027 F500    R     MOV     Counter,A
                                           ; SOURCE LINE # 389
0029 800C          SJMP    ?C0035
002B         ?C0034:
                                           ; SOURCE LINE # 390
002B E500    R     MOV     A,sound_pwm2+01H
002D 2500    R     ADD     A,Counter+01H
002F F500    R     MOV     Counter+01H,A
0031 E500    R     MOV     A,sound_pwm2
0033 3500    R     ADDC    A,Counter
0035 F500    R     MOV     Counter,A
                                           ; SOURCE LINE # 391
0037         ?C0035:
                                           ; SOURCE LINE # 392
0037 8500ED  R     MOV     CCAP3L,Counter+01H
                                           ; SOURCE LINE # 393
003A 8500FD  R     MOV     CCAP3H,Counter
                                           ; SOURCE LINE # 394
003D B2A4          CPL     TmcPISK
                                           ; SOURCE LINE # 395
003F         ?C0033:
                                           ; SOURCE LINE # 399
003F 20D903        JB      CCF1,$ + 6H
0042 020000  R     LJMP    rx2_done
                                           ; SOURCE LINE # 400
0045 C2D9          CLR     CCF1
                                           ; SOURCE LINE # 401
0047 85EB00  R     MOV     Counter+01H,CCAP1L
                                           ; SOURCE LINE # 402
004A 85FB00  R     MOV     Counter,CCAP1H
                                           ; SOURCE LINE # 403
004D E5DB          MOV     A,CCAPM1
004F 5430          ANL     A,#030H
0051 6019          JZ      ?C0037
                                           ; SOURCE LINE # 405
0053 74F0          MOV     A,#0F0H
0055 2500    R     ADD     A,Counter+01H
0057 F500    R     MOV     Counter+01H,A
0059 E4            CLR     A
005A 3500    R     ADDC    A,Counter
005C F500    R     MOV     Counter,A
                                           ; SOURCE LINE # 406
C51 COMPILER V5.50,  PCATMC                                                                24/07/12  10:33:52  PAGE 17  

005E 8500EB  R     MOV     CCAP1L,Counter+01H
                                           ; SOURCE LINE # 407
0061 8500FB  R     MOV     CCAP1H,Counter
                                           ; SOURCE LINE # 408
0064 75DB49        MOV     CCAPM1,#049H
                                           ; SOURCE LINE # 409
0067 750000  R     MOV     Data2Rx,#00H
                                           ; SOURCE LINE # 410
006A 805D          SJMP    rx2_done
                                           ; SOURCE LINE # 411
006C         ?C0037:
                                           ; SOURCE LINE # 412
006C 74E0          MOV     A,#0E0H
006E 2500    R     ADD     A,Counter+01H
0070 F500    R     MOV     Counter+01H,A
0072 7401          MOV     A,#01H
0074 3500    R     ADDC    A,Counter
0076 F500    R     MOV     Counter,A
                                           ; SOURCE LINE # 413
0078 8500EB  R     MOV     CCAP1L,Counter+01H
                                           ; SOURCE LINE # 414
007B 8500FB  R     MOV     CCAP1H,Counter
                                           ; SOURCE LINE # 416
007E E500    R     MOV     A,Count2Rx
0080 B40A0C        CJNE    A,#0AH,?C0039
                                           ; SOURCE LINE # 417
0083 309405        JNB     TmcRX2,?C0040
                                           ; SOURCE LINE # 419
0086 75DB11        MOV     CCAPM1,#011H
                                           ; SOURCE LINE # 420
0089 803E          SJMP    rx2_done
                                           ; SOURCE LINE # 421
008B         ?C0040:
                                           ; SOURCE LINE # 422
008B 1500    R     DEC     Count2Rx
                                           ; SOURCE LINE # 423
008D 803A          SJMP    rx2_done
                                           ; SOURCE LINE # 424
008F         ?C0039:
                                           ; SOURCE LINE # 426
008F 1500    R     DEC     Count2Rx
0091 AF00    R     MOV     R7,Count2Rx
0093 EF            MOV     A,R7
0094 7027          JNZ     ?C0041
                                           ; SOURCE LINE # 427
0096 75000A  R     MOV     Count2Rx,#0AH
0099 75DB11        MOV     CCAPM1,#011H
                                           ; SOURCE LINE # 428
009C 30942A        JNB     TmcRX2,rx2_done
                                           ; SOURCE LINE # 429
                                           ; SOURCE LINE # 430
009F         ?C0042:
                                           ; SOURCE LINE # 432
009F E500    R     MOV     A,iread
00A1 2420          ADD     A,#020H
00A3 B50002  R     CJNE    A,iwrite,?C0043
                                           ; SOURCE LINE # 433
00A6 0500    R     INC     iread
                                           ; SOURCE LINE # 434
00A8         ?C0043:
                                           ; SOURCE LINE # 435
00A8 AF00    R     MOV     R7,iwrite
00AA 0500    R     INC     iwrite
00AC EF            MOV     A,R7
00AD 541F          ANL     A,#01FH
00AF 2400    R     ADD     A,#LOW ibuff
C51 COMPILER V5.50,  PCATMC                                                                24/07/12  10:33:52  PAGE 18  

00B1 F582          MOV     DPL,A
00B3 E4            CLR     A
00B4 3400    R     ADDC    A,#HIGH ibuff
00B6 F583          MOV     DPH,A
00B8 E500    R     MOV     A,Data2Rx
00BA F0            MOVX    @DPTR,A
                                           ; SOURCE LINE # 436
00BB 800C          SJMP    rx2_done
                                           ; SOURCE LINE # 437
00BD         ?C0041:
                                           ; SOURCE LINE # 439
00BD E500    R     MOV     A,Data2Rx
00BF C3            CLR     C
00C0 13            RRC     A
00C1 F500    R     MOV     Data2Rx,A
                                           ; SOURCE LINE # 440
00C3 309403        JNB     TmcRX2,rx2_done
                                           ; SOURCE LINE # 441
00C6 430080  R     ORL     Data2Rx,#080H
                                           ; SOURCE LINE # 442
                                           ; SOURCE LINE # 443
                                           ; SOURCE LINE # 444
00C9         rx2_done:
                                           ; SOURCE LINE # 446
00C9 30D872        JNB     CCF0,tx2_done
                                           ; SOURCE LINE # 447
00CC C2D8          CLR     CCF0
                                           ; SOURCE LINE # 448
00CE 85EA00  R     MOV     Counter+01H,CCAP0L
                                           ; SOURCE LINE # 449
00D1 85FA00  R     MOV     Counter,CCAP0H
                                           ; SOURCE LINE # 450
00D4 74E0          MOV     A,#0E0H
00D6 2500    R     ADD     A,Counter+01H
00D8 F500    R     MOV     Counter+01H,A
00DA 7401          MOV     A,#01H
00DC 3500    R     ADDC    A,Counter
00DE F500    R     MOV     Counter,A
                                           ; SOURCE LINE # 451
00E0 8500EA  R     MOV     CCAP0L,Counter+01H
                                           ; SOURCE LINE # 452
00E3 8500FA  R     MOV     CCAP0H,Counter
                                           ; SOURCE LINE # 454
00E6 E500    R     MOV     A,Count2Tx
00E8 B40A06        CJNE    A,#0AH,?C0046
                                           ; SOURCE LINE # 455
00EB D295          SETB    TmcTX2
                                           ; SOURCE LINE # 456
00ED 1500    R     DEC     Count2Tx
                                           ; SOURCE LINE # 457
00EF 804D          SJMP    tx2_done
                                           ; SOURCE LINE # 458
00F1         ?C0046:
                                           ; SOURCE LINE # 459
00F1 E500    R     MOV     A,Count2Tx
00F3 7036          JNZ     ?C0048
                                           ; SOURCE LINE # 461
00F5 E500    R     MOV     A,oread+01H
00F7 B5000D  R     CJNE    A,owrite+01H,?C0049
00FA E500    R     MOV     A,oread
00FC B50008  R     CJNE    A,owrite,?C0049
                                           ; SOURCE LINE # 462
00FF 750000  R     MOV     _tx2_running,#00H
                                           ; SOURCE LINE # 463
0102 75DA00        MOV     CCAPM0,#00H
                                           ; SOURCE LINE # 464
C51 COMPILER V5.50,  PCATMC                                                                24/07/12  10:33:52  PAGE 19  

0105 8037          SJMP    tx2_done
                                           ; SOURCE LINE # 465
0107         ?C0049:
                                           ; SOURCE LINE # 467
0107 0500    R     INC     oread+01H
0109 E500    R     MOV     A,oread+01H
010B AE00    R     MOV     R6,oread
010D 7002          JNZ     ?C0065
010F 0500    R     INC     oread
0111         ?C0065:
0111 14            DEC     A
0112 FF            MOV     R7,A
0113 EE            MOV     A,R6
0114 5401          ANL     A,#01H
0116 FE            MOV     R6,A
0117 7400    R     MOV     A,#LOW obuff
0119 2F            ADD     A,R7
011A F582          MOV     DPL,A
011C EE            MOV     A,R6
011D 3400    R     ADDC    A,#HIGH obuff
011F F583          MOV     DPH,A
0121 E0            MOVX    A,@DPTR
0122 F500    R     MOV     Data2Tx,A
                                           ; SOURCE LINE # 468
0124 750009  R     MOV     Count2Tx,#09H
                                           ; SOURCE LINE # 469
0127 D295          SETB    TmcTX2
                                           ; SOURCE LINE # 470
0129 8055          SJMP    ?C0056
                                           ; SOURCE LINE # 471
012B         ?C0048:
                                           ; SOURCE LINE # 472
012B D50004  R     DJNZ    Count2Tx,?C0051
                                           ; SOURCE LINE # 473
012E C295          CLR     TmcTX2
                                           ; SOURCE LINE # 474
0130 800C          SJMP    tx2_done
                                           ; SOURCE LINE # 475
0132         ?C0051:
                                           ; SOURCE LINE # 476
0132 E500    R     MOV     A,Data2Tx
0134 13            RRC     A
0135 B3            CPL     C
0136 9295          MOV     TmcTX2,C
                                           ; SOURCE LINE # 477
0138 E500    R     MOV     A,Data2Tx
013A C3            CLR     C
013B 13            RRC     A
013C F500    R     MOV     Data2Tx,A
                                           ; SOURCE LINE # 478
                                           ; SOURCE LINE # 479
013E         tx2_done:
                                           ; SOURCE LINE # 483
013E 30DA3F        JNB     CCF2,?C0056
                                           ; SOURCE LINE # 484
0141 C2DA          CLR     CCF2
                                           ; SOURCE LINE # 485
0143 85EC00  R     MOV     Counter+01H,CCAP2L
                                           ; SOURCE LINE # 486
0146 85FC00  R     MOV     Counter,CCAP2H
                                           ; SOURCE LINE # 487
0149 74E0          MOV     A,#0E0H
014B 2500    R     ADD     A,Counter+01H
014D F500    R     MOV     Counter+01H,A
014F 7401          MOV     A,#01H
0151 3500    R     ADDC    A,Counter
C51 COMPILER V5.50,  PCATMC                                                                24/07/12  10:33:52  PAGE 20  

0153 F500    R     MOV     Counter,A
                                           ; SOURCE LINE # 488
0155 8500EC  R     MOV     CCAP2L,Counter+01H
                                           ; SOURCE LINE # 489
0158 8500FC  R     MOV     CCAP2H,Counter
                                           ; SOURCE LINE # 491
015B E500    R     MOV     A,Count3
015D B40A06        CJNE    A,#0AH,?C0053
                                           ; SOURCE LINE # 492
0160 C296          CLR     TmcTX3
                                           ; SOURCE LINE # 493
0162 1500    R     DEC     Count3
                                           ; SOURCE LINE # 494
0164 801A          SJMP    ?C0056
                                           ; SOURCE LINE # 495
0166         ?C0053:
                                           ; SOURCE LINE # 496
0166 E500    R     MOV     A,Count3
0168 7004          JNZ     ?C0054
                                           ; SOURCE LINE # 497
016A F5DC          MOV     CCAPM2,A
                                           ; SOURCE LINE # 498
016C 8012          SJMP    ?C0056
                                           ; SOURCE LINE # 499
016E         ?C0054:
                                           ; SOURCE LINE # 500
016E D50004  R     DJNZ    Count3,?C0055
                                           ; SOURCE LINE # 501
0171 D296          SETB    TmcTX3
                                           ; SOURCE LINE # 502
0173 800B          SJMP    ?C0056
                                           ; SOURCE LINE # 503
0175         ?C0055:
                                           ; SOURCE LINE # 504
0175 E500    R     MOV     A,Data3
0177 13            RRC     A
0178 9296          MOV     TmcTX3,C
                                           ; SOURCE LINE # 505
017A E500    R     MOV     A,Data3
017C C3            CLR     C
017D 13            RRC     A
017E F500    R     MOV     Data3,A
                                           ; SOURCE LINE # 506
                                           ; SOURCE LINE # 507
0180         tx3_done:
                                           ; SOURCE LINE # 509
0180         ?C0056:
0180 D007          POP     AR7
0182 D006          POP     AR6
0184 D0D0          POP     PSW
0186 D082          POP     DPL
0188 D083          POP     DPH
018A D0E0          POP     ACC
018C 32            RETI    
             ; FUNCTION PcaHandler (END)



MODULE INFORMATION:   STATIC OVERLAYABLE
   CODE SIZE        =    902    ----
   CONSTANT SIZE    =   ----    ----
   XDATA SIZE       =    544    ----
   PDATA SIZE       =   ----    ----
   DATA SIZE        =     18      10
   IDATA SIZE       =   ----    ----
   BIT SIZE         =   ----    ----
C51 COMPILER V5.50,  PCATMC                                                                24/07/12  10:33:52  PAGE 21  

END OF MODULE INFORMATION.


C51 COMPILATION COMPLETE.  0 WARNING(S),  0 ERROR(S)
